{
  "transactions": [
    {
      "hash": "0x2dfc075c6333441c3611101b9a1de6b4d532632b065a7ed5b357b7b6f7b5c106",
      "transactionType": "CALL",
      "contractName": null,
      "contractAddress": "0xa3cf1701a4615ef7423d4f699968e5d6dde07897",
      "function": "setGovernor(address)",
      "arguments": [
        "0xEFBBD14082cF2FbCf5Badc7ee619F0f4e36D0A5B"
      ],
      "transaction": {
        "from": "0xefbbd14082cf2fbcf5badc7ee619f0f4e36d0a5b",
        "to": "0xa3cf1701a4615ef7423d4f699968e5d6dde07897",
        "gas": "0xb3cf",
        "value": "0x0",
        "input": "0xc42cf535000000000000000000000000efbbd14082cf2fbcf5badc7ee619f0f4e36d0a5b",
        "nonce": "0x205",
        "chainId": "0x13882"
      },
      "additionalContracts": [],
      "isFixedGasLimit": false
    },
    {
      "hash": "0x81bff28758a1218b04f9b7ae2d055a0215775ddb7c5d326a2a3632a266a1d26a",
      "transactionType": "CALL",
      "contractName": null,
      "contractAddress": "0xa3cf1701a4615ef7423d4f699968e5d6dde07897",
      "function": "grantRole(bytes32,address)",
      "arguments": [
        "0x950b8f2d7415defaee398bb4898e8e094a64c725873b81952b7ab9f08d70efb3",
        "0xEFBBD14082cF2FbCf5Badc7ee619F0f4e36D0A5B"
      ],
      "transaction": {
        "from": "0xefbbd14082cf2fbcf5badc7ee619f0f4e36d0a5b",
        "to": "0xa3cf1701a4615ef7423d4f699968e5d6dde07897",
        "gas": "0x12907",
        "value": "0x0",
        "input": "0x2f2ff15d950b8f2d7415defaee398bb4898e8e094a64c725873b81952b7ab9f08d70efb3000000000000000000000000efbbd14082cf2fbcf5badc7ee619f0f4e36d0a5b",
        "nonce": "0x206",
        "chainId": "0x13882"
      },
      "additionalContracts": [],
      "isFixedGasLimit": false
    },
    {
      "hash": "0x589c2672274879cadc9c54add13f3e6a0e7e3836b2c54a391524c1199c8d7b52",
      "transactionType": "CALL",
      "contractName": null,
      "contractAddress": "0x79290b6d15abc9e67c678ceb6094e51eaa85d659",
      "function": "setFees(uint8,uint256,address)",
      "arguments": [
        "2",
        "500",
        "0x2dF22846461e0eA53240Eb47FeFbe0216C82BE4E"
      ],
      "transaction": {
        "from": "0xefbbd14082cf2fbcf5badc7ee619f0f4e36d0a5b",
        "to": "0x79290b6d15abc9e67c678ceb6094e51eaa85d659",
        "gas": "0x107dc",
        "value": "0x0",
        "input": "0xecf441b7000000000000000000000000000000000000000000000000000000000000000200000000000000000000000000000000000000000000000000000000000001f40000000000000000000000002df22846461e0ea53240eb47fefbe0216c82be4e",
        "nonce": "0x207",
        "chainId": "0x13882"
      },
      "additionalContracts": [],
      "isFixedGasLimit": false
    },
    {
      "hash": "0x9d0428dce71b1cdbb7c4e98395e31571f429534abb09af8adb71fc0f8952305a",
      "transactionType": "CALL",
      "contractName": null,
      "contractAddress": "0x79290b6d15abc9e67c678ceb6094e51eaa85d659",
      "function": "setFees(uint8,uint256,address)",
      "arguments": [
        "1",
        "100000000000000000000",
        "0x2dF22846461e0eA53240Eb47FeFbe0216C82BE4E"
      ],
      "transaction": {
        "from": "0xefbbd14082cf2fbcf5badc7ee619f0f4e36d0a5b",
        "to": "0x79290b6d15abc9e67c678ceb6094e51eaa85d659",
        "gas": "0xf966",
        "value": "0x0",
        "input": "0xecf441b700000000000000000000000000000000000000000000000000000000000000010000000000000000000000000000000000000000000000056bc75e2d631000000000000000000000000000002df22846461e0ea53240eb47fefbe0216c82be4e",
        "nonce": "0x208",
        "chainId": "0x13882"
      },
      "additionalContracts": [],
      "isFixedGasLimit": false
    }
  ],
  "receipts": [
    {
      "status": "0x1",
      "cumulativeGasUsed": "0x822f",
      "logs": [
        {
          "address": "0x0000000000000000000000000000000000001010",
          "topics": [
            "0x4dfe1bbbcf077ddc3e01291eea2d5c70c2b422b415d95645b9adcfd678cb1d63",
            "0x0000000000000000000000000000000000000000000000000000000000001010",
            "0x000000000000000000000000efbbd14082cf2fbcf5badc7ee619f0f4e36d0a5b",
            "0x0000000000000000000000006ab3d36c46ecfb9b9c0bd51cb1c3da5a2c81cea6"
          ],
          "data": "0x00000000000000000000000000000000000000000000000000194e87295642df0000000000000000000000000000000000000000000000002d09202dc977cfa8000000000000000000000000000000000000000000000331c993cfcc59314ecd0000000000000000000000000000000000000000000000002cefd1a6a0218cc9000000000000000000000000000000000000000000000331c9ad1e53828791ac",
          "blockHash": "0x9364a35d5631e26e92b1d006acee874d69cf44f55e2438855f4fb54d3da25696",
          "blockNumber": "0xd7dae4",
          "transactionHash": "0x2dfc075c6333441c3611101b9a1de6b4d532632b065a7ed5b357b7b6f7b5c106",
          "transactionIndex": "0x0",
          "logIndex": "0x0",
          "removed": false
        }
      ],
      "logsBloom": "0x00000000080000000000000000000000000000000000000000000000000000000000000000000000000000000000000000008000000000000000000000000000008000080000000000000000000000800000000000000000000100000000000000000000000000000000000000000000000000000000000080000000000000000800000000000000000000000000000000000000000000000000000000000000200000000000000000000000000000000000400000000000000000000000004000000000000000000001000000000000000000010000000000100000000000000000000000000000000000000000000000000000000000000000000000100000",
      "type": "0x2",
      "transactionHash": "0x2dfc075c6333441c3611101b9a1de6b4d532632b065a7ed5b357b7b6f7b5c106",
      "transactionIndex": "0x0",
      "blockHash": "0x9364a35d5631e26e92b1d006acee874d69cf44f55e2438855f4fb54d3da25696",
      "blockNumber": "0xd7dae4",
      "gasUsed": "0x822f",
      "effectiveGasPrice": "0x31c3b98e60",
      "from": "0xefbbd14082cf2fbcf5badc7ee619f0f4e36d0a5b",
      "to": "0xa3cf1701a4615ef7423d4f699968e5d6dde07897",
      "contractAddress": null
    },
    {
      "status": "0x1",
      "cumulativeGasUsed": "0x1593b",
      "logs": [
        {
          "address": "0xa3cf1701a4615ef7423d4f699968e5d6dde07897",
          "topics": [
            "0x2f8788117e7eff1d82e926ec794901d17c78024a50270940304540a733656f0d",
            "0x950b8f2d7415defaee398bb4898e8e094a64c725873b81952b7ab9f08d70efb3",
            "0x000000000000000000000000efbbd14082cf2fbcf5badc7ee619f0f4e36d0a5b",
            "0x000000000000000000000000efbbd14082cf2fbcf5badc7ee619f0f4e36d0a5b"
          ],
          "data": "0x",
          "blockHash": "0x9364a35d5631e26e92b1d006acee874d69cf44f55e2438855f4fb54d3da25696",
          "blockNumber": "0xd7dae4",
          "transactionHash": "0x81bff28758a1218b04f9b7ae2d055a0215775ddb7c5d326a2a3632a266a1d26a",
          "transactionIndex": "0x1",
          "logIndex": "0x1",
          "removed": false
        },
        {
          "address": "0xa3cf1701a4615ef7423d4f699968e5d6dde07897",
          "topics": [
            "0xcf7afa953eac742fc7c2e2985cce7875d0ff3b2e3952b4526a780c7777bbe9af",
            "0x000000000000000000000000efbbd14082cf2fbcf5badc7ee619f0f4e36d0a5b"
          ],
          "data": "0x950b8f2d7415defaee398bb4898e8e094a64c725873b81952b7ab9f08d70efb3",
          "blockHash": "0x9364a35d5631e26e92b1d006acee874d69cf44f55e2438855f4fb54d3da25696",
          "blockNumber": "0xd7dae4",
          "transactionHash": "0x81bff28758a1218b04f9b7ae2d055a0215775ddb7c5d326a2a3632a266a1d26a",
          "transactionIndex": "0x1",
          "logIndex": "0x2",
          "removed": false
        },
        {
          "address": "0x0000000000000000000000000000000000001010",
          "topics": [
            "0x4dfe1bbbcf077ddc3e01291eea2d5c70c2b422b415d95645b9adcfd678cb1d63",
            "0x0000000000000000000000000000000000000000000000000000000000001010",
            "0x000000000000000000000000efbbd14082cf2fbcf5badc7ee619f0f4e36d0a5b",
            "0x0000000000000000000000006ab3d36c46ecfb9b9c0bd51cb1c3da5a2c81cea6"
          ],
          "data": "0x0000000000000000000000000000000000000000000000000029cdb60338b2cc0000000000000000000000000000000000000000000000002cefd1a6a019ec08000000000000000000000000000000000000000000000331c9ad1e53828791ac0000000000000000000000000000000000000000000000002cc603f09ce1393c000000000000000000000000000000000000000000000331c9d6ec0985c04478",
          "blockHash": "0x9364a35d5631e26e92b1d006acee874d69cf44f55e2438855f4fb54d3da25696",
          "blockNumber": "0xd7dae4",
          "transactionHash": "0x81bff28758a1218b04f9b7ae2d055a0215775ddb7c5d326a2a3632a266a1d26a",
          "transactionIndex": "0x1",
          "logIndex": "0x3",
          "removed": false
        }
      ],
      "logsBloom": "0x20000004080000000000000000000000001000000000000000000000000000000000000000000000000000000000000000008000000080000000000000000000008000080000000000000000000000800000000000000000000100000000000000000000000000000000200800000000080000000000000480000000000000000800000000000000000000000000000000000000000000000000000000000000200000000000000000000000000004000000400000000000001000000000004000000000000000000001000000000000000000010000000100100000000000000000000000000000000000200000000000000000000000000000000000100000",
      "type": "0x2",
      "transactionHash": "0x81bff28758a1218b04f9b7ae2d055a0215775ddb7c5d326a2a3632a266a1d26a",
      "transactionIndex": "0x1",
      "blockHash": "0x9364a35d5631e26e92b1d006acee874d69cf44f55e2438855f4fb54d3da25696",
      "blockNumber": "0xd7dae4",
      "gasUsed": "0xd70c",
      "effectiveGasPrice": "0x31c3b98e60",
      "from": "0xefbbd14082cf2fbcf5badc7ee619f0f4e36d0a5b",
      "to": "0xa3cf1701a4615ef7423d4f699968e5d6dde07897",
      "contractAddress": null
    },
    {
      "status": "0x1",
      "cumulativeGasUsed": "0x20da6",
      "logs": [
        {
          "address": "0x79290b6d15abc9e67c678ceb6094e51eaa85d659",
          "topics": [
            "0xfbbd6e9cc51f124b05f08f20e9aef57fb26fc9a927be06212c59506610581335",
            "0x0000000000000000000000002df22846461e0ea53240eb47fefbe0216c82be4e",
            "0x000000000000000000000000efbbd14082cf2fbcf5badc7ee619f0f4e36d0a5b"
          ],
          "data": "0x00000000000000000000000000000000000000000000000000000000000001f40000000000000000000000000000000000000000000000000000000000000002",
          "blockHash": "0x9364a35d5631e26e92b1d006acee874d69cf44f55e2438855f4fb54d3da25696",
          "blockNumber": "0xd7dae4",
          "transactionHash": "0x589c2672274879cadc9c54add13f3e6a0e7e3836b2c54a391524c1199c8d7b52",
          "transactionIndex": "0x2",
          "logIndex": "0x4",
          "removed": false
        },
        {
          "address": "0x0000000000000000000000000000000000001010",
          "topics": [
            "0x4dfe1bbbcf077ddc3e01291eea2d5c70c2b422b415d95645b9adcfd678cb1d63",
            "0x0000000000000000000000000000000000000000000000000000000000001010",
            "0x000000000000000000000000efbbd14082cf2fbcf5badc7ee619f0f4e36d0a5b",
            "0x0000000000000000000000006ab3d36c46ecfb9b9c0bd51cb1c3da5a2c81cea6"
          ],
          "data": "0x0000000000000000000000000000000000000000000000000023126b469f6fdb0000000000000000000000000000000000000000000000002cc603f09cd49f88000000000000000000000000000000000000000000000331c9d6ec0985c044780000000000000000000000000000000000000000000000002ca2f18556352fad000000000000000000000000000000000000000000000331c9f9fe74cc5fb453",
          "blockHash": "0x9364a35d5631e26e92b1d006acee874d69cf44f55e2438855f4fb54d3da25696",
          "blockNumber": "0xd7dae4",
          "transactionHash": "0x589c2672274879cadc9c54add13f3e6a0e7e3836b2c54a391524c1199c8d7b52",
          "transactionIndex": "0x2",
          "logIndex": "0x5",
          "removed": false
        }
      ],
      "logsBloom": "0x00000100080000000000800000000000000000000010000000000000000000000000000000000000000000000000000000008000000000000000000000000000008000080020000000000000000000800000000000000000000100000000000000000000000000400000000000000000000000000000000080000000004000000800000000040000000000000000000000000000000000000000000000000000280000000000000000000000000000000000400000000000000000000000004000000000000000000001000000000000000000010000000000100000000000000000000000000000000000000000000000000000000800000000000000100000",
      "type": "0x2",
      "transactionHash": "0x589c2672274879cadc9c54add13f3e6a0e7e3836b2c54a391524c1199c8d7b52",
      "transactionIndex": "0x2",
      "blockHash": "0x9364a35d5631e26e92b1d006acee874d69cf44f55e2438855f4fb54d3da25696",
      "blockNumber": "0xd7dae4",
      "gasUsed": "0xb46b",
      "effectiveGasPrice": "0x31c3b98e60",
      "from": "0xefbbd14082cf2fbcf5badc7ee619f0f4e36d0a5b",
      "to": "0x79290b6d15abc9e67c678ceb6094e51eaa85d659",
      "contractAddress": null
    },
    {
      "status": "0x1",
      "cumulativeGasUsed": "0x2c236",
      "logs": [
        {
          "address": "0x79290b6d15abc9e67c678ceb6094e51eaa85d659",
          "topics": [
            "0xfbbd6e9cc51f124b05f08f20e9aef57fb26fc9a927be06212c59506610581335",
            "0x0000000000000000000000002df22846461e0ea53240eb47fefbe0216c82be4e",
            "0x000000000000000000000000efbbd14082cf2fbcf5badc7ee619f0f4e36d0a5b"
          ],
          "data": "0x0000000000000000000000000000000000000000000000056bc75e2d631000000000000000000000000000000000000000000000000000000000000000000001",
          "blockHash": "0x9364a35d5631e26e92b1d006acee874d69cf44f55e2438855f4fb54d3da25696",
          "blockNumber": "0xd7dae4",
          "transactionHash": "0x9d0428dce71b1cdbb7c4e98395e31571f429534abb09af8adb71fc0f8952305a",
          "transactionIndex": "0x3",
          "logIndex": "0x6",
          "removed": false
        },
        {
          "address": "0x0000000000000000000000000000000000001010",
          "topics": [
            "0x4dfe1bbbcf077ddc3e01291eea2d5c70c2b422b415d95645b9adcfd678cb1d63",
            "0x0000000000000000000000000000000000000000000000000000000000001010",
            "0x000000000000000000000000efbbd14082cf2fbcf5badc7ee619f0f4e36d0a5b",
            "0x0000000000000000000000006ab3d36c46ecfb9b9c0bd51cb1c3da5a2c81cea6"
          ],
          "data": "0x0000000000000000000000000000000000000000000000000023199c907101900000000000000000000000000000000000000000000000002ca2f185562a9d68000000000000000000000000000000000000000000000331c9f9fe74cc5fb4530000000000000000000000000000000000000000000000002c7fd7e8c5b99bd8000000000000000000000000000000000000000000000331ca1d18115cd0b5e3",
          "blockHash": "0x9364a35d5631e26e92b1d006acee874d69cf44f55e2438855f4fb54d3da25696",
          "blockNumber": "0xd7dae4",
          "transactionHash": "0x9d0428dce71b1cdbb7c4e98395e31571f429534abb09af8adb71fc0f8952305a",
          "transactionIndex": "0x3",
          "logIndex": "0x7",
          "removed": false
        }
      ],
      "logsBloom": "0x00000100080000000000800000000000000000000010000000000000000000000000000000000000000000000000000000008000000000000000000000000000008000080020000000000000000000800000000000000000000100000000000000000000000000400000000000000000000000000000000080000000004000000800000000040000000000000000000000000000000000000000000000000000280000000000000000000000000000000000400000000000000000000000004000000000000000000001000000000000000000010000000000100000000000000000000000000000000000000000000000000000000800000000000000100000",
      "type": "0x2",
      "transactionHash": "0x9d0428dce71b1cdbb7c4e98395e31571f429534abb09af8adb71fc0f8952305a",
      "transactionIndex": "0x3",
      "blockHash": "0x9364a35d5631e26e92b1d006acee874d69cf44f55e2438855f4fb54d3da25696",
      "blockNumber": "0xd7dae4",
      "gasUsed": "0xb490",
      "effectiveGasPrice": "0x31c3b98e60",
      "from": "0xefbbd14082cf2fbcf5badc7ee619f0f4e36d0a5b",
      "to": "0x79290b6d15abc9e67c678ceb6094e51eaa85d659",
      "contractAddress": null
    }
  ],
  "libraries": [],
  "pending": [],
  "returns": {},
  "timestamp": 1731009991,
  "chain": 80002,
  "commit": "8188dcb"
}