{
  "transactions": [
    {
      "hash": "0x970f7d34bd0ef6c8fbd2365a7d4ccd12d94e9218e6eaf5596be54a4c990c0f03",
      "transactionType": "CALL",
      "contractName": null,
      "contractAddress": "0xa3cf1701a4615ef7423d4f699968e5d6dde07897",
      "function": "setGovernor(address)",
      "arguments": [
        "0xEFBBD14082cF2FbCf5Badc7ee619F0f4e36D0A5B"
      ],
      "transaction": {
        "from": "0xefbbd14082cf2fbcf5badc7ee619f0f4e36d0a5b",
        "to": "0xa3cf1701a4615ef7423d4f699968e5d6dde07897",
        "gas": "0x1ae43",
        "value": "0x0",
        "input": "0xc42cf535000000000000000000000000efbbd14082cf2fbcf5badc7ee619f0f4e36d0a5b",
        "nonce": "0x1ff",
        "chainId": "0x13882"
      },
      "additionalContracts": [],
      "isFixedGasLimit": false
    },
    {
      "hash": "0xeb18c8cefd6018c3cb18655c37a66471f91da954d871c6bae75289a47b1b1d76",
      "transactionType": "CALL",
      "contractName": null,
      "contractAddress": "0x79290b6d15abc9e67c678ceb6094e51eaa85d659",
      "function": "setFees(uint8,uint256,address)",
      "arguments": [
        "2",
        "500",
        "0x2dF22846461e0eA53240Eb47FeFbe0216C82BE4E"
      ],
      "transaction": {
        "from": "0xefbbd14082cf2fbcf5badc7ee619f0f4e36d0a5b",
        "to": "0x79290b6d15abc9e67c678ceb6094e51eaa85d659",
        "gas": "0x2e9fb",
        "value": "0x0",
        "input": "0xecf441b7000000000000000000000000000000000000000000000000000000000000000200000000000000000000000000000000000000000000000000000000000001f40000000000000000000000002df22846461e0ea53240eb47fefbe0216c82be4e",
        "nonce": "0x200",
        "chainId": "0x13882"
      },
      "additionalContracts": [],
      "isFixedGasLimit": false
    },
    {
      "hash": "0x200efe9a1182cb867bb590dad7412482ef9c3fcd0ce4e829bbb1fa80249b2953",
      "transactionType": "CALL",
      "contractName": null,
      "contractAddress": "0x79290b6d15abc9e67c678ceb6094e51eaa85d659",
      "function": "setFees(uint8,uint256,address)",
      "arguments": [
        "1",
        "100000000000000000000",
        "0x2dF22846461e0eA53240Eb47FeFbe0216C82BE4E"
      ],
      "transaction": {
        "from": "0xefbbd14082cf2fbcf5badc7ee619f0f4e36d0a5b",
        "to": "0x79290b6d15abc9e67c678ceb6094e51eaa85d659",
        "gas": "0x2c0bc",
        "value": "0x0",
        "input": "0xecf441b700000000000000000000000000000000000000000000000000000000000000010000000000000000000000000000000000000000000000056bc75e2d631000000000000000000000000000002df22846461e0ea53240eb47fefbe0216c82be4e",
        "nonce": "0x201",
        "chainId": "0x13882"
      },
      "additionalContracts": [],
      "isFixedGasLimit": false
    }
  ],
  "receipts": [
    {
      "status": "0x1",
      "cumulativeGasUsed": "0x12633",
      "logs": [
        {
          "address": "0xa3cf1701a4615ef7423d4f699968e5d6dde07897",
          "topics": [
            "0x2f8788117e7eff1d82e926ec794901d17c78024a50270940304540a733656f0d",
            "0x0603f2636f0ca34ae3ea5a23bb826e2bd2ffd59fb1c01edc1ba10fba2899d1ba",
            "0x000000000000000000000000efbbd14082cf2fbcf5badc7ee619f0f4e36d0a5b",
            "0x000000000000000000000000efbbd14082cf2fbcf5badc7ee619f0f4e36d0a5b"
          ],
          "data": "0x",
          "blockHash": "0x89b5ef183043b375ed5a5b814bc4ad565039943c5de0a6cda02cbda01ca7efe7",
          "blockNumber": "0xd7d922",
          "transactionHash": "0x970f7d34bd0ef6c8fbd2365a7d4ccd12d94e9218e6eaf5596be54a4c990c0f03",
          "transactionIndex": "0x0",
          "logIndex": "0x0",
          "removed": false
        },
        {
          "address": "0x0000000000000000000000000000000000001010",
          "topics": [
            "0x4dfe1bbbcf077ddc3e01291eea2d5c70c2b422b415d95645b9adcfd678cb1d63",
            "0x0000000000000000000000000000000000000000000000000000000000001010",
            "0x000000000000000000000000efbbd14082cf2fbcf5badc7ee619f0f4e36d0a5b",
            "0x0000000000000000000000004631753190f2f5a15a7ba172bbac102b7d95fa22"
          ],
          "data": "0x00000000000000000000000000000000000000000000000000088ff47a3683030000000000000000000000000000000000000000000000001f5d9bd7df9efcfe0000000000000000000000000000000000000000000002b85e2b9548aaeb54240000000000000000000000000000000000000000000000001f550be3656879fb0000000000000000000000000000000000000000000002b85e34253d2521d727",
          "blockHash": "0x89b5ef183043b375ed5a5b814bc4ad565039943c5de0a6cda02cbda01ca7efe7",
          "blockNumber": "0xd7d922",
          "transactionHash": "0x970f7d34bd0ef6c8fbd2365a7d4ccd12d94e9218e6eaf5596be54a4c990c0f03",
          "transactionIndex": "0x0",
          "logIndex": "0x1",
          "removed": false
        }
      ],
      "logsBloom": "0x00000004000000000000000000000000001000002000000000000000000000000000000000000000000000000000000000008000040000000000000040000000008000000000000000000000000000800000000000000000000100000000000000000000000000100000200000000000000000000000000080000000000000000800000000000000000000000000000000000000000000000000000000010000200000000000000000000000000004000000400000000000001000000000004000000000000000000001000000000000000000000000000100100000000000000000000000000000000000000000000000000000000000000020000000100000",
      "type": "0x2",
      "transactionHash": "0x970f7d34bd0ef6c8fbd2365a7d4ccd12d94e9218e6eaf5596be54a4c990c0f03",
      "transactionIndex": "0x0",
      "blockHash": "0x89b5ef183043b375ed5a5b814bc4ad565039943c5de0a6cda02cbda01ca7efe7",
      "blockNumber": "0xd7d922",
      "gasUsed": "0x12633",
      "effectiveGasPrice": "0x773594000",
      "from": "0xefbbd14082cf2fbcf5badc7ee619f0f4e36d0a5b",
      "to": "0xa3cf1701a4615ef7423d4f699968e5d6dde07897",
      "contractAddress": null
    },
    {
      "status": "0x1",
      "cumulativeGasUsed": "0x32446",
      "logs": [
        {
          "address": "0x79290b6d15abc9e67c678ceb6094e51eaa85d659",
          "topics": [
            "0xfbbd6e9cc51f124b05f08f20e9aef57fb26fc9a927be06212c59506610581335",
            "0x0000000000000000000000002df22846461e0ea53240eb47fefbe0216c82be4e",
            "0x000000000000000000000000efbbd14082cf2fbcf5badc7ee619f0f4e36d0a5b"
          ],
          "data": "0x00000000000000000000000000000000000000000000000000000000000001f40000000000000000000000000000000000000000000000000000000000000002",
          "blockHash": "0x89b5ef183043b375ed5a5b814bc4ad565039943c5de0a6cda02cbda01ca7efe7",
          "blockNumber": "0xd7d922",
          "transactionHash": "0xeb18c8cefd6018c3cb18655c37a66471f91da954d871c6bae75289a47b1b1d76",
          "transactionIndex": "0x1",
          "logIndex": "0x2",
          "removed": false
        },
        {
          "address": "0x0000000000000000000000000000000000001010",
          "topics": [
            "0x4dfe1bbbcf077ddc3e01291eea2d5c70c2b422b415d95645b9adcfd678cb1d63",
            "0x0000000000000000000000000000000000000000000000000000000000001010",
            "0x000000000000000000000000efbbd14082cf2fbcf5badc7ee619f0f4e36d0a5b",
            "0x0000000000000000000000004631753190f2f5a15a7ba172bbac102b7d95fa22"
          ],
          "data": "0x000000000000000000000000000000000000000000000000000ed8595d01dce30000000000000000000000000000000000000000000000001f550be365573cfe0000000000000000000000000000000000000000000002b85e34253d2521d7270000000000000000000000000000000000000000000000001f46338a0855601b0000000000000000000000000000000000000000000002b85e42fd968223b40a",
          "blockHash": "0x89b5ef183043b375ed5a5b814bc4ad565039943c5de0a6cda02cbda01ca7efe7",
          "blockNumber": "0xd7d922",
          "transactionHash": "0xeb18c8cefd6018c3cb18655c37a66471f91da954d871c6bae75289a47b1b1d76",
          "transactionIndex": "0x1",
          "logIndex": "0x3",
          "removed": false
        }
      ],
      "logsBloom": "0x00000100000000000000800000000000000000002010000000000000000000000000000000000000000000000000000000008000000000000000000040000000008000000020000000000000000000800000000000000000000100000000000000000000000000500000000000000000000000000000000080000000004000000800000000040000000000000000000000000000000000000000000000000000280000000000000000000000000000000000400000000000000000000000004000000000000000000001000000000000000000000000000000100000000000000000000000000000000000000000000000000000000800000000000000100000",
      "type": "0x2",
      "transactionHash": "0xeb18c8cefd6018c3cb18655c37a66471f91da954d871c6bae75289a47b1b1d76",
      "transactionIndex": "0x1",
      "blockHash": "0x89b5ef183043b375ed5a5b814bc4ad565039943c5de0a6cda02cbda01ca7efe7",
      "blockNumber": "0xd7d922",
      "gasUsed": "0x1fe13",
      "effectiveGasPrice": "0x773594000",
      "from": "0xefbbd14082cf2fbcf5badc7ee619f0f4e36d0a5b",
      "to": "0x79290b6d15abc9e67c678ceb6094e51eaa85d659",
      "contractAddress": null
    },
    {
      "status": "0x1",
      "cumulativeGasUsed": "0x5227e",
      "logs": [
        {
          "address": "0x79290b6d15abc9e67c678ceb6094e51eaa85d659",
          "topics": [
            "0xfbbd6e9cc51f124b05f08f20e9aef57fb26fc9a927be06212c59506610581335",
            "0x0000000000000000000000002df22846461e0ea53240eb47fefbe0216c82be4e",
            "0x000000000000000000000000efbbd14082cf2fbcf5badc7ee619f0f4e36d0a5b"
          ],
          "data": "0x0000000000000000000000000000000000000000000000056bc75e2d631000000000000000000000000000000000000000000000000000000000000000000001",
          "blockHash": "0x89b5ef183043b375ed5a5b814bc4ad565039943c5de0a6cda02cbda01ca7efe7",
          "blockNumber": "0xd7d922",
          "transactionHash": "0x200efe9a1182cb867bb590dad7412482ef9c3fcd0ce4e829bbb1fa80249b2953",
          "transactionIndex": "0x2",
          "logIndex": "0x4",
          "removed": false
        },
        {
          "address": "0x0000000000000000000000000000000000001010",
          "topics": [
            "0x4dfe1bbbcf077ddc3e01291eea2d5c70c2b422b415d95645b9adcfd678cb1d63",
            "0x0000000000000000000000000000000000000000000000000000000000001010",
            "0x000000000000000000000000efbbd14082cf2fbcf5badc7ee619f0f4e36d0a5b",
            "0x0000000000000000000000004631753190f2f5a15a7ba172bbac102b7d95fa22"
          ],
          "data": "0x000000000000000000000000000000000000000000000000000ed96d08e81ab80000000000000000000000000000000000000000000000001f46338a08377cfe0000000000000000000000000000000000000000000002b85e42fd968223b40a0000000000000000000000000000000000000000000000001f375a1cff4f62460000000000000000000000000000000000000000000002b85e51d7038b0bcec2",
          "blockHash": "0x89b5ef183043b375ed5a5b814bc4ad565039943c5de0a6cda02cbda01ca7efe7",
          "blockNumber": "0xd7d922",
          "transactionHash": "0x200efe9a1182cb867bb590dad7412482ef9c3fcd0ce4e829bbb1fa80249b2953",
          "transactionIndex": "0x2",
          "logIndex": "0x5",
          "removed": false
        }
      ],
      "logsBloom": "0x00000100000000000000800000000000000000002010000000000000000000000000000000000000000000000000000000008000000000000000000040000000008000000020000000000000000000800000000000000000000100000000000000000000000000500000000000000000000000000000000080000000004000000800000000040000000000000000000000000000000000000000000000000000280000000000000000000000000000000000400000000000000000000000004000000000000000000001000000000000000000000000000000100000000000000000000000000000000000000000000000000000000800000000000000100000",
      "type": "0x2",
      "transactionHash": "0x200efe9a1182cb867bb590dad7412482ef9c3fcd0ce4e829bbb1fa80249b2953",
      "transactionIndex": "0x2",
      "blockHash": "0x89b5ef183043b375ed5a5b814bc4ad565039943c5de0a6cda02cbda01ca7efe7",
      "blockNumber": "0xd7d922",
      "gasUsed": "0x1fe38",
      "effectiveGasPrice": "0x773594000",
      "from": "0xefbbd14082cf2fbcf5badc7ee619f0f4e36d0a5b",
      "to": "0x79290b6d15abc9e67c678ceb6094e51eaa85d659",
      "contractAddress": null
    }
  ],
  "libraries": [],
  "pending": [],
  "returns": {},
  "timestamp": 1731009035,
  "chain": 80002,
  "commit": "8188dcb"
}