{
  "transactions": [
    {
      "hash": "0x041d6689468bb7e595d96503ecdf02a9ede03e2fbe0e55c8e82108f753a80c14",
      "transactionType": "CALL",
      "contractName": null,
      "contractAddress": "0xa3cf1701a4615ef7423d4f699968e5d6dde07897",
      "function": "setGovernor(address)",
      "arguments": [
        "0xEFBBD14082cF2FbCf5Badc7ee619F0f4e36D0A5B"
      ],
      "transaction": {
        "from": "0xefbbd14082cf2fbcf5badc7ee619f0f4e36d0a5b",
        "to": "0xa3cf1701a4615ef7423d4f699968e5d6dde07897",
        "gas": "0xb3cf",
        "value": "0x0",
        "input": "0xc42cf535000000000000000000000000efbbd14082cf2fbcf5badc7ee619f0f4e36d0a5b",
        "nonce": "0x202",
        "chainId": "0x13882"
      },
      "additionalContracts": [],
      "isFixedGasLimit": false
    },
    {
      "hash": "0x9171cb27d018656f2fc8d525f5b511ed995ce6c3332213c5eb8ed785a53eb89c",
      "transactionType": "CALL",
      "contractName": null,
      "contractAddress": "0x79290b6d15abc9e67c678ceb6094e51eaa85d659",
      "function": "setFees(uint8,uint256,address)",
      "arguments": [
        "2",
        "500",
        "0x2dF22846461e0eA53240Eb47FeFbe0216C82BE4E"
      ],
      "transaction": {
        "from": "0xefbbd14082cf2fbcf5badc7ee619f0f4e36d0a5b",
        "to": "0x79290b6d15abc9e67c678ceb6094e51eaa85d659",
        "gas": "0x107dc",
        "value": "0x0",
        "input": "0xecf441b7000000000000000000000000000000000000000000000000000000000000000200000000000000000000000000000000000000000000000000000000000001f40000000000000000000000002df22846461e0ea53240eb47fefbe0216c82be4e",
        "nonce": "0x203",
        "chainId": "0x13882"
      },
      "additionalContracts": [],
      "isFixedGasLimit": false
    },
    {
      "hash": "0x9bc64744700e4d7caf790242ed27c8ef27493b1c1ac4bd2053cf2198ae01c44d",
      "transactionType": "CALL",
      "contractName": null,
      "contractAddress": "0x79290b6d15abc9e67c678ceb6094e51eaa85d659",
      "function": "setFees(uint8,uint256,address)",
      "arguments": [
        "1",
        "100000000000000000000",
        "0x2dF22846461e0eA53240Eb47FeFbe0216C82BE4E"
      ],
      "transaction": {
        "from": "0xefbbd14082cf2fbcf5badc7ee619f0f4e36d0a5b",
        "to": "0x79290b6d15abc9e67c678ceb6094e51eaa85d659",
        "gas": "0xf966",
        "value": "0x0",
        "input": "0xecf441b700000000000000000000000000000000000000000000000000000000000000010000000000000000000000000000000000000000000000056bc75e2d631000000000000000000000000000002df22846461e0ea53240eb47fefbe0216c82be4e",
        "nonce": "0x204",
        "chainId": "0x13882"
      },
      "additionalContracts": [],
      "isFixedGasLimit": false
    }
  ],
  "receipts": [
    {
      "status": "0x1",
      "cumulativeGasUsed": "0x822f",
      "logs": [
        {
          "address": "0x0000000000000000000000000000000000001010",
          "topics": [
            "0x4dfe1bbbcf077ddc3e01291eea2d5c70c2b422b415d95645b9adcfd678cb1d63",
            "0x0000000000000000000000000000000000000000000000000000000000001010",
            "0x000000000000000000000000efbbd14082cf2fbcf5badc7ee619f0f4e36d0a5b",
            "0x0000000000000000000000006ab3d36c46ecfb9b9c0bd51cb1c3da5a2c81cea6"
          ],
          "data": "0x0000000000000000000000000000000000000000000000000003f5b9636f6dd00000000000000000000000000000000000000000000000001f375a1cff317cfe0000000000000000000000000000000000000000000003318cea2c1dd424b4790000000000000000000000000000000000000000000000001f3364639bc20f2e0000000000000000000000000000000000000000000003318cee21d737942249",
          "blockHash": "0x6c6f0c1d1da95116b3b698c35393daef3152a218ff04416909da1aa1c19fcd54",
          "blockNumber": "0xd7d986",
          "transactionHash": "0x041d6689468bb7e595d96503ecdf02a9ede03e2fbe0e55c8e82108f753a80c14",
          "transactionIndex": "0x0",
          "logIndex": "0x0",
          "removed": false
        }
      ],
      "logsBloom": "0x00000000080000000000000000000000000000000000000000000000000000000000000000000000000000000000000000008000000000000000000000000000008000080000000000000000000000800000000000000000000100000000000000000000000000000000000000000000000000000000000080000000000000000800000000000000000000000000000000000000000000000000000000000000200000000000000000000000000000000000400000000000000000000000004000000000000000000001000000000000000000010000000000100000000000000000000000000000000000000000000000000000000000000000000000100000",
      "type": "0x2",
      "transactionHash": "0x041d6689468bb7e595d96503ecdf02a9ede03e2fbe0e55c8e82108f753a80c14",
      "transactionIndex": "0x0",
      "blockHash": "0x6c6f0c1d1da95116b3b698c35393daef3152a218ff04416909da1aa1c19fcd54",
      "blockNumber": "0xd7d986",
      "gasUsed": "0x822f",
      "effectiveGasPrice": "0x7c9710b3f",
      "from": "0xefbbd14082cf2fbcf5badc7ee619f0f4e36d0a5b",
      "to": "0xa3cf1701a4615ef7423d4f699968e5d6dde07897",
      "contractAddress": null
    },
    {
      "status": "0x1",
      "cumulativeGasUsed": "0x1369a",
      "logs": [
        {
          "address": "0x79290b6d15abc9e67c678ceb6094e51eaa85d659",
          "topics": [
            "0xfbbd6e9cc51f124b05f08f20e9aef57fb26fc9a927be06212c59506610581335",
            "0x0000000000000000000000002df22846461e0ea53240eb47fefbe0216c82be4e",
            "0x000000000000000000000000efbbd14082cf2fbcf5badc7ee619f0f4e36d0a5b"
          ],
          "data": "0x00000000000000000000000000000000000000000000000000000000000001f40000000000000000000000000000000000000000000000000000000000000002",
          "blockHash": "0x6c6f0c1d1da95116b3b698c35393daef3152a218ff04416909da1aa1c19fcd54",
          "blockNumber": "0xd7d986",
          "transactionHash": "0x9171cb27d018656f2fc8d525f5b511ed995ce6c3332213c5eb8ed785a53eb89c",
          "transactionIndex": "0x1",
          "logIndex": "0x1",
          "removed": false
        },
        {
          "address": "0x0000000000000000000000000000000000001010",
          "topics": [
            "0x4dfe1bbbcf077ddc3e01291eea2d5c70c2b422b415d95645b9adcfd678cb1d63",
            "0x0000000000000000000000000000000000000000000000000000000000001010",
            "0x000000000000000000000000efbbd14082cf2fbcf5badc7ee619f0f4e36d0a5b",
            "0x0000000000000000000000006ab3d36c46ecfb9b9c0bd51cb1c3da5a2c81cea6"
          ],
          "data": "0x00000000000000000000000000000000000000000000000000057ce4ae1d6d100000000000000000000000000000000000000000000000001f3364639bba6e6d0000000000000000000000000000000000000000000003318cee21d7379422490000000000000000000000000000000000000000000000001f2de77eed9d015d0000000000000000000000000000000000000000000003318cf39ebbe5b18f59",
          "blockHash": "0x6c6f0c1d1da95116b3b698c35393daef3152a218ff04416909da1aa1c19fcd54",
          "blockNumber": "0xd7d986",
          "transactionHash": "0x9171cb27d018656f2fc8d525f5b511ed995ce6c3332213c5eb8ed785a53eb89c",
          "transactionIndex": "0x1",
          "logIndex": "0x2",
          "removed": false
        }
      ],
      "logsBloom": "0x00000100080000000000800000000000000000000010000000000000000000000000000000000000000000000000000000008000000000000000000000000000008000080020000000000000000000800000000000000000000100000000000000000000000000400000000000000000000000000000000080000000004000000800000000040000000000000000000000000000000000000000000000000000280000000000000000000000000000000000400000000000000000000000004000000000000000000001000000000000000000010000000000100000000000000000000000000000000000000000000000000000000800000000000000100000",
      "type": "0x2",
      "transactionHash": "0x9171cb27d018656f2fc8d525f5b511ed995ce6c3332213c5eb8ed785a53eb89c",
      "transactionIndex": "0x1",
      "blockHash": "0x6c6f0c1d1da95116b3b698c35393daef3152a218ff04416909da1aa1c19fcd54",
      "blockNumber": "0xd7d986",
      "gasUsed": "0xb46b",
      "effectiveGasPrice": "0x7c9710b3f",
      "from": "0xefbbd14082cf2fbcf5badc7ee619f0f4e36d0a5b",
      "to": "0x79290b6d15abc9e67c678ceb6094e51eaa85d659",
      "contractAddress": null
    },
    {
      "status": "0x1",
      "cumulativeGasUsed": "0x1eb2a",
      "logs": [
        {
          "address": "0x79290b6d15abc9e67c678ceb6094e51eaa85d659",
          "topics": [
            "0xfbbd6e9cc51f124b05f08f20e9aef57fb26fc9a927be06212c59506610581335",
            "0x0000000000000000000000002df22846461e0ea53240eb47fefbe0216c82be4e",
            "0x000000000000000000000000efbbd14082cf2fbcf5badc7ee619f0f4e36d0a5b"
          ],
          "data": "0x0000000000000000000000000000000000000000000000056bc75e2d631000000000000000000000000000000000000000000000000000000000000000000001",
          "blockHash": "0x6c6f0c1d1da95116b3b698c35393daef3152a218ff04416909da1aa1c19fcd54",
          "blockNumber": "0xd7d986",
          "transactionHash": "0x9bc64744700e4d7caf790242ed27c8ef27493b1c1ac4bd2053cf2198ae01c44d",
          "transactionIndex": "0x2",
          "logIndex": "0x3",
          "removed": false
        },
        {
          "address": "0x0000000000000000000000000000000000001010",
          "topics": [
            "0x4dfe1bbbcf077ddc3e01291eea2d5c70c2b422b415d95645b9adcfd678cb1d63",
            "0x0000000000000000000000000000000000000000000000000000000000001010",
            "0x000000000000000000000000efbbd14082cf2fbcf5badc7ee619f0f4e36d0a5b",
            "0x0000000000000000000000006ab3d36c46ecfb9b9c0bd51cb1c3da5a2c81cea6"
          ],
          "data": "0x00000000000000000000000000000000000000000000000000057e04cb740b000000000000000000000000000000000000000000000000001f2de77eed926f180000000000000000000000000000000000000000000003318cf39ebbe5b18f590000000000000000000000000000000000000000000000001f28697a221e64180000000000000000000000000000000000000000000003318cf91cc0b1259a59",
          "blockHash": "0x6c6f0c1d1da95116b3b698c35393daef3152a218ff04416909da1aa1c19fcd54",
          "blockNumber": "0xd7d986",
          "transactionHash": "0x9bc64744700e4d7caf790242ed27c8ef27493b1c1ac4bd2053cf2198ae01c44d",
          "transactionIndex": "0x2",
          "logIndex": "0x4",
          "removed": false
        }
      ],
      "logsBloom": "0x00000100080000000000800000000000000000000010000000000000000000000000000000000000000000000000000000008000000000000000000000000000008000080020000000000000000000800000000000000000000100000000000000000000000000400000000000000000000000000000000080000000004000000800000000040000000000000000000000000000000000000000000000000000280000000000000000000000000000000000400000000000000000000000004000000000000000000001000000000000000000010000000000100000000000000000000000000000000000000000000000000000000800000000000000100000",
      "type": "0x2",
      "transactionHash": "0x9bc64744700e4d7caf790242ed27c8ef27493b1c1ac4bd2053cf2198ae01c44d",
      "transactionIndex": "0x2",
      "blockHash": "0x6c6f0c1d1da95116b3b698c35393daef3152a218ff04416909da1aa1c19fcd54",
      "blockNumber": "0xd7d986",
      "gasUsed": "0xb490",
      "effectiveGasPrice": "0x7c9710b3f",
      "from": "0xefbbd14082cf2fbcf5badc7ee619f0f4e36d0a5b",
      "to": "0x79290b6d15abc9e67c678ceb6094e51eaa85d659",
      "contractAddress": null
    }
  ],
  "libraries": [],
  "pending": [],
  "returns": {},
  "timestamp": 1731009246,
  "chain": 80002,
  "commit": "8188dcb"
}