{
  "transactions": [
    {
      "hash": "0x4dd6291e69eaba11d6da2ba20e4b3ab7930185bd6f9e00de7274b89262dba860",
      "transactionType": "CALL",
      "contractName": null,
      "contractAddress": "0x2491cf0c6bd80ef1fd104d18aabaf0bb2e43085e",
      "function": "create(string)",
      "arguments": [
        "https://guardian.watchit.movie"
      ],
      "transaction": {
        "from": "0xefbbd14082cf2fbcf5badc7ee619f0f4e36d0a5b",
        "to": "0x2491cf0c6bd80ef1fd104d18aabaf0bb2e43085e",
        "gas": "0x5ac07",
        "value": "0x0",
        "input": "0xb6a46b3b0000000000000000000000000000000000000000000000000000000000000020000000000000000000000000000000000000000000000000000000000000001e68747470733a2f2f677561726469616e2e776174636869742e6d6f7669650000",
        "nonce": "0x868",
        "chainId": "0x13882"
      },
      "additionalContracts": [
        {
          "transactionType": "CREATE",
          "address": "0xbbda93a4edff74bace65b3a6cac64c35ce98d1dc",
          "initCode": "0x60a08060405261050d80380380916100178285610292565b833981016040828203126101eb5761002e826102c9565b602083015190926001600160401b0382116101eb57019080601f830112156101eb57815161005b816102dd565b926100696040519485610292565b8184526020840192602083830101116101eb57815f926020809301855e84010152823b15610274577fa3f0ad74e5423aebfd80d3ef4346578335a9a72aeaee59ff6cb3582b35133d5080546001600160a01b0319166001600160a01b038516908117909155604051635c60da1b60e01b8152909190602081600481865afa9081156101f7575f9161023a575b50803b1561021a5750817f1cf3b03a6cf19fa2baba4df148e9dcabedea7f8a5c07840e207e5c089be95d3e5f80a282511561020257602060049260405193848092635c60da1b60e01b82525afa9182156101f7575f926101ae575b505f809161018a945190845af43d156101a6573d9161016e836102dd565b9261017c6040519485610292565b83523d5f602085013e6102f8565b505b6080526040516101b6908161035782396080518160460152f35b6060916102f8565b9291506020833d6020116101ef575b816101ca60209383610292565b810103126101eb575f80916101e161018a956102c9565b9394509150610150565b5f80fd5b3d91506101bd565b6040513d5f823e3d90fd5b505050341561018c5763b398979f60e01b5f5260045ffd5b634c9c8ce360e01b5f9081526001600160a01b0391909116600452602490fd5b90506020813d60201161026c575b8161025560209383610292565b810103126101eb57610266906102c9565b5f6100f5565b3d9150610248565b631933b43b60e21b5f9081526001600160a01b038416600452602490fd5b601f909101601f19168101906001600160401b038211908210176102b557604052565b634e487b7160e01b5f52604160045260245ffd5b51906001600160a01b03821682036101eb57565b6001600160401b0381116102b557601f01601f191660200190565b9061031c575080511561030d57805190602001fd5b63d6bda27560e01b5f5260045ffd5b8151158061034d575b61032d575090565b639996b31560e01b5f9081526001600160a01b0391909116600452602490fd5b50803b1561032556fe60806040527f5c60da1b000000000000000000000000000000000000000000000000000000006080526020608060048173ffffffffffffffffffffffffffffffffffffffff7f0000000000000000000000000000000000000000000000000000000000000000165afa8015610107575f9015610163575060203d602011610100575b7fffffffffffffffffffffffffffffffffffffffffffffffffffffffffffffffe0601f820116608001906080821067ffffffffffffffff8311176100d3576100ce91604052608001610112565b610163565b7f4e487b71000000000000000000000000000000000000000000000000000000005f52604160045260245ffd5b503d610081565b6040513d5f823e3d90fd5b7fffffffffffffffffffffffffffffffffffffffffffffffffffffffffffffff80602091011261015f5760805173ffffffffffffffffffffffffffffffffffffffff8116810361015f5790565b5f80fd5b5f8091368280378136915af43d5f803e1561017c573d5ff35b3d5ffdfea264697066735822122064427a31676ba3427858a99499cd34caa0223a53e5d14b45aaf09cce1cb3243c64736f6c634300081a00330000000000000000000000002491cf0c6bd80ef1fd104d18aabaf0bb2e43085e000000000000000000000000000000000000000000000000000000000000004000000000000000000000000000000000000000000000000000000000000000847ab4339d0000000000000000000000000000000000000000000000000000000000000040000000000000000000000000efbbd14082cf2fbcf5badc7ee619f0f4e36d0a5b000000000000000000000000000000000000000000000000000000000000001e68747470733a2f2f677561726469616e2e776174636869742e6d6f766965000000000000000000000000000000000000000000000000000000000000"
        }
      ],
      "isFixedGasLimit": false
    },
    {
      "hash": "0x8e1b8460eb7e0b3b254b0a6c4eb9556efe47ce1375a171ba18f71ead3721eba9",
      "transactionType": "CALL",
      "contractName": null,
      "contractAddress": "0x3c7deb6feaeb7a82bde580fb73d8d69c401b219e",
      "function": "approve(address,uint256)",
      "arguments": [
        "0xD81540ef955d3f6b05F186cde6F5e85ff186014D",
        "100000000000000000000"
      ],
      "transaction": {
        "from": "0xefbbd14082cf2fbcf5badc7ee619f0f4e36d0a5b",
        "to": "0x3c7deb6feaeb7a82bde580fb73d8d69c401b219e",
        "gas": "0x106da",
        "value": "0x0",
        "input": "0x095ea7b3000000000000000000000000d81540ef955d3f6b05f186cde6f5e85ff186014d0000000000000000000000000000000000000000000000056bc75e2d63100000",
        "nonce": "0x869",
        "chainId": "0x13882"
      },
      "additionalContracts": [],
      "isFixedGasLimit": false
    },
    {
      "hash": "0x09f0f2d12ab3cadfdb9a5d3fda98623b0dbbe1c15febd00ff5bed4b53a68efe6",
      "transactionType": "CALL",
      "contractName": null,
      "contractAddress": "0xd81540ef955d3f6b05f186cde6f5e85ff186014d",
      "function": "deposit(address,uint256,address)",
      "arguments": [
        "0xEFBBD14082cF2FbCf5Badc7ee619F0f4e36D0A5B",
        "100000000000000000000",
        "0x3c7DeB6FeAEb7a82BDe580Fb73d8d69c401b219e"
      ],
      "transaction": {
        "from": "0xefbbd14082cf2fbcf5badc7ee619f0f4e36d0a5b",
        "to": "0xd81540ef955d3f6b05f186cde6f5e85ff186014d",
        "gas": "0x2068d",
        "value": "0x0",
        "input": "0xf45346dc000000000000000000000000efbbd14082cf2fbcf5badc7ee619f0f4e36d0a5b0000000000000000000000000000000000000000000000056bc75e2d631000000000000000000000000000003c7deb6feaeb7a82bde580fb73d8d69c401b219e",
        "nonce": "0x86a",
        "chainId": "0x13882"
      },
      "additionalContracts": [],
      "isFixedGasLimit": false
    },
    {
      "hash": "0x630a57a76f5c9fa73dddfd7180429d0da462ce745cd769bcf5d34dc5859356b4",
      "transactionType": "CALL",
      "contractName": null,
      "contractAddress": "0x8c9698594f8e11f98390a882bacf8aa838cd5fc7",
      "function": "register(address,address)",
      "arguments": [
        "0xbBDA93a4EDFF74bace65b3A6cAc64c35ce98d1DC",
        "0x3c7DeB6FeAEb7a82BDe580Fb73d8d69c401b219e"
      ],
      "transaction": {
        "from": "0xefbbd14082cf2fbcf5badc7ee619f0f4e36d0a5b",
        "to": "0x8c9698594f8e11f98390a882bacf8aa838cd5fc7",
        "gas": "0x3ebe5",
        "value": "0x0",
        "input": "0xaa677354000000000000000000000000bbda93a4edff74bace65b3a6cac64c35ce98d1dc0000000000000000000000003c7deb6feaeb7a82bde580fb73d8d69c401b219e",
        "nonce": "0x86b",
        "chainId": "0x13882"
      },
      "additionalContracts": [],
      "isFixedGasLimit": false
    },
    {
      "hash": "0x80949d8375ca7c2a2e4a265bdbd449f8106841b4cae88f1be9547cf38074a3d6",
      "transactionType": "CALL",
      "contractName": null,
      "contractAddress": "0x8c9698594f8e11f98390a882bacf8aa838cd5fc7",
      "function": "approve(address)",
      "arguments": [
        "0xbBDA93a4EDFF74bace65b3A6cAc64c35ce98d1DC"
      ],
      "transaction": {
        "from": "0xefbbd14082cf2fbcf5badc7ee619f0f4e36d0a5b",
        "to": "0x8c9698594f8e11f98390a882bacf8aa838cd5fc7",
        "gas": "0x1f7ed",
        "value": "0x0",
        "input": "0xdaea85c5000000000000000000000000bbda93a4edff74bace65b3a6cac64c35ce98d1dc",
        "nonce": "0x86c",
        "chainId": "0x13882"
      },
      "additionalContracts": [],
      "isFixedGasLimit": false
    }
  ],
  "receipts": [
    {
      "status": "0x1",
      "cumulativeGasUsed": "0x41b3f",
      "logs": [
        {
          "address": "0xbbda93a4edff74bace65b3a6cac64c35ce98d1dc",
          "topics": [
            "0x1cf3b03a6cf19fa2baba4df148e9dcabedea7f8a5c07840e207e5c089be95d3e",
            "0x0000000000000000000000002491cf0c6bd80ef1fd104d18aabaf0bb2e43085e"
          ],
          "data": "0x",
          "blockHash": "0x701b738f635bd7c3e88641e2af0c8ca8485fabfd8d961d52534916e153d20f09",
          "blockNumber": "0xf5979b",
          "transactionHash": "0x4dd6291e69eaba11d6da2ba20e4b3ab7930185bd6f9e00de7274b89262dba860",
          "transactionIndex": "0x0",
          "logIndex": "0x0",
          "removed": false
        },
        {
          "address": "0xbbda93a4edff74bace65b3a6cac64c35ce98d1dc",
          "topics": [
            "0x8be0079c531659141344cd1fd0a4f28419497f9722a3daafe3b4186f6b6457e0",
            "0x0000000000000000000000000000000000000000000000000000000000000000",
            "0x000000000000000000000000efbbd14082cf2fbcf5badc7ee619f0f4e36d0a5b"
          ],
          "data": "0x",
          "blockHash": "0x701b738f635bd7c3e88641e2af0c8ca8485fabfd8d961d52534916e153d20f09",
          "blockNumber": "0xf5979b",
          "transactionHash": "0x4dd6291e69eaba11d6da2ba20e4b3ab7930185bd6f9e00de7274b89262dba860",
          "transactionIndex": "0x0",
          "logIndex": "0x1",
          "removed": false
        },
        {
          "address": "0xbbda93a4edff74bace65b3a6cac64c35ce98d1dc",
          "topics": [
            "0xc7f505b2f371ae2175ee4913f4499e1f2633a7b5936321eed1cdaeb6115181d2"
          ],
          "data": "0x0000000000000000000000000000000000000000000000000000000000000001",
          "blockHash": "0x701b738f635bd7c3e88641e2af0c8ca8485fabfd8d961d52534916e153d20f09",
          "blockNumber": "0xf5979b",
          "transactionHash": "0x4dd6291e69eaba11d6da2ba20e4b3ab7930185bd6f9e00de7274b89262dba860",
          "transactionIndex": "0x0",
          "logIndex": "0x2",
          "removed": false
        },
        {
          "address": "0x2491cf0c6bd80ef1fd104d18aabaf0bb2e43085e",
          "topics": [
            "0x4a7bba0e1c21f3684678b259c49028d8cca5e0c5a2b43eba286ada7d196c8bfb",
            "0x000000000000000000000000bbda93a4edff74bace65b3a6cac64c35ce98d1dc"
          ],
          "data": "0x0000000000000000000000000000000000000000000000000000000000000020000000000000000000000000000000000000000000000000000000000000001e68747470733a2f2f677561726469616e2e776174636869742e6d6f7669650000",
          "blockHash": "0x701b738f635bd7c3e88641e2af0c8ca8485fabfd8d961d52534916e153d20f09",
          "blockNumber": "0xf5979b",
          "transactionHash": "0x4dd6291e69eaba11d6da2ba20e4b3ab7930185bd6f9e00de7274b89262dba860",
          "transactionIndex": "0x0",
          "logIndex": "0x3",
          "removed": false
        },
        {
          "address": "0x0000000000000000000000000000000000001010",
          "topics": [
            "0x4dfe1bbbcf077ddc3e01291eea2d5c70c2b422b415d95645b9adcfd678cb1d63",
            "0x0000000000000000000000000000000000000000000000000000000000001010",
            "0x000000000000000000000000efbbd14082cf2fbcf5badc7ee619f0f4e36d0a5b",
            "0x0000000000000000000000004ca9ff871c7aa1e7b64e1eae110835f68d6a0bd4"
          ],
          "data": "0x0000000000000000000000000000000000000000000000000017e70ec069f76200000000000000000000000000000000000000000000000142ab657419b5293700000000000000000000000000000000000000000000003eddb9fb25ad49167d00000000000000000000000000000000000000000000000142937e65594b31d500000000000000000000000000000000000000000000003eddd1e2346db30ddf",
          "blockHash": "0x701b738f635bd7c3e88641e2af0c8ca8485fabfd8d961d52534916e153d20f09",
          "blockNumber": "0xf5979b",
          "transactionHash": "0x4dd6291e69eaba11d6da2ba20e4b3ab7930185bd6f9e00de7274b89262dba860",
          "transactionIndex": "0x0",
          "logIndex": "0x4",
          "removed": false
        }
      ],
      "logsBloom": "0x000000000000020000000004000000000000000000000000008000000000000000000000000000000000000800000000200080180000000000000000000000000080000000000000000000000014008000010000000000000101000000000000000000000200000200000000000008000000000000000000800000000000004008000000000000000008000000000800000080000000800000002000000000002000000000000c0000000000004000000000400000000000000000000000004000000000000000000001000000000000000000040004000000900000000020000000000010000000000000000000000000000100000000000000000000100000",
      "type": "0x2",
      "transactionHash": "0x4dd6291e69eaba11d6da2ba20e4b3ab7930185bd6f9e00de7274b89262dba860",
      "transactionIndex": "0x0",
      "blockHash": "0x701b738f635bd7c3e88641e2af0c8ca8485fabfd8d961d52534916e153d20f09",
      "blockNumber": "0xf5979b",
      "gasUsed": "0x41b3f",
      "effectiveGasPrice": "0x5d21dba2d",
      "from": "0xefbbd14082cf2fbcf5badc7ee619f0f4e36d0a5b",
      "to": "0x2491cf0c6bd80ef1fd104d18aabaf0bb2e43085e",
      "contractAddress": null
    },
    {
      "status": "0x1",
      "cumulativeGasUsed": "0x4cefa",
      "logs": [
        {
          "address": "0x3c7deb6feaeb7a82bde580fb73d8d69c401b219e",
          "topics": [
            "0x8c5be1e5ebec7d5bd14f71427d1e84f3dd0314c0f7b2291e5b200ac8c7c3b925",
            "0x000000000000000000000000efbbd14082cf2fbcf5badc7ee619f0f4e36d0a5b",
            "0x000000000000000000000000d81540ef955d3f6b05f186cde6f5e85ff186014d"
          ],
          "data": "0x0000000000000000000000000000000000000000000000056bc75e2d63100000",
          "blockHash": "0x701b738f635bd7c3e88641e2af0c8ca8485fabfd8d961d52534916e153d20f09",
          "blockNumber": "0xf5979b",
          "transactionHash": "0x8e1b8460eb7e0b3b254b0a6c4eb9556efe47ce1375a171ba18f71ead3721eba9",
          "transactionIndex": "0x1",
          "logIndex": "0x5",
          "removed": false
        },
        {
          "address": "0x0000000000000000000000000000000000001010",
          "topics": [
            "0x4dfe1bbbcf077ddc3e01291eea2d5c70c2b422b415d95645b9adcfd678cb1d63",
            "0x0000000000000000000000000000000000000000000000000000000000001010",
            "0x000000000000000000000000efbbd14082cf2fbcf5badc7ee619f0f4e36d0a5b",
            "0x0000000000000000000000004ca9ff871c7aa1e7b64e1eae110835f68d6a0bd4"
          ],
          "data": "0x0000000000000000000000000000000000000000000000000004162b44d9edea00000000000000000000000000000000000000000000000142937e65590d992400000000000000000000000000000000000000000000003eddd1e2346db30ddf000000000000000000000000000000000000000000000001428f683a1433ab3a00000000000000000000000000000000000000000000003eddd5f85fb28cfbc9",
          "blockHash": "0x701b738f635bd7c3e88641e2af0c8ca8485fabfd8d961d52534916e153d20f09",
          "blockNumber": "0xf5979b",
          "transactionHash": "0x8e1b8460eb7e0b3b254b0a6c4eb9556efe47ce1375a171ba18f71ead3721eba9",
          "transactionIndex": "0x1",
          "logIndex": "0x6",
          "removed": false
        }
      ],
      "logsBloom": "0x00000000000000000000000000000000000000000000000000000000000000001000000000000000000000000000000020008000000000000000000000200000008000000000000000000000000000800000400000000010000100000000000000000000000000000000000000000000000000000000000880000000000000000800000000000000000000000000000000008000000000000000000000000000220000000000040000000000000000000000400000000000020000000000004000000000000000000001000000000000000000000000004000100000000000000010000000000000000000000000000000000000000000000000000000100000",
      "type": "0x2",
      "transactionHash": "0x8e1b8460eb7e0b3b254b0a6c4eb9556efe47ce1375a171ba18f71ead3721eba9",
      "transactionIndex": "0x1",
      "blockHash": "0x701b738f635bd7c3e88641e2af0c8ca8485fabfd8d961d52534916e153d20f09",
      "blockNumber": "0xf5979b",
      "gasUsed": "0xb3bb",
      "effectiveGasPrice": "0x5d21dba2d",
      "from": "0xefbbd14082cf2fbcf5badc7ee619f0f4e36d0a5b",
      "to": "0x3c7deb6feaeb7a82bde580fb73d8d69c401b219e",
      "contractAddress": null
    },
    {
      "status": "0x1",
      "cumulativeGasUsed": "0x1c314",
      "logs": [
        {
          "address": "0x3c7deb6feaeb7a82bde580fb73d8d69c401b219e",
          "topics": [
            "0xddf252ad1be2c89b69c2b068fc378daa952ba7f163c4a11628f55a4df523b3ef",
            "0x000000000000000000000000efbbd14082cf2fbcf5badc7ee619f0f4e36d0a5b",
            "0x000000000000000000000000d81540ef955d3f6b05f186cde6f5e85ff186014d"
          ],
          "data": "0x0000000000000000000000000000000000000000000000056bc75e2d63100000",
          "blockHash": "0xe7af3507f7167f03642d832cf04a863fd10832ab1c03d1964673b65ee9c9cf92",
          "blockNumber": "0xf5979c",
          "transactionHash": "0x09f0f2d12ab3cadfdb9a5d3fda98623b0dbbe1c15febd00ff5bed4b53a68efe6",
          "transactionIndex": "0x1",
          "logIndex": "0x1",
          "removed": false
        },
        {
          "address": "0xd81540ef955d3f6b05f186cde6f5e85ff186014d",
          "topics": [
            "0xdf4dcf17030d087ed1d90ed3c90719c7260706c1c4a88505dd2d0a982887cf43",
            "0x000000000000000000000000efbbd14082cf2fbcf5badc7ee619f0f4e36d0a5b"
          ],
          "data": "0x0000000000000000000000000000000000000000000000056bc75e2d631000000000000000000000000000003c7deb6feaeb7a82bde580fb73d8d69c401b219e",
          "blockHash": "0xe7af3507f7167f03642d832cf04a863fd10832ab1c03d1964673b65ee9c9cf92",
          "blockNumber": "0xf5979c",
          "transactionHash": "0x09f0f2d12ab3cadfdb9a5d3fda98623b0dbbe1c15febd00ff5bed4b53a68efe6",
          "transactionIndex": "0x1",
          "logIndex": "0x2",
          "removed": false
        },
        {
          "address": "0x0000000000000000000000000000000000001010",
          "topics": [
            "0x4dfe1bbbcf077ddc3e01291eea2d5c70c2b422b415d95645b9adcfd678cb1d63",
            "0x0000000000000000000000000000000000000000000000000000000000001010",
            "0x000000000000000000000000efbbd14082cf2fbcf5badc7ee619f0f4e36d0a5b",
            "0x0000000000000000000000004ca9ff871c7aa1e7b64e1eae110835f68d6a0bd4"
          ],
          "data": "0x00000000000000000000000000000000000000000000000000080fd91e33e6fe000000000000000000000000000000000000000000000001428f683a1429234500000000000000000000000000000000000000000000003eddd82a255d8e792300000000000000000000000000000000000000000000000142875860f5f53c4700000000000000000000000000000000000000000000003edde039fe7bc26021",
          "blockHash": "0xe7af3507f7167f03642d832cf04a863fd10832ab1c03d1964673b65ee9c9cf92",
          "blockNumber": "0xf5979c",
          "transactionHash": "0x09f0f2d12ab3cadfdb9a5d3fda98623b0dbbe1c15febd00ff5bed4b53a68efe6",
          "transactionIndex": "0x1",
          "logIndex": "0x3",
          "removed": false
        }
      ],
      "logsBloom": "0x00000000000000002000000000000000000000000000000000000800000000001000000400000000000000000000000020008000000000000000000000000000208000000000000000000008000000800000400000000010000100000000000000000000000000000000000000000000000000040000000880000010000000000800000000000000000000000000000000008000000000000000000000000000200000000000040000000000000000000000400000000000020000000000004000000002000000000001001000000000000000000000004000100000000000000000000000000000000000000000000000000000000000000000000000100000",
      "type": "0x2",
      "transactionHash": "0x09f0f2d12ab3cadfdb9a5d3fda98623b0dbbe1c15febd00ff5bed4b53a68efe6",
      "transactionIndex": "0x1",
      "blockHash": "0xe7af3507f7167f03642d832cf04a863fd10832ab1c03d1964673b65ee9c9cf92",
      "blockNumber": "0xf5979c",
      "gasUsed": "0x16291",
      "effectiveGasPrice": "0x5d21dba2d",
      "from": "0xefbbd14082cf2fbcf5badc7ee619f0f4e36d0a5b",
      "to": "0xd81540ef955d3f6b05f186cde6f5e85ff186014d",
      "contractAddress": null
    },
    {
      "status": "0x1",
      "cumulativeGasUsed": "0x499e2",
      "logs": [
        {
          "address": "0xd81540ef955d3f6b05f186cde6f5e85ff186014d",
          "topics": [
            "0xa372d74f11f208f0466eb410f699d101da6ccbe3717f711988fb355eac737f62",
            "0x000000000000000000000000efbbd14082cf2fbcf5badc7ee619f0f4e36d0a5b",
            "0x0000000000000000000000003c7deb6feaeb7a82bde580fb73d8d69c401b219e"
          ],
          "data": "0x0000000000000000000000000000000000000000000000056bc75e2d63100000",
          "blockHash": "0xe7af3507f7167f03642d832cf04a863fd10832ab1c03d1964673b65ee9c9cf92",
          "blockNumber": "0xf5979c",
          "transactionHash": "0x630a57a76f5c9fa73dddfd7180429d0da462ce745cd769bcf5d34dc5859356b4",
          "transactionIndex": "0x2",
          "logIndex": "0x4",
          "removed": false
        },
        {
          "address": "0xd81540ef955d3f6b05f186cde6f5e85ff186014d",
          "topics": [
            "0x07b798e47a298c7004dfddcb1196e6b8f9a6488dd1db7eeedbc8a4c3f4831563",
            "0x0000000000000000000000008c9698594f8e11f98390a882bacf8aa838cd5fc7",
            "0x0000000000000000000000003c7deb6feaeb7a82bde580fb73d8d69c401b219e"
          ],
          "data": "0x0000000000000000000000000000000000000000000000056bc75e2d63100000",
          "blockHash": "0xe7af3507f7167f03642d832cf04a863fd10832ab1c03d1964673b65ee9c9cf92",
          "blockNumber": "0xf5979c",
          "transactionHash": "0x630a57a76f5c9fa73dddfd7180429d0da462ce745cd769bcf5d34dc5859356b4",
          "transactionIndex": "0x2",
          "logIndex": "0x5",
          "removed": false
        },
        {
          "address": "0x3c7deb6feaeb7a82bde580fb73d8d69c401b219e",
          "topics": [
            "0xddf252ad1be2c89b69c2b068fc378daa952ba7f163c4a11628f55a4df523b3ef",
            "0x000000000000000000000000d81540ef955d3f6b05f186cde6f5e85ff186014d",
            "0x0000000000000000000000008c9698594f8e11f98390a882bacf8aa838cd5fc7"
          ],
          "data": "0x0000000000000000000000000000000000000000000000056bc75e2d63100000",
          "blockHash": "0xe7af3507f7167f03642d832cf04a863fd10832ab1c03d1964673b65ee9c9cf92",
          "blockNumber": "0xf5979c",
          "transactionHash": "0x630a57a76f5c9fa73dddfd7180429d0da462ce745cd769bcf5d34dc5859356b4",
          "transactionIndex": "0x2",
          "logIndex": "0x6",
          "removed": false
        },
        {
          "address": "0xd81540ef955d3f6b05f186cde6f5e85ff186014d",
          "topics": [
            "0xe9171aeff46c37ab955b8aff908e14ae9732bd06634fa131226cfe5c25bfd2fb",
            "0x0000000000000000000000008c9698594f8e11f98390a882bacf8aa838cd5fc7",
            "0x0000000000000000000000003c7deb6feaeb7a82bde580fb73d8d69c401b219e"
          ],
          "data": "0x0000000000000000000000000000000000000000000000056bc75e2d63100000",
          "blockHash": "0xe7af3507f7167f03642d832cf04a863fd10832ab1c03d1964673b65ee9c9cf92",
          "blockNumber": "0xf5979c",
          "transactionHash": "0x630a57a76f5c9fa73dddfd7180429d0da462ce745cd769bcf5d34dc5859356b4",
          "transactionIndex": "0x2",
          "logIndex": "0x7",
          "removed": false
        },
        {
          "address": "0x8c9698594f8e11f98390a882bacf8aa838cd5fc7",
          "topics": [
            "0xcda33a906ffa8a5f960826827500581f4613a5db7a84b250433e0d591a630938",
            "0x000000000000000000000000bbda93a4edff74bace65b3a6cac64c35ce98d1dc"
          ],
          "data": "0x00000000000000000000000000000000000000000000000000000000676dcacb0000000000000000000000000000000000000000000000056bc75e2d63100000",
          "blockHash": "0xe7af3507f7167f03642d832cf04a863fd10832ab1c03d1964673b65ee9c9cf92",
          "blockNumber": "0xf5979c",
          "transactionHash": "0x630a57a76f5c9fa73dddfd7180429d0da462ce745cd769bcf5d34dc5859356b4",
          "transactionIndex": "0x2",
          "logIndex": "0x8",
          "removed": false
        },
        {
          "address": "0x0000000000000000000000000000000000001010",
          "topics": [
            "0x4dfe1bbbcf077ddc3e01291eea2d5c70c2b422b415d95645b9adcfd678cb1d63",
            "0x0000000000000000000000000000000000000000000000000000000000001010",
            "0x000000000000000000000000efbbd14082cf2fbcf5badc7ee619f0f4e36d0a5b",
            "0x0000000000000000000000004ca9ff871c7aa1e7b64e1eae110835f68d6a0bd4"
          ],
          "data": "0x0000000000000000000000000000000000000000000000000010868f61bcd82400000000000000000000000000000000000000000000000142875860f5e075c800000000000000000000000000000000000000000000003edde039fe7bc260210000000000000000000000000000000000000000000000014276d1d194239da400000000000000000000000000000000000000000000003eddf0c08ddd7f3845",
          "blockHash": "0xe7af3507f7167f03642d832cf04a863fd10832ab1c03d1964673b65ee9c9cf92",
          "blockNumber": "0xf5979c",
          "transactionHash": "0x630a57a76f5c9fa73dddfd7180429d0da462ce745cd769bcf5d34dc5859356b4",
          "transactionIndex": "0x2",
          "logIndex": "0x9",
          "removed": false
        }
      ],
      "logsBloom": "0x00400010000002000000000000000000000000000000000000800800000000001008000400000000000000080000000020008010000000000000010000000000008000000000000000000008000000800000400000000030000100000000000000001000000000000000000000000000080000000000000880000010000004000800000000000000008000000000000000008000000000002000000000000000200000000000040001000000000000000000400000000000020000001000004000000002000000800011001000000000040000000000004000100000000000000000000040000000400000000000000000000000000000000000408000100000",
      "type": "0x2",
      "transactionHash": "0x630a57a76f5c9fa73dddfd7180429d0da462ce745cd769bcf5d34dc5859356b4",
      "transactionIndex": "0x2",
      "blockHash": "0xe7af3507f7167f03642d832cf04a863fd10832ab1c03d1964673b65ee9c9cf92",
      "blockNumber": "0xf5979c",
      "gasUsed": "0x2d6ce",
      "effectiveGasPrice": "0x5d21dba2d",
      "from": "0xefbbd14082cf2fbcf5badc7ee619f0f4e36d0a5b",
      "to": "0x8c9698594f8e11f98390a882bacf8aa838cd5fc7",
      "contractAddress": null
    },
    {
      "status": "0x1",
      "cumulativeGasUsed": "0x5f273",
      "logs": [
        {
          "address": "0x8c9698594f8e11f98390a882bacf8aa838cd5fc7",
          "topics": [
            "0xf13bfe0b6ec5df39265dccb0a01a09aa4162489c7a083dc6670bde0255d02ca7",
            "0x000000000000000000000000bbda93a4edff74bace65b3a6cac64c35ce98d1dc"
          ],
          "data": "0x00000000000000000000000000000000000000000000000000000000676dcacb",
          "blockHash": "0xe7af3507f7167f03642d832cf04a863fd10832ab1c03d1964673b65ee9c9cf92",
          "blockNumber": "0xf5979c",
          "transactionHash": "0x80949d8375ca7c2a2e4a265bdbd449f8106841b4cae88f1be9547cf38074a3d6",
          "transactionIndex": "0x3",
          "logIndex": "0xa",
          "removed": false
        },
        {
          "address": "0x0000000000000000000000000000000000001010",
          "topics": [
            "0x4dfe1bbbcf077ddc3e01291eea2d5c70c2b422b415d95645b9adcfd678cb1d63",
            "0x0000000000000000000000000000000000000000000000000000000000001010",
            "0x000000000000000000000000efbbd14082cf2fbcf5badc7ee619f0f4e36d0a5b",
            "0x0000000000000000000000004ca9ff871c7aa1e7b64e1eae110835f68d6a0bd4"
          ],
          "data": "0x0000000000000000000000000000000000000000000000000007d5a3f4eebafe0000000000000000000000000000000000000000000000014276d1d193f9079200000000000000000000000000000000000000000000003eddf0c08ddd7f3845000000000000000000000000000000000000000000000001426efc2d9f0a4c9400000000000000000000000000000000000000000000003eddf89631d26df343",
          "blockHash": "0xe7af3507f7167f03642d832cf04a863fd10832ab1c03d1964673b65ee9c9cf92",
          "blockNumber": "0xf5979c",
          "transactionHash": "0x80949d8375ca7c2a2e4a265bdbd449f8106841b4cae88f1be9547cf38074a3d6",
          "transactionIndex": "0x3",
          "logIndex": "0xb",
          "removed": false
        }
      ],
      "logsBloom": "0x00000000000002000000000000000000000000000000000000000000000000000000000000000000000000080000000020008010000000000000000000000000008000000000000000000000000000800000000000000000000100000000000000000000000000000000000000000000000000000000000080000000000000000800000000000000000000000000000000008000000008002000000000000000200000000000040000000000000000000000400000000800000000000000004000000000000000000001000000000000040000000000000020100000000000000000000000000000000000000000000000000000000000000000008000100000",
      "type": "0x2",
      "transactionHash": "0x80949d8375ca7c2a2e4a265bdbd449f8106841b4cae88f1be9547cf38074a3d6",
      "transactionIndex": "0x3",
      "blockHash": "0xe7af3507f7167f03642d832cf04a863fd10832ab1c03d1964673b65ee9c9cf92",
      "blockNumber": "0xf5979c",
      "gasUsed": "0x15891",
      "effectiveGasPrice": "0x5d21dba2d",
      "from": "0xefbbd14082cf2fbcf5badc7ee619f0f4e36d0a5b",
      "to": "0x8c9698594f8e11f98390a882bacf8aa838cd5fc7",
      "contractAddress": null
    }
  ],
  "libraries": [],
  "pending": [],
  "returns": {},
  "timestamp": 1735248606,
  "chain": 80002,
  "commit": "b0c6d76"
}