{
  "transactions": [
    {
      "hash": "0xe5737dc101d4e8e68ff213a15df5d258dabce414b22c642ee0ec5b7371dd80c0",
      "transactionType": "CALL",
      "contractName": null,
      "contractAddress": "0x9c84263573aeb3565694d20b890eb9a806860efd",
      "function": "create(string)",
      "arguments": [
        "https://guardian.watchit.movie"
      ],
      "transaction": {
        "from": "0xefbbd14082cf2fbcf5badc7ee619f0f4e36d0a5b",
        "to": "0x9c84263573aeb3565694d20b890eb9a806860efd",
        "gas": "0x5ac07",
        "value": "0x0",
        "input": "0xb6a46b3b0000000000000000000000000000000000000000000000000000000000000020000000000000000000000000000000000000000000000000000000000000001e68747470733a2f2f677561726469616e2e776174636869742e6d6f7669650000",
        "nonce": "0x5cf",
        "chainId": "0x13882"
      },
      "additionalContracts": [
        {
          "transactionType": "CREATE",
          "address": "0xe02e503415d200deb9ca3f8d9b1bebe87153e7dd",
          "initCode": "0x60a08060405261050d80380380916100178285610292565b833981016040828203126101eb5761002e826102c9565b602083015190926001600160401b0382116101eb57019080601f830112156101eb57815161005b816102dd565b926100696040519485610292565b8184526020840192602083830101116101eb57815f926020809301855e84010152823b15610274577fa3f0ad74e5423aebfd80d3ef4346578335a9a72aeaee59ff6cb3582b35133d5080546001600160a01b0319166001600160a01b038516908117909155604051635c60da1b60e01b8152909190602081600481865afa9081156101f7575f9161023a575b50803b1561021a5750817f1cf3b03a6cf19fa2baba4df148e9dcabedea7f8a5c07840e207e5c089be95d3e5f80a282511561020257602060049260405193848092635c60da1b60e01b82525afa9182156101f7575f926101ae575b505f809161018a945190845af43d156101a6573d9161016e836102dd565b9261017c6040519485610292565b83523d5f602085013e6102f8565b505b6080526040516101b6908161035782396080518160460152f35b6060916102f8565b9291506020833d6020116101ef575b816101ca60209383610292565b810103126101eb575f80916101e161018a956102c9565b9394509150610150565b5f80fd5b3d91506101bd565b6040513d5f823e3d90fd5b505050341561018c5763b398979f60e01b5f5260045ffd5b634c9c8ce360e01b5f9081526001600160a01b0391909116600452602490fd5b90506020813d60201161026c575b8161025560209383610292565b810103126101eb57610266906102c9565b5f6100f5565b3d9150610248565b631933b43b60e21b5f9081526001600160a01b038416600452602490fd5b601f909101601f19168101906001600160401b038211908210176102b557604052565b634e487b7160e01b5f52604160045260245ffd5b51906001600160a01b03821682036101eb57565b6001600160401b0381116102b557601f01601f191660200190565b9061031c575080511561030d57805190602001fd5b63d6bda27560e01b5f5260045ffd5b8151158061034d575b61032d575090565b639996b31560e01b5f9081526001600160a01b0391909116600452602490fd5b50803b1561032556fe60806040527f5c60da1b000000000000000000000000000000000000000000000000000000006080526020608060048173ffffffffffffffffffffffffffffffffffffffff7f0000000000000000000000000000000000000000000000000000000000000000165afa8015610107575f9015610163575060203d602011610100575b7fffffffffffffffffffffffffffffffffffffffffffffffffffffffffffffffe0601f820116608001906080821067ffffffffffffffff8311176100d3576100ce91604052608001610112565b610163565b7f4e487b71000000000000000000000000000000000000000000000000000000005f52604160045260245ffd5b503d610081565b6040513d5f823e3d90fd5b7fffffffffffffffffffffffffffffffffffffffffffffffffffffffffffffff80602091011261015f5760805173ffffffffffffffffffffffffffffffffffffffff8116810361015f5790565b5f80fd5b5f8091368280378136915af43d5f803e1561017c573d5ff35b3d5ffdfea26469706673582212208804cf59bdd18c3a0f888485dc336bd287dab018b52c45cd44e551ff35033d8d64736f6c634300081a00330000000000000000000000009c84263573aeb3565694d20b890eb9a806860efd000000000000000000000000000000000000000000000000000000000000004000000000000000000000000000000000000000000000000000000000000000847ab4339d0000000000000000000000000000000000000000000000000000000000000040000000000000000000000000efbbd14082cf2fbcf5badc7ee619f0f4e36d0a5b000000000000000000000000000000000000000000000000000000000000001e68747470733a2f2f677561726469616e2e776174636869742e6d6f766965000000000000000000000000000000000000000000000000000000000000"
        }
      ],
      "isFixedGasLimit": false
    },
    {
      "hash": "0x8976aaaccff97451c781a6cf6057d5ae74c155cc6f70e02be97826f1b2df1ee3",
      "transactionType": "CALL",
      "contractName": null,
      "contractAddress": "0x163aad81aa11f5bb1eb7a7c68e80b60db3432ef2",
      "function": "approve(address,uint256)",
      "arguments": [
        "0x0D3450Ce1Cd2e307aba78Aba8f09eb15E8A4FF73",
        "100000000000000000000"
      ],
      "transaction": {
        "from": "0xefbbd14082cf2fbcf5badc7ee619f0f4e36d0a5b",
        "to": "0x163aad81aa11f5bb1eb7a7c68e80b60db3432ef2",
        "gas": "0x106da",
        "value": "0x0",
        "input": "0x095ea7b30000000000000000000000000d3450ce1cd2e307aba78aba8f09eb15e8a4ff730000000000000000000000000000000000000000000000056bc75e2d63100000",
        "nonce": "0x5d0",
        "chainId": "0x13882"
      },
      "additionalContracts": [],
      "isFixedGasLimit": false
    },
    {
      "hash": "0xca41ced57b6e4283b1fdc2e1d9ba31ee1356f4932997031627801ab717ced300",
      "transactionType": "CALL",
      "contractName": null,
      "contractAddress": "0x0d3450ce1cd2e307aba78aba8f09eb15e8a4ff73",
      "function": "register(address,address)",
      "arguments": [
        "0xE02e503415D200DEb9ca3f8d9b1bEbE87153E7dd",
        "0x163AAd81AA11f5bb1eb7a7c68e80b60db3432Ef2"
      ],
      "transaction": {
        "from": "0xefbbd14082cf2fbcf5badc7ee619f0f4e36d0a5b",
        "to": "0x0d3450ce1cd2e307aba78aba8f09eb15e8a4ff73",
        "gas": "0x375c1",
        "value": "0x0",
        "input": "0xaa677354000000000000000000000000e02e503415d200deb9ca3f8d9b1bebe87153e7dd000000000000000000000000163aad81aa11f5bb1eb7a7c68e80b60db3432ef2",
        "nonce": "0x5d1",
        "chainId": "0x13882"
      },
      "additionalContracts": [],
      "isFixedGasLimit": false
    },
    {
      "hash": "0x168c034db2741bf0b3c7a4733929717bf83dfab9e36d1d6698815a786013a917",
      "transactionType": "CALL",
      "contractName": null,
      "contractAddress": "0x0d3450ce1cd2e307aba78aba8f09eb15e8a4ff73",
      "function": "approve(address)",
      "arguments": [
        "0xE02e503415D200DEb9ca3f8d9b1bEbE87153E7dd"
      ],
      "transaction": {
        "from": "0xefbbd14082cf2fbcf5badc7ee619f0f4e36d0a5b",
        "to": "0x0d3450ce1cd2e307aba78aba8f09eb15e8a4ff73",
        "gas": "0x1dbdd",
        "value": "0x0",
        "input": "0xdaea85c5000000000000000000000000e02e503415d200deb9ca3f8d9b1bebe87153e7dd",
        "nonce": "0x5d2",
        "chainId": "0x13882"
      },
      "additionalContracts": [],
      "isFixedGasLimit": false
    }
  ],
  "receipts": [
    {
      "status": "0x1",
      "cumulativeGasUsed": "0x41b3f",
      "logs": [
        {
          "address": "0xe02e503415d200deb9ca3f8d9b1bebe87153e7dd",
          "topics": [
            "0x1cf3b03a6cf19fa2baba4df148e9dcabedea7f8a5c07840e207e5c089be95d3e",
            "0x0000000000000000000000009c84263573aeb3565694d20b890eb9a806860efd"
          ],
          "data": "0x",
          "blockHash": "0xbd3ea1f709ccdf089e66ab0c4d03c5fef126aab0a752e8f5a3062bf55093b0d3",
          "blockNumber": "0xdca496",
          "transactionHash": "0xe5737dc101d4e8e68ff213a15df5d258dabce414b22c642ee0ec5b7371dd80c0",
          "transactionIndex": "0x0",
          "logIndex": "0x0",
          "removed": false
        },
        {
          "address": "0xe02e503415d200deb9ca3f8d9b1bebe87153e7dd",
          "topics": [
            "0x8be0079c531659141344cd1fd0a4f28419497f9722a3daafe3b4186f6b6457e0",
            "0x0000000000000000000000000000000000000000000000000000000000000000",
            "0x000000000000000000000000efbbd14082cf2fbcf5badc7ee619f0f4e36d0a5b"
          ],
          "data": "0x",
          "blockHash": "0xbd3ea1f709ccdf089e66ab0c4d03c5fef126aab0a752e8f5a3062bf55093b0d3",
          "blockNumber": "0xdca496",
          "transactionHash": "0xe5737dc101d4e8e68ff213a15df5d258dabce414b22c642ee0ec5b7371dd80c0",
          "transactionIndex": "0x0",
          "logIndex": "0x1",
          "removed": false
        },
        {
          "address": "0xe02e503415d200deb9ca3f8d9b1bebe87153e7dd",
          "topics": [
            "0xc7f505b2f371ae2175ee4913f4499e1f2633a7b5936321eed1cdaeb6115181d2"
          ],
          "data": "0x0000000000000000000000000000000000000000000000000000000000000001",
          "blockHash": "0xbd3ea1f709ccdf089e66ab0c4d03c5fef126aab0a752e8f5a3062bf55093b0d3",
          "blockNumber": "0xdca496",
          "transactionHash": "0xe5737dc101d4e8e68ff213a15df5d258dabce414b22c642ee0ec5b7371dd80c0",
          "transactionIndex": "0x0",
          "logIndex": "0x2",
          "removed": false
        },
        {
          "address": "0x9c84263573aeb3565694d20b890eb9a806860efd",
          "topics": [
            "0x4a7bba0e1c21f3684678b259c49028d8cca5e0c5a2b43eba286ada7d196c8bfb",
            "0x000000000000000000000000e02e503415d200deb9ca3f8d9b1bebe87153e7dd"
          ],
          "data": "0x0000000000000000000000000000000000000000000000000000000000000020000000000000000000000000000000000000000000000000000000000000001e68747470733a2f2f677561726469616e2e776174636869742e6d6f7669650000",
          "blockHash": "0xbd3ea1f709ccdf089e66ab0c4d03c5fef126aab0a752e8f5a3062bf55093b0d3",
          "blockNumber": "0xdca496",
          "transactionHash": "0xe5737dc101d4e8e68ff213a15df5d258dabce414b22c642ee0ec5b7371dd80c0",
          "transactionIndex": "0x0",
          "logIndex": "0x3",
          "removed": false
        },
        {
          "address": "0x0000000000000000000000000000000000001010",
          "topics": [
            "0x4dfe1bbbcf077ddc3e01291eea2d5c70c2b422b415d95645b9adcfd678cb1d63",
            "0x0000000000000000000000000000000000000000000000000000000000001010",
            "0x000000000000000000000000efbbd14082cf2fbcf5badc7ee619f0f4e36d0a5b",
            "0x0000000000000000000000006ab3d36c46ecfb9b9c0bd51cb1c3da5a2c81cea6"
          ],
          "data": "0x000000000000000000000000000000000000000000000000001b405cd85f153b000000000000000000000000000000000000000000000000208eef2ee15aad6600000000000000000000000000000000000000000000039bb081a78ea58170040000000000000000000000000000000000000000000000002073aed208fb982b00000000000000000000000000000000000000000000039bb09ce7eb7de0853f",
          "blockHash": "0xbd3ea1f709ccdf089e66ab0c4d03c5fef126aab0a752e8f5a3062bf55093b0d3",
          "blockNumber": "0xdca496",
          "transactionHash": "0xe5737dc101d4e8e68ff213a15df5d258dabce414b22c642ee0ec5b7371dd80c0",
          "transactionIndex": "0x0",
          "logIndex": "0x4",
          "removed": false
        }
      ],
      "logsBloom": "0x00000008080000000000000400002000000000000000000000800000000000000000000000000000000000000100000000008000000000000000000000000000008000080000000000000008001000800001000000000000010100000000000000000000020000001040000000000800000000000000000080000000000000400800000000000000000800000000080000000000000080000200200000000000200000400400000000000000000000000000400000000000000000100000004000000000000000000001000000000000000000010004000000900000000020000000000000000000000000000000000000000000800000000000000000100000",
      "type": "0x2",
      "transactionHash": "0xe5737dc101d4e8e68ff213a15df5d258dabce414b22c642ee0ec5b7371dd80c0",
      "transactionIndex": "0x0",
      "blockHash": "0xbd3ea1f709ccdf089e66ab0c4d03c5fef126aab0a752e8f5a3062bf55093b0d3",
      "blockNumber": "0xdca496",
      "gasUsed": "0x41b3f",
      "effectiveGasPrice": "0x6a2e33314",
      "from": "0xefbbd14082cf2fbcf5badc7ee619f0f4e36d0a5b",
      "to": "0x9c84263573aeb3565694d20b890eb9a806860efd",
      "contractAddress": null
    },
    {
      "status": "0x1",
      "cumulativeGasUsed": "0x1e78b",
      "logs": [
        {
          "address": "0x163aad81aa11f5bb1eb7a7c68e80b60db3432ef2",
          "topics": [
            "0x8c5be1e5ebec7d5bd14f71427d1e84f3dd0314c0f7b2291e5b200ac8c7c3b925",
            "0x000000000000000000000000efbbd14082cf2fbcf5badc7ee619f0f4e36d0a5b",
            "0x0000000000000000000000000d3450ce1cd2e307aba78aba8f09eb15e8a4ff73"
          ],
          "data": "0x0000000000000000000000000000000000000000000000056bc75e2d63100000",
          "blockHash": "0x078be73be9c0ba0cf9d5c7655bef24d01ee5bcc323a0e3649259ab0331f36631",
          "blockNumber": "0xdca499",
          "transactionHash": "0x8976aaaccff97451c781a6cf6057d5ae74c155cc6f70e02be97826f1b2df1ee3",
          "transactionIndex": "0x1",
          "logIndex": "0x1",
          "removed": false
        },
        {
          "address": "0x0000000000000000000000000000000000001010",
          "topics": [
            "0x4dfe1bbbcf077ddc3e01291eea2d5c70c2b422b415d95645b9adcfd678cb1d63",
            "0x0000000000000000000000000000000000000000000000000000000000001010",
            "0x000000000000000000000000efbbd14082cf2fbcf5badc7ee619f0f4e36d0a5b",
            "0x0000000000000000000000006ab3d36c46ecfb9b9c0bd51cb1c3da5a2c81cea6"
          ],
          "data": "0x0000000000000000000000000000000000000000000000000004a8bdd8a2c3a70000000000000000000000000000000000000000000000002073aed208bdff7a00000000000000000000000000000000000000000000039bb0faee1aebac41d7000000000000000000000000000000000000000000000000206f0614301b3bd300000000000000000000000000000000000000000000039bb0ff96d8c44f057e",
          "blockHash": "0x078be73be9c0ba0cf9d5c7655bef24d01ee5bcc323a0e3649259ab0331f36631",
          "blockNumber": "0xdca499",
          "transactionHash": "0x8976aaaccff97451c781a6cf6057d5ae74c155cc6f70e02be97826f1b2df1ee3",
          "transactionIndex": "0x1",
          "logIndex": "0x2",
          "removed": false
        }
      ],
      "logsBloom": "0x00000000080000000000000000000000000000000000000000000000000000000000000001000000000000000000000000008000000000000000000000200000008000080000000000000000000000800000000000000000000100000000000000000000000000000000000000000000000000000000000080000000000000000800000008000000000000000000000000000000000000000000004000000000220000000000000000000000000800000000400000000000000010000000004000000000000000000001000000000000000000010000000000120000000000000010000000000000000000000000000000000000000000000000000000100000",
      "type": "0x2",
      "transactionHash": "0x8976aaaccff97451c781a6cf6057d5ae74c155cc6f70e02be97826f1b2df1ee3",
      "transactionIndex": "0x1",
      "blockHash": "0x078be73be9c0ba0cf9d5c7655bef24d01ee5bcc323a0e3649259ab0331f36631",
      "blockNumber": "0xdca499",
      "gasUsed": "0xb3bb",
      "effectiveGasPrice": "0x6a2e33314",
      "from": "0xefbbd14082cf2fbcf5badc7ee619f0f4e36d0a5b",
      "to": "0x163aad81aa11f5bb1eb7a7c68e80b60db3432ef2",
      "contractAddress": null
    },
    {
      "status": "0x1",
      "cumulativeGasUsed": "0x4db25",
      "logs": [
        {
          "address": "0x163aad81aa11f5bb1eb7a7c68e80b60db3432ef2",
          "topics": [
            "0xddf252ad1be2c89b69c2b068fc378daa952ba7f163c4a11628f55a4df523b3ef",
            "0x000000000000000000000000efbbd14082cf2fbcf5badc7ee619f0f4e36d0a5b",
            "0x0000000000000000000000000d3450ce1cd2e307aba78aba8f09eb15e8a4ff73"
          ],
          "data": "0x0000000000000000000000000000000000000000000000056bc75e2d63100000",
          "blockHash": "0x59954106194db16208e2bab9155cd9b57b5787341b9b875566548e4475e9517e",
          "blockNumber": "0xdca49b",
          "transactionHash": "0xca41ced57b6e4283b1fdc2e1d9ba31ee1356f4932997031627801ab717ced300",
          "transactionIndex": "0x2",
          "logIndex": "0x5",
          "removed": false
        },
        {
          "address": "0x0d3450ce1cd2e307aba78aba8f09eb15e8a4ff73",
          "topics": [
            "0xcda33a906ffa8a5f960826827500581f4613a5db7a84b250433e0d591a630938",
            "0x000000000000000000000000e02e503415d200deb9ca3f8d9b1bebe87153e7dd"
          ],
          "data": "0x0000000000000000000000000000000000000000000000000000000067375c9e0000000000000000000000000000000000000000000000056bc75e2d63100000",
          "blockHash": "0x59954106194db16208e2bab9155cd9b57b5787341b9b875566548e4475e9517e",
          "blockNumber": "0xdca49b",
          "transactionHash": "0xca41ced57b6e4283b1fdc2e1d9ba31ee1356f4932997031627801ab717ced300",
          "transactionIndex": "0x2",
          "logIndex": "0x6",
          "removed": false
        },
        {
          "address": "0x0000000000000000000000000000000000001010",
          "topics": [
            "0x4dfe1bbbcf077ddc3e01291eea2d5c70c2b422b415d95645b9adcfd678cb1d63",
            "0x0000000000000000000000000000000000000000000000000000000000001010",
            "0x000000000000000000000000efbbd14082cf2fbcf5badc7ee619f0f4e36d0a5b",
            "0x0000000000000000000000006ab3d36c46ecfb9b9c0bd51cb1c3da5a2c81cea6"
          ],
          "data": "0x00000000000000000000000000000000000000000000000000109fab6cdf785e000000000000000000000000000000000000000000000000206f06143010b3de00000000000000000000000000000000000000000000039bb554645a4b54cbbe000000000000000000000000000000000000000000000000205e6668c3313b8000000000000000000000000000000000000000000000039bb5650405b834441c",
          "blockHash": "0x59954106194db16208e2bab9155cd9b57b5787341b9b875566548e4475e9517e",
          "blockNumber": "0xdca49b",
          "transactionHash": "0xca41ced57b6e4283b1fdc2e1d9ba31ee1356f4932997031627801ab717ced300",
          "transactionIndex": "0x2",
          "logIndex": "0x7",
          "removed": false
        }
      ],
      "logsBloom": "0x00000000080000000000000000002000000000000000000000000000000000000000000001000000000000000000000000008000000000000000000000000000008000080000000000000008000000800000000000000000000100000000000000000000000000000040000000000000000000000000000080000010000000000800000008000000000000000000000000000000000000000200004000000000200000000001000000000000000800000000400000000002000010000000004000000002000000000001000000000000000000010000000000120000000000000000000040008000400000000000000000000000000000000000000000100000",
      "type": "0x2",
      "transactionHash": "0xca41ced57b6e4283b1fdc2e1d9ba31ee1356f4932997031627801ab717ced300",
      "transactionIndex": "0x2",
      "blockHash": "0x59954106194db16208e2bab9155cd9b57b5787341b9b875566548e4475e9517e",
      "blockNumber": "0xdca49b",
      "gasUsed": "0x28146",
      "effectiveGasPrice": "0x6a2e33314",
      "from": "0xefbbd14082cf2fbcf5badc7ee619f0f4e36d0a5b",
      "to": "0x0d3450ce1cd2e307aba78aba8f09eb15e8a4ff73",
      "contractAddress": null
    },
    {
      "status": "0x1",
      "cumulativeGasUsed": "0x67d66",
      "logs": [
        {
          "address": "0x0d3450ce1cd2e307aba78aba8f09eb15e8a4ff73",
          "topics": [
            "0xf13bfe0b6ec5df39265dccb0a01a09aa4162489c7a083dc6670bde0255d02ca7",
            "0x000000000000000000000000e02e503415d200deb9ca3f8d9b1bebe87153e7dd"
          ],
          "data": "0x0000000000000000000000000000000000000000000000000000000067375ca4",
          "blockHash": "0x22a3d53722982733f25a6fba27d50aae8e21be95a454d0c7199e4bfcfe4b7d78",
          "blockNumber": "0xdca49e",
          "transactionHash": "0x168c034db2741bf0b3c7a4733929717bf83dfab9e36d1d6698815a786013a917",
          "transactionIndex": "0x3",
          "logIndex": "0x9",
          "removed": false
        },
        {
          "address": "0x0000000000000000000000000000000000001010",
          "topics": [
            "0x4dfe1bbbcf077ddc3e01291eea2d5c70c2b422b415d95645b9adcfd678cb1d63",
            "0x0000000000000000000000000000000000000000000000000000000000001010",
            "0x000000000000000000000000efbbd14082cf2fbcf5badc7ee619f0f4e36d0a5b",
            "0x0000000000000000000000006ab3d36c46ecfb9b9c0bd51cb1c3da5a2c81cea6"
          ],
          "data": "0x0000000000000000000000000000000000000000000000000008ee53ec983999000000000000000000000000000000000000000000000000205e6668c30ba86600000000000000000000000000000000000000000000039bb689a944e6b9628b00000000000000000000000000000000000000000000000020557814d6736ecd00000000000000000000000000000000000000000000039bb6929798d3519c24",
          "blockHash": "0x22a3d53722982733f25a6fba27d50aae8e21be95a454d0c7199e4bfcfe4b7d78",
          "blockNumber": "0xdca49e",
          "transactionHash": "0x168c034db2741bf0b3c7a4733929717bf83dfab9e36d1d6698815a786013a917",
          "transactionIndex": "0x3",
          "logIndex": "0xa",
          "removed": false
        }
      ],
      "logsBloom": "0x00000000080000000000000000002000000000000000000000000000000000000000000000000000000000000000000000008000000000000000000000000000008000080000000000000000000000800000000000000000000100000000000000000000000000000040000000000000000000000000000080000000000000000800000000000000000000000000000000000000000008000200000000000000200000000001000000000000000000000000400000000802000000000000004000000000000000000001000000000000000000010000000020100000000000000000000000008000000000000000000000000000000000000000000000100000",
      "type": "0x2",
      "transactionHash": "0x168c034db2741bf0b3c7a4733929717bf83dfab9e36d1d6698815a786013a917",
      "transactionIndex": "0x3",
      "blockHash": "0x22a3d53722982733f25a6fba27d50aae8e21be95a454d0c7199e4bfcfe4b7d78",
      "blockNumber": "0xdca49e",
      "gasUsed": "0x15885",
      "effectiveGasPrice": "0x6a2e33314",
      "from": "0xefbbd14082cf2fbcf5badc7ee619f0f4e36d0a5b",
      "to": "0x0d3450ce1cd2e307aba78aba8f09eb15e8a4ff73",
      "contractAddress": null
    }
  ],
  "libraries": [],
  "pending": [],
  "returns": {},
  "timestamp": 1731681463,
  "chain": 80002,
  "commit": "5d3485c"
}