{
  "transactions": [
    {
      "hash": "0xee9055280779e7633d0511416ef30ed243459e1ef23437768b2c145a14a8ca8d",
      "transactionType": "CALL",
      "contractName": null,
      "contractAddress": "0x86d132215015dec166ecbfc47d1e2cdeea771724",
      "function": "create(string)",
      "arguments": [
        "https://guardian.watchit.movie"
      ],
      "transaction": {
        "from": "0xefbbd14082cf2fbcf5badc7ee619f0f4e36d0a5b",
        "to": "0x86d132215015dec166ecbfc47d1e2cdeea771724",
        "gas": "0x5ac07",
        "value": "0x0",
        "input": "0xb6a46b3b0000000000000000000000000000000000000000000000000000000000000020000000000000000000000000000000000000000000000000000000000000001e68747470733a2f2f677561726469616e2e776174636869742e6d6f7669650000",
        "nonce": "0x6c5",
        "chainId": "0x13882"
      },
      "additionalContracts": [
        {
          "transactionType": "CREATE",
          "address": "0x4c3ad198e585385d500ec7cc0c8a9cb04a4b938f",
          "initCode": "0x60a08060405261050d80380380916100178285610292565b833981016040828203126101eb5761002e826102c9565b602083015190926001600160401b0382116101eb57019080601f830112156101eb57815161005b816102dd565b926100696040519485610292565b8184526020840192602083830101116101eb57815f926020809301855e84010152823b15610274577fa3f0ad74e5423aebfd80d3ef4346578335a9a72aeaee59ff6cb3582b35133d5080546001600160a01b0319166001600160a01b038516908117909155604051635c60da1b60e01b8152909190602081600481865afa9081156101f7575f9161023a575b50803b1561021a5750817f1cf3b03a6cf19fa2baba4df148e9dcabedea7f8a5c07840e207e5c089be95d3e5f80a282511561020257602060049260405193848092635c60da1b60e01b82525afa9182156101f7575f926101ae575b505f809161018a945190845af43d156101a6573d9161016e836102dd565b9261017c6040519485610292565b83523d5f602085013e6102f8565b505b6080526040516101b6908161035782396080518160460152f35b6060916102f8565b9291506020833d6020116101ef575b816101ca60209383610292565b810103126101eb575f80916101e161018a956102c9565b9394509150610150565b5f80fd5b3d91506101bd565b6040513d5f823e3d90fd5b505050341561018c5763b398979f60e01b5f5260045ffd5b634c9c8ce360e01b5f9081526001600160a01b0391909116600452602490fd5b90506020813d60201161026c575b8161025560209383610292565b810103126101eb57610266906102c9565b5f6100f5565b3d9150610248565b631933b43b60e21b5f9081526001600160a01b038416600452602490fd5b601f909101601f19168101906001600160401b038211908210176102b557604052565b634e487b7160e01b5f52604160045260245ffd5b51906001600160a01b03821682036101eb57565b6001600160401b0381116102b557601f01601f191660200190565b9061031c575080511561030d57805190602001fd5b63d6bda27560e01b5f5260045ffd5b8151158061034d575b61032d575090565b639996b31560e01b5f9081526001600160a01b0391909116600452602490fd5b50803b1561032556fe60806040527f5c60da1b000000000000000000000000000000000000000000000000000000006080526020608060048173ffffffffffffffffffffffffffffffffffffffff7f0000000000000000000000000000000000000000000000000000000000000000165afa8015610107575f9015610163575060203d602011610100575b7fffffffffffffffffffffffffffffffffffffffffffffffffffffffffffffffe0601f820116608001906080821067ffffffffffffffff8311176100d3576100ce91604052608001610112565b610163565b7f4e487b71000000000000000000000000000000000000000000000000000000005f52604160045260245ffd5b503d610081565b6040513d5f823e3d90fd5b7fffffffffffffffffffffffffffffffffffffffffffffffffffffffffffffff80602091011261015f5760805173ffffffffffffffffffffffffffffffffffffffff8116810361015f5790565b5f80fd5b5f8091368280378136915af43d5f803e1561017c573d5ff35b3d5ffdfea264697066735822122064427a31676ba3427858a99499cd34caa0223a53e5d14b45aaf09cce1cb3243c64736f6c634300081a003300000000000000000000000086d132215015dec166ecbfc47d1e2cdeea771724000000000000000000000000000000000000000000000000000000000000004000000000000000000000000000000000000000000000000000000000000000847ab4339d0000000000000000000000000000000000000000000000000000000000000040000000000000000000000000efbbd14082cf2fbcf5badc7ee619f0f4e36d0a5b000000000000000000000000000000000000000000000000000000000000001e68747470733a2f2f677561726469616e2e776174636869742e6d6f766965000000000000000000000000000000000000000000000000000000000000"
        }
      ],
      "isFixedGasLimit": false
    },
    {
      "hash": "0xf4047c19a1448222a4d830e1d1b6fcda4fe74a94f781c7aa4828f4aef4b111de",
      "transactionType": "CALL",
      "contractName": null,
      "contractAddress": "0x3c7deb6feaeb7a82bde580fb73d8d69c401b219e",
      "function": "approve(address,uint256)",
      "arguments": [
        "0xe88904222A5411898d2128995CD36d300964959d",
        "100000000000000000000"
      ],
      "transaction": {
        "from": "0xefbbd14082cf2fbcf5badc7ee619f0f4e36d0a5b",
        "to": "0x3c7deb6feaeb7a82bde580fb73d8d69c401b219e",
        "gas": "0x106da",
        "value": "0x0",
        "input": "0x095ea7b3000000000000000000000000e88904222a5411898d2128995cd36d300964959d0000000000000000000000000000000000000000000000056bc75e2d63100000",
        "nonce": "0x6c6",
        "chainId": "0x13882"
      },
      "additionalContracts": [],
      "isFixedGasLimit": false
    },
    {
      "hash": "0xddf2a3edd3d578d5abd19b63a53bf1db20353ff12b227bd1f6777c490150a7b4",
      "transactionType": "CALL",
      "contractName": null,
      "contractAddress": "0xe88904222a5411898d2128995cd36d300964959d",
      "function": "register(address,address)",
      "arguments": [
        "0x4c3aD198e585385D500ec7CC0C8a9cB04A4B938f",
        "0x3c7DeB6FeAEb7a82BDe580Fb73d8d69c401b219e"
      ],
      "transaction": {
        "from": "0xefbbd14082cf2fbcf5badc7ee619f0f4e36d0a5b",
        "to": "0xe88904222a5411898d2128995cd36d300964959d",
        "gas": "0x3a9ee",
        "value": "0x0",
        "input": "0xaa6773540000000000000000000000004c3ad198e585385d500ec7cc0c8a9cb04a4b938f0000000000000000000000003c7deb6feaeb7a82bde580fb73d8d69c401b219e",
        "nonce": "0x6c7",
        "chainId": "0x13882"
      },
      "additionalContracts": [],
      "isFixedGasLimit": false
    },
    {
      "hash": "0x703e52e870440937dae1bac51cde5500e1f8b701ccd758939db7ab3efba92404",
      "transactionType": "CALL",
      "contractName": null,
      "contractAddress": "0xe88904222a5411898d2128995cd36d300964959d",
      "function": "approve(address)",
      "arguments": [
        "0x4c3aD198e585385D500ec7CC0C8a9cB04A4B938f"
      ],
      "transaction": {
        "from": "0xefbbd14082cf2fbcf5badc7ee619f0f4e36d0a5b",
        "to": "0xe88904222a5411898d2128995cd36d300964959d",
        "gas": "0x1f7ed",
        "value": "0x0",
        "input": "0xdaea85c50000000000000000000000004c3ad198e585385d500ec7cc0c8a9cb04a4b938f",
        "nonce": "0x6c8",
        "chainId": "0x13882"
      },
      "additionalContracts": [],
      "isFixedGasLimit": false
    }
  ],
  "receipts": [
    {
      "status": "0x1",
      "cumulativeGasUsed": "0x6c186",
      "logs": [
        {
          "address": "0x4c3ad198e585385d500ec7cc0c8a9cb04a4b938f",
          "topics": [
            "0x1cf3b03a6cf19fa2baba4df148e9dcabedea7f8a5c07840e207e5c089be95d3e",
            "0x00000000000000000000000086d132215015dec166ecbfc47d1e2cdeea771724"
          ],
          "data": "0x",
          "blockHash": "0x525d94df51e7cedf5028d375474bc2fd9741bef31a9e908911258c8365dcf7fc",
          "blockNumber": "0xdfec0d",
          "transactionHash": "0xee9055280779e7633d0511416ef30ed243459e1ef23437768b2c145a14a8ca8d",
          "transactionIndex": "0x2",
          "logIndex": "0x6",
          "removed": false
        },
        {
          "address": "0x4c3ad198e585385d500ec7cc0c8a9cb04a4b938f",
          "topics": [
            "0x8be0079c531659141344cd1fd0a4f28419497f9722a3daafe3b4186f6b6457e0",
            "0x0000000000000000000000000000000000000000000000000000000000000000",
            "0x000000000000000000000000efbbd14082cf2fbcf5badc7ee619f0f4e36d0a5b"
          ],
          "data": "0x",
          "blockHash": "0x525d94df51e7cedf5028d375474bc2fd9741bef31a9e908911258c8365dcf7fc",
          "blockNumber": "0xdfec0d",
          "transactionHash": "0xee9055280779e7633d0511416ef30ed243459e1ef23437768b2c145a14a8ca8d",
          "transactionIndex": "0x2",
          "logIndex": "0x7",
          "removed": false
        },
        {
          "address": "0x4c3ad198e585385d500ec7cc0c8a9cb04a4b938f",
          "topics": [
            "0xc7f505b2f371ae2175ee4913f4499e1f2633a7b5936321eed1cdaeb6115181d2"
          ],
          "data": "0x0000000000000000000000000000000000000000000000000000000000000001",
          "blockHash": "0x525d94df51e7cedf5028d375474bc2fd9741bef31a9e908911258c8365dcf7fc",
          "blockNumber": "0xdfec0d",
          "transactionHash": "0xee9055280779e7633d0511416ef30ed243459e1ef23437768b2c145a14a8ca8d",
          "transactionIndex": "0x2",
          "logIndex": "0x8",
          "removed": false
        },
        {
          "address": "0x86d132215015dec166ecbfc47d1e2cdeea771724",
          "topics": [
            "0x4a7bba0e1c21f3684678b259c49028d8cca5e0c5a2b43eba286ada7d196c8bfb",
            "0x0000000000000000000000004c3ad198e585385d500ec7cc0c8a9cb04a4b938f"
          ],
          "data": "0x0000000000000000000000000000000000000000000000000000000000000020000000000000000000000000000000000000000000000000000000000000001e68747470733a2f2f677561726469616e2e776174636869742e6d6f7669650000",
          "blockHash": "0x525d94df51e7cedf5028d375474bc2fd9741bef31a9e908911258c8365dcf7fc",
          "blockNumber": "0xdfec0d",
          "transactionHash": "0xee9055280779e7633d0511416ef30ed243459e1ef23437768b2c145a14a8ca8d",
          "transactionIndex": "0x2",
          "logIndex": "0x9",
          "removed": false
        },
        {
          "address": "0x0000000000000000000000000000000000001010",
          "topics": [
            "0x4dfe1bbbcf077ddc3e01291eea2d5c70c2b422b415d95645b9adcfd678cb1d63",
            "0x0000000000000000000000000000000000000000000000000000000000001010",
            "0x000000000000000000000000efbbd14082cf2fbcf5badc7ee619f0f4e36d0a5b",
            "0x0000000000000000000000006dc2dd54f24979ec26212794c71afefed722280c"
          ],
          "data": "0x0000000000000000000000000000000000000000000000000017e70ebfeec6000000000000000000000000000000000000000000000000004834e611e6cd87cf00000000000000000000000000000000000000000000041c8e59e53053c0f687000000000000000000000000000000000000000000000000481cff0326dec1cf00000000000000000000000000000000000000000000041c8e71cc3f13afbc87",
          "blockHash": "0x525d94df51e7cedf5028d375474bc2fd9741bef31a9e908911258c8365dcf7fc",
          "blockNumber": "0xdfec0d",
          "transactionHash": "0xee9055280779e7633d0511416ef30ed243459e1ef23437768b2c145a14a8ca8d",
          "transactionIndex": "0x2",
          "logIndex": "0xa",
          "removed": false
        }
      ],
      "logsBloom": "0x00000000000008200000000400000000000800000000000000800000000000000000000000000000000000000000000000008000000000000000000000000100008000000000000000000000001200800001000000000000010100080000000000000000020000000000000000000800000000000000000080000000000000420800000000000000100800000040080000000000000080000000200000000010200000000000000000000000000000000000400000000000000000000000004000000000000000000001000000000000000000000004000000900000004020000000000008000000000010000000000000000000000002040000000000100000",
      "type": "0x2",
      "transactionHash": "0xee9055280779e7633d0511416ef30ed243459e1ef23437768b2c145a14a8ca8d",
      "transactionIndex": "0x2",
      "blockHash": "0x525d94df51e7cedf5028d375474bc2fd9741bef31a9e908911258c8365dcf7fc",
      "blockNumber": "0xdfec0d",
      "gasUsed": "0x41b3f",
      "effectiveGasPrice": "0x5d21dba0f",
      "from": "0xefbbd14082cf2fbcf5badc7ee619f0f4e36d0a5b",
      "to": "0x86d132215015dec166ecbfc47d1e2cdeea771724",
      "contractAddress": null
    },
    {
      "status": "0x1",
      "cumulativeGasUsed": "0xb3bb",
      "logs": [
        {
          "address": "0x3c7deb6feaeb7a82bde580fb73d8d69c401b219e",
          "topics": [
            "0x8c5be1e5ebec7d5bd14f71427d1e84f3dd0314c0f7b2291e5b200ac8c7c3b925",
            "0x000000000000000000000000efbbd14082cf2fbcf5badc7ee619f0f4e36d0a5b",
            "0x000000000000000000000000e88904222a5411898d2128995cd36d300964959d"
          ],
          "data": "0x0000000000000000000000000000000000000000000000056bc75e2d63100000",
          "blockHash": "0xf27b612bf7d9350ebe47ba30903dbd8d8f87b01e2f4b074ad731208be1e90387",
          "blockNumber": "0xdfec0e",
          "transactionHash": "0xf4047c19a1448222a4d830e1d1b6fcda4fe74a94f781c7aa4828f4aef4b111de",
          "transactionIndex": "0x0",
          "logIndex": "0x0",
          "removed": false
        },
        {
          "address": "0x0000000000000000000000000000000000001010",
          "topics": [
            "0x4dfe1bbbcf077ddc3e01291eea2d5c70c2b422b415d95645b9adcfd678cb1d63",
            "0x0000000000000000000000000000000000000000000000000000000000001010",
            "0x000000000000000000000000efbbd14082cf2fbcf5badc7ee619f0f4e36d0a5b",
            "0x0000000000000000000000006dc2dd54f24979ec26212794c71afefed722280c"
          ],
          "data": "0x0000000000000000000000000000000000000000000000000004162b44c4de00000000000000000000000000000000000000000000000000481cff0326a1291e00000000000000000000000000000000000000000000041c8e71cc3f13afbc870000000000000000000000000000000000000000000000004818e8d7e1dc4b1e00000000000000000000000000000000000000000000041c8e75e26a58749a87",
          "blockHash": "0xf27b612bf7d9350ebe47ba30903dbd8d8f87b01e2f4b074ad731208be1e90387",
          "blockNumber": "0xdfec0e",
          "transactionHash": "0xf4047c19a1448222a4d830e1d1b6fcda4fe74a94f781c7aa4828f4aef4b111de",
          "transactionIndex": "0x0",
          "logIndex": "0x1",
          "removed": false
        }
      ],
      "logsBloom": "0x00008000000000000000000000000000000000000000000000000000000000001000000000000000000000000000000000008000000000000000000000200000008000000000000000000000000000800000000000000010000100080000000000000000100000000000000000000000000000000000000080000000000000020800000000000000000000000040000000000000000000000000000000000000220000000000000000000000000000000000400000000000020000000000004000000000000000000001008000000000000000000000000000100000000000000010000000000000000000000000000000000000000000000000000000100000",
      "type": "0x2",
      "transactionHash": "0xf4047c19a1448222a4d830e1d1b6fcda4fe74a94f781c7aa4828f4aef4b111de",
      "transactionIndex": "0x0",
      "blockHash": "0xf27b612bf7d9350ebe47ba30903dbd8d8f87b01e2f4b074ad731208be1e90387",
      "blockNumber": "0xdfec0e",
      "gasUsed": "0xb3bb",
      "effectiveGasPrice": "0x5d21dba0f",
      "from": "0xefbbd14082cf2fbcf5badc7ee619f0f4e36d0a5b",
      "to": "0x3c7deb6feaeb7a82bde580fb73d8d69c401b219e",
      "contractAddress": null
    },
    {
      "status": "0x1",
      "cumulativeGasUsed": "0x3350d",
      "logs": [
        {
          "address": "0x3c7deb6feaeb7a82bde580fb73d8d69c401b219e",
          "topics": [
            "0xddf252ad1be2c89b69c2b068fc378daa952ba7f163c4a11628f55a4df523b3ef",
            "0x000000000000000000000000efbbd14082cf2fbcf5badc7ee619f0f4e36d0a5b",
            "0x000000000000000000000000e88904222a5411898d2128995cd36d300964959d"
          ],
          "data": "0x0000000000000000000000000000000000000000000000056bc75e2d63100000",
          "blockHash": "0xf27b612bf7d9350ebe47ba30903dbd8d8f87b01e2f4b074ad731208be1e90387",
          "blockNumber": "0xdfec0e",
          "transactionHash": "0xddf2a3edd3d578d5abd19b63a53bf1db20353ff12b227bd1f6777c490150a7b4",
          "transactionIndex": "0x1",
          "logIndex": "0x2",
          "removed": false
        },
        {
          "address": "0xe88904222a5411898d2128995cd36d300964959d",
          "topics": [
            "0xcda33a906ffa8a5f960826827500581f4613a5db7a84b250433e0d591a630938",
            "0x0000000000000000000000004c3ad198e585385d500ec7cc0c8a9cb04a4b938f"
          ],
          "data": "0x00000000000000000000000000000000000000000000000000000000673e73b50000000000000000000000000000000000000000000000056bc75e2d63100000",
          "blockHash": "0xf27b612bf7d9350ebe47ba30903dbd8d8f87b01e2f4b074ad731208be1e90387",
          "blockNumber": "0xdfec0e",
          "transactionHash": "0xddf2a3edd3d578d5abd19b63a53bf1db20353ff12b227bd1f6777c490150a7b4",
          "transactionIndex": "0x1",
          "logIndex": "0x3",
          "removed": false
        },
        {
          "address": "0x0000000000000000000000000000000000001010",
          "topics": [
            "0x4dfe1bbbcf077ddc3e01291eea2d5c70c2b422b415d95645b9adcfd678cb1d63",
            "0x0000000000000000000000000000000000000000000000000000000000001010",
            "0x000000000000000000000000efbbd14082cf2fbcf5badc7ee619f0f4e36d0a5b",
            "0x0000000000000000000000006dc2dd54f24979ec26212794c71afefed722280c"
          ],
          "data": "0x000000000000000000000000000000000000000000000000000e94f9bc3f94000000000000000000000000000000000000000000000000004818e8d7e1d1c32900000000000000000000000000000000000000000000041c8e75e26a58749a87000000000000000000000000000000000000000000000000480a53de25922f2900000000000000000000000000000000000000000000041c8e84776414b42e87",
          "blockHash": "0xf27b612bf7d9350ebe47ba30903dbd8d8f87b01e2f4b074ad731208be1e90387",
          "blockNumber": "0xdfec0e",
          "transactionHash": "0xddf2a3edd3d578d5abd19b63a53bf1db20353ff12b227bd1f6777c490150a7b4",
          "transactionIndex": "0x1",
          "logIndex": "0x4",
          "removed": false
        }
      ],
      "logsBloom": "0x00008000000000200000000000000000000000000000000000000000000000001000000000000000000000000000000000008000000000000000000000000000008000000000000000000008000000800000000000000010000100080000000000000000100000000000000000000000000000000000000080000010000000020800000000000000000000000040000000000000000000000000000000000010200000000000000000000000002000000000400000000000020000000040004000000002000000040001008000000000000000000000000000100000000000000000000040000000400010000000000000000000000000000000000000100000",
      "type": "0x2",
      "transactionHash": "0xddf2a3edd3d578d5abd19b63a53bf1db20353ff12b227bd1f6777c490150a7b4",
      "transactionIndex": "0x1",
      "blockHash": "0xf27b612bf7d9350ebe47ba30903dbd8d8f87b01e2f4b074ad731208be1e90387",
      "blockNumber": "0xdfec0e",
      "gasUsed": "0x28152",
      "effectiveGasPrice": "0x5d21dba0f",
      "from": "0xefbbd14082cf2fbcf5badc7ee619f0f4e36d0a5b",
      "to": "0xe88904222a5411898d2128995cd36d300964959d",
      "contractAddress": null
    },
    {
      "status": "0x1",
      "cumulativeGasUsed": "0x48d9e",
      "logs": [
        {
          "address": "0xe88904222a5411898d2128995cd36d300964959d",
          "topics": [
            "0xf13bfe0b6ec5df39265dccb0a01a09aa4162489c7a083dc6670bde0255d02ca7",
            "0x0000000000000000000000004c3ad198e585385d500ec7cc0c8a9cb04a4b938f"
          ],
          "data": "0x00000000000000000000000000000000000000000000000000000000673e73b5",
          "blockHash": "0xf27b612bf7d9350ebe47ba30903dbd8d8f87b01e2f4b074ad731208be1e90387",
          "blockNumber": "0xdfec0e",
          "transactionHash": "0x703e52e870440937dae1bac51cde5500e1f8b701ccd758939db7ab3efba92404",
          "transactionIndex": "0x2",
          "logIndex": "0x5",
          "removed": false
        },
        {
          "address": "0x0000000000000000000000000000000000001010",
          "topics": [
            "0x4dfe1bbbcf077ddc3e01291eea2d5c70c2b422b415d95645b9adcfd678cb1d63",
            "0x0000000000000000000000000000000000000000000000000000000000001010",
            "0x000000000000000000000000efbbd14082cf2fbcf5badc7ee619f0f4e36d0a5b",
            "0x0000000000000000000000006dc2dd54f24979ec26212794c71afefed722280c"
          ],
          "data": "0x0000000000000000000000000000000000000000000000000007d5a3f4c65a00000000000000000000000000000000000000000000000000480a53de256c9b5b00000000000000000000000000000000000000000000041c8e84776414b42e8700000000000000000000000000000000000000000000000048027e3a30a6415b00000000000000000000000000000000000000000000041c8e8c4d08097a8887",
          "blockHash": "0xf27b612bf7d9350ebe47ba30903dbd8d8f87b01e2f4b074ad731208be1e90387",
          "blockNumber": "0xdfec0e",
          "transactionHash": "0x703e52e870440937dae1bac51cde5500e1f8b701ccd758939db7ab3efba92404",
          "transactionIndex": "0x2",
          "logIndex": "0x6",
          "removed": false
        }
      ],
      "logsBloom": "0x00000000000000200000000000000000000000000000000000000000000000000000000000000000000000000000000000008000000000000000000000000000008000000000000000000000000000800000000000000000000100080000000000000000000000000000000000000000000000000000000080000000000000020800000000000000000000000040000000000000000008000000000000000010200000000000000000000000002000000000400000000800000000000040004000000000000000040001000000000000000000000000000020100000000000000000000000000000000010000000000000000000000000000000000000100000",
      "type": "0x2",
      "transactionHash": "0x703e52e870440937dae1bac51cde5500e1f8b701ccd758939db7ab3efba92404",
      "transactionIndex": "0x2",
      "blockHash": "0xf27b612bf7d9350ebe47ba30903dbd8d8f87b01e2f4b074ad731208be1e90387",
      "blockNumber": "0xdfec0e",
      "gasUsed": "0x15891",
      "effectiveGasPrice": "0x5d21dba0f",
      "from": "0xefbbd14082cf2fbcf5badc7ee619f0f4e36d0a5b",
      "to": "0xe88904222a5411898d2128995cd36d300964959d",
      "contractAddress": null
    }
  ],
  "libraries": [],
  "pending": [],
  "returns": {},
  "timestamp": 1732146119,
  "chain": 80002,
  "commit": "7027805"
}