{
  "transactions": [
    {
      "hash": "0x1d32e2f75da1f5dbf369099dd0766620696d481ba5f7b3d447def196b6a7e678",
      "transactionType": "CALL",
      "contractName": null,
      "contractAddress": "0x5a6d3abbf62d275440d57bb11f281541a96f9dac",
      "function": "create(string)",
      "arguments": [
        "https://guardian.watchit.movie"
      ],
      "transaction": {
        "from": "0xefbbd14082cf2fbcf5badc7ee619f0f4e36d0a5b",
        "to": "0x5a6d3abbf62d275440d57bb11f281541a96f9dac",
        "gas": "0x5ac07",
        "value": "0x0",
        "input": "0xb6a46b3b0000000000000000000000000000000000000000000000000000000000000020000000000000000000000000000000000000000000000000000000000000001e68747470733a2f2f677561726469616e2e776174636869742e6d6f7669650000",
        "nonce": "0x7c9",
        "chainId": "0x13882"
      },
      "additionalContracts": [
        {
          "transactionType": "CREATE",
          "address": "0xfcd9c33115646eadbc31495cb7d0c6a5d12cd541",
          "initCode": "0x60a08060405261050d80380380916100178285610292565b833981016040828203126101eb5761002e826102c9565b602083015190926001600160401b0382116101eb57019080601f830112156101eb57815161005b816102dd565b926100696040519485610292565b8184526020840192602083830101116101eb57815f926020809301855e84010152823b15610274577fa3f0ad74e5423aebfd80d3ef4346578335a9a72aeaee59ff6cb3582b35133d5080546001600160a01b0319166001600160a01b038516908117909155604051635c60da1b60e01b8152909190602081600481865afa9081156101f7575f9161023a575b50803b1561021a5750817f1cf3b03a6cf19fa2baba4df148e9dcabedea7f8a5c07840e207e5c089be95d3e5f80a282511561020257602060049260405193848092635c60da1b60e01b82525afa9182156101f7575f926101ae575b505f809161018a945190845af43d156101a6573d9161016e836102dd565b9261017c6040519485610292565b83523d5f602085013e6102f8565b505b6080526040516101b6908161035782396080518160460152f35b6060916102f8565b9291506020833d6020116101ef575b816101ca60209383610292565b810103126101eb575f80916101e161018a956102c9565b9394509150610150565b5f80fd5b3d91506101bd565b6040513d5f823e3d90fd5b505050341561018c5763b398979f60e01b5f5260045ffd5b634c9c8ce360e01b5f9081526001600160a01b0391909116600452602490fd5b90506020813d60201161026c575b8161025560209383610292565b810103126101eb57610266906102c9565b5f6100f5565b3d9150610248565b631933b43b60e21b5f9081526001600160a01b038416600452602490fd5b601f909101601f19168101906001600160401b038211908210176102b557604052565b634e487b7160e01b5f52604160045260245ffd5b51906001600160a01b03821682036101eb57565b6001600160401b0381116102b557601f01601f191660200190565b9061031c575080511561030d57805190602001fd5b63d6bda27560e01b5f5260045ffd5b8151158061034d575b61032d575090565b639996b31560e01b5f9081526001600160a01b0391909116600452602490fd5b50803b1561032556fe60806040527f5c60da1b000000000000000000000000000000000000000000000000000000006080526020608060048173ffffffffffffffffffffffffffffffffffffffff7f0000000000000000000000000000000000000000000000000000000000000000165afa8015610107575f9015610163575060203d602011610100575b7fffffffffffffffffffffffffffffffffffffffffffffffffffffffffffffffe0601f820116608001906080821067ffffffffffffffff8311176100d3576100ce91604052608001610112565b610163565b7f4e487b71000000000000000000000000000000000000000000000000000000005f52604160045260245ffd5b503d610081565b6040513d5f823e3d90fd5b7fffffffffffffffffffffffffffffffffffffffffffffffffffffffffffffff80602091011261015f5760805173ffffffffffffffffffffffffffffffffffffffff8116810361015f5790565b5f80fd5b5f8091368280378136915af43d5f803e1561017c573d5ff35b3d5ffdfea264697066735822122064427a31676ba3427858a99499cd34caa0223a53e5d14b45aaf09cce1cb3243c64736f6c634300081a00330000000000000000000000005a6d3abbf62d275440d57bb11f281541a96f9dac000000000000000000000000000000000000000000000000000000000000004000000000000000000000000000000000000000000000000000000000000000847ab4339d0000000000000000000000000000000000000000000000000000000000000040000000000000000000000000efbbd14082cf2fbcf5badc7ee619f0f4e36d0a5b000000000000000000000000000000000000000000000000000000000000001e68747470733a2f2f677561726469616e2e776174636869742e6d6f766965000000000000000000000000000000000000000000000000000000000000"
        }
      ],
      "isFixedGasLimit": false
    },
    {
      "hash": "0xb3a1a17ae1dae97d26dc16210768d1b3755eea80d8ed7d6174d7b1609cb12ccc",
      "transactionType": "CALL",
      "contractName": null,
      "contractAddress": "0x3c7deb6feaeb7a82bde580fb73d8d69c401b219e",
      "function": "approve(address,uint256)",
      "arguments": [
        "0x66612fb73C5df6273F79bFc1F03382399E8B9EC6",
        "100000000000000000000"
      ],
      "transaction": {
        "from": "0xefbbd14082cf2fbcf5badc7ee619f0f4e36d0a5b",
        "to": "0x3c7deb6feaeb7a82bde580fb73d8d69c401b219e",
        "gas": "0x106da",
        "value": "0x0",
        "input": "0x095ea7b300000000000000000000000066612fb73c5df6273f79bfc1f03382399e8b9ec60000000000000000000000000000000000000000000000056bc75e2d63100000",
        "nonce": "0x7ca",
        "chainId": "0x13882"
      },
      "additionalContracts": [],
      "isFixedGasLimit": false
    },
    {
      "hash": "0xe445ec58374c4bf0a21e9bb889e66bee5264e9189b41847767788b9466a5fae4",
      "transactionType": "CALL",
      "contractName": null,
      "contractAddress": "0x66612fb73c5df6273f79bfc1f03382399e8b9ec6",
      "function": "deposit(address,uint256,address)",
      "arguments": [
        "0xEFBBD14082cF2FbCf5Badc7ee619F0f4e36D0A5B",
        "100000000000000000000",
        "0x3c7DeB6FeAEb7a82BDe580Fb73d8d69c401b219e"
      ],
      "transaction": {
        "from": "0xefbbd14082cf2fbcf5badc7ee619f0f4e36d0a5b",
        "to": "0x66612fb73c5df6273f79bfc1f03382399e8b9ec6",
        "gas": "0x2068d",
        "value": "0x0",
        "input": "0xf45346dc000000000000000000000000efbbd14082cf2fbcf5badc7ee619f0f4e36d0a5b0000000000000000000000000000000000000000000000056bc75e2d631000000000000000000000000000003c7deb6feaeb7a82bde580fb73d8d69c401b219e",
        "nonce": "0x7cb",
        "chainId": "0x13882"
      },
      "additionalContracts": [],
      "isFixedGasLimit": false
    },
    {
      "hash": "0x090b579dc23c6f20a5d46c2c878d4edcc25632ecd941253ccbe96d74bcc0d056",
      "transactionType": "CALL",
      "contractName": null,
      "contractAddress": "0x17c5b7ddac9e5623c018c32d67632da85a9be95b",
      "function": "register(address,address)",
      "arguments": [
        "0xFcd9C33115646EaDbC31495CB7d0C6a5D12Cd541",
        "0x3c7DeB6FeAEb7a82BDe580Fb73d8d69c401b219e"
      ],
      "transaction": {
        "from": "0xefbbd14082cf2fbcf5badc7ee619f0f4e36d0a5b",
        "to": "0x17c5b7ddac9e5623c018c32d67632da85a9be95b",
        "gas": "0x3ebe5",
        "value": "0x0",
        "input": "0xaa677354000000000000000000000000fcd9c33115646eadbc31495cb7d0c6a5d12cd5410000000000000000000000003c7deb6feaeb7a82bde580fb73d8d69c401b219e",
        "nonce": "0x7cc",
        "chainId": "0x13882"
      },
      "additionalContracts": [],
      "isFixedGasLimit": false
    },
    {
      "hash": "0x27f0452c79994031297e3b952e174ef4549d9d79e3bcbf1bcbbed9b91e5610ec",
      "transactionType": "CALL",
      "contractName": null,
      "contractAddress": "0x17c5b7ddac9e5623c018c32d67632da85a9be95b",
      "function": "approve(address)",
      "arguments": [
        "0xFcd9C33115646EaDbC31495CB7d0C6a5D12Cd541"
      ],
      "transaction": {
        "from": "0xefbbd14082cf2fbcf5badc7ee619f0f4e36d0a5b",
        "to": "0x17c5b7ddac9e5623c018c32d67632da85a9be95b",
        "gas": "0x1f7ed",
        "value": "0x0",
        "input": "0xdaea85c5000000000000000000000000fcd9c33115646eadbc31495cb7d0c6a5d12cd541",
        "nonce": "0x7cd",
        "chainId": "0x13882"
      },
      "additionalContracts": [],
      "isFixedGasLimit": false
    }
  ],
  "receipts": [
    {
      "status": "0x1",
      "cumulativeGasUsed": "0x63957",
      "logs": [
        {
          "address": "0xfcd9c33115646eadbc31495cb7d0c6a5d12cd541",
          "topics": [
            "0x1cf3b03a6cf19fa2baba4df148e9dcabedea7f8a5c07840e207e5c089be95d3e",
            "0x0000000000000000000000005a6d3abbf62d275440d57bb11f281541a96f9dac"
          ],
          "data": "0x",
          "blockHash": "0xce6ef2ba463ae4191182e7d023f5baec69bad10eae3388d31c44f3c0378fd6c4",
          "blockNumber": "0xf20638",
          "transactionHash": "0x1d32e2f75da1f5dbf369099dd0766620696d481ba5f7b3d447def196b6a7e678",
          "transactionIndex": "0x1",
          "logIndex": "0x1",
          "removed": false
        },
        {
          "address": "0xfcd9c33115646eadbc31495cb7d0c6a5d12cd541",
          "topics": [
            "0x8be0079c531659141344cd1fd0a4f28419497f9722a3daafe3b4186f6b6457e0",
            "0x0000000000000000000000000000000000000000000000000000000000000000",
            "0x000000000000000000000000efbbd14082cf2fbcf5badc7ee619f0f4e36d0a5b"
          ],
          "data": "0x",
          "blockHash": "0xce6ef2ba463ae4191182e7d023f5baec69bad10eae3388d31c44f3c0378fd6c4",
          "blockNumber": "0xf20638",
          "transactionHash": "0x1d32e2f75da1f5dbf369099dd0766620696d481ba5f7b3d447def196b6a7e678",
          "transactionIndex": "0x1",
          "logIndex": "0x2",
          "removed": false
        },
        {
          "address": "0xfcd9c33115646eadbc31495cb7d0c6a5d12cd541",
          "topics": [
            "0xc7f505b2f371ae2175ee4913f4499e1f2633a7b5936321eed1cdaeb6115181d2"
          ],
          "data": "0x0000000000000000000000000000000000000000000000000000000000000001",
          "blockHash": "0xce6ef2ba463ae4191182e7d023f5baec69bad10eae3388d31c44f3c0378fd6c4",
          "blockNumber": "0xf20638",
          "transactionHash": "0x1d32e2f75da1f5dbf369099dd0766620696d481ba5f7b3d447def196b6a7e678",
          "transactionIndex": "0x1",
          "logIndex": "0x3",
          "removed": false
        },
        {
          "address": "0x5a6d3abbf62d275440d57bb11f281541a96f9dac",
          "topics": [
            "0x4a7bba0e1c21f3684678b259c49028d8cca5e0c5a2b43eba286ada7d196c8bfb",
            "0x000000000000000000000000fcd9c33115646eadbc31495cb7d0c6a5d12cd541"
          ],
          "data": "0x0000000000000000000000000000000000000000000000000000000000000020000000000000000000000000000000000000000000000000000000000000001e68747470733a2f2f677561726469616e2e776174636869742e6d6f7669650000",
          "blockHash": "0xce6ef2ba463ae4191182e7d023f5baec69bad10eae3388d31c44f3c0378fd6c4",
          "blockNumber": "0xf20638",
          "transactionHash": "0x1d32e2f75da1f5dbf369099dd0766620696d481ba5f7b3d447def196b6a7e678",
          "transactionIndex": "0x1",
          "logIndex": "0x4",
          "removed": false
        },
        {
          "address": "0x0000000000000000000000000000000000001010",
          "topics": [
            "0x4dfe1bbbcf077ddc3e01291eea2d5c70c2b422b415d95645b9adcfd678cb1d63",
            "0x0000000000000000000000000000000000000000000000000000000000001010",
            "0x000000000000000000000000efbbd14082cf2fbcf5badc7ee619f0f4e36d0a5b",
            "0x00000000000000000000000009207a6efee346cb3e4a54ac18523e3715d38b3f"
          ],
          "data": "0x0000000000000000000000000000000000000000000000000017e70ebfeec600000000000000000000000000000000000000000000000000e6635977b51dac7400000000000000000000000000000000000000000000044330f336ad48fcd58f000000000000000000000000000000000000000000000000e64b7268f52ee674000000000000000000000000000000000000000000000443310b1dbc08eb9b8f",
          "blockHash": "0xce6ef2ba463ae4191182e7d023f5baec69bad10eae3388d31c44f3c0378fd6c4",
          "blockNumber": "0xf20638",
          "transactionHash": "0x1d32e2f75da1f5dbf369099dd0766620696d481ba5f7b3d447def196b6a7e678",
          "transactionIndex": "0x1",
          "logIndex": "0x5",
          "removed": false
        }
      ],
      "logsBloom": "0x00000420000000000000000400000000000000000000000000800000000000000000000000400000000000000000000000008000000000040100010000000000008000080000000000000000001000800001000000000000010100000000000000000000020000000100000000000800000000000000000080000000000000400800000000000000000800000000080000004000400080000000200000000000200000000000000000000000000000000000400000000000000000000000004000800000000000000001000000000004000000008004000000900000000020000000000000000000020000010000000000000000000000000000000000100000",
      "type": "0x2",
      "transactionHash": "0x1d32e2f75da1f5dbf369099dd0766620696d481ba5f7b3d447def196b6a7e678",
      "transactionIndex": "0x1",
      "blockHash": "0xce6ef2ba463ae4191182e7d023f5baec69bad10eae3388d31c44f3c0378fd6c4",
      "blockNumber": "0xf20638",
      "gasUsed": "0x41b3f",
      "effectiveGasPrice": "0x5d21dba0f",
      "from": "0xefbbd14082cf2fbcf5badc7ee619f0f4e36d0a5b",
      "to": "0x5a6d3abbf62d275440d57bb11f281541a96f9dac",
      "contractAddress": null
    },
    {
      "status": "0x1",
      "cumulativeGasUsed": "0x6ed12",
      "logs": [
        {
          "address": "0x3c7deb6feaeb7a82bde580fb73d8d69c401b219e",
          "topics": [
            "0x8c5be1e5ebec7d5bd14f71427d1e84f3dd0314c0f7b2291e5b200ac8c7c3b925",
            "0x000000000000000000000000efbbd14082cf2fbcf5badc7ee619f0f4e36d0a5b",
            "0x00000000000000000000000066612fb73c5df6273f79bfc1f03382399e8b9ec6"
          ],
          "data": "0x0000000000000000000000000000000000000000000000056bc75e2d63100000",
          "blockHash": "0xce6ef2ba463ae4191182e7d023f5baec69bad10eae3388d31c44f3c0378fd6c4",
          "blockNumber": "0xf20638",
          "transactionHash": "0xb3a1a17ae1dae97d26dc16210768d1b3755eea80d8ed7d6174d7b1609cb12ccc",
          "transactionIndex": "0x2",
          "logIndex": "0x6",
          "removed": false
        },
        {
          "address": "0x0000000000000000000000000000000000001010",
          "topics": [
            "0x4dfe1bbbcf077ddc3e01291eea2d5c70c2b422b415d95645b9adcfd678cb1d63",
            "0x0000000000000000000000000000000000000000000000000000000000001010",
            "0x000000000000000000000000efbbd14082cf2fbcf5badc7ee619f0f4e36d0a5b",
            "0x00000000000000000000000009207a6efee346cb3e4a54ac18523e3715d38b3f"
          ],
          "data": "0x0000000000000000000000000000000000000000000000000004162b44c4de00000000000000000000000000000000000000000000000000e64b7268f4f14dc3000000000000000000000000000000000000000000000443310b1dbc08eb9b8f000000000000000000000000000000000000000000000000e6475c3db02c6fc3000000000000000000000000000000000000000000000443310f33e74db0798f",
          "blockHash": "0xce6ef2ba463ae4191182e7d023f5baec69bad10eae3388d31c44f3c0378fd6c4",
          "blockNumber": "0xf20638",
          "transactionHash": "0xb3a1a17ae1dae97d26dc16210768d1b3755eea80d8ed7d6174d7b1609cb12ccc",
          "transactionIndex": "0x2",
          "logIndex": "0x7",
          "removed": false
        }
      ],
      "logsBloom": "0x00000000000000000000000000000000000000000000000000000000000000001002000000000000000000000000000000008000000000000000010000200000008000000000000000000000000000800000000000000010000100000000000000000000000000000000000000000000040020000000000080000000000000000800000000000000000000000000000000004000000000000000000000000000220000000000000000000000000000000000400000000000020000000000004000000000000000000001000000000000000000000000000000100000000000000010000000000000000000010000000000000000000000000000000000100000",
      "type": "0x2",
      "transactionHash": "0xb3a1a17ae1dae97d26dc16210768d1b3755eea80d8ed7d6174d7b1609cb12ccc",
      "transactionIndex": "0x2",
      "blockHash": "0xce6ef2ba463ae4191182e7d023f5baec69bad10eae3388d31c44f3c0378fd6c4",
      "blockNumber": "0xf20638",
      "gasUsed": "0xb3bb",
      "effectiveGasPrice": "0x5d21dba0f",
      "from": "0xefbbd14082cf2fbcf5badc7ee619f0f4e36d0a5b",
      "to": "0x3c7deb6feaeb7a82bde580fb73d8d69c401b219e",
      "contractAddress": null
    },
    {
      "status": "0x1",
      "cumulativeGasUsed": "0x84fa3",
      "logs": [
        {
          "address": "0x3c7deb6feaeb7a82bde580fb73d8d69c401b219e",
          "topics": [
            "0xddf252ad1be2c89b69c2b068fc378daa952ba7f163c4a11628f55a4df523b3ef",
            "0x000000000000000000000000efbbd14082cf2fbcf5badc7ee619f0f4e36d0a5b",
            "0x00000000000000000000000066612fb73c5df6273f79bfc1f03382399e8b9ec6"
          ],
          "data": "0x0000000000000000000000000000000000000000000000056bc75e2d63100000",
          "blockHash": "0xce6ef2ba463ae4191182e7d023f5baec69bad10eae3388d31c44f3c0378fd6c4",
          "blockNumber": "0xf20638",
          "transactionHash": "0xe445ec58374c4bf0a21e9bb889e66bee5264e9189b41847767788b9466a5fae4",
          "transactionIndex": "0x3",
          "logIndex": "0x8",
          "removed": false
        },
        {
          "address": "0x66612fb73c5df6273f79bfc1f03382399e8b9ec6",
          "topics": [
            "0xdf4dcf17030d087ed1d90ed3c90719c7260706c1c4a88505dd2d0a982887cf43",
            "0x000000000000000000000000efbbd14082cf2fbcf5badc7ee619f0f4e36d0a5b"
          ],
          "data": "0x0000000000000000000000000000000000000000000000056bc75e2d631000000000000000000000000000003c7deb6feaeb7a82bde580fb73d8d69c401b219e",
          "blockHash": "0xce6ef2ba463ae4191182e7d023f5baec69bad10eae3388d31c44f3c0378fd6c4",
          "blockNumber": "0xf20638",
          "transactionHash": "0xe445ec58374c4bf0a21e9bb889e66bee5264e9189b41847767788b9466a5fae4",
          "transactionIndex": "0x3",
          "logIndex": "0x9",
          "removed": false
        },
        {
          "address": "0x0000000000000000000000000000000000001010",
          "topics": [
            "0x4dfe1bbbcf077ddc3e01291eea2d5c70c2b422b415d95645b9adcfd678cb1d63",
            "0x0000000000000000000000000000000000000000000000000000000000001010",
            "0x000000000000000000000000efbbd14082cf2fbcf5badc7ee619f0f4e36d0a5b",
            "0x00000000000000000000000009207a6efee346cb3e4a54ac18523e3715d38b3f"
          ],
          "data": "0x00000000000000000000000000000000000000000000000000080fd91e0a5a00000000000000000000000000000000000000000000000000e6475c3db021e7ce000000000000000000000000000000000000000000000443310f33e74db0798f000000000000000000000000000000000000000000000000e63f4c6492178dce000000000000000000000000000000000000000000000443311743c06bbad38f",
          "blockHash": "0xce6ef2ba463ae4191182e7d023f5baec69bad10eae3388d31c44f3c0378fd6c4",
          "blockNumber": "0xf20638",
          "transactionHash": "0xe445ec58374c4bf0a21e9bb889e66bee5264e9189b41847767788b9466a5fae4",
          "transactionIndex": "0x3",
          "logIndex": "0xa",
          "removed": false
        }
      ],
      "logsBloom": "0x0004000000000000200000000000000000000000000000000000000000000000100200000000000000000000000000000000800000000000000001000000000020800000000000000000000800000080000000000000001000010000000000000000000000000000000000000000000004002004000000008000001000000000080000000000000000000000000000000000c000000000000000000000000000200000000000000000800000000000000000400000000000020000000000004000000002000000000001000000000000000000000000000000100000000000000000000000000000000000010000000000000000000000000000000000100000",
      "type": "0x2",
      "transactionHash": "0xe445ec58374c4bf0a21e9bb889e66bee5264e9189b41847767788b9466a5fae4",
      "transactionIndex": "0x3",
      "blockHash": "0xce6ef2ba463ae4191182e7d023f5baec69bad10eae3388d31c44f3c0378fd6c4",
      "blockNumber": "0xf20638",
      "gasUsed": "0x16291",
      "effectiveGasPrice": "0x5d21dba0f",
      "from": "0xefbbd14082cf2fbcf5badc7ee619f0f4e36d0a5b",
      "to": "0x66612fb73c5df6273f79bfc1f03382399e8b9ec6",
      "contractAddress": null
    },
    {
      "status": "0x1",
      "cumulativeGasUsed": "0xb2671",
      "logs": [
        {
          "address": "0x66612fb73c5df6273f79bfc1f03382399e8b9ec6",
          "topics": [
            "0xa372d74f11f208f0466eb410f699d101da6ccbe3717f711988fb355eac737f62",
            "0x000000000000000000000000efbbd14082cf2fbcf5badc7ee619f0f4e36d0a5b",
            "0x0000000000000000000000003c7deb6feaeb7a82bde580fb73d8d69c401b219e"
          ],
          "data": "0x0000000000000000000000000000000000000000000000056bc75e2d63100000",
          "blockHash": "0xce6ef2ba463ae4191182e7d023f5baec69bad10eae3388d31c44f3c0378fd6c4",
          "blockNumber": "0xf20638",
          "transactionHash": "0x090b579dc23c6f20a5d46c2c878d4edcc25632ecd941253ccbe96d74bcc0d056",
          "transactionIndex": "0x4",
          "logIndex": "0xb",
          "removed": false
        },
        {
          "address": "0x66612fb73c5df6273f79bfc1f03382399e8b9ec6",
          "topics": [
            "0x07b798e47a298c7004dfddcb1196e6b8f9a6488dd1db7eeedbc8a4c3f4831563",
            "0x00000000000000000000000017c5b7ddac9e5623c018c32d67632da85a9be95b",
            "0x0000000000000000000000003c7deb6feaeb7a82bde580fb73d8d69c401b219e"
          ],
          "data": "0x0000000000000000000000000000000000000000000000056bc75e2d63100000",
          "blockHash": "0xce6ef2ba463ae4191182e7d023f5baec69bad10eae3388d31c44f3c0378fd6c4",
          "blockNumber": "0xf20638",
          "transactionHash": "0x090b579dc23c6f20a5d46c2c878d4edcc25632ecd941253ccbe96d74bcc0d056",
          "transactionIndex": "0x4",
          "logIndex": "0xc",
          "removed": false
        },
        {
          "address": "0x3c7deb6feaeb7a82bde580fb73d8d69c401b219e",
          "topics": [
            "0xddf252ad1be2c89b69c2b068fc378daa952ba7f163c4a11628f55a4df523b3ef",
            "0x00000000000000000000000066612fb73c5df6273f79bfc1f03382399e8b9ec6",
            "0x00000000000000000000000017c5b7ddac9e5623c018c32d67632da85a9be95b"
          ],
          "data": "0x0000000000000000000000000000000000000000000000056bc75e2d63100000",
          "blockHash": "0xce6ef2ba463ae4191182e7d023f5baec69bad10eae3388d31c44f3c0378fd6c4",
          "blockNumber": "0xf20638",
          "transactionHash": "0x090b579dc23c6f20a5d46c2c878d4edcc25632ecd941253ccbe96d74bcc0d056",
          "transactionIndex": "0x4",
          "logIndex": "0xd",
          "removed": false
        },
        {
          "address": "0x66612fb73c5df6273f79bfc1f03382399e8b9ec6",
          "topics": [
            "0xe9171aeff46c37ab955b8aff908e14ae9732bd06634fa131226cfe5c25bfd2fb",
            "0x00000000000000000000000017c5b7ddac9e5623c018c32d67632da85a9be95b",
            "0x0000000000000000000000003c7deb6feaeb7a82bde580fb73d8d69c401b219e"
          ],
          "data": "0x0000000000000000000000000000000000000000000000056bc75e2d63100000",
          "blockHash": "0xce6ef2ba463ae4191182e7d023f5baec69bad10eae3388d31c44f3c0378fd6c4",
          "blockNumber": "0xf20638",
          "transactionHash": "0x090b579dc23c6f20a5d46c2c878d4edcc25632ecd941253ccbe96d74bcc0d056",
          "transactionIndex": "0x4",
          "logIndex": "0xe",
          "removed": false
        },
        {
          "address": "0x17c5b7ddac9e5623c018c32d67632da85a9be95b",
          "topics": [
            "0xcda33a906ffa8a5f960826827500581f4613a5db7a84b250433e0d591a630938",
            "0x000000000000000000000000fcd9c33115646eadbc31495cb7d0c6a5d12cd541"
          ],
          "data": "0x00000000000000000000000000000000000000000000000000000000676630990000000000000000000000000000000000000000000000056bc75e2d63100000",
          "blockHash": "0xce6ef2ba463ae4191182e7d023f5baec69bad10eae3388d31c44f3c0378fd6c4",
          "blockNumber": "0xf20638",
          "transactionHash": "0x090b579dc23c6f20a5d46c2c878d4edcc25632ecd941253ccbe96d74bcc0d056",
          "transactionIndex": "0x4",
          "logIndex": "0xf",
          "removed": false
        },
        {
          "address": "0x0000000000000000000000000000000000001010",
          "topics": [
            "0x4dfe1bbbcf077ddc3e01291eea2d5c70c2b422b415d95645b9adcfd678cb1d63",
            "0x0000000000000000000000000000000000000000000000000000000000001010",
            "0x000000000000000000000000efbbd14082cf2fbcf5badc7ee619f0f4e36d0a5b",
            "0x00000000000000000000000009207a6efee346cb3e4a54ac18523e3715d38b3f"
          ],
          "data": "0x0000000000000000000000000000000000000000000000000010868f6167ac00000000000000000000000000000000000000000000000000e63f4c649202c74f000000000000000000000000000000000000000000000443311743c06bbad38f000000000000000000000000000000000000000000000000e62ec5d5309b1b4f0000000000000000000000000000000000000000000004433127ca4fcd227f8f",
          "blockHash": "0xce6ef2ba463ae4191182e7d023f5baec69bad10eae3388d31c44f3c0378fd6c4",
          "blockNumber": "0xf20638",
          "transactionHash": "0x090b579dc23c6f20a5d46c2c878d4edcc25632ecd941253ccbe96d74bcc0d056",
          "transactionIndex": "0x4",
          "logIndex": "0x10",
          "removed": false
        }
      ],
      "logsBloom": "0x000404000000000000000000000000008000000000000000008000000000000010020000000000000000000200000000000080000000000000000100000000000080000000000000000000080000008000000000000000300001000000000000000010000000000000020000000002000c002000000100008000001000000400080000000000000000800000000000000000c000000000000000000000000000200000008000000001800000000000000000400000000000020000001000004000800002000000800011000000000000000000000000000000100000000000000000000040000000420000010000000000000000000000000000400000100000",
      "type": "0x2",
      "transactionHash": "0x090b579dc23c6f20a5d46c2c878d4edcc25632ecd941253ccbe96d74bcc0d056",
      "transactionIndex": "0x4",
      "blockHash": "0xce6ef2ba463ae4191182e7d023f5baec69bad10eae3388d31c44f3c0378fd6c4",
      "blockNumber": "0xf20638",
      "gasUsed": "0x2d6ce",
      "effectiveGasPrice": "0x5d21dba0f",
      "from": "0xefbbd14082cf2fbcf5badc7ee619f0f4e36d0a5b",
      "to": "0x17c5b7ddac9e5623c018c32d67632da85a9be95b",
      "contractAddress": null
    },
    {
      "status": "0x1",
      "cumulativeGasUsed": "0xc7f02",
      "logs": [
        {
          "address": "0x17c5b7ddac9e5623c018c32d67632da85a9be95b",
          "topics": [
            "0xf13bfe0b6ec5df39265dccb0a01a09aa4162489c7a083dc6670bde0255d02ca7",
            "0x000000000000000000000000fcd9c33115646eadbc31495cb7d0c6a5d12cd541"
          ],
          "data": "0x0000000000000000000000000000000000000000000000000000000067663099",
          "blockHash": "0xce6ef2ba463ae4191182e7d023f5baec69bad10eae3388d31c44f3c0378fd6c4",
          "blockNumber": "0xf20638",
          "transactionHash": "0x27f0452c79994031297e3b952e174ef4549d9d79e3bcbf1bcbbed9b91e5610ec",
          "transactionIndex": "0x5",
          "logIndex": "0x11",
          "removed": false
        },
        {
          "address": "0x0000000000000000000000000000000000001010",
          "topics": [
            "0x4dfe1bbbcf077ddc3e01291eea2d5c70c2b422b415d95645b9adcfd678cb1d63",
            "0x0000000000000000000000000000000000000000000000000000000000001010",
            "0x000000000000000000000000efbbd14082cf2fbcf5badc7ee619f0f4e36d0a5b",
            "0x00000000000000000000000009207a6efee346cb3e4a54ac18523e3715d38b3f"
          ],
          "data": "0x0000000000000000000000000000000000000000000000000007d5a3f4c65a00000000000000000000000000000000000000000000000000e62ec5d53070853d0000000000000000000000000000000000000000000004433127ca4fcd227f8f000000000000000000000000000000000000000000000000e626f0313baa2b3d000000000000000000000000000000000000000000000443312f9ff3c1e8d98f",
          "blockHash": "0xce6ef2ba463ae4191182e7d023f5baec69bad10eae3388d31c44f3c0378fd6c4",
          "blockNumber": "0xf20638",
          "transactionHash": "0x27f0452c79994031297e3b952e174ef4549d9d79e3bcbf1bcbbed9b91e5610ec",
          "transactionIndex": "0x5",
          "logIndex": "0x12",
          "removed": false
        }
      ],
      "logsBloom": "0x00000400000000000000000000000000000000000000000000000000000000000000000000000000000000000000000000008000000000000000010000000000008000000000000000000000000000800000000000000000000100000000000000000000000000000002000000000200000000000000000080000000000000000800000000000000000000000000000000004000000008000000000000000000200000008000000000000000000000000000400000000800000000000000004000800000000000000001000000000000000000000000000020100000000000000000000000000000020000010000000000000000000000000000000000100000",
      "type": "0x2",
      "transactionHash": "0x27f0452c79994031297e3b952e174ef4549d9d79e3bcbf1bcbbed9b91e5610ec",
      "transactionIndex": "0x5",
      "blockHash": "0xce6ef2ba463ae4191182e7d023f5baec69bad10eae3388d31c44f3c0378fd6c4",
      "blockNumber": "0xf20638",
      "gasUsed": "0x15891",
      "effectiveGasPrice": "0x5d21dba0f",
      "from": "0xefbbd14082cf2fbcf5badc7ee619f0f4e36d0a5b",
      "to": "0x17c5b7ddac9e5623c018c32d67632da85a9be95b",
      "contractAddress": null
    }
  ],
  "libraries": [],
  "pending": [],
  "returns": {},
  "timestamp": 1734750379,
  "chain": 80002,
  "commit": "66cd11d"
}