{
  "transactions": [
    {
      "hash": "0x0c26c7c1140447fddda438f4b2cee3975a8aa8c1f5dc56ddb15d8021b48ee0f3",
      "transactionType": "CALL",
      "contractName": null,
      "contractAddress": "0xc340f5543de2b6f38f514d997f5bc726fb4e7117",
      "function": "create(string)",
      "arguments": [
        "https://guardian.watchit.movie"
      ],
      "transaction": {
        "from": "0xefbbd14082cf2fbcf5badc7ee619f0f4e36d0a5b",
        "to": "0xc340f5543de2b6f38f514d997f5bc726fb4e7117",
        "gas": "0x5ac07",
        "value": "0x0",
        "input": "0xb6a46b3b0000000000000000000000000000000000000000000000000000000000000020000000000000000000000000000000000000000000000000000000000000001e68747470733a2f2f677561726469616e2e776174636869742e6d6f7669650000",
        "nonce": "0x66e",
        "chainId": "0x13882"
      },
      "additionalContracts": [
        {
          "transactionType": "CREATE",
          "address": "0x6f21e7adaf2444e174d4e8a5e1ad5c510202184a",
          "initCode": "0x60a08060405261050d80380380916100178285610292565b833981016040828203126101eb5761002e826102c9565b602083015190926001600160401b0382116101eb57019080601f830112156101eb57815161005b816102dd565b926100696040519485610292565b8184526020840192602083830101116101eb57815f926020809301855e84010152823b15610274577fa3f0ad74e5423aebfd80d3ef4346578335a9a72aeaee59ff6cb3582b35133d5080546001600160a01b0319166001600160a01b038516908117909155604051635c60da1b60e01b8152909190602081600481865afa9081156101f7575f9161023a575b50803b1561021a5750817f1cf3b03a6cf19fa2baba4df148e9dcabedea7f8a5c07840e207e5c089be95d3e5f80a282511561020257602060049260405193848092635c60da1b60e01b82525afa9182156101f7575f926101ae575b505f809161018a945190845af43d156101a6573d9161016e836102dd565b9261017c6040519485610292565b83523d5f602085013e6102f8565b505b6080526040516101b6908161035782396080518160460152f35b6060916102f8565b9291506020833d6020116101ef575b816101ca60209383610292565b810103126101eb575f80916101e161018a956102c9565b9394509150610150565b5f80fd5b3d91506101bd565b6040513d5f823e3d90fd5b505050341561018c5763b398979f60e01b5f5260045ffd5b634c9c8ce360e01b5f9081526001600160a01b0391909116600452602490fd5b90506020813d60201161026c575b8161025560209383610292565b810103126101eb57610266906102c9565b5f6100f5565b3d9150610248565b631933b43b60e21b5f9081526001600160a01b038416600452602490fd5b601f909101601f19168101906001600160401b038211908210176102b557604052565b634e487b7160e01b5f52604160045260245ffd5b51906001600160a01b03821682036101eb57565b6001600160401b0381116102b557601f01601f191660200190565b9061031c575080511561030d57805190602001fd5b63d6bda27560e01b5f5260045ffd5b8151158061034d575b61032d575090565b639996b31560e01b5f9081526001600160a01b0391909116600452602490fd5b50803b1561032556fe60806040527f5c60da1b000000000000000000000000000000000000000000000000000000006080526020608060048173ffffffffffffffffffffffffffffffffffffffff7f0000000000000000000000000000000000000000000000000000000000000000165afa8015610107575f9015610163575060203d602011610100575b7fffffffffffffffffffffffffffffffffffffffffffffffffffffffffffffffe0601f820116608001906080821067ffffffffffffffff8311176100d3576100ce91604052608001610112565b610163565b7f4e487b71000000000000000000000000000000000000000000000000000000005f52604160045260245ffd5b503d610081565b6040513d5f823e3d90fd5b7fffffffffffffffffffffffffffffffffffffffffffffffffffffffffffffff80602091011261015f5760805173ffffffffffffffffffffffffffffffffffffffff8116810361015f5790565b5f80fd5b5f8091368280378136915af43d5f803e1561017c573d5ff35b3d5ffdfea264697066735822122064427a31676ba3427858a99499cd34caa0223a53e5d14b45aaf09cce1cb3243c64736f6c634300081a0033000000000000000000000000c340f5543de2b6f38f514d997f5bc726fb4e7117000000000000000000000000000000000000000000000000000000000000004000000000000000000000000000000000000000000000000000000000000000847ab4339d0000000000000000000000000000000000000000000000000000000000000040000000000000000000000000efbbd14082cf2fbcf5badc7ee619f0f4e36d0a5b000000000000000000000000000000000000000000000000000000000000001e68747470733a2f2f677561726469616e2e776174636869742e6d6f766965000000000000000000000000000000000000000000000000000000000000"
        }
      ],
      "isFixedGasLimit": false
    },
    {
      "hash": "0x8151957e7de995ceb50554c95eca98ed214e548341d443b934e8da727ea5859b",
      "transactionType": "CALL",
      "contractName": null,
      "contractAddress": "0x9a0a455babac0143e7bf7001e9a22be0d919b643",
      "function": "approve(address,uint256)",
      "arguments": [
        "0x108976Dc7dC5B52597BDfeE15908232a298Be74D",
        "100000000000000000000"
      ],
      "transaction": {
        "from": "0xefbbd14082cf2fbcf5badc7ee619f0f4e36d0a5b",
        "to": "0x9a0a455babac0143e7bf7001e9a22be0d919b643",
        "gas": "0x106da",
        "value": "0x0",
        "input": "0x095ea7b3000000000000000000000000108976dc7dc5b52597bdfee15908232a298be74d0000000000000000000000000000000000000000000000056bc75e2d63100000",
        "nonce": "0x66f",
        "chainId": "0x13882"
      },
      "additionalContracts": [],
      "isFixedGasLimit": false
    },
    {
      "hash": "0x0cf6309fad17577cca291f47684425e9b1a6cf27c7caeb6d873ee30ce786a2e3",
      "transactionType": "CALL",
      "contractName": null,
      "contractAddress": "0x108976dc7dc5b52597bdfee15908232a298be74d",
      "function": "register(address,address)",
      "arguments": [
        "0x6f21E7adAF2444E174D4e8A5e1ad5C510202184a",
        "0x9A0A455BAbAC0143e7bF7001e9A22Be0d919B643"
      ],
      "transaction": {
        "from": "0xefbbd14082cf2fbcf5badc7ee619f0f4e36d0a5b",
        "to": "0x108976dc7dc5b52597bdfee15908232a298be74d",
        "gas": "0x3a9ee",
        "value": "0x0",
        "input": "0xaa6773540000000000000000000000006f21e7adaf2444e174d4e8a5e1ad5c510202184a0000000000000000000000009a0a455babac0143e7bf7001e9a22be0d919b643",
        "nonce": "0x670",
        "chainId": "0x13882"
      },
      "additionalContracts": [],
      "isFixedGasLimit": false
    },
    {
      "hash": "0x42801e4d799814b4b7bf48e11e1d0729ee6fe87e1a6c9c020693968eb4cc0592",
      "transactionType": "CALL",
      "contractName": null,
      "contractAddress": "0x108976dc7dc5b52597bdfee15908232a298be74d",
      "function": "approve(address)",
      "arguments": [
        "0x6f21E7adAF2444E174D4e8A5e1ad5C510202184a"
      ],
      "transaction": {
        "from": "0xefbbd14082cf2fbcf5badc7ee619f0f4e36d0a5b",
        "to": "0x108976dc7dc5b52597bdfee15908232a298be74d",
        "gas": "0x1f7ed",
        "value": "0x0",
        "input": "0xdaea85c50000000000000000000000006f21e7adaf2444e174d4e8a5e1ad5c510202184a",
        "nonce": "0x671",
        "chainId": "0x13882"
      },
      "additionalContracts": [],
      "isFixedGasLimit": false
    }
  ],
  "receipts": [
    {
      "status": "0x1",
      "cumulativeGasUsed": "0x5c379",
      "logs": [
        {
          "address": "0x6f21e7adaf2444e174d4e8a5e1ad5c510202184a",
          "topics": [
            "0x1cf3b03a6cf19fa2baba4df148e9dcabedea7f8a5c07840e207e5c089be95d3e",
            "0x000000000000000000000000c340f5543de2b6f38f514d997f5bc726fb4e7117"
          ],
          "data": "0x",
          "blockHash": "0x54d330c4167c06e049f7e4cebbbe14fb708c6050c708fd6e811087c024e96714",
          "blockNumber": "0xdfc259",
          "transactionHash": "0x0c26c7c1140447fddda438f4b2cee3975a8aa8c1f5dc56ddb15d8021b48ee0f3",
          "transactionIndex": "0x1",
          "logIndex": "0x3",
          "removed": false
        },
        {
          "address": "0x6f21e7adaf2444e174d4e8a5e1ad5c510202184a",
          "topics": [
            "0x8be0079c531659141344cd1fd0a4f28419497f9722a3daafe3b4186f6b6457e0",
            "0x0000000000000000000000000000000000000000000000000000000000000000",
            "0x000000000000000000000000efbbd14082cf2fbcf5badc7ee619f0f4e36d0a5b"
          ],
          "data": "0x",
          "blockHash": "0x54d330c4167c06e049f7e4cebbbe14fb708c6050c708fd6e811087c024e96714",
          "blockNumber": "0xdfc259",
          "transactionHash": "0x0c26c7c1140447fddda438f4b2cee3975a8aa8c1f5dc56ddb15d8021b48ee0f3",
          "transactionIndex": "0x1",
          "logIndex": "0x4",
          "removed": false
        },
        {
          "address": "0x6f21e7adaf2444e174d4e8a5e1ad5c510202184a",
          "topics": [
            "0xc7f505b2f371ae2175ee4913f4499e1f2633a7b5936321eed1cdaeb6115181d2"
          ],
          "data": "0x0000000000000000000000000000000000000000000000000000000000000001",
          "blockHash": "0x54d330c4167c06e049f7e4cebbbe14fb708c6050c708fd6e811087c024e96714",
          "blockNumber": "0xdfc259",
          "transactionHash": "0x0c26c7c1140447fddda438f4b2cee3975a8aa8c1f5dc56ddb15d8021b48ee0f3",
          "transactionIndex": "0x1",
          "logIndex": "0x5",
          "removed": false
        },
        {
          "address": "0xc340f5543de2b6f38f514d997f5bc726fb4e7117",
          "topics": [
            "0x4a7bba0e1c21f3684678b259c49028d8cca5e0c5a2b43eba286ada7d196c8bfb",
            "0x0000000000000000000000006f21e7adaf2444e174d4e8a5e1ad5c510202184a"
          ],
          "data": "0x0000000000000000000000000000000000000000000000000000000000000020000000000000000000000000000000000000000000000000000000000000001e68747470733a2f2f677561726469616e2e776174636869742e6d6f7669650000",
          "blockHash": "0x54d330c4167c06e049f7e4cebbbe14fb708c6050c708fd6e811087c024e96714",
          "blockNumber": "0xdfc259",
          "transactionHash": "0x0c26c7c1140447fddda438f4b2cee3975a8aa8c1f5dc56ddb15d8021b48ee0f3",
          "transactionIndex": "0x1",
          "logIndex": "0x6",
          "removed": false
        },
        {
          "address": "0x0000000000000000000000000000000000001010",
          "topics": [
            "0x4dfe1bbbcf077ddc3e01291eea2d5c70c2b422b415d95645b9adcfd678cb1d63",
            "0x0000000000000000000000000000000000000000000000000000000000001010",
            "0x000000000000000000000000efbbd14082cf2fbcf5badc7ee619f0f4e36d0a5b",
            "0x000000000000000000000000033aaded92ebfec6c818624f28a8e4b3c571ab6f"
          ],
          "data": "0x00000000000000000000000000000000000000000000000000264809b4d888400000000000000000000000000000000000000000000000004e6d71efd3fafd900000000000000000000000000000000000000000000000c01631a3314f40428e0000000000000000000000000000000000000000000000004e4729e61f2275500000000000000000000000000000000000000000000000c01657eb3b0418cace",
          "blockHash": "0x54d330c4167c06e049f7e4cebbbe14fb708c6050c708fd6e811087c024e96714",
          "blockNumber": "0xdfc259",
          "transactionHash": "0x0c26c7c1140447fddda438f4b2cee3975a8aa8c1f5dc56ddb15d8021b48ee0f3",
          "transactionIndex": "0x1",
          "logIndex": "0x7",
          "removed": false
        }
      ],
      "logsBloom": "0x00000000000000000000000400000000000000000000000000800000000000000000000000000000000000000000000000008000080000000000000000020200208000000000000080000000001000800001000000000000010100000000000000080000020000000000000000000800000000000000000080000100000000400800010000000000000808000000080000000000000080000000200000001000200000000010000000000000008000000000400000000000000000000000004000000000000000040001000000000000000000000004000000d00000000020000000000000000000000000000000000000000000000000000000000000180000",
      "type": "0x2",
      "transactionHash": "0x0c26c7c1140447fddda438f4b2cee3975a8aa8c1f5dc56ddb15d8021b48ee0f3",
      "transactionIndex": "0x1",
      "blockHash": "0x54d330c4167c06e049f7e4cebbbe14fb708c6050c708fd6e811087c024e96714",
      "blockNumber": "0xdfc259",
      "gasUsed": "0x41b3f",
      "effectiveGasPrice": "0x95282a7cf",
      "from": "0xefbbd14082cf2fbcf5badc7ee619f0f4e36d0a5b",
      "to": "0xc340f5543de2b6f38f514d997f5bc726fb4e7117",
      "contractAddress": null
    },
    {
      "status": "0x1",
      "cumulativeGasUsed": "0x67734",
      "logs": [
        {
          "address": "0x9a0a455babac0143e7bf7001e9a22be0d919b643",
          "topics": [
            "0x8c5be1e5ebec7d5bd14f71427d1e84f3dd0314c0f7b2291e5b200ac8c7c3b925",
            "0x000000000000000000000000efbbd14082cf2fbcf5badc7ee619f0f4e36d0a5b",
            "0x000000000000000000000000108976dc7dc5b52597bdfee15908232a298be74d"
          ],
          "data": "0x0000000000000000000000000000000000000000000000056bc75e2d63100000",
          "blockHash": "0x54d330c4167c06e049f7e4cebbbe14fb708c6050c708fd6e811087c024e96714",
          "blockNumber": "0xdfc259",
          "transactionHash": "0x8151957e7de995ceb50554c95eca98ed214e548341d443b934e8da727ea5859b",
          "transactionIndex": "0x2",
          "logIndex": "0x8",
          "removed": false
        },
        {
          "address": "0x0000000000000000000000000000000000001010",
          "topics": [
            "0x4dfe1bbbcf077ddc3e01291eea2d5c70c2b422b415d95645b9adcfd678cb1d63",
            "0x0000000000000000000000000000000000000000000000000000000000001010",
            "0x000000000000000000000000efbbd14082cf2fbcf5badc7ee619f0f4e36d0a5b",
            "0x000000000000000000000000033aaded92ebfec6c818624f28a8e4b3c571ab6f"
          ],
          "data": "0x00000000000000000000000000000000000000000000000000068b80a0bbc9400000000000000000000000000000000000000000000000004e4729e61ee4dc9f0000000000000000000000000000000000000000000000c01657eb3b0418cace0000000000000000000000000000000000000000000000004e409e657e29135f0000000000000000000000000000000000000000000000c0165e76bba4d4940e",
          "blockHash": "0x54d330c4167c06e049f7e4cebbbe14fb708c6050c708fd6e811087c024e96714",
          "blockNumber": "0xdfc259",
          "transactionHash": "0x8151957e7de995ceb50554c95eca98ed214e548341d443b934e8da727ea5859b",
          "transactionIndex": "0x2",
          "logIndex": "0x9",
          "removed": false
        }
      ],
      "logsBloom": "0x00000000000000000000000000000000000000000000000000000000000000000000000000000000000000000000000000008000000000000000000000200000008000000000000000000010000000800000000000000000000100000000000000080000000000000000000000000000000000000000000080000000000000000800010000000000000000000000000000000000000000000000000000400000220000000000000000000000000000000000400000000000000000000000004020000000000000000001000004000000000000000000000000500000000000000010000000000000000000000002000000000000000000000004000000100000",
      "type": "0x2",
      "transactionHash": "0x8151957e7de995ceb50554c95eca98ed214e548341d443b934e8da727ea5859b",
      "transactionIndex": "0x2",
      "blockHash": "0x54d330c4167c06e049f7e4cebbbe14fb708c6050c708fd6e811087c024e96714",
      "blockNumber": "0xdfc259",
      "gasUsed": "0xb3bb",
      "effectiveGasPrice": "0x95282a7cf",
      "from": "0xefbbd14082cf2fbcf5badc7ee619f0f4e36d0a5b",
      "to": "0x9a0a455babac0143e7bf7001e9a22be0d919b643",
      "contractAddress": null
    },
    {
      "status": "0x1",
      "cumulativeGasUsed": "0x8f886",
      "logs": [
        {
          "address": "0x9a0a455babac0143e7bf7001e9a22be0d919b643",
          "topics": [
            "0xddf252ad1be2c89b69c2b068fc378daa952ba7f163c4a11628f55a4df523b3ef",
            "0x000000000000000000000000efbbd14082cf2fbcf5badc7ee619f0f4e36d0a5b",
            "0x000000000000000000000000108976dc7dc5b52597bdfee15908232a298be74d"
          ],
          "data": "0x0000000000000000000000000000000000000000000000056bc75e2d63100000",
          "blockHash": "0x54d330c4167c06e049f7e4cebbbe14fb708c6050c708fd6e811087c024e96714",
          "blockNumber": "0xdfc259",
          "transactionHash": "0x0cf6309fad17577cca291f47684425e9b1a6cf27c7caeb6d873ee30ce786a2e3",
          "transactionIndex": "0x3",
          "logIndex": "0xa",
          "removed": false
        },
        {
          "address": "0x108976dc7dc5b52597bdfee15908232a298be74d",
          "topics": [
            "0xcda33a906ffa8a5f960826827500581f4613a5db7a84b250433e0d591a630938",
            "0x0000000000000000000000006f21e7adaf2444e174d4e8a5e1ad5c510202184a"
          ],
          "data": "0x00000000000000000000000000000000000000000000000000000000673e1b150000000000000000000000000000000000000000000000056bc75e2d63100000",
          "blockHash": "0x54d330c4167c06e049f7e4cebbbe14fb708c6050c708fd6e811087c024e96714",
          "blockNumber": "0xdfc259",
          "transactionHash": "0x0cf6309fad17577cca291f47684425e9b1a6cf27c7caeb6d873ee30ce786a2e3",
          "transactionIndex": "0x3",
          "logIndex": "0xb",
          "removed": false
        },
        {
          "address": "0x0000000000000000000000000000000000001010",
          "topics": [
            "0x4dfe1bbbcf077ddc3e01291eea2d5c70c2b422b415d95645b9adcfd678cb1d63",
            "0x0000000000000000000000000000000000000000000000000000000000001010",
            "0x000000000000000000000000efbbd14082cf2fbcf5badc7ee619f0f4e36d0a5b",
            "0x000000000000000000000000033aaded92ebfec6c818624f28a8e4b3c571ab6f"
          ],
          "data": "0x00000000000000000000000000000000000000000000000000175a9593e17b800000000000000000000000000000000000000000000000004e409e657e1e8b6a0000000000000000000000000000000000000000000000c0165e76bba4d4940e0000000000000000000000000000000000000000000000004e2943cfea3d0fea0000000000000000000000000000000000000000000000c01675d15138b60f8e",
          "blockHash": "0x54d330c4167c06e049f7e4cebbbe14fb708c6050c708fd6e811087c024e96714",
          "blockNumber": "0xdfc259",
          "transactionHash": "0x0cf6309fad17577cca291f47684425e9b1a6cf27c7caeb6d873ee30ce786a2e3",
          "transactionIndex": "0x3",
          "logIndex": "0xc",
          "removed": false
        }
      ],
      "logsBloom": "0x00000000000000000000000000000000000000000000000000000000000000000000000000000000000000000000000000008000080000000000000004000000008000000000000000000018000000800000000000000000000100000000000000080000000000000000000000000000000000000000000080000110000000000800010000000000000000000000000000000000000000020000000000400000200000000000000000000000000000020000400000000000000000000000004020000002000000040001000004000000000000000000000000500000000000000000000040000000400000000002000000000000000000000004000000100000",
      "type": "0x2",
      "transactionHash": "0x0cf6309fad17577cca291f47684425e9b1a6cf27c7caeb6d873ee30ce786a2e3",
      "transactionIndex": "0x3",
      "blockHash": "0x54d330c4167c06e049f7e4cebbbe14fb708c6050c708fd6e811087c024e96714",
      "blockNumber": "0xdfc259",
      "gasUsed": "0x28152",
      "effectiveGasPrice": "0x95282a7cf",
      "from": "0xefbbd14082cf2fbcf5badc7ee619f0f4e36d0a5b",
      "to": "0x108976dc7dc5b52597bdfee15908232a298be74d",
      "contractAddress": null
    },
    {
      "status": "0x1",
      "cumulativeGasUsed": "0xa5117",
      "logs": [
        {
          "address": "0x108976dc7dc5b52597bdfee15908232a298be74d",
          "topics": [
            "0xf13bfe0b6ec5df39265dccb0a01a09aa4162489c7a083dc6670bde0255d02ca7",
            "0x0000000000000000000000006f21e7adaf2444e174d4e8a5e1ad5c510202184a"
          ],
          "data": "0x00000000000000000000000000000000000000000000000000000000673e1b15",
          "blockHash": "0x54d330c4167c06e049f7e4cebbbe14fb708c6050c708fd6e811087c024e96714",
          "blockNumber": "0xdfc259",
          "transactionHash": "0x42801e4d799814b4b7bf48e11e1d0729ee6fe87e1a6c9c020693968eb4cc0592",
          "transactionIndex": "0x4",
          "logIndex": "0xd",
          "removed": false
        },
        {
          "address": "0x0000000000000000000000000000000000001010",
          "topics": [
            "0x4dfe1bbbcf077ddc3e01291eea2d5c70c2b422b415d95645b9adcfd678cb1d63",
            "0x0000000000000000000000000000000000000000000000000000000000001010",
            "0x000000000000000000000000efbbd14082cf2fbcf5badc7ee619f0f4e36d0a5b",
            "0x000000000000000000000000033aaded92ebfec6c818624f28a8e4b3c571ab6f"
          ],
          "data": "0x000000000000000000000000000000000000000000000000000c8c274d6b03c00000000000000000000000000000000000000000000000004e2943cfea177c1c0000000000000000000000000000000000000000000000c01675d15138b60f8e0000000000000000000000000000000000000000000000004e1cb7a89cac785c0000000000000000000000000000000000000000000000c016825d788621134e",
          "blockHash": "0x54d330c4167c06e049f7e4cebbbe14fb708c6050c708fd6e811087c024e96714",
          "blockNumber": "0xdfc259",
          "transactionHash": "0x42801e4d799814b4b7bf48e11e1d0729ee6fe87e1a6c9c020693968eb4cc0592",
          "transactionIndex": "0x4",
          "logIndex": "0xe",
          "removed": false
        }
      ],
      "logsBloom": "0x00000000000000000000000000000000000000000000000000000000000000000000000000000000000000000000000000008000080000000000000004000000008000000000000000000000000000800000000000000000000100000000000000080000000000000000000000000000000000000000000080000100000000000800010000000000000000000000000000000000000008020000000000000000200000000000000000000000000000020000400000000800000000000000004000000000000000040001000000000000000000000000000020500000000000000000000000000000000000000000000000000000000000000000000000100000",
      "type": "0x2",
      "transactionHash": "0x42801e4d799814b4b7bf48e11e1d0729ee6fe87e1a6c9c020693968eb4cc0592",
      "transactionIndex": "0x4",
      "blockHash": "0x54d330c4167c06e049f7e4cebbbe14fb708c6050c708fd6e811087c024e96714",
      "blockNumber": "0xdfc259",
      "gasUsed": "0x15891",
      "effectiveGasPrice": "0x95282a7cf",
      "from": "0xefbbd14082cf2fbcf5badc7ee619f0f4e36d0a5b",
      "to": "0x108976dc7dc5b52597bdfee15908232a298be74d",
      "contractAddress": null
    }
  ],
  "libraries": [],
  "pending": [],
  "returns": {},
  "timestamp": 1732123417,
  "chain": 80002,
  "commit": "acf7e0f"
}