{
  "transactions": [
    {
      "hash": "0x6071dd348d4d730da3854f38db026fc41075811c8ecf5ed77ee26712961232ad",
      "transactionType": "CALL",
      "contractName": null,
      "contractAddress": "0xb74f84122793ebdff93997941b6cda611a900e6f",
      "function": "create(string)",
      "arguments": [
        "https://guardian.watchit.movie"
      ],
      "transaction": {
        "from": "0xefbbd14082cf2fbcf5badc7ee619f0f4e36d0a5b",
        "to": "0xb74f84122793ebdff93997941b6cda611a900e6f",
        "gas": "0x5ac07",
        "value": "0x0",
        "input": "0xb6a46b3b0000000000000000000000000000000000000000000000000000000000000020000000000000000000000000000000000000000000000000000000000000001e68747470733a2f2f677561726469616e2e776174636869742e6d6f7669650000",
        "nonce": "0x607",
        "chainId": "0x13882"
      },
      "additionalContracts": [
        {
          "transactionType": "CREATE",
          "address": "0xe9dca14bad5c6f0b705ed4df7240b4b5f0937215",
          "initCode": "0x60a08060405261050d80380380916100178285610292565b833981016040828203126101eb5761002e826102c9565b602083015190926001600160401b0382116101eb57019080601f830112156101eb57815161005b816102dd565b926100696040519485610292565b8184526020840192602083830101116101eb57815f926020809301855e84010152823b15610274577fa3f0ad74e5423aebfd80d3ef4346578335a9a72aeaee59ff6cb3582b35133d5080546001600160a01b0319166001600160a01b038516908117909155604051635c60da1b60e01b8152909190602081600481865afa9081156101f7575f9161023a575b50803b1561021a5750817f1cf3b03a6cf19fa2baba4df148e9dcabedea7f8a5c07840e207e5c089be95d3e5f80a282511561020257602060049260405193848092635c60da1b60e01b82525afa9182156101f7575f926101ae575b505f809161018a945190845af43d156101a6573d9161016e836102dd565b9261017c6040519485610292565b83523d5f602085013e6102f8565b505b6080526040516101b6908161035782396080518160460152f35b6060916102f8565b9291506020833d6020116101ef575b816101ca60209383610292565b810103126101eb575f80916101e161018a956102c9565b9394509150610150565b5f80fd5b3d91506101bd565b6040513d5f823e3d90fd5b505050341561018c5763b398979f60e01b5f5260045ffd5b634c9c8ce360e01b5f9081526001600160a01b0391909116600452602490fd5b90506020813d60201161026c575b8161025560209383610292565b810103126101eb57610266906102c9565b5f6100f5565b3d9150610248565b631933b43b60e21b5f9081526001600160a01b038416600452602490fd5b601f909101601f19168101906001600160401b038211908210176102b557604052565b634e487b7160e01b5f52604160045260245ffd5b51906001600160a01b03821682036101eb57565b6001600160401b0381116102b557601f01601f191660200190565b9061031c575080511561030d57805190602001fd5b63d6bda27560e01b5f5260045ffd5b8151158061034d575b61032d575090565b639996b31560e01b5f9081526001600160a01b0391909116600452602490fd5b50803b1561032556fe60806040527f5c60da1b000000000000000000000000000000000000000000000000000000006080526020608060048173ffffffffffffffffffffffffffffffffffffffff7f0000000000000000000000000000000000000000000000000000000000000000165afa8015610107575f9015610163575060203d602011610100575b7fffffffffffffffffffffffffffffffffffffffffffffffffffffffffffffffe0601f820116608001906080821067ffffffffffffffff8311176100d3576100ce91604052608001610112565b610163565b7f4e487b71000000000000000000000000000000000000000000000000000000005f52604160045260245ffd5b503d610081565b6040513d5f823e3d90fd5b7fffffffffffffffffffffffffffffffffffffffffffffffffffffffffffffff80602091011261015f5760805173ffffffffffffffffffffffffffffffffffffffff8116810361015f5790565b5f80fd5b5f8091368280378136915af43d5f803e1561017c573d5ff35b3d5ffdfea26469706673582212208804cf59bdd18c3a0f888485dc336bd287dab018b52c45cd44e551ff35033d8d64736f6c634300081a0033000000000000000000000000b74f84122793ebdff93997941b6cda611a900e6f000000000000000000000000000000000000000000000000000000000000004000000000000000000000000000000000000000000000000000000000000000847ab4339d0000000000000000000000000000000000000000000000000000000000000040000000000000000000000000efbbd14082cf2fbcf5badc7ee619f0f4e36d0a5b000000000000000000000000000000000000000000000000000000000000001e68747470733a2f2f677561726469616e2e776174636869742e6d6f766965000000000000000000000000000000000000000000000000000000000000"
        }
      ],
      "isFixedGasLimit": false
    },
    {
      "hash": "0x7a1ee4212e1fa016fcafabb573592f9ce6ee7cbd434a651fe8783ce4d1e111e0",
      "transactionType": "CALL",
      "contractName": null,
      "contractAddress": "0x35629402d19345dfc8d5f2bdf8ac878f385a6957",
      "function": "approve(address,uint256)",
      "arguments": [
        "0xa9A164E0cDD678e7089B09630eB4E46E54Ff62a7",
        "100000000000000000000"
      ],
      "transaction": {
        "from": "0xefbbd14082cf2fbcf5badc7ee619f0f4e36d0a5b",
        "to": "0x35629402d19345dfc8d5f2bdf8ac878f385a6957",
        "gas": "0x106da",
        "value": "0x0",
        "input": "0x095ea7b3000000000000000000000000a9a164e0cdd678e7089b09630eb4e46e54ff62a70000000000000000000000000000000000000000000000056bc75e2d63100000",
        "nonce": "0x608",
        "chainId": "0x13882"
      },
      "additionalContracts": [],
      "isFixedGasLimit": false
    },
    {
      "hash": "0x1f0c89f30c75b9cd73a2dd201ab25e5479b380343a8dc944b4727df7fd8fd7e1",
      "transactionType": "CALL",
      "contractName": null,
      "contractAddress": "0xa9a164e0cdd678e7089b09630eb4e46e54ff62a7",
      "function": "register(address,address)",
      "arguments": [
        "0xe9dcA14bad5c6f0B705Ed4Df7240b4B5f0937215",
        "0x35629402D19345dFC8d5f2bDf8AC878f385a6957"
      ],
      "transaction": {
        "from": "0xefbbd14082cf2fbcf5badc7ee619f0f4e36d0a5b",
        "to": "0xa9a164e0cdd678e7089b09630eb4e46e54ff62a7",
        "gas": "0x3a9ee",
        "value": "0x0",
        "input": "0xaa677354000000000000000000000000e9dca14bad5c6f0b705ed4df7240b4b5f093721500000000000000000000000035629402d19345dfc8d5f2bdf8ac878f385a6957",
        "nonce": "0x609",
        "chainId": "0x13882"
      },
      "additionalContracts": [],
      "isFixedGasLimit": false
    },
    {
      "hash": "0x24daea1975b07450ab2870c814be3d0fae1d5e68d04bcbdb308fd3e5314a7d05",
      "transactionType": "CALL",
      "contractName": null,
      "contractAddress": "0xa9a164e0cdd678e7089b09630eb4e46e54ff62a7",
      "function": "approve(address)",
      "arguments": [
        "0xe9dcA14bad5c6f0B705Ed4Df7240b4B5f0937215"
      ],
      "transaction": {
        "from": "0xefbbd14082cf2fbcf5badc7ee619f0f4e36d0a5b",
        "to": "0xa9a164e0cdd678e7089b09630eb4e46e54ff62a7",
        "gas": "0x1f7ed",
        "value": "0x0",
        "input": "0xdaea85c5000000000000000000000000e9dca14bad5c6f0b705ed4df7240b4b5f0937215",
        "nonce": "0x60a",
        "chainId": "0x13882"
      },
      "additionalContracts": [],
      "isFixedGasLimit": false
    }
  ],
  "receipts": [
    {
      "status": "0x1",
      "cumulativeGasUsed": "0x1338bd",
      "logs": [
        {
          "address": "0xe9dca14bad5c6f0b705ed4df7240b4b5f0937215",
          "topics": [
            "0x1cf3b03a6cf19fa2baba4df148e9dcabedea7f8a5c07840e207e5c089be95d3e",
            "0x000000000000000000000000b74f84122793ebdff93997941b6cda611a900e6f"
          ],
          "data": "0x",
          "blockHash": "0x70b9168c433a12f57f67c305ca00f2d77a8094d4a4723e973e0b98b7f7376fc1",
          "blockNumber": "0xdcae50",
          "transactionHash": "0x6071dd348d4d730da3854f38db026fc41075811c8ecf5ed77ee26712961232ad",
          "transactionIndex": "0xc",
          "logIndex": "0x1b",
          "removed": false
        },
        {
          "address": "0xe9dca14bad5c6f0b705ed4df7240b4b5f0937215",
          "topics": [
            "0x8be0079c531659141344cd1fd0a4f28419497f9722a3daafe3b4186f6b6457e0",
            "0x0000000000000000000000000000000000000000000000000000000000000000",
            "0x000000000000000000000000efbbd14082cf2fbcf5badc7ee619f0f4e36d0a5b"
          ],
          "data": "0x",
          "blockHash": "0x70b9168c433a12f57f67c305ca00f2d77a8094d4a4723e973e0b98b7f7376fc1",
          "blockNumber": "0xdcae50",
          "transactionHash": "0x6071dd348d4d730da3854f38db026fc41075811c8ecf5ed77ee26712961232ad",
          "transactionIndex": "0xc",
          "logIndex": "0x1c",
          "removed": false
        },
        {
          "address": "0xe9dca14bad5c6f0b705ed4df7240b4b5f0937215",
          "topics": [
            "0xc7f505b2f371ae2175ee4913f4499e1f2633a7b5936321eed1cdaeb6115181d2"
          ],
          "data": "0x0000000000000000000000000000000000000000000000000000000000000001",
          "blockHash": "0x70b9168c433a12f57f67c305ca00f2d77a8094d4a4723e973e0b98b7f7376fc1",
          "blockNumber": "0xdcae50",
          "transactionHash": "0x6071dd348d4d730da3854f38db026fc41075811c8ecf5ed77ee26712961232ad",
          "transactionIndex": "0xc",
          "logIndex": "0x1d",
          "removed": false
        },
        {
          "address": "0xb74f84122793ebdff93997941b6cda611a900e6f",
          "topics": [
            "0x4a7bba0e1c21f3684678b259c49028d8cca5e0c5a2b43eba286ada7d196c8bfb",
            "0x000000000000000000000000e9dca14bad5c6f0b705ed4df7240b4b5f0937215"
          ],
          "data": "0x0000000000000000000000000000000000000000000000000000000000000020000000000000000000000000000000000000000000000000000000000000001e68747470733a2f2f677561726469616e2e776174636869742e6d6f7669650000",
          "blockHash": "0x70b9168c433a12f57f67c305ca00f2d77a8094d4a4723e973e0b98b7f7376fc1",
          "blockNumber": "0xdcae50",
          "transactionHash": "0x6071dd348d4d730da3854f38db026fc41075811c8ecf5ed77ee26712961232ad",
          "transactionIndex": "0xc",
          "logIndex": "0x1e",
          "removed": false
        },
        {
          "address": "0x0000000000000000000000000000000000001010",
          "topics": [
            "0x4dfe1bbbcf077ddc3e01291eea2d5c70c2b422b415d95645b9adcfd678cb1d63",
            "0x0000000000000000000000000000000000000000000000000000000000001010",
            "0x000000000000000000000000efbbd14082cf2fbcf5badc7ee619f0f4e36d0a5b",
            "0x0000000000000000000000004631753190f2f5a15a7ba172bbac102b7d95fa22"
          ],
          "data": "0x000000000000000000000000000000000000000000000000005517d8591ead4f0000000000000000000000000000000000000000000000000a210af27e5d277e000000000000000000000000000000000000000000000300e0eacd85bebb5e1200000000000000000000000000000000000000000000000009cbf31a253e7a2f000000000000000000000000000000000000000000000300e13fe55e17da0b61",
          "blockHash": "0x70b9168c433a12f57f67c305ca00f2d77a8094d4a4723e973e0b98b7f7376fc1",
          "blockNumber": "0xdcae50",
          "transactionHash": "0x6071dd348d4d730da3854f38db026fc41075811c8ecf5ed77ee26712961232ad",
          "transactionIndex": "0xc",
          "logIndex": "0x1f",
          "removed": false
        }
      ],
      "logsBloom": "0x00000000010000000000000400000000000000002000000000800000000000000000000000000000000020000000000000008000000000000000000040000000008000008000000000000000001000800001000000000000010100000040000000000000020000100000000000000800000000002000000080000000000000400800000000000000001800000000080000000000000080000000a00000000000200000000000000000000000004010000000400000000000000000000000004000000000008000000001000000000000000000000004000000900000000020000000000010000000000000000000000000000000000000000000000000100004",
      "type": "0x2",
      "transactionHash": "0x6071dd348d4d730da3854f38db026fc41075811c8ecf5ed77ee26712961232ad",
      "transactionIndex": "0xc",
      "blockHash": "0x70b9168c433a12f57f67c305ca00f2d77a8094d4a4723e973e0b98b7f7376fc1",
      "blockNumber": "0xdcae50",
      "gasUsed": "0x41b3f",
      "effectiveGasPrice": "0x14b8d03a00",
      "from": "0xefbbd14082cf2fbcf5badc7ee619f0f4e36d0a5b",
      "to": "0xb74f84122793ebdff93997941b6cda611a900e6f",
      "contractAddress": null
    },
    {
      "status": "0x1",
      "cumulativeGasUsed": "0x352b1",
      "logs": [
        {
          "address": "0x35629402d19345dfc8d5f2bdf8ac878f385a6957",
          "topics": [
            "0x8c5be1e5ebec7d5bd14f71427d1e84f3dd0314c0f7b2291e5b200ac8c7c3b925",
            "0x000000000000000000000000efbbd14082cf2fbcf5badc7ee619f0f4e36d0a5b",
            "0x000000000000000000000000a9a164e0cdd678e7089b09630eb4e46e54ff62a7"
          ],
          "data": "0x0000000000000000000000000000000000000000000000056bc75e2d63100000",
          "blockHash": "0xdc0047ab0cea26ada7f5464e5341a6bdb4d28bc5e3f47c3b21fb0ad30e16eee4",
          "blockNumber": "0xdcae52",
          "transactionHash": "0x7a1ee4212e1fa016fcafabb573592f9ce6ee7cbd434a651fe8783ce4d1e111e0",
          "transactionIndex": "0x2",
          "logIndex": "0x4",
          "removed": false
        },
        {
          "address": "0x0000000000000000000000000000000000001010",
          "topics": [
            "0x4dfe1bbbcf077ddc3e01291eea2d5c70c2b422b415d95645b9adcfd678cb1d63",
            "0x0000000000000000000000000000000000000000000000000000000000001010",
            "0x000000000000000000000000efbbd14082cf2fbcf5badc7ee619f0f4e36d0a5b",
            "0x0000000000000000000000004631753190f2f5a15a7ba172bbac102b7d95fa22"
          ],
          "data": "0x000000000000000000000000000000000000000000000000000e8c5c989dd60b00000000000000000000000000000000000000000000000009cbf31a2500e17e000000000000000000000000000000000000000000000300e2777904f5d7f48b00000000000000000000000000000000000000000000000009bd66bd8c630b73000000000000000000000000000000000000000000000300e28605618e75ca96",
          "blockHash": "0xdc0047ab0cea26ada7f5464e5341a6bdb4d28bc5e3f47c3b21fb0ad30e16eee4",
          "blockNumber": "0xdcae52",
          "transactionHash": "0x7a1ee4212e1fa016fcafabb573592f9ce6ee7cbd434a651fe8783ce4d1e111e0",
          "transactionIndex": "0x2",
          "logIndex": "0x5",
          "removed": false
        }
      ],
      "logsBloom": "0x00000000000000000000000000000000000000002000000000000000000000000000000000000000000000000000000000008000000000000000000040200000008000000000000000008000000000800001000000000000000100000000000000000000000000100000000000000000000000000000000080000000000000000800000000000000000000000000000000000000000000000000000000001000220000000000200000040000000000000000400000000000000000000000004000000000000000000001000000000000000000000000000000110000000000000010000000000000000000000000000000000000000000000000000000100000",
      "type": "0x2",
      "transactionHash": "0x7a1ee4212e1fa016fcafabb573592f9ce6ee7cbd434a651fe8783ce4d1e111e0",
      "transactionIndex": "0x2",
      "blockHash": "0xdc0047ab0cea26ada7f5464e5341a6bdb4d28bc5e3f47c3b21fb0ad30e16eee4",
      "blockNumber": "0xdcae52",
      "gasUsed": "0xb3bb",
      "effectiveGasPrice": "0x14b8d03a00",
      "from": "0xefbbd14082cf2fbcf5badc7ee619f0f4e36d0a5b",
      "to": "0x35629402d19345dfc8d5f2bdf8ac878f385a6957",
      "contractAddress": null
    },
    {
      "status": "0x1",
      "cumulativeGasUsed": "0x855d9",
      "logs": [
        {
          "address": "0x35629402d19345dfc8d5f2bdf8ac878f385a6957",
          "topics": [
            "0xddf252ad1be2c89b69c2b068fc378daa952ba7f163c4a11628f55a4df523b3ef",
            "0x000000000000000000000000efbbd14082cf2fbcf5badc7ee619f0f4e36d0a5b",
            "0x000000000000000000000000a9a164e0cdd678e7089b09630eb4e46e54ff62a7"
          ],
          "data": "0x0000000000000000000000000000000000000000000000056bc75e2d63100000",
          "blockHash": "0x362484da0aa924663ae1032f467cbf01602929152f0860fb8191caa936cff632",
          "blockNumber": "0xdcae54",
          "transactionHash": "0x1f0c89f30c75b9cd73a2dd201ab25e5479b380343a8dc944b4727df7fd8fd7e1",
          "transactionIndex": "0x1",
          "logIndex": "0x8",
          "removed": false
        },
        {
          "address": "0xa9a164e0cdd678e7089b09630eb4e46e54ff62a7",
          "topics": [
            "0xcda33a906ffa8a5f960826827500581f4613a5db7a84b250433e0d591a630938",
            "0x000000000000000000000000e9dca14bad5c6f0b705ed4df7240b4b5f0937215"
          ],
          "data": "0x00000000000000000000000000000000000000000000000000000000673771480000000000000000000000000000000000000000000000056bc75e2d63100000",
          "blockHash": "0x362484da0aa924663ae1032f467cbf01602929152f0860fb8191caa936cff632",
          "blockNumber": "0xdcae54",
          "transactionHash": "0x1f0c89f30c75b9cd73a2dd201ab25e5479b380343a8dc944b4727df7fd8fd7e1",
          "transactionIndex": "0x1",
          "logIndex": "0x9",
          "removed": false
        },
        {
          "address": "0x0000000000000000000000000000000000001010",
          "topics": [
            "0x4dfe1bbbcf077ddc3e01291eea2d5c70c2b422b415d95645b9adcfd678cb1d63",
            "0x0000000000000000000000000000000000000000000000000000000000001010",
            "0x000000000000000000000000efbbd14082cf2fbcf5badc7ee619f0f4e36d0a5b",
            "0x0000000000000000000000004631753190f2f5a15a7ba172bbac102b7d95fa22"
          ],
          "data": "0x0000000000000000000000000000000000000000000000000033e96493c7003200000000000000000000000000000000000000000000000009bd66bd8c58837e000000000000000000000000000000000000000000000300e31f18a44cffe6d500000000000000000000000000000000000000000000000009897d58f891834c000000000000000000000000000000000000000000000300e3530208e0c6e707",
          "blockHash": "0x362484da0aa924663ae1032f467cbf01602929152f0860fb8191caa936cff632",
          "blockNumber": "0xdcae54",
          "transactionHash": "0x1f0c89f30c75b9cd73a2dd201ab25e5479b380343a8dc944b4727df7fd8fd7e1",
          "transactionIndex": "0x1",
          "logIndex": "0xa",
          "removed": false
        }
      ],
      "logsBloom": "0x00000000010000000000000000000000000000002000000000000000000000000000000000000000000000000000080000008000000000000000000040000000008000000000000000008008000000800001000000000000000100000040000000000000000000100000000000000000000000002000000080000010000000000800000000000000000000000000000000000000000000000000000000001000200000000000200000040000000000000000400000000000000000000000004000000002000000000001000000000000000000000004000000110000000000000000000040000000400040000000000000000000000000000000000000100000",
      "type": "0x2",
      "transactionHash": "0x1f0c89f30c75b9cd73a2dd201ab25e5479b380343a8dc944b4727df7fd8fd7e1",
      "transactionIndex": "0x1",
      "blockHash": "0x362484da0aa924663ae1032f467cbf01602929152f0860fb8191caa936cff632",
      "blockNumber": "0xdcae54",
      "gasUsed": "0x28152",
      "effectiveGasPrice": "0x14b8d03a00",
      "from": "0xefbbd14082cf2fbcf5badc7ee619f0f4e36d0a5b",
      "to": "0xa9a164e0cdd678e7089b09630eb4e46e54ff62a7",
      "contractAddress": null
    },
    {
      "status": "0x1",
      "cumulativeGasUsed": "0x548d5",
      "logs": [
        {
          "address": "0xa9a164e0cdd678e7089b09630eb4e46e54ff62a7",
          "topics": [
            "0xf13bfe0b6ec5df39265dccb0a01a09aa4162489c7a083dc6670bde0255d02ca7",
            "0x000000000000000000000000e9dca14bad5c6f0b705ed4df7240b4b5f0937215"
          ],
          "data": "0x000000000000000000000000000000000000000000000000000000006737714c",
          "blockHash": "0x0c4e2ba24a5a26e6da156b9693e5a2c5a268995637e8a2ca3e4fd57ffdc8c698",
          "blockNumber": "0xdcae56",
          "transactionHash": "0x24daea1975b07450ab2870c814be3d0fae1d5e68d04bcbdb308fd3e5314a7d05",
          "transactionIndex": "0x3",
          "logIndex": "0x8",
          "removed": false
        },
        {
          "address": "0x0000000000000000000000000000000000001010",
          "topics": [
            "0x4dfe1bbbcf077ddc3e01291eea2d5c70c2b422b415d95645b9adcfd678cb1d63",
            "0x0000000000000000000000000000000000000000000000000000000000001010",
            "0x000000000000000000000000efbbd14082cf2fbcf5badc7ee619f0f4e36d0a5b",
            "0x0000000000000000000000004631753190f2f5a15a7ba172bbac102b7d95fa22"
          ],
          "data": "0x000000000000000000000000000000000000000000000000001be4147bcca98100000000000000000000000000000000000000000000000009897d58f86bef7e000000000000000000000000000000000000000000000300e3ed2fd8b8ff35b7000000000000000000000000000000000000000000000000096d99447c9f45fd000000000000000000000000000000000000000000000300e40913ed34cbdf38",
          "blockHash": "0x0c4e2ba24a5a26e6da156b9693e5a2c5a268995637e8a2ca3e4fd57ffdc8c698",
          "blockNumber": "0xdcae56",
          "transactionHash": "0x24daea1975b07450ab2870c814be3d0fae1d5e68d04bcbdb308fd3e5314a7d05",
          "transactionIndex": "0x3",
          "logIndex": "0x9",
          "removed": false
        }
      ],
      "logsBloom": "0x00000000010000000000000000000000000000002000000000000000000000000000000000000000000000000000080000008000000000000000000040000000008000000000000000000000000000800000000000000000000100000040000000000000000000100000000000000000000000002000000080000000000000000800000000000000000000000000000000000000000008000000000000000000200000000000000000000000000000000000400000000800000000000000004000000000000000000001000000000000000000000004000020100000000000000000000000000000000040000000000000000000000000000000000000100000",
      "type": "0x2",
      "transactionHash": "0x24daea1975b07450ab2870c814be3d0fae1d5e68d04bcbdb308fd3e5314a7d05",
      "transactionIndex": "0x3",
      "blockHash": "0x0c4e2ba24a5a26e6da156b9693e5a2c5a268995637e8a2ca3e4fd57ffdc8c698",
      "blockNumber": "0xdcae56",
      "gasUsed": "0x15891",
      "effectiveGasPrice": "0x14b8d03a00",
      "from": "0xefbbd14082cf2fbcf5badc7ee619f0f4e36d0a5b",
      "to": "0xa9a164e0cdd678e7089b09630eb4e46e54ff62a7",
      "contractAddress": null
    }
  ],
  "libraries": [],
  "pending": [],
  "returns": {},
  "timestamp": 1731686735,
  "chain": 80002,
  "commit": "5d3485c"
}