{
  "transactions": [
    {
      "hash": "0x6fc4989c3abbc6a70dcb01caf92e4015dc095fb1f74fcd9fac86cfae4fc09afe",
      "transactionType": "CALL",
      "contractName": null,
      "contractAddress": "0xf0f23c3d5f27c73e624b1556a6cf5820ff4f11a4",
      "function": "create(string)",
      "arguments": [
        "https://g.watchit.movie"
      ],
      "transaction": {
        "from": "0xefbbd14082cf2fbcf5badc7ee619f0f4e36d0a5b",
        "to": "0xf0f23c3d5f27c73e624b1556a6cf5820ff4f11a4",
        "gas": "0x600f7",
        "value": "0x0",
        "input": "0xb6a46b3b0000000000000000000000000000000000000000000000000000000000000020000000000000000000000000000000000000000000000000000000000000001768747470733a2f2f672e776174636869742e6d6f766965000000000000000000",
        "nonce": "0x2a5",
        "chainId": "0x13882"
      },
      "additionalContracts": [
        {
          "transactionType": "CREATE",
          "address": "0xfe1d34dc97a2503f1df5cab979e58ccb3c51e93c",
          "initCode": "0x60a08060405261050d80380380916100178285610292565b833981016040828203126101eb5761002e826102c9565b602083015190926001600160401b0382116101eb57019080601f830112156101eb57815161005b816102dd565b926100696040519485610292565b8184526020840192602083830101116101eb57815f926020809301855e84010152823b15610274577fa3f0ad74e5423aebfd80d3ef4346578335a9a72aeaee59ff6cb3582b35133d5080546001600160a01b0319166001600160a01b038516908117909155604051635c60da1b60e01b8152909190602081600481865afa9081156101f7575f9161023a575b50803b1561021a5750817f1cf3b03a6cf19fa2baba4df148e9dcabedea7f8a5c07840e207e5c089be95d3e5f80a282511561020257602060049260405193848092635c60da1b60e01b82525afa9182156101f7575f926101ae575b505f809161018a945190845af43d156101a6573d9161016e836102dd565b9261017c6040519485610292565b83523d5f602085013e6102f8565b505b6080526040516101b6908161035782396080518160460152f35b6060916102f8565b9291506020833d6020116101ef575b816101ca60209383610292565b810103126101eb575f80916101e161018a956102c9565b9394509150610150565b5f80fd5b3d91506101bd565b6040513d5f823e3d90fd5b505050341561018c5763b398979f60e01b5f5260045ffd5b634c9c8ce360e01b5f9081526001600160a01b0391909116600452602490fd5b90506020813d60201161026c575b8161025560209383610292565b810103126101eb57610266906102c9565b5f6100f5565b3d9150610248565b631933b43b60e21b5f9081526001600160a01b038416600452602490fd5b601f909101601f19168101906001600160401b038211908210176102b557604052565b634e487b7160e01b5f52604160045260245ffd5b51906001600160a01b03821682036101eb57565b6001600160401b0381116102b557601f01601f191660200190565b9061031c575080511561030d57805190602001fd5b63d6bda27560e01b5f5260045ffd5b8151158061034d575b61032d575090565b639996b31560e01b5f9081526001600160a01b0391909116600452602490fd5b50803b1561032556fe60806040527f5c60da1b000000000000000000000000000000000000000000000000000000006080526020608060048173ffffffffffffffffffffffffffffffffffffffff7f0000000000000000000000000000000000000000000000000000000000000000165afa8015610107575f9015610163575060203d602011610100575b7fffffffffffffffffffffffffffffffffffffffffffffffffffffffffffffffe0601f820116608001906080821067ffffffffffffffff8311176100d3576100ce91604052608001610112565b610163565b7f4e487b71000000000000000000000000000000000000000000000000000000005f52604160045260245ffd5b503d610081565b6040513d5f823e3d90fd5b7fffffffffffffffffffffffffffffffffffffffffffffffffffffffffffffff80602091011261015f5760805173ffffffffffffffffffffffffffffffffffffffff8116810361015f5790565b5f80fd5b5f8091368280378136915af43d5f803e1561017c573d5ff35b3d5ffdfea26469706673582212208804cf59bdd18c3a0f888485dc336bd287dab018b52c45cd44e551ff35033d8d64736f6c634300081a0033000000000000000000000000f0f23c3d5f27c73e624b1556a6cf5820ff4f11a4000000000000000000000000000000000000000000000000000000000000004000000000000000000000000000000000000000000000000000000000000000847ab4339d0000000000000000000000000000000000000000000000000000000000000040000000000000000000000000efbbd14082cf2fbcf5badc7ee619f0f4e36d0a5b000000000000000000000000000000000000000000000000000000000000001768747470733a2f2f672e776174636869742e6d6f76696500000000000000000000000000000000000000000000000000000000000000000000000000"
        }
      ],
      "isFixedGasLimit": false
    },
    {
      "hash": "0xd1b44cd340822689e4b24dc071dcbe8633acaccbaad26da2e3558b42ca4c4931",
      "transactionType": "CALL",
      "contractName": null,
      "contractAddress": "0xdc2e7c4444730980ceb8982cfc8a1c4902fa36be",
      "function": "approve(address,uint256)",
      "arguments": [
        "0xC44654946a32a42Cd7fD6AFA02DD0F5857865830",
        "100000000000000000000"
      ],
      "transaction": {
        "from": "0xefbbd14082cf2fbcf5badc7ee619f0f4e36d0a5b",
        "to": "0xdc2e7c4444730980ceb8982cfc8a1c4902fa36be",
        "gas": "0x106da",
        "value": "0x0",
        "input": "0x095ea7b3000000000000000000000000c44654946a32a42cd7fd6afa02dd0f58578658300000000000000000000000000000000000000000000000056bc75e2d63100000",
        "nonce": "0x2a6",
        "chainId": "0x13882"
      },
      "additionalContracts": [],
      "isFixedGasLimit": false
    },
    {
      "hash": "0x8814f06187a3bde5d9b421ffdff2868885f19999bea56c0a1b257f521ba7e720",
      "transactionType": "CALL",
      "contractName": null,
      "contractAddress": "0xc44654946a32a42cd7fd6afa02dd0f5857865830",
      "function": "register(address,address)",
      "arguments": [
        "0xfE1D34dC97a2503F1dF5CAb979e58cCB3C51e93c",
        "0xdC2E7C4444730980CEB8982CfC8A1c4902fa36bE"
      ],
      "transaction": {
        "from": "0xefbbd14082cf2fbcf5badc7ee619f0f4e36d0a5b",
        "to": "0xc44654946a32a42cd7fd6afa02dd0f5857865830",
        "gas": "0x2e68c",
        "value": "0x0",
        "input": "0xaa677354000000000000000000000000fe1d34dc97a2503f1df5cab979e58ccb3c51e93c000000000000000000000000dc2e7c4444730980ceb8982cfc8a1c4902fa36be",
        "nonce": "0x2a7",
        "chainId": "0x13882"
      },
      "additionalContracts": [],
      "isFixedGasLimit": false
    },
    {
      "hash": "0x82bcf5e840423f7fd1ac3b06aa11cd1f0038d889c335824fb43ccfe2a28109f3",
      "transactionType": "CALL",
      "contractName": null,
      "contractAddress": "0xc44654946a32a42cd7fd6afa02dd0f5857865830",
      "function": "approve(address)",
      "arguments": [
        "0xfE1D34dC97a2503F1dF5CAb979e58cCB3C51e93c"
      ],
      "transaction": {
        "from": "0xefbbd14082cf2fbcf5badc7ee619f0f4e36d0a5b",
        "to": "0xc44654946a32a42cd7fd6afa02dd0f5857865830",
        "gas": "0x17faa",
        "value": "0x0",
        "input": "0xdaea85c5000000000000000000000000fe1d34dc97a2503f1df5cab979e58ccb3c51e93c",
        "nonce": "0x2a8",
        "chainId": "0x13882"
      },
      "additionalContracts": [],
      "isFixedGasLimit": false
    }
  ],
  "receipts": [
    {
      "status": "0x1",
      "cumulativeGasUsed": "0xd9105",
      "logs": [
        {
          "address": "0xfe1d34dc97a2503f1df5cab979e58ccb3c51e93c",
          "topics": [
            "0x1cf3b03a6cf19fa2baba4df148e9dcabedea7f8a5c07840e207e5c089be95d3e",
            "0x000000000000000000000000f0f23c3d5f27c73e624b1556a6cf5820ff4f11a4"
          ],
          "data": "0x",
          "blockHash": "0x79a8367388ceab32fd6a6850a95bee2785826f04d1c4ba57937b020c7f5c0c7e",
          "blockNumber": "0xdadd47",
          "transactionHash": "0x6fc4989c3abbc6a70dcb01caf92e4015dc095fb1f74fcd9fac86cfae4fc09afe",
          "transactionIndex": "0x1",
          "logIndex": "0xe",
          "removed": false
        },
        {
          "address": "0xfe1d34dc97a2503f1df5cab979e58ccb3c51e93c",
          "topics": [
            "0x8be0079c531659141344cd1fd0a4f28419497f9722a3daafe3b4186f6b6457e0",
            "0x0000000000000000000000000000000000000000000000000000000000000000",
            "0x000000000000000000000000efbbd14082cf2fbcf5badc7ee619f0f4e36d0a5b"
          ],
          "data": "0x",
          "blockHash": "0x79a8367388ceab32fd6a6850a95bee2785826f04d1c4ba57937b020c7f5c0c7e",
          "blockNumber": "0xdadd47",
          "transactionHash": "0x6fc4989c3abbc6a70dcb01caf92e4015dc095fb1f74fcd9fac86cfae4fc09afe",
          "transactionIndex": "0x1",
          "logIndex": "0xf",
          "removed": false
        },
        {
          "address": "0xfe1d34dc97a2503f1df5cab979e58ccb3c51e93c",
          "topics": [
            "0xc7f505b2f371ae2175ee4913f4499e1f2633a7b5936321eed1cdaeb6115181d2"
          ],
          "data": "0x0000000000000000000000000000000000000000000000000000000000000001",
          "blockHash": "0x79a8367388ceab32fd6a6850a95bee2785826f04d1c4ba57937b020c7f5c0c7e",
          "blockNumber": "0xdadd47",
          "transactionHash": "0x6fc4989c3abbc6a70dcb01caf92e4015dc095fb1f74fcd9fac86cfae4fc09afe",
          "transactionIndex": "0x1",
          "logIndex": "0x10",
          "removed": false
        },
        {
          "address": "0xf0f23c3d5f27c73e624b1556a6cf5820ff4f11a4",
          "topics": [
            "0x4a7bba0e1c21f3684678b259c49028d8cca5e0c5a2b43eba286ada7d196c8bfb",
            "0x000000000000000000000000fe1d34dc97a2503f1df5cab979e58ccb3c51e93c"
          ],
          "data": "0x0000000000000000000000000000000000000000000000000000000000000020000000000000000000000000000000000000000000000000000000000000001768747470733a2f2f672e776174636869742e6d6f766965000000000000000000",
          "blockHash": "0x79a8367388ceab32fd6a6850a95bee2785826f04d1c4ba57937b020c7f5c0c7e",
          "blockNumber": "0xdadd47",
          "transactionHash": "0x6fc4989c3abbc6a70dcb01caf92e4015dc095fb1f74fcd9fac86cfae4fc09afe",
          "transactionIndex": "0x1",
          "logIndex": "0x11",
          "removed": false
        },
        {
          "address": "0x0000000000000000000000000000000000001010",
          "topics": [
            "0x4dfe1bbbcf077ddc3e01291eea2d5c70c2b422b415d95645b9adcfd678cb1d63",
            "0x0000000000000000000000000000000000000000000000000000000000001010",
            "0x000000000000000000000000efbbd14082cf2fbcf5badc7ee619f0f4e36d0a5b",
            "0x0000000000000000000000004631753190f2f5a15a7ba172bbac102b7d95fa22"
          ],
          "data": "0x0000000000000000000000000000000000000000000000000026f080fc65073b0000000000000000000000000000000000000000000000002d084353e3ddfbfd0000000000000000000000000000000000000000000002dc0b7fed0536e1093c0000000000000000000000000000000000000000000000002ce152d2e778f4c20000000000000000000000000000000000000000000002dc0ba6dd8633461077",
          "blockHash": "0x79a8367388ceab32fd6a6850a95bee2785826f04d1c4ba57937b020c7f5c0c7e",
          "blockNumber": "0xdadd47",
          "transactionHash": "0x6fc4989c3abbc6a70dcb01caf92e4015dc095fb1f74fcd9fac86cfae4fc09afe",
          "transactionIndex": "0x1",
          "logIndex": "0x12",
          "removed": false
        }
      ],
      "logsBloom": "0x00000000440000000000000400000000000000002000000000800000000000000000000000000004000000000000000000008000000000000000000040000000008000000000010000000000001000800001000000000000010100000000000000000000020000100000000000000800000000000000000080000000000000400800008000000000000800000000080000000000000080002000200000000000200000010000000000000000000000000800400000000000000000000000804000000000000000000001004000000000000000000004100000900000000020000000000000000000000000000400000000000000000000000000000000100000",
      "type": "0x2",
      "transactionHash": "0x6fc4989c3abbc6a70dcb01caf92e4015dc095fb1f74fcd9fac86cfae4fc09afe",
      "transactionIndex": "0x1",
      "blockHash": "0x79a8367388ceab32fd6a6850a95bee2785826f04d1c4ba57937b020c7f5c0c7e",
      "blockNumber": "0xdadd47",
      "gasUsed": "0x41aeb",
      "effectiveGasPrice": "0x97c4b1100",
      "from": "0xefbbd14082cf2fbcf5badc7ee619f0f4e36d0a5b",
      "to": "0xf0f23c3d5f27c73e624b1556a6cf5820ff4f11a4",
      "contractAddress": null
    },
    {
      "status": "0x1",
      "cumulativeGasUsed": "0xe44c0",
      "logs": [
        {
          "address": "0xdc2e7c4444730980ceb8982cfc8a1c4902fa36be",
          "topics": [
            "0x8c5be1e5ebec7d5bd14f71427d1e84f3dd0314c0f7b2291e5b200ac8c7c3b925",
            "0x000000000000000000000000efbbd14082cf2fbcf5badc7ee619f0f4e36d0a5b",
            "0x000000000000000000000000c44654946a32a42cd7fd6afa02dd0f5857865830"
          ],
          "data": "0x0000000000000000000000000000000000000000000000056bc75e2d63100000",
          "blockHash": "0x79a8367388ceab32fd6a6850a95bee2785826f04d1c4ba57937b020c7f5c0c7e",
          "blockNumber": "0xdadd47",
          "transactionHash": "0xd1b44cd340822689e4b24dc071dcbe8633acaccbaad26da2e3558b42ca4c4931",
          "transactionIndex": "0x2",
          "logIndex": "0x13",
          "removed": false
        },
        {
          "address": "0x0000000000000000000000000000000000001010",
          "topics": [
            "0x4dfe1bbbcf077ddc3e01291eea2d5c70c2b422b415d95645b9adcfd678cb1d63",
            "0x0000000000000000000000000000000000000000000000000000000000001010",
            "0x000000000000000000000000efbbd14082cf2fbcf5badc7ee619f0f4e36d0a5b",
            "0x0000000000000000000000004631753190f2f5a15a7ba172bbac102b7d95fa22"
          ],
          "data": "0x0000000000000000000000000000000000000000000000000006a8d647ade30b0000000000000000000000000000000000000000000000002ce152d2e73b60fd0000000000000000000000000000000000000000000002dc0ba6dd86334610770000000000000000000000000000000000000000000000002cdaa9fc9f8d7df20000000000000000000000000000000000000000000002dc0bad865c7af3f382",
          "blockHash": "0x79a8367388ceab32fd6a6850a95bee2785826f04d1c4ba57937b020c7f5c0c7e",
          "blockNumber": "0xdadd47",
          "transactionHash": "0xd1b44cd340822689e4b24dc071dcbe8633acaccbaad26da2e3558b42ca4c4931",
          "transactionIndex": "0x2",
          "logIndex": "0x14",
          "removed": false
        }
      ],
      "logsBloom": "0x00000000000000000000000200000000000000002000000000000000000000000000000000000000000000000000000000008000000000000000000040200000008000000000000000000000000000800000000000000000000100000000000000000000100002100000000000000000000000000000000080000000000000000800000000000000000000000000000000000000000000000000000000000000220000000000000000000004000000000000400000000000000000000000004000000000000000000001000000000000000000000000000000100000000000000010000000000000000000000000000000000000000000020000000200100000",
      "type": "0x2",
      "transactionHash": "0xd1b44cd340822689e4b24dc071dcbe8633acaccbaad26da2e3558b42ca4c4931",
      "transactionIndex": "0x2",
      "blockHash": "0x79a8367388ceab32fd6a6850a95bee2785826f04d1c4ba57937b020c7f5c0c7e",
      "blockNumber": "0xdadd47",
      "gasUsed": "0xb3bb",
      "effectiveGasPrice": "0x97c4b1100",
      "from": "0xefbbd14082cf2fbcf5badc7ee619f0f4e36d0a5b",
      "to": "0xdc2e7c4444730980ceb8982cfc8a1c4902fa36be",
      "contractAddress": null
    },
    {
      "status": "0x1",
      "cumulativeGasUsed": "0x10407a",
      "logs": [
        {
          "address": "0xdc2e7c4444730980ceb8982cfc8a1c4902fa36be",
          "topics": [
            "0xddf252ad1be2c89b69c2b068fc378daa952ba7f163c4a11628f55a4df523b3ef",
            "0x000000000000000000000000efbbd14082cf2fbcf5badc7ee619f0f4e36d0a5b",
            "0x000000000000000000000000c44654946a32a42cd7fd6afa02dd0f5857865830"
          ],
          "data": "0x0000000000000000000000000000000000000000000000056bc75e2d63100000",
          "blockHash": "0x79a8367388ceab32fd6a6850a95bee2785826f04d1c4ba57937b020c7f5c0c7e",
          "blockNumber": "0xdadd47",
          "transactionHash": "0x8814f06187a3bde5d9b421ffdff2868885f19999bea56c0a1b257f521ba7e720",
          "transactionIndex": "0x3",
          "logIndex": "0x15",
          "removed": false
        },
        {
          "address": "0xc44654946a32a42cd7fd6afa02dd0f5857865830",
          "topics": [
            "0xcda33a906ffa8a5f960826827500581f4613a5db7a84b250433e0d591a630938",
            "0x000000000000000000000000fe1d34dc97a2503f1df5cab979e58ccb3c51e93c"
          ],
          "data": "0x0000000000000000000000000000000000000000000000000000000067338c120000000000000000000000000000000000000000000000056bc75e2d63100000",
          "blockHash": "0x79a8367388ceab32fd6a6850a95bee2785826f04d1c4ba57937b020c7f5c0c7e",
          "blockNumber": "0xdadd47",
          "transactionHash": "0x8814f06187a3bde5d9b421ffdff2868885f19999bea56c0a1b257f521ba7e720",
          "transactionIndex": "0x3",
          "logIndex": "0x16",
          "removed": false
        },
        {
          "address": "0x0000000000000000000000000000000000001010",
          "topics": [
            "0x4dfe1bbbcf077ddc3e01291eea2d5c70c2b422b415d95645b9adcfd678cb1d63",
            "0x0000000000000000000000000000000000000000000000000000000000001010",
            "0x000000000000000000000000efbbd14082cf2fbcf5badc7ee619f0f4e36d0a5b",
            "0x0000000000000000000000004631753190f2f5a15a7ba172bbac102b7d95fa22"
          ],
          "data": "0x0000000000000000000000000000000000000000000000000012d00cf9179a1a0000000000000000000000000000000000000000000000002cdaa9fc9f82f5fd0000000000000000000000000000000000000000000002dc0bad865c7af3f3820000000000000000000000000000000000000000000000002cc7d9efa66b5be30000000000000000000000000000000000000000000002dc0bc05669740b8d9c",
          "blockHash": "0x79a8367388ceab32fd6a6850a95bee2785826f04d1c4ba57937b020c7f5c0c7e",
          "blockNumber": "0xdadd47",
          "transactionHash": "0x8814f06187a3bde5d9b421ffdff2868885f19999bea56c0a1b257f521ba7e720",
          "transactionIndex": "0x3",
          "logIndex": "0x17",
          "removed": false
        }
      ],
      "logsBloom": "0x00000000440000000000000a00000000000000002000000000000000000000000000000000400000000000000000000000008000000000000000000040000000008000000000000000000008000000800000000000000000000100000000000000000000100002100000000000000000000000000000000080008010000000000800000000000000000000000000000000000000000000000000000000000000200000000000000000000004000000000000400000000000000000000000004000000002000000000001000000000000000000000000100000100000000000000000000040000000400000000000000000000000000000020000000200100000",
      "type": "0x2",
      "transactionHash": "0x8814f06187a3bde5d9b421ffdff2868885f19999bea56c0a1b257f521ba7e720",
      "transactionIndex": "0x3",
      "blockHash": "0x79a8367388ceab32fd6a6850a95bee2785826f04d1c4ba57937b020c7f5c0c7e",
      "blockNumber": "0xdadd47",
      "gasUsed": "0x1fbba",
      "effectiveGasPrice": "0x97c4b1100",
      "from": "0xefbbd14082cf2fbcf5badc7ee619f0f4e36d0a5b",
      "to": "0xc44654946a32a42cd7fd6afa02dd0f5857865830",
      "contractAddress": null
    },
    {
      "status": "0x1",
      "cumulativeGasUsed": "0x11563f",
      "logs": [
        {
          "address": "0xc44654946a32a42cd7fd6afa02dd0f5857865830",
          "topics": [
            "0xf13bfe0b6ec5df39265dccb0a01a09aa4162489c7a083dc6670bde0255d02ca7",
            "0x000000000000000000000000fe1d34dc97a2503f1df5cab979e58ccb3c51e93c"
          ],
          "data": "0x0000000000000000000000000000000000000000000000000000000067338c12",
          "blockHash": "0x79a8367388ceab32fd6a6850a95bee2785826f04d1c4ba57937b020c7f5c0c7e",
          "blockNumber": "0xdadd47",
          "transactionHash": "0x82bcf5e840423f7fd1ac3b06aa11cd1f0038d889c335824fb43ccfe2a28109f3",
          "transactionIndex": "0x4",
          "logIndex": "0x18",
          "removed": false
        },
        {
          "address": "0x0000000000000000000000000000000000001010",
          "topics": [
            "0x4dfe1bbbcf077ddc3e01291eea2d5c70c2b422b415d95645b9adcfd678cb1d63",
            "0x0000000000000000000000000000000000000000000000000000000000001010",
            "0x000000000000000000000000efbbd14082cf2fbcf5badc7ee619f0f4e36d0a5b",
            "0x0000000000000000000000004631753190f2f5a15a7ba172bbac102b7d95fa22"
          ],
          "data": "0x000000000000000000000000000000000000000000000000000a4ac9df18ce750000000000000000000000000000000000000000000000002cc7d9efa64d9bfd0000000000000000000000000000000000000000000002dc0bc05669740b8d9c0000000000000000000000000000000000000000000000002cbd8f25c734cd880000000000000000000000000000000000000000000002dc0bcaa13353245c11",
          "blockHash": "0x79a8367388ceab32fd6a6850a95bee2785826f04d1c4ba57937b020c7f5c0c7e",
          "blockNumber": "0xdadd47",
          "transactionHash": "0x82bcf5e840423f7fd1ac3b06aa11cd1f0038d889c335824fb43ccfe2a28109f3",
          "transactionIndex": "0x4",
          "logIndex": "0x19",
          "removed": false
        }
      ],
      "logsBloom": "0x00000000440000000000000800000000000000002000000000000000000000000000000000400000000000000000000000008000000000000000000040000000008000000000000000000000000000800000000000000000000100000000000000000000000000100000000000000000000000000000000080008000000000000800000000000000000000000000000000000000000008000000000000000000200000000000000000000000000000000000400000000800000000000000004000000000000000000001000000000000000000000000100020100000000000000000000000000000000000000000000000000000000000000000000000100000",
      "type": "0x2",
      "transactionHash": "0x82bcf5e840423f7fd1ac3b06aa11cd1f0038d889c335824fb43ccfe2a28109f3",
      "transactionIndex": "0x4",
      "blockHash": "0x79a8367388ceab32fd6a6850a95bee2785826f04d1c4ba57937b020c7f5c0c7e",
      "blockNumber": "0xdadd47",
      "gasUsed": "0x115c5",
      "effectiveGasPrice": "0x97c4b1100",
      "from": "0xefbbd14082cf2fbcf5badc7ee619f0f4e36d0a5b",
      "to": "0xc44654946a32a42cd7fd6afa02dd0f5857865830",
      "contractAddress": null
    }
  ],
  "libraries": [],
  "pending": [],
  "returns": {},
  "timestamp": 1731431445,
  "chain": 80002,
  "commit": "c77f59e"
}