{
  "transactions": [
    {
      "hash": "0xa68ea81185c3a0c361563a47f87d8b2a3d324a333232c47a73fe556fcaf55e45",
      "transactionType": "CALL",
      "contractName": null,
      "contractAddress": "0xd20c11f030ffa676520f40fb2c0ec55f356cd19b",
      "function": "create(string)",
      "arguments": [
        "https://guardian.watchit.movie"
      ],
      "transaction": {
        "from": "0xefbbd14082cf2fbcf5badc7ee619f0f4e36d0a5b",
        "to": "0xd20c11f030ffa676520f40fb2c0ec55f356cd19b",
        "gas": "0x5ac07",
        "value": "0x0",
        "input": "0xb6a46b3b0000000000000000000000000000000000000000000000000000000000000020000000000000000000000000000000000000000000000000000000000000001e68747470733a2f2f677561726469616e2e776174636869742e6d6f7669650000",
        "nonce": "0x513",
        "chainId": "0x13882"
      },
      "additionalContracts": [
        {
          "transactionType": "CREATE",
          "address": "0x351fbd09c31d1372b35b0ac2f39c90caa333d5f7",
          "initCode": "0x60a08060405261050d80380380916100178285610292565b833981016040828203126101eb5761002e826102c9565b602083015190926001600160401b0382116101eb57019080601f830112156101eb57815161005b816102dd565b926100696040519485610292565b8184526020840192602083830101116101eb57815f926020809301855e84010152823b15610274577fa3f0ad74e5423aebfd80d3ef4346578335a9a72aeaee59ff6cb3582b35133d5080546001600160a01b0319166001600160a01b038516908117909155604051635c60da1b60e01b8152909190602081600481865afa9081156101f7575f9161023a575b50803b1561021a5750817f1cf3b03a6cf19fa2baba4df148e9dcabedea7f8a5c07840e207e5c089be95d3e5f80a282511561020257602060049260405193848092635c60da1b60e01b82525afa9182156101f7575f926101ae575b505f809161018a945190845af43d156101a6573d9161016e836102dd565b9261017c6040519485610292565b83523d5f602085013e6102f8565b505b6080526040516101b6908161035782396080518160460152f35b6060916102f8565b9291506020833d6020116101ef575b816101ca60209383610292565b810103126101eb575f80916101e161018a956102c9565b9394509150610150565b5f80fd5b3d91506101bd565b6040513d5f823e3d90fd5b505050341561018c5763b398979f60e01b5f5260045ffd5b634c9c8ce360e01b5f9081526001600160a01b0391909116600452602490fd5b90506020813d60201161026c575b8161025560209383610292565b810103126101eb57610266906102c9565b5f6100f5565b3d9150610248565b631933b43b60e21b5f9081526001600160a01b038416600452602490fd5b601f909101601f19168101906001600160401b038211908210176102b557604052565b634e487b7160e01b5f52604160045260245ffd5b51906001600160a01b03821682036101eb57565b6001600160401b0381116102b557601f01601f191660200190565b9061031c575080511561030d57805190602001fd5b63d6bda27560e01b5f5260045ffd5b8151158061034d575b61032d575090565b639996b31560e01b5f9081526001600160a01b0391909116600452602490fd5b50803b1561032556fe60806040527f5c60da1b000000000000000000000000000000000000000000000000000000006080526020608060048173ffffffffffffffffffffffffffffffffffffffff7f0000000000000000000000000000000000000000000000000000000000000000165afa8015610107575f9015610163575060203d602011610100575b7fffffffffffffffffffffffffffffffffffffffffffffffffffffffffffffffe0601f820116608001906080821067ffffffffffffffff8311176100d3576100ce91604052608001610112565b610163565b7f4e487b71000000000000000000000000000000000000000000000000000000005f52604160045260245ffd5b503d610081565b6040513d5f823e3d90fd5b7fffffffffffffffffffffffffffffffffffffffffffffffffffffffffffffff80602091011261015f5760805173ffffffffffffffffffffffffffffffffffffffff8116810361015f5790565b5f80fd5b5f8091368280378136915af43d5f803e1561017c573d5ff35b3d5ffdfea26469706673582212208804cf59bdd18c3a0f888485dc336bd287dab018b52c45cd44e551ff35033d8d64736f6c634300081a0033000000000000000000000000d20c11f030ffa676520f40fb2c0ec55f356cd19b000000000000000000000000000000000000000000000000000000000000004000000000000000000000000000000000000000000000000000000000000000847ab4339d0000000000000000000000000000000000000000000000000000000000000040000000000000000000000000efbbd14082cf2fbcf5badc7ee619f0f4e36d0a5b000000000000000000000000000000000000000000000000000000000000001e68747470733a2f2f677561726469616e2e776174636869742e6d6f766965000000000000000000000000000000000000000000000000000000000000"
        }
      ],
      "isFixedGasLimit": false
    },
    {
      "hash": "0x1d627ebf67529c1f9edd596af04aaeff69e42b8181d007aa61aec6584216bba1",
      "transactionType": "CALL",
      "contractName": null,
      "contractAddress": "0x045d1fc9240b3670cb54444f93ad3e7b1fbbce75",
      "function": "approve(address,uint256)",
      "arguments": [
        "0x259dCAa776FC39566c5dfB5987B88E24134DF271",
        "100000000000000000000"
      ],
      "transaction": {
        "from": "0xefbbd14082cf2fbcf5badc7ee619f0f4e36d0a5b",
        "to": "0x045d1fc9240b3670cb54444f93ad3e7b1fbbce75",
        "gas": "0x106da",
        "value": "0x0",
        "input": "0x095ea7b3000000000000000000000000259dcaa776fc39566c5dfb5987b88e24134df2710000000000000000000000000000000000000000000000056bc75e2d63100000",
        "nonce": "0x514",
        "chainId": "0x13882"
      },
      "additionalContracts": [],
      "isFixedGasLimit": false
    },
    {
      "hash": "0x790d714c9737ceed5cec249638c57067719d7f5381c8228b2adc08fe3e4aa93a",
      "transactionType": "CALL",
      "contractName": null,
      "contractAddress": "0x259dcaa776fc39566c5dfb5987b88e24134df271",
      "function": "register(address,address)",
      "arguments": [
        "0x351Fbd09c31D1372b35b0ac2F39c90CAa333D5F7",
        "0x045d1FC9240B3670cB54444f93Ad3E7b1fbBCe75"
      ],
      "transaction": {
        "from": "0xefbbd14082cf2fbcf5badc7ee619f0f4e36d0a5b",
        "to": "0x259dcaa776fc39566c5dfb5987b88e24134df271",
        "gas": "0x3a9ee",
        "value": "0x0",
        "input": "0xaa677354000000000000000000000000351fbd09c31d1372b35b0ac2f39c90caa333d5f7000000000000000000000000045d1fc9240b3670cb54444f93ad3e7b1fbbce75",
        "nonce": "0x515",
        "chainId": "0x13882"
      },
      "additionalContracts": [],
      "isFixedGasLimit": false
    },
    {
      "hash": "0x75a09e6d2288c283772fd93a6cd1d58cf85491a7feb0820fb2d8b988235aeb2d",
      "transactionType": "CALL",
      "contractName": null,
      "contractAddress": "0x259dcaa776fc39566c5dfb5987b88e24134df271",
      "function": "approve(address)",
      "arguments": [
        "0x351Fbd09c31D1372b35b0ac2F39c90CAa333D5F7"
      ],
      "transaction": {
        "from": "0xefbbd14082cf2fbcf5badc7ee619f0f4e36d0a5b",
        "to": "0x259dcaa776fc39566c5dfb5987b88e24134df271",
        "gas": "0x1f7ed",
        "value": "0x0",
        "input": "0xdaea85c5000000000000000000000000351fbd09c31d1372b35b0ac2f39c90caa333d5f7",
        "nonce": "0x516",
        "chainId": "0x13882"
      },
      "additionalContracts": [],
      "isFixedGasLimit": false
    }
  ],
  "receipts": [
    {
      "status": "0x1",
      "cumulativeGasUsed": "0x4a1eb",
      "logs": [
        {
          "address": "0x351fbd09c31d1372b35b0ac2f39c90caa333d5f7",
          "topics": [
            "0x1cf3b03a6cf19fa2baba4df148e9dcabedea7f8a5c07840e207e5c089be95d3e",
            "0x000000000000000000000000d20c11f030ffa676520f40fb2c0ec55f356cd19b"
          ],
          "data": "0x",
          "blockHash": "0xf101a71c36e84a85be5a71a82d07eeae1d368f2e13b743050bd4aac28ee2e25e",
          "blockNumber": "0xdc1774",
          "transactionHash": "0xa68ea81185c3a0c361563a47f87d8b2a3d324a333232c47a73fe556fcaf55e45",
          "transactionIndex": "0x1",
          "logIndex": "0x2",
          "removed": false
        },
        {
          "address": "0x351fbd09c31d1372b35b0ac2f39c90caa333d5f7",
          "topics": [
            "0x8be0079c531659141344cd1fd0a4f28419497f9722a3daafe3b4186f6b6457e0",
            "0x0000000000000000000000000000000000000000000000000000000000000000",
            "0x000000000000000000000000efbbd14082cf2fbcf5badc7ee619f0f4e36d0a5b"
          ],
          "data": "0x",
          "blockHash": "0xf101a71c36e84a85be5a71a82d07eeae1d368f2e13b743050bd4aac28ee2e25e",
          "blockNumber": "0xdc1774",
          "transactionHash": "0xa68ea81185c3a0c361563a47f87d8b2a3d324a333232c47a73fe556fcaf55e45",
          "transactionIndex": "0x1",
          "logIndex": "0x3",
          "removed": false
        },
        {
          "address": "0x351fbd09c31d1372b35b0ac2f39c90caa333d5f7",
          "topics": [
            "0xc7f505b2f371ae2175ee4913f4499e1f2633a7b5936321eed1cdaeb6115181d2"
          ],
          "data": "0x0000000000000000000000000000000000000000000000000000000000000001",
          "blockHash": "0xf101a71c36e84a85be5a71a82d07eeae1d368f2e13b743050bd4aac28ee2e25e",
          "blockNumber": "0xdc1774",
          "transactionHash": "0xa68ea81185c3a0c361563a47f87d8b2a3d324a333232c47a73fe556fcaf55e45",
          "transactionIndex": "0x1",
          "logIndex": "0x4",
          "removed": false
        },
        {
          "address": "0xd20c11f030ffa676520f40fb2c0ec55f356cd19b",
          "topics": [
            "0x4a7bba0e1c21f3684678b259c49028d8cca5e0c5a2b43eba286ada7d196c8bfb",
            "0x000000000000000000000000351fbd09c31d1372b35b0ac2f39c90caa333d5f7"
          ],
          "data": "0x0000000000000000000000000000000000000000000000000000000000000020000000000000000000000000000000000000000000000000000000000000001e68747470733a2f2f677561726469616e2e776174636869742e6d6f7669650000",
          "blockHash": "0xf101a71c36e84a85be5a71a82d07eeae1d368f2e13b743050bd4aac28ee2e25e",
          "blockNumber": "0xdc1774",
          "transactionHash": "0xa68ea81185c3a0c361563a47f87d8b2a3d324a333232c47a73fe556fcaf55e45",
          "transactionIndex": "0x1",
          "logIndex": "0x5",
          "removed": false
        },
        {
          "address": "0x0000000000000000000000000000000000001010",
          "topics": [
            "0x4dfe1bbbcf077ddc3e01291eea2d5c70c2b422b415d95645b9adcfd678cb1d63",
            "0x0000000000000000000000000000000000000000000000000000000000001010",
            "0x000000000000000000000000efbbd14082cf2fbcf5badc7ee619f0f4e36d0a5b",
            "0x0000000000000000000000006dc2dd54f24979ec26212794c71afefed722280c"
          ],
          "data": "0x000000000000000000000000000000000000000000000000001caede7feb540000000000000000000000000000000000000000000000000039d4e5523cf311fc0000000000000000000000000000000000000000000003fc429e710c08c4aed700000000000000000000000000000000000000000000000039b83673bd07bdfc0000000000000000000000000000000000000000000003fc42bb1fea88b002d7",
          "blockHash": "0xf101a71c36e84a85be5a71a82d07eeae1d368f2e13b743050bd4aac28ee2e25e",
          "blockNumber": "0xdc1774",
          "transactionHash": "0xa68ea81185c3a0c361563a47f87d8b2a3d324a333232c47a73fe556fcaf55e45",
          "transactionIndex": "0x1",
          "logIndex": "0x6",
          "removed": false
        }
      ],
      "logsBloom": "0x0000000000000040000000040000000000000000000400000080000000000000000000000000000000000000000000000000800000000000000001000000000000800000000000000000002000100080000100000000000001010008000000000000000002000000000000200000080000000000000000008000000000000042080000000020000000080000004008000000000000008200000020000000000020000000000000000800000000000000000040000000000000000000000000c000000000000000000001000000000040000000000004000000900008000020000000000000000000000002000000000000000000000000000000000000100000",
      "type": "0x2",
      "transactionHash": "0xa68ea81185c3a0c361563a47f87d8b2a3d324a333232c47a73fe556fcaf55e45",
      "transactionIndex": "0x1",
      "blockHash": "0xf101a71c36e84a85be5a71a82d07eeae1d368f2e13b743050bd4aac28ee2e25e",
      "blockNumber": "0xdc1774",
      "gasUsed": "0x41b3f",
      "effectiveGasPrice": "0x6fc23ac0f",
      "from": "0xefbbd14082cf2fbcf5badc7ee619f0f4e36d0a5b",
      "to": "0xd20c11f030ffa676520f40fb2c0ec55f356cd19b",
      "contractAddress": null
    },
    {
      "status": "0x1",
      "cumulativeGasUsed": "0x4a307",
      "logs": [
        {
          "address": "0x045d1fc9240b3670cb54444f93ad3e7b1fbbce75",
          "topics": [
            "0x8c5be1e5ebec7d5bd14f71427d1e84f3dd0314c0f7b2291e5b200ac8c7c3b925",
            "0x000000000000000000000000efbbd14082cf2fbcf5badc7ee619f0f4e36d0a5b",
            "0x000000000000000000000000259dcaa776fc39566c5dfb5987b88e24134df271"
          ],
          "data": "0x0000000000000000000000000000000000000000000000056bc75e2d63100000",
          "blockHash": "0x18adf547b3df4cf456eca2894e5cc6d669a4a2e444f778a447daaf1effddd301",
          "blockNumber": "0xdc1777",
          "transactionHash": "0x1d627ebf67529c1f9edd596af04aaeff69e42b8181d007aa61aec6584216bba1",
          "transactionIndex": "0x2",
          "logIndex": "0x5",
          "removed": false
        },
        {
          "address": "0x0000000000000000000000000000000000001010",
          "topics": [
            "0x4dfe1bbbcf077ddc3e01291eea2d5c70c2b422b415d95645b9adcfd678cb1d63",
            "0x0000000000000000000000000000000000000000000000000000000000001010",
            "0x000000000000000000000000efbbd14082cf2fbcf5badc7ee619f0f4e36d0a5b",
            "0x0000000000000000000000006dc2dd54f24979ec26212794c71afefed722280c"
          ],
          "data": "0x0000000000000000000000000000000000000000000000000004e7671f52a40000000000000000000000000000000000000000000000000039b83673bcca254b0000000000000000000000000000000000000000000003fc43885896acf822e900000000000000000000000000000000000000000000000039b34f0c9d77814b0000000000000000000000000000000000000000000003fc438d3ffdcc4ac6e9",
          "blockHash": "0x18adf547b3df4cf456eca2894e5cc6d669a4a2e444f778a447daaf1effddd301",
          "blockNumber": "0xdc1777",
          "transactionHash": "0x1d627ebf67529c1f9edd596af04aaeff69e42b8181d007aa61aec6584216bba1",
          "transactionIndex": "0x2",
          "logIndex": "0x6",
          "removed": false
        }
      ],
      "logsBloom": "0x00000000000000000000000000000000000000000000000000000000000000000000000000000000000000000000000000008000000000000008000000200020008000000000000000000000000000800000000000000000000100080000000000080000000000000000000000000000000000000000000480000000000000020800000000000000000000000040000000000000000000000000000000000000220000000000000001000000000000000000400000000000000000000000004000000000000000000001000000000000000000000000000000100000000000000010000000800000000000000000000000000000000000000000000000100000",
      "type": "0x2",
      "transactionHash": "0x1d627ebf67529c1f9edd596af04aaeff69e42b8181d007aa61aec6584216bba1",
      "transactionIndex": "0x2",
      "blockHash": "0x18adf547b3df4cf456eca2894e5cc6d669a4a2e444f778a447daaf1effddd301",
      "blockNumber": "0xdc1777",
      "gasUsed": "0xb3bb",
      "effectiveGasPrice": "0x6fc23ac0f",
      "from": "0xefbbd14082cf2fbcf5badc7ee619f0f4e36d0a5b",
      "to": "0x045d1fc9240b3670cb54444f93ad3e7b1fbbce75",
      "contractAddress": null
    },
    {
      "status": "0x1",
      "cumulativeGasUsed": "0x28152",
      "logs": [
        {
          "address": "0x045d1fc9240b3670cb54444f93ad3e7b1fbbce75",
          "topics": [
            "0xddf252ad1be2c89b69c2b068fc378daa952ba7f163c4a11628f55a4df523b3ef",
            "0x000000000000000000000000efbbd14082cf2fbcf5badc7ee619f0f4e36d0a5b",
            "0x000000000000000000000000259dcaa776fc39566c5dfb5987b88e24134df271"
          ],
          "data": "0x0000000000000000000000000000000000000000000000056bc75e2d63100000",
          "blockHash": "0x21e6d721e905118b3e28b22b2f1318b07a486a5965a3efb0169b63b4c18fe5dd",
          "blockNumber": "0xdc177a",
          "transactionHash": "0x790d714c9737ceed5cec249638c57067719d7f5381c8228b2adc08fe3e4aa93a",
          "transactionIndex": "0x0",
          "logIndex": "0x0",
          "removed": false
        },
        {
          "address": "0x259dcaa776fc39566c5dfb5987b88e24134df271",
          "topics": [
            "0xcda33a906ffa8a5f960826827500581f4613a5db7a84b250433e0d591a630938",
            "0x000000000000000000000000351fbd09c31d1372b35b0ac2f39c90caa333d5f7"
          ],
          "data": "0x00000000000000000000000000000000000000000000000000000000673630b40000000000000000000000000000000000000000000000056bc75e2d63100000",
          "blockHash": "0x21e6d721e905118b3e28b22b2f1318b07a486a5965a3efb0169b63b4c18fe5dd",
          "blockNumber": "0xdc177a",
          "transactionHash": "0x790d714c9737ceed5cec249638c57067719d7f5381c8228b2adc08fe3e4aa93a",
          "transactionIndex": "0x0",
          "logIndex": "0x1",
          "removed": false
        },
        {
          "address": "0x0000000000000000000000000000000000001010",
          "topics": [
            "0x4dfe1bbbcf077ddc3e01291eea2d5c70c2b422b415d95645b9adcfd678cb1d63",
            "0x0000000000000000000000000000000000000000000000000000000000001010",
            "0x000000000000000000000000efbbd14082cf2fbcf5badc7ee619f0f4e36d0a5b",
            "0x0000000000000000000000006dc2dd54f24979ec26212794c71afefed722280c"
          ],
          "data": "0x00000000000000000000000000000000000000000000000000117f921519180000000000000000000000000000000000000000000000000039b34f0c9d6cf9560000000000000000000000000000000000000000000003fc43a8fbcc42a5412500000000000000000000000000000000000000000000000039a1cf7a8853e1560000000000000000000000000000000000000000000003fc43ba7b5e57be5925",
          "blockHash": "0x21e6d721e905118b3e28b22b2f1318b07a486a5965a3efb0169b63b4c18fe5dd",
          "blockNumber": "0xdc177a",
          "transactionHash": "0x790d714c9737ceed5cec249638c57067719d7f5381c8228b2adc08fe3e4aa93a",
          "transactionIndex": "0x0",
          "logIndex": "0x2",
          "removed": false
        }
      ],
      "logsBloom": "0x00000000000000400000000000800000000000000000000000000000000000000000000000000000000000000000000000008000000000000008000000000020008000000000000000000008000000800000000000000000000100080000000000080000000000000000002000000000000000000000000480000010000000020800000000000000000000000040000000000000000000000000000000000000200000000000000001000000000000000000400000000000000000000000004000000006000000000001000000000000000000000000000000100000000000000000000040800000400002000000000000000000000000000000000000100200",
      "type": "0x2",
      "transactionHash": "0x790d714c9737ceed5cec249638c57067719d7f5381c8228b2adc08fe3e4aa93a",
      "transactionIndex": "0x0",
      "blockHash": "0x21e6d721e905118b3e28b22b2f1318b07a486a5965a3efb0169b63b4c18fe5dd",
      "blockNumber": "0xdc177a",
      "gasUsed": "0x28152",
      "effectiveGasPrice": "0x6fc23ac0f",
      "from": "0xefbbd14082cf2fbcf5badc7ee619f0f4e36d0a5b",
      "to": "0x259dcaa776fc39566c5dfb5987b88e24134df271",
      "contractAddress": null
    },
    {
      "status": "0x1",
      "cumulativeGasUsed": "0x653e5",
      "logs": [
        {
          "address": "0x259dcaa776fc39566c5dfb5987b88e24134df271",
          "topics": [
            "0xf13bfe0b6ec5df39265dccb0a01a09aa4162489c7a083dc6670bde0255d02ca7",
            "0x000000000000000000000000351fbd09c31d1372b35b0ac2f39c90caa333d5f7"
          ],
          "data": "0x00000000000000000000000000000000000000000000000000000000673630ba",
          "blockHash": "0x053cf792afc0515c82c47f2cefecd597c2c42d17871e91e4aca1deef54ed5e68",
          "blockNumber": "0xdc177d",
          "transactionHash": "0x75a09e6d2288c283772fd93a6cd1d58cf85491a7feb0820fb2d8b988235aeb2d",
          "transactionIndex": "0x2",
          "logIndex": "0x4",
          "removed": false
        },
        {
          "address": "0x0000000000000000000000000000000000001010",
          "topics": [
            "0x4dfe1bbbcf077ddc3e01291eea2d5c70c2b422b415d95645b9adcfd678cb1d63",
            "0x0000000000000000000000000000000000000000000000000000000000001010",
            "0x000000000000000000000000efbbd14082cf2fbcf5badc7ee619f0f4e36d0a5b",
            "0x0000000000000000000000006dc2dd54f24979ec26212794c71afefed722280c"
          ],
          "data": "0x000000000000000000000000000000000000000000000000000966c4bf546c0000000000000000000000000000000000000000000000000039a1cf7a882e4d880000000000000000000000000000000000000000000003fc4562e42a54ba4344000000000000000000000000000000000000000000000000399868b5c8d9e1880000000000000000000000000000000000000000000003fc456c4aef140eaf44",
          "blockHash": "0x053cf792afc0515c82c47f2cefecd597c2c42d17871e91e4aca1deef54ed5e68",
          "blockNumber": "0xdc177d",
          "transactionHash": "0x75a09e6d2288c283772fd93a6cd1d58cf85491a7feb0820fb2d8b988235aeb2d",
          "transactionIndex": "0x2",
          "logIndex": "0x5",
          "removed": false
        }
      ],
      "logsBloom": "0x00000000000000400000000000800000000000000000000000000000000000000000000000000000000000000000000000008000000000000000000000000000008000000000000000000000000000800000000000000000000100080000000000000000000000000000002000000000000000000000000080000000000000020800000000000000000000000040000000000000000008000000000000000000200000000000000000000000000000000000400000000800000000000000004000000004000000000001000000000000000000000000000020100000000000000000000000000000000002000000000000000000000000000000000000100200",
      "type": "0x2",
      "transactionHash": "0x75a09e6d2288c283772fd93a6cd1d58cf85491a7feb0820fb2d8b988235aeb2d",
      "transactionIndex": "0x2",
      "blockHash": "0x053cf792afc0515c82c47f2cefecd597c2c42d17871e91e4aca1deef54ed5e68",
      "blockNumber": "0xdc177d",
      "gasUsed": "0x15891",
      "effectiveGasPrice": "0x6fc23ac0f",
      "from": "0xefbbd14082cf2fbcf5badc7ee619f0f4e36d0a5b",
      "to": "0x259dcaa776fc39566c5dfb5987b88e24134df271",
      "contractAddress": null
    }
  ],
  "libraries": [],
  "pending": [],
  "returns": {},
  "timestamp": 1731604685,
  "chain": 80002,
  "commit": "bceebff"
}