{
  "transactions": [
    {
      "hash": "0x16d7f681bf841273ede1bbca2731feaf9d80267b0b01530e5c5d427cc64f6fdf",
      "transactionType": "CALL",
      "contractName": null,
      "contractAddress": "0x55ab7c5a26b6afe6a49e3514ee96e04eabaefe11",
      "function": "create(string)",
      "arguments": [
        "https://guardian.watchit.movie"
      ],
      "transaction": {
        "from": "0xefbbd14082cf2fbcf5badc7ee619f0f4e36d0a5b",
        "to": "0x55ab7c5a26b6afe6a49e3514ee96e04eabaefe11",
        "gas": "0x5ac07",
        "value": "0x0",
        "input": "0xb6a46b3b0000000000000000000000000000000000000000000000000000000000000020000000000000000000000000000000000000000000000000000000000000001e68747470733a2f2f677561726469616e2e776174636869742e6d6f7669650000",
        "nonce": "0x544",
        "chainId": "0x13882"
      },
      "additionalContracts": [
        {
          "transactionType": "CREATE",
          "address": "0xd437e2e102e1ce9a8ad24ae37a6f2a3d608868e7",
          "initCode": "0x60a08060405261050d80380380916100178285610292565b833981016040828203126101eb5761002e826102c9565b602083015190926001600160401b0382116101eb57019080601f830112156101eb57815161005b816102dd565b926100696040519485610292565b8184526020840192602083830101116101eb57815f926020809301855e84010152823b15610274577fa3f0ad74e5423aebfd80d3ef4346578335a9a72aeaee59ff6cb3582b35133d5080546001600160a01b0319166001600160a01b038516908117909155604051635c60da1b60e01b8152909190602081600481865afa9081156101f7575f9161023a575b50803b1561021a5750817f1cf3b03a6cf19fa2baba4df148e9dcabedea7f8a5c07840e207e5c089be95d3e5f80a282511561020257602060049260405193848092635c60da1b60e01b82525afa9182156101f7575f926101ae575b505f809161018a945190845af43d156101a6573d9161016e836102dd565b9261017c6040519485610292565b83523d5f602085013e6102f8565b505b6080526040516101b6908161035782396080518160460152f35b6060916102f8565b9291506020833d6020116101ef575b816101ca60209383610292565b810103126101eb575f80916101e161018a956102c9565b9394509150610150565b5f80fd5b3d91506101bd565b6040513d5f823e3d90fd5b505050341561018c5763b398979f60e01b5f5260045ffd5b634c9c8ce360e01b5f9081526001600160a01b0391909116600452602490fd5b90506020813d60201161026c575b8161025560209383610292565b810103126101eb57610266906102c9565b5f6100f5565b3d9150610248565b631933b43b60e21b5f9081526001600160a01b038416600452602490fd5b601f909101601f19168101906001600160401b038211908210176102b557604052565b634e487b7160e01b5f52604160045260245ffd5b51906001600160a01b03821682036101eb57565b6001600160401b0381116102b557601f01601f191660200190565b9061031c575080511561030d57805190602001fd5b63d6bda27560e01b5f5260045ffd5b8151158061034d575b61032d575090565b639996b31560e01b5f9081526001600160a01b0391909116600452602490fd5b50803b1561032556fe60806040527f5c60da1b000000000000000000000000000000000000000000000000000000006080526020608060048173ffffffffffffffffffffffffffffffffffffffff7f0000000000000000000000000000000000000000000000000000000000000000165afa8015610107575f9015610163575060203d602011610100575b7fffffffffffffffffffffffffffffffffffffffffffffffffffffffffffffffe0601f820116608001906080821067ffffffffffffffff8311176100d3576100ce91604052608001610112565b610163565b7f4e487b71000000000000000000000000000000000000000000000000000000005f52604160045260245ffd5b503d610081565b6040513d5f823e3d90fd5b7fffffffffffffffffffffffffffffffffffffffffffffffffffffffffffffff80602091011261015f5760805173ffffffffffffffffffffffffffffffffffffffff8116810361015f5790565b5f80fd5b5f8091368280378136915af43d5f803e1561017c573d5ff35b3d5ffdfea26469706673582212208804cf59bdd18c3a0f888485dc336bd287dab018b52c45cd44e551ff35033d8d64736f6c634300081a003300000000000000000000000055ab7c5a26b6afe6a49e3514ee96e04eabaefe11000000000000000000000000000000000000000000000000000000000000004000000000000000000000000000000000000000000000000000000000000000847ab4339d0000000000000000000000000000000000000000000000000000000000000040000000000000000000000000efbbd14082cf2fbcf5badc7ee619f0f4e36d0a5b000000000000000000000000000000000000000000000000000000000000001e68747470733a2f2f677561726469616e2e776174636869742e6d6f766965000000000000000000000000000000000000000000000000000000000000"
        }
      ],
      "isFixedGasLimit": false
    },
    {
      "hash": "0x8d52587d029d06974170a64907ad6f7b5ee6982edbf12d0d35f71e245a77339a",
      "transactionType": "CALL",
      "contractName": null,
      "contractAddress": "0x379f6d7fa5480a98bf89f417a6335747e0a51a35",
      "function": "approve(address,uint256)",
      "arguments": [
        "0x58Ea7A743Acec6061bF8318922d72003611044EE",
        "100000000000000000000"
      ],
      "transaction": {
        "from": "0xefbbd14082cf2fbcf5badc7ee619f0f4e36d0a5b",
        "to": "0x379f6d7fa5480a98bf89f417a6335747e0a51a35",
        "gas": "0x106da",
        "value": "0x0",
        "input": "0x095ea7b300000000000000000000000058ea7a743acec6061bf8318922d72003611044ee0000000000000000000000000000000000000000000000056bc75e2d63100000",
        "nonce": "0x545",
        "chainId": "0x13882"
      },
      "additionalContracts": [],
      "isFixedGasLimit": false
    },
    {
      "hash": "0xb75ffe443e20541d55dc58e9df4e2938d06aabaf923a91184f79b5b50846e190",
      "transactionType": "CALL",
      "contractName": null,
      "contractAddress": "0x58ea7a743acec6061bf8318922d72003611044ee",
      "function": "register(address,address)",
      "arguments": [
        "0xd437e2E102E1CE9A8aD24AE37a6f2A3D608868e7",
        "0x379F6d7fA5480A98bf89f417a6335747E0A51A35"
      ],
      "transaction": {
        "from": "0xefbbd14082cf2fbcf5badc7ee619f0f4e36d0a5b",
        "to": "0x58ea7a743acec6061bf8318922d72003611044ee",
        "gas": "0x3a9ee",
        "value": "0x0",
        "input": "0xaa677354000000000000000000000000d437e2e102e1ce9a8ad24ae37a6f2a3d608868e7000000000000000000000000379f6d7fa5480a98bf89f417a6335747e0a51a35",
        "nonce": "0x546",
        "chainId": "0x13882"
      },
      "additionalContracts": [],
      "isFixedGasLimit": false
    },
    {
      "hash": "0x37962cb358f594049e6df5fc18094ef18cc7fdca38ff2ccb8a5d82bc1ce9cd11",
      "transactionType": "CALL",
      "contractName": null,
      "contractAddress": "0x58ea7a743acec6061bf8318922d72003611044ee",
      "function": "approve(address)",
      "arguments": [
        "0xd437e2E102E1CE9A8aD24AE37a6f2A3D608868e7"
      ],
      "transaction": {
        "from": "0xefbbd14082cf2fbcf5badc7ee619f0f4e36d0a5b",
        "to": "0x58ea7a743acec6061bf8318922d72003611044ee",
        "gas": "0x1f7ed",
        "value": "0x0",
        "input": "0xdaea85c5000000000000000000000000d437e2e102e1ce9a8ad24ae37a6f2a3d608868e7",
        "nonce": "0x547",
        "chainId": "0x13882"
      },
      "additionalContracts": [],
      "isFixedGasLimit": false
    }
  ],
  "receipts": [
    {
      "status": "0x1",
      "cumulativeGasUsed": "0x41b3f",
      "logs": [
        {
          "address": "0xd437e2e102e1ce9a8ad24ae37a6f2a3d608868e7",
          "topics": [
            "0x1cf3b03a6cf19fa2baba4df148e9dcabedea7f8a5c07840e207e5c089be95d3e",
            "0x00000000000000000000000055ab7c5a26b6afe6a49e3514ee96e04eabaefe11"
          ],
          "data": "0x",
          "blockHash": "0x398529331811169c032d90e2bda6f4106f13ccab9e42f6e47f33b05631899dbb",
          "blockNumber": "0xdc256a",
          "transactionHash": "0x16d7f681bf841273ede1bbca2731feaf9d80267b0b01530e5c5d427cc64f6fdf",
          "transactionIndex": "0x0",
          "logIndex": "0x0",
          "removed": false
        },
        {
          "address": "0xd437e2e102e1ce9a8ad24ae37a6f2a3d608868e7",
          "topics": [
            "0x8be0079c531659141344cd1fd0a4f28419497f9722a3daafe3b4186f6b6457e0",
            "0x0000000000000000000000000000000000000000000000000000000000000000",
            "0x000000000000000000000000efbbd14082cf2fbcf5badc7ee619f0f4e36d0a5b"
          ],
          "data": "0x",
          "blockHash": "0x398529331811169c032d90e2bda6f4106f13ccab9e42f6e47f33b05631899dbb",
          "blockNumber": "0xdc256a",
          "transactionHash": "0x16d7f681bf841273ede1bbca2731feaf9d80267b0b01530e5c5d427cc64f6fdf",
          "transactionIndex": "0x0",
          "logIndex": "0x1",
          "removed": false
        },
        {
          "address": "0xd437e2e102e1ce9a8ad24ae37a6f2a3d608868e7",
          "topics": [
            "0xc7f505b2f371ae2175ee4913f4499e1f2633a7b5936321eed1cdaeb6115181d2"
          ],
          "data": "0x0000000000000000000000000000000000000000000000000000000000000001",
          "blockHash": "0x398529331811169c032d90e2bda6f4106f13ccab9e42f6e47f33b05631899dbb",
          "blockNumber": "0xdc256a",
          "transactionHash": "0x16d7f681bf841273ede1bbca2731feaf9d80267b0b01530e5c5d427cc64f6fdf",
          "transactionIndex": "0x0",
          "logIndex": "0x2",
          "removed": false
        },
        {
          "address": "0x55ab7c5a26b6afe6a49e3514ee96e04eabaefe11",
          "topics": [
            "0x4a7bba0e1c21f3684678b259c49028d8cca5e0c5a2b43eba286ada7d196c8bfb",
            "0x000000000000000000000000d437e2e102e1ce9a8ad24ae37a6f2a3d608868e7"
          ],
          "data": "0x0000000000000000000000000000000000000000000000000000000000000020000000000000000000000000000000000000000000000000000000000000001e68747470733a2f2f677561726469616e2e776174636869742e6d6f7669650000",
          "blockHash": "0x398529331811169c032d90e2bda6f4106f13ccab9e42f6e47f33b05631899dbb",
          "blockNumber": "0xdc256a",
          "transactionHash": "0x16d7f681bf841273ede1bbca2731feaf9d80267b0b01530e5c5d427cc64f6fdf",
          "transactionIndex": "0x0",
          "logIndex": "0x3",
          "removed": false
        },
        {
          "address": "0x0000000000000000000000000000000000001010",
          "topics": [
            "0x4dfe1bbbcf077ddc3e01291eea2d5c70c2b422b415d95645b9adcfd678cb1d63",
            "0x0000000000000000000000000000000000000000000000000000000000001010",
            "0x000000000000000000000000efbbd14082cf2fbcf5badc7ee619f0f4e36d0a5b",
            "0x0000000000000000000000006ab3d36c46ecfb9b9c0bd51cb1c3da5a2c81cea6"
          ],
          "data": "0x00000000000000000000000000000000000000000000000000263e7dffa6d74f000000000000000000000000000000000000000000000000357f1bcefbdb8036000000000000000000000000000000000000000000000386102fdfd8e3c18d670000000000000000000000000000000000000000000000003558dd50fc34a8e700000000000000000000000000000000000000000000038610561e56e36864b6",
          "blockHash": "0x398529331811169c032d90e2bda6f4106f13ccab9e42f6e47f33b05631899dbb",
          "blockNumber": "0xdc256a",
          "transactionHash": "0x16d7f681bf841273ede1bbca2731feaf9d80267b0b01530e5c5d427cc64f6fdf",
          "transactionIndex": "0x0",
          "logIndex": "0x4",
          "removed": false
        }
      ],
      "logsBloom": "0x00000000080000000000000400000000000000001000000000800000000000020000000000000000000000000000000000008000000000000000000000000000008000080000000000080000001000800001000000000000010100000000000000000000020000000000000000000800000000000000000080000000000000400840000000000000000800000000080000000000000080000000200000000000220000000000000004000000000000000000400000000000000000000000004000000000000000000001000000000200000000010004000000900000000020020000000000000000100000000000000000000040000000000200000100100000",
      "type": "0x2",
      "transactionHash": "0x16d7f681bf841273ede1bbca2731feaf9d80267b0b01530e5c5d427cc64f6fdf",
      "transactionIndex": "0x0",
      "blockHash": "0x398529331811169c032d90e2bda6f4106f13ccab9e42f6e47f33b05631899dbb",
      "blockNumber": "0xdc256a",
      "gasUsed": "0x41b3f",
      "effectiveGasPrice": "0x9502f9000",
      "from": "0xefbbd14082cf2fbcf5badc7ee619f0f4e36d0a5b",
      "to": "0x55ab7c5a26b6afe6a49e3514ee96e04eabaefe11",
      "contractAddress": null
    },
    {
      "status": "0x1",
      "cumulativeGasUsed": "0xb3bb",
      "logs": [
        {
          "address": "0x379f6d7fa5480a98bf89f417a6335747e0a51a35",
          "topics": [
            "0x8c5be1e5ebec7d5bd14f71427d1e84f3dd0314c0f7b2291e5b200ac8c7c3b925",
            "0x000000000000000000000000efbbd14082cf2fbcf5badc7ee619f0f4e36d0a5b",
            "0x00000000000000000000000058ea7a743acec6061bf8318922d72003611044ee"
          ],
          "data": "0x0000000000000000000000000000000000000000000000056bc75e2d63100000",
          "blockHash": "0x72720a6a6a243059462044d57effd2112649d9f9b936cecd3ce2e49acddb9a5e",
          "blockNumber": "0xdc256d",
          "transactionHash": "0x8d52587d029d06974170a64907ad6f7b5ee6982edbf12d0d35f71e245a77339a",
          "transactionIndex": "0x0",
          "logIndex": "0x0",
          "removed": false
        },
        {
          "address": "0x0000000000000000000000000000000000001010",
          "topics": [
            "0x4dfe1bbbcf077ddc3e01291eea2d5c70c2b422b415d95645b9adcfd678cb1d63",
            "0x0000000000000000000000000000000000000000000000000000000000001010",
            "0x000000000000000000000000efbbd14082cf2fbcf5badc7ee619f0f4e36d0a5b",
            "0x0000000000000000000000006ab3d36c46ecfb9b9c0bd51cb1c3da5a2c81cea6"
          ],
          "data": "0x000000000000000000000000000000000000000000000000000689ded463a80b0000000000000000000000000000000000000000000000003558dd50fbf7103600000000000000000000000000000000000000000000038610a9bf14a8fe2385000000000000000000000000000000000000000000000000355253722793682b00000000000000000000000000000000000000000000038610b048f37d61cb90",
          "blockHash": "0x72720a6a6a243059462044d57effd2112649d9f9b936cecd3ce2e49acddb9a5e",
          "blockNumber": "0xdc256d",
          "transactionHash": "0x8d52587d029d06974170a64907ad6f7b5ee6982edbf12d0d35f71e245a77339a",
          "transactionIndex": "0x0",
          "logIndex": "0x1",
          "removed": false
        }
      ],
      "logsBloom": "0x00000000080000000000000000000000000000000200000000000000000000000000002000000000000000000000000000008000000000000000000000200000008000080000000000000000000000800080000000000000000100000000000000000000000000000000000000000080000000000000000080000000000000000800000000000000200000000000000000000000000000000000000000000000220000000000000000000000000000000000400000000000000000001000004000000000000000000001000000000000000000010000000000100000000000000010000000000000000000000000000000000000000000000000000000100000",
      "type": "0x2",
      "transactionHash": "0x8d52587d029d06974170a64907ad6f7b5ee6982edbf12d0d35f71e245a77339a",
      "transactionIndex": "0x0",
      "blockHash": "0x72720a6a6a243059462044d57effd2112649d9f9b936cecd3ce2e49acddb9a5e",
      "blockNumber": "0xdc256d",
      "gasUsed": "0xb3bb",
      "effectiveGasPrice": "0x9502f9000",
      "from": "0xefbbd14082cf2fbcf5badc7ee619f0f4e36d0a5b",
      "to": "0x379f6d7fa5480a98bf89f417a6335747e0a51a35",
      "contractAddress": null
    },
    {
      "status": "0x1",
      "cumulativeGasUsed": "0x4298c",
      "logs": [
        {
          "address": "0x379f6d7fa5480a98bf89f417a6335747e0a51a35",
          "topics": [
            "0xddf252ad1be2c89b69c2b068fc378daa952ba7f163c4a11628f55a4df523b3ef",
            "0x000000000000000000000000efbbd14082cf2fbcf5badc7ee619f0f4e36d0a5b",
            "0x00000000000000000000000058ea7a743acec6061bf8318922d72003611044ee"
          ],
          "data": "0x0000000000000000000000000000000000000000000000056bc75e2d63100000",
          "blockHash": "0xe414055d1aeda53e2ed9e174ae2a0291781e4fcad0aa220054cc93199d7cd5d2",
          "blockNumber": "0xdc256f",
          "transactionHash": "0xb75ffe443e20541d55dc58e9df4e2938d06aabaf923a91184f79b5b50846e190",
          "transactionIndex": "0x1",
          "logIndex": "0x3",
          "removed": false
        },
        {
          "address": "0x58ea7a743acec6061bf8318922d72003611044ee",
          "topics": [
            "0xcda33a906ffa8a5f960826827500581f4613a5db7a84b250433e0d591a630938",
            "0x000000000000000000000000d437e2e102e1ce9a8ad24ae37a6f2a3d608868e7"
          ],
          "data": "0x0000000000000000000000000000000000000000000000000000000067364e5c0000000000000000000000000000000000000000000000056bc75e2d63100000",
          "blockHash": "0xe414055d1aeda53e2ed9e174ae2a0291781e4fcad0aa220054cc93199d7cd5d2",
          "blockNumber": "0xdc256f",
          "transactionHash": "0xb75ffe443e20541d55dc58e9df4e2938d06aabaf923a91184f79b5b50846e190",
          "transactionIndex": "0x1",
          "logIndex": "0x4",
          "removed": false
        },
        {
          "address": "0x0000000000000000000000000000000000001010",
          "topics": [
            "0x4dfe1bbbcf077ddc3e01291eea2d5c70c2b422b415d95645b9adcfd678cb1d63",
            "0x0000000000000000000000000000000000000000000000000000000000001010",
            "0x000000000000000000000000efbbd14082cf2fbcf5badc7ee619f0f4e36d0a5b",
            "0x0000000000000000000000006ab3d36c46ecfb9b9c0bd51cb1c3da5a2c81cea6"
          ],
          "data": "0x000000000000000000000000000000000000000000000000001754c2c6a68c32000000000000000000000000000000000000000000000000355253722788e03600000000000000000000000000000000000000000000038610d6dea190afaf2c000000000000000000000000000000000000000000000000353afeaf60e2540400000000000000000000000000000000000000000000038610ee336457563b5e",
          "blockHash": "0xe414055d1aeda53e2ed9e174ae2a0291781e4fcad0aa220054cc93199d7cd5d2",
          "blockNumber": "0xdc256f",
          "transactionHash": "0xb75ffe443e20541d55dc58e9df4e2938d06aabaf923a91184f79b5b50846e190",
          "transactionIndex": "0x1",
          "logIndex": "0x5",
          "removed": false
        }
      ],
      "logsBloom": "0x00000000080000000000000000000000000000000200000000000000000000020000002000000000000400000000000000008000000000000000000000000000008000080000000000000008000000800080000000000000000100000000000000000000000000000000000000000080000000000000000080000010000000000800000000000000200000000000000000000000000000000000000000000000200000000000000000000080000000000000400000000000000000801000004000000002000000000001000000000000000000010000000000100000000000000000000040000000400000000000000000000040000000000200000000100000",
      "type": "0x2",
      "transactionHash": "0xb75ffe443e20541d55dc58e9df4e2938d06aabaf923a91184f79b5b50846e190",
      "transactionIndex": "0x1",
      "blockHash": "0xe414055d1aeda53e2ed9e174ae2a0291781e4fcad0aa220054cc93199d7cd5d2",
      "blockNumber": "0xdc256f",
      "gasUsed": "0x28152",
      "effectiveGasPrice": "0x9502f9000",
      "from": "0xefbbd14082cf2fbcf5badc7ee619f0f4e36d0a5b",
      "to": "0x58ea7a743acec6061bf8318922d72003611044ee",
      "contractAddress": null
    },
    {
      "status": "0x1",
      "cumulativeGasUsed": "0x15891",
      "logs": [
        {
          "address": "0x58ea7a743acec6061bf8318922d72003611044ee",
          "topics": [
            "0xf13bfe0b6ec5df39265dccb0a01a09aa4162489c7a083dc6670bde0255d02ca7",
            "0x000000000000000000000000d437e2e102e1ce9a8ad24ae37a6f2a3d608868e7"
          ],
          "data": "0x0000000000000000000000000000000000000000000000000000000067364e62",
          "blockHash": "0xd16a4c845c26fe71ba3cc75aeeea19fb73c939ba407d6bc66e9d37636b4541e5",
          "blockNumber": "0xdc2571",
          "transactionHash": "0x37962cb358f594049e6df5fc18094ef18cc7fdca38ff2ccb8a5d82bc1ce9cd11",
          "transactionIndex": "0x0",
          "logIndex": "0x0",
          "removed": false
        },
        {
          "address": "0x0000000000000000000000000000000000001010",
          "topics": [
            "0x4dfe1bbbcf077ddc3e01291eea2d5c70c2b422b415d95645b9adcfd678cb1d63",
            "0x0000000000000000000000000000000000000000000000000000000000001010",
            "0x000000000000000000000000efbbd14082cf2fbcf5badc7ee619f0f4e36d0a5b",
            "0x000000000000000000000000bb583a9dde59ca64aaa14807f37a4c665c0d72c7"
          ],
          "data": "0x000000000000000000000000000000000000000000000000000c8906545c5f81000000000000000000000000000000000000000000000000353afeaf60bcc0360000000000000000000000000000000000000000000000fcc8819c9642db717b000000000000000000000000000000000000000000000000352e75a90c6060b50000000000000000000000000000000000000000000000fcc88e259c9737d0fc",
          "blockHash": "0xd16a4c845c26fe71ba3cc75aeeea19fb73c939ba407d6bc66e9d37636b4541e5",
          "blockNumber": "0xdc2571",
          "transactionHash": "0x37962cb358f594049e6df5fc18094ef18cc7fdca38ff2ccb8a5d82bc1ce9cd11",
          "transactionIndex": "0x0",
          "logIndex": "0x1",
          "removed": false
        }
      ],
      "logsBloom": "0x00000000000000000000000000000000000000000000000000000000000000020000000000000000002400000000000000008000000000000000000000000000008000000000000000000000000000800000000000000000000100000000000000000000000000000000000000000000000000000000000080000000000000000800000000000000000000000000000000000000000008000008000000000000208000000000000000000080000000000000400000000800000000800000004000000000000000000001000000000000000000000000000020100000000000000000000000000000000000000000000000000040000000000200000000100000",
      "type": "0x2",
      "transactionHash": "0x37962cb358f594049e6df5fc18094ef18cc7fdca38ff2ccb8a5d82bc1ce9cd11",
      "transactionIndex": "0x0",
      "blockHash": "0xd16a4c845c26fe71ba3cc75aeeea19fb73c939ba407d6bc66e9d37636b4541e5",
      "blockNumber": "0xdc2571",
      "gasUsed": "0x15891",
      "effectiveGasPrice": "0x9502f9000",
      "from": "0xefbbd14082cf2fbcf5badc7ee619f0f4e36d0a5b",
      "to": "0x58ea7a743acec6061bf8318922d72003611044ee",
      "contractAddress": null
    }
  ],
  "libraries": [],
  "pending": [],
  "returns": {},
  "timestamp": 1731612276,
  "chain": 80002,
  "commit": "bceebff"
}