{
  "transactions": [
    {
      "hash": "0x4f99bc8d7e4e415b2402f3d7e8567161d893f330275aa8beee36bd27fcb72b31",
      "transactionType": "CALL",
      "contractName": null,
      "contractAddress": "0xe1567d51b08950476a7a60bbac0cee0dd60bc15a",
      "function": "create(string)",
      "arguments": [
        "https://guardian.watchit.movie"
      ],
      "transaction": {
        "from": "0xefbbd14082cf2fbcf5badc7ee619f0f4e36d0a5b",
        "to": "0xe1567d51b08950476a7a60bbac0cee0dd60bc15a",
        "gas": "0x5ac07",
        "value": "0x0",
        "input": "0xb6a46b3b0000000000000000000000000000000000000000000000000000000000000020000000000000000000000000000000000000000000000000000000000000001e68747470733a2f2f677561726469616e2e776174636869742e6d6f7669650000",
        "nonce": "0x219",
        "chainId": "0x13882"
      },
      "additionalContracts": [
        {
          "transactionType": "CREATE",
          "address": "0xe76af36f68743f1f69b771a1dc8c4fb85f3b45df",
          "initCode": "0x60a08060405261050d80380380916100178285610292565b833981016040828203126101eb5761002e826102c9565b602083015190926001600160401b0382116101eb57019080601f830112156101eb57815161005b816102dd565b926100696040519485610292565b8184526020840192602083830101116101eb57815f926020809301855e84010152823b15610274577fa3f0ad74e5423aebfd80d3ef4346578335a9a72aeaee59ff6cb3582b35133d5080546001600160a01b0319166001600160a01b038516908117909155604051635c60da1b60e01b8152909190602081600481865afa9081156101f7575f9161023a575b50803b1561021a5750817f1cf3b03a6cf19fa2baba4df148e9dcabedea7f8a5c07840e207e5c089be95d3e5f80a282511561020257602060049260405193848092635c60da1b60e01b82525afa9182156101f7575f926101ae575b505f809161018a945190845af43d156101a6573d9161016e836102dd565b9261017c6040519485610292565b83523d5f602085013e6102f8565b505b6080526040516101b6908161035782396080518160460152f35b6060916102f8565b9291506020833d6020116101ef575b816101ca60209383610292565b810103126101eb575f80916101e161018a956102c9565b9394509150610150565b5f80fd5b3d91506101bd565b6040513d5f823e3d90fd5b505050341561018c5763b398979f60e01b5f5260045ffd5b634c9c8ce360e01b5f9081526001600160a01b0391909116600452602490fd5b90506020813d60201161026c575b8161025560209383610292565b810103126101eb57610266906102c9565b5f6100f5565b3d9150610248565b631933b43b60e21b5f9081526001600160a01b038416600452602490fd5b601f909101601f19168101906001600160401b038211908210176102b557604052565b634e487b7160e01b5f52604160045260245ffd5b51906001600160a01b03821682036101eb57565b6001600160401b0381116102b557601f01601f191660200190565b9061031c575080511561030d57805190602001fd5b63d6bda27560e01b5f5260045ffd5b8151158061034d575b61032d575090565b639996b31560e01b5f9081526001600160a01b0391909116600452602490fd5b50803b1561032556fe60806040527f5c60da1b000000000000000000000000000000000000000000000000000000006080526020608060048173ffffffffffffffffffffffffffffffffffffffff7f0000000000000000000000000000000000000000000000000000000000000000165afa8015610107575f9015610163575060203d602011610100575b7fffffffffffffffffffffffffffffffffffffffffffffffffffffffffffffffe0601f820116608001906080821067ffffffffffffffff8311176100d3576100ce91604052608001610112565b610163565b7f4e487b71000000000000000000000000000000000000000000000000000000005f52604160045260245ffd5b503d610081565b6040513d5f823e3d90fd5b7fffffffffffffffffffffffffffffffffffffffffffffffffffffffffffffff80602091011261015f5760805173ffffffffffffffffffffffffffffffffffffffff8116810361015f5790565b5f80fd5b5f8091368280378136915af43d5f803e1561017c573d5ff35b3d5ffdfea2646970667358221220ba12fbe3bfa5862e89ab9cc272207cb0def1826e3d3d54a2c21820d10ce9ec0e64736f6c634300081a0033000000000000000000000000e1567d51b08950476a7a60bbac0cee0dd60bc15a000000000000000000000000000000000000000000000000000000000000004000000000000000000000000000000000000000000000000000000000000000847ab4339d0000000000000000000000000000000000000000000000000000000000000040000000000000000000000000efbbd14082cf2fbcf5badc7ee619f0f4e36d0a5b000000000000000000000000000000000000000000000000000000000000001e68747470733a2f2f677561726469616e2e776174636869742e6d6f766965000000000000000000000000000000000000000000000000000000000000"
        }
      ],
      "isFixedGasLimit": false
    },
    {
      "hash": "0xffab218d394751d5d6b2b4613b64ce89eaa3af75ddd7b7391e32273ef41fadb4",
      "transactionType": "CALL",
      "contractName": null,
      "contractAddress": "0x2df22846461e0ea53240eb47fefbe0216c82be4e",
      "function": "approve(address,uint256)",
      "arguments": [
        "0xCd3530BF778f896529D97fDEB16cC1D38fF8d7e2",
        "100000000000000000000"
      ],
      "transaction": {
        "from": "0xefbbd14082cf2fbcf5badc7ee619f0f4e36d0a5b",
        "to": "0x2df22846461e0ea53240eb47fefbe0216c82be4e",
        "gas": "0x106da",
        "value": "0x0",
        "input": "0x095ea7b3000000000000000000000000cd3530bf778f896529d97fdeb16cc1d38ff8d7e20000000000000000000000000000000000000000000000056bc75e2d63100000",
        "nonce": "0x21a",
        "chainId": "0x13882"
      },
      "additionalContracts": [],
      "isFixedGasLimit": false
    },
    {
      "hash": "0x155b6e56428bbbb7616704c13327f070b32adaaa5f032a83c7e3fbada6a7d2f4",
      "transactionType": "CALL",
      "contractName": null,
      "contractAddress": "0xcd3530bf778f896529d97fdeb16cc1d38ff8d7e2",
      "function": "register(address,address)",
      "arguments": [
        "0xe76Af36F68743F1f69b771a1dc8C4Fb85f3B45df",
        "0x2dF22846461e0eA53240Eb47FeFbe0216C82BE4E"
      ],
      "transaction": {
        "from": "0xefbbd14082cf2fbcf5badc7ee619f0f4e36d0a5b",
        "to": "0xcd3530bf778f896529d97fdeb16cc1d38ff8d7e2",
        "gas": "0x3758d",
        "value": "0x0",
        "input": "0xaa677354000000000000000000000000e76af36f68743f1f69b771a1dc8c4fb85f3b45df0000000000000000000000002df22846461e0ea53240eb47fefbe0216c82be4e",
        "nonce": "0x21b",
        "chainId": "0x13882"
      },
      "additionalContracts": [],
      "isFixedGasLimit": false
    },
    {
      "hash": "0xb91b226c143f6d3af3f1764707a45cb34769af161ebe3c3149acf65c3c971697",
      "transactionType": "CALL",
      "contractName": null,
      "contractAddress": "0xcd3530bf778f896529d97fdeb16cc1d38ff8d7e2",
      "function": "approve(address)",
      "arguments": [
        "0xe76Af36F68743F1f69b771a1dc8C4Fb85f3B45df"
      ],
      "transaction": {
        "from": "0xefbbd14082cf2fbcf5badc7ee619f0f4e36d0a5b",
        "to": "0xcd3530bf778f896529d97fdeb16cc1d38ff8d7e2",
        "gas": "0x1baf3",
        "value": "0x0",
        "input": "0xdaea85c5000000000000000000000000e76af36f68743f1f69b771a1dc8c4fb85f3b45df",
        "nonce": "0x21c",
        "chainId": "0x13882"
      },
      "additionalContracts": [],
      "isFixedGasLimit": false
    }
  ],
  "receipts": [
    {
      "status": "0x1",
      "cumulativeGasUsed": "0x41b3f",
      "logs": [
        {
          "address": "0xe76af36f68743f1f69b771a1dc8c4fb85f3b45df",
          "topics": [
            "0x1cf3b03a6cf19fa2baba4df148e9dcabedea7f8a5c07840e207e5c089be95d3e",
            "0x000000000000000000000000e1567d51b08950476a7a60bbac0cee0dd60bc15a"
          ],
          "data": "0x",
          "blockHash": "0xdd3dd7035b3c11ea5adf72fa50ea6d81b7ffb0ae3bce14a726dd0d9c37abf384",
          "blockNumber": "0xd7dc95",
          "transactionHash": "0x4f99bc8d7e4e415b2402f3d7e8567161d893f330275aa8beee36bd27fcb72b31",
          "transactionIndex": "0x0",
          "logIndex": "0x0",
          "removed": false
        },
        {
          "address": "0xe76af36f68743f1f69b771a1dc8c4fb85f3b45df",
          "topics": [
            "0x8be0079c531659141344cd1fd0a4f28419497f9722a3daafe3b4186f6b6457e0",
            "0x0000000000000000000000000000000000000000000000000000000000000000",
            "0x000000000000000000000000efbbd14082cf2fbcf5badc7ee619f0f4e36d0a5b"
          ],
          "data": "0x",
          "blockHash": "0xdd3dd7035b3c11ea5adf72fa50ea6d81b7ffb0ae3bce14a726dd0d9c37abf384",
          "blockNumber": "0xd7dc95",
          "transactionHash": "0x4f99bc8d7e4e415b2402f3d7e8567161d893f330275aa8beee36bd27fcb72b31",
          "transactionIndex": "0x0",
          "logIndex": "0x1",
          "removed": false
        },
        {
          "address": "0xe76af36f68743f1f69b771a1dc8c4fb85f3b45df",
          "topics": [
            "0xc7f505b2f371ae2175ee4913f4499e1f2633a7b5936321eed1cdaeb6115181d2"
          ],
          "data": "0x0000000000000000000000000000000000000000000000000000000000000001",
          "blockHash": "0xdd3dd7035b3c11ea5adf72fa50ea6d81b7ffb0ae3bce14a726dd0d9c37abf384",
          "blockNumber": "0xd7dc95",
          "transactionHash": "0x4f99bc8d7e4e415b2402f3d7e8567161d893f330275aa8beee36bd27fcb72b31",
          "transactionIndex": "0x0",
          "logIndex": "0x2",
          "removed": false
        },
        {
          "address": "0xe1567d51b08950476a7a60bbac0cee0dd60bc15a",
          "topics": [
            "0x4a7bba0e1c21f3684678b259c49028d8cca5e0c5a2b43eba286ada7d196c8bfb",
            "0x000000000000000000000000e76af36f68743f1f69b771a1dc8c4fb85f3b45df"
          ],
          "data": "0x0000000000000000000000000000000000000000000000000000000000000020000000000000000000000000000000000000000000000000000000000000001e68747470733a2f2f677561726469616e2e776174636869742e6d6f7669650000",
          "blockHash": "0xdd3dd7035b3c11ea5adf72fa50ea6d81b7ffb0ae3bce14a726dd0d9c37abf384",
          "blockNumber": "0xd7dc95",
          "transactionHash": "0x4f99bc8d7e4e415b2402f3d7e8567161d893f330275aa8beee36bd27fcb72b31",
          "transactionIndex": "0x0",
          "logIndex": "0x3",
          "removed": false
        },
        {
          "address": "0x0000000000000000000000000000000000001010",
          "topics": [
            "0x4dfe1bbbcf077ddc3e01291eea2d5c70c2b422b415d95645b9adcfd678cb1d63",
            "0x0000000000000000000000000000000000000000000000000000000000001010",
            "0x000000000000000000000000efbbd14082cf2fbcf5badc7ee619f0f4e36d0a5b",
            "0x0000000000000000000000004631753190f2f5a15a7ba172bbac102b7d95fa22"
          ],
          "data": "0x00000000000000000000000000000000000000000000000000ea8b1c28c6825a0000000000000000000000000000000000000000000000002f9bf35f62c901f00000000000000000000000000000000000000000000002b8941dc18745ba6d330000000000000000000000000000000000000000000000002eb168433a027f960000000000000000000000000000000000000000000002b895084ca36e80ef8d",
          "blockHash": "0xdd3dd7035b3c11ea5adf72fa50ea6d81b7ffb0ae3bce14a726dd0d9c37abf384",
          "blockNumber": "0xd7dc95",
          "transactionHash": "0x4f99bc8d7e4e415b2402f3d7e8567161d893f330275aa8beee36bd27fcb72b31",
          "transactionIndex": "0x0",
          "logIndex": "0x4",
          "removed": false
        }
      ],
      "logsBloom": "0x00000000000008000000000400000000000000002000000000800000000000000200000400000000000000000000000000008000000000000000000050000000008000000000100000000000001000800001000000000000010108000000000000000000020000100000000000000800000000000000000080000000000000400800000000000000080800000000080000000000000080000000200000000000200000000000000000000000000000000000400000000000000000000000004000000000000000000201000000000004000000000004000000900000000020000000000040000001100000000000000000000000000000000000000000100000",
      "type": "0x2",
      "transactionHash": "0x4f99bc8d7e4e415b2402f3d7e8567161d893f330275aa8beee36bd27fcb72b31",
      "transactionIndex": "0x0",
      "blockHash": "0xdd3dd7035b3c11ea5adf72fa50ea6d81b7ffb0ae3bce14a726dd0d9c37abf384",
      "blockNumber": "0xd7dc95",
      "gasUsed": "0x41b3f",
      "effectiveGasPrice": "0x391dbac935",
      "from": "0xefbbd14082cf2fbcf5badc7ee619f0f4e36d0a5b",
      "to": "0xe1567d51b08950476a7a60bbac0cee0dd60bc15a",
      "contractAddress": null
    },
    {
      "status": "0x1",
      "cumulativeGasUsed": "0x4cefa",
      "logs": [
        {
          "address": "0x2df22846461e0ea53240eb47fefbe0216c82be4e",
          "topics": [
            "0x8c5be1e5ebec7d5bd14f71427d1e84f3dd0314c0f7b2291e5b200ac8c7c3b925",
            "0x000000000000000000000000efbbd14082cf2fbcf5badc7ee619f0f4e36d0a5b",
            "0x000000000000000000000000cd3530bf778f896529d97fdeb16cc1d38ff8d7e2"
          ],
          "data": "0x0000000000000000000000000000000000000000000000056bc75e2d63100000",
          "blockHash": "0xdd3dd7035b3c11ea5adf72fa50ea6d81b7ffb0ae3bce14a726dd0d9c37abf384",
          "blockNumber": "0xd7dc95",
          "transactionHash": "0xffab218d394751d5d6b2b4613b64ce89eaa3af75ddd7b7391e32273ef41fadb4",
          "transactionIndex": "0x1",
          "logIndex": "0x5",
          "removed": false
        },
        {
          "address": "0x0000000000000000000000000000000000001010",
          "topics": [
            "0x4dfe1bbbcf077ddc3e01291eea2d5c70c2b422b415d95645b9adcfd678cb1d63",
            "0x0000000000000000000000000000000000000000000000000000000000001010",
            "0x000000000000000000000000efbbd14082cf2fbcf5badc7ee619f0f4e36d0a5b",
            "0x0000000000000000000000004631753190f2f5a15a7ba172bbac102b7d95fa22"
          ],
          "data": "0x00000000000000000000000000000000000000000000000000281982521680c20000000000000000000000000000000000000000000000002eb1684339c4e6e50000000000000000000000000000000000000000000002b895084ca36e80ef8d0000000000000000000000000000000000000000000000002e894ec0e7ae66230000000000000000000000000000000000000000000002b895306625c097704f",
          "blockHash": "0xdd3dd7035b3c11ea5adf72fa50ea6d81b7ffb0ae3bce14a726dd0d9c37abf384",
          "blockNumber": "0xd7dc95",
          "transactionHash": "0xffab218d394751d5d6b2b4613b64ce89eaa3af75ddd7b7391e32273ef41fadb4",
          "transactionIndex": "0x1",
          "logIndex": "0x6",
          "removed": false
        }
      ],
      "logsBloom": "0x00000000000000000000000000080000000000002000000000000000000000000000000000000000000000000000000000008000000000000000000040200000008000000000000000000000000000800000000000000000000100000000000000000000000000100000000000000000000000000000000080000000000000000800000040000200000000000004000000000000000000000000000000000000220000000000000000000000000000000000400000000000000000000000014000000000000000000001000000000000000000000000000000100000000000000010000000000000000000000000000004000000000000000000000000100000",
      "type": "0x2",
      "transactionHash": "0xffab218d394751d5d6b2b4613b64ce89eaa3af75ddd7b7391e32273ef41fadb4",
      "transactionIndex": "0x1",
      "blockHash": "0xdd3dd7035b3c11ea5adf72fa50ea6d81b7ffb0ae3bce14a726dd0d9c37abf384",
      "blockNumber": "0xd7dc95",
      "gasUsed": "0xb3bb",
      "effectiveGasPrice": "0x391dbac935",
      "from": "0xefbbd14082cf2fbcf5badc7ee619f0f4e36d0a5b",
      "to": "0x2df22846461e0ea53240eb47fefbe0216c82be4e",
      "contractAddress": null
    },
    {
      "status": "0x1",
      "cumulativeGasUsed": "0x7501a",
      "logs": [
        {
          "address": "0x2df22846461e0ea53240eb47fefbe0216c82be4e",
          "topics": [
            "0xddf252ad1be2c89b69c2b068fc378daa952ba7f163c4a11628f55a4df523b3ef",
            "0x000000000000000000000000efbbd14082cf2fbcf5badc7ee619f0f4e36d0a5b",
            "0x000000000000000000000000cd3530bf778f896529d97fdeb16cc1d38ff8d7e2"
          ],
          "data": "0x0000000000000000000000000000000000000000000000056bc75e2d63100000",
          "blockHash": "0xdd3dd7035b3c11ea5adf72fa50ea6d81b7ffb0ae3bce14a726dd0d9c37abf384",
          "blockNumber": "0xd7dc95",
          "transactionHash": "0x155b6e56428bbbb7616704c13327f070b32adaaa5f032a83c7e3fbada6a7d2f4",
          "transactionIndex": "0x2",
          "logIndex": "0x7",
          "removed": false
        },
        {
          "address": "0xcd3530bf778f896529d97fdeb16cc1d38ff8d7e2",
          "topics": [
            "0xcda33a906ffa8a5f960826827500581f4613a5db7a84b250433e0d591a630938",
            "0x000000000000000000000000e76af36f68743f1f69b771a1dc8c4fb85f3b45df"
          ],
          "data": "0x00000000000000000000000000000000000000000000000000000000672d215e0000000000000000000000000000000000000000000000056bc75e2d63100000",
          "blockHash": "0xdd3dd7035b3c11ea5adf72fa50ea6d81b7ffb0ae3bce14a726dd0d9c37abf384",
          "blockNumber": "0xd7dc95",
          "transactionHash": "0x155b6e56428bbbb7616704c13327f070b32adaaa5f032a83c7e3fbada6a7d2f4",
          "transactionIndex": "0x2",
          "logIndex": "0x8",
          "removed": false
        },
        {
          "address": "0x0000000000000000000000000000000000001010",
          "topics": [
            "0x4dfe1bbbcf077ddc3e01291eea2d5c70c2b422b415d95645b9adcfd678cb1d63",
            "0x0000000000000000000000000000000000000000000000000000000000001010",
            "0x000000000000000000000000efbbd14082cf2fbcf5badc7ee619f0f4e36d0a5b",
            "0x0000000000000000000000004631753190f2f5a15a7ba172bbac102b7d95fa22"
          ],
          "data": "0x000000000000000000000000000000000000000000000000008f0a9469014ac00000000000000000000000000000000000000000000000002e894ec0e7a3de2e0000000000000000000000000000000000000000000002b895306625c097704f0000000000000000000000000000000000000000000000002dfa442c7ea2936e0000000000000000000000000000000000000000000002b895bf70ba2998bb0f",
          "blockHash": "0xdd3dd7035b3c11ea5adf72fa50ea6d81b7ffb0ae3bce14a726dd0d9c37abf384",
          "blockNumber": "0xd7dc95",
          "transactionHash": "0x155b6e56428bbbb7616704c13327f070b32adaaa5f032a83c7e3fbada6a7d2f4",
          "transactionIndex": "0x2",
          "logIndex": "0x9",
          "removed": false
        }
      ],
      "logsBloom": "0x00000000000000000000000000080000000800002000000000000000000000000000000400000000000000000000000000008000000000000000000040000000008000000000000000000008000000800000000002000000000100000000000000000000000000100000000000000000000000000000000080000010000000000800000040000200000000000004000000000020000000000000000000000000200000000000000000000000000000000000400000000000000000000000014000000002000000000001000000000000000000000000000000100000000000000000000040000001400000000000000004000000000000000000000000100000",
      "type": "0x2",
      "transactionHash": "0x155b6e56428bbbb7616704c13327f070b32adaaa5f032a83c7e3fbada6a7d2f4",
      "transactionIndex": "0x2",
      "blockHash": "0xdd3dd7035b3c11ea5adf72fa50ea6d81b7ffb0ae3bce14a726dd0d9c37abf384",
      "blockNumber": "0xd7dc95",
      "gasUsed": "0x28120",
      "effectiveGasPrice": "0x391dbac935",
      "from": "0xefbbd14082cf2fbcf5badc7ee619f0f4e36d0a5b",
      "to": "0xcd3530bf778f896529d97fdeb16cc1d38ff8d7e2",
      "contractAddress": null
    },
    {
      "status": "0x1",
      "cumulativeGasUsed": "0x890ca",
      "logs": [
        {
          "address": "0xcd3530bf778f896529d97fdeb16cc1d38ff8d7e2",
          "topics": [
            "0xf13bfe0b6ec5df39265dccb0a01a09aa4162489c7a083dc6670bde0255d02ca7",
            "0x000000000000000000000000e76af36f68743f1f69b771a1dc8c4fb85f3b45df"
          ],
          "data": "0x00000000000000000000000000000000000000000000000000000000672d215e",
          "blockHash": "0xdd3dd7035b3c11ea5adf72fa50ea6d81b7ffb0ae3bce14a726dd0d9c37abf384",
          "blockNumber": "0xd7dc95",
          "transactionHash": "0xb91b226c143f6d3af3f1764707a45cb34769af161ebe3c3149acf65c3c971697",
          "transactionIndex": "0x3",
          "logIndex": "0xa",
          "removed": false
        },
        {
          "address": "0x0000000000000000000000000000000000001010",
          "topics": [
            "0x4dfe1bbbcf077ddc3e01291eea2d5c70c2b422b415d95645b9adcfd678cb1d63",
            "0x0000000000000000000000000000000000000000000000000000000000001010",
            "0x000000000000000000000000efbbd14082cf2fbcf5badc7ee619f0f4e36d0a5b",
            "0x0000000000000000000000004631753190f2f5a15a7ba172bbac102b7d95fa22"
          ],
          "data": "0x00000000000000000000000000000000000000000000000000478c6debd9ca200000000000000000000000000000000000000000000000002dfa442c7e7d028e0000000000000000000000000000000000000000000002b895bf70ba2998bb0f0000000000000000000000000000000000000000000000002db2b7be92a3386e0000000000000000000000000000000000000000000002b89606fd281572852f",
          "blockHash": "0xdd3dd7035b3c11ea5adf72fa50ea6d81b7ffb0ae3bce14a726dd0d9c37abf384",
          "blockNumber": "0xd7dc95",
          "transactionHash": "0xb91b226c143f6d3af3f1764707a45cb34769af161ebe3c3149acf65c3c971697",
          "transactionIndex": "0x3",
          "logIndex": "0xb",
          "removed": false
        }
      ],
      "logsBloom": "0x00000000000000000000000000000000000800002000000000000000000000000000000400000000000000000000000000008000000000000000000040000000008000000000000000000000000000800000000002000000000100000000000000000000000000100000000000000000000000000000000080000000000000000800000000000000000000000000000000000020000008000000000000000000200000000000000000000000000000000000400000000800000000000000004000000000000000000001000000000000000000000000000020100000000000000000000040000001000000000000000000000000000000000000000000100000",
      "type": "0x2",
      "transactionHash": "0xb91b226c143f6d3af3f1764707a45cb34769af161ebe3c3149acf65c3c971697",
      "transactionIndex": "0x3",
      "blockHash": "0xdd3dd7035b3c11ea5adf72fa50ea6d81b7ffb0ae3bce14a726dd0d9c37abf384",
      "blockNumber": "0xd7dc95",
      "gasUsed": "0x140b0",
      "effectiveGasPrice": "0x391dbac935",
      "from": "0xefbbd14082cf2fbcf5badc7ee619f0f4e36d0a5b",
      "to": "0xcd3530bf778f896529d97fdeb16cc1d38ff8d7e2",
      "contractAddress": null
    }
  ],
  "libraries": [],
  "pending": [],
  "returns": {},
  "timestamp": 1731010929,
  "chain": 80002,
  "commit": "8188dcb"
}