{
  "transactions": [
    {
      "hash": "0xa871ba3d4ddb221f33f5473a8baa2c2d3ce7527711eb0fdeded5086158ef0300",
      "transactionType": "CALL",
      "contractName": null,
      "contractAddress": "0x19dc8b180b27ef70b8a65a46627e5fbd4eb22b4e",
      "function": "create(string)",
      "arguments": [
        "https://guardian.watchit.movie"
      ],
      "transaction": {
        "from": "0xefbbd14082cf2fbcf5badc7ee619f0f4e36d0a5b",
        "to": "0x19dc8b180b27ef70b8a65a46627e5fbd4eb22b4e",
        "gas": "0x5ac07",
        "value": "0x0",
        "input": "0xb6a46b3b0000000000000000000000000000000000000000000000000000000000000020000000000000000000000000000000000000000000000000000000000000001e68747470733a2f2f677561726469616e2e776174636869742e6d6f7669650000",
        "nonce": "0x59f",
        "chainId": "0x13882"
      },
      "additionalContracts": [
        {
          "transactionType": "CREATE",
          "address": "0xc77b5af331b8276fc2c0ba9e6436d4c2698e7c41",
          "initCode": "0x60a08060405261050d80380380916100178285610292565b833981016040828203126101eb5761002e826102c9565b602083015190926001600160401b0382116101eb57019080601f830112156101eb57815161005b816102dd565b926100696040519485610292565b8184526020840192602083830101116101eb57815f926020809301855e84010152823b15610274577fa3f0ad74e5423aebfd80d3ef4346578335a9a72aeaee59ff6cb3582b35133d5080546001600160a01b0319166001600160a01b038516908117909155604051635c60da1b60e01b8152909190602081600481865afa9081156101f7575f9161023a575b50803b1561021a5750817f1cf3b03a6cf19fa2baba4df148e9dcabedea7f8a5c07840e207e5c089be95d3e5f80a282511561020257602060049260405193848092635c60da1b60e01b82525afa9182156101f7575f926101ae575b505f809161018a945190845af43d156101a6573d9161016e836102dd565b9261017c6040519485610292565b83523d5f602085013e6102f8565b505b6080526040516101b6908161035782396080518160460152f35b6060916102f8565b9291506020833d6020116101ef575b816101ca60209383610292565b810103126101eb575f80916101e161018a956102c9565b9394509150610150565b5f80fd5b3d91506101bd565b6040513d5f823e3d90fd5b505050341561018c5763b398979f60e01b5f5260045ffd5b634c9c8ce360e01b5f9081526001600160a01b0391909116600452602490fd5b90506020813d60201161026c575b8161025560209383610292565b810103126101eb57610266906102c9565b5f6100f5565b3d9150610248565b631933b43b60e21b5f9081526001600160a01b038416600452602490fd5b601f909101601f19168101906001600160401b038211908210176102b557604052565b634e487b7160e01b5f52604160045260245ffd5b51906001600160a01b03821682036101eb57565b6001600160401b0381116102b557601f01601f191660200190565b9061031c575080511561030d57805190602001fd5b63d6bda27560e01b5f5260045ffd5b8151158061034d575b61032d575090565b639996b31560e01b5f9081526001600160a01b0391909116600452602490fd5b50803b1561032556fe60806040527f5c60da1b000000000000000000000000000000000000000000000000000000006080526020608060048173ffffffffffffffffffffffffffffffffffffffff7f0000000000000000000000000000000000000000000000000000000000000000165afa8015610107575f9015610163575060203d602011610100575b7fffffffffffffffffffffffffffffffffffffffffffffffffffffffffffffffe0601f820116608001906080821067ffffffffffffffff8311176100d3576100ce91604052608001610112565b610163565b7f4e487b71000000000000000000000000000000000000000000000000000000005f52604160045260245ffd5b503d610081565b6040513d5f823e3d90fd5b7fffffffffffffffffffffffffffffffffffffffffffffffffffffffffffffff80602091011261015f5760805173ffffffffffffffffffffffffffffffffffffffff8116810361015f5790565b5f80fd5b5f8091368280378136915af43d5f803e1561017c573d5ff35b3d5ffdfea26469706673582212208804cf59bdd18c3a0f888485dc336bd287dab018b52c45cd44e551ff35033d8d64736f6c634300081a003300000000000000000000000019dc8b180b27ef70b8a65a46627e5fbd4eb22b4e000000000000000000000000000000000000000000000000000000000000004000000000000000000000000000000000000000000000000000000000000000847ab4339d0000000000000000000000000000000000000000000000000000000000000040000000000000000000000000efbbd14082cf2fbcf5badc7ee619f0f4e36d0a5b000000000000000000000000000000000000000000000000000000000000001e68747470733a2f2f677561726469616e2e776174636869742e6d6f766965000000000000000000000000000000000000000000000000000000000000"
        }
      ],
      "isFixedGasLimit": false
    },
    {
      "hash": "0x174aa0dd94826a7a3c1560df28105070b7564a1d137c310729f051952ac52ff2",
      "transactionType": "CALL",
      "contractName": null,
      "contractAddress": "0xbd4f590d228bb3a745ec5feb049ddf6eda82eb20",
      "function": "approve(address,uint256)",
      "arguments": [
        "0xa84CAD70235E55632CA7292f67EF0Ce1A45C39b9",
        "100000000000000000000"
      ],
      "transaction": {
        "from": "0xefbbd14082cf2fbcf5badc7ee619f0f4e36d0a5b",
        "to": "0xbd4f590d228bb3a745ec5feb049ddf6eda82eb20",
        "gas": "0x106da",
        "value": "0x0",
        "input": "0x095ea7b3000000000000000000000000a84cad70235e55632ca7292f67ef0ce1a45c39b90000000000000000000000000000000000000000000000056bc75e2d63100000",
        "nonce": "0x5a0",
        "chainId": "0x13882"
      },
      "additionalContracts": [],
      "isFixedGasLimit": false
    },
    {
      "hash": "0xc2d729500b3e48024f96d8f364e4f886c83531af4ceda7d1e19ed8ea7d6148dd",
      "transactionType": "CALL",
      "contractName": null,
      "contractAddress": "0xa84cad70235e55632ca7292f67ef0ce1a45c39b9",
      "function": "register(address,address)",
      "arguments": [
        "0xC77B5AF331B8276Fc2c0Ba9e6436D4c2698E7C41",
        "0xbd4f590D228BB3A745Ec5feb049DDf6EdA82EB20"
      ],
      "transaction": {
        "from": "0xefbbd14082cf2fbcf5badc7ee619f0f4e36d0a5b",
        "to": "0xa84cad70235e55632ca7292f67ef0ce1a45c39b9",
        "gas": "0x3a9ee",
        "value": "0x0",
        "input": "0xaa677354000000000000000000000000c77b5af331b8276fc2c0ba9e6436d4c2698e7c41000000000000000000000000bd4f590d228bb3a745ec5feb049ddf6eda82eb20",
        "nonce": "0x5a1",
        "chainId": "0x13882"
      },
      "additionalContracts": [],
      "isFixedGasLimit": false
    },
    {
      "hash": "0x0e9a87564b1798a6a06ff949db08e4342c986127e87462c55aacc51a7e824699",
      "transactionType": "CALL",
      "contractName": null,
      "contractAddress": "0xa84cad70235e55632ca7292f67ef0ce1a45c39b9",
      "function": "approve(address)",
      "arguments": [
        "0xC77B5AF331B8276Fc2c0Ba9e6436D4c2698E7C41"
      ],
      "transaction": {
        "from": "0xefbbd14082cf2fbcf5badc7ee619f0f4e36d0a5b",
        "to": "0xa84cad70235e55632ca7292f67ef0ce1a45c39b9",
        "gas": "0x1f7ed",
        "value": "0x0",
        "input": "0xdaea85c5000000000000000000000000c77b5af331b8276fc2c0ba9e6436d4c2698e7c41",
        "nonce": "0x5a2",
        "chainId": "0x13882"
      },
      "additionalContracts": [],
      "isFixedGasLimit": false
    }
  ],
  "receipts": [
    {
      "status": "0x1",
      "cumulativeGasUsed": "0x5c379",
      "logs": [
        {
          "address": "0xc77b5af331b8276fc2c0ba9e6436d4c2698e7c41",
          "topics": [
            "0x1cf3b03a6cf19fa2baba4df148e9dcabedea7f8a5c07840e207e5c089be95d3e",
            "0x00000000000000000000000019dc8b180b27ef70b8a65a46627e5fbd4eb22b4e"
          ],
          "data": "0x",
          "blockHash": "0x86153c8a1235bc46196fe28ee7f61f8bd074eec305dcdd70c380c7947c8e553a",
          "blockNumber": "0xdc3a7e",
          "transactionHash": "0xa871ba3d4ddb221f33f5473a8baa2c2d3ce7527711eb0fdeded5086158ef0300",
          "transactionIndex": "0x1",
          "logIndex": "0x3",
          "removed": false
        },
        {
          "address": "0xc77b5af331b8276fc2c0ba9e6436d4c2698e7c41",
          "topics": [
            "0x8be0079c531659141344cd1fd0a4f28419497f9722a3daafe3b4186f6b6457e0",
            "0x0000000000000000000000000000000000000000000000000000000000000000",
            "0x000000000000000000000000efbbd14082cf2fbcf5badc7ee619f0f4e36d0a5b"
          ],
          "data": "0x",
          "blockHash": "0x86153c8a1235bc46196fe28ee7f61f8bd074eec305dcdd70c380c7947c8e553a",
          "blockNumber": "0xdc3a7e",
          "transactionHash": "0xa871ba3d4ddb221f33f5473a8baa2c2d3ce7527711eb0fdeded5086158ef0300",
          "transactionIndex": "0x1",
          "logIndex": "0x4",
          "removed": false
        },
        {
          "address": "0xc77b5af331b8276fc2c0ba9e6436d4c2698e7c41",
          "topics": [
            "0xc7f505b2f371ae2175ee4913f4499e1f2633a7b5936321eed1cdaeb6115181d2"
          ],
          "data": "0x0000000000000000000000000000000000000000000000000000000000000001",
          "blockHash": "0x86153c8a1235bc46196fe28ee7f61f8bd074eec305dcdd70c380c7947c8e553a",
          "blockNumber": "0xdc3a7e",
          "transactionHash": "0xa871ba3d4ddb221f33f5473a8baa2c2d3ce7527711eb0fdeded5086158ef0300",
          "transactionIndex": "0x1",
          "logIndex": "0x5",
          "removed": false
        },
        {
          "address": "0x19dc8b180b27ef70b8a65a46627e5fbd4eb22b4e",
          "topics": [
            "0x4a7bba0e1c21f3684678b259c49028d8cca5e0c5a2b43eba286ada7d196c8bfb",
            "0x000000000000000000000000c77b5af331b8276fc2c0ba9e6436d4c2698e7c41"
          ],
          "data": "0x0000000000000000000000000000000000000000000000000000000000000020000000000000000000000000000000000000000000000000000000000000001e68747470733a2f2f677561726469616e2e776174636869742e6d6f7669650000",
          "blockHash": "0x86153c8a1235bc46196fe28ee7f61f8bd074eec305dcdd70c380c7947c8e553a",
          "blockNumber": "0xdc3a7e",
          "transactionHash": "0xa871ba3d4ddb221f33f5473a8baa2c2d3ce7527711eb0fdeded5086158ef0300",
          "transactionIndex": "0x1",
          "logIndex": "0x6",
          "removed": false
        },
        {
          "address": "0x0000000000000000000000000000000000001010",
          "topics": [
            "0x4dfe1bbbcf077ddc3e01291eea2d5c70c2b422b415d95645b9adcfd678cb1d63",
            "0x0000000000000000000000000000000000000000000000000000000000001010",
            "0x000000000000000000000000efbbd14082cf2fbcf5badc7ee619f0f4e36d0a5b",
            "0x0000000000000000000000004631753190f2f5a15a7ba172bbac102b7d95fa22"
          ],
          "data": "0x00000000000000000000000000000000000000000000000000263e7dffa6d74f0000000000000000000000000000000000000000000000003204fe0a7ab359e60000000000000000000000000000000000000000000002f45011a372e5de090500000000000000000000000000000000000000000000000031debf8c7b0c82970000000000000000000000000000000000000000000002f45037e1f0e584e054",
          "blockHash": "0x86153c8a1235bc46196fe28ee7f61f8bd074eec305dcdd70c380c7947c8e553a",
          "blockNumber": "0xdc3a7e",
          "transactionHash": "0xa871ba3d4ddb221f33f5473a8baa2c2d3ce7527711eb0fdeded5086158ef0300",
          "transactionIndex": "0x1",
          "logIndex": "0x7",
          "removed": false
        }
      ],
      "logsBloom": "0x00000000000000000000000400000000000000002000000000800000000000000000000000000000000000000000000000008100000000000000010040000000008000000001000000000000001000800001000000000000010100000000000000000000020000900000000000000820000002000000000080000000000000400800000000200000000800000400080000000000020080000000200000000000200000000000000000000000000000000000400000000000000000000000004000000400000000000001000000000000000000000004010000900000000020000000000000000000000000000000000000000040000000000000000000100000",
      "type": "0x2",
      "transactionHash": "0xa871ba3d4ddb221f33f5473a8baa2c2d3ce7527711eb0fdeded5086158ef0300",
      "transactionIndex": "0x1",
      "blockHash": "0x86153c8a1235bc46196fe28ee7f61f8bd074eec305dcdd70c380c7947c8e553a",
      "blockNumber": "0xdc3a7e",
      "gasUsed": "0x41b3f",
      "effectiveGasPrice": "0x9502f9000",
      "from": "0xefbbd14082cf2fbcf5badc7ee619f0f4e36d0a5b",
      "to": "0x19dc8b180b27ef70b8a65a46627e5fbd4eb22b4e",
      "contractAddress": null
    },
    {
      "status": "0x1",
      "cumulativeGasUsed": "0xb3bb",
      "logs": [
        {
          "address": "0xbd4f590d228bb3a745ec5feb049ddf6eda82eb20",
          "topics": [
            "0x8c5be1e5ebec7d5bd14f71427d1e84f3dd0314c0f7b2291e5b200ac8c7c3b925",
            "0x000000000000000000000000efbbd14082cf2fbcf5badc7ee619f0f4e36d0a5b",
            "0x000000000000000000000000a84cad70235e55632ca7292f67ef0ce1a45c39b9"
          ],
          "data": "0x0000000000000000000000000000000000000000000000056bc75e2d63100000",
          "blockHash": "0x0eb3cd8b0b168afe606c920159f2b7d07e4b0df85656ae43cf965ce7b991c0a7",
          "blockNumber": "0xdc3a80",
          "transactionHash": "0x174aa0dd94826a7a3c1560df28105070b7564a1d137c310729f051952ac52ff2",
          "transactionIndex": "0x0",
          "logIndex": "0x0",
          "removed": false
        },
        {
          "address": "0x0000000000000000000000000000000000001010",
          "topics": [
            "0x4dfe1bbbcf077ddc3e01291eea2d5c70c2b422b415d95645b9adcfd678cb1d63",
            "0x0000000000000000000000000000000000000000000000000000000000001010",
            "0x000000000000000000000000efbbd14082cf2fbcf5badc7ee619f0f4e36d0a5b",
            "0x0000000000000000000000006ab3d36c46ecfb9b9c0bd51cb1c3da5a2c81cea6"
          ],
          "data": "0x000000000000000000000000000000000000000000000000000689ded463a80b00000000000000000000000000000000000000000000000031debf8c7acee9e60000000000000000000000000000000000000000000003869a24913c86d3bd5b00000000000000000000000000000000000000000000000031d835ada66b41db0000000000000000000000000000000000000000000003869a2b1b1b5b376566",
          "blockHash": "0x0eb3cd8b0b168afe606c920159f2b7d07e4b0df85656ae43cf965ce7b991c0a7",
          "blockNumber": "0xdc3a80",
          "transactionHash": "0x174aa0dd94826a7a3c1560df28105070b7564a1d137c310729f051952ac52ff2",
          "transactionIndex": "0x0",
          "logIndex": "0x1",
          "removed": false
        }
      ],
      "logsBloom": "0x00000000080000200000000000000000000000000000001000200000000000000000000000000000000000000000000000008000020000000000000000200000008000080000000000000000000000800000000000000000000100000000000000000000000000000000000000000000000000000000000080000000000000000800000000000000000000000000000000000000000000000000000000000000220000000000000000000000000000000000400000000000000000000000004000000000000000000001000000000000000000010000000000100000000000000018000000000000000000000000000000000040000000000000000000100000",
      "type": "0x2",
      "transactionHash": "0x174aa0dd94826a7a3c1560df28105070b7564a1d137c310729f051952ac52ff2",
      "transactionIndex": "0x0",
      "blockHash": "0x0eb3cd8b0b168afe606c920159f2b7d07e4b0df85656ae43cf965ce7b991c0a7",
      "blockNumber": "0xdc3a80",
      "gasUsed": "0xb3bb",
      "effectiveGasPrice": "0x9502f9000",
      "from": "0xefbbd14082cf2fbcf5badc7ee619f0f4e36d0a5b",
      "to": "0xbd4f590d228bb3a745ec5feb049ddf6eda82eb20",
      "contractAddress": null
    },
    {
      "status": "0x1",
      "cumulativeGasUsed": "0x5569c",
      "logs": [
        {
          "address": "0xbd4f590d228bb3a745ec5feb049ddf6eda82eb20",
          "topics": [
            "0xddf252ad1be2c89b69c2b068fc378daa952ba7f163c4a11628f55a4df523b3ef",
            "0x000000000000000000000000efbbd14082cf2fbcf5badc7ee619f0f4e36d0a5b",
            "0x000000000000000000000000a84cad70235e55632ca7292f67ef0ce1a45c39b9"
          ],
          "data": "0x0000000000000000000000000000000000000000000000056bc75e2d63100000",
          "blockHash": "0x6beeefae3cd09bf3895cc284b98cc95763d8443c92d80dc512499dd06581cadc",
          "blockNumber": "0xdc3a82",
          "transactionHash": "0xc2d729500b3e48024f96d8f364e4f886c83531af4ceda7d1e19ed8ea7d6148dd",
          "transactionIndex": "0x2",
          "logIndex": "0x8",
          "removed": false
        },
        {
          "address": "0xa84cad70235e55632ca7292f67ef0ce1a45c39b9",
          "topics": [
            "0xcda33a906ffa8a5f960826827500581f4613a5db7a84b250433e0d591a630938",
            "0x000000000000000000000000c77b5af331b8276fc2c0ba9e6436d4c2698e7c41"
          ],
          "data": "0x0000000000000000000000000000000000000000000000000000000067367b260000000000000000000000000000000000000000000000056bc75e2d63100000",
          "blockHash": "0x6beeefae3cd09bf3895cc284b98cc95763d8443c92d80dc512499dd06581cadc",
          "blockNumber": "0xdc3a82",
          "transactionHash": "0xc2d729500b3e48024f96d8f364e4f886c83531af4ceda7d1e19ed8ea7d6148dd",
          "transactionIndex": "0x2",
          "logIndex": "0x9",
          "removed": false
        },
        {
          "address": "0x0000000000000000000000000000000000001010",
          "topics": [
            "0x4dfe1bbbcf077ddc3e01291eea2d5c70c2b422b415d95645b9adcfd678cb1d63",
            "0x0000000000000000000000000000000000000000000000000000000000001010",
            "0x000000000000000000000000efbbd14082cf2fbcf5badc7ee619f0f4e36d0a5b",
            "0x0000000000000000000000006ab3d36c46ecfb9b9c0bd51cb1c3da5a2c81cea6"
          ],
          "data": "0x000000000000000000000000000000000000000000000000001754c2c6a68c3200000000000000000000000000000000000000000000000031d835ada660b9e60000000000000000000000000000000000000000000003869a4879dcf934379800000000000000000000000000000000000000000000000031c0e0eadfba2db40000000000000000000000000000000000000000000003869a5fce9fbfdac3ca",
          "blockHash": "0x6beeefae3cd09bf3895cc284b98cc95763d8443c92d80dc512499dd06581cadc",
          "blockNumber": "0xdc3a82",
          "transactionHash": "0xc2d729500b3e48024f96d8f364e4f886c83531af4ceda7d1e19ed8ea7d6148dd",
          "transactionIndex": "0x2",
          "logIndex": "0xa",
          "removed": false
        }
      ],
      "logsBloom": "0x00000000080000200000000001000000000000000000001000200000000000000000000000000000000000000000000000008100020000000000010000000000008000080000000000000008000000800000000000000000000100000000000000000000000000000000000000000010000000000000000080000010000000000800000000000000000000000400000000000000000000000000000000000000200000000000000000000000000000000000400000000000000000000000004000000002000000000001000000000000000000010000000000100000000000000008000040000000400000000000000400000040000000000000000000100000",
      "type": "0x2",
      "transactionHash": "0xc2d729500b3e48024f96d8f364e4f886c83531af4ceda7d1e19ed8ea7d6148dd",
      "transactionIndex": "0x2",
      "blockHash": "0x6beeefae3cd09bf3895cc284b98cc95763d8443c92d80dc512499dd06581cadc",
      "blockNumber": "0xdc3a82",
      "gasUsed": "0x28152",
      "effectiveGasPrice": "0x9502f9000",
      "from": "0xefbbd14082cf2fbcf5badc7ee619f0f4e36d0a5b",
      "to": "0xa84cad70235e55632ca7292f67ef0ce1a45c39b9",
      "contractAddress": null
    },
    {
      "status": "0x1",
      "cumulativeGasUsed": "0x15891",
      "logs": [
        {
          "address": "0xa84cad70235e55632ca7292f67ef0ce1a45c39b9",
          "topics": [
            "0xf13bfe0b6ec5df39265dccb0a01a09aa4162489c7a083dc6670bde0255d02ca7",
            "0x000000000000000000000000c77b5af331b8276fc2c0ba9e6436d4c2698e7c41"
          ],
          "data": "0x0000000000000000000000000000000000000000000000000000000067367b2a",
          "blockHash": "0xf7c7c554629df9caa919dbd2baa9aa662866a04be136e16f06eeea80225273c9",
          "blockNumber": "0xdc3a84",
          "transactionHash": "0x0e9a87564b1798a6a06ff949db08e4342c986127e87462c55aacc51a7e824699",
          "transactionIndex": "0x0",
          "logIndex": "0x0",
          "removed": false
        },
        {
          "address": "0x0000000000000000000000000000000000001010",
          "topics": [
            "0x4dfe1bbbcf077ddc3e01291eea2d5c70c2b422b415d95645b9adcfd678cb1d63",
            "0x0000000000000000000000000000000000000000000000000000000000001010",
            "0x000000000000000000000000efbbd14082cf2fbcf5badc7ee619f0f4e36d0a5b",
            "0x0000000000000000000000006ab3d36c46ecfb9b9c0bd51cb1c3da5a2c81cea6"
          ],
          "data": "0x000000000000000000000000000000000000000000000000000c8906545c5f8100000000000000000000000000000000000000000000000031c0e0eadf9499e60000000000000000000000000000000000000000000003869a5fce9fbfdac3ca00000000000000000000000000000000000000000000000031b457e48b383a650000000000000000000000000000000000000000000003869a6c57a61437234b",
          "blockHash": "0xf7c7c554629df9caa919dbd2baa9aa662866a04be136e16f06eeea80225273c9",
          "blockNumber": "0xdc3a84",
          "transactionHash": "0x0e9a87564b1798a6a06ff949db08e4342c986127e87462c55aacc51a7e824699",
          "transactionIndex": "0x0",
          "logIndex": "0x1",
          "removed": false
        }
      ],
      "logsBloom": "0x00000000080000000000000001000000000000000000000000000000000000000000000000000000000000000000000000008100000000000000010000000000008000080000000000000000000000800000000000000000000100000000000000000000000000000000000000000010000000000000000080000000000000000800000000000000000000000400000000000000000008000000000000000000200000000000000000000000000000000000400000000800000000000000004000000000000000000001000000000000000000010000000020100000000000000000000000000000000000000000000400000000000000000000000000100000",
      "type": "0x2",
      "transactionHash": "0x0e9a87564b1798a6a06ff949db08e4342c986127e87462c55aacc51a7e824699",
      "transactionIndex": "0x0",
      "blockHash": "0xf7c7c554629df9caa919dbd2baa9aa662866a04be136e16f06eeea80225273c9",
      "blockNumber": "0xdc3a84",
      "gasUsed": "0x15891",
      "effectiveGasPrice": "0x9502f9000",
      "from": "0xefbbd14082cf2fbcf5badc7ee619f0f4e36d0a5b",
      "to": "0xa84cad70235e55632ca7292f67ef0ce1a45c39b9",
      "contractAddress": null
    }
  ],
  "libraries": [],
  "pending": [],
  "returns": {},
  "timestamp": 1731623740,
  "chain": 80002,
  "commit": "bceebff"
}