{
  "transactions": [
    {
      "hash": "0x47b20d370fd9da982b8da9c3251fecf664e854f82e77d299cef5c0002325262b",
      "transactionType": "CALL",
      "contractName": null,
      "contractAddress": "0x778547ff3d1f42516f3fb2b8b6636a878e37aaf4",
      "function": "authorizePolicy(address,bytes)",
      "arguments": [
        "0x3D02A825F6DD019f1fF7FFA0b1BaF3495706aa65",
        "0x0000000000000000000000000000000000000000000000000de0b6b3a7640000000000000000000000000000163aad81aa11f5bb1eb7a7c68e80b60db3432ef2"
      ],
      "transaction": {
        "from": "0xefbbd14082cf2fbcf5badc7ee619f0f4e36d0a5b",
        "to": "0x778547ff3d1f42516f3fb2b8b6636a878e37aaf4",
        "gas": "0x14530",
        "value": "0x0",
        "input": "0x2f6cc1020000000000000000000000003d02a825f6dd019f1ff7ffa0b1baf3495706aa65000000000000000000000000000000000000000000000000000000000000004000000000000000000000000000000000000000000000000000000000000000400000000000000000000000000000000000000000000000000de0b6b3a7640000000000000000000000000000163aad81aa11f5bb1eb7a7c68e80b60db3432ef2",
        "nonce": "0x5de",
        "chainId": "0x13882"
      },
      "additionalContracts": [],
      "isFixedGasLimit": false
    }
  ],
  "receipts": [
    {
      "status": "0x1",
      "cumulativeGasUsed": "0x66f50",
      "logs": [
        {
          "address": "0x778547ff3d1f42516f3fb2b8b6636a878e37aaf4",
          "topics": [
            "0x164745c0d5815644c1e92a17e242e89f9c0fd523fc3e94071b60f165692f3d79",
            "0x0000000000000000000000003d02a825f6dd019f1ff7ffa0b1baf3495706aa65",
            "0x000000000000000000000000efbbd14082cf2fbcf5badc7ee619f0f4e36d0a5b"
          ],
          "data": "0x",
          "blockHash": "0x69be68307a3f7bf2fed405a831385ecafa7808d79e481d45ecb3db1ee07ab9a3",
          "blockNumber": "0xdcacb5",
          "transactionHash": "0x47b20d370fd9da982b8da9c3251fecf664e854f82e77d299cef5c0002325262b",
          "transactionIndex": "0x2",
          "logIndex": "0x7",
          "removed": false
        },
        {
          "address": "0x0000000000000000000000000000000000001010",
          "topics": [
            "0x4dfe1bbbcf077ddc3e01291eea2d5c70c2b422b415d95645b9adcfd678cb1d63",
            "0x0000000000000000000000000000000000000000000000000000000000001010",
            "0x000000000000000000000000efbbd14082cf2fbcf5badc7ee619f0f4e36d0a5b",
            "0x00000000000000000000000009207a6efee346cb3e4a54ac18523e3715d38b3f"
          ],
          "data": "0x0000000000000000000000000000000000000000000000000009faae1fe698760000000000000000000000000000000000000000000000001f87f90364dbe98a0000000000000000000000000000000000000000000003c2c1b1f3ed032bc8b60000000000000000000000000000000000000000000000001f7dfe5544f551140000000000000000000000000000000000000000000003c2c1bbee9b2312612c",
          "blockHash": "0x69be68307a3f7bf2fed405a831385ecafa7808d79e481d45ecb3db1ee07ab9a3",
          "blockNumber": "0xdcacb5",
          "transactionHash": "0x47b20d370fd9da982b8da9c3251fecf664e854f82e77d299cef5c0002325262b",
          "transactionIndex": "0x2",
          "logIndex": "0x8",
          "removed": false
        }
      ],
      "logsBloom": "0x00000000000000000000000000000000000000000000000000000000000000000000000000000000000000000000000000008000000000000000010000000000008000000000000000000000000000800000000000000000000100000000000000000000000000000000000000000000000800000000000080000000000000001800000000000000000000000200000000004000000000000000000000000000200000000000010000000000000000000000400000000000001000000000004000000000000000100001000000000000000000000000000000100000000008000000000008000100000000010000000000000000000000000000000000100000",
      "type": "0x2",
      "transactionHash": "0x47b20d370fd9da982b8da9c3251fecf664e854f82e77d299cef5c0002325262b",
      "transactionIndex": "0x2",
      "blockHash": "0x69be68307a3f7bf2fed405a831385ecafa7808d79e481d45ecb3db1ee07ab9a3",
      "blockNumber": "0xdcacb5",
      "gasUsed": "0xeb6f",
      "effectiveGasPrice": "0xad9d86bf9",
      "from": "0xefbbd14082cf2fbcf5badc7ee619f0f4e36d0a5b",
      "to": "0x778547ff3d1f42516f3fb2b8b6636a878e37aaf4",
      "contractAddress": null
    }
  ],
  "libraries": [],
  "pending": [],
  "returns": {},
  "timestamp": 1731685847,
  "chain": 80002,
  "commit": "5d3485c"
}