{
  "transactions": [
    {
      "hash": "0x599db4d43c8047018c1169027dad7e612601c275d9782d0340af38dc713433da",
      "transactionType": "CALL",
      "contractName": null,
      "contractAddress": "0x6787c54bd137780c0d1709787034235fb914d821",
      "function": "authorizePolicy(address,bytes)",
      "arguments": [
        "0x457ce882bf27905143bdd1448A9E869fE8A8ABFc",
        "0x0000000000000000000000000000000000000000000000000de0b6b3a76400000000000000000000000000003c7deb6feaeb7a82bde580fb73d8d69c401b219e"
      ],
      "transaction": {
        "from": "0xefbbd14082cf2fbcf5badc7ee619f0f4e36d0a5b",
        "to": "0x6787c54bd137780c0d1709787034235fb914d821",
        "gas": "0x3e437",
        "value": "0x0",
        "input": "0x2f6cc102000000000000000000000000457ce882bf27905143bdd1448a9e869fe8a8abfc000000000000000000000000000000000000000000000000000000000000004000000000000000000000000000000000000000000000000000000000000000400000000000000000000000000000000000000000000000000de0b6b3a76400000000000000000000000000003c7deb6feaeb7a82bde580fb73d8d69c401b219e",
        "nonce": "0x6ca",
        "chainId": "0x13882"
      },
      "additionalContracts": [],
      "isFixedGasLimit": false
    }
  ],
  "receipts": [
    {
      "status": "0x1",
      "cumulativeGasUsed": "0x53883",
      "logs": [
        {
          "address": "0x6787c54bd137780c0d1709787034235fb914d821",
          "topics": [
            "0x164745c0d5815644c1e92a17e242e89f9c0fd523fc3e94071b60f165692f3d79",
            "0x000000000000000000000000457ce882bf27905143bdd1448a9e869fe8a8abfc",
            "0x000000000000000000000000efbbd14082cf2fbcf5badc7ee619f0f4e36d0a5b"
          ],
          "data": "0x",
          "blockHash": "0xd5a2b64d63ee8d7ba5837c2f6ec837b34eb0d9889c95056cfd8e446b730d74ad",
          "blockNumber": "0xdfec26",
          "transactionHash": "0x599db4d43c8047018c1169027dad7e612601c275d9782d0340af38dc713433da",
          "transactionIndex": "0x2",
          "logIndex": "0x6",
          "removed": false
        },
        {
          "address": "0x0000000000000000000000000000000000001010",
          "topics": [
            "0x4dfe1bbbcf077ddc3e01291eea2d5c70c2b422b415d95645b9adcfd678cb1d63",
            "0x0000000000000000000000000000000000000000000000000000000000001010",
            "0x000000000000000000000000efbbd14082cf2fbcf5badc7ee619f0f4e36d0a5b",
            "0x0000000000000000000000004ad84f7014b7b44f723f284a85b1662337971439"
          ],
          "data": "0x000000000000000000000000000000000000000000000000001066346e2ac60000000000000000000000000000000000000000000000000047f18b12d468a6f2000000000000000000000000000000000000000000000424b028e9fa5d724c4300000000000000000000000000000000000000000000000047e124de663de0f2000000000000000000000000000000000000000000000424b039502ecb9d1243",
          "blockHash": "0xd5a2b64d63ee8d7ba5837c2f6ec837b34eb0d9889c95056cfd8e446b730d74ad",
          "blockNumber": "0xdfec26",
          "transactionHash": "0x599db4d43c8047018c1169027dad7e612601c275d9782d0340af38dc713433da",
          "transactionIndex": "0x2",
          "logIndex": "0x7",
          "removed": false
        }
      ],
      "logsBloom": "0x00000000000000000800000000000000000000000000000000000400000000000000000000000000000000000000000000008000000000000000000000400000008000000000000000000000000000800000000000000000000100001000000000100000000000000000000020000000000000000000000080000200000000000800000000000000000000000200000000000000000000000000000000000000200000000000000000000000000000000000400000000000000000000000004000000000000000000001000000000000000000000000000000100000000000000000000008000100000000000000008000000000080000000000000000100000",
      "type": "0x2",
      "transactionHash": "0x599db4d43c8047018c1169027dad7e612601c275d9782d0340af38dc713433da",
      "transactionIndex": "0x2",
      "blockHash": "0xd5a2b64d63ee8d7ba5837c2f6ec837b34eb0d9889c95056cfd8e446b730d74ad",
      "blockNumber": "0xdfec26",
      "gasUsed": "0x2d13f",
      "effectiveGasPrice": "0x5d21dba0f",
      "from": "0xefbbd14082cf2fbcf5badc7ee619f0f4e36d0a5b",
      "to": "0x6787c54bd137780c0d1709787034235fb914d821",
      "contractAddress": null
    }
  ],
  "libraries": [],
  "pending": [],
  "returns": {},
  "timestamp": 1732146154,
  "chain": 80002,
  "commit": "7027805"
}