{
  "transactions": [
    {
      "hash": "0x30ffddf901a13e102f8a36637d47a37c03e08cf9caed07ea75e84f60d3373800",
      "transactionType": "CALL",
      "contractName": null,
      "contractAddress": "0x83c73637a547c3a3525c1ba7d71681e64283d26f",
      "function": "authorizePolicy(address,bytes)",
      "arguments": [
        "0x6fB721475E299D4BC952e871A25D1C1417f503Cc",
        "0x0000000000000000000000000000000000000000000000000de0b6b3a76400000000000000000000000000003c7deb6feaeb7a82bde580fb73d8d69c401b219e"
      ],
      "transaction": {
        "from": "0xefbbd14082cf2fbcf5badc7ee619f0f4e36d0a5b",
        "to": "0x83c73637a547c3a3525c1ba7d71681e64283d26f",
        "gas": "0x14502",
        "value": "0x0",
        "input": "0x2f6cc1020000000000000000000000006fb721475e299d4bc952e871a25d1c1417f503cc000000000000000000000000000000000000000000000000000000000000004000000000000000000000000000000000000000000000000000000000000000400000000000000000000000000000000000000000000000000de0b6b3a76400000000000000000000000000003c7deb6feaeb7a82bde580fb73d8d69c401b219e",
        "nonce": "0x7cf",
        "chainId": "0x13882"
      },
      "additionalContracts": [],
      "isFixedGasLimit": false
    }
  ],
  "receipts": [
    {
      "status": "0x1",
      "cumulativeGasUsed": "0x86df6",
      "logs": [
        {
          "address": "0x83c73637a547c3a3525c1ba7d71681e64283d26f",
          "topics": [
            "0x164745c0d5815644c1e92a17e242e89f9c0fd523fc3e94071b60f165692f3d79",
            "0x0000000000000000000000006fb721475e299d4bc952e871a25d1c1417f503cc",
            "0x000000000000000000000000efbbd14082cf2fbcf5badc7ee619f0f4e36d0a5b"
          ],
          "data": "0x",
          "blockHash": "0xd9a97fef6de97d44919f869598839b60d084f4fd537db86a8957e2086a36910d",
          "blockNumber": "0xf20651",
          "transactionHash": "0x30ffddf901a13e102f8a36637d47a37c03e08cf9caed07ea75e84f60d3373800",
          "transactionIndex": "0x2",
          "logIndex": "0x2",
          "removed": false
        },
        {
          "address": "0x0000000000000000000000000000000000001010",
          "topics": [
            "0x4dfe1bbbcf077ddc3e01291eea2d5c70c2b422b415d95645b9adcfd678cb1d63",
            "0x0000000000000000000000000000000000000000000000000000000000001010",
            "0x000000000000000000000000efbbd14082cf2fbcf5badc7ee619f0f4e36d0a5b",
            "0x0000000000000000000000006dc2dd54f24979ec26212794c71afefed722280c"
          ],
          "data": "0x000000000000000000000000000000000000000000000000000559a74eccac00000000000000000000000000000000000000000000000000e615fc89d0de938a000000000000000000000000000000000000000000000495a9391b3695b6886e000000000000000000000000000000000000000000000000e610a2e28211e78a000000000000000000000000000000000000000000000495a93e74dde483346e",
          "blockHash": "0xd9a97fef6de97d44919f869598839b60d084f4fd537db86a8957e2086a36910d",
          "blockNumber": "0xf20651",
          "transactionHash": "0x30ffddf901a13e102f8a36637d47a37c03e08cf9caed07ea75e84f60d3373800",
          "transactionIndex": "0x2",
          "logIndex": "0x3",
          "removed": false
        }
      ],
      "logsBloom": "0x00000000000000000000000000000000000000000000000000000000000000000000000000000000000000000000000000008000000000000000000000000000008000000000000000000000000100800000000000000000000100080000010000000000000000000000000000000000000000000000000080000000000000020800000000000000000000000240000000000000000400000000000000000000200000000000000000000000000000000000400000000000000000000000004000000000000000000001000000000000000000000000004000100000000000000000040008000100000000000000000000000000000000000100000000100000",
      "type": "0x2",
      "transactionHash": "0x30ffddf901a13e102f8a36637d47a37c03e08cf9caed07ea75e84f60d3373800",
      "transactionIndex": "0x2",
      "blockHash": "0xd9a97fef6de97d44919f869598839b60d084f4fd537db86a8957e2086a36910d",
      "blockNumber": "0xf20651",
      "gasUsed": "0xeb4e",
      "effectiveGasPrice": "0x5d21dba0f",
      "from": "0xefbbd14082cf2fbcf5badc7ee619f0f4e36d0a5b",
      "to": "0x83c73637a547c3a3525c1ba7d71681e64283d26f",
      "contractAddress": null
    }
  ],
  "libraries": [],
  "pending": [],
  "returns": {},
  "timestamp": 1734750416,
  "chain": 80002,
  "commit": "66cd11d"
}