{
  "transactions": [
    {
      "hash": "0x7f0435791881cb6b1a6599100e00212b1d10c772add415577f7bf6392b6e04a7",
      "transactionType": "CALL",
      "contractName": null,
      "contractAddress": "0xcc1b8763ee56df84d21b4b6056be7fce1140c743",
      "function": "authorizePolicy(address,bytes)",
      "arguments": [
        "0x9B6F4b34ce359dDF79DD63608979D02849c1876A",
        "0x0000000000000000000000000000000000000000000000000de0b6b3a7640000000000000000000000000000045d1fc9240b3670cb54444f93ad3e7b1fbbce75"
      ],
      "transaction": {
        "from": "0xefbbd14082cf2fbcf5badc7ee619f0f4e36d0a5b",
        "to": "0xcc1b8763ee56df84d21b4b6056be7fce1140c743",
        "gas": "0x3e455",
        "value": "0x0",
        "input": "0x2f6cc1020000000000000000000000009b6f4b34ce359ddf79dd63608979d02849c1876a000000000000000000000000000000000000000000000000000000000000004000000000000000000000000000000000000000000000000000000000000000400000000000000000000000000000000000000000000000000de0b6b3a7640000000000000000000000000000045d1fc9240b3670cb54444f93ad3e7b1fbbce75",
        "nonce": "0x518",
        "chainId": "0x13882"
      },
      "additionalContracts": [],
      "isFixedGasLimit": false
    }
  ],
  "receipts": [
    {
      "status": "0x1",
      "cumulativeGasUsed": "0x3fdf8",
      "logs": [
        {
          "address": "0xcc1b8763ee56df84d21b4b6056be7fce1140c743",
          "topics": [
            "0x164745c0d5815644c1e92a17e242e89f9c0fd523fc3e94071b60f165692f3d79",
            "0x0000000000000000000000009b6f4b34ce359ddf79dd63608979d02849c1876a",
            "0x000000000000000000000000efbbd14082cf2fbcf5badc7ee619f0f4e36d0a5b"
          ],
          "data": "0x",
          "blockHash": "0xa8d8a3422aee535080519231737aad63ff8f30c20e4f1482a34d33e0e89508db",
          "blockNumber": "0xdc17a6",
          "transactionHash": "0x7f0435791881cb6b1a6599100e00212b1d10c772add415577f7bf6392b6e04a7",
          "transactionIndex": "0x1",
          "logIndex": "0x2",
          "removed": false
        },
        {
          "address": "0x0000000000000000000000000000000000001010",
          "topics": [
            "0x4dfe1bbbcf077ddc3e01291eea2d5c70c2b422b415d95645b9adcfd678cb1d63",
            "0x0000000000000000000000000000000000000000000000000000000000001010",
            "0x000000000000000000000000efbbd14082cf2fbcf5badc7ee619f0f4e36d0a5b",
            "0x0000000000000000000000006ab3d36c46ecfb9b9c0bd51cb1c3da5a2c81cea6"
          ],
          "data": "0x000000000000000000000000000000000000000000000000002138d9d1044c14000000000000000000000000000000000000000000000000397a4e5f7f8209090000000000000000000000000000000000000000000003856f13985df281927300000000000000000000000000000000000000000000000039591585ae7dbcf50000000000000000000000000000000000000000000003856f34d137c385de87",
          "blockHash": "0xa8d8a3422aee535080519231737aad63ff8f30c20e4f1482a34d33e0e89508db",
          "blockNumber": "0xdc17a6",
          "transactionHash": "0x7f0435791881cb6b1a6599100e00212b1d10c772add415577f7bf6392b6e04a7",
          "transactionIndex": "0x1",
          "logIndex": "0x3",
          "removed": false
        }
      ],
      "logsBloom": "0x00000000080000000000000000000000000000000000000000000000000000000000000000000000000000000000000000008000000000000000000000000000008000080000000000000000000000800000000000000000100100000000000000000000000000000000000000000000000000000000000080000000000000000800000000010000000000004200000000000000000000000000000000000000200000000000000000000000800000000000400000000000000000000000004000000000000000000001000000000000000000010000000000100000000000000000000008000100000000000000000202000000000000000000000000100000",
      "type": "0x2",
      "transactionHash": "0x7f0435791881cb6b1a6599100e00212b1d10c772add415577f7bf6392b6e04a7",
      "transactionIndex": "0x1",
      "blockHash": "0xa8d8a3422aee535080519231737aad63ff8f30c20e4f1482a34d33e0e89508db",
      "blockNumber": "0xdc17a6",
      "gasUsed": "0x2d154",
      "effectiveGasPrice": "0xbca611400",
      "from": "0xefbbd14082cf2fbcf5badc7ee619f0f4e36d0a5b",
      "to": "0xcc1b8763ee56df84d21b4b6056be7fce1140c743",
      "contractAddress": null
    }
  ],
  "libraries": [],
  "pending": [],
  "returns": {},
  "timestamp": 1731604755,
  "chain": 80002,
  "commit": "bceebff"
}