{
  "transactions": [
    {
      "hash": "0x89f54d0f92d609ff4e354d0fb31af82281c0d948037e4f926c9fc4f486bc2c03",
      "transactionType": "CALL",
      "contractName": null,
      "contractAddress": "0x83c73637a547c3a3525c1ba7d71681e64283d26f",
      "function": "authorizePolicy(address,bytes)",
      "arguments": [
        "0x6fB721475E299D4BC952e871A25D1C1417f503Cc",
        "0x0000000000000000000000000000000000000000000000000de0b6b3a76400000000000000000000000000003c7deb6feaeb7a82bde580fb73d8d69c401b219e"
      ],
      "transaction": {
        "from": "0xefbbd14082cf2fbcf5badc7ee619f0f4e36d0a5b",
        "to": "0x83c73637a547c3a3525c1ba7d71681e64283d26f",
        "gas": "0x3e429",
        "value": "0x0",
        "input": "0x2f6cc1020000000000000000000000006fb721475e299d4bc952e871a25d1c1417f503cc000000000000000000000000000000000000000000000000000000000000004000000000000000000000000000000000000000000000000000000000000000400000000000000000000000000000000000000000000000000de0b6b3a76400000000000000000000000000003c7deb6feaeb7a82bde580fb73d8d69c401b219e",
        "nonce": "0x7ba",
        "chainId": "0x13882"
      },
      "additionalContracts": [],
      "isFixedGasLimit": false
    }
  ],
  "receipts": [
    {
      "status": "0x1",
      "cumulativeGasUsed": "0x2d134",
      "logs": [
        {
          "address": "0x83c73637a547c3a3525c1ba7d71681e64283d26f",
          "topics": [
            "0x164745c0d5815644c1e92a17e242e89f9c0fd523fc3e94071b60f165692f3d79",
            "0x0000000000000000000000006fb721475e299d4bc952e871a25d1c1417f503cc",
            "0x000000000000000000000000efbbd14082cf2fbcf5badc7ee619f0f4e36d0a5b"
          ],
          "data": "0x",
          "blockHash": "0xda0e2cd3a5ba1833a8bf6dbd715e3dc2ad7b2efb4a2f90d85e5e89e2e10fd0da",
          "blockNumber": "0xf1c782",
          "transactionHash": "0x89f54d0f92d609ff4e354d0fb31af82281c0d948037e4f926c9fc4f486bc2c03",
          "transactionIndex": "0x0",
          "logIndex": "0x0",
          "removed": false
        },
        {
          "address": "0x0000000000000000000000000000000000001010",
          "topics": [
            "0x4dfe1bbbcf077ddc3e01291eea2d5c70c2b422b415d95645b9adcfd678cb1d63",
            "0x0000000000000000000000000000000000000000000000000000000000001010",
            "0x000000000000000000000000efbbd14082cf2fbcf5badc7ee619f0f4e36d0a5b",
            "0x000000000000000000000000ba60fe9f3372f53397bee44e2a4d3087aa5f281f"
          ],
          "data": "0x000000000000000000000000000000000000000000000000001065f466e3c800000000000000000000000000000000000000000000000000e6ada7100ecbc63b000000000000000000000000000000000000000000000035f283f18a49e0cc7b000000000000000000000000000000000000000000000000e69d411ba7e7fe3b000000000000000000000000000000000000000000000035f294577eb0c4947b",
          "blockHash": "0xda0e2cd3a5ba1833a8bf6dbd715e3dc2ad7b2efb4a2f90d85e5e89e2e10fd0da",
          "blockNumber": "0xf1c782",
          "transactionHash": "0x89f54d0f92d609ff4e354d0fb31af82281c0d948037e4f926c9fc4f486bc2c03",
          "transactionIndex": "0x0",
          "logIndex": "0x1",
          "removed": false
        }
      ],
      "logsBloom": "0x00000000000000000000000000004000000000000000000000000000000000000000000000000000000000000000000000008000000000000000000000000000008000000000000000000000000100800000000000000000000100000000010000000000000000000000000000000000000000000000000080000000000000000800000000000000000000000200000000004000000400000000000000000000200000000000000000000000000040000000400000000000000000000000004000000000000000000001000000000000000000000000004000100000000000000000040008000100000000000000000000000000000000000100000000100000",
      "type": "0x2",
      "transactionHash": "0x89f54d0f92d609ff4e354d0fb31af82281c0d948037e4f926c9fc4f486bc2c03",
      "transactionIndex": "0x0",
      "blockHash": "0xda0e2cd3a5ba1833a8bf6dbd715e3dc2ad7b2efb4a2f90d85e5e89e2e10fd0da",
      "blockNumber": "0xf1c782",
      "gasUsed": "0x2d134",
      "effectiveGasPrice": "0x5d21dba0f",
      "from": "0xefbbd14082cf2fbcf5badc7ee619f0f4e36d0a5b",
      "to": "0x83c73637a547c3a3525c1ba7d71681e64283d26f",
      "contractAddress": null
    }
  ],
  "libraries": [],
  "pending": [],
  "returns": {},
  "timestamp": 1734716240,
  "chain": 80002,
  "commit": "66cd11d"
}