{
  "transactions": [
    {
      "hash": "0x3333f2ce2f7953be8fbc53a05ab420f680bac88c02d74b556997603f39f4e5be",
      "transactionType": "CALL",
      "contractName": null,
      "contractAddress": "0x778547ff3d1f42516f3fb2b8b6636a878e37aaf4",
      "function": "authorizePolicy(address,bytes)",
      "arguments": [
        "0x3D02A825F6DD019f1fF7FFA0b1BaF3495706aa65",
        "0x0000000000000000000000000000000000000000000000000de0b6b3a7640000000000000000000000000000163aad81aa11f5bb1eb7a7c68e80b60db3432ef2"
      ],
      "transaction": {
        "from": "0xefbbd14082cf2fbcf5badc7ee619f0f4e36d0a5b",
        "to": "0x778547ff3d1f42516f3fb2b8b6636a878e37aaf4",
        "gas": "0x3e456",
        "value": "0x0",
        "input": "0x2f6cc1020000000000000000000000003d02a825f6dd019f1ff7ffa0b1baf3495706aa65000000000000000000000000000000000000000000000000000000000000004000000000000000000000000000000000000000000000000000000000000000400000000000000000000000000000000000000000000000000de0b6b3a7640000000000000000000000000000163aad81aa11f5bb1eb7a7c68e80b60db3432ef2",
        "nonce": "0x5d4",
        "chainId": "0x13882"
      },
      "additionalContracts": [],
      "isFixedGasLimit": false
    }
  ],
  "receipts": [
    {
      "status": "0x1",
      "cumulativeGasUsed": "0x4c73f",
      "logs": [
        {
          "address": "0x778547ff3d1f42516f3fb2b8b6636a878e37aaf4",
          "topics": [
            "0x164745c0d5815644c1e92a17e242e89f9c0fd523fc3e94071b60f165692f3d79",
            "0x0000000000000000000000003d02a825f6dd019f1ff7ffa0b1baf3495706aa65",
            "0x000000000000000000000000efbbd14082cf2fbcf5badc7ee619f0f4e36d0a5b"
          ],
          "data": "0x",
          "blockHash": "0x7a6afa000e23e9d04d89c3dc6360d3357658ac2fb7f0d3ce7f3cd9a3e0834f11",
          "blockNumber": "0xdca4b9",
          "transactionHash": "0x3333f2ce2f7953be8fbc53a05ab420f680bac88c02d74b556997603f39f4e5be",
          "transactionIndex": "0x1",
          "logIndex": "0x3",
          "removed": false
        },
        {
          "address": "0x0000000000000000000000000000000000001010",
          "topics": [
            "0x4dfe1bbbcf077ddc3e01291eea2d5c70c2b422b415d95645b9adcfd678cb1d63",
            "0x0000000000000000000000000000000000000000000000000000000000001010",
            "0x000000000000000000000000efbbd14082cf2fbcf5badc7ee619f0f4e36d0a5b",
            "0x0000000000000000000000004631753190f2f5a15a7ba172bbac102b7d95fa22"
          ],
          "data": "0x000000000000000000000000000000000000000000000000002d5fa7898c1207000000000000000000000000000000000000000000000000202748af2a6f1dfe0000000000000000000000000000000000000000000002ffeed1bba232d0202c0000000000000000000000000000000000000000000000001ff9e907a0e30bf70000000000000000000000000000000000000000000002ffeeff1b49bc5c3233",
          "blockHash": "0x7a6afa000e23e9d04d89c3dc6360d3357658ac2fb7f0d3ce7f3cd9a3e0834f11",
          "blockNumber": "0xdca4b9",
          "transactionHash": "0x3333f2ce2f7953be8fbc53a05ab420f680bac88c02d74b556997603f39f4e5be",
          "transactionIndex": "0x1",
          "logIndex": "0x4",
          "removed": false
        }
      ],
      "logsBloom": "0x00000000000000000000000000000000000000002000000000000000000000000000000000000000000000000000000000008000000000000000000040000000008000000000000000000000000000800000000000000000000100000000000000000000000000100000000000000000000800000000000080000000000000001800000000000000000000000200000000000000000000000000000000000000200000000000010000000000000000000000400000000000001000000000004000000000000000100001000000000000000000000000000000100000000008000000000008000100000000000000000000000000000000000000000000100000",
      "type": "0x2",
      "transactionHash": "0x3333f2ce2f7953be8fbc53a05ab420f680bac88c02d74b556997603f39f4e5be",
      "transactionIndex": "0x1",
      "blockHash": "0x7a6afa000e23e9d04d89c3dc6360d3357658ac2fb7f0d3ce7f3cd9a3e0834f11",
      "blockNumber": "0xdca4b9",
      "gasUsed": "0x2d155",
      "effectiveGasPrice": "0x101a6245fa",
      "from": "0xefbbd14082cf2fbcf5badc7ee619f0f4e36d0a5b",
      "to": "0x778547ff3d1f42516f3fb2b8b6636a878e37aaf4",
      "contractAddress": null
    }
  ],
  "libraries": [],
  "pending": [],
  "returns": {},
  "timestamp": 1731681502,
  "chain": 80002,
  "commit": "5d3485c"
}