{
  "transactions": [
    {
      "hash": "0xf96e82dd442d2a8cfe3924ae8385cd149ebb59d1de36a29972490b4aacf00c6c",
      "transactionType": "CALL",
      "contractName": null,
      "contractAddress": "0xc958bfe77b9529cc4024f0165c9536b2fa6ba557",
      "function": "authorizePolicy(address,bytes)",
      "arguments": [
        "0xCAFDE3Bc71b7aB469C8b165E896547d5868E9e5c",
        "0x0000000000000000000000000000000000000000000000000de0b6b3a7640000000000000000000000000000bd4f590d228bb3a745ec5feb049ddf6eda82eb20"
      ],
      "transaction": {
        "from": "0xefbbd14082cf2fbcf5badc7ee619f0f4e36d0a5b",
        "to": "0xc958bfe77b9529cc4024f0165c9536b2fa6ba557",
        "gas": "0x3e437",
        "value": "0x0",
        "input": "0x2f6cc102000000000000000000000000cafde3bc71b7ab469c8b165e896547d5868e9e5c000000000000000000000000000000000000000000000000000000000000004000000000000000000000000000000000000000000000000000000000000000400000000000000000000000000000000000000000000000000de0b6b3a7640000000000000000000000000000bd4f590d228bb3a745ec5feb049ddf6eda82eb20",
        "nonce": "0x5a4",
        "chainId": "0x13882"
      },
      "additionalContracts": [],
      "isFixedGasLimit": false
    }
  ],
  "receipts": [
    {
      "status": "0x1",
      "cumulativeGasUsed": "0x4c741",
      "logs": [
        {
          "address": "0xc958bfe77b9529cc4024f0165c9536b2fa6ba557",
          "topics": [
            "0x164745c0d5815644c1e92a17e242e89f9c0fd523fc3e94071b60f165692f3d79",
            "0x000000000000000000000000cafde3bc71b7ab469c8b165e896547d5868e9e5c",
            "0x000000000000000000000000efbbd14082cf2fbcf5badc7ee619f0f4e36d0a5b"
          ],
          "data": "0x",
          "blockHash": "0x498707e422c4d5ced0291421afdb519701c7f65623d8ae270932d52d0560edbf",
          "blockNumber": "0xdc3aa0",
          "transactionHash": "0xf96e82dd442d2a8cfe3924ae8385cd149ebb59d1de36a29972490b4aacf00c6c",
          "transactionIndex": "0x1",
          "logIndex": "0x3",
          "removed": false
        },
        {
          "address": "0x0000000000000000000000000000000000001010",
          "topics": [
            "0x4dfe1bbbcf077ddc3e01291eea2d5c70c2b422b415d95645b9adcfd678cb1d63",
            "0x0000000000000000000000000000000000000000000000000000000000001010",
            "0x000000000000000000000000efbbd14082cf2fbcf5badc7ee619f0f4e36d0a5b",
            "0x00000000000000000000000009207a6efee346cb3e4a54ac18523e3715d38b3f"
          ],
          "data": "0x000000000000000000000000000000000000000000000000001a3d20b01a2d4f0000000000000000000000000000000000000000000000003199393f2b27a9e60000000000000000000000000000000000000000000003be5a658008bce9d11e000000000000000000000000000000000000000000000000317efc1e7b0d7c970000000000000000000000000000000000000000000003be5a7fbd296d03fe6d",
          "blockHash": "0x498707e422c4d5ced0291421afdb519701c7f65623d8ae270932d52d0560edbf",
          "blockNumber": "0xdc3aa0",
          "transactionHash": "0xf96e82dd442d2a8cfe3924ae8385cd149ebb59d1de36a29972490b4aacf00c6c",
          "transactionIndex": "0x1",
          "logIndex": "0x4",
          "removed": false
        }
      ],
      "logsBloom": "0x00000000002000001000000000000000000000000000000000000000000000000000000000000000000000000000000000008000000000000000010000000000008000000000000000000000000010800000000000000000000100000000000000000000000000000000000000000000000000000000000080000000000000800800000000000000000000000200000000004000000000000000000000000000200000000000000000000000000000000000400000000000000000000000004000000000000000000001010000040000000000000000000000100000000000000000000008000100000000010000000000000000000000000000000000100000",
      "type": "0x2",
      "transactionHash": "0xf96e82dd442d2a8cfe3924ae8385cd149ebb59d1de36a29972490b4aacf00c6c",
      "transactionIndex": "0x1",
      "blockHash": "0x498707e422c4d5ced0291421afdb519701c7f65623d8ae270932d52d0560edbf",
      "blockNumber": "0xdc3aa0",
      "gasUsed": "0x2d13f",
      "effectiveGasPrice": "0x9502f9000",
      "from": "0xefbbd14082cf2fbcf5badc7ee619f0f4e36d0a5b",
      "to": "0xc958bfe77b9529cc4024f0165c9536b2fa6ba557",
      "contractAddress": null
    }
  ],
  "libraries": [],
  "pending": [],
  "returns": {},
  "timestamp": 1731623783,
  "chain": 80002,
  "commit": "bceebff"
}