{
  "transactions": [
    {
      "hash": "0x6c59cac08e64238d0a9ff36a0f873a2817ea027950d01bb0b4002e6224b64e52",
      "transactionType": "CALL",
      "contractName": null,
      "contractAddress": "0x8c209db03f5d16d955d75957f79fd4ca10b88bcc",
      "function": "authorizePolicy(address,bytes)",
      "arguments": [
        "0x07161323852F2e6101c6321456E4478bE72Fbb2F",
        "0x0000000000000000000000000000000000000000000000000de0b6b3a76400000000000000000000000000009a0a455babac0143e7bf7001e9a22be0d919b643"
      ],
      "transaction": {
        "from": "0xefbbd14082cf2fbcf5badc7ee619f0f4e36d0a5b",
        "to": "0x8c209db03f5d16d955d75957f79fd4ca10b88bcc",
        "gas": "0x3e456",
        "value": "0x0",
        "input": "0x2f6cc10200000000000000000000000007161323852f2e6101c6321456e4478be72fbb2f000000000000000000000000000000000000000000000000000000000000004000000000000000000000000000000000000000000000000000000000000000400000000000000000000000000000000000000000000000000de0b6b3a76400000000000000000000000000009a0a455babac0143e7bf7001e9a22be0d919b643",
        "nonce": "0x673",
        "chainId": "0x13882"
      },
      "additionalContracts": [],
      "isFixedGasLimit": false
    }
  ],
  "receipts": [
    {
      "status": "0x1",
      "cumulativeGasUsed": "0x45d5b",
      "logs": [
        {
          "address": "0x8c209db03f5d16d955d75957f79fd4ca10b88bcc",
          "topics": [
            "0x164745c0d5815644c1e92a17e242e89f9c0fd523fc3e94071b60f165692f3d79",
            "0x00000000000000000000000007161323852f2e6101c6321456e4478be72fbb2f",
            "0x000000000000000000000000efbbd14082cf2fbcf5badc7ee619f0f4e36d0a5b"
          ],
          "data": "0x",
          "blockHash": "0x9df76be97572f54fa74d8ee8f8fb889cba0cc07b58c1bd3b799bddf73f409d06",
          "blockNumber": "0xdfc26a",
          "transactionHash": "0x6c59cac08e64238d0a9ff36a0f873a2817ea027950d01bb0b4002e6224b64e52",
          "transactionIndex": "0x2",
          "logIndex": "0x4",
          "removed": false
        },
        {
          "address": "0x0000000000000000000000000000000000001010",
          "topics": [
            "0x4dfe1bbbcf077ddc3e01291eea2d5c70c2b422b415d95645b9adcfd678cb1d63",
            "0x0000000000000000000000000000000000000000000000000000000000001010",
            "0x000000000000000000000000efbbd14082cf2fbcf5badc7ee619f0f4e36d0a5b",
            "0x00000000000000000000000004ba3ef4c023c1006019a0f9baf6e70455e41fcf"
          ],
          "data": "0x000000000000000000000000000000000000000000000000001a447a5fd572c00000000000000000000000000000000000000000000000004e01923e5a05877300000000000000000000000000000000000000000000015deaff35fca6e782fa0000000000000000000000000000000000000000000000004de74dc3fa3014b300000000000000000000000000000000000000000000015deb197a7706bcf5ba",
          "blockHash": "0x9df76be97572f54fa74d8ee8f8fb889cba0cc07b58c1bd3b799bddf73f409d06",
          "blockNumber": "0xdfc26a",
          "transactionHash": "0x6c59cac08e64238d0a9ff36a0f873a2817ea027950d01bb0b4002e6224b64e52",
          "transactionIndex": "0x2",
          "logIndex": "0x5",
          "removed": false
        }
      ],
      "logsBloom": "0x00000000000000000000000000000000000000000010000000000080000004000000000000000000000000000000000000008000000000000000000000000000008000000000000000000000000000800000000000000000000100000001000000000000000000000000000000000000000000000000000080000000000000000800040000004000000000000200000000000000000000000000000000000000200000000000000000000000000000000000400000000000000000000000004000000000000000000001000001000000000000000000000000100000000000000000000008000100000000000000000400000000000000000000000000100000",
      "type": "0x2",
      "transactionHash": "0x6c59cac08e64238d0a9ff36a0f873a2817ea027950d01bb0b4002e6224b64e52",
      "transactionIndex": "0x2",
      "blockHash": "0x9df76be97572f54fa74d8ee8f8fb889cba0cc07b58c1bd3b799bddf73f409d06",
      "blockNumber": "0xdfc26a",
      "gasUsed": "0x2d155",
      "effectiveGasPrice": "0x95282a7cf",
      "from": "0xefbbd14082cf2fbcf5badc7ee619f0f4e36d0a5b",
      "to": "0x8c209db03f5d16d955d75957f79fd4ca10b88bcc",
      "contractAddress": null
    }
  ],
  "libraries": [],
  "pending": [],
  "returns": {},
  "timestamp": 1732123451,
  "chain": 80002,
  "commit": "acf7e0f"
}