{
  "transactions": [
    {
      "hash": "0x10bb199f39407fb781f53e2c8fd4c775b0724958e2b62ccf3444f7ede0fb0c9f",
      "transactionType": "CALL",
      "contractName": null,
      "contractAddress": "0x0b07690a09fc5377cefb990400c18122ec49b2e2",
      "function": "authorizePolicy(address,bytes)",
      "arguments": [
        "0xf5999aE42C4D45Fd8d54e42EabF9cD9Df6d9E702",
        "0x0000000000000000000000000000000000000000000000000de0b6b3a76400000000000000000000000000003c7deb6feaeb7a82bde580fb73d8d69c401b219e"
      ],
      "transaction": {
        "from": "0xefbbd14082cf2fbcf5badc7ee619f0f4e36d0a5b",
        "to": "0x0b07690a09fc5377cefb990400c18122ec49b2e2",
        "gas": "0x41f06",
        "value": "0x0",
        "input": "0x2f6cc102000000000000000000000000f5999ae42c4d45fd8d54e42eabf9cd9df6d9e702000000000000000000000000000000000000000000000000000000000000004000000000000000000000000000000000000000000000000000000000000000400000000000000000000000000000000000000000000000000de0b6b3a76400000000000000000000000000003c7deb6feaeb7a82bde580fb73d8d69c401b219e",
        "nonce": "0x86e",
        "chainId": "0x13882"
      },
      "additionalContracts": [],
      "isFixedGasLimit": false
    }
  ],
  "receipts": [
    {
      "status": "0x1",
      "cumulativeGasUsed": "0x44acd",
      "logs": [
        {
          "address": "0x0b07690a09fc5377cefb990400c18122ec49b2e2",
          "topics": [
            "0x164745c0d5815644c1e92a17e242e89f9c0fd523fc3e94071b60f165692f3d79",
            "0x000000000000000000000000f5999ae42c4d45fd8d54e42eabf9cd9df6d9e702",
            "0x000000000000000000000000efbbd14082cf2fbcf5badc7ee619f0f4e36d0a5b"
          ],
          "data": "0x",
          "blockHash": "0x75a7caecfa0a7d0695b5a150fa31620eeb1697c5175ada8b043f6bebafbb1bc9",
          "blockNumber": "0xf597bc",
          "transactionHash": "0x10bb199f39407fb781f53e2c8fd4c775b0724958e2b62ccf3444f7ede0fb0c9f",
          "transactionIndex": "0x1",
          "logIndex": "0x2",
          "removed": false
        },
        {
          "address": "0x0000000000000000000000000000000000001010",
          "topics": [
            "0x4dfe1bbbcf077ddc3e01291eea2d5c70c2b422b415d95645b9adcfd678cb1d63",
            "0x0000000000000000000000000000000000000000000000000000000000001010",
            "0x000000000000000000000000efbbd14082cf2fbcf5badc7ee619f0f4e36d0a5b",
            "0x0000000000000000000000004ad84f7014b7b44f723f284a85b1662337971439"
          ],
          "data": "0x00000000000000000000000000000000000000000000000000106705faad779a000000000000000000000000000000000000000000000001425e0834b64728030000000000000000000000000000000000000000000004a2986005ddd1d111c5000000000000000000000000000000000000000000000001424da12ebb99b0690000000000000000000000000000000000000000000004a298706ce3cc7e895f",
          "blockHash": "0x75a7caecfa0a7d0695b5a150fa31620eeb1697c5175ada8b043f6bebafbb1bc9",
          "blockNumber": "0xf597bc",
          "transactionHash": "0x10bb199f39407fb781f53e2c8fd4c775b0724958e2b62ccf3444f7ede0fb0c9f",
          "transactionIndex": "0x1",
          "logIndex": "0x3",
          "removed": false
        }
      ],
      "logsBloom": "0x0000000000000000000000000000000000000000000000000000000000000000000000000000000000000000000000000000a000000000000000000000400000008000000000000000000000000000800000000000000000000100001000000000000000000000000000000000000000000000000000000080000000004000000800000000000000000000000200000000000000000000000000000000000000200000000001000000000000000000000000400000000000200000000100004000000000020000000001000000000000000000000000000000100000000000000000000008000100000000000000008000000000000000000000000000100000",
      "type": "0x2",
      "transactionHash": "0x10bb199f39407fb781f53e2c8fd4c775b0724958e2b62ccf3444f7ede0fb0c9f",
      "transactionIndex": "0x1",
      "blockHash": "0x75a7caecfa0a7d0695b5a150fa31620eeb1697c5175ada8b043f6bebafbb1bc9",
      "blockNumber": "0xf597bc",
      "gasUsed": "0x2d163",
      "effectiveGasPrice": "0x5d21dba2d",
      "from": "0xefbbd14082cf2fbcf5badc7ee619f0f4e36d0a5b",
      "to": "0x0b07690a09fc5377cefb990400c18122ec49b2e2",
      "contractAddress": null
    }
  ],
  "libraries": [],
  "pending": [],
  "returns": {},
  "timestamp": 1735248655,
  "chain": 80002,
  "commit": "b0c6d76"
}