{
  "transactions": [
    {
      "hash": "0x84d45d335c5510364732dceb703f14d2967e35b3e5145e8d9addc918588b40aa",
      "transactionType": "CALL",
      "contractName": null,
      "contractAddress": "0x06217f2e39a20faaa2b3433d90b5a9dd4187c4b4",
      "function": "authorizePolicy(address,bytes)",
      "arguments": [
        "0x1beb2AF7aBD05bD4aC527f4d994C2BA580e0a136",
        "0x0000000000000000000000000000000000000000000000000de0b6b3a764000000000000000000000000000035629402d19345dfc8d5f2bdf8ac878f385a6957"
      ],
      "transaction": {
        "from": "0xefbbd14082cf2fbcf5badc7ee619f0f4e36d0a5b",
        "to": "0x06217f2e39a20faaa2b3433d90b5a9dd4187c4b4",
        "gas": "0x3e456",
        "value": "0x0",
        "input": "0x2f6cc1020000000000000000000000001beb2af7abd05bd4ac527f4d994c2ba580e0a136000000000000000000000000000000000000000000000000000000000000004000000000000000000000000000000000000000000000000000000000000000400000000000000000000000000000000000000000000000000de0b6b3a764000000000000000000000000000035629402d19345dfc8d5f2bdf8ac878f385a6957",
        "nonce": "0x60c",
        "chainId": "0x13882"
      },
      "additionalContracts": [],
      "isFixedGasLimit": false
    }
  ],
  "receipts": [
    {
      "status": "0x1",
      "cumulativeGasUsed": "0x37a1d",
      "logs": [
        {
          "address": "0x06217f2e39a20faaa2b3433d90b5a9dd4187c4b4",
          "topics": [
            "0x164745c0d5815644c1e92a17e242e89f9c0fd523fc3e94071b60f165692f3d79",
            "0x0000000000000000000000001beb2af7abd05bd4ac527f4d994c2ba580e0a136",
            "0x000000000000000000000000efbbd14082cf2fbcf5badc7ee619f0f4e36d0a5b"
          ],
          "data": "0x",
          "blockHash": "0x0aff77c04ebf1299d201e805d96d3c38b2266d1c14d93f84ab2c2f74bff2588e",
          "blockNumber": "0xdcae68",
          "transactionHash": "0x84d45d335c5510364732dceb703f14d2967e35b3e5145e8d9addc918588b40aa",
          "transactionIndex": "0x1",
          "logIndex": "0x1",
          "removed": false
        },
        {
          "address": "0x0000000000000000000000000000000000001010",
          "topics": [
            "0x4dfe1bbbcf077ddc3e01291eea2d5c70c2b422b415d95645b9adcfd678cb1d63",
            "0x0000000000000000000000000000000000000000000000000000000000001010",
            "0x000000000000000000000000efbbd14082cf2fbcf5badc7ee619f0f4e36d0a5b",
            "0x0000000000000000000000006ab3d36c46ecfb9b9c0bd51cb1c3da5a2c81cea6"
          ],
          "data": "0x000000000000000000000000000000000000000000000000003b2f3a33171575000000000000000000000000000000000000000000000000093141e153c6597e00000000000000000000000000000000000000000000039cd9573768b1a19d4500000000000000000000000000000000000000000000000008f612a720af440900000000000000000000000000000000000000000000039cd99266a2e4b8b2ba",
          "blockHash": "0x0aff77c04ebf1299d201e805d96d3c38b2266d1c14d93f84ab2c2f74bff2588e",
          "blockNumber": "0xdcae68",
          "transactionHash": "0x84d45d335c5510364732dceb703f14d2967e35b3e5145e8d9addc918588b40aa",
          "transactionIndex": "0x1",
          "logIndex": "0x2",
          "removed": false
        }
      ],
      "logsBloom": "0x00000000080200000000000000000000000000000000000000000000000000000000000000000000000000000000000000008000000000000000000000000800008000080000000000000000000000800000000000000000000100000000240000000000000000000000000000000000000000000000000080000000000000000800000000000000000000000200000000000000000000000000000002000000200000000000000000000000000000000000400000000010000000000000004000000000000000000001000000000000000000010000000000100000000000000000000008000100000000000000000000000000000000000000000000100000",
      "type": "0x2",
      "transactionHash": "0x84d45d335c5510364732dceb703f14d2967e35b3e5145e8d9addc918588b40aa",
      "transactionIndex": "0x1",
      "blockHash": "0x0aff77c04ebf1299d201e805d96d3c38b2266d1c14d93f84ab2c2f74bff2588e",
      "blockNumber": "0xdcae68",
      "gasUsed": "0x2d155",
      "effectiveGasPrice": "0x150127b3b0",
      "from": "0xefbbd14082cf2fbcf5badc7ee619f0f4e36d0a5b",
      "to": "0x06217f2e39a20faaa2b3433d90b5a9dd4187c4b4",
      "contractAddress": null
    }
  ],
  "libraries": [],
  "pending": [],
  "returns": {},
  "timestamp": 1731686771,
  "chain": 80002,
  "commit": "5d3485c"
}