{
  "transactions": [
    {
      "hash": "0x7f3355a8432d858b1d9f6fe3ba3e2e0439bf3172bf8bc4c5cc6912b380a10cf5",
      "transactionType": "CALL",
      "contractName": null,
      "contractAddress": "0xf0f597eccf3ccb4f8c424f49a114c846278f445a",
      "function": "authorizePolicy(address,bytes)",
      "arguments": [
        "0xe70Bd81A4fB6A75193E8C085FcCB28245245Fa66",
        "0x0000000000000000000000000000000000000000000000000de0b6b3a7640000000000000000000000000000379f6d7fa5480a98bf89f417a6335747e0a51a35"
      ],
      "transaction": {
        "from": "0xefbbd14082cf2fbcf5badc7ee619f0f4e36d0a5b",
        "to": "0xf0f597eccf3ccb4f8c424f49a114c846278f445a",
        "gas": "0x41f11",
        "value": "0x0",
        "input": "0x2f6cc102000000000000000000000000e70bd81a4fb6a75193e8c085fccb28245245fa66000000000000000000000000000000000000000000000000000000000000004000000000000000000000000000000000000000000000000000000000000000400000000000000000000000000000000000000000000000000de0b6b3a7640000000000000000000000000000379f6d7fa5480a98bf89f417a6335747e0a51a35",
        "nonce": "0x549",
        "chainId": "0x13882"
      },
      "additionalContracts": [],
      "isFixedGasLimit": false
    }
  ],
  "receipts": [
    {
      "status": "0x1",
      "cumulativeGasUsed": "0x2d16a",
      "logs": [
        {
          "address": "0xf0f597eccf3ccb4f8c424f49a114c846278f445a",
          "topics": [
            "0x164745c0d5815644c1e92a17e242e89f9c0fd523fc3e94071b60f165692f3d79",
            "0x000000000000000000000000e70bd81a4fb6a75193e8c085fccb28245245fa66",
            "0x000000000000000000000000efbbd14082cf2fbcf5badc7ee619f0f4e36d0a5b"
          ],
          "data": "0x",
          "blockHash": "0xbca28d42e62748c56ed555141c2e4cc5a346a6c75f5b13791d429fd3e525a5ab",
          "blockNumber": "0xdc258b",
          "transactionHash": "0x7f3355a8432d858b1d9f6fe3ba3e2e0439bf3172bf8bc4c5cc6912b380a10cf5",
          "transactionIndex": "0x0",
          "logIndex": "0x0",
          "removed": false
        },
        {
          "address": "0x0000000000000000000000000000000000001010",
          "topics": [
            "0x4dfe1bbbcf077ddc3e01291eea2d5c70c2b422b415d95645b9adcfd678cb1d63",
            "0x0000000000000000000000000000000000000000000000000000000000001010",
            "0x000000000000000000000000efbbd14082cf2fbcf5badc7ee619f0f4e36d0a5b",
            "0x0000000000000000000000004ad84f7014b7b44f723f284a85b1662337971439"
          ],
          "data": "0x000000000000000000000000000000000000000000000000001a3eb128175aca00000000000000000000000000000000000000000000000035135703ac4fd03600000000000000000000000000000000000000000000040e5dc427b0d9dd1cc000000000000000000000000000000000000000000000000034f918528438756c00000000000000000000000000000000000000000000040e5dde666201f4778a",
          "blockHash": "0xbca28d42e62748c56ed555141c2e4cc5a346a6c75f5b13791d429fd3e525a5ab",
          "blockNumber": "0xdc258b",
          "transactionHash": "0x7f3355a8432d858b1d9f6fe3ba3e2e0439bf3172bf8bc4c5cc6912b380a10cf5",
          "transactionIndex": "0x0",
          "logIndex": "0x1",
          "removed": false
        }
      ],
      "logsBloom": "0x00000000000000000000000000000000000000000000000000000000000000000000000000000000000000000000000000008000000000000000000000400000008000000000000000000000000000c00000000000000000000100001000000000000000000000000000000000000000000000000000000080000000000000000800000000000000000000000200000000000000000000000000020000000000200000000000000000000000000000000000400000000000000000000000004000000000000000000001000000000000004000000000000000100000000000000800000008000100040000000000008000000000000000020000000000100000",
      "type": "0x2",
      "transactionHash": "0x7f3355a8432d858b1d9f6fe3ba3e2e0439bf3172bf8bc4c5cc6912b380a10cf5",
      "transactionIndex": "0x0",
      "blockHash": "0xbca28d42e62748c56ed555141c2e4cc5a346a6c75f5b13791d429fd3e525a5ab",
      "blockNumber": "0xdc258b",
      "gasUsed": "0x2d16a",
      "effectiveGasPrice": "0x9502f9000",
      "from": "0xefbbd14082cf2fbcf5badc7ee619f0f4e36d0a5b",
      "to": "0xf0f597eccf3ccb4f8c424f49a114c846278f445a",
      "contractAddress": null
    }
  ],
  "libraries": [],
  "pending": [],
  "returns": {},
  "timestamp": 1731612312,
  "chain": 80002,
  "commit": "bceebff"
}