{
  "transactions": [
    {
      "hash": "0x2bafbbabdb7db7a1260dad6ffbce25f027668ee23cb11c07df2ee476a3cbff99",
      "transactionType": "CALL",
      "contractName": null,
      "contractAddress": "0xb067eb46e92f9ea3c73c6153c121db3094316e35",
      "function": "grantCustody(address)",
      "arguments": [
        "0x19bee4b42a491B1f8577Ea8c332676fe98CD25A0"
      ],
      "transaction": {
        "from": "0xefbbd14082cf2fbcf5badc7ee619f0f4e36d0a5b",
        "to": "0xb067eb46e92f9ea3c73c6153c121db3094316e35",
        "gas": "0x44270",
        "value": "0x0",
        "input": "0x21cbe5d700000000000000000000000019bee4b42a491b1f8577ea8c332676fe98cd25a0",
        "nonce": "0x900",
        "chainId": "0x13882"
      },
      "additionalContracts": [],
      "isFixedGasLimit": false
    }
  ],
  "receipts": [
    {
      "status": "0x1",
      "cumulativeGasUsed": "0x4cd4a",
      "logs": [
        {
          "address": "0xb067eb46e92f9ea3c73c6153c121db3094316e35",
          "topics": [
            "0x9cf82755a4c98d86b77277357fa922272efe9f666b0df6fc7fbf318f2e8cd22b",
            "0x00000000000000000000000019bee4b42a491b1f8577ea8c332676fe98cd25a0",
            "0x000000000000000000000000efbbd14082cf2fbcf5badc7ee619f0f4e36d0a5b"
          ],
          "data": "0x",
          "blockHash": "0xd855d2bbc57f0a16dee262cd222e23cffe227109a94f22d07120cd020292f759",
          "blockNumber": "0xf8afb5",
          "transactionHash": "0x2bafbbabdb7db7a1260dad6ffbce25f027668ee23cb11c07df2ee476a3cbff99",
          "transactionIndex": "0x1",
          "logIndex": "0x4",
          "removed": false
        },
        {
          "address": "0x0000000000000000000000000000000000001010",
          "topics": [
            "0x4dfe1bbbcf077ddc3e01291eea2d5c70c2b422b415d95645b9adcfd678cb1d63",
            "0x0000000000000000000000000000000000000000000000000000000000001010",
            "0x000000000000000000000000efbbd14082cf2fbcf5badc7ee619f0f4e36d0a5b",
            "0x00000000000000000000000085ebd6dc97d56f62e371382b38eae91f3bb4ecb2"
          ],
          "data": "0x0000000000000000000000000000000000000000000000000010f3f8e82be4000000000000000000000000000000000000000000000000015c0e42b2f6d3cafd00000000000000000000000000000000000000000000007e985256f80523ae2a0000000000000000000000000000000000000000000000015bfd4eba0ea7e6fd00000000000000000000000000000000000000000000007e98634af0ed4f922a",
          "blockHash": "0xd855d2bbc57f0a16dee262cd222e23cffe227109a94f22d07120cd020292f759",
          "blockNumber": "0xf8afb5",
          "transactionHash": "0x2bafbbabdb7db7a1260dad6ffbce25f027668ee23cb11c07df2ee476a3cbff99",
          "transactionIndex": "0x1",
          "logIndex": "0x5",
          "removed": false
        }
      ],
      "logsBloom": "0x00000400000000000000000000000000000200000000020000000000000000800000000000000000000000000000000000008000000000000000000000000000008000000000000000000000000000800000000000000000000100000000400000000000000000000000000800000000000000000000000080008000000000000800000000000000000000000000000000000000000000000010000000000000200000000004000000000000000000000000400000000000000000000000004000000000000000000101000000000000000000000000000000100000000000000000000000020000000000000000000000000000000000000000000004100000",
      "type": "0x2",
      "transactionHash": "0x2bafbbabdb7db7a1260dad6ffbce25f027668ee23cb11c07df2ee476a3cbff99",
      "transactionIndex": "0x1",
      "blockHash": "0xd855d2bbc57f0a16dee262cd222e23cffe227109a94f22d07120cd020292f759",
      "blockNumber": "0xf8afb5",
      "gasUsed": "0x2e99a",
      "effectiveGasPrice": "0x5d21dba0f",
      "from": "0xefbbd14082cf2fbcf5badc7ee619f0f4e36d0a5b",
      "to": "0xb067eb46e92f9ea3c73c6153c121db3094316e35",
      "contractAddress": null
    }
  ],
  "libraries": [],
  "pending": [],
  "returns": {},
  "timestamp": 1735679547,
  "chain": 80002,
  "commit": "0178cdc"
}