{
  "transactions": [
    {
      "hash": "0x10f92fc5a0299d69e663263141abf458d44b8dd8c1db23785379563b6052ce81",
      "transactionType": "CALL",
      "contractName": null,
      "contractAddress": "0x12bbdfed8acec9c6b111eb25a30e2bfd3613a4cd",
      "function": "grantCustody(address)",
      "arguments": [
        "0xDC1E64EFbaaac10dEc6F151EC89c735e9F2CFc18"
      ],
      "transaction": {
        "from": "0xefbbd14082cf2fbcf5badc7ee619f0f4e36d0a5b",
        "to": "0x12bbdfed8acec9c6b111eb25a30e2bfd3613a4cd",
        "gas": "0x44270",
        "value": "0x0",
        "input": "0x21cbe5d7000000000000000000000000dc1e64efbaaac10dec6f151ec89c735e9f2cfc18",
        "nonce": "0x8c0",
        "chainId": "0x13882"
      },
      "additionalContracts": [],
      "isFixedGasLimit": false
    }
  ],
  "receipts": [
    {
      "status": "0x1",
      "cumulativeGasUsed": "0x2e99a",
      "logs": [
        {
          "address": "0x12bbdfed8acec9c6b111eb25a30e2bfd3613a4cd",
          "topics": [
            "0x9cf82755a4c98d86b77277357fa922272efe9f666b0df6fc7fbf318f2e8cd22b",
            "0x000000000000000000000000dc1e64efbaaac10dec6f151ec89c735e9f2cfc18",
            "0x000000000000000000000000efbbd14082cf2fbcf5badc7ee619f0f4e36d0a5b"
          ],
          "data": "0x",
          "blockHash": "0x571db5609e6bb03ebfaee56853108cafdff1575041519ecf148fb544ddf4a86b",
          "blockNumber": "0xf62888",
          "transactionHash": "0x10f92fc5a0299d69e663263141abf458d44b8dd8c1db23785379563b6052ce81",
          "transactionIndex": "0x0",
          "logIndex": "0x0",
          "removed": false
        },
        {
          "address": "0x0000000000000000000000000000000000001010",
          "topics": [
            "0x4dfe1bbbcf077ddc3e01291eea2d5c70c2b422b415d95645b9adcfd678cb1d63",
            "0x0000000000000000000000000000000000000000000000000000000000001010",
            "0x000000000000000000000000efbbd14082cf2fbcf5badc7ee619f0f4e36d0a5b",
            "0x0000000000000000000000004ad84f7014b7b44f723f284a85b1662337971439"
          ],
          "data": "0x0000000000000000000000000000000000000000000000000013edabe27fa9200000000000000000000000000000000000000000000000012c46de323ab522830000000000000000000000000000000000000000000004a4c840b802ee9fcaaa0000000000000000000000000000000000000000000000012c32f086583579630000000000000000000000000000000000000000000004a4c854a5aed11f73ca",
          "blockHash": "0x571db5609e6bb03ebfaee56853108cafdff1575041519ecf148fb544ddf4a86b",
          "blockNumber": "0xf62888",
          "transactionHash": "0x10f92fc5a0299d69e663263141abf458d44b8dd8c1db23785379563b6052ce81",
          "transactionIndex": "0x0",
          "logIndex": "0x1",
          "removed": false
        }
      ],
      "logsBloom": "0x00000000000000000000000000001000000000000000000000020000000000000000000000000000000000000000000000008000000000000000000000400000008000000000000000000000000000800000000000000000000100001000000000000000000000000010000800000000000000000000000080000000001000000800000000000000000000000000000000000000000000000000000000000000200000000004000000000000000000000000400000000800000000000000004000000000000000000101000000000000000000000000000000100000000000000000000000000000000000000000008000000000000000000000000004100000",
      "type": "0x2",
      "transactionHash": "0x10f92fc5a0299d69e663263141abf458d44b8dd8c1db23785379563b6052ce81",
      "transactionIndex": "0x0",
      "blockHash": "0x571db5609e6bb03ebfaee56853108cafdff1575041519ecf148fb544ddf4a86b",
      "blockNumber": "0xf62888",
      "gasUsed": "0x2e99a",
      "effectiveGasPrice": "0x6d7a4a6df",
      "from": "0xefbbd14082cf2fbcf5badc7ee619f0f4e36d0a5b",
      "to": "0x12bbdfed8acec9c6b111eb25a30e2bfd3613a4cd",
      "contractAddress": null
    }
  ],
  "libraries": [],
  "pending": [],
  "returns": {},
  "timestamp": 1735327438,
  "chain": 80002,
  "commit": "97f1e6a"
}