{
  "transactions": [
    {
      "hash": "0x6b89fff6005f61610679a6d9bd498af3abd97f1ebba3087ac0ab7216f44f58ec",
      "transactionType": "CALL",
      "contractName": null,
      "contractAddress": "0xc3849e161741a86f3d0cfc7ea89fec4a5128df63",
      "function": "grantCustody(address)",
      "arguments": [
        "0x9B4f787aE2Da1E08D11CD5d08BBCB70D940fe3Aa"
      ],
      "transaction": {
        "from": "0xefbbd14082cf2fbcf5badc7ee619f0f4e36d0a5b",
        "to": "0xc3849e161741a86f3d0cfc7ea89fec4a5128df63",
        "gas": "0x4076e",
        "value": "0x0",
        "input": "0x21cbe5d70000000000000000000000009b4f787ae2da1e08d11cd5d08bbcb70d940fe3aa",
        "nonce": "0x9df",
        "chainId": "0x13882"
      },
      "additionalContracts": [],
      "isFixedGasLimit": false
    }
  ],
  "receipts": [
    {
      "status": "0x1",
      "cumulativeGasUsed": "0x2eabe",
      "logs": [
        {
          "address": "0xc3849e161741a86f3d0cfc7ea89fec4a5128df63",
          "topics": [
            "0x3a0b26d0a866e22fae5ecf250149442c3ea49d71aab68c0412d473b147d2f64c",
            "0x0000000000000000000000009b4f787ae2da1e08d11cd5d08bbcb70d940fe3aa",
            "0x000000000000000000000000efbbd14082cf2fbcf5badc7ee619f0f4e36d0a5b"
          ],
          "data": "0x00000000000000000000000000000000000000000000000000000000677d53d3",
          "blockHash": "0xb5744a36c15490b736bc8b9554b2f35bfbe0352612ec1a54017b1860fbf5651b",
          "blockNumber": "0xfce6e0",
          "transactionHash": "0x6b89fff6005f61610679a6d9bd498af3abd97f1ebba3087ac0ab7216f44f58ec",
          "transactionIndex": "0x0",
          "logIndex": "0x0",
          "removed": false
        },
        {
          "address": "0x0000000000000000000000000000000000001010",
          "topics": [
            "0x4dfe1bbbcf077ddc3e01291eea2d5c70c2b422b415d95645b9adcfd678cb1d63",
            "0x0000000000000000000000000000000000000000000000000000000000001010",
            "0x000000000000000000000000efbbd14082cf2fbcf5badc7ee619f0f4e36d0a5b",
            "0x0000000000000000000000004631753190f2f5a15a7ba172bbac102b7d95fa22"
          ],
          "data": "0x000000000000000000000000000000000000000000000000001b2a941cece00000000000000000000000000000000000000000000000000132acca77cdf611760000000000000000000000000000000000000000000003f85f6fd2e24f1f828d00000000000000000000000000000000000000000000000132919fe3b10931760000000000000000000000000000000000000000000003f85f8afd766c0c628d",
          "blockHash": "0xb5744a36c15490b736bc8b9554b2f35bfbe0352612ec1a54017b1860fbf5651b",
          "blockNumber": "0xfce6e0",
          "transactionHash": "0x6b89fff6005f61610679a6d9bd498af3abd97f1ebba3087ac0ab7216f44f58ec",
          "transactionIndex": "0x0",
          "logIndex": "0x1",
          "removed": false
        }
      ],
      "logsBloom": "0x00000000000000000000000000000000000000002000000000000000000000000000000000000000000000000000000000008020000000000000000040000000008000000000000000000000000000900000000000000008000100000000000000000000000000100004040000000000000000000000000080000040000000000800000000000000000000000000000000000000000000000000000000000000200000000000000000000000000000000000400000040000000000000000004000000000000000000001800000000000000000000000000000100000000000000000000000000000000000000000001000000000000000000000000000100000",
      "type": "0x2",
      "transactionHash": "0x6b89fff6005f61610679a6d9bd498af3abd97f1ebba3087ac0ab7216f44f58ec",
      "transactionIndex": "0x0",
      "blockHash": "0xb5744a36c15490b736bc8b9554b2f35bfbe0352612ec1a54017b1860fbf5651b",
      "blockNumber": "0xfce6e0",
      "gasUsed": "0x2eabe",
      "effectiveGasPrice": "0x9502f900f",
      "from": "0xefbbd14082cf2fbcf5badc7ee619f0f4e36d0a5b",
      "to": "0xc3849e161741a86f3d0cfc7ea89fec4a5128df63",
      "contractAddress": null
    }
  ],
  "libraries": [],
  "pending": [],
  "returns": {},
  "timestamp": 1736266707,
  "chain": 80002,
  "commit": "3644831"
}