{
  "transactions": [
    {
      "hash": "0xbf92b5763531a9817e45cdb793fa467f913fa4623da6ccd770ceb04fbc15bb69",
      "transactionType": "CALL",
      "contractName": null,
      "contractAddress": "0xbd67e67756415576002f67856833f9636c24e199",
      "function": "grantCustody(address)",
      "arguments": [
        "0x5B903C9598409A6857056Fc8a397F74716A5C71D"
      ],
      "transaction": {
        "from": "0xefbbd14082cf2fbcf5badc7ee619f0f4e36d0a5b",
        "to": "0xbd67e67756415576002f67856833f9636c24e199",
        "gas": "0x405f8",
        "value": "0x0",
        "input": "0x21cbe5d70000000000000000000000005b903c9598409a6857056fc8a397f74716a5c71d",
        "nonce": "0xa3a",
        "chainId": "0x13882"
      },
      "additionalContracts": [],
      "isFixedGasLimit": false
    }
  ],
  "receipts": [
    {
      "status": "0x1",
      "cumulativeGasUsed": "0x2e9af",
      "logs": [
        {
          "address": "0xbd67e67756415576002f67856833f9636c24e199",
          "topics": [
            "0x9cf82755a4c98d86b77277357fa922272efe9f666b0df6fc7fbf318f2e8cd22b",
            "0x0000000000000000000000005b903c9598409a6857056fc8a397f74716a5c71d",
            "0x000000000000000000000000efbbd14082cf2fbcf5badc7ee619f0f4e36d0a5b"
          ],
          "data": "0x",
          "blockHash": "0xd3bf54ac9b27ba5e112013f7fe19260ee3216324d6e34a540e630b46cb824c9b",
          "blockNumber": "0xfe14bf",
          "transactionHash": "0xbf92b5763531a9817e45cdb793fa467f913fa4623da6ccd770ceb04fbc15bb69",
          "transactionIndex": "0x0",
          "logIndex": "0x0",
          "removed": false
        },
        {
          "address": "0x0000000000000000000000000000000000001010",
          "topics": [
            "0x4dfe1bbbcf077ddc3e01291eea2d5c70c2b422b415d95645b9adcfd678cb1d63",
            "0x0000000000000000000000000000000000000000000000000000000000001010",
            "0x000000000000000000000000efbbd14082cf2fbcf5badc7ee619f0f4e36d0a5b",
            "0x00000000000000000000000009207a6efee346cb3e4a54ac18523e3715d38b3f"
          ],
          "data": "0x0000000000000000000000000000000000000000000000000028e8d63dee62b60000000000000000000000000000000000000000000000011793aa9e472e4923000000000000000000000000000000000000000000000467dc3003f832b26d31000000000000000000000000000000000000000000000001176ac1c8093fe66d000000000000000000000000000000000000000000000467dc58ecce70a0cfe7",
          "blockHash": "0xd3bf54ac9b27ba5e112013f7fe19260ee3216324d6e34a540e630b46cb824c9b",
          "blockNumber": "0xfe14bf",
          "transactionHash": "0xbf92b5763531a9817e45cdb793fa467f913fa4623da6ccd770ceb04fbc15bb69",
          "transactionIndex": "0x0",
          "logIndex": "0x1",
          "removed": false
        }
      ],
      "logsBloom": "0x00000000000000000800000400000000000000000000000000000000000000000000000000000000000000000000000000008000000000000000010000000000008000000040000000000000000000800000000000000000000100002000000000000000000008000000000800000000000000000000000080000000000000000800000000000000000000000000000000004000000000000000000000000000200000000004000000000000000000000000400000000000000020000000004000000000000000000001000000000000000000000000000000100000000000000000000000000000000000010000000000000000000000000000000004100000",
      "type": "0x2",
      "transactionHash": "0xbf92b5763531a9817e45cdb793fa467f913fa4623da6ccd770ceb04fbc15bb69",
      "transactionIndex": "0x0",
      "blockHash": "0xd3bf54ac9b27ba5e112013f7fe19260ee3216324d6e34a540e630b46cb824c9b",
      "blockNumber": "0xfe14bf",
      "gasUsed": "0x2e9af",
      "effectiveGasPrice": "0xe0b6bb439",
      "from": "0xefbbd14082cf2fbcf5badc7ee619f0f4e36d0a5b",
      "to": "0xbd67e67756415576002f67856833f9636c24e199",
      "contractAddress": null
    }
  ],
  "libraries": [],
  "pending": [],
  "returns": {},
  "timestamp": 1736434090,
  "chain": 80002,
  "commit": "b36aadb"
}