{
  "transactions": [
    {
      "hash": "0xf51d09efd5238c9653868643707d074407e76042f4738f44ef666fa833f48539",
      "transactionType": "CALL",
      "contractName": null,
      "contractAddress": "0xf6c0a282b2a51497a15a1c2c06131a8377fb3461",
      "function": "grantCustody(address)",
      "arguments": [
        "0x80192532Ea060C60179014BA42292CF81A15764a"
      ],
      "transaction": {
        "from": "0xefbbd14082cf2fbcf5badc7ee619f0f4e36d0a5b",
        "to": "0xf6c0a282b2a51497a15a1c2c06131a8377fb3461",
        "gas": "0x405f8",
        "value": "0x0",
        "input": "0x21cbe5d700000000000000000000000080192532ea060c60179014ba42292cf81a15764a",
        "nonce": "0x961",
        "chainId": "0x13882"
      },
      "additionalContracts": [],
      "isFixedGasLimit": false
    }
  ],
  "receipts": [
    {
      "status": "0x1",
      "cumulativeGasUsed": "0x3b6a4",
      "logs": [
        {
          "address": "0xf6c0a282b2a51497a15a1c2c06131a8377fb3461",
          "topics": [
            "0x9cf82755a4c98d86b77277357fa922272efe9f666b0df6fc7fbf318f2e8cd22b",
            "0x00000000000000000000000080192532ea060c60179014ba42292cf81a15764a",
            "0x000000000000000000000000efbbd14082cf2fbcf5badc7ee619f0f4e36d0a5b"
          ],
          "data": "0x",
          "blockHash": "0x3e259d04557e9e9c251c1a13e252196db25dee2d46c513cc1fe4920807fe011e",
          "blockNumber": "0xfc9544",
          "transactionHash": "0xf51d09efd5238c9653868643707d074407e76042f4738f44ef666fa833f48539",
          "transactionIndex": "0x1",
          "logIndex": "0x2",
          "removed": false
        },
        {
          "address": "0x0000000000000000000000000000000000001010",
          "topics": [
            "0x4dfe1bbbcf077ddc3e01291eea2d5c70c2b422b415d95645b9adcfd678cb1d63",
            "0x0000000000000000000000000000000000000000000000000000000000001010",
            "0x000000000000000000000000efbbd14082cf2fbcf5badc7ee619f0f4e36d0a5b",
            "0x00000000000000000000000009207a6efee346cb3e4a54ac18523e3715d38b3f"
          ],
          "data": "0x0000000000000000000000000000000000000000000000000017bca1331550bf000000000000000000000000000000000000000000000001429d0398af4c8e1b000000000000000000000000000000000000000000000461fdd4ff65b6bd857e000000000000000000000000000000000000000000000001428546f77c373d5c000000000000000000000000000000000000000000000461fdecbc06e9d2d63d",
          "blockHash": "0x3e259d04557e9e9c251c1a13e252196db25dee2d46c513cc1fe4920807fe011e",
          "blockNumber": "0xfc9544",
          "transactionHash": "0xf51d09efd5238c9653868643707d074407e76042f4738f44ef666fa833f48539",
          "transactionIndex": "0x1",
          "logIndex": "0x3",
          "removed": false
        }
      ],
      "logsBloom": "0x00000000000000000000000000000000000000000000000000000000000020000000000000000000000000000000000000008000000000000000010000000000008000000000000000000000000000800000000000000000000100000000000000000000000000000000000800001000000000000000000080000000000000000800000000000000000000020000008000004000000000000000000000000000200000000004000000000000000000000000400000000000000000000001004000000000000000000001000000000000000000000000000000100000000000000000000000000000000010010000000000000000000000000000000004100000",
      "type": "0x2",
      "transactionHash": "0xf51d09efd5238c9653868643707d074407e76042f4738f44ef666fa833f48539",
      "transactionIndex": "0x1",
      "blockHash": "0x3e259d04557e9e9c251c1a13e252196db25dee2d46c513cc1fe4920807fe011e",
      "blockNumber": "0xfc9544",
      "gasUsed": "0x2e9af",
      "effectiveGasPrice": "0x826299e00",
      "from": "0xefbbd14082cf2fbcf5badc7ee619f0f4e36d0a5b",
      "to": "0xf6c0a282b2a51497a15a1c2c06131a8377fb3461",
      "contractAddress": null
    }
  ],
  "libraries": [],
  "pending": [],
  "returns": {},
  "timestamp": 1736222312,
  "chain": 80002,
  "commit": "0798d1a"
}