{
  "transactions": [
    {
      "hash": "0xf7b76b9175263c10beb1517698277e2cc17fd737e6664520edcccce01c97c4fb",
      "transactionType": "CALL",
      "contractName": null,
      "contractAddress": "0xf6c0a282b2a51497a15a1c2c06131a8377fb3461",
      "function": "grantCustody(address)",
      "arguments": [
        "0x80192532Ea060C60179014BA42292CF81A15764a"
      ],
      "transaction": {
        "from": "0xefbbd14082cf2fbcf5badc7ee619f0f4e36d0a5b",
        "to": "0xf6c0a282b2a51497a15a1c2c06131a8377fb3461",
        "gas": "0x16b20",
        "value": "0x0",
        "input": "0x21cbe5d700000000000000000000000080192532ea060c60179014ba42292cf81a15764a",
        "nonce": "0x9b0",
        "chainId": "0x13882"
      },
      "additionalContracts": [],
      "isFixedGasLimit": false
    }
  ],
  "receipts": [
    {
      "status": "0x1",
      "cumulativeGasUsed": "0xf84b",
      "logs": [
        {
          "address": "0xf6c0a282b2a51497a15a1c2c06131a8377fb3461",
          "topics": [
            "0x9cf82755a4c98d86b77277357fa922272efe9f666b0df6fc7fbf318f2e8cd22b",
            "0x00000000000000000000000080192532ea060c60179014ba42292cf81a15764a",
            "0x000000000000000000000000efbbd14082cf2fbcf5badc7ee619f0f4e36d0a5b"
          ],
          "data": "0x",
          "blockHash": "0x27b7e8d0faa9ca13498a5973a8ae205a3e72bfcf8416a6547cf9ca45654b71ce",
          "blockNumber": "0xfc976d",
          "transactionHash": "0xf7b76b9175263c10beb1517698277e2cc17fd737e6664520edcccce01c97c4fb",
          "transactionIndex": "0x0",
          "logIndex": "0x0",
          "removed": false
        },
        {
          "address": "0x0000000000000000000000000000000000001010",
          "topics": [
            "0x4dfe1bbbcf077ddc3e01291eea2d5c70c2b422b415d95645b9adcfd678cb1d63",
            "0x0000000000000000000000000000000000000000000000000000000000001010",
            "0x000000000000000000000000efbbd14082cf2fbcf5badc7ee619f0f4e36d0a5b",
            "0x0000000000000000000000006ab3d36c46ecfb9b9c0bd51cb1c3da5a2c81cea6"
          ],
          "data": "0x0000000000000000000000000000000000000000000000000007527f0165c59400000000000000000000000000000000000000000000000140f525b52c960a1500000000000000000000000000000000000000000000045af411380ef1196c1f00000000000000000000000000000000000000000000000140edd3362b30448100000000000000000000000000000000000000000000045af4188a8df27f31b3",
          "blockHash": "0x27b7e8d0faa9ca13498a5973a8ae205a3e72bfcf8416a6547cf9ca45654b71ce",
          "blockNumber": "0xfc976d",
          "transactionHash": "0xf7b76b9175263c10beb1517698277e2cc17fd737e6664520edcccce01c97c4fb",
          "transactionIndex": "0x0",
          "logIndex": "0x1",
          "removed": false
        }
      ],
      "logsBloom": "0x00000000080000000000000000000000000000000000000000000000000020000000000000000000000000000000000000008000000000000000000000000000008000080000000000000000000000800000000000000000000100000000000000000000000000000000000800001000000000000000000080000000000000000800000000000000000000020000008000000000000000000000000000000000200000000004000000000000000000000000400000000000000000000001004000000000000000000001000000000000000000010000000000100000000000000000000000000000000010000000000000000000000000000000000004100000",
      "type": "0x2",
      "transactionHash": "0xf7b76b9175263c10beb1517698277e2cc17fd737e6664520edcccce01c97c4fb",
      "transactionIndex": "0x0",
      "blockHash": "0x27b7e8d0faa9ca13498a5973a8ae205a3e72bfcf8416a6547cf9ca45654b71ce",
      "blockNumber": "0xfc976d",
      "gasUsed": "0xf84b",
      "effectiveGasPrice": "0x78cae3c4b",
      "from": "0xefbbd14082cf2fbcf5badc7ee619f0f4e36d0a5b",
      "to": "0xf6c0a282b2a51497a15a1c2c06131a8377fb3461",
      "contractAddress": null
    }
  ],
  "libraries": [],
  "pending": [],
  "returns": {},
  "timestamp": 1736223485,
  "chain": 80002,
  "commit": "0798d1a"
}