{
  "transactions": [
    {
      "hash": "0x8e898c80706bac722a26dd05f494a3e545f304ab5b4dab384fd4cd4b65010676",
      "transactionType": "CALL",
      "contractName": null,
      "contractAddress": "0xc2a1c5742c386d20f8b438b7b6389ef2ce54e18c",
      "function": "create(string)",
      "arguments": [
        "https://g.watchit.movie"
      ],
      "transaction": {
        "from": "0xefbbd14082cf2fbcf5badc7ee619f0f4e36d0a5b",
        "to": "0xc2a1c5742c386d20f8b438b7b6389ef2ce54e18c",
        "gas": "0x5ab07",
        "value": "0x0",
        "input": "0xb6a46b3b0000000000000000000000000000000000000000000000000000000000000020000000000000000000000000000000000000000000000000000000000000001768747470733a2f2f672e776174636869742e6d6f766965000000000000000000",
        "nonce": "0x8fb",
        "chainId": "0x13882"
      },
      "additionalContracts": [
        {
          "transactionType": "CREATE",
          "address": "0x19bee4b42a491b1f8577ea8c332676fe98cd25a0",
          "initCode": "0x60a08060405261050d80380380916100178285610292565b833981016040828203126101eb5761002e826102c9565b602083015190926001600160401b0382116101eb57019080601f830112156101eb57815161005b816102dd565b926100696040519485610292565b8184526020840192602083830101116101eb57815f926020809301855e84010152823b15610274577fa3f0ad74e5423aebfd80d3ef4346578335a9a72aeaee59ff6cb3582b35133d5080546001600160a01b0319166001600160a01b038516908117909155604051635c60da1b60e01b8152909190602081600481865afa9081156101f7575f9161023a575b50803b1561021a5750817f1cf3b03a6cf19fa2baba4df148e9dcabedea7f8a5c07840e207e5c089be95d3e5f80a282511561020257602060049260405193848092635c60da1b60e01b82525afa9182156101f7575f926101ae575b505f809161018a945190845af43d156101a6573d9161016e836102dd565b9261017c6040519485610292565b83523d5f602085013e6102f8565b505b6080526040516101b6908161035782396080518160460152f35b6060916102f8565b9291506020833d6020116101ef575b816101ca60209383610292565b810103126101eb575f80916101e161018a956102c9565b9394509150610150565b5f80fd5b3d91506101bd565b6040513d5f823e3d90fd5b505050341561018c5763b398979f60e01b5f5260045ffd5b634c9c8ce360e01b5f9081526001600160a01b0391909116600452602490fd5b90506020813d60201161026c575b8161025560209383610292565b810103126101eb57610266906102c9565b5f6100f5565b3d9150610248565b631933b43b60e21b5f9081526001600160a01b038416600452602490fd5b601f909101601f19168101906001600160401b038211908210176102b557604052565b634e487b7160e01b5f52604160045260245ffd5b51906001600160a01b03821682036101eb57565b6001600160401b0381116102b557601f01601f191660200190565b9061031c575080511561030d57805190602001fd5b63d6bda27560e01b5f5260045ffd5b8151158061034d575b61032d575090565b639996b31560e01b5f9081526001600160a01b0391909116600452602490fd5b50803b1561032556fe60806040527f5c60da1b000000000000000000000000000000000000000000000000000000006080526020608060048173ffffffffffffffffffffffffffffffffffffffff7f0000000000000000000000000000000000000000000000000000000000000000165afa8015610107575f9015610163575060203d602011610100575b7fffffffffffffffffffffffffffffffffffffffffffffffffffffffffffffffe0601f820116608001906080821067ffffffffffffffff8311176100d3576100ce91604052608001610112565b610163565b7f4e487b71000000000000000000000000000000000000000000000000000000005f52604160045260245ffd5b503d610081565b6040513d5f823e3d90fd5b7fffffffffffffffffffffffffffffffffffffffffffffffffffffffffffffff80602091011261015f5760805173ffffffffffffffffffffffffffffffffffffffff8116810361015f5790565b5f80fd5b5f8091368280378136915af43d5f803e1561017c573d5ff35b3d5ffdfea264697066735822122064427a31676ba3427858a99499cd34caa0223a53e5d14b45aaf09cce1cb3243c64736f6c634300081a0033000000000000000000000000c2a1c5742c386d20f8b438b7b6389ef2ce54e18c000000000000000000000000000000000000000000000000000000000000004000000000000000000000000000000000000000000000000000000000000000847ab4339d0000000000000000000000000000000000000000000000000000000000000040000000000000000000000000efbbd14082cf2fbcf5badc7ee619f0f4e36d0a5b000000000000000000000000000000000000000000000000000000000000001768747470733a2f2f672e776174636869742e6d6f76696500000000000000000000000000000000000000000000000000000000000000000000000000"
        }
      ],
      "isFixedGasLimit": false
    },
    {
      "hash": "0xae89f0c0f92b68b7066f0531d5839e41b3dae021fd50fb6ba6c2515643eb88ab",
      "transactionType": "CALL",
      "contractName": null,
      "contractAddress": "0x3c7deb6feaeb7a82bde580fb73d8d69c401b219e",
      "function": "approve(address,uint256)",
      "arguments": [
        "0x3C811BC4876045228b37451EDd29326c0b709F9A",
        "100000000000000000000"
      ],
      "transaction": {
        "from": "0xefbbd14082cf2fbcf5badc7ee619f0f4e36d0a5b",
        "to": "0x3c7deb6feaeb7a82bde580fb73d8d69c401b219e",
        "gas": "0x106da",
        "value": "0x0",
        "input": "0x095ea7b30000000000000000000000003c811bc4876045228b37451edd29326c0b709f9a0000000000000000000000000000000000000000000000056bc75e2d63100000",
        "nonce": "0x8fc",
        "chainId": "0x13882"
      },
      "additionalContracts": [],
      "isFixedGasLimit": false
    },
    {
      "hash": "0xa0d23b63ce8c89316aac0f640d7caf9441b4be15a779be2e93edc4652532239f",
      "transactionType": "CALL",
      "contractName": null,
      "contractAddress": "0x3c811bc4876045228b37451edd29326c0b709f9a",
      "function": "deposit(address,uint256,address)",
      "arguments": [
        "0xEFBBD14082cF2FbCf5Badc7ee619F0f4e36D0A5B",
        "100000000000000000000",
        "0x3c7DeB6FeAEb7a82BDe580Fb73d8d69c401b219e"
      ],
      "transaction": {
        "from": "0xefbbd14082cf2fbcf5badc7ee619f0f4e36d0a5b",
        "to": "0x3c811bc4876045228b37451edd29326c0b709f9a",
        "gas": "0x208cc",
        "value": "0x0",
        "input": "0xf45346dc000000000000000000000000efbbd14082cf2fbcf5badc7ee619f0f4e36d0a5b0000000000000000000000000000000000000000000000056bc75e2d631000000000000000000000000000003c7deb6feaeb7a82bde580fb73d8d69c401b219e",
        "nonce": "0x8fd",
        "chainId": "0x13882"
      },
      "additionalContracts": [],
      "isFixedGasLimit": false
    },
    {
      "hash": "0xc77bcb3805d383e922a64c54eaa0d7e9a06601e6aa447f56efe3ffee2f9cb807",
      "transactionType": "CALL",
      "contractName": null,
      "contractAddress": "0x1314059a68e81aab9ee928c96434f99d4fa621bf",
      "function": "register(address,address)",
      "arguments": [
        "0x19bee4b42a491B1f8577Ea8c332676fe98CD25A0",
        "0x3c7DeB6FeAEb7a82BDe580Fb73d8d69c401b219e"
      ],
      "transaction": {
        "from": "0xefbbd14082cf2fbcf5badc7ee619f0f4e36d0a5b",
        "to": "0x1314059a68e81aab9ee928c96434f99d4fa621bf",
        "gas": "0x3ed86",
        "value": "0x0",
        "input": "0xaa67735400000000000000000000000019bee4b42a491b1f8577ea8c332676fe98cd25a00000000000000000000000003c7deb6feaeb7a82bde580fb73d8d69c401b219e",
        "nonce": "0x8fe",
        "chainId": "0x13882"
      },
      "additionalContracts": [],
      "isFixedGasLimit": false
    },
    {
      "hash": "0xf3089396e0bf3ccaa08823512717fd9bc5b3723ac5eac0ce531526904bc16a82",
      "transactionType": "CALL",
      "contractName": null,
      "contractAddress": "0x1314059a68e81aab9ee928c96434f99d4fa621bf",
      "function": "approve(address)",
      "arguments": [
        "0x19bee4b42a491B1f8577Ea8c332676fe98CD25A0"
      ],
      "transaction": {
        "from": "0xefbbd14082cf2fbcf5badc7ee619f0f4e36d0a5b",
        "to": "0x1314059a68e81aab9ee928c96434f99d4fa621bf",
        "gas": "0x1f7ed",
        "value": "0x0",
        "input": "0xdaea85c500000000000000000000000019bee4b42a491b1f8577ea8c332676fe98cd25a0",
        "nonce": "0x8ff",
        "chainId": "0x13882"
      },
      "additionalContracts": [],
      "isFixedGasLimit": false
    }
  ],
  "receipts": [
    {
      "status": "0x1",
      "cumulativeGasUsed": "0x5ec35",
      "logs": [
        {
          "address": "0x19bee4b42a491b1f8577ea8c332676fe98cd25a0",
          "topics": [
            "0x1cf3b03a6cf19fa2baba4df148e9dcabedea7f8a5c07840e207e5c089be95d3e",
            "0x000000000000000000000000c2a1c5742c386d20f8b438b7b6389ef2ce54e18c"
          ],
          "data": "0x",
          "blockHash": "0x0bb1d924b9b6424840febf578d9180fbb6e05c7aaa489242727cbd0281f17ee4",
          "blockNumber": "0xf8afad",
          "transactionHash": "0x8e898c80706bac722a26dd05f494a3e545f304ab5b4dab384fd4cd4b65010676",
          "transactionIndex": "0x1",
          "logIndex": "0x3",
          "removed": false
        },
        {
          "address": "0x19bee4b42a491b1f8577ea8c332676fe98cd25a0",
          "topics": [
            "0x8be0079c531659141344cd1fd0a4f28419497f9722a3daafe3b4186f6b6457e0",
            "0x0000000000000000000000000000000000000000000000000000000000000000",
            "0x000000000000000000000000efbbd14082cf2fbcf5badc7ee619f0f4e36d0a5b"
          ],
          "data": "0x",
          "blockHash": "0x0bb1d924b9b6424840febf578d9180fbb6e05c7aaa489242727cbd0281f17ee4",
          "blockNumber": "0xf8afad",
          "transactionHash": "0x8e898c80706bac722a26dd05f494a3e545f304ab5b4dab384fd4cd4b65010676",
          "transactionIndex": "0x1",
          "logIndex": "0x4",
          "removed": false
        },
        {
          "address": "0x19bee4b42a491b1f8577ea8c332676fe98cd25a0",
          "topics": [
            "0xc7f505b2f371ae2175ee4913f4499e1f2633a7b5936321eed1cdaeb6115181d2"
          ],
          "data": "0x0000000000000000000000000000000000000000000000000000000000000001",
          "blockHash": "0x0bb1d924b9b6424840febf578d9180fbb6e05c7aaa489242727cbd0281f17ee4",
          "blockNumber": "0xf8afad",
          "transactionHash": "0x8e898c80706bac722a26dd05f494a3e545f304ab5b4dab384fd4cd4b65010676",
          "transactionIndex": "0x1",
          "logIndex": "0x5",
          "removed": false
        },
        {
          "address": "0xc2a1c5742c386d20f8b438b7b6389ef2ce54e18c",
          "topics": [
            "0x4a7bba0e1c21f3684678b259c49028d8cca5e0c5a2b43eba286ada7d196c8bfb",
            "0x00000000000000000000000019bee4b42a491b1f8577ea8c332676fe98cd25a0"
          ],
          "data": "0x0000000000000000000000000000000000000000000000000000000000000020000000000000000000000000000000000000000000000000000000000000001768747470733a2f2f672e776174636869742e6d6f766965000000000000000000",
          "blockHash": "0x0bb1d924b9b6424840febf578d9180fbb6e05c7aaa489242727cbd0281f17ee4",
          "blockNumber": "0xf8afad",
          "transactionHash": "0x8e898c80706bac722a26dd05f494a3e545f304ab5b4dab384fd4cd4b65010676",
          "transactionIndex": "0x1",
          "logIndex": "0x6",
          "removed": false
        },
        {
          "address": "0x0000000000000000000000000000000000001010",
          "topics": [
            "0x4dfe1bbbcf077ddc3e01291eea2d5c70c2b422b415d95645b9adcfd678cb1d63",
            "0x0000000000000000000000000000000000000000000000000000000000001010",
            "0x000000000000000000000000efbbd14082cf2fbcf5badc7ee619f0f4e36d0a5b",
            "0x0000000000000000000000006c095a53250dd250797ff915a716cca690ad8842"
          ],
          "data": "0x0000000000000000000000000000000000000000000000000017e2d41655a2000000000000000000000000000000000000000000000000015c4ab78c35766c860000000000000000000000000000000000000000000000f37e67df786ef8cd840000000000000000000000000000000000000000000000015c32d4b81f20ca860000000000000000000000000000000000000000000000f37e7fc24c854e6f84",
          "blockHash": "0x0bb1d924b9b6424840febf578d9180fbb6e05c7aaa489242727cbd0281f17ee4",
          "blockNumber": "0xf8afad",
          "transactionHash": "0x8e898c80706bac722a26dd05f494a3e545f304ab5b4dab384fd4cd4b65010676",
          "transactionIndex": "0x1",
          "logIndex": "0x7",
          "removed": false
        }
      ],
      "logsBloom": "0x00000000000000000000000400000000000000000000000000800000000000000000020000000000000000000000000000008000000000000000002000000000018000000000000000000000001000800001000000000000010100100000400000000000020000000000000000000800000000001000040080008000000000400800000000000000400a00000000080000000000000080000000200000000000200000000000000000008000000000000000400000000000000000000000004000000000200000000101000000000000000000000004000000900000000020400000000000000000000000000000000000004000000000000000000000100000",
      "type": "0x2",
      "transactionHash": "0x8e898c80706bac722a26dd05f494a3e545f304ab5b4dab384fd4cd4b65010676",
      "transactionIndex": "0x1",
      "blockHash": "0x0bb1d924b9b6424840febf578d9180fbb6e05c7aaa489242727cbd0281f17ee4",
      "blockNumber": "0xf8afad",
      "gasUsed": "0x41a85",
      "effectiveGasPrice": "0x5d21dba0f",
      "from": "0xefbbd14082cf2fbcf5badc7ee619f0f4e36d0a5b",
      "to": "0xc2a1c5742c386d20f8b438b7b6389ef2ce54e18c",
      "contractAddress": null
    },
    {
      "status": "0x1",
      "cumulativeGasUsed": "0x69ff0",
      "logs": [
        {
          "address": "0x3c7deb6feaeb7a82bde580fb73d8d69c401b219e",
          "topics": [
            "0x8c5be1e5ebec7d5bd14f71427d1e84f3dd0314c0f7b2291e5b200ac8c7c3b925",
            "0x000000000000000000000000efbbd14082cf2fbcf5badc7ee619f0f4e36d0a5b",
            "0x0000000000000000000000003c811bc4876045228b37451edd29326c0b709f9a"
          ],
          "data": "0x0000000000000000000000000000000000000000000000056bc75e2d63100000",
          "blockHash": "0x0bb1d924b9b6424840febf578d9180fbb6e05c7aaa489242727cbd0281f17ee4",
          "blockNumber": "0xf8afad",
          "transactionHash": "0xae89f0c0f92b68b7066f0531d5839e41b3dae021fd50fb6ba6c2515643eb88ab",
          "transactionIndex": "0x2",
          "logIndex": "0x8",
          "removed": false
        },
        {
          "address": "0x0000000000000000000000000000000000001010",
          "topics": [
            "0x4dfe1bbbcf077ddc3e01291eea2d5c70c2b422b415d95645b9adcfd678cb1d63",
            "0x0000000000000000000000000000000000000000000000000000000000001010",
            "0x000000000000000000000000efbbd14082cf2fbcf5badc7ee619f0f4e36d0a5b",
            "0x0000000000000000000000006c095a53250dd250797ff915a716cca690ad8842"
          ],
          "data": "0x0000000000000000000000000000000000000000000000000004162b44c4de000000000000000000000000000000000000000000000000015c32d4b81ee33cbb0000000000000000000000000000000000000000000000f37e7fc24c854e6f840000000000000000000000000000000000000000000000015c2ebe8cda1e5ebb0000000000000000000000000000000000000000000000f37e83d877ca134d84",
          "blockHash": "0x0bb1d924b9b6424840febf578d9180fbb6e05c7aaa489242727cbd0281f17ee4",
          "blockNumber": "0xf8afad",
          "transactionHash": "0xae89f0c0f92b68b7066f0531d5839e41b3dae021fd50fb6ba6c2515643eb88ab",
          "transactionIndex": "0x2",
          "logIndex": "0x9",
          "removed": false
        }
      ],
      "logsBloom": "0x00000000000000000000000000000000000000000000004000000000000000001000000000000000000000000000000000008000000000000000000000200000008000000000000000000000000000800000000000000010000100000000000000000000000000000000000000000000000000000000040080000000000000000800000000000000400000000000000000000000000000000000000000000000220000000000000040008000000000000000400000000000020000000000004000000000000000000001000000000000000000000000000000100000000000000010000000000000000000000000000000800000000000000000000000100000",
      "type": "0x2",
      "transactionHash": "0xae89f0c0f92b68b7066f0531d5839e41b3dae021fd50fb6ba6c2515643eb88ab",
      "transactionIndex": "0x2",
      "blockHash": "0x0bb1d924b9b6424840febf578d9180fbb6e05c7aaa489242727cbd0281f17ee4",
      "blockNumber": "0xf8afad",
      "gasUsed": "0xb3bb",
      "effectiveGasPrice": "0x5d21dba0f",
      "from": "0xefbbd14082cf2fbcf5badc7ee619f0f4e36d0a5b",
      "to": "0x3c7deb6feaeb7a82bde580fb73d8d69c401b219e",
      "contractAddress": null
    },
    {
      "status": "0x1",
      "cumulativeGasUsed": "0x8040a",
      "logs": [
        {
          "address": "0x3c7deb6feaeb7a82bde580fb73d8d69c401b219e",
          "topics": [
            "0xddf252ad1be2c89b69c2b068fc378daa952ba7f163c4a11628f55a4df523b3ef",
            "0x000000000000000000000000efbbd14082cf2fbcf5badc7ee619f0f4e36d0a5b",
            "0x0000000000000000000000003c811bc4876045228b37451edd29326c0b709f9a"
          ],
          "data": "0x0000000000000000000000000000000000000000000000056bc75e2d63100000",
          "blockHash": "0x0bb1d924b9b6424840febf578d9180fbb6e05c7aaa489242727cbd0281f17ee4",
          "blockNumber": "0xf8afad",
          "transactionHash": "0xa0d23b63ce8c89316aac0f640d7caf9441b4be15a779be2e93edc4652532239f",
          "transactionIndex": "0x3",
          "logIndex": "0xa",
          "removed": false
        },
        {
          "address": "0x3c811bc4876045228b37451edd29326c0b709f9a",
          "topics": [
            "0x2d26b12df00031a51cbd91c763887ccf6992992e54b2701fbe5bd7b2c738a4e2",
            "0x000000000000000000000000efbbd14082cf2fbcf5badc7ee619f0f4e36d0a5b",
            "0x000000000000000000000000efbbd14082cf2fbcf5badc7ee619f0f4e36d0a5b"
          ],
          "data": "0x0000000000000000000000000000000000000000000000056bc75e2d631000000000000000000000000000003c7deb6feaeb7a82bde580fb73d8d69c401b219e",
          "blockHash": "0x0bb1d924b9b6424840febf578d9180fbb6e05c7aaa489242727cbd0281f17ee4",
          "blockNumber": "0xf8afad",
          "transactionHash": "0xa0d23b63ce8c89316aac0f640d7caf9441b4be15a779be2e93edc4652532239f",
          "transactionIndex": "0x3",
          "logIndex": "0xb",
          "removed": false
        },
        {
          "address": "0x0000000000000000000000000000000000001010",
          "topics": [
            "0x4dfe1bbbcf077ddc3e01291eea2d5c70c2b422b415d95645b9adcfd678cb1d63",
            "0x0000000000000000000000000000000000000000000000000000000000001010",
            "0x000000000000000000000000efbbd14082cf2fbcf5badc7ee619f0f4e36d0a5b",
            "0x0000000000000000000000006c095a53250dd250797ff915a716cca690ad8842"
          ],
          "data": "0x000000000000000000000000000000000000000000000000000818c8adace4000000000000000000000000000000000000000000000000015c2ebe8cda13d6c60000000000000000000000000000000000000000000000f37e83d877ca134d840000000000000000000000000000000000000000000000015c26a5c42c66f2c60000000000000000000000000000000000000000000000f37e8bf14077c03184",
          "blockHash": "0x0bb1d924b9b6424840febf578d9180fbb6e05c7aaa489242727cbd0281f17ee4",
          "blockNumber": "0xf8afad",
          "transactionHash": "0xa0d23b63ce8c89316aac0f640d7caf9441b4be15a779be2e93edc4652532239f",
          "transactionIndex": "0x3",
          "logIndex": "0xc",
          "removed": false
        }
      ],
      "logsBloom": "0x00000000000000000000000000000020000000000000004000000000000000001000000000000000000000000000000000008000000000000000000000000000008000000000000000000008000000800000000000000010000100000000000000000000000000000000000000000000000000000000040080000010000000000800000000000000400000000000000000000000000000000000000000000000200000000000000040008000000000000000400000000000020000000000004000000002000000040401000000000000000000000000000000100000000000000000000000000000000000000000000000800008000000000000000000140000",
      "type": "0x2",
      "transactionHash": "0xa0d23b63ce8c89316aac0f640d7caf9441b4be15a779be2e93edc4652532239f",
      "transactionIndex": "0x3",
      "blockHash": "0x0bb1d924b9b6424840febf578d9180fbb6e05c7aaa489242727cbd0281f17ee4",
      "blockNumber": "0xf8afad",
      "gasUsed": "0x1641a",
      "effectiveGasPrice": "0x5d21dba0f",
      "from": "0xefbbd14082cf2fbcf5badc7ee619f0f4e36d0a5b",
      "to": "0x3c811bc4876045228b37451edd29326c0b709f9a",
      "contractAddress": null
    },
    {
      "status": "0x1",
      "cumulativeGasUsed": "0xadc06",
      "logs": [
        {
          "address": "0x3c811bc4876045228b37451edd29326c0b709f9a",
          "topics": [
            "0xa372d74f11f208f0466eb410f699d101da6ccbe3717f711988fb355eac737f62",
            "0x000000000000000000000000efbbd14082cf2fbcf5badc7ee619f0f4e36d0a5b",
            "0x0000000000000000000000003c7deb6feaeb7a82bde580fb73d8d69c401b219e"
          ],
          "data": "0x0000000000000000000000000000000000000000000000056bc75e2d63100000",
          "blockHash": "0x0bb1d924b9b6424840febf578d9180fbb6e05c7aaa489242727cbd0281f17ee4",
          "blockNumber": "0xf8afad",
          "transactionHash": "0xc77bcb3805d383e922a64c54eaa0d7e9a06601e6aa447f56efe3ffee2f9cb807",
          "transactionIndex": "0x4",
          "logIndex": "0xd",
          "removed": false
        },
        {
          "address": "0x3c811bc4876045228b37451edd29326c0b709f9a",
          "topics": [
            "0x07b798e47a298c7004dfddcb1196e6b8f9a6488dd1db7eeedbc8a4c3f4831563",
            "0x0000000000000000000000001314059a68e81aab9ee928c96434f99d4fa621bf",
            "0x0000000000000000000000003c7deb6feaeb7a82bde580fb73d8d69c401b219e"
          ],
          "data": "0x0000000000000000000000000000000000000000000000056bc75e2d63100000",
          "blockHash": "0x0bb1d924b9b6424840febf578d9180fbb6e05c7aaa489242727cbd0281f17ee4",
          "blockNumber": "0xf8afad",
          "transactionHash": "0xc77bcb3805d383e922a64c54eaa0d7e9a06601e6aa447f56efe3ffee2f9cb807",
          "transactionIndex": "0x4",
          "logIndex": "0xe",
          "removed": false
        },
        {
          "address": "0x3c7deb6feaeb7a82bde580fb73d8d69c401b219e",
          "topics": [
            "0xddf252ad1be2c89b69c2b068fc378daa952ba7f163c4a11628f55a4df523b3ef",
            "0x0000000000000000000000003c811bc4876045228b37451edd29326c0b709f9a",
            "0x0000000000000000000000001314059a68e81aab9ee928c96434f99d4fa621bf"
          ],
          "data": "0x0000000000000000000000000000000000000000000000056bc75e2d63100000",
          "blockHash": "0x0bb1d924b9b6424840febf578d9180fbb6e05c7aaa489242727cbd0281f17ee4",
          "blockNumber": "0xf8afad",
          "transactionHash": "0xc77bcb3805d383e922a64c54eaa0d7e9a06601e6aa447f56efe3ffee2f9cb807",
          "transactionIndex": "0x4",
          "logIndex": "0xf",
          "removed": false
        },
        {
          "address": "0x3c811bc4876045228b37451edd29326c0b709f9a",
          "topics": [
            "0x823b7dcdbd5806d97a2a3c64fe281a8d31155b2a7dade87fdaa7437c79c12b11",
            "0x0000000000000000000000001314059a68e81aab9ee928c96434f99d4fa621bf",
            "0x0000000000000000000000001314059a68e81aab9ee928c96434f99d4fa621bf",
            "0x0000000000000000000000003c7deb6feaeb7a82bde580fb73d8d69c401b219e"
          ],
          "data": "0x0000000000000000000000000000000000000000000000056bc75e2d63100000",
          "blockHash": "0x0bb1d924b9b6424840febf578d9180fbb6e05c7aaa489242727cbd0281f17ee4",
          "blockNumber": "0xf8afad",
          "transactionHash": "0xc77bcb3805d383e922a64c54eaa0d7e9a06601e6aa447f56efe3ffee2f9cb807",
          "transactionIndex": "0x4",
          "logIndex": "0x10",
          "removed": false
        },
        {
          "address": "0x1314059a68e81aab9ee928c96434f99d4fa621bf",
          "topics": [
            "0xcda33a906ffa8a5f960826827500581f4613a5db7a84b250433e0d591a630938",
            "0x00000000000000000000000019bee4b42a491b1f8577ea8c332676fe98cd25a0"
          ],
          "data": "0x0000000000000000000000000000000000000000000000000000000067745e290000000000000000000000000000000000000000000000056bc75e2d63100000",
          "blockHash": "0x0bb1d924b9b6424840febf578d9180fbb6e05c7aaa489242727cbd0281f17ee4",
          "blockNumber": "0xf8afad",
          "transactionHash": "0xc77bcb3805d383e922a64c54eaa0d7e9a06601e6aa447f56efe3ffee2f9cb807",
          "transactionIndex": "0x4",
          "logIndex": "0x11",
          "removed": false
        },
        {
          "address": "0x0000000000000000000000000000000000001010",
          "topics": [
            "0x4dfe1bbbcf077ddc3e01291eea2d5c70c2b422b415d95645b9adcfd678cb1d63",
            "0x0000000000000000000000000000000000000000000000000000000000001010",
            "0x000000000000000000000000efbbd14082cf2fbcf5badc7ee619f0f4e36d0a5b",
            "0x0000000000000000000000006c095a53250dd250797ff915a716cca690ad8842"
          ],
          "data": "0x00000000000000000000000000000000000000000000000000108d6d407918000000000000000000000000000000000000000000000000015c26a5c42c5215400000000000000000000000000000000000000000000000f37e8bf14077c031840000000000000000000000000000000000000000000000015c161856ebd8fd400000000000000000000000000000000000000000000000f37e9c7eadb8394984",
          "blockHash": "0x0bb1d924b9b6424840febf578d9180fbb6e05c7aaa489242727cbd0281f17ee4",
          "blockNumber": "0xf8afad",
          "transactionHash": "0xc77bcb3805d383e922a64c54eaa0d7e9a06601e6aa447f56efe3ffee2f9cb807",
          "transactionIndex": "0x4",
          "logIndex": "0x12",
          "removed": false
        }
      ],
      "logsBloom": "0x0000000000000000000000800000000000000000000000400080000000000000110000000000000002000000000000000000800000000000000001000020000000800000000000000000000800000080000000000000003000010000000040000000100000000000000000000000000008000000000004008000801000000400080000000000000040800000000000000000000000000000000000000000800020000000000000004000a000000000000100400000000000020000001000004000000042000000000511000000000000000000000000200000100000000000000000000040000000400000000000000000800000000000000000000000140000",
      "type": "0x2",
      "transactionHash": "0xc77bcb3805d383e922a64c54eaa0d7e9a06601e6aa447f56efe3ffee2f9cb807",
      "transactionIndex": "0x4",
      "blockHash": "0x0bb1d924b9b6424840febf578d9180fbb6e05c7aaa489242727cbd0281f17ee4",
      "blockNumber": "0xf8afad",
      "gasUsed": "0x2d7fc",
      "effectiveGasPrice": "0x5d21dba0f",
      "from": "0xefbbd14082cf2fbcf5badc7ee619f0f4e36d0a5b",
      "to": "0x1314059a68e81aab9ee928c96434f99d4fa621bf",
      "contractAddress": null
    },
    {
      "status": "0x1",
      "cumulativeGasUsed": "0xc3497",
      "logs": [
        {
          "address": "0x1314059a68e81aab9ee928c96434f99d4fa621bf",
          "topics": [
            "0xf13bfe0b6ec5df39265dccb0a01a09aa4162489c7a083dc6670bde0255d02ca7",
            "0x00000000000000000000000019bee4b42a491b1f8577ea8c332676fe98cd25a0"
          ],
          "data": "0x0000000000000000000000000000000000000000000000000000000067745e29",
          "blockHash": "0x0bb1d924b9b6424840febf578d9180fbb6e05c7aaa489242727cbd0281f17ee4",
          "blockNumber": "0xf8afad",
          "transactionHash": "0xf3089396e0bf3ccaa08823512717fd9bc5b3723ac5eac0ce531526904bc16a82",
          "transactionIndex": "0x5",
          "logIndex": "0x13",
          "removed": false
        },
        {
          "address": "0x0000000000000000000000000000000000001010",
          "topics": [
            "0x4dfe1bbbcf077ddc3e01291eea2d5c70c2b422b415d95645b9adcfd678cb1d63",
            "0x0000000000000000000000000000000000000000000000000000000000001010",
            "0x000000000000000000000000efbbd14082cf2fbcf5badc7ee619f0f4e36d0a5b",
            "0x0000000000000000000000006c095a53250dd250797ff915a716cca690ad8842"
          ],
          "data": "0x0000000000000000000000000000000000000000000000000007d5a3f4c65a000000000000000000000000000000000000000000000000015c161856ebae557c0000000000000000000000000000000000000000000000f37e9c7eadb83949840000000000000000000000000000000000000000000000015c0e42b2f6e7fb7c0000000000000000000000000000000000000000000000f37ea45451acffa384",
          "blockHash": "0x0bb1d924b9b6424840febf578d9180fbb6e05c7aaa489242727cbd0281f17ee4",
          "blockNumber": "0xf8afad",
          "transactionHash": "0xf3089396e0bf3ccaa08823512717fd9bc5b3723ac5eac0ce531526904bc16a82",
          "transactionIndex": "0x5",
          "logIndex": "0x14",
          "removed": false
        }
      ],
      "logsBloom": "0x0000000000000000000000000000000000000000000000000000000000000000010000000000000000000000000000000000800000000000000000000000000000800000000000000000000000000080000000000000000000010000000040000000000000000000000000000000000000000000000004008000800000000000080000000000000040000000000000000000000000000800000000000000000020000000000000000000a000000000000100400000000800000000000000004000000000000000000101000000000000000000000000000020100000000000000000000000000000000000000000000000000000000000000000000000100000",
      "type": "0x2",
      "transactionHash": "0xf3089396e0bf3ccaa08823512717fd9bc5b3723ac5eac0ce531526904bc16a82",
      "transactionIndex": "0x5",
      "blockHash": "0x0bb1d924b9b6424840febf578d9180fbb6e05c7aaa489242727cbd0281f17ee4",
      "blockNumber": "0xf8afad",
      "gasUsed": "0x15891",
      "effectiveGasPrice": "0x5d21dba0f",
      "from": "0xefbbd14082cf2fbcf5badc7ee619f0f4e36d0a5b",
      "to": "0x1314059a68e81aab9ee928c96434f99d4fa621bf",
      "contractAddress": null
    }
  ],
  "libraries": [],
  "pending": [],
  "returns": {},
  "timestamp": 1735679531,
  "chain": 80002,
  "commit": "0178cdc"
}