{
  "transactions": [
    {
      "hash": "0x7decdc87f587eedac02d0db458ea6f7d94a0555d027249440d53f424b2df19c9",
      "transactionType": "CALL",
      "contractName": null,
      "contractAddress": "0x7489a6e67e5078b7dd814a247a48b8a9a988a936",
      "function": "create(string)",
      "arguments": [
        "https://g.watchit.movie"
      ],
      "transaction": {
        "from": "0xefbbd14082cf2fbcf5badc7ee619f0f4e36d0a5b",
        "to": "0x7489a6e67e5078b7dd814a247a48b8a9a988a936",
        "gas": "0x5ab07",
        "value": "0x0",
        "input": "0xb6a46b3b0000000000000000000000000000000000000000000000000000000000000020000000000000000000000000000000000000000000000000000000000000001768747470733a2f2f672e776174636869742e6d6f766965000000000000000000",
        "nonce": "0x8bb",
        "chainId": "0x13882"
      },
      "additionalContracts": [
        {
          "transactionType": "CREATE",
          "address": "0xdc1e64efbaaac10dec6f151ec89c735e9f2cfc18",
          "initCode": "0x60a08060405261050d80380380916100178285610292565b833981016040828203126101eb5761002e826102c9565b602083015190926001600160401b0382116101eb57019080601f830112156101eb57815161005b816102dd565b926100696040519485610292565b8184526020840192602083830101116101eb57815f926020809301855e84010152823b15610274577fa3f0ad74e5423aebfd80d3ef4346578335a9a72aeaee59ff6cb3582b35133d5080546001600160a01b0319166001600160a01b038516908117909155604051635c60da1b60e01b8152909190602081600481865afa9081156101f7575f9161023a575b50803b1561021a5750817f1cf3b03a6cf19fa2baba4df148e9dcabedea7f8a5c07840e207e5c089be95d3e5f80a282511561020257602060049260405193848092635c60da1b60e01b82525afa9182156101f7575f926101ae575b505f809161018a945190845af43d156101a6573d9161016e836102dd565b9261017c6040519485610292565b83523d5f602085013e6102f8565b505b6080526040516101b6908161035782396080518160460152f35b6060916102f8565b9291506020833d6020116101ef575b816101ca60209383610292565b810103126101eb575f80916101e161018a956102c9565b9394509150610150565b5f80fd5b3d91506101bd565b6040513d5f823e3d90fd5b505050341561018c5763b398979f60e01b5f5260045ffd5b634c9c8ce360e01b5f9081526001600160a01b0391909116600452602490fd5b90506020813d60201161026c575b8161025560209383610292565b810103126101eb57610266906102c9565b5f6100f5565b3d9150610248565b631933b43b60e21b5f9081526001600160a01b038416600452602490fd5b601f909101601f19168101906001600160401b038211908210176102b557604052565b634e487b7160e01b5f52604160045260245ffd5b51906001600160a01b03821682036101eb57565b6001600160401b0381116102b557601f01601f191660200190565b9061031c575080511561030d57805190602001fd5b63d6bda27560e01b5f5260045ffd5b8151158061034d575b61032d575090565b639996b31560e01b5f9081526001600160a01b0391909116600452602490fd5b50803b1561032556fe60806040527f5c60da1b000000000000000000000000000000000000000000000000000000006080526020608060048173ffffffffffffffffffffffffffffffffffffffff7f0000000000000000000000000000000000000000000000000000000000000000165afa8015610107575f9015610163575060203d602011610100575b7fffffffffffffffffffffffffffffffffffffffffffffffffffffffffffffffe0601f820116608001906080821067ffffffffffffffff8311176100d3576100ce91604052608001610112565b610163565b7f4e487b71000000000000000000000000000000000000000000000000000000005f52604160045260245ffd5b503d610081565b6040513d5f823e3d90fd5b7fffffffffffffffffffffffffffffffffffffffffffffffffffffffffffffff80602091011261015f5760805173ffffffffffffffffffffffffffffffffffffffff8116810361015f5790565b5f80fd5b5f8091368280378136915af43d5f803e1561017c573d5ff35b3d5ffdfea264697066735822122064427a31676ba3427858a99499cd34caa0223a53e5d14b45aaf09cce1cb3243c64736f6c634300081a00330000000000000000000000007489a6e67e5078b7dd814a247a48b8a9a988a936000000000000000000000000000000000000000000000000000000000000004000000000000000000000000000000000000000000000000000000000000000847ab4339d0000000000000000000000000000000000000000000000000000000000000040000000000000000000000000efbbd14082cf2fbcf5badc7ee619f0f4e36d0a5b000000000000000000000000000000000000000000000000000000000000001768747470733a2f2f672e776174636869742e6d6f76696500000000000000000000000000000000000000000000000000000000000000000000000000"
        }
      ],
      "isFixedGasLimit": false
    },
    {
      "hash": "0xfa466ed150d7b193272104738b58367d804f242111f039f62465e3dcfd2c4e6a",
      "transactionType": "CALL",
      "contractName": null,
      "contractAddress": "0x3c7deb6feaeb7a82bde580fb73d8d69c401b219e",
      "function": "approve(address,uint256)",
      "arguments": [
        "0xE03C8141275d8eF95Aa9c7ad742bEf915a3C835D",
        "100000000000000000000"
      ],
      "transaction": {
        "from": "0xefbbd14082cf2fbcf5badc7ee619f0f4e36d0a5b",
        "to": "0x3c7deb6feaeb7a82bde580fb73d8d69c401b219e",
        "gas": "0x106da",
        "value": "0x0",
        "input": "0x095ea7b3000000000000000000000000e03c8141275d8ef95aa9c7ad742bef915a3c835d0000000000000000000000000000000000000000000000056bc75e2d63100000",
        "nonce": "0x8bc",
        "chainId": "0x13882"
      },
      "additionalContracts": [],
      "isFixedGasLimit": false
    },
    {
      "hash": "0xd2008bd9d09b9c4cb0d8e6f925168a70732de7574f4457f4404877b6e34f7388",
      "transactionType": "CALL",
      "contractName": null,
      "contractAddress": "0xe03c8141275d8ef95aa9c7ad742bef915a3c835d",
      "function": "deposit(address,uint256,address)",
      "arguments": [
        "0xEFBBD14082cF2FbCf5Badc7ee619F0f4e36D0A5B",
        "100000000000000000000",
        "0x3c7DeB6FeAEb7a82BDe580Fb73d8d69c401b219e"
      ],
      "transaction": {
        "from": "0xefbbd14082cf2fbcf5badc7ee619f0f4e36d0a5b",
        "to": "0xe03c8141275d8ef95aa9c7ad742bef915a3c835d",
        "gas": "0x2068d",
        "value": "0x0",
        "input": "0xf45346dc000000000000000000000000efbbd14082cf2fbcf5badc7ee619f0f4e36d0a5b0000000000000000000000000000000000000000000000056bc75e2d631000000000000000000000000000003c7deb6feaeb7a82bde580fb73d8d69c401b219e",
        "nonce": "0x8bd",
        "chainId": "0x13882"
      },
      "additionalContracts": [],
      "isFixedGasLimit": false
    },
    {
      "hash": "0x3d52dd3cbc371173fa0e66609f5cd4b51e53e4581c515e52d9c245348144e984",
      "transactionType": "CALL",
      "contractName": null,
      "contractAddress": "0xf6f28475a04ff6382764b0b42f71bcaa20c69379",
      "function": "register(address,address)",
      "arguments": [
        "0xDC1E64EFbaaac10dEc6F151EC89c735e9F2CFc18",
        "0x3c7DeB6FeAEb7a82BDe580Fb73d8d69c401b219e"
      ],
      "transaction": {
        "from": "0xefbbd14082cf2fbcf5badc7ee619f0f4e36d0a5b",
        "to": "0xf6f28475a04ff6382764b0b42f71bcaa20c69379",
        "gas": "0x3ebe5",
        "value": "0x0",
        "input": "0xaa677354000000000000000000000000dc1e64efbaaac10dec6f151ec89c735e9f2cfc180000000000000000000000003c7deb6feaeb7a82bde580fb73d8d69c401b219e",
        "nonce": "0x8be",
        "chainId": "0x13882"
      },
      "additionalContracts": [],
      "isFixedGasLimit": false
    },
    {
      "hash": "0xf9dd9ba7e4c14de0c492b63a0f3cb98283e6561d0ef31caf8d24b734db9fe638",
      "transactionType": "CALL",
      "contractName": null,
      "contractAddress": "0xf6f28475a04ff6382764b0b42f71bcaa20c69379",
      "function": "approve(address)",
      "arguments": [
        "0xDC1E64EFbaaac10dEc6F151EC89c735e9F2CFc18"
      ],
      "transaction": {
        "from": "0xefbbd14082cf2fbcf5badc7ee619f0f4e36d0a5b",
        "to": "0xf6f28475a04ff6382764b0b42f71bcaa20c69379",
        "gas": "0x1f7ed",
        "value": "0x0",
        "input": "0xdaea85c5000000000000000000000000dc1e64efbaaac10dec6f151ec89c735e9f2cfc18",
        "nonce": "0x8bf",
        "chainId": "0x13882"
      },
      "additionalContracts": [],
      "isFixedGasLimit": false
    }
  ],
  "receipts": [
    {
      "status": "0x1",
      "cumulativeGasUsed": "0x41a85",
      "logs": [
        {
          "address": "0xdc1e64efbaaac10dec6f151ec89c735e9f2cfc18",
          "topics": [
            "0x1cf3b03a6cf19fa2baba4df148e9dcabedea7f8a5c07840e207e5c089be95d3e",
            "0x0000000000000000000000007489a6e67e5078b7dd814a247a48b8a9a988a936"
          ],
          "data": "0x",
          "blockHash": "0xe1ef8b27009d1d27794a8d170a0a1c29c3b7fb791ddb644e08b51ab854d58c36",
          "blockNumber": "0xf62877",
          "transactionHash": "0x7decdc87f587eedac02d0db458ea6f7d94a0555d027249440d53f424b2df19c9",
          "transactionIndex": "0x0",
          "logIndex": "0x0",
          "removed": false
        },
        {
          "address": "0xdc1e64efbaaac10dec6f151ec89c735e9f2cfc18",
          "topics": [
            "0x8be0079c531659141344cd1fd0a4f28419497f9722a3daafe3b4186f6b6457e0",
            "0x0000000000000000000000000000000000000000000000000000000000000000",
            "0x000000000000000000000000efbbd14082cf2fbcf5badc7ee619f0f4e36d0a5b"
          ],
          "data": "0x",
          "blockHash": "0xe1ef8b27009d1d27794a8d170a0a1c29c3b7fb791ddb644e08b51ab854d58c36",
          "blockNumber": "0xf62877",
          "transactionHash": "0x7decdc87f587eedac02d0db458ea6f7d94a0555d027249440d53f424b2df19c9",
          "transactionIndex": "0x0",
          "logIndex": "0x1",
          "removed": false
        },
        {
          "address": "0xdc1e64efbaaac10dec6f151ec89c735e9f2cfc18",
          "topics": [
            "0xc7f505b2f371ae2175ee4913f4499e1f2633a7b5936321eed1cdaeb6115181d2"
          ],
          "data": "0x0000000000000000000000000000000000000000000000000000000000000001",
          "blockHash": "0xe1ef8b27009d1d27794a8d170a0a1c29c3b7fb791ddb644e08b51ab854d58c36",
          "blockNumber": "0xf62877",
          "transactionHash": "0x7decdc87f587eedac02d0db458ea6f7d94a0555d027249440d53f424b2df19c9",
          "transactionIndex": "0x0",
          "logIndex": "0x2",
          "removed": false
        },
        {
          "address": "0x7489a6e67e5078b7dd814a247a48b8a9a988a936",
          "topics": [
            "0x4a7bba0e1c21f3684678b259c49028d8cca5e0c5a2b43eba286ada7d196c8bfb",
            "0x000000000000000000000000dc1e64efbaaac10dec6f151ec89c735e9f2cfc18"
          ],
          "data": "0x0000000000000000000000000000000000000000000000000000000000000020000000000000000000000000000000000000000000000000000000000000001768747470733a2f2f672e776174636869742e6d6f766965000000000000000000",
          "blockHash": "0xe1ef8b27009d1d27794a8d170a0a1c29c3b7fb791ddb644e08b51ab854d58c36",
          "blockNumber": "0xf62877",
          "transactionHash": "0x7decdc87f587eedac02d0db458ea6f7d94a0555d027249440d53f424b2df19c9",
          "transactionIndex": "0x0",
          "logIndex": "0x3",
          "removed": false
        },
        {
          "address": "0x0000000000000000000000000000000000001010",
          "topics": [
            "0x4dfe1bbbcf077ddc3e01291eea2d5c70c2b422b415d95645b9adcfd678cb1d63",
            "0x0000000000000000000000000000000000000000000000000000000000001010",
            "0x000000000000000000000000efbbd14082cf2fbcf5badc7ee619f0f4e36d0a5b",
            "0x0000000000000000000000004631753190f2f5a15a7ba172bbac102b7d95fa22"
          ],
          "data": "0x000000000000000000000000000000000000000000000000001e92fafda0b2350000000000000000000000000000000000000000000000012c942c55d37122830000000000000000000000000000000000000000000003d50af102955f914d330000000000000000000000000000000000000000000000012c75995ad5d0704e0000000000000000000000000000000000000000000003d50b0f95905d31ff68",
          "blockHash": "0xe1ef8b27009d1d27794a8d170a0a1c29c3b7fb791ddb644e08b51ab854d58c36",
          "blockNumber": "0xf62877",
          "transactionHash": "0x7decdc87f587eedac02d0db458ea6f7d94a0555d027249440d53f424b2df19c9",
          "transactionIndex": "0x0",
          "logIndex": "0x4",
          "removed": false
        }
      ],
      "logsBloom": "0x00000000000000000000000400000000000000002000000000820000000000000000000000000000000000000000000000008040000000000000000040000000008000000000000000000000001000800001000000000000010100000000000004000000020000100010000000000800000000000000000080000000000000400800080000000000000880000000080000000000000082000000200000000000200000080000000000000000000200000000400000000000000020000000004000000000000000000101000000000000000000000004000000900000000020000000000000000000000000000000000000100000000000000000000000100000",
      "type": "0x2",
      "transactionHash": "0x7decdc87f587eedac02d0db458ea6f7d94a0555d027249440d53f424b2df19c9",
      "transactionIndex": "0x0",
      "blockHash": "0xe1ef8b27009d1d27794a8d170a0a1c29c3b7fb791ddb644e08b51ab854d58c36",
      "blockNumber": "0xf62877",
      "gasUsed": "0x41a85",
      "effectiveGasPrice": "0x773594000",
      "from": "0xefbbd14082cf2fbcf5badc7ee619f0f4e36d0a5b",
      "to": "0x7489a6e67e5078b7dd814a247a48b8a9a988a936",
      "contractAddress": null
    },
    {
      "status": "0x1",
      "cumulativeGasUsed": "0x4ce40",
      "logs": [
        {
          "address": "0x3c7deb6feaeb7a82bde580fb73d8d69c401b219e",
          "topics": [
            "0x8c5be1e5ebec7d5bd14f71427d1e84f3dd0314c0f7b2291e5b200ac8c7c3b925",
            "0x000000000000000000000000efbbd14082cf2fbcf5badc7ee619f0f4e36d0a5b",
            "0x000000000000000000000000e03c8141275d8ef95aa9c7ad742bef915a3c835d"
          ],
          "data": "0x0000000000000000000000000000000000000000000000056bc75e2d63100000",
          "blockHash": "0xe1ef8b27009d1d27794a8d170a0a1c29c3b7fb791ddb644e08b51ab854d58c36",
          "blockNumber": "0xf62877",
          "transactionHash": "0xfa466ed150d7b193272104738b58367d804f242111f039f62465e3dcfd2c4e6a",
          "transactionIndex": "0x1",
          "logIndex": "0x5",
          "removed": false
        },
        {
          "address": "0x0000000000000000000000000000000000001010",
          "topics": [
            "0x4dfe1bbbcf077ddc3e01291eea2d5c70c2b422b415d95645b9adcfd678cb1d63",
            "0x0000000000000000000000000000000000000000000000000000000000001010",
            "0x000000000000000000000000efbbd14082cf2fbcf5badc7ee619f0f4e36d0a5b",
            "0x0000000000000000000000004631753190f2f5a15a7ba172bbac102b7d95fa22"
          ],
          "data": "0x00000000000000000000000000000000000000000000000000053b18a9e7380b0000000000000000000000000000000000000000000000012c75995ad592e2830000000000000000000000000000000000000000000003d50b0f95905d31ff680000000000000000000000000000000000000000000000012c705e422babaa780000000000000000000000000000000000000000000003d50b14d0a907193773",
          "blockHash": "0xe1ef8b27009d1d27794a8d170a0a1c29c3b7fb791ddb644e08b51ab854d58c36",
          "blockNumber": "0xf62877",
          "transactionHash": "0xfa466ed150d7b193272104738b58367d804f242111f039f62465e3dcfd2c4e6a",
          "transactionIndex": "0x1",
          "logIndex": "0x6",
          "removed": false
        }
      ],
      "logsBloom": "0x00000000000000000000000000000000000000002000000000000000000000001000000000000000000000000000000000008000000000000000000040200000008000000000000000000000000000800000000000000010000100000000000000200000000004100000000000000000000000000000000080000000000000000800000000000040000000000000000000000000000000000000000000000000220000000000000000000000000000000000400000000000020000000000004000000000000000000001000000000000000000000000000000100000000000000010000000000000000000000000000000000000000000000000000000100000",
      "type": "0x2",
      "transactionHash": "0xfa466ed150d7b193272104738b58367d804f242111f039f62465e3dcfd2c4e6a",
      "transactionIndex": "0x1",
      "blockHash": "0xe1ef8b27009d1d27794a8d170a0a1c29c3b7fb791ddb644e08b51ab854d58c36",
      "blockNumber": "0xf62877",
      "gasUsed": "0xb3bb",
      "effectiveGasPrice": "0x773594000",
      "from": "0xefbbd14082cf2fbcf5badc7ee619f0f4e36d0a5b",
      "to": "0x3c7deb6feaeb7a82bde580fb73d8d69c401b219e",
      "contractAddress": null
    },
    {
      "status": "0x1",
      "cumulativeGasUsed": "0x630d1",
      "logs": [
        {
          "address": "0x3c7deb6feaeb7a82bde580fb73d8d69c401b219e",
          "topics": [
            "0xddf252ad1be2c89b69c2b068fc378daa952ba7f163c4a11628f55a4df523b3ef",
            "0x000000000000000000000000efbbd14082cf2fbcf5badc7ee619f0f4e36d0a5b",
            "0x000000000000000000000000e03c8141275d8ef95aa9c7ad742bef915a3c835d"
          ],
          "data": "0x0000000000000000000000000000000000000000000000056bc75e2d63100000",
          "blockHash": "0xe1ef8b27009d1d27794a8d170a0a1c29c3b7fb791ddb644e08b51ab854d58c36",
          "blockNumber": "0xf62877",
          "transactionHash": "0xd2008bd9d09b9c4cb0d8e6f925168a70732de7574f4457f4404877b6e34f7388",
          "transactionIndex": "0x2",
          "logIndex": "0x7",
          "removed": false
        },
        {
          "address": "0xe03c8141275d8ef95aa9c7ad742bef915a3c835d",
          "topics": [
            "0xdf4dcf17030d087ed1d90ed3c90719c7260706c1c4a88505dd2d0a982887cf43",
            "0x000000000000000000000000efbbd14082cf2fbcf5badc7ee619f0f4e36d0a5b"
          ],
          "data": "0x0000000000000000000000000000000000000000000000056bc75e2d631000000000000000000000000000003c7deb6feaeb7a82bde580fb73d8d69c401b219e",
          "blockHash": "0xe1ef8b27009d1d27794a8d170a0a1c29c3b7fb791ddb644e08b51ab854d58c36",
          "blockNumber": "0xf62877",
          "transactionHash": "0xd2008bd9d09b9c4cb0d8e6f925168a70732de7574f4457f4404877b6e34f7388",
          "transactionIndex": "0x2",
          "logIndex": "0x8",
          "removed": false
        },
        {
          "address": "0x0000000000000000000000000000000000001010",
          "topics": [
            "0x4dfe1bbbcf077ddc3e01291eea2d5c70c2b422b415d95645b9adcfd678cb1d63",
            "0x0000000000000000000000000000000000000000000000000000000000001010",
            "0x000000000000000000000000efbbd14082cf2fbcf5badc7ee619f0f4e36d0a5b",
            "0x0000000000000000000000004631753190f2f5a15a7ba172bbac102b7d95fa22"
          ],
          "data": "0x000000000000000000000000000000000000000000000000000a51b9bff879810000000000000000000000000000000000000000000000012c705e422ba122830000000000000000000000000000000000000000000003d50b14d0a9071937730000000000000000000000000000000000000000000000012c660c886ba8a9020000000000000000000000000000000000000000000003d50b1f2262c711b0f4",
          "blockHash": "0xe1ef8b27009d1d27794a8d170a0a1c29c3b7fb791ddb644e08b51ab854d58c36",
          "blockNumber": "0xf62877",
          "transactionHash": "0xd2008bd9d09b9c4cb0d8e6f925168a70732de7574f4457f4404877b6e34f7388",
          "transactionIndex": "0x2",
          "logIndex": "0x9",
          "removed": false
        }
      ],
      "logsBloom": "0x00000000000000002000000000000000000000002000000000000000000000001000000000000000000000000000000000008000000000000000000040000000208000000000000000000008000000800000000000000011000100000000000000200000000004100000000000000000000000040000000080000010000000000800000000000040000000000000000000000000000000000000000000000000200000000000000000000000000000000000400000000000020000000000004000000002000000000001000000000000000000000000000000100000000000000000000000000000000000000000000004000000100000000000000000100000",
      "type": "0x2",
      "transactionHash": "0xd2008bd9d09b9c4cb0d8e6f925168a70732de7574f4457f4404877b6e34f7388",
      "transactionIndex": "0x2",
      "blockHash": "0xe1ef8b27009d1d27794a8d170a0a1c29c3b7fb791ddb644e08b51ab854d58c36",
      "blockNumber": "0xf62877",
      "gasUsed": "0x16291",
      "effectiveGasPrice": "0x773594000",
      "from": "0xefbbd14082cf2fbcf5badc7ee619f0f4e36d0a5b",
      "to": "0xe03c8141275d8ef95aa9c7ad742bef915a3c835d",
      "contractAddress": null
    },
    {
      "status": "0x1",
      "cumulativeGasUsed": "0x9079f",
      "logs": [
        {
          "address": "0xe03c8141275d8ef95aa9c7ad742bef915a3c835d",
          "topics": [
            "0xa372d74f11f208f0466eb410f699d101da6ccbe3717f711988fb355eac737f62",
            "0x000000000000000000000000efbbd14082cf2fbcf5badc7ee619f0f4e36d0a5b",
            "0x0000000000000000000000003c7deb6feaeb7a82bde580fb73d8d69c401b219e"
          ],
          "data": "0x0000000000000000000000000000000000000000000000056bc75e2d63100000",
          "blockHash": "0xe1ef8b27009d1d27794a8d170a0a1c29c3b7fb791ddb644e08b51ab854d58c36",
          "blockNumber": "0xf62877",
          "transactionHash": "0x3d52dd3cbc371173fa0e66609f5cd4b51e53e4581c515e52d9c245348144e984",
          "transactionIndex": "0x3",
          "logIndex": "0xa",
          "removed": false
        },
        {
          "address": "0xe03c8141275d8ef95aa9c7ad742bef915a3c835d",
          "topics": [
            "0x07b798e47a298c7004dfddcb1196e6b8f9a6488dd1db7eeedbc8a4c3f4831563",
            "0x000000000000000000000000f6f28475a04ff6382764b0b42f71bcaa20c69379",
            "0x0000000000000000000000003c7deb6feaeb7a82bde580fb73d8d69c401b219e"
          ],
          "data": "0x0000000000000000000000000000000000000000000000056bc75e2d63100000",
          "blockHash": "0xe1ef8b27009d1d27794a8d170a0a1c29c3b7fb791ddb644e08b51ab854d58c36",
          "blockNumber": "0xf62877",
          "transactionHash": "0x3d52dd3cbc371173fa0e66609f5cd4b51e53e4581c515e52d9c245348144e984",
          "transactionIndex": "0x3",
          "logIndex": "0xb",
          "removed": false
        },
        {
          "address": "0x3c7deb6feaeb7a82bde580fb73d8d69c401b219e",
          "topics": [
            "0xddf252ad1be2c89b69c2b068fc378daa952ba7f163c4a11628f55a4df523b3ef",
            "0x000000000000000000000000e03c8141275d8ef95aa9c7ad742bef915a3c835d",
            "0x000000000000000000000000f6f28475a04ff6382764b0b42f71bcaa20c69379"
          ],
          "data": "0x0000000000000000000000000000000000000000000000056bc75e2d63100000",
          "blockHash": "0xe1ef8b27009d1d27794a8d170a0a1c29c3b7fb791ddb644e08b51ab854d58c36",
          "blockNumber": "0xf62877",
          "transactionHash": "0x3d52dd3cbc371173fa0e66609f5cd4b51e53e4581c515e52d9c245348144e984",
          "transactionIndex": "0x3",
          "logIndex": "0xc",
          "removed": false
        },
        {
          "address": "0xe03c8141275d8ef95aa9c7ad742bef915a3c835d",
          "topics": [
            "0xe9171aeff46c37ab955b8aff908e14ae9732bd06634fa131226cfe5c25bfd2fb",
            "0x000000000000000000000000f6f28475a04ff6382764b0b42f71bcaa20c69379",
            "0x0000000000000000000000003c7deb6feaeb7a82bde580fb73d8d69c401b219e"
          ],
          "data": "0x0000000000000000000000000000000000000000000000056bc75e2d63100000",
          "blockHash": "0xe1ef8b27009d1d27794a8d170a0a1c29c3b7fb791ddb644e08b51ab854d58c36",
          "blockNumber": "0xf62877",
          "transactionHash": "0x3d52dd3cbc371173fa0e66609f5cd4b51e53e4581c515e52d9c245348144e984",
          "transactionIndex": "0x3",
          "logIndex": "0xd",
          "removed": false
        },
        {
          "address": "0xf6f28475a04ff6382764b0b42f71bcaa20c69379",
          "topics": [
            "0xcda33a906ffa8a5f960826827500581f4613a5db7a84b250433e0d591a630938",
            "0x000000000000000000000000dc1e64efbaaac10dec6f151ec89c735e9f2cfc18"
          ],
          "data": "0x00000000000000000000000000000000000000000000000000000000676efea90000000000000000000000000000000000000000000000056bc75e2d63100000",
          "blockHash": "0xe1ef8b27009d1d27794a8d170a0a1c29c3b7fb791ddb644e08b51ab854d58c36",
          "blockNumber": "0xf62877",
          "transactionHash": "0x3d52dd3cbc371173fa0e66609f5cd4b51e53e4581c515e52d9c245348144e984",
          "transactionIndex": "0x3",
          "logIndex": "0xe",
          "removed": false
        },
        {
          "address": "0x0000000000000000000000000000000000001010",
          "topics": [
            "0x4dfe1bbbcf077ddc3e01291eea2d5c70c2b422b415d95645b9adcfd678cb1d63",
            "0x0000000000000000000000000000000000000000000000000000000000001010",
            "0x000000000000000000000000efbbd14082cf2fbcf5badc7ee619f0f4e36d0a5b",
            "0x0000000000000000000000004631753190f2f5a15a7ba172bbac102b7d95fa22"
          ],
          "data": "0x0000000000000000000000000000000000000000000000000015271ded26e9ee0000000000000000000000000000000000000000000000012c660c886b93e2830000000000000000000000000000000000000000000003d50b1f2262c711b0f40000000000000000000000000000000000000000000000012c50e56a7e6cf8950000000000000000000000000000000000000000000003d50b344980b4389ae2",
          "blockHash": "0xe1ef8b27009d1d27794a8d170a0a1c29c3b7fb791ddb644e08b51ab854d58c36",
          "blockNumber": "0xf62877",
          "transactionHash": "0x3d52dd3cbc371173fa0e66609f5cd4b51e53e4581c515e52d9c245348144e984",
          "transactionIndex": "0x3",
          "logIndex": "0xf",
          "removed": false
        }
      ],
      "logsBloom": "0x00000000000000000000000001080000000000002000000000820000000000001000000000000000000000000000000000008000000000000000010040000000008000000000000000000008000000800000000000000031000100000000000000201000000004100010000000020000080000000000000080000010000004000800000000000040008000000000000000000000002000000000000000000000200000000000000001000000000000000000400000000000020000001001004000000002000000800111000000000000000000000000000000100000000200000000000040000000400000000000000004000000100000000000400000100000",
      "type": "0x2",
      "transactionHash": "0x3d52dd3cbc371173fa0e66609f5cd4b51e53e4581c515e52d9c245348144e984",
      "transactionIndex": "0x3",
      "blockHash": "0xe1ef8b27009d1d27794a8d170a0a1c29c3b7fb791ddb644e08b51ab854d58c36",
      "blockNumber": "0xf62877",
      "gasUsed": "0x2d6ce",
      "effectiveGasPrice": "0x773594000",
      "from": "0xefbbd14082cf2fbcf5badc7ee619f0f4e36d0a5b",
      "to": "0xf6f28475a04ff6382764b0b42f71bcaa20c69379",
      "contractAddress": null
    },
    {
      "status": "0x1",
      "cumulativeGasUsed": "0x15891",
      "logs": [
        {
          "address": "0xf6f28475a04ff6382764b0b42f71bcaa20c69379",
          "topics": [
            "0xf13bfe0b6ec5df39265dccb0a01a09aa4162489c7a083dc6670bde0255d02ca7",
            "0x000000000000000000000000dc1e64efbaaac10dec6f151ec89c735e9f2cfc18"
          ],
          "data": "0x00000000000000000000000000000000000000000000000000000000676efeab",
          "blockHash": "0x577f6bcf2f8a822eebf8f525bf976b212830023957dd8a776b76edc674693bdd",
          "blockNumber": "0xf62878",
          "transactionHash": "0xf9dd9ba7e4c14de0c492b63a0f3cb98283e6561d0ef31caf8d24b734db9fe638",
          "transactionIndex": "0x0",
          "logIndex": "0x0",
          "removed": false
        },
        {
          "address": "0x0000000000000000000000000000000000001010",
          "topics": [
            "0x4dfe1bbbcf077ddc3e01291eea2d5c70c2b422b415d95645b9adcfd678cb1d63",
            "0x0000000000000000000000000000000000000000000000000000000000001010",
            "0x000000000000000000000000efbbd14082cf2fbcf5badc7ee619f0f4e36d0a5b",
            "0x0000000000000000000000004631753190f2f5a15a7ba172bbac102b7d95fa22"
          ],
          "data": "0x000000000000000000000000000000000000000000000000000a073843790f810000000000000000000000000000000000000000000000012c50e56a7e4262830000000000000000000000000000000000000000000003d50b344980b4389ae20000000000000000000000000000000000000000000000012c46de323ac953020000000000000000000000000000000000000000000003d50b3e50b8f7b1aa63",
          "blockHash": "0x577f6bcf2f8a822eebf8f525bf976b212830023957dd8a776b76edc674693bdd",
          "blockNumber": "0xf62878",
          "transactionHash": "0xf9dd9ba7e4c14de0c492b63a0f3cb98283e6561d0ef31caf8d24b734db9fe638",
          "transactionIndex": "0x0",
          "logIndex": "0x1",
          "removed": false
        }
      ],
      "logsBloom": "0x00000000000000000000000000000000000000002000000000020000000000000000000000000000000000000000000000008000000000000000000040000000008000000000000000000000000000800000000000000000000100000000000000000000000000100010000000020000000000000000000080000000000000000800000000000000000000000000000000000000000008000000000000000000200000000000000000000000000000000000400000000800000000000001004000000000000000000101000000000000000000000000000020100000000200000000000000000000000000000000000000000000000000000000000000100000",
      "type": "0x2",
      "transactionHash": "0xf9dd9ba7e4c14de0c492b63a0f3cb98283e6561d0ef31caf8d24b734db9fe638",
      "transactionIndex": "0x0",
      "blockHash": "0x577f6bcf2f8a822eebf8f525bf976b212830023957dd8a776b76edc674693bdd",
      "blockNumber": "0xf62878",
      "gasUsed": "0x15891",
      "effectiveGasPrice": "0x773594000",
      "from": "0xefbbd14082cf2fbcf5badc7ee619f0f4e36d0a5b",
      "to": "0xf6f28475a04ff6382764b0b42f71bcaa20c69379",
      "contractAddress": null
    }
  ],
  "libraries": [],
  "pending": [],
  "returns": {},
  "timestamp": 1735327421,
  "chain": 80002,
  "commit": "97f1e6a"
}