{
  "transactions": [
    {
      "hash": "0x0b27f6f89c45d8e74dbb515b2d0fdb9a5eb728e752889f4ea24ab99d0ba64f40",
      "transactionType": "CALL",
      "contractName": null,
      "contractAddress": "0x650690df263f5658f83b177e87f9b7716c0e3e14",
      "function": "create(string)",
      "arguments": [
        "https://g.watchit.movie"
      ],
      "transaction": {
        "from": "0xefbbd14082cf2fbcf5badc7ee619f0f4e36d0a5b",
        "to": "0x650690df263f5658f83b177e87f9b7716c0e3e14",
        "gas": "0x601ec",
        "value": "0x0",
        "input": "0xb6a46b3b0000000000000000000000000000000000000000000000000000000000000020000000000000000000000000000000000000000000000000000000000000001768747470733a2f2f672e776174636869742e6d6f766965000000000000000000",
        "nonce": "0x9da",
        "chainId": "0x13882"
      },
      "additionalContracts": [
        {
          "transactionType": "CREATE",
          "address": "0x9b4f787ae2da1e08d11cd5d08bbcb70d940fe3aa",
          "initCode": "0x60a08060405261050d80380380916100178285610292565b833981016040828203126101eb5761002e826102c9565b602083015190926001600160401b0382116101eb57019080601f830112156101eb57815161005b816102dd565b926100696040519485610292565b8184526020840192602083830101116101eb57815f926020809301855e84010152823b15610274577fa3f0ad74e5423aebfd80d3ef4346578335a9a72aeaee59ff6cb3582b35133d5080546001600160a01b0319166001600160a01b038516908117909155604051635c60da1b60e01b8152909190602081600481865afa9081156101f7575f9161023a575b50803b1561021a5750817f1cf3b03a6cf19fa2baba4df148e9dcabedea7f8a5c07840e207e5c089be95d3e5f80a282511561020257602060049260405193848092635c60da1b60e01b82525afa9182156101f7575f926101ae575b505f809161018a945190845af43d156101a6573d9161016e836102dd565b9261017c6040519485610292565b83523d5f602085013e6102f8565b505b6080526040516101b6908161035782396080518160460152f35b6060916102f8565b9291506020833d6020116101ef575b816101ca60209383610292565b810103126101eb575f80916101e161018a956102c9565b9394509150610150565b5f80fd5b3d91506101bd565b6040513d5f823e3d90fd5b505050341561018c5763b398979f60e01b5f5260045ffd5b634c9c8ce360e01b5f9081526001600160a01b0391909116600452602490fd5b90506020813d60201161026c575b8161025560209383610292565b810103126101eb57610266906102c9565b5f6100f5565b3d9150610248565b631933b43b60e21b5f9081526001600160a01b038416600452602490fd5b601f909101601f19168101906001600160401b038211908210176102b557604052565b634e487b7160e01b5f52604160045260245ffd5b51906001600160a01b03821682036101eb57565b6001600160401b0381116102b557601f01601f191660200190565b9061031c575080511561030d57805190602001fd5b63d6bda27560e01b5f5260045ffd5b8151158061034d575b61032d575090565b639996b31560e01b5f9081526001600160a01b0391909116600452602490fd5b50803b1561032556fe60806040527f5c60da1b000000000000000000000000000000000000000000000000000000006080526020608060048173ffffffffffffffffffffffffffffffffffffffff7f0000000000000000000000000000000000000000000000000000000000000000165afa8015610107575f9015610163575060203d602011610100575b7fffffffffffffffffffffffffffffffffffffffffffffffffffffffffffffffe0601f820116608001906080821067ffffffffffffffff8311176100d3576100ce91604052608001610112565b610163565b7f4e487b71000000000000000000000000000000000000000000000000000000005f52604160045260245ffd5b503d610081565b6040513d5f823e3d90fd5b7fffffffffffffffffffffffffffffffffffffffffffffffffffffffffffffff80602091011261015f5760805173ffffffffffffffffffffffffffffffffffffffff8116810361015f5790565b5f80fd5b5f8091368280378136915af43d5f803e1561017c573d5ff35b3d5ffdfea264697066735822122064427a31676ba3427858a99499cd34caa0223a53e5d14b45aaf09cce1cb3243c64736f6c634300081a0033000000000000000000000000650690df263f5658f83b177e87f9b7716c0e3e14000000000000000000000000000000000000000000000000000000000000004000000000000000000000000000000000000000000000000000000000000000847ab4339d0000000000000000000000000000000000000000000000000000000000000040000000000000000000000000efbbd14082cf2fbcf5badc7ee619f0f4e36d0a5b000000000000000000000000000000000000000000000000000000000000001768747470733a2f2f672e776174636869742e6d6f76696500000000000000000000000000000000000000000000000000000000000000000000000000"
        }
      ],
      "isFixedGasLimit": false
    },
    {
      "hash": "0x9520f660e355a8dd062475ae03e0fa44abd8ac5217a3535393d660b2e37b2ad9",
      "transactionType": "CALL",
      "contractName": null,
      "contractAddress": "0x3c7deb6feaeb7a82bde580fb73d8d69c401b219e",
      "function": "approve(address,uint256)",
      "arguments": [
        "0x844E2fBf0F395236260A4E7dF6862e6E25D57141",
        "100000000000000000000"
      ],
      "transaction": {
        "from": "0xefbbd14082cf2fbcf5badc7ee619f0f4e36d0a5b",
        "to": "0x3c7deb6feaeb7a82bde580fb73d8d69c401b219e",
        "gas": "0x106da",
        "value": "0x0",
        "input": "0x095ea7b3000000000000000000000000844e2fbf0f395236260a4e7df6862e6e25d571410000000000000000000000000000000000000000000000056bc75e2d63100000",
        "nonce": "0x9db",
        "chainId": "0x13882"
      },
      "additionalContracts": [],
      "isFixedGasLimit": false
    },
    {
      "hash": "0x00ec7bc9d65679bd4c7c859f63196944552c3ec899888c39d89ce659c5894eab",
      "transactionType": "CALL",
      "contractName": null,
      "contractAddress": "0x844e2fbf0f395236260a4e7df6862e6e25d57141",
      "function": "deposit(address,uint256,address)",
      "arguments": [
        "0xEFBBD14082cF2FbCf5Badc7ee619F0f4e36D0A5B",
        "100000000000000000000",
        "0x3c7DeB6FeAEb7a82BDe580Fb73d8d69c401b219e"
      ],
      "transaction": {
        "from": "0xefbbd14082cf2fbcf5badc7ee619f0f4e36d0a5b",
        "to": "0x844e2fbf0f395236260a4e7df6862e6e25d57141",
        "gas": "0x1ec19",
        "value": "0x0",
        "input": "0xf45346dc000000000000000000000000efbbd14082cf2fbcf5badc7ee619f0f4e36d0a5b0000000000000000000000000000000000000000000000056bc75e2d631000000000000000000000000000003c7deb6feaeb7a82bde580fb73d8d69c401b219e",
        "nonce": "0x9dc",
        "chainId": "0x13882"
      },
      "additionalContracts": [],
      "isFixedGasLimit": false
    },
    {
      "hash": "0xcb1c22e0aac61da94baeb5e1f78c040b09334e72f569a4f3f2819c405e8e8167",
      "transactionType": "CALL",
      "contractName": null,
      "contractAddress": "0x40ead82d71da8d00626f0b898cd7d4bfe6e2a378",
      "function": "register(address,address)",
      "arguments": [
        "0x9B4f787aE2Da1E08D11CD5d08BBCB70D940fe3Aa",
        "0x3c7DeB6FeAEb7a82BDe580Fb73d8d69c401b219e"
      ],
      "transaction": {
        "from": "0xefbbd14082cf2fbcf5badc7ee619f0f4e36d0a5b",
        "to": "0x40ead82d71da8d00626f0b898cd7d4bfe6e2a378",
        "gas": "0x3f8c0",
        "value": "0x0",
        "input": "0xaa6773540000000000000000000000009b4f787ae2da1e08d11cd5d08bbcb70d940fe3aa0000000000000000000000003c7deb6feaeb7a82bde580fb73d8d69c401b219e",
        "nonce": "0x9dd",
        "chainId": "0x13882"
      },
      "additionalContracts": [],
      "isFixedGasLimit": false
    },
    {
      "hash": "0x1b4cb923b216ff9bf5fc9b039baf66538c00348c04227398ea3dfe03c6b0c9ca",
      "transactionType": "CALL",
      "contractName": null,
      "contractAddress": "0x40ead82d71da8d00626f0b898cd7d4bfe6e2a378",
      "function": "approve(address)",
      "arguments": [
        "0x9B4f787aE2Da1E08D11CD5d08BBCB70D940fe3Aa"
      ],
      "transaction": {
        "from": "0xefbbd14082cf2fbcf5badc7ee619f0f4e36d0a5b",
        "to": "0x40ead82d71da8d00626f0b898cd7d4bfe6e2a378",
        "gas": "0x1f810",
        "value": "0x0",
        "input": "0xdaea85c50000000000000000000000009b4f787ae2da1e08d11cd5d08bbcb70d940fe3aa",
        "nonce": "0x9de",
        "chainId": "0x13882"
      },
      "additionalContracts": [],
      "isFixedGasLimit": false
    }
  ],
  "receipts": [
    {
      "status": "0x1",
      "cumulativeGasUsed": "0x46d9b",
      "logs": [
        {
          "address": "0x9b4f787ae2da1e08d11cd5d08bbcb70d940fe3aa",
          "topics": [
            "0x1cf3b03a6cf19fa2baba4df148e9dcabedea7f8a5c07840e207e5c089be95d3e",
            "0x000000000000000000000000650690df263f5658f83b177e87f9b7716c0e3e14"
          ],
          "data": "0x",
          "blockHash": "0xf829535cee4af3367866ed7e5f520780ed3bb3133a0c81e487f73113902697ed",
          "blockNumber": "0xfce6cf",
          "transactionHash": "0x0b27f6f89c45d8e74dbb515b2d0fdb9a5eb728e752889f4ea24ab99d0ba64f40",
          "transactionIndex": "0x1",
          "logIndex": "0x2",
          "removed": false
        },
        {
          "address": "0x9b4f787ae2da1e08d11cd5d08bbcb70d940fe3aa",
          "topics": [
            "0x8be0079c531659141344cd1fd0a4f28419497f9722a3daafe3b4186f6b6457e0",
            "0x0000000000000000000000000000000000000000000000000000000000000000",
            "0x000000000000000000000000efbbd14082cf2fbcf5badc7ee619f0f4e36d0a5b"
          ],
          "data": "0x",
          "blockHash": "0xf829535cee4af3367866ed7e5f520780ed3bb3133a0c81e487f73113902697ed",
          "blockNumber": "0xfce6cf",
          "transactionHash": "0x0b27f6f89c45d8e74dbb515b2d0fdb9a5eb728e752889f4ea24ab99d0ba64f40",
          "transactionIndex": "0x1",
          "logIndex": "0x3",
          "removed": false
        },
        {
          "address": "0x9b4f787ae2da1e08d11cd5d08bbcb70d940fe3aa",
          "topics": [
            "0xc7f505b2f371ae2175ee4913f4499e1f2633a7b5936321eed1cdaeb6115181d2"
          ],
          "data": "0x0000000000000000000000000000000000000000000000000000000000000001",
          "blockHash": "0xf829535cee4af3367866ed7e5f520780ed3bb3133a0c81e487f73113902697ed",
          "blockNumber": "0xfce6cf",
          "transactionHash": "0x0b27f6f89c45d8e74dbb515b2d0fdb9a5eb728e752889f4ea24ab99d0ba64f40",
          "transactionIndex": "0x1",
          "logIndex": "0x4",
          "removed": false
        },
        {
          "address": "0x650690df263f5658f83b177e87f9b7716c0e3e14",
          "topics": [
            "0x92985eff4354fcdb373dfe02169c904984ddf17dc39c83fc867ef35a8ec390c7",
            "0x0000000000000000000000009b4f787ae2da1e08d11cd5d08bbcb70d940fe3aa"
          ],
          "data": "0x000000000000000000000000000000000000000000000000000000000000004000000000000000000000000000000000000000000000000000000000677d53ad000000000000000000000000000000000000000000000000000000000000001768747470733a2f2f672e776174636869742e6d6f766965000000000000000000",
          "blockHash": "0xf829535cee4af3367866ed7e5f520780ed3bb3133a0c81e487f73113902697ed",
          "blockNumber": "0xfce6cf",
          "transactionHash": "0x0b27f6f89c45d8e74dbb515b2d0fdb9a5eb728e752889f4ea24ab99d0ba64f40",
          "transactionIndex": "0x1",
          "logIndex": "0x5",
          "removed": false
        },
        {
          "address": "0x0000000000000000000000000000000000001010",
          "topics": [
            "0x4dfe1bbbcf077ddc3e01291eea2d5c70c2b422b415d95645b9adcfd678cb1d63",
            "0x0000000000000000000000000000000000000000000000000000000000001010",
            "0x000000000000000000000000efbbd14082cf2fbcf5badc7ee619f0f4e36d0a5b",
            "0x000000000000000000000000915a2284d28bd93de7d6f31173b981204bb666e6"
          ],
          "data": "0x00000000000000000000000000000000000000000000000000246ede16b2c7cc00000000000000000000000000000000000000000000000133093d3c0bf1292400000000000000000000000000000000000000000000058e8ef83e15c779fb9a00000000000000000000000000000000000000000000000132e4ce5df53e615800000000000000000000000000000000000000000000058e8f1cacf3de2cc366",
          "blockHash": "0xf829535cee4af3367866ed7e5f520780ed3bb3133a0c81e487f73113902697ed",
          "blockNumber": "0xfce6cf",
          "transactionHash": "0x0b27f6f89c45d8e74dbb515b2d0fdb9a5eb728e752889f4ea24ab99d0ba64f40",
          "transactionIndex": "0x1",
          "logIndex": "0x6",
          "removed": false
        }
      ],
      "logsBloom": "0x0000000000000000001000000000000000002000000000000080000000080000000000000000000000000000000000000000800000000000000000000000000000800000000000000000000000100080000100000000000000010000000000000000000002000c004004040000000800000000000000000080000080000000400800000000000002000800000000080000000000000080000000000000000000200000000000000000000000000000000000400000040000000002000000004000000000000000000001010000000000000002000004000000900000000020000000000000028000000000000000001000000000400000000000000000100000",
      "type": "0x2",
      "transactionHash": "0x0b27f6f89c45d8e74dbb515b2d0fdb9a5eb728e752889f4ea24ab99d0ba64f40",
      "transactionIndex": "0x1",
      "blockHash": "0xf829535cee4af3367866ed7e5f520780ed3bb3133a0c81e487f73113902697ed",
      "blockNumber": "0xfce6cf",
      "gasUsed": "0x41b93",
      "effectiveGasPrice": "0x8de933093",
      "from": "0xefbbd14082cf2fbcf5badc7ee619f0f4e36d0a5b",
      "to": "0x650690df263f5658f83b177e87f9b7716c0e3e14",
      "contractAddress": null
    },
    {
      "status": "0x1",
      "cumulativeGasUsed": "0x52156",
      "logs": [
        {
          "address": "0x3c7deb6feaeb7a82bde580fb73d8d69c401b219e",
          "topics": [
            "0x8c5be1e5ebec7d5bd14f71427d1e84f3dd0314c0f7b2291e5b200ac8c7c3b925",
            "0x000000000000000000000000efbbd14082cf2fbcf5badc7ee619f0f4e36d0a5b",
            "0x000000000000000000000000844e2fbf0f395236260a4e7df6862e6e25d57141"
          ],
          "data": "0x0000000000000000000000000000000000000000000000056bc75e2d63100000",
          "blockHash": "0xf829535cee4af3367866ed7e5f520780ed3bb3133a0c81e487f73113902697ed",
          "blockNumber": "0xfce6cf",
          "transactionHash": "0x9520f660e355a8dd062475ae03e0fa44abd8ac5217a3535393d660b2e37b2ad9",
          "transactionIndex": "0x2",
          "logIndex": "0x7",
          "removed": false
        },
        {
          "address": "0x0000000000000000000000000000000000001010",
          "topics": [
            "0x4dfe1bbbcf077ddc3e01291eea2d5c70c2b422b415d95645b9adcfd678cb1d63",
            "0x0000000000000000000000000000000000000000000000000000000000001010",
            "0x000000000000000000000000efbbd14082cf2fbcf5badc7ee619f0f4e36d0a5b",
            "0x000000000000000000000000915a2284d28bd93de7d6f31173b981204bb666e6"
          ],
          "data": "0x00000000000000000000000000000000000000000000000000063a1b8070bc6c00000000000000000000000000000000000000000000000132e4ce5df500c3bb00000000000000000000000000000000000000000000058e8f1cacf3de2cc36600000000000000000000000000000000000000000000000132de94427490074f00000000000000000000000000000000000000000000058e8f22e70f5e9d7fd2",
          "blockHash": "0xf829535cee4af3367866ed7e5f520780ed3bb3133a0c81e487f73113902697ed",
          "blockNumber": "0xfce6cf",
          "transactionHash": "0x9520f660e355a8dd062475ae03e0fa44abd8ac5217a3535393d660b2e37b2ad9",
          "transactionIndex": "0x2",
          "logIndex": "0x8",
          "removed": false
        }
      ],
      "logsBloom": "0x00000000000000000010000000000000000000000000000000000000000000001000000000000000000000000000000000008000200000000000000000200000008000000000000000000000000000800000000000000010000100000000000000000000000000000000000000000000000000000000000080000000000000000800000000000000000000000000000000000000000000000000000000000000220000000000000000000000000000000000400000000000020400000000004000000000000000000001000000000000000002000000000000100200000000000010000000000000000000000000000000000000400000000000000000100000",
      "type": "0x2",
      "transactionHash": "0x9520f660e355a8dd062475ae03e0fa44abd8ac5217a3535393d660b2e37b2ad9",
      "transactionIndex": "0x2",
      "blockHash": "0xf829535cee4af3367866ed7e5f520780ed3bb3133a0c81e487f73113902697ed",
      "blockNumber": "0xfce6cf",
      "gasUsed": "0xb3bb",
      "effectiveGasPrice": "0x8de933093",
      "from": "0xefbbd14082cf2fbcf5badc7ee619f0f4e36d0a5b",
      "to": "0x3c7deb6feaeb7a82bde580fb73d8d69c401b219e",
      "contractAddress": null
    },
    {
      "status": "0x1",
      "cumulativeGasUsed": "0x6859c",
      "logs": [
        {
          "address": "0x3c7deb6feaeb7a82bde580fb73d8d69c401b219e",
          "topics": [
            "0xddf252ad1be2c89b69c2b068fc378daa952ba7f163c4a11628f55a4df523b3ef",
            "0x000000000000000000000000efbbd14082cf2fbcf5badc7ee619f0f4e36d0a5b",
            "0x000000000000000000000000844e2fbf0f395236260a4e7df6862e6e25d57141"
          ],
          "data": "0x0000000000000000000000000000000000000000000000056bc75e2d63100000",
          "blockHash": "0xf829535cee4af3367866ed7e5f520780ed3bb3133a0c81e487f73113902697ed",
          "blockNumber": "0xfce6cf",
          "transactionHash": "0x00ec7bc9d65679bd4c7c859f63196944552c3ec899888c39d89ce659c5894eab",
          "transactionIndex": "0x3",
          "logIndex": "0x9",
          "removed": false
        },
        {
          "address": "0x844e2fbf0f395236260a4e7df6862e6e25d57141",
          "topics": [
            "0x2d26b12df00031a51cbd91c763887ccf6992992e54b2701fbe5bd7b2c738a4e2",
            "0x000000000000000000000000efbbd14082cf2fbcf5badc7ee619f0f4e36d0a5b",
            "0x000000000000000000000000efbbd14082cf2fbcf5badc7ee619f0f4e36d0a5b"
          ],
          "data": "0x0000000000000000000000000000000000000000000000056bc75e2d631000000000000000000000000000003c7deb6feaeb7a82bde580fb73d8d69c401b219e",
          "blockHash": "0xf829535cee4af3367866ed7e5f520780ed3bb3133a0c81e487f73113902697ed",
          "blockNumber": "0xfce6cf",
          "transactionHash": "0x00ec7bc9d65679bd4c7c859f63196944552c3ec899888c39d89ce659c5894eab",
          "transactionIndex": "0x3",
          "logIndex": "0xa",
          "removed": false
        },
        {
          "address": "0x0000000000000000000000000000000000001010",
          "topics": [
            "0x4dfe1bbbcf077ddc3e01291eea2d5c70c2b422b415d95645b9adcfd678cb1d63",
            "0x0000000000000000000000000000000000000000000000000000000000001010",
            "0x000000000000000000000000efbbd14082cf2fbcf5badc7ee619f0f4e36d0a5b",
            "0x000000000000000000000000915a2284d28bd93de7d6f31173b981204bb666e6"
          ],
          "data": "0x000000000000000000000000000000000000000000000000000c57f18bb6d41800000000000000000000000000000000000000000000000132de944274857f5a00000000000000000000000000000000000000000000058e8f22e70f5e9d7fd200000000000000000000000000000000000000000000000132d23c50e8ceab4200000000000000000000000000000000000000000000058e8f2f3f00ea5453ea",
          "blockHash": "0xf829535cee4af3367866ed7e5f520780ed3bb3133a0c81e487f73113902697ed",
          "blockNumber": "0xfce6cf",
          "transactionHash": "0x00ec7bc9d65679bd4c7c859f63196944552c3ec899888c39d89ce659c5894eab",
          "transactionIndex": "0x3",
          "logIndex": "0xb",
          "removed": false
        }
      ],
      "logsBloom": "0x00000000000100000010000000000020000000000000000000000000000000001000000000000000000000000000000000008000200000000000000000000000008000000000000000000008000000800000000004000010000100000000000000000000000000000000000000000000000000000000000080000010000000000800000000000000000000000000000000000000000000000000000000000000200000100000000000000000000000000000400000000000020400000000004000000002000000040001000000000000000002000000000000100200000000000000000000000000000000000000000000000008400000000000000000100000",
      "type": "0x2",
      "transactionHash": "0x00ec7bc9d65679bd4c7c859f63196944552c3ec899888c39d89ce659c5894eab",
      "transactionIndex": "0x3",
      "blockHash": "0xf829535cee4af3367866ed7e5f520780ed3bb3133a0c81e487f73113902697ed",
      "blockNumber": "0xfce6cf",
      "gasUsed": "0x16446",
      "effectiveGasPrice": "0x8de933093",
      "from": "0xefbbd14082cf2fbcf5badc7ee619f0f4e36d0a5b",
      "to": "0x844e2fbf0f395236260a4e7df6862e6e25d57141",
      "contractAddress": null
    },
    {
      "status": "0x1",
      "cumulativeGasUsed": "0x965b9",
      "logs": [
        {
          "address": "0x844e2fbf0f395236260a4e7df6862e6e25d57141",
          "topics": [
            "0xa372d74f11f208f0466eb410f699d101da6ccbe3717f711988fb355eac737f62",
            "0x000000000000000000000000efbbd14082cf2fbcf5badc7ee619f0f4e36d0a5b",
            "0x0000000000000000000000003c7deb6feaeb7a82bde580fb73d8d69c401b219e"
          ],
          "data": "0x0000000000000000000000000000000000000000000000056bc75e2d63100000",
          "blockHash": "0xf829535cee4af3367866ed7e5f520780ed3bb3133a0c81e487f73113902697ed",
          "blockNumber": "0xfce6cf",
          "transactionHash": "0xcb1c22e0aac61da94baeb5e1f78c040b09334e72f569a4f3f2819c405e8e8167",
          "transactionIndex": "0x4",
          "logIndex": "0xc",
          "removed": false
        },
        {
          "address": "0x844e2fbf0f395236260a4e7df6862e6e25d57141",
          "topics": [
            "0x07b798e47a298c7004dfddcb1196e6b8f9a6488dd1db7eeedbc8a4c3f4831563",
            "0x00000000000000000000000040ead82d71da8d00626f0b898cd7d4bfe6e2a378",
            "0x0000000000000000000000003c7deb6feaeb7a82bde580fb73d8d69c401b219e"
          ],
          "data": "0x0000000000000000000000000000000000000000000000056bc75e2d63100000",
          "blockHash": "0xf829535cee4af3367866ed7e5f520780ed3bb3133a0c81e487f73113902697ed",
          "blockNumber": "0xfce6cf",
          "transactionHash": "0xcb1c22e0aac61da94baeb5e1f78c040b09334e72f569a4f3f2819c405e8e8167",
          "transactionIndex": "0x4",
          "logIndex": "0xd",
          "removed": false
        },
        {
          "address": "0x3c7deb6feaeb7a82bde580fb73d8d69c401b219e",
          "topics": [
            "0xddf252ad1be2c89b69c2b068fc378daa952ba7f163c4a11628f55a4df523b3ef",
            "0x000000000000000000000000844e2fbf0f395236260a4e7df6862e6e25d57141",
            "0x00000000000000000000000040ead82d71da8d00626f0b898cd7d4bfe6e2a378"
          ],
          "data": "0x0000000000000000000000000000000000000000000000056bc75e2d63100000",
          "blockHash": "0xf829535cee4af3367866ed7e5f520780ed3bb3133a0c81e487f73113902697ed",
          "blockNumber": "0xfce6cf",
          "transactionHash": "0xcb1c22e0aac61da94baeb5e1f78c040b09334e72f569a4f3f2819c405e8e8167",
          "transactionIndex": "0x4",
          "logIndex": "0xe",
          "removed": false
        },
        {
          "address": "0x844e2fbf0f395236260a4e7df6862e6e25d57141",
          "topics": [
            "0x823b7dcdbd5806d97a2a3c64fe281a8d31155b2a7dade87fdaa7437c79c12b11",
            "0x00000000000000000000000040ead82d71da8d00626f0b898cd7d4bfe6e2a378",
            "0x00000000000000000000000040ead82d71da8d00626f0b898cd7d4bfe6e2a378",
            "0x0000000000000000000000003c7deb6feaeb7a82bde580fb73d8d69c401b219e"
          ],
          "data": "0x0000000000000000000000000000000000000000000000056bc75e2d63100000",
          "blockHash": "0xf829535cee4af3367866ed7e5f520780ed3bb3133a0c81e487f73113902697ed",
          "blockNumber": "0xfce6cf",
          "transactionHash": "0xcb1c22e0aac61da94baeb5e1f78c040b09334e72f569a4f3f2819c405e8e8167",
          "transactionIndex": "0x4",
          "logIndex": "0xf",
          "removed": false
        },
        {
          "address": "0x40ead82d71da8d00626f0b898cd7d4bfe6e2a378",
          "topics": [
            "0xcda33a906ffa8a5f960826827500581f4613a5db7a84b250433e0d591a630938",
            "0x0000000000000000000000009b4f787ae2da1e08d11cd5d08bbcb70d940fe3aa"
          ],
          "data": "0x00000000000000000000000000000000000000000000000000000000677d53ad0000000000000000000000000000000000000000000000056bc75e2d63100000",
          "blockHash": "0xf829535cee4af3367866ed7e5f520780ed3bb3133a0c81e487f73113902697ed",
          "blockNumber": "0xfce6cf",
          "transactionHash": "0xcb1c22e0aac61da94baeb5e1f78c040b09334e72f569a4f3f2819c405e8e8167",
          "transactionIndex": "0x4",
          "logIndex": "0x10",
          "removed": false
        },
        {
          "address": "0x0000000000000000000000000000000000001010",
          "topics": [
            "0x4dfe1bbbcf077ddc3e01291eea2d5c70c2b422b415d95645b9adcfd678cb1d63",
            "0x0000000000000000000000000000000000000000000000000000000000001010",
            "0x000000000000000000000000efbbd14082cf2fbcf5badc7ee619f0f4e36d0a5b",
            "0x000000000000000000000000915a2284d28bd93de7d6f31173b981204bb666e6"
          ],
          "data": "0x000000000000000000000000000000000000000000000000001980e86227fef400000000000000000000000000000000000000000000000132d23c50e8b9cb2800000000000000000000000000000000000000000000058e8f2f3f00ea5453ea00000000000000000000000000000000000000000000000132b8bb688691cc3400000000000000000000000000000000000000000000058e8f48bfe94c7c52de",
          "blockHash": "0xf829535cee4af3367866ed7e5f520780ed3bb3133a0c81e487f73113902697ed",
          "blockNumber": "0xfce6cf",
          "transactionHash": "0xcb1c22e0aac61da94baeb5e1f78c040b09334e72f569a4f3f2819c405e8e8167",
          "transactionIndex": "0x4",
          "logIndex": "0x11",
          "removed": false
        }
      ],
      "logsBloom": "0x00000000000100000010000000000000000000000000000000800000000000001000000000000000020000000000000000008000200000000000010000200000008000000000000000000008000000800000000004000030000100000000000000001000000000000004040000000000080000000000000080000010010004000800000000000000008000000000000000200000000000000000000000008000200000500000400000000000000000000000400000040000020400001000004000000002000000000011000000000000000002000000000000100200000000000000000040000800400000000200000000000000400000000000000000100000",
      "type": "0x2",
      "transactionHash": "0xcb1c22e0aac61da94baeb5e1f78c040b09334e72f569a4f3f2819c405e8e8167",
      "transactionIndex": "0x4",
      "blockHash": "0xf829535cee4af3367866ed7e5f520780ed3bb3133a0c81e487f73113902697ed",
      "blockNumber": "0xfce6cf",
      "gasUsed": "0x2e01d",
      "effectiveGasPrice": "0x8de933093",
      "from": "0xefbbd14082cf2fbcf5badc7ee619f0f4e36d0a5b",
      "to": "0x40ead82d71da8d00626f0b898cd7d4bfe6e2a378",
      "contractAddress": null
    },
    {
      "status": "0x1",
      "cumulativeGasUsed": "0xabe62",
      "logs": [
        {
          "address": "0x40ead82d71da8d00626f0b898cd7d4bfe6e2a378",
          "topics": [
            "0xf13bfe0b6ec5df39265dccb0a01a09aa4162489c7a083dc6670bde0255d02ca7",
            "0x0000000000000000000000009b4f787ae2da1e08d11cd5d08bbcb70d940fe3aa"
          ],
          "data": "0x00000000000000000000000000000000000000000000000000000000677d53ad",
          "blockHash": "0xf829535cee4af3367866ed7e5f520780ed3bb3133a0c81e487f73113902697ed",
          "blockNumber": "0xfce6cf",
          "transactionHash": "0x1b4cb923b216ff9bf5fc9b039baf66538c00348c04227398ea3dfe03c6b0c9ca",
          "transactionIndex": "0x5",
          "logIndex": "0x12",
          "removed": false
        },
        {
          "address": "0x0000000000000000000000000000000000001010",
          "topics": [
            "0x4dfe1bbbcf077ddc3e01291eea2d5c70c2b422b415d95645b9adcfd678cb1d63",
            "0x0000000000000000000000000000000000000000000000000000000000001010",
            "0x000000000000000000000000efbbd14082cf2fbcf5badc7ee619f0f4e36d0a5b",
            "0x000000000000000000000000915a2284d28bd93de7d6f31173b981204bb666e6"
          ],
          "data": "0x000000000000000000000000000000000000000000000000000bf0f0b85c672400000000000000000000000000000000000000000000000132b8bb688666aa8100000000000000000000000000000000000000000000058e8f48bfe94c7c52de00000000000000000000000000000000000000000000000132acca77ce0a435d00000000000000000000000000000000000000000000058e8f54b0da04d8ba02",
          "blockHash": "0xf829535cee4af3367866ed7e5f520780ed3bb3133a0c81e487f73113902697ed",
          "blockNumber": "0xfce6cf",
          "transactionHash": "0x1b4cb923b216ff9bf5fc9b039baf66538c00348c04227398ea3dfe03c6b0c9ca",
          "transactionIndex": "0x5",
          "logIndex": "0x13",
          "removed": false
        }
      ],
      "logsBloom": "0x00000000000000000010000000000000000000000000000000000000000000000000000000000000000000000000000000008000000000000000000000000000008000000000000000000000000000800000000000000000000100000000000000000000000000000004040000000000000000000000000080000000010000000800000000000000000000000000000000000000000008000000000000000000200000000000400000000000000000000000400000040800000000000000004000000000000000000001000000000000000002000000000020100000000000000000000000000000000000000200000000000000400000000000000000100000",
      "type": "0x2",
      "transactionHash": "0x1b4cb923b216ff9bf5fc9b039baf66538c00348c04227398ea3dfe03c6b0c9ca",
      "transactionIndex": "0x5",
      "blockHash": "0xf829535cee4af3367866ed7e5f520780ed3bb3133a0c81e487f73113902697ed",
      "blockNumber": "0xfce6cf",
      "gasUsed": "0x158a9",
      "effectiveGasPrice": "0x8de933093",
      "from": "0xefbbd14082cf2fbcf5badc7ee619f0f4e36d0a5b",
      "to": "0x40ead82d71da8d00626f0b898cd7d4bfe6e2a378",
      "contractAddress": null
    }
  ],
  "libraries": [],
  "pending": [],
  "returns": {},
  "timestamp": 1736266688,
  "chain": 80002,
  "commit": "3644831"
}