{
  "transactions": [
    {
      "hash": "0x37ac2ac1b74c141a9a9948bbe284a1db63a984333167e95f0b1a16d51cba6c39",
      "transactionType": "CALL",
      "contractName": null,
      "contractAddress": "0x964286d3a7d766ac5f6d80566e50e15f553ad6b5",
      "function": "create(string)",
      "arguments": [
        "https://g.watchit.movie"
      ],
      "transaction": {
        "from": "0xefbbd14082cf2fbcf5badc7ee619f0f4e36d0a5b",
        "to": "0x964286d3a7d766ac5f6d80566e50e15f553ad6b5",
        "gas": "0x5ab07",
        "value": "0x0",
        "input": "0xb6a46b3b0000000000000000000000000000000000000000000000000000000000000020000000000000000000000000000000000000000000000000000000000000001768747470733a2f2f672e776174636869742e6d6f766965000000000000000000",
        "nonce": "0x95c",
        "chainId": "0x13882"
      },
      "additionalContracts": [
        {
          "transactionType": "CREATE",
          "address": "0x80192532ea060c60179014ba42292cf81a15764a",
          "initCode": "0x60a08060405261050d80380380916100178285610292565b833981016040828203126101eb5761002e826102c9565b602083015190926001600160401b0382116101eb57019080601f830112156101eb57815161005b816102dd565b926100696040519485610292565b8184526020840192602083830101116101eb57815f926020809301855e84010152823b15610274577fa3f0ad74e5423aebfd80d3ef4346578335a9a72aeaee59ff6cb3582b35133d5080546001600160a01b0319166001600160a01b038516908117909155604051635c60da1b60e01b8152909190602081600481865afa9081156101f7575f9161023a575b50803b1561021a5750817f1cf3b03a6cf19fa2baba4df148e9dcabedea7f8a5c07840e207e5c089be95d3e5f80a282511561020257602060049260405193848092635c60da1b60e01b82525afa9182156101f7575f926101ae575b505f809161018a945190845af43d156101a6573d9161016e836102dd565b9261017c6040519485610292565b83523d5f602085013e6102f8565b505b6080526040516101b6908161035782396080518160460152f35b6060916102f8565b9291506020833d6020116101ef575b816101ca60209383610292565b810103126101eb575f80916101e161018a956102c9565b9394509150610150565b5f80fd5b3d91506101bd565b6040513d5f823e3d90fd5b505050341561018c5763b398979f60e01b5f5260045ffd5b634c9c8ce360e01b5f9081526001600160a01b0391909116600452602490fd5b90506020813d60201161026c575b8161025560209383610292565b810103126101eb57610266906102c9565b5f6100f5565b3d9150610248565b631933b43b60e21b5f9081526001600160a01b038416600452602490fd5b601f909101601f19168101906001600160401b038211908210176102b557604052565b634e487b7160e01b5f52604160045260245ffd5b51906001600160a01b03821682036101eb57565b6001600160401b0381116102b557601f01601f191660200190565b9061031c575080511561030d57805190602001fd5b63d6bda27560e01b5f5260045ffd5b8151158061034d575b61032d575090565b639996b31560e01b5f9081526001600160a01b0391909116600452602490fd5b50803b1561032556fe60806040527f5c60da1b000000000000000000000000000000000000000000000000000000006080526020608060048173ffffffffffffffffffffffffffffffffffffffff7f0000000000000000000000000000000000000000000000000000000000000000165afa8015610107575f9015610163575060203d602011610100575b7fffffffffffffffffffffffffffffffffffffffffffffffffffffffffffffffe0601f820116608001906080821067ffffffffffffffff8311176100d3576100ce91604052608001610112565b610163565b7f4e487b71000000000000000000000000000000000000000000000000000000005f52604160045260245ffd5b503d610081565b6040513d5f823e3d90fd5b7fffffffffffffffffffffffffffffffffffffffffffffffffffffffffffffff80602091011261015f5760805173ffffffffffffffffffffffffffffffffffffffff8116810361015f5790565b5f80fd5b5f8091368280378136915af43d5f803e1561017c573d5ff35b3d5ffdfea264697066735822122064427a31676ba3427858a99499cd34caa0223a53e5d14b45aaf09cce1cb3243c64736f6c634300081a0033000000000000000000000000964286d3a7d766ac5f6d80566e50e15f553ad6b5000000000000000000000000000000000000000000000000000000000000004000000000000000000000000000000000000000000000000000000000000000847ab4339d0000000000000000000000000000000000000000000000000000000000000040000000000000000000000000efbbd14082cf2fbcf5badc7ee619f0f4e36d0a5b000000000000000000000000000000000000000000000000000000000000001768747470733a2f2f672e776174636869742e6d6f76696500000000000000000000000000000000000000000000000000000000000000000000000000"
        }
      ],
      "isFixedGasLimit": false
    },
    {
      "hash": "0x575ca1d2a4e6339d52ffabeea8057649949f173a54285e984ea022b3ace6dae5",
      "transactionType": "CALL",
      "contractName": null,
      "contractAddress": "0x3c7deb6feaeb7a82bde580fb73d8d69c401b219e",
      "function": "approve(address,uint256)",
      "arguments": [
        "0x83266Ca8147572839BB23A204db52Bd26a1FCeaa",
        "100000000000000000000"
      ],
      "transaction": {
        "from": "0xefbbd14082cf2fbcf5badc7ee619f0f4e36d0a5b",
        "to": "0x3c7deb6feaeb7a82bde580fb73d8d69c401b219e",
        "gas": "0x106da",
        "value": "0x0",
        "input": "0x095ea7b300000000000000000000000083266ca8147572839bb23a204db52bd26a1fceaa0000000000000000000000000000000000000000000000056bc75e2d63100000",
        "nonce": "0x95d",
        "chainId": "0x13882"
      },
      "additionalContracts": [],
      "isFixedGasLimit": false
    },
    {
      "hash": "0x0f85ca0b8f8445216f0fc39bbe2d5fc5b329ae209d60306228578bae05875f19",
      "transactionType": "CALL",
      "contractName": null,
      "contractAddress": "0x83266ca8147572839bb23a204db52bd26a1fceaa",
      "function": "deposit(address,uint256,address)",
      "arguments": [
        "0xEFBBD14082cF2FbCf5Badc7ee619F0f4e36D0A5B",
        "100000000000000000000",
        "0x3c7DeB6FeAEb7a82BDe580Fb73d8d69c401b219e"
      ],
      "transaction": {
        "from": "0xefbbd14082cf2fbcf5badc7ee619f0f4e36d0a5b",
        "to": "0x83266ca8147572839bb23a204db52bd26a1fceaa",
        "gas": "0x1ec19",
        "value": "0x0",
        "input": "0xf45346dc000000000000000000000000efbbd14082cf2fbcf5badc7ee619f0f4e36d0a5b0000000000000000000000000000000000000000000000056bc75e2d631000000000000000000000000000003c7deb6feaeb7a82bde580fb73d8d69c401b219e",
        "nonce": "0x95e",
        "chainId": "0x13882"
      },
      "additionalContracts": [],
      "isFixedGasLimit": false
    },
    {
      "hash": "0x2ce55ac0366163a29a1e96e6259c87af7f056aa8d28f0ff17be768d01cc6a0c7",
      "transactionType": "CALL",
      "contractName": null,
      "contractAddress": "0xa2746f0d272bb0f5273f53b4a0f476afe8873c32",
      "function": "register(address,address)",
      "arguments": [
        "0x80192532Ea060C60179014BA42292CF81A15764a",
        "0x3c7DeB6FeAEb7a82BDe580Fb73d8d69c401b219e"
      ],
      "transaction": {
        "from": "0xefbbd14082cf2fbcf5badc7ee619f0f4e36d0a5b",
        "to": "0xa2746f0d272bb0f5273f53b4a0f476afe8873c32",
        "gas": "0x3f8c0",
        "value": "0x0",
        "input": "0xaa67735400000000000000000000000080192532ea060c60179014ba42292cf81a15764a0000000000000000000000003c7deb6feaeb7a82bde580fb73d8d69c401b219e",
        "nonce": "0x95f",
        "chainId": "0x13882"
      },
      "additionalContracts": [],
      "isFixedGasLimit": false
    },
    {
      "hash": "0xff3ebec0ab1c1348d0c5502e58a6c469d9c0ff0b1312012c2476eb052df98f32",
      "transactionType": "CALL",
      "contractName": null,
      "contractAddress": "0xa2746f0d272bb0f5273f53b4a0f476afe8873c32",
      "function": "approve(address)",
      "arguments": [
        "0x80192532Ea060C60179014BA42292CF81A15764a"
      ],
      "transaction": {
        "from": "0xefbbd14082cf2fbcf5badc7ee619f0f4e36d0a5b",
        "to": "0xa2746f0d272bb0f5273f53b4a0f476afe8873c32",
        "gas": "0x1f810",
        "value": "0x0",
        "input": "0xdaea85c500000000000000000000000080192532ea060c60179014ba42292cf81a15764a",
        "nonce": "0x960",
        "chainId": "0x13882"
      },
      "additionalContracts": [],
      "isFixedGasLimit": false
    }
  ],
  "receipts": [
    {
      "status": "0x1",
      "cumulativeGasUsed": "0x57cb39",
      "logs": [
        {
          "address": "0x80192532ea060c60179014ba42292cf81a15764a",
          "topics": [
            "0x1cf3b03a6cf19fa2baba4df148e9dcabedea7f8a5c07840e207e5c089be95d3e",
            "0x000000000000000000000000964286d3a7d766ac5f6d80566e50e15f553ad6b5"
          ],
          "data": "0x",
          "blockHash": "0x25449debff29326fd051109180ca92a858805b76662f04208e6b926cb96b6da0",
          "blockNumber": "0xfc953a",
          "transactionHash": "0x37ac2ac1b74c141a9a9948bbe284a1db63a984333167e95f0b1a16d51cba6c39",
          "transactionIndex": "0x2",
          "logIndex": "0xa",
          "removed": false
        },
        {
          "address": "0x80192532ea060c60179014ba42292cf81a15764a",
          "topics": [
            "0x8be0079c531659141344cd1fd0a4f28419497f9722a3daafe3b4186f6b6457e0",
            "0x0000000000000000000000000000000000000000000000000000000000000000",
            "0x000000000000000000000000efbbd14082cf2fbcf5badc7ee619f0f4e36d0a5b"
          ],
          "data": "0x",
          "blockHash": "0x25449debff29326fd051109180ca92a858805b76662f04208e6b926cb96b6da0",
          "blockNumber": "0xfc953a",
          "transactionHash": "0x37ac2ac1b74c141a9a9948bbe284a1db63a984333167e95f0b1a16d51cba6c39",
          "transactionIndex": "0x2",
          "logIndex": "0xb",
          "removed": false
        },
        {
          "address": "0x80192532ea060c60179014ba42292cf81a15764a",
          "topics": [
            "0xc7f505b2f371ae2175ee4913f4499e1f2633a7b5936321eed1cdaeb6115181d2"
          ],
          "data": "0x0000000000000000000000000000000000000000000000000000000000000001",
          "blockHash": "0x25449debff29326fd051109180ca92a858805b76662f04208e6b926cb96b6da0",
          "blockNumber": "0xfc953a",
          "transactionHash": "0x37ac2ac1b74c141a9a9948bbe284a1db63a984333167e95f0b1a16d51cba6c39",
          "transactionIndex": "0x2",
          "logIndex": "0xc",
          "removed": false
        },
        {
          "address": "0x964286d3a7d766ac5f6d80566e50e15f553ad6b5",
          "topics": [
            "0x4a7bba0e1c21f3684678b259c49028d8cca5e0c5a2b43eba286ada7d196c8bfb",
            "0x00000000000000000000000080192532ea060c60179014ba42292cf81a15764a"
          ],
          "data": "0x0000000000000000000000000000000000000000000000000000000000000020000000000000000000000000000000000000000000000000000000000000001768747470733a2f2f672e776174636869742e6d6f766965000000000000000000",
          "blockHash": "0x25449debff29326fd051109180ca92a858805b76662f04208e6b926cb96b6da0",
          "blockNumber": "0xfc953a",
          "transactionHash": "0x37ac2ac1b74c141a9a9948bbe284a1db63a984333167e95f0b1a16d51cba6c39",
          "transactionIndex": "0x2",
          "logIndex": "0xd",
          "removed": false
        },
        {
          "address": "0x0000000000000000000000000000000000001010",
          "topics": [
            "0x4dfe1bbbcf077ddc3e01291eea2d5c70c2b422b415d95645b9adcfd678cb1d63",
            "0x0000000000000000000000000000000000000000000000000000000000001010",
            "0x000000000000000000000000efbbd14082cf2fbcf5badc7ee619f0f4e36d0a5b",
            "0x0000000000000000000000006dc2dd54f24979ec26212794c71afefed722280c"
          ],
          "data": "0x000000000000000000000000000000000000000000000000001e92fafda0b23500000000000000000000000000000000000000000000000142eaa481bb8b8e1b0000000000000000000000000000000000000000000004b5e4e0ef23d382b94c00000000000000000000000000000000000000000000000142cc1186bdeadbe60000000000000000000000000000000000000000000004b5e4ff821ed1236b81",
          "blockHash": "0x25449debff29326fd051109180ca92a858805b76662f04208e6b926cb96b6da0",
          "blockNumber": "0xfc953a",
          "transactionHash": "0x37ac2ac1b74c141a9a9948bbe284a1db63a984333167e95f0b1a16d51cba6c39",
          "transactionIndex": "0x2",
          "logIndex": "0xe",
          "removed": false
        }
      ],
      "logsBloom": "0x00000000000000000000000400000010000000000000000000800000100020000000000000000000000000000000000000008000000000000000000000000000008000000010000000000000001000800001000000000000010100080000000000000000030800000000000000000800000000000000000080000000000000420800000000000020000800000040088000000000000080000000200000000000200000000000000000000080000020000000400000000000000010000001004000000000000000000001000000000000000000000004000000900000000020000000000000000000000000000000000000000000000000000000000000100000",
      "type": "0x2",
      "transactionHash": "0x37ac2ac1b74c141a9a9948bbe284a1db63a984333167e95f0b1a16d51cba6c39",
      "transactionIndex": "0x2",
      "blockHash": "0x25449debff29326fd051109180ca92a858805b76662f04208e6b926cb96b6da0",
      "blockNumber": "0xfc953a",
      "gasUsed": "0x41a85",
      "effectiveGasPrice": "0x773594000",
      "from": "0xefbbd14082cf2fbcf5badc7ee619f0f4e36d0a5b",
      "to": "0x964286d3a7d766ac5f6d80566e50e15f553ad6b5",
      "contractAddress": null
    },
    {
      "status": "0x1",
      "cumulativeGasUsed": "0x11d356",
      "logs": [
        {
          "address": "0x3c7deb6feaeb7a82bde580fb73d8d69c401b219e",
          "topics": [
            "0x8c5be1e5ebec7d5bd14f71427d1e84f3dd0314c0f7b2291e5b200ac8c7c3b925",
            "0x000000000000000000000000efbbd14082cf2fbcf5badc7ee619f0f4e36d0a5b",
            "0x00000000000000000000000083266ca8147572839bb23a204db52bd26a1fceaa"
          ],
          "data": "0x0000000000000000000000000000000000000000000000056bc75e2d63100000",
          "blockHash": "0x690f16a1f59662329570d37e1e51dce969969ed622eddbe279c031d7fa429f71",
          "blockNumber": "0xfc953b",
          "transactionHash": "0x575ca1d2a4e6339d52ffabeea8057649949f173a54285e984ea022b3ace6dae5",
          "transactionIndex": "0x2",
          "logIndex": "0x3",
          "removed": false
        },
        {
          "address": "0x0000000000000000000000000000000000001010",
          "topics": [
            "0x4dfe1bbbcf077ddc3e01291eea2d5c70c2b422b415d95645b9adcfd678cb1d63",
            "0x0000000000000000000000000000000000000000000000000000000000001010",
            "0x000000000000000000000000efbbd14082cf2fbcf5badc7ee619f0f4e36d0a5b",
            "0x0000000000000000000000006dc2dd54f24979ec26212794c71afefed722280c"
          ],
          "data": "0x00000000000000000000000000000000000000000000000000053b18a9e7380b00000000000000000000000000000000000000000000000142cc1186bdad4e1b0000000000000000000000000000000000000000000004b5e583f73e4bfe167100000000000000000000000000000000000000000000000142c6d66e13c616100000000000000000000000000000000000000000000004b5e5893256f5e54e7c",
          "blockHash": "0x690f16a1f59662329570d37e1e51dce969969ed622eddbe279c031d7fa429f71",
          "blockNumber": "0xfc953b",
          "transactionHash": "0x575ca1d2a4e6339d52ffabeea8057649949f173a54285e984ea022b3ace6dae5",
          "transactionIndex": "0x2",
          "logIndex": "0x4",
          "removed": false
        }
      ],
      "logsBloom": "0x00000000000000000000000000000000000000000000000000000000000000001000000000000000000000000000000000008000000000000000000000200000008000000000000000000000000000800000000000000010000100080000000000000000000000000000000000000000000000000000000080000000000000020800000000000000000000000040000000000000000000400000000000000000220000000000000000000000000000000000400000000000020000000000004000000000000000000001000000000001000000000000000000100000000000000010008000000000000000000000000000000000000000000000000000100000",
      "type": "0x2",
      "transactionHash": "0x575ca1d2a4e6339d52ffabeea8057649949f173a54285e984ea022b3ace6dae5",
      "transactionIndex": "0x2",
      "blockHash": "0x690f16a1f59662329570d37e1e51dce969969ed622eddbe279c031d7fa429f71",
      "blockNumber": "0xfc953b",
      "gasUsed": "0xb3bb",
      "effectiveGasPrice": "0x773594000",
      "from": "0xefbbd14082cf2fbcf5badc7ee619f0f4e36d0a5b",
      "to": "0x3c7deb6feaeb7a82bde580fb73d8d69c401b219e",
      "contractAddress": null
    },
    {
      "status": "0x1",
      "cumulativeGasUsed": "0x13379c",
      "logs": [
        {
          "address": "0x3c7deb6feaeb7a82bde580fb73d8d69c401b219e",
          "topics": [
            "0xddf252ad1be2c89b69c2b068fc378daa952ba7f163c4a11628f55a4df523b3ef",
            "0x000000000000000000000000efbbd14082cf2fbcf5badc7ee619f0f4e36d0a5b",
            "0x00000000000000000000000083266ca8147572839bb23a204db52bd26a1fceaa"
          ],
          "data": "0x0000000000000000000000000000000000000000000000056bc75e2d63100000",
          "blockHash": "0x690f16a1f59662329570d37e1e51dce969969ed622eddbe279c031d7fa429f71",
          "blockNumber": "0xfc953b",
          "transactionHash": "0x0f85ca0b8f8445216f0fc39bbe2d5fc5b329ae209d60306228578bae05875f19",
          "transactionIndex": "0x3",
          "logIndex": "0x5",
          "removed": false
        },
        {
          "address": "0x83266ca8147572839bb23a204db52bd26a1fceaa",
          "topics": [
            "0x2d26b12df00031a51cbd91c763887ccf6992992e54b2701fbe5bd7b2c738a4e2",
            "0x000000000000000000000000efbbd14082cf2fbcf5badc7ee619f0f4e36d0a5b",
            "0x000000000000000000000000efbbd14082cf2fbcf5badc7ee619f0f4e36d0a5b"
          ],
          "data": "0x0000000000000000000000000000000000000000000000056bc75e2d631000000000000000000000000000003c7deb6feaeb7a82bde580fb73d8d69c401b219e",
          "blockHash": "0x690f16a1f59662329570d37e1e51dce969969ed622eddbe279c031d7fa429f71",
          "blockNumber": "0xfc953b",
          "transactionHash": "0x0f85ca0b8f8445216f0fc39bbe2d5fc5b329ae209d60306228578bae05875f19",
          "transactionIndex": "0x3",
          "logIndex": "0x6",
          "removed": false
        },
        {
          "address": "0x0000000000000000000000000000000000001010",
          "topics": [
            "0x4dfe1bbbcf077ddc3e01291eea2d5c70c2b422b415d95645b9adcfd678cb1d63",
            "0x0000000000000000000000000000000000000000000000000000000000001010",
            "0x000000000000000000000000efbbd14082cf2fbcf5badc7ee619f0f4e36d0a5b",
            "0x0000000000000000000000006dc2dd54f24979ec26212794c71afefed722280c"
          ],
          "data": "0x000000000000000000000000000000000000000000000000000a5e71a7529fe600000000000000000000000000000000000000000000000142c6d66e13bb8e1b0000000000000000000000000000000000000000000004b5e5893256f5e54e7c00000000000000000000000000000000000000000000000142bc77fc6c68ee350000000000000000000000000000000000000000000004b5e59390c89d37ee62",
          "blockHash": "0x690f16a1f59662329570d37e1e51dce969969ed622eddbe279c031d7fa429f71",
          "blockNumber": "0xfc953b",
          "transactionHash": "0x0f85ca0b8f8445216f0fc39bbe2d5fc5b329ae209d60306228578bae05875f19",
          "transactionIndex": "0x3",
          "logIndex": "0x7",
          "removed": false
        }
      ],
      "logsBloom": "0x00000000000000000000000000000020000000000000000000000000000000001000000000000000000000000000000000008000000000000000000000000000008000000000000000000008000000800000000000000010000100080000000000000000000000000000000000000000000000000000000080000010000000020800000000000000000000000040000000000000000000400000000000000000200000000000000000000000000000000000400000000000020000000000004000000002000000040001000002000001000000008000000000100000000100000000008000000000000000000000000000000008000000000000000000100000",
      "type": "0x2",
      "transactionHash": "0x0f85ca0b8f8445216f0fc39bbe2d5fc5b329ae209d60306228578bae05875f19",
      "transactionIndex": "0x3",
      "blockHash": "0x690f16a1f59662329570d37e1e51dce969969ed622eddbe279c031d7fa429f71",
      "blockNumber": "0xfc953b",
      "gasUsed": "0x16446",
      "effectiveGasPrice": "0x773594000",
      "from": "0xefbbd14082cf2fbcf5badc7ee619f0f4e36d0a5b",
      "to": "0x83266ca8147572839bb23a204db52bd26a1fceaa",
      "contractAddress": null
    },
    {
      "status": "0x1",
      "cumulativeGasUsed": "0x1617b9",
      "logs": [
        {
          "address": "0x83266ca8147572839bb23a204db52bd26a1fceaa",
          "topics": [
            "0xa372d74f11f208f0466eb410f699d101da6ccbe3717f711988fb355eac737f62",
            "0x000000000000000000000000efbbd14082cf2fbcf5badc7ee619f0f4e36d0a5b",
            "0x0000000000000000000000003c7deb6feaeb7a82bde580fb73d8d69c401b219e"
          ],
          "data": "0x0000000000000000000000000000000000000000000000056bc75e2d63100000",
          "blockHash": "0x690f16a1f59662329570d37e1e51dce969969ed622eddbe279c031d7fa429f71",
          "blockNumber": "0xfc953b",
          "transactionHash": "0x2ce55ac0366163a29a1e96e6259c87af7f056aa8d28f0ff17be768d01cc6a0c7",
          "transactionIndex": "0x4",
          "logIndex": "0x8",
          "removed": false
        },
        {
          "address": "0x83266ca8147572839bb23a204db52bd26a1fceaa",
          "topics": [
            "0x07b798e47a298c7004dfddcb1196e6b8f9a6488dd1db7eeedbc8a4c3f4831563",
            "0x000000000000000000000000a2746f0d272bb0f5273f53b4a0f476afe8873c32",
            "0x0000000000000000000000003c7deb6feaeb7a82bde580fb73d8d69c401b219e"
          ],
          "data": "0x0000000000000000000000000000000000000000000000056bc75e2d63100000",
          "blockHash": "0x690f16a1f59662329570d37e1e51dce969969ed622eddbe279c031d7fa429f71",
          "blockNumber": "0xfc953b",
          "transactionHash": "0x2ce55ac0366163a29a1e96e6259c87af7f056aa8d28f0ff17be768d01cc6a0c7",
          "transactionIndex": "0x4",
          "logIndex": "0x9",
          "removed": false
        },
        {
          "address": "0x3c7deb6feaeb7a82bde580fb73d8d69c401b219e",
          "topics": [
            "0xddf252ad1be2c89b69c2b068fc378daa952ba7f163c4a11628f55a4df523b3ef",
            "0x00000000000000000000000083266ca8147572839bb23a204db52bd26a1fceaa",
            "0x000000000000000000000000a2746f0d272bb0f5273f53b4a0f476afe8873c32"
          ],
          "data": "0x0000000000000000000000000000000000000000000000056bc75e2d63100000",
          "blockHash": "0x690f16a1f59662329570d37e1e51dce969969ed622eddbe279c031d7fa429f71",
          "blockNumber": "0xfc953b",
          "transactionHash": "0x2ce55ac0366163a29a1e96e6259c87af7f056aa8d28f0ff17be768d01cc6a0c7",
          "transactionIndex": "0x4",
          "logIndex": "0xa",
          "removed": false
        },
        {
          "address": "0x83266ca8147572839bb23a204db52bd26a1fceaa",
          "topics": [
            "0x823b7dcdbd5806d97a2a3c64fe281a8d31155b2a7dade87fdaa7437c79c12b11",
            "0x000000000000000000000000a2746f0d272bb0f5273f53b4a0f476afe8873c32",
            "0x000000000000000000000000a2746f0d272bb0f5273f53b4a0f476afe8873c32",
            "0x0000000000000000000000003c7deb6feaeb7a82bde580fb73d8d69c401b219e"
          ],
          "data": "0x0000000000000000000000000000000000000000000000056bc75e2d63100000",
          "blockHash": "0x690f16a1f59662329570d37e1e51dce969969ed622eddbe279c031d7fa429f71",
          "blockNumber": "0xfc953b",
          "transactionHash": "0x2ce55ac0366163a29a1e96e6259c87af7f056aa8d28f0ff17be768d01cc6a0c7",
          "transactionIndex": "0x4",
          "logIndex": "0xb",
          "removed": false
        },
        {
          "address": "0xa2746f0d272bb0f5273f53b4a0f476afe8873c32",
          "topics": [
            "0xcda33a906ffa8a5f960826827500581f4613a5db7a84b250433e0d591a630938",
            "0x00000000000000000000000080192532ea060c60179014ba42292cf81a15764a"
          ],
          "data": "0x00000000000000000000000000000000000000000000000000000000677ca6530000000000000000000000000000000000000000000000056bc75e2d63100000",
          "blockHash": "0x690f16a1f59662329570d37e1e51dce969969ed622eddbe279c031d7fa429f71",
          "blockNumber": "0xfc953b",
          "transactionHash": "0x2ce55ac0366163a29a1e96e6259c87af7f056aa8d28f0ff17be768d01cc6a0c7",
          "transactionIndex": "0x4",
          "logIndex": "0xc",
          "removed": false
        },
        {
          "address": "0x0000000000000000000000000000000000001010",
          "topics": [
            "0x4dfe1bbbcf077ddc3e01291eea2d5c70c2b422b415d95645b9adcfd678cb1d63",
            "0x0000000000000000000000000000000000000000000000000000000000001010",
            "0x000000000000000000000000efbbd14082cf2fbcf5badc7ee619f0f4e36d0a5b",
            "0x0000000000000000000000006dc2dd54f24979ec26212794c71afefed722280c"
          ],
          "data": "0x00000000000000000000000000000000000000000000000000156c78a8f11e4d00000000000000000000000000000000000000000000000142bc77fc6c540e1b0000000000000000000000000000000000000000000004b5e59390c89d37ee6200000000000000000000000000000000000000000000000142a70b83c362efce0000000000000000000000000000000000000000000004b5e5a8fd4146290caf",
          "blockHash": "0x690f16a1f59662329570d37e1e51dce969969ed622eddbe279c031d7fa429f71",
          "blockNumber": "0xfc953b",
          "transactionHash": "0x2ce55ac0366163a29a1e96e6259c87af7f056aa8d28f0ff17be768d01cc6a0c7",
          "transactionIndex": "0x4",
          "logIndex": "0xd",
          "removed": false
        }
      ],
      "logsBloom": "0x00000000000000000000000000000000000000000000000000800000000020001000000000000000020000000001000000008000000000000000010000200000008000000000000000000008000000800000000000000030000100080000000000001000000000000000000000000000080000000000000080000010000004020800000000000000008001000040048000000000000000400000000000008000200000000000000000000000000000000000400000000000020000001001004000000002000000000011000402000001000000008000000000100000000100000000008040000000400040000000000800000000000000000000000000100000",
      "type": "0x2",
      "transactionHash": "0x2ce55ac0366163a29a1e96e6259c87af7f056aa8d28f0ff17be768d01cc6a0c7",
      "transactionIndex": "0x4",
      "blockHash": "0x690f16a1f59662329570d37e1e51dce969969ed622eddbe279c031d7fa429f71",
      "blockNumber": "0xfc953b",
      "gasUsed": "0x2e01d",
      "effectiveGasPrice": "0x773594000",
      "from": "0xefbbd14082cf2fbcf5badc7ee619f0f4e36d0a5b",
      "to": "0xa2746f0d272bb0f5273f53b4a0f476afe8873c32",
      "contractAddress": null
    },
    {
      "status": "0x1",
      "cumulativeGasUsed": "0x177062",
      "logs": [
        {
          "address": "0xa2746f0d272bb0f5273f53b4a0f476afe8873c32",
          "topics": [
            "0xf13bfe0b6ec5df39265dccb0a01a09aa4162489c7a083dc6670bde0255d02ca7",
            "0x00000000000000000000000080192532ea060c60179014ba42292cf81a15764a"
          ],
          "data": "0x00000000000000000000000000000000000000000000000000000000677ca653",
          "blockHash": "0x690f16a1f59662329570d37e1e51dce969969ed622eddbe279c031d7fa429f71",
          "blockNumber": "0xfc953b",
          "transactionHash": "0xff3ebec0ab1c1348d0c5502e58a6c469d9c0ff0b1312012c2476eb052df98f32",
          "transactionIndex": "0x5",
          "logIndex": "0xe",
          "removed": false
        },
        {
          "address": "0x0000000000000000000000000000000000001010",
          "topics": [
            "0x4dfe1bbbcf077ddc3e01291eea2d5c70c2b422b415d95645b9adcfd678cb1d63",
            "0x0000000000000000000000000000000000000000000000000000000000001010",
            "0x000000000000000000000000efbbd14082cf2fbcf5badc7ee619f0f4e36d0a5b",
            "0x0000000000000000000000006dc2dd54f24979ec26212794c71afefed722280c"
          ],
          "data": "0x000000000000000000000000000000000000000000000000000a07eb13d70e1900000000000000000000000000000000000000000000000142a70b83c337ce1b0000000000000000000000000000000000000000000004b5e5a8fd4146290caf000000000000000000000000000000000000000000000001429d0398af60c0020000000000000000000000000000000000000000000004b5e5b3052c5a001ac8",
          "blockHash": "0x690f16a1f59662329570d37e1e51dce969969ed622eddbe279c031d7fa429f71",
          "blockNumber": "0xfc953b",
          "transactionHash": "0xff3ebec0ab1c1348d0c5502e58a6c469d9c0ff0b1312012c2476eb052df98f32",
          "transactionIndex": "0x5",
          "logIndex": "0xf",
          "removed": false
        }
      ],
      "logsBloom": "0x00000000000000000000000000000000000000000000000000000000000020000000000000000000000000000000000000008000000000000000000000000000008000000000000000000000000000800000000000000000000100080000000000000000000000000000000000000000000000000000000080000000000000020800000000000000000001000040048000000000000008000000000000000000200000000000000000000000000000000000400000000800000000000001004000000000000000000001000000000000000000000000000020100000000000000000000000000000000000000000000800000000000000000000000000100000",
      "type": "0x2",
      "transactionHash": "0xff3ebec0ab1c1348d0c5502e58a6c469d9c0ff0b1312012c2476eb052df98f32",
      "transactionIndex": "0x5",
      "blockHash": "0x690f16a1f59662329570d37e1e51dce969969ed622eddbe279c031d7fa429f71",
      "blockNumber": "0xfc953b",
      "gasUsed": "0x158a9",
      "effectiveGasPrice": "0x773594000",
      "from": "0xefbbd14082cf2fbcf5badc7ee619f0f4e36d0a5b",
      "to": "0xa2746f0d272bb0f5273f53b4a0f476afe8873c32",
      "contractAddress": null
    }
  ],
  "libraries": [],
  "pending": [],
  "returns": {},
  "timestamp": 1736222294,
  "chain": 80002,
  "commit": "0798d1a"
}