{
  "transactions": [
    {
      "hash": "0x8f1741446f5676a2f078e32b795fea9df76bd5124d65baf4a95c2e81e7339bb6",
      "transactionType": "CALL",
      "contractName": null,
      "contractAddress": "0x6b73b72cfd6187d111ab8ead4dc7709f1b1af685",
      "function": "create(string)",
      "arguments": [
        "https://g.watchit.movie"
      ],
      "transaction": {
        "from": "0xefbbd14082cf2fbcf5badc7ee619f0f4e36d0a5b",
        "to": "0x6b73b72cfd6187d111ab8ead4dc7709f1b1af685",
        "gas": "0x5ab07",
        "value": "0x0",
        "input": "0xb6a46b3b0000000000000000000000000000000000000000000000000000000000000020000000000000000000000000000000000000000000000000000000000000001768747470733a2f2f672e776174636869742e6d6f766965000000000000000000",
        "nonce": "0xa35",
        "chainId": "0x13882"
      },
      "additionalContracts": [
        {
          "transactionType": "CREATE",
          "address": "0x5b903c9598409a6857056fc8a397f74716a5c71d",
          "initCode": "0x60a08060405261050d80380380916100178285610292565b833981016040828203126101eb5761002e826102c9565b602083015190926001600160401b0382116101eb57019080601f830112156101eb57815161005b816102dd565b926100696040519485610292565b8184526020840192602083830101116101eb57815f926020809301855e84010152823b15610274577fa3f0ad74e5423aebfd80d3ef4346578335a9a72aeaee59ff6cb3582b35133d5080546001600160a01b0319166001600160a01b038516908117909155604051635c60da1b60e01b8152909190602081600481865afa9081156101f7575f9161023a575b50803b1561021a5750817f1cf3b03a6cf19fa2baba4df148e9dcabedea7f8a5c07840e207e5c089be95d3e5f80a282511561020257602060049260405193848092635c60da1b60e01b82525afa9182156101f7575f926101ae575b505f809161018a945190845af43d156101a6573d9161016e836102dd565b9261017c6040519485610292565b83523d5f602085013e6102f8565b505b6080526040516101b6908161035782396080518160460152f35b6060916102f8565b9291506020833d6020116101ef575b816101ca60209383610292565b810103126101eb575f80916101e161018a956102c9565b9394509150610150565b5f80fd5b3d91506101bd565b6040513d5f823e3d90fd5b505050341561018c5763b398979f60e01b5f5260045ffd5b634c9c8ce360e01b5f9081526001600160a01b0391909116600452602490fd5b90506020813d60201161026c575b8161025560209383610292565b810103126101eb57610266906102c9565b5f6100f5565b3d9150610248565b631933b43b60e21b5f9081526001600160a01b038416600452602490fd5b601f909101601f19168101906001600160401b038211908210176102b557604052565b634e487b7160e01b5f52604160045260245ffd5b51906001600160a01b03821682036101eb57565b6001600160401b0381116102b557601f01601f191660200190565b9061031c575080511561030d57805190602001fd5b63d6bda27560e01b5f5260045ffd5b8151158061034d575b61032d575090565b639996b31560e01b5f9081526001600160a01b0391909116600452602490fd5b50803b1561032556fe60806040527f5c60da1b000000000000000000000000000000000000000000000000000000006080526020608060048173ffffffffffffffffffffffffffffffffffffffff7f0000000000000000000000000000000000000000000000000000000000000000165afa8015610107575f9015610163575060203d602011610100575b7fffffffffffffffffffffffffffffffffffffffffffffffffffffffffffffffe0601f820116608001906080821067ffffffffffffffff8311176100d3576100ce91604052608001610112565b610163565b7f4e487b71000000000000000000000000000000000000000000000000000000005f52604160045260245ffd5b503d610081565b6040513d5f823e3d90fd5b7fffffffffffffffffffffffffffffffffffffffffffffffffffffffffffffff80602091011261015f5760805173ffffffffffffffffffffffffffffffffffffffff8116810361015f5790565b5f80fd5b5f8091368280378136915af43d5f803e1561017c573d5ff35b3d5ffdfea264697066735822122064427a31676ba3427858a99499cd34caa0223a53e5d14b45aaf09cce1cb3243c64736f6c634300081a00330000000000000000000000006b73b72cfd6187d111ab8ead4dc7709f1b1af685000000000000000000000000000000000000000000000000000000000000004000000000000000000000000000000000000000000000000000000000000000847ab4339d0000000000000000000000000000000000000000000000000000000000000040000000000000000000000000efbbd14082cf2fbcf5badc7ee619f0f4e36d0a5b000000000000000000000000000000000000000000000000000000000000001768747470733a2f2f672e776174636869742e6d6f76696500000000000000000000000000000000000000000000000000000000000000000000000000"
        }
      ],
      "isFixedGasLimit": false
    },
    {
      "hash": "0x0086814a8ed6c2b9cae7e1598ba2746af7c6bc876d67334dc08beb93c305ce65",
      "transactionType": "CALL",
      "contractName": null,
      "contractAddress": "0x3c7deb6feaeb7a82bde580fb73d8d69c401b219e",
      "function": "approve(address,uint256)",
      "arguments": [
        "0x5855f2c385D526e93802123d5CB54465c4E3871C",
        "100000000000000000000"
      ],
      "transaction": {
        "from": "0xefbbd14082cf2fbcf5badc7ee619f0f4e36d0a5b",
        "to": "0x3c7deb6feaeb7a82bde580fb73d8d69c401b219e",
        "gas": "0x106da",
        "value": "0x0",
        "input": "0x095ea7b30000000000000000000000005855f2c385d526e93802123d5cb54465c4e3871c0000000000000000000000000000000000000000000000056bc75e2d63100000",
        "nonce": "0xa36",
        "chainId": "0x13882"
      },
      "additionalContracts": [],
      "isFixedGasLimit": false
    },
    {
      "hash": "0x23402a506cea8262ae5f6800cb9252274bb9da189ed92882a20fbbf8afd203d4",
      "transactionType": "CALL",
      "contractName": null,
      "contractAddress": "0x5855f2c385d526e93802123d5cb54465c4e3871c",
      "function": "deposit(address,uint256,address)",
      "arguments": [
        "0xEFBBD14082cF2FbCf5Badc7ee619F0f4e36D0A5B",
        "100000000000000000000",
        "0x3c7DeB6FeAEb7a82BDe580Fb73d8d69c401b219e"
      ],
      "transaction": {
        "from": "0xefbbd14082cf2fbcf5badc7ee619f0f4e36d0a5b",
        "to": "0x5855f2c385d526e93802123d5cb54465c4e3871c",
        "gas": "0x1ec19",
        "value": "0x0",
        "input": "0xf45346dc000000000000000000000000efbbd14082cf2fbcf5badc7ee619f0f4e36d0a5b0000000000000000000000000000000000000000000000056bc75e2d631000000000000000000000000000003c7deb6feaeb7a82bde580fb73d8d69c401b219e",
        "nonce": "0xa37",
        "chainId": "0x13882"
      },
      "additionalContracts": [],
      "isFixedGasLimit": false
    },
    {
      "hash": "0x9da74b012c174357c36b87392c72c8f852408e1f907c8d629bc8cf5afebdc075",
      "transactionType": "CALL",
      "contractName": null,
      "contractAddress": "0x31f32d9066257805ccccbfe46cfc2455fddd902c",
      "function": "register(address,address)",
      "arguments": [
        "0x5B903C9598409A6857056Fc8a397F74716A5C71D",
        "0x3c7DeB6FeAEb7a82BDe580Fb73d8d69c401b219e"
      ],
      "transaction": {
        "from": "0xefbbd14082cf2fbcf5badc7ee619f0f4e36d0a5b",
        "to": "0x31f32d9066257805ccccbfe46cfc2455fddd902c",
        "gas": "0x3f796",
        "value": "0x0",
        "input": "0xaa6773540000000000000000000000005b903c9598409a6857056fc8a397f74716a5c71d0000000000000000000000003c7deb6feaeb7a82bde580fb73d8d69c401b219e",
        "nonce": "0xa38",
        "chainId": "0x13882"
      },
      "additionalContracts": [],
      "isFixedGasLimit": false
    },
    {
      "hash": "0x624359e2336c245053239465585146c6d2e72fcedab0883986f59e1b2ea4a6d8",
      "transactionType": "CALL",
      "contractName": null,
      "contractAddress": "0x31f32d9066257805ccccbfe46cfc2455fddd902c",
      "function": "approve(address)",
      "arguments": [
        "0x5B903C9598409A6857056Fc8a397F74716A5C71D"
      ],
      "transaction": {
        "from": "0xefbbd14082cf2fbcf5badc7ee619f0f4e36d0a5b",
        "to": "0x31f32d9066257805ccccbfe46cfc2455fddd902c",
        "gas": "0x1f684",
        "value": "0x0",
        "input": "0xdaea85c50000000000000000000000005b903c9598409a6857056fc8a397f74716a5c71d",
        "nonce": "0xa39",
        "chainId": "0x13882"
      },
      "additionalContracts": [],
      "isFixedGasLimit": false
    }
  ],
  "receipts": [
    {
      "status": "0x1",
      "cumulativeGasUsed": "0x4a355",
      "logs": [
        {
          "address": "0x5b903c9598409a6857056fc8a397f74716a5c71d",
          "topics": [
            "0x1cf3b03a6cf19fa2baba4df148e9dcabedea7f8a5c07840e207e5c089be95d3e",
            "0x0000000000000000000000006b73b72cfd6187d111ab8ead4dc7709f1b1af685"
          ],
          "data": "0x",
          "blockHash": "0x124f469a0698ea10654a92703922eedd892afb6606e740190c048350bacebab0",
          "blockNumber": "0xfe14af",
          "transactionHash": "0x8f1741446f5676a2f078e32b795fea9df76bd5124d65baf4a95c2e81e7339bb6",
          "transactionIndex": "0x1",
          "logIndex": "0x2",
          "removed": false
        },
        {
          "address": "0x5b903c9598409a6857056fc8a397f74716a5c71d",
          "topics": [
            "0x8be0079c531659141344cd1fd0a4f28419497f9722a3daafe3b4186f6b6457e0",
            "0x0000000000000000000000000000000000000000000000000000000000000000",
            "0x000000000000000000000000efbbd14082cf2fbcf5badc7ee619f0f4e36d0a5b"
          ],
          "data": "0x",
          "blockHash": "0x124f469a0698ea10654a92703922eedd892afb6606e740190c048350bacebab0",
          "blockNumber": "0xfe14af",
          "transactionHash": "0x8f1741446f5676a2f078e32b795fea9df76bd5124d65baf4a95c2e81e7339bb6",
          "transactionIndex": "0x1",
          "logIndex": "0x3",
          "removed": false
        },
        {
          "address": "0x5b903c9598409a6857056fc8a397f74716a5c71d",
          "topics": [
            "0xc7f505b2f371ae2175ee4913f4499e1f2633a7b5936321eed1cdaeb6115181d2"
          ],
          "data": "0x0000000000000000000000000000000000000000000000000000000000000001",
          "blockHash": "0x124f469a0698ea10654a92703922eedd892afb6606e740190c048350bacebab0",
          "blockNumber": "0xfe14af",
          "transactionHash": "0x8f1741446f5676a2f078e32b795fea9df76bd5124d65baf4a95c2e81e7339bb6",
          "transactionIndex": "0x1",
          "logIndex": "0x4",
          "removed": false
        },
        {
          "address": "0x6b73b72cfd6187d111ab8ead4dc7709f1b1af685",
          "topics": [
            "0x4a7bba0e1c21f3684678b259c49028d8cca5e0c5a2b43eba286ada7d196c8bfb",
            "0x0000000000000000000000005b903c9598409a6857056fc8a397f74716a5c71d"
          ],
          "data": "0x0000000000000000000000000000000000000000000000000000000000000020000000000000000000000000000000000000000000000000000000000000001768747470733a2f2f672e776174636869742e6d6f766965000000000000000000",
          "blockHash": "0x124f469a0698ea10654a92703922eedd892afb6606e740190c048350bacebab0",
          "blockNumber": "0xfe14af",
          "transactionHash": "0x8f1741446f5676a2f078e32b795fea9df76bd5124d65baf4a95c2e81e7339bb6",
          "transactionIndex": "0x1",
          "logIndex": "0x5",
          "removed": false
        },
        {
          "address": "0x0000000000000000000000000000000000001010",
          "topics": [
            "0x4dfe1bbbcf077ddc3e01291eea2d5c70c2b422b415d95645b9adcfd678cb1d63",
            "0x0000000000000000000000000000000000000000000000000000000000001010",
            "0x000000000000000000000000efbbd14082cf2fbcf5badc7ee619f0f4e36d0a5b",
            "0x000000000000000000000000915a2284d28bd93de7d6f31173b981204bb666e6"
          ],
          "data": "0x000000000000000000000000000000000000000000000000003db7ae1ef0f6be000000000000000000000000000000000000000000000001183041d0265cc20c000000000000000000000000000000000000000000000591bd7f0a3a395644fd00000000000000000000000000000000000000000000000117f28a22076bcb4e000000000000000000000000000000000000000000000591bdbcc1e858473bbb",
          "blockHash": "0x124f469a0698ea10654a92703922eedd892afb6606e740190c048350bacebab0",
          "blockNumber": "0xfe14af",
          "transactionHash": "0x8f1741446f5676a2f078e32b795fea9df76bd5124d65baf4a95c2e81e7339bb6",
          "transactionIndex": "0x1",
          "logIndex": "0x6",
          "removed": false
        }
      ],
      "logsBloom": "0x00000000000000000010000400000000000000000000000000800000002000000000000000000000000000000000000000008000000000000000000800000000008000000040000000000000001000800009000000000000010100002000000000000000020000000000000000000800000100000000000084000000000000400800000000000000000800000000080080000000000080000000200000000000200000000010000000000000000000000000400000000000000020000000004000000000000000000001000000000000000012000004000000900000000020000000000000000100000000000000000000000000400000000000000000100000",
      "type": "0x2",
      "transactionHash": "0x8f1741446f5676a2f078e32b795fea9df76bd5124d65baf4a95c2e81e7339bb6",
      "transactionIndex": "0x1",
      "blockHash": "0x124f469a0698ea10654a92703922eedd892afb6606e740190c048350bacebab0",
      "blockNumber": "0xfe14af",
      "gasUsed": "0x41a85",
      "effectiveGasPrice": "0xf0a351b35",
      "from": "0xefbbd14082cf2fbcf5badc7ee619f0f4e36d0a5b",
      "to": "0x6b73b72cfd6187d111ab8ead4dc7709f1b1af685",
      "contractAddress": null
    },
    {
      "status": "0x1",
      "cumulativeGasUsed": "0x55710",
      "logs": [
        {
          "address": "0x3c7deb6feaeb7a82bde580fb73d8d69c401b219e",
          "topics": [
            "0x8c5be1e5ebec7d5bd14f71427d1e84f3dd0314c0f7b2291e5b200ac8c7c3b925",
            "0x000000000000000000000000efbbd14082cf2fbcf5badc7ee619f0f4e36d0a5b",
            "0x0000000000000000000000005855f2c385d526e93802123d5cb54465c4e3871c"
          ],
          "data": "0x0000000000000000000000000000000000000000000000056bc75e2d63100000",
          "blockHash": "0x124f469a0698ea10654a92703922eedd892afb6606e740190c048350bacebab0",
          "blockNumber": "0xfe14af",
          "transactionHash": "0x0086814a8ed6c2b9cae7e1598ba2746af7c6bc876d67334dc08beb93c305ce65",
          "transactionIndex": "0x2",
          "logIndex": "0x7",
          "removed": false
        },
        {
          "address": "0x0000000000000000000000000000000000001010",
          "topics": [
            "0x4dfe1bbbcf077ddc3e01291eea2d5c70c2b422b415d95645b9adcfd678cb1d63",
            "0x0000000000000000000000000000000000000000000000000000000000001010",
            "0x000000000000000000000000efbbd14082cf2fbcf5badc7ee619f0f4e36d0a5b",
            "0x000000000000000000000000915a2284d28bd93de7d6f31173b981204bb666e6"
          ],
          "data": "0x000000000000000000000000000000000000000000000000000a8f1f96c666c200000000000000000000000000000000000000000000000117f28a22072e3d83000000000000000000000000000000000000000000000591bdbcc1e858473bbb00000000000000000000000000000000000000000000000117e7fb027067d6c1000000000000000000000000000000000000000000000591bdc75107ef0da27d",
          "blockHash": "0x124f469a0698ea10654a92703922eedd892afb6606e740190c048350bacebab0",
          "blockNumber": "0xfe14af",
          "transactionHash": "0x0086814a8ed6c2b9cae7e1598ba2746af7c6bc876d67334dc08beb93c305ce65",
          "transactionIndex": "0x2",
          "logIndex": "0x8",
          "removed": false
        }
      ],
      "logsBloom": "0x00000000000000000010000000000000000000000000000000000000000000001000000000000000000000000000000000008000000000000000000000200000008000000000000000000000000000800401000002000010000100000000000000000000000000000000000000000000000000000000000080000000000000000800000000000000000000000000000000000000000000000000000000000000220000000000000000000000000000000000400000000000020000000000004000000000000000000001000000000000000002000000000000100000000000000010000000000000000000000000000000000000400000000000000000100000",
      "type": "0x2",
      "transactionHash": "0x0086814a8ed6c2b9cae7e1598ba2746af7c6bc876d67334dc08beb93c305ce65",
      "transactionIndex": "0x2",
      "blockHash": "0x124f469a0698ea10654a92703922eedd892afb6606e740190c048350bacebab0",
      "blockNumber": "0xfe14af",
      "gasUsed": "0xb3bb",
      "effectiveGasPrice": "0xf0a351b35",
      "from": "0xefbbd14082cf2fbcf5badc7ee619f0f4e36d0a5b",
      "to": "0x3c7deb6feaeb7a82bde580fb73d8d69c401b219e",
      "contractAddress": null
    },
    {
      "status": "0x1",
      "cumulativeGasUsed": "0x6bb56",
      "logs": [
        {
          "address": "0x3c7deb6feaeb7a82bde580fb73d8d69c401b219e",
          "topics": [
            "0xddf252ad1be2c89b69c2b068fc378daa952ba7f163c4a11628f55a4df523b3ef",
            "0x000000000000000000000000efbbd14082cf2fbcf5badc7ee619f0f4e36d0a5b",
            "0x0000000000000000000000005855f2c385d526e93802123d5cb54465c4e3871c"
          ],
          "data": "0x0000000000000000000000000000000000000000000000056bc75e2d63100000",
          "blockHash": "0x124f469a0698ea10654a92703922eedd892afb6606e740190c048350bacebab0",
          "blockNumber": "0xfe14af",
          "transactionHash": "0x23402a506cea8262ae5f6800cb9252274bb9da189ed92882a20fbbf8afd203d4",
          "transactionIndex": "0x3",
          "logIndex": "0x9",
          "removed": false
        },
        {
          "address": "0x5855f2c385d526e93802123d5cb54465c4e3871c",
          "topics": [
            "0x2d26b12df00031a51cbd91c763887ccf6992992e54b2701fbe5bd7b2c738a4e2",
            "0x000000000000000000000000efbbd14082cf2fbcf5badc7ee619f0f4e36d0a5b",
            "0x000000000000000000000000efbbd14082cf2fbcf5badc7ee619f0f4e36d0a5b"
          ],
          "data": "0x0000000000000000000000000000000000000000000000056bc75e2d631000000000000000000000000000003c7deb6feaeb7a82bde580fb73d8d69c401b219e",
          "blockHash": "0x124f469a0698ea10654a92703922eedd892afb6606e740190c048350bacebab0",
          "blockNumber": "0xfe14af",
          "transactionHash": "0x23402a506cea8262ae5f6800cb9252274bb9da189ed92882a20fbbf8afd203d4",
          "transactionIndex": "0x3",
          "logIndex": "0xa",
          "removed": false
        },
        {
          "address": "0x0000000000000000000000000000000000001010",
          "topics": [
            "0x4dfe1bbbcf077ddc3e01291eea2d5c70c2b422b415d95645b9adcfd678cb1d63",
            "0x0000000000000000000000000000000000000000000000000000000000001010",
            "0x000000000000000000000000efbbd14082cf2fbcf5badc7ee619f0f4e36d0a5b",
            "0x000000000000000000000000915a2284d28bd93de7d6f31173b981204bb666e6"
          ],
          "data": "0x0000000000000000000000000000000000000000000000000014ee4ea446446400000000000000000000000000000000000000000000000117e7fb02705d4ecc000000000000000000000000000000000000000000000591bdc75107ef0da27d00000000000000000000000000000000000000000000000117d30cb3cc170a68000000000000000000000000000000000000000000000591bddc3f569353e6e1",
          "blockHash": "0x124f469a0698ea10654a92703922eedd892afb6606e740190c048350bacebab0",
          "blockNumber": "0xfe14af",
          "transactionHash": "0x23402a506cea8262ae5f6800cb9252274bb9da189ed92882a20fbbf8afd203d4",
          "transactionIndex": "0x3",
          "logIndex": "0xb",
          "removed": false
        }
      ],
      "logsBloom": "0x00000000000000000010000000200020000000000000000000000000000000001000000000000000000000000000000000008000000000000000000000000000008000000000000000000008000000800401002002000010000100000000000000000000000000000000000000000000000000000000000080000010000000000800000000000000000000000000000000000000000000000000000000000000200000000000000000000000000000000000400000000000020000000000004002000002000000040001000000000000000002000000000000100000000000000000000000000000000000000000000000000008400000000000000000100000",
      "type": "0x2",
      "transactionHash": "0x23402a506cea8262ae5f6800cb9252274bb9da189ed92882a20fbbf8afd203d4",
      "transactionIndex": "0x3",
      "blockHash": "0x124f469a0698ea10654a92703922eedd892afb6606e740190c048350bacebab0",
      "blockNumber": "0xfe14af",
      "gasUsed": "0x16446",
      "effectiveGasPrice": "0xf0a351b35",
      "from": "0xefbbd14082cf2fbcf5badc7ee619f0f4e36d0a5b",
      "to": "0x5855f2c385d526e93802123d5cb54465c4e3871c",
      "contractAddress": null
    },
    {
      "status": "0x1",
      "cumulativeGasUsed": "0x99a9b",
      "logs": [
        {
          "address": "0x5855f2c385d526e93802123d5cb54465c4e3871c",
          "topics": [
            "0xa372d74f11f208f0466eb410f699d101da6ccbe3717f711988fb355eac737f62",
            "0x000000000000000000000000efbbd14082cf2fbcf5badc7ee619f0f4e36d0a5b",
            "0x0000000000000000000000003c7deb6feaeb7a82bde580fb73d8d69c401b219e"
          ],
          "data": "0x0000000000000000000000000000000000000000000000056bc75e2d63100000",
          "blockHash": "0x124f469a0698ea10654a92703922eedd892afb6606e740190c048350bacebab0",
          "blockNumber": "0xfe14af",
          "transactionHash": "0x9da74b012c174357c36b87392c72c8f852408e1f907c8d629bc8cf5afebdc075",
          "transactionIndex": "0x4",
          "logIndex": "0xc",
          "removed": false
        },
        {
          "address": "0x5855f2c385d526e93802123d5cb54465c4e3871c",
          "topics": [
            "0x07b798e47a298c7004dfddcb1196e6b8f9a6488dd1db7eeedbc8a4c3f4831563",
            "0x00000000000000000000000031f32d9066257805ccccbfe46cfc2455fddd902c",
            "0x0000000000000000000000003c7deb6feaeb7a82bde580fb73d8d69c401b219e"
          ],
          "data": "0x0000000000000000000000000000000000000000000000056bc75e2d63100000",
          "blockHash": "0x124f469a0698ea10654a92703922eedd892afb6606e740190c048350bacebab0",
          "blockNumber": "0xfe14af",
          "transactionHash": "0x9da74b012c174357c36b87392c72c8f852408e1f907c8d629bc8cf5afebdc075",
          "transactionIndex": "0x4",
          "logIndex": "0xd",
          "removed": false
        },
        {
          "address": "0x3c7deb6feaeb7a82bde580fb73d8d69c401b219e",
          "topics": [
            "0xddf252ad1be2c89b69c2b068fc378daa952ba7f163c4a11628f55a4df523b3ef",
            "0x0000000000000000000000005855f2c385d526e93802123d5cb54465c4e3871c",
            "0x00000000000000000000000031f32d9066257805ccccbfe46cfc2455fddd902c"
          ],
          "data": "0x0000000000000000000000000000000000000000000000056bc75e2d63100000",
          "blockHash": "0x124f469a0698ea10654a92703922eedd892afb6606e740190c048350bacebab0",
          "blockNumber": "0xfe14af",
          "transactionHash": "0x9da74b012c174357c36b87392c72c8f852408e1f907c8d629bc8cf5afebdc075",
          "transactionIndex": "0x4",
          "logIndex": "0xe",
          "removed": false
        },
        {
          "address": "0x5855f2c385d526e93802123d5cb54465c4e3871c",
          "topics": [
            "0x823b7dcdbd5806d97a2a3c64fe281a8d31155b2a7dade87fdaa7437c79c12b11",
            "0x00000000000000000000000031f32d9066257805ccccbfe46cfc2455fddd902c",
            "0x00000000000000000000000031f32d9066257805ccccbfe46cfc2455fddd902c",
            "0x0000000000000000000000003c7deb6feaeb7a82bde580fb73d8d69c401b219e"
          ],
          "data": "0x0000000000000000000000000000000000000000000000056bc75e2d63100000",
          "blockHash": "0x124f469a0698ea10654a92703922eedd892afb6606e740190c048350bacebab0",
          "blockNumber": "0xfe14af",
          "transactionHash": "0x9da74b012c174357c36b87392c72c8f852408e1f907c8d629bc8cf5afebdc075",
          "transactionIndex": "0x4",
          "logIndex": "0xf",
          "removed": false
        },
        {
          "address": "0x31f32d9066257805ccccbfe46cfc2455fddd902c",
          "topics": [
            "0x6f3bf3fa84e4763a43b3d23f9d79be242d6d5c834941ff4c1111b67469e1150c",
            "0x0000000000000000000000005b903c9598409a6857056fc8a397f74716a5c71d"
          ],
          "data": "0x0000000000000000000000000000000000000000000000056bc75e2d63100000",
          "blockHash": "0x124f469a0698ea10654a92703922eedd892afb6606e740190c048350bacebab0",
          "blockNumber": "0xfe14af",
          "transactionHash": "0x9da74b012c174357c36b87392c72c8f852408e1f907c8d629bc8cf5afebdc075",
          "transactionIndex": "0x4",
          "logIndex": "0x10",
          "removed": false
        },
        {
          "address": "0x0000000000000000000000000000000000001010",
          "topics": [
            "0x4dfe1bbbcf077ddc3e01291eea2d5c70c2b422b415d95645b9adcfd678cb1d63",
            "0x0000000000000000000000000000000000000000000000000000000000001010",
            "0x000000000000000000000000efbbd14082cf2fbcf5badc7ee619f0f4e36d0a5b",
            "0x000000000000000000000000915a2284d28bd93de7d6f31173b981204bb666e6"
          ],
          "data": "0x000000000000000000000000000000000000000000000000002b325c39426b3e00000000000000000000000000000000000000000000000117d30cb3cc022a4e000000000000000000000000000000000000000000000591bddc3f569353e6e100000000000000000000000000000000000000000000000117a7da5792bfbf10000000000000000000000000000000000000000000000591be0771b2cc96521f",
          "blockHash": "0x124f469a0698ea10654a92703922eedd892afb6606e740190c048350bacebab0",
          "blockNumber": "0xfe14af",
          "transactionHash": "0x9da74b012c174357c36b87392c72c8f852408e1f907c8d629bc8cf5afebdc075",
          "transactionIndex": "0x4",
          "logIndex": "0x11",
          "removed": false
        }
      ],
      "logsBloom": "0x00000000000000000010000000200000000000000000000000800000000000001200000000000000020000000000000000008001000000000800010000200000008000000040000000000008000000800401002002000030000100002000000000001000000000200000000000000000080000000000000080000010000004000800000000000000208000000000000000000000000000000000000000008000200000000000000000020000002000000000400000000000020020001000004002000002000000000011000000000000000002000000000000100000000000000000000000000000002000002000000000000000400000000000000000100000",
      "type": "0x2",
      "transactionHash": "0x9da74b012c174357c36b87392c72c8f852408e1f907c8d629bc8cf5afebdc075",
      "transactionIndex": "0x4",
      "blockHash": "0x124f469a0698ea10654a92703922eedd892afb6606e740190c048350bacebab0",
      "blockNumber": "0xfe14af",
      "gasUsed": "0x2df45",
      "effectiveGasPrice": "0xf0a351b35",
      "from": "0xefbbd14082cf2fbcf5badc7ee619f0f4e36d0a5b",
      "to": "0x31f32d9066257805ccccbfe46cfc2455fddd902c",
      "contractAddress": null
    },
    {
      "status": "0x1",
      "cumulativeGasUsed": "0xaf235",
      "logs": [
        {
          "address": "0x31f32d9066257805ccccbfe46cfc2455fddd902c",
          "topics": [
            "0x5d91bd0cecc45fef102af61de92c5462fadc884a5ce9d21c15e8a85198f2349e",
            "0x0000000000000000000000005b903c9598409a6857056fc8a397f74716a5c71d"
          ],
          "data": "0x",
          "blockHash": "0x124f469a0698ea10654a92703922eedd892afb6606e740190c048350bacebab0",
          "blockNumber": "0xfe14af",
          "transactionHash": "0x624359e2336c245053239465585146c6d2e72fcedab0883986f59e1b2ea4a6d8",
          "transactionIndex": "0x5",
          "logIndex": "0x12",
          "removed": false
        },
        {
          "address": "0x0000000000000000000000000000000000001010",
          "topics": [
            "0x4dfe1bbbcf077ddc3e01291eea2d5c70c2b422b415d95645b9adcfd678cb1d63",
            "0x0000000000000000000000000000000000000000000000000000000000001010",
            "0x000000000000000000000000efbbd14082cf2fbcf5badc7ee619f0f4e36d0a5b",
            "0x000000000000000000000000915a2284d28bd93de7d6f31173b981204bb666e6"
          ],
          "data": "0x00000000000000000000000000000000000000000000000000142fb94b523edc00000000000000000000000000000000000000000000000117a7da579294aa05000000000000000000000000000000000000000000000591be0771b2cc96521f0000000000000000000000000000000000000000000000011793aa9e47426b29000000000000000000000000000000000000000000000591be1ba16c17e890fb",
          "blockHash": "0x124f469a0698ea10654a92703922eedd892afb6606e740190c048350bacebab0",
          "blockNumber": "0xfe14af",
          "transactionHash": "0x624359e2336c245053239465585146c6d2e72fcedab0883986f59e1b2ea4a6d8",
          "transactionIndex": "0x5",
          "logIndex": "0x13",
          "removed": false
        }
      ],
      "logsBloom": "0x00000000000000000010000000000000000000000000000000000000000000000000000000000000000000000000000000008000000000000800000000000000008000000040000000000100000000800000000000000000000100002000000000000000000000200000000000000000000000000000000080000000000000000800000000000000000000000000000000000000000000000000000000000000200000000000000000000000002000000000400000000000000020000000004000000000000000000021000000000000000002000000000000100000000000000000000020000000000000000000000000000000400000000000000000100000",
      "type": "0x2",
      "transactionHash": "0x624359e2336c245053239465585146c6d2e72fcedab0883986f59e1b2ea4a6d8",
      "transactionIndex": "0x5",
      "blockHash": "0x124f469a0698ea10654a92703922eedd892afb6606e740190c048350bacebab0",
      "blockNumber": "0xfe14af",
      "gasUsed": "0x1579a",
      "effectiveGasPrice": "0xf0a351b35",
      "from": "0xefbbd14082cf2fbcf5badc7ee619f0f4e36d0a5b",
      "to": "0x31f32d9066257805ccccbfe46cfc2455fddd902c",
      "contractAddress": null
    }
  ],
  "libraries": [],
  "pending": [],
  "returns": {},
  "timestamp": 1736434072,
  "chain": 80002,
  "commit": "b36aadb"
}