{
  "transactions": [
    {
      "hash": "0xaa65ea5923ab324c56202d4ea81507d686c91ab1712074dc4cf8db0ac794ef1e",
      "transactionType": "CALL",
      "contractName": null,
      "contractAddress": "0x8120a8e0688be6b2c0bb469f871e5e7023ca85eb",
      "function": "grantRole(uint64,address,uint32)",
      "arguments": [
        "1",
        "0xEFBBD14082cF2FbCf5Badc7ee619F0f4e36D0A5B",
        "0"
      ],
      "transaction": {
        "from": "0xefbbd14082cf2fbcf5badc7ee619f0f4e36d0a5b",
        "to": "0x8120a8e0688be6b2c0bb469f871e5e7023ca85eb",
        "gas": "0xedf2",
        "value": "0x0",
        "input": "0x25c471a00000000000000000000000000000000000000000000000000000000000000001000000000000000000000000efbbd14082cf2fbcf5badc7ee619f0f4e36d0a5b0000000000000000000000000000000000000000000000000000000000000000",
        "nonce": "0x94f",
        "chainId": "0x13882"
      },
      "additionalContracts": [],
      "isFixedGasLimit": false
    },
    {
      "hash": "0xcd8caafdd237de01776e38f633b6b998f93c8a3d9447f551abbf3eb98a8697b5",
      "transactionType": "CALL",
      "contractName": null,
      "contractAddress": "0x8120a8e0688be6b2c0bb469f871e5e7023ca85eb",
      "function": "setTargetFunctionRole(address,bytes4[],uint64)",
      "arguments": [
        "0x4580859e64385e3e82ee64da2Bc06Ef84Bde851a",
        "[0x8cc0de1d]",
        "1"
      ],
      "transaction": {
        "from": "0xefbbd14082cf2fbcf5badc7ee619f0f4e36d0a5b",
        "to": "0x8120a8e0688be6b2c0bb469f871e5e7023ca85eb",
        "gas": "0xc971",
        "value": "0x0",
        "input": "0x08d6122d0000000000000000000000004580859e64385e3e82ee64da2bc06ef84bde851a0000000000000000000000000000000000000000000000000000000000000060000000000000000000000000000000000000000000000000000000000000000100000000000000000000000000000000000000000000000000000000000000018cc0de1d00000000000000000000000000000000000000000000000000000000",
        "nonce": "0x950",
        "chainId": "0x13882"
      },
      "additionalContracts": [],
      "isFixedGasLimit": false
    },
    {
      "hash": "0xf5196801b5aae59ce24bb2ff58bd40aced21514335e11231be21d03e72a7efe4",
      "transactionType": "CALL",
      "contractName": null,
      "contractAddress": "0x8120a8e0688be6b2c0bb469f871e5e7023ca85eb",
      "function": "setTargetFunctionRole(address,bytes4[],uint64)",
      "arguments": [
        "0xD32CA33b1FBD97523536Ed3519A191Df242AFCFd",
        "[0x06af20da]",
        "1"
      ],
      "transaction": {
        "from": "0xefbbd14082cf2fbcf5badc7ee619f0f4e36d0a5b",
        "to": "0x8120a8e0688be6b2c0bb469f871e5e7023ca85eb",
        "gas": "0xc971",
        "value": "0x0",
        "input": "0x08d6122d000000000000000000000000d32ca33b1fbd97523536ed3519a191df242afcfd00000000000000000000000000000000000000000000000000000000000000600000000000000000000000000000000000000000000000000000000000000001000000000000000000000000000000000000000000000000000000000000000106af20da00000000000000000000000000000000000000000000000000000000",
        "nonce": "0x951",
        "chainId": "0x13882"
      },
      "additionalContracts": [],
      "isFixedGasLimit": false
    },
    {
      "hash": "0x7d92fde9611bc4ac94011960fc65e0ade97277a9a66e1c3e0e4bc5ffd3620c8c",
      "transactionType": "CALL",
      "contractName": null,
      "contractAddress": "0x8120a8e0688be6b2c0bb469f871e5e7023ca85eb",
      "function": "setTargetFunctionRole(address,bytes4[],uint64)",
      "arguments": [
        "0x00ABb22eB950684e4314287e94f024B0A9420d40",
        "[0x20c5429b, 0xb8adaa11, 0xb759f954]",
        "1"
      ],
      "transaction": {
        "from": "0xefbbd14082cf2fbcf5badc7ee619f0f4e36d0a5b",
        "to": "0x8120a8e0688be6b2c0bb469f871e5e7023ca85eb",
        "gas": "0xf8ec",
        "value": "0x0",
        "input": "0x08d6122d00000000000000000000000000abb22eb950684e4314287e94f024b0a9420d4000000000000000000000000000000000000000000000000000000000000000600000000000000000000000000000000000000000000000000000000000000001000000000000000000000000000000000000000000000000000000000000000320c5429b00000000000000000000000000000000000000000000000000000000b8adaa1100000000000000000000000000000000000000000000000000000000b759f95400000000000000000000000000000000000000000000000000000000",
        "nonce": "0x952",
        "chainId": "0x13882"
      },
      "additionalContracts": [],
      "isFixedGasLimit": false
    },
    {
      "hash": "0x8c5650c113c45a25a992f5d4a59415f215cc241fd376bd5b9d5dd13653a8b82d",
      "transactionType": "CALL",
      "contractName": null,
      "contractAddress": "0x8120a8e0688be6b2c0bb469f871e5e7023ca85eb",
      "function": "setTargetFunctionRole(address,bytes4[],uint64)",
      "arguments": [
        "0xA2746F0D272bb0F5273f53B4a0F476afe8873C32",
        "[0xf6eea098, 0x74a8f103, 0xdaea85c5]",
        "1"
      ],
      "transaction": {
        "from": "0xefbbd14082cf2fbcf5badc7ee619f0f4e36d0a5b",
        "to": "0x8120a8e0688be6b2c0bb469f871e5e7023ca85eb",
        "gas": "0xf8fd",
        "value": "0x0",
        "input": "0x08d6122d000000000000000000000000a2746f0d272bb0f5273f53b4a0f476afe8873c32000000000000000000000000000000000000000000000000000000000000006000000000000000000000000000000000000000000000000000000000000000010000000000000000000000000000000000000000000000000000000000000003f6eea0980000000000000000000000000000000000000000000000000000000074a8f10300000000000000000000000000000000000000000000000000000000daea85c500000000000000000000000000000000000000000000000000000000",
        "nonce": "0x953",
        "chainId": "0x13882"
      },
      "additionalContracts": [],
      "isFixedGasLimit": false
    },
    {
      "hash": "0x5d5b87f23fae411ddc68bc8891b0842f41d143846d4532740a9ce06ed47b5a4f",
      "transactionType": "CALL",
      "contractName": null,
      "contractAddress": "0x8120a8e0688be6b2c0bb469f871e5e7023ca85eb",
      "function": "grantRole(uint64,address,uint32)",
      "arguments": [
        "2",
        "0xEFBBD14082cF2FbCf5Badc7ee619F0f4e36D0A5B",
        "0"
      ],
      "transaction": {
        "from": "0xefbbd14082cf2fbcf5badc7ee619f0f4e36d0a5b",
        "to": "0x8120a8e0688be6b2c0bb469f871e5e7023ca85eb",
        "gas": "0xedf2",
        "value": "0x0",
        "input": "0x25c471a00000000000000000000000000000000000000000000000000000000000000002000000000000000000000000efbbd14082cf2fbcf5badc7ee619f0f4e36d0a5b0000000000000000000000000000000000000000000000000000000000000000",
        "nonce": "0x954",
        "chainId": "0x13882"
      },
      "additionalContracts": [],
      "isFixedGasLimit": false
    },
    {
      "hash": "0xe6facc21ad14395381641c37be8e7078eaf581796a51a7ed43a253442aadafab",
      "transactionType": "CALL",
      "contractName": null,
      "contractAddress": "0x8120a8e0688be6b2c0bb469f871e5e7023ca85eb",
      "function": "setTargetFunctionRole(address,bytes4[],uint64)",
      "arguments": [
        "0x8dB5ae2ae14e189c7d0e8f9c67643170e5508874",
        "[0xdaea85c5, 0xab0da5a9]",
        "2"
      ],
      "transaction": {
        "from": "0xefbbd14082cf2fbcf5badc7ee619f0f4e36d0a5b",
        "to": "0x8120a8e0688be6b2c0bb469f871e5e7023ca85eb",
        "gas": "0xe137",
        "value": "0x0",
        "input": "0x08d6122d0000000000000000000000008db5ae2ae14e189c7d0e8f9c67643170e5508874000000000000000000000000000000000000000000000000000000000000006000000000000000000000000000000000000000000000000000000000000000020000000000000000000000000000000000000000000000000000000000000002daea85c500000000000000000000000000000000000000000000000000000000ab0da5a900000000000000000000000000000000000000000000000000000000",
        "nonce": "0x955",
        "chainId": "0x13882"
      },
      "additionalContracts": [],
      "isFixedGasLimit": false
    },
    {
      "hash": "0x63d1fa3dd20c4aff215909b5c8edc5d929dc81c3c5079de55fca936d492a1c40",
      "transactionType": "CALL",
      "contractName": null,
      "contractAddress": "0x8120a8e0688be6b2c0bb469f871e5e7023ca85eb",
      "function": "grantRole(uint64,address,uint32)",
      "arguments": [
        "4",
        "0x5945C1417ad688EF90Cf3e61263b404B96A0C20b",
        "0"
      ],
      "transaction": {
        "from": "0xefbbd14082cf2fbcf5badc7ee619f0f4e36d0a5b",
        "to": "0x8120a8e0688be6b2c0bb469f871e5e7023ca85eb",
        "gas": "0xedf2",
        "value": "0x0",
        "input": "0x25c471a000000000000000000000000000000000000000000000000000000000000000040000000000000000000000005945c1417ad688ef90cf3e61263b404b96a0c20b0000000000000000000000000000000000000000000000000000000000000000",
        "nonce": "0x956",
        "chainId": "0x13882"
      },
      "additionalContracts": [],
      "isFixedGasLimit": false
    },
    {
      "hash": "0xf6139a7b99362e18f645439fc72e48394f5311916b3fad8c402858a890916141",
      "transactionType": "CALL",
      "contractName": null,
      "contractAddress": "0x8120a8e0688be6b2c0bb469f871e5e7023ca85eb",
      "function": "grantRole(uint64,address,uint32)",
      "arguments": [
        "4",
        "0x31B351E4C217f838190825586cAA8494Ee1CA635",
        "0"
      ],
      "transaction": {
        "from": "0xefbbd14082cf2fbcf5badc7ee619f0f4e36d0a5b",
        "to": "0x8120a8e0688be6b2c0bb469f871e5e7023ca85eb",
        "gas": "0xedf2",
        "value": "0x0",
        "input": "0x25c471a0000000000000000000000000000000000000000000000000000000000000000400000000000000000000000031b351e4c217f838190825586caa8494ee1ca6350000000000000000000000000000000000000000000000000000000000000000",
        "nonce": "0x957",
        "chainId": "0x13882"
      },
      "additionalContracts": [],
      "isFixedGasLimit": false
    },
    {
      "hash": "0xe8b709f2623aefef9eba6d97dc352b081d40ddce09e52da27412c1cb8e610e07",
      "transactionType": "CALL",
      "contractName": null,
      "contractAddress": "0x8120a8e0688be6b2c0bb469f871e5e7023ca85eb",
      "function": "grantRole(uint64,address,uint32)",
      "arguments": [
        "4",
        "0xA2746F0D272bb0F5273f53B4a0F476afe8873C32",
        "0"
      ],
      "transaction": {
        "from": "0xefbbd14082cf2fbcf5badc7ee619f0f4e36d0a5b",
        "to": "0x8120a8e0688be6b2c0bb469f871e5e7023ca85eb",
        "gas": "0xedf2",
        "value": "0x0",
        "input": "0x25c471a00000000000000000000000000000000000000000000000000000000000000004000000000000000000000000a2746f0d272bb0f5273f53b4a0f476afe8873c320000000000000000000000000000000000000000000000000000000000000000",
        "nonce": "0x958",
        "chainId": "0x13882"
      },
      "additionalContracts": [],
      "isFixedGasLimit": false
    },
    {
      "hash": "0xc502112aba5e8108a2d6551c2e4ad743587a9bd278ac722a6fbc884fd3018cc8",
      "transactionType": "CALL",
      "contractName": null,
      "contractAddress": "0x8120a8e0688be6b2c0bb469f871e5e7023ca85eb",
      "function": "setTargetFunctionRole(address,bytes4[],uint64)",
      "arguments": [
        "0x83266Ca8147572839BB23A204db52Bd26a1FCeaa",
        "[0x4bbc170a, 0x15f41501, 0x9e96a260]",
        "4"
      ],
      "transaction": {
        "from": "0xefbbd14082cf2fbcf5badc7ee619f0f4e36d0a5b",
        "to": "0x8120a8e0688be6b2c0bb469f871e5e7023ca85eb",
        "gas": "0xf8fd",
        "value": "0x0",
        "input": "0x08d6122d00000000000000000000000083266ca8147572839bb23a204db52bd26a1fceaa0000000000000000000000000000000000000000000000000000000000000060000000000000000000000000000000000000000000000000000000000000000400000000000000000000000000000000000000000000000000000000000000034bbc170a0000000000000000000000000000000000000000000000000000000015f41501000000000000000000000000000000000000000000000000000000009e96a26000000000000000000000000000000000000000000000000000000000",
        "nonce": "0x959",
        "chainId": "0x13882"
      },
      "additionalContracts": [],
      "isFixedGasLimit": false
    },
    {
      "hash": "0x61d159ce623bada5ca0de33b89530718e6c97096f1f627ef4ea21224c53edadd",
      "transactionType": "CALL",
      "contractName": null,
      "contractAddress": "0x4580859e64385e3e82ee64da2bc06ef84bde851a",
      "function": "setFees(uint8,address,uint256,address)",
      "arguments": [
        "3",
        "0xf06E1998119CAEdf8E084194AA5FEa89eA9389C3",
        "500",
        "0x3c7DeB6FeAEb7a82BDe580Fb73d8d69c401b219e"
      ],
      "transaction": {
        "from": "0xefbbd14082cf2fbcf5badc7ee619f0f4e36d0a5b",
        "to": "0x4580859e64385e3e82ee64da2bc06ef84bde851a",
        "gas": "0x35c1e",
        "value": "0x0",
        "input": "0x8cc0de1d0000000000000000000000000000000000000000000000000000000000000003000000000000000000000000f06e1998119caedf8e084194aa5fea89ea9389c300000000000000000000000000000000000000000000000000000000000001f40000000000000000000000003c7deb6feaeb7a82bde580fb73d8d69c401b219e",
        "nonce": "0x95a",
        "chainId": "0x13882"
      },
      "additionalContracts": [],
      "isFixedGasLimit": false
    },
    {
      "hash": "0x8f0e9cd25953cea5c4effff3d11e4c15e7a2239380ea38c595f03de43cfcba10",
      "transactionType": "CALL",
      "contractName": null,
      "contractAddress": "0x4580859e64385e3e82ee64da2bc06ef84bde851a",
      "function": "setFees(uint8,address,uint256,address)",
      "arguments": [
        "1",
        "0xA2746F0D272bb0F5273f53B4a0F476afe8873C32",
        "100000000000000000000",
        "0x3c7DeB6FeAEb7a82BDe580Fb73d8d69c401b219e"
      ],
      "transaction": {
        "from": "0xefbbd14082cf2fbcf5badc7ee619f0f4e36d0a5b",
        "to": "0x4580859e64385e3e82ee64da2bc06ef84bde851a",
        "gas": "0x38eec",
        "value": "0x0",
        "input": "0x8cc0de1d0000000000000000000000000000000000000000000000000000000000000001000000000000000000000000a2746f0d272bb0f5273f53b4a0f476afe8873c320000000000000000000000000000000000000000000000056bc75e2d631000000000000000000000000000003c7deb6feaeb7a82bde580fb73d8d69c401b219e",
        "nonce": "0x95b",
        "chainId": "0x13882"
      },
      "additionalContracts": [],
      "isFixedGasLimit": false
    }
  ],
  "receipts": [
    {
      "status": "0x1",
      "cumulativeGasUsed": "0xa2b3",
      "logs": [
        {
          "address": "0x8120a8e0688be6b2c0bb469f871e5e7023ca85eb",
          "topics": [
            "0xf98448b987f1428e0e230e1f3c6e2ce15b5693eaf31827fbd0b1ec4b424ae7cf",
            "0x0000000000000000000000000000000000000000000000000000000000000001",
            "0x000000000000000000000000efbbd14082cf2fbcf5badc7ee619f0f4e36d0a5b"
          ],
          "data": "0x000000000000000000000000000000000000000000000000000000000000000000000000000000000000000000000000000000000000000000000000677ca6350000000000000000000000000000000000000000000000000000000000000000",
          "blockHash": "0x02b460a11aaa5fcee60363b8c16428d770557ea04ede6e7db665855e73e00892",
          "blockNumber": "0xfc952d",
          "transactionHash": "0xaa65ea5923ab324c56202d4ea81507d686c91ab1712074dc4cf8db0ac794ef1e",
          "transactionIndex": "0x0",
          "logIndex": "0x0",
          "removed": false
        },
        {
          "address": "0x0000000000000000000000000000000000001010",
          "topics": [
            "0x4dfe1bbbcf077ddc3e01291eea2d5c70c2b422b415d95645b9adcfd678cb1d63",
            "0x0000000000000000000000000000000000000000000000000000000000001010",
            "0x000000000000000000000000efbbd14082cf2fbcf5badc7ee619f0f4e36d0a5b",
            "0x0000000000000000000000006ab3d36c46ecfb9b9c0bd51cb1c3da5a2c81cea6"
          ],
          "data": "0x0000000000000000000000000000000000000000000000000004cf24f26a49680000000000000000000000000000000000000000000000014344ee4f43b499fd00000000000000000000000000000000000000000000045ae0f0741ad86f58d300000000000000000000000000000000000000000000000143401f2a514a509500000000000000000000000000000000000000000000045ae0f5433fcad9a23b",
          "blockHash": "0x02b460a11aaa5fcee60363b8c16428d770557ea04ede6e7db665855e73e00892",
          "blockNumber": "0xfc952d",
          "transactionHash": "0xaa65ea5923ab324c56202d4ea81507d686c91ab1712074dc4cf8db0ac794ef1e",
          "transactionIndex": "0x0",
          "logIndex": "0x1",
          "removed": false
        }
      ],
      "logsBloom": "0x00000000080000000000000000000000000000000000000000000000000000000000000000000000000000000000000000008000000000000000000000040000008000080000000000000000000000800000000000040100000100000000000000000000000000000000000000000000000000000000000080000000000000000800000000000000000000000800000008000000000000000000000000000000200000000000000000002000000000000000400000000008008000000000004000000000000000000001000000000000000000010000000000100000000040000000000000000000000000000000000000000000000000000000000000100000",
      "type": "0x2",
      "transactionHash": "0xaa65ea5923ab324c56202d4ea81507d686c91ab1712074dc4cf8db0ac794ef1e",
      "transactionIndex": "0x0",
      "blockHash": "0x02b460a11aaa5fcee60363b8c16428d770557ea04ede6e7db665855e73e00892",
      "blockNumber": "0xfc952d",
      "gasUsed": "0xa2b3",
      "effectiveGasPrice": "0x79126a507",
      "from": "0xefbbd14082cf2fbcf5badc7ee619f0f4e36d0a5b",
      "to": "0x8120a8e0688be6b2c0bb469f871e5e7023ca85eb",
      "contractAddress": null
    },
    {
      "status": "0x1",
      "cumulativeGasUsed": "0x91d8",
      "logs": [
        {
          "address": "0x8120a8e0688be6b2c0bb469f871e5e7023ca85eb",
          "topics": [
            "0x9ea6790c7dadfd01c9f8b9762b3682607af2c7e79e05a9f9fdf5580dde949151",
            "0x0000000000000000000000004580859e64385e3e82ee64da2bc06ef84bde851a",
            "0x0000000000000000000000000000000000000000000000000000000000000001"
          ],
          "data": "0x8cc0de1d00000000000000000000000000000000000000000000000000000000",
          "blockHash": "0x88d06ebabd3d79a5631dfd26d5b668be9dd519b9b56d10484a4ce8edfcf78e52",
          "blockNumber": "0xfc952e",
          "transactionHash": "0xcd8caafdd237de01776e38f633b6b998f93c8a3d9447f551abbf3eb98a8697b5",
          "transactionIndex": "0x0",
          "logIndex": "0x0",
          "removed": false
        },
        {
          "address": "0x0000000000000000000000000000000000001010",
          "topics": [
            "0x4dfe1bbbcf077ddc3e01291eea2d5c70c2b422b415d95645b9adcfd678cb1d63",
            "0x0000000000000000000000000000000000000000000000000000000000001010",
            "0x000000000000000000000000efbbd14082cf2fbcf5badc7ee619f0f4e36d0a5b",
            "0x0000000000000000000000006ab3d36c46ecfb9b9c0bd51cb1c3da5a2c81cea6"
          ],
          "data": "0x00000000000000000000000000000000000000000000000000044f995c0ba94000000000000000000000000000000000000000000000000143401f2a5140c81800000000000000000000000000000000000000000000045ae211f3b4ce37ee3b000000000000000000000000000000000000000000000001433bcf90f5351ed800000000000000000000000000000000000000000000045ae216434e2a43977b",
          "blockHash": "0x88d06ebabd3d79a5631dfd26d5b668be9dd519b9b56d10484a4ce8edfcf78e52",
          "blockNumber": "0xfc952e",
          "transactionHash": "0xcd8caafdd237de01776e38f633b6b998f93c8a3d9447f551abbf3eb98a8697b5",
          "transactionIndex": "0x0",
          "logIndex": "0x1",
          "removed": false
        }
      ],
      "logsBloom": "0x00000004080080000000000000000000000000000000000000000000000000000000000000000000000000000000000000008000000000000000000000040000008000080000000000000000000000800000000000040100000100000000000000000000000000000000040000000000000000000000000080000000000000000800000000000000000000000800000000000000000000000000000000000000200000000000000000000000000000000000400000000000008000000000004000000000000002000001000000200000000000010000000000100000000040000100000000000000000000000000000000000000000000000000000000100000",
      "type": "0x2",
      "transactionHash": "0xcd8caafdd237de01776e38f633b6b998f93c8a3d9447f551abbf3eb98a8697b5",
      "transactionIndex": "0x0",
      "blockHash": "0x88d06ebabd3d79a5631dfd26d5b668be9dd519b9b56d10484a4ce8edfcf78e52",
      "blockNumber": "0xfc952e",
      "gasUsed": "0x91d8",
      "effectiveGasPrice": "0x79126a507",
      "from": "0xefbbd14082cf2fbcf5badc7ee619f0f4e36d0a5b",
      "to": "0x8120a8e0688be6b2c0bb469f871e5e7023ca85eb",
      "contractAddress": null
    },
    {
      "status": "0x1",
      "cumulativeGasUsed": "0x123b0",
      "logs": [
        {
          "address": "0x8120a8e0688be6b2c0bb469f871e5e7023ca85eb",
          "topics": [
            "0x9ea6790c7dadfd01c9f8b9762b3682607af2c7e79e05a9f9fdf5580dde949151",
            "0x000000000000000000000000d32ca33b1fbd97523536ed3519a191df242afcfd",
            "0x0000000000000000000000000000000000000000000000000000000000000001"
          ],
          "data": "0x06af20da00000000000000000000000000000000000000000000000000000000",
          "blockHash": "0x88d06ebabd3d79a5631dfd26d5b668be9dd519b9b56d10484a4ce8edfcf78e52",
          "blockNumber": "0xfc952e",
          "transactionHash": "0xf5196801b5aae59ce24bb2ff58bd40aced21514335e11231be21d03e72a7efe4",
          "transactionIndex": "0x1",
          "logIndex": "0x2",
          "removed": false
        },
        {
          "address": "0x0000000000000000000000000000000000001010",
          "topics": [
            "0x4dfe1bbbcf077ddc3e01291eea2d5c70c2b422b415d95645b9adcfd678cb1d63",
            "0x0000000000000000000000000000000000000000000000000000000000001010",
            "0x000000000000000000000000efbbd14082cf2fbcf5badc7ee619f0f4e36d0a5b",
            "0x0000000000000000000000006ab3d36c46ecfb9b9c0bd51cb1c3da5a2c81cea6"
          ],
          "data": "0x00000000000000000000000000000000000000000000000000044f995c0ba940000000000000000000000000000000000000000000000001433bcf90f52c933000000000000000000000000000000000000000000000045ae216434e2a43977b00000000000000000000000000000000000000000000000143377ff79920e9f000000000000000000000000000000000000000000000045ae21a92e7864f40bb",
          "blockHash": "0x88d06ebabd3d79a5631dfd26d5b668be9dd519b9b56d10484a4ce8edfcf78e52",
          "blockNumber": "0xfc952e",
          "transactionHash": "0xf5196801b5aae59ce24bb2ff58bd40aced21514335e11231be21d03e72a7efe4",
          "transactionIndex": "0x1",
          "logIndex": "0x3",
          "removed": false
        }
      ],
      "logsBloom": "0x00000004080080000000000000000000000000000000000000000000000000000000000000000000000000000000000000008000000000000000000000040000008000080000000000800000000000800000000000040100100100000000000000000000000000000000000000000000000000000000000080000000000000000800000000000000000000000800000000000000000000000000000000000000200000000000000000000000000000000000400000000000008000000000004000000000000000000001000000200000000400010000000000100000000040000000000000000000000000000000000000000000000000000000000000100000",
      "type": "0x2",
      "transactionHash": "0xf5196801b5aae59ce24bb2ff58bd40aced21514335e11231be21d03e72a7efe4",
      "transactionIndex": "0x1",
      "blockHash": "0x88d06ebabd3d79a5631dfd26d5b668be9dd519b9b56d10484a4ce8edfcf78e52",
      "blockNumber": "0xfc952e",
      "gasUsed": "0x91d8",
      "effectiveGasPrice": "0x79126a507",
      "from": "0xefbbd14082cf2fbcf5badc7ee619f0f4e36d0a5b",
      "to": "0x8120a8e0688be6b2c0bb469f871e5e7023ca85eb",
      "contractAddress": null
    },
    {
      "status": "0x1",
      "cumulativeGasUsed": "0x1d7e8",
      "logs": [
        {
          "address": "0x8120a8e0688be6b2c0bb469f871e5e7023ca85eb",
          "topics": [
            "0x9ea6790c7dadfd01c9f8b9762b3682607af2c7e79e05a9f9fdf5580dde949151",
            "0x00000000000000000000000000abb22eb950684e4314287e94f024b0a9420d40",
            "0x0000000000000000000000000000000000000000000000000000000000000001"
          ],
          "data": "0x20c5429b00000000000000000000000000000000000000000000000000000000",
          "blockHash": "0x88d06ebabd3d79a5631dfd26d5b668be9dd519b9b56d10484a4ce8edfcf78e52",
          "blockNumber": "0xfc952e",
          "transactionHash": "0x7d92fde9611bc4ac94011960fc65e0ade97277a9a66e1c3e0e4bc5ffd3620c8c",
          "transactionIndex": "0x2",
          "logIndex": "0x4",
          "removed": false
        },
        {
          "address": "0x8120a8e0688be6b2c0bb469f871e5e7023ca85eb",
          "topics": [
            "0x9ea6790c7dadfd01c9f8b9762b3682607af2c7e79e05a9f9fdf5580dde949151",
            "0x00000000000000000000000000abb22eb950684e4314287e94f024b0a9420d40",
            "0x0000000000000000000000000000000000000000000000000000000000000001"
          ],
          "data": "0xb8adaa1100000000000000000000000000000000000000000000000000000000",
          "blockHash": "0x88d06ebabd3d79a5631dfd26d5b668be9dd519b9b56d10484a4ce8edfcf78e52",
          "blockNumber": "0xfc952e",
          "transactionHash": "0x7d92fde9611bc4ac94011960fc65e0ade97277a9a66e1c3e0e4bc5ffd3620c8c",
          "transactionIndex": "0x2",
          "logIndex": "0x5",
          "removed": false
        },
        {
          "address": "0x8120a8e0688be6b2c0bb469f871e5e7023ca85eb",
          "topics": [
            "0x9ea6790c7dadfd01c9f8b9762b3682607af2c7e79e05a9f9fdf5580dde949151",
            "0x00000000000000000000000000abb22eb950684e4314287e94f024b0a9420d40",
            "0x0000000000000000000000000000000000000000000000000000000000000001"
          ],
          "data": "0xb759f95400000000000000000000000000000000000000000000000000000000",
          "blockHash": "0x88d06ebabd3d79a5631dfd26d5b668be9dd519b9b56d10484a4ce8edfcf78e52",
          "blockNumber": "0xfc952e",
          "transactionHash": "0x7d92fde9611bc4ac94011960fc65e0ade97277a9a66e1c3e0e4bc5ffd3620c8c",
          "transactionIndex": "0x2",
          "logIndex": "0x6",
          "removed": false
        },
        {
          "address": "0x0000000000000000000000000000000000001010",
          "topics": [
            "0x4dfe1bbbcf077ddc3e01291eea2d5c70c2b422b415d95645b9adcfd678cb1d63",
            "0x0000000000000000000000000000000000000000000000000000000000001010",
            "0x000000000000000000000000efbbd14082cf2fbcf5badc7ee619f0f4e36d0a5b",
            "0x0000000000000000000000006ab3d36c46ecfb9b9c0bd51cb1c3da5a2c81cea6"
          ],
          "data": "0x000000000000000000000000000000000000000000000000000553b6ec72764000000000000000000000000000000000000000000000000143377ff799185e4800000000000000000000000000000000000000000000045ae21a92e7864f40bb00000000000000000000000000000000000000000000000143322c40aca5e80800000000000000000000000000000000000000000000045ae21fe69e72c1b6fb",
          "blockHash": "0x88d06ebabd3d79a5631dfd26d5b668be9dd519b9b56d10484a4ce8edfcf78e52",
          "blockNumber": "0xfc952e",
          "transactionHash": "0x7d92fde9611bc4ac94011960fc65e0ade97277a9a66e1c3e0e4bc5ffd3620c8c",
          "transactionIndex": "0x2",
          "logIndex": "0x7",
          "removed": false
        }
      ],
      "logsBloom": "0x00000004080080000000000000000000000000000000000000000000000000000000000000000000000000000000000000008000000000000000000000040000008000080000000000000000000000800000000000040100000100000000000000000000000000000000000000000000000000000000000080000000000000000800000000000000000000000800000000000000000000000000000000000000200000000000000004000000000000000000400000000000008000000000004000000000000000000001000000200000000000010000000000100000000040000000000000000000000000000000000100000000000000400000000000100000",
      "type": "0x2",
      "transactionHash": "0x7d92fde9611bc4ac94011960fc65e0ade97277a9a66e1c3e0e4bc5ffd3620c8c",
      "transactionIndex": "0x2",
      "blockHash": "0x88d06ebabd3d79a5631dfd26d5b668be9dd519b9b56d10484a4ce8edfcf78e52",
      "blockNumber": "0xfc952e",
      "gasUsed": "0xb438",
      "effectiveGasPrice": "0x79126a507",
      "from": "0xefbbd14082cf2fbcf5badc7ee619f0f4e36d0a5b",
      "to": "0x8120a8e0688be6b2c0bb469f871e5e7023ca85eb",
      "contractAddress": null
    },
    {
      "status": "0x1",
      "cumulativeGasUsed": "0x28c2c",
      "logs": [
        {
          "address": "0x8120a8e0688be6b2c0bb469f871e5e7023ca85eb",
          "topics": [
            "0x9ea6790c7dadfd01c9f8b9762b3682607af2c7e79e05a9f9fdf5580dde949151",
            "0x000000000000000000000000a2746f0d272bb0f5273f53b4a0f476afe8873c32",
            "0x0000000000000000000000000000000000000000000000000000000000000001"
          ],
          "data": "0xf6eea09800000000000000000000000000000000000000000000000000000000",
          "blockHash": "0x88d06ebabd3d79a5631dfd26d5b668be9dd519b9b56d10484a4ce8edfcf78e52",
          "blockNumber": "0xfc952e",
          "transactionHash": "0x8c5650c113c45a25a992f5d4a59415f215cc241fd376bd5b9d5dd13653a8b82d",
          "transactionIndex": "0x3",
          "logIndex": "0x8",
          "removed": false
        },
        {
          "address": "0x8120a8e0688be6b2c0bb469f871e5e7023ca85eb",
          "topics": [
            "0x9ea6790c7dadfd01c9f8b9762b3682607af2c7e79e05a9f9fdf5580dde949151",
            "0x000000000000000000000000a2746f0d272bb0f5273f53b4a0f476afe8873c32",
            "0x0000000000000000000000000000000000000000000000000000000000000001"
          ],
          "data": "0x74a8f10300000000000000000000000000000000000000000000000000000000",
          "blockHash": "0x88d06ebabd3d79a5631dfd26d5b668be9dd519b9b56d10484a4ce8edfcf78e52",
          "blockNumber": "0xfc952e",
          "transactionHash": "0x8c5650c113c45a25a992f5d4a59415f215cc241fd376bd5b9d5dd13653a8b82d",
          "transactionIndex": "0x3",
          "logIndex": "0x9",
          "removed": false
        },
        {
          "address": "0x8120a8e0688be6b2c0bb469f871e5e7023ca85eb",
          "topics": [
            "0x9ea6790c7dadfd01c9f8b9762b3682607af2c7e79e05a9f9fdf5580dde949151",
            "0x000000000000000000000000a2746f0d272bb0f5273f53b4a0f476afe8873c32",
            "0x0000000000000000000000000000000000000000000000000000000000000001"
          ],
          "data": "0xdaea85c500000000000000000000000000000000000000000000000000000000",
          "blockHash": "0x88d06ebabd3d79a5631dfd26d5b668be9dd519b9b56d10484a4ce8edfcf78e52",
          "blockNumber": "0xfc952e",
          "transactionHash": "0x8c5650c113c45a25a992f5d4a59415f215cc241fd376bd5b9d5dd13653a8b82d",
          "transactionIndex": "0x3",
          "logIndex": "0xa",
          "removed": false
        },
        {
          "address": "0x0000000000000000000000000000000000001010",
          "topics": [
            "0x4dfe1bbbcf077ddc3e01291eea2d5c70c2b422b415d95645b9adcfd678cb1d63",
            "0x0000000000000000000000000000000000000000000000000000000000001010",
            "0x000000000000000000000000efbbd14082cf2fbcf5badc7ee619f0f4e36d0a5b",
            "0x0000000000000000000000006ab3d36c46ecfb9b9c0bd51cb1c3da5a2c81cea6"
          ],
          "data": "0x00000000000000000000000000000000000000000000000000055411ba4231e000000000000000000000000000000000000000000000000143322c40ac9b58c000000000000000000000000000000000000000000000045ae21fe69e72c1b6fb000000000000000000000000000000000000000000000001432cd82ef25926e000000000000000000000000000000000000000000000045ae2253ab02d03e8db",
          "blockHash": "0x88d06ebabd3d79a5631dfd26d5b668be9dd519b9b56d10484a4ce8edfcf78e52",
          "blockNumber": "0xfc952e",
          "transactionHash": "0x8c5650c113c45a25a992f5d4a59415f215cc241fd376bd5b9d5dd13653a8b82d",
          "transactionIndex": "0x3",
          "logIndex": "0xb",
          "removed": false
        }
      ],
      "logsBloom": "0x00000004080080000000000000000000000000000000000000000000000000000000000000000000000000000001000000008000000000000000000000040000008000080000000000000000000000800000000000040100000100000000000000000000000000000000000000000000000000000000000080000000000000000800000000000000000000000800000000000000000000000000000000000000200000000000000000000000000000000000400000000000008000000000004000000000000000000001000400200000000000010000000000100000000040000000000000000000000040000000000000000000000000000000000000100000",
      "type": "0x2",
      "transactionHash": "0x8c5650c113c45a25a992f5d4a59415f215cc241fd376bd5b9d5dd13653a8b82d",
      "transactionIndex": "0x3",
      "blockHash": "0x88d06ebabd3d79a5631dfd26d5b668be9dd519b9b56d10484a4ce8edfcf78e52",
      "blockNumber": "0xfc952e",
      "gasUsed": "0xb444",
      "effectiveGasPrice": "0x79126a507",
      "from": "0xefbbd14082cf2fbcf5badc7ee619f0f4e36d0a5b",
      "to": "0x8120a8e0688be6b2c0bb469f871e5e7023ca85eb",
      "contractAddress": null
    },
    {
      "status": "0x1",
      "cumulativeGasUsed": "0x32edf",
      "logs": [
        {
          "address": "0x8120a8e0688be6b2c0bb469f871e5e7023ca85eb",
          "topics": [
            "0xf98448b987f1428e0e230e1f3c6e2ce15b5693eaf31827fbd0b1ec4b424ae7cf",
            "0x0000000000000000000000000000000000000000000000000000000000000002",
            "0x000000000000000000000000efbbd14082cf2fbcf5badc7ee619f0f4e36d0a5b"
          ],
          "data": "0x000000000000000000000000000000000000000000000000000000000000000000000000000000000000000000000000000000000000000000000000677ca6370000000000000000000000000000000000000000000000000000000000000000",
          "blockHash": "0x88d06ebabd3d79a5631dfd26d5b668be9dd519b9b56d10484a4ce8edfcf78e52",
          "blockNumber": "0xfc952e",
          "transactionHash": "0x5d5b87f23fae411ddc68bc8891b0842f41d143846d4532740a9ce06ed47b5a4f",
          "transactionIndex": "0x4",
          "logIndex": "0xc",
          "removed": false
        },
        {
          "address": "0x0000000000000000000000000000000000001010",
          "topics": [
            "0x4dfe1bbbcf077ddc3e01291eea2d5c70c2b422b415d95645b9adcfd678cb1d63",
            "0x0000000000000000000000000000000000000000000000000000000000001010",
            "0x000000000000000000000000efbbd14082cf2fbcf5badc7ee619f0f4e36d0a5b",
            "0x0000000000000000000000006ab3d36c46ecfb9b9c0bd51cb1c3da5a2c81cea6"
          ],
          "data": "0x0000000000000000000000000000000000000000000000000004cf24f26a4968000000000000000000000000000000000000000000000001432cd82ef24e96e400000000000000000000000000000000000000000000045ae2253ab02d03e8db00000000000000000000000000000000000000000000000143280909ffe44d7c00000000000000000000000000000000000000000000045ae22a09d51f6e3243",
          "blockHash": "0x88d06ebabd3d79a5631dfd26d5b668be9dd519b9b56d10484a4ce8edfcf78e52",
          "blockNumber": "0xfc952e",
          "transactionHash": "0x5d5b87f23fae411ddc68bc8891b0842f41d143846d4532740a9ce06ed47b5a4f",
          "transactionIndex": "0x4",
          "logIndex": "0xd",
          "removed": false
        }
      ],
      "logsBloom": "0x04000000080000000000000000000000000000000000000000000000000000000000000000000000000000000000000000008000000000000000000000000000008000080000000000000000000000800000000000000100000100000000000000000000000000000000000000000000000000000000000080000000000000000800000000000000000000000800000008000000000000000000000000000000200000000000000000002100000000000000400000000008008000000000004000000000000000000001000000000000000000010000000000100000000000000000000000000000000000000000000000000000008000000000000000100000",
      "type": "0x2",
      "transactionHash": "0x5d5b87f23fae411ddc68bc8891b0842f41d143846d4532740a9ce06ed47b5a4f",
      "transactionIndex": "0x4",
      "blockHash": "0x88d06ebabd3d79a5631dfd26d5b668be9dd519b9b56d10484a4ce8edfcf78e52",
      "blockNumber": "0xfc952e",
      "gasUsed": "0xa2b3",
      "effectiveGasPrice": "0x79126a507",
      "from": "0xefbbd14082cf2fbcf5badc7ee619f0f4e36d0a5b",
      "to": "0x8120a8e0688be6b2c0bb469f871e5e7023ca85eb",
      "contractAddress": null
    },
    {
      "status": "0x1",
      "cumulativeGasUsed": "0x3d1ed",
      "logs": [
        {
          "address": "0x8120a8e0688be6b2c0bb469f871e5e7023ca85eb",
          "topics": [
            "0x9ea6790c7dadfd01c9f8b9762b3682607af2c7e79e05a9f9fdf5580dde949151",
            "0x0000000000000000000000008db5ae2ae14e189c7d0e8f9c67643170e5508874",
            "0x0000000000000000000000000000000000000000000000000000000000000002"
          ],
          "data": "0xdaea85c500000000000000000000000000000000000000000000000000000000",
          "blockHash": "0x88d06ebabd3d79a5631dfd26d5b668be9dd519b9b56d10484a4ce8edfcf78e52",
          "blockNumber": "0xfc952e",
          "transactionHash": "0xe6facc21ad14395381641c37be8e7078eaf581796a51a7ed43a253442aadafab",
          "transactionIndex": "0x5",
          "logIndex": "0xe",
          "removed": false
        },
        {
          "address": "0x8120a8e0688be6b2c0bb469f871e5e7023ca85eb",
          "topics": [
            "0x9ea6790c7dadfd01c9f8b9762b3682607af2c7e79e05a9f9fdf5580dde949151",
            "0x0000000000000000000000008db5ae2ae14e189c7d0e8f9c67643170e5508874",
            "0x0000000000000000000000000000000000000000000000000000000000000002"
          ],
          "data": "0xab0da5a900000000000000000000000000000000000000000000000000000000",
          "blockHash": "0x88d06ebabd3d79a5631dfd26d5b668be9dd519b9b56d10484a4ce8edfcf78e52",
          "blockNumber": "0xfc952e",
          "transactionHash": "0xe6facc21ad14395381641c37be8e7078eaf581796a51a7ed43a253442aadafab",
          "transactionIndex": "0x5",
          "logIndex": "0xf",
          "removed": false
        },
        {
          "address": "0x0000000000000000000000000000000000001010",
          "topics": [
            "0x4dfe1bbbcf077ddc3e01291eea2d5c70c2b422b415d95645b9adcfd678cb1d63",
            "0x0000000000000000000000000000000000000000000000000000000000001010",
            "0x000000000000000000000000efbbd14082cf2fbcf5badc7ee619f0f4e36d0a5b",
            "0x0000000000000000000000006ab3d36c46ecfb9b9c0bd51cb1c3da5a2c81cea6"
          ],
          "data": "0x0000000000000000000000000000000000000000000000000004d1d58b26ed9000000000000000000000000000000000000000000000000143280909ffdac4ff00000000000000000000000000000000000000000000045ae22a09d51f6e32430000000000000000000000000000000000000000000000014323373474b3d76f00000000000000000000000000000000000000000000045ae22edbaaaa951fd3",
          "blockHash": "0x88d06ebabd3d79a5631dfd26d5b668be9dd519b9b56d10484a4ce8edfcf78e52",
          "blockNumber": "0xfc952e",
          "transactionHash": "0xe6facc21ad14395381641c37be8e7078eaf581796a51a7ed43a253442aadafab",
          "transactionIndex": "0x5",
          "logIndex": "0x10",
          "removed": false
        }
      ],
      "logsBloom": "0x04000004080080000000000000000000000000000000000000000000000000002000000000000000000000000000000000008000000000000000000000000000008000080000000000000000000000800000000000004100000100000000000000000000000000000000000000000000000000000000000080000000000000000800000000000000000000000800000000000000000000000000000000020000200000000000000000000100000000000000400000000000008000000000004000000000000000000001000000200000000000010000000000100000000000000000000000000000000000000000000000000000008000000000000000100000",
      "type": "0x2",
      "transactionHash": "0xe6facc21ad14395381641c37be8e7078eaf581796a51a7ed43a253442aadafab",
      "transactionIndex": "0x5",
      "blockHash": "0x88d06ebabd3d79a5631dfd26d5b668be9dd519b9b56d10484a4ce8edfcf78e52",
      "blockNumber": "0xfc952e",
      "gasUsed": "0xa30e",
      "effectiveGasPrice": "0x79126a507",
      "from": "0xefbbd14082cf2fbcf5badc7ee619f0f4e36d0a5b",
      "to": "0x8120a8e0688be6b2c0bb469f871e5e7023ca85eb",
      "contractAddress": null
    },
    {
      "status": "0x1",
      "cumulativeGasUsed": "0x474a0",
      "logs": [
        {
          "address": "0x8120a8e0688be6b2c0bb469f871e5e7023ca85eb",
          "topics": [
            "0xf98448b987f1428e0e230e1f3c6e2ce15b5693eaf31827fbd0b1ec4b424ae7cf",
            "0x0000000000000000000000000000000000000000000000000000000000000004",
            "0x0000000000000000000000005945c1417ad688ef90cf3e61263b404b96a0c20b"
          ],
          "data": "0x000000000000000000000000000000000000000000000000000000000000000000000000000000000000000000000000000000000000000000000000677ca6370000000000000000000000000000000000000000000000000000000000000000",
          "blockHash": "0x88d06ebabd3d79a5631dfd26d5b668be9dd519b9b56d10484a4ce8edfcf78e52",
          "blockNumber": "0xfc952e",
          "transactionHash": "0x63d1fa3dd20c4aff215909b5c8edc5d929dc81c3c5079de55fca936d492a1c40",
          "transactionIndex": "0x6",
          "logIndex": "0x11",
          "removed": false
        },
        {
          "address": "0x0000000000000000000000000000000000001010",
          "topics": [
            "0x4dfe1bbbcf077ddc3e01291eea2d5c70c2b422b415d95645b9adcfd678cb1d63",
            "0x0000000000000000000000000000000000000000000000000000000000001010",
            "0x000000000000000000000000efbbd14082cf2fbcf5badc7ee619f0f4e36d0a5b",
            "0x0000000000000000000000006ab3d36c46ecfb9b9c0bd51cb1c3da5a2c81cea6"
          ],
          "data": "0x0000000000000000000000000000000000000000000000000004cf24f26a49680000000000000000000000000000000000000000000000014323373474aa499d00000000000000000000000000000000000000000000045ae22edbaaaa951fd3000000000000000000000000000000000000000000000001431e680f8240003500000000000000000000000000000000000000000000045ae233aacf9cff693b",
          "blockHash": "0x88d06ebabd3d79a5631dfd26d5b668be9dd519b9b56d10484a4ce8edfcf78e52",
          "blockNumber": "0xfc952e",
          "transactionHash": "0x63d1fa3dd20c4aff215909b5c8edc5d929dc81c3c5079de55fca936d492a1c40",
          "transactionIndex": "0x6",
          "logIndex": "0x12",
          "removed": false
        }
      ],
      "logsBloom": "0x0000000008000000000000000000000000000000000000000000000000000000000000000000000000000000000000000000800000000000000000000000000000800208000000000000000000000080000000000000010000010000000000000800000000000000000000000000000000000000000000008000000000000000080000000000000000000000084000000800000000000000000000000000000020000000000000000000200000000000000040000000000840a000000000004000000000000000000001000000000000000000018000000000100000000000000000000000000000000000000000000000000000000000000000000000100000",
      "type": "0x2",
      "transactionHash": "0x63d1fa3dd20c4aff215909b5c8edc5d929dc81c3c5079de55fca936d492a1c40",
      "transactionIndex": "0x6",
      "blockHash": "0x88d06ebabd3d79a5631dfd26d5b668be9dd519b9b56d10484a4ce8edfcf78e52",
      "blockNumber": "0xfc952e",
      "gasUsed": "0xa2b3",
      "effectiveGasPrice": "0x79126a507",
      "from": "0xefbbd14082cf2fbcf5badc7ee619f0f4e36d0a5b",
      "to": "0x8120a8e0688be6b2c0bb469f871e5e7023ca85eb",
      "contractAddress": null
    },
    {
      "status": "0x1",
      "cumulativeGasUsed": "0xa2b3",
      "logs": [
        {
          "address": "0x8120a8e0688be6b2c0bb469f871e5e7023ca85eb",
          "topics": [
            "0xf98448b987f1428e0e230e1f3c6e2ce15b5693eaf31827fbd0b1ec4b424ae7cf",
            "0x0000000000000000000000000000000000000000000000000000000000000004",
            "0x00000000000000000000000031b351e4c217f838190825586caa8494ee1ca635"
          ],
          "data": "0x000000000000000000000000000000000000000000000000000000000000000000000000000000000000000000000000000000000000000000000000677ca6390000000000000000000000000000000000000000000000000000000000000000",
          "blockHash": "0x2daf92be2fa5fade998c751dd45351d23c3fffd02dc479cff2bb5456f8c9d357",
          "blockNumber": "0xfc952f",
          "transactionHash": "0xf6139a7b99362e18f645439fc72e48394f5311916b3fad8c402858a890916141",
          "transactionIndex": "0x0",
          "logIndex": "0x0",
          "removed": false
        },
        {
          "address": "0x0000000000000000000000000000000000001010",
          "topics": [
            "0x4dfe1bbbcf077ddc3e01291eea2d5c70c2b422b415d95645b9adcfd678cb1d63",
            "0x0000000000000000000000000000000000000000000000000000000000001010",
            "0x000000000000000000000000efbbd14082cf2fbcf5badc7ee619f0f4e36d0a5b",
            "0x0000000000000000000000006ab3d36c46ecfb9b9c0bd51cb1c3da5a2c81cea6"
          ],
          "data": "0x0000000000000000000000000000000000000000000000000004cf24f26a4968000000000000000000000000000000000000000000000001431e680f823677b800000000000000000000000000000000000000000000045ae233aacf9cff693b000000000000000000000000000000000000000000000001431998ea8fcc2e5000000000000000000000000000000000000000000000045ae23879f48f69b2a3",
          "blockHash": "0x2daf92be2fa5fade998c751dd45351d23c3fffd02dc479cff2bb5456f8c9d357",
          "blockNumber": "0xfc952f",
          "transactionHash": "0xf6139a7b99362e18f645439fc72e48394f5311916b3fad8c402858a890916141",
          "transactionIndex": "0x0",
          "logIndex": "0x1",
          "removed": false
        }
      ],
      "logsBloom": "0x0000000008000000000000000000000000000000000000000000000000000000000000000000000000000000000000000000800000000000000000000000000000800008000000000000000000000080000000000000010000010000000000000800000000000000000000000000000000000000000000008000000000800000080000000000000000000000080000000800000000000000000000000000000020000000000000000000200000000000000040000000000800a000000000004002000000000000000001000000000000000000018000000000100010000000000000000000000000000000000000000000000000000000000000000000100000",
      "type": "0x2",
      "transactionHash": "0xf6139a7b99362e18f645439fc72e48394f5311916b3fad8c402858a890916141",
      "transactionIndex": "0x0",
      "blockHash": "0x2daf92be2fa5fade998c751dd45351d23c3fffd02dc479cff2bb5456f8c9d357",
      "blockNumber": "0xfc952f",
      "gasUsed": "0xa2b3",
      "effectiveGasPrice": "0x79126a507",
      "from": "0xefbbd14082cf2fbcf5badc7ee619f0f4e36d0a5b",
      "to": "0x8120a8e0688be6b2c0bb469f871e5e7023ca85eb",
      "contractAddress": null
    },
    {
      "status": "0x1",
      "cumulativeGasUsed": "0x14566",
      "logs": [
        {
          "address": "0x8120a8e0688be6b2c0bb469f871e5e7023ca85eb",
          "topics": [
            "0xf98448b987f1428e0e230e1f3c6e2ce15b5693eaf31827fbd0b1ec4b424ae7cf",
            "0x0000000000000000000000000000000000000000000000000000000000000004",
            "0x000000000000000000000000a2746f0d272bb0f5273f53b4a0f476afe8873c32"
          ],
          "data": "0x000000000000000000000000000000000000000000000000000000000000000000000000000000000000000000000000000000000000000000000000677ca6390000000000000000000000000000000000000000000000000000000000000000",
          "blockHash": "0x2daf92be2fa5fade998c751dd45351d23c3fffd02dc479cff2bb5456f8c9d357",
          "blockNumber": "0xfc952f",
          "transactionHash": "0xe8b709f2623aefef9eba6d97dc352b081d40ddce09e52da27412c1cb8e610e07",
          "transactionIndex": "0x1",
          "logIndex": "0x2",
          "removed": false
        },
        {
          "address": "0x0000000000000000000000000000000000001010",
          "topics": [
            "0x4dfe1bbbcf077ddc3e01291eea2d5c70c2b422b415d95645b9adcfd678cb1d63",
            "0x0000000000000000000000000000000000000000000000000000000000001010",
            "0x000000000000000000000000efbbd14082cf2fbcf5badc7ee619f0f4e36d0a5b",
            "0x0000000000000000000000006ab3d36c46ecfb9b9c0bd51cb1c3da5a2c81cea6"
          ],
          "data": "0x0000000000000000000000000000000000000000000000000004cf24f26a4968000000000000000000000000000000000000000000000001431998ea8fc2a5d300000000000000000000000000000000000000000000045ae23879f48f69b2a30000000000000000000000000000000000000000000000014314c9c59d585c6b00000000000000000000000000000000000000000000045ae23d491981d3fc0b",
          "blockHash": "0x2daf92be2fa5fade998c751dd45351d23c3fffd02dc479cff2bb5456f8c9d357",
          "blockNumber": "0xfc952f",
          "transactionHash": "0xe8b709f2623aefef9eba6d97dc352b081d40ddce09e52da27412c1cb8e610e07",
          "transactionIndex": "0x1",
          "logIndex": "0x3",
          "removed": false
        }
      ],
      "logsBloom": "0x0000000008000000000000000000000000000000000000000000000000000000000000000000000000000000000100000000800000000000000000000000000000800008000000000000000000000080000000000000010000010000000000000800000000000000000000000000000000000000000000008000000000000000080000000000000000000000080000000800000000000000000000000000000020000000000000000000200000000000000040000000000800a000000000004000000000000000000001000400000000000000018000000000100000000000000000000000000000000040000000000000000000000000000000000000100000",
      "type": "0x2",
      "transactionHash": "0xe8b709f2623aefef9eba6d97dc352b081d40ddce09e52da27412c1cb8e610e07",
      "transactionIndex": "0x1",
      "blockHash": "0x2daf92be2fa5fade998c751dd45351d23c3fffd02dc479cff2bb5456f8c9d357",
      "blockNumber": "0xfc952f",
      "gasUsed": "0xa2b3",
      "effectiveGasPrice": "0x79126a507",
      "from": "0xefbbd14082cf2fbcf5badc7ee619f0f4e36d0a5b",
      "to": "0x8120a8e0688be6b2c0bb469f871e5e7023ca85eb",
      "contractAddress": null
    },
    {
      "status": "0x1",
      "cumulativeGasUsed": "0x1f9aa",
      "logs": [
        {
          "address": "0x8120a8e0688be6b2c0bb469f871e5e7023ca85eb",
          "topics": [
            "0x9ea6790c7dadfd01c9f8b9762b3682607af2c7e79e05a9f9fdf5580dde949151",
            "0x00000000000000000000000083266ca8147572839bb23a204db52bd26a1fceaa",
            "0x0000000000000000000000000000000000000000000000000000000000000004"
          ],
          "data": "0x4bbc170a00000000000000000000000000000000000000000000000000000000",
          "blockHash": "0x2daf92be2fa5fade998c751dd45351d23c3fffd02dc479cff2bb5456f8c9d357",
          "blockNumber": "0xfc952f",
          "transactionHash": "0xc502112aba5e8108a2d6551c2e4ad743587a9bd278ac722a6fbc884fd3018cc8",
          "transactionIndex": "0x2",
          "logIndex": "0x4",
          "removed": false
        },
        {
          "address": "0x8120a8e0688be6b2c0bb469f871e5e7023ca85eb",
          "topics": [
            "0x9ea6790c7dadfd01c9f8b9762b3682607af2c7e79e05a9f9fdf5580dde949151",
            "0x00000000000000000000000083266ca8147572839bb23a204db52bd26a1fceaa",
            "0x0000000000000000000000000000000000000000000000000000000000000004"
          ],
          "data": "0x15f4150100000000000000000000000000000000000000000000000000000000",
          "blockHash": "0x2daf92be2fa5fade998c751dd45351d23c3fffd02dc479cff2bb5456f8c9d357",
          "blockNumber": "0xfc952f",
          "transactionHash": "0xc502112aba5e8108a2d6551c2e4ad743587a9bd278ac722a6fbc884fd3018cc8",
          "transactionIndex": "0x2",
          "logIndex": "0x5",
          "removed": false
        },
        {
          "address": "0x8120a8e0688be6b2c0bb469f871e5e7023ca85eb",
          "topics": [
            "0x9ea6790c7dadfd01c9f8b9762b3682607af2c7e79e05a9f9fdf5580dde949151",
            "0x00000000000000000000000083266ca8147572839bb23a204db52bd26a1fceaa",
            "0x0000000000000000000000000000000000000000000000000000000000000004"
          ],
          "data": "0x9e96a26000000000000000000000000000000000000000000000000000000000",
          "blockHash": "0x2daf92be2fa5fade998c751dd45351d23c3fffd02dc479cff2bb5456f8c9d357",
          "blockNumber": "0xfc952f",
          "transactionHash": "0xc502112aba5e8108a2d6551c2e4ad743587a9bd278ac722a6fbc884fd3018cc8",
          "transactionIndex": "0x2",
          "logIndex": "0x6",
          "removed": false
        },
        {
          "address": "0x0000000000000000000000000000000000001010",
          "topics": [
            "0x4dfe1bbbcf077ddc3e01291eea2d5c70c2b422b415d95645b9adcfd678cb1d63",
            "0x0000000000000000000000000000000000000000000000000000000000001010",
            "0x000000000000000000000000efbbd14082cf2fbcf5badc7ee619f0f4e36d0a5b",
            "0x0000000000000000000000006ab3d36c46ecfb9b9c0bd51cb1c3da5a2c81cea6"
          ],
          "data": "0x00000000000000000000000000000000000000000000000000055411ba4231e00000000000000000000000000000000000000000000000014314c9c59d4ed3ee00000000000000000000000000000000000000000000045ae23d491981d3fc0b000000000000000000000000000000000000000000000001430f75b3e30ca20e00000000000000000000000000000000000000000000045ae2429d2b3c162deb",
          "blockHash": "0x2daf92be2fa5fade998c751dd45351d23c3fffd02dc479cff2bb5456f8c9d357",
          "blockNumber": "0xfc952f",
          "transactionHash": "0xc502112aba5e8108a2d6551c2e4ad743587a9bd278ac722a6fbc884fd3018cc8",
          "transactionIndex": "0x2",
          "logIndex": "0x7",
          "removed": false
        }
      ],
      "logsBloom": "0x0000000408008000000000000000000000000000000000000000000000000000000000000000000000000000000000000000800000000000000000000000000000800008000000000000000000000080000000000000010000010000000000000800000000000000000000000000000000000000000000008000000000000000080000000000000000000000080000000000000000000040000000000000000020000000000000000000000000000000000040000000000000a000000000004000000000000000000001000000200001000000018000000000100000000000000000008000000000000000000000000000000000000000000000000000100000",
      "type": "0x2",
      "transactionHash": "0xc502112aba5e8108a2d6551c2e4ad743587a9bd278ac722a6fbc884fd3018cc8",
      "transactionIndex": "0x2",
      "blockHash": "0x2daf92be2fa5fade998c751dd45351d23c3fffd02dc479cff2bb5456f8c9d357",
      "blockNumber": "0xfc952f",
      "gasUsed": "0xb444",
      "effectiveGasPrice": "0x79126a507",
      "from": "0xefbbd14082cf2fbcf5badc7ee619f0f4e36d0a5b",
      "to": "0x8120a8e0688be6b2c0bb469f871e5e7023ca85eb",
      "contractAddress": null
    },
    {
      "status": "0x1",
      "cumulativeGasUsed": "0x46860",
      "logs": [
        {
          "address": "0x4580859e64385e3e82ee64da2bc06ef84bde851a",
          "topics": [
            "0x9621c1829ce5206009d367ce68b7c4fe6b4bbd70dbe22c21e5bd2a51a716c51c",
            "0x000000000000000000000000f06e1998119caedf8e084194aa5fea89ea9389c3",
            "0x0000000000000000000000003c7deb6feaeb7a82bde580fb73d8d69c401b219e"
          ],
          "data": "0x000000000000000000000000000000000000000000000000000000000000000300000000000000000000000000000000000000000000000000000000000001f4",
          "blockHash": "0x2daf92be2fa5fade998c751dd45351d23c3fffd02dc479cff2bb5456f8c9d357",
          "blockNumber": "0xfc952f",
          "transactionHash": "0x61d159ce623bada5ca0de33b89530718e6c97096f1f627ef4ea21224c53edadd",
          "transactionIndex": "0x3",
          "logIndex": "0x8",
          "removed": false
        },
        {
          "address": "0x0000000000000000000000000000000000001010",
          "topics": [
            "0x4dfe1bbbcf077ddc3e01291eea2d5c70c2b422b415d95645b9adcfd678cb1d63",
            "0x0000000000000000000000000000000000000000000000000000000000001010",
            "0x000000000000000000000000efbbd14082cf2fbcf5badc7ee619f0f4e36d0a5b",
            "0x0000000000000000000000006ab3d36c46ecfb9b9c0bd51cb1c3da5a2c81cea6"
          ],
          "data": "0x0000000000000000000000000000000000000000000000000012680d164bd850000000000000000000000000000000000000000000000001430f75b3e302121200000000000000000000000000000000000000000000045ae2429d2b3c162deb00000000000000000000000000000000000000000000000142fd0da6ccb639c200000000000000000000000000000000000000000000045ae25505385262063b",
          "blockHash": "0x2daf92be2fa5fade998c751dd45351d23c3fffd02dc479cff2bb5456f8c9d357",
          "blockNumber": "0xfc952f",
          "transactionHash": "0x61d159ce623bada5ca0de33b89530718e6c97096f1f627ef4ea21224c53edadd",
          "transactionIndex": "0x3",
          "logIndex": "0x9",
          "removed": false
        }
      ],
      "logsBloom": "0x0000004008000000000000000000000000000000000180000080000000000000000000000000000000000000000200000000800000000000080000040000000000800008000000000000000000000080000000000000002000010000000000000000100000000000000000000000000000000000000000008000000000000000080000000000000000000000000000000000000000000000000000000000000020000000000000000000000000000000000040000000000000000000000000400000000000a000000001080000000000000000010000000000100000000000000000000000000000000000000000000000000000000000000000000000100000",
      "type": "0x2",
      "transactionHash": "0x61d159ce623bada5ca0de33b89530718e6c97096f1f627ef4ea21224c53edadd",
      "transactionIndex": "0x3",
      "blockHash": "0x2daf92be2fa5fade998c751dd45351d23c3fffd02dc479cff2bb5456f8c9d357",
      "blockNumber": "0xfc952f",
      "gasUsed": "0x26eb6",
      "effectiveGasPrice": "0x79126a507",
      "from": "0xefbbd14082cf2fbcf5badc7ee619f0f4e36d0a5b",
      "to": "0x4580859e64385e3e82ee64da2bc06ef84bde851a",
      "contractAddress": null
    },
    {
      "status": "0x1",
      "cumulativeGasUsed": "0x6d73b",
      "logs": [
        {
          "address": "0x4580859e64385e3e82ee64da2bc06ef84bde851a",
          "topics": [
            "0x9621c1829ce5206009d367ce68b7c4fe6b4bbd70dbe22c21e5bd2a51a716c51c",
            "0x000000000000000000000000a2746f0d272bb0f5273f53b4a0f476afe8873c32",
            "0x0000000000000000000000003c7deb6feaeb7a82bde580fb73d8d69c401b219e"
          ],
          "data": "0x00000000000000000000000000000000000000000000000000000000000000010000000000000000000000000000000000000000000000056bc75e2d63100000",
          "blockHash": "0x2daf92be2fa5fade998c751dd45351d23c3fffd02dc479cff2bb5456f8c9d357",
          "blockNumber": "0xfc952f",
          "transactionHash": "0x8f0e9cd25953cea5c4effff3d11e4c15e7a2239380ea38c595f03de43cfcba10",
          "transactionIndex": "0x4",
          "logIndex": "0xa",
          "removed": false
        },
        {
          "address": "0x0000000000000000000000000000000000001010",
          "topics": [
            "0x4dfe1bbbcf077ddc3e01291eea2d5c70c2b422b415d95645b9adcfd678cb1d63",
            "0x0000000000000000000000000000000000000000000000000000000000001010",
            "0x000000000000000000000000efbbd14082cf2fbcf5badc7ee619f0f4e36d0a5b",
            "0x0000000000000000000000006ab3d36c46ecfb9b9c0bd51cb1c3da5a2c81cea6"
          ],
          "data": "0x0000000000000000000000000000000000000000000000000012692510e1b02800000000000000000000000000000000000000000000000142fd0da6cc91bd1800000000000000000000000000000000000000000000045ae25505385262063b00000000000000000000000000000000000000000000000142eaa481bbb00cf000000000000000000000000000000000000000000000045ae2676e5d6343b663",
          "blockHash": "0x2daf92be2fa5fade998c751dd45351d23c3fffd02dc479cff2bb5456f8c9d357",
          "blockNumber": "0xfc952f",
          "transactionHash": "0x8f0e9cd25953cea5c4effff3d11e4c15e7a2239380ea38c595f03de43cfcba10",
          "transactionIndex": "0x4",
          "logIndex": "0xb",
          "removed": false
        }
      ],
      "logsBloom": "0x0000000008000000000000000000000000000000000080000080000000000000000000000000000000000000000300000000800000000000080000040000000000800008000000000000000000000080000000000000002000010000000000000000100000000000000000000000000000000000000000008000000000000000080000000000000000000000000000000000000000000000000000000000000020000000000000000000000000000000000040000000000000000000000000400000000000a000000001000400000000000000010000000000100000000000000000000000000000000040000000000000000000000000000000000000100000",
      "type": "0x2",
      "transactionHash": "0x8f0e9cd25953cea5c4effff3d11e4c15e7a2239380ea38c595f03de43cfcba10",
      "transactionIndex": "0x4",
      "blockHash": "0x2daf92be2fa5fade998c751dd45351d23c3fffd02dc479cff2bb5456f8c9d357",
      "blockNumber": "0xfc952f",
      "gasUsed": "0x26edb",
      "effectiveGasPrice": "0x79126a507",
      "from": "0xefbbd14082cf2fbcf5badc7ee619f0f4e36d0a5b",
      "to": "0x4580859e64385e3e82ee64da2bc06ef84bde851a",
      "contractAddress": null
    }
  ],
  "libraries": [],
  "pending": [],
  "returns": {},
  "timestamp": 1736222267,
  "chain": 80002,
  "commit": "0798d1a"
}