{
  "transactions": [
    {
      "hash": "0xebec6450efff821baf66aa1e3cfe2bb725417633b22cb8474674b5648d762017",
      "transactionType": "CALL",
      "contractName": null,
      "contractAddress": "0x8120a8e0688be6b2c0bb469f871e5e7023ca85eb",
      "function": "grantRole(uint64,address,uint32)",
      "arguments": [
        "1",
        "0xEFBBD14082cF2FbCf5Badc7ee619F0f4e36D0A5B",
        "0"
      ],
      "transaction": {
        "from": "0xefbbd14082cf2fbcf5badc7ee619f0f4e36d0a5b",
        "to": "0x8120a8e0688be6b2c0bb469f871e5e7023ca85eb",
        "gas": "0xedf2",
        "value": "0x0",
        "input": "0x25c471a00000000000000000000000000000000000000000000000000000000000000001000000000000000000000000efbbd14082cf2fbcf5badc7ee619f0f4e36d0a5b0000000000000000000000000000000000000000000000000000000000000000",
        "nonce": "0x9cd",
        "chainId": "0x13882"
      },
      "additionalContracts": [],
      "isFixedGasLimit": false
    },
    {
      "hash": "0x0560fe15c4a1d2ef5c2dbbe7e6ef0d5d2d350c35e56ad618f570c6ff5b357ac7",
      "transactionType": "CALL",
      "contractName": null,
      "contractAddress": "0x8120a8e0688be6b2c0bb469f871e5e7023ca85eb",
      "function": "setTargetFunctionRole(address,bytes4[],uint64)",
      "arguments": [
        "0xD87274200531fAc90c2b0EFbF1bf1310F54456b0",
        "[0x8cc0de1d]",
        "1"
      ],
      "transaction": {
        "from": "0xefbbd14082cf2fbcf5badc7ee619f0f4e36d0a5b",
        "to": "0x8120a8e0688be6b2c0bb469f871e5e7023ca85eb",
        "gas": "0x134d0",
        "value": "0x0",
        "input": "0x08d6122d000000000000000000000000d87274200531fac90c2b0efbf1bf1310f54456b00000000000000000000000000000000000000000000000000000000000000060000000000000000000000000000000000000000000000000000000000000000100000000000000000000000000000000000000000000000000000000000000018cc0de1d00000000000000000000000000000000000000000000000000000000",
        "nonce": "0x9ce",
        "chainId": "0x13882"
      },
      "additionalContracts": [],
      "isFixedGasLimit": false
    },
    {
      "hash": "0x8b6241d784711452173e61b34df774e0afa657d768a91848592cfc2b80be729a",
      "transactionType": "CALL",
      "contractName": null,
      "contractAddress": "0x8120a8e0688be6b2c0bb469f871e5e7023ca85eb",
      "function": "setTargetFunctionRole(address,bytes4[],uint64)",
      "arguments": [
        "0xD957a2136cE4565Ea95cCE0d720eA015ebdB40C9",
        "[0x06af20da]",
        "1"
      ],
      "transaction": {
        "from": "0xefbbd14082cf2fbcf5badc7ee619f0f4e36d0a5b",
        "to": "0x8120a8e0688be6b2c0bb469f871e5e7023ca85eb",
        "gas": "0x134d0",
        "value": "0x0",
        "input": "0x08d6122d000000000000000000000000d957a2136ce4565ea95cce0d720ea015ebdb40c900000000000000000000000000000000000000000000000000000000000000600000000000000000000000000000000000000000000000000000000000000001000000000000000000000000000000000000000000000000000000000000000106af20da00000000000000000000000000000000000000000000000000000000",
        "nonce": "0x9cf",
        "chainId": "0x13882"
      },
      "additionalContracts": [],
      "isFixedGasLimit": false
    },
    {
      "hash": "0x2ee9fe8aff532caf677bedf33463c21a200d6f061b63f7c07020a5b439fb76d8",
      "transactionType": "CALL",
      "contractName": null,
      "contractAddress": "0x8120a8e0688be6b2c0bb469f871e5e7023ca85eb",
      "function": "setTargetFunctionRole(address,bytes4[],uint64)",
      "arguments": [
        "0x6495375bc64e00112F4fE0F46cc27c098AcE87de",
        "[0x20c5429b, 0xb8adaa11, 0xb759f954]",
        "1"
      ],
      "transaction": {
        "from": "0xefbbd14082cf2fbcf5badc7ee619f0f4e36d0a5b",
        "to": "0x8120a8e0688be6b2c0bb469f871e5e7023ca85eb",
        "gas": "0x23b09",
        "value": "0x0",
        "input": "0x08d6122d0000000000000000000000006495375bc64e00112f4fe0f46cc27c098ace87de00000000000000000000000000000000000000000000000000000000000000600000000000000000000000000000000000000000000000000000000000000001000000000000000000000000000000000000000000000000000000000000000320c5429b00000000000000000000000000000000000000000000000000000000b8adaa1100000000000000000000000000000000000000000000000000000000b759f95400000000000000000000000000000000000000000000000000000000",
        "nonce": "0x9d0",
        "chainId": "0x13882"
      },
      "additionalContracts": [],
      "isFixedGasLimit": false
    },
    {
      "hash": "0xfa7447f22eba1da15e8ac8d8d5106daed07c699c0ae487b33a3174069402ace3",
      "transactionType": "CALL",
      "contractName": null,
      "contractAddress": "0x8120a8e0688be6b2c0bb469f871e5e7023ca85eb",
      "function": "setTargetFunctionRole(address,bytes4[],uint64)",
      "arguments": [
        "0x40ead82D71DA8D00626F0B898CD7d4bfe6E2A378",
        "[0xf6eea098, 0x74a8f103, 0xdaea85c5]",
        "1"
      ],
      "transaction": {
        "from": "0xefbbd14082cf2fbcf5badc7ee619f0f4e36d0a5b",
        "to": "0x8120a8e0688be6b2c0bb469f871e5e7023ca85eb",
        "gas": "0x23b09",
        "value": "0x0",
        "input": "0x08d6122d00000000000000000000000040ead82d71da8d00626f0b898cd7d4bfe6e2a378000000000000000000000000000000000000000000000000000000000000006000000000000000000000000000000000000000000000000000000000000000010000000000000000000000000000000000000000000000000000000000000003f6eea0980000000000000000000000000000000000000000000000000000000074a8f10300000000000000000000000000000000000000000000000000000000daea85c500000000000000000000000000000000000000000000000000000000",
        "nonce": "0x9d1",
        "chainId": "0x13882"
      },
      "additionalContracts": [],
      "isFixedGasLimit": false
    },
    {
      "hash": "0x754ca7f9653c72c91e171cb4616e0b9e1b18fa087b081c315dab4ee89a8aa1a8",
      "transactionType": "CALL",
      "contractName": null,
      "contractAddress": "0x8120a8e0688be6b2c0bb469f871e5e7023ca85eb",
      "function": "grantRole(uint64,address,uint32)",
      "arguments": [
        "2",
        "0xEFBBD14082cF2FbCf5Badc7ee619F0f4e36D0A5B",
        "0"
      ],
      "transaction": {
        "from": "0xefbbd14082cf2fbcf5badc7ee619f0f4e36d0a5b",
        "to": "0x8120a8e0688be6b2c0bb469f871e5e7023ca85eb",
        "gas": "0xedf2",
        "value": "0x0",
        "input": "0x25c471a00000000000000000000000000000000000000000000000000000000000000002000000000000000000000000efbbd14082cf2fbcf5badc7ee619f0f4e36d0a5b0000000000000000000000000000000000000000000000000000000000000000",
        "nonce": "0x9d2",
        "chainId": "0x13882"
      },
      "additionalContracts": [],
      "isFixedGasLimit": false
    },
    {
      "hash": "0x0666db8514b475f21dbbd7c2d2c0f84bf7ba133fef81ce698c30c41db1ffbc8b",
      "transactionType": "CALL",
      "contractName": null,
      "contractAddress": "0x8120a8e0688be6b2c0bb469f871e5e7023ca85eb",
      "function": "setTargetFunctionRole(address,bytes4[],uint64)",
      "arguments": [
        "0xB67B2Ba159Fdb4a13D2C28992df3c103a1541B64",
        "[0xdaea85c5, 0xab0da5a9]",
        "2"
      ],
      "transaction": {
        "from": "0xefbbd14082cf2fbcf5badc7ee619f0f4e36d0a5b",
        "to": "0x8120a8e0688be6b2c0bb469f871e5e7023ca85eb",
        "gas": "0x1b7f5",
        "value": "0x0",
        "input": "0x08d6122d000000000000000000000000b67b2ba159fdb4a13d2c28992df3c103a1541b64000000000000000000000000000000000000000000000000000000000000006000000000000000000000000000000000000000000000000000000000000000020000000000000000000000000000000000000000000000000000000000000002daea85c500000000000000000000000000000000000000000000000000000000ab0da5a900000000000000000000000000000000000000000000000000000000",
        "nonce": "0x9d3",
        "chainId": "0x13882"
      },
      "additionalContracts": [],
      "isFixedGasLimit": false
    },
    {
      "hash": "0x956ed509375aaaa133113fead5061018fc0a89c0d532fe4060641ea189af52e2",
      "transactionType": "CALL",
      "contractName": null,
      "contractAddress": "0x8120a8e0688be6b2c0bb469f871e5e7023ca85eb",
      "function": "grantRole(uint64,address,uint32)",
      "arguments": [
        "4",
        "0x5571137dfB4dCCAb5FBb15Eb5745e246E24385d9",
        "0"
      ],
      "transaction": {
        "from": "0xefbbd14082cf2fbcf5badc7ee619f0f4e36d0a5b",
        "to": "0x8120a8e0688be6b2c0bb469f871e5e7023ca85eb",
        "gas": "0x13bcf",
        "value": "0x0",
        "input": "0x25c471a000000000000000000000000000000000000000000000000000000000000000040000000000000000000000005571137dfb4dccab5fbb15eb5745e246e24385d90000000000000000000000000000000000000000000000000000000000000000",
        "nonce": "0x9d4",
        "chainId": "0x13882"
      },
      "additionalContracts": [],
      "isFixedGasLimit": false
    },
    {
      "hash": "0x10ef063c2e72eb3fcd661b103b050e1d92cd0b65134d8805984753082f4ed7a2",
      "transactionType": "CALL",
      "contractName": null,
      "contractAddress": "0x8120a8e0688be6b2c0bb469f871e5e7023ca85eb",
      "function": "grantRole(uint64,address,uint32)",
      "arguments": [
        "4",
        "0x9009e2d2f8Ca83de9fC030Ac1541450AF910B410",
        "0"
      ],
      "transaction": {
        "from": "0xefbbd14082cf2fbcf5badc7ee619f0f4e36d0a5b",
        "to": "0x8120a8e0688be6b2c0bb469f871e5e7023ca85eb",
        "gas": "0x13bcf",
        "value": "0x0",
        "input": "0x25c471a000000000000000000000000000000000000000000000000000000000000000040000000000000000000000009009e2d2f8ca83de9fc030ac1541450af910b4100000000000000000000000000000000000000000000000000000000000000000",
        "nonce": "0x9d5",
        "chainId": "0x13882"
      },
      "additionalContracts": [],
      "isFixedGasLimit": false
    },
    {
      "hash": "0x7be94fb5b4f00083190038a8e63dcb1de78171f8fdc9a929124e213b6614c031",
      "transactionType": "CALL",
      "contractName": null,
      "contractAddress": "0x8120a8e0688be6b2c0bb469f871e5e7023ca85eb",
      "function": "grantRole(uint64,address,uint32)",
      "arguments": [
        "4",
        "0x40ead82D71DA8D00626F0B898CD7d4bfe6E2A378",
        "0"
      ],
      "transaction": {
        "from": "0xefbbd14082cf2fbcf5badc7ee619f0f4e36d0a5b",
        "to": "0x8120a8e0688be6b2c0bb469f871e5e7023ca85eb",
        "gas": "0x13bbe",
        "value": "0x0",
        "input": "0x25c471a0000000000000000000000000000000000000000000000000000000000000000400000000000000000000000040ead82d71da8d00626f0b898cd7d4bfe6e2a3780000000000000000000000000000000000000000000000000000000000000000",
        "nonce": "0x9d6",
        "chainId": "0x13882"
      },
      "additionalContracts": [],
      "isFixedGasLimit": false
    },
    {
      "hash": "0xb2cb2af7b65e8087ca8ee9c86bfd2c4cfcda0ab1b75439a29523c4f142a9944e",
      "transactionType": "CALL",
      "contractName": null,
      "contractAddress": "0x8120a8e0688be6b2c0bb469f871e5e7023ca85eb",
      "function": "setTargetFunctionRole(address,bytes4[],uint64)",
      "arguments": [
        "0x844E2fBf0F395236260A4E7dF6862e6E25D57141",
        "[0x4bbc170a, 0x15f41501, 0x9e96a260]",
        "4"
      ],
      "transaction": {
        "from": "0xefbbd14082cf2fbcf5badc7ee619f0f4e36d0a5b",
        "to": "0x8120a8e0688be6b2c0bb469f871e5e7023ca85eb",
        "gas": "0x23b19",
        "value": "0x0",
        "input": "0x08d6122d000000000000000000000000844e2fbf0f395236260a4e7df6862e6e25d571410000000000000000000000000000000000000000000000000000000000000060000000000000000000000000000000000000000000000000000000000000000400000000000000000000000000000000000000000000000000000000000000034bbc170a0000000000000000000000000000000000000000000000000000000015f41501000000000000000000000000000000000000000000000000000000009e96a26000000000000000000000000000000000000000000000000000000000",
        "nonce": "0x9d7",
        "chainId": "0x13882"
      },
      "additionalContracts": [],
      "isFixedGasLimit": false
    },
    {
      "hash": "0x94fd38a6520a777659a3bd7ecca90d8093a727467ff4f4508f619f3f574ffd8a",
      "transactionType": "CALL",
      "contractName": null,
      "contractAddress": "0xd87274200531fac90c2b0efbf1bf1310f54456b0",
      "function": "setFees(uint8,address,uint256,address)",
      "arguments": [
        "3",
        "0xA69b3AEBEbDdf5A9493D4B5f8e2799f66a0dd465",
        "500",
        "0x3c7DeB6FeAEb7a82BDe580Fb73d8d69c401b219e"
      ],
      "transaction": {
        "from": "0xefbbd14082cf2fbcf5badc7ee619f0f4e36d0a5b",
        "to": "0xd87274200531fac90c2b0efbf1bf1310f54456b0",
        "gas": "0x35c1e",
        "value": "0x0",
        "input": "0x8cc0de1d0000000000000000000000000000000000000000000000000000000000000003000000000000000000000000a69b3aebebddf5a9493d4b5f8e2799f66a0dd46500000000000000000000000000000000000000000000000000000000000001f40000000000000000000000003c7deb6feaeb7a82bde580fb73d8d69c401b219e",
        "nonce": "0x9d8",
        "chainId": "0x13882"
      },
      "additionalContracts": [],
      "isFixedGasLimit": false
    },
    {
      "hash": "0x2d4b858658eb5007a9ae4cdb5088414a2edc41db28896913255092d5f1e51b65",
      "transactionType": "CALL",
      "contractName": null,
      "contractAddress": "0xd87274200531fac90c2b0efbf1bf1310f54456b0",
      "function": "setFees(uint8,address,uint256,address)",
      "arguments": [
        "1",
        "0x40ead82D71DA8D00626F0B898CD7d4bfe6E2A378",
        "100000000000000000000",
        "0x3c7DeB6FeAEb7a82BDe580Fb73d8d69c401b219e"
      ],
      "transaction": {
        "from": "0xefbbd14082cf2fbcf5badc7ee619f0f4e36d0a5b",
        "to": "0xd87274200531fac90c2b0efbf1bf1310f54456b0",
        "gas": "0x35c3f",
        "value": "0x0",
        "input": "0x8cc0de1d000000000000000000000000000000000000000000000000000000000000000100000000000000000000000040ead82d71da8d00626f0b898cd7d4bfe6e2a3780000000000000000000000000000000000000000000000056bc75e2d631000000000000000000000000000003c7deb6feaeb7a82bde580fb73d8d69c401b219e",
        "nonce": "0x9d9",
        "chainId": "0x13882"
      },
      "additionalContracts": [],
      "isFixedGasLimit": false
    }
  ],
  "receipts": [
    {
      "status": "0x1",
      "cumulativeGasUsed": "0xa2b3",
      "logs": [
        {
          "address": "0x8120a8e0688be6b2c0bb469f871e5e7023ca85eb",
          "topics": [
            "0xf98448b987f1428e0e230e1f3c6e2ce15b5693eaf31827fbd0b1ec4b424ae7cf",
            "0x0000000000000000000000000000000000000000000000000000000000000001",
            "0x000000000000000000000000efbbd14082cf2fbcf5badc7ee619f0f4e36d0a5b"
          ],
          "data": "0x000000000000000000000000000000000000000000000000000000000000000000000000000000000000000000000000000000000000000000000000677d53930000000000000000000000000000000000000000000000000000000000000000",
          "blockHash": "0xcd0fcd1f1c52a65d69e36786bf8573b57de7b7087afc41f3eeca0fb565059331",
          "blockNumber": "0xfce6c2",
          "transactionHash": "0xebec6450efff821baf66aa1e3cfe2bb725417633b22cb8474674b5648d762017",
          "transactionIndex": "0x0",
          "logIndex": "0x0",
          "removed": false
        },
        {
          "address": "0x0000000000000000000000000000000000001010",
          "topics": [
            "0x4dfe1bbbcf077ddc3e01291eea2d5c70c2b422b415d95645b9adcfd678cb1d63",
            "0x0000000000000000000000000000000000000000000000000000000000001010",
            "0x000000000000000000000000efbbd14082cf2fbcf5badc7ee619f0f4e36d0a5b",
            "0x000000000000000000000000915a2284d28bd93de7d6f31173b981204bb666e6"
          ],
          "data": "0x00000000000000000000000000000000000000000000000000047070dfc94400000000000000000000000000000000000000000000000001337d8c71e674faeb00000000000000000000000000000000000000000000058e8a25255e51b4764e00000000000000000000000000000000000000000000000133791c0106abb6eb00000000000000000000000000000000000000000000058e8a2995cf317dba4e",
          "blockHash": "0xcd0fcd1f1c52a65d69e36786bf8573b57de7b7087afc41f3eeca0fb565059331",
          "blockNumber": "0xfce6c2",
          "transactionHash": "0xebec6450efff821baf66aa1e3cfe2bb725417633b22cb8474674b5648d762017",
          "transactionIndex": "0x0",
          "logIndex": "0x1",
          "removed": false
        }
      ],
      "logsBloom": "0x00000000000000000010000000000000000000000000000000000000000000000000000000000000000000000000000000008000000000000000000000040000008000000000000000000000000000800000000000040100000100000000000000000000000000000000000000000000000000000000000080000000000000000800000000000000000000000800000008000000000000000000000000000000200000000000000000002000000000000000400000000008008000000000004000000000000000000001000000000000000002000000000000100000000040000000000000000000000000000000000000000000400000000000000000100000",
      "type": "0x2",
      "transactionHash": "0xebec6450efff821baf66aa1e3cfe2bb725417633b22cb8474674b5648d762017",
      "transactionIndex": "0x0",
      "blockHash": "0xcd0fcd1f1c52a65d69e36786bf8573b57de7b7087afc41f3eeca0fb565059331",
      "blockNumber": "0xfce6c2",
      "gasUsed": "0xa2b3",
      "effectiveGasPrice": "0x6fc23ac0f",
      "from": "0xefbbd14082cf2fbcf5badc7ee619f0f4e36d0a5b",
      "to": "0x8120a8e0688be6b2c0bb469f871e5e7023ca85eb",
      "contractAddress": null
    },
    {
      "status": "0x1",
      "cumulativeGasUsed": "0x18247",
      "logs": [
        {
          "address": "0x8120a8e0688be6b2c0bb469f871e5e7023ca85eb",
          "topics": [
            "0x9ea6790c7dadfd01c9f8b9762b3682607af2c7e79e05a9f9fdf5580dde949151",
            "0x000000000000000000000000d87274200531fac90c2b0efbf1bf1310f54456b0",
            "0x0000000000000000000000000000000000000000000000000000000000000001"
          ],
          "data": "0x8cc0de1d00000000000000000000000000000000000000000000000000000000",
          "blockHash": "0xcd0fcd1f1c52a65d69e36786bf8573b57de7b7087afc41f3eeca0fb565059331",
          "blockNumber": "0xfce6c2",
          "transactionHash": "0x0560fe15c4a1d2ef5c2dbbe7e6ef0d5d2d350c35e56ad618f570c6ff5b357ac7",
          "transactionIndex": "0x1",
          "logIndex": "0x2",
          "removed": false
        },
        {
          "address": "0x0000000000000000000000000000000000001010",
          "topics": [
            "0x4dfe1bbbcf077ddc3e01291eea2d5c70c2b422b415d95645b9adcfd678cb1d63",
            "0x0000000000000000000000000000000000000000000000000000000000001010",
            "0x000000000000000000000000efbbd14082cf2fbcf5badc7ee619f0f4e36d0a5b",
            "0x000000000000000000000000915a2284d28bd93de7d6f31173b981204bb666e6"
          ],
          "data": "0x000000000000000000000000000000000000000000000000000619acd773700000000000000000000000000000000000000000000000000133791c0106a22e6e00000000000000000000000000000000000000000000058e8a2995cf317dba4e000000000000000000000000000000000000000000000001337302542f2ebe6e00000000000000000000000000000000000000000000058e8a2faf7c08f12a4e",
          "blockHash": "0xcd0fcd1f1c52a65d69e36786bf8573b57de7b7087afc41f3eeca0fb565059331",
          "blockNumber": "0xfce6c2",
          "transactionHash": "0x0560fe15c4a1d2ef5c2dbbe7e6ef0d5d2d350c35e56ad618f570c6ff5b357ac7",
          "transactionIndex": "0x1",
          "logIndex": "0x3",
          "removed": false
        }
      ],
      "logsBloom": "0x00000004000080000010000000000000000000000000000000000000000000000000000000000000000000000000000000008000000000000000000000040000008000000000000000000000000000800000000000040100000100000000000000000000000000000000000000000000000000000000000080000000000000000800000000000000000000000800000000000000000000000000000000000000200000000000000000000000000000000000400000800000008000000000004000000000000000000001000000200000000002000000000000100000000040000000000000000000000400000000000000000000400000000000000100100000",
      "type": "0x2",
      "transactionHash": "0x0560fe15c4a1d2ef5c2dbbe7e6ef0d5d2d350c35e56ad618f570c6ff5b357ac7",
      "transactionIndex": "0x1",
      "blockHash": "0xcd0fcd1f1c52a65d69e36786bf8573b57de7b7087afc41f3eeca0fb565059331",
      "blockNumber": "0xfce6c2",
      "gasUsed": "0xdf94",
      "effectiveGasPrice": "0x6fc23ac0f",
      "from": "0xefbbd14082cf2fbcf5badc7ee619f0f4e36d0a5b",
      "to": "0x8120a8e0688be6b2c0bb469f871e5e7023ca85eb",
      "contractAddress": null
    },
    {
      "status": "0x1",
      "cumulativeGasUsed": "0x261db",
      "logs": [
        {
          "address": "0x8120a8e0688be6b2c0bb469f871e5e7023ca85eb",
          "topics": [
            "0x9ea6790c7dadfd01c9f8b9762b3682607af2c7e79e05a9f9fdf5580dde949151",
            "0x000000000000000000000000d957a2136ce4565ea95cce0d720ea015ebdb40c9",
            "0x0000000000000000000000000000000000000000000000000000000000000001"
          ],
          "data": "0x06af20da00000000000000000000000000000000000000000000000000000000",
          "blockHash": "0xcd0fcd1f1c52a65d69e36786bf8573b57de7b7087afc41f3eeca0fb565059331",
          "blockNumber": "0xfce6c2",
          "transactionHash": "0x8b6241d784711452173e61b34df774e0afa657d768a91848592cfc2b80be729a",
          "transactionIndex": "0x2",
          "logIndex": "0x4",
          "removed": false
        },
        {
          "address": "0x0000000000000000000000000000000000001010",
          "topics": [
            "0x4dfe1bbbcf077ddc3e01291eea2d5c70c2b422b415d95645b9adcfd678cb1d63",
            "0x0000000000000000000000000000000000000000000000000000000000001010",
            "0x000000000000000000000000efbbd14082cf2fbcf5badc7ee619f0f4e36d0a5b",
            "0x000000000000000000000000915a2284d28bd93de7d6f31173b981204bb666e6"
          ],
          "data": "0x000000000000000000000000000000000000000000000000000619acd7737000000000000000000000000000000000000000000000000001337302542f21a4c200000000000000000000000000000000000000000000058e8a2faf7c08f12a4e000000000000000000000000000000000000000000000001336ce8a757ae34c200000000000000000000000000000000000000000000058e8a35c928e0649a4e",
          "blockHash": "0xcd0fcd1f1c52a65d69e36786bf8573b57de7b7087afc41f3eeca0fb565059331",
          "blockNumber": "0xfce6c2",
          "transactionHash": "0x8b6241d784711452173e61b34df774e0afa657d768a91848592cfc2b80be729a",
          "transactionIndex": "0x2",
          "logIndex": "0x5",
          "removed": false
        }
      ],
      "logsBloom": "0x00000004000080000010000000000000000000000000000000000000000000000000000000000000000000000000000000008000000000000000000000040000008000000000000000000000000000800000000000040100000100000000000000000000000000000000000000000000000000000000000080000000000000000800000000000000000000000800000000000000000000000000000000000000200000000000000000000000000060000000400000000000008000000000004000000000000000000001000000200000000002000000000000100000000040000000000000000000000000000000000000004000400000000000000000100000",
      "type": "0x2",
      "transactionHash": "0x8b6241d784711452173e61b34df774e0afa657d768a91848592cfc2b80be729a",
      "transactionIndex": "0x2",
      "blockHash": "0xcd0fcd1f1c52a65d69e36786bf8573b57de7b7087afc41f3eeca0fb565059331",
      "blockNumber": "0xfce6c2",
      "gasUsed": "0xdf94",
      "effectiveGasPrice": "0x6fc23ac0f",
      "from": "0xefbbd14082cf2fbcf5badc7ee619f0f4e36d0a5b",
      "to": "0x8120a8e0688be6b2c0bb469f871e5e7023ca85eb",
      "contractAddress": null
    },
    {
      "status": "0x1",
      "cumulativeGasUsed": "0x551370",
      "logs": [
        {
          "address": "0x8120a8e0688be6b2c0bb469f871e5e7023ca85eb",
          "topics": [
            "0x9ea6790c7dadfd01c9f8b9762b3682607af2c7e79e05a9f9fdf5580dde949151",
            "0x0000000000000000000000006495375bc64e00112f4fe0f46cc27c098ace87de",
            "0x0000000000000000000000000000000000000000000000000000000000000001"
          ],
          "data": "0x20c5429b00000000000000000000000000000000000000000000000000000000",
          "blockHash": "0x5527fb3f97a52f181b2629f24a992b501ceb3f465035a113152692b2f4e29c90",
          "blockNumber": "0xfce6c3",
          "transactionHash": "0x2ee9fe8aff532caf677bedf33463c21a200d6f061b63f7c07020a5b439fb76d8",
          "transactionIndex": "0x2",
          "logIndex": "0xb",
          "removed": false
        },
        {
          "address": "0x8120a8e0688be6b2c0bb469f871e5e7023ca85eb",
          "topics": [
            "0x9ea6790c7dadfd01c9f8b9762b3682607af2c7e79e05a9f9fdf5580dde949151",
            "0x0000000000000000000000006495375bc64e00112f4fe0f46cc27c098ace87de",
            "0x0000000000000000000000000000000000000000000000000000000000000001"
          ],
          "data": "0xb8adaa1100000000000000000000000000000000000000000000000000000000",
          "blockHash": "0x5527fb3f97a52f181b2629f24a992b501ceb3f465035a113152692b2f4e29c90",
          "blockNumber": "0xfce6c3",
          "transactionHash": "0x2ee9fe8aff532caf677bedf33463c21a200d6f061b63f7c07020a5b439fb76d8",
          "transactionIndex": "0x2",
          "logIndex": "0xc",
          "removed": false
        },
        {
          "address": "0x8120a8e0688be6b2c0bb469f871e5e7023ca85eb",
          "topics": [
            "0x9ea6790c7dadfd01c9f8b9762b3682607af2c7e79e05a9f9fdf5580dde949151",
            "0x0000000000000000000000006495375bc64e00112f4fe0f46cc27c098ace87de",
            "0x0000000000000000000000000000000000000000000000000000000000000001"
          ],
          "data": "0xb759f95400000000000000000000000000000000000000000000000000000000",
          "blockHash": "0x5527fb3f97a52f181b2629f24a992b501ceb3f465035a113152692b2f4e29c90",
          "blockNumber": "0xfce6c3",
          "transactionHash": "0x2ee9fe8aff532caf677bedf33463c21a200d6f061b63f7c07020a5b439fb76d8",
          "transactionIndex": "0x2",
          "logIndex": "0xd",
          "removed": false
        },
        {
          "address": "0x0000000000000000000000000000000000001010",
          "topics": [
            "0x4dfe1bbbcf077ddc3e01291eea2d5c70c2b422b415d95645b9adcfd678cb1d63",
            "0x0000000000000000000000000000000000000000000000000000000000001010",
            "0x000000000000000000000000efbbd14082cf2fbcf5badc7ee619f0f4e36d0a5b",
            "0x000000000000000000000000915a2284d28bd93de7d6f31173b981204bb666e6"
          ],
          "data": "0x000000000000000000000000000000000000000000000000000b47b7eb889000000000000000000000000000000000000000000000000001336ce8a757a11b1600000000000000000000000000000000000000000000058e8d3f13afbd7e0bd60000000000000000000000000000000000000000000000013361a0ef6c188b1600000000000000000000000000000000000000000000058e8d4a5b67a9069bd6",
          "blockHash": "0x5527fb3f97a52f181b2629f24a992b501ceb3f465035a113152692b2f4e29c90",
          "blockNumber": "0xfce6c3",
          "transactionHash": "0x2ee9fe8aff532caf677bedf33463c21a200d6f061b63f7c07020a5b439fb76d8",
          "transactionIndex": "0x2",
          "logIndex": "0xe",
          "removed": false
        }
      ],
      "logsBloom": "0x00000004000080000010000000000000000000000000000000000000000000000000000000000000000000000000000000008000000000000000000000040000008000000000000000000010000000800000000000040100000100000000000000000000000000000000000000000000000000000000000080000000000000000800000000000000000000000800000000000000000000000000000000000000200000000000000000000000000000000000400000000000008000000000004020000000000000000001000000200000000002000000000000100000000040000000000800000000000000000000000000000000400000000000000000100000",
      "type": "0x2",
      "transactionHash": "0x2ee9fe8aff532caf677bedf33463c21a200d6f061b63f7c07020a5b439fb76d8",
      "transactionIndex": "0x2",
      "blockHash": "0x5527fb3f97a52f181b2629f24a992b501ceb3f465035a113152692b2f4e29c90",
      "blockNumber": "0xfce6c3",
      "gasUsed": "0x19d6c",
      "effectiveGasPrice": "0x6fc23ac0f",
      "from": "0xefbbd14082cf2fbcf5badc7ee619f0f4e36d0a5b",
      "to": "0x8120a8e0688be6b2c0bb469f871e5e7023ca85eb",
      "contractAddress": null
    },
    {
      "status": "0x1",
      "cumulativeGasUsed": "0x56b0dc",
      "logs": [
        {
          "address": "0x8120a8e0688be6b2c0bb469f871e5e7023ca85eb",
          "topics": [
            "0x9ea6790c7dadfd01c9f8b9762b3682607af2c7e79e05a9f9fdf5580dde949151",
            "0x00000000000000000000000040ead82d71da8d00626f0b898cd7d4bfe6e2a378",
            "0x0000000000000000000000000000000000000000000000000000000000000001"
          ],
          "data": "0xf6eea09800000000000000000000000000000000000000000000000000000000",
          "blockHash": "0x5527fb3f97a52f181b2629f24a992b501ceb3f465035a113152692b2f4e29c90",
          "blockNumber": "0xfce6c3",
          "transactionHash": "0xfa7447f22eba1da15e8ac8d8d5106daed07c699c0ae487b33a3174069402ace3",
          "transactionIndex": "0x3",
          "logIndex": "0xf",
          "removed": false
        },
        {
          "address": "0x8120a8e0688be6b2c0bb469f871e5e7023ca85eb",
          "topics": [
            "0x9ea6790c7dadfd01c9f8b9762b3682607af2c7e79e05a9f9fdf5580dde949151",
            "0x00000000000000000000000040ead82d71da8d00626f0b898cd7d4bfe6e2a378",
            "0x0000000000000000000000000000000000000000000000000000000000000001"
          ],
          "data": "0x74a8f10300000000000000000000000000000000000000000000000000000000",
          "blockHash": "0x5527fb3f97a52f181b2629f24a992b501ceb3f465035a113152692b2f4e29c90",
          "blockNumber": "0xfce6c3",
          "transactionHash": "0xfa7447f22eba1da15e8ac8d8d5106daed07c699c0ae487b33a3174069402ace3",
          "transactionIndex": "0x3",
          "logIndex": "0x10",
          "removed": false
        },
        {
          "address": "0x8120a8e0688be6b2c0bb469f871e5e7023ca85eb",
          "topics": [
            "0x9ea6790c7dadfd01c9f8b9762b3682607af2c7e79e05a9f9fdf5580dde949151",
            "0x00000000000000000000000040ead82d71da8d00626f0b898cd7d4bfe6e2a378",
            "0x0000000000000000000000000000000000000000000000000000000000000001"
          ],
          "data": "0xdaea85c500000000000000000000000000000000000000000000000000000000",
          "blockHash": "0x5527fb3f97a52f181b2629f24a992b501ceb3f465035a113152692b2f4e29c90",
          "blockNumber": "0xfce6c3",
          "transactionHash": "0xfa7447f22eba1da15e8ac8d8d5106daed07c699c0ae487b33a3174069402ace3",
          "transactionIndex": "0x3",
          "logIndex": "0x11",
          "removed": false
        },
        {
          "address": "0x0000000000000000000000000000000000001010",
          "topics": [
            "0x4dfe1bbbcf077ddc3e01291eea2d5c70c2b422b415d95645b9adcfd678cb1d63",
            "0x0000000000000000000000000000000000000000000000000000000000001010",
            "0x000000000000000000000000efbbd14082cf2fbcf5badc7ee619f0f4e36d0a5b",
            "0x000000000000000000000000915a2284d28bd93de7d6f31173b981204bb666e6"
          ],
          "data": "0x000000000000000000000000000000000000000000000000000b47b7eb8890000000000000000000000000000000000000000000000000013361a0ef6c0051c200000000000000000000000000000000000000000000058e8d4a5b67a9069bd6000000000000000000000000000000000000000000000001335659378077c1c200000000000000000000000000000000000000000000058e8d55a31f948f2bd6",
          "blockHash": "0x5527fb3f97a52f181b2629f24a992b501ceb3f465035a113152692b2f4e29c90",
          "blockNumber": "0xfce6c3",
          "transactionHash": "0xfa7447f22eba1da15e8ac8d8d5106daed07c699c0ae487b33a3174069402ace3",
          "transactionIndex": "0x3",
          "logIndex": "0x12",
          "removed": false
        }
      ],
      "logsBloom": "0x00000004000080000010000000000000000000000000000000000000000000000000000000000000000000000000000000008000000000000000000000040000008000000000000000000000000000800000000000040100000100000000000000000000000000000000000000000000000000000000000080000000000000000800000000000000000000000800000000200000000000000000000000000000200000400000000000000000000000000000400000000000008000000000004000000000000000000001000000200000000002000000000000100000000040000000000000000800000000000000000000000000400000000000000000100000",
      "type": "0x2",
      "transactionHash": "0xfa7447f22eba1da15e8ac8d8d5106daed07c699c0ae487b33a3174069402ace3",
      "transactionIndex": "0x3",
      "blockHash": "0x5527fb3f97a52f181b2629f24a992b501ceb3f465035a113152692b2f4e29c90",
      "blockNumber": "0xfce6c3",
      "gasUsed": "0x19d6c",
      "effectiveGasPrice": "0x6fc23ac0f",
      "from": "0xefbbd14082cf2fbcf5badc7ee619f0f4e36d0a5b",
      "to": "0x8120a8e0688be6b2c0bb469f871e5e7023ca85eb",
      "contractAddress": null
    },
    {
      "status": "0x1",
      "cumulativeGasUsed": "0x57538f",
      "logs": [
        {
          "address": "0x8120a8e0688be6b2c0bb469f871e5e7023ca85eb",
          "topics": [
            "0xf98448b987f1428e0e230e1f3c6e2ce15b5693eaf31827fbd0b1ec4b424ae7cf",
            "0x0000000000000000000000000000000000000000000000000000000000000002",
            "0x000000000000000000000000efbbd14082cf2fbcf5badc7ee619f0f4e36d0a5b"
          ],
          "data": "0x000000000000000000000000000000000000000000000000000000000000000000000000000000000000000000000000000000000000000000000000677d53950000000000000000000000000000000000000000000000000000000000000000",
          "blockHash": "0x5527fb3f97a52f181b2629f24a992b501ceb3f465035a113152692b2f4e29c90",
          "blockNumber": "0xfce6c3",
          "transactionHash": "0x754ca7f9653c72c91e171cb4616e0b9e1b18fa087b081c315dab4ee89a8aa1a8",
          "transactionIndex": "0x4",
          "logIndex": "0x13",
          "removed": false
        },
        {
          "address": "0x0000000000000000000000000000000000001010",
          "topics": [
            "0x4dfe1bbbcf077ddc3e01291eea2d5c70c2b422b415d95645b9adcfd678cb1d63",
            "0x0000000000000000000000000000000000000000000000000000000000001010",
            "0x000000000000000000000000efbbd14082cf2fbcf5badc7ee619f0f4e36d0a5b",
            "0x000000000000000000000000915a2284d28bd93de7d6f31173b981204bb666e6"
          ],
          "data": "0x00000000000000000000000000000000000000000000000000047070dfc9440000000000000000000000000000000000000000000000000133565937805f886e00000000000000000000000000000000000000000000058e8d55a31f948f2bd60000000000000000000000000000000000000000000000013351e8c6a096446e00000000000000000000000000000000000000000000058e8d5a139074586fd6",
          "blockHash": "0x5527fb3f97a52f181b2629f24a992b501ceb3f465035a113152692b2f4e29c90",
          "blockNumber": "0xfce6c3",
          "transactionHash": "0x754ca7f9653c72c91e171cb4616e0b9e1b18fa087b081c315dab4ee89a8aa1a8",
          "transactionIndex": "0x4",
          "logIndex": "0x14",
          "removed": false
        }
      ],
      "logsBloom": "0x04000000000000000010000000000000000000000000000000000000000000000000000000000000000000000000000000008000000000000000000000000000008000000000000000000000000000800000000000000100000100000000000000000000000000000000000000000000000000000000000080000000000000000800000000000000000000000800000008000000000000000000000000000000200000000000000000002100000000000000400000000008008000000000004000000000000000000001000000000000000002000000000000100000000000000000000000000000000000000000000000000000408000000000000000100000",
      "type": "0x2",
      "transactionHash": "0x754ca7f9653c72c91e171cb4616e0b9e1b18fa087b081c315dab4ee89a8aa1a8",
      "transactionIndex": "0x4",
      "blockHash": "0x5527fb3f97a52f181b2629f24a992b501ceb3f465035a113152692b2f4e29c90",
      "blockNumber": "0xfce6c3",
      "gasUsed": "0xa2b3",
      "effectiveGasPrice": "0x6fc23ac0f",
      "from": "0xefbbd14082cf2fbcf5badc7ee619f0f4e36d0a5b",
      "to": "0x8120a8e0688be6b2c0bb469f871e5e7023ca85eb",
      "contractAddress": null
    },
    {
      "status": "0x1",
      "cumulativeGasUsed": "0x589215",
      "logs": [
        {
          "address": "0x8120a8e0688be6b2c0bb469f871e5e7023ca85eb",
          "topics": [
            "0x9ea6790c7dadfd01c9f8b9762b3682607af2c7e79e05a9f9fdf5580dde949151",
            "0x000000000000000000000000b67b2ba159fdb4a13d2c28992df3c103a1541b64",
            "0x0000000000000000000000000000000000000000000000000000000000000002"
          ],
          "data": "0xdaea85c500000000000000000000000000000000000000000000000000000000",
          "blockHash": "0x5527fb3f97a52f181b2629f24a992b501ceb3f465035a113152692b2f4e29c90",
          "blockNumber": "0xfce6c3",
          "transactionHash": "0x0666db8514b475f21dbbd7c2d2c0f84bf7ba133fef81ce698c30c41db1ffbc8b",
          "transactionIndex": "0x5",
          "logIndex": "0x15",
          "removed": false
        },
        {
          "address": "0x8120a8e0688be6b2c0bb469f871e5e7023ca85eb",
          "topics": [
            "0x9ea6790c7dadfd01c9f8b9762b3682607af2c7e79e05a9f9fdf5580dde949151",
            "0x000000000000000000000000b67b2ba159fdb4a13d2c28992df3c103a1541b64",
            "0x0000000000000000000000000000000000000000000000000000000000000002"
          ],
          "data": "0xab0da5a900000000000000000000000000000000000000000000000000000000",
          "blockHash": "0x5527fb3f97a52f181b2629f24a992b501ceb3f465035a113152692b2f4e29c90",
          "blockNumber": "0xfce6c3",
          "transactionHash": "0x0666db8514b475f21dbbd7c2d2c0f84bf7ba133fef81ce698c30c41db1ffbc8b",
          "transactionIndex": "0x5",
          "logIndex": "0x16",
          "removed": false
        },
        {
          "address": "0x0000000000000000000000000000000000001010",
          "topics": [
            "0x4dfe1bbbcf077ddc3e01291eea2d5c70c2b422b415d95645b9adcfd678cb1d63",
            "0x0000000000000000000000000000000000000000000000000000000000001010",
            "0x000000000000000000000000efbbd14082cf2fbcf5badc7ee619f0f4e36d0a5b",
            "0x000000000000000000000000915a2284d28bd93de7d6f31173b981204bb666e6"
          ],
          "data": "0x0000000000000000000000000000000000000000000000000008b0dc4a5408000000000000000000000000000000000000000000000000013351e8c6a08cbbf100000000000000000000000000000000000000000000058e8d5a139074586fd6000000000000000000000000000000000000000000000001334937ea5638b3f100000000000000000000000000000000000000000000058e8d62c46cbeac77d6",
          "blockHash": "0x5527fb3f97a52f181b2629f24a992b501ceb3f465035a113152692b2f4e29c90",
          "blockNumber": "0xfce6c3",
          "transactionHash": "0x0666db8514b475f21dbbd7c2d2c0f84bf7ba133fef81ce698c30c41db1ffbc8b",
          "transactionIndex": "0x5",
          "logIndex": "0x17",
          "removed": false
        }
      ],
      "logsBloom": "0x04000004000080000010000000000000000000000000000000000000000000000000000000000000000000000000000000008000000000000000000000000000008000000000000000000000000000800000000000000100000904000000000000000000000000000000000000000000000000000000000080000000000000000800000004000000000000000800000000000000000000000000000000000000200000000000000000000100000000000000400000000000008000000000004000000000000000000001000000200000000002000000000000100000000000000000000000000000000000000000000000000000408000000000000000100000",
      "type": "0x2",
      "transactionHash": "0x0666db8514b475f21dbbd7c2d2c0f84bf7ba133fef81ce698c30c41db1ffbc8b",
      "transactionIndex": "0x5",
      "blockHash": "0x5527fb3f97a52f181b2629f24a992b501ceb3f465035a113152692b2f4e29c90",
      "blockNumber": "0xfce6c3",
      "gasUsed": "0x13e86",
      "effectiveGasPrice": "0x6fc23ac0f",
      "from": "0xefbbd14082cf2fbcf5badc7ee619f0f4e36d0a5b",
      "to": "0x8120a8e0688be6b2c0bb469f871e5e7023ca85eb",
      "contractAddress": null
    },
    {
      "status": "0x1",
      "cumulativeGasUsed": "0x5976b9",
      "logs": [
        {
          "address": "0x8120a8e0688be6b2c0bb469f871e5e7023ca85eb",
          "topics": [
            "0xf98448b987f1428e0e230e1f3c6e2ce15b5693eaf31827fbd0b1ec4b424ae7cf",
            "0x0000000000000000000000000000000000000000000000000000000000000004",
            "0x0000000000000000000000005571137dfb4dccab5fbb15eb5745e246e24385d9"
          ],
          "data": "0x000000000000000000000000000000000000000000000000000000000000000000000000000000000000000000000000000000000000000000000000677d53950000000000000000000000000000000000000000000000000000000000000001",
          "blockHash": "0x5527fb3f97a52f181b2629f24a992b501ceb3f465035a113152692b2f4e29c90",
          "blockNumber": "0xfce6c3",
          "transactionHash": "0x956ed509375aaaa133113fead5061018fc0a89c0d532fe4060641ea189af52e2",
          "transactionIndex": "0x6",
          "logIndex": "0x18",
          "removed": false
        },
        {
          "address": "0x0000000000000000000000000000000000001010",
          "topics": [
            "0x4dfe1bbbcf077ddc3e01291eea2d5c70c2b422b415d95645b9adcfd678cb1d63",
            "0x0000000000000000000000000000000000000000000000000000000000001010",
            "0x000000000000000000000000efbbd14082cf2fbcf5badc7ee619f0f4e36d0a5b",
            "0x000000000000000000000000915a2284d28bd93de7d6f31173b981204bb666e6"
          ],
          "data": "0x00000000000000000000000000000000000000000000000000063d094c0a3000000000000000000000000000000000000000000000000001334937ea56260a1700000000000000000000000000000000000000000000058e8d62c46cbeac77d60000000000000000000000000000000000000000000000013342fae10a1bda1700000000000000000000000000000000000000000000058e8d6901760ab6a7d6",
          "blockHash": "0x5527fb3f97a52f181b2629f24a992b501ceb3f465035a113152692b2f4e29c90",
          "blockNumber": "0xfce6c3",
          "transactionHash": "0x956ed509375aaaa133113fead5061018fc0a89c0d532fe4060641ea189af52e2",
          "transactionIndex": "0x6",
          "logIndex": "0x19",
          "removed": false
        }
      ],
      "logsBloom": "0x0000000000000000001000000000000000000000000000000000000000000000000000000000000000000000000000000000800000000000000000000000000000800000000000000000000000000080000000000000010000010000000000000800000000000000000000000000000000000000000000008000000000000000080000000000000040000000080000000800000000000000000000000000000020000000000000000000200000000000000040000000000800a000000000004000000000000000000001000000000000000002808000000000100000000000000000001000000000000000000000000000000000400000000000000000100000",
      "type": "0x2",
      "transactionHash": "0x956ed509375aaaa133113fead5061018fc0a89c0d532fe4060641ea189af52e2",
      "transactionIndex": "0x6",
      "blockHash": "0x5527fb3f97a52f181b2629f24a992b501ceb3f465035a113152692b2f4e29c90",
      "blockNumber": "0xfce6c3",
      "gasUsed": "0xe4a4",
      "effectiveGasPrice": "0x6fc23ac0f",
      "from": "0xefbbd14082cf2fbcf5badc7ee619f0f4e36d0a5b",
      "to": "0x8120a8e0688be6b2c0bb469f871e5e7023ca85eb",
      "contractAddress": null
    },
    {
      "status": "0x1",
      "cumulativeGasUsed": "0x5a5b5d",
      "logs": [
        {
          "address": "0x8120a8e0688be6b2c0bb469f871e5e7023ca85eb",
          "topics": [
            "0xf98448b987f1428e0e230e1f3c6e2ce15b5693eaf31827fbd0b1ec4b424ae7cf",
            "0x0000000000000000000000000000000000000000000000000000000000000004",
            "0x0000000000000000000000009009e2d2f8ca83de9fc030ac1541450af910b410"
          ],
          "data": "0x000000000000000000000000000000000000000000000000000000000000000000000000000000000000000000000000000000000000000000000000677d53950000000000000000000000000000000000000000000000000000000000000001",
          "blockHash": "0x5527fb3f97a52f181b2629f24a992b501ceb3f465035a113152692b2f4e29c90",
          "blockNumber": "0xfce6c3",
          "transactionHash": "0x10ef063c2e72eb3fcd661b103b050e1d92cd0b65134d8805984753082f4ed7a2",
          "transactionIndex": "0x7",
          "logIndex": "0x1a",
          "removed": false
        },
        {
          "address": "0x0000000000000000000000000000000000001010",
          "topics": [
            "0x4dfe1bbbcf077ddc3e01291eea2d5c70c2b422b415d95645b9adcfd678cb1d63",
            "0x0000000000000000000000000000000000000000000000000000000000001010",
            "0x000000000000000000000000efbbd14082cf2fbcf5badc7ee619f0f4e36d0a5b",
            "0x000000000000000000000000915a2284d28bd93de7d6f31173b981204bb666e6"
          ],
          "data": "0x00000000000000000000000000000000000000000000000000063d094c0a30000000000000000000000000000000000000000000000000013342fae10a0e747b00000000000000000000000000000000000000000000058e8d6901760ab6a7d6000000000000000000000000000000000000000000000001333cbdd7be04447b00000000000000000000000000000000000000000000058e8d6f3e7f56c0d7d6",
          "blockHash": "0x5527fb3f97a52f181b2629f24a992b501ceb3f465035a113152692b2f4e29c90",
          "blockNumber": "0xfce6c3",
          "transactionHash": "0x10ef063c2e72eb3fcd661b103b050e1d92cd0b65134d8805984753082f4ed7a2",
          "transactionIndex": "0x7",
          "logIndex": "0x1b",
          "removed": false
        }
      ],
      "logsBloom": "0x0000000000000000021000000000000000000000000000000000000000000000000000000000000000000000000000000000800000000000000000000000000000800000000000000000000000000080000000000000010000010000000000000800000000000000000000000000000000000010000000008000000000000000080000000000000000000000080000000800000000000000000000000000000020000000000000000000200000000000000040000000000800a000000000004000000000000000000001000000000000000002008000000000100000000000000010000000000000000000000000000000000000400000000000000000100000",
      "type": "0x2",
      "transactionHash": "0x10ef063c2e72eb3fcd661b103b050e1d92cd0b65134d8805984753082f4ed7a2",
      "transactionIndex": "0x7",
      "blockHash": "0x5527fb3f97a52f181b2629f24a992b501ceb3f465035a113152692b2f4e29c90",
      "blockNumber": "0xfce6c3",
      "gasUsed": "0xe4a4",
      "effectiveGasPrice": "0x6fc23ac0f",
      "from": "0xefbbd14082cf2fbcf5badc7ee619f0f4e36d0a5b",
      "to": "0x8120a8e0688be6b2c0bb469f871e5e7023ca85eb",
      "contractAddress": null
    },
    {
      "status": "0x1",
      "cumulativeGasUsed": "0x5b3ff5",
      "logs": [
        {
          "address": "0x8120a8e0688be6b2c0bb469f871e5e7023ca85eb",
          "topics": [
            "0xf98448b987f1428e0e230e1f3c6e2ce15b5693eaf31827fbd0b1ec4b424ae7cf",
            "0x0000000000000000000000000000000000000000000000000000000000000004",
            "0x00000000000000000000000040ead82d71da8d00626f0b898cd7d4bfe6e2a378"
          ],
          "data": "0x000000000000000000000000000000000000000000000000000000000000000000000000000000000000000000000000000000000000000000000000677d53950000000000000000000000000000000000000000000000000000000000000001",
          "blockHash": "0x5527fb3f97a52f181b2629f24a992b501ceb3f465035a113152692b2f4e29c90",
          "blockNumber": "0xfce6c3",
          "transactionHash": "0x7be94fb5b4f00083190038a8e63dcb1de78171f8fdc9a929124e213b6614c031",
          "transactionIndex": "0x8",
          "logIndex": "0x1c",
          "removed": false
        },
        {
          "address": "0x0000000000000000000000000000000000001010",
          "topics": [
            "0x4dfe1bbbcf077ddc3e01291eea2d5c70c2b422b415d95645b9adcfd678cb1d63",
            "0x0000000000000000000000000000000000000000000000000000000000001010",
            "0x000000000000000000000000efbbd14082cf2fbcf5badc7ee619f0f4e36d0a5b",
            "0x000000000000000000000000915a2284d28bd93de7d6f31173b981204bb666e6"
          ],
          "data": "0x00000000000000000000000000000000000000000000000000063cb57a5e2000000000000000000000000000000000000000000000000001333cbdd7bdf6dedf00000000000000000000000000000000000000000000058e8d6f3e7f56c0d7d6000000000000000000000000000000000000000000000001333681224398bedf00000000000000000000000000000000000000000000058e8d757b34d11ef7d6",
          "blockHash": "0x5527fb3f97a52f181b2629f24a992b501ceb3f465035a113152692b2f4e29c90",
          "blockNumber": "0xfce6c3",
          "transactionHash": "0x7be94fb5b4f00083190038a8e63dcb1de78171f8fdc9a929124e213b6614c031",
          "transactionIndex": "0x8",
          "logIndex": "0x1d",
          "removed": false
        }
      ],
      "logsBloom": "0x0000000000000000001000000000000000000000000000000000000000000000000000000000000000000000000000000000800000000000000000000000000000800000000000000000000000000080000000000000010000010000000000000800000000000000000000000000000000000000000000008000000000000000080000000000000000000000080000000820000000000000000000000000000020000040000000000000200000000000000040000000000800a000000000004000000000000000000001000000000000000002008000000000100000000000000000000000000800000000000000000000000000400000000000000000100000",
      "type": "0x2",
      "transactionHash": "0x7be94fb5b4f00083190038a8e63dcb1de78171f8fdc9a929124e213b6614c031",
      "transactionIndex": "0x8",
      "blockHash": "0x5527fb3f97a52f181b2629f24a992b501ceb3f465035a113152692b2f4e29c90",
      "blockNumber": "0xfce6c3",
      "gasUsed": "0xe498",
      "effectiveGasPrice": "0x6fc23ac0f",
      "from": "0xefbbd14082cf2fbcf5badc7ee619f0f4e36d0a5b",
      "to": "0x8120a8e0688be6b2c0bb469f871e5e7023ca85eb",
      "contractAddress": null
    },
    {
      "status": "0x1",
      "cumulativeGasUsed": "0x5cdd6d",
      "logs": [
        {
          "address": "0x8120a8e0688be6b2c0bb469f871e5e7023ca85eb",
          "topics": [
            "0x9ea6790c7dadfd01c9f8b9762b3682607af2c7e79e05a9f9fdf5580dde949151",
            "0x000000000000000000000000844e2fbf0f395236260a4e7df6862e6e25d57141",
            "0x0000000000000000000000000000000000000000000000000000000000000004"
          ],
          "data": "0x4bbc170a00000000000000000000000000000000000000000000000000000000",
          "blockHash": "0x5527fb3f97a52f181b2629f24a992b501ceb3f465035a113152692b2f4e29c90",
          "blockNumber": "0xfce6c3",
          "transactionHash": "0xb2cb2af7b65e8087ca8ee9c86bfd2c4cfcda0ab1b75439a29523c4f142a9944e",
          "transactionIndex": "0x9",
          "logIndex": "0x1e",
          "removed": false
        },
        {
          "address": "0x8120a8e0688be6b2c0bb469f871e5e7023ca85eb",
          "topics": [
            "0x9ea6790c7dadfd01c9f8b9762b3682607af2c7e79e05a9f9fdf5580dde949151",
            "0x000000000000000000000000844e2fbf0f395236260a4e7df6862e6e25d57141",
            "0x0000000000000000000000000000000000000000000000000000000000000004"
          ],
          "data": "0x15f4150100000000000000000000000000000000000000000000000000000000",
          "blockHash": "0x5527fb3f97a52f181b2629f24a992b501ceb3f465035a113152692b2f4e29c90",
          "blockNumber": "0xfce6c3",
          "transactionHash": "0xb2cb2af7b65e8087ca8ee9c86bfd2c4cfcda0ab1b75439a29523c4f142a9944e",
          "transactionIndex": "0x9",
          "logIndex": "0x1f",
          "removed": false
        },
        {
          "address": "0x8120a8e0688be6b2c0bb469f871e5e7023ca85eb",
          "topics": [
            "0x9ea6790c7dadfd01c9f8b9762b3682607af2c7e79e05a9f9fdf5580dde949151",
            "0x000000000000000000000000844e2fbf0f395236260a4e7df6862e6e25d57141",
            "0x0000000000000000000000000000000000000000000000000000000000000004"
          ],
          "data": "0x9e96a26000000000000000000000000000000000000000000000000000000000",
          "blockHash": "0x5527fb3f97a52f181b2629f24a992b501ceb3f465035a113152692b2f4e29c90",
          "blockNumber": "0xfce6c3",
          "transactionHash": "0xb2cb2af7b65e8087ca8ee9c86bfd2c4cfcda0ab1b75439a29523c4f142a9944e",
          "transactionIndex": "0x9",
          "logIndex": "0x20",
          "removed": false
        },
        {
          "address": "0x0000000000000000000000000000000000001010",
          "topics": [
            "0x4dfe1bbbcf077ddc3e01291eea2d5c70c2b422b415d95645b9adcfd678cb1d63",
            "0x0000000000000000000000000000000000000000000000000000000000001010",
            "0x000000000000000000000000efbbd14082cf2fbcf5badc7ee619f0f4e36d0a5b",
            "0x000000000000000000000000915a2284d28bd93de7d6f31173b981204bb666e6"
          ],
          "data": "0x000000000000000000000000000000000000000000000000000b480bbd34a00000000000000000000000000000000000000000000000000133368122438b59f700000000000000000000000000000000000000000000058e8d757b34d11ef7d6000000000000000000000000000000000000000000000001332b39168656b9f700000000000000000000000000000000000000000000058e8d80c3408e5397d6",
          "blockHash": "0x5527fb3f97a52f181b2629f24a992b501ceb3f465035a113152692b2f4e29c90",
          "blockNumber": "0xfce6c3",
          "transactionHash": "0xb2cb2af7b65e8087ca8ee9c86bfd2c4cfcda0ab1b75439a29523c4f142a9944e",
          "transactionIndex": "0x9",
          "logIndex": "0x21",
          "removed": false
        }
      ],
      "logsBloom": "0x0000000400008000001000000000000000000000000000000000000000000000000000000000000000000000000000000000800020000000000000000000000000800000000000000000000000000080000000000000010000010000000000000800000000000000000000000000000000000000000000008000000000000000080000000000000000000000080000000000000000000000000000000000000020000000000000000000000000000000000040000000000000a400000000004000000000000000000001000000200000000002008000000000100200000000000000000000000000000000000000000000000000400000000000000000100000",
      "type": "0x2",
      "transactionHash": "0xb2cb2af7b65e8087ca8ee9c86bfd2c4cfcda0ab1b75439a29523c4f142a9944e",
      "transactionIndex": "0x9",
      "blockHash": "0x5527fb3f97a52f181b2629f24a992b501ceb3f465035a113152692b2f4e29c90",
      "blockNumber": "0xfce6c3",
      "gasUsed": "0x19d78",
      "effectiveGasPrice": "0x6fc23ac0f",
      "from": "0xefbbd14082cf2fbcf5badc7ee619f0f4e36d0a5b",
      "to": "0x8120a8e0688be6b2c0bb469f871e5e7023ca85eb",
      "contractAddress": null
    },
    {
      "status": "0x1",
      "cumulativeGasUsed": "0x5f4c23",
      "logs": [
        {
          "address": "0xd87274200531fac90c2b0efbf1bf1310f54456b0",
          "topics": [
            "0x9621c1829ce5206009d367ce68b7c4fe6b4bbd70dbe22c21e5bd2a51a716c51c",
            "0x000000000000000000000000a69b3aebebddf5a9493d4b5f8e2799f66a0dd465",
            "0x0000000000000000000000003c7deb6feaeb7a82bde580fb73d8d69c401b219e"
          ],
          "data": "0x000000000000000000000000000000000000000000000000000000000000000300000000000000000000000000000000000000000000000000000000000001f4",
          "blockHash": "0x5527fb3f97a52f181b2629f24a992b501ceb3f465035a113152692b2f4e29c90",
          "blockNumber": "0xfce6c3",
          "transactionHash": "0x94fd38a6520a777659a3bd7ecca90d8093a727467ff4f4508f619f3f574ffd8a",
          "transactionIndex": "0xa",
          "logIndex": "0x22",
          "removed": false
        },
        {
          "address": "0x0000000000000000000000000000000000001010",
          "topics": [
            "0x4dfe1bbbcf077ddc3e01291eea2d5c70c2b422b415d95645b9adcfd678cb1d63",
            "0x0000000000000000000000000000000000000000000000000000000000001010",
            "0x000000000000000000000000efbbd14082cf2fbcf5badc7ee619f0f4e36d0a5b",
            "0x000000000000000000000000915a2284d28bd93de7d6f31173b981204bb666e6"
          ],
          "data": "0x0000000000000000000000000000000000000000000000000010fd95ed444800000000000000000000000000000000000000000000000001332b3916863e7fef00000000000000000000000000000000000000000000058e8d80c3408e5397d6000000000000000000000000000000000000000000000001331a3b8098fa37ef00000000000000000000000000000000000000000000058e8d91c0d67b97dfd6",
          "blockHash": "0x5527fb3f97a52f181b2629f24a992b501ceb3f465035a113152692b2f4e29c90",
          "blockNumber": "0xfce6c3",
          "transactionHash": "0x94fd38a6520a777659a3bd7ecca90d8093a727467ff4f4508f619f3f574ffd8a",
          "transactionIndex": "0xa",
          "logIndex": "0x23",
          "removed": false
        }
      ],
      "logsBloom": "0x00000000000000000010000000000000800000000000000020800000000000000000000000200000000000000002000000008000000000000800000400000000008000000000000000000000000000800000000000000020000100000000000000001000000000000000000000000000000000000000000080000000000000000800000000000000000000000000000000000000000000000000000000000000200000000000000000000000010000000000400000000000000000000000004000000000000000000001000000000000000002000002000000100000000000000000000000000080000000000000000000000000400000000000000000100000",
      "type": "0x2",
      "transactionHash": "0x94fd38a6520a777659a3bd7ecca90d8093a727467ff4f4508f619f3f574ffd8a",
      "transactionIndex": "0xa",
      "blockHash": "0x5527fb3f97a52f181b2629f24a992b501ceb3f465035a113152692b2f4e29c90",
      "blockNumber": "0xfce6c3",
      "gasUsed": "0x26eb6",
      "effectiveGasPrice": "0x6fc23ac0f",
      "from": "0xefbbd14082cf2fbcf5badc7ee619f0f4e36d0a5b",
      "to": "0xd87274200531fac90c2b0efbf1bf1310f54456b0",
      "contractAddress": null
    },
    {
      "status": "0x1",
      "cumulativeGasUsed": "0x61baf2",
      "logs": [
        {
          "address": "0xd87274200531fac90c2b0efbf1bf1310f54456b0",
          "topics": [
            "0x9621c1829ce5206009d367ce68b7c4fe6b4bbd70dbe22c21e5bd2a51a716c51c",
            "0x00000000000000000000000040ead82d71da8d00626f0b898cd7d4bfe6e2a378",
            "0x0000000000000000000000003c7deb6feaeb7a82bde580fb73d8d69c401b219e"
          ],
          "data": "0x00000000000000000000000000000000000000000000000000000000000000010000000000000000000000000000000000000000000000056bc75e2d63100000",
          "blockHash": "0x5527fb3f97a52f181b2629f24a992b501ceb3f465035a113152692b2f4e29c90",
          "blockNumber": "0xfce6c3",
          "transactionHash": "0x2d4b858658eb5007a9ae4cdb5088414a2edc41db28896913255092d5f1e51b65",
          "transactionIndex": "0xb",
          "logIndex": "0x24",
          "removed": false
        },
        {
          "address": "0x0000000000000000000000000000000000001010",
          "topics": [
            "0x4dfe1bbbcf077ddc3e01291eea2d5c70c2b422b415d95645b9adcfd678cb1d63",
            "0x0000000000000000000000000000000000000000000000000000000000001010",
            "0x000000000000000000000000efbbd14082cf2fbcf5badc7ee619f0f4e36d0a5b",
            "0x000000000000000000000000915a2284d28bd93de7d6f31173b981204bb666e6"
          ],
          "data": "0x0000000000000000000000000000000000000000000000000010fe448cc01400000000000000000000000000000000000000000000000001331a3b8098d5bb4500000000000000000000000000000000000000000000058e8d91c0d67b97dfd600000000000000000000000000000000000000000000000133093d3c0c15a74500000000000000000000000000000000000000000000058e8da2bf1b0857f3d6",
          "blockHash": "0x5527fb3f97a52f181b2629f24a992b501ceb3f465035a113152692b2f4e29c90",
          "blockNumber": "0xfce6c3",
          "transactionHash": "0x2d4b858658eb5007a9ae4cdb5088414a2edc41db28896913255092d5f1e51b65",
          "transactionIndex": "0xb",
          "logIndex": "0x25",
          "removed": false
        }
      ],
      "logsBloom": "0x00000000000000000010000000000000000000000000000020800000000000000000000000000000000000000002000000008000000000000800000400000000008000000000000000000000000000800000000000000020000100000000000000001000000000000000000000000000000000000000000080000000000000000800000000000000000000000000000000200000000000000000000000000000200000400000000000000000010000000000400000000000000000000000004000000000000000000001000000000000000002000002000000100000000000000000000000000800000000000000000000000000400000000000000000100000",
      "type": "0x2",
      "transactionHash": "0x2d4b858658eb5007a9ae4cdb5088414a2edc41db28896913255092d5f1e51b65",
      "transactionIndex": "0xb",
      "blockHash": "0x5527fb3f97a52f181b2629f24a992b501ceb3f465035a113152692b2f4e29c90",
      "blockNumber": "0xfce6c3",
      "gasUsed": "0x26ecf",
      "effectiveGasPrice": "0x6fc23ac0f",
      "from": "0xefbbd14082cf2fbcf5badc7ee619f0f4e36d0a5b",
      "to": "0xd87274200531fac90c2b0efbf1bf1310f54456b0",
      "contractAddress": null
    }
  ],
  "libraries": [],
  "pending": [],
  "returns": {},
  "timestamp": 1736266646,
  "chain": 80002,
  "commit": "3644831"
}