{
  "transactions": [
    {
      "hash": "0xf7aabb5c08eb9009d031baa91936b5c71053e08002126000c326830eee1f8149",
      "transactionType": "CALL",
      "contractName": null,
      "contractAddress": "0x8120a8e0688be6b2c0bb469f871e5e7023ca85eb",
      "function": "grantRole(uint64,address,uint32)",
      "arguments": [
        "1",
        "0xEFBBD14082cF2FbCf5Badc7ee619F0f4e36D0A5B",
        "0"
      ],
      "transaction": {
        "from": "0xefbbd14082cf2fbcf5badc7ee619f0f4e36d0a5b",
        "to": "0x8120a8e0688be6b2c0bb469f871e5e7023ca85eb",
        "gas": "0xedf2",
        "value": "0x0",
        "input": "0x25c471a00000000000000000000000000000000000000000000000000000000000000001000000000000000000000000efbbd14082cf2fbcf5badc7ee619f0f4e36d0a5b0000000000000000000000000000000000000000000000000000000000000000",
        "nonce": "0x782",
        "chainId": "0x13882"
      },
      "additionalContracts": [],
      "isFixedGasLimit": false
    },
    {
      "hash": "0x82dc32368f4ef35b0a176b9e41fbf7c4530a1dedd58492de6d5b979966b1dee7",
      "transactionType": "CALL",
      "contractName": null,
      "contractAddress": "0x8120a8e0688be6b2c0bb469f871e5e7023ca85eb",
      "function": "setTargetFunctionRole(address,bytes4[],uint64)",
      "arguments": [
        "0x8BbDeDEcc72EA39BD0E399A21273654143ae10Ba",
        "[0xecf441b7]",
        "1"
      ],
      "transaction": {
        "from": "0xefbbd14082cf2fbcf5badc7ee619f0f4e36d0a5b",
        "to": "0x8120a8e0688be6b2c0bb469f871e5e7023ca85eb",
        "gas": "0xc971",
        "value": "0x0",
        "input": "0x08d6122d0000000000000000000000008bbdedecc72ea39bd0e399a21273654143ae10ba000000000000000000000000000000000000000000000000000000000000006000000000000000000000000000000000000000000000000000000000000000010000000000000000000000000000000000000000000000000000000000000001ecf441b700000000000000000000000000000000000000000000000000000000",
        "nonce": "0x783",
        "chainId": "0x13882"
      },
      "additionalContracts": [],
      "isFixedGasLimit": false
    },
    {
      "hash": "0x56d3a7d0ddd63ac3bc39afe840874dbc8f0763737370b58d1e7a13a90ef9d9bc",
      "transactionType": "CALL",
      "contractName": null,
      "contractAddress": "0x8120a8e0688be6b2c0bb469f871e5e7023ca85eb",
      "function": "setTargetFunctionRole(address,bytes4[],uint64)",
      "arguments": [
        "0xaB5891221e4A7c96BF32A18bbB3fAd34DdBda33F",
        "[0x69328dec]",
        "1"
      ],
      "transaction": {
        "from": "0xefbbd14082cf2fbcf5badc7ee619f0f4e36d0a5b",
        "to": "0x8120a8e0688be6b2c0bb469f871e5e7023ca85eb",
        "gas": "0xc971",
        "value": "0x0",
        "input": "0x08d6122d000000000000000000000000ab5891221e4a7c96bf32a18bbb3fad34ddbda33f00000000000000000000000000000000000000000000000000000000000000600000000000000000000000000000000000000000000000000000000000000001000000000000000000000000000000000000000000000000000000000000000169328dec00000000000000000000000000000000000000000000000000000000",
        "nonce": "0x784",
        "chainId": "0x13882"
      },
      "additionalContracts": [],
      "isFixedGasLimit": false
    },
    {
      "hash": "0x90c6b0fecfa180ea143e35028d6e3c5b297aa8dd7da2b7b13a00165e9b3600c6",
      "transactionType": "CALL",
      "contractName": null,
      "contractAddress": "0x8120a8e0688be6b2c0bb469f871e5e7023ca85eb",
      "function": "setTargetFunctionRole(address,bytes4[],uint64)",
      "arguments": [
        "0x24C307D602EFd1104886C8276524068E166F96ca",
        "[0x20c5429b, 0xb8adaa11, 0xb759f954]",
        "1"
      ],
      "transaction": {
        "from": "0xefbbd14082cf2fbcf5badc7ee619f0f4e36d0a5b",
        "to": "0x8120a8e0688be6b2c0bb469f871e5e7023ca85eb",
        "gas": "0xf8fd",
        "value": "0x0",
        "input": "0x08d6122d00000000000000000000000024c307d602efd1104886c8276524068e166f96ca00000000000000000000000000000000000000000000000000000000000000600000000000000000000000000000000000000000000000000000000000000001000000000000000000000000000000000000000000000000000000000000000320c5429b00000000000000000000000000000000000000000000000000000000b8adaa1100000000000000000000000000000000000000000000000000000000b759f95400000000000000000000000000000000000000000000000000000000",
        "nonce": "0x785",
        "chainId": "0x13882"
      },
      "additionalContracts": [],
      "isFixedGasLimit": false
    },
    {
      "hash": "0x1b02b0d3dc3cc05ff43003ebc3117b93224e83ff5f161950fe60dd6ed542f078",
      "transactionType": "CALL",
      "contractName": null,
      "contractAddress": "0x8120a8e0688be6b2c0bb469f871e5e7023ca85eb",
      "function": "setTargetFunctionRole(address,bytes4[],uint64)",
      "arguments": [
        "0x3A9b5b820a7A4EbBE065560f51dC91e57FFB6607",
        "[0xf6eea098, 0x74a8f103, 0xdaea85c5]",
        "1"
      ],
      "transaction": {
        "from": "0xefbbd14082cf2fbcf5badc7ee619f0f4e36d0a5b",
        "to": "0x8120a8e0688be6b2c0bb469f871e5e7023ca85eb",
        "gas": "0xf8fd",
        "value": "0x0",
        "input": "0x08d6122d0000000000000000000000003a9b5b820a7a4ebbe065560f51dc91e57ffb6607000000000000000000000000000000000000000000000000000000000000006000000000000000000000000000000000000000000000000000000000000000010000000000000000000000000000000000000000000000000000000000000003f6eea0980000000000000000000000000000000000000000000000000000000074a8f10300000000000000000000000000000000000000000000000000000000daea85c500000000000000000000000000000000000000000000000000000000",
        "nonce": "0x786",
        "chainId": "0x13882"
      },
      "additionalContracts": [],
      "isFixedGasLimit": false
    },
    {
      "hash": "0x4fcb49cb11b5a24c1766c4ad56e55536ccf61a247946fbe50866d49db713b5f6",
      "transactionType": "CALL",
      "contractName": null,
      "contractAddress": "0x8120a8e0688be6b2c0bb469f871e5e7023ca85eb",
      "function": "grantRole(uint64,address,uint32)",
      "arguments": [
        "2",
        "0xEFBBD14082cF2FbCf5Badc7ee619F0f4e36D0A5B",
        "0"
      ],
      "transaction": {
        "from": "0xefbbd14082cf2fbcf5badc7ee619f0f4e36d0a5b",
        "to": "0x8120a8e0688be6b2c0bb469f871e5e7023ca85eb",
        "gas": "0xedf2",
        "value": "0x0",
        "input": "0x25c471a00000000000000000000000000000000000000000000000000000000000000002000000000000000000000000efbbd14082cf2fbcf5badc7ee619f0f4e36d0a5b0000000000000000000000000000000000000000000000000000000000000000",
        "nonce": "0x787",
        "chainId": "0x13882"
      },
      "additionalContracts": [],
      "isFixedGasLimit": false
    },
    {
      "hash": "0x22e257dd1f0ab001192aa530caaed16570e02cbf99e80920ba69ab2880eab247",
      "transactionType": "CALL",
      "contractName": null,
      "contractAddress": "0x8120a8e0688be6b2c0bb469f871e5e7023ca85eb",
      "function": "setTargetFunctionRole(address,bytes4[],uint64)",
      "arguments": [
        "0x20B61A0908D87574BBD2C47bd32Af11438C52d9D",
        "[0xdaea85c5, 0xab0da5a9]",
        "2"
      ],
      "transaction": {
        "from": "0xefbbd14082cf2fbcf5badc7ee619f0f4e36d0a5b",
        "to": "0x8120a8e0688be6b2c0bb469f871e5e7023ca85eb",
        "gas": "0xe137",
        "value": "0x0",
        "input": "0x08d6122d00000000000000000000000020b61a0908d87574bbd2c47bd32af11438c52d9d000000000000000000000000000000000000000000000000000000000000006000000000000000000000000000000000000000000000000000000000000000020000000000000000000000000000000000000000000000000000000000000002daea85c500000000000000000000000000000000000000000000000000000000ab0da5a900000000000000000000000000000000000000000000000000000000",
        "nonce": "0x788",
        "chainId": "0x13882"
      },
      "additionalContracts": [],
      "isFixedGasLimit": false
    },
    {
      "hash": "0x3ee4d2cfeef0d7219c7c44274e35789e3d6d0f954913f2c91c95f20b347c8106",
      "transactionType": "CALL",
      "contractName": null,
      "contractAddress": "0x8120a8e0688be6b2c0bb469f871e5e7023ca85eb",
      "function": "grantRole(uint64,address,uint32)",
      "arguments": [
        "4",
        "0x6432e643E2C12dd3A72EE92c6d1e72Bf8Dd1aeb6",
        "0"
      ],
      "transaction": {
        "from": "0xefbbd14082cf2fbcf5badc7ee619f0f4e36d0a5b",
        "to": "0x8120a8e0688be6b2c0bb469f871e5e7023ca85eb",
        "gas": "0xedf2",
        "value": "0x0",
        "input": "0x25c471a000000000000000000000000000000000000000000000000000000000000000040000000000000000000000006432e643e2c12dd3a72ee92c6d1e72bf8dd1aeb60000000000000000000000000000000000000000000000000000000000000000",
        "nonce": "0x789",
        "chainId": "0x13882"
      },
      "additionalContracts": [],
      "isFixedGasLimit": false
    },
    {
      "hash": "0xc907e157928792c18718864b37d3ed22ea282d85bb2d854de95a8716146e5909",
      "transactionType": "CALL",
      "contractName": null,
      "contractAddress": "0x8120a8e0688be6b2c0bb469f871e5e7023ca85eb",
      "function": "grantRole(uint64,address,uint32)",
      "arguments": [
        "4",
        "0x80C21DdDE0fDC8485e48B2F9981f5ED2Bd76c2F0",
        "0"
      ],
      "transaction": {
        "from": "0xefbbd14082cf2fbcf5badc7ee619f0f4e36d0a5b",
        "to": "0x8120a8e0688be6b2c0bb469f871e5e7023ca85eb",
        "gas": "0xedf2",
        "value": "0x0",
        "input": "0x25c471a0000000000000000000000000000000000000000000000000000000000000000400000000000000000000000080c21ddde0fdc8485e48b2f9981f5ed2bd76c2f00000000000000000000000000000000000000000000000000000000000000000",
        "nonce": "0x78a",
        "chainId": "0x13882"
      },
      "additionalContracts": [],
      "isFixedGasLimit": false
    },
    {
      "hash": "0x65e4c73e58a1061eaa1112f2ac7c9549a3dd850119e5133553c84d0e40cca86a",
      "transactionType": "CALL",
      "contractName": null,
      "contractAddress": "0x8120a8e0688be6b2c0bb469f871e5e7023ca85eb",
      "function": "setTargetFunctionRole(address,bytes4[],uint64)",
      "arguments": [
        "0x466aEa1c8475293be76eb682C553f9E8871b2502",
        "[0x4bbc170a, 0x15f41501, 0x9e96a260]",
        "4"
      ],
      "transaction": {
        "from": "0xefbbd14082cf2fbcf5badc7ee619f0f4e36d0a5b",
        "to": "0x8120a8e0688be6b2c0bb469f871e5e7023ca85eb",
        "gas": "0xf8fd",
        "value": "0x0",
        "input": "0x08d6122d000000000000000000000000466aea1c8475293be76eb682c553f9e8871b25020000000000000000000000000000000000000000000000000000000000000060000000000000000000000000000000000000000000000000000000000000000400000000000000000000000000000000000000000000000000000000000000034bbc170a0000000000000000000000000000000000000000000000000000000015f41501000000000000000000000000000000000000000000000000000000009e96a26000000000000000000000000000000000000000000000000000000000",
        "nonce": "0x78b",
        "chainId": "0x13882"
      },
      "additionalContracts": [],
      "isFixedGasLimit": false
    },
    {
      "hash": "0x23ce9059d1f7cc2ca734d650491a674b78680f4b55f54d9c762b04a41938f946",
      "transactionType": "CALL",
      "contractName": null,
      "contractAddress": "0x8bbdedecc72ea39bd0e399a21273654143ae10ba",
      "function": "setFees(uint8,uint256,address)",
      "arguments": [
        "2",
        "500",
        "0x3c7DeB6FeAEb7a82BDe580Fb73d8d69c401b219e"
      ],
      "transaction": {
        "from": "0xefbbd14082cf2fbcf5badc7ee619f0f4e36d0a5b",
        "to": "0x8bbdedecc72ea39bd0e399a21273654143ae10ba",
        "gas": "0x12aaf",
        "value": "0x0",
        "input": "0xecf441b7000000000000000000000000000000000000000000000000000000000000000200000000000000000000000000000000000000000000000000000000000001f40000000000000000000000003c7deb6feaeb7a82bde580fb73d8d69c401b219e",
        "nonce": "0x78c",
        "chainId": "0x13882"
      },
      "additionalContracts": [],
      "isFixedGasLimit": false
    },
    {
      "hash": "0xa08361f6c4c92dae4419d4afd5f01510cddca1df5df098c16600192a2db6c643",
      "transactionType": "CALL",
      "contractName": null,
      "contractAddress": "0x8bbdedecc72ea39bd0e399a21273654143ae10ba",
      "function": "setFees(uint8,uint256,address)",
      "arguments": [
        "1",
        "100000000000000000000",
        "0x3c7DeB6FeAEb7a82BDe580Fb73d8d69c401b219e"
      ],
      "transaction": {
        "from": "0xefbbd14082cf2fbcf5badc7ee619f0f4e36d0a5b",
        "to": "0x8bbdedecc72ea39bd0e399a21273654143ae10ba",
        "gas": "0x11a4b",
        "value": "0x0",
        "input": "0xecf441b700000000000000000000000000000000000000000000000000000000000000010000000000000000000000000000000000000000000000056bc75e2d631000000000000000000000000000003c7deb6feaeb7a82bde580fb73d8d69c401b219e",
        "nonce": "0x78d",
        "chainId": "0x13882"
      },
      "additionalContracts": [],
      "isFixedGasLimit": false
    }
  ],
  "receipts": [
    {
      "status": "0x1",
      "cumulativeGasUsed": "0xa2b3",
      "logs": [
        {
          "address": "0x8120a8e0688be6b2c0bb469f871e5e7023ca85eb",
          "topics": [
            "0xf98448b987f1428e0e230e1f3c6e2ce15b5693eaf31827fbd0b1ec4b424ae7cf",
            "0x0000000000000000000000000000000000000000000000000000000000000001",
            "0x000000000000000000000000efbbd14082cf2fbcf5badc7ee619f0f4e36d0a5b"
          ],
          "data": "0x00000000000000000000000000000000000000000000000000000000000000000000000000000000000000000000000000000000000000000000000067659c890000000000000000000000000000000000000000000000000000000000000000",
          "blockHash": "0xff97c968291a579105c9f512a8844feb4c3c46e341286439c57f09436f2830b8",
          "blockNumber": "0xf1c08f",
          "transactionHash": "0xf7aabb5c08eb9009d031baa91936b5c71053e08002126000c326830eee1f8149",
          "transactionIndex": "0x0",
          "logIndex": "0x0",
          "removed": false
        },
        {
          "address": "0x0000000000000000000000000000000000001010",
          "topics": [
            "0x4dfe1bbbcf077ddc3e01291eea2d5c70c2b422b415d95645b9adcfd678cb1d63",
            "0x0000000000000000000000000000000000000000000000000000000000001010",
            "0x000000000000000000000000efbbd14082cf2fbcf5badc7ee619f0f4e36d0a5b",
            "0x0000000000000000000000006ab3d36c46ecfb9b9c0bd51cb1c3da5a2c81cea6"
          ],
          "data": "0x0000000000000000000000000000000000000000000000000003b308ba7d0e00000000000000000000000000000000000000000000000000f12f49087eeb428b00000000000000000000000000000000000000000000042f2b94843233da888c000000000000000000000000000000000000000000000000f12b95ffc46e348b00000000000000000000000000000000000000000000042f2b98373aee57968c",
          "blockHash": "0xff97c968291a579105c9f512a8844feb4c3c46e341286439c57f09436f2830b8",
          "blockNumber": "0xf1c08f",
          "transactionHash": "0xf7aabb5c08eb9009d031baa91936b5c71053e08002126000c326830eee1f8149",
          "transactionIndex": "0x0",
          "logIndex": "0x1",
          "removed": false
        }
      ],
      "logsBloom": "0x00000000080000000000000000000000000000000000000000000000000000000000000000000000000000000000000000008000000000000000000000040000008000080000000000000000000000800000000000040100000100000000000000000000000000000000000000000000000000000000000080000000000000000800000000000000000000000800000008000000000000000000000000000000200000000000000000002000000000000000400000000008008000000000004000000000000000000001000000000000000000010000000000100000000040000000000000000000000000000000000000000000000000000000000000100000",
      "type": "0x2",
      "transactionHash": "0xf7aabb5c08eb9009d031baa91936b5c71053e08002126000c326830eee1f8149",
      "transactionIndex": "0x0",
      "blockHash": "0xff97c968291a579105c9f512a8844feb4c3c46e341286439c57f09436f2830b8",
      "blockNumber": "0xf1c08f",
      "gasUsed": "0xa2b3",
      "effectiveGasPrice": "0x5d21dba0f",
      "from": "0xefbbd14082cf2fbcf5badc7ee619f0f4e36d0a5b",
      "to": "0x8120a8e0688be6b2c0bb469f871e5e7023ca85eb",
      "contractAddress": null
    },
    {
      "status": "0x1",
      "cumulativeGasUsed": "0x1348b",
      "logs": [
        {
          "address": "0x8120a8e0688be6b2c0bb469f871e5e7023ca85eb",
          "topics": [
            "0x9ea6790c7dadfd01c9f8b9762b3682607af2c7e79e05a9f9fdf5580dde949151",
            "0x0000000000000000000000008bbdedecc72ea39bd0e399a21273654143ae10ba",
            "0x0000000000000000000000000000000000000000000000000000000000000001"
          ],
          "data": "0xecf441b700000000000000000000000000000000000000000000000000000000",
          "blockHash": "0xff97c968291a579105c9f512a8844feb4c3c46e341286439c57f09436f2830b8",
          "blockNumber": "0xf1c08f",
          "transactionHash": "0x82dc32368f4ef35b0a176b9e41fbf7c4530a1dedd58492de6d5b979966b1dee7",
          "transactionIndex": "0x1",
          "logIndex": "0x2",
          "removed": false
        },
        {
          "address": "0x0000000000000000000000000000000000001010",
          "topics": [
            "0x4dfe1bbbcf077ddc3e01291eea2d5c70c2b422b415d95645b9adcfd678cb1d63",
            "0x0000000000000000000000000000000000000000000000000000000000001010",
            "0x000000000000000000000000efbbd14082cf2fbcf5badc7ee619f0f4e36d0a5b",
            "0x0000000000000000000000006ab3d36c46ecfb9b9c0bd51cb1c3da5a2c81cea6"
          ],
          "data": "0x000000000000000000000000000000000000000000000000000350ec1f6ef000000000000000000000000000000000000000000000000000f12b95ffc464ac0e00000000000000000000000000000000000000000000042f2b98373aee57968c000000000000000000000000000000000000000000000000f1284513a4f5bc0e00000000000000000000000000000000000000000000042f2b9b88270dc6868c",
          "blockHash": "0xff97c968291a579105c9f512a8844feb4c3c46e341286439c57f09436f2830b8",
          "blockNumber": "0xf1c08f",
          "transactionHash": "0x82dc32368f4ef35b0a176b9e41fbf7c4530a1dedd58492de6d5b979966b1dee7",
          "transactionIndex": "0x1",
          "logIndex": "0x3",
          "removed": false
        }
      ],
      "logsBloom": "0x00000004080080000000000080000000000000000000000000000000000000000000000000000000000000000000000000008000000000000000000000040000008000080000000000000000000000800000000000040100000100000000000000000000000000000000000000000000000000000000000080000000000000000800002000000000000000000800000000000000000000000000000000000000200000000000000000000000000000000000400000000800008000000000004000000000000000000001000000200000000000010000000000100000000040000000000000000000000000000000000000000000000000000000000000100000",
      "type": "0x2",
      "transactionHash": "0x82dc32368f4ef35b0a176b9e41fbf7c4530a1dedd58492de6d5b979966b1dee7",
      "transactionIndex": "0x1",
      "blockHash": "0xff97c968291a579105c9f512a8844feb4c3c46e341286439c57f09436f2830b8",
      "blockNumber": "0xf1c08f",
      "gasUsed": "0x91d8",
      "effectiveGasPrice": "0x5d21dba0f",
      "from": "0xefbbd14082cf2fbcf5badc7ee619f0f4e36d0a5b",
      "to": "0x8120a8e0688be6b2c0bb469f871e5e7023ca85eb",
      "contractAddress": null
    },
    {
      "status": "0x1",
      "cumulativeGasUsed": "0x141de",
      "logs": [
        {
          "address": "0x8120a8e0688be6b2c0bb469f871e5e7023ca85eb",
          "topics": [
            "0x9ea6790c7dadfd01c9f8b9762b3682607af2c7e79e05a9f9fdf5580dde949151",
            "0x000000000000000000000000ab5891221e4a7c96bf32a18bbb3fad34ddbda33f",
            "0x0000000000000000000000000000000000000000000000000000000000000001"
          ],
          "data": "0x69328dec00000000000000000000000000000000000000000000000000000000",
          "blockHash": "0x499697d50798c3c6acac5b0e0c0eb6018dbb4093ea999d91ac7b489084443b5f",
          "blockNumber": "0xf1c090",
          "transactionHash": "0x56d3a7d0ddd63ac3bc39afe840874dbc8f0763737370b58d1e7a13a90ef9d9bc",
          "transactionIndex": "0x1",
          "logIndex": "0x3",
          "removed": false
        },
        {
          "address": "0x0000000000000000000000000000000000001010",
          "topics": [
            "0x4dfe1bbbcf077ddc3e01291eea2d5c70c2b422b415d95645b9adcfd678cb1d63",
            "0x0000000000000000000000000000000000000000000000000000000000001010",
            "0x000000000000000000000000efbbd14082cf2fbcf5badc7ee619f0f4e36d0a5b",
            "0x0000000000000000000000004631753190f2f5a15a7ba172bbac102b7d95fa22"
          ],
          "data": "0x000000000000000000000000000000000000000000000000000350ec1f6ef000000000000000000000000000000000000000000000000000f1284513a4ed30660000000000000000000000000000000000000000000003b024c81978d061293f000000000000000000000000000000000000000000000000f124f427857e40660000000000000000000000000000000000000000000003b024cb6a64efd0193f",
          "blockHash": "0x499697d50798c3c6acac5b0e0c0eb6018dbb4093ea999d91ac7b489084443b5f",
          "blockNumber": "0xf1c090",
          "transactionHash": "0x56d3a7d0ddd63ac3bc39afe840874dbc8f0763737370b58d1e7a13a90ef9d9bc",
          "transactionIndex": "0x1",
          "logIndex": "0x4",
          "removed": false
        }
      ],
      "logsBloom": "0x00000004000080000000000000000000000000002000000000000000000000000000000000000000000000000000000000008000000000000000000040040000008000000000000000000000000000800040000000040100000100000000000000000000080000100000000000000000000000000000000080000000000000000800000000004000000000000800000000000000000000000000000000000000200000000000000000000000000000000000400000000000008000000000004000000000000000000001000000200000000000000000000000100000000040000000000000000000000000000000000000000000000000000000000000100000",
      "type": "0x2",
      "transactionHash": "0x56d3a7d0ddd63ac3bc39afe840874dbc8f0763737370b58d1e7a13a90ef9d9bc",
      "transactionIndex": "0x1",
      "blockHash": "0x499697d50798c3c6acac5b0e0c0eb6018dbb4093ea999d91ac7b489084443b5f",
      "blockNumber": "0xf1c090",
      "gasUsed": "0x91d8",
      "effectiveGasPrice": "0x5d21dba0f",
      "from": "0xefbbd14082cf2fbcf5badc7ee619f0f4e36d0a5b",
      "to": "0x8120a8e0688be6b2c0bb469f871e5e7023ca85eb",
      "contractAddress": null
    },
    {
      "status": "0x1",
      "cumulativeGasUsed": "0x1f622",
      "logs": [
        {
          "address": "0x8120a8e0688be6b2c0bb469f871e5e7023ca85eb",
          "topics": [
            "0x9ea6790c7dadfd01c9f8b9762b3682607af2c7e79e05a9f9fdf5580dde949151",
            "0x00000000000000000000000024c307d602efd1104886c8276524068e166f96ca",
            "0x0000000000000000000000000000000000000000000000000000000000000001"
          ],
          "data": "0x20c5429b00000000000000000000000000000000000000000000000000000000",
          "blockHash": "0x499697d50798c3c6acac5b0e0c0eb6018dbb4093ea999d91ac7b489084443b5f",
          "blockNumber": "0xf1c090",
          "transactionHash": "0x90c6b0fecfa180ea143e35028d6e3c5b297aa8dd7da2b7b13a00165e9b3600c6",
          "transactionIndex": "0x2",
          "logIndex": "0x5",
          "removed": false
        },
        {
          "address": "0x8120a8e0688be6b2c0bb469f871e5e7023ca85eb",
          "topics": [
            "0x9ea6790c7dadfd01c9f8b9762b3682607af2c7e79e05a9f9fdf5580dde949151",
            "0x00000000000000000000000024c307d602efd1104886c8276524068e166f96ca",
            "0x0000000000000000000000000000000000000000000000000000000000000001"
          ],
          "data": "0xb8adaa1100000000000000000000000000000000000000000000000000000000",
          "blockHash": "0x499697d50798c3c6acac5b0e0c0eb6018dbb4093ea999d91ac7b489084443b5f",
          "blockNumber": "0xf1c090",
          "transactionHash": "0x90c6b0fecfa180ea143e35028d6e3c5b297aa8dd7da2b7b13a00165e9b3600c6",
          "transactionIndex": "0x2",
          "logIndex": "0x6",
          "removed": false
        },
        {
          "address": "0x8120a8e0688be6b2c0bb469f871e5e7023ca85eb",
          "topics": [
            "0x9ea6790c7dadfd01c9f8b9762b3682607af2c7e79e05a9f9fdf5580dde949151",
            "0x00000000000000000000000024c307d602efd1104886c8276524068e166f96ca",
            "0x0000000000000000000000000000000000000000000000000000000000000001"
          ],
          "data": "0xb759f95400000000000000000000000000000000000000000000000000000000",
          "blockHash": "0x499697d50798c3c6acac5b0e0c0eb6018dbb4093ea999d91ac7b489084443b5f",
          "blockNumber": "0xf1c090",
          "transactionHash": "0x90c6b0fecfa180ea143e35028d6e3c5b297aa8dd7da2b7b13a00165e9b3600c6",
          "transactionIndex": "0x2",
          "logIndex": "0x7",
          "removed": false
        },
        {
          "address": "0x0000000000000000000000000000000000001010",
          "topics": [
            "0x4dfe1bbbcf077ddc3e01291eea2d5c70c2b422b415d95645b9adcfd678cb1d63",
            "0x0000000000000000000000000000000000000000000000000000000000001010",
            "0x000000000000000000000000efbbd14082cf2fbcf5badc7ee619f0f4e36d0a5b",
            "0x0000000000000000000000004631753190f2f5a15a7ba172bbac102b7d95fa22"
          ],
          "data": "0x00000000000000000000000000000000000000000000000000041948b6ad6800000000000000000000000000000000000000000000000000f124f4278575b4be0000000000000000000000000000000000000000000003b024cb6a64efd0193f000000000000000000000000000000000000000000000000f120dadecec84cbe0000000000000000000000000000000000000000000003b024cf83ada67d813f",
          "blockHash": "0x499697d50798c3c6acac5b0e0c0eb6018dbb4093ea999d91ac7b489084443b5f",
          "blockNumber": "0xf1c090",
          "transactionHash": "0x90c6b0fecfa180ea143e35028d6e3c5b297aa8dd7da2b7b13a00165e9b3600c6",
          "transactionIndex": "0x2",
          "logIndex": "0x8",
          "removed": false
        }
      ],
      "logsBloom": "0x00000004000080000000000000000000000000002000000000000000000000000000000000000000000000000000000000008000000000400000000040040000008000000000000000000000000000800000000000040100000100000000000000020000000000100000000000000000000000000000000080000000000000000800000000000000000000000800000000000000000000000000000000000000200000000000000000000000000000000000400000000000008000000000004000000000000000000001000001200000000000000000000000100000000040000000000000000000000000000000000000000000000000000000000000100000",
      "type": "0x2",
      "transactionHash": "0x90c6b0fecfa180ea143e35028d6e3c5b297aa8dd7da2b7b13a00165e9b3600c6",
      "transactionIndex": "0x2",
      "blockHash": "0x499697d50798c3c6acac5b0e0c0eb6018dbb4093ea999d91ac7b489084443b5f",
      "blockNumber": "0xf1c090",
      "gasUsed": "0xb444",
      "effectiveGasPrice": "0x5d21dba0f",
      "from": "0xefbbd14082cf2fbcf5badc7ee619f0f4e36d0a5b",
      "to": "0x8120a8e0688be6b2c0bb469f871e5e7023ca85eb",
      "contractAddress": null
    },
    {
      "status": "0x1",
      "cumulativeGasUsed": "0x2aa66",
      "logs": [
        {
          "address": "0x8120a8e0688be6b2c0bb469f871e5e7023ca85eb",
          "topics": [
            "0x9ea6790c7dadfd01c9f8b9762b3682607af2c7e79e05a9f9fdf5580dde949151",
            "0x0000000000000000000000003a9b5b820a7a4ebbe065560f51dc91e57ffb6607",
            "0x0000000000000000000000000000000000000000000000000000000000000001"
          ],
          "data": "0xf6eea09800000000000000000000000000000000000000000000000000000000",
          "blockHash": "0x499697d50798c3c6acac5b0e0c0eb6018dbb4093ea999d91ac7b489084443b5f",
          "blockNumber": "0xf1c090",
          "transactionHash": "0x1b02b0d3dc3cc05ff43003ebc3117b93224e83ff5f161950fe60dd6ed542f078",
          "transactionIndex": "0x3",
          "logIndex": "0x9",
          "removed": false
        },
        {
          "address": "0x8120a8e0688be6b2c0bb469f871e5e7023ca85eb",
          "topics": [
            "0x9ea6790c7dadfd01c9f8b9762b3682607af2c7e79e05a9f9fdf5580dde949151",
            "0x0000000000000000000000003a9b5b820a7a4ebbe065560f51dc91e57ffb6607",
            "0x0000000000000000000000000000000000000000000000000000000000000001"
          ],
          "data": "0x74a8f10300000000000000000000000000000000000000000000000000000000",
          "blockHash": "0x499697d50798c3c6acac5b0e0c0eb6018dbb4093ea999d91ac7b489084443b5f",
          "blockNumber": "0xf1c090",
          "transactionHash": "0x1b02b0d3dc3cc05ff43003ebc3117b93224e83ff5f161950fe60dd6ed542f078",
          "transactionIndex": "0x3",
          "logIndex": "0xa",
          "removed": false
        },
        {
          "address": "0x8120a8e0688be6b2c0bb469f871e5e7023ca85eb",
          "topics": [
            "0x9ea6790c7dadfd01c9f8b9762b3682607af2c7e79e05a9f9fdf5580dde949151",
            "0x0000000000000000000000003a9b5b820a7a4ebbe065560f51dc91e57ffb6607",
            "0x0000000000000000000000000000000000000000000000000000000000000001"
          ],
          "data": "0xdaea85c500000000000000000000000000000000000000000000000000000000",
          "blockHash": "0x499697d50798c3c6acac5b0e0c0eb6018dbb4093ea999d91ac7b489084443b5f",
          "blockNumber": "0xf1c090",
          "transactionHash": "0x1b02b0d3dc3cc05ff43003ebc3117b93224e83ff5f161950fe60dd6ed542f078",
          "transactionIndex": "0x3",
          "logIndex": "0xb",
          "removed": false
        },
        {
          "address": "0x0000000000000000000000000000000000001010",
          "topics": [
            "0x4dfe1bbbcf077ddc3e01291eea2d5c70c2b422b415d95645b9adcfd678cb1d63",
            "0x0000000000000000000000000000000000000000000000000000000000001010",
            "0x000000000000000000000000efbbd14082cf2fbcf5badc7ee619f0f4e36d0a5b",
            "0x0000000000000000000000004631753190f2f5a15a7ba172bbac102b7d95fa22"
          ],
          "data": "0x00000000000000000000000000000000000000000000000000041948b6ad6800000000000000000000000000000000000000000000000000f120dadecebdbcc20000000000000000000000000000000000000000000003b024cf83ada67d813f000000000000000000000000000000000000000000000000f11cc196181054c20000000000000000000000000000000000000000000003b024d39cf65d2ae93f",
          "blockHash": "0x499697d50798c3c6acac5b0e0c0eb6018dbb4093ea999d91ac7b489084443b5f",
          "blockNumber": "0xf1c090",
          "transactionHash": "0x1b02b0d3dc3cc05ff43003ebc3117b93224e83ff5f161950fe60dd6ed542f078",
          "transactionIndex": "0x3",
          "logIndex": "0xc",
          "removed": false
        }
      ],
      "logsBloom": "0x00000004000080000000000000000000000000002000000000000000000000000000000000000000000000000000000000008000000000000000000040040000008040000000000000000000000000800000000000040100000100000000000000000000000000100000000000000000000000000000000080000000000000000800000000000000000000000800000000000000000000000000000000000000200000000000000000000000000000000000400000000000008000000000004000000000000000000001000000200000800000000000000000100000000040000000000000000000000000000002000000000000000000000000000000100000",
      "type": "0x2",
      "transactionHash": "0x1b02b0d3dc3cc05ff43003ebc3117b93224e83ff5f161950fe60dd6ed542f078",
      "transactionIndex": "0x3",
      "blockHash": "0x499697d50798c3c6acac5b0e0c0eb6018dbb4093ea999d91ac7b489084443b5f",
      "blockNumber": "0xf1c090",
      "gasUsed": "0xb444",
      "effectiveGasPrice": "0x5d21dba0f",
      "from": "0xefbbd14082cf2fbcf5badc7ee619f0f4e36d0a5b",
      "to": "0x8120a8e0688be6b2c0bb469f871e5e7023ca85eb",
      "contractAddress": null
    },
    {
      "status": "0x1",
      "cumulativeGasUsed": "0x34d19",
      "logs": [
        {
          "address": "0x8120a8e0688be6b2c0bb469f871e5e7023ca85eb",
          "topics": [
            "0xf98448b987f1428e0e230e1f3c6e2ce15b5693eaf31827fbd0b1ec4b424ae7cf",
            "0x0000000000000000000000000000000000000000000000000000000000000002",
            "0x000000000000000000000000efbbd14082cf2fbcf5badc7ee619f0f4e36d0a5b"
          ],
          "data": "0x00000000000000000000000000000000000000000000000000000000000000000000000000000000000000000000000000000000000000000000000067659c8d0000000000000000000000000000000000000000000000000000000000000000",
          "blockHash": "0x499697d50798c3c6acac5b0e0c0eb6018dbb4093ea999d91ac7b489084443b5f",
          "blockNumber": "0xf1c090",
          "transactionHash": "0x4fcb49cb11b5a24c1766c4ad56e55536ccf61a247946fbe50866d49db713b5f6",
          "transactionIndex": "0x4",
          "logIndex": "0xd",
          "removed": false
        },
        {
          "address": "0x0000000000000000000000000000000000001010",
          "topics": [
            "0x4dfe1bbbcf077ddc3e01291eea2d5c70c2b422b415d95645b9adcfd678cb1d63",
            "0x0000000000000000000000000000000000000000000000000000000000001010",
            "0x000000000000000000000000efbbd14082cf2fbcf5badc7ee619f0f4e36d0a5b",
            "0x0000000000000000000000004631753190f2f5a15a7ba172bbac102b7d95fa22"
          ],
          "data": "0x0000000000000000000000000000000000000000000000000003b308ba7d0e00000000000000000000000000000000000000000000000000f11cc1961805c4c60000000000000000000000000000000000000000000003b024d39cf65d2ae93f000000000000000000000000000000000000000000000000f1190e8d5d88b6c60000000000000000000000000000000000000000000003b024d74fff17a7f73f",
          "blockHash": "0x499697d50798c3c6acac5b0e0c0eb6018dbb4093ea999d91ac7b489084443b5f",
          "blockNumber": "0xf1c090",
          "transactionHash": "0x4fcb49cb11b5a24c1766c4ad56e55536ccf61a247946fbe50866d49db713b5f6",
          "transactionIndex": "0x4",
          "logIndex": "0xe",
          "removed": false
        }
      ],
      "logsBloom": "0x04000000000000000000000000000000000000002000000000000000000000000000000000000000000000000000000000008000000000000000000040000000008000000000000000000000000000800000000000000100000100000000000000000000000000100000000000000000000000000000000080000000000000000800000000000000000000000800000008000000000000000000000000000000200000000000000000002100000000000000400000000008008000000000004000000000000000000001000000000000000000000000000000100000000000000000000000000000000000000000000000000000008000000000000000100000",
      "type": "0x2",
      "transactionHash": "0x4fcb49cb11b5a24c1766c4ad56e55536ccf61a247946fbe50866d49db713b5f6",
      "transactionIndex": "0x4",
      "blockHash": "0x499697d50798c3c6acac5b0e0c0eb6018dbb4093ea999d91ac7b489084443b5f",
      "blockNumber": "0xf1c090",
      "gasUsed": "0xa2b3",
      "effectiveGasPrice": "0x5d21dba0f",
      "from": "0xefbbd14082cf2fbcf5badc7ee619f0f4e36d0a5b",
      "to": "0x8120a8e0688be6b2c0bb469f871e5e7023ca85eb",
      "contractAddress": null
    },
    {
      "status": "0x1",
      "cumulativeGasUsed": "0x3f027",
      "logs": [
        {
          "address": "0x8120a8e0688be6b2c0bb469f871e5e7023ca85eb",
          "topics": [
            "0x9ea6790c7dadfd01c9f8b9762b3682607af2c7e79e05a9f9fdf5580dde949151",
            "0x00000000000000000000000020b61a0908d87574bbd2c47bd32af11438c52d9d",
            "0x0000000000000000000000000000000000000000000000000000000000000002"
          ],
          "data": "0xdaea85c500000000000000000000000000000000000000000000000000000000",
          "blockHash": "0x499697d50798c3c6acac5b0e0c0eb6018dbb4093ea999d91ac7b489084443b5f",
          "blockNumber": "0xf1c090",
          "transactionHash": "0x22e257dd1f0ab001192aa530caaed16570e02cbf99e80920ba69ab2880eab247",
          "transactionIndex": "0x5",
          "logIndex": "0xf",
          "removed": false
        },
        {
          "address": "0x8120a8e0688be6b2c0bb469f871e5e7023ca85eb",
          "topics": [
            "0x9ea6790c7dadfd01c9f8b9762b3682607af2c7e79e05a9f9fdf5580dde949151",
            "0x00000000000000000000000020b61a0908d87574bbd2c47bd32af11438c52d9d",
            "0x0000000000000000000000000000000000000000000000000000000000000002"
          ],
          "data": "0xab0da5a900000000000000000000000000000000000000000000000000000000",
          "blockHash": "0x499697d50798c3c6acac5b0e0c0eb6018dbb4093ea999d91ac7b489084443b5f",
          "blockNumber": "0xf1c090",
          "transactionHash": "0x22e257dd1f0ab001192aa530caaed16570e02cbf99e80920ba69ab2880eab247",
          "transactionIndex": "0x5",
          "logIndex": "0x10",
          "removed": false
        },
        {
          "address": "0x0000000000000000000000000000000000001010",
          "topics": [
            "0x4dfe1bbbcf077ddc3e01291eea2d5c70c2b422b415d95645b9adcfd678cb1d63",
            "0x0000000000000000000000000000000000000000000000000000000000001010",
            "0x000000000000000000000000efbbd14082cf2fbcf5badc7ee619f0f4e36d0a5b",
            "0x0000000000000000000000004631753190f2f5a15a7ba172bbac102b7d95fa22"
          ],
          "data": "0x0000000000000000000000000000000000000000000000000003b51a6b0e2c00000000000000000000000000000000000000000000000000f1190e8d5d7f2e490000000000000000000000000000000000000000000003b024d74fff17a7f73f000000000000000000000000000000000000000000000000f1155972f27102490000000000000000000000000000000000000000000003b024db051982b6233f",
          "blockHash": "0x499697d50798c3c6acac5b0e0c0eb6018dbb4093ea999d91ac7b489084443b5f",
          "blockNumber": "0xf1c090",
          "transactionHash": "0x22e257dd1f0ab001192aa530caaed16570e02cbf99e80920ba69ab2880eab247",
          "transactionIndex": "0x5",
          "logIndex": "0x11",
          "removed": false
        }
      ],
      "logsBloom": "0x04000004000080000000000000000000000000002000000000000000000000000000000000000000000000000000000000008000000000000000000040000000008000800000000000000000000000800000000000000100000100000000000000000000000000100000000000000000000000000000000080000000000000000800000000000000000000000800000000000020000000000000000000000000200000000000000000000100000000000000400000000000008000000000004000000000000000000001000000200000000000000000000000100000080000000000000000000000000000000000000000000000008000000000000000100000",
      "type": "0x2",
      "transactionHash": "0x22e257dd1f0ab001192aa530caaed16570e02cbf99e80920ba69ab2880eab247",
      "transactionIndex": "0x5",
      "blockHash": "0x499697d50798c3c6acac5b0e0c0eb6018dbb4093ea999d91ac7b489084443b5f",
      "blockNumber": "0xf1c090",
      "gasUsed": "0xa30e",
      "effectiveGasPrice": "0x5d21dba0f",
      "from": "0xefbbd14082cf2fbcf5badc7ee619f0f4e36d0a5b",
      "to": "0x8120a8e0688be6b2c0bb469f871e5e7023ca85eb",
      "contractAddress": null
    },
    {
      "status": "0x1",
      "cumulativeGasUsed": "0x492da",
      "logs": [
        {
          "address": "0x8120a8e0688be6b2c0bb469f871e5e7023ca85eb",
          "topics": [
            "0xf98448b987f1428e0e230e1f3c6e2ce15b5693eaf31827fbd0b1ec4b424ae7cf",
            "0x0000000000000000000000000000000000000000000000000000000000000004",
            "0x0000000000000000000000006432e643e2c12dd3a72ee92c6d1e72bf8dd1aeb6"
          ],
          "data": "0x00000000000000000000000000000000000000000000000000000000000000000000000000000000000000000000000000000000000000000000000067659c8d0000000000000000000000000000000000000000000000000000000000000000",
          "blockHash": "0x499697d50798c3c6acac5b0e0c0eb6018dbb4093ea999d91ac7b489084443b5f",
          "blockNumber": "0xf1c090",
          "transactionHash": "0x3ee4d2cfeef0d7219c7c44274e35789e3d6d0f954913f2c91c95f20b347c8106",
          "transactionIndex": "0x6",
          "logIndex": "0x12",
          "removed": false
        },
        {
          "address": "0x0000000000000000000000000000000000001010",
          "topics": [
            "0x4dfe1bbbcf077ddc3e01291eea2d5c70c2b422b415d95645b9adcfd678cb1d63",
            "0x0000000000000000000000000000000000000000000000000000000000001010",
            "0x000000000000000000000000efbbd14082cf2fbcf5badc7ee619f0f4e36d0a5b",
            "0x0000000000000000000000004631753190f2f5a15a7ba172bbac102b7d95fa22"
          ],
          "data": "0x0000000000000000000000000000000000000000000000000003b308ba7d0e00000000000000000000000000000000000000000000000000f1155972f26774770000000000000000000000000000000000000000000003b024db051982b6233f000000000000000000000000000000000000000000000000f111a66a37ea66770000000000000000000000000000000000000000000003b024deb8223d33313f",
          "blockHash": "0x499697d50798c3c6acac5b0e0c0eb6018dbb4093ea999d91ac7b489084443b5f",
          "blockNumber": "0xf1c090",
          "transactionHash": "0x3ee4d2cfeef0d7219c7c44274e35789e3d6d0f954913f2c91c95f20b347c8106",
          "transactionIndex": "0x6",
          "logIndex": "0x13",
          "removed": false
        }
      ],
      "logsBloom": "0x0000000200000000000000000000000000001000200000000000000000000000000000000000000000000000000000000000800000000000000000004000000000800000000000000000000000000080000000000000010000010000000000000800000000000010100000000000000000000000000000008000000000000000080000000000000000000000080000000800000000000000000000000000000020000000000000000000200000000000000040000000000800a000000000004000000000000000000001000000000000000000008000000000100000000000000000000000000000000000000000000000000000000000000000000000100000",
      "type": "0x2",
      "transactionHash": "0x3ee4d2cfeef0d7219c7c44274e35789e3d6d0f954913f2c91c95f20b347c8106",
      "transactionIndex": "0x6",
      "blockHash": "0x499697d50798c3c6acac5b0e0c0eb6018dbb4093ea999d91ac7b489084443b5f",
      "blockNumber": "0xf1c090",
      "gasUsed": "0xa2b3",
      "effectiveGasPrice": "0x5d21dba0f",
      "from": "0xefbbd14082cf2fbcf5badc7ee619f0f4e36d0a5b",
      "to": "0x8120a8e0688be6b2c0bb469f871e5e7023ca85eb",
      "contractAddress": null
    },
    {
      "status": "0x1",
      "cumulativeGasUsed": "0x5358d",
      "logs": [
        {
          "address": "0x8120a8e0688be6b2c0bb469f871e5e7023ca85eb",
          "topics": [
            "0xf98448b987f1428e0e230e1f3c6e2ce15b5693eaf31827fbd0b1ec4b424ae7cf",
            "0x0000000000000000000000000000000000000000000000000000000000000004",
            "0x00000000000000000000000080c21ddde0fdc8485e48b2f9981f5ed2bd76c2f0"
          ],
          "data": "0x00000000000000000000000000000000000000000000000000000000000000000000000000000000000000000000000000000000000000000000000067659c8d0000000000000000000000000000000000000000000000000000000000000000",
          "blockHash": "0x499697d50798c3c6acac5b0e0c0eb6018dbb4093ea999d91ac7b489084443b5f",
          "blockNumber": "0xf1c090",
          "transactionHash": "0xc907e157928792c18718864b37d3ed22ea282d85bb2d854de95a8716146e5909",
          "transactionIndex": "0x7",
          "logIndex": "0x14",
          "removed": false
        },
        {
          "address": "0x0000000000000000000000000000000000001010",
          "topics": [
            "0x4dfe1bbbcf077ddc3e01291eea2d5c70c2b422b415d95645b9adcfd678cb1d63",
            "0x0000000000000000000000000000000000000000000000000000000000001010",
            "0x000000000000000000000000efbbd14082cf2fbcf5badc7ee619f0f4e36d0a5b",
            "0x0000000000000000000000004631753190f2f5a15a7ba172bbac102b7d95fa22"
          ],
          "data": "0x0000000000000000000000000000000000000000000000000003b308ba7d0e00000000000000000000000000000000000000000000000000f111a66a37e0ddfa0000000000000000000000000000000000000000000003b024deb8223d33313f000000000000000000000000000000000000000000000000f10df3617d63cffa0000000000000000000000000000000000000000000003b024e26b2af7b03f3f",
          "blockHash": "0x499697d50798c3c6acac5b0e0c0eb6018dbb4093ea999d91ac7b489084443b5f",
          "blockNumber": "0xf1c090",
          "transactionHash": "0xc907e157928792c18718864b37d3ed22ea282d85bb2d854de95a8716146e5909",
          "transactionIndex": "0x7",
          "logIndex": "0x15",
          "removed": false
        }
      ],
      "logsBloom": "0x0000000000000000000000000000000000000000200000000000002000000000000000000000000000000000000000000000800000000000000000004000000000800000100000000000000000000080000000000000010000010000000000000800000000000010000000000000000000000000000000008000000000000000080000000800000000000000080000000800000000000000000000000000000020000000000000000000200000000000000040000000000800a000000000004000000000000000000001000000000000000000008000000000100000000000000000000000000000000000000000000000000000000000000000000000100000",
      "type": "0x2",
      "transactionHash": "0xc907e157928792c18718864b37d3ed22ea282d85bb2d854de95a8716146e5909",
      "transactionIndex": "0x7",
      "blockHash": "0x499697d50798c3c6acac5b0e0c0eb6018dbb4093ea999d91ac7b489084443b5f",
      "blockNumber": "0xf1c090",
      "gasUsed": "0xa2b3",
      "effectiveGasPrice": "0x5d21dba0f",
      "from": "0xefbbd14082cf2fbcf5badc7ee619f0f4e36d0a5b",
      "to": "0x8120a8e0688be6b2c0bb469f871e5e7023ca85eb",
      "contractAddress": null
    },
    {
      "status": "0x1",
      "cumulativeGasUsed": "0x248986",
      "logs": [
        {
          "address": "0x8120a8e0688be6b2c0bb469f871e5e7023ca85eb",
          "topics": [
            "0x9ea6790c7dadfd01c9f8b9762b3682607af2c7e79e05a9f9fdf5580dde949151",
            "0x000000000000000000000000466aea1c8475293be76eb682c553f9e8871b2502",
            "0x0000000000000000000000000000000000000000000000000000000000000004"
          ],
          "data": "0x4bbc170a00000000000000000000000000000000000000000000000000000000",
          "blockHash": "0xf70b5ed60892fc9599cc6edf2e007c974e2942873df55525da872a2ce429ea4a",
          "blockNumber": "0xf1c091",
          "transactionHash": "0x65e4c73e58a1061eaa1112f2ac7c9549a3dd850119e5133553c84d0e40cca86a",
          "transactionIndex": "0x2",
          "logIndex": "0x4",
          "removed": false
        },
        {
          "address": "0x8120a8e0688be6b2c0bb469f871e5e7023ca85eb",
          "topics": [
            "0x9ea6790c7dadfd01c9f8b9762b3682607af2c7e79e05a9f9fdf5580dde949151",
            "0x000000000000000000000000466aea1c8475293be76eb682c553f9e8871b2502",
            "0x0000000000000000000000000000000000000000000000000000000000000004"
          ],
          "data": "0x15f4150100000000000000000000000000000000000000000000000000000000",
          "blockHash": "0xf70b5ed60892fc9599cc6edf2e007c974e2942873df55525da872a2ce429ea4a",
          "blockNumber": "0xf1c091",
          "transactionHash": "0x65e4c73e58a1061eaa1112f2ac7c9549a3dd850119e5133553c84d0e40cca86a",
          "transactionIndex": "0x2",
          "logIndex": "0x5",
          "removed": false
        },
        {
          "address": "0x8120a8e0688be6b2c0bb469f871e5e7023ca85eb",
          "topics": [
            "0x9ea6790c7dadfd01c9f8b9762b3682607af2c7e79e05a9f9fdf5580dde949151",
            "0x000000000000000000000000466aea1c8475293be76eb682c553f9e8871b2502",
            "0x0000000000000000000000000000000000000000000000000000000000000004"
          ],
          "data": "0x9e96a26000000000000000000000000000000000000000000000000000000000",
          "blockHash": "0xf70b5ed60892fc9599cc6edf2e007c974e2942873df55525da872a2ce429ea4a",
          "blockNumber": "0xf1c091",
          "transactionHash": "0x65e4c73e58a1061eaa1112f2ac7c9549a3dd850119e5133553c84d0e40cca86a",
          "transactionIndex": "0x2",
          "logIndex": "0x6",
          "removed": false
        },
        {
          "address": "0x0000000000000000000000000000000000001010",
          "topics": [
            "0x4dfe1bbbcf077ddc3e01291eea2d5c70c2b422b415d95645b9adcfd678cb1d63",
            "0x0000000000000000000000000000000000000000000000000000000000001010",
            "0x000000000000000000000000efbbd14082cf2fbcf5badc7ee619f0f4e36d0a5b",
            "0x0000000000000000000000004631753190f2f5a15a7ba172bbac102b7d95fa22"
          ],
          "data": "0x00000000000000000000000000000000000000000000000000041948b6ad6800000000000000000000000000000000000000000000000000f10df3617d5a477d0000000000000000000000000000000000000000000003b025eb3dafd66d80d3000000000000000000000000000000000000000000000000f109da18c6acdf7d0000000000000000000000000000000000000000000003b025ef56f88d1ae8d3",
          "blockHash": "0xf70b5ed60892fc9599cc6edf2e007c974e2942873df55525da872a2ce429ea4a",
          "blockNumber": "0xf1c091",
          "transactionHash": "0x65e4c73e58a1061eaa1112f2ac7c9549a3dd850119e5133553c84d0e40cca86a",
          "transactionIndex": "0x2",
          "logIndex": "0x7",
          "removed": false
        }
      ],
      "logsBloom": "0x0000000400008000040000000000000000000000200000000000000000000000000000000000000000000000000000000000800000001000000000004000000000800000000000000000000000000080000000000000010000010000000000000800000040000010000000000000000000000000000000008000000000000000080000000000000000000000080000000000000000000000000000000000000020000000000000000000000000000000000040000000000000a000000000004000000000000000000001000000200000000000008000000000100000000000000000000000000000000000000000000000000000000000000000000000100000",
      "type": "0x2",
      "transactionHash": "0x65e4c73e58a1061eaa1112f2ac7c9549a3dd850119e5133553c84d0e40cca86a",
      "transactionIndex": "0x2",
      "blockHash": "0xf70b5ed60892fc9599cc6edf2e007c974e2942873df55525da872a2ce429ea4a",
      "blockNumber": "0xf1c091",
      "gasUsed": "0xb444",
      "effectiveGasPrice": "0x5d21dba0f",
      "from": "0xefbbd14082cf2fbcf5badc7ee619f0f4e36d0a5b",
      "to": "0x8120a8e0688be6b2c0bb469f871e5e7023ca85eb",
      "contractAddress": null
    },
    {
      "status": "0x1",
      "cumulativeGasUsed": "0x2555c1",
      "logs": [
        {
          "address": "0x8bbdedecc72ea39bd0e399a21273654143ae10ba",
          "topics": [
            "0xfbbd6e9cc51f124b05f08f20e9aef57fb26fc9a927be06212c59506610581335",
            "0x0000000000000000000000003c7deb6feaeb7a82bde580fb73d8d69c401b219e",
            "0x000000000000000000000000efbbd14082cf2fbcf5badc7ee619f0f4e36d0a5b"
          ],
          "data": "0x00000000000000000000000000000000000000000000000000000000000001f40000000000000000000000000000000000000000000000000000000000000002",
          "blockHash": "0xf70b5ed60892fc9599cc6edf2e007c974e2942873df55525da872a2ce429ea4a",
          "blockNumber": "0xf1c091",
          "transactionHash": "0x23ce9059d1f7cc2ca734d650491a674b78680f4b55f54d9c762b04a41938f946",
          "transactionIndex": "0x3",
          "logIndex": "0x8",
          "removed": false
        },
        {
          "address": "0x0000000000000000000000000000000000001010",
          "topics": [
            "0x4dfe1bbbcf077ddc3e01291eea2d5c70c2b422b415d95645b9adcfd678cb1d63",
            "0x0000000000000000000000000000000000000000000000000000000000001010",
            "0x000000000000000000000000efbbd14082cf2fbcf5badc7ee619f0f4e36d0a5b",
            "0x0000000000000000000000004631753190f2f5a15a7ba172bbac102b7d95fa22"
          ],
          "data": "0x0000000000000000000000000000000000000000000000000004a4c71d11de00000000000000000000000000000000000000000000000000f109da18c6a24f810000000000000000000000000000000000000000000003b025ef56f88d1ae8d3000000000000000000000000000000000000000000000000f1053551a99071810000000000000000000000000000000000000000000003b025f3fbbfaa2cc6d3",
          "blockHash": "0xf70b5ed60892fc9599cc6edf2e007c974e2942873df55525da872a2ce429ea4a",
          "blockNumber": "0xf1c091",
          "transactionHash": "0x23ce9059d1f7cc2ca734d650491a674b78680f4b55f54d9c762b04a41938f946",
          "transactionIndex": "0x3",
          "logIndex": "0x9",
          "removed": false
        }
      ],
      "logsBloom": "0x00000000000000000000800000000000000000002000000000800000000000000000000000000000000000002000800000008000000000000000000040000000008000000000000000000000000000800000000000000020000100000000000000001000000000500000000000000000000000000000000080000000004000000800000000000000000000000000000000000000000000000000000000000000200000000000000000000000000000000000400000000000000000000000004000000000000002000001000000000000000000000000000000100000000000000000000000000000000000000000000000000000000000000000000000100000",
      "type": "0x2",
      "transactionHash": "0x23ce9059d1f7cc2ca734d650491a674b78680f4b55f54d9c762b04a41938f946",
      "transactionIndex": "0x3",
      "blockHash": "0xf70b5ed60892fc9599cc6edf2e007c974e2942873df55525da872a2ce429ea4a",
      "blockNumber": "0xf1c091",
      "gasUsed": "0xcc3b",
      "effectiveGasPrice": "0x5d21dba0f",
      "from": "0xefbbd14082cf2fbcf5badc7ee619f0f4e36d0a5b",
      "to": "0x8bbdedecc72ea39bd0e399a21273654143ae10ba",
      "contractAddress": null
    },
    {
      "status": "0x1",
      "cumulativeGasUsed": "0x262221",
      "logs": [
        {
          "address": "0x8bbdedecc72ea39bd0e399a21273654143ae10ba",
          "topics": [
            "0xfbbd6e9cc51f124b05f08f20e9aef57fb26fc9a927be06212c59506610581335",
            "0x0000000000000000000000003c7deb6feaeb7a82bde580fb73d8d69c401b219e",
            "0x000000000000000000000000efbbd14082cf2fbcf5badc7ee619f0f4e36d0a5b"
          ],
          "data": "0x0000000000000000000000000000000000000000000000056bc75e2d631000000000000000000000000000000000000000000000000000000000000000000001",
          "blockHash": "0xf70b5ed60892fc9599cc6edf2e007c974e2942873df55525da872a2ce429ea4a",
          "blockNumber": "0xf1c091",
          "transactionHash": "0xa08361f6c4c92dae4419d4afd5f01510cddca1df5df098c16600192a2db6c643",
          "transactionIndex": "0x4",
          "logIndex": "0xa",
          "removed": false
        },
        {
          "address": "0x0000000000000000000000000000000000001010",
          "topics": [
            "0x4dfe1bbbcf077ddc3e01291eea2d5c70c2b422b415d95645b9adcfd678cb1d63",
            "0x0000000000000000000000000000000000000000000000000000000000001010",
            "0x000000000000000000000000efbbd14082cf2fbcf5badc7ee619f0f4e36d0a5b",
            "0x0000000000000000000000004631753190f2f5a15a7ba172bbac102b7d95fa22"
          ],
          "data": "0x0000000000000000000000000000000000000000000000000004a59e7b5dc000000000000000000000000000000000000000000000000000f1053551a9847a0c0000000000000000000000000000000000000000000003b025f3fbbfaa2cc6d3000000000000000000000000000000000000000000000000f1008fb32e26ba0c0000000000000000000000000000000000000000000003b025f8a15e258a86d3",
          "blockHash": "0xf70b5ed60892fc9599cc6edf2e007c974e2942873df55525da872a2ce429ea4a",
          "blockNumber": "0xf1c091",
          "transactionHash": "0xa08361f6c4c92dae4419d4afd5f01510cddca1df5df098c16600192a2db6c643",
          "transactionIndex": "0x4",
          "logIndex": "0xb",
          "removed": false
        }
      ],
      "logsBloom": "0x00000000000000000000800000000000000000002000000000800000000000000000000000000000000000002000800000008000000000000000000040000000008000000000000000000000000000800000000000000020000100000000000000001000000000500000000000000000000000000000000080000000004000000800000000000000000000000000000000000000000000000000000000000000200000000000000000000000000000000000400000000000000000000000004000000000000002000001000000000000000000000000000000100000000000000000000000000000000000000000000000000000000000000000000000100000",
      "type": "0x2",
      "transactionHash": "0xa08361f6c4c92dae4419d4afd5f01510cddca1df5df098c16600192a2db6c643",
      "transactionIndex": "0x4",
      "blockHash": "0xf70b5ed60892fc9599cc6edf2e007c974e2942873df55525da872a2ce429ea4a",
      "blockNumber": "0xf1c091",
      "gasUsed": "0xcc60",
      "effectiveGasPrice": "0x5d21dba0f",
      "from": "0xefbbd14082cf2fbcf5badc7ee619f0f4e36d0a5b",
      "to": "0x8bbdedecc72ea39bd0e399a21273654143ae10ba",
      "contractAddress": null
    }
  ],
  "libraries": [],
  "pending": [],
  "returns": {},
  "timestamp": 1734712463,
  "chain": 80002,
  "commit": "66cd11d"
}