{
  "transactions": [
    {
      "hash": "0x22667eae83606eb9c545c2fc91b01761292c2d25517a2952245225d27643a0ae",
      "transactionType": "CALL",
      "contractName": null,
      "contractAddress": "0x29b4362ae4c4a4e444d9f7612c785e980162bec2",
      "function": "grantRole(uint64,address,uint32)",
      "arguments": [
        "1",
        "0xEFBBD14082cF2FbCf5Badc7ee619F0f4e36D0A5B",
        "0"
      ],
      "transaction": {
        "from": "0xefbbd14082cf2fbcf5badc7ee619f0f4e36d0a5b",
        "to": "0x29b4362ae4c4a4e444d9f7612c785e980162bec2",
        "gas": "0x13bcf",
        "value": "0x0",
        "input": "0x25c471a00000000000000000000000000000000000000000000000000000000000000001000000000000000000000000efbbd14082cf2fbcf5badc7ee619f0f4e36d0a5b0000000000000000000000000000000000000000000000000000000000000000",
        "nonce": "0x509",
        "chainId": "0x13882"
      },
      "additionalContracts": [],
      "isFixedGasLimit": false
    },
    {
      "hash": "0xdbf7d4bb3ba10fb7964c4e2e27bea905a55e960401506710b438904cfc67b3d2",
      "transactionType": "CALL",
      "contractName": null,
      "contractAddress": "0x29b4362ae4c4a4e444d9f7612c785e980162bec2",
      "function": "setTargetFunctionRole(address,bytes4[],uint64)",
      "arguments": [
        "0x3bD140360b05b4AC1a77E78A9F8DE70B82b03f45",
        "[0xecf441b7]",
        "1"
      ],
      "transaction": {
        "from": "0xefbbd14082cf2fbcf5badc7ee619f0f4e36d0a5b",
        "to": "0x29b4362ae4c4a4e444d9f7612c785e980162bec2",
        "gas": "0x134d0",
        "value": "0x0",
        "input": "0x08d6122d0000000000000000000000003bd140360b05b4ac1a77e78a9f8de70b82b03f45000000000000000000000000000000000000000000000000000000000000006000000000000000000000000000000000000000000000000000000000000000010000000000000000000000000000000000000000000000000000000000000001ecf441b700000000000000000000000000000000000000000000000000000000",
        "nonce": "0x50a",
        "chainId": "0x13882"
      },
      "additionalContracts": [],
      "isFixedGasLimit": false
    },
    {
      "hash": "0x1851e489d7eb3ab754d2c2b1ed9922ac43752777ceb86e02ba2bb0a8f99584d7",
      "transactionType": "CALL",
      "contractName": null,
      "contractAddress": "0x29b4362ae4c4a4e444d9f7612c785e980162bec2",
      "function": "setTargetFunctionRole(address,bytes4[],uint64)",
      "arguments": [
        "0x8F7C1fA5caBE6A2e8018E4334fD77e8CaE7b76b8",
        "[0x06af20da]",
        "1"
      ],
      "transaction": {
        "from": "0xefbbd14082cf2fbcf5badc7ee619f0f4e36d0a5b",
        "to": "0x29b4362ae4c4a4e444d9f7612c785e980162bec2",
        "gas": "0x134d0",
        "value": "0x0",
        "input": "0x08d6122d0000000000000000000000008f7c1fa5cabe6a2e8018e4334fd77e8cae7b76b800000000000000000000000000000000000000000000000000000000000000600000000000000000000000000000000000000000000000000000000000000001000000000000000000000000000000000000000000000000000000000000000106af20da00000000000000000000000000000000000000000000000000000000",
        "nonce": "0x50b",
        "chainId": "0x13882"
      },
      "additionalContracts": [],
      "isFixedGasLimit": false
    },
    {
      "hash": "0xadcb1b7486801093ec5a6f7870b8a7bf970d2708801febc78167216a499b3a45",
      "transactionType": "CALL",
      "contractName": null,
      "contractAddress": "0x29b4362ae4c4a4e444d9f7612c785e980162bec2",
      "function": "setTargetFunctionRole(address,bytes4[],uint64)",
      "arguments": [
        "0x7125aCF7C7e3f42FA34E1d663cEa79c6D8EF963C",
        "[0xdaea85c5, 0xab0da5a9]",
        "1"
      ],
      "transaction": {
        "from": "0xefbbd14082cf2fbcf5badc7ee619f0f4e36d0a5b",
        "to": "0x29b4362ae4c4a4e444d9f7612c785e980162bec2",
        "gas": "0x1b7f5",
        "value": "0x0",
        "input": "0x08d6122d0000000000000000000000007125acf7c7e3f42fa34e1d663cea79c6d8ef963c000000000000000000000000000000000000000000000000000000000000006000000000000000000000000000000000000000000000000000000000000000010000000000000000000000000000000000000000000000000000000000000002daea85c500000000000000000000000000000000000000000000000000000000ab0da5a900000000000000000000000000000000000000000000000000000000",
        "nonce": "0x50c",
        "chainId": "0x13882"
      },
      "additionalContracts": [],
      "isFixedGasLimit": false
    },
    {
      "hash": "0x14e41fb7a224bbe68707cf3db95038ad9de764eff5c8f7e09aad5e545e90019c",
      "transactionType": "CALL",
      "contractName": null,
      "contractAddress": "0x29b4362ae4c4a4e444d9f7612c785e980162bec2",
      "function": "setTargetFunctionRole(address,bytes4[],uint64)",
      "arguments": [
        "0x5Ea6fd3E965C284F5540E1d683e9e18183108BC3",
        "[0x20c5429b, 0xb8adaa11, 0xb759f954]",
        "1"
      ],
      "transaction": {
        "from": "0xefbbd14082cf2fbcf5badc7ee619f0f4e36d0a5b",
        "to": "0x29b4362ae4c4a4e444d9f7612c785e980162bec2",
        "gas": "0x23b19",
        "value": "0x0",
        "input": "0x08d6122d0000000000000000000000005ea6fd3e965c284f5540e1d683e9e18183108bc300000000000000000000000000000000000000000000000000000000000000600000000000000000000000000000000000000000000000000000000000000001000000000000000000000000000000000000000000000000000000000000000320c5429b00000000000000000000000000000000000000000000000000000000b8adaa1100000000000000000000000000000000000000000000000000000000b759f95400000000000000000000000000000000000000000000000000000000",
        "nonce": "0x50d",
        "chainId": "0x13882"
      },
      "additionalContracts": [],
      "isFixedGasLimit": false
    },
    {
      "hash": "0xfdd93311b40dda5f16dd579a65fc306446002469fb8ac7fac2655de735972466",
      "transactionType": "CALL",
      "contractName": null,
      "contractAddress": "0x29b4362ae4c4a4e444d9f7612c785e980162bec2",
      "function": "setTargetFunctionRole(address,bytes4[],uint64)",
      "arguments": [
        "0x259dCAa776FC39566c5dfB5987B88E24134DF271",
        "[0xf6eea098, 0x74a8f103, 0xdaea85c5]",
        "1"
      ],
      "transaction": {
        "from": "0xefbbd14082cf2fbcf5badc7ee619f0f4e36d0a5b",
        "to": "0x29b4362ae4c4a4e444d9f7612c785e980162bec2",
        "gas": "0x23b19",
        "value": "0x0",
        "input": "0x08d6122d000000000000000000000000259dcaa776fc39566c5dfb5987b88e24134df271000000000000000000000000000000000000000000000000000000000000006000000000000000000000000000000000000000000000000000000000000000010000000000000000000000000000000000000000000000000000000000000003f6eea0980000000000000000000000000000000000000000000000000000000074a8f10300000000000000000000000000000000000000000000000000000000daea85c500000000000000000000000000000000000000000000000000000000",
        "nonce": "0x50e",
        "chainId": "0x13882"
      },
      "additionalContracts": [],
      "isFixedGasLimit": false
    },
    {
      "hash": "0x325a16c65025063542429ce86f103bf68d9d2a738f7209af19588973ecd58eca",
      "transactionType": "CALL",
      "contractName": null,
      "contractAddress": "0x3bd140360b05b4ac1a77e78a9f8de70b82b03f45",
      "function": "setFees(uint8,uint256,address)",
      "arguments": [
        "2",
        "500",
        "0x045d1FC9240B3670cB54444f93Ad3E7b1fbBCe75"
      ],
      "transaction": {
        "from": "0xefbbd14082cf2fbcf5badc7ee619f0f4e36d0a5b",
        "to": "0x3bd140360b05b4ac1a77e78a9f8de70b82b03f45",
        "gas": "0x30cce",
        "value": "0x0",
        "input": "0xecf441b7000000000000000000000000000000000000000000000000000000000000000200000000000000000000000000000000000000000000000000000000000001f4000000000000000000000000045d1fc9240b3670cb54444f93ad3e7b1fbbce75",
        "nonce": "0x50f",
        "chainId": "0x13882"
      },
      "additionalContracts": [],
      "isFixedGasLimit": false
    },
    {
      "hash": "0xecdb52e0f04ce06e1870c64ddc5c57a822ff6fa7becef14e1209436c909a3a88",
      "transactionType": "CALL",
      "contractName": null,
      "contractAddress": "0x3bd140360b05b4ac1a77e78a9f8de70b82b03f45",
      "function": "setFees(uint8,uint256,address)",
      "arguments": [
        "1",
        "100000000000000000000",
        "0x045d1FC9240B3670cB54444f93Ad3E7b1fbBCe75"
      ],
      "transaction": {
        "from": "0xefbbd14082cf2fbcf5badc7ee619f0f4e36d0a5b",
        "to": "0x3bd140360b05b4ac1a77e78a9f8de70b82b03f45",
        "gas": "0x2e1a0",
        "value": "0x0",
        "input": "0xecf441b700000000000000000000000000000000000000000000000000000000000000010000000000000000000000000000000000000000000000056bc75e2d63100000000000000000000000000000045d1fc9240b3670cb54444f93ad3e7b1fbbce75",
        "nonce": "0x510",
        "chainId": "0x13882"
      },
      "additionalContracts": [],
      "isFixedGasLimit": false
    }
  ],
  "receipts": [
    {
      "status": "0x1",
      "cumulativeGasUsed": "0xe4a4",
      "logs": [
        {
          "address": "0x29b4362ae4c4a4e444d9f7612c785e980162bec2",
          "topics": [
            "0xf98448b987f1428e0e230e1f3c6e2ce15b5693eaf31827fbd0b1ec4b424ae7cf",
            "0x0000000000000000000000000000000000000000000000000000000000000001",
            "0x000000000000000000000000efbbd14082cf2fbcf5badc7ee619f0f4e36d0a5b"
          ],
          "data": "0x000000000000000000000000000000000000000000000000000000000000000000000000000000000000000000000000000000000000000000000000673630320000000000000000000000000000000000000000000000000000000000000001",
          "blockHash": "0x96616e920a583b10d6020aeda4f7c5dd7699d14355ea7e8d780669ee4fef6a34",
          "blockNumber": "0xdc173d",
          "transactionHash": "0x22667eae83606eb9c545c2fc91b01761292c2d25517a2952245225d27643a0ae",
          "transactionIndex": "0x0",
          "logIndex": "0x0",
          "removed": false
        },
        {
          "address": "0x0000000000000000000000000000000000001010",
          "topics": [
            "0x4dfe1bbbcf077ddc3e01291eea2d5c70c2b422b415d95645b9adcfd678cb1d63",
            "0x0000000000000000000000000000000000000000000000000000000000001010",
            "0x000000000000000000000000efbbd14082cf2fbcf5badc7ee619f0f4e36d0a5b",
            "0x0000000000000000000000006ab3d36c46ecfb9b9c0bd51cb1c3da5a2c81cea6"
          ],
          "data": "0x000000000000000000000000000000000000000000000000000532dd14b328000000000000000000000000000000000000000000000000003a285849a5f3479f0000000000000000000000000000000000000000000003856291e5b527cebb050000000000000000000000000000000000000000000000003a23256c91401f9f000000000000000000000000000000000000000000000385629718923c81e305",
          "blockHash": "0x96616e920a583b10d6020aeda4f7c5dd7699d14355ea7e8d780669ee4fef6a34",
          "blockNumber": "0xdc173d",
          "transactionHash": "0x22667eae83606eb9c545c2fc91b01761292c2d25517a2952245225d27643a0ae",
          "transactionIndex": "0x0",
          "logIndex": "0x1",
          "removed": false
        }
      ],
      "logsBloom": "0x00000000080000000000000000000000000000000000800000000000000000000000000000000000000000000080000000008000000000000000000000040000008000080000000000000000000000800000000000040000000100000000000000000000000000000000000000000000000000000000000080000000000000000800000000000000000000000000000008000000000000000000000000000000200000000000000000002000000000000000400000000008000000000000004000000000000000000001000000000000400000010000000000100000000040000000000000000000000000000000000000000000000000000000000000100000",
      "type": "0x2",
      "transactionHash": "0x22667eae83606eb9c545c2fc91b01761292c2d25517a2952245225d27643a0ae",
      "transactionIndex": "0x0",
      "blockHash": "0x96616e920a583b10d6020aeda4f7c5dd7699d14355ea7e8d780669ee4fef6a34",
      "blockNumber": "0xdc173d",
      "gasUsed": "0xe4a4",
      "effectiveGasPrice": "0x5d21dba0f",
      "from": "0xefbbd14082cf2fbcf5badc7ee619f0f4e36d0a5b",
      "to": "0x29b4362ae4c4a4e444d9f7612c785e980162bec2",
      "contractAddress": null
    },
    {
      "status": "0x1",
      "cumulativeGasUsed": "0x16e6d",
      "logs": [
        {
          "address": "0x29b4362ae4c4a4e444d9f7612c785e980162bec2",
          "topics": [
            "0x9ea6790c7dadfd01c9f8b9762b3682607af2c7e79e05a9f9fdf5580dde949151",
            "0x0000000000000000000000003bd140360b05b4ac1a77e78a9f8de70b82b03f45",
            "0x0000000000000000000000000000000000000000000000000000000000000001"
          ],
          "data": "0xecf441b700000000000000000000000000000000000000000000000000000000",
          "blockHash": "0xff17d04314fb6a668cef022dc79245bed6881c8cc3ed71f9c188b514dc7f9b6d",
          "blockNumber": "0xdc1740",
          "transactionHash": "0xdbf7d4bb3ba10fb7964c4e2e27bea905a55e960401506710b438904cfc67b3d2",
          "transactionIndex": "0x1",
          "logIndex": "0x1",
          "removed": false
        },
        {
          "address": "0x0000000000000000000000000000000000001010",
          "topics": [
            "0x4dfe1bbbcf077ddc3e01291eea2d5c70c2b422b415d95645b9adcfd678cb1d63",
            "0x0000000000000000000000000000000000000000000000000000000000001010",
            "0x000000000000000000000000efbbd14082cf2fbcf5badc7ee619f0f4e36d0a5b",
            "0x0000000000000000000000006dc2dd54f24979ec26212794c71afefed722280c"
          ],
          "data": "0x000000000000000000000000000000000000000000000000000515655e3588000000000000000000000000000000000000000000000000003a23256c9132ba030000000000000000000000000000000000000000000003fc3d738a9bd1c750cc0000000000000000000000000000000000000000000000003a1e100732fd32030000000000000000000000000000000000000000000003fc3d78a0012ffcd8cc",
          "blockHash": "0xff17d04314fb6a668cef022dc79245bed6881c8cc3ed71f9c188b514dc7f9b6d",
          "blockNumber": "0xdc1740",
          "transactionHash": "0xdbf7d4bb3ba10fb7964c4e2e27bea905a55e960401506710b438904cfc67b3d2",
          "transactionIndex": "0x1",
          "logIndex": "0x2",
          "removed": false
        }
      ],
      "logsBloom": "0x00000004000080000000000000400000000000000000800000000000000000000000000000400000000000000080000000008000000000000000000000040000008000000000000000000000000000800000000000040000000100080000000000000000000000000000000000000000000000000000000080000000000000020800000000000000000000000040000000000000000000000000000000000000200000000000000000000100000000000000400000000000000000000000004000000000000000000001000000200000400000000000000000100000000040000000000000000000000000000000000000000000000000000000000000100000",
      "type": "0x2",
      "transactionHash": "0xdbf7d4bb3ba10fb7964c4e2e27bea905a55e960401506710b438904cfc67b3d2",
      "transactionIndex": "0x1",
      "blockHash": "0xff17d04314fb6a668cef022dc79245bed6881c8cc3ed71f9c188b514dc7f9b6d",
      "blockNumber": "0xdc1740",
      "gasUsed": "0xdf94",
      "effectiveGasPrice": "0x5d21dba0f",
      "from": "0xefbbd14082cf2fbcf5badc7ee619f0f4e36d0a5b",
      "to": "0x29b4362ae4c4a4e444d9f7612c785e980162bec2",
      "contractAddress": null
    },
    {
      "status": "0x1",
      "cumulativeGasUsed": "0xdf94",
      "logs": [
        {
          "address": "0x29b4362ae4c4a4e444d9f7612c785e980162bec2",
          "topics": [
            "0x9ea6790c7dadfd01c9f8b9762b3682607af2c7e79e05a9f9fdf5580dde949151",
            "0x0000000000000000000000008f7c1fa5cabe6a2e8018e4334fd77e8cae7b76b8",
            "0x0000000000000000000000000000000000000000000000000000000000000001"
          ],
          "data": "0x06af20da00000000000000000000000000000000000000000000000000000000",
          "blockHash": "0x11eb20b3b22aee5207047f6491860a5aa248e3e3cee8484bfe0632a496b022cb",
          "blockNumber": "0xdc1743",
          "transactionHash": "0x1851e489d7eb3ab754d2c2b1ed9922ac43752777ceb86e02ba2bb0a8f99584d7",
          "transactionIndex": "0x0",
          "logIndex": "0x0",
          "removed": false
        },
        {
          "address": "0x0000000000000000000000000000000000001010",
          "topics": [
            "0x4dfe1bbbcf077ddc3e01291eea2d5c70c2b422b415d95645b9adcfd678cb1d63",
            "0x0000000000000000000000000000000000000000000000000000000000001010",
            "0x000000000000000000000000efbbd14082cf2fbcf5badc7ee619f0f4e36d0a5b",
            "0x0000000000000000000000006dc2dd54f24979ec26212794c71afefed722280c"
          ],
          "data": "0x000000000000000000000000000000000000000000000000000515655e3588000000000000000000000000000000000000000000000000003a1e100732f018570000000000000000000000000000000000000000000003fc3eecd7d245dba6160000000000000000000000000000000000000000000000003a18faa1d4ba90570000000000000000000000000000000000000000000003fc3ef1ed37a4112e16",
          "blockHash": "0x11eb20b3b22aee5207047f6491860a5aa248e3e3cee8484bfe0632a496b022cb",
          "blockNumber": "0xdc1743",
          "transactionHash": "0x1851e489d7eb3ab754d2c2b1ed9922ac43752777ceb86e02ba2bb0a8f99584d7",
          "transactionIndex": "0x0",
          "logIndex": "0x1",
          "removed": false
        }
      ],
      "logsBloom": "0x00000004000080000000000000000000010000000000800000000000000000002000000000000000000000000080000000008000000000000000000000040000008000000000000000000000000000800000000000040000000100080000000000000000000000000000000000000000000000000000000080000000000000020800000000000000000000000040000000000000000000000000000000000000200000000000000000000000010000000000400000000000000000000000004000000000000000000001000000200000400000000000000000100000000040000000000000000000000000000000000000000000000000000000000000100000",
      "type": "0x2",
      "transactionHash": "0x1851e489d7eb3ab754d2c2b1ed9922ac43752777ceb86e02ba2bb0a8f99584d7",
      "transactionIndex": "0x0",
      "blockHash": "0x11eb20b3b22aee5207047f6491860a5aa248e3e3cee8484bfe0632a496b022cb",
      "blockNumber": "0xdc1743",
      "gasUsed": "0xdf94",
      "effectiveGasPrice": "0x5d21dba0f",
      "from": "0xefbbd14082cf2fbcf5badc7ee619f0f4e36d0a5b",
      "to": "0x29b4362ae4c4a4e444d9f7612c785e980162bec2",
      "contractAddress": null
    },
    {
      "status": "0x1",
      "cumulativeGasUsed": "0x73529",
      "logs": [
        {
          "address": "0x29b4362ae4c4a4e444d9f7612c785e980162bec2",
          "topics": [
            "0x9ea6790c7dadfd01c9f8b9762b3682607af2c7e79e05a9f9fdf5580dde949151",
            "0x0000000000000000000000007125acf7c7e3f42fa34e1d663cea79c6d8ef963c",
            "0x0000000000000000000000000000000000000000000000000000000000000001"
          ],
          "data": "0xdaea85c500000000000000000000000000000000000000000000000000000000",
          "blockHash": "0xf224645d904ec63e4bdd87b7f9319f38d198a3e44297faac28cb973674fb9cae",
          "blockNumber": "0xdc1746",
          "transactionHash": "0xadcb1b7486801093ec5a6f7870b8a7bf970d2708801febc78167216a499b3a45",
          "transactionIndex": "0x3",
          "logIndex": "0x9",
          "removed": false
        },
        {
          "address": "0x29b4362ae4c4a4e444d9f7612c785e980162bec2",
          "topics": [
            "0x9ea6790c7dadfd01c9f8b9762b3682607af2c7e79e05a9f9fdf5580dde949151",
            "0x0000000000000000000000007125acf7c7e3f42fa34e1d663cea79c6d8ef963c",
            "0x0000000000000000000000000000000000000000000000000000000000000001"
          ],
          "data": "0xab0da5a900000000000000000000000000000000000000000000000000000000",
          "blockHash": "0xf224645d904ec63e4bdd87b7f9319f38d198a3e44297faac28cb973674fb9cae",
          "blockNumber": "0xdc1746",
          "transactionHash": "0xadcb1b7486801093ec5a6f7870b8a7bf970d2708801febc78167216a499b3a45",
          "transactionIndex": "0x3",
          "logIndex": "0xa",
          "removed": false
        },
        {
          "address": "0x0000000000000000000000000000000000001010",
          "topics": [
            "0x4dfe1bbbcf077ddc3e01291eea2d5c70c2b422b415d95645b9adcfd678cb1d63",
            "0x0000000000000000000000000000000000000000000000000000000000001010",
            "0x000000000000000000000000efbbd14082cf2fbcf5badc7ee619f0f4e36d0a5b",
            "0x0000000000000000000000006dc2dd54f24979ec26212794c71afefed722280c"
          ],
          "data": "0x00000000000000000000000000000000000000000000000000073e0ce89b5c000000000000000000000000000000000000000000000000003a18faa1d4ad76ab0000000000000000000000000000000000000000000003fc3f9945fcd0ee2c610000000000000000000000000000000000000000000000003a11bc94ec121aab0000000000000000000000000000000000000000000003fc3fa08409b9898861",
          "blockHash": "0xf224645d904ec63e4bdd87b7f9319f38d198a3e44297faac28cb973674fb9cae",
          "blockNumber": "0xdc1746",
          "transactionHash": "0xadcb1b7486801093ec5a6f7870b8a7bf970d2708801febc78167216a499b3a45",
          "transactionIndex": "0x3",
          "logIndex": "0xb",
          "removed": false
        }
      ],
      "logsBloom": "0x00000004000080000000000000000000400000000000800000000000000000000000000000000000000000000080000000008000000000000000000000040000008000000000000000000000000000800000000000040000000100080000000000000000000000000000000000000000000000000000000080000000000000020800000000000000000000000040000000000000000000000000000000000000200000000000000000000000000000000000400000000000000000000000004000000000000000000001000000200000400000000000000000100000000040000000000000000000000000000000000000000000000000001100000000100000",
      "type": "0x2",
      "transactionHash": "0xadcb1b7486801093ec5a6f7870b8a7bf970d2708801febc78167216a499b3a45",
      "transactionIndex": "0x3",
      "blockHash": "0xf224645d904ec63e4bdd87b7f9319f38d198a3e44297faac28cb973674fb9cae",
      "blockNumber": "0xdc1746",
      "gasUsed": "0x13e86",
      "effectiveGasPrice": "0x5d21dba0f",
      "from": "0xefbbd14082cf2fbcf5badc7ee619f0f4e36d0a5b",
      "to": "0x29b4362ae4c4a4e444d9f7612c785e980162bec2",
      "contractAddress": null
    },
    {
      "status": "0x1",
      "cumulativeGasUsed": "0x19d78",
      "logs": [
        {
          "address": "0x29b4362ae4c4a4e444d9f7612c785e980162bec2",
          "topics": [
            "0x9ea6790c7dadfd01c9f8b9762b3682607af2c7e79e05a9f9fdf5580dde949151",
            "0x0000000000000000000000005ea6fd3e965c284f5540e1d683e9e18183108bc3",
            "0x0000000000000000000000000000000000000000000000000000000000000001"
          ],
          "data": "0x20c5429b00000000000000000000000000000000000000000000000000000000",
          "blockHash": "0x53bb19f3e8123eb02900e605cb1f9dcec7c133f07e54d563f184f1c30c127be0",
          "blockNumber": "0xdc1748",
          "transactionHash": "0x14e41fb7a224bbe68707cf3db95038ad9de764eff5c8f7e09aad5e545e90019c",
          "transactionIndex": "0x0",
          "logIndex": "0x0",
          "removed": false
        },
        {
          "address": "0x29b4362ae4c4a4e444d9f7612c785e980162bec2",
          "topics": [
            "0x9ea6790c7dadfd01c9f8b9762b3682607af2c7e79e05a9f9fdf5580dde949151",
            "0x0000000000000000000000005ea6fd3e965c284f5540e1d683e9e18183108bc3",
            "0x0000000000000000000000000000000000000000000000000000000000000001"
          ],
          "data": "0xb8adaa1100000000000000000000000000000000000000000000000000000000",
          "blockHash": "0x53bb19f3e8123eb02900e605cb1f9dcec7c133f07e54d563f184f1c30c127be0",
          "blockNumber": "0xdc1748",
          "transactionHash": "0x14e41fb7a224bbe68707cf3db95038ad9de764eff5c8f7e09aad5e545e90019c",
          "transactionIndex": "0x0",
          "logIndex": "0x1",
          "removed": false
        },
        {
          "address": "0x29b4362ae4c4a4e444d9f7612c785e980162bec2",
          "topics": [
            "0x9ea6790c7dadfd01c9f8b9762b3682607af2c7e79e05a9f9fdf5580dde949151",
            "0x0000000000000000000000005ea6fd3e965c284f5540e1d683e9e18183108bc3",
            "0x0000000000000000000000000000000000000000000000000000000000000001"
          ],
          "data": "0xb759f95400000000000000000000000000000000000000000000000000000000",
          "blockHash": "0x53bb19f3e8123eb02900e605cb1f9dcec7c133f07e54d563f184f1c30c127be0",
          "blockNumber": "0xdc1748",
          "transactionHash": "0x14e41fb7a224bbe68707cf3db95038ad9de764eff5c8f7e09aad5e545e90019c",
          "transactionIndex": "0x0",
          "logIndex": "0x2",
          "removed": false
        },
        {
          "address": "0x0000000000000000000000000000000000001010",
          "topics": [
            "0x4dfe1bbbcf077ddc3e01291eea2d5c70c2b422b415d95645b9adcfd678cb1d63",
            "0x0000000000000000000000000000000000000000000000000000000000001010",
            "0x000000000000000000000000efbbd14082cf2fbcf5badc7ee619f0f4e36d0a5b",
            "0x0000000000000000000000006dc2dd54f24979ec26212794c71afefed722280c"
          ],
          "data": "0x000000000000000000000000000000000000000000000000000966b4730130000000000000000000000000000000000000000000000000003a11bc94ebff70d10000000000000000000000000000000000000000000003fc3fa6cdeb42797d940000000000000000000000000000000000000000000000003a0855e078fe40d10000000000000000000000000000000000000000000003fc3fb0349fb57aad94",
          "blockHash": "0x53bb19f3e8123eb02900e605cb1f9dcec7c133f07e54d563f184f1c30c127be0",
          "blockNumber": "0xdc1748",
          "transactionHash": "0x14e41fb7a224bbe68707cf3db95038ad9de764eff5c8f7e09aad5e545e90019c",
          "transactionIndex": "0x0",
          "logIndex": "0x3",
          "removed": false
        }
      ],
      "logsBloom": "0x00000004000080000000000000000000000000000000800000000000000000000000000000000000000000000080000000008000000000000080000000040000008000000000000000000000000000800000000000040000000100080000000000000000000000000000000000000000000000000000000080000000000000020800000000000000000000000040000000000000000000000000000000000000200000000000000000000000000000000000400000000000000000000000004000000000000000000001000000200000400000002000000000100000000040000000000000000000000000000000000000000000000000000000000000100000",
      "type": "0x2",
      "transactionHash": "0x14e41fb7a224bbe68707cf3db95038ad9de764eff5c8f7e09aad5e545e90019c",
      "transactionIndex": "0x0",
      "blockHash": "0x53bb19f3e8123eb02900e605cb1f9dcec7c133f07e54d563f184f1c30c127be0",
      "blockNumber": "0xdc1748",
      "gasUsed": "0x19d78",
      "effectiveGasPrice": "0x5d21dba0f",
      "from": "0xefbbd14082cf2fbcf5badc7ee619f0f4e36d0a5b",
      "to": "0x29b4362ae4c4a4e444d9f7612c785e980162bec2",
      "contractAddress": null
    },
    {
      "status": "0x1",
      "cumulativeGasUsed": "0x36ef8",
      "logs": [
        {
          "address": "0x29b4362ae4c4a4e444d9f7612c785e980162bec2",
          "topics": [
            "0x9ea6790c7dadfd01c9f8b9762b3682607af2c7e79e05a9f9fdf5580dde949151",
            "0x000000000000000000000000259dcaa776fc39566c5dfb5987b88e24134df271",
            "0x0000000000000000000000000000000000000000000000000000000000000001"
          ],
          "data": "0xf6eea09800000000000000000000000000000000000000000000000000000000",
          "blockHash": "0xec561f78ea9782569264bbf0686770fba50f037d67deb3290c0b29b6a8720155",
          "blockNumber": "0xdc174b",
          "transactionHash": "0xfdd93311b40dda5f16dd579a65fc306446002469fb8ac7fac2655de735972466",
          "transactionIndex": "0x1",
          "logIndex": "0x3",
          "removed": false
        },
        {
          "address": "0x29b4362ae4c4a4e444d9f7612c785e980162bec2",
          "topics": [
            "0x9ea6790c7dadfd01c9f8b9762b3682607af2c7e79e05a9f9fdf5580dde949151",
            "0x000000000000000000000000259dcaa776fc39566c5dfb5987b88e24134df271",
            "0x0000000000000000000000000000000000000000000000000000000000000001"
          ],
          "data": "0x74a8f10300000000000000000000000000000000000000000000000000000000",
          "blockHash": "0xec561f78ea9782569264bbf0686770fba50f037d67deb3290c0b29b6a8720155",
          "blockNumber": "0xdc174b",
          "transactionHash": "0xfdd93311b40dda5f16dd579a65fc306446002469fb8ac7fac2655de735972466",
          "transactionIndex": "0x1",
          "logIndex": "0x4",
          "removed": false
        },
        {
          "address": "0x29b4362ae4c4a4e444d9f7612c785e980162bec2",
          "topics": [
            "0x9ea6790c7dadfd01c9f8b9762b3682607af2c7e79e05a9f9fdf5580dde949151",
            "0x000000000000000000000000259dcaa776fc39566c5dfb5987b88e24134df271",
            "0x0000000000000000000000000000000000000000000000000000000000000001"
          ],
          "data": "0xdaea85c500000000000000000000000000000000000000000000000000000000",
          "blockHash": "0xec561f78ea9782569264bbf0686770fba50f037d67deb3290c0b29b6a8720155",
          "blockNumber": "0xdc174b",
          "transactionHash": "0xfdd93311b40dda5f16dd579a65fc306446002469fb8ac7fac2655de735972466",
          "transactionIndex": "0x1",
          "logIndex": "0x5",
          "removed": false
        },
        {
          "address": "0x0000000000000000000000000000000000001010",
          "topics": [
            "0x4dfe1bbbcf077ddc3e01291eea2d5c70c2b422b415d95645b9adcfd678cb1d63",
            "0x0000000000000000000000000000000000000000000000000000000000001010",
            "0x000000000000000000000000efbbd14082cf2fbcf5badc7ee619f0f4e36d0a5b",
            "0x0000000000000000000000006dc2dd54f24979ec26212794c71afefed722280c"
          ],
          "data": "0x000000000000000000000000000000000000000000000000000966b4730130000000000000000000000000000000000000000000000000003a0855e078e606c90000000000000000000000000000000000000000000003fc4057831f4b89804b00000000000000000000000000000000000000000000000039feef2c05e4d6c90000000000000000000000000000000000000000000003fc4060e9d3be8ab04b",
          "blockHash": "0xec561f78ea9782569264bbf0686770fba50f037d67deb3290c0b29b6a8720155",
          "blockNumber": "0xdc174b",
          "transactionHash": "0xfdd93311b40dda5f16dd579a65fc306446002469fb8ac7fac2655de735972466",
          "transactionIndex": "0x1",
          "logIndex": "0x6",
          "removed": false
        }
      ],
      "logsBloom": "0x00000004000080000000000000000000000000000000800000000000000000000000000000000000000000000080000000008000000000000000000000040020008000000000000000000000000000800000000000040000000100080000000000080000000000000000000000000000000000000000000480000000000000020800000000000000000000000040000000000000000000000000000000000000200000000000000000000000000000000000400000000000000000000000004000000000000000000001000000200000400000000000000000100000000040000000000000000000000000000000000000000000000000000000000000100000",
      "type": "0x2",
      "transactionHash": "0xfdd93311b40dda5f16dd579a65fc306446002469fb8ac7fac2655de735972466",
      "transactionIndex": "0x1",
      "blockHash": "0xec561f78ea9782569264bbf0686770fba50f037d67deb3290c0b29b6a8720155",
      "blockNumber": "0xdc174b",
      "gasUsed": "0x19d78",
      "effectiveGasPrice": "0x5d21dba0f",
      "from": "0xefbbd14082cf2fbcf5badc7ee619f0f4e36d0a5b",
      "to": "0x29b4362ae4c4a4e444d9f7612c785e980162bec2",
      "contractAddress": null
    },
    {
      "status": "0x1",
      "cumulativeGasUsed": "0x3efeb",
      "logs": [
        {
          "address": "0x3bd140360b05b4ac1a77e78a9f8de70b82b03f45",
          "topics": [
            "0xfbbd6e9cc51f124b05f08f20e9aef57fb26fc9a927be06212c59506610581335",
            "0x000000000000000000000000045d1fc9240b3670cb54444f93ad3e7b1fbbce75",
            "0x000000000000000000000000efbbd14082cf2fbcf5badc7ee619f0f4e36d0a5b"
          ],
          "data": "0x00000000000000000000000000000000000000000000000000000000000001f40000000000000000000000000000000000000000000000000000000000000002",
          "blockHash": "0x15882478a2b2fb4671ea94966b917282c62c258792f5ac2b2faa4402d478eb21",
          "blockNumber": "0xdc174e",
          "transactionHash": "0x325a16c65025063542429ce86f103bf68d9d2a738f7209af19588973ecd58eca",
          "transactionIndex": "0x2",
          "logIndex": "0x3",
          "removed": false
        },
        {
          "address": "0x0000000000000000000000000000000000001010",
          "topics": [
            "0x4dfe1bbbcf077ddc3e01291eea2d5c70c2b422b415d95645b9adcfd678cb1d63",
            "0x0000000000000000000000000000000000000000000000000000000000001010",
            "0x000000000000000000000000efbbd14082cf2fbcf5badc7ee619f0f4e36d0a5b",
            "0x0000000000000000000000006dc2dd54f24979ec26212794c71afefed722280c"
          ],
          "data": "0x000000000000000000000000000000000000000000000000000c23a1349dee0000000000000000000000000000000000000000000000000039feef2c05cc9cc10000000000000000000000000000000000000000000003fc40fa62cee3d7935b00000000000000000000000000000000000000000000000039f2cb8ad12eaec10000000000000000000000000000000000000000000003fc410686701875815b",
          "blockHash": "0x15882478a2b2fb4671ea94966b917282c62c258792f5ac2b2faa4402d478eb21",
          "blockNumber": "0xdc174e",
          "transactionHash": "0x325a16c65025063542429ce86f103bf68d9d2a738f7209af19588973ecd58eca",
          "transactionIndex": "0x2",
          "logIndex": "0x4",
          "removed": false
        }
      ],
      "logsBloom": "0x00000000000000000000800000000010020000000000000000000000000000000000000000000000000000000000000000008000000000000000000000000000008000000000020000000000000000800000000000000000000100080000000000000000000000400000000000000000000000002000000080000000004000020800000000000000000080000040000000000000000000000000000000000000200000000000000000000000000000000000400000000000000000000000014000000000000000000001000000000000000000000000000000100000000000000000000000000000000000000000000000000000000000000000000000100000",
      "type": "0x2",
      "transactionHash": "0x325a16c65025063542429ce86f103bf68d9d2a738f7209af19588973ecd58eca",
      "transactionIndex": "0x2",
      "blockHash": "0x15882478a2b2fb4671ea94966b917282c62c258792f5ac2b2faa4402d478eb21",
      "blockNumber": "0xdc174e",
      "gasUsed": "0x215e3",
      "effectiveGasPrice": "0x5d21dba0f",
      "from": "0xefbbd14082cf2fbcf5badc7ee619f0f4e36d0a5b",
      "to": "0x3bd140360b05b4ac1a77e78a9f8de70b82b03f45",
      "contractAddress": null
    },
    {
      "status": "0x1",
      "cumulativeGasUsed": "0x21608",
      "logs": [
        {
          "address": "0x3bd140360b05b4ac1a77e78a9f8de70b82b03f45",
          "topics": [
            "0xfbbd6e9cc51f124b05f08f20e9aef57fb26fc9a927be06212c59506610581335",
            "0x000000000000000000000000045d1fc9240b3670cb54444f93ad3e7b1fbbce75",
            "0x000000000000000000000000efbbd14082cf2fbcf5badc7ee619f0f4e36d0a5b"
          ],
          "data": "0x0000000000000000000000000000000000000000000000056bc75e2d631000000000000000000000000000000000000000000000000000000000000000000001",
          "blockHash": "0x0346844152d139a5e8c43a95c988cae7ffe44e6434c331fa3186d477d56416c1",
          "blockNumber": "0xdc1750",
          "transactionHash": "0xecdb52e0f04ce06e1870c64ddc5c57a822ff6fa7becef14e1209436c909a3a88",
          "transactionIndex": "0x0",
          "logIndex": "0x0",
          "removed": false
        },
        {
          "address": "0x0000000000000000000000000000000000001010",
          "topics": [
            "0x4dfe1bbbcf077ddc3e01291eea2d5c70c2b422b415d95645b9adcfd678cb1d63",
            "0x0000000000000000000000000000000000000000000000000000000000001010",
            "0x000000000000000000000000efbbd14082cf2fbcf5badc7ee619f0f4e36d0a5b",
            "0x00000000000000000000000009207a6efee346cb3e4a54ac18523e3715d38b3f"
          ],
          "data": "0x000000000000000000000000000000000000000000000000000c247892e9d00000000000000000000000000000000000000000000000000039f2cb8ad10f66740000000000000000000000000000000000000000000003bd3150dce07bcb1e5600000000000000000000000000000000000000000000000039e6a7123e2596740000000000000000000000000000000000000000000003bd315d01590eb4ee56",
          "blockHash": "0x0346844152d139a5e8c43a95c988cae7ffe44e6434c331fa3186d477d56416c1",
          "blockNumber": "0xdc1750",
          "transactionHash": "0xecdb52e0f04ce06e1870c64ddc5c57a822ff6fa7becef14e1209436c909a3a88",
          "transactionIndex": "0x0",
          "logIndex": "0x1",
          "removed": false
        }
      ],
      "logsBloom": "0x00000000000000000000800000000010020000000000000000000000000000000000000000000000000000000000000000008000000000000000010000000000008000000000020000000000000000800000000000000000000100000000000000000000000000400000000000000000000000002000000080000000004000000800000000000000000080000000000000004000000000000000000000000000200000000000000000000000000000000000400000000000000000000000014000000000000000000001000000000000000000000000000000100000000000000000000000000000000000010000000000000000000000000000000000100000",
      "type": "0x2",
      "transactionHash": "0xecdb52e0f04ce06e1870c64ddc5c57a822ff6fa7becef14e1209436c909a3a88",
      "transactionIndex": "0x0",
      "blockHash": "0x0346844152d139a5e8c43a95c988cae7ffe44e6434c331fa3186d477d56416c1",
      "blockNumber": "0xdc1750",
      "gasUsed": "0x21608",
      "effectiveGasPrice": "0x5d21dba0f",
      "from": "0xefbbd14082cf2fbcf5badc7ee619f0f4e36d0a5b",
      "to": "0x3bd140360b05b4ac1a77e78a9f8de70b82b03f45",
      "contractAddress": null
    }
  ],
  "libraries": [],
  "pending": [],
  "returns": {},
  "timestamp": 1731604573,
  "chain": 80002,
  "commit": "bceebff"
}