{
  "transactions": [
    {
      "hash": "0xb4e084d925a1c23dfde6e1bc5d8ebe4ce1735a904295a054415eaf586de1fedf",
      "transactionType": "CALL",
      "contractName": null,
      "contractAddress": "0x8120a8e0688be6b2c0bb469f871e5e7023ca85eb",
      "function": "grantRole(uint64,address,uint32)",
      "arguments": [
        "1",
        "0xEFBBD14082cF2FbCf5Badc7ee619F0f4e36D0A5B",
        "0"
      ],
      "transaction": {
        "from": "0xefbbd14082cf2fbcf5badc7ee619f0f4e36d0a5b",
        "to": "0x8120a8e0688be6b2c0bb469f871e5e7023ca85eb",
        "gas": "0xedf2",
        "value": "0x0",
        "input": "0x25c471a00000000000000000000000000000000000000000000000000000000000000001000000000000000000000000efbbd14082cf2fbcf5badc7ee619f0f4e36d0a5b0000000000000000000000000000000000000000000000000000000000000000",
        "nonce": "0x962",
        "chainId": "0x13882"
      },
      "additionalContracts": [],
      "isFixedGasLimit": false
    },
    {
      "hash": "0xa8e4990204367cb5b8fbd1b58da5e19479ddc47e33f9c8375f31afdcf5d08b51",
      "transactionType": "CALL",
      "contractName": null,
      "contractAddress": "0x8120a8e0688be6b2c0bb469f871e5e7023ca85eb",
      "function": "setTargetFunctionRole(address,bytes4[],uint64)",
      "arguments": [
        "0x4580859e64385e3e82ee64da2Bc06Ef84Bde851a",
        "[0x8cc0de1d]",
        "1"
      ],
      "transaction": {
        "from": "0xefbbd14082cf2fbcf5badc7ee619f0f4e36d0a5b",
        "to": "0x8120a8e0688be6b2c0bb469f871e5e7023ca85eb",
        "gas": "0xc971",
        "value": "0x0",
        "input": "0x08d6122d0000000000000000000000004580859e64385e3e82ee64da2bc06ef84bde851a0000000000000000000000000000000000000000000000000000000000000060000000000000000000000000000000000000000000000000000000000000000100000000000000000000000000000000000000000000000000000000000000018cc0de1d00000000000000000000000000000000000000000000000000000000",
        "nonce": "0x963",
        "chainId": "0x13882"
      },
      "additionalContracts": [],
      "isFixedGasLimit": false
    },
    {
      "hash": "0x63e936fdcdd43387d124aac35d2fcc44356570788cf88a804492eba9fee94264",
      "transactionType": "CALL",
      "contractName": null,
      "contractAddress": "0x8120a8e0688be6b2c0bb469f871e5e7023ca85eb",
      "function": "setTargetFunctionRole(address,bytes4[],uint64)",
      "arguments": [
        "0xD32CA33b1FBD97523536Ed3519A191Df242AFCFd",
        "[0x06af20da]",
        "1"
      ],
      "transaction": {
        "from": "0xefbbd14082cf2fbcf5badc7ee619f0f4e36d0a5b",
        "to": "0x8120a8e0688be6b2c0bb469f871e5e7023ca85eb",
        "gas": "0xc971",
        "value": "0x0",
        "input": "0x08d6122d000000000000000000000000d32ca33b1fbd97523536ed3519a191df242afcfd00000000000000000000000000000000000000000000000000000000000000600000000000000000000000000000000000000000000000000000000000000001000000000000000000000000000000000000000000000000000000000000000106af20da00000000000000000000000000000000000000000000000000000000",
        "nonce": "0x964",
        "chainId": "0x13882"
      },
      "additionalContracts": [],
      "isFixedGasLimit": false
    },
    {
      "hash": "0xbe0334bb1ae9226696488526abc64150eff239d65f28044dae0fb07eb3cffb48",
      "transactionType": "CALL",
      "contractName": null,
      "contractAddress": "0x8120a8e0688be6b2c0bb469f871e5e7023ca85eb",
      "function": "setTargetFunctionRole(address,bytes4[],uint64)",
      "arguments": [
        "0x00ABb22eB950684e4314287e94f024B0A9420d40",
        "[0x20c5429b, 0xb8adaa11, 0xb759f954]",
        "1"
      ],
      "transaction": {
        "from": "0xefbbd14082cf2fbcf5badc7ee619f0f4e36d0a5b",
        "to": "0x8120a8e0688be6b2c0bb469f871e5e7023ca85eb",
        "gas": "0xf8ec",
        "value": "0x0",
        "input": "0x08d6122d00000000000000000000000000abb22eb950684e4314287e94f024b0a9420d4000000000000000000000000000000000000000000000000000000000000000600000000000000000000000000000000000000000000000000000000000000001000000000000000000000000000000000000000000000000000000000000000320c5429b00000000000000000000000000000000000000000000000000000000b8adaa1100000000000000000000000000000000000000000000000000000000b759f95400000000000000000000000000000000000000000000000000000000",
        "nonce": "0x965",
        "chainId": "0x13882"
      },
      "additionalContracts": [],
      "isFixedGasLimit": false
    },
    {
      "hash": "0x54aa41183f1662cd3665b6b6cb0ba286fcb7bb934e3630221879786ff7c2d089",
      "transactionType": "CALL",
      "contractName": null,
      "contractAddress": "0x8120a8e0688be6b2c0bb469f871e5e7023ca85eb",
      "function": "setTargetFunctionRole(address,bytes4[],uint64)",
      "arguments": [
        "0xA2746F0D272bb0F5273f53B4a0F476afe8873C32",
        "[0xf6eea098, 0x74a8f103, 0xdaea85c5]",
        "1"
      ],
      "transaction": {
        "from": "0xefbbd14082cf2fbcf5badc7ee619f0f4e36d0a5b",
        "to": "0x8120a8e0688be6b2c0bb469f871e5e7023ca85eb",
        "gas": "0xf8fd",
        "value": "0x0",
        "input": "0x08d6122d000000000000000000000000a2746f0d272bb0f5273f53b4a0f476afe8873c32000000000000000000000000000000000000000000000000000000000000006000000000000000000000000000000000000000000000000000000000000000010000000000000000000000000000000000000000000000000000000000000003f6eea0980000000000000000000000000000000000000000000000000000000074a8f10300000000000000000000000000000000000000000000000000000000daea85c500000000000000000000000000000000000000000000000000000000",
        "nonce": "0x966",
        "chainId": "0x13882"
      },
      "additionalContracts": [],
      "isFixedGasLimit": false
    },
    {
      "hash": "0xea097c458616445a93a3b6f572dda3b351b6209e282512bfa741a257b1f51e58",
      "transactionType": "CALL",
      "contractName": null,
      "contractAddress": "0x8120a8e0688be6b2c0bb469f871e5e7023ca85eb",
      "function": "grantRole(uint64,address,uint32)",
      "arguments": [
        "2",
        "0xEFBBD14082cF2FbCf5Badc7ee619F0f4e36D0A5B",
        "0"
      ],
      "transaction": {
        "from": "0xefbbd14082cf2fbcf5badc7ee619f0f4e36d0a5b",
        "to": "0x8120a8e0688be6b2c0bb469f871e5e7023ca85eb",
        "gas": "0xedf2",
        "value": "0x0",
        "input": "0x25c471a00000000000000000000000000000000000000000000000000000000000000002000000000000000000000000efbbd14082cf2fbcf5badc7ee619f0f4e36d0a5b0000000000000000000000000000000000000000000000000000000000000000",
        "nonce": "0x967",
        "chainId": "0x13882"
      },
      "additionalContracts": [],
      "isFixedGasLimit": false
    },
    {
      "hash": "0xccebb6e4955507c012c0721c30c730ff6ddc79874b0044423814122b8991d70e",
      "transactionType": "CALL",
      "contractName": null,
      "contractAddress": "0x8120a8e0688be6b2c0bb469f871e5e7023ca85eb",
      "function": "setTargetFunctionRole(address,bytes4[],uint64)",
      "arguments": [
        "0x8dB5ae2ae14e189c7d0e8f9c67643170e5508874",
        "[0xdaea85c5, 0xab0da5a9]",
        "2"
      ],
      "transaction": {
        "from": "0xefbbd14082cf2fbcf5badc7ee619f0f4e36d0a5b",
        "to": "0x8120a8e0688be6b2c0bb469f871e5e7023ca85eb",
        "gas": "0xe137",
        "value": "0x0",
        "input": "0x08d6122d0000000000000000000000008db5ae2ae14e189c7d0e8f9c67643170e5508874000000000000000000000000000000000000000000000000000000000000006000000000000000000000000000000000000000000000000000000000000000020000000000000000000000000000000000000000000000000000000000000002daea85c500000000000000000000000000000000000000000000000000000000ab0da5a900000000000000000000000000000000000000000000000000000000",
        "nonce": "0x968",
        "chainId": "0x13882"
      },
      "additionalContracts": [],
      "isFixedGasLimit": false
    },
    {
      "hash": "0x30279f6bbfe0c5d73f155b9f9964f0e158cae92cc25ccf3d468a5e0657a46385",
      "transactionType": "CALL",
      "contractName": null,
      "contractAddress": "0x8120a8e0688be6b2c0bb469f871e5e7023ca85eb",
      "function": "grantRole(uint64,address,uint32)",
      "arguments": [
        "4",
        "0x5945C1417ad688EF90Cf3e61263b404B96A0C20b",
        "0"
      ],
      "transaction": {
        "from": "0xefbbd14082cf2fbcf5badc7ee619f0f4e36d0a5b",
        "to": "0x8120a8e0688be6b2c0bb469f871e5e7023ca85eb",
        "gas": "0xedf2",
        "value": "0x0",
        "input": "0x25c471a000000000000000000000000000000000000000000000000000000000000000040000000000000000000000005945c1417ad688ef90cf3e61263b404b96a0c20b0000000000000000000000000000000000000000000000000000000000000000",
        "nonce": "0x969",
        "chainId": "0x13882"
      },
      "additionalContracts": [],
      "isFixedGasLimit": false
    },
    {
      "hash": "0xdce3ceb2f381bb0de47f23bcd867640675063c5cb6cfc7d1cb84758459ab8314",
      "transactionType": "CALL",
      "contractName": null,
      "contractAddress": "0x8120a8e0688be6b2c0bb469f871e5e7023ca85eb",
      "function": "grantRole(uint64,address,uint32)",
      "arguments": [
        "4",
        "0x31B351E4C217f838190825586cAA8494Ee1CA635",
        "0"
      ],
      "transaction": {
        "from": "0xefbbd14082cf2fbcf5badc7ee619f0f4e36d0a5b",
        "to": "0x8120a8e0688be6b2c0bb469f871e5e7023ca85eb",
        "gas": "0xedf2",
        "value": "0x0",
        "input": "0x25c471a0000000000000000000000000000000000000000000000000000000000000000400000000000000000000000031b351e4c217f838190825586caa8494ee1ca6350000000000000000000000000000000000000000000000000000000000000000",
        "nonce": "0x96a",
        "chainId": "0x13882"
      },
      "additionalContracts": [],
      "isFixedGasLimit": false
    },
    {
      "hash": "0x7c731f697e7e858fe76336f5047cd3afa69e97c7f9e6919042d9bdbbbe8fdb40",
      "transactionType": "CALL",
      "contractName": null,
      "contractAddress": "0x8120a8e0688be6b2c0bb469f871e5e7023ca85eb",
      "function": "grantRole(uint64,address,uint32)",
      "arguments": [
        "4",
        "0xA2746F0D272bb0F5273f53B4a0F476afe8873C32",
        "0"
      ],
      "transaction": {
        "from": "0xefbbd14082cf2fbcf5badc7ee619f0f4e36d0a5b",
        "to": "0x8120a8e0688be6b2c0bb469f871e5e7023ca85eb",
        "gas": "0xedf2",
        "value": "0x0",
        "input": "0x25c471a00000000000000000000000000000000000000000000000000000000000000004000000000000000000000000a2746f0d272bb0f5273f53b4a0f476afe8873c320000000000000000000000000000000000000000000000000000000000000000",
        "nonce": "0x96b",
        "chainId": "0x13882"
      },
      "additionalContracts": [],
      "isFixedGasLimit": false
    },
    {
      "hash": "0x7071dfe34be28b1ff98a2b9175126cd3459165fa93d6d1cba9d8044c354fbc8a",
      "transactionType": "CALL",
      "contractName": null,
      "contractAddress": "0x8120a8e0688be6b2c0bb469f871e5e7023ca85eb",
      "function": "setTargetFunctionRole(address,bytes4[],uint64)",
      "arguments": [
        "0x83266Ca8147572839BB23A204db52Bd26a1FCeaa",
        "[0x4bbc170a, 0x15f41501, 0x9e96a260]",
        "4"
      ],
      "transaction": {
        "from": "0xefbbd14082cf2fbcf5badc7ee619f0f4e36d0a5b",
        "to": "0x8120a8e0688be6b2c0bb469f871e5e7023ca85eb",
        "gas": "0xf8fd",
        "value": "0x0",
        "input": "0x08d6122d00000000000000000000000083266ca8147572839bb23a204db52bd26a1fceaa0000000000000000000000000000000000000000000000000000000000000060000000000000000000000000000000000000000000000000000000000000000400000000000000000000000000000000000000000000000000000000000000034bbc170a0000000000000000000000000000000000000000000000000000000015f41501000000000000000000000000000000000000000000000000000000009e96a26000000000000000000000000000000000000000000000000000000000",
        "nonce": "0x96c",
        "chainId": "0x13882"
      },
      "additionalContracts": [],
      "isFixedGasLimit": false
    },
    {
      "hash": "0x279db9c9a16d7c3fb67d799607eaff14dde847b41f8635bc8dcb5bf4f5bee059",
      "transactionType": "CALL",
      "contractName": null,
      "contractAddress": "0x4580859e64385e3e82ee64da2bc06ef84bde851a",
      "function": "setFees(uint8,address,uint256,address)",
      "arguments": [
        "3",
        "0xf06E1998119CAEdf8E084194AA5FEa89eA9389C3",
        "500",
        "0x3c7DeB6FeAEb7a82BDe580Fb73d8d69c401b219e"
      ],
      "transaction": {
        "from": "0xefbbd14082cf2fbcf5badc7ee619f0f4e36d0a5b",
        "to": "0x4580859e64385e3e82ee64da2bc06ef84bde851a",
        "gas": "0x13ae7",
        "value": "0x0",
        "input": "0x8cc0de1d0000000000000000000000000000000000000000000000000000000000000003000000000000000000000000f06e1998119caedf8e084194aa5fea89ea9389c300000000000000000000000000000000000000000000000000000000000001f40000000000000000000000003c7deb6feaeb7a82bde580fb73d8d69c401b219e",
        "nonce": "0x96d",
        "chainId": "0x13882"
      },
      "additionalContracts": [],
      "isFixedGasLimit": false
    },
    {
      "hash": "0x118be1da9c210a9a20d3f6a12403c914612a51d63275c2ade5f3b022688e9711",
      "transactionType": "CALL",
      "contractName": null,
      "contractAddress": "0x4580859e64385e3e82ee64da2bc06ef84bde851a",
      "function": "setFees(uint8,address,uint256,address)",
      "arguments": [
        "1",
        "0xA2746F0D272bb0F5273f53B4a0F476afe8873C32",
        "100000000000000000000",
        "0x3c7DeB6FeAEb7a82BDe580Fb73d8d69c401b219e"
      ],
      "transaction": {
        "from": "0xefbbd14082cf2fbcf5badc7ee619f0f4e36d0a5b",
        "to": "0x4580859e64385e3e82ee64da2bc06ef84bde851a",
        "gas": "0x1299b",
        "value": "0x0",
        "input": "0x8cc0de1d0000000000000000000000000000000000000000000000000000000000000001000000000000000000000000a2746f0d272bb0f5273f53b4a0f476afe8873c320000000000000000000000000000000000000000000000056bc75e2d631000000000000000000000000000003c7deb6feaeb7a82bde580fb73d8d69c401b219e",
        "nonce": "0x96e",
        "chainId": "0x13882"
      },
      "additionalContracts": [],
      "isFixedGasLimit": false
    }
  ],
  "receipts": [
    {
      "status": "0x1",
      "cumulativeGasUsed": "0xa2b3",
      "logs": [
        {
          "address": "0x8120a8e0688be6b2c0bb469f871e5e7023ca85eb",
          "topics": [
            "0xf98448b987f1428e0e230e1f3c6e2ce15b5693eaf31827fbd0b1ec4b424ae7cf",
            "0x0000000000000000000000000000000000000000000000000000000000000001",
            "0x000000000000000000000000efbbd14082cf2fbcf5badc7ee619f0f4e36d0a5b"
          ],
          "data": "0x000000000000000000000000000000000000000000000000000000000000000000000000000000000000000000000000000000000000000000000000677ca7a90000000000000000000000000000000000000000000000000000000000000000",
          "blockHash": "0xaba0a02dbc7602e261ba0d711f00a0b2878832a267b16524e54af6d27aff965b",
          "blockNumber": "0xfc95dc",
          "transactionHash": "0xb4e084d925a1c23dfde6e1bc5d8ebe4ce1735a904295a054415eaf586de1fedf",
          "transactionIndex": "0x0",
          "logIndex": "0x0",
          "removed": false
        },
        {
          "address": "0x0000000000000000000000000000000000001010",
          "topics": [
            "0x4dfe1bbbcf077ddc3e01291eea2d5c70c2b422b415d95645b9adcfd678cb1d63",
            "0x0000000000000000000000000000000000000000000000000000000000001010",
            "0x000000000000000000000000efbbd14082cf2fbcf5badc7ee619f0f4e36d0a5b",
            "0x0000000000000000000000006ab3d36c46ecfb9b9c0bd51cb1c3da5a2c81cea6"
          ],
          "data": "0x0000000000000000000000000000000000000000000000000004adff85788043000000000000000000000000000000000000000000000001428546f77c0b8c1b00000000000000000000000000000000000000000000045ae7b6c099a685d022000000000000000000000000000000000000000000000001428098f7f6930bd800000000000000000000000000000000000000000000045ae7bb6e992bfe5065",
          "blockHash": "0xaba0a02dbc7602e261ba0d711f00a0b2878832a267b16524e54af6d27aff965b",
          "blockNumber": "0xfc95dc",
          "transactionHash": "0xb4e084d925a1c23dfde6e1bc5d8ebe4ce1735a904295a054415eaf586de1fedf",
          "transactionIndex": "0x0",
          "logIndex": "0x1",
          "removed": false
        }
      ],
      "logsBloom": "0x00000000080000000000000000000000000000000000000000000000000000000000000000000000000000000000000000008000000000000000000000040000008000080000000000000000000000800000000000040100000100000000000000000000000000000000000000000000000000000000000080000000000000000800000000000000000000000800000008000000000000000000000000000000200000000000000000002000000000000000400000000008008000000000004000000000000000000001000000000000000000010000000000100000000040000000000000000000000000000000000000000000000000000000000000100000",
      "type": "0x2",
      "transactionHash": "0xb4e084d925a1c23dfde6e1bc5d8ebe4ce1735a904295a054415eaf586de1fedf",
      "transactionIndex": "0x0",
      "blockHash": "0xaba0a02dbc7602e261ba0d711f00a0b2878832a267b16524e54af6d27aff965b",
      "blockNumber": "0xfc95dc",
      "gasUsed": "0xa2b3",
      "effectiveGasPrice": "0x75cff3440",
      "from": "0xefbbd14082cf2fbcf5badc7ee619f0f4e36d0a5b",
      "to": "0x8120a8e0688be6b2c0bb469f871e5e7023ca85eb",
      "contractAddress": null
    },
    {
      "status": "0x1",
      "cumulativeGasUsed": "0x91d8",
      "logs": [
        {
          "address": "0x8120a8e0688be6b2c0bb469f871e5e7023ca85eb",
          "topics": [
            "0x9ea6790c7dadfd01c9f8b9762b3682607af2c7e79e05a9f9fdf5580dde949151",
            "0x0000000000000000000000004580859e64385e3e82ee64da2bc06ef84bde851a",
            "0x0000000000000000000000000000000000000000000000000000000000000001"
          ],
          "data": "0x8cc0de1d00000000000000000000000000000000000000000000000000000000",
          "blockHash": "0xba1063279fab60f6333198c5f41fd01e89e958b430a0490b5f21b94e7094f1ce",
          "blockNumber": "0xfc95dd",
          "transactionHash": "0xa8e4990204367cb5b8fbd1b58da5e19479ddc47e33f9c8375f31afdcf5d08b51",
          "transactionIndex": "0x0",
          "logIndex": "0x0",
          "removed": false
        },
        {
          "address": "0x0000000000000000000000000000000000001010",
          "topics": [
            "0x4dfe1bbbcf077ddc3e01291eea2d5c70c2b422b415d95645b9adcfd678cb1d63",
            "0x0000000000000000000000000000000000000000000000000000000000001010",
            "0x000000000000000000000000efbbd14082cf2fbcf5badc7ee619f0f4e36d0a5b",
            "0x0000000000000000000000006ab3d36c46ecfb9b9c0bd51cb1c3da5a2c81cea6"
          ],
          "data": "0x000000000000000000000000000000000000000000000000000431e303e3ca58000000000000000000000000000000000000000000000001428098f7f689835b00000000000000000000000000000000000000000000045ae7bb6e992bfe5065000000000000000000000000000000000000000000000001427c6714f2a5b90300000000000000000000000000000000000000000000045ae7bfa07c2fe21abd",
          "blockHash": "0xba1063279fab60f6333198c5f41fd01e89e958b430a0490b5f21b94e7094f1ce",
          "blockNumber": "0xfc95dd",
          "transactionHash": "0xa8e4990204367cb5b8fbd1b58da5e19479ddc47e33f9c8375f31afdcf5d08b51",
          "transactionIndex": "0x0",
          "logIndex": "0x1",
          "removed": false
        }
      ],
      "logsBloom": "0x00000004080080000000000000000000000000000000000000000000000000000000000000000000000000000000000000008000000000000000000000040000008000080000000000000000000000800000000000040100000100000000000000000000000000000000040000000000000000000000000080000000000000000800000000000000000000000800000000000000000000000000000000000000200000000000000000000000000000000000400000000000008000000000004000000000000002000001000000200000000000010000000000100000000040000100000000000000000000000000000000000000000000000000000000100000",
      "type": "0x2",
      "transactionHash": "0xa8e4990204367cb5b8fbd1b58da5e19479ddc47e33f9c8375f31afdcf5d08b51",
      "transactionIndex": "0x0",
      "blockHash": "0xba1063279fab60f6333198c5f41fd01e89e958b430a0490b5f21b94e7094f1ce",
      "blockNumber": "0xfc95dd",
      "gasUsed": "0x91d8",
      "effectiveGasPrice": "0x75cff3440",
      "from": "0xefbbd14082cf2fbcf5badc7ee619f0f4e36d0a5b",
      "to": "0x8120a8e0688be6b2c0bb469f871e5e7023ca85eb",
      "contractAddress": null
    },
    {
      "status": "0x1",
      "cumulativeGasUsed": "0x123b0",
      "logs": [
        {
          "address": "0x8120a8e0688be6b2c0bb469f871e5e7023ca85eb",
          "topics": [
            "0x9ea6790c7dadfd01c9f8b9762b3682607af2c7e79e05a9f9fdf5580dde949151",
            "0x000000000000000000000000d32ca33b1fbd97523536ed3519a191df242afcfd",
            "0x0000000000000000000000000000000000000000000000000000000000000001"
          ],
          "data": "0x06af20da00000000000000000000000000000000000000000000000000000000",
          "blockHash": "0xba1063279fab60f6333198c5f41fd01e89e958b430a0490b5f21b94e7094f1ce",
          "blockNumber": "0xfc95dd",
          "transactionHash": "0x63e936fdcdd43387d124aac35d2fcc44356570788cf88a804492eba9fee94264",
          "transactionIndex": "0x1",
          "logIndex": "0x2",
          "removed": false
        },
        {
          "address": "0x0000000000000000000000000000000000001010",
          "topics": [
            "0x4dfe1bbbcf077ddc3e01291eea2d5c70c2b422b415d95645b9adcfd678cb1d63",
            "0x0000000000000000000000000000000000000000000000000000000000001010",
            "0x000000000000000000000000efbbd14082cf2fbcf5badc7ee619f0f4e36d0a5b",
            "0x0000000000000000000000006ab3d36c46ecfb9b9c0bd51cb1c3da5a2c81cea6"
          ],
          "data": "0x000000000000000000000000000000000000000000000000000431e303e3ca58000000000000000000000000000000000000000000000001427c6714f29d2d5b00000000000000000000000000000000000000000000045ae7bfa07c2fe21abd00000000000000000000000000000000000000000000000142783531eeb9630300000000000000000000000000000000000000000000045ae7c3d25f33c5e515",
          "blockHash": "0xba1063279fab60f6333198c5f41fd01e89e958b430a0490b5f21b94e7094f1ce",
          "blockNumber": "0xfc95dd",
          "transactionHash": "0x63e936fdcdd43387d124aac35d2fcc44356570788cf88a804492eba9fee94264",
          "transactionIndex": "0x1",
          "logIndex": "0x3",
          "removed": false
        }
      ],
      "logsBloom": "0x00000004080080000000000000000000000000000000000000000000000000000000000000000000000000000000000000008000000000000000000000040000008000080000000000800000000000800000000000040100100100000000000000000000000000000000000000000000000000000000000080000000000000000800000000000000000000000800000000000000000000000000000000000000200000000000000000000000000000000000400000000000008000000000004000000000000000000001000000200000000400010000000000100000000040000000000000000000000000000000000000000000000000000000000000100000",
      "type": "0x2",
      "transactionHash": "0x63e936fdcdd43387d124aac35d2fcc44356570788cf88a804492eba9fee94264",
      "transactionIndex": "0x1",
      "blockHash": "0xba1063279fab60f6333198c5f41fd01e89e958b430a0490b5f21b94e7094f1ce",
      "blockNumber": "0xfc95dd",
      "gasUsed": "0x91d8",
      "effectiveGasPrice": "0x75cff3440",
      "from": "0xefbbd14082cf2fbcf5badc7ee619f0f4e36d0a5b",
      "to": "0x8120a8e0688be6b2c0bb469f871e5e7023ca85eb",
      "contractAddress": null
    },
    {
      "status": "0x1",
      "cumulativeGasUsed": "0x1d7e8",
      "logs": [
        {
          "address": "0x8120a8e0688be6b2c0bb469f871e5e7023ca85eb",
          "topics": [
            "0x9ea6790c7dadfd01c9f8b9762b3682607af2c7e79e05a9f9fdf5580dde949151",
            "0x00000000000000000000000000abb22eb950684e4314287e94f024b0a9420d40",
            "0x0000000000000000000000000000000000000000000000000000000000000001"
          ],
          "data": "0x20c5429b00000000000000000000000000000000000000000000000000000000",
          "blockHash": "0xba1063279fab60f6333198c5f41fd01e89e958b430a0490b5f21b94e7094f1ce",
          "blockNumber": "0xfc95dd",
          "transactionHash": "0xbe0334bb1ae9226696488526abc64150eff239d65f28044dae0fb07eb3cffb48",
          "transactionIndex": "0x2",
          "logIndex": "0x4",
          "removed": false
        },
        {
          "address": "0x8120a8e0688be6b2c0bb469f871e5e7023ca85eb",
          "topics": [
            "0x9ea6790c7dadfd01c9f8b9762b3682607af2c7e79e05a9f9fdf5580dde949151",
            "0x00000000000000000000000000abb22eb950684e4314287e94f024b0a9420d40",
            "0x0000000000000000000000000000000000000000000000000000000000000001"
          ],
          "data": "0xb8adaa1100000000000000000000000000000000000000000000000000000000",
          "blockHash": "0xba1063279fab60f6333198c5f41fd01e89e958b430a0490b5f21b94e7094f1ce",
          "blockNumber": "0xfc95dd",
          "transactionHash": "0xbe0334bb1ae9226696488526abc64150eff239d65f28044dae0fb07eb3cffb48",
          "transactionIndex": "0x2",
          "logIndex": "0x5",
          "removed": false
        },
        {
          "address": "0x8120a8e0688be6b2c0bb469f871e5e7023ca85eb",
          "topics": [
            "0x9ea6790c7dadfd01c9f8b9762b3682607af2c7e79e05a9f9fdf5580dde949151",
            "0x00000000000000000000000000abb22eb950684e4314287e94f024b0a9420d40",
            "0x0000000000000000000000000000000000000000000000000000000000000001"
          ],
          "data": "0xb759f95400000000000000000000000000000000000000000000000000000000",
          "blockHash": "0xba1063279fab60f6333198c5f41fd01e89e958b430a0490b5f21b94e7094f1ce",
          "blockNumber": "0xfc95dd",
          "transactionHash": "0xbe0334bb1ae9226696488526abc64150eff239d65f28044dae0fb07eb3cffb48",
          "transactionIndex": "0x2",
          "logIndex": "0x6",
          "removed": false
        },
        {
          "address": "0x0000000000000000000000000000000000001010",
          "topics": [
            "0x4dfe1bbbcf077ddc3e01291eea2d5c70c2b422b415d95645b9adcfd678cb1d63",
            "0x0000000000000000000000000000000000000000000000000000000000001010",
            "0x000000000000000000000000efbbd14082cf2fbcf5badc7ee619f0f4e36d0a5b",
            "0x0000000000000000000000006ab3d36c46ecfb9b9c0bd51cb1c3da5a2c81cea6"
          ],
          "data": "0x00000000000000000000000000000000000000000000000000052effc885deb800000000000000000000000000000000000000000000000142783531eeb0d75b00000000000000000000000000000000000000000000045ae7c3d25f33c5e51500000000000000000000000000000000000000000000000142730632262af8a300000000000000000000000000000000000000000000045ae7c9015efc4bc3cd",
          "blockHash": "0xba1063279fab60f6333198c5f41fd01e89e958b430a0490b5f21b94e7094f1ce",
          "blockNumber": "0xfc95dd",
          "transactionHash": "0xbe0334bb1ae9226696488526abc64150eff239d65f28044dae0fb07eb3cffb48",
          "transactionIndex": "0x2",
          "logIndex": "0x7",
          "removed": false
        }
      ],
      "logsBloom": "0x00000004080080000000000000000000000000000000000000000000000000000000000000000000000000000000000000008000000000000000000000040000008000080000000000000000000000800000000000040100000100000000000000000000000000000000000000000000000000000000000080000000000000000800000000000000000000000800000000000000000000000000000000000000200000000000000004000000000000000000400000000000008000000000004000000000000000000001000000200000000000010000000000100000000040000000000000000000000000000000000100000000000000400000000000100000",
      "type": "0x2",
      "transactionHash": "0xbe0334bb1ae9226696488526abc64150eff239d65f28044dae0fb07eb3cffb48",
      "transactionIndex": "0x2",
      "blockHash": "0xba1063279fab60f6333198c5f41fd01e89e958b430a0490b5f21b94e7094f1ce",
      "blockNumber": "0xfc95dd",
      "gasUsed": "0xb438",
      "effectiveGasPrice": "0x75cff3440",
      "from": "0xefbbd14082cf2fbcf5badc7ee619f0f4e36d0a5b",
      "to": "0x8120a8e0688be6b2c0bb469f871e5e7023ca85eb",
      "contractAddress": null
    },
    {
      "status": "0x1",
      "cumulativeGasUsed": "0x28c2c",
      "logs": [
        {
          "address": "0x8120a8e0688be6b2c0bb469f871e5e7023ca85eb",
          "topics": [
            "0x9ea6790c7dadfd01c9f8b9762b3682607af2c7e79e05a9f9fdf5580dde949151",
            "0x000000000000000000000000a2746f0d272bb0f5273f53b4a0f476afe8873c32",
            "0x0000000000000000000000000000000000000000000000000000000000000001"
          ],
          "data": "0xf6eea09800000000000000000000000000000000000000000000000000000000",
          "blockHash": "0xba1063279fab60f6333198c5f41fd01e89e958b430a0490b5f21b94e7094f1ce",
          "blockNumber": "0xfc95dd",
          "transactionHash": "0x54aa41183f1662cd3665b6b6cb0ba286fcb7bb934e3630221879786ff7c2d089",
          "transactionIndex": "0x3",
          "logIndex": "0x8",
          "removed": false
        },
        {
          "address": "0x8120a8e0688be6b2c0bb469f871e5e7023ca85eb",
          "topics": [
            "0x9ea6790c7dadfd01c9f8b9762b3682607af2c7e79e05a9f9fdf5580dde949151",
            "0x000000000000000000000000a2746f0d272bb0f5273f53b4a0f476afe8873c32",
            "0x0000000000000000000000000000000000000000000000000000000000000001"
          ],
          "data": "0x74a8f10300000000000000000000000000000000000000000000000000000000",
          "blockHash": "0xba1063279fab60f6333198c5f41fd01e89e958b430a0490b5f21b94e7094f1ce",
          "blockNumber": "0xfc95dd",
          "transactionHash": "0x54aa41183f1662cd3665b6b6cb0ba286fcb7bb934e3630221879786ff7c2d089",
          "transactionIndex": "0x3",
          "logIndex": "0x9",
          "removed": false
        },
        {
          "address": "0x8120a8e0688be6b2c0bb469f871e5e7023ca85eb",
          "topics": [
            "0x9ea6790c7dadfd01c9f8b9762b3682607af2c7e79e05a9f9fdf5580dde949151",
            "0x000000000000000000000000a2746f0d272bb0f5273f53b4a0f476afe8873c32",
            "0x0000000000000000000000000000000000000000000000000000000000000001"
          ],
          "data": "0xdaea85c500000000000000000000000000000000000000000000000000000000",
          "blockHash": "0xba1063279fab60f6333198c5f41fd01e89e958b430a0490b5f21b94e7094f1ce",
          "blockNumber": "0xfc95dd",
          "transactionHash": "0x54aa41183f1662cd3665b6b6cb0ba286fcb7bb934e3630221879786ff7c2d089",
          "transactionIndex": "0x3",
          "logIndex": "0xa",
          "removed": false
        },
        {
          "address": "0x0000000000000000000000000000000000001010",
          "topics": [
            "0x4dfe1bbbcf077ddc3e01291eea2d5c70c2b422b415d95645b9adcfd678cb1d63",
            "0x0000000000000000000000000000000000000000000000000000000000001010",
            "0x000000000000000000000000efbbd14082cf2fbcf5badc7ee619f0f4e36d0a5b",
            "0x0000000000000000000000006ab3d36c46ecfb9b9c0bd51cb1c3da5a2c81cea6"
          ],
          "data": "0x00000000000000000000000000000000000000000000000000052f58247c5104000000000000000000000000000000000000000000000001427306322620695b00000000000000000000000000000000000000000000045ae7c9015efc4bc3cd000000000000000000000000000000000000000000000001426dd6da01a4185700000000000000000000000000000000000000000000045ae7ce30b720c814d1",
          "blockHash": "0xba1063279fab60f6333198c5f41fd01e89e958b430a0490b5f21b94e7094f1ce",
          "blockNumber": "0xfc95dd",
          "transactionHash": "0x54aa41183f1662cd3665b6b6cb0ba286fcb7bb934e3630221879786ff7c2d089",
          "transactionIndex": "0x3",
          "logIndex": "0xb",
          "removed": false
        }
      ],
      "logsBloom": "0x00000004080080000000000000000000000000000000000000000000000000000000000000000000000000000001000000008000000000000000000000040000008000080000000000000000000000800000000000040100000100000000000000000000000000000000000000000000000000000000000080000000000000000800000000000000000000000800000000000000000000000000000000000000200000000000000000000000000000000000400000000000008000000000004000000000000000000001000400200000000000010000000000100000000040000000000000000000000040000000000000000000000000000000000000100000",
      "type": "0x2",
      "transactionHash": "0x54aa41183f1662cd3665b6b6cb0ba286fcb7bb934e3630221879786ff7c2d089",
      "transactionIndex": "0x3",
      "blockHash": "0xba1063279fab60f6333198c5f41fd01e89e958b430a0490b5f21b94e7094f1ce",
      "blockNumber": "0xfc95dd",
      "gasUsed": "0xb444",
      "effectiveGasPrice": "0x75cff3440",
      "from": "0xefbbd14082cf2fbcf5badc7ee619f0f4e36d0a5b",
      "to": "0x8120a8e0688be6b2c0bb469f871e5e7023ca85eb",
      "contractAddress": null
    },
    {
      "status": "0x1",
      "cumulativeGasUsed": "0x32edf",
      "logs": [
        {
          "address": "0x8120a8e0688be6b2c0bb469f871e5e7023ca85eb",
          "topics": [
            "0xf98448b987f1428e0e230e1f3c6e2ce15b5693eaf31827fbd0b1ec4b424ae7cf",
            "0x0000000000000000000000000000000000000000000000000000000000000002",
            "0x000000000000000000000000efbbd14082cf2fbcf5badc7ee619f0f4e36d0a5b"
          ],
          "data": "0x000000000000000000000000000000000000000000000000000000000000000000000000000000000000000000000000000000000000000000000000677ca7ab0000000000000000000000000000000000000000000000000000000000000000",
          "blockHash": "0xba1063279fab60f6333198c5f41fd01e89e958b430a0490b5f21b94e7094f1ce",
          "blockNumber": "0xfc95dd",
          "transactionHash": "0xea097c458616445a93a3b6f572dda3b351b6209e282512bfa741a257b1f51e58",
          "transactionIndex": "0x4",
          "logIndex": "0xc",
          "removed": false
        },
        {
          "address": "0x0000000000000000000000000000000000001010",
          "topics": [
            "0x4dfe1bbbcf077ddc3e01291eea2d5c70c2b422b415d95645b9adcfd678cb1d63",
            "0x0000000000000000000000000000000000000000000000000000000000001010",
            "0x000000000000000000000000efbbd14082cf2fbcf5badc7ee619f0f4e36d0a5b",
            "0x0000000000000000000000006ab3d36c46ecfb9b9c0bd51cb1c3da5a2c81cea6"
          ],
          "data": "0x0000000000000000000000000000000000000000000000000004adff85788043000000000000000000000000000000000000000000000001426dd6da0199885b00000000000000000000000000000000000000000000045ae7ce30b720c814d1000000000000000000000000000000000000000000000001426928da7c21081800000000000000000000000000000000000000000000045ae7d2deb6a6409514",
          "blockHash": "0xba1063279fab60f6333198c5f41fd01e89e958b430a0490b5f21b94e7094f1ce",
          "blockNumber": "0xfc95dd",
          "transactionHash": "0xea097c458616445a93a3b6f572dda3b351b6209e282512bfa741a257b1f51e58",
          "transactionIndex": "0x4",
          "logIndex": "0xd",
          "removed": false
        }
      ],
      "logsBloom": "0x04000000080000000000000000000000000000000000000000000000000000000000000000000000000000000000000000008000000000000000000000000000008000080000000000000000000000800000000000000100000100000000000000000000000000000000000000000000000000000000000080000000000000000800000000000000000000000800000008000000000000000000000000000000200000000000000000002100000000000000400000000008008000000000004000000000000000000001000000000000000000010000000000100000000000000000000000000000000000000000000000000000008000000000000000100000",
      "type": "0x2",
      "transactionHash": "0xea097c458616445a93a3b6f572dda3b351b6209e282512bfa741a257b1f51e58",
      "transactionIndex": "0x4",
      "blockHash": "0xba1063279fab60f6333198c5f41fd01e89e958b430a0490b5f21b94e7094f1ce",
      "blockNumber": "0xfc95dd",
      "gasUsed": "0xa2b3",
      "effectiveGasPrice": "0x75cff3440",
      "from": "0xefbbd14082cf2fbcf5badc7ee619f0f4e36d0a5b",
      "to": "0x8120a8e0688be6b2c0bb469f871e5e7023ca85eb",
      "contractAddress": null
    },
    {
      "status": "0x1",
      "cumulativeGasUsed": "0x3d1ed",
      "logs": [
        {
          "address": "0x8120a8e0688be6b2c0bb469f871e5e7023ca85eb",
          "topics": [
            "0x9ea6790c7dadfd01c9f8b9762b3682607af2c7e79e05a9f9fdf5580dde949151",
            "0x0000000000000000000000008db5ae2ae14e189c7d0e8f9c67643170e5508874",
            "0x0000000000000000000000000000000000000000000000000000000000000002"
          ],
          "data": "0xdaea85c500000000000000000000000000000000000000000000000000000000",
          "blockHash": "0xba1063279fab60f6333198c5f41fd01e89e958b430a0490b5f21b94e7094f1ce",
          "blockNumber": "0xfc95dd",
          "transactionHash": "0xccebb6e4955507c012c0721c30c730ff6ddc79874b0044423814122b8991d70e",
          "transactionIndex": "0x5",
          "logIndex": "0xe",
          "removed": false
        },
        {
          "address": "0x8120a8e0688be6b2c0bb469f871e5e7023ca85eb",
          "topics": [
            "0x9ea6790c7dadfd01c9f8b9762b3682607af2c7e79e05a9f9fdf5580dde949151",
            "0x0000000000000000000000008db5ae2ae14e189c7d0e8f9c67643170e5508874",
            "0x0000000000000000000000000000000000000000000000000000000000000002"
          ],
          "data": "0xab0da5a900000000000000000000000000000000000000000000000000000000",
          "blockHash": "0xba1063279fab60f6333198c5f41fd01e89e958b430a0490b5f21b94e7094f1ce",
          "blockNumber": "0xfc95dd",
          "transactionHash": "0xccebb6e4955507c012c0721c30c730ff6ddc79874b0044423814122b8991d70e",
          "transactionIndex": "0x5",
          "logIndex": "0xf",
          "removed": false
        },
        {
          "address": "0x0000000000000000000000000000000000001010",
          "topics": [
            "0x4dfe1bbbcf077ddc3e01291eea2d5c70c2b422b415d95645b9adcfd678cb1d63",
            "0x0000000000000000000000000000000000000000000000000000000000001010",
            "0x000000000000000000000000efbbd14082cf2fbcf5badc7ee619f0f4e36d0a5b",
            "0x0000000000000000000000006ab3d36c46ecfb9b9c0bd51cb1c3da5a2c81cea6"
          ],
          "data": "0x0000000000000000000000000000000000000000000000000004b09d94300dae000000000000000000000000000000000000000000000001426928da7c177f9b00000000000000000000000000000000000000000000045ae7d2deb6a64095140000000000000000000000000000000000000000000000014264783ce7e771ed00000000000000000000000000000000000000000000045ae7d78f543a70a2c2",
          "blockHash": "0xba1063279fab60f6333198c5f41fd01e89e958b430a0490b5f21b94e7094f1ce",
          "blockNumber": "0xfc95dd",
          "transactionHash": "0xccebb6e4955507c012c0721c30c730ff6ddc79874b0044423814122b8991d70e",
          "transactionIndex": "0x5",
          "logIndex": "0x10",
          "removed": false
        }
      ],
      "logsBloom": "0x04000004080080000000000000000000000000000000000000000000000000002000000000000000000000000000000000008000000000000000000000000000008000080000000000000000000000800000000000004100000100000000000000000000000000000000000000000000000000000000000080000000000000000800000000000000000000000800000000000000000000000000000000020000200000000000000000000100000000000000400000000000008000000000004000000000000000000001000000200000000000010000000000100000000000000000000000000000000000000000000000000000008000000000000000100000",
      "type": "0x2",
      "transactionHash": "0xccebb6e4955507c012c0721c30c730ff6ddc79874b0044423814122b8991d70e",
      "transactionIndex": "0x5",
      "blockHash": "0xba1063279fab60f6333198c5f41fd01e89e958b430a0490b5f21b94e7094f1ce",
      "blockNumber": "0xfc95dd",
      "gasUsed": "0xa30e",
      "effectiveGasPrice": "0x75cff3440",
      "from": "0xefbbd14082cf2fbcf5badc7ee619f0f4e36d0a5b",
      "to": "0x8120a8e0688be6b2c0bb469f871e5e7023ca85eb",
      "contractAddress": null
    },
    {
      "status": "0x1",
      "cumulativeGasUsed": "0x474a0",
      "logs": [
        {
          "address": "0x8120a8e0688be6b2c0bb469f871e5e7023ca85eb",
          "topics": [
            "0xf98448b987f1428e0e230e1f3c6e2ce15b5693eaf31827fbd0b1ec4b424ae7cf",
            "0x0000000000000000000000000000000000000000000000000000000000000004",
            "0x0000000000000000000000005945c1417ad688ef90cf3e61263b404b96a0c20b"
          ],
          "data": "0x000000000000000000000000000000000000000000000000000000000000000000000000000000000000000000000000000000000000000000000000677ca7ab0000000000000000000000000000000000000000000000000000000000000000",
          "blockHash": "0xba1063279fab60f6333198c5f41fd01e89e958b430a0490b5f21b94e7094f1ce",
          "blockNumber": "0xfc95dd",
          "transactionHash": "0x30279f6bbfe0c5d73f155b9f9964f0e158cae92cc25ccf3d468a5e0657a46385",
          "transactionIndex": "0x6",
          "logIndex": "0x11",
          "removed": false
        },
        {
          "address": "0x0000000000000000000000000000000000001010",
          "topics": [
            "0x4dfe1bbbcf077ddc3e01291eea2d5c70c2b422b415d95645b9adcfd678cb1d63",
            "0x0000000000000000000000000000000000000000000000000000000000001010",
            "0x000000000000000000000000efbbd14082cf2fbcf5badc7ee619f0f4e36d0a5b",
            "0x0000000000000000000000006ab3d36c46ecfb9b9c0bd51cb1c3da5a2c81cea6"
          ],
          "data": "0x0000000000000000000000000000000000000000000000000004adff857880430000000000000000000000000000000000000000000000014264783ce7dde41b00000000000000000000000000000000000000000000045ae7d78f543a70a2c2000000000000000000000000000000000000000000000001425fca3d626563d800000000000000000000000000000000000000000000045ae7dc3d53bfe92305",
          "blockHash": "0xba1063279fab60f6333198c5f41fd01e89e958b430a0490b5f21b94e7094f1ce",
          "blockNumber": "0xfc95dd",
          "transactionHash": "0x30279f6bbfe0c5d73f155b9f9964f0e158cae92cc25ccf3d468a5e0657a46385",
          "transactionIndex": "0x6",
          "logIndex": "0x12",
          "removed": false
        }
      ],
      "logsBloom": "0x0000000008000000000000000000000000000000000000000000000000000000000000000000000000000000000000000000800000000000000000000000000000800208000000000000000000000080000000000000010000010000000000000800000000000000000000000000000000000000000000008000000000000000080000000000000000000000084000000800000000000000000000000000000020000000000000000000200000000000000040000000000840a000000000004000000000000000000001000000000000000000018000000000100000000000000000000000000000000000000000000000000000000000000000000000100000",
      "type": "0x2",
      "transactionHash": "0x30279f6bbfe0c5d73f155b9f9964f0e158cae92cc25ccf3d468a5e0657a46385",
      "transactionIndex": "0x6",
      "blockHash": "0xba1063279fab60f6333198c5f41fd01e89e958b430a0490b5f21b94e7094f1ce",
      "blockNumber": "0xfc95dd",
      "gasUsed": "0xa2b3",
      "effectiveGasPrice": "0x75cff3440",
      "from": "0xefbbd14082cf2fbcf5badc7ee619f0f4e36d0a5b",
      "to": "0x8120a8e0688be6b2c0bb469f871e5e7023ca85eb",
      "contractAddress": null
    },
    {
      "status": "0x1",
      "cumulativeGasUsed": "0x51753",
      "logs": [
        {
          "address": "0x8120a8e0688be6b2c0bb469f871e5e7023ca85eb",
          "topics": [
            "0xf98448b987f1428e0e230e1f3c6e2ce15b5693eaf31827fbd0b1ec4b424ae7cf",
            "0x0000000000000000000000000000000000000000000000000000000000000004",
            "0x00000000000000000000000031b351e4c217f838190825586caa8494ee1ca635"
          ],
          "data": "0x000000000000000000000000000000000000000000000000000000000000000000000000000000000000000000000000000000000000000000000000677ca7ab0000000000000000000000000000000000000000000000000000000000000000",
          "blockHash": "0xba1063279fab60f6333198c5f41fd01e89e958b430a0490b5f21b94e7094f1ce",
          "blockNumber": "0xfc95dd",
          "transactionHash": "0xdce3ceb2f381bb0de47f23bcd867640675063c5cb6cfc7d1cb84758459ab8314",
          "transactionIndex": "0x7",
          "logIndex": "0x13",
          "removed": false
        },
        {
          "address": "0x0000000000000000000000000000000000001010",
          "topics": [
            "0x4dfe1bbbcf077ddc3e01291eea2d5c70c2b422b415d95645b9adcfd678cb1d63",
            "0x0000000000000000000000000000000000000000000000000000000000001010",
            "0x000000000000000000000000efbbd14082cf2fbcf5badc7ee619f0f4e36d0a5b",
            "0x0000000000000000000000006ab3d36c46ecfb9b9c0bd51cb1c3da5a2c81cea6"
          ],
          "data": "0x0000000000000000000000000000000000000000000000000004adff85788043000000000000000000000000000000000000000000000001425fca3d625bdb5b00000000000000000000000000000000000000000000045ae7dc3d53bfe92305000000000000000000000000000000000000000000000001425b1c3ddce35b1800000000000000000000000000000000000000000000045ae7e0eb534561a348",
          "blockHash": "0xba1063279fab60f6333198c5f41fd01e89e958b430a0490b5f21b94e7094f1ce",
          "blockNumber": "0xfc95dd",
          "transactionHash": "0xdce3ceb2f381bb0de47f23bcd867640675063c5cb6cfc7d1cb84758459ab8314",
          "transactionIndex": "0x7",
          "logIndex": "0x14",
          "removed": false
        }
      ],
      "logsBloom": "0x0000000008000000000000000000000000000000000000000000000000000000000000000000000000000000000000000000800000000000000000000000000000800008000000000000000000000080000000000000010000010000000000000800000000000000000000000000000000000000000000008000000000800000080000000000000000000000080000000800000000000000000000000000000020000000000000000000200000000000000040000000000800a000000000004002000000000000000001000000000000000000018000000000100010000000000000000000000000000000000000000000000000000000000000000000100000",
      "type": "0x2",
      "transactionHash": "0xdce3ceb2f381bb0de47f23bcd867640675063c5cb6cfc7d1cb84758459ab8314",
      "transactionIndex": "0x7",
      "blockHash": "0xba1063279fab60f6333198c5f41fd01e89e958b430a0490b5f21b94e7094f1ce",
      "blockNumber": "0xfc95dd",
      "gasUsed": "0xa2b3",
      "effectiveGasPrice": "0x75cff3440",
      "from": "0xefbbd14082cf2fbcf5badc7ee619f0f4e36d0a5b",
      "to": "0x8120a8e0688be6b2c0bb469f871e5e7023ca85eb",
      "contractAddress": null
    },
    {
      "status": "0x1",
      "cumulativeGasUsed": "0xa2b3",
      "logs": [
        {
          "address": "0x8120a8e0688be6b2c0bb469f871e5e7023ca85eb",
          "topics": [
            "0xf98448b987f1428e0e230e1f3c6e2ce15b5693eaf31827fbd0b1ec4b424ae7cf",
            "0x0000000000000000000000000000000000000000000000000000000000000004",
            "0x000000000000000000000000a2746f0d272bb0f5273f53b4a0f476afe8873c32"
          ],
          "data": "0x000000000000000000000000000000000000000000000000000000000000000000000000000000000000000000000000000000000000000000000000677ca7ad0000000000000000000000000000000000000000000000000000000000000000",
          "blockHash": "0xe2b7e97025131485e6dd33276f60c827932531b2e256f97e85aee37cdbbca5b6",
          "blockNumber": "0xfc95de",
          "transactionHash": "0x7c731f697e7e858fe76336f5047cd3afa69e97c7f9e6919042d9bdbbbe8fdb40",
          "transactionIndex": "0x0",
          "logIndex": "0x0",
          "removed": false
        },
        {
          "address": "0x0000000000000000000000000000000000001010",
          "topics": [
            "0x4dfe1bbbcf077ddc3e01291eea2d5c70c2b422b415d95645b9adcfd678cb1d63",
            "0x0000000000000000000000000000000000000000000000000000000000001010",
            "0x000000000000000000000000efbbd14082cf2fbcf5badc7ee619f0f4e36d0a5b",
            "0x0000000000000000000000006ab3d36c46ecfb9b9c0bd51cb1c3da5a2c81cea6"
          ],
          "data": "0x0000000000000000000000000000000000000000000000000004adff85788043000000000000000000000000000000000000000000000001425b1c3ddcd9d29b00000000000000000000000000000000000000000000045ae7eb39ad965dc82d00000000000000000000000000000000000000000000000142566e3e5761525800000000000000000000000000000000000000000000045ae7efe7ad1bd64870",
          "blockHash": "0xe2b7e97025131485e6dd33276f60c827932531b2e256f97e85aee37cdbbca5b6",
          "blockNumber": "0xfc95de",
          "transactionHash": "0x7c731f697e7e858fe76336f5047cd3afa69e97c7f9e6919042d9bdbbbe8fdb40",
          "transactionIndex": "0x0",
          "logIndex": "0x1",
          "removed": false
        }
      ],
      "logsBloom": "0x0000000008000000000000000000000000000000000000000000000000000000000000000000000000000000000100000000800000000000000000000000000000800008000000000000000000000080000000000000010000010000000000000800000000000000000000000000000000000000000000008000000000000000080000000000000000000000080000000800000000000000000000000000000020000000000000000000200000000000000040000000000800a000000000004000000000000000000001000400000000000000018000000000100000000000000000000000000000000040000000000000000000000000000000000000100000",
      "type": "0x2",
      "transactionHash": "0x7c731f697e7e858fe76336f5047cd3afa69e97c7f9e6919042d9bdbbbe8fdb40",
      "transactionIndex": "0x0",
      "blockHash": "0xe2b7e97025131485e6dd33276f60c827932531b2e256f97e85aee37cdbbca5b6",
      "blockNumber": "0xfc95de",
      "gasUsed": "0xa2b3",
      "effectiveGasPrice": "0x75cff3440",
      "from": "0xefbbd14082cf2fbcf5badc7ee619f0f4e36d0a5b",
      "to": "0x8120a8e0688be6b2c0bb469f871e5e7023ca85eb",
      "contractAddress": null
    },
    {
      "status": "0x1",
      "cumulativeGasUsed": "0x156f7",
      "logs": [
        {
          "address": "0x8120a8e0688be6b2c0bb469f871e5e7023ca85eb",
          "topics": [
            "0x9ea6790c7dadfd01c9f8b9762b3682607af2c7e79e05a9f9fdf5580dde949151",
            "0x00000000000000000000000083266ca8147572839bb23a204db52bd26a1fceaa",
            "0x0000000000000000000000000000000000000000000000000000000000000004"
          ],
          "data": "0x4bbc170a00000000000000000000000000000000000000000000000000000000",
          "blockHash": "0xe2b7e97025131485e6dd33276f60c827932531b2e256f97e85aee37cdbbca5b6",
          "blockNumber": "0xfc95de",
          "transactionHash": "0x7071dfe34be28b1ff98a2b9175126cd3459165fa93d6d1cba9d8044c354fbc8a",
          "transactionIndex": "0x1",
          "logIndex": "0x2",
          "removed": false
        },
        {
          "address": "0x8120a8e0688be6b2c0bb469f871e5e7023ca85eb",
          "topics": [
            "0x9ea6790c7dadfd01c9f8b9762b3682607af2c7e79e05a9f9fdf5580dde949151",
            "0x00000000000000000000000083266ca8147572839bb23a204db52bd26a1fceaa",
            "0x0000000000000000000000000000000000000000000000000000000000000004"
          ],
          "data": "0x15f4150100000000000000000000000000000000000000000000000000000000",
          "blockHash": "0xe2b7e97025131485e6dd33276f60c827932531b2e256f97e85aee37cdbbca5b6",
          "blockNumber": "0xfc95de",
          "transactionHash": "0x7071dfe34be28b1ff98a2b9175126cd3459165fa93d6d1cba9d8044c354fbc8a",
          "transactionIndex": "0x1",
          "logIndex": "0x3",
          "removed": false
        },
        {
          "address": "0x8120a8e0688be6b2c0bb469f871e5e7023ca85eb",
          "topics": [
            "0x9ea6790c7dadfd01c9f8b9762b3682607af2c7e79e05a9f9fdf5580dde949151",
            "0x00000000000000000000000083266ca8147572839bb23a204db52bd26a1fceaa",
            "0x0000000000000000000000000000000000000000000000000000000000000004"
          ],
          "data": "0x9e96a26000000000000000000000000000000000000000000000000000000000",
          "blockHash": "0xe2b7e97025131485e6dd33276f60c827932531b2e256f97e85aee37cdbbca5b6",
          "blockNumber": "0xfc95de",
          "transactionHash": "0x7071dfe34be28b1ff98a2b9175126cd3459165fa93d6d1cba9d8044c354fbc8a",
          "transactionIndex": "0x1",
          "logIndex": "0x4",
          "removed": false
        },
        {
          "address": "0x0000000000000000000000000000000000001010",
          "topics": [
            "0x4dfe1bbbcf077ddc3e01291eea2d5c70c2b422b415d95645b9adcfd678cb1d63",
            "0x0000000000000000000000000000000000000000000000000000000000001010",
            "0x000000000000000000000000efbbd14082cf2fbcf5badc7ee619f0f4e36d0a5b",
            "0x0000000000000000000000006ab3d36c46ecfb9b9c0bd51cb1c3da5a2c81cea6"
          ],
          "data": "0x00000000000000000000000000000000000000000000000000052f58247c510400000000000000000000000000000000000000000000000142566e3e5757c9db00000000000000000000000000000000000000000000045ae7efe7ad1bd6487000000000000000000000000000000000000000000000000142513ee632db78d700000000000000000000000000000000000000000000045ae7f5170540529974",
          "blockHash": "0xe2b7e97025131485e6dd33276f60c827932531b2e256f97e85aee37cdbbca5b6",
          "blockNumber": "0xfc95de",
          "transactionHash": "0x7071dfe34be28b1ff98a2b9175126cd3459165fa93d6d1cba9d8044c354fbc8a",
          "transactionIndex": "0x1",
          "logIndex": "0x5",
          "removed": false
        }
      ],
      "logsBloom": "0x0000000408008000000000000000000000000000000000000000000000000000000000000000000000000000000000000000800000000000000000000000000000800008000000000000000000000080000000000000010000010000000000000800000000000000000000000000000000000000000000008000000000000000080000000000000000000000080000000000000000000040000000000000000020000000000000000000000000000000000040000000000000a000000000004000000000000000000001000000200001000000018000000000100000000000000000008000000000000000000000000000000000000000000000000000100000",
      "type": "0x2",
      "transactionHash": "0x7071dfe34be28b1ff98a2b9175126cd3459165fa93d6d1cba9d8044c354fbc8a",
      "transactionIndex": "0x1",
      "blockHash": "0xe2b7e97025131485e6dd33276f60c827932531b2e256f97e85aee37cdbbca5b6",
      "blockNumber": "0xfc95de",
      "gasUsed": "0xb444",
      "effectiveGasPrice": "0x75cff3440",
      "from": "0xefbbd14082cf2fbcf5badc7ee619f0f4e36d0a5b",
      "to": "0x8120a8e0688be6b2c0bb469f871e5e7023ca85eb",
      "contractAddress": null
    },
    {
      "status": "0x1",
      "cumulativeGasUsed": "0x22e49",
      "logs": [
        {
          "address": "0x4580859e64385e3e82ee64da2bc06ef84bde851a",
          "topics": [
            "0x9621c1829ce5206009d367ce68b7c4fe6b4bbd70dbe22c21e5bd2a51a716c51c",
            "0x000000000000000000000000f06e1998119caedf8e084194aa5fea89ea9389c3",
            "0x0000000000000000000000003c7deb6feaeb7a82bde580fb73d8d69c401b219e"
          ],
          "data": "0x000000000000000000000000000000000000000000000000000000000000000300000000000000000000000000000000000000000000000000000000000001f4",
          "blockHash": "0xe2b7e97025131485e6dd33276f60c827932531b2e256f97e85aee37cdbbca5b6",
          "blockNumber": "0xfc95de",
          "transactionHash": "0x279db9c9a16d7c3fb67d799607eaff14dde847b41f8635bc8dcb5bf4f5bee059",
          "transactionIndex": "0x2",
          "logIndex": "0x6",
          "removed": false
        },
        {
          "address": "0x0000000000000000000000000000000000001010",
          "topics": [
            "0x4dfe1bbbcf077ddc3e01291eea2d5c70c2b422b415d95645b9adcfd678cb1d63",
            "0x0000000000000000000000000000000000000000000000000000000000001010",
            "0x000000000000000000000000efbbd14082cf2fbcf5badc7ee619f0f4e36d0a5b",
            "0x0000000000000000000000006ab3d36c46ecfb9b9c0bd51cb1c3da5a2c81cea6"
          ],
          "data": "0x000000000000000000000000000000000000000000000000000631761e93deb200000000000000000000000000000000000000000000000142513ee632d0e8db00000000000000000000000000000000000000000000045ae7f5170540529974000000000000000000000000000000000000000000000001424b0d70143d0a2900000000000000000000000000000000000000000000045ae7fb487b5ee67826",
          "blockHash": "0xe2b7e97025131485e6dd33276f60c827932531b2e256f97e85aee37cdbbca5b6",
          "blockNumber": "0xfc95de",
          "transactionHash": "0x279db9c9a16d7c3fb67d799607eaff14dde847b41f8635bc8dcb5bf4f5bee059",
          "transactionIndex": "0x2",
          "logIndex": "0x7",
          "removed": false
        }
      ],
      "logsBloom": "0x0000004008000000000000000000000000000000000180000080000000000000000000000000000000000000000200000000800000000000080000040000000000800008000000000000000000000080000000000000002000010000000000000000100000000000000000000000000000000000000000008000000000000000080000000000000000000000000000000000000000000000000000000000000020000000000000000000000000000000000040000000000000000000000000400000000000a000000001080000000000000000010000000000100000000000000000000000000000000000000000000000000000000000000000000000100000",
      "type": "0x2",
      "transactionHash": "0x279db9c9a16d7c3fb67d799607eaff14dde847b41f8635bc8dcb5bf4f5bee059",
      "transactionIndex": "0x2",
      "blockHash": "0xe2b7e97025131485e6dd33276f60c827932531b2e256f97e85aee37cdbbca5b6",
      "blockNumber": "0xfc95de",
      "gasUsed": "0xd752",
      "effectiveGasPrice": "0x75cff3440",
      "from": "0xefbbd14082cf2fbcf5badc7ee619f0f4e36d0a5b",
      "to": "0x4580859e64385e3e82ee64da2bc06ef84bde851a",
      "contractAddress": null
    },
    {
      "status": "0x1",
      "cumulativeGasUsed": "0x305c0",
      "logs": [
        {
          "address": "0x4580859e64385e3e82ee64da2bc06ef84bde851a",
          "topics": [
            "0x9621c1829ce5206009d367ce68b7c4fe6b4bbd70dbe22c21e5bd2a51a716c51c",
            "0x000000000000000000000000a2746f0d272bb0f5273f53b4a0f476afe8873c32",
            "0x0000000000000000000000003c7deb6feaeb7a82bde580fb73d8d69c401b219e"
          ],
          "data": "0x00000000000000000000000000000000000000000000000000000000000000010000000000000000000000000000000000000000000000056bc75e2d63100000",
          "blockHash": "0xe2b7e97025131485e6dd33276f60c827932531b2e256f97e85aee37cdbbca5b6",
          "blockNumber": "0xfc95de",
          "transactionHash": "0x118be1da9c210a9a20d3f6a12403c914612a51d63275c2ade5f3b022688e9711",
          "transactionIndex": "0x3",
          "logIndex": "0x8",
          "removed": false
        },
        {
          "address": "0x0000000000000000000000000000000000001010",
          "topics": [
            "0x4dfe1bbbcf077ddc3e01291eea2d5c70c2b422b415d95645b9adcfd678cb1d63",
            "0x0000000000000000000000000000000000000000000000000000000000001010",
            "0x000000000000000000000000efbbd14082cf2fbcf5badc7ee619f0f4e36d0a5b",
            "0x0000000000000000000000006ab3d36c46ecfb9b9c0bd51cb1c3da5a2c81cea6"
          ],
          "data": "0x000000000000000000000000000000000000000000000000000632868f7669c7000000000000000000000000000000000000000000000001424b0d7014306c5b00000000000000000000000000000000000000000000045ae7fb487b5ee678260000000000000000000000000000000000000000000000014244dae984ba029400000000000000000000000000000000000000000000045ae8017b01ee5ce1ed",
          "blockHash": "0xe2b7e97025131485e6dd33276f60c827932531b2e256f97e85aee37cdbbca5b6",
          "blockNumber": "0xfc95de",
          "transactionHash": "0x118be1da9c210a9a20d3f6a12403c914612a51d63275c2ade5f3b022688e9711",
          "transactionIndex": "0x3",
          "logIndex": "0x9",
          "removed": false
        }
      ],
      "logsBloom": "0x0000000008000000000000000000000000000000000080000080000000000000000000000000000000000000000300000000800000000000080000040000000000800008000000000000000000000080000000000000002000010000000000000000100000000000000000000000000000000000000000008000000000000000080000000000000000000000000000000000000000000000000000000000000020000000000000000000000000000000000040000000000000000000000000400000000000a000000001000400000000000000010000000000100000000000000000000000000000000040000000000000000000000000000000000000100000",
      "type": "0x2",
      "transactionHash": "0x118be1da9c210a9a20d3f6a12403c914612a51d63275c2ade5f3b022688e9711",
      "transactionIndex": "0x3",
      "blockHash": "0xe2b7e97025131485e6dd33276f60c827932531b2e256f97e85aee37cdbbca5b6",
      "blockNumber": "0xfc95de",
      "gasUsed": "0xd777",
      "effectiveGasPrice": "0x75cff3440",
      "from": "0xefbbd14082cf2fbcf5badc7ee619f0f4e36d0a5b",
      "to": "0x4580859e64385e3e82ee64da2bc06ef84bde851a",
      "contractAddress": null
    }
  ],
  "libraries": [],
  "pending": [],
  "returns": {},
  "timestamp": 1736222639,
  "chain": 80002,
  "commit": "0798d1a"
}