{
  "transactions": [
    {
      "hash": "0xb37dc2ddd10b6a134575e8e57896a229808b7263e95a91590f1c1b8e5b1cba34",
      "transactionType": "CALL",
      "contractName": null,
      "contractAddress": "0x8120a8e0688be6b2c0bb469f871e5e7023ca85eb",
      "function": "grantRole(uint64,address,uint32)",
      "arguments": [
        "1",
        "0xEFBBD14082cF2FbCf5Badc7ee619F0f4e36D0A5B",
        "0"
      ],
      "transaction": {
        "from": "0xefbbd14082cf2fbcf5badc7ee619f0f4e36d0a5b",
        "to": "0x8120a8e0688be6b2c0bb469f871e5e7023ca85eb",
        "gas": "0xedf2",
        "value": "0x0",
        "input": "0x25c471a00000000000000000000000000000000000000000000000000000000000000001000000000000000000000000efbbd14082cf2fbcf5badc7ee619f0f4e36d0a5b0000000000000000000000000000000000000000000000000000000000000000",
        "nonce": "0x9a3",
        "chainId": "0x13882"
      },
      "additionalContracts": [],
      "isFixedGasLimit": false
    },
    {
      "hash": "0x4d2bc7eafce38d5a5da5dd248d8bccd5a7583174635c19516477430cad7d8241",
      "transactionType": "CALL",
      "contractName": null,
      "contractAddress": "0x8120a8e0688be6b2c0bb469f871e5e7023ca85eb",
      "function": "setTargetFunctionRole(address,bytes4[],uint64)",
      "arguments": [
        "0x4580859e64385e3e82ee64da2Bc06Ef84Bde851a",
        "[0x8cc0de1d]",
        "1"
      ],
      "transaction": {
        "from": "0xefbbd14082cf2fbcf5badc7ee619f0f4e36d0a5b",
        "to": "0x8120a8e0688be6b2c0bb469f871e5e7023ca85eb",
        "gas": "0xc971",
        "value": "0x0",
        "input": "0x08d6122d0000000000000000000000004580859e64385e3e82ee64da2bc06ef84bde851a0000000000000000000000000000000000000000000000000000000000000060000000000000000000000000000000000000000000000000000000000000000100000000000000000000000000000000000000000000000000000000000000018cc0de1d00000000000000000000000000000000000000000000000000000000",
        "nonce": "0x9a4",
        "chainId": "0x13882"
      },
      "additionalContracts": [],
      "isFixedGasLimit": false
    },
    {
      "hash": "0x658f2a9deeda007191d019ca54c735aaf11e000d8ce579b271e001046925f571",
      "transactionType": "CALL",
      "contractName": null,
      "contractAddress": "0x8120a8e0688be6b2c0bb469f871e5e7023ca85eb",
      "function": "setTargetFunctionRole(address,bytes4[],uint64)",
      "arguments": [
        "0xD32CA33b1FBD97523536Ed3519A191Df242AFCFd",
        "[0x06af20da]",
        "1"
      ],
      "transaction": {
        "from": "0xefbbd14082cf2fbcf5badc7ee619f0f4e36d0a5b",
        "to": "0x8120a8e0688be6b2c0bb469f871e5e7023ca85eb",
        "gas": "0xc971",
        "value": "0x0",
        "input": "0x08d6122d000000000000000000000000d32ca33b1fbd97523536ed3519a191df242afcfd00000000000000000000000000000000000000000000000000000000000000600000000000000000000000000000000000000000000000000000000000000001000000000000000000000000000000000000000000000000000000000000000106af20da00000000000000000000000000000000000000000000000000000000",
        "nonce": "0x9a5",
        "chainId": "0x13882"
      },
      "additionalContracts": [],
      "isFixedGasLimit": false
    },
    {
      "hash": "0xf06ae8ff31a010374b052225f0b04f278b3737f4f395ddf9bc2dbe4f4a4d87e2",
      "transactionType": "CALL",
      "contractName": null,
      "contractAddress": "0x8120a8e0688be6b2c0bb469f871e5e7023ca85eb",
      "function": "setTargetFunctionRole(address,bytes4[],uint64)",
      "arguments": [
        "0x00ABb22eB950684e4314287e94f024B0A9420d40",
        "[0x20c5429b, 0xb8adaa11, 0xb759f954]",
        "1"
      ],
      "transaction": {
        "from": "0xefbbd14082cf2fbcf5badc7ee619f0f4e36d0a5b",
        "to": "0x8120a8e0688be6b2c0bb469f871e5e7023ca85eb",
        "gas": "0xf8ec",
        "value": "0x0",
        "input": "0x08d6122d00000000000000000000000000abb22eb950684e4314287e94f024b0a9420d4000000000000000000000000000000000000000000000000000000000000000600000000000000000000000000000000000000000000000000000000000000001000000000000000000000000000000000000000000000000000000000000000320c5429b00000000000000000000000000000000000000000000000000000000b8adaa1100000000000000000000000000000000000000000000000000000000b759f95400000000000000000000000000000000000000000000000000000000",
        "nonce": "0x9a6",
        "chainId": "0x13882"
      },
      "additionalContracts": [],
      "isFixedGasLimit": false
    },
    {
      "hash": "0x8c55c4c6f4d1e5e1dd90b014ab2f3dac9e12b136883db99cebad23b0623ec01c",
      "transactionType": "CALL",
      "contractName": null,
      "contractAddress": "0x8120a8e0688be6b2c0bb469f871e5e7023ca85eb",
      "function": "setTargetFunctionRole(address,bytes4[],uint64)",
      "arguments": [
        "0xA2746F0D272bb0F5273f53B4a0F476afe8873C32",
        "[0xf6eea098, 0x74a8f103, 0xdaea85c5]",
        "1"
      ],
      "transaction": {
        "from": "0xefbbd14082cf2fbcf5badc7ee619f0f4e36d0a5b",
        "to": "0x8120a8e0688be6b2c0bb469f871e5e7023ca85eb",
        "gas": "0xf8fd",
        "value": "0x0",
        "input": "0x08d6122d000000000000000000000000a2746f0d272bb0f5273f53b4a0f476afe8873c32000000000000000000000000000000000000000000000000000000000000006000000000000000000000000000000000000000000000000000000000000000010000000000000000000000000000000000000000000000000000000000000003f6eea0980000000000000000000000000000000000000000000000000000000074a8f10300000000000000000000000000000000000000000000000000000000daea85c500000000000000000000000000000000000000000000000000000000",
        "nonce": "0x9a7",
        "chainId": "0x13882"
      },
      "additionalContracts": [],
      "isFixedGasLimit": false
    },
    {
      "hash": "0xf7d37d46cc1cdcaa453068c980d788657a70376c8d1f74960b6918a7e18620d8",
      "transactionType": "CALL",
      "contractName": null,
      "contractAddress": "0x8120a8e0688be6b2c0bb469f871e5e7023ca85eb",
      "function": "grantRole(uint64,address,uint32)",
      "arguments": [
        "2",
        "0xEFBBD14082cF2FbCf5Badc7ee619F0f4e36D0A5B",
        "0"
      ],
      "transaction": {
        "from": "0xefbbd14082cf2fbcf5badc7ee619f0f4e36d0a5b",
        "to": "0x8120a8e0688be6b2c0bb469f871e5e7023ca85eb",
        "gas": "0xedf2",
        "value": "0x0",
        "input": "0x25c471a00000000000000000000000000000000000000000000000000000000000000002000000000000000000000000efbbd14082cf2fbcf5badc7ee619f0f4e36d0a5b0000000000000000000000000000000000000000000000000000000000000000",
        "nonce": "0x9a8",
        "chainId": "0x13882"
      },
      "additionalContracts": [],
      "isFixedGasLimit": false
    },
    {
      "hash": "0x0e2627fd0178145a23094b41dce492ab5c099cdf939cbe9fc61a83e078892cd1",
      "transactionType": "CALL",
      "contractName": null,
      "contractAddress": "0x8120a8e0688be6b2c0bb469f871e5e7023ca85eb",
      "function": "setTargetFunctionRole(address,bytes4[],uint64)",
      "arguments": [
        "0x8dB5ae2ae14e189c7d0e8f9c67643170e5508874",
        "[0xdaea85c5, 0xab0da5a9]",
        "2"
      ],
      "transaction": {
        "from": "0xefbbd14082cf2fbcf5badc7ee619f0f4e36d0a5b",
        "to": "0x8120a8e0688be6b2c0bb469f871e5e7023ca85eb",
        "gas": "0xe137",
        "value": "0x0",
        "input": "0x08d6122d0000000000000000000000008db5ae2ae14e189c7d0e8f9c67643170e5508874000000000000000000000000000000000000000000000000000000000000006000000000000000000000000000000000000000000000000000000000000000020000000000000000000000000000000000000000000000000000000000000002daea85c500000000000000000000000000000000000000000000000000000000ab0da5a900000000000000000000000000000000000000000000000000000000",
        "nonce": "0x9a9",
        "chainId": "0x13882"
      },
      "additionalContracts": [],
      "isFixedGasLimit": false
    },
    {
      "hash": "0xba712029cf6ba2acf18e62c54647e5bf7774aeb2eaa5da9096dc8b2cf04143dc",
      "transactionType": "CALL",
      "contractName": null,
      "contractAddress": "0x8120a8e0688be6b2c0bb469f871e5e7023ca85eb",
      "function": "grantRole(uint64,address,uint32)",
      "arguments": [
        "4",
        "0x5945C1417ad688EF90Cf3e61263b404B96A0C20b",
        "0"
      ],
      "transaction": {
        "from": "0xefbbd14082cf2fbcf5badc7ee619f0f4e36d0a5b",
        "to": "0x8120a8e0688be6b2c0bb469f871e5e7023ca85eb",
        "gas": "0xedf2",
        "value": "0x0",
        "input": "0x25c471a000000000000000000000000000000000000000000000000000000000000000040000000000000000000000005945c1417ad688ef90cf3e61263b404b96a0c20b0000000000000000000000000000000000000000000000000000000000000000",
        "nonce": "0x9aa",
        "chainId": "0x13882"
      },
      "additionalContracts": [],
      "isFixedGasLimit": false
    },
    {
      "hash": "0xb18cd2e63bd1b210f88400f140cd7a21be07f64b790625780270f536c6f149ca",
      "transactionType": "CALL",
      "contractName": null,
      "contractAddress": "0x8120a8e0688be6b2c0bb469f871e5e7023ca85eb",
      "function": "grantRole(uint64,address,uint32)",
      "arguments": [
        "4",
        "0x31B351E4C217f838190825586cAA8494Ee1CA635",
        "0"
      ],
      "transaction": {
        "from": "0xefbbd14082cf2fbcf5badc7ee619f0f4e36d0a5b",
        "to": "0x8120a8e0688be6b2c0bb469f871e5e7023ca85eb",
        "gas": "0xedf2",
        "value": "0x0",
        "input": "0x25c471a0000000000000000000000000000000000000000000000000000000000000000400000000000000000000000031b351e4c217f838190825586caa8494ee1ca6350000000000000000000000000000000000000000000000000000000000000000",
        "nonce": "0x9ab",
        "chainId": "0x13882"
      },
      "additionalContracts": [],
      "isFixedGasLimit": false
    },
    {
      "hash": "0x05336260bf755dcc639f0be5d870c6140b6959c2a9536b1def810b507b7a8ec5",
      "transactionType": "CALL",
      "contractName": null,
      "contractAddress": "0x8120a8e0688be6b2c0bb469f871e5e7023ca85eb",
      "function": "grantRole(uint64,address,uint32)",
      "arguments": [
        "4",
        "0xA2746F0D272bb0F5273f53B4a0F476afe8873C32",
        "0"
      ],
      "transaction": {
        "from": "0xefbbd14082cf2fbcf5badc7ee619f0f4e36d0a5b",
        "to": "0x8120a8e0688be6b2c0bb469f871e5e7023ca85eb",
        "gas": "0xedf2",
        "value": "0x0",
        "input": "0x25c471a00000000000000000000000000000000000000000000000000000000000000004000000000000000000000000a2746f0d272bb0f5273f53b4a0f476afe8873c320000000000000000000000000000000000000000000000000000000000000000",
        "nonce": "0x9ac",
        "chainId": "0x13882"
      },
      "additionalContracts": [],
      "isFixedGasLimit": false
    },
    {
      "hash": "0x2166ed11d8853919a12034afee930f20b33eef5dde3201cc20da1b64a2a23076",
      "transactionType": "CALL",
      "contractName": null,
      "contractAddress": "0x8120a8e0688be6b2c0bb469f871e5e7023ca85eb",
      "function": "setTargetFunctionRole(address,bytes4[],uint64)",
      "arguments": [
        "0x83266Ca8147572839BB23A204db52Bd26a1FCeaa",
        "[0x4bbc170a, 0x15f41501, 0x9e96a260]",
        "4"
      ],
      "transaction": {
        "from": "0xefbbd14082cf2fbcf5badc7ee619f0f4e36d0a5b",
        "to": "0x8120a8e0688be6b2c0bb469f871e5e7023ca85eb",
        "gas": "0xf8fd",
        "value": "0x0",
        "input": "0x08d6122d00000000000000000000000083266ca8147572839bb23a204db52bd26a1fceaa0000000000000000000000000000000000000000000000000000000000000060000000000000000000000000000000000000000000000000000000000000000400000000000000000000000000000000000000000000000000000000000000034bbc170a0000000000000000000000000000000000000000000000000000000015f41501000000000000000000000000000000000000000000000000000000009e96a26000000000000000000000000000000000000000000000000000000000",
        "nonce": "0x9ad",
        "chainId": "0x13882"
      },
      "additionalContracts": [],
      "isFixedGasLimit": false
    },
    {
      "hash": "0x5d842a8ddf7f5e7298f5beede1cea2c21b5669e8909eace9cb5362e22d589fb7",
      "transactionType": "CALL",
      "contractName": null,
      "contractAddress": "0x4580859e64385e3e82ee64da2bc06ef84bde851a",
      "function": "setFees(uint8,address,uint256,address)",
      "arguments": [
        "3",
        "0xf06E1998119CAEdf8E084194AA5FEa89eA9389C3",
        "500",
        "0x3c7DeB6FeAEb7a82BDe580Fb73d8d69c401b219e"
      ],
      "transaction": {
        "from": "0xefbbd14082cf2fbcf5badc7ee619f0f4e36d0a5b",
        "to": "0x4580859e64385e3e82ee64da2bc06ef84bde851a",
        "gas": "0x13ae7",
        "value": "0x0",
        "input": "0x8cc0de1d0000000000000000000000000000000000000000000000000000000000000003000000000000000000000000f06e1998119caedf8e084194aa5fea89ea9389c300000000000000000000000000000000000000000000000000000000000001f40000000000000000000000003c7deb6feaeb7a82bde580fb73d8d69c401b219e",
        "nonce": "0x9ae",
        "chainId": "0x13882"
      },
      "additionalContracts": [],
      "isFixedGasLimit": false
    },
    {
      "hash": "0xd6a3c04e25595ba77cce31b78ffd16bc859e194e87403543e0536c876cddab38",
      "transactionType": "CALL",
      "contractName": null,
      "contractAddress": "0x4580859e64385e3e82ee64da2bc06ef84bde851a",
      "function": "setFees(uint8,address,uint256,address)",
      "arguments": [
        "1",
        "0xA2746F0D272bb0F5273f53B4a0F476afe8873C32",
        "100000000000000000000",
        "0x3c7DeB6FeAEb7a82BDe580Fb73d8d69c401b219e"
      ],
      "transaction": {
        "from": "0xefbbd14082cf2fbcf5badc7ee619f0f4e36d0a5b",
        "to": "0x4580859e64385e3e82ee64da2bc06ef84bde851a",
        "gas": "0x1299b",
        "value": "0x0",
        "input": "0x8cc0de1d0000000000000000000000000000000000000000000000000000000000000001000000000000000000000000a2746f0d272bb0f5273f53b4a0f476afe8873c320000000000000000000000000000000000000000000000056bc75e2d631000000000000000000000000000003c7deb6feaeb7a82bde580fb73d8d69c401b219e",
        "nonce": "0x9af",
        "chainId": "0x13882"
      },
      "additionalContracts": [],
      "isFixedGasLimit": false
    }
  ],
  "receipts": [
    {
      "status": "0x1",
      "cumulativeGasUsed": "0xa2b3",
      "logs": [
        {
          "address": "0x8120a8e0688be6b2c0bb469f871e5e7023ca85eb",
          "topics": [
            "0xf98448b987f1428e0e230e1f3c6e2ce15b5693eaf31827fbd0b1ec4b424ae7cf",
            "0x0000000000000000000000000000000000000000000000000000000000000001",
            "0x000000000000000000000000efbbd14082cf2fbcf5badc7ee619f0f4e36d0a5b"
          ],
          "data": "0x000000000000000000000000000000000000000000000000000000000000000000000000000000000000000000000000000000000000000000000000677caae30000000000000000000000000000000000000000000000000000000000000000",
          "blockHash": "0x89bd6228da51e5e3438bab66c03ae98d0a51f775bc1acd4bbea6cecd4e3a1b0c",
          "blockNumber": "0xfc9760",
          "transactionHash": "0xb37dc2ddd10b6a134575e8e57896a229808b7263e95a91590f1c1b8e5b1cba34",
          "transactionIndex": "0x0",
          "logIndex": "0x0",
          "removed": false
        },
        {
          "address": "0x0000000000000000000000000000000000001010",
          "topics": [
            "0x4dfe1bbbcf077ddc3e01291eea2d5c70c2b422b415d95645b9adcfd678cb1d63",
            "0x0000000000000000000000000000000000000000000000000000000000001010",
            "0x000000000000000000000000efbbd14082cf2fbcf5badc7ee619f0f4e36d0a5b",
            "0x0000000000000000000000006ab3d36c46ecfb9b9c0bd51cb1c3da5a2c81cea6"
          ],
          "data": "0x0000000000000000000000000000000000000000000000000004cc4d9ff215f4000000000000000000000000000000000000000000000001413732f3dcaca11700000000000000000000000000000000000000000000045af3b21f664a9215af000000000000000000000000000000000000000000000001413266a63cba8b2300000000000000000000000000000000000000000000045af3b6ebb3ea842ba3",
          "blockHash": "0x89bd6228da51e5e3438bab66c03ae98d0a51f775bc1acd4bbea6cecd4e3a1b0c",
          "blockNumber": "0xfc9760",
          "transactionHash": "0xb37dc2ddd10b6a134575e8e57896a229808b7263e95a91590f1c1b8e5b1cba34",
          "transactionIndex": "0x0",
          "logIndex": "0x1",
          "removed": false
        }
      ],
      "logsBloom": "0x00000000080000000000000000000000000000000000000000000000000000000000000000000000000000000000000000008000000000000000000000040000008000080000000000000000000000800000000000040100000100000000000000000000000000000000000000000000000000000000000080000000000000000800000000000000000000000800000008000000000000000000000000000000200000000000000000002000000000000000400000000008008000000000004000000000000000000001000000000000000000010000000000100000000040000000000000000000000000000000000000000000000000000000000000100000",
      "type": "0x2",
      "transactionHash": "0xb37dc2ddd10b6a134575e8e57896a229808b7263e95a91590f1c1b8e5b1cba34",
      "transactionIndex": "0x0",
      "blockHash": "0x89bd6228da51e5e3438bab66c03ae98d0a51f775bc1acd4bbea6cecd4e3a1b0c",
      "blockNumber": "0xfc9760",
      "gasUsed": "0xa2b3",
      "effectiveGasPrice": "0x78cae3c4b",
      "from": "0xefbbd14082cf2fbcf5badc7ee619f0f4e36d0a5b",
      "to": "0x8120a8e0688be6b2c0bb469f871e5e7023ca85eb",
      "contractAddress": null
    },
    {
      "status": "0x1",
      "cumulativeGasUsed": "0x1348b",
      "logs": [
        {
          "address": "0x8120a8e0688be6b2c0bb469f871e5e7023ca85eb",
          "topics": [
            "0x9ea6790c7dadfd01c9f8b9762b3682607af2c7e79e05a9f9fdf5580dde949151",
            "0x0000000000000000000000004580859e64385e3e82ee64da2bc06ef84bde851a",
            "0x0000000000000000000000000000000000000000000000000000000000000001"
          ],
          "data": "0x8cc0de1d00000000000000000000000000000000000000000000000000000000",
          "blockHash": "0x89bd6228da51e5e3438bab66c03ae98d0a51f775bc1acd4bbea6cecd4e3a1b0c",
          "blockNumber": "0xfc9760",
          "transactionHash": "0x4d2bc7eafce38d5a5da5dd248d8bccd5a7583174635c19516477430cad7d8241",
          "transactionIndex": "0x1",
          "logIndex": "0x2",
          "removed": false
        },
        {
          "address": "0x0000000000000000000000000000000000001010",
          "topics": [
            "0x4dfe1bbbcf077ddc3e01291eea2d5c70c2b422b415d95645b9adcfd678cb1d63",
            "0x0000000000000000000000000000000000000000000000000000000000001010",
            "0x000000000000000000000000efbbd14082cf2fbcf5badc7ee619f0f4e36d0a5b",
            "0x0000000000000000000000006ab3d36c46ecfb9b9c0bd51cb1c3da5a2c81cea6"
          ],
          "data": "0x00000000000000000000000000000000000000000000000000044d0d6320cea0000000000000000000000000000000000000000000000001413266a63cb102a600000000000000000000000000000000000000000000045af3b6ebb3ea842ba3000000000000000000000000000000000000000000000001412e1998d990340600000000000000000000000000000000000000000000045af3bb38c14da4fa43",
          "blockHash": "0x89bd6228da51e5e3438bab66c03ae98d0a51f775bc1acd4bbea6cecd4e3a1b0c",
          "blockNumber": "0xfc9760",
          "transactionHash": "0x4d2bc7eafce38d5a5da5dd248d8bccd5a7583174635c19516477430cad7d8241",
          "transactionIndex": "0x1",
          "logIndex": "0x3",
          "removed": false
        }
      ],
      "logsBloom": "0x00000004080080000000000000000000000000000000000000000000000000000000000000000000000000000000000000008000000000000000000000040000008000080000000000000000000000800000000000040100000100000000000000000000000000000000040000000000000000000000000080000000000000000800000000000000000000000800000000000000000000000000000000000000200000000000000000000000000000000000400000000000008000000000004000000000000002000001000000200000000000010000000000100000000040000100000000000000000000000000000000000000000000000000000000100000",
      "type": "0x2",
      "transactionHash": "0x4d2bc7eafce38d5a5da5dd248d8bccd5a7583174635c19516477430cad7d8241",
      "transactionIndex": "0x1",
      "blockHash": "0x89bd6228da51e5e3438bab66c03ae98d0a51f775bc1acd4bbea6cecd4e3a1b0c",
      "blockNumber": "0xfc9760",
      "gasUsed": "0x91d8",
      "effectiveGasPrice": "0x78cae3c4b",
      "from": "0xefbbd14082cf2fbcf5badc7ee619f0f4e36d0a5b",
      "to": "0x8120a8e0688be6b2c0bb469f871e5e7023ca85eb",
      "contractAddress": null
    },
    {
      "status": "0x1",
      "cumulativeGasUsed": "0x240dc",
      "logs": [
        {
          "address": "0x8120a8e0688be6b2c0bb469f871e5e7023ca85eb",
          "topics": [
            "0x9ea6790c7dadfd01c9f8b9762b3682607af2c7e79e05a9f9fdf5580dde949151",
            "0x000000000000000000000000d32ca33b1fbd97523536ed3519a191df242afcfd",
            "0x0000000000000000000000000000000000000000000000000000000000000001"
          ],
          "data": "0x06af20da00000000000000000000000000000000000000000000000000000000",
          "blockHash": "0xb1fe9216c8e4b097501e9ce09790e56675b0fe1f4b34990458fcdbf8df828859",
          "blockNumber": "0xfc9761",
          "transactionHash": "0x658f2a9deeda007191d019ca54c735aaf11e000d8ce579b271e001046925f571",
          "transactionIndex": "0x1",
          "logIndex": "0x4",
          "removed": false
        },
        {
          "address": "0x0000000000000000000000000000000000001010",
          "topics": [
            "0x4dfe1bbbcf077ddc3e01291eea2d5c70c2b422b415d95645b9adcfd678cb1d63",
            "0x0000000000000000000000000000000000000000000000000000000000001010",
            "0x000000000000000000000000efbbd14082cf2fbcf5badc7ee619f0f4e36d0a5b",
            "0x0000000000000000000000006ab3d36c46ecfb9b9c0bd51cb1c3da5a2c81cea6"
          ],
          "data": "0x00000000000000000000000000000000000000000000000000044d0d6320cea0000000000000000000000000000000000000000000000001412e1998d987a85e00000000000000000000000000000000000000000000045af3d3888d61932f9b0000000000000000000000000000000000000000000000014129cc8b7666d9be00000000000000000000000000000000000000000000045af3d7d59ac4b3fe3b",
          "blockHash": "0xb1fe9216c8e4b097501e9ce09790e56675b0fe1f4b34990458fcdbf8df828859",
          "blockNumber": "0xfc9761",
          "transactionHash": "0x658f2a9deeda007191d019ca54c735aaf11e000d8ce579b271e001046925f571",
          "transactionIndex": "0x1",
          "logIndex": "0x5",
          "removed": false
        }
      ],
      "logsBloom": "0x00000004080080000000000000000000000000000000000000000000000000000000000000000000000000000000000000008000000000000000000000040000008000080000000000800000000000800000000000040100100100000000000000000000000000000000000000000000000000000000000080000000000000000800000000000000000000000800000000000000000000000000000000000000200000000000000000000000000000000000400000000000008000000000004000000000000000000001000000200000000400010000000000100000000040000000000000000000000000000000000000000000000000000000000000100000",
      "type": "0x2",
      "transactionHash": "0x658f2a9deeda007191d019ca54c735aaf11e000d8ce579b271e001046925f571",
      "transactionIndex": "0x1",
      "blockHash": "0xb1fe9216c8e4b097501e9ce09790e56675b0fe1f4b34990458fcdbf8df828859",
      "blockNumber": "0xfc9761",
      "gasUsed": "0x91d8",
      "effectiveGasPrice": "0x78cae3c4b",
      "from": "0xefbbd14082cf2fbcf5badc7ee619f0f4e36d0a5b",
      "to": "0x8120a8e0688be6b2c0bb469f871e5e7023ca85eb",
      "contractAddress": null
    },
    {
      "status": "0x1",
      "cumulativeGasUsed": "0x2f514",
      "logs": [
        {
          "address": "0x8120a8e0688be6b2c0bb469f871e5e7023ca85eb",
          "topics": [
            "0x9ea6790c7dadfd01c9f8b9762b3682607af2c7e79e05a9f9fdf5580dde949151",
            "0x00000000000000000000000000abb22eb950684e4314287e94f024b0a9420d40",
            "0x0000000000000000000000000000000000000000000000000000000000000001"
          ],
          "data": "0x20c5429b00000000000000000000000000000000000000000000000000000000",
          "blockHash": "0xb1fe9216c8e4b097501e9ce09790e56675b0fe1f4b34990458fcdbf8df828859",
          "blockNumber": "0xfc9761",
          "transactionHash": "0xf06ae8ff31a010374b052225f0b04f278b3737f4f395ddf9bc2dbe4f4a4d87e2",
          "transactionIndex": "0x2",
          "logIndex": "0x6",
          "removed": false
        },
        {
          "address": "0x8120a8e0688be6b2c0bb469f871e5e7023ca85eb",
          "topics": [
            "0x9ea6790c7dadfd01c9f8b9762b3682607af2c7e79e05a9f9fdf5580dde949151",
            "0x00000000000000000000000000abb22eb950684e4314287e94f024b0a9420d40",
            "0x0000000000000000000000000000000000000000000000000000000000000001"
          ],
          "data": "0xb8adaa1100000000000000000000000000000000000000000000000000000000",
          "blockHash": "0xb1fe9216c8e4b097501e9ce09790e56675b0fe1f4b34990458fcdbf8df828859",
          "blockNumber": "0xfc9761",
          "transactionHash": "0xf06ae8ff31a010374b052225f0b04f278b3737f4f395ddf9bc2dbe4f4a4d87e2",
          "transactionIndex": "0x2",
          "logIndex": "0x7",
          "removed": false
        },
        {
          "address": "0x8120a8e0688be6b2c0bb469f871e5e7023ca85eb",
          "topics": [
            "0x9ea6790c7dadfd01c9f8b9762b3682607af2c7e79e05a9f9fdf5580dde949151",
            "0x00000000000000000000000000abb22eb950684e4314287e94f024b0a9420d40",
            "0x0000000000000000000000000000000000000000000000000000000000000001"
          ],
          "data": "0xb759f95400000000000000000000000000000000000000000000000000000000",
          "blockHash": "0xb1fe9216c8e4b097501e9ce09790e56675b0fe1f4b34990458fcdbf8df828859",
          "blockNumber": "0xfc9761",
          "transactionHash": "0xf06ae8ff31a010374b052225f0b04f278b3737f4f395ddf9bc2dbe4f4a4d87e2",
          "transactionIndex": "0x2",
          "logIndex": "0x8",
          "removed": false
        },
        {
          "address": "0x0000000000000000000000000000000000001010",
          "topics": [
            "0x4dfe1bbbcf077ddc3e01291eea2d5c70c2b422b415d95645b9adcfd678cb1d63",
            "0x0000000000000000000000000000000000000000000000000000000000001010",
            "0x000000000000000000000000efbbd14082cf2fbcf5badc7ee619f0f4e36d0a5b",
            "0x0000000000000000000000006ab3d36c46ecfb9b9c0bd51cb1c3da5a2c81cea6"
          ],
          "data": "0x0000000000000000000000000000000000000000000000000005509148775d200000000000000000000000000000000000000000000000014129cc8b765e4e1600000000000000000000000000000000000000000000045af3d7d59ac4b3fe3b00000000000000000000000000000000000000000000000141247bfa2de6f0f600000000000000000000000000000000000000000000045af3dd262c0d2b5b5b",
          "blockHash": "0xb1fe9216c8e4b097501e9ce09790e56675b0fe1f4b34990458fcdbf8df828859",
          "blockNumber": "0xfc9761",
          "transactionHash": "0xf06ae8ff31a010374b052225f0b04f278b3737f4f395ddf9bc2dbe4f4a4d87e2",
          "transactionIndex": "0x2",
          "logIndex": "0x9",
          "removed": false
        }
      ],
      "logsBloom": "0x00000004080080000000000000000000000000000000000000000000000000000000000000000000000000000000000000008000000000000000000000040000008000080000000000000000000000800000000000040100000100000000000000000000000000000000000000000000000000000000000080000000000000000800000000000000000000000800000000000000000000000000000000000000200000000000000004000000000000000000400000000000008000000000004000000000000000000001000000200000000000010000000000100000000040000000000000000000000000000000000100000000000000400000000000100000",
      "type": "0x2",
      "transactionHash": "0xf06ae8ff31a010374b052225f0b04f278b3737f4f395ddf9bc2dbe4f4a4d87e2",
      "transactionIndex": "0x2",
      "blockHash": "0xb1fe9216c8e4b097501e9ce09790e56675b0fe1f4b34990458fcdbf8df828859",
      "blockNumber": "0xfc9761",
      "gasUsed": "0xb438",
      "effectiveGasPrice": "0x78cae3c4b",
      "from": "0xefbbd14082cf2fbcf5badc7ee619f0f4e36d0a5b",
      "to": "0x8120a8e0688be6b2c0bb469f871e5e7023ca85eb",
      "contractAddress": null
    },
    {
      "status": "0x1",
      "cumulativeGasUsed": "0x3a958",
      "logs": [
        {
          "address": "0x8120a8e0688be6b2c0bb469f871e5e7023ca85eb",
          "topics": [
            "0x9ea6790c7dadfd01c9f8b9762b3682607af2c7e79e05a9f9fdf5580dde949151",
            "0x000000000000000000000000a2746f0d272bb0f5273f53b4a0f476afe8873c32",
            "0x0000000000000000000000000000000000000000000000000000000000000001"
          ],
          "data": "0xf6eea09800000000000000000000000000000000000000000000000000000000",
          "blockHash": "0xb1fe9216c8e4b097501e9ce09790e56675b0fe1f4b34990458fcdbf8df828859",
          "blockNumber": "0xfc9761",
          "transactionHash": "0x8c55c4c6f4d1e5e1dd90b014ab2f3dac9e12b136883db99cebad23b0623ec01c",
          "transactionIndex": "0x3",
          "logIndex": "0xa",
          "removed": false
        },
        {
          "address": "0x8120a8e0688be6b2c0bb469f871e5e7023ca85eb",
          "topics": [
            "0x9ea6790c7dadfd01c9f8b9762b3682607af2c7e79e05a9f9fdf5580dde949151",
            "0x000000000000000000000000a2746f0d272bb0f5273f53b4a0f476afe8873c32",
            "0x0000000000000000000000000000000000000000000000000000000000000001"
          ],
          "data": "0x74a8f10300000000000000000000000000000000000000000000000000000000",
          "blockHash": "0xb1fe9216c8e4b097501e9ce09790e56675b0fe1f4b34990458fcdbf8df828859",
          "blockNumber": "0xfc9761",
          "transactionHash": "0x8c55c4c6f4d1e5e1dd90b014ab2f3dac9e12b136883db99cebad23b0623ec01c",
          "transactionIndex": "0x3",
          "logIndex": "0xb",
          "removed": false
        },
        {
          "address": "0x8120a8e0688be6b2c0bb469f871e5e7023ca85eb",
          "topics": [
            "0x9ea6790c7dadfd01c9f8b9762b3682607af2c7e79e05a9f9fdf5580dde949151",
            "0x000000000000000000000000a2746f0d272bb0f5273f53b4a0f476afe8873c32",
            "0x0000000000000000000000000000000000000000000000000000000000000001"
          ],
          "data": "0xdaea85c500000000000000000000000000000000000000000000000000000000",
          "blockHash": "0xb1fe9216c8e4b097501e9ce09790e56675b0fe1f4b34990458fcdbf8df828859",
          "blockNumber": "0xfc9761",
          "transactionHash": "0x8c55c4c6f4d1e5e1dd90b014ab2f3dac9e12b136883db99cebad23b0623ec01c",
          "transactionIndex": "0x3",
          "logIndex": "0xc",
          "removed": false
        },
        {
          "address": "0x0000000000000000000000000000000000001010",
          "topics": [
            "0x4dfe1bbbcf077ddc3e01291eea2d5c70c2b422b415d95645b9adcfd678cb1d63",
            "0x0000000000000000000000000000000000000000000000000000000000001010",
            "0x000000000000000000000000efbbd14082cf2fbcf5badc7ee619f0f4e36d0a5b",
            "0x0000000000000000000000006ab3d36c46ecfb9b9c0bd51cb1c3da5a2c81cea6"
          ],
          "data": "0x000000000000000000000000000000000000000000000000000550ebe0a22ff000000000000000000000000000000000000000000000000141247bfa2ddc61ae00000000000000000000000000000000000000000000045af3dd262c0d2b5b5b000000000000000000000000000000000000000000000001411f2b0e4d3a31be00000000000000000000000000000000000000000000045af3e27717edcd8b4b",
          "blockHash": "0xb1fe9216c8e4b097501e9ce09790e56675b0fe1f4b34990458fcdbf8df828859",
          "blockNumber": "0xfc9761",
          "transactionHash": "0x8c55c4c6f4d1e5e1dd90b014ab2f3dac9e12b136883db99cebad23b0623ec01c",
          "transactionIndex": "0x3",
          "logIndex": "0xd",
          "removed": false
        }
      ],
      "logsBloom": "0x00000004080080000000000000000000000000000000000000000000000000000000000000000000000000000001000000008000000000000000000000040000008000080000000000000000000000800000000000040100000100000000000000000000000000000000000000000000000000000000000080000000000000000800000000000000000000000800000000000000000000000000000000000000200000000000000000000000000000000000400000000000008000000000004000000000000000000001000400200000000000010000000000100000000040000000000000000000000040000000000000000000000000000000000000100000",
      "type": "0x2",
      "transactionHash": "0x8c55c4c6f4d1e5e1dd90b014ab2f3dac9e12b136883db99cebad23b0623ec01c",
      "transactionIndex": "0x3",
      "blockHash": "0xb1fe9216c8e4b097501e9ce09790e56675b0fe1f4b34990458fcdbf8df828859",
      "blockNumber": "0xfc9761",
      "gasUsed": "0xb444",
      "effectiveGasPrice": "0x78cae3c4b",
      "from": "0xefbbd14082cf2fbcf5badc7ee619f0f4e36d0a5b",
      "to": "0x8120a8e0688be6b2c0bb469f871e5e7023ca85eb",
      "contractAddress": null
    },
    {
      "status": "0x1",
      "cumulativeGasUsed": "0x44c0b",
      "logs": [
        {
          "address": "0x8120a8e0688be6b2c0bb469f871e5e7023ca85eb",
          "topics": [
            "0xf98448b987f1428e0e230e1f3c6e2ce15b5693eaf31827fbd0b1ec4b424ae7cf",
            "0x0000000000000000000000000000000000000000000000000000000000000002",
            "0x000000000000000000000000efbbd14082cf2fbcf5badc7ee619f0f4e36d0a5b"
          ],
          "data": "0x000000000000000000000000000000000000000000000000000000000000000000000000000000000000000000000000000000000000000000000000677caae50000000000000000000000000000000000000000000000000000000000000000",
          "blockHash": "0xb1fe9216c8e4b097501e9ce09790e56675b0fe1f4b34990458fcdbf8df828859",
          "blockNumber": "0xfc9761",
          "transactionHash": "0xf7d37d46cc1cdcaa453068c980d788657a70376c8d1f74960b6918a7e18620d8",
          "transactionIndex": "0x4",
          "logIndex": "0xe",
          "removed": false
        },
        {
          "address": "0x0000000000000000000000000000000000001010",
          "topics": [
            "0x4dfe1bbbcf077ddc3e01291eea2d5c70c2b422b415d95645b9adcfd678cb1d63",
            "0x0000000000000000000000000000000000000000000000000000000000001010",
            "0x000000000000000000000000efbbd14082cf2fbcf5badc7ee619f0f4e36d0a5b",
            "0x0000000000000000000000006ab3d36c46ecfb9b9c0bd51cb1c3da5a2c81cea6"
          ],
          "data": "0x0000000000000000000000000000000000000000000000000004cc4d9ff215f4000000000000000000000000000000000000000000000001411f2b0e4d2fa1c200000000000000000000000000000000000000000000045af3e27717edcd8b4b000000000000000000000000000000000000000000000001411a5ec0ad3d8bce00000000000000000000000000000000000000000000045af3e743658dbfa13f",
          "blockHash": "0xb1fe9216c8e4b097501e9ce09790e56675b0fe1f4b34990458fcdbf8df828859",
          "blockNumber": "0xfc9761",
          "transactionHash": "0xf7d37d46cc1cdcaa453068c980d788657a70376c8d1f74960b6918a7e18620d8",
          "transactionIndex": "0x4",
          "logIndex": "0xf",
          "removed": false
        }
      ],
      "logsBloom": "0x04000000080000000000000000000000000000000000000000000000000000000000000000000000000000000000000000008000000000000000000000000000008000080000000000000000000000800000000000000100000100000000000000000000000000000000000000000000000000000000000080000000000000000800000000000000000000000800000008000000000000000000000000000000200000000000000000002100000000000000400000000008008000000000004000000000000000000001000000000000000000010000000000100000000000000000000000000000000000000000000000000000008000000000000000100000",
      "type": "0x2",
      "transactionHash": "0xf7d37d46cc1cdcaa453068c980d788657a70376c8d1f74960b6918a7e18620d8",
      "transactionIndex": "0x4",
      "blockHash": "0xb1fe9216c8e4b097501e9ce09790e56675b0fe1f4b34990458fcdbf8df828859",
      "blockNumber": "0xfc9761",
      "gasUsed": "0xa2b3",
      "effectiveGasPrice": "0x78cae3c4b",
      "from": "0xefbbd14082cf2fbcf5badc7ee619f0f4e36d0a5b",
      "to": "0x8120a8e0688be6b2c0bb469f871e5e7023ca85eb",
      "contractAddress": null
    },
    {
      "status": "0x1",
      "cumulativeGasUsed": "0x4ef19",
      "logs": [
        {
          "address": "0x8120a8e0688be6b2c0bb469f871e5e7023ca85eb",
          "topics": [
            "0x9ea6790c7dadfd01c9f8b9762b3682607af2c7e79e05a9f9fdf5580dde949151",
            "0x0000000000000000000000008db5ae2ae14e189c7d0e8f9c67643170e5508874",
            "0x0000000000000000000000000000000000000000000000000000000000000002"
          ],
          "data": "0xdaea85c500000000000000000000000000000000000000000000000000000000",
          "blockHash": "0xb1fe9216c8e4b097501e9ce09790e56675b0fe1f4b34990458fcdbf8df828859",
          "blockNumber": "0xfc9761",
          "transactionHash": "0x0e2627fd0178145a23094b41dce492ab5c099cdf939cbe9fc61a83e078892cd1",
          "transactionIndex": "0x5",
          "logIndex": "0x10",
          "removed": false
        },
        {
          "address": "0x8120a8e0688be6b2c0bb469f871e5e7023ca85eb",
          "topics": [
            "0x9ea6790c7dadfd01c9f8b9762b3682607af2c7e79e05a9f9fdf5580dde949151",
            "0x0000000000000000000000008db5ae2ae14e189c7d0e8f9c67643170e5508874",
            "0x0000000000000000000000000000000000000000000000000000000000000002"
          ],
          "data": "0xab0da5a900000000000000000000000000000000000000000000000000000000",
          "blockHash": "0xb1fe9216c8e4b097501e9ce09790e56675b0fe1f4b34990458fcdbf8df828859",
          "blockNumber": "0xfc9761",
          "transactionHash": "0x0e2627fd0178145a23094b41dce492ab5c099cdf939cbe9fc61a83e078892cd1",
          "transactionIndex": "0x5",
          "logIndex": "0x11",
          "removed": false
        },
        {
          "address": "0x0000000000000000000000000000000000001010",
          "topics": [
            "0x4dfe1bbbcf077ddc3e01291eea2d5c70c2b422b415d95645b9adcfd678cb1d63",
            "0x0000000000000000000000000000000000000000000000000000000000001010",
            "0x000000000000000000000000efbbd14082cf2fbcf5badc7ee619f0f4e36d0a5b",
            "0x0000000000000000000000006ab3d36c46ecfb9b9c0bd51cb1c3da5a2c81cea6"
          ],
          "data": "0x0000000000000000000000000000000000000000000000000004cefca1e17f48000000000000000000000000000000000000000000000001411a5ec0ad34035100000000000000000000000000000000000000000000045af3e743658dbfa13f00000000000000000000000000000000000000000000000141158fc40b52840900000000000000000000000000000000000000000000045af3ec12622fa12087",
          "blockHash": "0xb1fe9216c8e4b097501e9ce09790e56675b0fe1f4b34990458fcdbf8df828859",
          "blockNumber": "0xfc9761",
          "transactionHash": "0x0e2627fd0178145a23094b41dce492ab5c099cdf939cbe9fc61a83e078892cd1",
          "transactionIndex": "0x5",
          "logIndex": "0x12",
          "removed": false
        }
      ],
      "logsBloom": "0x04000004080080000000000000000000000000000000000000000000000000002000000000000000000000000000000000008000000000000000000000000000008000080000000000000000000000800000000000004100000100000000000000000000000000000000000000000000000000000000000080000000000000000800000000000000000000000800000000000000000000000000000000020000200000000000000000000100000000000000400000000000008000000000004000000000000000000001000000200000000000010000000000100000000000000000000000000000000000000000000000000000008000000000000000100000",
      "type": "0x2",
      "transactionHash": "0x0e2627fd0178145a23094b41dce492ab5c099cdf939cbe9fc61a83e078892cd1",
      "transactionIndex": "0x5",
      "blockHash": "0xb1fe9216c8e4b097501e9ce09790e56675b0fe1f4b34990458fcdbf8df828859",
      "blockNumber": "0xfc9761",
      "gasUsed": "0xa30e",
      "effectiveGasPrice": "0x78cae3c4b",
      "from": "0xefbbd14082cf2fbcf5badc7ee619f0f4e36d0a5b",
      "to": "0x8120a8e0688be6b2c0bb469f871e5e7023ca85eb",
      "contractAddress": null
    },
    {
      "status": "0x1",
      "cumulativeGasUsed": "0x591cc",
      "logs": [
        {
          "address": "0x8120a8e0688be6b2c0bb469f871e5e7023ca85eb",
          "topics": [
            "0xf98448b987f1428e0e230e1f3c6e2ce15b5693eaf31827fbd0b1ec4b424ae7cf",
            "0x0000000000000000000000000000000000000000000000000000000000000004",
            "0x0000000000000000000000005945c1417ad688ef90cf3e61263b404b96a0c20b"
          ],
          "data": "0x000000000000000000000000000000000000000000000000000000000000000000000000000000000000000000000000000000000000000000000000677caae50000000000000000000000000000000000000000000000000000000000000000",
          "blockHash": "0xb1fe9216c8e4b097501e9ce09790e56675b0fe1f4b34990458fcdbf8df828859",
          "blockNumber": "0xfc9761",
          "transactionHash": "0xba712029cf6ba2acf18e62c54647e5bf7774aeb2eaa5da9096dc8b2cf04143dc",
          "transactionIndex": "0x6",
          "logIndex": "0x13",
          "removed": false
        },
        {
          "address": "0x0000000000000000000000000000000000001010",
          "topics": [
            "0x4dfe1bbbcf077ddc3e01291eea2d5c70c2b422b415d95645b9adcfd678cb1d63",
            "0x0000000000000000000000000000000000000000000000000000000000001010",
            "0x000000000000000000000000efbbd14082cf2fbcf5badc7ee619f0f4e36d0a5b",
            "0x0000000000000000000000006ab3d36c46ecfb9b9c0bd51cb1c3da5a2c81cea6"
          ],
          "data": "0x0000000000000000000000000000000000000000000000000004cc4d9ff215f400000000000000000000000000000000000000000000000141158fc40b48f63700000000000000000000000000000000000000000000045af3ec12622fa120870000000000000000000000000000000000000000000000014110c3766b56e04300000000000000000000000000000000000000000000045af3f0deafcf93367b",
          "blockHash": "0xb1fe9216c8e4b097501e9ce09790e56675b0fe1f4b34990458fcdbf8df828859",
          "blockNumber": "0xfc9761",
          "transactionHash": "0xba712029cf6ba2acf18e62c54647e5bf7774aeb2eaa5da9096dc8b2cf04143dc",
          "transactionIndex": "0x6",
          "logIndex": "0x14",
          "removed": false
        }
      ],
      "logsBloom": "0x0000000008000000000000000000000000000000000000000000000000000000000000000000000000000000000000000000800000000000000000000000000000800208000000000000000000000080000000000000010000010000000000000800000000000000000000000000000000000000000000008000000000000000080000000000000000000000084000000800000000000000000000000000000020000000000000000000200000000000000040000000000840a000000000004000000000000000000001000000000000000000018000000000100000000000000000000000000000000000000000000000000000000000000000000000100000",
      "type": "0x2",
      "transactionHash": "0xba712029cf6ba2acf18e62c54647e5bf7774aeb2eaa5da9096dc8b2cf04143dc",
      "transactionIndex": "0x6",
      "blockHash": "0xb1fe9216c8e4b097501e9ce09790e56675b0fe1f4b34990458fcdbf8df828859",
      "blockNumber": "0xfc9761",
      "gasUsed": "0xa2b3",
      "effectiveGasPrice": "0x78cae3c4b",
      "from": "0xefbbd14082cf2fbcf5badc7ee619f0f4e36d0a5b",
      "to": "0x8120a8e0688be6b2c0bb469f871e5e7023ca85eb",
      "contractAddress": null
    },
    {
      "status": "0x1",
      "cumulativeGasUsed": "0x6347f",
      "logs": [
        {
          "address": "0x8120a8e0688be6b2c0bb469f871e5e7023ca85eb",
          "topics": [
            "0xf98448b987f1428e0e230e1f3c6e2ce15b5693eaf31827fbd0b1ec4b424ae7cf",
            "0x0000000000000000000000000000000000000000000000000000000000000004",
            "0x00000000000000000000000031b351e4c217f838190825586caa8494ee1ca635"
          ],
          "data": "0x000000000000000000000000000000000000000000000000000000000000000000000000000000000000000000000000000000000000000000000000677caae50000000000000000000000000000000000000000000000000000000000000000",
          "blockHash": "0xb1fe9216c8e4b097501e9ce09790e56675b0fe1f4b34990458fcdbf8df828859",
          "blockNumber": "0xfc9761",
          "transactionHash": "0xb18cd2e63bd1b210f88400f140cd7a21be07f64b790625780270f536c6f149ca",
          "transactionIndex": "0x7",
          "logIndex": "0x15",
          "removed": false
        },
        {
          "address": "0x0000000000000000000000000000000000001010",
          "topics": [
            "0x4dfe1bbbcf077ddc3e01291eea2d5c70c2b422b415d95645b9adcfd678cb1d63",
            "0x0000000000000000000000000000000000000000000000000000000000001010",
            "0x000000000000000000000000efbbd14082cf2fbcf5badc7ee619f0f4e36d0a5b",
            "0x0000000000000000000000006ab3d36c46ecfb9b9c0bd51cb1c3da5a2c81cea6"
          ],
          "data": "0x0000000000000000000000000000000000000000000000000004cc4d9ff215f40000000000000000000000000000000000000000000000014110c3766b4d57c600000000000000000000000000000000000000000000045af3f0deafcf93367b000000000000000000000000000000000000000000000001410bf728cb5b41d200000000000000000000000000000000000000000000045af3f5aafd6f854c6f",
          "blockHash": "0xb1fe9216c8e4b097501e9ce09790e56675b0fe1f4b34990458fcdbf8df828859",
          "blockNumber": "0xfc9761",
          "transactionHash": "0xb18cd2e63bd1b210f88400f140cd7a21be07f64b790625780270f536c6f149ca",
          "transactionIndex": "0x7",
          "logIndex": "0x16",
          "removed": false
        }
      ],
      "logsBloom": "0x0000000008000000000000000000000000000000000000000000000000000000000000000000000000000000000000000000800000000000000000000000000000800008000000000000000000000080000000000000010000010000000000000800000000000000000000000000000000000000000000008000000000800000080000000000000000000000080000000800000000000000000000000000000020000000000000000000200000000000000040000000000800a000000000004002000000000000000001000000000000000000018000000000100010000000000000000000000000000000000000000000000000000000000000000000100000",
      "type": "0x2",
      "transactionHash": "0xb18cd2e63bd1b210f88400f140cd7a21be07f64b790625780270f536c6f149ca",
      "transactionIndex": "0x7",
      "blockHash": "0xb1fe9216c8e4b097501e9ce09790e56675b0fe1f4b34990458fcdbf8df828859",
      "blockNumber": "0xfc9761",
      "gasUsed": "0xa2b3",
      "effectiveGasPrice": "0x78cae3c4b",
      "from": "0xefbbd14082cf2fbcf5badc7ee619f0f4e36d0a5b",
      "to": "0x8120a8e0688be6b2c0bb469f871e5e7023ca85eb",
      "contractAddress": null
    },
    {
      "status": "0x1",
      "cumulativeGasUsed": "0x6d732",
      "logs": [
        {
          "address": "0x8120a8e0688be6b2c0bb469f871e5e7023ca85eb",
          "topics": [
            "0xf98448b987f1428e0e230e1f3c6e2ce15b5693eaf31827fbd0b1ec4b424ae7cf",
            "0x0000000000000000000000000000000000000000000000000000000000000004",
            "0x000000000000000000000000a2746f0d272bb0f5273f53b4a0f476afe8873c32"
          ],
          "data": "0x000000000000000000000000000000000000000000000000000000000000000000000000000000000000000000000000000000000000000000000000677caae50000000000000000000000000000000000000000000000000000000000000000",
          "blockHash": "0xb1fe9216c8e4b097501e9ce09790e56675b0fe1f4b34990458fcdbf8df828859",
          "blockNumber": "0xfc9761",
          "transactionHash": "0x05336260bf755dcc639f0be5d870c6140b6959c2a9536b1def810b507b7a8ec5",
          "transactionIndex": "0x8",
          "logIndex": "0x17",
          "removed": false
        },
        {
          "address": "0x0000000000000000000000000000000000001010",
          "topics": [
            "0x4dfe1bbbcf077ddc3e01291eea2d5c70c2b422b415d95645b9adcfd678cb1d63",
            "0x0000000000000000000000000000000000000000000000000000000000001010",
            "0x000000000000000000000000efbbd14082cf2fbcf5badc7ee619f0f4e36d0a5b",
            "0x0000000000000000000000006ab3d36c46ecfb9b9c0bd51cb1c3da5a2c81cea6"
          ],
          "data": "0x0000000000000000000000000000000000000000000000000004cc4d9ff215f4000000000000000000000000000000000000000000000001410bf728cb51b95500000000000000000000000000000000000000000000045af3f5aafd6f854c6f00000000000000000000000000000000000000000000000141072adb2b5fa36100000000000000000000000000000000000000000000045af3fa774b0f776263",
          "blockHash": "0xb1fe9216c8e4b097501e9ce09790e56675b0fe1f4b34990458fcdbf8df828859",
          "blockNumber": "0xfc9761",
          "transactionHash": "0x05336260bf755dcc639f0be5d870c6140b6959c2a9536b1def810b507b7a8ec5",
          "transactionIndex": "0x8",
          "logIndex": "0x18",
          "removed": false
        }
      ],
      "logsBloom": "0x0000000008000000000000000000000000000000000000000000000000000000000000000000000000000000000100000000800000000000000000000000000000800008000000000000000000000080000000000000010000010000000000000800000000000000000000000000000000000000000000008000000000000000080000000000000000000000080000000800000000000000000000000000000020000000000000000000200000000000000040000000000800a000000000004000000000000000000001000400000000000000018000000000100000000000000000000000000000000040000000000000000000000000000000000000100000",
      "type": "0x2",
      "transactionHash": "0x05336260bf755dcc639f0be5d870c6140b6959c2a9536b1def810b507b7a8ec5",
      "transactionIndex": "0x8",
      "blockHash": "0xb1fe9216c8e4b097501e9ce09790e56675b0fe1f4b34990458fcdbf8df828859",
      "blockNumber": "0xfc9761",
      "gasUsed": "0xa2b3",
      "effectiveGasPrice": "0x78cae3c4b",
      "from": "0xefbbd14082cf2fbcf5badc7ee619f0f4e36d0a5b",
      "to": "0x8120a8e0688be6b2c0bb469f871e5e7023ca85eb",
      "contractAddress": null
    },
    {
      "status": "0x1",
      "cumulativeGasUsed": "0x78b76",
      "logs": [
        {
          "address": "0x8120a8e0688be6b2c0bb469f871e5e7023ca85eb",
          "topics": [
            "0x9ea6790c7dadfd01c9f8b9762b3682607af2c7e79e05a9f9fdf5580dde949151",
            "0x00000000000000000000000083266ca8147572839bb23a204db52bd26a1fceaa",
            "0x0000000000000000000000000000000000000000000000000000000000000004"
          ],
          "data": "0x4bbc170a00000000000000000000000000000000000000000000000000000000",
          "blockHash": "0xb1fe9216c8e4b097501e9ce09790e56675b0fe1f4b34990458fcdbf8df828859",
          "blockNumber": "0xfc9761",
          "transactionHash": "0x2166ed11d8853919a12034afee930f20b33eef5dde3201cc20da1b64a2a23076",
          "transactionIndex": "0x9",
          "logIndex": "0x19",
          "removed": false
        },
        {
          "address": "0x8120a8e0688be6b2c0bb469f871e5e7023ca85eb",
          "topics": [
            "0x9ea6790c7dadfd01c9f8b9762b3682607af2c7e79e05a9f9fdf5580dde949151",
            "0x00000000000000000000000083266ca8147572839bb23a204db52bd26a1fceaa",
            "0x0000000000000000000000000000000000000000000000000000000000000004"
          ],
          "data": "0x15f4150100000000000000000000000000000000000000000000000000000000",
          "blockHash": "0xb1fe9216c8e4b097501e9ce09790e56675b0fe1f4b34990458fcdbf8df828859",
          "blockNumber": "0xfc9761",
          "transactionHash": "0x2166ed11d8853919a12034afee930f20b33eef5dde3201cc20da1b64a2a23076",
          "transactionIndex": "0x9",
          "logIndex": "0x1a",
          "removed": false
        },
        {
          "address": "0x8120a8e0688be6b2c0bb469f871e5e7023ca85eb",
          "topics": [
            "0x9ea6790c7dadfd01c9f8b9762b3682607af2c7e79e05a9f9fdf5580dde949151",
            "0x00000000000000000000000083266ca8147572839bb23a204db52bd26a1fceaa",
            "0x0000000000000000000000000000000000000000000000000000000000000004"
          ],
          "data": "0x9e96a26000000000000000000000000000000000000000000000000000000000",
          "blockHash": "0xb1fe9216c8e4b097501e9ce09790e56675b0fe1f4b34990458fcdbf8df828859",
          "blockNumber": "0xfc9761",
          "transactionHash": "0x2166ed11d8853919a12034afee930f20b33eef5dde3201cc20da1b64a2a23076",
          "transactionIndex": "0x9",
          "logIndex": "0x1b",
          "removed": false
        },
        {
          "address": "0x0000000000000000000000000000000000001010",
          "topics": [
            "0x4dfe1bbbcf077ddc3e01291eea2d5c70c2b422b415d95645b9adcfd678cb1d63",
            "0x0000000000000000000000000000000000000000000000000000000000001010",
            "0x000000000000000000000000efbbd14082cf2fbcf5badc7ee619f0f4e36d0a5b",
            "0x0000000000000000000000006ab3d36c46ecfb9b9c0bd51cb1c3da5a2c81cea6"
          ],
          "data": "0x000000000000000000000000000000000000000000000000000550ebe0a22ff000000000000000000000000000000000000000000000000141072adb2b561ae400000000000000000000000000000000000000000000045af3fa774b0f7762630000000000000000000000000000000000000000000000014101d9ef4ab3eaf400000000000000000000000000000000000000000000045af3ffc836f0199253",
          "blockHash": "0xb1fe9216c8e4b097501e9ce09790e56675b0fe1f4b34990458fcdbf8df828859",
          "blockNumber": "0xfc9761",
          "transactionHash": "0x2166ed11d8853919a12034afee930f20b33eef5dde3201cc20da1b64a2a23076",
          "transactionIndex": "0x9",
          "logIndex": "0x1c",
          "removed": false
        }
      ],
      "logsBloom": "0x0000000408008000000000000000000000000000000000000000000000000000000000000000000000000000000000000000800000000000000000000000000000800008000000000000000000000080000000000000010000010000000000000800000000000000000000000000000000000000000000008000000000000000080000000000000000000000080000000000000000000040000000000000000020000000000000000000000000000000000040000000000000a000000000004000000000000000000001000000200001000000018000000000100000000000000000008000000000000000000000000000000000000000000000000000100000",
      "type": "0x2",
      "transactionHash": "0x2166ed11d8853919a12034afee930f20b33eef5dde3201cc20da1b64a2a23076",
      "transactionIndex": "0x9",
      "blockHash": "0xb1fe9216c8e4b097501e9ce09790e56675b0fe1f4b34990458fcdbf8df828859",
      "blockNumber": "0xfc9761",
      "gasUsed": "0xb444",
      "effectiveGasPrice": "0x78cae3c4b",
      "from": "0xefbbd14082cf2fbcf5badc7ee619f0f4e36d0a5b",
      "to": "0x8120a8e0688be6b2c0bb469f871e5e7023ca85eb",
      "contractAddress": null
    },
    {
      "status": "0x1",
      "cumulativeGasUsed": "0x862c8",
      "logs": [
        {
          "address": "0x4580859e64385e3e82ee64da2bc06ef84bde851a",
          "topics": [
            "0x9621c1829ce5206009d367ce68b7c4fe6b4bbd70dbe22c21e5bd2a51a716c51c",
            "0x000000000000000000000000f06e1998119caedf8e084194aa5fea89ea9389c3",
            "0x0000000000000000000000003c7deb6feaeb7a82bde580fb73d8d69c401b219e"
          ],
          "data": "0x000000000000000000000000000000000000000000000000000000000000000300000000000000000000000000000000000000000000000000000000000001f4",
          "blockHash": "0xb1fe9216c8e4b097501e9ce09790e56675b0fe1f4b34990458fcdbf8df828859",
          "blockNumber": "0xfc9761",
          "transactionHash": "0x5d842a8ddf7f5e7298f5beede1cea2c21b5669e8909eace9cb5362e22d589fb7",
          "transactionIndex": "0xa",
          "logIndex": "0x1d",
          "removed": false
        },
        {
          "address": "0x0000000000000000000000000000000000001010",
          "topics": [
            "0x4dfe1bbbcf077ddc3e01291eea2d5c70c2b422b415d95645b9adcfd678cb1d63",
            "0x0000000000000000000000000000000000000000000000000000000000001010",
            "0x000000000000000000000000efbbd14082cf2fbcf5badc7ee619f0f4e36d0a5b",
            "0x0000000000000000000000006ab3d36c46ecfb9b9c0bd51cb1c3da5a2c81cea6"
          ],
          "data": "0x000000000000000000000000000000000000000000000000000659916465af380000000000000000000000000000000000000000000000014101d9ef4aa95af800000000000000000000000000000000000000000000045af3ffc836f019925300000000000000000000000000000000000000000000000140fb805de643abc000000000000000000000000000000000000000000000045af40621c8547f418b",
          "blockHash": "0xb1fe9216c8e4b097501e9ce09790e56675b0fe1f4b34990458fcdbf8df828859",
          "blockNumber": "0xfc9761",
          "transactionHash": "0x5d842a8ddf7f5e7298f5beede1cea2c21b5669e8909eace9cb5362e22d589fb7",
          "transactionIndex": "0xa",
          "logIndex": "0x1e",
          "removed": false
        }
      ],
      "logsBloom": "0x0000004008000000000000000000000000000000000180000080000000000000000000000000000000000000000200000000800000000000080000040000000000800008000000000000000000000080000000000000002000010000000000000000100000000000000000000000000000000000000000008000000000000000080000000000000000000000000000000000000000000000000000000000000020000000000000000000000000000000000040000000000000000000000000400000000000a000000001080000000000000000010000000000100000000000000000000000000000000000000000000000000000000000000000000000100000",
      "type": "0x2",
      "transactionHash": "0x5d842a8ddf7f5e7298f5beede1cea2c21b5669e8909eace9cb5362e22d589fb7",
      "transactionIndex": "0xa",
      "blockHash": "0xb1fe9216c8e4b097501e9ce09790e56675b0fe1f4b34990458fcdbf8df828859",
      "blockNumber": "0xfc9761",
      "gasUsed": "0xd752",
      "effectiveGasPrice": "0x78cae3c4b",
      "from": "0xefbbd14082cf2fbcf5badc7ee619f0f4e36d0a5b",
      "to": "0x4580859e64385e3e82ee64da2bc06ef84bde851a",
      "contractAddress": null
    },
    {
      "status": "0x1",
      "cumulativeGasUsed": "0x93a3f",
      "logs": [
        {
          "address": "0x4580859e64385e3e82ee64da2bc06ef84bde851a",
          "topics": [
            "0x9621c1829ce5206009d367ce68b7c4fe6b4bbd70dbe22c21e5bd2a51a716c51c",
            "0x000000000000000000000000a2746f0d272bb0f5273f53b4a0f476afe8873c32",
            "0x0000000000000000000000003c7deb6feaeb7a82bde580fb73d8d69c401b219e"
          ],
          "data": "0x00000000000000000000000000000000000000000000000000000000000000010000000000000000000000000000000000000000000000056bc75e2d63100000",
          "blockHash": "0xb1fe9216c8e4b097501e9ce09790e56675b0fe1f4b34990458fcdbf8df828859",
          "blockNumber": "0xfc9761",
          "transactionHash": "0xd6a3c04e25595ba77cce31b78ffd16bc859e194e87403543e0536c876cddab38",
          "transactionIndex": "0xb",
          "logIndex": "0x1f",
          "removed": false
        },
        {
          "address": "0x0000000000000000000000000000000000001010",
          "topics": [
            "0x4dfe1bbbcf077ddc3e01291eea2d5c70c2b422b415d95645b9adcfd678cb1d63",
            "0x0000000000000000000000000000000000000000000000000000000000001010",
            "0x000000000000000000000000efbbd14082cf2fbcf5badc7ee619f0f4e36d0a5b",
            "0x0000000000000000000000006ab3d36c46ecfb9b9c0bd51cb1c3da5a2c81cea6"
          ],
          "data": "0x00000000000000000000000000000000000000000000000000065aa8b99463e400000000000000000000000000000000000000000000000140fb805de6370df200000000000000000000000000000000000000000000045af40621c8547f418b00000000000000000000000000000000000000000000000140f525b52ca2aa0e00000000000000000000000000000000000000000000045af40c7c710e13a56f",
          "blockHash": "0xb1fe9216c8e4b097501e9ce09790e56675b0fe1f4b34990458fcdbf8df828859",
          "blockNumber": "0xfc9761",
          "transactionHash": "0xd6a3c04e25595ba77cce31b78ffd16bc859e194e87403543e0536c876cddab38",
          "transactionIndex": "0xb",
          "logIndex": "0x20",
          "removed": false
        }
      ],
      "logsBloom": "0x0000000008000000000000000000000000000000000080000080000000000000000000000000000000000000000300000000800000000000080000040000000000800008000000000000000000000080000000000000002000010000000000000000100000000000000000000000000000000000000000008000000000000000080000000000000000000000000000000000000000000000000000000000000020000000000000000000000000000000000040000000000000000000000000400000000000a000000001000400000000000000010000000000100000000000000000000000000000000040000000000000000000000000000000000000100000",
      "type": "0x2",
      "transactionHash": "0xd6a3c04e25595ba77cce31b78ffd16bc859e194e87403543e0536c876cddab38",
      "transactionIndex": "0xb",
      "blockHash": "0xb1fe9216c8e4b097501e9ce09790e56675b0fe1f4b34990458fcdbf8df828859",
      "blockNumber": "0xfc9761",
      "gasUsed": "0xd777",
      "effectiveGasPrice": "0x78cae3c4b",
      "from": "0xefbbd14082cf2fbcf5badc7ee619f0f4e36d0a5b",
      "to": "0x4580859e64385e3e82ee64da2bc06ef84bde851a",
      "contractAddress": null
    }
  ],
  "libraries": [],
  "pending": [],
  "returns": {},
  "timestamp": 1736223461,
  "chain": 80002,
  "commit": "0798d1a"
}