{
  "transactions": [
    {
      "hash": "0x9fdfa74f4dc2fdf02e44824c9e810cd3a1a5123f97183c96629a7de29a1f8d01",
      "transactionType": "CALL",
      "contractName": null,
      "contractAddress": "0x8120a8e0688be6b2c0bb469f871e5e7023ca85eb",
      "function": "grantRole(uint64,address,uint32)",
      "arguments": [
        "1",
        "0xEFBBD14082cF2FbCf5Badc7ee619F0f4e36D0A5B",
        "0"
      ],
      "transaction": {
        "from": "0xefbbd14082cf2fbcf5badc7ee619f0f4e36d0a5b",
        "to": "0x8120a8e0688be6b2c0bb469f871e5e7023ca85eb",
        "gas": "0xedf2",
        "value": "0x0",
        "input": "0x25c471a00000000000000000000000000000000000000000000000000000000000000001000000000000000000000000efbbd14082cf2fbcf5badc7ee619f0f4e36d0a5b0000000000000000000000000000000000000000000000000000000000000000",
        "nonce": "0x7ac",
        "chainId": "0x13882"
      },
      "additionalContracts": [],
      "isFixedGasLimit": false
    },
    {
      "hash": "0x8a3f6e714f8ee57a7eb5f0528b0ca05cefe2dab96c8bebae935b85734ca1e047",
      "transactionType": "CALL",
      "contractName": null,
      "contractAddress": "0x8120a8e0688be6b2c0bb469f871e5e7023ca85eb",
      "function": "setTargetFunctionRole(address,bytes4[],uint64)",
      "arguments": [
        "0xE74ef2c2F3904A04bd8ac21764209DcE63fc4F59",
        "[0xecf441b7]",
        "1"
      ],
      "transaction": {
        "from": "0xefbbd14082cf2fbcf5badc7ee619f0f4e36d0a5b",
        "to": "0x8120a8e0688be6b2c0bb469f871e5e7023ca85eb",
        "gas": "0x134d0",
        "value": "0x0",
        "input": "0x08d6122d000000000000000000000000e74ef2c2f3904a04bd8ac21764209dce63fc4f59000000000000000000000000000000000000000000000000000000000000006000000000000000000000000000000000000000000000000000000000000000010000000000000000000000000000000000000000000000000000000000000001ecf441b700000000000000000000000000000000000000000000000000000000",
        "nonce": "0x7ad",
        "chainId": "0x13882"
      },
      "additionalContracts": [],
      "isFixedGasLimit": false
    },
    {
      "hash": "0xd767a65a8ba6feda3d3d3e684a9b94c0a0e15d5bc83564afa6824c15fdffd80f",
      "transactionType": "CALL",
      "contractName": null,
      "contractAddress": "0x8120a8e0688be6b2c0bb469f871e5e7023ca85eb",
      "function": "setTargetFunctionRole(address,bytes4[],uint64)",
      "arguments": [
        "0x3B1f5d208d0559759cc8B7D33264A91102115418",
        "[0x69328dec]",
        "1"
      ],
      "transaction": {
        "from": "0xefbbd14082cf2fbcf5badc7ee619f0f4e36d0a5b",
        "to": "0x8120a8e0688be6b2c0bb469f871e5e7023ca85eb",
        "gas": "0x134d0",
        "value": "0x0",
        "input": "0x08d6122d0000000000000000000000003b1f5d208d0559759cc8b7d33264a9110211541800000000000000000000000000000000000000000000000000000000000000600000000000000000000000000000000000000000000000000000000000000001000000000000000000000000000000000000000000000000000000000000000169328dec00000000000000000000000000000000000000000000000000000000",
        "nonce": "0x7ae",
        "chainId": "0x13882"
      },
      "additionalContracts": [],
      "isFixedGasLimit": false
    },
    {
      "hash": "0x1aa7f6e724c2bac8196a8cbe1d4723e2409d14bfdc4188dbb967fc457e39a8b9",
      "transactionType": "CALL",
      "contractName": null,
      "contractAddress": "0x8120a8e0688be6b2c0bb469f871e5e7023ca85eb",
      "function": "setTargetFunctionRole(address,bytes4[],uint64)",
      "arguments": [
        "0x80aAbCc9612a3954cd681A758c7BB265A06722aC",
        "[0x20c5429b, 0xb8adaa11, 0xb759f954]",
        "1"
      ],
      "transaction": {
        "from": "0xefbbd14082cf2fbcf5badc7ee619f0f4e36d0a5b",
        "to": "0x8120a8e0688be6b2c0bb469f871e5e7023ca85eb",
        "gas": "0x23b19",
        "value": "0x0",
        "input": "0x08d6122d00000000000000000000000080aabcc9612a3954cd681a758c7bb265a06722ac00000000000000000000000000000000000000000000000000000000000000600000000000000000000000000000000000000000000000000000000000000001000000000000000000000000000000000000000000000000000000000000000320c5429b00000000000000000000000000000000000000000000000000000000b8adaa1100000000000000000000000000000000000000000000000000000000b759f95400000000000000000000000000000000000000000000000000000000",
        "nonce": "0x7af",
        "chainId": "0x13882"
      },
      "additionalContracts": [],
      "isFixedGasLimit": false
    },
    {
      "hash": "0xfc12d8b48e72f6beeed8a6adc00c47d8f40bb96ccedff288642cf9c8d94ee0ad",
      "transactionType": "CALL",
      "contractName": null,
      "contractAddress": "0x8120a8e0688be6b2c0bb469f871e5e7023ca85eb",
      "function": "setTargetFunctionRole(address,bytes4[],uint64)",
      "arguments": [
        "0x17C5b7DDac9E5623c018C32d67632dA85A9BE95b",
        "[0xf6eea098, 0x74a8f103, 0xdaea85c5]",
        "1"
      ],
      "transaction": {
        "from": "0xefbbd14082cf2fbcf5badc7ee619f0f4e36d0a5b",
        "to": "0x8120a8e0688be6b2c0bb469f871e5e7023ca85eb",
        "gas": "0x23b19",
        "value": "0x0",
        "input": "0x08d6122d00000000000000000000000017c5b7ddac9e5623c018c32d67632da85a9be95b000000000000000000000000000000000000000000000000000000000000006000000000000000000000000000000000000000000000000000000000000000010000000000000000000000000000000000000000000000000000000000000003f6eea0980000000000000000000000000000000000000000000000000000000074a8f10300000000000000000000000000000000000000000000000000000000daea85c500000000000000000000000000000000000000000000000000000000",
        "nonce": "0x7b0",
        "chainId": "0x13882"
      },
      "additionalContracts": [],
      "isFixedGasLimit": false
    },
    {
      "hash": "0x54168e430e468d31144292ceae15c46261438daebb73b9595d4f9b9c8b561a7a",
      "transactionType": "CALL",
      "contractName": null,
      "contractAddress": "0x8120a8e0688be6b2c0bb469f871e5e7023ca85eb",
      "function": "grantRole(uint64,address,uint32)",
      "arguments": [
        "2",
        "0xEFBBD14082cF2FbCf5Badc7ee619F0f4e36D0A5B",
        "0"
      ],
      "transaction": {
        "from": "0xefbbd14082cf2fbcf5badc7ee619f0f4e36d0a5b",
        "to": "0x8120a8e0688be6b2c0bb469f871e5e7023ca85eb",
        "gas": "0xedf2",
        "value": "0x0",
        "input": "0x25c471a00000000000000000000000000000000000000000000000000000000000000002000000000000000000000000efbbd14082cf2fbcf5badc7ee619f0f4e36d0a5b0000000000000000000000000000000000000000000000000000000000000000",
        "nonce": "0x7b1",
        "chainId": "0x13882"
      },
      "additionalContracts": [],
      "isFixedGasLimit": false
    },
    {
      "hash": "0x266c49c6461d11400bda4127ed2ff264f7c117285db4e3267926e1a92c6721ec",
      "transactionType": "CALL",
      "contractName": null,
      "contractAddress": "0x8120a8e0688be6b2c0bb469f871e5e7023ca85eb",
      "function": "setTargetFunctionRole(address,bytes4[],uint64)",
      "arguments": [
        "0x9ce8b9B6f4f1084d87F8361Cb05d69dd8e837027",
        "[0xdaea85c5, 0xab0da5a9]",
        "2"
      ],
      "transaction": {
        "from": "0xefbbd14082cf2fbcf5badc7ee619f0f4e36d0a5b",
        "to": "0x8120a8e0688be6b2c0bb469f871e5e7023ca85eb",
        "gas": "0x1b7f5",
        "value": "0x0",
        "input": "0x08d6122d0000000000000000000000009ce8b9b6f4f1084d87f8361cb05d69dd8e837027000000000000000000000000000000000000000000000000000000000000006000000000000000000000000000000000000000000000000000000000000000020000000000000000000000000000000000000000000000000000000000000002daea85c500000000000000000000000000000000000000000000000000000000ab0da5a900000000000000000000000000000000000000000000000000000000",
        "nonce": "0x7b2",
        "chainId": "0x13882"
      },
      "additionalContracts": [],
      "isFixedGasLimit": false
    },
    {
      "hash": "0xfe6bef76341bb10f67f5e7a4fe87b1e21ce08baf9fb7a3f7aded4431efac1d2d",
      "transactionType": "CALL",
      "contractName": null,
      "contractAddress": "0x8120a8e0688be6b2c0bb469f871e5e7023ca85eb",
      "function": "grantRole(uint64,address,uint32)",
      "arguments": [
        "4",
        "0x768335Ac070D49316665aB2422514D2Bf89d2B16",
        "0"
      ],
      "transaction": {
        "from": "0xefbbd14082cf2fbcf5badc7ee619f0f4e36d0a5b",
        "to": "0x8120a8e0688be6b2c0bb469f871e5e7023ca85eb",
        "gas": "0x13bcf",
        "value": "0x0",
        "input": "0x25c471a00000000000000000000000000000000000000000000000000000000000000004000000000000000000000000768335ac070d49316665ab2422514d2bf89d2b160000000000000000000000000000000000000000000000000000000000000000",
        "nonce": "0x7b3",
        "chainId": "0x13882"
      },
      "additionalContracts": [],
      "isFixedGasLimit": false
    },
    {
      "hash": "0xc6918600b27f22f9b3a1748b75b6fab5d97f25ed7b04eec17785bf63f9a610ba",
      "transactionType": "CALL",
      "contractName": null,
      "contractAddress": "0x8120a8e0688be6b2c0bb469f871e5e7023ca85eb",
      "function": "grantRole(uint64,address,uint32)",
      "arguments": [
        "4",
        "0xe6C835021E1D729F1DB7bb571a2c75EBbc87A489",
        "0"
      ],
      "transaction": {
        "from": "0xefbbd14082cf2fbcf5badc7ee619f0f4e36d0a5b",
        "to": "0x8120a8e0688be6b2c0bb469f871e5e7023ca85eb",
        "gas": "0x13bcf",
        "value": "0x0",
        "input": "0x25c471a00000000000000000000000000000000000000000000000000000000000000004000000000000000000000000e6c835021e1d729f1db7bb571a2c75ebbc87a4890000000000000000000000000000000000000000000000000000000000000000",
        "nonce": "0x7b4",
        "chainId": "0x13882"
      },
      "additionalContracts": [],
      "isFixedGasLimit": false
    },
    {
      "hash": "0x490e4002beeada28f78174225266be7ce9b44b1f0dacdf6a23614013a8a030fa",
      "transactionType": "CALL",
      "contractName": null,
      "contractAddress": "0x8120a8e0688be6b2c0bb469f871e5e7023ca85eb",
      "function": "setTargetFunctionRole(address,bytes4[],uint64)",
      "arguments": [
        "0x66612fb73C5df6273F79bFc1F03382399E8B9EC6",
        "[0x4bbc170a, 0x15f41501, 0x9e96a260]",
        "4"
      ],
      "transaction": {
        "from": "0xefbbd14082cf2fbcf5badc7ee619f0f4e36d0a5b",
        "to": "0x8120a8e0688be6b2c0bb469f871e5e7023ca85eb",
        "gas": "0x23b19",
        "value": "0x0",
        "input": "0x08d6122d00000000000000000000000066612fb73c5df6273f79bfc1f03382399e8b9ec60000000000000000000000000000000000000000000000000000000000000060000000000000000000000000000000000000000000000000000000000000000400000000000000000000000000000000000000000000000000000000000000034bbc170a0000000000000000000000000000000000000000000000000000000015f41501000000000000000000000000000000000000000000000000000000009e96a26000000000000000000000000000000000000000000000000000000000",
        "nonce": "0x7b5",
        "chainId": "0x13882"
      },
      "additionalContracts": [],
      "isFixedGasLimit": false
    },
    {
      "hash": "0xb16a0019384937194eb342f3084021d8d69fff93c964b068803cb43262228483",
      "transactionType": "CALL",
      "contractName": null,
      "contractAddress": "0xe74ef2c2f3904a04bd8ac21764209dce63fc4f59",
      "function": "setFees(uint8,uint256,address)",
      "arguments": [
        "2",
        "500",
        "0x3c7DeB6FeAEb7a82BDe580Fb73d8d69c401b219e"
      ],
      "transaction": {
        "from": "0xefbbd14082cf2fbcf5badc7ee619f0f4e36d0a5b",
        "to": "0xe74ef2c2f3904a04bd8ac21764209dce63fc4f59",
        "gas": "0x30cce",
        "value": "0x0",
        "input": "0xecf441b7000000000000000000000000000000000000000000000000000000000000000200000000000000000000000000000000000000000000000000000000000001f40000000000000000000000003c7deb6feaeb7a82bde580fb73d8d69c401b219e",
        "nonce": "0x7b6",
        "chainId": "0x13882"
      },
      "additionalContracts": [],
      "isFixedGasLimit": false
    },
    {
      "hash": "0x404238f8daae2522fd542bde3a66179b9775c3882afd02db2cb48350ed89536d",
      "transactionType": "CALL",
      "contractName": null,
      "contractAddress": "0xe74ef2c2f3904a04bd8ac21764209dce63fc4f59",
      "function": "setFees(uint8,uint256,address)",
      "arguments": [
        "1",
        "100000000000000000000",
        "0x3c7DeB6FeAEb7a82BDe580Fb73d8d69c401b219e"
      ],
      "transaction": {
        "from": "0xefbbd14082cf2fbcf5badc7ee619f0f4e36d0a5b",
        "to": "0xe74ef2c2f3904a04bd8ac21764209dce63fc4f59",
        "gas": "0x2e1a0",
        "value": "0x0",
        "input": "0xecf441b700000000000000000000000000000000000000000000000000000000000000010000000000000000000000000000000000000000000000056bc75e2d631000000000000000000000000000003c7deb6feaeb7a82bde580fb73d8d69c401b219e",
        "nonce": "0x7b7",
        "chainId": "0x13882"
      },
      "additionalContracts": [],
      "isFixedGasLimit": false
    }
  ],
  "receipts": [
    {
      "status": "0x1",
      "cumulativeGasUsed": "0xa2b3",
      "logs": [
        {
          "address": "0x8120a8e0688be6b2c0bb469f871e5e7023ca85eb",
          "topics": [
            "0xf98448b987f1428e0e230e1f3c6e2ce15b5693eaf31827fbd0b1ec4b424ae7cf",
            "0x0000000000000000000000000000000000000000000000000000000000000001",
            "0x000000000000000000000000efbbd14082cf2fbcf5badc7ee619f0f4e36d0a5b"
          ],
          "data": "0x0000000000000000000000000000000000000000000000000000000000000000000000000000000000000000000000000000000000000000000000006765ab130000000000000000000000000000000000000000000000000000000000000000",
          "blockHash": "0x17a656b05db29f76eb97286eefc5e5a9f999b72e0548377d82ebe27a93c0ffd4",
          "blockNumber": "0xf1c766",
          "transactionHash": "0x9fdfa74f4dc2fdf02e44824c9e810cd3a1a5123f97183c96629a7de29a1f8d01",
          "transactionIndex": "0x0",
          "logIndex": "0x0",
          "removed": false
        },
        {
          "address": "0x0000000000000000000000000000000000001010",
          "topics": [
            "0x4dfe1bbbcf077ddc3e01291eea2d5c70c2b422b415d95645b9adcfd678cb1d63",
            "0x0000000000000000000000000000000000000000000000000000000000001010",
            "0x000000000000000000000000efbbd14082cf2fbcf5badc7ee619f0f4e36d0a5b",
            "0x0000000000000000000000006ab3d36c46ecfb9b9c0bd51cb1c3da5a2c81cea6"
          ],
          "data": "0x0000000000000000000000000000000000000000000000000003b308ba7d0e00000000000000000000000000000000000000000000000000e70f35551efce46f00000000000000000000000000000000000000000000042f72639a9a3ff441a4000000000000000000000000000000000000000000000000e70b824c647fd66f00000000000000000000000000000000000000000000042f72674da2fa714fa4",
          "blockHash": "0x17a656b05db29f76eb97286eefc5e5a9f999b72e0548377d82ebe27a93c0ffd4",
          "blockNumber": "0xf1c766",
          "transactionHash": "0x9fdfa74f4dc2fdf02e44824c9e810cd3a1a5123f97183c96629a7de29a1f8d01",
          "transactionIndex": "0x0",
          "logIndex": "0x1",
          "removed": false
        }
      ],
      "logsBloom": "0x00000000080000000000000000000000000000000000000000000000000000000000000000000000000000000000000000008000000000000000000000040000008000080000000000000000000000800000000000040100000100000000000000000000000000000000000000000000000000000000000080000000000000000800000000000000000000000800000008000000000000000000000000000000200000000000000000002000000000000000400000000008008000000000004000000000000000000001000000000000000000010000000000100000000040000000000000000000000000000000000000000000000000000000000000100000",
      "type": "0x2",
      "transactionHash": "0x9fdfa74f4dc2fdf02e44824c9e810cd3a1a5123f97183c96629a7de29a1f8d01",
      "transactionIndex": "0x0",
      "blockHash": "0x17a656b05db29f76eb97286eefc5e5a9f999b72e0548377d82ebe27a93c0ffd4",
      "blockNumber": "0xf1c766",
      "gasUsed": "0xa2b3",
      "effectiveGasPrice": "0x5d21dba0f",
      "from": "0xefbbd14082cf2fbcf5badc7ee619f0f4e36d0a5b",
      "to": "0x8120a8e0688be6b2c0bb469f871e5e7023ca85eb",
      "contractAddress": null
    },
    {
      "status": "0x1",
      "cumulativeGasUsed": "0x18247",
      "logs": [
        {
          "address": "0x8120a8e0688be6b2c0bb469f871e5e7023ca85eb",
          "topics": [
            "0x9ea6790c7dadfd01c9f8b9762b3682607af2c7e79e05a9f9fdf5580dde949151",
            "0x000000000000000000000000e74ef2c2f3904a04bd8ac21764209dce63fc4f59",
            "0x0000000000000000000000000000000000000000000000000000000000000001"
          ],
          "data": "0xecf441b700000000000000000000000000000000000000000000000000000000",
          "blockHash": "0x17a656b05db29f76eb97286eefc5e5a9f999b72e0548377d82ebe27a93c0ffd4",
          "blockNumber": "0xf1c766",
          "transactionHash": "0x8a3f6e714f8ee57a7eb5f0528b0ca05cefe2dab96c8bebae935b85734ca1e047",
          "transactionIndex": "0x1",
          "logIndex": "0x2",
          "removed": false
        },
        {
          "address": "0x0000000000000000000000000000000000001010",
          "topics": [
            "0x4dfe1bbbcf077ddc3e01291eea2d5c70c2b422b415d95645b9adcfd678cb1d63",
            "0x0000000000000000000000000000000000000000000000000000000000001010",
            "0x000000000000000000000000efbbd14082cf2fbcf5badc7ee619f0f4e36d0a5b",
            "0x0000000000000000000000006ab3d36c46ecfb9b9c0bd51cb1c3da5a2c81cea6"
          ],
          "data": "0x000000000000000000000000000000000000000000000000000515655e358800000000000000000000000000000000000000000000000000e70b824c64764df200000000000000000000000000000000000000000000042f72674da2fa714fa4000000000000000000000000000000000000000000000000e7066ce70640c5f200000000000000000000000000000000000000000000042f726c630858a6d7a4",
          "blockHash": "0x17a656b05db29f76eb97286eefc5e5a9f999b72e0548377d82ebe27a93c0ffd4",
          "blockNumber": "0xf1c766",
          "transactionHash": "0x8a3f6e714f8ee57a7eb5f0528b0ca05cefe2dab96c8bebae935b85734ca1e047",
          "transactionIndex": "0x1",
          "logIndex": "0x3",
          "removed": false
        }
      ],
      "logsBloom": "0x00000004080080000000000000000000000000000000000000000000000000000000000000000000000000000000000000008000000000000000000000040000008000080000000000000000000000800000000000040100000100000000000000000000000000000000000000000000000000000000000080000000000000000800000000000000000000000800000000000000000000000000000000000000200000000000000000000000000000400000400000000000008000000000004000000000000000000001000200200000000000010000000000100000000040000000000000000000000000000000000000000000000000000000000000100000",
      "type": "0x2",
      "transactionHash": "0x8a3f6e714f8ee57a7eb5f0528b0ca05cefe2dab96c8bebae935b85734ca1e047",
      "transactionIndex": "0x1",
      "blockHash": "0x17a656b05db29f76eb97286eefc5e5a9f999b72e0548377d82ebe27a93c0ffd4",
      "blockNumber": "0xf1c766",
      "gasUsed": "0xdf94",
      "effectiveGasPrice": "0x5d21dba0f",
      "from": "0xefbbd14082cf2fbcf5badc7ee619f0f4e36d0a5b",
      "to": "0x8120a8e0688be6b2c0bb469f871e5e7023ca85eb",
      "contractAddress": null
    },
    {
      "status": "0x1",
      "cumulativeGasUsed": "0xdf94",
      "logs": [
        {
          "address": "0x8120a8e0688be6b2c0bb469f871e5e7023ca85eb",
          "topics": [
            "0x9ea6790c7dadfd01c9f8b9762b3682607af2c7e79e05a9f9fdf5580dde949151",
            "0x0000000000000000000000003b1f5d208d0559759cc8b7d33264a91102115418",
            "0x0000000000000000000000000000000000000000000000000000000000000001"
          ],
          "data": "0x69328dec00000000000000000000000000000000000000000000000000000000",
          "blockHash": "0xf1e50b269dfcc2065e056f68113a597ba36e4a77d3d81a8e88b6d07ceb05e615",
          "blockNumber": "0xf1c767",
          "transactionHash": "0xd767a65a8ba6feda3d3d3e684a9b94c0a0e15d5bc83564afa6824c15fdffd80f",
          "transactionIndex": "0x0",
          "logIndex": "0x0",
          "removed": false
        },
        {
          "address": "0x0000000000000000000000000000000000001010",
          "topics": [
            "0x4dfe1bbbcf077ddc3e01291eea2d5c70c2b422b415d95645b9adcfd678cb1d63",
            "0x0000000000000000000000000000000000000000000000000000000000001010",
            "0x000000000000000000000000efbbd14082cf2fbcf5badc7ee619f0f4e36d0a5b",
            "0x0000000000000000000000006ab3d36c46ecfb9b9c0bd51cb1c3da5a2c81cea6"
          ],
          "data": "0x000000000000000000000000000000000000000000000000000515655e358800000000000000000000000000000000000000000000000000e7066ce70633ac4600000000000000000000000000000000000000000000042f726c630858a6d7a4000000000000000000000000000000000000000000000000e7015781a7fe244600000000000000000000000000000000000000000000042f7271786db6dc5fa4",
          "blockHash": "0xf1e50b269dfcc2065e056f68113a597ba36e4a77d3d81a8e88b6d07ceb05e615",
          "blockNumber": "0xf1c767",
          "transactionHash": "0xd767a65a8ba6feda3d3d3e684a9b94c0a0e15d5bc83564afa6824c15fdffd80f",
          "transactionIndex": "0x0",
          "logIndex": "0x1",
          "removed": false
        }
      ],
      "logsBloom": "0x00000004080080000000000000000000000000000000000040000000000000000000000000000000000000000100000000008000000000000000000000040000008000080000000000000000000000800000000000040100000100000000000200000000000000000000000000000000000000000000000080000000000000000800000000000000000000000800000000000000000000000000000000000000200000000000000000000000000000000000400000000000008000000000004000000000000000000001000000200000000000010000000000100000000040000000000000000000000000000000000000000000000000000000000000100000",
      "type": "0x2",
      "transactionHash": "0xd767a65a8ba6feda3d3d3e684a9b94c0a0e15d5bc83564afa6824c15fdffd80f",
      "transactionIndex": "0x0",
      "blockHash": "0xf1e50b269dfcc2065e056f68113a597ba36e4a77d3d81a8e88b6d07ceb05e615",
      "blockNumber": "0xf1c767",
      "gasUsed": "0xdf94",
      "effectiveGasPrice": "0x5d21dba0f",
      "from": "0xefbbd14082cf2fbcf5badc7ee619f0f4e36d0a5b",
      "to": "0x8120a8e0688be6b2c0bb469f871e5e7023ca85eb",
      "contractAddress": null
    },
    {
      "status": "0x1",
      "cumulativeGasUsed": "0x27d0c",
      "logs": [
        {
          "address": "0x8120a8e0688be6b2c0bb469f871e5e7023ca85eb",
          "topics": [
            "0x9ea6790c7dadfd01c9f8b9762b3682607af2c7e79e05a9f9fdf5580dde949151",
            "0x00000000000000000000000080aabcc9612a3954cd681a758c7bb265a06722ac",
            "0x0000000000000000000000000000000000000000000000000000000000000001"
          ],
          "data": "0x20c5429b00000000000000000000000000000000000000000000000000000000",
          "blockHash": "0xf1e50b269dfcc2065e056f68113a597ba36e4a77d3d81a8e88b6d07ceb05e615",
          "blockNumber": "0xf1c767",
          "transactionHash": "0x1aa7f6e724c2bac8196a8cbe1d4723e2409d14bfdc4188dbb967fc457e39a8b9",
          "transactionIndex": "0x1",
          "logIndex": "0x2",
          "removed": false
        },
        {
          "address": "0x8120a8e0688be6b2c0bb469f871e5e7023ca85eb",
          "topics": [
            "0x9ea6790c7dadfd01c9f8b9762b3682607af2c7e79e05a9f9fdf5580dde949151",
            "0x00000000000000000000000080aabcc9612a3954cd681a758c7bb265a06722ac",
            "0x0000000000000000000000000000000000000000000000000000000000000001"
          ],
          "data": "0xb8adaa1100000000000000000000000000000000000000000000000000000000",
          "blockHash": "0xf1e50b269dfcc2065e056f68113a597ba36e4a77d3d81a8e88b6d07ceb05e615",
          "blockNumber": "0xf1c767",
          "transactionHash": "0x1aa7f6e724c2bac8196a8cbe1d4723e2409d14bfdc4188dbb967fc457e39a8b9",
          "transactionIndex": "0x1",
          "logIndex": "0x3",
          "removed": false
        },
        {
          "address": "0x8120a8e0688be6b2c0bb469f871e5e7023ca85eb",
          "topics": [
            "0x9ea6790c7dadfd01c9f8b9762b3682607af2c7e79e05a9f9fdf5580dde949151",
            "0x00000000000000000000000080aabcc9612a3954cd681a758c7bb265a06722ac",
            "0x0000000000000000000000000000000000000000000000000000000000000001"
          ],
          "data": "0xb759f95400000000000000000000000000000000000000000000000000000000",
          "blockHash": "0xf1e50b269dfcc2065e056f68113a597ba36e4a77d3d81a8e88b6d07ceb05e615",
          "blockNumber": "0xf1c767",
          "transactionHash": "0x1aa7f6e724c2bac8196a8cbe1d4723e2409d14bfdc4188dbb967fc457e39a8b9",
          "transactionIndex": "0x1",
          "logIndex": "0x4",
          "removed": false
        },
        {
          "address": "0x0000000000000000000000000000000000001010",
          "topics": [
            "0x4dfe1bbbcf077ddc3e01291eea2d5c70c2b422b415d95645b9adcfd678cb1d63",
            "0x0000000000000000000000000000000000000000000000000000000000001010",
            "0x000000000000000000000000efbbd14082cf2fbcf5badc7ee619f0f4e36d0a5b",
            "0x0000000000000000000000006ab3d36c46ecfb9b9c0bd51cb1c3da5a2c81cea6"
          ],
          "data": "0x000000000000000000000000000000000000000000000000000966b473013000000000000000000000000000000000000000000000000000e7015781a7f10a9a00000000000000000000000000000000000000000000042f7271786db6dc5fa4000000000000000000000000000000000000000000000000e6f7f0cd34efda9a00000000000000000000000000000000000000000000042f727adf2229dd8fa4",
          "blockHash": "0xf1e50b269dfcc2065e056f68113a597ba36e4a77d3d81a8e88b6d07ceb05e615",
          "blockNumber": "0xf1c767",
          "transactionHash": "0x1aa7f6e724c2bac8196a8cbe1d4723e2409d14bfdc4188dbb967fc457e39a8b9",
          "transactionIndex": "0x1",
          "logIndex": "0x5",
          "removed": false
        }
      ],
      "logsBloom": "0x00000004080080000000000000000000000000000000000000000000000000000000000000000000000000000000000000008000000000000000000000040000008000080000000000000000000000800000040000040100008100000000000000000000000000000000000000000000000000000000000080000000000000000800040000000000000000000800000000000000000000000000000000000000200000000000000000000000000000000000400000000000008000000000004000000000000000000001000000200000000000010000000000100000000040000000000000000000000000000000000000000000000000000000000000100000",
      "type": "0x2",
      "transactionHash": "0x1aa7f6e724c2bac8196a8cbe1d4723e2409d14bfdc4188dbb967fc457e39a8b9",
      "transactionIndex": "0x1",
      "blockHash": "0xf1e50b269dfcc2065e056f68113a597ba36e4a77d3d81a8e88b6d07ceb05e615",
      "blockNumber": "0xf1c767",
      "gasUsed": "0x19d78",
      "effectiveGasPrice": "0x5d21dba0f",
      "from": "0xefbbd14082cf2fbcf5badc7ee619f0f4e36d0a5b",
      "to": "0x8120a8e0688be6b2c0bb469f871e5e7023ca85eb",
      "contractAddress": null
    },
    {
      "status": "0x1",
      "cumulativeGasUsed": "0x41a84",
      "logs": [
        {
          "address": "0x8120a8e0688be6b2c0bb469f871e5e7023ca85eb",
          "topics": [
            "0x9ea6790c7dadfd01c9f8b9762b3682607af2c7e79e05a9f9fdf5580dde949151",
            "0x00000000000000000000000017c5b7ddac9e5623c018c32d67632da85a9be95b",
            "0x0000000000000000000000000000000000000000000000000000000000000001"
          ],
          "data": "0xf6eea09800000000000000000000000000000000000000000000000000000000",
          "blockHash": "0xf1e50b269dfcc2065e056f68113a597ba36e4a77d3d81a8e88b6d07ceb05e615",
          "blockNumber": "0xf1c767",
          "transactionHash": "0xfc12d8b48e72f6beeed8a6adc00c47d8f40bb96ccedff288642cf9c8d94ee0ad",
          "transactionIndex": "0x2",
          "logIndex": "0x6",
          "removed": false
        },
        {
          "address": "0x8120a8e0688be6b2c0bb469f871e5e7023ca85eb",
          "topics": [
            "0x9ea6790c7dadfd01c9f8b9762b3682607af2c7e79e05a9f9fdf5580dde949151",
            "0x00000000000000000000000017c5b7ddac9e5623c018c32d67632da85a9be95b",
            "0x0000000000000000000000000000000000000000000000000000000000000001"
          ],
          "data": "0x74a8f10300000000000000000000000000000000000000000000000000000000",
          "blockHash": "0xf1e50b269dfcc2065e056f68113a597ba36e4a77d3d81a8e88b6d07ceb05e615",
          "blockNumber": "0xf1c767",
          "transactionHash": "0xfc12d8b48e72f6beeed8a6adc00c47d8f40bb96ccedff288642cf9c8d94ee0ad",
          "transactionIndex": "0x2",
          "logIndex": "0x7",
          "removed": false
        },
        {
          "address": "0x8120a8e0688be6b2c0bb469f871e5e7023ca85eb",
          "topics": [
            "0x9ea6790c7dadfd01c9f8b9762b3682607af2c7e79e05a9f9fdf5580dde949151",
            "0x00000000000000000000000017c5b7ddac9e5623c018c32d67632da85a9be95b",
            "0x0000000000000000000000000000000000000000000000000000000000000001"
          ],
          "data": "0xdaea85c500000000000000000000000000000000000000000000000000000000",
          "blockHash": "0xf1e50b269dfcc2065e056f68113a597ba36e4a77d3d81a8e88b6d07ceb05e615",
          "blockNumber": "0xf1c767",
          "transactionHash": "0xfc12d8b48e72f6beeed8a6adc00c47d8f40bb96ccedff288642cf9c8d94ee0ad",
          "transactionIndex": "0x2",
          "logIndex": "0x8",
          "removed": false
        },
        {
          "address": "0x0000000000000000000000000000000000001010",
          "topics": [
            "0x4dfe1bbbcf077ddc3e01291eea2d5c70c2b422b415d95645b9adcfd678cb1d63",
            "0x0000000000000000000000000000000000000000000000000000000000001010",
            "0x000000000000000000000000efbbd14082cf2fbcf5badc7ee619f0f4e36d0a5b",
            "0x0000000000000000000000006ab3d36c46ecfb9b9c0bd51cb1c3da5a2c81cea6"
          ],
          "data": "0x000000000000000000000000000000000000000000000000000966b473013000000000000000000000000000000000000000000000000000e6f7f0cd34d7a09200000000000000000000000000000000000000000000042f727adf2229dd8fa4000000000000000000000000000000000000000000000000e6ee8a18c1d6709200000000000000000000000000000000000000000000042f728445d69cdebfa4",
          "blockHash": "0xf1e50b269dfcc2065e056f68113a597ba36e4a77d3d81a8e88b6d07ceb05e615",
          "blockNumber": "0xf1c767",
          "transactionHash": "0xfc12d8b48e72f6beeed8a6adc00c47d8f40bb96ccedff288642cf9c8d94ee0ad",
          "transactionIndex": "0x2",
          "logIndex": "0x9",
          "removed": false
        }
      ],
      "logsBloom": "0x00000004080080000000000000000000800000000000000000000000000000000000000000000000000000020000000000008000000000000000000000040000008000080000000000000000000000800000000000040100000100000000000000000000000000000000000000000000000000000001000080000000000000000800000000000000000000000800000000000000000000000000000000000000200000000000000000000000000000000000400000000000008000000000004000000000000000000001000000200000000000010000000000100000000040000000000000000000000000000000000000000000000000000000000000100000",
      "type": "0x2",
      "transactionHash": "0xfc12d8b48e72f6beeed8a6adc00c47d8f40bb96ccedff288642cf9c8d94ee0ad",
      "transactionIndex": "0x2",
      "blockHash": "0xf1e50b269dfcc2065e056f68113a597ba36e4a77d3d81a8e88b6d07ceb05e615",
      "blockNumber": "0xf1c767",
      "gasUsed": "0x19d78",
      "effectiveGasPrice": "0x5d21dba0f",
      "from": "0xefbbd14082cf2fbcf5badc7ee619f0f4e36d0a5b",
      "to": "0x8120a8e0688be6b2c0bb469f871e5e7023ca85eb",
      "contractAddress": null
    },
    {
      "status": "0x1",
      "cumulativeGasUsed": "0x4bd37",
      "logs": [
        {
          "address": "0x8120a8e0688be6b2c0bb469f871e5e7023ca85eb",
          "topics": [
            "0xf98448b987f1428e0e230e1f3c6e2ce15b5693eaf31827fbd0b1ec4b424ae7cf",
            "0x0000000000000000000000000000000000000000000000000000000000000002",
            "0x000000000000000000000000efbbd14082cf2fbcf5badc7ee619f0f4e36d0a5b"
          ],
          "data": "0x0000000000000000000000000000000000000000000000000000000000000000000000000000000000000000000000000000000000000000000000006765ab150000000000000000000000000000000000000000000000000000000000000000",
          "blockHash": "0xf1e50b269dfcc2065e056f68113a597ba36e4a77d3d81a8e88b6d07ceb05e615",
          "blockNumber": "0xf1c767",
          "transactionHash": "0x54168e430e468d31144292ceae15c46261438daebb73b9595d4f9b9c8b561a7a",
          "transactionIndex": "0x3",
          "logIndex": "0xa",
          "removed": false
        },
        {
          "address": "0x0000000000000000000000000000000000001010",
          "topics": [
            "0x4dfe1bbbcf077ddc3e01291eea2d5c70c2b422b415d95645b9adcfd678cb1d63",
            "0x0000000000000000000000000000000000000000000000000000000000001010",
            "0x000000000000000000000000efbbd14082cf2fbcf5badc7ee619f0f4e36d0a5b",
            "0x0000000000000000000000006ab3d36c46ecfb9b9c0bd51cb1c3da5a2c81cea6"
          ],
          "data": "0x0000000000000000000000000000000000000000000000000003b308ba7d0e00000000000000000000000000000000000000000000000000e6ee8a18c1be368a00000000000000000000000000000000000000000000042f728445d69cdebfa4000000000000000000000000000000000000000000000000e6ead7100741288a00000000000000000000000000000000000000000000042f7287f8df575bcda4",
          "blockHash": "0xf1e50b269dfcc2065e056f68113a597ba36e4a77d3d81a8e88b6d07ceb05e615",
          "blockNumber": "0xf1c767",
          "transactionHash": "0x54168e430e468d31144292ceae15c46261438daebb73b9595d4f9b9c8b561a7a",
          "transactionIndex": "0x3",
          "logIndex": "0xb",
          "removed": false
        }
      ],
      "logsBloom": "0x04000000080000000000000000000000000000000000000000000000000000000000000000000000000000000000000000008000000000000000000000000000008000080000000000000000000000800000000000000100000100000000000000000000000000000000000000000000000000000000000080000000000000000800000000000000000000000800000008000000000000000000000000000000200000000000000000002100000000000000400000000008008000000000004000000000000000000001000000000000000000010000000000100000000000000000000000000000000000000000000000000000008000000000000000100000",
      "type": "0x2",
      "transactionHash": "0x54168e430e468d31144292ceae15c46261438daebb73b9595d4f9b9c8b561a7a",
      "transactionIndex": "0x3",
      "blockHash": "0xf1e50b269dfcc2065e056f68113a597ba36e4a77d3d81a8e88b6d07ceb05e615",
      "blockNumber": "0xf1c767",
      "gasUsed": "0xa2b3",
      "effectiveGasPrice": "0x5d21dba0f",
      "from": "0xefbbd14082cf2fbcf5badc7ee619f0f4e36d0a5b",
      "to": "0x8120a8e0688be6b2c0bb469f871e5e7023ca85eb",
      "contractAddress": null
    },
    {
      "status": "0x1",
      "cumulativeGasUsed": "0x5fbbd",
      "logs": [
        {
          "address": "0x8120a8e0688be6b2c0bb469f871e5e7023ca85eb",
          "topics": [
            "0x9ea6790c7dadfd01c9f8b9762b3682607af2c7e79e05a9f9fdf5580dde949151",
            "0x0000000000000000000000009ce8b9b6f4f1084d87f8361cb05d69dd8e837027",
            "0x0000000000000000000000000000000000000000000000000000000000000002"
          ],
          "data": "0xdaea85c500000000000000000000000000000000000000000000000000000000",
          "blockHash": "0xf1e50b269dfcc2065e056f68113a597ba36e4a77d3d81a8e88b6d07ceb05e615",
          "blockNumber": "0xf1c767",
          "transactionHash": "0x266c49c6461d11400bda4127ed2ff264f7c117285db4e3267926e1a92c6721ec",
          "transactionIndex": "0x4",
          "logIndex": "0xc",
          "removed": false
        },
        {
          "address": "0x8120a8e0688be6b2c0bb469f871e5e7023ca85eb",
          "topics": [
            "0x9ea6790c7dadfd01c9f8b9762b3682607af2c7e79e05a9f9fdf5580dde949151",
            "0x0000000000000000000000009ce8b9b6f4f1084d87f8361cb05d69dd8e837027",
            "0x0000000000000000000000000000000000000000000000000000000000000002"
          ],
          "data": "0xab0da5a900000000000000000000000000000000000000000000000000000000",
          "blockHash": "0xf1e50b269dfcc2065e056f68113a597ba36e4a77d3d81a8e88b6d07ceb05e615",
          "blockNumber": "0xf1c767",
          "transactionHash": "0x266c49c6461d11400bda4127ed2ff264f7c117285db4e3267926e1a92c6721ec",
          "transactionIndex": "0x4",
          "logIndex": "0xd",
          "removed": false
        },
        {
          "address": "0x0000000000000000000000000000000000001010",
          "topics": [
            "0x4dfe1bbbcf077ddc3e01291eea2d5c70c2b422b415d95645b9adcfd678cb1d63",
            "0x0000000000000000000000000000000000000000000000000000000000001010",
            "0x000000000000000000000000efbbd14082cf2fbcf5badc7ee619f0f4e36d0a5b",
            "0x0000000000000000000000006ab3d36c46ecfb9b9c0bd51cb1c3da5a2c81cea6"
          ],
          "data": "0x00000000000000000000000000000000000000000000000000073e0ce89b5c00000000000000000000000000000000000000000000000000e6ead7100737a00d00000000000000000000000000000000000000000000042f7287f8df575bcda4000000000000000000000000000000000000000000000000e6e399031e9c440d00000000000000000000000000000000000000000000042f728f36ec3ff729a4",
          "blockHash": "0xf1e50b269dfcc2065e056f68113a597ba36e4a77d3d81a8e88b6d07ceb05e615",
          "blockNumber": "0xf1c767",
          "transactionHash": "0x266c49c6461d11400bda4127ed2ff264f7c117285db4e3267926e1a92c6721ec",
          "transactionIndex": "0x4",
          "logIndex": "0xe",
          "removed": false
        }
      ],
      "logsBloom": "0x04000004080080000000000000000000000000000000000000000000000000000000000000000000000000000000000000008000000000000000000000000000008000080000000000000000000000800000000000000100002100000000000000000000000000000000000000000000000000000000000080000000000000080800000000000000000000000800000000000000000000000000000000000002200000000000000000000100000000000000400000000000008000000000004000000000000000000001000000200000000000010000000000100000000000000000000000000000000000000000000000000000008000000000000000100000",
      "type": "0x2",
      "transactionHash": "0x266c49c6461d11400bda4127ed2ff264f7c117285db4e3267926e1a92c6721ec",
      "transactionIndex": "0x4",
      "blockHash": "0xf1e50b269dfcc2065e056f68113a597ba36e4a77d3d81a8e88b6d07ceb05e615",
      "blockNumber": "0xf1c767",
      "gasUsed": "0x13e86",
      "effectiveGasPrice": "0x5d21dba0f",
      "from": "0xefbbd14082cf2fbcf5badc7ee619f0f4e36d0a5b",
      "to": "0x8120a8e0688be6b2c0bb469f871e5e7023ca85eb",
      "contractAddress": null
    },
    {
      "status": "0x1",
      "cumulativeGasUsed": "0x6e061",
      "logs": [
        {
          "address": "0x8120a8e0688be6b2c0bb469f871e5e7023ca85eb",
          "topics": [
            "0xf98448b987f1428e0e230e1f3c6e2ce15b5693eaf31827fbd0b1ec4b424ae7cf",
            "0x0000000000000000000000000000000000000000000000000000000000000004",
            "0x000000000000000000000000768335ac070d49316665ab2422514d2bf89d2b16"
          ],
          "data": "0x0000000000000000000000000000000000000000000000000000000000000000000000000000000000000000000000000000000000000000000000006765ab150000000000000000000000000000000000000000000000000000000000000001",
          "blockHash": "0xf1e50b269dfcc2065e056f68113a597ba36e4a77d3d81a8e88b6d07ceb05e615",
          "blockNumber": "0xf1c767",
          "transactionHash": "0xfe6bef76341bb10f67f5e7a4fe87b1e21ce08baf9fb7a3f7aded4431efac1d2d",
          "transactionIndex": "0x5",
          "logIndex": "0xf",
          "removed": false
        },
        {
          "address": "0x0000000000000000000000000000000000001010",
          "topics": [
            "0x4dfe1bbbcf077ddc3e01291eea2d5c70c2b422b415d95645b9adcfd678cb1d63",
            "0x0000000000000000000000000000000000000000000000000000000000001010",
            "0x000000000000000000000000efbbd14082cf2fbcf5badc7ee619f0f4e36d0a5b",
            "0x0000000000000000000000006ab3d36c46ecfb9b9c0bd51cb1c3da5a2c81cea6"
          ],
          "data": "0x000000000000000000000000000000000000000000000000000532dd14b32800000000000000000000000000000000000000000000000000e6e399031e899a3300000000000000000000000000000000000000000000042f728f36ec3ff729a4000000000000000000000000000000000000000000000000e6de662609d6723300000000000000000000000000000000000000000000042f729469c954aa51a4",
          "blockHash": "0xf1e50b269dfcc2065e056f68113a597ba36e4a77d3d81a8e88b6d07ceb05e615",
          "blockNumber": "0xf1c767",
          "transactionHash": "0xfe6bef76341bb10f67f5e7a4fe87b1e21ce08baf9fb7a3f7aded4431efac1d2d",
          "transactionIndex": "0x5",
          "logIndex": "0x10",
          "removed": false
        }
      ],
      "logsBloom": "0x0000000008000000000000000000000000000000000000000008000000000000000000000000000000000000000000000000800000000000000000000000000000800008000000000000000000000080000000000000010000010000000000000800000000000000000000000000000000000000000000008000000000000000080000000000000000000000080000000800000000000000000000000000000020000000000000000000200000000000000040000000000800a000000000004000200000000800000001000000000000000000018000000000100000000000000000000000000000000000000000000000000000000000000000000000100000",
      "type": "0x2",
      "transactionHash": "0xfe6bef76341bb10f67f5e7a4fe87b1e21ce08baf9fb7a3f7aded4431efac1d2d",
      "transactionIndex": "0x5",
      "blockHash": "0xf1e50b269dfcc2065e056f68113a597ba36e4a77d3d81a8e88b6d07ceb05e615",
      "blockNumber": "0xf1c767",
      "gasUsed": "0xe4a4",
      "effectiveGasPrice": "0x5d21dba0f",
      "from": "0xefbbd14082cf2fbcf5badc7ee619f0f4e36d0a5b",
      "to": "0x8120a8e0688be6b2c0bb469f871e5e7023ca85eb",
      "contractAddress": null
    },
    {
      "status": "0x1",
      "cumulativeGasUsed": "0x7c505",
      "logs": [
        {
          "address": "0x8120a8e0688be6b2c0bb469f871e5e7023ca85eb",
          "topics": [
            "0xf98448b987f1428e0e230e1f3c6e2ce15b5693eaf31827fbd0b1ec4b424ae7cf",
            "0x0000000000000000000000000000000000000000000000000000000000000004",
            "0x000000000000000000000000e6c835021e1d729f1db7bb571a2c75ebbc87a489"
          ],
          "data": "0x0000000000000000000000000000000000000000000000000000000000000000000000000000000000000000000000000000000000000000000000006765ab150000000000000000000000000000000000000000000000000000000000000001",
          "blockHash": "0xf1e50b269dfcc2065e056f68113a597ba36e4a77d3d81a8e88b6d07ceb05e615",
          "blockNumber": "0xf1c767",
          "transactionHash": "0xc6918600b27f22f9b3a1748b75b6fab5d97f25ed7b04eec17785bf63f9a610ba",
          "transactionIndex": "0x6",
          "logIndex": "0x11",
          "removed": false
        },
        {
          "address": "0x0000000000000000000000000000000000001010",
          "topics": [
            "0x4dfe1bbbcf077ddc3e01291eea2d5c70c2b422b415d95645b9adcfd678cb1d63",
            "0x0000000000000000000000000000000000000000000000000000000000001010",
            "0x000000000000000000000000efbbd14082cf2fbcf5badc7ee619f0f4e36d0a5b",
            "0x0000000000000000000000006ab3d36c46ecfb9b9c0bd51cb1c3da5a2c81cea6"
          ],
          "data": "0x000000000000000000000000000000000000000000000000000532dd14b32800000000000000000000000000000000000000000000000000e6de662609c90c9700000000000000000000000000000000000000000000042f729469c954aa51a4000000000000000000000000000000000000000000000000e6d93348f515e49700000000000000000000000000000000000000000000042f72999ca6695d79a4",
          "blockHash": "0xf1e50b269dfcc2065e056f68113a597ba36e4a77d3d81a8e88b6d07ceb05e615",
          "blockNumber": "0xf1c767",
          "transactionHash": "0xc6918600b27f22f9b3a1748b75b6fab5d97f25ed7b04eec17785bf63f9a610ba",
          "transactionIndex": "0x6",
          "logIndex": "0x12",
          "removed": false
        }
      ],
      "logsBloom": "0x0000000008000000000000000000000000000000000000000000000000000000000000000000000000000000000000000000800000000000002000000000000000800008000000000000000000400080000000000000010000010000000000000800000000000000000000000000000000000000000000008000000000002000080000000000000000000000080000000800000000000000000000000000000020000000000000000000200000000000000040000000000800a000000000004000000000000000000001000000000000000000018000000000100000000000000000000000000000000000000000000000000000000000000000000000100000",
      "type": "0x2",
      "transactionHash": "0xc6918600b27f22f9b3a1748b75b6fab5d97f25ed7b04eec17785bf63f9a610ba",
      "transactionIndex": "0x6",
      "blockHash": "0xf1e50b269dfcc2065e056f68113a597ba36e4a77d3d81a8e88b6d07ceb05e615",
      "blockNumber": "0xf1c767",
      "gasUsed": "0xe4a4",
      "effectiveGasPrice": "0x5d21dba0f",
      "from": "0xefbbd14082cf2fbcf5badc7ee619f0f4e36d0a5b",
      "to": "0x8120a8e0688be6b2c0bb469f871e5e7023ca85eb",
      "contractAddress": null
    },
    {
      "status": "0x1",
      "cumulativeGasUsed": "0x260eb",
      "logs": [
        {
          "address": "0x8120a8e0688be6b2c0bb469f871e5e7023ca85eb",
          "topics": [
            "0x9ea6790c7dadfd01c9f8b9762b3682607af2c7e79e05a9f9fdf5580dde949151",
            "0x00000000000000000000000066612fb73c5df6273f79bfc1f03382399e8b9ec6",
            "0x0000000000000000000000000000000000000000000000000000000000000004"
          ],
          "data": "0x4bbc170a00000000000000000000000000000000000000000000000000000000",
          "blockHash": "0x2f85dbfd1d4f65a703d75eabbd9b00ea8e763662be26921719557fbf65a37980",
          "blockNumber": "0xf1c768",
          "transactionHash": "0x490e4002beeada28f78174225266be7ce9b44b1f0dacdf6a23614013a8a030fa",
          "transactionIndex": "0x1",
          "logIndex": "0x3",
          "removed": false
        },
        {
          "address": "0x8120a8e0688be6b2c0bb469f871e5e7023ca85eb",
          "topics": [
            "0x9ea6790c7dadfd01c9f8b9762b3682607af2c7e79e05a9f9fdf5580dde949151",
            "0x00000000000000000000000066612fb73c5df6273f79bfc1f03382399e8b9ec6",
            "0x0000000000000000000000000000000000000000000000000000000000000004"
          ],
          "data": "0x15f4150100000000000000000000000000000000000000000000000000000000",
          "blockHash": "0x2f85dbfd1d4f65a703d75eabbd9b00ea8e763662be26921719557fbf65a37980",
          "blockNumber": "0xf1c768",
          "transactionHash": "0x490e4002beeada28f78174225266be7ce9b44b1f0dacdf6a23614013a8a030fa",
          "transactionIndex": "0x1",
          "logIndex": "0x4",
          "removed": false
        },
        {
          "address": "0x8120a8e0688be6b2c0bb469f871e5e7023ca85eb",
          "topics": [
            "0x9ea6790c7dadfd01c9f8b9762b3682607af2c7e79e05a9f9fdf5580dde949151",
            "0x00000000000000000000000066612fb73c5df6273f79bfc1f03382399e8b9ec6",
            "0x0000000000000000000000000000000000000000000000000000000000000004"
          ],
          "data": "0x9e96a26000000000000000000000000000000000000000000000000000000000",
          "blockHash": "0x2f85dbfd1d4f65a703d75eabbd9b00ea8e763662be26921719557fbf65a37980",
          "blockNumber": "0xf1c768",
          "transactionHash": "0x490e4002beeada28f78174225266be7ce9b44b1f0dacdf6a23614013a8a030fa",
          "transactionIndex": "0x1",
          "logIndex": "0x5",
          "removed": false
        },
        {
          "address": "0x0000000000000000000000000000000000001010",
          "topics": [
            "0x4dfe1bbbcf077ddc3e01291eea2d5c70c2b422b415d95645b9adcfd678cb1d63",
            "0x0000000000000000000000000000000000000000000000000000000000001010",
            "0x000000000000000000000000efbbd14082cf2fbcf5badc7ee619f0f4e36d0a5b",
            "0x0000000000000000000000006ab3d36c46ecfb9b9c0bd51cb1c3da5a2c81cea6"
          ],
          "data": "0x000000000000000000000000000000000000000000000000000966b473013000000000000000000000000000000000000000000000000000e6d93348f5087efb00000000000000000000000000000000000000000000042f72a002e2efd27bfd000000000000000000000000000000000000000000000000e6cfcc9482074efb00000000000000000000000000000000000000000000042f72a9699762d3abfd",
          "blockHash": "0x2f85dbfd1d4f65a703d75eabbd9b00ea8e763662be26921719557fbf65a37980",
          "blockNumber": "0xf1c768",
          "transactionHash": "0x490e4002beeada28f78174225266be7ce9b44b1f0dacdf6a23614013a8a030fa",
          "transactionIndex": "0x1",
          "logIndex": "0x6",
          "removed": false
        }
      ],
      "logsBloom": "0x0000000408008000000000000000000000000000000000000000000000000000000200000000000000000000000000000000800000000000000000000000000000800008000000000000000000000080000000000000010000010000000000000800000000000000000000000000000004002000000000008000000000000000080000000000000000000000080000000000000000000000000000000000000020000000000000000000000000000000000040000000000000a000000000004000000000000000000001000000200000000000018000000000100000000000000000000000000000000000000000000000000000000000000000000000100000",
      "type": "0x2",
      "transactionHash": "0x490e4002beeada28f78174225266be7ce9b44b1f0dacdf6a23614013a8a030fa",
      "transactionIndex": "0x1",
      "blockHash": "0x2f85dbfd1d4f65a703d75eabbd9b00ea8e763662be26921719557fbf65a37980",
      "blockNumber": "0xf1c768",
      "gasUsed": "0x19d78",
      "effectiveGasPrice": "0x5d21dba0f",
      "from": "0xefbbd14082cf2fbcf5badc7ee619f0f4e36d0a5b",
      "to": "0x8120a8e0688be6b2c0bb469f871e5e7023ca85eb",
      "contractAddress": null
    },
    {
      "status": "0x1",
      "cumulativeGasUsed": "0x476ce",
      "logs": [
        {
          "address": "0xe74ef2c2f3904a04bd8ac21764209dce63fc4f59",
          "topics": [
            "0xfbbd6e9cc51f124b05f08f20e9aef57fb26fc9a927be06212c59506610581335",
            "0x0000000000000000000000003c7deb6feaeb7a82bde580fb73d8d69c401b219e",
            "0x000000000000000000000000efbbd14082cf2fbcf5badc7ee619f0f4e36d0a5b"
          ],
          "data": "0x00000000000000000000000000000000000000000000000000000000000001f40000000000000000000000000000000000000000000000000000000000000002",
          "blockHash": "0x2f85dbfd1d4f65a703d75eabbd9b00ea8e763662be26921719557fbf65a37980",
          "blockNumber": "0xf1c768",
          "transactionHash": "0xb16a0019384937194eb342f3084021d8d69fff93c964b068803cb43262228483",
          "transactionIndex": "0x2",
          "logIndex": "0x7",
          "removed": false
        },
        {
          "address": "0x0000000000000000000000000000000000001010",
          "topics": [
            "0x4dfe1bbbcf077ddc3e01291eea2d5c70c2b422b415d95645b9adcfd678cb1d63",
            "0x0000000000000000000000000000000000000000000000000000000000001010",
            "0x000000000000000000000000efbbd14082cf2fbcf5badc7ee619f0f4e36d0a5b",
            "0x0000000000000000000000006ab3d36c46ecfb9b9c0bd51cb1c3da5a2c81cea6"
          ],
          "data": "0x000000000000000000000000000000000000000000000000000c23a1349dee00000000000000000000000000000000000000000000000000e6cfcc9481ef14f300000000000000000000000000000000000000000000042f72a9699762d3abfd000000000000000000000000000000000000000000000000e6c3a8f34d5126f300000000000000000000000000000000000000000000042f72b58d38977199fd",
          "blockHash": "0x2f85dbfd1d4f65a703d75eabbd9b00ea8e763662be26921719557fbf65a37980",
          "blockNumber": "0xf1c768",
          "transactionHash": "0xb16a0019384937194eb342f3084021d8d69fff93c964b068803cb43262228483",
          "transactionIndex": "0x2",
          "logIndex": "0x8",
          "removed": false
        }
      ],
      "logsBloom": "0x00000000080000000000800000000000000000000000000000800000000000000000000000000000000000000000000000008000000000000000000000000000008000080000000020000000000000800000000000000020000100000000000000001000000000400000000000000000000000000000000080000000004000000800000000000000000000000000000000000004000000000000000000000000200000000000000000000000000000000000400000000000000000000000004000000000000000000001000000000000000000010000000000100400000000000000000000000000000000000000000000000000000000000000000000100000",
      "type": "0x2",
      "transactionHash": "0xb16a0019384937194eb342f3084021d8d69fff93c964b068803cb43262228483",
      "transactionIndex": "0x2",
      "blockHash": "0x2f85dbfd1d4f65a703d75eabbd9b00ea8e763662be26921719557fbf65a37980",
      "blockNumber": "0xf1c768",
      "gasUsed": "0x215e3",
      "effectiveGasPrice": "0x5d21dba0f",
      "from": "0xefbbd14082cf2fbcf5badc7ee619f0f4e36d0a5b",
      "to": "0xe74ef2c2f3904a04bd8ac21764209dce63fc4f59",
      "contractAddress": null
    },
    {
      "status": "0x1",
      "cumulativeGasUsed": "0x68cd6",
      "logs": [
        {
          "address": "0xe74ef2c2f3904a04bd8ac21764209dce63fc4f59",
          "topics": [
            "0xfbbd6e9cc51f124b05f08f20e9aef57fb26fc9a927be06212c59506610581335",
            "0x0000000000000000000000003c7deb6feaeb7a82bde580fb73d8d69c401b219e",
            "0x000000000000000000000000efbbd14082cf2fbcf5badc7ee619f0f4e36d0a5b"
          ],
          "data": "0x0000000000000000000000000000000000000000000000056bc75e2d631000000000000000000000000000000000000000000000000000000000000000000001",
          "blockHash": "0x2f85dbfd1d4f65a703d75eabbd9b00ea8e763662be26921719557fbf65a37980",
          "blockNumber": "0xf1c768",
          "transactionHash": "0x404238f8daae2522fd542bde3a66179b9775c3882afd02db2cb48350ed89536d",
          "transactionIndex": "0x3",
          "logIndex": "0x9",
          "removed": false
        },
        {
          "address": "0x0000000000000000000000000000000000001010",
          "topics": [
            "0x4dfe1bbbcf077ddc3e01291eea2d5c70c2b422b415d95645b9adcfd678cb1d63",
            "0x0000000000000000000000000000000000000000000000000000000000001010",
            "0x000000000000000000000000efbbd14082cf2fbcf5badc7ee619f0f4e36d0a5b",
            "0x0000000000000000000000006ab3d36c46ecfb9b9c0bd51cb1c3da5a2c81cea6"
          ],
          "data": "0x000000000000000000000000000000000000000000000000000c247892e9d000000000000000000000000000000000000000000000000000e6c3a8f34d31dea600000000000000000000000000000000000000000000042f72b58d38977199fd000000000000000000000000000000000000000000000000e6b7847aba480ea600000000000000000000000000000000000000000000042f72c1b1b12a5b69fd",
          "blockHash": "0x2f85dbfd1d4f65a703d75eabbd9b00ea8e763662be26921719557fbf65a37980",
          "blockNumber": "0xf1c768",
          "transactionHash": "0x404238f8daae2522fd542bde3a66179b9775c3882afd02db2cb48350ed89536d",
          "transactionIndex": "0x3",
          "logIndex": "0xa",
          "removed": false
        }
      ],
      "logsBloom": "0x00000000080000000000800000000000000000000000000000800000000000000000000000000000000000000000000000008000000000000000000000000000008000080000000020000000000000800000000000000020000100000000000000001000000000400000000000000000000000000000000080000000004000000800000000000000000000000000000000000004000000000000000000000000200000000000000000000000000000000000400000000000000000000000004000000000000000000001000000000000000000010000000000100400000000000000000000000000000000000000000000000000000000000000000000100000",
      "type": "0x2",
      "transactionHash": "0x404238f8daae2522fd542bde3a66179b9775c3882afd02db2cb48350ed89536d",
      "transactionIndex": "0x3",
      "blockHash": "0x2f85dbfd1d4f65a703d75eabbd9b00ea8e763662be26921719557fbf65a37980",
      "blockNumber": "0xf1c768",
      "gasUsed": "0x21608",
      "effectiveGasPrice": "0x5d21dba0f",
      "from": "0xefbbd14082cf2fbcf5badc7ee619f0f4e36d0a5b",
      "to": "0xe74ef2c2f3904a04bd8ac21764209dce63fc4f59",
      "contractAddress": null
    }
  ],
  "libraries": [],
  "pending": [],
  "returns": {},
  "timestamp": 1734716183,
  "chain": 80002,
  "commit": "66cd11d"
}