{
  "transactions": [
    {
      "hash": "0x65773dfc3c4eb467b65983109f3a53f28e6c64267784a7d5d13e5d95de3e7c8a",
      "transactionType": "CALL",
      "contractName": null,
      "contractAddress": "0x8120a8e0688be6b2c0bb469f871e5e7023ca85eb",
      "function": "grantRole(uint64,address,uint32)",
      "arguments": [
        "1",
        "0xEFBBD14082cF2FbCf5Badc7ee619F0f4e36D0A5B",
        "0"
      ],
      "transaction": {
        "from": "0xefbbd14082cf2fbcf5badc7ee619f0f4e36d0a5b",
        "to": "0x8120a8e0688be6b2c0bb469f871e5e7023ca85eb",
        "gas": "0xedf2",
        "value": "0x0",
        "input": "0x25c471a00000000000000000000000000000000000000000000000000000000000000001000000000000000000000000efbbd14082cf2fbcf5badc7ee619f0f4e36d0a5b0000000000000000000000000000000000000000000000000000000000000000",
        "nonce": "0x774",
        "chainId": "0x13882"
      },
      "additionalContracts": [],
      "isFixedGasLimit": false
    },
    {
      "hash": "0xafe2f35880c78e332f90465b5d89458fa83a48c9b124362ff4d872fcbc22c9c9",
      "transactionType": "CALL",
      "contractName": null,
      "contractAddress": "0x8120a8e0688be6b2c0bb469f871e5e7023ca85eb",
      "function": "setTargetFunctionRole(address,bytes4[],uint64)",
      "arguments": [
        "0x8BbDeDEcc72EA39BD0E399A21273654143ae10Ba",
        "[0xecf441b7]",
        "1"
      ],
      "transaction": {
        "from": "0xefbbd14082cf2fbcf5badc7ee619f0f4e36d0a5b",
        "to": "0x8120a8e0688be6b2c0bb469f871e5e7023ca85eb",
        "gas": "0x134d0",
        "value": "0x0",
        "input": "0x08d6122d0000000000000000000000008bbdedecc72ea39bd0e399a21273654143ae10ba000000000000000000000000000000000000000000000000000000000000006000000000000000000000000000000000000000000000000000000000000000010000000000000000000000000000000000000000000000000000000000000001ecf441b700000000000000000000000000000000000000000000000000000000",
        "nonce": "0x775",
        "chainId": "0x13882"
      },
      "additionalContracts": [],
      "isFixedGasLimit": false
    },
    {
      "hash": "0x650c95e3c3bb7dce203f696b98718eac1eb13ad885fc00b812af614e551dab91",
      "transactionType": "CALL",
      "contractName": null,
      "contractAddress": "0x8120a8e0688be6b2c0bb469f871e5e7023ca85eb",
      "function": "setTargetFunctionRole(address,bytes4[],uint64)",
      "arguments": [
        "0xaB5891221e4A7c96BF32A18bbB3fAd34DdBda33F",
        "[0x69328dec]",
        "1"
      ],
      "transaction": {
        "from": "0xefbbd14082cf2fbcf5badc7ee619f0f4e36d0a5b",
        "to": "0x8120a8e0688be6b2c0bb469f871e5e7023ca85eb",
        "gas": "0x134d0",
        "value": "0x0",
        "input": "0x08d6122d000000000000000000000000ab5891221e4a7c96bf32a18bbb3fad34ddbda33f00000000000000000000000000000000000000000000000000000000000000600000000000000000000000000000000000000000000000000000000000000001000000000000000000000000000000000000000000000000000000000000000169328dec00000000000000000000000000000000000000000000000000000000",
        "nonce": "0x776",
        "chainId": "0x13882"
      },
      "additionalContracts": [],
      "isFixedGasLimit": false
    },
    {
      "hash": "0xfb90ac44a9aafce11b71c87e409b9e112994365231180247da760b55da2ed94f",
      "transactionType": "CALL",
      "contractName": null,
      "contractAddress": "0x8120a8e0688be6b2c0bb469f871e5e7023ca85eb",
      "function": "setTargetFunctionRole(address,bytes4[],uint64)",
      "arguments": [
        "0x24C307D602EFd1104886C8276524068E166F96ca",
        "[0x20c5429b, 0xb8adaa11, 0xb759f954]",
        "1"
      ],
      "transaction": {
        "from": "0xefbbd14082cf2fbcf5badc7ee619f0f4e36d0a5b",
        "to": "0x8120a8e0688be6b2c0bb469f871e5e7023ca85eb",
        "gas": "0x23b19",
        "value": "0x0",
        "input": "0x08d6122d00000000000000000000000024c307d602efd1104886c8276524068e166f96ca00000000000000000000000000000000000000000000000000000000000000600000000000000000000000000000000000000000000000000000000000000001000000000000000000000000000000000000000000000000000000000000000320c5429b00000000000000000000000000000000000000000000000000000000b8adaa1100000000000000000000000000000000000000000000000000000000b759f95400000000000000000000000000000000000000000000000000000000",
        "nonce": "0x777",
        "chainId": "0x13882"
      },
      "additionalContracts": [],
      "isFixedGasLimit": false
    },
    {
      "hash": "0x6e81ffe6eb29220bff5df783c047acc62720c4e63ff7b72ea4a213c9b9a10d34",
      "transactionType": "CALL",
      "contractName": null,
      "contractAddress": "0x8120a8e0688be6b2c0bb469f871e5e7023ca85eb",
      "function": "setTargetFunctionRole(address,bytes4[],uint64)",
      "arguments": [
        "0x3A9b5b820a7A4EbBE065560f51dC91e57FFB6607",
        "[0xf6eea098, 0x74a8f103, 0xdaea85c5]",
        "1"
      ],
      "transaction": {
        "from": "0xefbbd14082cf2fbcf5badc7ee619f0f4e36d0a5b",
        "to": "0x8120a8e0688be6b2c0bb469f871e5e7023ca85eb",
        "gas": "0x23b19",
        "value": "0x0",
        "input": "0x08d6122d0000000000000000000000003a9b5b820a7a4ebbe065560f51dc91e57ffb6607000000000000000000000000000000000000000000000000000000000000006000000000000000000000000000000000000000000000000000000000000000010000000000000000000000000000000000000000000000000000000000000003f6eea0980000000000000000000000000000000000000000000000000000000074a8f10300000000000000000000000000000000000000000000000000000000daea85c500000000000000000000000000000000000000000000000000000000",
        "nonce": "0x778",
        "chainId": "0x13882"
      },
      "additionalContracts": [],
      "isFixedGasLimit": false
    },
    {
      "hash": "0xf75d716533d0c21c2163bfacff533cd809adcf0e68db72fa3df0ea8ce42a95b9",
      "transactionType": "CALL",
      "contractName": null,
      "contractAddress": "0x8120a8e0688be6b2c0bb469f871e5e7023ca85eb",
      "function": "grantRole(uint64,address,uint32)",
      "arguments": [
        "2",
        "0xEFBBD14082cF2FbCf5Badc7ee619F0f4e36D0A5B",
        "0"
      ],
      "transaction": {
        "from": "0xefbbd14082cf2fbcf5badc7ee619f0f4e36d0a5b",
        "to": "0x8120a8e0688be6b2c0bb469f871e5e7023ca85eb",
        "gas": "0x13bcf",
        "value": "0x0",
        "input": "0x25c471a00000000000000000000000000000000000000000000000000000000000000002000000000000000000000000efbbd14082cf2fbcf5badc7ee619f0f4e36d0a5b0000000000000000000000000000000000000000000000000000000000000000",
        "nonce": "0x779",
        "chainId": "0x13882"
      },
      "additionalContracts": [],
      "isFixedGasLimit": false
    },
    {
      "hash": "0x9ca5b329829528d26f32975bb095abd5f08ba3c5bc16d8bc52b6505d4d0587b1",
      "transactionType": "CALL",
      "contractName": null,
      "contractAddress": "0x8120a8e0688be6b2c0bb469f871e5e7023ca85eb",
      "function": "setTargetFunctionRole(address,bytes4[],uint64)",
      "arguments": [
        "0x20B61A0908D87574BBD2C47bd32Af11438C52d9D",
        "[0xdaea85c5, 0xab0da5a9]",
        "2"
      ],
      "transaction": {
        "from": "0xefbbd14082cf2fbcf5badc7ee619f0f4e36d0a5b",
        "to": "0x8120a8e0688be6b2c0bb469f871e5e7023ca85eb",
        "gas": "0x1b7f5",
        "value": "0x0",
        "input": "0x08d6122d00000000000000000000000020b61a0908d87574bbd2c47bd32af11438c52d9d000000000000000000000000000000000000000000000000000000000000006000000000000000000000000000000000000000000000000000000000000000020000000000000000000000000000000000000000000000000000000000000002daea85c500000000000000000000000000000000000000000000000000000000ab0da5a900000000000000000000000000000000000000000000000000000000",
        "nonce": "0x77a",
        "chainId": "0x13882"
      },
      "additionalContracts": [],
      "isFixedGasLimit": false
    },
    {
      "hash": "0x1d2ff8573e2b84253f662cb6bc8a5c76704f08d6ebff3edcf2d415df387abb4f",
      "transactionType": "CALL",
      "contractName": null,
      "contractAddress": "0x8120a8e0688be6b2c0bb469f871e5e7023ca85eb",
      "function": "grantRole(uint64,address,uint32)",
      "arguments": [
        "4",
        "0x6432e643E2C12dd3A72EE92c6d1e72Bf8Dd1aeb6",
        "0"
      ],
      "transaction": {
        "from": "0xefbbd14082cf2fbcf5badc7ee619f0f4e36d0a5b",
        "to": "0x8120a8e0688be6b2c0bb469f871e5e7023ca85eb",
        "gas": "0x13bcf",
        "value": "0x0",
        "input": "0x25c471a000000000000000000000000000000000000000000000000000000000000000040000000000000000000000006432e643e2c12dd3a72ee92c6d1e72bf8dd1aeb60000000000000000000000000000000000000000000000000000000000000000",
        "nonce": "0x77b",
        "chainId": "0x13882"
      },
      "additionalContracts": [],
      "isFixedGasLimit": false
    },
    {
      "hash": "0xec95aef1f72ce787b1986bae602ccce6b38a445ff45b2bdb206a9253938408c1",
      "transactionType": "CALL",
      "contractName": null,
      "contractAddress": "0x8120a8e0688be6b2c0bb469f871e5e7023ca85eb",
      "function": "grantRole(uint64,address,uint32)",
      "arguments": [
        "4",
        "0x80C21DdDE0fDC8485e48B2F9981f5ED2Bd76c2F0",
        "0"
      ],
      "transaction": {
        "from": "0xefbbd14082cf2fbcf5badc7ee619f0f4e36d0a5b",
        "to": "0x8120a8e0688be6b2c0bb469f871e5e7023ca85eb",
        "gas": "0x13bcf",
        "value": "0x0",
        "input": "0x25c471a0000000000000000000000000000000000000000000000000000000000000000400000000000000000000000080c21ddde0fdc8485e48b2f9981f5ed2bd76c2f00000000000000000000000000000000000000000000000000000000000000000",
        "nonce": "0x77c",
        "chainId": "0x13882"
      },
      "additionalContracts": [],
      "isFixedGasLimit": false
    },
    {
      "hash": "0xf7be4a5170b8cd04bd9c871a35b7ffc1225cb07a2cde9b1cc73a4a5b550de4fa",
      "transactionType": "CALL",
      "contractName": null,
      "contractAddress": "0x8120a8e0688be6b2c0bb469f871e5e7023ca85eb",
      "function": "setTargetFunctionRole(address,bytes4[],uint64)",
      "arguments": [
        "0x466aEa1c8475293be76eb682C553f9E8871b2502",
        "[0x4bbc170a, 0x15f41501, 0x9e96a260]",
        "4"
      ],
      "transaction": {
        "from": "0xefbbd14082cf2fbcf5badc7ee619f0f4e36d0a5b",
        "to": "0x8120a8e0688be6b2c0bb469f871e5e7023ca85eb",
        "gas": "0x23b19",
        "value": "0x0",
        "input": "0x08d6122d000000000000000000000000466aea1c8475293be76eb682c553f9e8871b25020000000000000000000000000000000000000000000000000000000000000060000000000000000000000000000000000000000000000000000000000000000400000000000000000000000000000000000000000000000000000000000000034bbc170a0000000000000000000000000000000000000000000000000000000015f41501000000000000000000000000000000000000000000000000000000009e96a26000000000000000000000000000000000000000000000000000000000",
        "nonce": "0x77d",
        "chainId": "0x13882"
      },
      "additionalContracts": [],
      "isFixedGasLimit": false
    },
    {
      "hash": "0x2d843ff4d5c07ee16eed2d8332bd0e1c163dc1fc7ddb33d5dba0f22620a6c4df",
      "transactionType": "CALL",
      "contractName": null,
      "contractAddress": "0x8bbdedecc72ea39bd0e399a21273654143ae10ba",
      "function": "setFees(uint8,uint256,address)",
      "arguments": [
        "2",
        "500",
        "0x3c7DeB6FeAEb7a82BDe580Fb73d8d69c401b219e"
      ],
      "transaction": {
        "from": "0xefbbd14082cf2fbcf5badc7ee619f0f4e36d0a5b",
        "to": "0x8bbdedecc72ea39bd0e399a21273654143ae10ba",
        "gas": "0x30cce",
        "value": "0x0",
        "input": "0xecf441b7000000000000000000000000000000000000000000000000000000000000000200000000000000000000000000000000000000000000000000000000000001f40000000000000000000000003c7deb6feaeb7a82bde580fb73d8d69c401b219e",
        "nonce": "0x77e",
        "chainId": "0x13882"
      },
      "additionalContracts": [],
      "isFixedGasLimit": false
    },
    {
      "hash": "0x82353287a67ff00d93beaac2bf61f162ec5ea05d34f71f8196c66fb9050a5f87",
      "transactionType": "CALL",
      "contractName": null,
      "contractAddress": "0x8bbdedecc72ea39bd0e399a21273654143ae10ba",
      "function": "setFees(uint8,uint256,address)",
      "arguments": [
        "1",
        "100000000000000000000",
        "0x3c7DeB6FeAEb7a82BDe580Fb73d8d69c401b219e"
      ],
      "transaction": {
        "from": "0xefbbd14082cf2fbcf5badc7ee619f0f4e36d0a5b",
        "to": "0x8bbdedecc72ea39bd0e399a21273654143ae10ba",
        "gas": "0x2e1a0",
        "value": "0x0",
        "input": "0xecf441b700000000000000000000000000000000000000000000000000000000000000010000000000000000000000000000000000000000000000056bc75e2d631000000000000000000000000000003c7deb6feaeb7a82bde580fb73d8d69c401b219e",
        "nonce": "0x77f",
        "chainId": "0x13882"
      },
      "additionalContracts": [],
      "isFixedGasLimit": false
    }
  ],
  "receipts": [
    {
      "status": "0x1",
      "cumulativeGasUsed": "0xa3b70",
      "logs": [
        {
          "address": "0x8120a8e0688be6b2c0bb469f871e5e7023ca85eb",
          "topics": [
            "0xf98448b987f1428e0e230e1f3c6e2ce15b5693eaf31827fbd0b1ec4b424ae7cf",
            "0x0000000000000000000000000000000000000000000000000000000000000001",
            "0x000000000000000000000000efbbd14082cf2fbcf5badc7ee619f0f4e36d0a5b"
          ],
          "data": "0x00000000000000000000000000000000000000000000000000000000000000000000000000000000000000000000000000000000000000000000000067659bdd0000000000000000000000000000000000000000000000000000000000000000",
          "blockHash": "0x8ca41ea0e5a09067f40c7ccb9c721cc7c15f7722ce9c04f692f456424607bb39",
          "blockNumber": "0xf1c03e",
          "transactionHash": "0x65773dfc3c4eb467b65983109f3a53f28e6c64267784a7d5d13e5d95de3e7c8a",
          "transactionIndex": "0x3",
          "logIndex": "0xe",
          "removed": false
        },
        {
          "address": "0x0000000000000000000000000000000000001010",
          "topics": [
            "0x4dfe1bbbcf077ddc3e01291eea2d5c70c2b422b415d95645b9adcfd678cb1d63",
            "0x0000000000000000000000000000000000000000000000000000000000001010",
            "0x000000000000000000000000efbbd14082cf2fbcf5badc7ee619f0f4e36d0a5b",
            "0x0000000000000000000000006dc2dd54f24979ec26212794c71afefed722280c"
          ],
          "data": "0x0000000000000000000000000000000000000000000000000003b308ba7d0e00000000000000000000000000000000000000000000000000f1925721e95657de000000000000000000000000000000000000000000000494091975f7116c3761000000000000000000000000000000000000000000000000f18ea4192ed949de000000000000000000000000000000000000000000000494091d28ffcbe94561",
          "blockHash": "0x8ca41ea0e5a09067f40c7ccb9c721cc7c15f7722ce9c04f692f456424607bb39",
          "blockNumber": "0xf1c03e",
          "transactionHash": "0x65773dfc3c4eb467b65983109f3a53f28e6c64267784a7d5d13e5d95de3e7c8a",
          "transactionIndex": "0x3",
          "logIndex": "0xf",
          "removed": false
        }
      ],
      "logsBloom": "0x00000000000000000000000000000000000000000000000000000000000000000000000000000000000000000000000000008000000000000000000000040000008000000000000000000000000000800000000000040100000100080000000000000000000000000000000000000000000000000000000080000000000000020800000000000000000000000840000008000000000000000000000000000000200000000000000000002000000000000000400000000008008000000000004000000000000000000001000000000000000000000000000000100000000040000000000000000000000000000000000000000000000000000000000000100000",
      "type": "0x2",
      "transactionHash": "0x65773dfc3c4eb467b65983109f3a53f28e6c64267784a7d5d13e5d95de3e7c8a",
      "transactionIndex": "0x3",
      "blockHash": "0x8ca41ea0e5a09067f40c7ccb9c721cc7c15f7722ce9c04f692f456424607bb39",
      "blockNumber": "0xf1c03e",
      "gasUsed": "0xa2b3",
      "effectiveGasPrice": "0x5d21dba0f",
      "from": "0xefbbd14082cf2fbcf5badc7ee619f0f4e36d0a5b",
      "to": "0x8120a8e0688be6b2c0bb469f871e5e7023ca85eb",
      "contractAddress": null
    },
    {
      "status": "0x1",
      "cumulativeGasUsed": "0xb1b04",
      "logs": [
        {
          "address": "0x8120a8e0688be6b2c0bb469f871e5e7023ca85eb",
          "topics": [
            "0x9ea6790c7dadfd01c9f8b9762b3682607af2c7e79e05a9f9fdf5580dde949151",
            "0x0000000000000000000000008bbdedecc72ea39bd0e399a21273654143ae10ba",
            "0x0000000000000000000000000000000000000000000000000000000000000001"
          ],
          "data": "0xecf441b700000000000000000000000000000000000000000000000000000000",
          "blockHash": "0x8ca41ea0e5a09067f40c7ccb9c721cc7c15f7722ce9c04f692f456424607bb39",
          "blockNumber": "0xf1c03e",
          "transactionHash": "0xafe2f35880c78e332f90465b5d89458fa83a48c9b124362ff4d872fcbc22c9c9",
          "transactionIndex": "0x4",
          "logIndex": "0x10",
          "removed": false
        },
        {
          "address": "0x0000000000000000000000000000000000001010",
          "topics": [
            "0x4dfe1bbbcf077ddc3e01291eea2d5c70c2b422b415d95645b9adcfd678cb1d63",
            "0x0000000000000000000000000000000000000000000000000000000000001010",
            "0x000000000000000000000000efbbd14082cf2fbcf5badc7ee619f0f4e36d0a5b",
            "0x0000000000000000000000006dc2dd54f24979ec26212794c71afefed722280c"
          ],
          "data": "0x000000000000000000000000000000000000000000000000000515655e358800000000000000000000000000000000000000000000000000f18ea4192ecfc161000000000000000000000000000000000000000000000494091d28ffcbe94561000000000000000000000000000000000000000000000000f1898eb3d09a396100000000000000000000000000000000000000000000049409223e652a1ecd61",
          "blockHash": "0x8ca41ea0e5a09067f40c7ccb9c721cc7c15f7722ce9c04f692f456424607bb39",
          "blockNumber": "0xf1c03e",
          "transactionHash": "0xafe2f35880c78e332f90465b5d89458fa83a48c9b124362ff4d872fcbc22c9c9",
          "transactionIndex": "0x4",
          "logIndex": "0x11",
          "removed": false
        }
      ],
      "logsBloom": "0x00000004000080000000000080000000000000000000000000000000000000000000000000000000000000000000000000008000000000000000000000040000008000000000000000000000000000800000000000040100000100080000000000000000000000000000000000000000000000000000000080000000000000020800002000000000000000000840000000000000000000000000000000000000200000000000000000000000000000000000400000000800008000000000004000000000000000000001000000200000000000000000000000100000000040000000000000000000000000000000000000000000000000000000000000100000",
      "type": "0x2",
      "transactionHash": "0xafe2f35880c78e332f90465b5d89458fa83a48c9b124362ff4d872fcbc22c9c9",
      "transactionIndex": "0x4",
      "blockHash": "0x8ca41ea0e5a09067f40c7ccb9c721cc7c15f7722ce9c04f692f456424607bb39",
      "blockNumber": "0xf1c03e",
      "gasUsed": "0xdf94",
      "effectiveGasPrice": "0x5d21dba0f",
      "from": "0xefbbd14082cf2fbcf5badc7ee619f0f4e36d0a5b",
      "to": "0x8120a8e0688be6b2c0bb469f871e5e7023ca85eb",
      "contractAddress": null
    },
    {
      "status": "0x1",
      "cumulativeGasUsed": "0xbfa98",
      "logs": [
        {
          "address": "0x8120a8e0688be6b2c0bb469f871e5e7023ca85eb",
          "topics": [
            "0x9ea6790c7dadfd01c9f8b9762b3682607af2c7e79e05a9f9fdf5580dde949151",
            "0x000000000000000000000000ab5891221e4a7c96bf32a18bbb3fad34ddbda33f",
            "0x0000000000000000000000000000000000000000000000000000000000000001"
          ],
          "data": "0x69328dec00000000000000000000000000000000000000000000000000000000",
          "blockHash": "0x8ca41ea0e5a09067f40c7ccb9c721cc7c15f7722ce9c04f692f456424607bb39",
          "blockNumber": "0xf1c03e",
          "transactionHash": "0x650c95e3c3bb7dce203f696b98718eac1eb13ad885fc00b812af614e551dab91",
          "transactionIndex": "0x5",
          "logIndex": "0x12",
          "removed": false
        },
        {
          "address": "0x0000000000000000000000000000000000001010",
          "topics": [
            "0x4dfe1bbbcf077ddc3e01291eea2d5c70c2b422b415d95645b9adcfd678cb1d63",
            "0x0000000000000000000000000000000000000000000000000000000000001010",
            "0x000000000000000000000000efbbd14082cf2fbcf5badc7ee619f0f4e36d0a5b",
            "0x0000000000000000000000006dc2dd54f24979ec26212794c71afefed722280c"
          ],
          "data": "0x000000000000000000000000000000000000000000000000000515655e358800000000000000000000000000000000000000000000000000f1898eb3d08d1fb500000000000000000000000000000000000000000000049409223e652a1ecd61000000000000000000000000000000000000000000000000f184794e725797b5000000000000000000000000000000000000000000000494092753ca88545561",
          "blockHash": "0x8ca41ea0e5a09067f40c7ccb9c721cc7c15f7722ce9c04f692f456424607bb39",
          "blockNumber": "0xf1c03e",
          "transactionHash": "0x650c95e3c3bb7dce203f696b98718eac1eb13ad885fc00b812af614e551dab91",
          "transactionIndex": "0x5",
          "logIndex": "0x13",
          "removed": false
        }
      ],
      "logsBloom": "0x00000004000080000000000000000000000000000000000000000000000000000000000000000000000000000000000000008000000000000000000000040000008000000000000000000000000000800040000000040100000100080000000000000000080000000000000000000000000000000000000080000000000000020800000000004000000000000840000000000000000000000000000000000000200000000000000000000000000000000000400000000000008000000000004000000000000000000001000000200000000000000000000000100000000040000000000000000000000000000000000000000000000000000000000000100000",
      "type": "0x2",
      "transactionHash": "0x650c95e3c3bb7dce203f696b98718eac1eb13ad885fc00b812af614e551dab91",
      "transactionIndex": "0x5",
      "blockHash": "0x8ca41ea0e5a09067f40c7ccb9c721cc7c15f7722ce9c04f692f456424607bb39",
      "blockNumber": "0xf1c03e",
      "gasUsed": "0xdf94",
      "effectiveGasPrice": "0x5d21dba0f",
      "from": "0xefbbd14082cf2fbcf5badc7ee619f0f4e36d0a5b",
      "to": "0x8120a8e0688be6b2c0bb469f871e5e7023ca85eb",
      "contractAddress": null
    },
    {
      "status": "0x1",
      "cumulativeGasUsed": "0x8fc28",
      "logs": [
        {
          "address": "0x8120a8e0688be6b2c0bb469f871e5e7023ca85eb",
          "topics": [
            "0x9ea6790c7dadfd01c9f8b9762b3682607af2c7e79e05a9f9fdf5580dde949151",
            "0x00000000000000000000000024c307d602efd1104886c8276524068e166f96ca",
            "0x0000000000000000000000000000000000000000000000000000000000000001"
          ],
          "data": "0x20c5429b00000000000000000000000000000000000000000000000000000000",
          "blockHash": "0xb3ea9c80d4f2b10ec625320320f76329f86401c0ead7520f27c3d254170330ed",
          "blockNumber": "0xf1c03f",
          "transactionHash": "0xfb90ac44a9aafce11b71c87e409b9e112994365231180247da760b55da2ed94f",
          "transactionIndex": "0x4",
          "logIndex": "0xb",
          "removed": false
        },
        {
          "address": "0x8120a8e0688be6b2c0bb469f871e5e7023ca85eb",
          "topics": [
            "0x9ea6790c7dadfd01c9f8b9762b3682607af2c7e79e05a9f9fdf5580dde949151",
            "0x00000000000000000000000024c307d602efd1104886c8276524068e166f96ca",
            "0x0000000000000000000000000000000000000000000000000000000000000001"
          ],
          "data": "0xb8adaa1100000000000000000000000000000000000000000000000000000000",
          "blockHash": "0xb3ea9c80d4f2b10ec625320320f76329f86401c0ead7520f27c3d254170330ed",
          "blockNumber": "0xf1c03f",
          "transactionHash": "0xfb90ac44a9aafce11b71c87e409b9e112994365231180247da760b55da2ed94f",
          "transactionIndex": "0x4",
          "logIndex": "0xc",
          "removed": false
        },
        {
          "address": "0x8120a8e0688be6b2c0bb469f871e5e7023ca85eb",
          "topics": [
            "0x9ea6790c7dadfd01c9f8b9762b3682607af2c7e79e05a9f9fdf5580dde949151",
            "0x00000000000000000000000024c307d602efd1104886c8276524068e166f96ca",
            "0x0000000000000000000000000000000000000000000000000000000000000001"
          ],
          "data": "0xb759f95400000000000000000000000000000000000000000000000000000000",
          "blockHash": "0xb3ea9c80d4f2b10ec625320320f76329f86401c0ead7520f27c3d254170330ed",
          "blockNumber": "0xf1c03f",
          "transactionHash": "0xfb90ac44a9aafce11b71c87e409b9e112994365231180247da760b55da2ed94f",
          "transactionIndex": "0x4",
          "logIndex": "0xd",
          "removed": false
        },
        {
          "address": "0x0000000000000000000000000000000000001010",
          "topics": [
            "0x4dfe1bbbcf077ddc3e01291eea2d5c70c2b422b415d95645b9adcfd678cb1d63",
            "0x0000000000000000000000000000000000000000000000000000000000001010",
            "0x000000000000000000000000efbbd14082cf2fbcf5badc7ee619f0f4e36d0a5b",
            "0x0000000000000000000000006dc2dd54f24979ec26212794c71afefed722280c"
          ],
          "data": "0x000000000000000000000000000000000000000000000000000966b473013000000000000000000000000000000000000000000000000000f184794e724a7e090000000000000000000000000000000000000000000004940957af2879f472e1000000000000000000000000000000000000000000000000f17b1299ff494e09000000000000000000000000000000000000000000000494096115dcecf5a2e1",
          "blockHash": "0xb3ea9c80d4f2b10ec625320320f76329f86401c0ead7520f27c3d254170330ed",
          "blockNumber": "0xf1c03f",
          "transactionHash": "0xfb90ac44a9aafce11b71c87e409b9e112994365231180247da760b55da2ed94f",
          "transactionIndex": "0x4",
          "logIndex": "0xe",
          "removed": false
        }
      ],
      "logsBloom": "0x00000004000080000000000000000000000000000000000000000000000000000000000000000000000000000000000000008000000000400000000000040000008000000000000000000000000000800000000000040100000100080000000000020000000000000000000000000000000000000000000080000000000000020800000000000000000000000840000000000000000000000000000000000000200000000000000000000000000000000000400000000000008000000000004000000000000000000001000001200000000000000000000000100000000040000000000000000000000000000000000000000000000000000000000000100000",
      "type": "0x2",
      "transactionHash": "0xfb90ac44a9aafce11b71c87e409b9e112994365231180247da760b55da2ed94f",
      "transactionIndex": "0x4",
      "blockHash": "0xb3ea9c80d4f2b10ec625320320f76329f86401c0ead7520f27c3d254170330ed",
      "blockNumber": "0xf1c03f",
      "gasUsed": "0x19d78",
      "effectiveGasPrice": "0x5d21dba0f",
      "from": "0xefbbd14082cf2fbcf5badc7ee619f0f4e36d0a5b",
      "to": "0x8120a8e0688be6b2c0bb469f871e5e7023ca85eb",
      "contractAddress": null
    },
    {
      "status": "0x1",
      "cumulativeGasUsed": "0xa99a0",
      "logs": [
        {
          "address": "0x8120a8e0688be6b2c0bb469f871e5e7023ca85eb",
          "topics": [
            "0x9ea6790c7dadfd01c9f8b9762b3682607af2c7e79e05a9f9fdf5580dde949151",
            "0x0000000000000000000000003a9b5b820a7a4ebbe065560f51dc91e57ffb6607",
            "0x0000000000000000000000000000000000000000000000000000000000000001"
          ],
          "data": "0xf6eea09800000000000000000000000000000000000000000000000000000000",
          "blockHash": "0xb3ea9c80d4f2b10ec625320320f76329f86401c0ead7520f27c3d254170330ed",
          "blockNumber": "0xf1c03f",
          "transactionHash": "0x6e81ffe6eb29220bff5df783c047acc62720c4e63ff7b72ea4a213c9b9a10d34",
          "transactionIndex": "0x5",
          "logIndex": "0xf",
          "removed": false
        },
        {
          "address": "0x8120a8e0688be6b2c0bb469f871e5e7023ca85eb",
          "topics": [
            "0x9ea6790c7dadfd01c9f8b9762b3682607af2c7e79e05a9f9fdf5580dde949151",
            "0x0000000000000000000000003a9b5b820a7a4ebbe065560f51dc91e57ffb6607",
            "0x0000000000000000000000000000000000000000000000000000000000000001"
          ],
          "data": "0x74a8f10300000000000000000000000000000000000000000000000000000000",
          "blockHash": "0xb3ea9c80d4f2b10ec625320320f76329f86401c0ead7520f27c3d254170330ed",
          "blockNumber": "0xf1c03f",
          "transactionHash": "0x6e81ffe6eb29220bff5df783c047acc62720c4e63ff7b72ea4a213c9b9a10d34",
          "transactionIndex": "0x5",
          "logIndex": "0x10",
          "removed": false
        },
        {
          "address": "0x8120a8e0688be6b2c0bb469f871e5e7023ca85eb",
          "topics": [
            "0x9ea6790c7dadfd01c9f8b9762b3682607af2c7e79e05a9f9fdf5580dde949151",
            "0x0000000000000000000000003a9b5b820a7a4ebbe065560f51dc91e57ffb6607",
            "0x0000000000000000000000000000000000000000000000000000000000000001"
          ],
          "data": "0xdaea85c500000000000000000000000000000000000000000000000000000000",
          "blockHash": "0xb3ea9c80d4f2b10ec625320320f76329f86401c0ead7520f27c3d254170330ed",
          "blockNumber": "0xf1c03f",
          "transactionHash": "0x6e81ffe6eb29220bff5df783c047acc62720c4e63ff7b72ea4a213c9b9a10d34",
          "transactionIndex": "0x5",
          "logIndex": "0x11",
          "removed": false
        },
        {
          "address": "0x0000000000000000000000000000000000001010",
          "topics": [
            "0x4dfe1bbbcf077ddc3e01291eea2d5c70c2b422b415d95645b9adcfd678cb1d63",
            "0x0000000000000000000000000000000000000000000000000000000000001010",
            "0x000000000000000000000000efbbd14082cf2fbcf5badc7ee619f0f4e36d0a5b",
            "0x0000000000000000000000006dc2dd54f24979ec26212794c71afefed722280c"
          ],
          "data": "0x000000000000000000000000000000000000000000000000000966b473013000000000000000000000000000000000000000000000000000f17b1299ff311401000000000000000000000000000000000000000000000494096115dcecf5a2e1000000000000000000000000000000000000000000000000f171abe58c2fe401000000000000000000000000000000000000000000000494096a7c915ff6d2e1",
          "blockHash": "0xb3ea9c80d4f2b10ec625320320f76329f86401c0ead7520f27c3d254170330ed",
          "blockNumber": "0xf1c03f",
          "transactionHash": "0x6e81ffe6eb29220bff5df783c047acc62720c4e63ff7b72ea4a213c9b9a10d34",
          "transactionIndex": "0x5",
          "logIndex": "0x12",
          "removed": false
        }
      ],
      "logsBloom": "0x00000004000080000000000000000000000000000000000000000000000000000000000000000000000000000000000000008000000000000000000000040000008040000000000000000000000000800000000000040100000100080000000000000000000000000000000000000000000000000000000080000000000000020800000000000000000000000840000000000000000000000000000000000000200000000000000000000000000000000000400000000000008000000000004000000000000000000001000000200000800000000000000000100000000040000000000000000000000000000002000000000000000000000000000000100000",
      "type": "0x2",
      "transactionHash": "0x6e81ffe6eb29220bff5df783c047acc62720c4e63ff7b72ea4a213c9b9a10d34",
      "transactionIndex": "0x5",
      "blockHash": "0xb3ea9c80d4f2b10ec625320320f76329f86401c0ead7520f27c3d254170330ed",
      "blockNumber": "0xf1c03f",
      "gasUsed": "0x19d78",
      "effectiveGasPrice": "0x5d21dba0f",
      "from": "0xefbbd14082cf2fbcf5badc7ee619f0f4e36d0a5b",
      "to": "0x8120a8e0688be6b2c0bb469f871e5e7023ca85eb",
      "contractAddress": null
    },
    {
      "status": "0x1",
      "cumulativeGasUsed": "0xb7e44",
      "logs": [
        {
          "address": "0x8120a8e0688be6b2c0bb469f871e5e7023ca85eb",
          "topics": [
            "0xf98448b987f1428e0e230e1f3c6e2ce15b5693eaf31827fbd0b1ec4b424ae7cf",
            "0x0000000000000000000000000000000000000000000000000000000000000002",
            "0x000000000000000000000000efbbd14082cf2fbcf5badc7ee619f0f4e36d0a5b"
          ],
          "data": "0x00000000000000000000000000000000000000000000000000000000000000000000000000000000000000000000000000000000000000000000000067659bdf0000000000000000000000000000000000000000000000000000000000000001",
          "blockHash": "0xb3ea9c80d4f2b10ec625320320f76329f86401c0ead7520f27c3d254170330ed",
          "blockNumber": "0xf1c03f",
          "transactionHash": "0xf75d716533d0c21c2163bfacff533cd809adcf0e68db72fa3df0ea8ce42a95b9",
          "transactionIndex": "0x6",
          "logIndex": "0x13",
          "removed": false
        },
        {
          "address": "0x0000000000000000000000000000000000001010",
          "topics": [
            "0x4dfe1bbbcf077ddc3e01291eea2d5c70c2b422b415d95645b9adcfd678cb1d63",
            "0x0000000000000000000000000000000000000000000000000000000000001010",
            "0x000000000000000000000000efbbd14082cf2fbcf5badc7ee619f0f4e36d0a5b",
            "0x0000000000000000000000006dc2dd54f24979ec26212794c71afefed722280c"
          ],
          "data": "0x000000000000000000000000000000000000000000000000000532dd14b32800000000000000000000000000000000000000000000000000f171abe58c17a9f9000000000000000000000000000000000000000000000494096a7c915ff6d2e1000000000000000000000000000000000000000000000000f16c7908776481f9000000000000000000000000000000000000000000000494096faf6e74a9fae1",
          "blockHash": "0xb3ea9c80d4f2b10ec625320320f76329f86401c0ead7520f27c3d254170330ed",
          "blockNumber": "0xf1c03f",
          "transactionHash": "0xf75d716533d0c21c2163bfacff533cd809adcf0e68db72fa3df0ea8ce42a95b9",
          "transactionIndex": "0x6",
          "logIndex": "0x14",
          "removed": false
        }
      ],
      "logsBloom": "0x04000000000000000000000000000000000000000000000000000000000000000000000000000000000000000000000000008000000000000000000000000000008000000000000000000000000000800000000000000100000100080000000000000000000000000000000000000000000000000000000080000000000000020800000000000000000000000840000008000000000000000000000000000000200000000000000000002100000000000000400000000008008000000000004000000000000000000001000000000000000000000000000000100000000000000000000000000000000000000000000000000000008000000000000000100000",
      "type": "0x2",
      "transactionHash": "0xf75d716533d0c21c2163bfacff533cd809adcf0e68db72fa3df0ea8ce42a95b9",
      "transactionIndex": "0x6",
      "blockHash": "0xb3ea9c80d4f2b10ec625320320f76329f86401c0ead7520f27c3d254170330ed",
      "blockNumber": "0xf1c03f",
      "gasUsed": "0xe4a4",
      "effectiveGasPrice": "0x5d21dba0f",
      "from": "0xefbbd14082cf2fbcf5badc7ee619f0f4e36d0a5b",
      "to": "0x8120a8e0688be6b2c0bb469f871e5e7023ca85eb",
      "contractAddress": null
    },
    {
      "status": "0x1",
      "cumulativeGasUsed": "0x1908e",
      "logs": [
        {
          "address": "0x8120a8e0688be6b2c0bb469f871e5e7023ca85eb",
          "topics": [
            "0x9ea6790c7dadfd01c9f8b9762b3682607af2c7e79e05a9f9fdf5580dde949151",
            "0x00000000000000000000000020b61a0908d87574bbd2c47bd32af11438c52d9d",
            "0x0000000000000000000000000000000000000000000000000000000000000002"
          ],
          "data": "0xdaea85c500000000000000000000000000000000000000000000000000000000",
          "blockHash": "0xcdaec3d3ff23131076ba4fb65f3d897428a6820f58b16b728afb2bc6f037c14c",
          "blockNumber": "0xf1c040",
          "transactionHash": "0x9ca5b329829528d26f32975bb095abd5f08ba3c5bc16d8bc52b6505d4d0587b1",
          "transactionIndex": "0x1",
          "logIndex": "0x2",
          "removed": false
        },
        {
          "address": "0x8120a8e0688be6b2c0bb469f871e5e7023ca85eb",
          "topics": [
            "0x9ea6790c7dadfd01c9f8b9762b3682607af2c7e79e05a9f9fdf5580dde949151",
            "0x00000000000000000000000020b61a0908d87574bbd2c47bd32af11438c52d9d",
            "0x0000000000000000000000000000000000000000000000000000000000000002"
          ],
          "data": "0xab0da5a900000000000000000000000000000000000000000000000000000000",
          "blockHash": "0xcdaec3d3ff23131076ba4fb65f3d897428a6820f58b16b728afb2bc6f037c14c",
          "blockNumber": "0xf1c040",
          "transactionHash": "0x9ca5b329829528d26f32975bb095abd5f08ba3c5bc16d8bc52b6505d4d0587b1",
          "transactionIndex": "0x1",
          "logIndex": "0x3",
          "removed": false
        },
        {
          "address": "0x0000000000000000000000000000000000001010",
          "topics": [
            "0x4dfe1bbbcf077ddc3e01291eea2d5c70c2b422b415d95645b9adcfd678cb1d63",
            "0x0000000000000000000000000000000000000000000000000000000000001010",
            "0x000000000000000000000000efbbd14082cf2fbcf5badc7ee619f0f4e36d0a5b",
            "0x0000000000000000000000006ab3d36c46ecfb9b9c0bd51cb1c3da5a2c81cea6"
          ],
          "data": "0x00000000000000000000000000000000000000000000000000073e0ce89b5c00000000000000000000000000000000000000000000000000f16c790877571c5d00000000000000000000000000000000000000000000042f23197cec44874653000000000000000000000000000000000000000000000000f1653afb8ebbc05d00000000000000000000000000000000000000000000042f2320baf92d22a253",
          "blockHash": "0xcdaec3d3ff23131076ba4fb65f3d897428a6820f58b16b728afb2bc6f037c14c",
          "blockNumber": "0xf1c040",
          "transactionHash": "0x9ca5b329829528d26f32975bb095abd5f08ba3c5bc16d8bc52b6505d4d0587b1",
          "transactionIndex": "0x1",
          "logIndex": "0x4",
          "removed": false
        }
      ],
      "logsBloom": "0x04000004080080000000000000000000000000000000000000000000000000000000000000000000000000000000000000008000000000000000000000000000008000880000000000000000000000800000000000000100000100000000000000000000000000000000000000000000000000000000000080000000000000000800000000000000000000000800000000000020000000000000000000000000200000000000000000000100000000000000400000000000008000000000004000000000000000000001000000200000000000010000000000100000080000000000000000000000000000000000000000000000008000000000000000100000",
      "type": "0x2",
      "transactionHash": "0x9ca5b329829528d26f32975bb095abd5f08ba3c5bc16d8bc52b6505d4d0587b1",
      "transactionIndex": "0x1",
      "blockHash": "0xcdaec3d3ff23131076ba4fb65f3d897428a6820f58b16b728afb2bc6f037c14c",
      "blockNumber": "0xf1c040",
      "gasUsed": "0x13e86",
      "effectiveGasPrice": "0x5d21dba0f",
      "from": "0xefbbd14082cf2fbcf5badc7ee619f0f4e36d0a5b",
      "to": "0x8120a8e0688be6b2c0bb469f871e5e7023ca85eb",
      "contractAddress": null
    },
    {
      "status": "0x1",
      "cumulativeGasUsed": "0x27532",
      "logs": [
        {
          "address": "0x8120a8e0688be6b2c0bb469f871e5e7023ca85eb",
          "topics": [
            "0xf98448b987f1428e0e230e1f3c6e2ce15b5693eaf31827fbd0b1ec4b424ae7cf",
            "0x0000000000000000000000000000000000000000000000000000000000000004",
            "0x0000000000000000000000006432e643e2c12dd3a72ee92c6d1e72bf8dd1aeb6"
          ],
          "data": "0x00000000000000000000000000000000000000000000000000000000000000000000000000000000000000000000000000000000000000000000000067659be30000000000000000000000000000000000000000000000000000000000000001",
          "blockHash": "0xcdaec3d3ff23131076ba4fb65f3d897428a6820f58b16b728afb2bc6f037c14c",
          "blockNumber": "0xf1c040",
          "transactionHash": "0x1d2ff8573e2b84253f662cb6bc8a5c76704f08d6ebff3edcf2d415df387abb4f",
          "transactionIndex": "0x2",
          "logIndex": "0x5",
          "removed": false
        },
        {
          "address": "0x0000000000000000000000000000000000001010",
          "topics": [
            "0x4dfe1bbbcf077ddc3e01291eea2d5c70c2b422b415d95645b9adcfd678cb1d63",
            "0x0000000000000000000000000000000000000000000000000000000000001010",
            "0x000000000000000000000000efbbd14082cf2fbcf5badc7ee619f0f4e36d0a5b",
            "0x0000000000000000000000006ab3d36c46ecfb9b9c0bd51cb1c3da5a2c81cea6"
          ],
          "data": "0x000000000000000000000000000000000000000000000000000532dd14b32800000000000000000000000000000000000000000000000000f1653afb8ea9168300000000000000000000000000000000000000000000042f2320baf92d22a253000000000000000000000000000000000000000000000000f160081e79f5ee8300000000000000000000000000000000000000000000042f2325edd641d5ca53",
          "blockHash": "0xcdaec3d3ff23131076ba4fb65f3d897428a6820f58b16b728afb2bc6f037c14c",
          "blockNumber": "0xf1c040",
          "transactionHash": "0x1d2ff8573e2b84253f662cb6bc8a5c76704f08d6ebff3edcf2d415df387abb4f",
          "transactionIndex": "0x2",
          "logIndex": "0x6",
          "removed": false
        }
      ],
      "logsBloom": "0x0000000208000000000000000000000000001000000000000000000000000000000000000000000000000000000000000000800000000000000000000000000000800008000000000000000000000080000000000000010000010000000000000800000000000000100000000000000000000000000000008000000000000000080000000000000000000000080000000800000000000000000000000000000020000000000000000000200000000000000040000000000800a000000000004000000000000000000001000000000000000000018000000000100000000000000000000000000000000000000000000000000000000000000000000000100000",
      "type": "0x2",
      "transactionHash": "0x1d2ff8573e2b84253f662cb6bc8a5c76704f08d6ebff3edcf2d415df387abb4f",
      "transactionIndex": "0x2",
      "blockHash": "0xcdaec3d3ff23131076ba4fb65f3d897428a6820f58b16b728afb2bc6f037c14c",
      "blockNumber": "0xf1c040",
      "gasUsed": "0xe4a4",
      "effectiveGasPrice": "0x5d21dba0f",
      "from": "0xefbbd14082cf2fbcf5badc7ee619f0f4e36d0a5b",
      "to": "0x8120a8e0688be6b2c0bb469f871e5e7023ca85eb",
      "contractAddress": null
    },
    {
      "status": "0x1",
      "cumulativeGasUsed": "0x359d6",
      "logs": [
        {
          "address": "0x8120a8e0688be6b2c0bb469f871e5e7023ca85eb",
          "topics": [
            "0xf98448b987f1428e0e230e1f3c6e2ce15b5693eaf31827fbd0b1ec4b424ae7cf",
            "0x0000000000000000000000000000000000000000000000000000000000000004",
            "0x00000000000000000000000080c21ddde0fdc8485e48b2f9981f5ed2bd76c2f0"
          ],
          "data": "0x00000000000000000000000000000000000000000000000000000000000000000000000000000000000000000000000000000000000000000000000067659be30000000000000000000000000000000000000000000000000000000000000001",
          "blockHash": "0xcdaec3d3ff23131076ba4fb65f3d897428a6820f58b16b728afb2bc6f037c14c",
          "blockNumber": "0xf1c040",
          "transactionHash": "0xec95aef1f72ce787b1986bae602ccce6b38a445ff45b2bdb206a9253938408c1",
          "transactionIndex": "0x3",
          "logIndex": "0x7",
          "removed": false
        },
        {
          "address": "0x0000000000000000000000000000000000001010",
          "topics": [
            "0x4dfe1bbbcf077ddc3e01291eea2d5c70c2b422b415d95645b9adcfd678cb1d63",
            "0x0000000000000000000000000000000000000000000000000000000000001010",
            "0x000000000000000000000000efbbd14082cf2fbcf5badc7ee619f0f4e36d0a5b",
            "0x0000000000000000000000006ab3d36c46ecfb9b9c0bd51cb1c3da5a2c81cea6"
          ],
          "data": "0x000000000000000000000000000000000000000000000000000532dd14b32800000000000000000000000000000000000000000000000000f160081e79e888e700000000000000000000000000000000000000000000042f2325edd641d5ca53000000000000000000000000000000000000000000000000f15ad541653560e700000000000000000000000000000000000000000000042f232b20b35688f253",
          "blockHash": "0xcdaec3d3ff23131076ba4fb65f3d897428a6820f58b16b728afb2bc6f037c14c",
          "blockNumber": "0xf1c040",
          "transactionHash": "0xec95aef1f72ce787b1986bae602ccce6b38a445ff45b2bdb206a9253938408c1",
          "transactionIndex": "0x3",
          "logIndex": "0x8",
          "removed": false
        }
      ],
      "logsBloom": "0x0000000008000000000000000000000000000000000000000000002000000000000000000000000000000000000000000000800000000000000000000000000000800008100000000000000000000080000000000000010000010000000000000800000000000000000000000000000000000000000000008000000000000000080000000800000000000000080000000800000000000000000000000000000020000000000000000000200000000000000040000000000800a000000000004000000000000000000001000000000000000000018000000000100000000000000000000000000000000000000000000000000000000000000000000000100000",
      "type": "0x2",
      "transactionHash": "0xec95aef1f72ce787b1986bae602ccce6b38a445ff45b2bdb206a9253938408c1",
      "transactionIndex": "0x3",
      "blockHash": "0xcdaec3d3ff23131076ba4fb65f3d897428a6820f58b16b728afb2bc6f037c14c",
      "blockNumber": "0xf1c040",
      "gasUsed": "0xe4a4",
      "effectiveGasPrice": "0x5d21dba0f",
      "from": "0xefbbd14082cf2fbcf5badc7ee619f0f4e36d0a5b",
      "to": "0x8120a8e0688be6b2c0bb469f871e5e7023ca85eb",
      "contractAddress": null
    },
    {
      "status": "0x1",
      "cumulativeGasUsed": "0x4f74e",
      "logs": [
        {
          "address": "0x8120a8e0688be6b2c0bb469f871e5e7023ca85eb",
          "topics": [
            "0x9ea6790c7dadfd01c9f8b9762b3682607af2c7e79e05a9f9fdf5580dde949151",
            "0x000000000000000000000000466aea1c8475293be76eb682c553f9e8871b2502",
            "0x0000000000000000000000000000000000000000000000000000000000000004"
          ],
          "data": "0x4bbc170a00000000000000000000000000000000000000000000000000000000",
          "blockHash": "0xcdaec3d3ff23131076ba4fb65f3d897428a6820f58b16b728afb2bc6f037c14c",
          "blockNumber": "0xf1c040",
          "transactionHash": "0xf7be4a5170b8cd04bd9c871a35b7ffc1225cb07a2cde9b1cc73a4a5b550de4fa",
          "transactionIndex": "0x4",
          "logIndex": "0x9",
          "removed": false
        },
        {
          "address": "0x8120a8e0688be6b2c0bb469f871e5e7023ca85eb",
          "topics": [
            "0x9ea6790c7dadfd01c9f8b9762b3682607af2c7e79e05a9f9fdf5580dde949151",
            "0x000000000000000000000000466aea1c8475293be76eb682c553f9e8871b2502",
            "0x0000000000000000000000000000000000000000000000000000000000000004"
          ],
          "data": "0x15f4150100000000000000000000000000000000000000000000000000000000",
          "blockHash": "0xcdaec3d3ff23131076ba4fb65f3d897428a6820f58b16b728afb2bc6f037c14c",
          "blockNumber": "0xf1c040",
          "transactionHash": "0xf7be4a5170b8cd04bd9c871a35b7ffc1225cb07a2cde9b1cc73a4a5b550de4fa",
          "transactionIndex": "0x4",
          "logIndex": "0xa",
          "removed": false
        },
        {
          "address": "0x8120a8e0688be6b2c0bb469f871e5e7023ca85eb",
          "topics": [
            "0x9ea6790c7dadfd01c9f8b9762b3682607af2c7e79e05a9f9fdf5580dde949151",
            "0x000000000000000000000000466aea1c8475293be76eb682c553f9e8871b2502",
            "0x0000000000000000000000000000000000000000000000000000000000000004"
          ],
          "data": "0x9e96a26000000000000000000000000000000000000000000000000000000000",
          "blockHash": "0xcdaec3d3ff23131076ba4fb65f3d897428a6820f58b16b728afb2bc6f037c14c",
          "blockNumber": "0xf1c040",
          "transactionHash": "0xf7be4a5170b8cd04bd9c871a35b7ffc1225cb07a2cde9b1cc73a4a5b550de4fa",
          "transactionIndex": "0x4",
          "logIndex": "0xb",
          "removed": false
        },
        {
          "address": "0x0000000000000000000000000000000000001010",
          "topics": [
            "0x4dfe1bbbcf077ddc3e01291eea2d5c70c2b422b415d95645b9adcfd678cb1d63",
            "0x0000000000000000000000000000000000000000000000000000000000001010",
            "0x000000000000000000000000efbbd14082cf2fbcf5badc7ee619f0f4e36d0a5b",
            "0x0000000000000000000000006ab3d36c46ecfb9b9c0bd51cb1c3da5a2c81cea6"
          ],
          "data": "0x000000000000000000000000000000000000000000000000000966b473013000000000000000000000000000000000000000000000000000f15ad5416527fb4b00000000000000000000000000000000000000000000042f232b20b35688f253000000000000000000000000000000000000000000000000f1516e8cf226cb4b00000000000000000000000000000000000000000000042f23348767c98a2253",
          "blockHash": "0xcdaec3d3ff23131076ba4fb65f3d897428a6820f58b16b728afb2bc6f037c14c",
          "blockNumber": "0xf1c040",
          "transactionHash": "0xf7be4a5170b8cd04bd9c871a35b7ffc1225cb07a2cde9b1cc73a4a5b550de4fa",
          "transactionIndex": "0x4",
          "logIndex": "0xc",
          "removed": false
        }
      ],
      "logsBloom": "0x0000000408008000040000000000000000000000000000000000000000000000000000000000000000000000000000000000800000001000000000000000000000800008000000000000000000000080000000000000010000010000000000000800000040000000000000000000000000000000000000008000000000000000080000000000000000000000080000000000000000000000000000000000000020000000000000000000000000000000000040000000000000a000000000004000000000000000000001000000200000000000018000000000100000000000000000000000000000000000000000000000000000000000000000000000100000",
      "type": "0x2",
      "transactionHash": "0xf7be4a5170b8cd04bd9c871a35b7ffc1225cb07a2cde9b1cc73a4a5b550de4fa",
      "transactionIndex": "0x4",
      "blockHash": "0xcdaec3d3ff23131076ba4fb65f3d897428a6820f58b16b728afb2bc6f037c14c",
      "blockNumber": "0xf1c040",
      "gasUsed": "0x19d78",
      "effectiveGasPrice": "0x5d21dba0f",
      "from": "0xefbbd14082cf2fbcf5badc7ee619f0f4e36d0a5b",
      "to": "0x8120a8e0688be6b2c0bb469f871e5e7023ca85eb",
      "contractAddress": null
    },
    {
      "status": "0x1",
      "cumulativeGasUsed": "0x70d31",
      "logs": [
        {
          "address": "0x8bbdedecc72ea39bd0e399a21273654143ae10ba",
          "topics": [
            "0xfbbd6e9cc51f124b05f08f20e9aef57fb26fc9a927be06212c59506610581335",
            "0x0000000000000000000000003c7deb6feaeb7a82bde580fb73d8d69c401b219e",
            "0x000000000000000000000000efbbd14082cf2fbcf5badc7ee619f0f4e36d0a5b"
          ],
          "data": "0x00000000000000000000000000000000000000000000000000000000000001f40000000000000000000000000000000000000000000000000000000000000002",
          "blockHash": "0xcdaec3d3ff23131076ba4fb65f3d897428a6820f58b16b728afb2bc6f037c14c",
          "blockNumber": "0xf1c040",
          "transactionHash": "0x2d843ff4d5c07ee16eed2d8332bd0e1c163dc1fc7ddb33d5dba0f22620a6c4df",
          "transactionIndex": "0x5",
          "logIndex": "0xd",
          "removed": false
        },
        {
          "address": "0x0000000000000000000000000000000000001010",
          "topics": [
            "0x4dfe1bbbcf077ddc3e01291eea2d5c70c2b422b415d95645b9adcfd678cb1d63",
            "0x0000000000000000000000000000000000000000000000000000000000001010",
            "0x000000000000000000000000efbbd14082cf2fbcf5badc7ee619f0f4e36d0a5b",
            "0x0000000000000000000000006ab3d36c46ecfb9b9c0bd51cb1c3da5a2c81cea6"
          ],
          "data": "0x000000000000000000000000000000000000000000000000000c23a1349dee00000000000000000000000000000000000000000000000000f1516e8cf20e914300000000000000000000000000000000000000000000042f23348767c98a2253000000000000000000000000000000000000000000000000f1454aebbd70a34300000000000000000000000000000000000000000000042f2340ab08fe281053",
          "blockHash": "0xcdaec3d3ff23131076ba4fb65f3d897428a6820f58b16b728afb2bc6f037c14c",
          "blockNumber": "0xf1c040",
          "transactionHash": "0x2d843ff4d5c07ee16eed2d8332bd0e1c163dc1fc7ddb33d5dba0f22620a6c4df",
          "transactionIndex": "0x5",
          "logIndex": "0xe",
          "removed": false
        }
      ],
      "logsBloom": "0x00000000080000000000800000000000000000000000000000800000000000000000000000000000000000002000800000008000000000000000000000000000008000080000000000000000000000800000000000000020000100000000000000001000000000400000000000000000000000000000000080000000004000000800000000000000000000000000000000000000000000000000000000000000200000000000000000000000000000000000400000000000000000000000004000000000000002000001000000000000000000010000000000100000000000000000000000000000000000000000000000000000000000000000000000100000",
      "type": "0x2",
      "transactionHash": "0x2d843ff4d5c07ee16eed2d8332bd0e1c163dc1fc7ddb33d5dba0f22620a6c4df",
      "transactionIndex": "0x5",
      "blockHash": "0xcdaec3d3ff23131076ba4fb65f3d897428a6820f58b16b728afb2bc6f037c14c",
      "blockNumber": "0xf1c040",
      "gasUsed": "0x215e3",
      "effectiveGasPrice": "0x5d21dba0f",
      "from": "0xefbbd14082cf2fbcf5badc7ee619f0f4e36d0a5b",
      "to": "0x8bbdedecc72ea39bd0e399a21273654143ae10ba",
      "contractAddress": null
    },
    {
      "status": "0x1",
      "cumulativeGasUsed": "0x92339",
      "logs": [
        {
          "address": "0x8bbdedecc72ea39bd0e399a21273654143ae10ba",
          "topics": [
            "0xfbbd6e9cc51f124b05f08f20e9aef57fb26fc9a927be06212c59506610581335",
            "0x0000000000000000000000003c7deb6feaeb7a82bde580fb73d8d69c401b219e",
            "0x000000000000000000000000efbbd14082cf2fbcf5badc7ee619f0f4e36d0a5b"
          ],
          "data": "0x0000000000000000000000000000000000000000000000056bc75e2d631000000000000000000000000000000000000000000000000000000000000000000001",
          "blockHash": "0xcdaec3d3ff23131076ba4fb65f3d897428a6820f58b16b728afb2bc6f037c14c",
          "blockNumber": "0xf1c040",
          "transactionHash": "0x82353287a67ff00d93beaac2bf61f162ec5ea05d34f71f8196c66fb9050a5f87",
          "transactionIndex": "0x6",
          "logIndex": "0xf",
          "removed": false
        },
        {
          "address": "0x0000000000000000000000000000000000001010",
          "topics": [
            "0x4dfe1bbbcf077ddc3e01291eea2d5c70c2b422b415d95645b9adcfd678cb1d63",
            "0x0000000000000000000000000000000000000000000000000000000000001010",
            "0x000000000000000000000000efbbd14082cf2fbcf5badc7ee619f0f4e36d0a5b",
            "0x0000000000000000000000006ab3d36c46ecfb9b9c0bd51cb1c3da5a2c81cea6"
          ],
          "data": "0x000000000000000000000000000000000000000000000000000c247892e9d000000000000000000000000000000000000000000000000000f1454aebbd515af600000000000000000000000000000000000000000000042f2340ab08fe281053000000000000000000000000000000000000000000000000f13926732a678af600000000000000000000000000000000000000000000042f234ccf819111e053",
          "blockHash": "0xcdaec3d3ff23131076ba4fb65f3d897428a6820f58b16b728afb2bc6f037c14c",
          "blockNumber": "0xf1c040",
          "transactionHash": "0x82353287a67ff00d93beaac2bf61f162ec5ea05d34f71f8196c66fb9050a5f87",
          "transactionIndex": "0x6",
          "logIndex": "0x10",
          "removed": false
        }
      ],
      "logsBloom": "0x00000000080000000000800000000000000000000000000000800000000000000000000000000000000000002000800000008000000000000000000000000000008000080000000000000000000000800000000000000020000100000000000000001000000000400000000000000000000000000000000080000000004000000800000000000000000000000000000000000000000000000000000000000000200000000000000000000000000000000000400000000000000000000000004000000000000002000001000000000000000000010000000000100000000000000000000000000000000000000000000000000000000000000000000000100000",
      "type": "0x2",
      "transactionHash": "0x82353287a67ff00d93beaac2bf61f162ec5ea05d34f71f8196c66fb9050a5f87",
      "transactionIndex": "0x6",
      "blockHash": "0xcdaec3d3ff23131076ba4fb65f3d897428a6820f58b16b728afb2bc6f037c14c",
      "blockNumber": "0xf1c040",
      "gasUsed": "0x21608",
      "effectiveGasPrice": "0x5d21dba0f",
      "from": "0xefbbd14082cf2fbcf5badc7ee619f0f4e36d0a5b",
      "to": "0x8bbdedecc72ea39bd0e399a21273654143ae10ba",
      "contractAddress": null
    }
  ],
  "libraries": [],
  "pending": [],
  "returns": {},
  "timestamp": 1734712292,
  "chain": 80002,
  "commit": "66cd11d"
}