{
  "transactions": [
    {
      "hash": "0xa42079f6431d56ad95dc12a32174bfe6a2be330b13dd84d240d64858d57c223d",
      "transactionType": "CALL",
      "contractName": null,
      "contractAddress": "0x0ea49df2376393719f67e039923ef75e1767e9ee",
      "function": "grantRole(uint64,address,uint32)",
      "arguments": [
        "1",
        "0xEFBBD14082cF2FbCf5Badc7ee619F0f4e36D0A5B",
        "0"
      ],
      "transaction": {
        "from": "0xefbbd14082cf2fbcf5badc7ee619f0f4e36d0a5b",
        "to": "0x0ea49df2376393719f67e039923ef75e1767e9ee",
        "gas": "0xedf2",
        "value": "0x0",
        "input": "0x25c471a00000000000000000000000000000000000000000000000000000000000000001000000000000000000000000efbbd14082cf2fbcf5badc7ee619f0f4e36d0a5b0000000000000000000000000000000000000000000000000000000000000000",
        "nonce": "0x2c3",
        "chainId": "0x13882"
      },
      "additionalContracts": [],
      "isFixedGasLimit": false
    },
    {
      "hash": "0x594b1bbc296b619d66b8b60801afff4fe5ba0a00ddb3293359a7b970be42b6a6",
      "transactionType": "CALL",
      "contractName": null,
      "contractAddress": "0x0ea49df2376393719f67e039923ef75e1767e9ee",
      "function": "setTargetFunctionRole(address,bytes4[],uint64)",
      "arguments": [
        "0xc29A74692C9B2e60FA088164d5F3EE933C3B2236",
        "[0xecf441b7]",
        "1"
      ],
      "transaction": {
        "from": "0xefbbd14082cf2fbcf5badc7ee619f0f4e36d0a5b",
        "to": "0x0ea49df2376393719f67e039923ef75e1767e9ee",
        "gas": "0xc971",
        "value": "0x0",
        "input": "0x08d6122d000000000000000000000000c29a74692c9b2e60fa088164d5f3ee933c3b2236000000000000000000000000000000000000000000000000000000000000006000000000000000000000000000000000000000000000000000000000000000010000000000000000000000000000000000000000000000000000000000000001ecf441b700000000000000000000000000000000000000000000000000000000",
        "nonce": "0x2c4",
        "chainId": "0x13882"
      },
      "additionalContracts": [],
      "isFixedGasLimit": false
    },
    {
      "hash": "0xb2e43be36eb3eeeaa7b9c58c55d116b5db5e72fb0998aad3293af385f2beb809",
      "transactionType": "CALL",
      "contractName": null,
      "contractAddress": "0x0ea49df2376393719f67e039923ef75e1767e9ee",
      "function": "setTargetFunctionRole(address,bytes4[],uint64)",
      "arguments": [
        "0xe20bA93d9DB6590746013cfe5f6a32312a0b0280",
        "[0x06af20da]",
        "1"
      ],
      "transaction": {
        "from": "0xefbbd14082cf2fbcf5badc7ee619f0f4e36d0a5b",
        "to": "0x0ea49df2376393719f67e039923ef75e1767e9ee",
        "gas": "0xc971",
        "value": "0x0",
        "input": "0x08d6122d000000000000000000000000e20ba93d9db6590746013cfe5f6a32312a0b028000000000000000000000000000000000000000000000000000000000000000600000000000000000000000000000000000000000000000000000000000000001000000000000000000000000000000000000000000000000000000000000000106af20da00000000000000000000000000000000000000000000000000000000",
        "nonce": "0x2c5",
        "chainId": "0x13882"
      },
      "additionalContracts": [],
      "isFixedGasLimit": false
    },
    {
      "hash": "0xdd7dbb4e3cec65bedd30fca03ab3c5920b517050908ade6aaab5566e6d145f17",
      "transactionType": "CALL",
      "contractName": null,
      "contractAddress": "0x0ea49df2376393719f67e039923ef75e1767e9ee",
      "function": "setTargetFunctionRole(address,bytes4[],uint64)",
      "arguments": [
        "0x80Ba937A405A1fA5e9f22906DeC7fF2F091b2C7C",
        "[0xdaea85c5, 0xab0da5a9]",
        "1"
      ],
      "transaction": {
        "from": "0xefbbd14082cf2fbcf5badc7ee619f0f4e36d0a5b",
        "to": "0x0ea49df2376393719f67e039923ef75e1767e9ee",
        "gas": "0xe137",
        "value": "0x0",
        "input": "0x08d6122d00000000000000000000000080ba937a405a1fa5e9f22906dec7ff2f091b2c7c000000000000000000000000000000000000000000000000000000000000006000000000000000000000000000000000000000000000000000000000000000010000000000000000000000000000000000000000000000000000000000000002daea85c500000000000000000000000000000000000000000000000000000000ab0da5a900000000000000000000000000000000000000000000000000000000",
        "nonce": "0x2c6",
        "chainId": "0x13882"
      },
      "additionalContracts": [],
      "isFixedGasLimit": false
    },
    {
      "hash": "0x133a81180346a57ac9f41292a6b46dd932c1603f5b1e165811eabf20f50e8e43",
      "transactionType": "CALL",
      "contractName": null,
      "contractAddress": "0x0ea49df2376393719f67e039923ef75e1767e9ee",
      "function": "setTargetFunctionRole(address,bytes4[],uint64)",
      "arguments": [
        "0xE3dFE3B891B850B8682a1f249e8010A7cC1fC79b",
        "[0x20c5429b, 0xb8adaa11, 0xb759f954]",
        "1"
      ],
      "transaction": {
        "from": "0xefbbd14082cf2fbcf5badc7ee619f0f4e36d0a5b",
        "to": "0x0ea49df2376393719f67e039923ef75e1767e9ee",
        "gas": "0xf8fd",
        "value": "0x0",
        "input": "0x08d6122d000000000000000000000000e3dfe3b891b850b8682a1f249e8010a7cc1fc79b00000000000000000000000000000000000000000000000000000000000000600000000000000000000000000000000000000000000000000000000000000001000000000000000000000000000000000000000000000000000000000000000320c5429b00000000000000000000000000000000000000000000000000000000b8adaa1100000000000000000000000000000000000000000000000000000000b759f95400000000000000000000000000000000000000000000000000000000",
        "nonce": "0x2c7",
        "chainId": "0x13882"
      },
      "additionalContracts": [],
      "isFixedGasLimit": false
    },
    {
      "hash": "0x88066a60eddda1cde7a6db15bc82d472e11edecb4d1f2f379aded3473ccb9f0a",
      "transactionType": "CALL",
      "contractName": null,
      "contractAddress": "0x0ea49df2376393719f67e039923ef75e1767e9ee",
      "function": "setTargetFunctionRole(address,bytes4[],uint64)",
      "arguments": [
        "0xC44654946a32a42Cd7fD6AFA02DD0F5857865830",
        "[0xf6eea098, 0x74a8f103, 0xdaea85c5]",
        "1"
      ],
      "transaction": {
        "from": "0xefbbd14082cf2fbcf5badc7ee619f0f4e36d0a5b",
        "to": "0x0ea49df2376393719f67e039923ef75e1767e9ee",
        "gas": "0xf8fd",
        "value": "0x0",
        "input": "0x08d6122d000000000000000000000000c44654946a32a42cd7fd6afa02dd0f5857865830000000000000000000000000000000000000000000000000000000000000006000000000000000000000000000000000000000000000000000000000000000010000000000000000000000000000000000000000000000000000000000000003f6eea0980000000000000000000000000000000000000000000000000000000074a8f10300000000000000000000000000000000000000000000000000000000daea85c500000000000000000000000000000000000000000000000000000000",
        "nonce": "0x2c8",
        "chainId": "0x13882"
      },
      "additionalContracts": [],
      "isFixedGasLimit": false
    },
    {
      "hash": "0xd7b9654975a8b73f6446a3446a839fabefaaa855e8e82b13f16518fe9d1c0db0",
      "transactionType": "CALL",
      "contractName": null,
      "contractAddress": "0xc29a74692c9b2e60fa088164d5f3ee933c3b2236",
      "function": "setFees(uint8,uint256,address)",
      "arguments": [
        "2",
        "500",
        "0xdC2E7C4444730980CEB8982CfC8A1c4902fa36bE"
      ],
      "transaction": {
        "from": "0xefbbd14082cf2fbcf5badc7ee619f0f4e36d0a5b",
        "to": "0xc29a74692c9b2e60fa088164d5f3ee933c3b2236",
        "gas": "0x12aaf",
        "value": "0x0",
        "input": "0xecf441b7000000000000000000000000000000000000000000000000000000000000000200000000000000000000000000000000000000000000000000000000000001f4000000000000000000000000dc2e7c4444730980ceb8982cfc8a1c4902fa36be",
        "nonce": "0x2c9",
        "chainId": "0x13882"
      },
      "additionalContracts": [],
      "isFixedGasLimit": false
    },
    {
      "hash": "0x877d2f59f837d4f6e00e6a426550b10ecb1d68d7633d9133318815914873a2d2",
      "transactionType": "CALL",
      "contractName": null,
      "contractAddress": "0xc29a74692c9b2e60fa088164d5f3ee933c3b2236",
      "function": "setFees(uint8,uint256,address)",
      "arguments": [
        "1",
        "100000000000000000000",
        "0xdC2E7C4444730980CEB8982CfC8A1c4902fa36bE"
      ],
      "transaction": {
        "from": "0xefbbd14082cf2fbcf5badc7ee619f0f4e36d0a5b",
        "to": "0xc29a74692c9b2e60fa088164d5f3ee933c3b2236",
        "gas": "0x11a4b",
        "value": "0x0",
        "input": "0xecf441b700000000000000000000000000000000000000000000000000000000000000010000000000000000000000000000000000000000000000056bc75e2d63100000000000000000000000000000dc2e7c4444730980ceb8982cfc8a1c4902fa36be",
        "nonce": "0x2ca",
        "chainId": "0x13882"
      },
      "additionalContracts": [],
      "isFixedGasLimit": false
    }
  ],
  "receipts": [
    {
      "status": "0x1",
      "cumulativeGasUsed": "0xa2b3",
      "logs": [
        {
          "address": "0x0ea49df2376393719f67e039923ef75e1767e9ee",
          "topics": [
            "0xf98448b987f1428e0e230e1f3c6e2ce15b5693eaf31827fbd0b1ec4b424ae7cf",
            "0x0000000000000000000000000000000000000000000000000000000000000001",
            "0x000000000000000000000000efbbd14082cf2fbcf5badc7ee619f0f4e36d0a5b"
          ],
          "data": "0x000000000000000000000000000000000000000000000000000000000000000000000000000000000000000000000000000000000000000000000000673397940000000000000000000000000000000000000000000000000000000000000000",
          "blockHash": "0x6f77364a324b24d291b01944bcabf8acb5b692e7b31c9aad3535fcbdafc0f71c",
          "blockNumber": "0xdae2b1",
          "transactionHash": "0xa42079f6431d56ad95dc12a32174bfe6a2be330b13dd84d240d64858d57c223d",
          "transactionIndex": "0x0",
          "logIndex": "0x0",
          "removed": false
        },
        {
          "address": "0x0000000000000000000000000000000000001010",
          "topics": [
            "0x4dfe1bbbcf077ddc3e01291eea2d5c70c2b422b415d95645b9adcfd678cb1d63",
            "0x0000000000000000000000000000000000000000000000000000000000001010",
            "0x000000000000000000000000efbbd14082cf2fbcf5badc7ee619f0f4e36d0a5b",
            "0x000000000000000000000000915a2284d28bd93de7d6f31173b981204bb666e6"
          ],
          "data": "0x0000000000000000000000000000000000000000000000000006074969355a830000000000000000000000000000000000000000000000001d06e756d7c49ebd0000000000000000000000000000000000000000000004dbf48edf935778f8590000000000000000000000000000000000000000000000001d00e00d6e8f443a0000000000000000000000000000000000000000000004dbf494e6dcc0ae52dc",
          "blockHash": "0x6f77364a324b24d291b01944bcabf8acb5b692e7b31c9aad3535fcbdafc0f71c",
          "blockNumber": "0xdae2b1",
          "transactionHash": "0xa42079f6431d56ad95dc12a32174bfe6a2be330b13dd84d240d64858d57c223d",
          "transactionIndex": "0x0",
          "logIndex": "0x1",
          "removed": false
        }
      ],
      "logsBloom": "0x00000000000000000010000000000000000000000000000000000000000000000000000000100000000000000000000000008000000000000000000000040000008000000000000000000000000000800000000000040000000100000000000000000000000000000000000000000000000000000000000080000000000000000800000000000000000000000000000008000000000000000000000000000000200002000000000000002000000000000000400000000008000000000000004000000000040000000001000000000000000002000000000000100000000040000000000000000000000000000000000000000000400000000000000000100000",
      "type": "0x2",
      "transactionHash": "0xa42079f6431d56ad95dc12a32174bfe6a2be330b13dd84d240d64858d57c223d",
      "transactionIndex": "0x0",
      "blockHash": "0x6f77364a324b24d291b01944bcabf8acb5b692e7b31c9aad3535fcbdafc0f71c",
      "blockNumber": "0xdae2b1",
      "gasUsed": "0xa2b3",
      "effectiveGasPrice": "0x97c4b1100",
      "from": "0xefbbd14082cf2fbcf5badc7ee619f0f4e36d0a5b",
      "to": "0x0ea49df2376393719f67e039923ef75e1767e9ee",
      "contractAddress": null
    },
    {
      "status": "0x1",
      "cumulativeGasUsed": "0x1348b",
      "logs": [
        {
          "address": "0x0ea49df2376393719f67e039923ef75e1767e9ee",
          "topics": [
            "0x9ea6790c7dadfd01c9f8b9762b3682607af2c7e79e05a9f9fdf5580dde949151",
            "0x000000000000000000000000c29a74692c9b2e60fa088164d5f3ee933c3b2236",
            "0x0000000000000000000000000000000000000000000000000000000000000001"
          ],
          "data": "0xecf441b700000000000000000000000000000000000000000000000000000000",
          "blockHash": "0x6f77364a324b24d291b01944bcabf8acb5b692e7b31c9aad3535fcbdafc0f71c",
          "blockNumber": "0xdae2b1",
          "transactionHash": "0x594b1bbc296b619d66b8b60801afff4fe5ba0a00ddb3293359a7b970be42b6a6",
          "transactionIndex": "0x1",
          "logIndex": "0x2",
          "removed": false
        },
        {
          "address": "0x0000000000000000000000000000000000001010",
          "topics": [
            "0x4dfe1bbbcf077ddc3e01291eea2d5c70c2b422b415d95645b9adcfd678cb1d63",
            "0x0000000000000000000000000000000000000000000000000000000000001010",
            "0x000000000000000000000000efbbd14082cf2fbcf5badc7ee619f0f4e36d0a5b",
            "0x000000000000000000000000915a2284d28bd93de7d6f31173b981204bb666e6"
          ],
          "data": "0x0000000000000000000000000000000000000000000000000005676763eecc580000000000000000000000000000000000000000000000001d00e00d6e85bbbd0000000000000000000000000000000000000000000004dbf494e6dcc0ae52dc0000000000000000000000000000000000000000000000001cfb78a60a96ef650000000000000000000000000000000000000000000004dbf49a4e44249d1f34",
          "blockHash": "0x6f77364a324b24d291b01944bcabf8acb5b692e7b31c9aad3535fcbdafc0f71c",
          "blockNumber": "0xdae2b1",
          "transactionHash": "0x594b1bbc296b619d66b8b60801afff4fe5ba0a00ddb3293359a7b970be42b6a6",
          "transactionIndex": "0x1",
          "logIndex": "0x3",
          "removed": false
        }
      ],
      "logsBloom": "0x00000004000080000010000000000000000000000000000000000000000000000000000000100000000000000000000000008000000000000000000000040000008000000000000000000000000000800000000000040000000100000000000000000000000000008000000000000000000000000000000080000000000000000800000000000000000000000000000000000000000000000000000000000000200013000000000000000000000000000000400000000000000000000000004000000000040000000001000000200000000002000000000000100000000040000000000000000000000000000000000000000000400000000000000000100000",
      "type": "0x2",
      "transactionHash": "0x594b1bbc296b619d66b8b60801afff4fe5ba0a00ddb3293359a7b970be42b6a6",
      "transactionIndex": "0x1",
      "blockHash": "0x6f77364a324b24d291b01944bcabf8acb5b692e7b31c9aad3535fcbdafc0f71c",
      "blockNumber": "0xdae2b1",
      "gasUsed": "0x91d8",
      "effectiveGasPrice": "0x97c4b1100",
      "from": "0xefbbd14082cf2fbcf5badc7ee619f0f4e36d0a5b",
      "to": "0x0ea49df2376393719f67e039923ef75e1767e9ee",
      "contractAddress": null
    },
    {
      "status": "0x1",
      "cumulativeGasUsed": "0x1c663",
      "logs": [
        {
          "address": "0x0ea49df2376393719f67e039923ef75e1767e9ee",
          "topics": [
            "0x9ea6790c7dadfd01c9f8b9762b3682607af2c7e79e05a9f9fdf5580dde949151",
            "0x000000000000000000000000e20ba93d9db6590746013cfe5f6a32312a0b0280",
            "0x0000000000000000000000000000000000000000000000000000000000000001"
          ],
          "data": "0x06af20da00000000000000000000000000000000000000000000000000000000",
          "blockHash": "0x6f77364a324b24d291b01944bcabf8acb5b692e7b31c9aad3535fcbdafc0f71c",
          "blockNumber": "0xdae2b1",
          "transactionHash": "0xb2e43be36eb3eeeaa7b9c58c55d116b5db5e72fb0998aad3293af385f2beb809",
          "transactionIndex": "0x2",
          "logIndex": "0x4",
          "removed": false
        },
        {
          "address": "0x0000000000000000000000000000000000001010",
          "topics": [
            "0x4dfe1bbbcf077ddc3e01291eea2d5c70c2b422b415d95645b9adcfd678cb1d63",
            "0x0000000000000000000000000000000000000000000000000000000000001010",
            "0x000000000000000000000000efbbd14082cf2fbcf5badc7ee619f0f4e36d0a5b",
            "0x000000000000000000000000915a2284d28bd93de7d6f31173b981204bb666e6"
          ],
          "data": "0x0000000000000000000000000000000000000000000000000005676763eecc580000000000000000000000000000000000000000000000001cfb78a60a8e63bd0000000000000000000000000000000000000000000004dbf49a4e44249d1f340000000000000000000000000000000000000000000000001cf6113ea69f97650000000000000000000000000000000000000000000004dbf49fb5ab888beb8c",
          "blockHash": "0x6f77364a324b24d291b01944bcabf8acb5b692e7b31c9aad3535fcbdafc0f71c",
          "blockNumber": "0xdae2b1",
          "transactionHash": "0xb2e43be36eb3eeeaa7b9c58c55d116b5db5e72fb0998aad3293af385f2beb809",
          "transactionIndex": "0x2",
          "logIndex": "0x5",
          "removed": false
        }
      ],
      "logsBloom": "0x00000004000080000010000000000000000000000000000000000000000000000000000000100000000000000000000000008000000000000000000000040000008000000000000000000000000100800000000000040000000100000000000000000000000000000000000000000000000000000000000080000000000080000800000000000000000000000000000000000000000000000000000000000000200002000000000000000000000000000000400000000000000000000000004000000000040000000081000000200000000002000000000000100000000040000000000000000000000000000000000000000000400000000000000000100000",
      "type": "0x2",
      "transactionHash": "0xb2e43be36eb3eeeaa7b9c58c55d116b5db5e72fb0998aad3293af385f2beb809",
      "transactionIndex": "0x2",
      "blockHash": "0x6f77364a324b24d291b01944bcabf8acb5b692e7b31c9aad3535fcbdafc0f71c",
      "blockNumber": "0xdae2b1",
      "gasUsed": "0x91d8",
      "effectiveGasPrice": "0x97c4b1100",
      "from": "0xefbbd14082cf2fbcf5badc7ee619f0f4e36d0a5b",
      "to": "0x0ea49df2376393719f67e039923ef75e1767e9ee",
      "contractAddress": null
    },
    {
      "status": "0x1",
      "cumulativeGasUsed": "0x26971",
      "logs": [
        {
          "address": "0x0ea49df2376393719f67e039923ef75e1767e9ee",
          "topics": [
            "0x9ea6790c7dadfd01c9f8b9762b3682607af2c7e79e05a9f9fdf5580dde949151",
            "0x00000000000000000000000080ba937a405a1fa5e9f22906dec7ff2f091b2c7c",
            "0x0000000000000000000000000000000000000000000000000000000000000001"
          ],
          "data": "0xdaea85c500000000000000000000000000000000000000000000000000000000",
          "blockHash": "0x6f77364a324b24d291b01944bcabf8acb5b692e7b31c9aad3535fcbdafc0f71c",
          "blockNumber": "0xdae2b1",
          "transactionHash": "0xdd7dbb4e3cec65bedd30fca03ab3c5920b517050908ade6aaab5566e6d145f17",
          "transactionIndex": "0x3",
          "logIndex": "0x6",
          "removed": false
        },
        {
          "address": "0x0ea49df2376393719f67e039923ef75e1767e9ee",
          "topics": [
            "0x9ea6790c7dadfd01c9f8b9762b3682607af2c7e79e05a9f9fdf5580dde949151",
            "0x00000000000000000000000080ba937a405a1fa5e9f22906dec7ff2f091b2c7c",
            "0x0000000000000000000000000000000000000000000000000000000000000001"
          ],
          "data": "0xab0da5a900000000000000000000000000000000000000000000000000000000",
          "blockHash": "0x6f77364a324b24d291b01944bcabf8acb5b692e7b31c9aad3535fcbdafc0f71c",
          "blockNumber": "0xdae2b1",
          "transactionHash": "0xdd7dbb4e3cec65bedd30fca03ab3c5920b517050908ade6aaab5566e6d145f17",
          "transactionIndex": "0x3",
          "logIndex": "0x7",
          "removed": false
        },
        {
          "address": "0x0000000000000000000000000000000000001010",
          "topics": [
            "0x4dfe1bbbcf077ddc3e01291eea2d5c70c2b422b415d95645b9adcfd678cb1d63",
            "0x0000000000000000000000000000000000000000000000000000000000001010",
            "0x000000000000000000000000efbbd14082cf2fbcf5badc7ee619f0f4e36d0a5b",
            "0x000000000000000000000000915a2284d28bd93de7d6f31173b981204bb666e6"
          ],
          "data": "0x00000000000000000000000000000000000000000000000000060aa897e4602e0000000000000000000000000000000000000000000000001cf6113ea6970bbd0000000000000000000000000000000000000000000004dbf49fb5ab888beb8c0000000000000000000000000000000000000000000000001cf006960eb2ab8f0000000000000000000000000000000000000000000004dbf4a5c05420704bba",
          "blockHash": "0x6f77364a324b24d291b01944bcabf8acb5b692e7b31c9aad3535fcbdafc0f71c",
          "blockNumber": "0xdae2b1",
          "transactionHash": "0xdd7dbb4e3cec65bedd30fca03ab3c5920b517050908ade6aaab5566e6d145f17",
          "transactionIndex": "0x3",
          "logIndex": "0x8",
          "removed": false
        }
      ],
      "logsBloom": "0x00000004000080000010000000000000010000000000000000000000000010000000000000100000000000000000000000008000000000000000000000040000008000000000000000000000000000800000000000040000000100000000000000000000000000000000000000000000000000000000000080000000000000000800000000000000000000000000000000000000000000000000000000000000200002000000000000000000000000000000400000008000000000000000004000000000040000000001000000200000000002000000000000100000000040000000000000000000000000000000000000000000400000000000000000100000",
      "type": "0x2",
      "transactionHash": "0xdd7dbb4e3cec65bedd30fca03ab3c5920b517050908ade6aaab5566e6d145f17",
      "transactionIndex": "0x3",
      "blockHash": "0x6f77364a324b24d291b01944bcabf8acb5b692e7b31c9aad3535fcbdafc0f71c",
      "blockNumber": "0xdae2b1",
      "gasUsed": "0xa30e",
      "effectiveGasPrice": "0x97c4b1100",
      "from": "0xefbbd14082cf2fbcf5badc7ee619f0f4e36d0a5b",
      "to": "0x0ea49df2376393719f67e039923ef75e1767e9ee",
      "contractAddress": null
    },
    {
      "status": "0x1",
      "cumulativeGasUsed": "0x31db5",
      "logs": [
        {
          "address": "0x0ea49df2376393719f67e039923ef75e1767e9ee",
          "topics": [
            "0x9ea6790c7dadfd01c9f8b9762b3682607af2c7e79e05a9f9fdf5580dde949151",
            "0x000000000000000000000000e3dfe3b891b850b8682a1f249e8010a7cc1fc79b",
            "0x0000000000000000000000000000000000000000000000000000000000000001"
          ],
          "data": "0x20c5429b00000000000000000000000000000000000000000000000000000000",
          "blockHash": "0x6f77364a324b24d291b01944bcabf8acb5b692e7b31c9aad3535fcbdafc0f71c",
          "blockNumber": "0xdae2b1",
          "transactionHash": "0x133a81180346a57ac9f41292a6b46dd932c1603f5b1e165811eabf20f50e8e43",
          "transactionIndex": "0x4",
          "logIndex": "0x9",
          "removed": false
        },
        {
          "address": "0x0ea49df2376393719f67e039923ef75e1767e9ee",
          "topics": [
            "0x9ea6790c7dadfd01c9f8b9762b3682607af2c7e79e05a9f9fdf5580dde949151",
            "0x000000000000000000000000e3dfe3b891b850b8682a1f249e8010a7cc1fc79b",
            "0x0000000000000000000000000000000000000000000000000000000000000001"
          ],
          "data": "0xb8adaa1100000000000000000000000000000000000000000000000000000000",
          "blockHash": "0x6f77364a324b24d291b01944bcabf8acb5b692e7b31c9aad3535fcbdafc0f71c",
          "blockNumber": "0xdae2b1",
          "transactionHash": "0x133a81180346a57ac9f41292a6b46dd932c1603f5b1e165811eabf20f50e8e43",
          "transactionIndex": "0x4",
          "logIndex": "0xa",
          "removed": false
        },
        {
          "address": "0x0ea49df2376393719f67e039923ef75e1767e9ee",
          "topics": [
            "0x9ea6790c7dadfd01c9f8b9762b3682607af2c7e79e05a9f9fdf5580dde949151",
            "0x000000000000000000000000e3dfe3b891b850b8682a1f249e8010a7cc1fc79b",
            "0x0000000000000000000000000000000000000000000000000000000000000001"
          ],
          "data": "0xb759f95400000000000000000000000000000000000000000000000000000000",
          "blockHash": "0x6f77364a324b24d291b01944bcabf8acb5b692e7b31c9aad3535fcbdafc0f71c",
          "blockNumber": "0xdae2b1",
          "transactionHash": "0x133a81180346a57ac9f41292a6b46dd932c1603f5b1e165811eabf20f50e8e43",
          "transactionIndex": "0x4",
          "logIndex": "0xb",
          "removed": false
        },
        {
          "address": "0x0000000000000000000000000000000000001010",
          "topics": [
            "0x4dfe1bbbcf077ddc3e01291eea2d5c70c2b422b415d95645b9adcfd678cb1d63",
            "0x0000000000000000000000000000000000000000000000000000000000001010",
            "0x000000000000000000000000efbbd14082cf2fbcf5badc7ee619f0f4e36d0a5b",
            "0x000000000000000000000000915a2284d28bd93de7d6f31173b981204bb666e6"
          ],
          "data": "0x0000000000000000000000000000000000000000000000000006ade9cbd9f4040000000000000000000000000000000000000000000000001cf006960ea91dbd0000000000000000000000000000000000000000000004dbf4a5c05420704bba0000000000000000000000000000000000000000000000001ce958ac42cf29b90000000000000000000000000000000000000000000004dbf4ac6e3dec4a3fbe",
          "blockHash": "0x6f77364a324b24d291b01944bcabf8acb5b692e7b31c9aad3535fcbdafc0f71c",
          "blockNumber": "0xdae2b1",
          "transactionHash": "0x133a81180346a57ac9f41292a6b46dd932c1603f5b1e165811eabf20f50e8e43",
          "transactionIndex": "0x4",
          "logIndex": "0xc",
          "removed": false
        }
      ],
      "logsBloom": "0x00000004000080000010000000000000000000000000000000000000000000000000000000100000000000000000000000008000000000000000000000040000008000000000000000000000000000800000000000040000000100000000000000000000000000000000000000000000000000000000000080000000000000000800000000000000000000000000000000000000000000000040000000000000200002000000000000000000000000000000400000000000000000000000004000000000040000000001000000200000000002000000000000100000000040000000000000000000000000000000000000000000480000000000000000100000",
      "type": "0x2",
      "transactionHash": "0x133a81180346a57ac9f41292a6b46dd932c1603f5b1e165811eabf20f50e8e43",
      "transactionIndex": "0x4",
      "blockHash": "0x6f77364a324b24d291b01944bcabf8acb5b692e7b31c9aad3535fcbdafc0f71c",
      "blockNumber": "0xdae2b1",
      "gasUsed": "0xb444",
      "effectiveGasPrice": "0x97c4b1100",
      "from": "0xefbbd14082cf2fbcf5badc7ee619f0f4e36d0a5b",
      "to": "0x0ea49df2376393719f67e039923ef75e1767e9ee",
      "contractAddress": null
    },
    {
      "status": "0x1",
      "cumulativeGasUsed": "0x3d1f9",
      "logs": [
        {
          "address": "0x0ea49df2376393719f67e039923ef75e1767e9ee",
          "topics": [
            "0x9ea6790c7dadfd01c9f8b9762b3682607af2c7e79e05a9f9fdf5580dde949151",
            "0x000000000000000000000000c44654946a32a42cd7fd6afa02dd0f5857865830",
            "0x0000000000000000000000000000000000000000000000000000000000000001"
          ],
          "data": "0xf6eea09800000000000000000000000000000000000000000000000000000000",
          "blockHash": "0x6f77364a324b24d291b01944bcabf8acb5b692e7b31c9aad3535fcbdafc0f71c",
          "blockNumber": "0xdae2b1",
          "transactionHash": "0x88066a60eddda1cde7a6db15bc82d472e11edecb4d1f2f379aded3473ccb9f0a",
          "transactionIndex": "0x5",
          "logIndex": "0xd",
          "removed": false
        },
        {
          "address": "0x0ea49df2376393719f67e039923ef75e1767e9ee",
          "topics": [
            "0x9ea6790c7dadfd01c9f8b9762b3682607af2c7e79e05a9f9fdf5580dde949151",
            "0x000000000000000000000000c44654946a32a42cd7fd6afa02dd0f5857865830",
            "0x0000000000000000000000000000000000000000000000000000000000000001"
          ],
          "data": "0x74a8f10300000000000000000000000000000000000000000000000000000000",
          "blockHash": "0x6f77364a324b24d291b01944bcabf8acb5b692e7b31c9aad3535fcbdafc0f71c",
          "blockNumber": "0xdae2b1",
          "transactionHash": "0x88066a60eddda1cde7a6db15bc82d472e11edecb4d1f2f379aded3473ccb9f0a",
          "transactionIndex": "0x5",
          "logIndex": "0xe",
          "removed": false
        },
        {
          "address": "0x0ea49df2376393719f67e039923ef75e1767e9ee",
          "topics": [
            "0x9ea6790c7dadfd01c9f8b9762b3682607af2c7e79e05a9f9fdf5580dde949151",
            "0x000000000000000000000000c44654946a32a42cd7fd6afa02dd0f5857865830",
            "0x0000000000000000000000000000000000000000000000000000000000000001"
          ],
          "data": "0xdaea85c500000000000000000000000000000000000000000000000000000000",
          "blockHash": "0x6f77364a324b24d291b01944bcabf8acb5b692e7b31c9aad3535fcbdafc0f71c",
          "blockNumber": "0xdae2b1",
          "transactionHash": "0x88066a60eddda1cde7a6db15bc82d472e11edecb4d1f2f379aded3473ccb9f0a",
          "transactionIndex": "0x5",
          "logIndex": "0xf",
          "removed": false
        },
        {
          "address": "0x0000000000000000000000000000000000001010",
          "topics": [
            "0x4dfe1bbbcf077ddc3e01291eea2d5c70c2b422b415d95645b9adcfd678cb1d63",
            "0x0000000000000000000000000000000000000000000000000000000000001010",
            "0x000000000000000000000000efbbd14082cf2fbcf5badc7ee619f0f4e36d0a5b",
            "0x000000000000000000000000915a2284d28bd93de7d6f31173b981204bb666e6"
          ],
          "data": "0x0000000000000000000000000000000000000000000000000006ade9cbd9f4040000000000000000000000000000000000000000000000001ce958ac42c499bd0000000000000000000000000000000000000000000004dbf4ac6e3dec4a3fbe0000000000000000000000000000000000000000000000001ce2aac276eaa5b90000000000000000000000000000000000000000000004dbf4b31c27b82433c2",
          "blockHash": "0x6f77364a324b24d291b01944bcabf8acb5b692e7b31c9aad3535fcbdafc0f71c",
          "blockNumber": "0xdae2b1",
          "transactionHash": "0x88066a60eddda1cde7a6db15bc82d472e11edecb4d1f2f379aded3473ccb9f0a",
          "transactionIndex": "0x5",
          "logIndex": "0x10",
          "removed": false
        }
      ],
      "logsBloom": "0x00000004000080000010000000000000000000000000000000000000000000000000000000100000000000000000000000008000000000000000000000040000008000000000000000000000000000800000000000040000000100000000000000000000000002000000000000000000000000000000000080000000000000000800000000000000000000000000000000000000000000000000000000000000200002000000000000000004000000000000400000000000000000000000004000000000040000000001000000200000000002000000000000100000000040000000000000000000000000000000000000000000400000000000000200100000",
      "type": "0x2",
      "transactionHash": "0x88066a60eddda1cde7a6db15bc82d472e11edecb4d1f2f379aded3473ccb9f0a",
      "transactionIndex": "0x5",
      "blockHash": "0x6f77364a324b24d291b01944bcabf8acb5b692e7b31c9aad3535fcbdafc0f71c",
      "blockNumber": "0xdae2b1",
      "gasUsed": "0xb444",
      "effectiveGasPrice": "0x97c4b1100",
      "from": "0xefbbd14082cf2fbcf5badc7ee619f0f4e36d0a5b",
      "to": "0x0ea49df2376393719f67e039923ef75e1767e9ee",
      "contractAddress": null
    },
    {
      "status": "0x1",
      "cumulativeGasUsed": "0x49e34",
      "logs": [
        {
          "address": "0xc29a74692c9b2e60fa088164d5f3ee933c3b2236",
          "topics": [
            "0xfbbd6e9cc51f124b05f08f20e9aef57fb26fc9a927be06212c59506610581335",
            "0x000000000000000000000000dc2e7c4444730980ceb8982cfc8a1c4902fa36be",
            "0x000000000000000000000000efbbd14082cf2fbcf5badc7ee619f0f4e36d0a5b"
          ],
          "data": "0x00000000000000000000000000000000000000000000000000000000000001f40000000000000000000000000000000000000000000000000000000000000002",
          "blockHash": "0x6f77364a324b24d291b01944bcabf8acb5b692e7b31c9aad3535fcbdafc0f71c",
          "blockNumber": "0xdae2b1",
          "transactionHash": "0xd7b9654975a8b73f6446a3446a839fabefaaa855e8e82b13f16518fe9d1c0db0",
          "transactionIndex": "0x6",
          "logIndex": "0x11",
          "removed": false
        },
        {
          "address": "0x0000000000000000000000000000000000001010",
          "topics": [
            "0x4dfe1bbbcf077ddc3e01291eea2d5c70c2b422b415d95645b9adcfd678cb1d63",
            "0x0000000000000000000000000000000000000000000000000000000000001010",
            "0x000000000000000000000000efbbd14082cf2fbcf5badc7ee619f0f4e36d0a5b",
            "0x000000000000000000000000915a2284d28bd93de7d6f31173b981204bb666e6"
          ],
          "data": "0x0000000000000000000000000000000000000000000000000007913b76ccf38b0000000000000000000000000000000000000000000000001ce2aac276e015bd0000000000000000000000000000000000000000000004dbf4b31c27b82433c20000000000000000000000000000000000000000000000001cdb1987001322320000000000000000000000000000000000000000000004dbf4baad632ef1274d",
          "blockHash": "0x6f77364a324b24d291b01944bcabf8acb5b692e7b31c9aad3535fcbdafc0f71c",
          "blockNumber": "0xdae2b1",
          "transactionHash": "0xd7b9654975a8b73f6446a3446a839fabefaaa855e8e82b13f16518fe9d1c0db0",
          "transactionIndex": "0x6",
          "logIndex": "0x12",
          "removed": false
        }
      ],
      "logsBloom": "0x00000000000000000010800000000000000000000000000000000000000010000000000000000000000000000000000000008000000000000000000200020000008000000000000000000000000000800000000000000000000100000000000000000000000000400000000000000000000000000000000080000000004000000a00000000000000000000000000000000000000100000000000000000000000200000000000000000000000000000000000400000000000000000000000004000000000000000000001000000000000000002000000000000100000000000000000000000008000000000000000000000000000400000000000000000100000",
      "type": "0x2",
      "transactionHash": "0xd7b9654975a8b73f6446a3446a839fabefaaa855e8e82b13f16518fe9d1c0db0",
      "transactionIndex": "0x6",
      "blockHash": "0x6f77364a324b24d291b01944bcabf8acb5b692e7b31c9aad3535fcbdafc0f71c",
      "blockNumber": "0xdae2b1",
      "gasUsed": "0xcc3b",
      "effectiveGasPrice": "0x97c4b1100",
      "from": "0xefbbd14082cf2fbcf5badc7ee619f0f4e36d0a5b",
      "to": "0xc29a74692c9b2e60fa088164d5f3ee933c3b2236",
      "contractAddress": null
    },
    {
      "status": "0x1",
      "cumulativeGasUsed": "0x56a94",
      "logs": [
        {
          "address": "0xc29a74692c9b2e60fa088164d5f3ee933c3b2236",
          "topics": [
            "0xfbbd6e9cc51f124b05f08f20e9aef57fb26fc9a927be06212c59506610581335",
            "0x000000000000000000000000dc2e7c4444730980ceb8982cfc8a1c4902fa36be",
            "0x000000000000000000000000efbbd14082cf2fbcf5badc7ee619f0f4e36d0a5b"
          ],
          "data": "0x0000000000000000000000000000000000000000000000056bc75e2d631000000000000000000000000000000000000000000000000000000000000000000001",
          "blockHash": "0x6f77364a324b24d291b01944bcabf8acb5b692e7b31c9aad3535fcbdafc0f71c",
          "blockNumber": "0xdae2b1",
          "transactionHash": "0x877d2f59f837d4f6e00e6a426550b10ecb1d68d7633d9133318815914873a2d2",
          "transactionIndex": "0x7",
          "logIndex": "0x13",
          "removed": false
        },
        {
          "address": "0x0000000000000000000000000000000000001010",
          "topics": [
            "0x4dfe1bbbcf077ddc3e01291eea2d5c70c2b422b415d95645b9adcfd678cb1d63",
            "0x0000000000000000000000000000000000000000000000000000000000001010",
            "0x000000000000000000000000efbbd14082cf2fbcf5badc7ee619f0f4e36d0a5b",
            "0x000000000000000000000000915a2284d28bd93de7d6f31173b981204bb666e6"
          ],
          "data": "0x0000000000000000000000000000000000000000000000000007929a6da666600000000000000000000000000000000000000000000000001cdb198700072abd0000000000000000000000000000000000000000000004dbf4baad632ef1274d0000000000000000000000000000000000000000000000001cd386ec9260c45d0000000000000000000000000000000000000000000004dbf4c23ffd9c978dad",
          "blockHash": "0x6f77364a324b24d291b01944bcabf8acb5b692e7b31c9aad3535fcbdafc0f71c",
          "blockNumber": "0xdae2b1",
          "transactionHash": "0x877d2f59f837d4f6e00e6a426550b10ecb1d68d7633d9133318815914873a2d2",
          "transactionIndex": "0x7",
          "logIndex": "0x14",
          "removed": false
        }
      ],
      "logsBloom": "0x00000000000000000010800000000000000000000000000000000000000010000000000000000000000000000000000000008000000000000000000200020000008000000000000000000000000000800000000000000000000100000000000000000000000000400000000000000000000000000000000080000000004000000a00000000000000000000000000000000000000100000000000000000000000200000000000000000000000000000000000400000000000000000000000004000000000000000000001000000000000000002000000000000100000000000000000000000008000000000000000000000000000400000000000000000100000",
      "type": "0x2",
      "transactionHash": "0x877d2f59f837d4f6e00e6a426550b10ecb1d68d7633d9133318815914873a2d2",
      "transactionIndex": "0x7",
      "blockHash": "0x6f77364a324b24d291b01944bcabf8acb5b692e7b31c9aad3535fcbdafc0f71c",
      "blockNumber": "0xdae2b1",
      "gasUsed": "0xcc60",
      "effectiveGasPrice": "0x97c4b1100",
      "from": "0xefbbd14082cf2fbcf5badc7ee619f0f4e36d0a5b",
      "to": "0xc29a74692c9b2e60fa088164d5f3ee933c3b2236",
      "contractAddress": null
    }
  ],
  "libraries": [],
  "pending": [],
  "returns": {},
  "timestamp": 1731434389,
  "chain": 80002,
  "commit": "14887ae"
}