{
  "transactions": [
    {
      "hash": "0x5fed07943a5f17eb508bd199ea41abe4680a62003a2aa6f83753d53796aca831",
      "transactionType": "CALL",
      "contractName": null,
      "contractAddress": "0xf7a57d88f22f3dc73c6719fe1e12339031073a24",
      "function": "grantRole(uint64,address,uint32)",
      "arguments": [
        "1",
        "0xEFBBD14082cF2FbCf5Badc7ee619F0f4e36D0A5B",
        "0"
      ],
      "transaction": {
        "from": "0xefbbd14082cf2fbcf5badc7ee619f0f4e36d0a5b",
        "to": "0xf7a57d88f22f3dc73c6719fe1e12339031073a24",
        "gas": "0x13bcf",
        "value": "0x0",
        "input": "0x25c471a00000000000000000000000000000000000000000000000000000000000000001000000000000000000000000efbbd14082cf2fbcf5badc7ee619f0f4e36d0a5b0000000000000000000000000000000000000000000000000000000000000000",
        "nonce": "0x5fd",
        "chainId": "0x13882"
      },
      "additionalContracts": [],
      "isFixedGasLimit": false
    },
    {
      "hash": "0x7d1174b6b6369d3c7b0d94e2338bc1d4948693df689d84157e151326607429ee",
      "transactionType": "CALL",
      "contractName": null,
      "contractAddress": "0xf7a57d88f22f3dc73c6719fe1e12339031073a24",
      "function": "setTargetFunctionRole(address,bytes4[],uint64)",
      "arguments": [
        "0x1f1f901348328658a88f0627C9D114198E35BA2A",
        "[0xecf441b7]",
        "1"
      ],
      "transaction": {
        "from": "0xefbbd14082cf2fbcf5badc7ee619f0f4e36d0a5b",
        "to": "0xf7a57d88f22f3dc73c6719fe1e12339031073a24",
        "gas": "0x134d0",
        "value": "0x0",
        "input": "0x08d6122d0000000000000000000000001f1f901348328658a88f0627c9d114198e35ba2a000000000000000000000000000000000000000000000000000000000000006000000000000000000000000000000000000000000000000000000000000000010000000000000000000000000000000000000000000000000000000000000001ecf441b700000000000000000000000000000000000000000000000000000000",
        "nonce": "0x5fe",
        "chainId": "0x13882"
      },
      "additionalContracts": [],
      "isFixedGasLimit": false
    },
    {
      "hash": "0x58093a22a5c3f327cedc7c2658a2034d62c622c0129f297f2bd3f89097f90245",
      "transactionType": "CALL",
      "contractName": null,
      "contractAddress": "0xf7a57d88f22f3dc73c6719fe1e12339031073a24",
      "function": "setTargetFunctionRole(address,bytes4[],uint64)",
      "arguments": [
        "0x168738D95354E53AB78112b46a606101317F8d9d",
        "[0x06af20da]",
        "1"
      ],
      "transaction": {
        "from": "0xefbbd14082cf2fbcf5badc7ee619f0f4e36d0a5b",
        "to": "0xf7a57d88f22f3dc73c6719fe1e12339031073a24",
        "gas": "0x134d0",
        "value": "0x0",
        "input": "0x08d6122d000000000000000000000000168738d95354e53ab78112b46a606101317f8d9d00000000000000000000000000000000000000000000000000000000000000600000000000000000000000000000000000000000000000000000000000000001000000000000000000000000000000000000000000000000000000000000000106af20da00000000000000000000000000000000000000000000000000000000",
        "nonce": "0x5ff",
        "chainId": "0x13882"
      },
      "additionalContracts": [],
      "isFixedGasLimit": false
    },
    {
      "hash": "0x2e749fa9817b0ea4379d948be27c6dfe164c7ec79bbbd0a8ec50c6606de919fc",
      "transactionType": "CALL",
      "contractName": null,
      "contractAddress": "0xf7a57d88f22f3dc73c6719fe1e12339031073a24",
      "function": "setTargetFunctionRole(address,bytes4[],uint64)",
      "arguments": [
        "0xBb0B7ce7AF68B81834a6c8E5fA9d5f981C828e61",
        "[0xdaea85c5, 0xab0da5a9]",
        "1"
      ],
      "transaction": {
        "from": "0xefbbd14082cf2fbcf5badc7ee619f0f4e36d0a5b",
        "to": "0xf7a57d88f22f3dc73c6719fe1e12339031073a24",
        "gas": "0x1b7f5",
        "value": "0x0",
        "input": "0x08d6122d000000000000000000000000bb0b7ce7af68b81834a6c8e5fa9d5f981c828e61000000000000000000000000000000000000000000000000000000000000006000000000000000000000000000000000000000000000000000000000000000010000000000000000000000000000000000000000000000000000000000000002daea85c500000000000000000000000000000000000000000000000000000000ab0da5a900000000000000000000000000000000000000000000000000000000",
        "nonce": "0x600",
        "chainId": "0x13882"
      },
      "additionalContracts": [],
      "isFixedGasLimit": false
    },
    {
      "hash": "0xda514cffee20dcb6a5843117237e1547c2fe8ed85fe9c1bff03394612ee20b1b",
      "transactionType": "CALL",
      "contractName": null,
      "contractAddress": "0xf7a57d88f22f3dc73c6719fe1e12339031073a24",
      "function": "setTargetFunctionRole(address,bytes4[],uint64)",
      "arguments": [
        "0xfcC220E6fce96594C002314e60a9726c06f30565",
        "[0x20c5429b, 0xb8adaa11, 0xb759f954]",
        "1"
      ],
      "transaction": {
        "from": "0xefbbd14082cf2fbcf5badc7ee619f0f4e36d0a5b",
        "to": "0xf7a57d88f22f3dc73c6719fe1e12339031073a24",
        "gas": "0x23b19",
        "value": "0x0",
        "input": "0x08d6122d000000000000000000000000fcc220e6fce96594c002314e60a9726c06f3056500000000000000000000000000000000000000000000000000000000000000600000000000000000000000000000000000000000000000000000000000000001000000000000000000000000000000000000000000000000000000000000000320c5429b00000000000000000000000000000000000000000000000000000000b8adaa1100000000000000000000000000000000000000000000000000000000b759f95400000000000000000000000000000000000000000000000000000000",
        "nonce": "0x601",
        "chainId": "0x13882"
      },
      "additionalContracts": [],
      "isFixedGasLimit": false
    },
    {
      "hash": "0xe426dee8e3dd7ce393f18e83a7acf2ac99907b761199d74f012be2d1b655c52c",
      "transactionType": "CALL",
      "contractName": null,
      "contractAddress": "0xf7a57d88f22f3dc73c6719fe1e12339031073a24",
      "function": "setTargetFunctionRole(address,bytes4[],uint64)",
      "arguments": [
        "0xa9A164E0cDD678e7089B09630eB4E46E54Ff62a7",
        "[0xf6eea098, 0x74a8f103, 0xdaea85c5]",
        "1"
      ],
      "transaction": {
        "from": "0xefbbd14082cf2fbcf5badc7ee619f0f4e36d0a5b",
        "to": "0xf7a57d88f22f3dc73c6719fe1e12339031073a24",
        "gas": "0x23b19",
        "value": "0x0",
        "input": "0x08d6122d000000000000000000000000a9a164e0cdd678e7089b09630eb4e46e54ff62a7000000000000000000000000000000000000000000000000000000000000006000000000000000000000000000000000000000000000000000000000000000010000000000000000000000000000000000000000000000000000000000000003f6eea0980000000000000000000000000000000000000000000000000000000074a8f10300000000000000000000000000000000000000000000000000000000daea85c500000000000000000000000000000000000000000000000000000000",
        "nonce": "0x602",
        "chainId": "0x13882"
      },
      "additionalContracts": [],
      "isFixedGasLimit": false
    },
    {
      "hash": "0x70f080a293dd205b54e9906764ce256ba612820b25061fb116578314991982e3",
      "transactionType": "CALL",
      "contractName": null,
      "contractAddress": "0x1f1f901348328658a88f0627c9d114198e35ba2a",
      "function": "setFees(uint8,uint256,address)",
      "arguments": [
        "2",
        "500",
        "0x35629402D19345dFC8d5f2bDf8AC878f385a6957"
      ],
      "transaction": {
        "from": "0xefbbd14082cf2fbcf5badc7ee619f0f4e36d0a5b",
        "to": "0x1f1f901348328658a88f0627c9d114198e35ba2a",
        "gas": "0x30cce",
        "value": "0x0",
        "input": "0xecf441b7000000000000000000000000000000000000000000000000000000000000000200000000000000000000000000000000000000000000000000000000000001f400000000000000000000000035629402d19345dfc8d5f2bdf8ac878f385a6957",
        "nonce": "0x603",
        "chainId": "0x13882"
      },
      "additionalContracts": [],
      "isFixedGasLimit": false
    },
    {
      "hash": "0x3402c7269ab75393c393708491e3b83adf8770cb51c7521994f5989144b4a0f9",
      "transactionType": "CALL",
      "contractName": null,
      "contractAddress": "0x1f1f901348328658a88f0627c9d114198e35ba2a",
      "function": "setFees(uint8,uint256,address)",
      "arguments": [
        "1",
        "100000000000000000000",
        "0x35629402D19345dFC8d5f2bDf8AC878f385a6957"
      ],
      "transaction": {
        "from": "0xefbbd14082cf2fbcf5badc7ee619f0f4e36d0a5b",
        "to": "0x1f1f901348328658a88f0627c9d114198e35ba2a",
        "gas": "0x2e1a0",
        "value": "0x0",
        "input": "0xecf441b700000000000000000000000000000000000000000000000000000000000000010000000000000000000000000000000000000000000000056bc75e2d6310000000000000000000000000000035629402d19345dfc8d5f2bdf8ac878f385a6957",
        "nonce": "0x604",
        "chainId": "0x13882"
      },
      "additionalContracts": [],
      "isFixedGasLimit": false
    }
  ],
  "receipts": [
    {
      "status": "0x1",
      "cumulativeGasUsed": "0xe4a4",
      "logs": [
        {
          "address": "0xf7a57d88f22f3dc73c6719fe1e12339031073a24",
          "topics": [
            "0xf98448b987f1428e0e230e1f3c6e2ce15b5693eaf31827fbd0b1ec4b424ae7cf",
            "0x0000000000000000000000000000000000000000000000000000000000000001",
            "0x000000000000000000000000efbbd14082cf2fbcf5badc7ee619f0f4e36d0a5b"
          ],
          "data": "0x000000000000000000000000000000000000000000000000000000000000000000000000000000000000000000000000000000000000000000000000673770ee0000000000000000000000000000000000000000000000000000000000000001",
          "blockHash": "0x68ad491e3accb818fcf8b083bbc4ecad843b2f9d1ec1b7406ec9f015a84f7a06",
          "blockNumber": "0xdcae2a",
          "transactionHash": "0x5fed07943a5f17eb508bd199ea41abe4680a62003a2aa6f83753d53796aca831",
          "transactionIndex": "0x0",
          "logIndex": "0x0",
          "removed": false
        },
        {
          "address": "0x0000000000000000000000000000000000001010",
          "topics": [
            "0x4dfe1bbbcf077ddc3e01291eea2d5c70c2b422b415d95645b9adcfd678cb1d63",
            "0x0000000000000000000000000000000000000000000000000000000000001010",
            "0x000000000000000000000000efbbd14082cf2fbcf5badc7ee619f0f4e36d0a5b",
            "0x0000000000000000000000004631753190f2f5a15a7ba172bbac102b7d95fa22"
          ],
          "data": "0x000000000000000000000000000000000000000000000000001281dfd8ffc2640000000000000000000000000000000000000000000000000b28807cdb657b71000000000000000000000000000000000000000000000300dee284ecd4559af70000000000000000000000000000000000000000000000000b15fe9d0265b90d000000000000000000000000000000000000000000000300def506ccad555d5b",
          "blockHash": "0x68ad491e3accb818fcf8b083bbc4ecad843b2f9d1ec1b7406ec9f015a84f7a06",
          "blockNumber": "0xdcae2a",
          "transactionHash": "0x5fed07943a5f17eb508bd199ea41abe4680a62003a2aa6f83753d53796aca831",
          "transactionIndex": "0x0",
          "logIndex": "0x1",
          "removed": false
        }
      ],
      "logsBloom": "0x00000000000000000000000000000000000000002000000000000000000000000000000000000000000000000000000000008000000000000000000040040000008000000000000000000000000000800000000000040000000100000000000000000000008000100000000000000000000000000000000080000000000000000800000000000000000000000000000008000000000000000000000000000000200000000000000000002000000000000000400000000008000000000000004000000000000000000001000000000000000002000000000000100000200040000000000000000000000000000000000000000000000000000000000000100000",
      "type": "0x2",
      "transactionHash": "0x5fed07943a5f17eb508bd199ea41abe4680a62003a2aa6f83753d53796aca831",
      "transactionIndex": "0x0",
      "blockHash": "0x68ad491e3accb818fcf8b083bbc4ecad843b2f9d1ec1b7406ec9f015a84f7a06",
      "blockNumber": "0xdcae2a",
      "gasUsed": "0xe4a4",
      "effectiveGasPrice": "0x14b8d03a00",
      "from": "0xefbbd14082cf2fbcf5badc7ee619f0f4e36d0a5b",
      "to": "0xf7a57d88f22f3dc73c6719fe1e12339031073a24",
      "contractAddress": null
    },
    {
      "status": "0x1",
      "cumulativeGasUsed": "0xdf94",
      "logs": [
        {
          "address": "0xf7a57d88f22f3dc73c6719fe1e12339031073a24",
          "topics": [
            "0x9ea6790c7dadfd01c9f8b9762b3682607af2c7e79e05a9f9fdf5580dde949151",
            "0x0000000000000000000000001f1f901348328658a88f0627c9d114198e35ba2a",
            "0x0000000000000000000000000000000000000000000000000000000000000001"
          ],
          "data": "0xecf441b700000000000000000000000000000000000000000000000000000000",
          "blockHash": "0x87849c8a1277de7baba00adcbb1a93ff09d6d10325383674d7d26f8993b25285",
          "blockNumber": "0xdcae2c",
          "transactionHash": "0x7d1174b6b6369d3c7b0d94e2338bc1d4948693df689d84157e151326607429ee",
          "transactionIndex": "0x0",
          "logIndex": "0x0",
          "removed": false
        },
        {
          "address": "0x0000000000000000000000000000000000001010",
          "topics": [
            "0x4dfe1bbbcf077ddc3e01291eea2d5c70c2b422b415d95645b9adcfd678cb1d63",
            "0x0000000000000000000000000000000000000000000000000000000000001010",
            "0x000000000000000000000000efbbd14082cf2fbcf5badc7ee619f0f4e36d0a5b",
            "0x0000000000000000000000004631753190f2f5a15a7ba172bbac102b7d95fa22"
          ],
          "data": "0x000000000000000000000000000000000000000000000000001218f83ada6e540000000000000000000000000000000000000000000000000b15fe9d02585371000000000000000000000000000000000000000000000300df265813616241300000000000000000000000000000000000000000000000000b03e5a4c77de51d000000000000000000000000000000000000000000000300df38710b9c3caf84",
          "blockHash": "0x87849c8a1277de7baba00adcbb1a93ff09d6d10325383674d7d26f8993b25285",
          "blockNumber": "0xdcae2c",
          "transactionHash": "0x7d1174b6b6369d3c7b0d94e2338bc1d4948693df689d84157e151326607429ee",
          "transactionIndex": "0x0",
          "logIndex": "0x1",
          "removed": false
        }
      ],
      "logsBloom": "0x00000005000080000000000000000000000000002000000000000000000000000000000000000000000000000000000000008000000000000000000040040000008000000000000000000200000000800000000000040000000100000000000000000000008000100000000000000000000000000000000080000000000000000800000000000000000000000000000000000000000000000000000000000000200000000000000000000000000000000000400000000000000000000000004000000000000000000001400000200000000002000000000000100000200040000000000000000000000000000000000000000000000000000000000000100000",
      "type": "0x2",
      "transactionHash": "0x7d1174b6b6369d3c7b0d94e2338bc1d4948693df689d84157e151326607429ee",
      "transactionIndex": "0x0",
      "blockHash": "0x87849c8a1277de7baba00adcbb1a93ff09d6d10325383674d7d26f8993b25285",
      "blockNumber": "0xdcae2c",
      "gasUsed": "0xdf94",
      "effectiveGasPrice": "0x14b8d03a00",
      "from": "0xefbbd14082cf2fbcf5badc7ee619f0f4e36d0a5b",
      "to": "0xf7a57d88f22f3dc73c6719fe1e12339031073a24",
      "contractAddress": null
    },
    {
      "status": "0x1",
      "cumulativeGasUsed": "0xdf94",
      "logs": [
        {
          "address": "0xf7a57d88f22f3dc73c6719fe1e12339031073a24",
          "topics": [
            "0x9ea6790c7dadfd01c9f8b9762b3682607af2c7e79e05a9f9fdf5580dde949151",
            "0x000000000000000000000000168738d95354e53ab78112b46a606101317f8d9d",
            "0x0000000000000000000000000000000000000000000000000000000000000001"
          ],
          "data": "0x06af20da00000000000000000000000000000000000000000000000000000000",
          "blockHash": "0xe7cdd4d8534445831e15f869777ca3a04bf17f1bebfc6fd29bc7a2e8c1b5d436",
          "blockNumber": "0xdcae2f",
          "transactionHash": "0x58093a22a5c3f327cedc7c2658a2034d62c622c0129f297f2bd3f89097f90245",
          "transactionIndex": "0x0",
          "logIndex": "0x0",
          "removed": false
        },
        {
          "address": "0x0000000000000000000000000000000000001010",
          "topics": [
            "0x4dfe1bbbcf077ddc3e01291eea2d5c70c2b422b415d95645b9adcfd678cb1d63",
            "0x0000000000000000000000000000000000000000000000000000000000001010",
            "0x000000000000000000000000efbbd14082cf2fbcf5badc7ee619f0f4e36d0a5b",
            "0x0000000000000000000000004631753190f2f5a15a7ba172bbac102b7d95fa22"
          ],
          "data": "0x000000000000000000000000000000000000000000000000001218f83ada6e540000000000000000000000000000000000000000000000000b03e5a4c770cb71000000000000000000000000000000000000000000000300df85e5c420ad97800000000000000000000000000000000000000000000000000af1ccac8c965d1d000000000000000000000000000000000000000000000300df97febc5b8805d4",
          "blockHash": "0xe7cdd4d8534445831e15f869777ca3a04bf17f1bebfc6fd29bc7a2e8c1b5d436",
          "blockNumber": "0xdcae2f",
          "transactionHash": "0x58093a22a5c3f327cedc7c2658a2034d62c622c0129f297f2bd3f89097f90245",
          "transactionIndex": "0x0",
          "logIndex": "0x1",
          "removed": false
        }
      ],
      "logsBloom": "0x00000004008080000000000000000000000000002000000000000000000000000000000000000000000000000000000000008000000000000000000040040000008000000000000000000000000000800000000000040000000100000000000000000000008000100000000000000000000000000000000080000000000000000800000000000000000000000000000000000000000000001000000000000000200000000000000000000000000000000000400000000000000000000000004000000000000000000001000000200000000002000000000000100000200040000000000000000000000000000000000000000000000004000000000000100000",
      "type": "0x2",
      "transactionHash": "0x58093a22a5c3f327cedc7c2658a2034d62c622c0129f297f2bd3f89097f90245",
      "transactionIndex": "0x0",
      "blockHash": "0xe7cdd4d8534445831e15f869777ca3a04bf17f1bebfc6fd29bc7a2e8c1b5d436",
      "blockNumber": "0xdcae2f",
      "gasUsed": "0xdf94",
      "effectiveGasPrice": "0x14b8d03a00",
      "from": "0xefbbd14082cf2fbcf5badc7ee619f0f4e36d0a5b",
      "to": "0xf7a57d88f22f3dc73c6719fe1e12339031073a24",
      "contractAddress": null
    },
    {
      "status": "0x1",
      "cumulativeGasUsed": "0x2e690",
      "logs": [
        {
          "address": "0xf7a57d88f22f3dc73c6719fe1e12339031073a24",
          "topics": [
            "0x9ea6790c7dadfd01c9f8b9762b3682607af2c7e79e05a9f9fdf5580dde949151",
            "0x000000000000000000000000bb0b7ce7af68b81834a6c8e5fa9d5f981c828e61",
            "0x0000000000000000000000000000000000000000000000000000000000000001"
          ],
          "data": "0xdaea85c500000000000000000000000000000000000000000000000000000000",
          "blockHash": "0xa03743f16a0869cf9cc666511e695c87c4b6f27f46888510c422799bd1250d68",
          "blockNumber": "0xdcae31",
          "transactionHash": "0x2e749fa9817b0ea4379d948be27c6dfe164c7ec79bbbd0a8ec50c6606de919fc",
          "transactionIndex": "0x1",
          "logIndex": "0x3",
          "removed": false
        },
        {
          "address": "0xf7a57d88f22f3dc73c6719fe1e12339031073a24",
          "topics": [
            "0x9ea6790c7dadfd01c9f8b9762b3682607af2c7e79e05a9f9fdf5580dde949151",
            "0x000000000000000000000000bb0b7ce7af68b81834a6c8e5fa9d5f981c828e61",
            "0x0000000000000000000000000000000000000000000000000000000000000001"
          ],
          "data": "0xab0da5a900000000000000000000000000000000000000000000000000000000",
          "blockHash": "0xa03743f16a0869cf9cc666511e695c87c4b6f27f46888510c422799bd1250d68",
          "blockNumber": "0xdcae31",
          "transactionHash": "0x2e749fa9817b0ea4379d948be27c6dfe164c7ec79bbbd0a8ec50c6606de919fc",
          "transactionIndex": "0x1",
          "logIndex": "0x4",
          "removed": false
        },
        {
          "address": "0x0000000000000000000000000000000000001010",
          "topics": [
            "0x4dfe1bbbcf077ddc3e01291eea2d5c70c2b422b415d95645b9adcfd678cb1d63",
            "0x0000000000000000000000000000000000000000000000000000000000001010",
            "0x000000000000000000000000efbbd14082cf2fbcf5badc7ee619f0f4e36d0a5b",
            "0x0000000000000000000000006ab3d36c46ecfb9b9c0bd51cb1c3da5a2c81cea6"
          ],
          "data": "0x0000000000000000000000000000000000000000000000000019c86b64f7b2260000000000000000000000000000000000000000000000000af1ccac8c89437100000000000000000000000000000000000000000000039cd09bd594c278daf70000000000000000000000000000000000000000000000000ad804412791914b00000000000000000000000000000000000000000000039cd0b59e0027708d1d",
          "blockHash": "0xa03743f16a0869cf9cc666511e695c87c4b6f27f46888510c422799bd1250d68",
          "blockNumber": "0xdcae31",
          "transactionHash": "0x2e749fa9817b0ea4379d948be27c6dfe164c7ec79bbbd0a8ec50c6606de919fc",
          "transactionIndex": "0x1",
          "logIndex": "0x5",
          "removed": false
        }
      ],
      "logsBloom": "0x00000004080080000000000000000000000000000000000000000000000000000000000000000000000000000000000000008000000000000000000000040000008000080800000000000000000000800000000000040000000100000000000000000000008000000000000000000000000000000000000080000000000000000800000000000000000000000000000000000000000000000000000000000000200000000000000800000000000000000000400000000000000000000000004000000000000000000001000000200000000002010000000000100000200040000000000000000000000000002000000000000000000000000000000000100000",
      "type": "0x2",
      "transactionHash": "0x2e749fa9817b0ea4379d948be27c6dfe164c7ec79bbbd0a8ec50c6606de919fc",
      "transactionIndex": "0x1",
      "blockHash": "0xa03743f16a0869cf9cc666511e695c87c4b6f27f46888510c422799bd1250d68",
      "blockNumber": "0xdcae31",
      "gasUsed": "0x13e86",
      "effectiveGasPrice": "0x14b8d03a00",
      "from": "0xefbbd14082cf2fbcf5badc7ee619f0f4e36d0a5b",
      "to": "0xf7a57d88f22f3dc73c6719fe1e12339031073a24",
      "contractAddress": null
    },
    {
      "status": "0x1",
      "cumulativeGasUsed": "0x26ee1",
      "logs": [
        {
          "address": "0xf7a57d88f22f3dc73c6719fe1e12339031073a24",
          "topics": [
            "0x9ea6790c7dadfd01c9f8b9762b3682607af2c7e79e05a9f9fdf5580dde949151",
            "0x000000000000000000000000fcc220e6fce96594c002314e60a9726c06f30565",
            "0x0000000000000000000000000000000000000000000000000000000000000001"
          ],
          "data": "0x20c5429b00000000000000000000000000000000000000000000000000000000",
          "blockHash": "0x426e4bba7adcf470a16d2f8153598e0ff85f01203054c3e5dacb04be4b5f72cd",
          "blockNumber": "0xdcae33",
          "transactionHash": "0xda514cffee20dcb6a5843117237e1547c2fe8ed85fe9c1bff03394612ee20b1b",
          "transactionIndex": "0x1",
          "logIndex": "0x3",
          "removed": false
        },
        {
          "address": "0xf7a57d88f22f3dc73c6719fe1e12339031073a24",
          "topics": [
            "0x9ea6790c7dadfd01c9f8b9762b3682607af2c7e79e05a9f9fdf5580dde949151",
            "0x000000000000000000000000fcc220e6fce96594c002314e60a9726c06f30565",
            "0x0000000000000000000000000000000000000000000000000000000000000001"
          ],
          "data": "0xb8adaa1100000000000000000000000000000000000000000000000000000000",
          "blockHash": "0x426e4bba7adcf470a16d2f8153598e0ff85f01203054c3e5dacb04be4b5f72cd",
          "blockNumber": "0xdcae33",
          "transactionHash": "0xda514cffee20dcb6a5843117237e1547c2fe8ed85fe9c1bff03394612ee20b1b",
          "transactionIndex": "0x1",
          "logIndex": "0x4",
          "removed": false
        },
        {
          "address": "0xf7a57d88f22f3dc73c6719fe1e12339031073a24",
          "topics": [
            "0x9ea6790c7dadfd01c9f8b9762b3682607af2c7e79e05a9f9fdf5580dde949151",
            "0x000000000000000000000000fcc220e6fce96594c002314e60a9726c06f30565",
            "0x0000000000000000000000000000000000000000000000000000000000000001"
          ],
          "data": "0xb759f95400000000000000000000000000000000000000000000000000000000",
          "blockHash": "0x426e4bba7adcf470a16d2f8153598e0ff85f01203054c3e5dacb04be4b5f72cd",
          "blockNumber": "0xdcae33",
          "transactionHash": "0xda514cffee20dcb6a5843117237e1547c2fe8ed85fe9c1bff03394612ee20b1b",
          "transactionIndex": "0x1",
          "logIndex": "0x5",
          "removed": false
        },
        {
          "address": "0x0000000000000000000000000000000000001010",
          "topics": [
            "0x4dfe1bbbcf077ddc3e01291eea2d5c70c2b422b415d95645b9adcfd678cb1d63",
            "0x0000000000000000000000000000000000000000000000000000000000001010",
            "0x000000000000000000000000efbbd14082cf2fbcf5badc7ee619f0f4e36d0a5b",
            "0x0000000000000000000000006ab3d36c46ecfb9b9c0bd51cb1c3da5a2c81cea6"
          ],
          "data": "0x000000000000000000000000000000000000000000000000002177de8f14f5f80000000000000000000000000000000000000000000000000ad80441277ee77100000000000000000000000000000000000000000000039cd0c6cc8f0a5fab260000000000000000000000000000000000000000000000000ab68c629869f17900000000000000000000000000000000000000000000039cd0e8446d9974a11e",
          "blockHash": "0x426e4bba7adcf470a16d2f8153598e0ff85f01203054c3e5dacb04be4b5f72cd",
          "blockNumber": "0xdcae33",
          "transactionHash": "0xda514cffee20dcb6a5843117237e1547c2fe8ed85fe9c1bff03394612ee20b1b",
          "transactionIndex": "0x1",
          "logIndex": "0x6",
          "removed": false
        }
      ],
      "logsBloom": "0x00000004080080000000000000000000000000000000000000000000000000000000000000000000000000000000000000008000000000000000000000040000008000080000000000000000000000800000000000040010000100000000000000000000008000000000000000000000000000000000000080000000000020000800000000000010000000000000000000000000000000000000000000000000200000000000000000000000000000000000400000000000000000000000004000000000000000000001000000200000000002010000000000100000200040000000000000000000000000000000000000000000000000000000000000100000",
      "type": "0x2",
      "transactionHash": "0xda514cffee20dcb6a5843117237e1547c2fe8ed85fe9c1bff03394612ee20b1b",
      "transactionIndex": "0x1",
      "blockHash": "0x426e4bba7adcf470a16d2f8153598e0ff85f01203054c3e5dacb04be4b5f72cd",
      "blockNumber": "0xdcae33",
      "gasUsed": "0x19d78",
      "effectiveGasPrice": "0x14b8d03a00",
      "from": "0xefbbd14082cf2fbcf5badc7ee619f0f4e36d0a5b",
      "to": "0xf7a57d88f22f3dc73c6719fe1e12339031073a24",
      "contractAddress": null
    },
    {
      "status": "0x1",
      "cumulativeGasUsed": "0x19d78",
      "logs": [
        {
          "address": "0xf7a57d88f22f3dc73c6719fe1e12339031073a24",
          "topics": [
            "0x9ea6790c7dadfd01c9f8b9762b3682607af2c7e79e05a9f9fdf5580dde949151",
            "0x000000000000000000000000a9a164e0cdd678e7089b09630eb4e46e54ff62a7",
            "0x0000000000000000000000000000000000000000000000000000000000000001"
          ],
          "data": "0xf6eea09800000000000000000000000000000000000000000000000000000000",
          "blockHash": "0x8ee39b18e9e2ff9e103b9d42b3ae895644e1292dc8dec6e4e82e9533a5c558bf",
          "blockNumber": "0xdcae35",
          "transactionHash": "0xe426dee8e3dd7ce393f18e83a7acf2ac99907b761199d74f012be2d1b655c52c",
          "transactionIndex": "0x0",
          "logIndex": "0x0",
          "removed": false
        },
        {
          "address": "0xf7a57d88f22f3dc73c6719fe1e12339031073a24",
          "topics": [
            "0x9ea6790c7dadfd01c9f8b9762b3682607af2c7e79e05a9f9fdf5580dde949151",
            "0x000000000000000000000000a9a164e0cdd678e7089b09630eb4e46e54ff62a7",
            "0x0000000000000000000000000000000000000000000000000000000000000001"
          ],
          "data": "0x74a8f10300000000000000000000000000000000000000000000000000000000",
          "blockHash": "0x8ee39b18e9e2ff9e103b9d42b3ae895644e1292dc8dec6e4e82e9533a5c558bf",
          "blockNumber": "0xdcae35",
          "transactionHash": "0xe426dee8e3dd7ce393f18e83a7acf2ac99907b761199d74f012be2d1b655c52c",
          "transactionIndex": "0x0",
          "logIndex": "0x1",
          "removed": false
        },
        {
          "address": "0xf7a57d88f22f3dc73c6719fe1e12339031073a24",
          "topics": [
            "0x9ea6790c7dadfd01c9f8b9762b3682607af2c7e79e05a9f9fdf5580dde949151",
            "0x000000000000000000000000a9a164e0cdd678e7089b09630eb4e46e54ff62a7",
            "0x0000000000000000000000000000000000000000000000000000000000000001"
          ],
          "data": "0xdaea85c500000000000000000000000000000000000000000000000000000000",
          "blockHash": "0x8ee39b18e9e2ff9e103b9d42b3ae895644e1292dc8dec6e4e82e9533a5c558bf",
          "blockNumber": "0xdcae35",
          "transactionHash": "0xe426dee8e3dd7ce393f18e83a7acf2ac99907b761199d74f012be2d1b655c52c",
          "transactionIndex": "0x0",
          "logIndex": "0x2",
          "removed": false
        },
        {
          "address": "0x0000000000000000000000000000000000001010",
          "topics": [
            "0x4dfe1bbbcf077ddc3e01291eea2d5c70c2b422b415d95645b9adcfd678cb1d63",
            "0x0000000000000000000000000000000000000000000000000000000000001010",
            "0x000000000000000000000000efbbd14082cf2fbcf5badc7ee619f0f4e36d0a5b",
            "0x0000000000000000000000006ab3d36c46ecfb9b9c0bd51cb1c3da5a2c81cea6"
          ],
          "data": "0x000000000000000000000000000000000000000000000000002177de8f14f5f80000000000000000000000000000000000000000000000000ab68c629851b77100000000000000000000000000000000000000000000039cd10ff40c4ca8e2ce0000000000000000000000000000000000000000000000000a951484093cc17900000000000000000000000000000000000000000000039cd1316beadbbdd8c6",
          "blockHash": "0x8ee39b18e9e2ff9e103b9d42b3ae895644e1292dc8dec6e4e82e9533a5c558bf",
          "blockNumber": "0xdcae35",
          "transactionHash": "0xe426dee8e3dd7ce393f18e83a7acf2ac99907b761199d74f012be2d1b655c52c",
          "transactionIndex": "0x0",
          "logIndex": "0x3",
          "removed": false
        }
      ],
      "logsBloom": "0x00000004080080000000000000000000000000000000000000000000000000000000000000000000000000000000000000008000000000000000000000040000008000080000000000008000000000800000000000040000000100000000000000000000008000000000000000000000000000000000000080000000000000000800000000000000000000000000000000000000000000000000000000000000200000000000200000040000000000000000400000000000000000000000004000000000000000000001000000200000000002010000000000100000200040000000000000000000000000000000000000000000000000000000000000100000",
      "type": "0x2",
      "transactionHash": "0xe426dee8e3dd7ce393f18e83a7acf2ac99907b761199d74f012be2d1b655c52c",
      "transactionIndex": "0x0",
      "blockHash": "0x8ee39b18e9e2ff9e103b9d42b3ae895644e1292dc8dec6e4e82e9533a5c558bf",
      "blockNumber": "0xdcae35",
      "gasUsed": "0x19d78",
      "effectiveGasPrice": "0x14b8d03a00",
      "from": "0xefbbd14082cf2fbcf5badc7ee619f0f4e36d0a5b",
      "to": "0xf7a57d88f22f3dc73c6719fe1e12339031073a24",
      "contractAddress": null
    },
    {
      "status": "0x1",
      "cumulativeGasUsed": "0x215e3",
      "logs": [
        {
          "address": "0x1f1f901348328658a88f0627c9d114198e35ba2a",
          "topics": [
            "0xfbbd6e9cc51f124b05f08f20e9aef57fb26fc9a927be06212c59506610581335",
            "0x00000000000000000000000035629402d19345dfc8d5f2bdf8ac878f385a6957",
            "0x000000000000000000000000efbbd14082cf2fbcf5badc7ee619f0f4e36d0a5b"
          ],
          "data": "0x00000000000000000000000000000000000000000000000000000000000001f40000000000000000000000000000000000000000000000000000000000000002",
          "blockHash": "0x82046179197be96b96b24aa722d75a8aacaef18d3d91007be15610d95e58095b",
          "blockNumber": "0xdcae37",
          "transactionHash": "0x70f080a293dd205b54e9906764ce256ba612820b25061fb116578314991982e3",
          "transactionIndex": "0x0",
          "logIndex": "0x0",
          "removed": false
        },
        {
          "address": "0x0000000000000000000000000000000000001010",
          "topics": [
            "0x4dfe1bbbcf077ddc3e01291eea2d5c70c2b422b415d95645b9adcfd678cb1d63",
            "0x0000000000000000000000000000000000000000000000000000000000001010",
            "0x000000000000000000000000efbbd14082cf2fbcf5badc7ee619f0f4e36d0a5b",
            "0x0000000000000000000000006ab3d36c46ecfb9b9c0bd51cb1c3da5a2c81cea6"
          ],
          "data": "0x000000000000000000000000000000000000000000000000002b3729694625b30000000000000000000000000000000000000000000000000a9514840924877100000000000000000000000000000000000000000000039cd1316beadbbdd8c60000000000000000000000000000000000000000000000000a69dd5a9fde61be00000000000000000000000000000000000000000000039cd15ca3144503fe79",
          "blockHash": "0x82046179197be96b96b24aa722d75a8aacaef18d3d91007be15610d95e58095b",
          "blockNumber": "0xdcae37",
          "transactionHash": "0x70f080a293dd205b54e9906764ce256ba612820b25061fb116578314991982e3",
          "transactionIndex": "0x0",
          "logIndex": "0x1",
          "removed": false
        }
      ],
      "logsBloom": "0x00000000080000000000800000000000000000000000020000000000000000000000000000000000000000000000000000008000000000000000000000000000008000080000000000000000000000800000000000000000000100000000000000000000000000400010000000000000000000000000000080000000004000000800000000000000000000000000000000000000000000000000000000000000220000000000000000000000000000000000400000080000000000000000004800000000000000000001000000000000000000010000000000100000000080000000000000000000000000000000000000000000000000000000000000100000",
      "type": "0x2",
      "transactionHash": "0x70f080a293dd205b54e9906764ce256ba612820b25061fb116578314991982e3",
      "transactionIndex": "0x0",
      "blockHash": "0x82046179197be96b96b24aa722d75a8aacaef18d3d91007be15610d95e58095b",
      "blockNumber": "0xdcae37",
      "gasUsed": "0x215e3",
      "effectiveGasPrice": "0x14b8d03a00",
      "from": "0xefbbd14082cf2fbcf5badc7ee619f0f4e36d0a5b",
      "to": "0x1f1f901348328658a88f0627c9d114198e35ba2a",
      "contractAddress": null
    },
    {
      "status": "0x1",
      "cumulativeGasUsed": "0x3be42",
      "logs": [
        {
          "address": "0x1f1f901348328658a88f0627c9d114198e35ba2a",
          "topics": [
            "0xfbbd6e9cc51f124b05f08f20e9aef57fb26fc9a927be06212c59506610581335",
            "0x00000000000000000000000035629402d19345dfc8d5f2bdf8ac878f385a6957",
            "0x000000000000000000000000efbbd14082cf2fbcf5badc7ee619f0f4e36d0a5b"
          ],
          "data": "0x0000000000000000000000000000000000000000000000056bc75e2d631000000000000000000000000000000000000000000000000000000000000000000001",
          "blockHash": "0xceaad8721b3c38829260945048cad422a180e27f99d22f523b00f74f5596c13d",
          "blockNumber": "0xdcae39",
          "transactionHash": "0x3402c7269ab75393c393708491e3b83adf8770cb51c7521994f5989144b4a0f9",
          "transactionIndex": "0x1",
          "logIndex": "0x3",
          "removed": false
        },
        {
          "address": "0x0000000000000000000000000000000000001010",
          "topics": [
            "0x4dfe1bbbcf077ddc3e01291eea2d5c70c2b422b415d95645b9adcfd678cb1d63",
            "0x0000000000000000000000000000000000000000000000000000000000001010",
            "0x000000000000000000000000efbbd14082cf2fbcf5badc7ee619f0f4e36d0a5b",
            "0x0000000000000000000000006ab3d36c46ecfb9b9c0bd51cb1c3da5a2c81cea6"
          ],
          "data": "0x000000000000000000000000000000000000000000000000002b3a281f5e85880000000000000000000000000000000000000000000000000a69dd5a9fbf197100000000000000000000000000000000000000000000039cd186578617bd77c10000000000000000000000000000000000000000000000000a3ea332806093e900000000000000000000000000000000000000000000039cd1b191ae371bfd49",
          "blockHash": "0xceaad8721b3c38829260945048cad422a180e27f99d22f523b00f74f5596c13d",
          "blockNumber": "0xdcae39",
          "transactionHash": "0x3402c7269ab75393c393708491e3b83adf8770cb51c7521994f5989144b4a0f9",
          "transactionIndex": "0x1",
          "logIndex": "0x4",
          "removed": false
        }
      ],
      "logsBloom": "0x00000000080000000000800000000000000000000000020000000000000000000000000000000000000000000000000000008000000000000000000000000000008000080000000000000000000000800000000000000000000100000000000000000000000000400010000000000000000000000000000080000000004000000800000000000000000000000000000000000000000000000000000000000000220000000000000000000000000000000000400000080000000000000000004800000000000000000001000000000000000000010000000000100000000080000000000000000000000000000000000000000000000000000000000000100000",
      "type": "0x2",
      "transactionHash": "0x3402c7269ab75393c393708491e3b83adf8770cb51c7521994f5989144b4a0f9",
      "transactionIndex": "0x1",
      "blockHash": "0xceaad8721b3c38829260945048cad422a180e27f99d22f523b00f74f5596c13d",
      "blockNumber": "0xdcae39",
      "gasUsed": "0x21608",
      "effectiveGasPrice": "0x14b8d03a00",
      "from": "0xefbbd14082cf2fbcf5badc7ee619f0f4e36d0a5b",
      "to": "0x1f1f901348328658a88f0627c9d114198e35ba2a",
      "contractAddress": null
    }
  ],
  "libraries": [],
  "pending": [],
  "returns": {},
  "timestamp": 1731686671,
  "chain": 80002,
  "commit": "5d3485c"
}