{
  "transactions": [
    {
      "hash": "0x7fea4d6bacaa4f8a013771212db4340dd8bff612dd3832111bc924117b630b87",
      "transactionType": "CALL",
      "contractName": null,
      "contractAddress": "0x8120a8e0688be6b2c0bb469f871e5e7023ca85eb",
      "function": "grantRole(uint64,address,uint32)",
      "arguments": [
        "1",
        "0xEFBBD14082cF2FbCf5Badc7ee619F0f4e36D0A5B",
        "0"
      ],
      "transaction": {
        "from": "0xefbbd14082cf2fbcf5badc7ee619f0f4e36d0a5b",
        "to": "0x8120a8e0688be6b2c0bb469f871e5e7023ca85eb",
        "gas": "0xedf2",
        "value": "0x0",
        "input": "0x25c471a00000000000000000000000000000000000000000000000000000000000000001000000000000000000000000efbbd14082cf2fbcf5badc7ee619f0f4e36d0a5b0000000000000000000000000000000000000000000000000000000000000000",
        "nonce": "0x97c",
        "chainId": "0x13882"
      },
      "additionalContracts": [],
      "isFixedGasLimit": false
    },
    {
      "hash": "0x4dd5091f51e5b6d9e172c745fe74f0497bf30f6ee391060c93be3643bbd4ee31",
      "transactionType": "CALL",
      "contractName": null,
      "contractAddress": "0x8120a8e0688be6b2c0bb469f871e5e7023ca85eb",
      "function": "setTargetFunctionRole(address,bytes4[],uint64)",
      "arguments": [
        "0x4580859e64385e3e82ee64da2Bc06Ef84Bde851a",
        "[0x8cc0de1d]",
        "1"
      ],
      "transaction": {
        "from": "0xefbbd14082cf2fbcf5badc7ee619f0f4e36d0a5b",
        "to": "0x8120a8e0688be6b2c0bb469f871e5e7023ca85eb",
        "gas": "0xc971",
        "value": "0x0",
        "input": "0x08d6122d0000000000000000000000004580859e64385e3e82ee64da2bc06ef84bde851a0000000000000000000000000000000000000000000000000000000000000060000000000000000000000000000000000000000000000000000000000000000100000000000000000000000000000000000000000000000000000000000000018cc0de1d00000000000000000000000000000000000000000000000000000000",
        "nonce": "0x97d",
        "chainId": "0x13882"
      },
      "additionalContracts": [],
      "isFixedGasLimit": false
    },
    {
      "hash": "0xbeae0f4c89c9d16d0321c3cdd4e3836f09b29c64fa7d99ce038e36342c528b82",
      "transactionType": "CALL",
      "contractName": null,
      "contractAddress": "0x8120a8e0688be6b2c0bb469f871e5e7023ca85eb",
      "function": "setTargetFunctionRole(address,bytes4[],uint64)",
      "arguments": [
        "0xD32CA33b1FBD97523536Ed3519A191Df242AFCFd",
        "[0x06af20da]",
        "1"
      ],
      "transaction": {
        "from": "0xefbbd14082cf2fbcf5badc7ee619f0f4e36d0a5b",
        "to": "0x8120a8e0688be6b2c0bb469f871e5e7023ca85eb",
        "gas": "0xc971",
        "value": "0x0",
        "input": "0x08d6122d000000000000000000000000d32ca33b1fbd97523536ed3519a191df242afcfd00000000000000000000000000000000000000000000000000000000000000600000000000000000000000000000000000000000000000000000000000000001000000000000000000000000000000000000000000000000000000000000000106af20da00000000000000000000000000000000000000000000000000000000",
        "nonce": "0x97e",
        "chainId": "0x13882"
      },
      "additionalContracts": [],
      "isFixedGasLimit": false
    },
    {
      "hash": "0x2acf6802a6b48a2bd7839fe943d04865b2b5c1f9a91505023c0cd91990c43650",
      "transactionType": "CALL",
      "contractName": null,
      "contractAddress": "0x8120a8e0688be6b2c0bb469f871e5e7023ca85eb",
      "function": "setTargetFunctionRole(address,bytes4[],uint64)",
      "arguments": [
        "0x00ABb22eB950684e4314287e94f024B0A9420d40",
        "[0x20c5429b, 0xb8adaa11, 0xb759f954]",
        "1"
      ],
      "transaction": {
        "from": "0xefbbd14082cf2fbcf5badc7ee619f0f4e36d0a5b",
        "to": "0x8120a8e0688be6b2c0bb469f871e5e7023ca85eb",
        "gas": "0xf8ec",
        "value": "0x0",
        "input": "0x08d6122d00000000000000000000000000abb22eb950684e4314287e94f024b0a9420d4000000000000000000000000000000000000000000000000000000000000000600000000000000000000000000000000000000000000000000000000000000001000000000000000000000000000000000000000000000000000000000000000320c5429b00000000000000000000000000000000000000000000000000000000b8adaa1100000000000000000000000000000000000000000000000000000000b759f95400000000000000000000000000000000000000000000000000000000",
        "nonce": "0x97f",
        "chainId": "0x13882"
      },
      "additionalContracts": [],
      "isFixedGasLimit": false
    },
    {
      "hash": "0x2c948553ae080867f715ddc2fc15c26c102207fa5c807d1bf65135943cb0ba6a",
      "transactionType": "CALL",
      "contractName": null,
      "contractAddress": "0x8120a8e0688be6b2c0bb469f871e5e7023ca85eb",
      "function": "setTargetFunctionRole(address,bytes4[],uint64)",
      "arguments": [
        "0xA2746F0D272bb0F5273f53B4a0F476afe8873C32",
        "[0xf6eea098, 0x74a8f103, 0xdaea85c5]",
        "1"
      ],
      "transaction": {
        "from": "0xefbbd14082cf2fbcf5badc7ee619f0f4e36d0a5b",
        "to": "0x8120a8e0688be6b2c0bb469f871e5e7023ca85eb",
        "gas": "0xf8fd",
        "value": "0x0",
        "input": "0x08d6122d000000000000000000000000a2746f0d272bb0f5273f53b4a0f476afe8873c32000000000000000000000000000000000000000000000000000000000000006000000000000000000000000000000000000000000000000000000000000000010000000000000000000000000000000000000000000000000000000000000003f6eea0980000000000000000000000000000000000000000000000000000000074a8f10300000000000000000000000000000000000000000000000000000000daea85c500000000000000000000000000000000000000000000000000000000",
        "nonce": "0x980",
        "chainId": "0x13882"
      },
      "additionalContracts": [],
      "isFixedGasLimit": false
    },
    {
      "hash": "0x8b91719b5d63f73fc129c6b3bb6c5576ddd707727acb53debc9add4514acf0d7",
      "transactionType": "CALL",
      "contractName": null,
      "contractAddress": "0x8120a8e0688be6b2c0bb469f871e5e7023ca85eb",
      "function": "grantRole(uint64,address,uint32)",
      "arguments": [
        "2",
        "0xEFBBD14082cF2FbCf5Badc7ee619F0f4e36D0A5B",
        "0"
      ],
      "transaction": {
        "from": "0xefbbd14082cf2fbcf5badc7ee619f0f4e36d0a5b",
        "to": "0x8120a8e0688be6b2c0bb469f871e5e7023ca85eb",
        "gas": "0xedf2",
        "value": "0x0",
        "input": "0x25c471a00000000000000000000000000000000000000000000000000000000000000002000000000000000000000000efbbd14082cf2fbcf5badc7ee619f0f4e36d0a5b0000000000000000000000000000000000000000000000000000000000000000",
        "nonce": "0x981",
        "chainId": "0x13882"
      },
      "additionalContracts": [],
      "isFixedGasLimit": false
    },
    {
      "hash": "0x6e9672dadbe1239eb3f944d1602723e680c494a6d147761f0a33d4951b3f1f0d",
      "transactionType": "CALL",
      "contractName": null,
      "contractAddress": "0x8120a8e0688be6b2c0bb469f871e5e7023ca85eb",
      "function": "setTargetFunctionRole(address,bytes4[],uint64)",
      "arguments": [
        "0x8dB5ae2ae14e189c7d0e8f9c67643170e5508874",
        "[0xdaea85c5, 0xab0da5a9]",
        "2"
      ],
      "transaction": {
        "from": "0xefbbd14082cf2fbcf5badc7ee619f0f4e36d0a5b",
        "to": "0x8120a8e0688be6b2c0bb469f871e5e7023ca85eb",
        "gas": "0xe137",
        "value": "0x0",
        "input": "0x08d6122d0000000000000000000000008db5ae2ae14e189c7d0e8f9c67643170e5508874000000000000000000000000000000000000000000000000000000000000006000000000000000000000000000000000000000000000000000000000000000020000000000000000000000000000000000000000000000000000000000000002daea85c500000000000000000000000000000000000000000000000000000000ab0da5a900000000000000000000000000000000000000000000000000000000",
        "nonce": "0x982",
        "chainId": "0x13882"
      },
      "additionalContracts": [],
      "isFixedGasLimit": false
    },
    {
      "hash": "0x8ab1f8ad3d670ba18bd23001c666010d565891ef61fbdd0213de4ea4b839beaf",
      "transactionType": "CALL",
      "contractName": null,
      "contractAddress": "0x8120a8e0688be6b2c0bb469f871e5e7023ca85eb",
      "function": "grantRole(uint64,address,uint32)",
      "arguments": [
        "4",
        "0x5945C1417ad688EF90Cf3e61263b404B96A0C20b",
        "0"
      ],
      "transaction": {
        "from": "0xefbbd14082cf2fbcf5badc7ee619f0f4e36d0a5b",
        "to": "0x8120a8e0688be6b2c0bb469f871e5e7023ca85eb",
        "gas": "0xedf2",
        "value": "0x0",
        "input": "0x25c471a000000000000000000000000000000000000000000000000000000000000000040000000000000000000000005945c1417ad688ef90cf3e61263b404b96a0c20b0000000000000000000000000000000000000000000000000000000000000000",
        "nonce": "0x983",
        "chainId": "0x13882"
      },
      "additionalContracts": [],
      "isFixedGasLimit": false
    },
    {
      "hash": "0x5fef35f4f57d6b7bb94e6835f3aa773eb2d3ec7a903076167273e4e1767e54b3",
      "transactionType": "CALL",
      "contractName": null,
      "contractAddress": "0x8120a8e0688be6b2c0bb469f871e5e7023ca85eb",
      "function": "grantRole(uint64,address,uint32)",
      "arguments": [
        "4",
        "0x31B351E4C217f838190825586cAA8494Ee1CA635",
        "0"
      ],
      "transaction": {
        "from": "0xefbbd14082cf2fbcf5badc7ee619f0f4e36d0a5b",
        "to": "0x8120a8e0688be6b2c0bb469f871e5e7023ca85eb",
        "gas": "0xedf2",
        "value": "0x0",
        "input": "0x25c471a0000000000000000000000000000000000000000000000000000000000000000400000000000000000000000031b351e4c217f838190825586caa8494ee1ca6350000000000000000000000000000000000000000000000000000000000000000",
        "nonce": "0x984",
        "chainId": "0x13882"
      },
      "additionalContracts": [],
      "isFixedGasLimit": false
    },
    {
      "hash": "0x2c0b3932c07f0d05822d41fa5cb0b84d7eff764658e7bc1f10512e3262cb1322",
      "transactionType": "CALL",
      "contractName": null,
      "contractAddress": "0x8120a8e0688be6b2c0bb469f871e5e7023ca85eb",
      "function": "grantRole(uint64,address,uint32)",
      "arguments": [
        "4",
        "0xA2746F0D272bb0F5273f53B4a0F476afe8873C32",
        "0"
      ],
      "transaction": {
        "from": "0xefbbd14082cf2fbcf5badc7ee619f0f4e36d0a5b",
        "to": "0x8120a8e0688be6b2c0bb469f871e5e7023ca85eb",
        "gas": "0xedf2",
        "value": "0x0",
        "input": "0x25c471a00000000000000000000000000000000000000000000000000000000000000004000000000000000000000000a2746f0d272bb0f5273f53b4a0f476afe8873c320000000000000000000000000000000000000000000000000000000000000000",
        "nonce": "0x985",
        "chainId": "0x13882"
      },
      "additionalContracts": [],
      "isFixedGasLimit": false
    },
    {
      "hash": "0xda9eff68b2de3b342884c9d3691c7967c8d71639f8dc7fd7e032ed03e177dbc1",
      "transactionType": "CALL",
      "contractName": null,
      "contractAddress": "0x8120a8e0688be6b2c0bb469f871e5e7023ca85eb",
      "function": "setTargetFunctionRole(address,bytes4[],uint64)",
      "arguments": [
        "0x83266Ca8147572839BB23A204db52Bd26a1FCeaa",
        "[0x4bbc170a, 0x15f41501, 0x9e96a260]",
        "4"
      ],
      "transaction": {
        "from": "0xefbbd14082cf2fbcf5badc7ee619f0f4e36d0a5b",
        "to": "0x8120a8e0688be6b2c0bb469f871e5e7023ca85eb",
        "gas": "0xf8fd",
        "value": "0x0",
        "input": "0x08d6122d00000000000000000000000083266ca8147572839bb23a204db52bd26a1fceaa0000000000000000000000000000000000000000000000000000000000000060000000000000000000000000000000000000000000000000000000000000000400000000000000000000000000000000000000000000000000000000000000034bbc170a0000000000000000000000000000000000000000000000000000000015f41501000000000000000000000000000000000000000000000000000000009e96a26000000000000000000000000000000000000000000000000000000000",
        "nonce": "0x986",
        "chainId": "0x13882"
      },
      "additionalContracts": [],
      "isFixedGasLimit": false
    },
    {
      "hash": "0x8c35e5a6743c69374bcb2e49060b46cc42e3d46d0a73f4e115165057d752e394",
      "transactionType": "CALL",
      "contractName": null,
      "contractAddress": "0x4580859e64385e3e82ee64da2bc06ef84bde851a",
      "function": "setFees(uint8,address,uint256,address)",
      "arguments": [
        "3",
        "0xf06E1998119CAEdf8E084194AA5FEa89eA9389C3",
        "500",
        "0x3c7DeB6FeAEb7a82BDe580Fb73d8d69c401b219e"
      ],
      "transaction": {
        "from": "0xefbbd14082cf2fbcf5badc7ee619f0f4e36d0a5b",
        "to": "0x4580859e64385e3e82ee64da2bc06ef84bde851a",
        "gas": "0x13ae7",
        "value": "0x0",
        "input": "0x8cc0de1d0000000000000000000000000000000000000000000000000000000000000003000000000000000000000000f06e1998119caedf8e084194aa5fea89ea9389c300000000000000000000000000000000000000000000000000000000000001f40000000000000000000000003c7deb6feaeb7a82bde580fb73d8d69c401b219e",
        "nonce": "0x987",
        "chainId": "0x13882"
      },
      "additionalContracts": [],
      "isFixedGasLimit": false
    },
    {
      "hash": "0xec176c696d80e45fcc0c87df06af78fa78252d704d120b370f8f119ef80bd4fa",
      "transactionType": "CALL",
      "contractName": null,
      "contractAddress": "0x4580859e64385e3e82ee64da2bc06ef84bde851a",
      "function": "setFees(uint8,address,uint256,address)",
      "arguments": [
        "1",
        "0xA2746F0D272bb0F5273f53B4a0F476afe8873C32",
        "100000000000000000000",
        "0x3c7DeB6FeAEb7a82BDe580Fb73d8d69c401b219e"
      ],
      "transaction": {
        "from": "0xefbbd14082cf2fbcf5badc7ee619f0f4e36d0a5b",
        "to": "0x4580859e64385e3e82ee64da2bc06ef84bde851a",
        "gas": "0x1299b",
        "value": "0x0",
        "input": "0x8cc0de1d0000000000000000000000000000000000000000000000000000000000000001000000000000000000000000a2746f0d272bb0f5273f53b4a0f476afe8873c320000000000000000000000000000000000000000000000056bc75e2d631000000000000000000000000000003c7deb6feaeb7a82bde580fb73d8d69c401b219e",
        "nonce": "0x988",
        "chainId": "0x13882"
      },
      "additionalContracts": [],
      "isFixedGasLimit": false
    }
  ],
  "receipts": [
    {
      "status": "0x1",
      "cumulativeGasUsed": "0x7771f",
      "logs": [
        {
          "address": "0x8120a8e0688be6b2c0bb469f871e5e7023ca85eb",
          "topics": [
            "0xf98448b987f1428e0e230e1f3c6e2ce15b5693eaf31827fbd0b1ec4b424ae7cf",
            "0x0000000000000000000000000000000000000000000000000000000000000001",
            "0x000000000000000000000000efbbd14082cf2fbcf5badc7ee619f0f4e36d0a5b"
          ],
          "data": "0x000000000000000000000000000000000000000000000000000000000000000000000000000000000000000000000000000000000000000000000000677ca8bb0000000000000000000000000000000000000000000000000000000000000000",
          "blockHash": "0xee8ab0cec671ba00e8c4056eaa3fd72cfd07c0994a152d9f2e27df401c1d8a1e",
          "blockNumber": "0xfc965d",
          "transactionHash": "0x7fea4d6bacaa4f8a013771212db4340dd8bff612dd3832111bc924117b630b87",
          "transactionIndex": "0x1",
          "logIndex": "0x1",
          "removed": false
        },
        {
          "address": "0x0000000000000000000000000000000000001010",
          "topics": [
            "0x4dfe1bbbcf077ddc3e01291eea2d5c70c2b422b415d95645b9adcfd678cb1d63",
            "0x0000000000000000000000000000000000000000000000000000000000001010",
            "0x000000000000000000000000efbbd14082cf2fbcf5badc7ee619f0f4e36d0a5b",
            "0x0000000000000000000000006ab3d36c46ecfb9b9c0bd51cb1c3da5a2c81cea6"
          ],
          "data": "0x0000000000000000000000000000000000000000000000000004cf24f26a49680000000000000000000000000000000000000000000000014202a68e4371863100000000000000000000000000000000000000000000045aedbbe38ed02ecea000000000000000000000000000000000000000000000000141fdd76951073cc900000000000000000000000000000000000000000000045aedc0b2b3c2991808",
          "blockHash": "0xee8ab0cec671ba00e8c4056eaa3fd72cfd07c0994a152d9f2e27df401c1d8a1e",
          "blockNumber": "0xfc965d",
          "transactionHash": "0x7fea4d6bacaa4f8a013771212db4340dd8bff612dd3832111bc924117b630b87",
          "transactionIndex": "0x1",
          "logIndex": "0x2",
          "removed": false
        }
      ],
      "logsBloom": "0x00000000080000000000000000000000000000000000000000000000000000000000000000000000000000000000000000008000000000000000000000040000008000080000000000000000000000800000000000040100000100000000000000000000000000000000000000000000000000000000000080000000000000000800000000000000000000000800000008000000000000000000000000000000200000000000000000002000000000000000400000000008008000000000004000000000000000000001000000000000000000010000000000100000000040000000000000000000000000000000000000000000000000000000000000100000",
      "type": "0x2",
      "transactionHash": "0x7fea4d6bacaa4f8a013771212db4340dd8bff612dd3832111bc924117b630b87",
      "transactionIndex": "0x1",
      "blockHash": "0xee8ab0cec671ba00e8c4056eaa3fd72cfd07c0994a152d9f2e27df401c1d8a1e",
      "blockNumber": "0xfc965d",
      "gasUsed": "0xa2b3",
      "effectiveGasPrice": "0x79126a507",
      "from": "0xefbbd14082cf2fbcf5badc7ee619f0f4e36d0a5b",
      "to": "0x8120a8e0688be6b2c0bb469f871e5e7023ca85eb",
      "contractAddress": null
    },
    {
      "status": "0x1",
      "cumulativeGasUsed": "0x808f7",
      "logs": [
        {
          "address": "0x8120a8e0688be6b2c0bb469f871e5e7023ca85eb",
          "topics": [
            "0x9ea6790c7dadfd01c9f8b9762b3682607af2c7e79e05a9f9fdf5580dde949151",
            "0x0000000000000000000000004580859e64385e3e82ee64da2bc06ef84bde851a",
            "0x0000000000000000000000000000000000000000000000000000000000000001"
          ],
          "data": "0x8cc0de1d00000000000000000000000000000000000000000000000000000000",
          "blockHash": "0xee8ab0cec671ba00e8c4056eaa3fd72cfd07c0994a152d9f2e27df401c1d8a1e",
          "blockNumber": "0xfc965d",
          "transactionHash": "0x4dd5091f51e5b6d9e172c745fe74f0497bf30f6ee391060c93be3643bbd4ee31",
          "transactionIndex": "0x2",
          "logIndex": "0x3",
          "removed": false
        },
        {
          "address": "0x0000000000000000000000000000000000001010",
          "topics": [
            "0x4dfe1bbbcf077ddc3e01291eea2d5c70c2b422b415d95645b9adcfd678cb1d63",
            "0x0000000000000000000000000000000000000000000000000000000000001010",
            "0x000000000000000000000000efbbd14082cf2fbcf5badc7ee619f0f4e36d0a5b",
            "0x0000000000000000000000006ab3d36c46ecfb9b9c0bd51cb1c3da5a2c81cea6"
          ],
          "data": "0x00000000000000000000000000000000000000000000000000044f995c0ba94000000000000000000000000000000000000000000000000141fdd76950fdb44c00000000000000000000000000000000000000000000045aedc0b2b3c299180800000000000000000000000000000000000000000000000141f987cff4f20b0c00000000000000000000000000000000000000000000045aedc5024d1ea4c148",
          "blockHash": "0xee8ab0cec671ba00e8c4056eaa3fd72cfd07c0994a152d9f2e27df401c1d8a1e",
          "blockNumber": "0xfc965d",
          "transactionHash": "0x4dd5091f51e5b6d9e172c745fe74f0497bf30f6ee391060c93be3643bbd4ee31",
          "transactionIndex": "0x2",
          "logIndex": "0x4",
          "removed": false
        }
      ],
      "logsBloom": "0x00000004080080000000000000000000000000000000000000000000000000000000000000000000000000000000000000008000000000000000000000040000008000080000000000000000000000800000000000040100000100000000000000000000000000000000040000000000000000000000000080000000000000000800000000000000000000000800000000000000000000000000000000000000200000000000000000000000000000000000400000000000008000000000004000000000000002000001000000200000000000010000000000100000000040000100000000000000000000000000000000000000000000000000000000100000",
      "type": "0x2",
      "transactionHash": "0x4dd5091f51e5b6d9e172c745fe74f0497bf30f6ee391060c93be3643bbd4ee31",
      "transactionIndex": "0x2",
      "blockHash": "0xee8ab0cec671ba00e8c4056eaa3fd72cfd07c0994a152d9f2e27df401c1d8a1e",
      "blockNumber": "0xfc965d",
      "gasUsed": "0x91d8",
      "effectiveGasPrice": "0x79126a507",
      "from": "0xefbbd14082cf2fbcf5badc7ee619f0f4e36d0a5b",
      "to": "0x8120a8e0688be6b2c0bb469f871e5e7023ca85eb",
      "contractAddress": null
    },
    {
      "status": "0x1",
      "cumulativeGasUsed": "0x91d8",
      "logs": [
        {
          "address": "0x8120a8e0688be6b2c0bb469f871e5e7023ca85eb",
          "topics": [
            "0x9ea6790c7dadfd01c9f8b9762b3682607af2c7e79e05a9f9fdf5580dde949151",
            "0x000000000000000000000000d32ca33b1fbd97523536ed3519a191df242afcfd",
            "0x0000000000000000000000000000000000000000000000000000000000000001"
          ],
          "data": "0x06af20da00000000000000000000000000000000000000000000000000000000",
          "blockHash": "0x29d7ded5a73c6c74d14e560bfebaa2b26b5a3730ab888cad67c426f7c4329377",
          "blockNumber": "0xfc965e",
          "transactionHash": "0xbeae0f4c89c9d16d0321c3cdd4e3836f09b29c64fa7d99ce038e36342c528b82",
          "transactionIndex": "0x0",
          "logIndex": "0x0",
          "removed": false
        },
        {
          "address": "0x0000000000000000000000000000000000001010",
          "topics": [
            "0x4dfe1bbbcf077ddc3e01291eea2d5c70c2b422b415d95645b9adcfd678cb1d63",
            "0x0000000000000000000000000000000000000000000000000000000000001010",
            "0x000000000000000000000000efbbd14082cf2fbcf5badc7ee619f0f4e36d0a5b",
            "0x0000000000000000000000006ab3d36c46ecfb9b9c0bd51cb1c3da5a2c81cea6"
          ],
          "data": "0x00000000000000000000000000000000000000000000000000044f995c0ba94000000000000000000000000000000000000000000000000141f987cff4e97f6400000000000000000000000000000000000000000000045aedd5f00fcb05738800000000000000000000000000000000000000000000000141f5383698ddd62400000000000000000000000000000000000000000000045aedda3fa927111cc8",
          "blockHash": "0x29d7ded5a73c6c74d14e560bfebaa2b26b5a3730ab888cad67c426f7c4329377",
          "blockNumber": "0xfc965e",
          "transactionHash": "0xbeae0f4c89c9d16d0321c3cdd4e3836f09b29c64fa7d99ce038e36342c528b82",
          "transactionIndex": "0x0",
          "logIndex": "0x1",
          "removed": false
        }
      ],
      "logsBloom": "0x00000004080080000000000000000000000000000000000000000000000000000000000000000000000000000000000000008000000000000000000000040000008000080000000000800000000000800000000000040100100100000000000000000000000000000000000000000000000000000000000080000000000000000800000000000000000000000800000000000000000000000000000000000000200000000000000000000000000000000000400000000000008000000000004000000000000000000001000000200000000400010000000000100000000040000000000000000000000000000000000000000000000000000000000000100000",
      "type": "0x2",
      "transactionHash": "0xbeae0f4c89c9d16d0321c3cdd4e3836f09b29c64fa7d99ce038e36342c528b82",
      "transactionIndex": "0x0",
      "blockHash": "0x29d7ded5a73c6c74d14e560bfebaa2b26b5a3730ab888cad67c426f7c4329377",
      "blockNumber": "0xfc965e",
      "gasUsed": "0x91d8",
      "effectiveGasPrice": "0x79126a507",
      "from": "0xefbbd14082cf2fbcf5badc7ee619f0f4e36d0a5b",
      "to": "0x8120a8e0688be6b2c0bb469f871e5e7023ca85eb",
      "contractAddress": null
    },
    {
      "status": "0x1",
      "cumulativeGasUsed": "0x14610",
      "logs": [
        {
          "address": "0x8120a8e0688be6b2c0bb469f871e5e7023ca85eb",
          "topics": [
            "0x9ea6790c7dadfd01c9f8b9762b3682607af2c7e79e05a9f9fdf5580dde949151",
            "0x00000000000000000000000000abb22eb950684e4314287e94f024b0a9420d40",
            "0x0000000000000000000000000000000000000000000000000000000000000001"
          ],
          "data": "0x20c5429b00000000000000000000000000000000000000000000000000000000",
          "blockHash": "0x29d7ded5a73c6c74d14e560bfebaa2b26b5a3730ab888cad67c426f7c4329377",
          "blockNumber": "0xfc965e",
          "transactionHash": "0x2acf6802a6b48a2bd7839fe943d04865b2b5c1f9a91505023c0cd91990c43650",
          "transactionIndex": "0x1",
          "logIndex": "0x2",
          "removed": false
        },
        {
          "address": "0x8120a8e0688be6b2c0bb469f871e5e7023ca85eb",
          "topics": [
            "0x9ea6790c7dadfd01c9f8b9762b3682607af2c7e79e05a9f9fdf5580dde949151",
            "0x00000000000000000000000000abb22eb950684e4314287e94f024b0a9420d40",
            "0x0000000000000000000000000000000000000000000000000000000000000001"
          ],
          "data": "0xb8adaa1100000000000000000000000000000000000000000000000000000000",
          "blockHash": "0x29d7ded5a73c6c74d14e560bfebaa2b26b5a3730ab888cad67c426f7c4329377",
          "blockNumber": "0xfc965e",
          "transactionHash": "0x2acf6802a6b48a2bd7839fe943d04865b2b5c1f9a91505023c0cd91990c43650",
          "transactionIndex": "0x1",
          "logIndex": "0x3",
          "removed": false
        },
        {
          "address": "0x8120a8e0688be6b2c0bb469f871e5e7023ca85eb",
          "topics": [
            "0x9ea6790c7dadfd01c9f8b9762b3682607af2c7e79e05a9f9fdf5580dde949151",
            "0x00000000000000000000000000abb22eb950684e4314287e94f024b0a9420d40",
            "0x0000000000000000000000000000000000000000000000000000000000000001"
          ],
          "data": "0xb759f95400000000000000000000000000000000000000000000000000000000",
          "blockHash": "0x29d7ded5a73c6c74d14e560bfebaa2b26b5a3730ab888cad67c426f7c4329377",
          "blockNumber": "0xfc965e",
          "transactionHash": "0x2acf6802a6b48a2bd7839fe943d04865b2b5c1f9a91505023c0cd91990c43650",
          "transactionIndex": "0x1",
          "logIndex": "0x4",
          "removed": false
        },
        {
          "address": "0x0000000000000000000000000000000000001010",
          "topics": [
            "0x4dfe1bbbcf077ddc3e01291eea2d5c70c2b422b415d95645b9adcfd678cb1d63",
            "0x0000000000000000000000000000000000000000000000000000000000001010",
            "0x000000000000000000000000efbbd14082cf2fbcf5badc7ee619f0f4e36d0a5b",
            "0x0000000000000000000000006ab3d36c46ecfb9b9c0bd51cb1c3da5a2c81cea6"
          ],
          "data": "0x000000000000000000000000000000000000000000000000000553b6ec72764000000000000000000000000000000000000000000000000141f5383698d54a7c00000000000000000000000000000000000000000000045aedda3fa927111cc800000000000000000000000000000000000000000000000141efe47fac62d43c00000000000000000000000000000000000000000000045aeddf936013839308",
          "blockHash": "0x29d7ded5a73c6c74d14e560bfebaa2b26b5a3730ab888cad67c426f7c4329377",
          "blockNumber": "0xfc965e",
          "transactionHash": "0x2acf6802a6b48a2bd7839fe943d04865b2b5c1f9a91505023c0cd91990c43650",
          "transactionIndex": "0x1",
          "logIndex": "0x5",
          "removed": false
        }
      ],
      "logsBloom": "0x00000004080080000000000000000000000000000000000000000000000000000000000000000000000000000000000000008000000000000000000000040000008000080000000000000000000000800000000000040100000100000000000000000000000000000000000000000000000000000000000080000000000000000800000000000000000000000800000000000000000000000000000000000000200000000000000004000000000000000000400000000000008000000000004000000000000000000001000000200000000000010000000000100000000040000000000000000000000000000000000100000000000000400000000000100000",
      "type": "0x2",
      "transactionHash": "0x2acf6802a6b48a2bd7839fe943d04865b2b5c1f9a91505023c0cd91990c43650",
      "transactionIndex": "0x1",
      "blockHash": "0x29d7ded5a73c6c74d14e560bfebaa2b26b5a3730ab888cad67c426f7c4329377",
      "blockNumber": "0xfc965e",
      "gasUsed": "0xb438",
      "effectiveGasPrice": "0x79126a507",
      "from": "0xefbbd14082cf2fbcf5badc7ee619f0f4e36d0a5b",
      "to": "0x8120a8e0688be6b2c0bb469f871e5e7023ca85eb",
      "contractAddress": null
    },
    {
      "status": "0x1",
      "cumulativeGasUsed": "0x1fa54",
      "logs": [
        {
          "address": "0x8120a8e0688be6b2c0bb469f871e5e7023ca85eb",
          "topics": [
            "0x9ea6790c7dadfd01c9f8b9762b3682607af2c7e79e05a9f9fdf5580dde949151",
            "0x000000000000000000000000a2746f0d272bb0f5273f53b4a0f476afe8873c32",
            "0x0000000000000000000000000000000000000000000000000000000000000001"
          ],
          "data": "0xf6eea09800000000000000000000000000000000000000000000000000000000",
          "blockHash": "0x29d7ded5a73c6c74d14e560bfebaa2b26b5a3730ab888cad67c426f7c4329377",
          "blockNumber": "0xfc965e",
          "transactionHash": "0x2c948553ae080867f715ddc2fc15c26c102207fa5c807d1bf65135943cb0ba6a",
          "transactionIndex": "0x2",
          "logIndex": "0x6",
          "removed": false
        },
        {
          "address": "0x8120a8e0688be6b2c0bb469f871e5e7023ca85eb",
          "topics": [
            "0x9ea6790c7dadfd01c9f8b9762b3682607af2c7e79e05a9f9fdf5580dde949151",
            "0x000000000000000000000000a2746f0d272bb0f5273f53b4a0f476afe8873c32",
            "0x0000000000000000000000000000000000000000000000000000000000000001"
          ],
          "data": "0x74a8f10300000000000000000000000000000000000000000000000000000000",
          "blockHash": "0x29d7ded5a73c6c74d14e560bfebaa2b26b5a3730ab888cad67c426f7c4329377",
          "blockNumber": "0xfc965e",
          "transactionHash": "0x2c948553ae080867f715ddc2fc15c26c102207fa5c807d1bf65135943cb0ba6a",
          "transactionIndex": "0x2",
          "logIndex": "0x7",
          "removed": false
        },
        {
          "address": "0x8120a8e0688be6b2c0bb469f871e5e7023ca85eb",
          "topics": [
            "0x9ea6790c7dadfd01c9f8b9762b3682607af2c7e79e05a9f9fdf5580dde949151",
            "0x000000000000000000000000a2746f0d272bb0f5273f53b4a0f476afe8873c32",
            "0x0000000000000000000000000000000000000000000000000000000000000001"
          ],
          "data": "0xdaea85c500000000000000000000000000000000000000000000000000000000",
          "blockHash": "0x29d7ded5a73c6c74d14e560bfebaa2b26b5a3730ab888cad67c426f7c4329377",
          "blockNumber": "0xfc965e",
          "transactionHash": "0x2c948553ae080867f715ddc2fc15c26c102207fa5c807d1bf65135943cb0ba6a",
          "transactionIndex": "0x2",
          "logIndex": "0x8",
          "removed": false
        },
        {
          "address": "0x0000000000000000000000000000000000001010",
          "topics": [
            "0x4dfe1bbbcf077ddc3e01291eea2d5c70c2b422b415d95645b9adcfd678cb1d63",
            "0x0000000000000000000000000000000000000000000000000000000000001010",
            "0x000000000000000000000000efbbd14082cf2fbcf5badc7ee619f0f4e36d0a5b",
            "0x0000000000000000000000006ab3d36c46ecfb9b9c0bd51cb1c3da5a2c81cea6"
          ],
          "data": "0x00000000000000000000000000000000000000000000000000055411ba4231e000000000000000000000000000000000000000000000000141efe47fac5844f400000000000000000000000000000000000000000000045aeddf93601383930800000000000000000000000000000000000000000000000141ea906df216131400000000000000000000000000000000000000000000045aede4e771cdc5c4e8",
          "blockHash": "0x29d7ded5a73c6c74d14e560bfebaa2b26b5a3730ab888cad67c426f7c4329377",
          "blockNumber": "0xfc965e",
          "transactionHash": "0x2c948553ae080867f715ddc2fc15c26c102207fa5c807d1bf65135943cb0ba6a",
          "transactionIndex": "0x2",
          "logIndex": "0x9",
          "removed": false
        }
      ],
      "logsBloom": "0x00000004080080000000000000000000000000000000000000000000000000000000000000000000000000000001000000008000000000000000000000040000008000080000000000000000000000800000000000040100000100000000000000000000000000000000000000000000000000000000000080000000000000000800000000000000000000000800000000000000000000000000000000000000200000000000000000000000000000000000400000000000008000000000004000000000000000000001000400200000000000010000000000100000000040000000000000000000000040000000000000000000000000000000000000100000",
      "type": "0x2",
      "transactionHash": "0x2c948553ae080867f715ddc2fc15c26c102207fa5c807d1bf65135943cb0ba6a",
      "transactionIndex": "0x2",
      "blockHash": "0x29d7ded5a73c6c74d14e560bfebaa2b26b5a3730ab888cad67c426f7c4329377",
      "blockNumber": "0xfc965e",
      "gasUsed": "0xb444",
      "effectiveGasPrice": "0x79126a507",
      "from": "0xefbbd14082cf2fbcf5badc7ee619f0f4e36d0a5b",
      "to": "0x8120a8e0688be6b2c0bb469f871e5e7023ca85eb",
      "contractAddress": null
    },
    {
      "status": "0x1",
      "cumulativeGasUsed": "0x29d07",
      "logs": [
        {
          "address": "0x8120a8e0688be6b2c0bb469f871e5e7023ca85eb",
          "topics": [
            "0xf98448b987f1428e0e230e1f3c6e2ce15b5693eaf31827fbd0b1ec4b424ae7cf",
            "0x0000000000000000000000000000000000000000000000000000000000000002",
            "0x000000000000000000000000efbbd14082cf2fbcf5badc7ee619f0f4e36d0a5b"
          ],
          "data": "0x000000000000000000000000000000000000000000000000000000000000000000000000000000000000000000000000000000000000000000000000677ca8bd0000000000000000000000000000000000000000000000000000000000000000",
          "blockHash": "0x29d7ded5a73c6c74d14e560bfebaa2b26b5a3730ab888cad67c426f7c4329377",
          "blockNumber": "0xfc965e",
          "transactionHash": "0x8b91719b5d63f73fc129c6b3bb6c5576ddd707727acb53debc9add4514acf0d7",
          "transactionIndex": "0x3",
          "logIndex": "0xa",
          "removed": false
        },
        {
          "address": "0x0000000000000000000000000000000000001010",
          "topics": [
            "0x4dfe1bbbcf077ddc3e01291eea2d5c70c2b422b415d95645b9adcfd678cb1d63",
            "0x0000000000000000000000000000000000000000000000000000000000001010",
            "0x000000000000000000000000efbbd14082cf2fbcf5badc7ee619f0f4e36d0a5b",
            "0x0000000000000000000000006ab3d36c46ecfb9b9c0bd51cb1c3da5a2c81cea6"
          ],
          "data": "0x0000000000000000000000000000000000000000000000000004cf24f26a496800000000000000000000000000000000000000000000000141ea906df20b831800000000000000000000000000000000000000000000045aede4e771cdc5c4e800000000000000000000000000000000000000000000000141e5c148ffa139b000000000000000000000000000000000000000000000045aede9b696c0300e50",
          "blockHash": "0x29d7ded5a73c6c74d14e560bfebaa2b26b5a3730ab888cad67c426f7c4329377",
          "blockNumber": "0xfc965e",
          "transactionHash": "0x8b91719b5d63f73fc129c6b3bb6c5576ddd707727acb53debc9add4514acf0d7",
          "transactionIndex": "0x3",
          "logIndex": "0xb",
          "removed": false
        }
      ],
      "logsBloom": "0x04000000080000000000000000000000000000000000000000000000000000000000000000000000000000000000000000008000000000000000000000000000008000080000000000000000000000800000000000000100000100000000000000000000000000000000000000000000000000000000000080000000000000000800000000000000000000000800000008000000000000000000000000000000200000000000000000002100000000000000400000000008008000000000004000000000000000000001000000000000000000010000000000100000000000000000000000000000000000000000000000000000008000000000000000100000",
      "type": "0x2",
      "transactionHash": "0x8b91719b5d63f73fc129c6b3bb6c5576ddd707727acb53debc9add4514acf0d7",
      "transactionIndex": "0x3",
      "blockHash": "0x29d7ded5a73c6c74d14e560bfebaa2b26b5a3730ab888cad67c426f7c4329377",
      "blockNumber": "0xfc965e",
      "gasUsed": "0xa2b3",
      "effectiveGasPrice": "0x79126a507",
      "from": "0xefbbd14082cf2fbcf5badc7ee619f0f4e36d0a5b",
      "to": "0x8120a8e0688be6b2c0bb469f871e5e7023ca85eb",
      "contractAddress": null
    },
    {
      "status": "0x1",
      "cumulativeGasUsed": "0x34015",
      "logs": [
        {
          "address": "0x8120a8e0688be6b2c0bb469f871e5e7023ca85eb",
          "topics": [
            "0x9ea6790c7dadfd01c9f8b9762b3682607af2c7e79e05a9f9fdf5580dde949151",
            "0x0000000000000000000000008db5ae2ae14e189c7d0e8f9c67643170e5508874",
            "0x0000000000000000000000000000000000000000000000000000000000000002"
          ],
          "data": "0xdaea85c500000000000000000000000000000000000000000000000000000000",
          "blockHash": "0x29d7ded5a73c6c74d14e560bfebaa2b26b5a3730ab888cad67c426f7c4329377",
          "blockNumber": "0xfc965e",
          "transactionHash": "0x6e9672dadbe1239eb3f944d1602723e680c494a6d147761f0a33d4951b3f1f0d",
          "transactionIndex": "0x4",
          "logIndex": "0xc",
          "removed": false
        },
        {
          "address": "0x8120a8e0688be6b2c0bb469f871e5e7023ca85eb",
          "topics": [
            "0x9ea6790c7dadfd01c9f8b9762b3682607af2c7e79e05a9f9fdf5580dde949151",
            "0x0000000000000000000000008db5ae2ae14e189c7d0e8f9c67643170e5508874",
            "0x0000000000000000000000000000000000000000000000000000000000000002"
          ],
          "data": "0xab0da5a900000000000000000000000000000000000000000000000000000000",
          "blockHash": "0x29d7ded5a73c6c74d14e560bfebaa2b26b5a3730ab888cad67c426f7c4329377",
          "blockNumber": "0xfc965e",
          "transactionHash": "0x6e9672dadbe1239eb3f944d1602723e680c494a6d147761f0a33d4951b3f1f0d",
          "transactionIndex": "0x4",
          "logIndex": "0xd",
          "removed": false
        },
        {
          "address": "0x0000000000000000000000000000000000001010",
          "topics": [
            "0x4dfe1bbbcf077ddc3e01291eea2d5c70c2b422b415d95645b9adcfd678cb1d63",
            "0x0000000000000000000000000000000000000000000000000000000000001010",
            "0x000000000000000000000000efbbd14082cf2fbcf5badc7ee619f0f4e36d0a5b",
            "0x0000000000000000000000006ab3d36c46ecfb9b9c0bd51cb1c3da5a2c81cea6"
          ],
          "data": "0x0000000000000000000000000000000000000000000000000004d1d58b26ed9000000000000000000000000000000000000000000000000141e5c148ff97b13300000000000000000000000000000000000000000000045aede9b696c0300e5000000000000000000000000000000000000000000000000141e0ef737470c3a300000000000000000000000000000000000000000000045aedee886c4b56fbe0",
          "blockHash": "0x29d7ded5a73c6c74d14e560bfebaa2b26b5a3730ab888cad67c426f7c4329377",
          "blockNumber": "0xfc965e",
          "transactionHash": "0x6e9672dadbe1239eb3f944d1602723e680c494a6d147761f0a33d4951b3f1f0d",
          "transactionIndex": "0x4",
          "logIndex": "0xe",
          "removed": false
        }
      ],
      "logsBloom": "0x04000004080080000000000000000000000000000000000000000000000000002000000000000000000000000000000000008000000000000000000000000000008000080000000000000000000000800000000000004100000100000000000000000000000000000000000000000000000000000000000080000000000000000800000000000000000000000800000000000000000000000000000000020000200000000000000000000100000000000000400000000000008000000000004000000000000000000001000000200000000000010000000000100000000000000000000000000000000000000000000000000000008000000000000000100000",
      "type": "0x2",
      "transactionHash": "0x6e9672dadbe1239eb3f944d1602723e680c494a6d147761f0a33d4951b3f1f0d",
      "transactionIndex": "0x4",
      "blockHash": "0x29d7ded5a73c6c74d14e560bfebaa2b26b5a3730ab888cad67c426f7c4329377",
      "blockNumber": "0xfc965e",
      "gasUsed": "0xa30e",
      "effectiveGasPrice": "0x79126a507",
      "from": "0xefbbd14082cf2fbcf5badc7ee619f0f4e36d0a5b",
      "to": "0x8120a8e0688be6b2c0bb469f871e5e7023ca85eb",
      "contractAddress": null
    },
    {
      "status": "0x1",
      "cumulativeGasUsed": "0x3e2c8",
      "logs": [
        {
          "address": "0x8120a8e0688be6b2c0bb469f871e5e7023ca85eb",
          "topics": [
            "0xf98448b987f1428e0e230e1f3c6e2ce15b5693eaf31827fbd0b1ec4b424ae7cf",
            "0x0000000000000000000000000000000000000000000000000000000000000004",
            "0x0000000000000000000000005945c1417ad688ef90cf3e61263b404b96a0c20b"
          ],
          "data": "0x000000000000000000000000000000000000000000000000000000000000000000000000000000000000000000000000000000000000000000000000677ca8bd0000000000000000000000000000000000000000000000000000000000000000",
          "blockHash": "0x29d7ded5a73c6c74d14e560bfebaa2b26b5a3730ab888cad67c426f7c4329377",
          "blockNumber": "0xfc965e",
          "transactionHash": "0x8ab1f8ad3d670ba18bd23001c666010d565891ef61fbdd0213de4ea4b839beaf",
          "transactionIndex": "0x5",
          "logIndex": "0xf",
          "removed": false
        },
        {
          "address": "0x0000000000000000000000000000000000001010",
          "topics": [
            "0x4dfe1bbbcf077ddc3e01291eea2d5c70c2b422b415d95645b9adcfd678cb1d63",
            "0x0000000000000000000000000000000000000000000000000000000000001010",
            "0x000000000000000000000000efbbd14082cf2fbcf5badc7ee619f0f4e36d0a5b",
            "0x0000000000000000000000006ab3d36c46ecfb9b9c0bd51cb1c3da5a2c81cea6"
          ],
          "data": "0x0000000000000000000000000000000000000000000000000004cf24f26a496800000000000000000000000000000000000000000000000141e0ef73746735d100000000000000000000000000000000000000000000045aedee886c4b56fbe000000000000000000000000000000000000000000000000141dc204e81fcec6900000000000000000000000000000000000000000000045aedf357913dc14548",
          "blockHash": "0x29d7ded5a73c6c74d14e560bfebaa2b26b5a3730ab888cad67c426f7c4329377",
          "blockNumber": "0xfc965e",
          "transactionHash": "0x8ab1f8ad3d670ba18bd23001c666010d565891ef61fbdd0213de4ea4b839beaf",
          "transactionIndex": "0x5",
          "logIndex": "0x10",
          "removed": false
        }
      ],
      "logsBloom": "0x0000000008000000000000000000000000000000000000000000000000000000000000000000000000000000000000000000800000000000000000000000000000800208000000000000000000000080000000000000010000010000000000000800000000000000000000000000000000000000000000008000000000000000080000000000000000000000084000000800000000000000000000000000000020000000000000000000200000000000000040000000000840a000000000004000000000000000000001000000000000000000018000000000100000000000000000000000000000000000000000000000000000000000000000000000100000",
      "type": "0x2",
      "transactionHash": "0x8ab1f8ad3d670ba18bd23001c666010d565891ef61fbdd0213de4ea4b839beaf",
      "transactionIndex": "0x5",
      "blockHash": "0x29d7ded5a73c6c74d14e560bfebaa2b26b5a3730ab888cad67c426f7c4329377",
      "blockNumber": "0xfc965e",
      "gasUsed": "0xa2b3",
      "effectiveGasPrice": "0x79126a507",
      "from": "0xefbbd14082cf2fbcf5badc7ee619f0f4e36d0a5b",
      "to": "0x8120a8e0688be6b2c0bb469f871e5e7023ca85eb",
      "contractAddress": null
    },
    {
      "status": "0x1",
      "cumulativeGasUsed": "0x4857b",
      "logs": [
        {
          "address": "0x8120a8e0688be6b2c0bb469f871e5e7023ca85eb",
          "topics": [
            "0xf98448b987f1428e0e230e1f3c6e2ce15b5693eaf31827fbd0b1ec4b424ae7cf",
            "0x0000000000000000000000000000000000000000000000000000000000000004",
            "0x00000000000000000000000031b351e4c217f838190825586caa8494ee1ca635"
          ],
          "data": "0x000000000000000000000000000000000000000000000000000000000000000000000000000000000000000000000000000000000000000000000000677ca8bd0000000000000000000000000000000000000000000000000000000000000000",
          "blockHash": "0x29d7ded5a73c6c74d14e560bfebaa2b26b5a3730ab888cad67c426f7c4329377",
          "blockNumber": "0xfc965e",
          "transactionHash": "0x5fef35f4f57d6b7bb94e6835f3aa773eb2d3ec7a903076167273e4e1767e54b3",
          "transactionIndex": "0x6",
          "logIndex": "0x11",
          "removed": false
        },
        {
          "address": "0x0000000000000000000000000000000000001010",
          "topics": [
            "0x4dfe1bbbcf077ddc3e01291eea2d5c70c2b422b415d95645b9adcfd678cb1d63",
            "0x0000000000000000000000000000000000000000000000000000000000001010",
            "0x000000000000000000000000efbbd14082cf2fbcf5badc7ee619f0f4e36d0a5b",
            "0x0000000000000000000000006ab3d36c46ecfb9b9c0bd51cb1c3da5a2c81cea6"
          ],
          "data": "0x0000000000000000000000000000000000000000000000000004cf24f26a496800000000000000000000000000000000000000000000000141dc204e81f363ec00000000000000000000000000000000000000000000045aedf357913dc1454800000000000000000000000000000000000000000000000141d751298f891a8400000000000000000000000000000000000000000000045aedf826b6302b8eb0",
          "blockHash": "0x29d7ded5a73c6c74d14e560bfebaa2b26b5a3730ab888cad67c426f7c4329377",
          "blockNumber": "0xfc965e",
          "transactionHash": "0x5fef35f4f57d6b7bb94e6835f3aa773eb2d3ec7a903076167273e4e1767e54b3",
          "transactionIndex": "0x6",
          "logIndex": "0x12",
          "removed": false
        }
      ],
      "logsBloom": "0x0000000008000000000000000000000000000000000000000000000000000000000000000000000000000000000000000000800000000000000000000000000000800008000000000000000000000080000000000000010000010000000000000800000000000000000000000000000000000000000000008000000000800000080000000000000000000000080000000800000000000000000000000000000020000000000000000000200000000000000040000000000800a000000000004002000000000000000001000000000000000000018000000000100010000000000000000000000000000000000000000000000000000000000000000000100000",
      "type": "0x2",
      "transactionHash": "0x5fef35f4f57d6b7bb94e6835f3aa773eb2d3ec7a903076167273e4e1767e54b3",
      "transactionIndex": "0x6",
      "blockHash": "0x29d7ded5a73c6c74d14e560bfebaa2b26b5a3730ab888cad67c426f7c4329377",
      "blockNumber": "0xfc965e",
      "gasUsed": "0xa2b3",
      "effectiveGasPrice": "0x79126a507",
      "from": "0xefbbd14082cf2fbcf5badc7ee619f0f4e36d0a5b",
      "to": "0x8120a8e0688be6b2c0bb469f871e5e7023ca85eb",
      "contractAddress": null
    },
    {
      "status": "0x1",
      "cumulativeGasUsed": "0x5282e",
      "logs": [
        {
          "address": "0x8120a8e0688be6b2c0bb469f871e5e7023ca85eb",
          "topics": [
            "0xf98448b987f1428e0e230e1f3c6e2ce15b5693eaf31827fbd0b1ec4b424ae7cf",
            "0x0000000000000000000000000000000000000000000000000000000000000004",
            "0x000000000000000000000000a2746f0d272bb0f5273f53b4a0f476afe8873c32"
          ],
          "data": "0x000000000000000000000000000000000000000000000000000000000000000000000000000000000000000000000000000000000000000000000000677ca8bd0000000000000000000000000000000000000000000000000000000000000000",
          "blockHash": "0x29d7ded5a73c6c74d14e560bfebaa2b26b5a3730ab888cad67c426f7c4329377",
          "blockNumber": "0xfc965e",
          "transactionHash": "0x2c0b3932c07f0d05822d41fa5cb0b84d7eff764658e7bc1f10512e3262cb1322",
          "transactionIndex": "0x7",
          "logIndex": "0x13",
          "removed": false
        },
        {
          "address": "0x0000000000000000000000000000000000001010",
          "topics": [
            "0x4dfe1bbbcf077ddc3e01291eea2d5c70c2b422b415d95645b9adcfd678cb1d63",
            "0x0000000000000000000000000000000000000000000000000000000000001010",
            "0x000000000000000000000000efbbd14082cf2fbcf5badc7ee619f0f4e36d0a5b",
            "0x0000000000000000000000006ab3d36c46ecfb9b9c0bd51cb1c3da5a2c81cea6"
          ],
          "data": "0x0000000000000000000000000000000000000000000000000004cf24f26a496800000000000000000000000000000000000000000000000141d751298f7f920700000000000000000000000000000000000000000000045aedf826b6302b8eb000000000000000000000000000000000000000000000000141d282049d15489f00000000000000000000000000000000000000000000045aedfcf5db2295d818",
          "blockHash": "0x29d7ded5a73c6c74d14e560bfebaa2b26b5a3730ab888cad67c426f7c4329377",
          "blockNumber": "0xfc965e",
          "transactionHash": "0x2c0b3932c07f0d05822d41fa5cb0b84d7eff764658e7bc1f10512e3262cb1322",
          "transactionIndex": "0x7",
          "logIndex": "0x14",
          "removed": false
        }
      ],
      "logsBloom": "0x0000000008000000000000000000000000000000000000000000000000000000000000000000000000000000000100000000800000000000000000000000000000800008000000000000000000000080000000000000010000010000000000000800000000000000000000000000000000000000000000008000000000000000080000000000000000000000080000000800000000000000000000000000000020000000000000000000200000000000000040000000000800a000000000004000000000000000000001000400000000000000018000000000100000000000000000000000000000000040000000000000000000000000000000000000100000",
      "type": "0x2",
      "transactionHash": "0x2c0b3932c07f0d05822d41fa5cb0b84d7eff764658e7bc1f10512e3262cb1322",
      "transactionIndex": "0x7",
      "blockHash": "0x29d7ded5a73c6c74d14e560bfebaa2b26b5a3730ab888cad67c426f7c4329377",
      "blockNumber": "0xfc965e",
      "gasUsed": "0xa2b3",
      "effectiveGasPrice": "0x79126a507",
      "from": "0xefbbd14082cf2fbcf5badc7ee619f0f4e36d0a5b",
      "to": "0x8120a8e0688be6b2c0bb469f871e5e7023ca85eb",
      "contractAddress": null
    },
    {
      "status": "0x1",
      "cumulativeGasUsed": "0x5dc72",
      "logs": [
        {
          "address": "0x8120a8e0688be6b2c0bb469f871e5e7023ca85eb",
          "topics": [
            "0x9ea6790c7dadfd01c9f8b9762b3682607af2c7e79e05a9f9fdf5580dde949151",
            "0x00000000000000000000000083266ca8147572839bb23a204db52bd26a1fceaa",
            "0x0000000000000000000000000000000000000000000000000000000000000004"
          ],
          "data": "0x4bbc170a00000000000000000000000000000000000000000000000000000000",
          "blockHash": "0x29d7ded5a73c6c74d14e560bfebaa2b26b5a3730ab888cad67c426f7c4329377",
          "blockNumber": "0xfc965e",
          "transactionHash": "0xda9eff68b2de3b342884c9d3691c7967c8d71639f8dc7fd7e032ed03e177dbc1",
          "transactionIndex": "0x8",
          "logIndex": "0x15",
          "removed": false
        },
        {
          "address": "0x8120a8e0688be6b2c0bb469f871e5e7023ca85eb",
          "topics": [
            "0x9ea6790c7dadfd01c9f8b9762b3682607af2c7e79e05a9f9fdf5580dde949151",
            "0x00000000000000000000000083266ca8147572839bb23a204db52bd26a1fceaa",
            "0x0000000000000000000000000000000000000000000000000000000000000004"
          ],
          "data": "0x15f4150100000000000000000000000000000000000000000000000000000000",
          "blockHash": "0x29d7ded5a73c6c74d14e560bfebaa2b26b5a3730ab888cad67c426f7c4329377",
          "blockNumber": "0xfc965e",
          "transactionHash": "0xda9eff68b2de3b342884c9d3691c7967c8d71639f8dc7fd7e032ed03e177dbc1",
          "transactionIndex": "0x8",
          "logIndex": "0x16",
          "removed": false
        },
        {
          "address": "0x8120a8e0688be6b2c0bb469f871e5e7023ca85eb",
          "topics": [
            "0x9ea6790c7dadfd01c9f8b9762b3682607af2c7e79e05a9f9fdf5580dde949151",
            "0x00000000000000000000000083266ca8147572839bb23a204db52bd26a1fceaa",
            "0x0000000000000000000000000000000000000000000000000000000000000004"
          ],
          "data": "0x9e96a26000000000000000000000000000000000000000000000000000000000",
          "blockHash": "0x29d7ded5a73c6c74d14e560bfebaa2b26b5a3730ab888cad67c426f7c4329377",
          "blockNumber": "0xfc965e",
          "transactionHash": "0xda9eff68b2de3b342884c9d3691c7967c8d71639f8dc7fd7e032ed03e177dbc1",
          "transactionIndex": "0x8",
          "logIndex": "0x17",
          "removed": false
        },
        {
          "address": "0x0000000000000000000000000000000000001010",
          "topics": [
            "0x4dfe1bbbcf077ddc3e01291eea2d5c70c2b422b415d95645b9adcfd678cb1d63",
            "0x0000000000000000000000000000000000000000000000000000000000001010",
            "0x000000000000000000000000efbbd14082cf2fbcf5badc7ee619f0f4e36d0a5b",
            "0x0000000000000000000000006ab3d36c46ecfb9b9c0bd51cb1c3da5a2c81cea6"
          ],
          "data": "0x00000000000000000000000000000000000000000000000000055411ba4231e000000000000000000000000000000000000000000000000141d282049d0bc02200000000000000000000000000000000000000000000045aedfcf5db2295d81800000000000000000000000000000000000000000000000141cd2df2e2c98e4200000000000000000000000000000000000000000000045aee0249ecdcd809f8",
          "blockHash": "0x29d7ded5a73c6c74d14e560bfebaa2b26b5a3730ab888cad67c426f7c4329377",
          "blockNumber": "0xfc965e",
          "transactionHash": "0xda9eff68b2de3b342884c9d3691c7967c8d71639f8dc7fd7e032ed03e177dbc1",
          "transactionIndex": "0x8",
          "logIndex": "0x18",
          "removed": false
        }
      ],
      "logsBloom": "0x0000000408008000000000000000000000000000000000000000000000000000000000000000000000000000000000000000800000000000000000000000000000800008000000000000000000000080000000000000010000010000000000000800000000000000000000000000000000000000000000008000000000000000080000000000000000000000080000000000000000000040000000000000000020000000000000000000000000000000000040000000000000a000000000004000000000000000000001000000200001000000018000000000100000000000000000008000000000000000000000000000000000000000000000000000100000",
      "type": "0x2",
      "transactionHash": "0xda9eff68b2de3b342884c9d3691c7967c8d71639f8dc7fd7e032ed03e177dbc1",
      "transactionIndex": "0x8",
      "blockHash": "0x29d7ded5a73c6c74d14e560bfebaa2b26b5a3730ab888cad67c426f7c4329377",
      "blockNumber": "0xfc965e",
      "gasUsed": "0xb444",
      "effectiveGasPrice": "0x79126a507",
      "from": "0xefbbd14082cf2fbcf5badc7ee619f0f4e36d0a5b",
      "to": "0x8120a8e0688be6b2c0bb469f871e5e7023ca85eb",
      "contractAddress": null
    },
    {
      "status": "0x1",
      "cumulativeGasUsed": "0x6b3c4",
      "logs": [
        {
          "address": "0x4580859e64385e3e82ee64da2bc06ef84bde851a",
          "topics": [
            "0x9621c1829ce5206009d367ce68b7c4fe6b4bbd70dbe22c21e5bd2a51a716c51c",
            "0x000000000000000000000000f06e1998119caedf8e084194aa5fea89ea9389c3",
            "0x0000000000000000000000003c7deb6feaeb7a82bde580fb73d8d69c401b219e"
          ],
          "data": "0x000000000000000000000000000000000000000000000000000000000000000300000000000000000000000000000000000000000000000000000000000001f4",
          "blockHash": "0x29d7ded5a73c6c74d14e560bfebaa2b26b5a3730ab888cad67c426f7c4329377",
          "blockNumber": "0xfc965e",
          "transactionHash": "0x8c35e5a6743c69374bcb2e49060b46cc42e3d46d0a73f4e115165057d752e394",
          "transactionIndex": "0x9",
          "logIndex": "0x19",
          "removed": false
        },
        {
          "address": "0x0000000000000000000000000000000000001010",
          "topics": [
            "0x4dfe1bbbcf077ddc3e01291eea2d5c70c2b422b415d95645b9adcfd678cb1d63",
            "0x0000000000000000000000000000000000000000000000000000000000001010",
            "0x000000000000000000000000efbbd14082cf2fbcf5badc7ee619f0f4e36d0a5b",
            "0x0000000000000000000000006ab3d36c46ecfb9b9c0bd51cb1c3da5a2c81cea6"
          ],
          "data": "0x00000000000000000000000000000000000000000000000000065d53f2ed1f7000000000000000000000000000000000000000000000000141cd2df2e2befe4600000000000000000000000000000000000000000000045aee0249ecdcd809f800000000000000000000000000000000000000000000000141c6d09eefd1ded600000000000000000000000000000000000000000000045aee08a740cfc52968",
          "blockHash": "0x29d7ded5a73c6c74d14e560bfebaa2b26b5a3730ab888cad67c426f7c4329377",
          "blockNumber": "0xfc965e",
          "transactionHash": "0x8c35e5a6743c69374bcb2e49060b46cc42e3d46d0a73f4e115165057d752e394",
          "transactionIndex": "0x9",
          "logIndex": "0x1a",
          "removed": false
        }
      ],
      "logsBloom": "0x0000004008000000000000000000000000000000000180000080000000000000000000000000000000000000000200000000800000000000080000040000000000800008000000000000000000000080000000000000002000010000000000000000100000000000000000000000000000000000000000008000000000000000080000000000000000000000000000000000000000000000000000000000000020000000000000000000000000000000000040000000000000000000000000400000000000a000000001080000000000000000010000000000100000000000000000000000000000000000000000000000000000000000000000000000100000",
      "type": "0x2",
      "transactionHash": "0x8c35e5a6743c69374bcb2e49060b46cc42e3d46d0a73f4e115165057d752e394",
      "transactionIndex": "0x9",
      "blockHash": "0x29d7ded5a73c6c74d14e560bfebaa2b26b5a3730ab888cad67c426f7c4329377",
      "blockNumber": "0xfc965e",
      "gasUsed": "0xd752",
      "effectiveGasPrice": "0x79126a507",
      "from": "0xefbbd14082cf2fbcf5badc7ee619f0f4e36d0a5b",
      "to": "0x4580859e64385e3e82ee64da2bc06ef84bde851a",
      "contractAddress": null
    },
    {
      "status": "0x1",
      "cumulativeGasUsed": "0x78b3b",
      "logs": [
        {
          "address": "0x4580859e64385e3e82ee64da2bc06ef84bde851a",
          "topics": [
            "0x9621c1829ce5206009d367ce68b7c4fe6b4bbd70dbe22c21e5bd2a51a716c51c",
            "0x000000000000000000000000a2746f0d272bb0f5273f53b4a0f476afe8873c32",
            "0x0000000000000000000000003c7deb6feaeb7a82bde580fb73d8d69c401b219e"
          ],
          "data": "0x00000000000000000000000000000000000000000000000000000000000000010000000000000000000000000000000000000000000000056bc75e2d63100000",
          "blockHash": "0x29d7ded5a73c6c74d14e560bfebaa2b26b5a3730ab888cad67c426f7c4329377",
          "blockNumber": "0xfc965e",
          "transactionHash": "0xec176c696d80e45fcc0c87df06af78fa78252d704d120b370f8f119ef80bd4fa",
          "transactionIndex": "0xa",
          "logIndex": "0x1b",
          "removed": false
        },
        {
          "address": "0x0000000000000000000000000000000000001010",
          "topics": [
            "0x4dfe1bbbcf077ddc3e01291eea2d5c70c2b422b415d95645b9adcfd678cb1d63",
            "0x0000000000000000000000000000000000000000000000000000000000001010",
            "0x000000000000000000000000efbbd14082cf2fbcf5badc7ee619f0f4e36d0a5b",
            "0x0000000000000000000000006ab3d36c46ecfb9b9c0bd51cb1c3da5a2c81cea6"
          ],
          "data": "0x00000000000000000000000000000000000000000000000000065e6bed82f74800000000000000000000000000000000000000000000000141c6d09eefc5410800000000000000000000000000000000000000000000045aee08a740cfc5296800000000000000000000000000000000000000000000000141c07233024249c000000000000000000000000000000000000000000000045aee0f05acbd4820b0",
          "blockHash": "0x29d7ded5a73c6c74d14e560bfebaa2b26b5a3730ab888cad67c426f7c4329377",
          "blockNumber": "0xfc965e",
          "transactionHash": "0xec176c696d80e45fcc0c87df06af78fa78252d704d120b370f8f119ef80bd4fa",
          "transactionIndex": "0xa",
          "logIndex": "0x1c",
          "removed": false
        }
      ],
      "logsBloom": "0x0000000008000000000000000000000000000000000080000080000000000000000000000000000000000000000300000000800000000000080000040000000000800008000000000000000000000080000000000000002000010000000000000000100000000000000000000000000000000000000000008000000000000000080000000000000000000000000000000000000000000000000000000000000020000000000000000000000000000000000040000000000000000000000000400000000000a000000001000400000000000000010000000000100000000000000000000000000000000040000000000000000000000000000000000000100000",
      "type": "0x2",
      "transactionHash": "0xec176c696d80e45fcc0c87df06af78fa78252d704d120b370f8f119ef80bd4fa",
      "transactionIndex": "0xa",
      "blockHash": "0x29d7ded5a73c6c74d14e560bfebaa2b26b5a3730ab888cad67c426f7c4329377",
      "blockNumber": "0xfc965e",
      "gasUsed": "0xd777",
      "effectiveGasPrice": "0x79126a507",
      "from": "0xefbbd14082cf2fbcf5badc7ee619f0f4e36d0a5b",
      "to": "0x4580859e64385e3e82ee64da2bc06ef84bde851a",
      "contractAddress": null
    }
  ],
  "libraries": [],
  "pending": [],
  "returns": {},
  "timestamp": 1736222911,
  "chain": 80002,
  "commit": "0798d1a"
}