{
  "transactions": [
    {
      "hash": "0x8ac5f9428422c187e72cae76d1c5c31fc4769f9ccdf2cad8cb99fbf2533cb13a",
      "transactionType": "CALL",
      "contractName": null,
      "contractAddress": "0x153dd810703687be7a516888728aaa54aba049d4",
      "function": "grantRole(uint64,address,uint32)",
      "arguments": [
        "1",
        "0xEFBBD14082cF2FbCf5Badc7ee619F0f4e36D0A5B",
        "0"
      ],
      "transaction": {
        "from": "0xefbbd14082cf2fbcf5badc7ee619f0f4e36d0a5b",
        "to": "0x153dd810703687be7a516888728aaa54aba049d4",
        "gas": "0xedf2",
        "value": "0x0",
        "input": "0x25c471a00000000000000000000000000000000000000000000000000000000000000001000000000000000000000000efbbd14082cf2fbcf5badc7ee619f0f4e36d0a5b0000000000000000000000000000000000000000000000000000000000000000",
        "nonce": "0x5d5",
        "chainId": "0x13882"
      },
      "additionalContracts": [],
      "isFixedGasLimit": false
    },
    {
      "hash": "0x675417557fb2df5067d6113812a87a9887a7451c39db95f7350105956e8c2e8d",
      "transactionType": "CALL",
      "contractName": null,
      "contractAddress": "0x153dd810703687be7a516888728aaa54aba049d4",
      "function": "setTargetFunctionRole(address,bytes4[],uint64)",
      "arguments": [
        "0x9CeA2791027696BB07fE7510eAE5dC72AE3070Fc",
        "[0xecf441b7]",
        "1"
      ],
      "transaction": {
        "from": "0xefbbd14082cf2fbcf5badc7ee619f0f4e36d0a5b",
        "to": "0x153dd810703687be7a516888728aaa54aba049d4",
        "gas": "0xc971",
        "value": "0x0",
        "input": "0x08d6122d0000000000000000000000009cea2791027696bb07fe7510eae5dc72ae3070fc000000000000000000000000000000000000000000000000000000000000006000000000000000000000000000000000000000000000000000000000000000010000000000000000000000000000000000000000000000000000000000000001ecf441b700000000000000000000000000000000000000000000000000000000",
        "nonce": "0x5d6",
        "chainId": "0x13882"
      },
      "additionalContracts": [],
      "isFixedGasLimit": false
    },
    {
      "hash": "0xcffbeb16b810aa72b4709c8a6c2e84386c1fdc9289be3d4a9f232cd101ac48f7",
      "transactionType": "CALL",
      "contractName": null,
      "contractAddress": "0x153dd810703687be7a516888728aaa54aba049d4",
      "function": "setTargetFunctionRole(address,bytes4[],uint64)",
      "arguments": [
        "0x93A3c701505A47e8B41C9e8Be21Cfe92D2247390",
        "[0x06af20da]",
        "1"
      ],
      "transaction": {
        "from": "0xefbbd14082cf2fbcf5badc7ee619f0f4e36d0a5b",
        "to": "0x153dd810703687be7a516888728aaa54aba049d4",
        "gas": "0xc971",
        "value": "0x0",
        "input": "0x08d6122d00000000000000000000000093a3c701505a47e8b41c9e8be21cfe92d224739000000000000000000000000000000000000000000000000000000000000000600000000000000000000000000000000000000000000000000000000000000001000000000000000000000000000000000000000000000000000000000000000106af20da00000000000000000000000000000000000000000000000000000000",
        "nonce": "0x5d7",
        "chainId": "0x13882"
      },
      "additionalContracts": [],
      "isFixedGasLimit": false
    },
    {
      "hash": "0x00c1be61abda3166f37845482748d3ea1690f13378f31ab1e1958fa8f3b167c5",
      "transactionType": "CALL",
      "contractName": null,
      "contractAddress": "0x153dd810703687be7a516888728aaa54aba049d4",
      "function": "setTargetFunctionRole(address,bytes4[],uint64)",
      "arguments": [
        "0xe39913753a1b3aC274f5E857F675fA5D7cAB8D86",
        "[0xdaea85c5, 0xab0da5a9]",
        "1"
      ],
      "transaction": {
        "from": "0xefbbd14082cf2fbcf5badc7ee619f0f4e36d0a5b",
        "to": "0x153dd810703687be7a516888728aaa54aba049d4",
        "gas": "0xe137",
        "value": "0x0",
        "input": "0x08d6122d000000000000000000000000e39913753a1b3ac274f5e857f675fa5d7cab8d86000000000000000000000000000000000000000000000000000000000000006000000000000000000000000000000000000000000000000000000000000000010000000000000000000000000000000000000000000000000000000000000002daea85c500000000000000000000000000000000000000000000000000000000ab0da5a900000000000000000000000000000000000000000000000000000000",
        "nonce": "0x5d8",
        "chainId": "0x13882"
      },
      "additionalContracts": [],
      "isFixedGasLimit": false
    },
    {
      "hash": "0x08706d7951eec350c2ca942479036e346e06ac60008ab52151351c13f12ff975",
      "transactionType": "CALL",
      "contractName": null,
      "contractAddress": "0x153dd810703687be7a516888728aaa54aba049d4",
      "function": "setTargetFunctionRole(address,bytes4[],uint64)",
      "arguments": [
        "0x1C6A0442C017978cF5795A04F96c89aEf72719D0",
        "[0x20c5429b, 0xb8adaa11, 0xb759f954]",
        "1"
      ],
      "transaction": {
        "from": "0xefbbd14082cf2fbcf5badc7ee619f0f4e36d0a5b",
        "to": "0x153dd810703687be7a516888728aaa54aba049d4",
        "gas": "0xf8fd",
        "value": "0x0",
        "input": "0x08d6122d0000000000000000000000001c6a0442c017978cf5795a04f96c89aef72719d000000000000000000000000000000000000000000000000000000000000000600000000000000000000000000000000000000000000000000000000000000001000000000000000000000000000000000000000000000000000000000000000320c5429b00000000000000000000000000000000000000000000000000000000b8adaa1100000000000000000000000000000000000000000000000000000000b759f95400000000000000000000000000000000000000000000000000000000",
        "nonce": "0x5d9",
        "chainId": "0x13882"
      },
      "additionalContracts": [],
      "isFixedGasLimit": false
    },
    {
      "hash": "0x65601cd8e065e496ff9c5df26e98bdb86fcd73abcb73cb2f20d929374a8bae66",
      "transactionType": "CALL",
      "contractName": null,
      "contractAddress": "0x153dd810703687be7a516888728aaa54aba049d4",
      "function": "setTargetFunctionRole(address,bytes4[],uint64)",
      "arguments": [
        "0x0D3450Ce1Cd2e307aba78Aba8f09eb15E8A4FF73",
        "[0xf6eea098, 0x74a8f103, 0xdaea85c5]",
        "1"
      ],
      "transaction": {
        "from": "0xefbbd14082cf2fbcf5badc7ee619f0f4e36d0a5b",
        "to": "0x153dd810703687be7a516888728aaa54aba049d4",
        "gas": "0xf8fd",
        "value": "0x0",
        "input": "0x08d6122d0000000000000000000000000d3450ce1cd2e307aba78aba8f09eb15e8a4ff73000000000000000000000000000000000000000000000000000000000000006000000000000000000000000000000000000000000000000000000000000000010000000000000000000000000000000000000000000000000000000000000003f6eea0980000000000000000000000000000000000000000000000000000000074a8f10300000000000000000000000000000000000000000000000000000000daea85c500000000000000000000000000000000000000000000000000000000",
        "nonce": "0x5da",
        "chainId": "0x13882"
      },
      "additionalContracts": [],
      "isFixedGasLimit": false
    },
    {
      "hash": "0x814e2fbb00cb99dec83f60feb735e88605f44dbe5457ce3b75c9a0520362641b",
      "transactionType": "CALL",
      "contractName": null,
      "contractAddress": "0x9cea2791027696bb07fe7510eae5dc72ae3070fc",
      "function": "setFees(uint8,uint256,address)",
      "arguments": [
        "2",
        "500",
        "0x163AAd81AA11f5bb1eb7a7c68e80b60db3432Ef2"
      ],
      "transaction": {
        "from": "0xefbbd14082cf2fbcf5badc7ee619f0f4e36d0a5b",
        "to": "0x9cea2791027696bb07fe7510eae5dc72ae3070fc",
        "gas": "0x12aaf",
        "value": "0x0",
        "input": "0xecf441b7000000000000000000000000000000000000000000000000000000000000000200000000000000000000000000000000000000000000000000000000000001f4000000000000000000000000163aad81aa11f5bb1eb7a7c68e80b60db3432ef2",
        "nonce": "0x5db",
        "chainId": "0x13882"
      },
      "additionalContracts": [],
      "isFixedGasLimit": false
    },
    {
      "hash": "0x210d90ffe29377e2981ed1e2674a251c9f32069b998cce45abb3ff85648cb4e3",
      "transactionType": "CALL",
      "contractName": null,
      "contractAddress": "0x9cea2791027696bb07fe7510eae5dc72ae3070fc",
      "function": "setFees(uint8,uint256,address)",
      "arguments": [
        "1",
        "100000000000000000000",
        "0x163AAd81AA11f5bb1eb7a7c68e80b60db3432Ef2"
      ],
      "transaction": {
        "from": "0xefbbd14082cf2fbcf5badc7ee619f0f4e36d0a5b",
        "to": "0x9cea2791027696bb07fe7510eae5dc72ae3070fc",
        "gas": "0x11a4b",
        "value": "0x0",
        "input": "0xecf441b700000000000000000000000000000000000000000000000000000000000000010000000000000000000000000000000000000000000000056bc75e2d63100000000000000000000000000000163aad81aa11f5bb1eb7a7c68e80b60db3432ef2",
        "nonce": "0x5dc",
        "chainId": "0x13882"
      },
      "additionalContracts": [],
      "isFixedGasLimit": false
    }
  ],
  "receipts": [
    {
      "status": "0x1",
      "cumulativeGasUsed": "0x385fe",
      "logs": [
        {
          "address": "0x153dd810703687be7a516888728aaa54aba049d4",
          "topics": [
            "0xf98448b987f1428e0e230e1f3c6e2ce15b5693eaf31827fbd0b1ec4b424ae7cf",
            "0x0000000000000000000000000000000000000000000000000000000000000001",
            "0x000000000000000000000000efbbd14082cf2fbcf5badc7ee619f0f4e36d0a5b"
          ],
          "data": "0x00000000000000000000000000000000000000000000000000000000000000000000000000000000000000000000000000000000000000000000000067376d680000000000000000000000000000000000000000000000000000000000000000",
          "blockHash": "0xdb1ed5f53d6b92cf97d3ec65430fce4deb207245541f43fbb6a9c57266208372",
          "blockNumber": "0xdcac81",
          "transactionHash": "0x8ac5f9428422c187e72cae76d1c5c31fc4769f9ccdf2cad8cb99fbf2533cb13a",
          "transactionIndex": "0x2",
          "logIndex": "0x8",
          "removed": false
        },
        {
          "address": "0x0000000000000000000000000000000000001010",
          "topics": [
            "0x4dfe1bbbcf077ddc3e01291eea2d5c70c2b422b415d95645b9adcfd678cb1d63",
            "0x0000000000000000000000000000000000000000000000000000000000001010",
            "0x000000000000000000000000efbbd14082cf2fbcf5badc7ee619f0f4e36d0a5b",
            "0x0000000000000000000000006ab3d36c46ecfb9b9c0bd51cb1c3da5a2c81cea6"
          ],
          "data": "0x000000000000000000000000000000000000000000000000000c22be4d1e46240000000000000000000000000000000000000000000000001ff9e907a0b8c7fc00000000000000000000000000000000000000000000039c96ea4545fc5828580000000000000000000000000000000000000000000000001fedc649539a81d800000000000000000000000000000000000000000000039c96f6680449766e7c",
          "blockHash": "0xdb1ed5f53d6b92cf97d3ec65430fce4deb207245541f43fbb6a9c57266208372",
          "blockNumber": "0xdcac81",
          "transactionHash": "0x8ac5f9428422c187e72cae76d1c5c31fc4769f9ccdf2cad8cb99fbf2533cb13a",
          "transactionIndex": "0x2",
          "logIndex": "0x9",
          "removed": false
        }
      ],
      "logsBloom": "0x00000000080000000000000000000000000000000000000000000000000000000000000000000000000000000000000000008000000000000000000000040000008000080000000000000000020000800000000000040000000100000000000000000000000000010000000000000000000000000000000080000000000000000800000000000000000000000000000008000000000000000000000000000000200000000000400000002000000000000000400000000008000000000000004000000000000000000001000000000000000000010000000000100000000040000000000000000000000000000000000000000000000000000000000000100000",
      "type": "0x2",
      "transactionHash": "0x8ac5f9428422c187e72cae76d1c5c31fc4769f9ccdf2cad8cb99fbf2533cb13a",
      "transactionIndex": "0x2",
      "blockHash": "0xdb1ed5f53d6b92cf97d3ec65430fce4deb207245541f43fbb6a9c57266208372",
      "blockNumber": "0xdcac81",
      "gasUsed": "0xa2b3",
      "effectiveGasPrice": "0x131852a35b",
      "from": "0xefbbd14082cf2fbcf5badc7ee619f0f4e36d0a5b",
      "to": "0x153dd810703687be7a516888728aaa54aba049d4",
      "contractAddress": null
    },
    {
      "status": "0x1",
      "cumulativeGasUsed": "0x287da",
      "logs": [
        {
          "address": "0x153dd810703687be7a516888728aaa54aba049d4",
          "topics": [
            "0x9ea6790c7dadfd01c9f8b9762b3682607af2c7e79e05a9f9fdf5580dde949151",
            "0x0000000000000000000000009cea2791027696bb07fe7510eae5dc72ae3070fc",
            "0x0000000000000000000000000000000000000000000000000000000000000001"
          ],
          "data": "0xecf441b700000000000000000000000000000000000000000000000000000000",
          "blockHash": "0x39aeb8508bb312ff04e1776a1febb4516233a21da249e68c022be1aa8ddfc5fd",
          "blockNumber": "0xdcac83",
          "transactionHash": "0x675417557fb2df5067d6113812a87a9887a7451c39db95f7350105956e8c2e8d",
          "transactionIndex": "0x1",
          "logIndex": "0x3",
          "removed": false
        },
        {
          "address": "0x0000000000000000000000000000000000001010",
          "topics": [
            "0x4dfe1bbbcf077ddc3e01291eea2d5c70c2b422b415d95645b9adcfd678cb1d63",
            "0x0000000000000000000000000000000000000000000000000000000000001010",
            "0x000000000000000000000000efbbd14082cf2fbcf5badc7ee619f0f4e36d0a5b",
            "0x0000000000000000000000006ab3d36c46ecfb9b9c0bd51cb1c3da5a2c81cea6"
          ],
          "data": "0x000000000000000000000000000000000000000000000000000ae0e35437d4200000000000000000000000000000000000000000000000001fedc6495390f95b00000000000000000000000000000000000000000000039c973b7d93c3a1f4bc0000000000000000000000000000000000000000000000001fe2e565ff59253b00000000000000000000000000000000000000000000039c97465e7717d9c8dc",
          "blockHash": "0x39aeb8508bb312ff04e1776a1febb4516233a21da249e68c022be1aa8ddfc5fd",
          "blockNumber": "0xdcac83",
          "transactionHash": "0x675417557fb2df5067d6113812a87a9887a7451c39db95f7350105956e8c2e8d",
          "transactionIndex": "0x1",
          "logIndex": "0x4",
          "removed": false
        }
      ],
      "logsBloom": "0x00000004080080000000000000000000000000000000000000000000000000000000000000000000000000000000000000008000000000000000000000040000008000080000000000000000020000800000000000040000000100000000000000001000000000010000000000000000000000008000000080000000000000000800000000000000000000000000000000000000000000000000000000000000200000000000400000000000000000000000400000000000000000000000004000000000000000000101000000200000000000010000000000100000000040000000000000000000000000000000000000000000000000000000000000100000",
      "type": "0x2",
      "transactionHash": "0x675417557fb2df5067d6113812a87a9887a7451c39db95f7350105956e8c2e8d",
      "transactionIndex": "0x1",
      "blockHash": "0x39aeb8508bb312ff04e1776a1febb4516233a21da249e68c022be1aa8ddfc5fd",
      "blockNumber": "0xdcac83",
      "gasUsed": "0x91d8",
      "effectiveGasPrice": "0x131852a35b",
      "from": "0xefbbd14082cf2fbcf5badc7ee619f0f4e36d0a5b",
      "to": "0x153dd810703687be7a516888728aaa54aba049d4",
      "contractAddress": null
    },
    {
      "status": "0x1",
      "cumulativeGasUsed": "0x2d9be",
      "logs": [
        {
          "address": "0x153dd810703687be7a516888728aaa54aba049d4",
          "topics": [
            "0x9ea6790c7dadfd01c9f8b9762b3682607af2c7e79e05a9f9fdf5580dde949151",
            "0x00000000000000000000000093a3c701505a47e8b41c9e8be21cfe92d2247390",
            "0x0000000000000000000000000000000000000000000000000000000000000001"
          ],
          "data": "0x06af20da00000000000000000000000000000000000000000000000000000000",
          "blockHash": "0x2bd2e05dcf778d0980f7255e41a80bedcc97c0e7cc65b0f79c236b11c63b6920",
          "blockNumber": "0xdcac85",
          "transactionHash": "0xcffbeb16b810aa72b4709c8a6c2e84386c1fdc9289be3d4a9f232cd101ac48f7",
          "transactionIndex": "0x2",
          "logIndex": "0x5",
          "removed": false
        },
        {
          "address": "0x0000000000000000000000000000000000001010",
          "topics": [
            "0x4dfe1bbbcf077ddc3e01291eea2d5c70c2b422b415d95645b9adcfd678cb1d63",
            "0x0000000000000000000000000000000000000000000000000000000000001010",
            "0x000000000000000000000000efbbd14082cf2fbcf5badc7ee619f0f4e36d0a5b",
            "0x0000000000000000000000006ab3d36c46ecfb9b9c0bd51cb1c3da5a2c81cea6"
          ],
          "data": "0x000000000000000000000000000000000000000000000000000ae0e35437d4200000000000000000000000000000000000000000000000001fe2e565ff50999300000000000000000000000000000000000000000000039c98726afb2efc37640000000000000000000000000000000000000000000000001fd80482ab18c57300000000000000000000000000000000000000000000039c987d4bde83340b84",
          "blockHash": "0x2bd2e05dcf778d0980f7255e41a80bedcc97c0e7cc65b0f79c236b11c63b6920",
          "blockNumber": "0xdcac85",
          "transactionHash": "0xcffbeb16b810aa72b4709c8a6c2e84386c1fdc9289be3d4a9f232cd101ac48f7",
          "transactionIndex": "0x2",
          "logIndex": "0x6",
          "removed": false
        }
      ],
      "logsBloom": "0x00000004080080000000000000000000000000000000000000000000000000000000000000000000000000000000000000008000000000000000000000040000008000080000000000000000020000800000000000040000000100000000000000000000000000010000000000000000000000010000000080000000000000000800000000000000080000000000000000000000000000000000000000000000200040000000400000000000000000000000400000000000000000000000004000000000000000000001000000200000000000010000000000100000000040000000000000000000000000000000000000000000000000000000000000100000",
      "type": "0x2",
      "transactionHash": "0xcffbeb16b810aa72b4709c8a6c2e84386c1fdc9289be3d4a9f232cd101ac48f7",
      "transactionIndex": "0x2",
      "blockHash": "0x2bd2e05dcf778d0980f7255e41a80bedcc97c0e7cc65b0f79c236b11c63b6920",
      "blockNumber": "0xdcac85",
      "gasUsed": "0x91d8",
      "effectiveGasPrice": "0x131852a35b",
      "from": "0xefbbd14082cf2fbcf5badc7ee619f0f4e36d0a5b",
      "to": "0x153dd810703687be7a516888728aaa54aba049d4",
      "contractAddress": null
    },
    {
      "status": "0x1",
      "cumulativeGasUsed": "0xa30e",
      "logs": [
        {
          "address": "0x153dd810703687be7a516888728aaa54aba049d4",
          "topics": [
            "0x9ea6790c7dadfd01c9f8b9762b3682607af2c7e79e05a9f9fdf5580dde949151",
            "0x000000000000000000000000e39913753a1b3ac274f5e857f675fa5d7cab8d86",
            "0x0000000000000000000000000000000000000000000000000000000000000001"
          ],
          "data": "0xdaea85c500000000000000000000000000000000000000000000000000000000",
          "blockHash": "0xe3464e6479cadc5e668936aeff530463598706737b811eda6f8dfa5b6a1abe8e",
          "blockNumber": "0xdcac87",
          "transactionHash": "0x00c1be61abda3166f37845482748d3ea1690f13378f31ab1e1958fa8f3b167c5",
          "transactionIndex": "0x0",
          "logIndex": "0x0",
          "removed": false
        },
        {
          "address": "0x153dd810703687be7a516888728aaa54aba049d4",
          "topics": [
            "0x9ea6790c7dadfd01c9f8b9762b3682607af2c7e79e05a9f9fdf5580dde949151",
            "0x000000000000000000000000e39913753a1b3ac274f5e857f675fa5d7cab8d86",
            "0x0000000000000000000000000000000000000000000000000000000000000001"
          ],
          "data": "0xab0da5a900000000000000000000000000000000000000000000000000000000",
          "blockHash": "0xe3464e6479cadc5e668936aeff530463598706737b811eda6f8dfa5b6a1abe8e",
          "blockNumber": "0xdcac87",
          "transactionHash": "0x00c1be61abda3166f37845482748d3ea1690f13378f31ab1e1958fa8f3b167c5",
          "transactionIndex": "0x0",
          "logIndex": "0x1",
          "removed": false
        },
        {
          "address": "0x0000000000000000000000000000000000001010",
          "topics": [
            "0x4dfe1bbbcf077ddc3e01291eea2d5c70c2b422b415d95645b9adcfd678cb1d63",
            "0x0000000000000000000000000000000000000000000000000000000000001010",
            "0x000000000000000000000000efbbd14082cf2fbcf5badc7ee619f0f4e36d0a5b",
            "0x0000000000000000000000006ab3d36c46ecfb9b9c0bd51cb1c3da5a2c81cea6"
          ],
          "data": "0x000000000000000000000000000000000000000000000000000c2987f27e52280000000000000000000000000000000000000000000000001fd80482ab1039cb00000000000000000000000000000000000000000000039c98f197e0a1e3f0160000000000000000000000000000000000000000000000001fcbdafab891e7a300000000000000000000000000000000000000000000039c98fdc1689462423e",
          "blockHash": "0xe3464e6479cadc5e668936aeff530463598706737b811eda6f8dfa5b6a1abe8e",
          "blockNumber": "0xdcac87",
          "transactionHash": "0x00c1be61abda3166f37845482748d3ea1690f13378f31ab1e1958fa8f3b167c5",
          "transactionIndex": "0x0",
          "logIndex": "0x2",
          "removed": false
        }
      ],
      "logsBloom": "0x00000004080080000000000000000000000000000000000000000000000000000008000000000000000000000000000000008000000000000000000000040000008000080000000000000000020000820000000000040000000100000000000000000000000000010000000000000000000000000000000080000000000000000800000000000000000000000000000000000000000000000000000000000000200000000000400000000000000000000000400000000000000000000000004000000000000040000001000000200000000000010000000000100000000040000000000000000000000000000000000000000000000000000000000000100000",
      "type": "0x2",
      "transactionHash": "0x00c1be61abda3166f37845482748d3ea1690f13378f31ab1e1958fa8f3b167c5",
      "transactionIndex": "0x0",
      "blockHash": "0xe3464e6479cadc5e668936aeff530463598706737b811eda6f8dfa5b6a1abe8e",
      "blockNumber": "0xdcac87",
      "gasUsed": "0xa30e",
      "effectiveGasPrice": "0x131852a35b",
      "from": "0xefbbd14082cf2fbcf5badc7ee619f0f4e36d0a5b",
      "to": "0x153dd810703687be7a516888728aaa54aba049d4",
      "contractAddress": null
    },
    {
      "status": "0x1",
      "cumulativeGasUsed": "0x755ce",
      "logs": [
        {
          "address": "0x153dd810703687be7a516888728aaa54aba049d4",
          "topics": [
            "0x9ea6790c7dadfd01c9f8b9762b3682607af2c7e79e05a9f9fdf5580dde949151",
            "0x0000000000000000000000001c6a0442c017978cf5795a04f96c89aef72719d0",
            "0x0000000000000000000000000000000000000000000000000000000000000001"
          ],
          "data": "0x20c5429b00000000000000000000000000000000000000000000000000000000",
          "blockHash": "0x3b52678bb29a431783b98de4ebe58238f1c060c9ab2c4c1f94aec174a239a86c",
          "blockNumber": "0xdcac89",
          "transactionHash": "0x08706d7951eec350c2ca942479036e346e06ac60008ab52151351c13f12ff975",
          "transactionIndex": "0x2",
          "logIndex": "0x6",
          "removed": false
        },
        {
          "address": "0x153dd810703687be7a516888728aaa54aba049d4",
          "topics": [
            "0x9ea6790c7dadfd01c9f8b9762b3682607af2c7e79e05a9f9fdf5580dde949151",
            "0x0000000000000000000000001c6a0442c017978cf5795a04f96c89aef72719d0",
            "0x0000000000000000000000000000000000000000000000000000000000000001"
          ],
          "data": "0xb8adaa1100000000000000000000000000000000000000000000000000000000",
          "blockHash": "0x3b52678bb29a431783b98de4ebe58238f1c060c9ab2c4c1f94aec174a239a86c",
          "blockNumber": "0xdcac89",
          "transactionHash": "0x08706d7951eec350c2ca942479036e346e06ac60008ab52151351c13f12ff975",
          "transactionIndex": "0x2",
          "logIndex": "0x7",
          "removed": false
        },
        {
          "address": "0x153dd810703687be7a516888728aaa54aba049d4",
          "topics": [
            "0x9ea6790c7dadfd01c9f8b9762b3682607af2c7e79e05a9f9fdf5580dde949151",
            "0x0000000000000000000000001c6a0442c017978cf5795a04f96c89aef72719d0",
            "0x0000000000000000000000000000000000000000000000000000000000000001"
          ],
          "data": "0xb759f95400000000000000000000000000000000000000000000000000000000",
          "blockHash": "0x3b52678bb29a431783b98de4ebe58238f1c060c9ab2c4c1f94aec174a239a86c",
          "blockNumber": "0xdcac89",
          "transactionHash": "0x08706d7951eec350c2ca942479036e346e06ac60008ab52151351c13f12ff975",
          "transactionIndex": "0x2",
          "logIndex": "0x8",
          "removed": false
        },
        {
          "address": "0x0000000000000000000000000000000000001010",
          "topics": [
            "0x4dfe1bbbcf077ddc3e01291eea2d5c70c2b422b415d95645b9adcfd678cb1d63",
            "0x0000000000000000000000000000000000000000000000000000000000001010",
            "0x000000000000000000000000efbbd14082cf2fbcf5badc7ee619f0f4e36d0a5b",
            "0x0000000000000000000000006ab3d36c46ecfb9b9c0bd51cb1c3da5a2c81cea6"
          ],
          "data": "0x000000000000000000000000000000000000000000000000000d722c90c4d0300000000000000000000000000000000000000000000000001fcbdafab88859d100000000000000000000000000000000000000000000039c9adede4a05b5b6a60000000000000000000000000000000000000000000000001fbe68ce27c389a100000000000000000000000000000000000000000000039c9aec5076967a86d6",
          "blockHash": "0x3b52678bb29a431783b98de4ebe58238f1c060c9ab2c4c1f94aec174a239a86c",
          "blockNumber": "0xdcac89",
          "transactionHash": "0x08706d7951eec350c2ca942479036e346e06ac60008ab52151351c13f12ff975",
          "transactionIndex": "0x2",
          "logIndex": "0x9",
          "removed": false
        }
      ],
      "logsBloom": "0x00000004080080000000000000000000000000000000000000000000020000000000000000000000000000000000000000008000000000000000000000040000008000080000000000000000020000800000000000040000000100000000000000000000000000010000000000000000000000000000000080000000000000000800000000000000000000000000000000000000000000000000000000000000200000000000400000000000000000000000400000000000080080000000004000000000000000000001000000200000000000010000000000100000000040000000000000000000000000000000000000000000000000000000000000100000",
      "type": "0x2",
      "transactionHash": "0x08706d7951eec350c2ca942479036e346e06ac60008ab52151351c13f12ff975",
      "transactionIndex": "0x2",
      "blockHash": "0x3b52678bb29a431783b98de4ebe58238f1c060c9ab2c4c1f94aec174a239a86c",
      "blockNumber": "0xdcac89",
      "gasUsed": "0xb444",
      "effectiveGasPrice": "0x131852a35b",
      "from": "0xefbbd14082cf2fbcf5badc7ee619f0f4e36d0a5b",
      "to": "0x153dd810703687be7a516888728aaa54aba049d4",
      "contractAddress": null
    },
    {
      "status": "0x1",
      "cumulativeGasUsed": "0xb444",
      "logs": [
        {
          "address": "0x153dd810703687be7a516888728aaa54aba049d4",
          "topics": [
            "0x9ea6790c7dadfd01c9f8b9762b3682607af2c7e79e05a9f9fdf5580dde949151",
            "0x0000000000000000000000000d3450ce1cd2e307aba78aba8f09eb15e8a4ff73",
            "0x0000000000000000000000000000000000000000000000000000000000000001"
          ],
          "data": "0xf6eea09800000000000000000000000000000000000000000000000000000000",
          "blockHash": "0xb4237f25aebecefdbefcbf4f33df6d82d52ec3456d5b65fb60eb32db0dbd56db",
          "blockNumber": "0xdcac8b",
          "transactionHash": "0x65601cd8e065e496ff9c5df26e98bdb86fcd73abcb73cb2f20d929374a8bae66",
          "transactionIndex": "0x0",
          "logIndex": "0x0",
          "removed": false
        },
        {
          "address": "0x153dd810703687be7a516888728aaa54aba049d4",
          "topics": [
            "0x9ea6790c7dadfd01c9f8b9762b3682607af2c7e79e05a9f9fdf5580dde949151",
            "0x0000000000000000000000000d3450ce1cd2e307aba78aba8f09eb15e8a4ff73",
            "0x0000000000000000000000000000000000000000000000000000000000000001"
          ],
          "data": "0x74a8f10300000000000000000000000000000000000000000000000000000000",
          "blockHash": "0xb4237f25aebecefdbefcbf4f33df6d82d52ec3456d5b65fb60eb32db0dbd56db",
          "blockNumber": "0xdcac8b",
          "transactionHash": "0x65601cd8e065e496ff9c5df26e98bdb86fcd73abcb73cb2f20d929374a8bae66",
          "transactionIndex": "0x0",
          "logIndex": "0x1",
          "removed": false
        },
        {
          "address": "0x153dd810703687be7a516888728aaa54aba049d4",
          "topics": [
            "0x9ea6790c7dadfd01c9f8b9762b3682607af2c7e79e05a9f9fdf5580dde949151",
            "0x0000000000000000000000000d3450ce1cd2e307aba78aba8f09eb15e8a4ff73",
            "0x0000000000000000000000000000000000000000000000000000000000000001"
          ],
          "data": "0xdaea85c500000000000000000000000000000000000000000000000000000000",
          "blockHash": "0xb4237f25aebecefdbefcbf4f33df6d82d52ec3456d5b65fb60eb32db0dbd56db",
          "blockNumber": "0xdcac8b",
          "transactionHash": "0x65601cd8e065e496ff9c5df26e98bdb86fcd73abcb73cb2f20d929374a8bae66",
          "transactionIndex": "0x0",
          "logIndex": "0x2",
          "removed": false
        },
        {
          "address": "0x0000000000000000000000000000000000001010",
          "topics": [
            "0x4dfe1bbbcf077ddc3e01291eea2d5c70c2b422b415d95645b9adcfd678cb1d63",
            "0x0000000000000000000000000000000000000000000000000000000000001010",
            "0x000000000000000000000000efbbd14082cf2fbcf5badc7ee619f0f4e36d0a5b",
            "0x0000000000000000000000006ab3d36c46ecfb9b9c0bd51cb1c3da5a2c81cea6"
          ],
          "data": "0x000000000000000000000000000000000000000000000000000d722c90c4d0300000000000000000000000000000000000000000000000001fbe68ce27b8f9a500000000000000000000000000000000000000000000039c9b0bf512f7a9660e0000000000000000000000000000000000000000000000001fb0f6a196f4297500000000000000000000000000000000000000000000039c9b19673f886e363e",
          "blockHash": "0xb4237f25aebecefdbefcbf4f33df6d82d52ec3456d5b65fb60eb32db0dbd56db",
          "blockNumber": "0xdcac8b",
          "transactionHash": "0x65601cd8e065e496ff9c5df26e98bdb86fcd73abcb73cb2f20d929374a8bae66",
          "transactionIndex": "0x0",
          "logIndex": "0x3",
          "removed": false
        }
      ],
      "logsBloom": "0x00000004080080000000000000000000000000000000000000000000000000000000000000000000000000000000000000008000000000000000000000040000008000080000000000000000020000800000000000040000000100000000000000000000000000010000000000000000000000000000000080000000000000000800000008000000000000000000000000000000000000000000004000000000200000000000400000000000000800000000400000000000000000000000004000000000000000000001000000200000000000010000000000100000000040000000000000000000000000000000000000000000000000000000000000100000",
      "type": "0x2",
      "transactionHash": "0x65601cd8e065e496ff9c5df26e98bdb86fcd73abcb73cb2f20d929374a8bae66",
      "transactionIndex": "0x0",
      "blockHash": "0xb4237f25aebecefdbefcbf4f33df6d82d52ec3456d5b65fb60eb32db0dbd56db",
      "blockNumber": "0xdcac8b",
      "gasUsed": "0xb444",
      "effectiveGasPrice": "0x131852a35b",
      "from": "0xefbbd14082cf2fbcf5badc7ee619f0f4e36d0a5b",
      "to": "0x153dd810703687be7a516888728aaa54aba049d4",
      "contractAddress": null
    },
    {
      "status": "0x1",
      "cumulativeGasUsed": "0x2c219",
      "logs": [
        {
          "address": "0x9cea2791027696bb07fe7510eae5dc72ae3070fc",
          "topics": [
            "0xfbbd6e9cc51f124b05f08f20e9aef57fb26fc9a927be06212c59506610581335",
            "0x000000000000000000000000163aad81aa11f5bb1eb7a7c68e80b60db3432ef2",
            "0x000000000000000000000000efbbd14082cf2fbcf5badc7ee619f0f4e36d0a5b"
          ],
          "data": "0x00000000000000000000000000000000000000000000000000000000000001f40000000000000000000000000000000000000000000000000000000000000002",
          "blockHash": "0x70dc11ff9d0703f0657aa2cf1ba47eeb50247a035a6a6d5e8acec8c4663ccc6c",
          "blockNumber": "0xdcac8d",
          "transactionHash": "0x814e2fbb00cb99dec83f60feb735e88605f44dbe5457ce3b75c9a0520362641b",
          "transactionIndex": "0x1",
          "logIndex": "0x3",
          "removed": false
        },
        {
          "address": "0x0000000000000000000000000000000000001010",
          "topics": [
            "0x4dfe1bbbcf077ddc3e01291eea2d5c70c2b422b415d95645b9adcfd678cb1d63",
            "0x0000000000000000000000000000000000000000000000000000000000001010",
            "0x000000000000000000000000efbbd14082cf2fbcf5badc7ee619f0f4e36d0a5b",
            "0x0000000000000000000000006ab3d36c46ecfb9b9c0bd51cb1c3da5a2c81cea6"
          ],
          "data": "0x000000000000000000000000000000000000000000000000000f3bc8752c32840000000000000000000000000000000000000000000000001fb0f6a196e9997900000000000000000000000000000000000000000000039c9ba60af72f94767c0000000000000000000000000000000000000000000000001fa1bad921bd66f500000000000000000000000000000000000000000000039c9bb546bfa4c0a900",
          "blockHash": "0x70dc11ff9d0703f0657aa2cf1ba47eeb50247a035a6a6d5e8acec8c4663ccc6c",
          "blockNumber": "0xdcac8d",
          "transactionHash": "0x814e2fbb00cb99dec83f60feb735e88605f44dbe5457ce3b75c9a0520362641b",
          "transactionIndex": "0x1",
          "logIndex": "0x4",
          "removed": false
        }
      ],
      "logsBloom": "0x000000000800000000008000000000000000000000000000000000000000000000000000000000000000000000000000000080000000000000000000000000000080080c0000000000000000000000800000000000000000000100000800000000000000000000400000000000000000000000000000000080000000004000000800000000000000000000000000000000000000000000000000000000000000200000000000000000000000000002000000400100000000000000000000004000000000000000000001000000000000000000010000000000100000000000000000000000000000000000000000000000000000000000000000000000100000",
      "type": "0x2",
      "transactionHash": "0x814e2fbb00cb99dec83f60feb735e88605f44dbe5457ce3b75c9a0520362641b",
      "transactionIndex": "0x1",
      "blockHash": "0x70dc11ff9d0703f0657aa2cf1ba47eeb50247a035a6a6d5e8acec8c4663ccc6c",
      "blockNumber": "0xdcac8d",
      "gasUsed": "0xcc3b",
      "effectiveGasPrice": "0x131852a35b",
      "from": "0xefbbd14082cf2fbcf5badc7ee619f0f4e36d0a5b",
      "to": "0x9cea2791027696bb07fe7510eae5dc72ae3070fc",
      "contractAddress": null
    },
    {
      "status": "0x1",
      "cumulativeGasUsed": "0x4b864",
      "logs": [
        {
          "address": "0x9cea2791027696bb07fe7510eae5dc72ae3070fc",
          "topics": [
            "0xfbbd6e9cc51f124b05f08f20e9aef57fb26fc9a927be06212c59506610581335",
            "0x000000000000000000000000163aad81aa11f5bb1eb7a7c68e80b60db3432ef2",
            "0x000000000000000000000000efbbd14082cf2fbcf5badc7ee619f0f4e36d0a5b"
          ],
          "data": "0x0000000000000000000000000000000000000000000000056bc75e2d631000000000000000000000000000000000000000000000000000000000000000000001",
          "blockHash": "0xe86f9ee494207e1ff4a056334334f5bdc09ee95631d9bc1cede997ba5b2a7889",
          "blockNumber": "0xdcac8f",
          "transactionHash": "0x210d90ffe29377e2981ed1e2674a251c9f32069b998cce45abb3ff85648cb4e3",
          "transactionIndex": "0x2",
          "logIndex": "0x6",
          "removed": false
        },
        {
          "address": "0x0000000000000000000000000000000000001010",
          "topics": [
            "0x4dfe1bbbcf077ddc3e01291eea2d5c70c2b422b415d95645b9adcfd678cb1d63",
            "0x0000000000000000000000000000000000000000000000000000000000001010",
            "0x000000000000000000000000efbbd14082cf2fbcf5badc7ee619f0f4e36d0a5b",
            "0x0000000000000000000000006ab3d36c46ecfb9b9c0bd51cb1c3da5a2c81cea6"
          ],
          "data": "0x000000000000000000000000000000000000000000000000000f3e8af91dcc800000000000000000000000000000000000000000000000001fa1bad921b16f8000000000000000000000000000000000000000000000039c9c453f1a74c524e00000000000000000000000000000000000000000000000001f927c4e2893a30000000000000000000000000000000000000000000000039c9c547da56de2f160",
          "blockHash": "0xe86f9ee494207e1ff4a056334334f5bdc09ee95631d9bc1cede997ba5b2a7889",
          "blockNumber": "0xdcac8f",
          "transactionHash": "0x210d90ffe29377e2981ed1e2674a251c9f32069b998cce45abb3ff85648cb4e3",
          "transactionIndex": "0x2",
          "logIndex": "0x7",
          "removed": false
        }
      ],
      "logsBloom": "0x000000000800000000008000000000000000000000000000000000000000000000000000000000000000000000000000000080000000000000000000000000000080080c0000000000000000000000800000000000000000000100000800000000000000000000400000000000000000000000000000000080000000004000000800000000000000000000000000000000000000000000000000000000000000200000000000000000000000000002000000400100000000000000000000004000000000000000000001000000000000000000010000000000100000000000000000000000000000000000000000000000000000000000000000000000100000",
      "type": "0x2",
      "transactionHash": "0x210d90ffe29377e2981ed1e2674a251c9f32069b998cce45abb3ff85648cb4e3",
      "transactionIndex": "0x2",
      "blockHash": "0xe86f9ee494207e1ff4a056334334f5bdc09ee95631d9bc1cede997ba5b2a7889",
      "blockNumber": "0xdcac8f",
      "gasUsed": "0xcc60",
      "effectiveGasPrice": "0x131852a35b",
      "from": "0xefbbd14082cf2fbcf5badc7ee619f0f4e36d0a5b",
      "to": "0x9cea2791027696bb07fe7510eae5dc72ae3070fc",
      "contractAddress": null
    }
  ],
  "libraries": [],
  "pending": [],
  "returns": {},
  "timestamp": 1731685764,
  "chain": 80002,
  "commit": "5d3485c"
}