{
  "transactions": [
    {
      "hash": "0x9c5ddb1bdca408106c138fa356a15cdb61cb3226e53fea8f5912e68bcc779782",
      "transactionType": "CALL",
      "contractName": null,
      "contractAddress": "0x8120a8e0688be6b2c0bb469f871e5e7023ca85eb",
      "function": "grantRole(uint64,address,uint32)",
      "arguments": [
        "1",
        "0xEFBBD14082cF2FbCf5Badc7ee619F0f4e36D0A5B",
        "0"
      ],
      "transaction": {
        "from": "0xefbbd14082cf2fbcf5badc7ee619f0f4e36d0a5b",
        "to": "0x8120a8e0688be6b2c0bb469f871e5e7023ca85eb",
        "gas": "0xedf2",
        "value": "0x0",
        "input": "0x25c471a00000000000000000000000000000000000000000000000000000000000000001000000000000000000000000efbbd14082cf2fbcf5badc7ee619f0f4e36d0a5b0000000000000000000000000000000000000000000000000000000000000000",
        "nonce": "0x7bc",
        "chainId": "0x13882"
      },
      "additionalContracts": [],
      "isFixedGasLimit": false
    },
    {
      "hash": "0xcecd2694339568227be268f89c9b780fe788f71eef227bf5537df3a857b7b107",
      "transactionType": "CALL",
      "contractName": null,
      "contractAddress": "0x8120a8e0688be6b2c0bb469f871e5e7023ca85eb",
      "function": "setTargetFunctionRole(address,bytes4[],uint64)",
      "arguments": [
        "0xE74ef2c2F3904A04bd8ac21764209DcE63fc4F59",
        "[0xecf441b7]",
        "1"
      ],
      "transaction": {
        "from": "0xefbbd14082cf2fbcf5badc7ee619f0f4e36d0a5b",
        "to": "0x8120a8e0688be6b2c0bb469f871e5e7023ca85eb",
        "gas": "0xc971",
        "value": "0x0",
        "input": "0x08d6122d000000000000000000000000e74ef2c2f3904a04bd8ac21764209dce63fc4f59000000000000000000000000000000000000000000000000000000000000006000000000000000000000000000000000000000000000000000000000000000010000000000000000000000000000000000000000000000000000000000000001ecf441b700000000000000000000000000000000000000000000000000000000",
        "nonce": "0x7bd",
        "chainId": "0x13882"
      },
      "additionalContracts": [],
      "isFixedGasLimit": false
    },
    {
      "hash": "0x49834dc7f173aae3b598d867fa7800d56b3a5a8a0c32ef92c82f08dc030f2666",
      "transactionType": "CALL",
      "contractName": null,
      "contractAddress": "0x8120a8e0688be6b2c0bb469f871e5e7023ca85eb",
      "function": "setTargetFunctionRole(address,bytes4[],uint64)",
      "arguments": [
        "0x3B1f5d208d0559759cc8B7D33264A91102115418",
        "[0x69328dec]",
        "1"
      ],
      "transaction": {
        "from": "0xefbbd14082cf2fbcf5badc7ee619f0f4e36d0a5b",
        "to": "0x8120a8e0688be6b2c0bb469f871e5e7023ca85eb",
        "gas": "0xc971",
        "value": "0x0",
        "input": "0x08d6122d0000000000000000000000003b1f5d208d0559759cc8b7d33264a9110211541800000000000000000000000000000000000000000000000000000000000000600000000000000000000000000000000000000000000000000000000000000001000000000000000000000000000000000000000000000000000000000000000169328dec00000000000000000000000000000000000000000000000000000000",
        "nonce": "0x7be",
        "chainId": "0x13882"
      },
      "additionalContracts": [],
      "isFixedGasLimit": false
    },
    {
      "hash": "0x4b16396a7e15cfd52bcdd9da60a82b39c29de9701fb2229d7977ebc68f33c516",
      "transactionType": "CALL",
      "contractName": null,
      "contractAddress": "0x8120a8e0688be6b2c0bb469f871e5e7023ca85eb",
      "function": "setTargetFunctionRole(address,bytes4[],uint64)",
      "arguments": [
        "0x80aAbCc9612a3954cd681A758c7BB265A06722aC",
        "[0x20c5429b, 0xb8adaa11, 0xb759f954]",
        "1"
      ],
      "transaction": {
        "from": "0xefbbd14082cf2fbcf5badc7ee619f0f4e36d0a5b",
        "to": "0x8120a8e0688be6b2c0bb469f871e5e7023ca85eb",
        "gas": "0xf8fd",
        "value": "0x0",
        "input": "0x08d6122d00000000000000000000000080aabcc9612a3954cd681a758c7bb265a06722ac00000000000000000000000000000000000000000000000000000000000000600000000000000000000000000000000000000000000000000000000000000001000000000000000000000000000000000000000000000000000000000000000320c5429b00000000000000000000000000000000000000000000000000000000b8adaa1100000000000000000000000000000000000000000000000000000000b759f95400000000000000000000000000000000000000000000000000000000",
        "nonce": "0x7bf",
        "chainId": "0x13882"
      },
      "additionalContracts": [],
      "isFixedGasLimit": false
    },
    {
      "hash": "0x880e6f2fa0a0edca5386245249e878c483eee7ddc85657df49f9eabac4232d85",
      "transactionType": "CALL",
      "contractName": null,
      "contractAddress": "0x8120a8e0688be6b2c0bb469f871e5e7023ca85eb",
      "function": "setTargetFunctionRole(address,bytes4[],uint64)",
      "arguments": [
        "0x17C5b7DDac9E5623c018C32d67632dA85A9BE95b",
        "[0xf6eea098, 0x74a8f103, 0xdaea85c5]",
        "1"
      ],
      "transaction": {
        "from": "0xefbbd14082cf2fbcf5badc7ee619f0f4e36d0a5b",
        "to": "0x8120a8e0688be6b2c0bb469f871e5e7023ca85eb",
        "gas": "0xf8fd",
        "value": "0x0",
        "input": "0x08d6122d00000000000000000000000017c5b7ddac9e5623c018c32d67632da85a9be95b000000000000000000000000000000000000000000000000000000000000006000000000000000000000000000000000000000000000000000000000000000010000000000000000000000000000000000000000000000000000000000000003f6eea0980000000000000000000000000000000000000000000000000000000074a8f10300000000000000000000000000000000000000000000000000000000daea85c500000000000000000000000000000000000000000000000000000000",
        "nonce": "0x7c0",
        "chainId": "0x13882"
      },
      "additionalContracts": [],
      "isFixedGasLimit": false
    },
    {
      "hash": "0x943fe61b67f5b23cd653d55e8a0bace02b931d48c44bb5225b1870ad5be19eb9",
      "transactionType": "CALL",
      "contractName": null,
      "contractAddress": "0x8120a8e0688be6b2c0bb469f871e5e7023ca85eb",
      "function": "grantRole(uint64,address,uint32)",
      "arguments": [
        "2",
        "0xEFBBD14082cF2FbCf5Badc7ee619F0f4e36D0A5B",
        "0"
      ],
      "transaction": {
        "from": "0xefbbd14082cf2fbcf5badc7ee619f0f4e36d0a5b",
        "to": "0x8120a8e0688be6b2c0bb469f871e5e7023ca85eb",
        "gas": "0xedf2",
        "value": "0x0",
        "input": "0x25c471a00000000000000000000000000000000000000000000000000000000000000002000000000000000000000000efbbd14082cf2fbcf5badc7ee619f0f4e36d0a5b0000000000000000000000000000000000000000000000000000000000000000",
        "nonce": "0x7c1",
        "chainId": "0x13882"
      },
      "additionalContracts": [],
      "isFixedGasLimit": false
    },
    {
      "hash": "0x41f9bf279de9089717a21952d942da08de6e88e2d8b67396d3122dbf3c752a47",
      "transactionType": "CALL",
      "contractName": null,
      "contractAddress": "0x8120a8e0688be6b2c0bb469f871e5e7023ca85eb",
      "function": "setTargetFunctionRole(address,bytes4[],uint64)",
      "arguments": [
        "0x9ce8b9B6f4f1084d87F8361Cb05d69dd8e837027",
        "[0xdaea85c5, 0xab0da5a9]",
        "2"
      ],
      "transaction": {
        "from": "0xefbbd14082cf2fbcf5badc7ee619f0f4e36d0a5b",
        "to": "0x8120a8e0688be6b2c0bb469f871e5e7023ca85eb",
        "gas": "0xe137",
        "value": "0x0",
        "input": "0x08d6122d0000000000000000000000009ce8b9b6f4f1084d87f8361cb05d69dd8e837027000000000000000000000000000000000000000000000000000000000000006000000000000000000000000000000000000000000000000000000000000000020000000000000000000000000000000000000000000000000000000000000002daea85c500000000000000000000000000000000000000000000000000000000ab0da5a900000000000000000000000000000000000000000000000000000000",
        "nonce": "0x7c2",
        "chainId": "0x13882"
      },
      "additionalContracts": [],
      "isFixedGasLimit": false
    },
    {
      "hash": "0x1db5120708547deeac9b5e4a399f1966351627a9eebf5f82b46dee0ac43ef21e",
      "transactionType": "CALL",
      "contractName": null,
      "contractAddress": "0x8120a8e0688be6b2c0bb469f871e5e7023ca85eb",
      "function": "grantRole(uint64,address,uint32)",
      "arguments": [
        "4",
        "0x768335Ac070D49316665aB2422514D2Bf89d2B16",
        "0"
      ],
      "transaction": {
        "from": "0xefbbd14082cf2fbcf5badc7ee619f0f4e36d0a5b",
        "to": "0x8120a8e0688be6b2c0bb469f871e5e7023ca85eb",
        "gas": "0xedf2",
        "value": "0x0",
        "input": "0x25c471a00000000000000000000000000000000000000000000000000000000000000004000000000000000000000000768335ac070d49316665ab2422514d2bf89d2b160000000000000000000000000000000000000000000000000000000000000000",
        "nonce": "0x7c3",
        "chainId": "0x13882"
      },
      "additionalContracts": [],
      "isFixedGasLimit": false
    },
    {
      "hash": "0x32afc92b32805b606152b9e5c01a671955f8ea3466be182a09d864dd8ffe6d1f",
      "transactionType": "CALL",
      "contractName": null,
      "contractAddress": "0x8120a8e0688be6b2c0bb469f871e5e7023ca85eb",
      "function": "grantRole(uint64,address,uint32)",
      "arguments": [
        "4",
        "0xe6C835021E1D729F1DB7bb571a2c75EBbc87A489",
        "0"
      ],
      "transaction": {
        "from": "0xefbbd14082cf2fbcf5badc7ee619f0f4e36d0a5b",
        "to": "0x8120a8e0688be6b2c0bb469f871e5e7023ca85eb",
        "gas": "0xedf2",
        "value": "0x0",
        "input": "0x25c471a00000000000000000000000000000000000000000000000000000000000000004000000000000000000000000e6c835021e1d729f1db7bb571a2c75ebbc87a4890000000000000000000000000000000000000000000000000000000000000000",
        "nonce": "0x7c4",
        "chainId": "0x13882"
      },
      "additionalContracts": [],
      "isFixedGasLimit": false
    },
    {
      "hash": "0xf88e7724379dcb76433db8f98f9d52d40524bde58c36c835e47ec8d60cf6e417",
      "transactionType": "CALL",
      "contractName": null,
      "contractAddress": "0x8120a8e0688be6b2c0bb469f871e5e7023ca85eb",
      "function": "grantRole(uint64,address,uint32)",
      "arguments": [
        "4",
        "0x17C5b7DDac9E5623c018C32d67632dA85A9BE95b",
        "0"
      ],
      "transaction": {
        "from": "0xefbbd14082cf2fbcf5badc7ee619f0f4e36d0a5b",
        "to": "0x8120a8e0688be6b2c0bb469f871e5e7023ca85eb",
        "gas": "0x13bcf",
        "value": "0x0",
        "input": "0x25c471a0000000000000000000000000000000000000000000000000000000000000000400000000000000000000000017c5b7ddac9e5623c018c32d67632da85a9be95b0000000000000000000000000000000000000000000000000000000000000000",
        "nonce": "0x7c5",
        "chainId": "0x13882"
      },
      "additionalContracts": [],
      "isFixedGasLimit": false
    },
    {
      "hash": "0xbca3423bee02782317ecc201558c8a000173a293380883a7130730c6c208b178",
      "transactionType": "CALL",
      "contractName": null,
      "contractAddress": "0x8120a8e0688be6b2c0bb469f871e5e7023ca85eb",
      "function": "setTargetFunctionRole(address,bytes4[],uint64)",
      "arguments": [
        "0x66612fb73C5df6273F79bFc1F03382399E8B9EC6",
        "[0x4bbc170a, 0x15f41501, 0x9e96a260]",
        "4"
      ],
      "transaction": {
        "from": "0xefbbd14082cf2fbcf5badc7ee619f0f4e36d0a5b",
        "to": "0x8120a8e0688be6b2c0bb469f871e5e7023ca85eb",
        "gas": "0xf8fd",
        "value": "0x0",
        "input": "0x08d6122d00000000000000000000000066612fb73c5df6273f79bfc1f03382399e8b9ec60000000000000000000000000000000000000000000000000000000000000060000000000000000000000000000000000000000000000000000000000000000400000000000000000000000000000000000000000000000000000000000000034bbc170a0000000000000000000000000000000000000000000000000000000015f41501000000000000000000000000000000000000000000000000000000009e96a26000000000000000000000000000000000000000000000000000000000",
        "nonce": "0x7c6",
        "chainId": "0x13882"
      },
      "additionalContracts": [],
      "isFixedGasLimit": false
    },
    {
      "hash": "0x0191a9d86c1e933766fb6c3d0215ba768bbcd0f03d1a436776004e5d7971cd19",
      "transactionType": "CALL",
      "contractName": null,
      "contractAddress": "0xe74ef2c2f3904a04bd8ac21764209dce63fc4f59",
      "function": "setFees(uint8,uint256,address)",
      "arguments": [
        "2",
        "500",
        "0x3c7DeB6FeAEb7a82BDe580Fb73d8d69c401b219e"
      ],
      "transaction": {
        "from": "0xefbbd14082cf2fbcf5badc7ee619f0f4e36d0a5b",
        "to": "0xe74ef2c2f3904a04bd8ac21764209dce63fc4f59",
        "gas": "0x12aaf",
        "value": "0x0",
        "input": "0xecf441b7000000000000000000000000000000000000000000000000000000000000000200000000000000000000000000000000000000000000000000000000000001f40000000000000000000000003c7deb6feaeb7a82bde580fb73d8d69c401b219e",
        "nonce": "0x7c7",
        "chainId": "0x13882"
      },
      "additionalContracts": [],
      "isFixedGasLimit": false
    },
    {
      "hash": "0xa8ca22acdfb4d8a9599085e4c226ed9a7737d6197f9b1105198cf28d997ba3e1",
      "transactionType": "CALL",
      "contractName": null,
      "contractAddress": "0xe74ef2c2f3904a04bd8ac21764209dce63fc4f59",
      "function": "setFees(uint8,uint256,address)",
      "arguments": [
        "1",
        "100000000000000000000",
        "0x3c7DeB6FeAEb7a82BDe580Fb73d8d69c401b219e"
      ],
      "transaction": {
        "from": "0xefbbd14082cf2fbcf5badc7ee619f0f4e36d0a5b",
        "to": "0xe74ef2c2f3904a04bd8ac21764209dce63fc4f59",
        "gas": "0x11a4b",
        "value": "0x0",
        "input": "0xecf441b700000000000000000000000000000000000000000000000000000000000000010000000000000000000000000000000000000000000000056bc75e2d631000000000000000000000000000003c7deb6feaeb7a82bde580fb73d8d69c401b219e",
        "nonce": "0x7c8",
        "chainId": "0x13882"
      },
      "additionalContracts": [],
      "isFixedGasLimit": false
    }
  ],
  "receipts": [
    {
      "status": "0x1",
      "cumulativeGasUsed": "0x1c1d3",
      "logs": [
        {
          "address": "0x8120a8e0688be6b2c0bb469f871e5e7023ca85eb",
          "topics": [
            "0xf98448b987f1428e0e230e1f3c6e2ce15b5693eaf31827fbd0b1ec4b424ae7cf",
            "0x0000000000000000000000000000000000000000000000000000000000000001",
            "0x000000000000000000000000efbbd14082cf2fbcf5badc7ee619f0f4e36d0a5b"
          ],
          "data": "0x000000000000000000000000000000000000000000000000000000000000000000000000000000000000000000000000000000000000000000000000676630770000000000000000000000000000000000000000000000000000000000000000",
          "blockHash": "0xcb7ef94f4d5477f62eb068a398e2540bf6fc5a4071d426389514a9c468e851d0",
          "blockNumber": "0xf20628",
          "transactionHash": "0x9c5ddb1bdca408106c138fa356a15cdb61cb3226e53fea8f5912e68bcc779782",
          "transactionIndex": "0x1",
          "logIndex": "0x2",
          "removed": false
        },
        {
          "address": "0x0000000000000000000000000000000000001010",
          "topics": [
            "0x4dfe1bbbcf077ddc3e01291eea2d5c70c2b422b415d95645b9adcfd678cb1d63",
            "0x0000000000000000000000000000000000000000000000000000000000001010",
            "0x000000000000000000000000efbbd14082cf2fbcf5badc7ee619f0f4e36d0a5b",
            "0x000000000000000000000000973e732e5306086fa8963677ec49010ee2f3d35a"
          ],
          "data": "0x0000000000000000000000000000000000000000000000000003b308ba7d0e00000000000000000000000000000000000000000000000000e69745aa1aaebc2f0000000000000000000000000000000000000000000000412d3038e5fa81bed4000000000000000000000000000000000000000000000000e69392a16031ae2f0000000000000000000000000000000000000000000000412d33ebeeb4feccd4",
          "blockHash": "0xcb7ef94f4d5477f62eb068a398e2540bf6fc5a4071d426389514a9c468e851d0",
          "blockNumber": "0xf20628",
          "transactionHash": "0x9c5ddb1bdca408106c138fa356a15cdb61cb3226e53fea8f5912e68bcc779782",
          "transactionIndex": "0x1",
          "logIndex": "0x3",
          "removed": false
        }
      ],
      "logsBloom": "0x00000000000000000000000000000000000000000000000000000000000000000000000000000000000040000000000000008000000000000000000000040000008000000000000000000000000000800000000000040100000100000000000000000000000000000000000000000000000000000000000080000000000000000800000000000000000000000800000008000000000000000000000000000000201000000000000000002000000000000000400000000008008000000000004000000000000000000001000000000000000000000000000000100000000040000000000000000000000000000000000000000000000000000000000020100000",
      "type": "0x2",
      "transactionHash": "0x9c5ddb1bdca408106c138fa356a15cdb61cb3226e53fea8f5912e68bcc779782",
      "transactionIndex": "0x1",
      "blockHash": "0xcb7ef94f4d5477f62eb068a398e2540bf6fc5a4071d426389514a9c468e851d0",
      "blockNumber": "0xf20628",
      "gasUsed": "0xa2b3",
      "effectiveGasPrice": "0x5d21dba0f",
      "from": "0xefbbd14082cf2fbcf5badc7ee619f0f4e36d0a5b",
      "to": "0x8120a8e0688be6b2c0bb469f871e5e7023ca85eb",
      "contractAddress": null
    },
    {
      "status": "0x1",
      "cumulativeGasUsed": "0x5a95b",
      "logs": [
        {
          "address": "0x8120a8e0688be6b2c0bb469f871e5e7023ca85eb",
          "topics": [
            "0x9ea6790c7dadfd01c9f8b9762b3682607af2c7e79e05a9f9fdf5580dde949151",
            "0x000000000000000000000000e74ef2c2f3904a04bd8ac21764209dce63fc4f59",
            "0x0000000000000000000000000000000000000000000000000000000000000001"
          ],
          "data": "0xecf441b700000000000000000000000000000000000000000000000000000000",
          "blockHash": "0xcb7ef94f4d5477f62eb068a398e2540bf6fc5a4071d426389514a9c468e851d0",
          "blockNumber": "0xf20628",
          "transactionHash": "0xcecd2694339568227be268f89c9b780fe788f71eef227bf5537df3a857b7b107",
          "transactionIndex": "0x3",
          "logIndex": "0xb",
          "removed": false
        },
        {
          "address": "0x0000000000000000000000000000000000001010",
          "topics": [
            "0x4dfe1bbbcf077ddc3e01291eea2d5c70c2b422b415d95645b9adcfd678cb1d63",
            "0x0000000000000000000000000000000000000000000000000000000000001010",
            "0x000000000000000000000000efbbd14082cf2fbcf5badc7ee619f0f4e36d0a5b",
            "0x000000000000000000000000973e732e5306086fa8963677ec49010ee2f3d35a"
          ],
          "data": "0x000000000000000000000000000000000000000000000000000350ec1f6ef000000000000000000000000000000000000000000000000000e69392a1602825b20000000000000000000000000000000000000000000000412d47550c3630acd4000000000000000000000000000000000000000000000000e69041b540b935b20000000000000000000000000000000000000000000000412d4aa5f8559f9cd4",
          "blockHash": "0xcb7ef94f4d5477f62eb068a398e2540bf6fc5a4071d426389514a9c468e851d0",
          "blockNumber": "0xf20628",
          "transactionHash": "0xcecd2694339568227be268f89c9b780fe788f71eef227bf5537df3a857b7b107",
          "transactionIndex": "0x3",
          "logIndex": "0xc",
          "removed": false
        }
      ],
      "logsBloom": "0x00000004000080000000000000000000000000000000000000000000000000000000000000000000000040000000000000008000000000000000000000040000008000000000000000000000000000800000000000040100000100000000000000000000000000000000000000000000000000000000000080000000000000000800000000000000000000000800000000000000000000000000000000000000201000000000000000000000000000400000400000000000008000000000004000000000000000000001000200200000000000000000000000100000000040000000000000000000000000000000000000000000000000000000000020100000",
      "type": "0x2",
      "transactionHash": "0xcecd2694339568227be268f89c9b780fe788f71eef227bf5537df3a857b7b107",
      "transactionIndex": "0x3",
      "blockHash": "0xcb7ef94f4d5477f62eb068a398e2540bf6fc5a4071d426389514a9c468e851d0",
      "blockNumber": "0xf20628",
      "gasUsed": "0x91d8",
      "effectiveGasPrice": "0x5d21dba0f",
      "from": "0xefbbd14082cf2fbcf5badc7ee619f0f4e36d0a5b",
      "to": "0x8120a8e0688be6b2c0bb469f871e5e7023ca85eb",
      "contractAddress": null
    },
    {
      "status": "0x1",
      "cumulativeGasUsed": "0x63b33",
      "logs": [
        {
          "address": "0x8120a8e0688be6b2c0bb469f871e5e7023ca85eb",
          "topics": [
            "0x9ea6790c7dadfd01c9f8b9762b3682607af2c7e79e05a9f9fdf5580dde949151",
            "0x0000000000000000000000003b1f5d208d0559759cc8b7d33264a91102115418",
            "0x0000000000000000000000000000000000000000000000000000000000000001"
          ],
          "data": "0x69328dec00000000000000000000000000000000000000000000000000000000",
          "blockHash": "0xcb7ef94f4d5477f62eb068a398e2540bf6fc5a4071d426389514a9c468e851d0",
          "blockNumber": "0xf20628",
          "transactionHash": "0x49834dc7f173aae3b598d867fa7800d56b3a5a8a0c32ef92c82f08dc030f2666",
          "transactionIndex": "0x4",
          "logIndex": "0xd",
          "removed": false
        },
        {
          "address": "0x0000000000000000000000000000000000001010",
          "topics": [
            "0x4dfe1bbbcf077ddc3e01291eea2d5c70c2b422b415d95645b9adcfd678cb1d63",
            "0x0000000000000000000000000000000000000000000000000000000000001010",
            "0x000000000000000000000000efbbd14082cf2fbcf5badc7ee619f0f4e36d0a5b",
            "0x000000000000000000000000973e732e5306086fa8963677ec49010ee2f3d35a"
          ],
          "data": "0x000000000000000000000000000000000000000000000000000350ec1f6ef000000000000000000000000000000000000000000000000000e69041b540b0aa0a0000000000000000000000000000000000000000000000412d4aa5f8559f9cd4000000000000000000000000000000000000000000000000e68cf0c92141ba0a0000000000000000000000000000000000000000000000412d4df6e4750e8cd4",
          "blockHash": "0xcb7ef94f4d5477f62eb068a398e2540bf6fc5a4071d426389514a9c468e851d0",
          "blockNumber": "0xf20628",
          "transactionHash": "0x49834dc7f173aae3b598d867fa7800d56b3a5a8a0c32ef92c82f08dc030f2666",
          "transactionIndex": "0x4",
          "logIndex": "0xe",
          "removed": false
        }
      ],
      "logsBloom": "0x00000004000080000000000000000000000000000000000040000000000000000000000000000000000040000100000000008000000000000000000000040000008000000000000000000000000000800000000000040100000100000000000200000000000000000000000000000000000000000000000080000000000000000800000000000000000000000800000000000000000000000000000000000000201000000000000000000000000000000000400000000000008000000000004000000000000000000001000000200000000000000000000000100000000040000000000000000000000000000000000000000000000000000000000020100000",
      "type": "0x2",
      "transactionHash": "0x49834dc7f173aae3b598d867fa7800d56b3a5a8a0c32ef92c82f08dc030f2666",
      "transactionIndex": "0x4",
      "blockHash": "0xcb7ef94f4d5477f62eb068a398e2540bf6fc5a4071d426389514a9c468e851d0",
      "blockNumber": "0xf20628",
      "gasUsed": "0x91d8",
      "effectiveGasPrice": "0x5d21dba0f",
      "from": "0xefbbd14082cf2fbcf5badc7ee619f0f4e36d0a5b",
      "to": "0x8120a8e0688be6b2c0bb469f871e5e7023ca85eb",
      "contractAddress": null
    },
    {
      "status": "0x1",
      "cumulativeGasUsed": "0x6ef77",
      "logs": [
        {
          "address": "0x8120a8e0688be6b2c0bb469f871e5e7023ca85eb",
          "topics": [
            "0x9ea6790c7dadfd01c9f8b9762b3682607af2c7e79e05a9f9fdf5580dde949151",
            "0x00000000000000000000000080aabcc9612a3954cd681a758c7bb265a06722ac",
            "0x0000000000000000000000000000000000000000000000000000000000000001"
          ],
          "data": "0x20c5429b00000000000000000000000000000000000000000000000000000000",
          "blockHash": "0xcb7ef94f4d5477f62eb068a398e2540bf6fc5a4071d426389514a9c468e851d0",
          "blockNumber": "0xf20628",
          "transactionHash": "0x4b16396a7e15cfd52bcdd9da60a82b39c29de9701fb2229d7977ebc68f33c516",
          "transactionIndex": "0x5",
          "logIndex": "0xf",
          "removed": false
        },
        {
          "address": "0x8120a8e0688be6b2c0bb469f871e5e7023ca85eb",
          "topics": [
            "0x9ea6790c7dadfd01c9f8b9762b3682607af2c7e79e05a9f9fdf5580dde949151",
            "0x00000000000000000000000080aabcc9612a3954cd681a758c7bb265a06722ac",
            "0x0000000000000000000000000000000000000000000000000000000000000001"
          ],
          "data": "0xb8adaa1100000000000000000000000000000000000000000000000000000000",
          "blockHash": "0xcb7ef94f4d5477f62eb068a398e2540bf6fc5a4071d426389514a9c468e851d0",
          "blockNumber": "0xf20628",
          "transactionHash": "0x4b16396a7e15cfd52bcdd9da60a82b39c29de9701fb2229d7977ebc68f33c516",
          "transactionIndex": "0x5",
          "logIndex": "0x10",
          "removed": false
        },
        {
          "address": "0x8120a8e0688be6b2c0bb469f871e5e7023ca85eb",
          "topics": [
            "0x9ea6790c7dadfd01c9f8b9762b3682607af2c7e79e05a9f9fdf5580dde949151",
            "0x00000000000000000000000080aabcc9612a3954cd681a758c7bb265a06722ac",
            "0x0000000000000000000000000000000000000000000000000000000000000001"
          ],
          "data": "0xb759f95400000000000000000000000000000000000000000000000000000000",
          "blockHash": "0xcb7ef94f4d5477f62eb068a398e2540bf6fc5a4071d426389514a9c468e851d0",
          "blockNumber": "0xf20628",
          "transactionHash": "0x4b16396a7e15cfd52bcdd9da60a82b39c29de9701fb2229d7977ebc68f33c516",
          "transactionIndex": "0x5",
          "logIndex": "0x11",
          "removed": false
        },
        {
          "address": "0x0000000000000000000000000000000000001010",
          "topics": [
            "0x4dfe1bbbcf077ddc3e01291eea2d5c70c2b422b415d95645b9adcfd678cb1d63",
            "0x0000000000000000000000000000000000000000000000000000000000001010",
            "0x000000000000000000000000efbbd14082cf2fbcf5badc7ee619f0f4e36d0a5b",
            "0x000000000000000000000000973e732e5306086fa8963677ec49010ee2f3d35a"
          ],
          "data": "0x00000000000000000000000000000000000000000000000000041948b6ad6800000000000000000000000000000000000000000000000000e68cf0c921392e620000000000000000000000000000000000000000000000412d4df6e4750e8cd4000000000000000000000000000000000000000000000000e688d7806a8bc6620000000000000000000000000000000000000000000000412d52102d2bbbf4d4",
          "blockHash": "0xcb7ef94f4d5477f62eb068a398e2540bf6fc5a4071d426389514a9c468e851d0",
          "blockNumber": "0xf20628",
          "transactionHash": "0x4b16396a7e15cfd52bcdd9da60a82b39c29de9701fb2229d7977ebc68f33c516",
          "transactionIndex": "0x5",
          "logIndex": "0x12",
          "removed": false
        }
      ],
      "logsBloom": "0x00000004000080000000000000000000000000000000000000000000000000000000000000000000000040000000000000008000000000000000000000040000008000000000000000000000000000800000040000040100008100000000000000000000000000000000000000000000000000000000000080000000000000000800040000000000000000000800000000000000000000000000000000000000201000000000000000000000000000000000400000000000008000000000004000000000000000000001000000200000000000000000000000100000000040000000000000000000000000000000000000000000000000000000000020100000",
      "type": "0x2",
      "transactionHash": "0x4b16396a7e15cfd52bcdd9da60a82b39c29de9701fb2229d7977ebc68f33c516",
      "transactionIndex": "0x5",
      "blockHash": "0xcb7ef94f4d5477f62eb068a398e2540bf6fc5a4071d426389514a9c468e851d0",
      "blockNumber": "0xf20628",
      "gasUsed": "0xb444",
      "effectiveGasPrice": "0x5d21dba0f",
      "from": "0xefbbd14082cf2fbcf5badc7ee619f0f4e36d0a5b",
      "to": "0x8120a8e0688be6b2c0bb469f871e5e7023ca85eb",
      "contractAddress": null
    },
    {
      "status": "0x1",
      "cumulativeGasUsed": "0x7a3bb",
      "logs": [
        {
          "address": "0x8120a8e0688be6b2c0bb469f871e5e7023ca85eb",
          "topics": [
            "0x9ea6790c7dadfd01c9f8b9762b3682607af2c7e79e05a9f9fdf5580dde949151",
            "0x00000000000000000000000017c5b7ddac9e5623c018c32d67632da85a9be95b",
            "0x0000000000000000000000000000000000000000000000000000000000000001"
          ],
          "data": "0xf6eea09800000000000000000000000000000000000000000000000000000000",
          "blockHash": "0xcb7ef94f4d5477f62eb068a398e2540bf6fc5a4071d426389514a9c468e851d0",
          "blockNumber": "0xf20628",
          "transactionHash": "0x880e6f2fa0a0edca5386245249e878c483eee7ddc85657df49f9eabac4232d85",
          "transactionIndex": "0x6",
          "logIndex": "0x13",
          "removed": false
        },
        {
          "address": "0x8120a8e0688be6b2c0bb469f871e5e7023ca85eb",
          "topics": [
            "0x9ea6790c7dadfd01c9f8b9762b3682607af2c7e79e05a9f9fdf5580dde949151",
            "0x00000000000000000000000017c5b7ddac9e5623c018c32d67632da85a9be95b",
            "0x0000000000000000000000000000000000000000000000000000000000000001"
          ],
          "data": "0x74a8f10300000000000000000000000000000000000000000000000000000000",
          "blockHash": "0xcb7ef94f4d5477f62eb068a398e2540bf6fc5a4071d426389514a9c468e851d0",
          "blockNumber": "0xf20628",
          "transactionHash": "0x880e6f2fa0a0edca5386245249e878c483eee7ddc85657df49f9eabac4232d85",
          "transactionIndex": "0x6",
          "logIndex": "0x14",
          "removed": false
        },
        {
          "address": "0x8120a8e0688be6b2c0bb469f871e5e7023ca85eb",
          "topics": [
            "0x9ea6790c7dadfd01c9f8b9762b3682607af2c7e79e05a9f9fdf5580dde949151",
            "0x00000000000000000000000017c5b7ddac9e5623c018c32d67632da85a9be95b",
            "0x0000000000000000000000000000000000000000000000000000000000000001"
          ],
          "data": "0xdaea85c500000000000000000000000000000000000000000000000000000000",
          "blockHash": "0xcb7ef94f4d5477f62eb068a398e2540bf6fc5a4071d426389514a9c468e851d0",
          "blockNumber": "0xf20628",
          "transactionHash": "0x880e6f2fa0a0edca5386245249e878c483eee7ddc85657df49f9eabac4232d85",
          "transactionIndex": "0x6",
          "logIndex": "0x15",
          "removed": false
        },
        {
          "address": "0x0000000000000000000000000000000000001010",
          "topics": [
            "0x4dfe1bbbcf077ddc3e01291eea2d5c70c2b422b415d95645b9adcfd678cb1d63",
            "0x0000000000000000000000000000000000000000000000000000000000001010",
            "0x000000000000000000000000efbbd14082cf2fbcf5badc7ee619f0f4e36d0a5b",
            "0x000000000000000000000000973e732e5306086fa8963677ec49010ee2f3d35a"
          ],
          "data": "0x00000000000000000000000000000000000000000000000000041948b6ad6800000000000000000000000000000000000000000000000000e688d7806a8136660000000000000000000000000000000000000000000000412d52102d2bbbf4d4000000000000000000000000000000000000000000000000e684be37b3d3ce660000000000000000000000000000000000000000000000412d562975e2695cd4",
          "blockHash": "0xcb7ef94f4d5477f62eb068a398e2540bf6fc5a4071d426389514a9c468e851d0",
          "blockNumber": "0xf20628",
          "transactionHash": "0x880e6f2fa0a0edca5386245249e878c483eee7ddc85657df49f9eabac4232d85",
          "transactionIndex": "0x6",
          "logIndex": "0x16",
          "removed": false
        }
      ],
      "logsBloom": "0x00000004000080000000000000000000800000000000000000000000000000000000000000000000000040020000000000008000000000000000000000040000008000000000000000000000000000800000000000040100000100000000000000000000000000000000000000000000000000000001000080000000000000000800000000000000000000000800000000000000000000000000000000000000201000000000000000000000000000000000400000000000008000000000004000000000000000000001000000200000000000000000000000100000000040000000000000000000000000000000000000000000000000000000000020100000",
      "type": "0x2",
      "transactionHash": "0x880e6f2fa0a0edca5386245249e878c483eee7ddc85657df49f9eabac4232d85",
      "transactionIndex": "0x6",
      "blockHash": "0xcb7ef94f4d5477f62eb068a398e2540bf6fc5a4071d426389514a9c468e851d0",
      "blockNumber": "0xf20628",
      "gasUsed": "0xb444",
      "effectiveGasPrice": "0x5d21dba0f",
      "from": "0xefbbd14082cf2fbcf5badc7ee619f0f4e36d0a5b",
      "to": "0x8120a8e0688be6b2c0bb469f871e5e7023ca85eb",
      "contractAddress": null
    },
    {
      "status": "0x1",
      "cumulativeGasUsed": "0x8466e",
      "logs": [
        {
          "address": "0x8120a8e0688be6b2c0bb469f871e5e7023ca85eb",
          "topics": [
            "0xf98448b987f1428e0e230e1f3c6e2ce15b5693eaf31827fbd0b1ec4b424ae7cf",
            "0x0000000000000000000000000000000000000000000000000000000000000002",
            "0x000000000000000000000000efbbd14082cf2fbcf5badc7ee619f0f4e36d0a5b"
          ],
          "data": "0x000000000000000000000000000000000000000000000000000000000000000000000000000000000000000000000000000000000000000000000000676630770000000000000000000000000000000000000000000000000000000000000000",
          "blockHash": "0xcb7ef94f4d5477f62eb068a398e2540bf6fc5a4071d426389514a9c468e851d0",
          "blockNumber": "0xf20628",
          "transactionHash": "0x943fe61b67f5b23cd653d55e8a0bace02b931d48c44bb5225b1870ad5be19eb9",
          "transactionIndex": "0x7",
          "logIndex": "0x17",
          "removed": false
        },
        {
          "address": "0x0000000000000000000000000000000000001010",
          "topics": [
            "0x4dfe1bbbcf077ddc3e01291eea2d5c70c2b422b415d95645b9adcfd678cb1d63",
            "0x0000000000000000000000000000000000000000000000000000000000001010",
            "0x000000000000000000000000efbbd14082cf2fbcf5badc7ee619f0f4e36d0a5b",
            "0x000000000000000000000000973e732e5306086fa8963677ec49010ee2f3d35a"
          ],
          "data": "0x0000000000000000000000000000000000000000000000000003b308ba7d0e00000000000000000000000000000000000000000000000000e684be37b3c93e6a0000000000000000000000000000000000000000000000412d562975e2695cd4000000000000000000000000000000000000000000000000e6810b2ef94c306a0000000000000000000000000000000000000000000000412d59dc7e9ce66ad4",
          "blockHash": "0xcb7ef94f4d5477f62eb068a398e2540bf6fc5a4071d426389514a9c468e851d0",
          "blockNumber": "0xf20628",
          "transactionHash": "0x943fe61b67f5b23cd653d55e8a0bace02b931d48c44bb5225b1870ad5be19eb9",
          "transactionIndex": "0x7",
          "logIndex": "0x18",
          "removed": false
        }
      ],
      "logsBloom": "0x04000000000000000000000000000000000000000000000000000000000000000000000000000000000040000000000000008000000000000000000000000000008000000000000000000000000000800000000000000100000100000000000000000000000000000000000000000000000000000000000080000000000000000800000000000000000000000800000008000000000000000000000000000000201000000000000000002100000000000000400000000008008000000000004000000000000000000001000000000000000000000000000000100000000000000000000000000000000000000000000000000000008000000000000020100000",
      "type": "0x2",
      "transactionHash": "0x943fe61b67f5b23cd653d55e8a0bace02b931d48c44bb5225b1870ad5be19eb9",
      "transactionIndex": "0x7",
      "blockHash": "0xcb7ef94f4d5477f62eb068a398e2540bf6fc5a4071d426389514a9c468e851d0",
      "blockNumber": "0xf20628",
      "gasUsed": "0xa2b3",
      "effectiveGasPrice": "0x5d21dba0f",
      "from": "0xefbbd14082cf2fbcf5badc7ee619f0f4e36d0a5b",
      "to": "0x8120a8e0688be6b2c0bb469f871e5e7023ca85eb",
      "contractAddress": null
    },
    {
      "status": "0x1",
      "cumulativeGasUsed": "0x8e97c",
      "logs": [
        {
          "address": "0x8120a8e0688be6b2c0bb469f871e5e7023ca85eb",
          "topics": [
            "0x9ea6790c7dadfd01c9f8b9762b3682607af2c7e79e05a9f9fdf5580dde949151",
            "0x0000000000000000000000009ce8b9b6f4f1084d87f8361cb05d69dd8e837027",
            "0x0000000000000000000000000000000000000000000000000000000000000002"
          ],
          "data": "0xdaea85c500000000000000000000000000000000000000000000000000000000",
          "blockHash": "0xcb7ef94f4d5477f62eb068a398e2540bf6fc5a4071d426389514a9c468e851d0",
          "blockNumber": "0xf20628",
          "transactionHash": "0x41f9bf279de9089717a21952d942da08de6e88e2d8b67396d3122dbf3c752a47",
          "transactionIndex": "0x8",
          "logIndex": "0x19",
          "removed": false
        },
        {
          "address": "0x8120a8e0688be6b2c0bb469f871e5e7023ca85eb",
          "topics": [
            "0x9ea6790c7dadfd01c9f8b9762b3682607af2c7e79e05a9f9fdf5580dde949151",
            "0x0000000000000000000000009ce8b9b6f4f1084d87f8361cb05d69dd8e837027",
            "0x0000000000000000000000000000000000000000000000000000000000000002"
          ],
          "data": "0xab0da5a900000000000000000000000000000000000000000000000000000000",
          "blockHash": "0xcb7ef94f4d5477f62eb068a398e2540bf6fc5a4071d426389514a9c468e851d0",
          "blockNumber": "0xf20628",
          "transactionHash": "0x41f9bf279de9089717a21952d942da08de6e88e2d8b67396d3122dbf3c752a47",
          "transactionIndex": "0x8",
          "logIndex": "0x1a",
          "removed": false
        },
        {
          "address": "0x0000000000000000000000000000000000001010",
          "topics": [
            "0x4dfe1bbbcf077ddc3e01291eea2d5c70c2b422b415d95645b9adcfd678cb1d63",
            "0x0000000000000000000000000000000000000000000000000000000000001010",
            "0x000000000000000000000000efbbd14082cf2fbcf5badc7ee619f0f4e36d0a5b",
            "0x000000000000000000000000973e732e5306086fa8963677ec49010ee2f3d35a"
          ],
          "data": "0x0000000000000000000000000000000000000000000000000003b51a6b0e2c00000000000000000000000000000000000000000000000000e6810b2ef942a7ed0000000000000000000000000000000000000000000000412d59dc7e9ce66ad4000000000000000000000000000000000000000000000000e67d56148e347bed0000000000000000000000000000000000000000000000412d5d919907f496d4",
          "blockHash": "0xcb7ef94f4d5477f62eb068a398e2540bf6fc5a4071d426389514a9c468e851d0",
          "blockNumber": "0xf20628",
          "transactionHash": "0x41f9bf279de9089717a21952d942da08de6e88e2d8b67396d3122dbf3c752a47",
          "transactionIndex": "0x8",
          "logIndex": "0x1b",
          "removed": false
        }
      ],
      "logsBloom": "0x04000004000080000000000000000000000000000000000000000000000000000000000000000000000040000000000000008000000000000000000000000000008000000000000000000000000000800000000000000100002100000000000000000000000000000000000000000000000000000000000080000000000000080800000000000000000000000800000000000000000000000000000000000002201000000000000000000100000000000000400000000000008000000000004000000000000000000001000000200000000000000000000000100000000000000000000000000000000000000000000000000000008000000000000020100000",
      "type": "0x2",
      "transactionHash": "0x41f9bf279de9089717a21952d942da08de6e88e2d8b67396d3122dbf3c752a47",
      "transactionIndex": "0x8",
      "blockHash": "0xcb7ef94f4d5477f62eb068a398e2540bf6fc5a4071d426389514a9c468e851d0",
      "blockNumber": "0xf20628",
      "gasUsed": "0xa30e",
      "effectiveGasPrice": "0x5d21dba0f",
      "from": "0xefbbd14082cf2fbcf5badc7ee619f0f4e36d0a5b",
      "to": "0x8120a8e0688be6b2c0bb469f871e5e7023ca85eb",
      "contractAddress": null
    },
    {
      "status": "0x1",
      "cumulativeGasUsed": "0x98c2f",
      "logs": [
        {
          "address": "0x8120a8e0688be6b2c0bb469f871e5e7023ca85eb",
          "topics": [
            "0xf98448b987f1428e0e230e1f3c6e2ce15b5693eaf31827fbd0b1ec4b424ae7cf",
            "0x0000000000000000000000000000000000000000000000000000000000000004",
            "0x000000000000000000000000768335ac070d49316665ab2422514d2bf89d2b16"
          ],
          "data": "0x000000000000000000000000000000000000000000000000000000000000000000000000000000000000000000000000000000000000000000000000676630770000000000000000000000000000000000000000000000000000000000000000",
          "blockHash": "0xcb7ef94f4d5477f62eb068a398e2540bf6fc5a4071d426389514a9c468e851d0",
          "blockNumber": "0xf20628",
          "transactionHash": "0x1db5120708547deeac9b5e4a399f1966351627a9eebf5f82b46dee0ac43ef21e",
          "transactionIndex": "0x9",
          "logIndex": "0x1c",
          "removed": false
        },
        {
          "address": "0x0000000000000000000000000000000000001010",
          "topics": [
            "0x4dfe1bbbcf077ddc3e01291eea2d5c70c2b422b415d95645b9adcfd678cb1d63",
            "0x0000000000000000000000000000000000000000000000000000000000001010",
            "0x000000000000000000000000efbbd14082cf2fbcf5badc7ee619f0f4e36d0a5b",
            "0x000000000000000000000000973e732e5306086fa8963677ec49010ee2f3d35a"
          ],
          "data": "0x0000000000000000000000000000000000000000000000000003b308ba7d0e00000000000000000000000000000000000000000000000000e67d56148e2aee1b0000000000000000000000000000000000000000000000412d5d919907f496d4000000000000000000000000000000000000000000000000e679a30bd3ade01b0000000000000000000000000000000000000000000000412d6144a1c271a4d4",
          "blockHash": "0xcb7ef94f4d5477f62eb068a398e2540bf6fc5a4071d426389514a9c468e851d0",
          "blockNumber": "0xf20628",
          "transactionHash": "0x1db5120708547deeac9b5e4a399f1966351627a9eebf5f82b46dee0ac43ef21e",
          "transactionIndex": "0x9",
          "logIndex": "0x1d",
          "removed": false
        }
      ],
      "logsBloom": "0x0000000000000000000000000000000000000000000000000008000000000000000000000000000000004000000000000000800000000000000000000000000000800000000000000000000000000080000000000000010000010000000000000800000000000000000000000000000000000000000000008000000000000000080000000000000000000000080000000800000000000000000000000000000020100000000000000000200000000000000040000000000800a000000000004000200000000800000001000000000000000000008000000000100000000000000000000000000000000000000000000000000000000000000000000020100000",
      "type": "0x2",
      "transactionHash": "0x1db5120708547deeac9b5e4a399f1966351627a9eebf5f82b46dee0ac43ef21e",
      "transactionIndex": "0x9",
      "blockHash": "0xcb7ef94f4d5477f62eb068a398e2540bf6fc5a4071d426389514a9c468e851d0",
      "blockNumber": "0xf20628",
      "gasUsed": "0xa2b3",
      "effectiveGasPrice": "0x5d21dba0f",
      "from": "0xefbbd14082cf2fbcf5badc7ee619f0f4e36d0a5b",
      "to": "0x8120a8e0688be6b2c0bb469f871e5e7023ca85eb",
      "contractAddress": null
    },
    {
      "status": "0x1",
      "cumulativeGasUsed": "0xa2b3",
      "logs": [
        {
          "address": "0x8120a8e0688be6b2c0bb469f871e5e7023ca85eb",
          "topics": [
            "0xf98448b987f1428e0e230e1f3c6e2ce15b5693eaf31827fbd0b1ec4b424ae7cf",
            "0x0000000000000000000000000000000000000000000000000000000000000004",
            "0x000000000000000000000000e6c835021e1d729f1db7bb571a2c75ebbc87a489"
          ],
          "data": "0x000000000000000000000000000000000000000000000000000000000000000000000000000000000000000000000000000000000000000000000000676630790000000000000000000000000000000000000000000000000000000000000000",
          "blockHash": "0x5420da7960b6762dc11cdbe3db18766ba6c2d7e7111891b91b4f29dd58ace66c",
          "blockNumber": "0xf20629",
          "transactionHash": "0x32afc92b32805b606152b9e5c01a671955f8ea3466be182a09d864dd8ffe6d1f",
          "transactionIndex": "0x0",
          "logIndex": "0x0",
          "removed": false
        },
        {
          "address": "0x0000000000000000000000000000000000001010",
          "topics": [
            "0x4dfe1bbbcf077ddc3e01291eea2d5c70c2b422b415d95645b9adcfd678cb1d63",
            "0x0000000000000000000000000000000000000000000000000000000000001010",
            "0x000000000000000000000000efbbd14082cf2fbcf5badc7ee619f0f4e36d0a5b",
            "0x000000000000000000000000973e732e5306086fa8963677ec49010ee2f3d35a"
          ],
          "data": "0x0000000000000000000000000000000000000000000000000003b308ba7d0e00000000000000000000000000000000000000000000000000e679a30bd3a4579e0000000000000000000000000000000000000000000000412d6144a1c271a4d4000000000000000000000000000000000000000000000000e675f0031927499e0000000000000000000000000000000000000000000000412d64f7aa7ceeb2d4",
          "blockHash": "0x5420da7960b6762dc11cdbe3db18766ba6c2d7e7111891b91b4f29dd58ace66c",
          "blockNumber": "0xf20629",
          "transactionHash": "0x32afc92b32805b606152b9e5c01a671955f8ea3466be182a09d864dd8ffe6d1f",
          "transactionIndex": "0x0",
          "logIndex": "0x1",
          "removed": false
        }
      ],
      "logsBloom": "0x0000000000000000000000000000000000000000000000000000000000000000000000000000000000004000000000000000800000000000002000000000000000800000000000000000000000400080000000000000010000010000000000000800000000000000000000000000000000000000000000008000000000002000080000000000000000000000080000000800000000000000000000000000000020100000000000000000200000000000000040000000000800a000000000004000000000000000000001000000000000000000008000000000100000000000000000000000000000000000000000000000000000000000000000000020100000",
      "type": "0x2",
      "transactionHash": "0x32afc92b32805b606152b9e5c01a671955f8ea3466be182a09d864dd8ffe6d1f",
      "transactionIndex": "0x0",
      "blockHash": "0x5420da7960b6762dc11cdbe3db18766ba6c2d7e7111891b91b4f29dd58ace66c",
      "blockNumber": "0xf20629",
      "gasUsed": "0xa2b3",
      "effectiveGasPrice": "0x5d21dba0f",
      "from": "0xefbbd14082cf2fbcf5badc7ee619f0f4e36d0a5b",
      "to": "0x8120a8e0688be6b2c0bb469f871e5e7023ca85eb",
      "contractAddress": null
    },
    {
      "status": "0x1",
      "cumulativeGasUsed": "0x18757",
      "logs": [
        {
          "address": "0x8120a8e0688be6b2c0bb469f871e5e7023ca85eb",
          "topics": [
            "0xf98448b987f1428e0e230e1f3c6e2ce15b5693eaf31827fbd0b1ec4b424ae7cf",
            "0x0000000000000000000000000000000000000000000000000000000000000004",
            "0x00000000000000000000000017c5b7ddac9e5623c018c32d67632da85a9be95b"
          ],
          "data": "0x000000000000000000000000000000000000000000000000000000000000000000000000000000000000000000000000000000000000000000000000676630790000000000000000000000000000000000000000000000000000000000000001",
          "blockHash": "0x5420da7960b6762dc11cdbe3db18766ba6c2d7e7111891b91b4f29dd58ace66c",
          "blockNumber": "0xf20629",
          "transactionHash": "0xf88e7724379dcb76433db8f98f9d52d40524bde58c36c835e47ec8d60cf6e417",
          "transactionIndex": "0x1",
          "logIndex": "0x2",
          "removed": false
        },
        {
          "address": "0x0000000000000000000000000000000000001010",
          "topics": [
            "0x4dfe1bbbcf077ddc3e01291eea2d5c70c2b422b415d95645b9adcfd678cb1d63",
            "0x0000000000000000000000000000000000000000000000000000000000001010",
            "0x000000000000000000000000efbbd14082cf2fbcf5badc7ee619f0f4e36d0a5b",
            "0x000000000000000000000000973e732e5306086fa8963677ec49010ee2f3d35a"
          ],
          "data": "0x000000000000000000000000000000000000000000000000000532dd14b32800000000000000000000000000000000000000000000000000e675f003191dc1210000000000000000000000000000000000000000000000412d64f7aa7ceeb2d4000000000000000000000000000000000000000000000000e670bd26046a99210000000000000000000000000000000000000000000000412d6a2a8791a1dad4",
          "blockHash": "0x5420da7960b6762dc11cdbe3db18766ba6c2d7e7111891b91b4f29dd58ace66c",
          "blockNumber": "0xf20629",
          "transactionHash": "0xf88e7724379dcb76433db8f98f9d52d40524bde58c36c835e47ec8d60cf6e417",
          "transactionIndex": "0x1",
          "logIndex": "0x3",
          "removed": false
        }
      ],
      "logsBloom": "0x0000000000000000000000000000000080000000000000000000000000000000000000000000000000004002000000000000800000000000000000000000000000800000000000000000000000000080000000000000010000010000000000000800000000000000000000000000000000000000000100008000000000000000080000000000000000000000080000000800000000000000000000000000000020100000000000000000200000000000000040000000000800a000000000004000000000000000000001000000000000000000008000000000100000000000000000000000000000000000000000000000000000000000000000000020100000",
      "type": "0x2",
      "transactionHash": "0xf88e7724379dcb76433db8f98f9d52d40524bde58c36c835e47ec8d60cf6e417",
      "transactionIndex": "0x1",
      "blockHash": "0x5420da7960b6762dc11cdbe3db18766ba6c2d7e7111891b91b4f29dd58ace66c",
      "blockNumber": "0xf20629",
      "gasUsed": "0xe4a4",
      "effectiveGasPrice": "0x5d21dba0f",
      "from": "0xefbbd14082cf2fbcf5badc7ee619f0f4e36d0a5b",
      "to": "0x8120a8e0688be6b2c0bb469f871e5e7023ca85eb",
      "contractAddress": null
    },
    {
      "status": "0x1",
      "cumulativeGasUsed": "0x23b9b",
      "logs": [
        {
          "address": "0x8120a8e0688be6b2c0bb469f871e5e7023ca85eb",
          "topics": [
            "0x9ea6790c7dadfd01c9f8b9762b3682607af2c7e79e05a9f9fdf5580dde949151",
            "0x00000000000000000000000066612fb73c5df6273f79bfc1f03382399e8b9ec6",
            "0x0000000000000000000000000000000000000000000000000000000000000004"
          ],
          "data": "0x4bbc170a00000000000000000000000000000000000000000000000000000000",
          "blockHash": "0x5420da7960b6762dc11cdbe3db18766ba6c2d7e7111891b91b4f29dd58ace66c",
          "blockNumber": "0xf20629",
          "transactionHash": "0xbca3423bee02782317ecc201558c8a000173a293380883a7130730c6c208b178",
          "transactionIndex": "0x2",
          "logIndex": "0x4",
          "removed": false
        },
        {
          "address": "0x8120a8e0688be6b2c0bb469f871e5e7023ca85eb",
          "topics": [
            "0x9ea6790c7dadfd01c9f8b9762b3682607af2c7e79e05a9f9fdf5580dde949151",
            "0x00000000000000000000000066612fb73c5df6273f79bfc1f03382399e8b9ec6",
            "0x0000000000000000000000000000000000000000000000000000000000000004"
          ],
          "data": "0x15f4150100000000000000000000000000000000000000000000000000000000",
          "blockHash": "0x5420da7960b6762dc11cdbe3db18766ba6c2d7e7111891b91b4f29dd58ace66c",
          "blockNumber": "0xf20629",
          "transactionHash": "0xbca3423bee02782317ecc201558c8a000173a293380883a7130730c6c208b178",
          "transactionIndex": "0x2",
          "logIndex": "0x5",
          "removed": false
        },
        {
          "address": "0x8120a8e0688be6b2c0bb469f871e5e7023ca85eb",
          "topics": [
            "0x9ea6790c7dadfd01c9f8b9762b3682607af2c7e79e05a9f9fdf5580dde949151",
            "0x00000000000000000000000066612fb73c5df6273f79bfc1f03382399e8b9ec6",
            "0x0000000000000000000000000000000000000000000000000000000000000004"
          ],
          "data": "0x9e96a26000000000000000000000000000000000000000000000000000000000",
          "blockHash": "0x5420da7960b6762dc11cdbe3db18766ba6c2d7e7111891b91b4f29dd58ace66c",
          "blockNumber": "0xf20629",
          "transactionHash": "0xbca3423bee02782317ecc201558c8a000173a293380883a7130730c6c208b178",
          "transactionIndex": "0x2",
          "logIndex": "0x6",
          "removed": false
        },
        {
          "address": "0x0000000000000000000000000000000000001010",
          "topics": [
            "0x4dfe1bbbcf077ddc3e01291eea2d5c70c2b422b415d95645b9adcfd678cb1d63",
            "0x0000000000000000000000000000000000000000000000000000000000001010",
            "0x000000000000000000000000efbbd14082cf2fbcf5badc7ee619f0f4e36d0a5b",
            "0x000000000000000000000000973e732e5306086fa8963677ec49010ee2f3d35a"
          ],
          "data": "0x00000000000000000000000000000000000000000000000000041948b6ad6800000000000000000000000000000000000000000000000000e670bd26045d33850000000000000000000000000000000000000000000000412d6a2a8791a1dad4000000000000000000000000000000000000000000000000e66ca3dd4dafcb850000000000000000000000000000000000000000000000412d6e43d0484f42d4",
          "blockHash": "0x5420da7960b6762dc11cdbe3db18766ba6c2d7e7111891b91b4f29dd58ace66c",
          "blockNumber": "0xf20629",
          "transactionHash": "0xbca3423bee02782317ecc201558c8a000173a293380883a7130730c6c208b178",
          "transactionIndex": "0x2",
          "logIndex": "0x7",
          "removed": false
        }
      ],
      "logsBloom": "0x0000000400008000000000000000000000000000000000000000000000000000000200000000000000004000000000000000800000000000000000000000000000800000000000000000000000000080000000000000010000010000000000000800000000000000000000000000000004002000000000008000000000000000080000000000000000000000080000000000000000000000000000000000000020100000000000000000000000000000000040000000000000a000000000004000000000000000000001000000200000000000008000000000100000000000000000000000000000000000000000000000000000000000000000000020100000",
      "type": "0x2",
      "transactionHash": "0xbca3423bee02782317ecc201558c8a000173a293380883a7130730c6c208b178",
      "transactionIndex": "0x2",
      "blockHash": "0x5420da7960b6762dc11cdbe3db18766ba6c2d7e7111891b91b4f29dd58ace66c",
      "blockNumber": "0xf20629",
      "gasUsed": "0xb444",
      "effectiveGasPrice": "0x5d21dba0f",
      "from": "0xefbbd14082cf2fbcf5badc7ee619f0f4e36d0a5b",
      "to": "0x8120a8e0688be6b2c0bb469f871e5e7023ca85eb",
      "contractAddress": null
    },
    {
      "status": "0x1",
      "cumulativeGasUsed": "0x307d6",
      "logs": [
        {
          "address": "0xe74ef2c2f3904a04bd8ac21764209dce63fc4f59",
          "topics": [
            "0xfbbd6e9cc51f124b05f08f20e9aef57fb26fc9a927be06212c59506610581335",
            "0x0000000000000000000000003c7deb6feaeb7a82bde580fb73d8d69c401b219e",
            "0x000000000000000000000000efbbd14082cf2fbcf5badc7ee619f0f4e36d0a5b"
          ],
          "data": "0x00000000000000000000000000000000000000000000000000000000000001f40000000000000000000000000000000000000000000000000000000000000002",
          "blockHash": "0x5420da7960b6762dc11cdbe3db18766ba6c2d7e7111891b91b4f29dd58ace66c",
          "blockNumber": "0xf20629",
          "transactionHash": "0x0191a9d86c1e933766fb6c3d0215ba768bbcd0f03d1a436776004e5d7971cd19",
          "transactionIndex": "0x3",
          "logIndex": "0x8",
          "removed": false
        },
        {
          "address": "0x0000000000000000000000000000000000001010",
          "topics": [
            "0x4dfe1bbbcf077ddc3e01291eea2d5c70c2b422b415d95645b9adcfd678cb1d63",
            "0x0000000000000000000000000000000000000000000000000000000000001010",
            "0x000000000000000000000000efbbd14082cf2fbcf5badc7ee619f0f4e36d0a5b",
            "0x000000000000000000000000973e732e5306086fa8963677ec49010ee2f3d35a"
          ],
          "data": "0x0000000000000000000000000000000000000000000000000004a4c71d11de00000000000000000000000000000000000000000000000000e66ca3dd4da53b890000000000000000000000000000000000000000000000412d6e43d0484f42d4000000000000000000000000000000000000000000000000e667ff1630935d890000000000000000000000000000000000000000000000412d72e897656120d4",
          "blockHash": "0x5420da7960b6762dc11cdbe3db18766ba6c2d7e7111891b91b4f29dd58ace66c",
          "blockNumber": "0xf20629",
          "transactionHash": "0x0191a9d86c1e933766fb6c3d0215ba768bbcd0f03d1a436776004e5d7971cd19",
          "transactionIndex": "0x3",
          "logIndex": "0x9",
          "removed": false
        }
      ],
      "logsBloom": "0x00000000000000000000800000000000000000000000000000800000000000000000000000000000000040000000000000008000000000000000000000000000008000000000000020000000000000800000000000000020000100000000000000001000000000400000000000000000000000000000000080000000004000000800000000000000000000000000000000000004000000000000000000000000201000000000000000000000000000000000400000000000000000000000004000000000000000000001000000000000000000000000000000100400000000000000000000000000000000000000000000000000000000000000000020100000",
      "type": "0x2",
      "transactionHash": "0x0191a9d86c1e933766fb6c3d0215ba768bbcd0f03d1a436776004e5d7971cd19",
      "transactionIndex": "0x3",
      "blockHash": "0x5420da7960b6762dc11cdbe3db18766ba6c2d7e7111891b91b4f29dd58ace66c",
      "blockNumber": "0xf20629",
      "gasUsed": "0xcc3b",
      "effectiveGasPrice": "0x5d21dba0f",
      "from": "0xefbbd14082cf2fbcf5badc7ee619f0f4e36d0a5b",
      "to": "0xe74ef2c2f3904a04bd8ac21764209dce63fc4f59",
      "contractAddress": null
    },
    {
      "status": "0x1",
      "cumulativeGasUsed": "0x3d436",
      "logs": [
        {
          "address": "0xe74ef2c2f3904a04bd8ac21764209dce63fc4f59",
          "topics": [
            "0xfbbd6e9cc51f124b05f08f20e9aef57fb26fc9a927be06212c59506610581335",
            "0x0000000000000000000000003c7deb6feaeb7a82bde580fb73d8d69c401b219e",
            "0x000000000000000000000000efbbd14082cf2fbcf5badc7ee619f0f4e36d0a5b"
          ],
          "data": "0x0000000000000000000000000000000000000000000000056bc75e2d631000000000000000000000000000000000000000000000000000000000000000000001",
          "blockHash": "0x5420da7960b6762dc11cdbe3db18766ba6c2d7e7111891b91b4f29dd58ace66c",
          "blockNumber": "0xf20629",
          "transactionHash": "0xa8ca22acdfb4d8a9599085e4c226ed9a7737d6197f9b1105198cf28d997ba3e1",
          "transactionIndex": "0x4",
          "logIndex": "0xa",
          "removed": false
        },
        {
          "address": "0x0000000000000000000000000000000000001010",
          "topics": [
            "0x4dfe1bbbcf077ddc3e01291eea2d5c70c2b422b415d95645b9adcfd678cb1d63",
            "0x0000000000000000000000000000000000000000000000000000000000001010",
            "0x000000000000000000000000efbbd14082cf2fbcf5badc7ee619f0f4e36d0a5b",
            "0x000000000000000000000000973e732e5306086fa8963677ec49010ee2f3d35a"
          ],
          "data": "0x0000000000000000000000000000000000000000000000000004a59e7b5dc000000000000000000000000000000000000000000000000000e667ff16308766140000000000000000000000000000000000000000000000412d72e897656120d4000000000000000000000000000000000000000000000000e6635977b529a6140000000000000000000000000000000000000000000000412d778e35e0bee0d4",
          "blockHash": "0x5420da7960b6762dc11cdbe3db18766ba6c2d7e7111891b91b4f29dd58ace66c",
          "blockNumber": "0xf20629",
          "transactionHash": "0xa8ca22acdfb4d8a9599085e4c226ed9a7737d6197f9b1105198cf28d997ba3e1",
          "transactionIndex": "0x4",
          "logIndex": "0xb",
          "removed": false
        }
      ],
      "logsBloom": "0x00000000000000000000800000000000000000000000000000800000000000000000000000000000000040000000000000008000000000000000000000000000008000000000000020000000000000800000000000000020000100000000000000001000000000400000000000000000000000000000000080000000004000000800000000000000000000000000000000000004000000000000000000000000201000000000000000000000000000000000400000000000000000000000004000000000000000000001000000000000000000000000000000100400000000000000000000000000000000000000000000000000000000000000000020100000",
      "type": "0x2",
      "transactionHash": "0xa8ca22acdfb4d8a9599085e4c226ed9a7737d6197f9b1105198cf28d997ba3e1",
      "transactionIndex": "0x4",
      "blockHash": "0x5420da7960b6762dc11cdbe3db18766ba6c2d7e7111891b91b4f29dd58ace66c",
      "blockNumber": "0xf20629",
      "gasUsed": "0xcc60",
      "effectiveGasPrice": "0x5d21dba0f",
      "from": "0xefbbd14082cf2fbcf5badc7ee619f0f4e36d0a5b",
      "to": "0xe74ef2c2f3904a04bd8ac21764209dce63fc4f59",
      "contractAddress": null
    }
  ],
  "libraries": [],
  "pending": [],
  "returns": {},
  "timestamp": 1734750330,
  "chain": 80002,
  "commit": "66cd11d"
}