{
  "transactions": [
    {
      "hash": "0x0940f897285667970df1d336c4d3cb4d7bb129b91f85237c7d98157d714da236",
      "transactionType": "CALL",
      "contractName": null,
      "contractAddress": "0x8120a8e0688be6b2c0bb469f871e5e7023ca85eb",
      "function": "grantRole(uint64,address,uint32)",
      "arguments": [
        "1",
        "0xEFBBD14082cF2FbCf5Badc7ee619F0f4e36D0A5B",
        "0"
      ],
      "transaction": {
        "from": "0xefbbd14082cf2fbcf5badc7ee619f0f4e36d0a5b",
        "to": "0x8120a8e0688be6b2c0bb469f871e5e7023ca85eb",
        "gas": "0xedf2",
        "value": "0x0",
        "input": "0x25c471a00000000000000000000000000000000000000000000000000000000000000001000000000000000000000000efbbd14082cf2fbcf5badc7ee619f0f4e36d0a5b0000000000000000000000000000000000000000000000000000000000000000",
        "nonce": "0x989",
        "chainId": "0x13882"
      },
      "additionalContracts": [],
      "isFixedGasLimit": false
    },
    {
      "hash": "0xa887ce277e938880e32828b05b0d9a01a56a774744754a1b105c1b8ac5d37f0a",
      "transactionType": "CALL",
      "contractName": null,
      "contractAddress": "0x8120a8e0688be6b2c0bb469f871e5e7023ca85eb",
      "function": "setTargetFunctionRole(address,bytes4[],uint64)",
      "arguments": [
        "0x4580859e64385e3e82ee64da2Bc06Ef84Bde851a",
        "[0x8cc0de1d]",
        "1"
      ],
      "transaction": {
        "from": "0xefbbd14082cf2fbcf5badc7ee619f0f4e36d0a5b",
        "to": "0x8120a8e0688be6b2c0bb469f871e5e7023ca85eb",
        "gas": "0xc971",
        "value": "0x0",
        "input": "0x08d6122d0000000000000000000000004580859e64385e3e82ee64da2bc06ef84bde851a0000000000000000000000000000000000000000000000000000000000000060000000000000000000000000000000000000000000000000000000000000000100000000000000000000000000000000000000000000000000000000000000018cc0de1d00000000000000000000000000000000000000000000000000000000",
        "nonce": "0x98a",
        "chainId": "0x13882"
      },
      "additionalContracts": [],
      "isFixedGasLimit": false
    },
    {
      "hash": "0x7e5536e526bb404dcf3e5b4d41747260a9d39be8bba60d98510b512ed476b34f",
      "transactionType": "CALL",
      "contractName": null,
      "contractAddress": "0x8120a8e0688be6b2c0bb469f871e5e7023ca85eb",
      "function": "setTargetFunctionRole(address,bytes4[],uint64)",
      "arguments": [
        "0xD32CA33b1FBD97523536Ed3519A191Df242AFCFd",
        "[0x06af20da]",
        "1"
      ],
      "transaction": {
        "from": "0xefbbd14082cf2fbcf5badc7ee619f0f4e36d0a5b",
        "to": "0x8120a8e0688be6b2c0bb469f871e5e7023ca85eb",
        "gas": "0xc971",
        "value": "0x0",
        "input": "0x08d6122d000000000000000000000000d32ca33b1fbd97523536ed3519a191df242afcfd00000000000000000000000000000000000000000000000000000000000000600000000000000000000000000000000000000000000000000000000000000001000000000000000000000000000000000000000000000000000000000000000106af20da00000000000000000000000000000000000000000000000000000000",
        "nonce": "0x98b",
        "chainId": "0x13882"
      },
      "additionalContracts": [],
      "isFixedGasLimit": false
    },
    {
      "hash": "0xf921190ba5f73c2a9f92f57d3f6929ed51a09a40126fc1455649d3c85247ce6d",
      "transactionType": "CALL",
      "contractName": null,
      "contractAddress": "0x8120a8e0688be6b2c0bb469f871e5e7023ca85eb",
      "function": "setTargetFunctionRole(address,bytes4[],uint64)",
      "arguments": [
        "0x00ABb22eB950684e4314287e94f024B0A9420d40",
        "[0x20c5429b, 0xb8adaa11, 0xb759f954]",
        "1"
      ],
      "transaction": {
        "from": "0xefbbd14082cf2fbcf5badc7ee619f0f4e36d0a5b",
        "to": "0x8120a8e0688be6b2c0bb469f871e5e7023ca85eb",
        "gas": "0xf8ec",
        "value": "0x0",
        "input": "0x08d6122d00000000000000000000000000abb22eb950684e4314287e94f024b0a9420d4000000000000000000000000000000000000000000000000000000000000000600000000000000000000000000000000000000000000000000000000000000001000000000000000000000000000000000000000000000000000000000000000320c5429b00000000000000000000000000000000000000000000000000000000b8adaa1100000000000000000000000000000000000000000000000000000000b759f95400000000000000000000000000000000000000000000000000000000",
        "nonce": "0x98c",
        "chainId": "0x13882"
      },
      "additionalContracts": [],
      "isFixedGasLimit": false
    },
    {
      "hash": "0xfd5b045723dd6e502ae03f529239980be0bb7d01876e864bb05147bf62827dd8",
      "transactionType": "CALL",
      "contractName": null,
      "contractAddress": "0x8120a8e0688be6b2c0bb469f871e5e7023ca85eb",
      "function": "setTargetFunctionRole(address,bytes4[],uint64)",
      "arguments": [
        "0xA2746F0D272bb0F5273f53B4a0F476afe8873C32",
        "[0xf6eea098, 0x74a8f103, 0xdaea85c5]",
        "1"
      ],
      "transaction": {
        "from": "0xefbbd14082cf2fbcf5badc7ee619f0f4e36d0a5b",
        "to": "0x8120a8e0688be6b2c0bb469f871e5e7023ca85eb",
        "gas": "0xf8fd",
        "value": "0x0",
        "input": "0x08d6122d000000000000000000000000a2746f0d272bb0f5273f53b4a0f476afe8873c32000000000000000000000000000000000000000000000000000000000000006000000000000000000000000000000000000000000000000000000000000000010000000000000000000000000000000000000000000000000000000000000003f6eea0980000000000000000000000000000000000000000000000000000000074a8f10300000000000000000000000000000000000000000000000000000000daea85c500000000000000000000000000000000000000000000000000000000",
        "nonce": "0x98d",
        "chainId": "0x13882"
      },
      "additionalContracts": [],
      "isFixedGasLimit": false
    },
    {
      "hash": "0xa86ce5dca6e49c59d1d0f2cd80c10715fc3eeac4a416ed379c1cfd94ab7d8c8d",
      "transactionType": "CALL",
      "contractName": null,
      "contractAddress": "0x8120a8e0688be6b2c0bb469f871e5e7023ca85eb",
      "function": "grantRole(uint64,address,uint32)",
      "arguments": [
        "2",
        "0xEFBBD14082cF2FbCf5Badc7ee619F0f4e36D0A5B",
        "0"
      ],
      "transaction": {
        "from": "0xefbbd14082cf2fbcf5badc7ee619f0f4e36d0a5b",
        "to": "0x8120a8e0688be6b2c0bb469f871e5e7023ca85eb",
        "gas": "0xedf2",
        "value": "0x0",
        "input": "0x25c471a00000000000000000000000000000000000000000000000000000000000000002000000000000000000000000efbbd14082cf2fbcf5badc7ee619f0f4e36d0a5b0000000000000000000000000000000000000000000000000000000000000000",
        "nonce": "0x98e",
        "chainId": "0x13882"
      },
      "additionalContracts": [],
      "isFixedGasLimit": false
    },
    {
      "hash": "0x928c7d93328fe5fbffa94dfd7286fdf48d40d6720c4b07aab16f3c2752145260",
      "transactionType": "CALL",
      "contractName": null,
      "contractAddress": "0x8120a8e0688be6b2c0bb469f871e5e7023ca85eb",
      "function": "setTargetFunctionRole(address,bytes4[],uint64)",
      "arguments": [
        "0x8dB5ae2ae14e189c7d0e8f9c67643170e5508874",
        "[0xdaea85c5, 0xab0da5a9]",
        "2"
      ],
      "transaction": {
        "from": "0xefbbd14082cf2fbcf5badc7ee619f0f4e36d0a5b",
        "to": "0x8120a8e0688be6b2c0bb469f871e5e7023ca85eb",
        "gas": "0xe137",
        "value": "0x0",
        "input": "0x08d6122d0000000000000000000000008db5ae2ae14e189c7d0e8f9c67643170e5508874000000000000000000000000000000000000000000000000000000000000006000000000000000000000000000000000000000000000000000000000000000020000000000000000000000000000000000000000000000000000000000000002daea85c500000000000000000000000000000000000000000000000000000000ab0da5a900000000000000000000000000000000000000000000000000000000",
        "nonce": "0x98f",
        "chainId": "0x13882"
      },
      "additionalContracts": [],
      "isFixedGasLimit": false
    },
    {
      "hash": "0x94e6ad9af6b75edbdba4f9b0d66961f0ae5cb8894038c558f9f4908426a4785a",
      "transactionType": "CALL",
      "contractName": null,
      "contractAddress": "0x8120a8e0688be6b2c0bb469f871e5e7023ca85eb",
      "function": "grantRole(uint64,address,uint32)",
      "arguments": [
        "4",
        "0x5945C1417ad688EF90Cf3e61263b404B96A0C20b",
        "0"
      ],
      "transaction": {
        "from": "0xefbbd14082cf2fbcf5badc7ee619f0f4e36d0a5b",
        "to": "0x8120a8e0688be6b2c0bb469f871e5e7023ca85eb",
        "gas": "0xedf2",
        "value": "0x0",
        "input": "0x25c471a000000000000000000000000000000000000000000000000000000000000000040000000000000000000000005945c1417ad688ef90cf3e61263b404b96a0c20b0000000000000000000000000000000000000000000000000000000000000000",
        "nonce": "0x990",
        "chainId": "0x13882"
      },
      "additionalContracts": [],
      "isFixedGasLimit": false
    },
    {
      "hash": "0x538fee18bee3420a847fa84c4dc137594ae753768fd1179e6e381ee15a7019d0",
      "transactionType": "CALL",
      "contractName": null,
      "contractAddress": "0x8120a8e0688be6b2c0bb469f871e5e7023ca85eb",
      "function": "grantRole(uint64,address,uint32)",
      "arguments": [
        "4",
        "0x31B351E4C217f838190825586cAA8494Ee1CA635",
        "0"
      ],
      "transaction": {
        "from": "0xefbbd14082cf2fbcf5badc7ee619f0f4e36d0a5b",
        "to": "0x8120a8e0688be6b2c0bb469f871e5e7023ca85eb",
        "gas": "0xedf2",
        "value": "0x0",
        "input": "0x25c471a0000000000000000000000000000000000000000000000000000000000000000400000000000000000000000031b351e4c217f838190825586caa8494ee1ca6350000000000000000000000000000000000000000000000000000000000000000",
        "nonce": "0x991",
        "chainId": "0x13882"
      },
      "additionalContracts": [],
      "isFixedGasLimit": false
    },
    {
      "hash": "0xe1d9fe25d5eb4fa1f64691618ed14152ff49087fff4e0f01079ea2fe2f117356",
      "transactionType": "CALL",
      "contractName": null,
      "contractAddress": "0x8120a8e0688be6b2c0bb469f871e5e7023ca85eb",
      "function": "grantRole(uint64,address,uint32)",
      "arguments": [
        "4",
        "0xA2746F0D272bb0F5273f53B4a0F476afe8873C32",
        "0"
      ],
      "transaction": {
        "from": "0xefbbd14082cf2fbcf5badc7ee619f0f4e36d0a5b",
        "to": "0x8120a8e0688be6b2c0bb469f871e5e7023ca85eb",
        "gas": "0xedf2",
        "value": "0x0",
        "input": "0x25c471a00000000000000000000000000000000000000000000000000000000000000004000000000000000000000000a2746f0d272bb0f5273f53b4a0f476afe8873c320000000000000000000000000000000000000000000000000000000000000000",
        "nonce": "0x992",
        "chainId": "0x13882"
      },
      "additionalContracts": [],
      "isFixedGasLimit": false
    },
    {
      "hash": "0x16f63d96e134f11c210e7bfb8392be65d6973641e89002e61bb5fba48b4a738d",
      "transactionType": "CALL",
      "contractName": null,
      "contractAddress": "0x8120a8e0688be6b2c0bb469f871e5e7023ca85eb",
      "function": "setTargetFunctionRole(address,bytes4[],uint64)",
      "arguments": [
        "0x83266Ca8147572839BB23A204db52Bd26a1FCeaa",
        "[0x4bbc170a, 0x15f41501, 0x9e96a260]",
        "4"
      ],
      "transaction": {
        "from": "0xefbbd14082cf2fbcf5badc7ee619f0f4e36d0a5b",
        "to": "0x8120a8e0688be6b2c0bb469f871e5e7023ca85eb",
        "gas": "0xf8fd",
        "value": "0x0",
        "input": "0x08d6122d00000000000000000000000083266ca8147572839bb23a204db52bd26a1fceaa0000000000000000000000000000000000000000000000000000000000000060000000000000000000000000000000000000000000000000000000000000000400000000000000000000000000000000000000000000000000000000000000034bbc170a0000000000000000000000000000000000000000000000000000000015f41501000000000000000000000000000000000000000000000000000000009e96a26000000000000000000000000000000000000000000000000000000000",
        "nonce": "0x993",
        "chainId": "0x13882"
      },
      "additionalContracts": [],
      "isFixedGasLimit": false
    },
    {
      "hash": "0xd4d46c7f710b214b29076a009aaef7ecfb4c2ff9a9370fd253ec5bc749237aa5",
      "transactionType": "CALL",
      "contractName": null,
      "contractAddress": "0x4580859e64385e3e82ee64da2bc06ef84bde851a",
      "function": "setFees(uint8,address,uint256,address)",
      "arguments": [
        "3",
        "0xf06E1998119CAEdf8E084194AA5FEa89eA9389C3",
        "500",
        "0x3c7DeB6FeAEb7a82BDe580Fb73d8d69c401b219e"
      ],
      "transaction": {
        "from": "0xefbbd14082cf2fbcf5badc7ee619f0f4e36d0a5b",
        "to": "0x4580859e64385e3e82ee64da2bc06ef84bde851a",
        "gas": "0x13ae7",
        "value": "0x0",
        "input": "0x8cc0de1d0000000000000000000000000000000000000000000000000000000000000003000000000000000000000000f06e1998119caedf8e084194aa5fea89ea9389c300000000000000000000000000000000000000000000000000000000000001f40000000000000000000000003c7deb6feaeb7a82bde580fb73d8d69c401b219e",
        "nonce": "0x994",
        "chainId": "0x13882"
      },
      "additionalContracts": [],
      "isFixedGasLimit": false
    },
    {
      "hash": "0x8d380aa9f684a5a0d80a67d4e65fc054fbb44e6bda702e7c9fd5a5258fc3b594",
      "transactionType": "CALL",
      "contractName": null,
      "contractAddress": "0x4580859e64385e3e82ee64da2bc06ef84bde851a",
      "function": "setFees(uint8,address,uint256,address)",
      "arguments": [
        "1",
        "0xA2746F0D272bb0F5273f53B4a0F476afe8873C32",
        "100000000000000000000",
        "0x3c7DeB6FeAEb7a82BDe580Fb73d8d69c401b219e"
      ],
      "transaction": {
        "from": "0xefbbd14082cf2fbcf5badc7ee619f0f4e36d0a5b",
        "to": "0x4580859e64385e3e82ee64da2bc06ef84bde851a",
        "gas": "0x1299b",
        "value": "0x0",
        "input": "0x8cc0de1d0000000000000000000000000000000000000000000000000000000000000001000000000000000000000000a2746f0d272bb0f5273f53b4a0f476afe8873c320000000000000000000000000000000000000000000000056bc75e2d631000000000000000000000000000003c7deb6feaeb7a82bde580fb73d8d69c401b219e",
        "nonce": "0x995",
        "chainId": "0x13882"
      },
      "additionalContracts": [],
      "isFixedGasLimit": false
    }
  ],
  "receipts": [
    {
      "status": "0x1",
      "cumulativeGasUsed": "0xa2b3",
      "logs": [
        {
          "address": "0x8120a8e0688be6b2c0bb469f871e5e7023ca85eb",
          "topics": [
            "0xf98448b987f1428e0e230e1f3c6e2ce15b5693eaf31827fbd0b1ec4b424ae7cf",
            "0x0000000000000000000000000000000000000000000000000000000000000001",
            "0x000000000000000000000000efbbd14082cf2fbcf5badc7ee619f0f4e36d0a5b"
          ],
          "data": "0x000000000000000000000000000000000000000000000000000000000000000000000000000000000000000000000000000000000000000000000000677ca8fd0000000000000000000000000000000000000000000000000000000000000000",
          "blockHash": "0x4fc0abe07692deb8622e710905b1b34698ea90754396caeecc05dc85bd71b550",
          "blockNumber": "0xfc967c",
          "transactionHash": "0x0940f897285667970df1d336c4d3cb4d7bb129b91f85237c7d98157d714da236",
          "transactionIndex": "0x0",
          "logIndex": "0x0",
          "removed": false
        },
        {
          "address": "0x0000000000000000000000000000000000001010",
          "topics": [
            "0x4dfe1bbbcf077ddc3e01291eea2d5c70c2b422b415d95645b9adcfd678cb1d63",
            "0x0000000000000000000000000000000000000000000000000000000000001010",
            "0x000000000000000000000000efbbd14082cf2fbcf5badc7ee619f0f4e36d0a5b",
            "0x0000000000000000000000004631753190f2f5a15a7ba172bbac102b7d95fa22"
          ],
          "data": "0x0000000000000000000000000000000000000000000000000004adff8578804300000000000000000000000000000000000000000000000141c072330235a9c70000000000000000000000000000000000000000000003f5e61cb6a2dc40467700000000000000000000000000000000000000000000000141bbc4337cbd29840000000000000000000000000000000000000000000003f5e62164a261b8c6ba",
          "blockHash": "0x4fc0abe07692deb8622e710905b1b34698ea90754396caeecc05dc85bd71b550",
          "blockNumber": "0xfc967c",
          "transactionHash": "0x0940f897285667970df1d336c4d3cb4d7bb129b91f85237c7d98157d714da236",
          "transactionIndex": "0x0",
          "logIndex": "0x1",
          "removed": false
        }
      ],
      "logsBloom": "0x00000000000000000000000000000000000000002000000000000000000000000000000000000000000000000000000000008000000000000000000040040000008000000000000000000000000000800000000000040100000100000000000000000000000000100000000000000000000000000000000080000000000000000800000000000000000000000800000008000000000000000000000000000000200000000000000000002000000000000000400000000008008000000000004000000000000000000001000000000000000000000000000000100000000040000000000000000000000000000000000000000000000000000000000000100000",
      "type": "0x2",
      "transactionHash": "0x0940f897285667970df1d336c4d3cb4d7bb129b91f85237c7d98157d714da236",
      "transactionIndex": "0x0",
      "blockHash": "0x4fc0abe07692deb8622e710905b1b34698ea90754396caeecc05dc85bd71b550",
      "blockNumber": "0xfc967c",
      "gasUsed": "0xa2b3",
      "effectiveGasPrice": "0x75cff3440",
      "from": "0xefbbd14082cf2fbcf5badc7ee619f0f4e36d0a5b",
      "to": "0x8120a8e0688be6b2c0bb469f871e5e7023ca85eb",
      "contractAddress": null
    },
    {
      "status": "0x1",
      "cumulativeGasUsed": "0x1348b",
      "logs": [
        {
          "address": "0x8120a8e0688be6b2c0bb469f871e5e7023ca85eb",
          "topics": [
            "0x9ea6790c7dadfd01c9f8b9762b3682607af2c7e79e05a9f9fdf5580dde949151",
            "0x0000000000000000000000004580859e64385e3e82ee64da2bc06ef84bde851a",
            "0x0000000000000000000000000000000000000000000000000000000000000001"
          ],
          "data": "0x8cc0de1d00000000000000000000000000000000000000000000000000000000",
          "blockHash": "0x4fc0abe07692deb8622e710905b1b34698ea90754396caeecc05dc85bd71b550",
          "blockNumber": "0xfc967c",
          "transactionHash": "0xa887ce277e938880e32828b05b0d9a01a56a774744754a1b105c1b8ac5d37f0a",
          "transactionIndex": "0x1",
          "logIndex": "0x2",
          "removed": false
        },
        {
          "address": "0x0000000000000000000000000000000000001010",
          "topics": [
            "0x4dfe1bbbcf077ddc3e01291eea2d5c70c2b422b415d95645b9adcfd678cb1d63",
            "0x0000000000000000000000000000000000000000000000000000000000001010",
            "0x000000000000000000000000efbbd14082cf2fbcf5badc7ee619f0f4e36d0a5b",
            "0x0000000000000000000000004631753190f2f5a15a7ba172bbac102b7d95fa22"
          ],
          "data": "0x000000000000000000000000000000000000000000000000000431e303e3ca5800000000000000000000000000000000000000000000000141bbc4337cb3a1070000000000000000000000000000000000000000000003f5e62164a261b8c6ba00000000000000000000000000000000000000000000000141b7925078cfd6af0000000000000000000000000000000000000000000003f5e6259685659c9112",
          "blockHash": "0x4fc0abe07692deb8622e710905b1b34698ea90754396caeecc05dc85bd71b550",
          "blockNumber": "0xfc967c",
          "transactionHash": "0xa887ce277e938880e32828b05b0d9a01a56a774744754a1b105c1b8ac5d37f0a",
          "transactionIndex": "0x1",
          "logIndex": "0x3",
          "removed": false
        }
      ],
      "logsBloom": "0x00000004000080000000000000000000000000002000000000000000000000000000000000000000000000000000000000008000000000000000000040040000008000000000000000000000000000800000000000040100000100000000000000000000000000100000040000000000000000000000000080000000000000000800000000000000000000000800000000000000000000000000000000000000200000000000000000000000000000000000400000000000008000000000004000000000000002000001000000200000000000000000000000100000000040000100000000000000000000000000000000000000000000000000000000100000",
      "type": "0x2",
      "transactionHash": "0xa887ce277e938880e32828b05b0d9a01a56a774744754a1b105c1b8ac5d37f0a",
      "transactionIndex": "0x1",
      "blockHash": "0x4fc0abe07692deb8622e710905b1b34698ea90754396caeecc05dc85bd71b550",
      "blockNumber": "0xfc967c",
      "gasUsed": "0x91d8",
      "effectiveGasPrice": "0x75cff3440",
      "from": "0xefbbd14082cf2fbcf5badc7ee619f0f4e36d0a5b",
      "to": "0x8120a8e0688be6b2c0bb469f871e5e7023ca85eb",
      "contractAddress": null
    },
    {
      "status": "0x1",
      "cumulativeGasUsed": "0x41011",
      "logs": [
        {
          "address": "0x8120a8e0688be6b2c0bb469f871e5e7023ca85eb",
          "topics": [
            "0x9ea6790c7dadfd01c9f8b9762b3682607af2c7e79e05a9f9fdf5580dde949151",
            "0x000000000000000000000000d32ca33b1fbd97523536ed3519a191df242afcfd",
            "0x0000000000000000000000000000000000000000000000000000000000000001"
          ],
          "data": "0x06af20da00000000000000000000000000000000000000000000000000000000",
          "blockHash": "0x48891ffea6965d248561be8169cea944c937b9a01262bf9e88592db90d345f5f",
          "blockNumber": "0xfc967d",
          "transactionHash": "0x7e5536e526bb404dcf3e5b4d41747260a9d39be8bba60d98510b512ed476b34f",
          "transactionIndex": "0x1",
          "logIndex": "0x5",
          "removed": false
        },
        {
          "address": "0x0000000000000000000000000000000000001010",
          "topics": [
            "0x4dfe1bbbcf077ddc3e01291eea2d5c70c2b422b415d95645b9adcfd678cb1d63",
            "0x0000000000000000000000000000000000000000000000000000000000001010",
            "0x000000000000000000000000efbbd14082cf2fbcf5badc7ee619f0f4e36d0a5b",
            "0x0000000000000000000000004631753190f2f5a15a7ba172bbac102b7d95fa22"
          ],
          "data": "0x000000000000000000000000000000000000000000000000000431e303e3ca5800000000000000000000000000000000000000000000000141b7925078c74b070000000000000000000000000000000000000000000003f5e6400519ab515c4a00000000000000000000000000000000000000000000000141b3606d74e380af0000000000000000000000000000000000000000000003f5e64436fcaf3526a2",
          "blockHash": "0x48891ffea6965d248561be8169cea944c937b9a01262bf9e88592db90d345f5f",
          "blockNumber": "0xfc967d",
          "transactionHash": "0x7e5536e526bb404dcf3e5b4d41747260a9d39be8bba60d98510b512ed476b34f",
          "transactionIndex": "0x1",
          "logIndex": "0x6",
          "removed": false
        }
      ],
      "logsBloom": "0x00000004000080000000000000000000000000002000000000000000000000000000000000000000000000000000000000008000000000000000000040040000008000000000000000800000000000800000000000040100100100000000000000000000000000100000000000000000000000000000000080000000000000000800000000000000000000000800000000000000000000000000000000000000200000000000000000000000000000000000400000000000008000000000004000000000000000000001000000200000000400000000000000100000000040000000000000000000000000000000000000000000000000000000000000100000",
      "type": "0x2",
      "transactionHash": "0x7e5536e526bb404dcf3e5b4d41747260a9d39be8bba60d98510b512ed476b34f",
      "transactionIndex": "0x1",
      "blockHash": "0x48891ffea6965d248561be8169cea944c937b9a01262bf9e88592db90d345f5f",
      "blockNumber": "0xfc967d",
      "gasUsed": "0x91d8",
      "effectiveGasPrice": "0x75cff3440",
      "from": "0xefbbd14082cf2fbcf5badc7ee619f0f4e36d0a5b",
      "to": "0x8120a8e0688be6b2c0bb469f871e5e7023ca85eb",
      "contractAddress": null
    },
    {
      "status": "0x1",
      "cumulativeGasUsed": "0x4c449",
      "logs": [
        {
          "address": "0x8120a8e0688be6b2c0bb469f871e5e7023ca85eb",
          "topics": [
            "0x9ea6790c7dadfd01c9f8b9762b3682607af2c7e79e05a9f9fdf5580dde949151",
            "0x00000000000000000000000000abb22eb950684e4314287e94f024b0a9420d40",
            "0x0000000000000000000000000000000000000000000000000000000000000001"
          ],
          "data": "0x20c5429b00000000000000000000000000000000000000000000000000000000",
          "blockHash": "0x48891ffea6965d248561be8169cea944c937b9a01262bf9e88592db90d345f5f",
          "blockNumber": "0xfc967d",
          "transactionHash": "0xf921190ba5f73c2a9f92f57d3f6929ed51a09a40126fc1455649d3c85247ce6d",
          "transactionIndex": "0x2",
          "logIndex": "0x7",
          "removed": false
        },
        {
          "address": "0x8120a8e0688be6b2c0bb469f871e5e7023ca85eb",
          "topics": [
            "0x9ea6790c7dadfd01c9f8b9762b3682607af2c7e79e05a9f9fdf5580dde949151",
            "0x00000000000000000000000000abb22eb950684e4314287e94f024b0a9420d40",
            "0x0000000000000000000000000000000000000000000000000000000000000001"
          ],
          "data": "0xb8adaa1100000000000000000000000000000000000000000000000000000000",
          "blockHash": "0x48891ffea6965d248561be8169cea944c937b9a01262bf9e88592db90d345f5f",
          "blockNumber": "0xfc967d",
          "transactionHash": "0xf921190ba5f73c2a9f92f57d3f6929ed51a09a40126fc1455649d3c85247ce6d",
          "transactionIndex": "0x2",
          "logIndex": "0x8",
          "removed": false
        },
        {
          "address": "0x8120a8e0688be6b2c0bb469f871e5e7023ca85eb",
          "topics": [
            "0x9ea6790c7dadfd01c9f8b9762b3682607af2c7e79e05a9f9fdf5580dde949151",
            "0x00000000000000000000000000abb22eb950684e4314287e94f024b0a9420d40",
            "0x0000000000000000000000000000000000000000000000000000000000000001"
          ],
          "data": "0xb759f95400000000000000000000000000000000000000000000000000000000",
          "blockHash": "0x48891ffea6965d248561be8169cea944c937b9a01262bf9e88592db90d345f5f",
          "blockNumber": "0xfc967d",
          "transactionHash": "0xf921190ba5f73c2a9f92f57d3f6929ed51a09a40126fc1455649d3c85247ce6d",
          "transactionIndex": "0x2",
          "logIndex": "0x9",
          "removed": false
        },
        {
          "address": "0x0000000000000000000000000000000000001010",
          "topics": [
            "0x4dfe1bbbcf077ddc3e01291eea2d5c70c2b422b415d95645b9adcfd678cb1d63",
            "0x0000000000000000000000000000000000000000000000000000000000001010",
            "0x000000000000000000000000efbbd14082cf2fbcf5badc7ee619f0f4e36d0a5b",
            "0x0000000000000000000000004631753190f2f5a15a7ba172bbac102b7d95fa22"
          ],
          "data": "0x00000000000000000000000000000000000000000000000000052effc885deb800000000000000000000000000000000000000000000000141b3606d74daf5070000000000000000000000000000000000000000000003f5e64436fcaf3526a200000000000000000000000000000000000000000000000141ae316dac55164f0000000000000000000000000000000000000000000003f5e64965fc77bb055a",
          "blockHash": "0x48891ffea6965d248561be8169cea944c937b9a01262bf9e88592db90d345f5f",
          "blockNumber": "0xfc967d",
          "transactionHash": "0xf921190ba5f73c2a9f92f57d3f6929ed51a09a40126fc1455649d3c85247ce6d",
          "transactionIndex": "0x2",
          "logIndex": "0xa",
          "removed": false
        }
      ],
      "logsBloom": "0x00000004000080000000000000000000000000002000000000000000000000000000000000000000000000000000000000008000000000000000000040040000008000000000000000000000000000800000000000040100000100000000000000000000000000100000000000000000000000000000000080000000000000000800000000000000000000000800000000000000000000000000000000000000200000000000000004000000000000000000400000000000008000000000004000000000000000000001000000200000000000000000000000100000000040000000000000000000000000000000000100000000000000400000000000100000",
      "type": "0x2",
      "transactionHash": "0xf921190ba5f73c2a9f92f57d3f6929ed51a09a40126fc1455649d3c85247ce6d",
      "transactionIndex": "0x2",
      "blockHash": "0x48891ffea6965d248561be8169cea944c937b9a01262bf9e88592db90d345f5f",
      "blockNumber": "0xfc967d",
      "gasUsed": "0xb438",
      "effectiveGasPrice": "0x75cff3440",
      "from": "0xefbbd14082cf2fbcf5badc7ee619f0f4e36d0a5b",
      "to": "0x8120a8e0688be6b2c0bb469f871e5e7023ca85eb",
      "contractAddress": null
    },
    {
      "status": "0x1",
      "cumulativeGasUsed": "0x5788d",
      "logs": [
        {
          "address": "0x8120a8e0688be6b2c0bb469f871e5e7023ca85eb",
          "topics": [
            "0x9ea6790c7dadfd01c9f8b9762b3682607af2c7e79e05a9f9fdf5580dde949151",
            "0x000000000000000000000000a2746f0d272bb0f5273f53b4a0f476afe8873c32",
            "0x0000000000000000000000000000000000000000000000000000000000000001"
          ],
          "data": "0xf6eea09800000000000000000000000000000000000000000000000000000000",
          "blockHash": "0x48891ffea6965d248561be8169cea944c937b9a01262bf9e88592db90d345f5f",
          "blockNumber": "0xfc967d",
          "transactionHash": "0xfd5b045723dd6e502ae03f529239980be0bb7d01876e864bb05147bf62827dd8",
          "transactionIndex": "0x3",
          "logIndex": "0xb",
          "removed": false
        },
        {
          "address": "0x8120a8e0688be6b2c0bb469f871e5e7023ca85eb",
          "topics": [
            "0x9ea6790c7dadfd01c9f8b9762b3682607af2c7e79e05a9f9fdf5580dde949151",
            "0x000000000000000000000000a2746f0d272bb0f5273f53b4a0f476afe8873c32",
            "0x0000000000000000000000000000000000000000000000000000000000000001"
          ],
          "data": "0x74a8f10300000000000000000000000000000000000000000000000000000000",
          "blockHash": "0x48891ffea6965d248561be8169cea944c937b9a01262bf9e88592db90d345f5f",
          "blockNumber": "0xfc967d",
          "transactionHash": "0xfd5b045723dd6e502ae03f529239980be0bb7d01876e864bb05147bf62827dd8",
          "transactionIndex": "0x3",
          "logIndex": "0xc",
          "removed": false
        },
        {
          "address": "0x8120a8e0688be6b2c0bb469f871e5e7023ca85eb",
          "topics": [
            "0x9ea6790c7dadfd01c9f8b9762b3682607af2c7e79e05a9f9fdf5580dde949151",
            "0x000000000000000000000000a2746f0d272bb0f5273f53b4a0f476afe8873c32",
            "0x0000000000000000000000000000000000000000000000000000000000000001"
          ],
          "data": "0xdaea85c500000000000000000000000000000000000000000000000000000000",
          "blockHash": "0x48891ffea6965d248561be8169cea944c937b9a01262bf9e88592db90d345f5f",
          "blockNumber": "0xfc967d",
          "transactionHash": "0xfd5b045723dd6e502ae03f529239980be0bb7d01876e864bb05147bf62827dd8",
          "transactionIndex": "0x3",
          "logIndex": "0xd",
          "removed": false
        },
        {
          "address": "0x0000000000000000000000000000000000001010",
          "topics": [
            "0x4dfe1bbbcf077ddc3e01291eea2d5c70c2b422b415d95645b9adcfd678cb1d63",
            "0x0000000000000000000000000000000000000000000000000000000000001010",
            "0x000000000000000000000000efbbd14082cf2fbcf5badc7ee619f0f4e36d0a5b",
            "0x0000000000000000000000004631753190f2f5a15a7ba172bbac102b7d95fa22"
          ],
          "data": "0x00000000000000000000000000000000000000000000000000052f58247c510400000000000000000000000000000000000000000000000141ae316dac4a87070000000000000000000000000000000000000000000003f5e64965fc77bb055a00000000000000000000000000000000000000000000000141a9021587ce36030000000000000000000000000000000000000000000003f5e64e95549c37565e",
          "blockHash": "0x48891ffea6965d248561be8169cea944c937b9a01262bf9e88592db90d345f5f",
          "blockNumber": "0xfc967d",
          "transactionHash": "0xfd5b045723dd6e502ae03f529239980be0bb7d01876e864bb05147bf62827dd8",
          "transactionIndex": "0x3",
          "logIndex": "0xe",
          "removed": false
        }
      ],
      "logsBloom": "0x00000004000080000000000000000000000000002000000000000000000000000000000000000000000000000001000000008000000000000000000040040000008000000000000000000000000000800000000000040100000100000000000000000000000000100000000000000000000000000000000080000000000000000800000000000000000000000800000000000000000000000000000000000000200000000000000000000000000000000000400000000000008000000000004000000000000000000001000400200000000000000000000000100000000040000000000000000000000040000000000000000000000000000000000000100000",
      "type": "0x2",
      "transactionHash": "0xfd5b045723dd6e502ae03f529239980be0bb7d01876e864bb05147bf62827dd8",
      "transactionIndex": "0x3",
      "blockHash": "0x48891ffea6965d248561be8169cea944c937b9a01262bf9e88592db90d345f5f",
      "blockNumber": "0xfc967d",
      "gasUsed": "0xb444",
      "effectiveGasPrice": "0x75cff3440",
      "from": "0xefbbd14082cf2fbcf5badc7ee619f0f4e36d0a5b",
      "to": "0x8120a8e0688be6b2c0bb469f871e5e7023ca85eb",
      "contractAddress": null
    },
    {
      "status": "0x1",
      "cumulativeGasUsed": "0x61b40",
      "logs": [
        {
          "address": "0x8120a8e0688be6b2c0bb469f871e5e7023ca85eb",
          "topics": [
            "0xf98448b987f1428e0e230e1f3c6e2ce15b5693eaf31827fbd0b1ec4b424ae7cf",
            "0x0000000000000000000000000000000000000000000000000000000000000002",
            "0x000000000000000000000000efbbd14082cf2fbcf5badc7ee619f0f4e36d0a5b"
          ],
          "data": "0x000000000000000000000000000000000000000000000000000000000000000000000000000000000000000000000000000000000000000000000000677ca8ff0000000000000000000000000000000000000000000000000000000000000000",
          "blockHash": "0x48891ffea6965d248561be8169cea944c937b9a01262bf9e88592db90d345f5f",
          "blockNumber": "0xfc967d",
          "transactionHash": "0xa86ce5dca6e49c59d1d0f2cd80c10715fc3eeac4a416ed379c1cfd94ab7d8c8d",
          "transactionIndex": "0x4",
          "logIndex": "0xf",
          "removed": false
        },
        {
          "address": "0x0000000000000000000000000000000000001010",
          "topics": [
            "0x4dfe1bbbcf077ddc3e01291eea2d5c70c2b422b415d95645b9adcfd678cb1d63",
            "0x0000000000000000000000000000000000000000000000000000000000001010",
            "0x000000000000000000000000efbbd14082cf2fbcf5badc7ee619f0f4e36d0a5b",
            "0x0000000000000000000000004631753190f2f5a15a7ba172bbac102b7d95fa22"
          ],
          "data": "0x0000000000000000000000000000000000000000000000000004adff8578804300000000000000000000000000000000000000000000000141a9021587c3a6070000000000000000000000000000000000000000000003f5e64e95549c37565e00000000000000000000000000000000000000000000000141a45416024b25c40000000000000000000000000000000000000000000003f5e653435421afd6a1",
          "blockHash": "0x48891ffea6965d248561be8169cea944c937b9a01262bf9e88592db90d345f5f",
          "blockNumber": "0xfc967d",
          "transactionHash": "0xa86ce5dca6e49c59d1d0f2cd80c10715fc3eeac4a416ed379c1cfd94ab7d8c8d",
          "transactionIndex": "0x4",
          "logIndex": "0x10",
          "removed": false
        }
      ],
      "logsBloom": "0x04000000000000000000000000000000000000002000000000000000000000000000000000000000000000000000000000008000000000000000000040000000008000000000000000000000000000800000000000000100000100000000000000000000000000100000000000000000000000000000000080000000000000000800000000000000000000000800000008000000000000000000000000000000200000000000000000002100000000000000400000000008008000000000004000000000000000000001000000000000000000000000000000100000000000000000000000000000000000000000000000000000008000000000000000100000",
      "type": "0x2",
      "transactionHash": "0xa86ce5dca6e49c59d1d0f2cd80c10715fc3eeac4a416ed379c1cfd94ab7d8c8d",
      "transactionIndex": "0x4",
      "blockHash": "0x48891ffea6965d248561be8169cea944c937b9a01262bf9e88592db90d345f5f",
      "blockNumber": "0xfc967d",
      "gasUsed": "0xa2b3",
      "effectiveGasPrice": "0x75cff3440",
      "from": "0xefbbd14082cf2fbcf5badc7ee619f0f4e36d0a5b",
      "to": "0x8120a8e0688be6b2c0bb469f871e5e7023ca85eb",
      "contractAddress": null
    },
    {
      "status": "0x1",
      "cumulativeGasUsed": "0x6be4e",
      "logs": [
        {
          "address": "0x8120a8e0688be6b2c0bb469f871e5e7023ca85eb",
          "topics": [
            "0x9ea6790c7dadfd01c9f8b9762b3682607af2c7e79e05a9f9fdf5580dde949151",
            "0x0000000000000000000000008db5ae2ae14e189c7d0e8f9c67643170e5508874",
            "0x0000000000000000000000000000000000000000000000000000000000000002"
          ],
          "data": "0xdaea85c500000000000000000000000000000000000000000000000000000000",
          "blockHash": "0x48891ffea6965d248561be8169cea944c937b9a01262bf9e88592db90d345f5f",
          "blockNumber": "0xfc967d",
          "transactionHash": "0x928c7d93328fe5fbffa94dfd7286fdf48d40d6720c4b07aab16f3c2752145260",
          "transactionIndex": "0x5",
          "logIndex": "0x11",
          "removed": false
        },
        {
          "address": "0x8120a8e0688be6b2c0bb469f871e5e7023ca85eb",
          "topics": [
            "0x9ea6790c7dadfd01c9f8b9762b3682607af2c7e79e05a9f9fdf5580dde949151",
            "0x0000000000000000000000008db5ae2ae14e189c7d0e8f9c67643170e5508874",
            "0x0000000000000000000000000000000000000000000000000000000000000002"
          ],
          "data": "0xab0da5a900000000000000000000000000000000000000000000000000000000",
          "blockHash": "0x48891ffea6965d248561be8169cea944c937b9a01262bf9e88592db90d345f5f",
          "blockNumber": "0xfc967d",
          "transactionHash": "0x928c7d93328fe5fbffa94dfd7286fdf48d40d6720c4b07aab16f3c2752145260",
          "transactionIndex": "0x5",
          "logIndex": "0x12",
          "removed": false
        },
        {
          "address": "0x0000000000000000000000000000000000001010",
          "topics": [
            "0x4dfe1bbbcf077ddc3e01291eea2d5c70c2b422b415d95645b9adcfd678cb1d63",
            "0x0000000000000000000000000000000000000000000000000000000000001010",
            "0x000000000000000000000000efbbd14082cf2fbcf5badc7ee619f0f4e36d0a5b",
            "0x0000000000000000000000004631753190f2f5a15a7ba172bbac102b7d95fa22"
          ],
          "data": "0x0000000000000000000000000000000000000000000000000004b09d94300dae00000000000000000000000000000000000000000000000141a4541602419d470000000000000000000000000000000000000000000003f5e653435421afd6a1000000000000000000000000000000000000000000000001419fa3786e118f990000000000000000000000000000000000000000000003f5e657f3f1b5dfe44f",
          "blockHash": "0x48891ffea6965d248561be8169cea944c937b9a01262bf9e88592db90d345f5f",
          "blockNumber": "0xfc967d",
          "transactionHash": "0x928c7d93328fe5fbffa94dfd7286fdf48d40d6720c4b07aab16f3c2752145260",
          "transactionIndex": "0x5",
          "logIndex": "0x13",
          "removed": false
        }
      ],
      "logsBloom": "0x04000004000080000000000000000000000000002000000000000000000000002000000000000000000000000000000000008000000000000000000040000000008000000000000000000000000000800000000000004100000100000000000000000000000000100000000000000000000000000000000080000000000000000800000000000000000000000800000000000000000000000000000000020000200000000000000000000100000000000000400000000000008000000000004000000000000000000001000000200000000000000000000000100000000000000000000000000000000000000000000000000000008000000000000000100000",
      "type": "0x2",
      "transactionHash": "0x928c7d93328fe5fbffa94dfd7286fdf48d40d6720c4b07aab16f3c2752145260",
      "transactionIndex": "0x5",
      "blockHash": "0x48891ffea6965d248561be8169cea944c937b9a01262bf9e88592db90d345f5f",
      "blockNumber": "0xfc967d",
      "gasUsed": "0xa30e",
      "effectiveGasPrice": "0x75cff3440",
      "from": "0xefbbd14082cf2fbcf5badc7ee619f0f4e36d0a5b",
      "to": "0x8120a8e0688be6b2c0bb469f871e5e7023ca85eb",
      "contractAddress": null
    },
    {
      "status": "0x1",
      "cumulativeGasUsed": "0x76101",
      "logs": [
        {
          "address": "0x8120a8e0688be6b2c0bb469f871e5e7023ca85eb",
          "topics": [
            "0xf98448b987f1428e0e230e1f3c6e2ce15b5693eaf31827fbd0b1ec4b424ae7cf",
            "0x0000000000000000000000000000000000000000000000000000000000000004",
            "0x0000000000000000000000005945c1417ad688ef90cf3e61263b404b96a0c20b"
          ],
          "data": "0x000000000000000000000000000000000000000000000000000000000000000000000000000000000000000000000000000000000000000000000000677ca8ff0000000000000000000000000000000000000000000000000000000000000000",
          "blockHash": "0x48891ffea6965d248561be8169cea944c937b9a01262bf9e88592db90d345f5f",
          "blockNumber": "0xfc967d",
          "transactionHash": "0x94e6ad9af6b75edbdba4f9b0d66961f0ae5cb8894038c558f9f4908426a4785a",
          "transactionIndex": "0x6",
          "logIndex": "0x14",
          "removed": false
        },
        {
          "address": "0x0000000000000000000000000000000000001010",
          "topics": [
            "0x4dfe1bbbcf077ddc3e01291eea2d5c70c2b422b415d95645b9adcfd678cb1d63",
            "0x0000000000000000000000000000000000000000000000000000000000001010",
            "0x000000000000000000000000efbbd14082cf2fbcf5badc7ee619f0f4e36d0a5b",
            "0x0000000000000000000000004631753190f2f5a15a7ba172bbac102b7d95fa22"
          ],
          "data": "0x0000000000000000000000000000000000000000000000000004adff85788043000000000000000000000000000000000000000000000001419fa3786e0801c70000000000000000000000000000000000000000000003f5e657f3f1b5dfe44f000000000000000000000000000000000000000000000001419af578e88f81840000000000000000000000000000000000000000000003f5e65ca1f13b586492",
          "blockHash": "0x48891ffea6965d248561be8169cea944c937b9a01262bf9e88592db90d345f5f",
          "blockNumber": "0xfc967d",
          "transactionHash": "0x94e6ad9af6b75edbdba4f9b0d66961f0ae5cb8894038c558f9f4908426a4785a",
          "transactionIndex": "0x6",
          "logIndex": "0x15",
          "removed": false
        }
      ],
      "logsBloom": "0x0000000000000000000000000000000000000000200000000000000000000000000000000000000000000000000000000000800000000000000000004000000000800200000000000000000000000080000000000000010000010000000000000800000000000010000000000000000000000000000000008000000000000000080000000000000000000000084000000800000000000000000000000000000020000000000000000000200000000000000040000000000840a000000000004000000000000000000001000000000000000000008000000000100000000000000000000000000000000000000000000000000000000000000000000000100000",
      "type": "0x2",
      "transactionHash": "0x94e6ad9af6b75edbdba4f9b0d66961f0ae5cb8894038c558f9f4908426a4785a",
      "transactionIndex": "0x6",
      "blockHash": "0x48891ffea6965d248561be8169cea944c937b9a01262bf9e88592db90d345f5f",
      "blockNumber": "0xfc967d",
      "gasUsed": "0xa2b3",
      "effectiveGasPrice": "0x75cff3440",
      "from": "0xefbbd14082cf2fbcf5badc7ee619f0f4e36d0a5b",
      "to": "0x8120a8e0688be6b2c0bb469f871e5e7023ca85eb",
      "contractAddress": null
    },
    {
      "status": "0x1",
      "cumulativeGasUsed": "0xfbc7",
      "logs": [
        {
          "address": "0x8120a8e0688be6b2c0bb469f871e5e7023ca85eb",
          "topics": [
            "0xf98448b987f1428e0e230e1f3c6e2ce15b5693eaf31827fbd0b1ec4b424ae7cf",
            "0x0000000000000000000000000000000000000000000000000000000000000004",
            "0x00000000000000000000000031b351e4c217f838190825586caa8494ee1ca635"
          ],
          "data": "0x000000000000000000000000000000000000000000000000000000000000000000000000000000000000000000000000000000000000000000000000677ca9010000000000000000000000000000000000000000000000000000000000000000",
          "blockHash": "0xfd352eb3c18bb97c138fffd968cec0cd5a5104f340dfffef1815d787051102bd",
          "blockNumber": "0xfc967e",
          "transactionHash": "0x538fee18bee3420a847fa84c4dc137594ae753768fd1179e6e381ee15a7019d0",
          "transactionIndex": "0x1",
          "logIndex": "0x1",
          "removed": false
        },
        {
          "address": "0x0000000000000000000000000000000000001010",
          "topics": [
            "0x4dfe1bbbcf077ddc3e01291eea2d5c70c2b422b415d95645b9adcfd678cb1d63",
            "0x0000000000000000000000000000000000000000000000000000000000001010",
            "0x000000000000000000000000efbbd14082cf2fbcf5badc7ee619f0f4e36d0a5b",
            "0x0000000000000000000000004631753190f2f5a15a7ba172bbac102b7d95fa22"
          ],
          "data": "0x0000000000000000000000000000000000000000000000000004adff85788043000000000000000000000000000000000000000000000001419af578e885f9070000000000000000000000000000000000000000000003f5e723883d5a4ad3f200000000000000000000000000000000000000000000000141964779630d78c40000000000000000000000000000000000000000000003f5e728363cdfc35435",
          "blockHash": "0xfd352eb3c18bb97c138fffd968cec0cd5a5104f340dfffef1815d787051102bd",
          "blockNumber": "0xfc967e",
          "transactionHash": "0x538fee18bee3420a847fa84c4dc137594ae753768fd1179e6e381ee15a7019d0",
          "transactionIndex": "0x1",
          "logIndex": "0x2",
          "removed": false
        }
      ],
      "logsBloom": "0x0000000000000000000000000000000000000000200000000000000000000000000000000000000000000000000000000000800000000000000000004000000000800000000000000000000000000080000000000000010000010000000000000800000000000010000000000000000000000000000000008000000000800000080000000000000000000000080000000800000000000000000000000000000020000000000000000000200000000000000040000000000800a000000000004002000000000000000001000000000000000000008000000000100010000000000000000000000000000000000000000000000000000000000000000000100000",
      "type": "0x2",
      "transactionHash": "0x538fee18bee3420a847fa84c4dc137594ae753768fd1179e6e381ee15a7019d0",
      "transactionIndex": "0x1",
      "blockHash": "0xfd352eb3c18bb97c138fffd968cec0cd5a5104f340dfffef1815d787051102bd",
      "blockNumber": "0xfc967e",
      "gasUsed": "0xa2b3",
      "effectiveGasPrice": "0x75cff3440",
      "from": "0xefbbd14082cf2fbcf5badc7ee619f0f4e36d0a5b",
      "to": "0x8120a8e0688be6b2c0bb469f871e5e7023ca85eb",
      "contractAddress": null
    },
    {
      "status": "0x1",
      "cumulativeGasUsed": "0x19e7a",
      "logs": [
        {
          "address": "0x8120a8e0688be6b2c0bb469f871e5e7023ca85eb",
          "topics": [
            "0xf98448b987f1428e0e230e1f3c6e2ce15b5693eaf31827fbd0b1ec4b424ae7cf",
            "0x0000000000000000000000000000000000000000000000000000000000000004",
            "0x000000000000000000000000a2746f0d272bb0f5273f53b4a0f476afe8873c32"
          ],
          "data": "0x000000000000000000000000000000000000000000000000000000000000000000000000000000000000000000000000000000000000000000000000677ca9010000000000000000000000000000000000000000000000000000000000000000",
          "blockHash": "0xfd352eb3c18bb97c138fffd968cec0cd5a5104f340dfffef1815d787051102bd",
          "blockNumber": "0xfc967e",
          "transactionHash": "0xe1d9fe25d5eb4fa1f64691618ed14152ff49087fff4e0f01079ea2fe2f117356",
          "transactionIndex": "0x2",
          "logIndex": "0x3",
          "removed": false
        },
        {
          "address": "0x0000000000000000000000000000000000001010",
          "topics": [
            "0x4dfe1bbbcf077ddc3e01291eea2d5c70c2b422b415d95645b9adcfd678cb1d63",
            "0x0000000000000000000000000000000000000000000000000000000000001010",
            "0x000000000000000000000000efbbd14082cf2fbcf5badc7ee619f0f4e36d0a5b",
            "0x0000000000000000000000004631753190f2f5a15a7ba172bbac102b7d95fa22"
          ],
          "data": "0x0000000000000000000000000000000000000000000000000004adff85788043000000000000000000000000000000000000000000000001419647796303f0470000000000000000000000000000000000000000000003f5e728363cdfc3543500000000000000000000000000000000000000000000000141919979dd8b70040000000000000000000000000000000000000000000003f5e72ce43c653bd478",
          "blockHash": "0xfd352eb3c18bb97c138fffd968cec0cd5a5104f340dfffef1815d787051102bd",
          "blockNumber": "0xfc967e",
          "transactionHash": "0xe1d9fe25d5eb4fa1f64691618ed14152ff49087fff4e0f01079ea2fe2f117356",
          "transactionIndex": "0x2",
          "logIndex": "0x4",
          "removed": false
        }
      ],
      "logsBloom": "0x0000000000000000000000000000000000000000200000000000000000000000000000000000000000000000000100000000800000000000000000004000000000800000000000000000000000000080000000000000010000010000000000000800000000000010000000000000000000000000000000008000000000000000080000000000000000000000080000000800000000000000000000000000000020000000000000000000200000000000000040000000000800a000000000004000000000000000000001000400000000000000008000000000100000000000000000000000000000000040000000000000000000000000000000000000100000",
      "type": "0x2",
      "transactionHash": "0xe1d9fe25d5eb4fa1f64691618ed14152ff49087fff4e0f01079ea2fe2f117356",
      "transactionIndex": "0x2",
      "blockHash": "0xfd352eb3c18bb97c138fffd968cec0cd5a5104f340dfffef1815d787051102bd",
      "blockNumber": "0xfc967e",
      "gasUsed": "0xa2b3",
      "effectiveGasPrice": "0x75cff3440",
      "from": "0xefbbd14082cf2fbcf5badc7ee619f0f4e36d0a5b",
      "to": "0x8120a8e0688be6b2c0bb469f871e5e7023ca85eb",
      "contractAddress": null
    },
    {
      "status": "0x1",
      "cumulativeGasUsed": "0x252be",
      "logs": [
        {
          "address": "0x8120a8e0688be6b2c0bb469f871e5e7023ca85eb",
          "topics": [
            "0x9ea6790c7dadfd01c9f8b9762b3682607af2c7e79e05a9f9fdf5580dde949151",
            "0x00000000000000000000000083266ca8147572839bb23a204db52bd26a1fceaa",
            "0x0000000000000000000000000000000000000000000000000000000000000004"
          ],
          "data": "0x4bbc170a00000000000000000000000000000000000000000000000000000000",
          "blockHash": "0xfd352eb3c18bb97c138fffd968cec0cd5a5104f340dfffef1815d787051102bd",
          "blockNumber": "0xfc967e",
          "transactionHash": "0x16f63d96e134f11c210e7bfb8392be65d6973641e89002e61bb5fba48b4a738d",
          "transactionIndex": "0x3",
          "logIndex": "0x5",
          "removed": false
        },
        {
          "address": "0x8120a8e0688be6b2c0bb469f871e5e7023ca85eb",
          "topics": [
            "0x9ea6790c7dadfd01c9f8b9762b3682607af2c7e79e05a9f9fdf5580dde949151",
            "0x00000000000000000000000083266ca8147572839bb23a204db52bd26a1fceaa",
            "0x0000000000000000000000000000000000000000000000000000000000000004"
          ],
          "data": "0x15f4150100000000000000000000000000000000000000000000000000000000",
          "blockHash": "0xfd352eb3c18bb97c138fffd968cec0cd5a5104f340dfffef1815d787051102bd",
          "blockNumber": "0xfc967e",
          "transactionHash": "0x16f63d96e134f11c210e7bfb8392be65d6973641e89002e61bb5fba48b4a738d",
          "transactionIndex": "0x3",
          "logIndex": "0x6",
          "removed": false
        },
        {
          "address": "0x8120a8e0688be6b2c0bb469f871e5e7023ca85eb",
          "topics": [
            "0x9ea6790c7dadfd01c9f8b9762b3682607af2c7e79e05a9f9fdf5580dde949151",
            "0x00000000000000000000000083266ca8147572839bb23a204db52bd26a1fceaa",
            "0x0000000000000000000000000000000000000000000000000000000000000004"
          ],
          "data": "0x9e96a26000000000000000000000000000000000000000000000000000000000",
          "blockHash": "0xfd352eb3c18bb97c138fffd968cec0cd5a5104f340dfffef1815d787051102bd",
          "blockNumber": "0xfc967e",
          "transactionHash": "0x16f63d96e134f11c210e7bfb8392be65d6973641e89002e61bb5fba48b4a738d",
          "transactionIndex": "0x3",
          "logIndex": "0x7",
          "removed": false
        },
        {
          "address": "0x0000000000000000000000000000000000001010",
          "topics": [
            "0x4dfe1bbbcf077ddc3e01291eea2d5c70c2b422b415d95645b9adcfd678cb1d63",
            "0x0000000000000000000000000000000000000000000000000000000000001010",
            "0x000000000000000000000000efbbd14082cf2fbcf5badc7ee619f0f4e36d0a5b",
            "0x0000000000000000000000004631753190f2f5a15a7ba172bbac102b7d95fa22"
          ],
          "data": "0x00000000000000000000000000000000000000000000000000052f58247c510400000000000000000000000000000000000000000000000141919979dd81e7870000000000000000000000000000000000000000000003f5e72ce43c653bd478000000000000000000000000000000000000000000000001418c6a21b90596830000000000000000000000000000000000000000000003f5e732139489b8257c",
          "blockHash": "0xfd352eb3c18bb97c138fffd968cec0cd5a5104f340dfffef1815d787051102bd",
          "blockNumber": "0xfc967e",
          "transactionHash": "0x16f63d96e134f11c210e7bfb8392be65d6973641e89002e61bb5fba48b4a738d",
          "transactionIndex": "0x3",
          "logIndex": "0x8",
          "removed": false
        }
      ],
      "logsBloom": "0x0000000400008000000000000000000000000000200000000000000000000000000000000000000000000000000000000000800000000000000000004000000000800000000000000000000000000080000000000000010000010000000000000800000000000010000000000000000000000000000000008000000000000000080000000000000000000000080000000000000000000040000000000000000020000000000000000000000000000000000040000000000000a000000000004000000000000000000001000000200001000000008000000000100000000000000000008000000000000000000000000000000000000000000000000000100000",
      "type": "0x2",
      "transactionHash": "0x16f63d96e134f11c210e7bfb8392be65d6973641e89002e61bb5fba48b4a738d",
      "transactionIndex": "0x3",
      "blockHash": "0xfd352eb3c18bb97c138fffd968cec0cd5a5104f340dfffef1815d787051102bd",
      "blockNumber": "0xfc967e",
      "gasUsed": "0xb444",
      "effectiveGasPrice": "0x75cff3440",
      "from": "0xefbbd14082cf2fbcf5badc7ee619f0f4e36d0a5b",
      "to": "0x8120a8e0688be6b2c0bb469f871e5e7023ca85eb",
      "contractAddress": null
    },
    {
      "status": "0x1",
      "cumulativeGasUsed": "0x32a10",
      "logs": [
        {
          "address": "0x4580859e64385e3e82ee64da2bc06ef84bde851a",
          "topics": [
            "0x9621c1829ce5206009d367ce68b7c4fe6b4bbd70dbe22c21e5bd2a51a716c51c",
            "0x000000000000000000000000f06e1998119caedf8e084194aa5fea89ea9389c3",
            "0x0000000000000000000000003c7deb6feaeb7a82bde580fb73d8d69c401b219e"
          ],
          "data": "0x000000000000000000000000000000000000000000000000000000000000000300000000000000000000000000000000000000000000000000000000000001f4",
          "blockHash": "0xfd352eb3c18bb97c138fffd968cec0cd5a5104f340dfffef1815d787051102bd",
          "blockNumber": "0xfc967e",
          "transactionHash": "0xd4d46c7f710b214b29076a009aaef7ecfb4c2ff9a9370fd253ec5bc749237aa5",
          "transactionIndex": "0x4",
          "logIndex": "0x9",
          "removed": false
        },
        {
          "address": "0x0000000000000000000000000000000000001010",
          "topics": [
            "0x4dfe1bbbcf077ddc3e01291eea2d5c70c2b422b415d95645b9adcfd678cb1d63",
            "0x0000000000000000000000000000000000000000000000000000000000001010",
            "0x000000000000000000000000efbbd14082cf2fbcf5badc7ee619f0f4e36d0a5b",
            "0x0000000000000000000000004631753190f2f5a15a7ba172bbac102b7d95fa22"
          ],
          "data": "0x000000000000000000000000000000000000000000000000000631761e93deb2000000000000000000000000000000000000000000000001418c6a21b8fb06870000000000000000000000000000000000000000000003f5e732139489b8257c000000000000000000000000000000000000000000000001418638ab9a6727d50000000000000000000000000000000000000000000003f5e738450aa84c042e",
          "blockHash": "0xfd352eb3c18bb97c138fffd968cec0cd5a5104f340dfffef1815d787051102bd",
          "blockNumber": "0xfc967e",
          "transactionHash": "0xd4d46c7f710b214b29076a009aaef7ecfb4c2ff9a9370fd253ec5bc749237aa5",
          "transactionIndex": "0x4",
          "logIndex": "0xa",
          "removed": false
        }
      ],
      "logsBloom": "0x0000004000000000000000000000000000000000200180000080000000000000000000000000000000000000000200000000800000000000080000044000000000800000000000000000000000000080000000000000002000010000000000000000100000000010000000000000000000000000000000008000000000000000080000000000000000000000000000000000000000000000000000000000000020000000000000000000000000000000000040000000000000000000000000400000000000a000000001080000000000000000000000000000100000000000000000000000000000000000000000000000000000000000000000000000100000",
      "type": "0x2",
      "transactionHash": "0xd4d46c7f710b214b29076a009aaef7ecfb4c2ff9a9370fd253ec5bc749237aa5",
      "transactionIndex": "0x4",
      "blockHash": "0xfd352eb3c18bb97c138fffd968cec0cd5a5104f340dfffef1815d787051102bd",
      "blockNumber": "0xfc967e",
      "gasUsed": "0xd752",
      "effectiveGasPrice": "0x75cff3440",
      "from": "0xefbbd14082cf2fbcf5badc7ee619f0f4e36d0a5b",
      "to": "0x4580859e64385e3e82ee64da2bc06ef84bde851a",
      "contractAddress": null
    },
    {
      "status": "0x1",
      "cumulativeGasUsed": "0x40187",
      "logs": [
        {
          "address": "0x4580859e64385e3e82ee64da2bc06ef84bde851a",
          "topics": [
            "0x9621c1829ce5206009d367ce68b7c4fe6b4bbd70dbe22c21e5bd2a51a716c51c",
            "0x000000000000000000000000a2746f0d272bb0f5273f53b4a0f476afe8873c32",
            "0x0000000000000000000000003c7deb6feaeb7a82bde580fb73d8d69c401b219e"
          ],
          "data": "0x00000000000000000000000000000000000000000000000000000000000000010000000000000000000000000000000000000000000000056bc75e2d63100000",
          "blockHash": "0xfd352eb3c18bb97c138fffd968cec0cd5a5104f340dfffef1815d787051102bd",
          "blockNumber": "0xfc967e",
          "transactionHash": "0x8d380aa9f684a5a0d80a67d4e65fc054fbb44e6bda702e7c9fd5a5258fc3b594",
          "transactionIndex": "0x5",
          "logIndex": "0xb",
          "removed": false
        },
        {
          "address": "0x0000000000000000000000000000000000001010",
          "topics": [
            "0x4dfe1bbbcf077ddc3e01291eea2d5c70c2b422b415d95645b9adcfd678cb1d63",
            "0x0000000000000000000000000000000000000000000000000000000000001010",
            "0x000000000000000000000000efbbd14082cf2fbcf5badc7ee619f0f4e36d0a5b",
            "0x0000000000000000000000004631753190f2f5a15a7ba172bbac102b7d95fa22"
          ],
          "data": "0x000000000000000000000000000000000000000000000000000632868f7669c7000000000000000000000000000000000000000000000001418638ab9a5a8a070000000000000000000000000000000000000000000003f5e738450aa84c042e000000000000000000000000000000000000000000000001418006250ae420400000000000000000000000000000000000000000000003f5e73e779137c26df5",
          "blockHash": "0xfd352eb3c18bb97c138fffd968cec0cd5a5104f340dfffef1815d787051102bd",
          "blockNumber": "0xfc967e",
          "transactionHash": "0x8d380aa9f684a5a0d80a67d4e65fc054fbb44e6bda702e7c9fd5a5258fc3b594",
          "transactionIndex": "0x5",
          "logIndex": "0xc",
          "removed": false
        }
      ],
      "logsBloom": "0x0000000000000000000000000000000000000000200080000080000000000000000000000000000000000000000300000000800000000000080000044000000000800000000000000000000000000080000000000000002000010000000000000000100000000010000000000000000000000000000000008000000000000000080000000000000000000000000000000000000000000000000000000000000020000000000000000000000000000000000040000000000000000000000000400000000000a000000001000400000000000000000000000000100000000000000000000000000000000040000000000000000000000000000000000000100000",
      "type": "0x2",
      "transactionHash": "0x8d380aa9f684a5a0d80a67d4e65fc054fbb44e6bda702e7c9fd5a5258fc3b594",
      "transactionIndex": "0x5",
      "blockHash": "0xfd352eb3c18bb97c138fffd968cec0cd5a5104f340dfffef1815d787051102bd",
      "blockNumber": "0xfc967e",
      "gasUsed": "0xd777",
      "effectiveGasPrice": "0x75cff3440",
      "from": "0xefbbd14082cf2fbcf5badc7ee619f0f4e36d0a5b",
      "to": "0x4580859e64385e3e82ee64da2bc06ef84bde851a",
      "contractAddress": null
    }
  ],
  "libraries": [],
  "pending": [],
  "returns": {},
  "timestamp": 1736222978,
  "chain": 80002,
  "commit": "0798d1a"
}