{
  "transactions": [
    {
      "hash": "0x2adb8d9f607cb778a728c0c4b704a08e8cd719bdedc8e1c6f79bfc07a141f2ed",
      "transactionType": "CALL",
      "contractName": null,
      "contractAddress": "0x8120a8e0688be6b2c0bb469f871e5e7023ca85eb",
      "function": "grantRole(uint64,address,uint32)",
      "arguments": [
        "1",
        "0xEFBBD14082cF2FbCf5Badc7ee619F0f4e36D0A5B",
        "0"
      ],
      "transaction": {
        "from": "0xefbbd14082cf2fbcf5badc7ee619f0f4e36d0a5b",
        "to": "0x8120a8e0688be6b2c0bb469f871e5e7023ca85eb",
        "gas": "0xedf2",
        "value": "0x0",
        "input": "0x25c471a00000000000000000000000000000000000000000000000000000000000000001000000000000000000000000efbbd14082cf2fbcf5badc7ee619f0f4e36d0a5b0000000000000000000000000000000000000000000000000000000000000000",
        "nonce": "0x944",
        "chainId": "0x13882"
      },
      "additionalContracts": [],
      "isFixedGasLimit": false
    },
    {
      "hash": "0xb37ebe6616e82d4a7861fec010f315f78ee4e52c2cc90c47302e7f326447e11c",
      "transactionType": "CALL",
      "contractName": null,
      "contractAddress": "0x8120a8e0688be6b2c0bb469f871e5e7023ca85eb",
      "function": "setTargetFunctionRole(address,bytes4[],uint64)",
      "arguments": [
        "0x4580859e64385e3e82ee64da2Bc06Ef84Bde851a",
        "[0x8cc0de1d]",
        "1"
      ],
      "transaction": {
        "from": "0xefbbd14082cf2fbcf5badc7ee619f0f4e36d0a5b",
        "to": "0x8120a8e0688be6b2c0bb469f871e5e7023ca85eb",
        "gas": "0x134d0",
        "value": "0x0",
        "input": "0x08d6122d0000000000000000000000004580859e64385e3e82ee64da2bc06ef84bde851a0000000000000000000000000000000000000000000000000000000000000060000000000000000000000000000000000000000000000000000000000000000100000000000000000000000000000000000000000000000000000000000000018cc0de1d00000000000000000000000000000000000000000000000000000000",
        "nonce": "0x945",
        "chainId": "0x13882"
      },
      "additionalContracts": [],
      "isFixedGasLimit": false
    },
    {
      "hash": "0x34dedd2596f1f9b092a5695f599e7debc259ceb706c7be2d6ced955cf9eda4fc",
      "transactionType": "CALL",
      "contractName": null,
      "contractAddress": "0x8120a8e0688be6b2c0bb469f871e5e7023ca85eb",
      "function": "setTargetFunctionRole(address,bytes4[],uint64)",
      "arguments": [
        "0xD32CA33b1FBD97523536Ed3519A191Df242AFCFd",
        "[0x06af20da]",
        "1"
      ],
      "transaction": {
        "from": "0xefbbd14082cf2fbcf5badc7ee619f0f4e36d0a5b",
        "to": "0x8120a8e0688be6b2c0bb469f871e5e7023ca85eb",
        "gas": "0x134d0",
        "value": "0x0",
        "input": "0x08d6122d000000000000000000000000d32ca33b1fbd97523536ed3519a191df242afcfd00000000000000000000000000000000000000000000000000000000000000600000000000000000000000000000000000000000000000000000000000000001000000000000000000000000000000000000000000000000000000000000000106af20da00000000000000000000000000000000000000000000000000000000",
        "nonce": "0x946",
        "chainId": "0x13882"
      },
      "additionalContracts": [],
      "isFixedGasLimit": false
    },
    {
      "hash": "0xa17d24c4b42de87390100e8c4e4c5e6058e70a721e7880013d7864068e392c7d",
      "transactionType": "CALL",
      "contractName": null,
      "contractAddress": "0x8120a8e0688be6b2c0bb469f871e5e7023ca85eb",
      "function": "setTargetFunctionRole(address,bytes4[],uint64)",
      "arguments": [
        "0x00ABb22eB950684e4314287e94f024B0A9420d40",
        "[0x20c5429b, 0xb8adaa11, 0xb759f954]",
        "1"
      ],
      "transaction": {
        "from": "0xefbbd14082cf2fbcf5badc7ee619f0f4e36d0a5b",
        "to": "0x8120a8e0688be6b2c0bb469f871e5e7023ca85eb",
        "gas": "0x23b09",
        "value": "0x0",
        "input": "0x08d6122d00000000000000000000000000abb22eb950684e4314287e94f024b0a9420d4000000000000000000000000000000000000000000000000000000000000000600000000000000000000000000000000000000000000000000000000000000001000000000000000000000000000000000000000000000000000000000000000320c5429b00000000000000000000000000000000000000000000000000000000b8adaa1100000000000000000000000000000000000000000000000000000000b759f95400000000000000000000000000000000000000000000000000000000",
        "nonce": "0x947",
        "chainId": "0x13882"
      },
      "additionalContracts": [],
      "isFixedGasLimit": false
    },
    {
      "hash": "0x5fd61a68797f71ea6b69ad2240770a4646b58aa06d3d16b57d88e8f3f4ce644d",
      "transactionType": "CALL",
      "contractName": null,
      "contractAddress": "0x8120a8e0688be6b2c0bb469f871e5e7023ca85eb",
      "function": "setTargetFunctionRole(address,bytes4[],uint64)",
      "arguments": [
        "0xA2746F0D272bb0F5273f53B4a0F476afe8873C32",
        "[0xf6eea098, 0x74a8f103, 0xdaea85c5]",
        "1"
      ],
      "transaction": {
        "from": "0xefbbd14082cf2fbcf5badc7ee619f0f4e36d0a5b",
        "to": "0x8120a8e0688be6b2c0bb469f871e5e7023ca85eb",
        "gas": "0x23b19",
        "value": "0x0",
        "input": "0x08d6122d000000000000000000000000a2746f0d272bb0f5273f53b4a0f476afe8873c32000000000000000000000000000000000000000000000000000000000000006000000000000000000000000000000000000000000000000000000000000000010000000000000000000000000000000000000000000000000000000000000003f6eea0980000000000000000000000000000000000000000000000000000000074a8f10300000000000000000000000000000000000000000000000000000000daea85c500000000000000000000000000000000000000000000000000000000",
        "nonce": "0x948",
        "chainId": "0x13882"
      },
      "additionalContracts": [],
      "isFixedGasLimit": false
    },
    {
      "hash": "0x65c80d2aeda42d94a160b669bdd63b7946544d664cb7c1b13967007aa202597c",
      "transactionType": "CALL",
      "contractName": null,
      "contractAddress": "0x8120a8e0688be6b2c0bb469f871e5e7023ca85eb",
      "function": "grantRole(uint64,address,uint32)",
      "arguments": [
        "2",
        "0xEFBBD14082cF2FbCf5Badc7ee619F0f4e36D0A5B",
        "0"
      ],
      "transaction": {
        "from": "0xefbbd14082cf2fbcf5badc7ee619f0f4e36d0a5b",
        "to": "0x8120a8e0688be6b2c0bb469f871e5e7023ca85eb",
        "gas": "0xedf2",
        "value": "0x0",
        "input": "0x25c471a00000000000000000000000000000000000000000000000000000000000000002000000000000000000000000efbbd14082cf2fbcf5badc7ee619f0f4e36d0a5b0000000000000000000000000000000000000000000000000000000000000000",
        "nonce": "0x949",
        "chainId": "0x13882"
      },
      "additionalContracts": [],
      "isFixedGasLimit": false
    },
    {
      "hash": "0xf2584e86660d4305622260ef4124f7a113a7b1f08b7eef605bf229a4fde04980",
      "transactionType": "CALL",
      "contractName": null,
      "contractAddress": "0x8120a8e0688be6b2c0bb469f871e5e7023ca85eb",
      "function": "setTargetFunctionRole(address,bytes4[],uint64)",
      "arguments": [
        "0x8dB5ae2ae14e189c7d0e8f9c67643170e5508874",
        "[0xdaea85c5, 0xab0da5a9]",
        "2"
      ],
      "transaction": {
        "from": "0xefbbd14082cf2fbcf5badc7ee619f0f4e36d0a5b",
        "to": "0x8120a8e0688be6b2c0bb469f871e5e7023ca85eb",
        "gas": "0x1b7f5",
        "value": "0x0",
        "input": "0x08d6122d0000000000000000000000008db5ae2ae14e189c7d0e8f9c67643170e5508874000000000000000000000000000000000000000000000000000000000000006000000000000000000000000000000000000000000000000000000000000000020000000000000000000000000000000000000000000000000000000000000002daea85c500000000000000000000000000000000000000000000000000000000ab0da5a900000000000000000000000000000000000000000000000000000000",
        "nonce": "0x94a",
        "chainId": "0x13882"
      },
      "additionalContracts": [],
      "isFixedGasLimit": false
    },
    {
      "hash": "0xea1236d0bbaaae7a251f4469d9856c1f834a1edd40d7f546f7b971e898651614",
      "transactionType": "CALL",
      "contractName": null,
      "contractAddress": "0x8120a8e0688be6b2c0bb469f871e5e7023ca85eb",
      "function": "grantRole(uint64,address,uint32)",
      "arguments": [
        "4",
        "0x5945C1417ad688EF90Cf3e61263b404B96A0C20b",
        "0"
      ],
      "transaction": {
        "from": "0xefbbd14082cf2fbcf5badc7ee619f0f4e36d0a5b",
        "to": "0x8120a8e0688be6b2c0bb469f871e5e7023ca85eb",
        "gas": "0x13bcf",
        "value": "0x0",
        "input": "0x25c471a000000000000000000000000000000000000000000000000000000000000000040000000000000000000000005945c1417ad688ef90cf3e61263b404b96a0c20b0000000000000000000000000000000000000000000000000000000000000000",
        "nonce": "0x94b",
        "chainId": "0x13882"
      },
      "additionalContracts": [],
      "isFixedGasLimit": false
    },
    {
      "hash": "0x180fc7ce4a7f8d7c33aebaac78e47155d55c4f34bf4633017eb901a76d385594",
      "transactionType": "CALL",
      "contractName": null,
      "contractAddress": "0x8120a8e0688be6b2c0bb469f871e5e7023ca85eb",
      "function": "grantRole(uint64,address,uint32)",
      "arguments": [
        "4",
        "0x31B351E4C217f838190825586cAA8494Ee1CA635",
        "0"
      ],
      "transaction": {
        "from": "0xefbbd14082cf2fbcf5badc7ee619f0f4e36d0a5b",
        "to": "0x8120a8e0688be6b2c0bb469f871e5e7023ca85eb",
        "gas": "0x13bcf",
        "value": "0x0",
        "input": "0x25c471a0000000000000000000000000000000000000000000000000000000000000000400000000000000000000000031b351e4c217f838190825586caa8494ee1ca6350000000000000000000000000000000000000000000000000000000000000000",
        "nonce": "0x94c",
        "chainId": "0x13882"
      },
      "additionalContracts": [],
      "isFixedGasLimit": false
    },
    {
      "hash": "0x3c0f7de5c937599d936ff125fec77ebef250a26b979bcb62ca3dd2b43b4b8437",
      "transactionType": "CALL",
      "contractName": null,
      "contractAddress": "0x8120a8e0688be6b2c0bb469f871e5e7023ca85eb",
      "function": "grantRole(uint64,address,uint32)",
      "arguments": [
        "4",
        "0xA2746F0D272bb0F5273f53B4a0F476afe8873C32",
        "0"
      ],
      "transaction": {
        "from": "0xefbbd14082cf2fbcf5badc7ee619f0f4e36d0a5b",
        "to": "0x8120a8e0688be6b2c0bb469f871e5e7023ca85eb",
        "gas": "0x13bcf",
        "value": "0x0",
        "input": "0x25c471a00000000000000000000000000000000000000000000000000000000000000004000000000000000000000000a2746f0d272bb0f5273f53b4a0f476afe8873c320000000000000000000000000000000000000000000000000000000000000000",
        "nonce": "0x94d",
        "chainId": "0x13882"
      },
      "additionalContracts": [],
      "isFixedGasLimit": false
    },
    {
      "hash": "0x0173973f2bb0605916c16d43a2827bad827d25f42c4597a2eeecf21d12fc8f2a",
      "transactionType": "CALL",
      "contractName": null,
      "contractAddress": "0x8120a8e0688be6b2c0bb469f871e5e7023ca85eb",
      "function": "setTargetFunctionRole(address,bytes4[],uint64)",
      "arguments": [
        "0x83266Ca8147572839BB23A204db52Bd26a1FCeaa",
        "[0x4bbc170a, 0x15f41501, 0x9e96a260]",
        "4"
      ],
      "transaction": {
        "from": "0xefbbd14082cf2fbcf5badc7ee619f0f4e36d0a5b",
        "to": "0x8120a8e0688be6b2c0bb469f871e5e7023ca85eb",
        "gas": "0x23b19",
        "value": "0x0",
        "input": "0x08d6122d00000000000000000000000083266ca8147572839bb23a204db52bd26a1fceaa0000000000000000000000000000000000000000000000000000000000000060000000000000000000000000000000000000000000000000000000000000000400000000000000000000000000000000000000000000000000000000000000034bbc170a0000000000000000000000000000000000000000000000000000000015f41501000000000000000000000000000000000000000000000000000000009e96a26000000000000000000000000000000000000000000000000000000000",
        "nonce": "0x94e",
        "chainId": "0x13882"
      },
      "additionalContracts": [],
      "isFixedGasLimit": false
    }
  ],
  "receipts": [
    {
      "status": "0x1",
      "cumulativeGasUsed": "0xfbc7",
      "logs": [
        {
          "address": "0x8120a8e0688be6b2c0bb469f871e5e7023ca85eb",
          "topics": [
            "0xf98448b987f1428e0e230e1f3c6e2ce15b5693eaf31827fbd0b1ec4b424ae7cf",
            "0x0000000000000000000000000000000000000000000000000000000000000001",
            "0x000000000000000000000000efbbd14082cf2fbcf5badc7ee619f0f4e36d0a5b"
          ],
          "data": "0x000000000000000000000000000000000000000000000000000000000000000000000000000000000000000000000000000000000000000000000000677ca6050000000000000000000000000000000000000000000000000000000000000000",
          "blockHash": "0xb7bd218ad409faff7c881342e4aa68e4a0de2eab8a69d56791d4bd7167139b2f",
          "blockNumber": "0xfc9516",
          "transactionHash": "0x2adb8d9f607cb778a728c0c4b704a08e8cd719bdedc8e1c6f79bfc07a141f2ed",
          "transactionIndex": "0x1",
          "logIndex": "0x1",
          "removed": false
        },
        {
          "address": "0x0000000000000000000000000000000000001010",
          "topics": [
            "0x4dfe1bbbcf077ddc3e01291eea2d5c70c2b422b415d95645b9adcfd678cb1d63",
            "0x0000000000000000000000000000000000000000000000000000000000001010",
            "0x000000000000000000000000efbbd14082cf2fbcf5badc7ee619f0f4e36d0a5b",
            "0x0000000000000000000000004631753190f2f5a15a7ba172bbac102b7d95fa22"
          ],
          "data": "0x0000000000000000000000000000000000000000000000000004cf24f26a4968000000000000000000000000000000000000000000000001439e1ea7dc7767810000000000000000000000000000000000000000000003f5d9b0cc41e31b8ca500000000000000000000000000000000000000000000000143994f82ea0d1e190000000000000000000000000000000000000000000003f5d9b59b66d585d60d",
          "blockHash": "0xb7bd218ad409faff7c881342e4aa68e4a0de2eab8a69d56791d4bd7167139b2f",
          "blockNumber": "0xfc9516",
          "transactionHash": "0x2adb8d9f607cb778a728c0c4b704a08e8cd719bdedc8e1c6f79bfc07a141f2ed",
          "transactionIndex": "0x1",
          "logIndex": "0x2",
          "removed": false
        }
      ],
      "logsBloom": "0x00000000000000000000000000000000000000002000000000000000000000000000000000000000000000000000000000008000000000000000000040040000008000000000000000000000000000800000000000040100000100000000000000000000000000100000000000000000000000000000000080000000000000000800000000000000000000000800000008000000000000000000000000000000200000000000000000002000000000000000400000000008008000000000004000000000000000000001000000000000000000000000000000100000000040000000000000000000000000000000000000000000000000000000000000100000",
      "type": "0x2",
      "transactionHash": "0x2adb8d9f607cb778a728c0c4b704a08e8cd719bdedc8e1c6f79bfc07a141f2ed",
      "transactionIndex": "0x1",
      "blockHash": "0xb7bd218ad409faff7c881342e4aa68e4a0de2eab8a69d56791d4bd7167139b2f",
      "blockNumber": "0xfc9516",
      "gasUsed": "0xa2b3",
      "effectiveGasPrice": "0x79126a507",
      "from": "0xefbbd14082cf2fbcf5badc7ee619f0f4e36d0a5b",
      "to": "0x8120a8e0688be6b2c0bb469f871e5e7023ca85eb",
      "contractAddress": null
    },
    {
      "status": "0x1",
      "cumulativeGasUsed": "0x1db5b",
      "logs": [
        {
          "address": "0x8120a8e0688be6b2c0bb469f871e5e7023ca85eb",
          "topics": [
            "0x9ea6790c7dadfd01c9f8b9762b3682607af2c7e79e05a9f9fdf5580dde949151",
            "0x0000000000000000000000004580859e64385e3e82ee64da2bc06ef84bde851a",
            "0x0000000000000000000000000000000000000000000000000000000000000001"
          ],
          "data": "0x8cc0de1d00000000000000000000000000000000000000000000000000000000",
          "blockHash": "0xb7bd218ad409faff7c881342e4aa68e4a0de2eab8a69d56791d4bd7167139b2f",
          "blockNumber": "0xfc9516",
          "transactionHash": "0xb37ebe6616e82d4a7861fec010f315f78ee4e52c2cc90c47302e7f326447e11c",
          "transactionIndex": "0x2",
          "logIndex": "0x3",
          "removed": false
        },
        {
          "address": "0x0000000000000000000000000000000000001010",
          "topics": [
            "0x4dfe1bbbcf077ddc3e01291eea2d5c70c2b422b415d95645b9adcfd678cb1d63",
            "0x0000000000000000000000000000000000000000000000000000000000001010",
            "0x000000000000000000000000efbbd14082cf2fbcf5badc7ee619f0f4e36d0a5b",
            "0x0000000000000000000000004631753190f2f5a15a7ba172bbac102b7d95fa22"
          ],
          "data": "0x00000000000000000000000000000000000000000000000000069bd0940b676000000000000000000000000000000000000000000000000143994f82ea03959c0000000000000000000000000000000000000000000003f5d9b59b66d585d60d0000000000000000000000000000000000000000000000014392b3b255f82e3c0000000000000000000000000000000000000000000003f5d9bc373769913d6d",
          "blockHash": "0xb7bd218ad409faff7c881342e4aa68e4a0de2eab8a69d56791d4bd7167139b2f",
          "blockNumber": "0xfc9516",
          "transactionHash": "0xb37ebe6616e82d4a7861fec010f315f78ee4e52c2cc90c47302e7f326447e11c",
          "transactionIndex": "0x2",
          "logIndex": "0x4",
          "removed": false
        }
      ],
      "logsBloom": "0x00000004000080000000000000000000000000002000000000000000000000000000000000000000000000000000000000008000000000000000000040040000008000000000000000000000000000800000000000040100000100000000000000000000000000100000040000000000000000000000000080000000000000000800000000000000000000000800000000000000000000000000000000000000200000000000000000000000000000000000400000000000008000000000004000000000000002000001000000200000000000000000000000100000000040000100000000000000000000000000000000000000000000000000000000100000",
      "type": "0x2",
      "transactionHash": "0xb37ebe6616e82d4a7861fec010f315f78ee4e52c2cc90c47302e7f326447e11c",
      "transactionIndex": "0x2",
      "blockHash": "0xb7bd218ad409faff7c881342e4aa68e4a0de2eab8a69d56791d4bd7167139b2f",
      "blockNumber": "0xfc9516",
      "gasUsed": "0xdf94",
      "effectiveGasPrice": "0x79126a507",
      "from": "0xefbbd14082cf2fbcf5badc7ee619f0f4e36d0a5b",
      "to": "0x8120a8e0688be6b2c0bb469f871e5e7023ca85eb",
      "contractAddress": null
    },
    {
      "status": "0x1",
      "cumulativeGasUsed": "0x2baef",
      "logs": [
        {
          "address": "0x8120a8e0688be6b2c0bb469f871e5e7023ca85eb",
          "topics": [
            "0x9ea6790c7dadfd01c9f8b9762b3682607af2c7e79e05a9f9fdf5580dde949151",
            "0x000000000000000000000000d32ca33b1fbd97523536ed3519a191df242afcfd",
            "0x0000000000000000000000000000000000000000000000000000000000000001"
          ],
          "data": "0x06af20da00000000000000000000000000000000000000000000000000000000",
          "blockHash": "0xb7bd218ad409faff7c881342e4aa68e4a0de2eab8a69d56791d4bd7167139b2f",
          "blockNumber": "0xfc9516",
          "transactionHash": "0x34dedd2596f1f9b092a5695f599e7debc259ceb706c7be2d6ced955cf9eda4fc",
          "transactionIndex": "0x3",
          "logIndex": "0x5",
          "removed": false
        },
        {
          "address": "0x0000000000000000000000000000000000001010",
          "topics": [
            "0x4dfe1bbbcf077ddc3e01291eea2d5c70c2b422b415d95645b9adcfd678cb1d63",
            "0x0000000000000000000000000000000000000000000000000000000000001010",
            "0x000000000000000000000000efbbd14082cf2fbcf5badc7ee619f0f4e36d0a5b",
            "0x0000000000000000000000004631753190f2f5a15a7ba172bbac102b7d95fa22"
          ],
          "data": "0x00000000000000000000000000000000000000000000000000069bd0940b67600000000000000000000000000000000000000000000000014392b3b255eb14900000000000000000000000000000000000000000000003f5d9bc373769913d6d000000000000000000000000000000000000000000000001438c17e1c1dfad300000000000000000000000000000000000000000000003f5d9c2d307fd9ca4cd",
          "blockHash": "0xb7bd218ad409faff7c881342e4aa68e4a0de2eab8a69d56791d4bd7167139b2f",
          "blockNumber": "0xfc9516",
          "transactionHash": "0x34dedd2596f1f9b092a5695f599e7debc259ceb706c7be2d6ced955cf9eda4fc",
          "transactionIndex": "0x3",
          "logIndex": "0x6",
          "removed": false
        }
      ],
      "logsBloom": "0x00000004000080000000000000000000000000002000000000000000000000000000000000000000000000000000000000008000000000000000000040040000008000000000000000800000000000800000000000040100100100000000000000000000000000100000000000000000000000000000000080000000000000000800000000000000000000000800000000000000000000000000000000000000200000000000000000000000000000000000400000000000008000000000004000000000000000000001000000200000000400000000000000100000000040000000000000000000000000000000000000000000000000000000000000100000",
      "type": "0x2",
      "transactionHash": "0x34dedd2596f1f9b092a5695f599e7debc259ceb706c7be2d6ced955cf9eda4fc",
      "transactionIndex": "0x3",
      "blockHash": "0xb7bd218ad409faff7c881342e4aa68e4a0de2eab8a69d56791d4bd7167139b2f",
      "blockNumber": "0xfc9516",
      "gasUsed": "0xdf94",
      "effectiveGasPrice": "0x79126a507",
      "from": "0xefbbd14082cf2fbcf5badc7ee619f0f4e36d0a5b",
      "to": "0x8120a8e0688be6b2c0bb469f871e5e7023ca85eb",
      "contractAddress": null
    },
    {
      "status": "0x1",
      "cumulativeGasUsed": "0x4585b",
      "logs": [
        {
          "address": "0x8120a8e0688be6b2c0bb469f871e5e7023ca85eb",
          "topics": [
            "0x9ea6790c7dadfd01c9f8b9762b3682607af2c7e79e05a9f9fdf5580dde949151",
            "0x00000000000000000000000000abb22eb950684e4314287e94f024b0a9420d40",
            "0x0000000000000000000000000000000000000000000000000000000000000001"
          ],
          "data": "0x20c5429b00000000000000000000000000000000000000000000000000000000",
          "blockHash": "0xb7bd218ad409faff7c881342e4aa68e4a0de2eab8a69d56791d4bd7167139b2f",
          "blockNumber": "0xfc9516",
          "transactionHash": "0xa17d24c4b42de87390100e8c4e4c5e6058e70a721e7880013d7864068e392c7d",
          "transactionIndex": "0x4",
          "logIndex": "0x7",
          "removed": false
        },
        {
          "address": "0x8120a8e0688be6b2c0bb469f871e5e7023ca85eb",
          "topics": [
            "0x9ea6790c7dadfd01c9f8b9762b3682607af2c7e79e05a9f9fdf5580dde949151",
            "0x00000000000000000000000000abb22eb950684e4314287e94f024b0a9420d40",
            "0x0000000000000000000000000000000000000000000000000000000000000001"
          ],
          "data": "0xb8adaa1100000000000000000000000000000000000000000000000000000000",
          "blockHash": "0xb7bd218ad409faff7c881342e4aa68e4a0de2eab8a69d56791d4bd7167139b2f",
          "blockNumber": "0xfc9516",
          "transactionHash": "0xa17d24c4b42de87390100e8c4e4c5e6058e70a721e7880013d7864068e392c7d",
          "transactionIndex": "0x4",
          "logIndex": "0x8",
          "removed": false
        },
        {
          "address": "0x8120a8e0688be6b2c0bb469f871e5e7023ca85eb",
          "topics": [
            "0x9ea6790c7dadfd01c9f8b9762b3682607af2c7e79e05a9f9fdf5580dde949151",
            "0x00000000000000000000000000abb22eb950684e4314287e94f024b0a9420d40",
            "0x0000000000000000000000000000000000000000000000000000000000000001"
          ],
          "data": "0xb759f95400000000000000000000000000000000000000000000000000000000",
          "blockHash": "0xb7bd218ad409faff7c881342e4aa68e4a0de2eab8a69d56791d4bd7167139b2f",
          "blockNumber": "0xfc9516",
          "transactionHash": "0xa17d24c4b42de87390100e8c4e4c5e6058e70a721e7880013d7864068e392c7d",
          "transactionIndex": "0x4",
          "logIndex": "0x9",
          "removed": false
        },
        {
          "address": "0x0000000000000000000000000000000000001010",
          "topics": [
            "0x4dfe1bbbcf077ddc3e01291eea2d5c70c2b422b415d95645b9adcfd678cb1d63",
            "0x0000000000000000000000000000000000000000000000000000000000001010",
            "0x000000000000000000000000efbbd14082cf2fbcf5badc7ee619f0f4e36d0a5b",
            "0x0000000000000000000000004631753190f2f5a15a7ba172bbac102b7d95fa22"
          ],
          "data": "0x000000000000000000000000000000000000000000000000000c385c9471b0a0000000000000000000000000000000000000000000000001438c17e1c1d293840000000000000000000000000000000000000000000003f5d9c2d307fd9ca4cd000000000000000000000000000000000000000000000001437fdf852d60e2e40000000000000000000000000000000000000000000003f5d9cf0b64920e556d",
          "blockHash": "0xb7bd218ad409faff7c881342e4aa68e4a0de2eab8a69d56791d4bd7167139b2f",
          "blockNumber": "0xfc9516",
          "transactionHash": "0xa17d24c4b42de87390100e8c4e4c5e6058e70a721e7880013d7864068e392c7d",
          "transactionIndex": "0x4",
          "logIndex": "0xa",
          "removed": false
        }
      ],
      "logsBloom": "0x00000004000080000000000000000000000000002000000000000000000000000000000000000000000000000000000000008000000000000000000040040000008000000000000000000000000000800000000000040100000100000000000000000000000000100000000000000000000000000000000080000000000000000800000000000000000000000800000000000000000000000000000000000000200000000000000004000000000000000000400000000000008000000000004000000000000000000001000000200000000000000000000000100000000040000000000000000000000000000000000100000000000000400000000000100000",
      "type": "0x2",
      "transactionHash": "0xa17d24c4b42de87390100e8c4e4c5e6058e70a721e7880013d7864068e392c7d",
      "transactionIndex": "0x4",
      "blockHash": "0xb7bd218ad409faff7c881342e4aa68e4a0de2eab8a69d56791d4bd7167139b2f",
      "blockNumber": "0xfc9516",
      "gasUsed": "0x19d6c",
      "effectiveGasPrice": "0x79126a507",
      "from": "0xefbbd14082cf2fbcf5badc7ee619f0f4e36d0a5b",
      "to": "0x8120a8e0688be6b2c0bb469f871e5e7023ca85eb",
      "contractAddress": null
    },
    {
      "status": "0x1",
      "cumulativeGasUsed": "0x5f5d3",
      "logs": [
        {
          "address": "0x8120a8e0688be6b2c0bb469f871e5e7023ca85eb",
          "topics": [
            "0x9ea6790c7dadfd01c9f8b9762b3682607af2c7e79e05a9f9fdf5580dde949151",
            "0x000000000000000000000000a2746f0d272bb0f5273f53b4a0f476afe8873c32",
            "0x0000000000000000000000000000000000000000000000000000000000000001"
          ],
          "data": "0xf6eea09800000000000000000000000000000000000000000000000000000000",
          "blockHash": "0xb7bd218ad409faff7c881342e4aa68e4a0de2eab8a69d56791d4bd7167139b2f",
          "blockNumber": "0xfc9516",
          "transactionHash": "0x5fd61a68797f71ea6b69ad2240770a4646b58aa06d3d16b57d88e8f3f4ce644d",
          "transactionIndex": "0x5",
          "logIndex": "0xb",
          "removed": false
        },
        {
          "address": "0x8120a8e0688be6b2c0bb469f871e5e7023ca85eb",
          "topics": [
            "0x9ea6790c7dadfd01c9f8b9762b3682607af2c7e79e05a9f9fdf5580dde949151",
            "0x000000000000000000000000a2746f0d272bb0f5273f53b4a0f476afe8873c32",
            "0x0000000000000000000000000000000000000000000000000000000000000001"
          ],
          "data": "0x74a8f10300000000000000000000000000000000000000000000000000000000",
          "blockHash": "0xb7bd218ad409faff7c881342e4aa68e4a0de2eab8a69d56791d4bd7167139b2f",
          "blockNumber": "0xfc9516",
          "transactionHash": "0x5fd61a68797f71ea6b69ad2240770a4646b58aa06d3d16b57d88e8f3f4ce644d",
          "transactionIndex": "0x5",
          "logIndex": "0xc",
          "removed": false
        },
        {
          "address": "0x8120a8e0688be6b2c0bb469f871e5e7023ca85eb",
          "topics": [
            "0x9ea6790c7dadfd01c9f8b9762b3682607af2c7e79e05a9f9fdf5580dde949151",
            "0x000000000000000000000000a2746f0d272bb0f5273f53b4a0f476afe8873c32",
            "0x0000000000000000000000000000000000000000000000000000000000000001"
          ],
          "data": "0xdaea85c500000000000000000000000000000000000000000000000000000000",
          "blockHash": "0xb7bd218ad409faff7c881342e4aa68e4a0de2eab8a69d56791d4bd7167139b2f",
          "blockNumber": "0xfc9516",
          "transactionHash": "0x5fd61a68797f71ea6b69ad2240770a4646b58aa06d3d16b57d88e8f3f4ce644d",
          "transactionIndex": "0x5",
          "logIndex": "0xd",
          "removed": false
        },
        {
          "address": "0x0000000000000000000000000000000000001010",
          "topics": [
            "0x4dfe1bbbcf077ddc3e01291eea2d5c70c2b422b415d95645b9adcfd678cb1d63",
            "0x0000000000000000000000000000000000000000000000000000000000001010",
            "0x000000000000000000000000efbbd14082cf2fbcf5badc7ee619f0f4e36d0a5b",
            "0x0000000000000000000000004631753190f2f5a15a7ba172bbac102b7d95fa22"
          ],
          "data": "0x000000000000000000000000000000000000000000000000000c38b762416c40000000000000000000000000000000000000000000000001437fdf852d48a9900000000000000000000000000000000000000000000003f5d9cf0b64920e556d0000000000000000000000000000000000000000000000014373a6cdcb073d500000000000000000000000000000000000000000000003f5d9db441bf44fc1ad",
          "blockHash": "0xb7bd218ad409faff7c881342e4aa68e4a0de2eab8a69d56791d4bd7167139b2f",
          "blockNumber": "0xfc9516",
          "transactionHash": "0x5fd61a68797f71ea6b69ad2240770a4646b58aa06d3d16b57d88e8f3f4ce644d",
          "transactionIndex": "0x5",
          "logIndex": "0xe",
          "removed": false
        }
      ],
      "logsBloom": "0x00000004000080000000000000000000000000002000000000000000000000000000000000000000000000000001000000008000000000000000000040040000008000000000000000000000000000800000000000040100000100000000000000000000000000100000000000000000000000000000000080000000000000000800000000000000000000000800000000000000000000000000000000000000200000000000000000000000000000000000400000000000008000000000004000000000000000000001000400200000000000000000000000100000000040000000000000000000000040000000000000000000000000000000000000100000",
      "type": "0x2",
      "transactionHash": "0x5fd61a68797f71ea6b69ad2240770a4646b58aa06d3d16b57d88e8f3f4ce644d",
      "transactionIndex": "0x5",
      "blockHash": "0xb7bd218ad409faff7c881342e4aa68e4a0de2eab8a69d56791d4bd7167139b2f",
      "blockNumber": "0xfc9516",
      "gasUsed": "0x19d78",
      "effectiveGasPrice": "0x79126a507",
      "from": "0xefbbd14082cf2fbcf5badc7ee619f0f4e36d0a5b",
      "to": "0x8120a8e0688be6b2c0bb469f871e5e7023ca85eb",
      "contractAddress": null
    },
    {
      "status": "0x1",
      "cumulativeGasUsed": "0x69886",
      "logs": [
        {
          "address": "0x8120a8e0688be6b2c0bb469f871e5e7023ca85eb",
          "topics": [
            "0xf98448b987f1428e0e230e1f3c6e2ce15b5693eaf31827fbd0b1ec4b424ae7cf",
            "0x0000000000000000000000000000000000000000000000000000000000000002",
            "0x000000000000000000000000efbbd14082cf2fbcf5badc7ee619f0f4e36d0a5b"
          ],
          "data": "0x000000000000000000000000000000000000000000000000000000000000000000000000000000000000000000000000000000000000000000000000677ca6050000000000000000000000000000000000000000000000000000000000000000",
          "blockHash": "0xb7bd218ad409faff7c881342e4aa68e4a0de2eab8a69d56791d4bd7167139b2f",
          "blockNumber": "0xfc9516",
          "transactionHash": "0x65c80d2aeda42d94a160b669bdd63b7946544d664cb7c1b13967007aa202597c",
          "transactionIndex": "0x6",
          "logIndex": "0xf",
          "removed": false
        },
        {
          "address": "0x0000000000000000000000000000000000001010",
          "topics": [
            "0x4dfe1bbbcf077ddc3e01291eea2d5c70c2b422b415d95645b9adcfd678cb1d63",
            "0x0000000000000000000000000000000000000000000000000000000000001010",
            "0x000000000000000000000000efbbd14082cf2fbcf5badc7ee619f0f4e36d0a5b",
            "0x0000000000000000000000004631753190f2f5a15a7ba172bbac102b7d95fa22"
          ],
          "data": "0x0000000000000000000000000000000000000000000000000004cf24f26a49680000000000000000000000000000000000000000000000014373a6cdcaef03480000000000000000000000000000000000000000000003f5d9db441bf44fc1ad000000000000000000000000000000000000000000000001436ed7a8d884b9e00000000000000000000000000000000000000000000003f5d9e01340e6ba0b15",
          "blockHash": "0xb7bd218ad409faff7c881342e4aa68e4a0de2eab8a69d56791d4bd7167139b2f",
          "blockNumber": "0xfc9516",
          "transactionHash": "0x65c80d2aeda42d94a160b669bdd63b7946544d664cb7c1b13967007aa202597c",
          "transactionIndex": "0x6",
          "logIndex": "0x10",
          "removed": false
        }
      ],
      "logsBloom": "0x04000000000000000000000000000000000000002000000000000000000000000000000000000000000000000000000000008000000000000000000040000000008000000000000000000000000000800000000000000100000100000000000000000000000000100000000000000000000000000000000080000000000000000800000000000000000000000800000008000000000000000000000000000000200000000000000000002100000000000000400000000008008000000000004000000000000000000001000000000000000000000000000000100000000000000000000000000000000000000000000000000000008000000000000000100000",
      "type": "0x2",
      "transactionHash": "0x65c80d2aeda42d94a160b669bdd63b7946544d664cb7c1b13967007aa202597c",
      "transactionIndex": "0x6",
      "blockHash": "0xb7bd218ad409faff7c881342e4aa68e4a0de2eab8a69d56791d4bd7167139b2f",
      "blockNumber": "0xfc9516",
      "gasUsed": "0xa2b3",
      "effectiveGasPrice": "0x79126a507",
      "from": "0xefbbd14082cf2fbcf5badc7ee619f0f4e36d0a5b",
      "to": "0x8120a8e0688be6b2c0bb469f871e5e7023ca85eb",
      "contractAddress": null
    },
    {
      "status": "0x1",
      "cumulativeGasUsed": "0x7d70c",
      "logs": [
        {
          "address": "0x8120a8e0688be6b2c0bb469f871e5e7023ca85eb",
          "topics": [
            "0x9ea6790c7dadfd01c9f8b9762b3682607af2c7e79e05a9f9fdf5580dde949151",
            "0x0000000000000000000000008db5ae2ae14e189c7d0e8f9c67643170e5508874",
            "0x0000000000000000000000000000000000000000000000000000000000000002"
          ],
          "data": "0xdaea85c500000000000000000000000000000000000000000000000000000000",
          "blockHash": "0xb7bd218ad409faff7c881342e4aa68e4a0de2eab8a69d56791d4bd7167139b2f",
          "blockNumber": "0xfc9516",
          "transactionHash": "0xf2584e86660d4305622260ef4124f7a113a7b1f08b7eef605bf229a4fde04980",
          "transactionIndex": "0x7",
          "logIndex": "0x11",
          "removed": false
        },
        {
          "address": "0x8120a8e0688be6b2c0bb469f871e5e7023ca85eb",
          "topics": [
            "0x9ea6790c7dadfd01c9f8b9762b3682607af2c7e79e05a9f9fdf5580dde949151",
            "0x0000000000000000000000008db5ae2ae14e189c7d0e8f9c67643170e5508874",
            "0x0000000000000000000000000000000000000000000000000000000000000002"
          ],
          "data": "0xab0da5a900000000000000000000000000000000000000000000000000000000",
          "blockHash": "0xb7bd218ad409faff7c881342e4aa68e4a0de2eab8a69d56791d4bd7167139b2f",
          "blockNumber": "0xfc9516",
          "transactionHash": "0xf2584e86660d4305622260ef4124f7a113a7b1f08b7eef605bf229a4fde04980",
          "transactionIndex": "0x7",
          "logIndex": "0x12",
          "removed": false
        },
        {
          "address": "0x0000000000000000000000000000000000001010",
          "topics": [
            "0x4dfe1bbbcf077ddc3e01291eea2d5c70c2b422b415d95645b9adcfd678cb1d63",
            "0x0000000000000000000000000000000000000000000000000000000000001010",
            "0x000000000000000000000000efbbd14082cf2fbcf5badc7ee619f0f4e36d0a5b",
            "0x0000000000000000000000004631753190f2f5a15a7ba172bbac102b7d95fa22"
          ],
          "data": "0x00000000000000000000000000000000000000000000000000096a43fb2669d0000000000000000000000000000000000000000000000001436ed7a8d87b31630000000000000000000000000000000000000000000003f5d9e01340e6ba0b1500000000000000000000000000000000000000000000000143656d64dd54c7930000000000000000000000000000000000000000000003f5d9e97d84e1e074e5",
          "blockHash": "0xb7bd218ad409faff7c881342e4aa68e4a0de2eab8a69d56791d4bd7167139b2f",
          "blockNumber": "0xfc9516",
          "transactionHash": "0xf2584e86660d4305622260ef4124f7a113a7b1f08b7eef605bf229a4fde04980",
          "transactionIndex": "0x7",
          "logIndex": "0x13",
          "removed": false
        }
      ],
      "logsBloom": "0x04000004000080000000000000000000000000002000000000000000000000002000000000000000000000000000000000008000000000000000000040000000008000000000000000000000000000800000000000004100000100000000000000000000000000100000000000000000000000000000000080000000000000000800000000000000000000000800000000000000000000000000000000020000200000000000000000000100000000000000400000000000008000000000004000000000000000000001000000200000000000000000000000100000000000000000000000000000000000000000000000000000008000000000000000100000",
      "type": "0x2",
      "transactionHash": "0xf2584e86660d4305622260ef4124f7a113a7b1f08b7eef605bf229a4fde04980",
      "transactionIndex": "0x7",
      "blockHash": "0xb7bd218ad409faff7c881342e4aa68e4a0de2eab8a69d56791d4bd7167139b2f",
      "blockNumber": "0xfc9516",
      "gasUsed": "0x13e86",
      "effectiveGasPrice": "0x79126a507",
      "from": "0xefbbd14082cf2fbcf5badc7ee619f0f4e36d0a5b",
      "to": "0x8120a8e0688be6b2c0bb469f871e5e7023ca85eb",
      "contractAddress": null
    },
    {
      "status": "0x1",
      "cumulativeGasUsed": "0x8bbb0",
      "logs": [
        {
          "address": "0x8120a8e0688be6b2c0bb469f871e5e7023ca85eb",
          "topics": [
            "0xf98448b987f1428e0e230e1f3c6e2ce15b5693eaf31827fbd0b1ec4b424ae7cf",
            "0x0000000000000000000000000000000000000000000000000000000000000004",
            "0x0000000000000000000000005945c1417ad688ef90cf3e61263b404b96a0c20b"
          ],
          "data": "0x000000000000000000000000000000000000000000000000000000000000000000000000000000000000000000000000000000000000000000000000677ca6050000000000000000000000000000000000000000000000000000000000000001",
          "blockHash": "0xb7bd218ad409faff7c881342e4aa68e4a0de2eab8a69d56791d4bd7167139b2f",
          "blockNumber": "0xfc9516",
          "transactionHash": "0xea1236d0bbaaae7a251f4469d9856c1f834a1edd40d7f546f7b971e898651614",
          "transactionIndex": "0x8",
          "logIndex": "0x14",
          "removed": false
        },
        {
          "address": "0x0000000000000000000000000000000000001010",
          "topics": [
            "0x4dfe1bbbcf077ddc3e01291eea2d5c70c2b422b415d95645b9adcfd678cb1d63",
            "0x0000000000000000000000000000000000000000000000000000000000001010",
            "0x000000000000000000000000efbbd14082cf2fbcf5badc7ee619f0f4e36d0a5b",
            "0x0000000000000000000000004631753190f2f5a15a7ba172bbac102b7d95fa22"
          ],
          "data": "0x0000000000000000000000000000000000000000000000000006c21f67ae8ee000000000000000000000000000000000000000000000000143656d64dd421db90000000000000000000000000000000000000000000003f5d9e97d84e1e074e5000000000000000000000000000000000000000000000001435eab4575938ed90000000000000000000000000000000000000000000003f5d9f03fa4498f03c5",
          "blockHash": "0xb7bd218ad409faff7c881342e4aa68e4a0de2eab8a69d56791d4bd7167139b2f",
          "blockNumber": "0xfc9516",
          "transactionHash": "0xea1236d0bbaaae7a251f4469d9856c1f834a1edd40d7f546f7b971e898651614",
          "transactionIndex": "0x8",
          "logIndex": "0x15",
          "removed": false
        }
      ],
      "logsBloom": "0x0000000000000000000000000000000000000000200000000000000000000000000000000000000000000000000000000000800000000000000000004000000000800200000000000000000000000080000000000000010000010000000000000800000000000010000000000000000000000000000000008000000000000000080000000000000000000000084000000800000000000000000000000000000020000000000000000000200000000000000040000000000840a000000000004000000000000000000001000000000000000000008000000000100000000000000000000000000000000000000000000000000000000000000000000000100000",
      "type": "0x2",
      "transactionHash": "0xea1236d0bbaaae7a251f4469d9856c1f834a1edd40d7f546f7b971e898651614",
      "transactionIndex": "0x8",
      "blockHash": "0xb7bd218ad409faff7c881342e4aa68e4a0de2eab8a69d56791d4bd7167139b2f",
      "blockNumber": "0xfc9516",
      "gasUsed": "0xe4a4",
      "effectiveGasPrice": "0x79126a507",
      "from": "0xefbbd14082cf2fbcf5badc7ee619f0f4e36d0a5b",
      "to": "0x8120a8e0688be6b2c0bb469f871e5e7023ca85eb",
      "contractAddress": null
    },
    {
      "status": "0x1",
      "cumulativeGasUsed": "0xe4a4",
      "logs": [
        {
          "address": "0x8120a8e0688be6b2c0bb469f871e5e7023ca85eb",
          "topics": [
            "0xf98448b987f1428e0e230e1f3c6e2ce15b5693eaf31827fbd0b1ec4b424ae7cf",
            "0x0000000000000000000000000000000000000000000000000000000000000004",
            "0x00000000000000000000000031b351e4c217f838190825586caa8494ee1ca635"
          ],
          "data": "0x000000000000000000000000000000000000000000000000000000000000000000000000000000000000000000000000000000000000000000000000677ca6070000000000000000000000000000000000000000000000000000000000000001",
          "blockHash": "0x648f25e0fb7db45e142912f1c292adf0744a8aed6bc118a0d41ea0b8bf93d480",
          "blockNumber": "0xfc9517",
          "transactionHash": "0x180fc7ce4a7f8d7c33aebaac78e47155d55c4f34bf4633017eb901a76d385594",
          "transactionIndex": "0x0",
          "logIndex": "0x0",
          "removed": false
        },
        {
          "address": "0x0000000000000000000000000000000000001010",
          "topics": [
            "0x4dfe1bbbcf077ddc3e01291eea2d5c70c2b422b415d95645b9adcfd678cb1d63",
            "0x0000000000000000000000000000000000000000000000000000000000001010",
            "0x000000000000000000000000efbbd14082cf2fbcf5badc7ee619f0f4e36d0a5b",
            "0x0000000000000000000000004631753190f2f5a15a7ba172bbac102b7d95fa22"
          ],
          "data": "0x0000000000000000000000000000000000000000000000000006c21f67ae8ee0000000000000000000000000000000000000000000000001435eab457586293d0000000000000000000000000000000000000000000003f5d9f03fa4498f03c50000000000000000000000000000000000000000000000014357e9260dd79a5d0000000000000000000000000000000000000000000003f5d9f701c3b13d92a5",
          "blockHash": "0x648f25e0fb7db45e142912f1c292adf0744a8aed6bc118a0d41ea0b8bf93d480",
          "blockNumber": "0xfc9517",
          "transactionHash": "0x180fc7ce4a7f8d7c33aebaac78e47155d55c4f34bf4633017eb901a76d385594",
          "transactionIndex": "0x0",
          "logIndex": "0x1",
          "removed": false
        }
      ],
      "logsBloom": "0x0000000000000000000000000000000000000000200000000000000000000000000000000000000000000000000000000000800000000000000000004000000000800000000000000000000000000080000000000000010000010000000000000800000000000010000000000000000000000000000000008000000000800000080000000000000000000000080000000800000000000000000000000000000020000000000000000000200000000000000040000000000800a000000000004002000000000000000001000000000000000000008000000000100010000000000000000000000000000000000000000000000000000000000000000000100000",
      "type": "0x2",
      "transactionHash": "0x180fc7ce4a7f8d7c33aebaac78e47155d55c4f34bf4633017eb901a76d385594",
      "transactionIndex": "0x0",
      "blockHash": "0x648f25e0fb7db45e142912f1c292adf0744a8aed6bc118a0d41ea0b8bf93d480",
      "blockNumber": "0xfc9517",
      "gasUsed": "0xe4a4",
      "effectiveGasPrice": "0x79126a507",
      "from": "0xefbbd14082cf2fbcf5badc7ee619f0f4e36d0a5b",
      "to": "0x8120a8e0688be6b2c0bb469f871e5e7023ca85eb",
      "contractAddress": null
    },
    {
      "status": "0x1",
      "cumulativeGasUsed": "0x1c948",
      "logs": [
        {
          "address": "0x8120a8e0688be6b2c0bb469f871e5e7023ca85eb",
          "topics": [
            "0xf98448b987f1428e0e230e1f3c6e2ce15b5693eaf31827fbd0b1ec4b424ae7cf",
            "0x0000000000000000000000000000000000000000000000000000000000000004",
            "0x000000000000000000000000a2746f0d272bb0f5273f53b4a0f476afe8873c32"
          ],
          "data": "0x000000000000000000000000000000000000000000000000000000000000000000000000000000000000000000000000000000000000000000000000677ca6070000000000000000000000000000000000000000000000000000000000000001",
          "blockHash": "0x648f25e0fb7db45e142912f1c292adf0744a8aed6bc118a0d41ea0b8bf93d480",
          "blockNumber": "0xfc9517",
          "transactionHash": "0x3c0f7de5c937599d936ff125fec77ebef250a26b979bcb62ca3dd2b43b4b8437",
          "transactionIndex": "0x1",
          "logIndex": "0x2",
          "removed": false
        },
        {
          "address": "0x0000000000000000000000000000000000001010",
          "topics": [
            "0x4dfe1bbbcf077ddc3e01291eea2d5c70c2b422b415d95645b9adcfd678cb1d63",
            "0x0000000000000000000000000000000000000000000000000000000000001010",
            "0x000000000000000000000000efbbd14082cf2fbcf5badc7ee619f0f4e36d0a5b",
            "0x0000000000000000000000004631753190f2f5a15a7ba172bbac102b7d95fa22"
          ],
          "data": "0x0000000000000000000000000000000000000000000000000006c21f67ae8ee00000000000000000000000000000000000000000000000014357e9260dca34c10000000000000000000000000000000000000000000003f5d9f701c3b13d92a500000000000000000000000000000000000000000000000143512706a61ba5e10000000000000000000000000000000000000000000003f5d9fdc3e318ec2185",
          "blockHash": "0x648f25e0fb7db45e142912f1c292adf0744a8aed6bc118a0d41ea0b8bf93d480",
          "blockNumber": "0xfc9517",
          "transactionHash": "0x3c0f7de5c937599d936ff125fec77ebef250a26b979bcb62ca3dd2b43b4b8437",
          "transactionIndex": "0x1",
          "logIndex": "0x3",
          "removed": false
        }
      ],
      "logsBloom": "0x0000000000000000000000000000000000000000200000000000000000000000000000000000000000000000000100000000800000000000000000004000000000800000000000000000000000000080000000000000010000010000000000000800000000000010000000000000000000000000000000008000000000000000080000000000000000000000080000000800000000000000000000000000000020000000000000000000200000000000000040000000000800a000000000004000000000000000000001000400000000000000008000000000100000000000000000000000000000000040000000000000000000000000000000000000100000",
      "type": "0x2",
      "transactionHash": "0x3c0f7de5c937599d936ff125fec77ebef250a26b979bcb62ca3dd2b43b4b8437",
      "transactionIndex": "0x1",
      "blockHash": "0x648f25e0fb7db45e142912f1c292adf0744a8aed6bc118a0d41ea0b8bf93d480",
      "blockNumber": "0xfc9517",
      "gasUsed": "0xe4a4",
      "effectiveGasPrice": "0x79126a507",
      "from": "0xefbbd14082cf2fbcf5badc7ee619f0f4e36d0a5b",
      "to": "0x8120a8e0688be6b2c0bb469f871e5e7023ca85eb",
      "contractAddress": null
    },
    {
      "status": "0x1",
      "cumulativeGasUsed": "0x366c0",
      "logs": [
        {
          "address": "0x8120a8e0688be6b2c0bb469f871e5e7023ca85eb",
          "topics": [
            "0x9ea6790c7dadfd01c9f8b9762b3682607af2c7e79e05a9f9fdf5580dde949151",
            "0x00000000000000000000000083266ca8147572839bb23a204db52bd26a1fceaa",
            "0x0000000000000000000000000000000000000000000000000000000000000004"
          ],
          "data": "0x4bbc170a00000000000000000000000000000000000000000000000000000000",
          "blockHash": "0x648f25e0fb7db45e142912f1c292adf0744a8aed6bc118a0d41ea0b8bf93d480",
          "blockNumber": "0xfc9517",
          "transactionHash": "0x0173973f2bb0605916c16d43a2827bad827d25f42c4597a2eeecf21d12fc8f2a",
          "transactionIndex": "0x2",
          "logIndex": "0x4",
          "removed": false
        },
        {
          "address": "0x8120a8e0688be6b2c0bb469f871e5e7023ca85eb",
          "topics": [
            "0x9ea6790c7dadfd01c9f8b9762b3682607af2c7e79e05a9f9fdf5580dde949151",
            "0x00000000000000000000000083266ca8147572839bb23a204db52bd26a1fceaa",
            "0x0000000000000000000000000000000000000000000000000000000000000004"
          ],
          "data": "0x15f4150100000000000000000000000000000000000000000000000000000000",
          "blockHash": "0x648f25e0fb7db45e142912f1c292adf0744a8aed6bc118a0d41ea0b8bf93d480",
          "blockNumber": "0xfc9517",
          "transactionHash": "0x0173973f2bb0605916c16d43a2827bad827d25f42c4597a2eeecf21d12fc8f2a",
          "transactionIndex": "0x2",
          "logIndex": "0x5",
          "removed": false
        },
        {
          "address": "0x8120a8e0688be6b2c0bb469f871e5e7023ca85eb",
          "topics": [
            "0x9ea6790c7dadfd01c9f8b9762b3682607af2c7e79e05a9f9fdf5580dde949151",
            "0x00000000000000000000000083266ca8147572839bb23a204db52bd26a1fceaa",
            "0x0000000000000000000000000000000000000000000000000000000000000004"
          ],
          "data": "0x9e96a26000000000000000000000000000000000000000000000000000000000",
          "blockHash": "0x648f25e0fb7db45e142912f1c292adf0744a8aed6bc118a0d41ea0b8bf93d480",
          "blockNumber": "0xfc9517",
          "transactionHash": "0x0173973f2bb0605916c16d43a2827bad827d25f42c4597a2eeecf21d12fc8f2a",
          "transactionIndex": "0x2",
          "logIndex": "0x6",
          "removed": false
        },
        {
          "address": "0x0000000000000000000000000000000000001010",
          "topics": [
            "0x4dfe1bbbcf077ddc3e01291eea2d5c70c2b422b415d95645b9adcfd678cb1d63",
            "0x0000000000000000000000000000000000000000000000000000000000001010",
            "0x000000000000000000000000efbbd14082cf2fbcf5badc7ee619f0f4e36d0a5b",
            "0x0000000000000000000000004631753190f2f5a15a7ba172bbac102b7d95fa22"
          ],
          "data": "0x000000000000000000000000000000000000000000000000000c38b762416c4000000000000000000000000000000000000000000000000143512706a60e40450000000000000000000000000000000000000000000003f5d9fdc3e318ec21850000000000000000000000000000000000000000000000014344ee4f43ccd4050000000000000000000000000000000000000000000003f5da09fc9a7b2d8dc5",
          "blockHash": "0x648f25e0fb7db45e142912f1c292adf0744a8aed6bc118a0d41ea0b8bf93d480",
          "blockNumber": "0xfc9517",
          "transactionHash": "0x0173973f2bb0605916c16d43a2827bad827d25f42c4597a2eeecf21d12fc8f2a",
          "transactionIndex": "0x2",
          "logIndex": "0x7",
          "removed": false
        }
      ],
      "logsBloom": "0x0000000400008000000000000000000000000000200000000000000000000000000000000000000000000000000000000000800000000000000000004000000000800000000000000000000000000080000000000000010000010000000000000800000000000010000000000000000000000000000000008000000000000000080000000000000000000000080000000000000000000040000000000000000020000000000000000000000000000000000040000000000000a000000000004000000000000000000001000000200001000000008000000000100000000000000000008000000000000000000000000000000000000000000000000000100000",
      "type": "0x2",
      "transactionHash": "0x0173973f2bb0605916c16d43a2827bad827d25f42c4597a2eeecf21d12fc8f2a",
      "transactionIndex": "0x2",
      "blockHash": "0x648f25e0fb7db45e142912f1c292adf0744a8aed6bc118a0d41ea0b8bf93d480",
      "blockNumber": "0xfc9517",
      "gasUsed": "0x19d78",
      "effectiveGasPrice": "0x79126a507",
      "from": "0xefbbd14082cf2fbcf5badc7ee619f0f4e36d0a5b",
      "to": "0x8120a8e0688be6b2c0bb469f871e5e7023ca85eb",
      "contractAddress": null
    }
  ],
  "libraries": [],
  "pending": [],
  "returns": {},
  "timestamp": 1736222215,
  "chain": 80002,
  "commit": "0798d1a"
}