{
  "transactions": [
    {
      "hash": "0x272fc16d48dcfd4ed7d348f8261ad1b2ca713c606efeef077d8363a1d7cb3a3f",
      "transactionType": "CALL",
      "contractName": null,
      "contractAddress": "0x86ac30d927ee1641ee16d4420b5cbcb5b180b3db",
      "function": "grantRole(uint64,address,uint32)",
      "arguments": [
        "1",
        "0xEFBBD14082cF2FbCf5Badc7ee619F0f4e36D0A5B",
        "0"
      ],
      "transaction": {
        "from": "0xefbbd14082cf2fbcf5badc7ee619f0f4e36d0a5b",
        "to": "0x86ac30d927ee1641ee16d4420b5cbcb5b180b3db",
        "gas": "0xedf2",
        "value": "0x0",
        "input": "0x25c471a00000000000000000000000000000000000000000000000000000000000000001000000000000000000000000efbbd14082cf2fbcf5badc7ee619f0f4e36d0a5b0000000000000000000000000000000000000000000000000000000000000000",
        "nonce": "0x664",
        "chainId": "0x13882"
      },
      "additionalContracts": [],
      "isFixedGasLimit": false
    },
    {
      "hash": "0xc2f1eca96695905d5e45000e21ff61d8cd6313183b9c50f597ab591a13ca0384",
      "transactionType": "CALL",
      "contractName": null,
      "contractAddress": "0x86ac30d927ee1641ee16d4420b5cbcb5b180b3db",
      "function": "setTargetFunctionRole(address,bytes4[],uint64)",
      "arguments": [
        "0x377979CD68e1740EF41905664C5abE93Ec0FdB0d",
        "[0xecf441b7]",
        "1"
      ],
      "transaction": {
        "from": "0xefbbd14082cf2fbcf5badc7ee619f0f4e36d0a5b",
        "to": "0x86ac30d927ee1641ee16d4420b5cbcb5b180b3db",
        "gas": "0xc971",
        "value": "0x0",
        "input": "0x08d6122d000000000000000000000000377979cd68e1740ef41905664c5abe93ec0fdb0d000000000000000000000000000000000000000000000000000000000000006000000000000000000000000000000000000000000000000000000000000000010000000000000000000000000000000000000000000000000000000000000001ecf441b700000000000000000000000000000000000000000000000000000000",
        "nonce": "0x665",
        "chainId": "0x13882"
      },
      "additionalContracts": [],
      "isFixedGasLimit": false
    },
    {
      "hash": "0x020cad100689e6baf50b966f7366295f304b409c599b446be72e5055a8c4ade9",
      "transactionType": "CALL",
      "contractName": null,
      "contractAddress": "0x86ac30d927ee1641ee16d4420b5cbcb5b180b3db",
      "function": "setTargetFunctionRole(address,bytes4[],uint64)",
      "arguments": [
        "0x0108FDc1677f9CcFE88b8500Bf2Df668455B31Bf",
        "[0x06af20da]",
        "1"
      ],
      "transaction": {
        "from": "0xefbbd14082cf2fbcf5badc7ee619f0f4e36d0a5b",
        "to": "0x86ac30d927ee1641ee16d4420b5cbcb5b180b3db",
        "gas": "0xc960",
        "value": "0x0",
        "input": "0x08d6122d0000000000000000000000000108fdc1677f9ccfe88b8500bf2df668455b31bf00000000000000000000000000000000000000000000000000000000000000600000000000000000000000000000000000000000000000000000000000000001000000000000000000000000000000000000000000000000000000000000000106af20da00000000000000000000000000000000000000000000000000000000",
        "nonce": "0x666",
        "chainId": "0x13882"
      },
      "additionalContracts": [],
      "isFixedGasLimit": false
    },
    {
      "hash": "0xafd1ca64d2ffae40e80093d84d9591fb7066c667ea2c3e58e8b56b3615594db7",
      "transactionType": "CALL",
      "contractName": null,
      "contractAddress": "0x86ac30d927ee1641ee16d4420b5cbcb5b180b3db",
      "function": "setTargetFunctionRole(address,bytes4[],uint64)",
      "arguments": [
        "0xf7Cb897153B4b4C5416413aD797A03cba58261b2",
        "[0xdaea85c5, 0xab0da5a9]",
        "1"
      ],
      "transaction": {
        "from": "0xefbbd14082cf2fbcf5badc7ee619f0f4e36d0a5b",
        "to": "0x86ac30d927ee1641ee16d4420b5cbcb5b180b3db",
        "gas": "0xe137",
        "value": "0x0",
        "input": "0x08d6122d000000000000000000000000f7cb897153b4b4c5416413ad797a03cba58261b2000000000000000000000000000000000000000000000000000000000000006000000000000000000000000000000000000000000000000000000000000000010000000000000000000000000000000000000000000000000000000000000002daea85c500000000000000000000000000000000000000000000000000000000ab0da5a900000000000000000000000000000000000000000000000000000000",
        "nonce": "0x667",
        "chainId": "0x13882"
      },
      "additionalContracts": [],
      "isFixedGasLimit": false
    },
    {
      "hash": "0xc658f972b0a0486ab8d1bf9e163f2ce9c4ac13d25ebfaebe496540d3f8f3556f",
      "transactionType": "CALL",
      "contractName": null,
      "contractAddress": "0x86ac30d927ee1641ee16d4420b5cbcb5b180b3db",
      "function": "setTargetFunctionRole(address,bytes4[],uint64)",
      "arguments": [
        "0x890BA96CE986CF7720d8626607972198a2DfEDf9",
        "[0x20c5429b, 0xb8adaa11, 0xb759f954]",
        "1"
      ],
      "transaction": {
        "from": "0xefbbd14082cf2fbcf5badc7ee619f0f4e36d0a5b",
        "to": "0x86ac30d927ee1641ee16d4420b5cbcb5b180b3db",
        "gas": "0xf8fd",
        "value": "0x0",
        "input": "0x08d6122d000000000000000000000000890ba96ce986cf7720d8626607972198a2dfedf900000000000000000000000000000000000000000000000000000000000000600000000000000000000000000000000000000000000000000000000000000001000000000000000000000000000000000000000000000000000000000000000320c5429b00000000000000000000000000000000000000000000000000000000b8adaa1100000000000000000000000000000000000000000000000000000000b759f95400000000000000000000000000000000000000000000000000000000",
        "nonce": "0x668",
        "chainId": "0x13882"
      },
      "additionalContracts": [],
      "isFixedGasLimit": false
    },
    {
      "hash": "0x4e998117cc4239b85aad46dc166991b45a14fdfe908155d764b2bb883841b23a",
      "transactionType": "CALL",
      "contractName": null,
      "contractAddress": "0x86ac30d927ee1641ee16d4420b5cbcb5b180b3db",
      "function": "setTargetFunctionRole(address,bytes4[],uint64)",
      "arguments": [
        "0x108976Dc7dC5B52597BDfeE15908232a298Be74D",
        "[0xf6eea098, 0x74a8f103, 0xdaea85c5]",
        "1"
      ],
      "transaction": {
        "from": "0xefbbd14082cf2fbcf5badc7ee619f0f4e36d0a5b",
        "to": "0x86ac30d927ee1641ee16d4420b5cbcb5b180b3db",
        "gas": "0xf8fd",
        "value": "0x0",
        "input": "0x08d6122d000000000000000000000000108976dc7dc5b52597bdfee15908232a298be74d000000000000000000000000000000000000000000000000000000000000006000000000000000000000000000000000000000000000000000000000000000010000000000000000000000000000000000000000000000000000000000000003f6eea0980000000000000000000000000000000000000000000000000000000074a8f10300000000000000000000000000000000000000000000000000000000daea85c500000000000000000000000000000000000000000000000000000000",
        "nonce": "0x669",
        "chainId": "0x13882"
      },
      "additionalContracts": [],
      "isFixedGasLimit": false
    },
    {
      "hash": "0xc6305d6dbebb545257e31bd7b030f044801cfed69cbb8dba94f1ff9bb813937b",
      "transactionType": "CALL",
      "contractName": null,
      "contractAddress": "0x377979cd68e1740ef41905664c5abe93ec0fdb0d",
      "function": "setFees(uint8,uint256,address)",
      "arguments": [
        "2",
        "500",
        "0x9A0A455BAbAC0143e7bF7001e9A22Be0d919B643"
      ],
      "transaction": {
        "from": "0xefbbd14082cf2fbcf5badc7ee619f0f4e36d0a5b",
        "to": "0x377979cd68e1740ef41905664c5abe93ec0fdb0d",
        "gas": "0x12aaf",
        "value": "0x0",
        "input": "0xecf441b7000000000000000000000000000000000000000000000000000000000000000200000000000000000000000000000000000000000000000000000000000001f40000000000000000000000009a0a455babac0143e7bf7001e9a22be0d919b643",
        "nonce": "0x66a",
        "chainId": "0x13882"
      },
      "additionalContracts": [],
      "isFixedGasLimit": false
    },
    {
      "hash": "0xd0984738bf1bfcccf33cad352cb146272ee16ceb0214d09e367c7f1e80e18489",
      "transactionType": "CALL",
      "contractName": null,
      "contractAddress": "0x377979cd68e1740ef41905664c5abe93ec0fdb0d",
      "function": "setFees(uint8,uint256,address)",
      "arguments": [
        "1",
        "100000000000000000000",
        "0x9A0A455BAbAC0143e7bF7001e9A22Be0d919B643"
      ],
      "transaction": {
        "from": "0xefbbd14082cf2fbcf5badc7ee619f0f4e36d0a5b",
        "to": "0x377979cd68e1740ef41905664c5abe93ec0fdb0d",
        "gas": "0x11a4b",
        "value": "0x0",
        "input": "0xecf441b700000000000000000000000000000000000000000000000000000000000000010000000000000000000000000000000000000000000000056bc75e2d631000000000000000000000000000009a0a455babac0143e7bf7001e9a22be0d919b643",
        "nonce": "0x66b",
        "chainId": "0x13882"
      },
      "additionalContracts": [],
      "isFixedGasLimit": false
    }
  ],
  "receipts": [
    {
      "status": "0x1",
      "cumulativeGasUsed": "0x2864b",
      "logs": [
        {
          "address": "0x86ac30d927ee1641ee16d4420b5cbcb5b180b3db",
          "topics": [
            "0xf98448b987f1428e0e230e1f3c6e2ce15b5693eaf31827fbd0b1ec4b424ae7cf",
            "0x0000000000000000000000000000000000000000000000000000000000000001",
            "0x000000000000000000000000efbbd14082cf2fbcf5badc7ee619f0f4e36d0a5b"
          ],
          "data": "0x000000000000000000000000000000000000000000000000000000000000000000000000000000000000000000000000000000000000000000000000673e1ae50000000000000000000000000000000000000000000000000000000000000000",
          "blockHash": "0x8a954b637a0ca5972e26593575e3c1a97c251a7952531ab149e27fa073acb3be",
          "blockNumber": "0xdfc242",
          "transactionHash": "0x272fc16d48dcfd4ed7d348f8261ad1b2ca713c606efeef077d8363a1d7cb3a3f",
          "transactionIndex": "0x1",
          "logIndex": "0x4",
          "removed": false
        },
        {
          "address": "0x0000000000000000000000000000000000001010",
          "topics": [
            "0x4dfe1bbbcf077ddc3e01291eea2d5c70c2b422b415d95645b9adcfd678cb1d63",
            "0x0000000000000000000000000000000000000000000000000000000000001010",
            "0x000000000000000000000000efbbd14082cf2fbcf5badc7ee619f0f4e36d0a5b",
            "0x0000000000000000000000006dc2dd54f24979ec26212794c71afefed722280c"
          ],
          "data": "0x0000000000000000000000000000000000000000000000000005ecbb5f82cb400000000000000000000000000000000000000000000000004eafbc36428ad63b00000000000000000000000000000000000000000000041ba0b41e43560a3cd90000000000000000000000000000000000000000000000004ea9cf7ae3080afb00000000000000000000000000000000000000000000041ba0ba0afeb58d0819",
          "blockHash": "0x8a954b637a0ca5972e26593575e3c1a97c251a7952531ab149e27fa073acb3be",
          "blockNumber": "0xdfc242",
          "transactionHash": "0x272fc16d48dcfd4ed7d348f8261ad1b2ca713c606efeef077d8363a1d7cb3a3f",
          "transactionIndex": "0x1",
          "logIndex": "0x5",
          "removed": false
        }
      ],
      "logsBloom": "0x00000000000000000000000000000000100000000000000000000000000000000000000000000000000000000000000000008000000000000000000000040000008000000000000000000000000000800010000000040000000100080000000000000000000000000000000000000000000000000000000080000000000000020800000000000000000000000040000008000000000000000000000000000000200000000000000000002000000000000000400000000008000000002000004000000000000000000001000000000000000000000000000000100000000040000000000000000000000000000000000000000000000000000000000000100000",
      "type": "0x2",
      "transactionHash": "0x272fc16d48dcfd4ed7d348f8261ad1b2ca713c606efeef077d8363a1d7cb3a3f",
      "transactionIndex": "0x1",
      "blockHash": "0x8a954b637a0ca5972e26593575e3c1a97c251a7952531ab149e27fa073acb3be",
      "blockNumber": "0xdfc242",
      "gasUsed": "0xa2b3",
      "effectiveGasPrice": "0x95282a7cf",
      "from": "0xefbbd14082cf2fbcf5badc7ee619f0f4e36d0a5b",
      "to": "0x86ac30d927ee1641ee16d4420b5cbcb5b180b3db",
      "contractAddress": null
    },
    {
      "status": "0x1",
      "cumulativeGasUsed": "0x31823",
      "logs": [
        {
          "address": "0x86ac30d927ee1641ee16d4420b5cbcb5b180b3db",
          "topics": [
            "0x9ea6790c7dadfd01c9f8b9762b3682607af2c7e79e05a9f9fdf5580dde949151",
            "0x000000000000000000000000377979cd68e1740ef41905664c5abe93ec0fdb0d",
            "0x0000000000000000000000000000000000000000000000000000000000000001"
          ],
          "data": "0xecf441b700000000000000000000000000000000000000000000000000000000",
          "blockHash": "0x8a954b637a0ca5972e26593575e3c1a97c251a7952531ab149e27fa073acb3be",
          "blockNumber": "0xdfc242",
          "transactionHash": "0xc2f1eca96695905d5e45000e21ff61d8cd6313183b9c50f597ab591a13ca0384",
          "transactionIndex": "0x2",
          "logIndex": "0x6",
          "removed": false
        },
        {
          "address": "0x0000000000000000000000000000000000001010",
          "topics": [
            "0x4dfe1bbbcf077ddc3e01291eea2d5c70c2b422b415d95645b9adcfd678cb1d63",
            "0x0000000000000000000000000000000000000000000000000000000000001010",
            "0x000000000000000000000000efbbd14082cf2fbcf5badc7ee619f0f4e36d0a5b",
            "0x0000000000000000000000006dc2dd54f24979ec26212794c71afefed722280c"
          ],
          "data": "0x00000000000000000000000000000000000000000000000000054f999f414a000000000000000000000000000000000000000000000000004ea9cf7ae2fe827e00000000000000000000000000000000000000000000041ba0ba0afeb58d08190000000000000000000000000000000000000000000000004ea47fe143bd387e00000000000000000000000000000000000000000000041ba0bf5a9854ce5219",
          "blockHash": "0x8a954b637a0ca5972e26593575e3c1a97c251a7952531ab149e27fa073acb3be",
          "blockNumber": "0xdfc242",
          "transactionHash": "0xc2f1eca96695905d5e45000e21ff61d8cd6313183b9c50f597ab591a13ca0384",
          "transactionIndex": "0x2",
          "logIndex": "0x7",
          "removed": false
        }
      ],
      "logsBloom": "0x00000004000080000000000000000000100000000000000000000000000000000000000000000000000000000000000000008000000000000000000000040000008000000000000000000000000000800010000000040000000120080000000000000000000000000000000000000000000000000000000080000000000001020800000000000000000000000060000000000000000000000000000000000000200000000000000000000000000000000000400000000000000000002000004000000000000000000001000000200000000000000000000000100000000040000000000000000000000000000000000000000000000000000000000000100000",
      "type": "0x2",
      "transactionHash": "0xc2f1eca96695905d5e45000e21ff61d8cd6313183b9c50f597ab591a13ca0384",
      "transactionIndex": "0x2",
      "blockHash": "0x8a954b637a0ca5972e26593575e3c1a97c251a7952531ab149e27fa073acb3be",
      "blockNumber": "0xdfc242",
      "gasUsed": "0x91d8",
      "effectiveGasPrice": "0x95282a7cf",
      "from": "0xefbbd14082cf2fbcf5badc7ee619f0f4e36d0a5b",
      "to": "0x86ac30d927ee1641ee16d4420b5cbcb5b180b3db",
      "contractAddress": null
    },
    {
      "status": "0x1",
      "cumulativeGasUsed": "0x3a9ef",
      "logs": [
        {
          "address": "0x86ac30d927ee1641ee16d4420b5cbcb5b180b3db",
          "topics": [
            "0x9ea6790c7dadfd01c9f8b9762b3682607af2c7e79e05a9f9fdf5580dde949151",
            "0x0000000000000000000000000108fdc1677f9ccfe88b8500bf2df668455b31bf",
            "0x0000000000000000000000000000000000000000000000000000000000000001"
          ],
          "data": "0x06af20da00000000000000000000000000000000000000000000000000000000",
          "blockHash": "0x8a954b637a0ca5972e26593575e3c1a97c251a7952531ab149e27fa073acb3be",
          "blockNumber": "0xdfc242",
          "transactionHash": "0x020cad100689e6baf50b966f7366295f304b409c599b446be72e5055a8c4ade9",
          "transactionIndex": "0x3",
          "logIndex": "0x8",
          "removed": false
        },
        {
          "address": "0x0000000000000000000000000000000000001010",
          "topics": [
            "0x4dfe1bbbcf077ddc3e01291eea2d5c70c2b422b415d95645b9adcfd678cb1d63",
            "0x0000000000000000000000000000000000000000000000000000000000001010",
            "0x000000000000000000000000efbbd14082cf2fbcf5badc7ee619f0f4e36d0a5b",
            "0x0000000000000000000000006dc2dd54f24979ec26212794c71afefed722280c"
          ],
          "data": "0x00000000000000000000000000000000000000000000000000054f29c1216d000000000000000000000000000000000000000000000000004ea47fe143b4acd600000000000000000000000000000000000000000000041ba0bf5a9854ce52190000000000000000000000000000000000000000000000004e9f30b782933fd600000000000000000000000000000000000000000000041ba0c4a9c215efbf19",
          "blockHash": "0x8a954b637a0ca5972e26593575e3c1a97c251a7952531ab149e27fa073acb3be",
          "blockNumber": "0xdfc242",
          "transactionHash": "0x020cad100689e6baf50b966f7366295f304b409c599b446be72e5055a8c4ade9",
          "transactionIndex": "0x3",
          "logIndex": "0x9",
          "removed": false
        }
      ],
      "logsBloom": "0x00000004000080000000000000000000100000000000000000000000000000000000000000000000000000000000000000008000004000000000000000040000008000000000000000000000000000800010000000040000000100080000000000000000000000000000000000000000000000000000000080000000000000020800000000000000000000000040000000000000020000000000000000000000200000000000000000000000000000000000400000000000000000002000004000000000000000000001000000200000000000000000000000100000000040000000000000000000000000000000000000000000000000000000000000100000",
      "type": "0x2",
      "transactionHash": "0x020cad100689e6baf50b966f7366295f304b409c599b446be72e5055a8c4ade9",
      "transactionIndex": "0x3",
      "blockHash": "0x8a954b637a0ca5972e26593575e3c1a97c251a7952531ab149e27fa073acb3be",
      "blockNumber": "0xdfc242",
      "gasUsed": "0x91cc",
      "effectiveGasPrice": "0x95282a7cf",
      "from": "0xefbbd14082cf2fbcf5badc7ee619f0f4e36d0a5b",
      "to": "0x86ac30d927ee1641ee16d4420b5cbcb5b180b3db",
      "contractAddress": null
    },
    {
      "status": "0x1",
      "cumulativeGasUsed": "0x44cfd",
      "logs": [
        {
          "address": "0x86ac30d927ee1641ee16d4420b5cbcb5b180b3db",
          "topics": [
            "0x9ea6790c7dadfd01c9f8b9762b3682607af2c7e79e05a9f9fdf5580dde949151",
            "0x000000000000000000000000f7cb897153b4b4c5416413ad797a03cba58261b2",
            "0x0000000000000000000000000000000000000000000000000000000000000001"
          ],
          "data": "0xdaea85c500000000000000000000000000000000000000000000000000000000",
          "blockHash": "0x8a954b637a0ca5972e26593575e3c1a97c251a7952531ab149e27fa073acb3be",
          "blockNumber": "0xdfc242",
          "transactionHash": "0xafd1ca64d2ffae40e80093d84d9591fb7066c667ea2c3e58e8b56b3615594db7",
          "transactionIndex": "0x4",
          "logIndex": "0xa",
          "removed": false
        },
        {
          "address": "0x86ac30d927ee1641ee16d4420b5cbcb5b180b3db",
          "topics": [
            "0x9ea6790c7dadfd01c9f8b9762b3682607af2c7e79e05a9f9fdf5580dde949151",
            "0x000000000000000000000000f7cb897153b4b4c5416413ad797a03cba58261b2",
            "0x0000000000000000000000000000000000000000000000000000000000000001"
          ],
          "data": "0xab0da5a900000000000000000000000000000000000000000000000000000000",
          "blockHash": "0x8a954b637a0ca5972e26593575e3c1a97c251a7952531ab149e27fa073acb3be",
          "blockNumber": "0xdfc242",
          "transactionHash": "0xafd1ca64d2ffae40e80093d84d9591fb7066c667ea2c3e58e8b56b3615594db7",
          "transactionIndex": "0x4",
          "logIndex": "0xb",
          "removed": false
        },
        {
          "address": "0x0000000000000000000000000000000000001010",
          "topics": [
            "0x4dfe1bbbcf077ddc3e01291eea2d5c70c2b422b415d95645b9adcfd678cb1d63",
            "0x0000000000000000000000000000000000000000000000000000000000001010",
            "0x000000000000000000000000efbbd14082cf2fbcf5badc7ee619f0f4e36d0a5b",
            "0x0000000000000000000000006dc2dd54f24979ec26212794c71afefed722280c"
          ],
          "data": "0x0000000000000000000000000000000000000000000000000005f00bb3f46c800000000000000000000000000000000000000000000000004e9f30b7828ab4e200000000000000000000000000000000000000000000041ba0c4a9c215efbf190000000000000000000000000000000000000000000000004e9940abce96486200000000000000000000000000000000000000000000041ba0ca99cdc9e42b99",
          "blockHash": "0x8a954b637a0ca5972e26593575e3c1a97c251a7952531ab149e27fa073acb3be",
          "blockNumber": "0xdfc242",
          "transactionHash": "0xafd1ca64d2ffae40e80093d84d9591fb7066c667ea2c3e58e8b56b3615594db7",
          "transactionIndex": "0x4",
          "logIndex": "0xc",
          "removed": false
        }
      ],
      "logsBloom": "0x00000004000080000000000000000000100000000000000000000000000000000000010000000002000000000000000000008000000000000000000000040000008000000000000000000000000000800010000000040000000100080000000000000000000000000000000000000000000000000000000080000000000000020800000000000000000000000040000000000000000000000000000000000000200000000000000000000000000000000000400000000000000000002000004000000000000000000001000000200000000000000000000000100000000040000010000000000000000000000000000000000000000000000000000000100000",
      "type": "0x2",
      "transactionHash": "0xafd1ca64d2ffae40e80093d84d9591fb7066c667ea2c3e58e8b56b3615594db7",
      "transactionIndex": "0x4",
      "blockHash": "0x8a954b637a0ca5972e26593575e3c1a97c251a7952531ab149e27fa073acb3be",
      "blockNumber": "0xdfc242",
      "gasUsed": "0xa30e",
      "effectiveGasPrice": "0x95282a7cf",
      "from": "0xefbbd14082cf2fbcf5badc7ee619f0f4e36d0a5b",
      "to": "0x86ac30d927ee1641ee16d4420b5cbcb5b180b3db",
      "contractAddress": null
    },
    {
      "status": "0x1",
      "cumulativeGasUsed": "0xb444",
      "logs": [
        {
          "address": "0x86ac30d927ee1641ee16d4420b5cbcb5b180b3db",
          "topics": [
            "0x9ea6790c7dadfd01c9f8b9762b3682607af2c7e79e05a9f9fdf5580dde949151",
            "0x000000000000000000000000890ba96ce986cf7720d8626607972198a2dfedf9",
            "0x0000000000000000000000000000000000000000000000000000000000000001"
          ],
          "data": "0x20c5429b00000000000000000000000000000000000000000000000000000000",
          "blockHash": "0xea1909cd946966e4c2219dac28e0d56703367c8bfdde24d83a51259712771389",
          "blockNumber": "0xdfc243",
          "transactionHash": "0xc658f972b0a0486ab8d1bf9e163f2ce9c4ac13d25ebfaebe496540d3f8f3556f",
          "transactionIndex": "0x0",
          "logIndex": "0x0",
          "removed": false
        },
        {
          "address": "0x86ac30d927ee1641ee16d4420b5cbcb5b180b3db",
          "topics": [
            "0x9ea6790c7dadfd01c9f8b9762b3682607af2c7e79e05a9f9fdf5580dde949151",
            "0x000000000000000000000000890ba96ce986cf7720d8626607972198a2dfedf9",
            "0x0000000000000000000000000000000000000000000000000000000000000001"
          ],
          "data": "0xb8adaa1100000000000000000000000000000000000000000000000000000000",
          "blockHash": "0xea1909cd946966e4c2219dac28e0d56703367c8bfdde24d83a51259712771389",
          "blockNumber": "0xdfc243",
          "transactionHash": "0xc658f972b0a0486ab8d1bf9e163f2ce9c4ac13d25ebfaebe496540d3f8f3556f",
          "transactionIndex": "0x0",
          "logIndex": "0x1",
          "removed": false
        },
        {
          "address": "0x86ac30d927ee1641ee16d4420b5cbcb5b180b3db",
          "topics": [
            "0x9ea6790c7dadfd01c9f8b9762b3682607af2c7e79e05a9f9fdf5580dde949151",
            "0x000000000000000000000000890ba96ce986cf7720d8626607972198a2dfedf9",
            "0x0000000000000000000000000000000000000000000000000000000000000001"
          ],
          "data": "0xb759f95400000000000000000000000000000000000000000000000000000000",
          "blockHash": "0xea1909cd946966e4c2219dac28e0d56703367c8bfdde24d83a51259712771389",
          "blockNumber": "0xdfc243",
          "transactionHash": "0xc658f972b0a0486ab8d1bf9e163f2ce9c4ac13d25ebfaebe496540d3f8f3556f",
          "transactionIndex": "0x0",
          "logIndex": "0x2",
          "removed": false
        },
        {
          "address": "0x0000000000000000000000000000000000001010",
          "topics": [
            "0x4dfe1bbbcf077ddc3e01291eea2d5c70c2b422b415d95645b9adcfd678cb1d63",
            "0x0000000000000000000000000000000000000000000000000000000000001010",
            "0x000000000000000000000000efbbd14082cf2fbcf5badc7ee619f0f4e36d0a5b",
            "0x0000000000000000000000006dc2dd54f24979ec26212794c71afefed722280c"
          ],
          "data": "0x0000000000000000000000000000000000000000000000000006907dc8a78f000000000000000000000000000000000000000000000000004e9940abce8cba9000000000000000000000000000000000000000000000041ba0ca99cdc9e42b990000000000000000000000000000000000000000000000004e92b02e05e52b9000000000000000000000000000000000000000000000041ba0d12a4b928bba99",
          "blockHash": "0xea1909cd946966e4c2219dac28e0d56703367c8bfdde24d83a51259712771389",
          "blockNumber": "0xdfc243",
          "transactionHash": "0xc658f972b0a0486ab8d1bf9e163f2ce9c4ac13d25ebfaebe496540d3f8f3556f",
          "transactionIndex": "0x0",
          "logIndex": "0x3",
          "removed": false
        }
      ],
      "logsBloom": "0x00000004000080000000000000000000100000000000000000000000000000000000000000000000000000000000000000008000000000000000000000040000008000000000000000000000000000800010000000040000000100080000000000200000000000000000000000000000000000000000000080000000000000020800000000000000000000000040000000000000000000001000000000000000200000000000000000000000000000000000400000000000000000002000004000000000020000000001000000200000000000000000000000100000000040000000000000000000000000000000000000000000000000000000000000100000",
      "type": "0x2",
      "transactionHash": "0xc658f972b0a0486ab8d1bf9e163f2ce9c4ac13d25ebfaebe496540d3f8f3556f",
      "transactionIndex": "0x0",
      "blockHash": "0xea1909cd946966e4c2219dac28e0d56703367c8bfdde24d83a51259712771389",
      "blockNumber": "0xdfc243",
      "gasUsed": "0xb444",
      "effectiveGasPrice": "0x95282a7cf",
      "from": "0xefbbd14082cf2fbcf5badc7ee619f0f4e36d0a5b",
      "to": "0x86ac30d927ee1641ee16d4420b5cbcb5b180b3db",
      "contractAddress": null
    },
    {
      "status": "0x1",
      "cumulativeGasUsed": "0x16888",
      "logs": [
        {
          "address": "0x86ac30d927ee1641ee16d4420b5cbcb5b180b3db",
          "topics": [
            "0x9ea6790c7dadfd01c9f8b9762b3682607af2c7e79e05a9f9fdf5580dde949151",
            "0x000000000000000000000000108976dc7dc5b52597bdfee15908232a298be74d",
            "0x0000000000000000000000000000000000000000000000000000000000000001"
          ],
          "data": "0xf6eea09800000000000000000000000000000000000000000000000000000000",
          "blockHash": "0xea1909cd946966e4c2219dac28e0d56703367c8bfdde24d83a51259712771389",
          "blockNumber": "0xdfc243",
          "transactionHash": "0x4e998117cc4239b85aad46dc166991b45a14fdfe908155d764b2bb883841b23a",
          "transactionIndex": "0x1",
          "logIndex": "0x4",
          "removed": false
        },
        {
          "address": "0x86ac30d927ee1641ee16d4420b5cbcb5b180b3db",
          "topics": [
            "0x9ea6790c7dadfd01c9f8b9762b3682607af2c7e79e05a9f9fdf5580dde949151",
            "0x000000000000000000000000108976dc7dc5b52597bdfee15908232a298be74d",
            "0x0000000000000000000000000000000000000000000000000000000000000001"
          ],
          "data": "0x74a8f10300000000000000000000000000000000000000000000000000000000",
          "blockHash": "0xea1909cd946966e4c2219dac28e0d56703367c8bfdde24d83a51259712771389",
          "blockNumber": "0xdfc243",
          "transactionHash": "0x4e998117cc4239b85aad46dc166991b45a14fdfe908155d764b2bb883841b23a",
          "transactionIndex": "0x1",
          "logIndex": "0x5",
          "removed": false
        },
        {
          "address": "0x86ac30d927ee1641ee16d4420b5cbcb5b180b3db",
          "topics": [
            "0x9ea6790c7dadfd01c9f8b9762b3682607af2c7e79e05a9f9fdf5580dde949151",
            "0x000000000000000000000000108976dc7dc5b52597bdfee15908232a298be74d",
            "0x0000000000000000000000000000000000000000000000000000000000000001"
          ],
          "data": "0xdaea85c500000000000000000000000000000000000000000000000000000000",
          "blockHash": "0xea1909cd946966e4c2219dac28e0d56703367c8bfdde24d83a51259712771389",
          "blockNumber": "0xdfc243",
          "transactionHash": "0x4e998117cc4239b85aad46dc166991b45a14fdfe908155d764b2bb883841b23a",
          "transactionIndex": "0x1",
          "logIndex": "0x6",
          "removed": false
        },
        {
          "address": "0x0000000000000000000000000000000000001010",
          "topics": [
            "0x4dfe1bbbcf077ddc3e01291eea2d5c70c2b422b415d95645b9adcfd678cb1d63",
            "0x0000000000000000000000000000000000000000000000000000000000001010",
            "0x000000000000000000000000efbbd14082cf2fbcf5badc7ee619f0f4e36d0a5b",
            "0x0000000000000000000000006dc2dd54f24979ec26212794c71afefed722280c"
          ],
          "data": "0x0000000000000000000000000000000000000000000000000006907dc8a78f000000000000000000000000000000000000000000000000004e92b02e05da9b9400000000000000000000000000000000000000000000041ba0d12a4b928bba990000000000000000000000000000000000000000000000004e8c1fb03d330c9400000000000000000000000000000000000000000000041ba0d7bac95b334999",
          "blockHash": "0xea1909cd946966e4c2219dac28e0d56703367c8bfdde24d83a51259712771389",
          "blockNumber": "0xdfc243",
          "transactionHash": "0x4e998117cc4239b85aad46dc166991b45a14fdfe908155d764b2bb883841b23a",
          "transactionIndex": "0x1",
          "logIndex": "0x7",
          "removed": false
        }
      ],
      "logsBloom": "0x00000004000080000000000000000000100000000000000000000000000000000000000000000000000000000000000000008000000000000000000000040000008000000000000000000000000000800010000000040000000100080000000000000000000000000000000000000000000000000000000080000000000000020800000000000000000000000040000000000000000000000000000000400000200000000000000000000000000000000000400000000000000000002000004020000000000000000001000000200000000000000000000000100000000040000000000000000000000000000002000000000000000000000000000000100000",
      "type": "0x2",
      "transactionHash": "0x4e998117cc4239b85aad46dc166991b45a14fdfe908155d764b2bb883841b23a",
      "transactionIndex": "0x1",
      "blockHash": "0xea1909cd946966e4c2219dac28e0d56703367c8bfdde24d83a51259712771389",
      "blockNumber": "0xdfc243",
      "gasUsed": "0xb444",
      "effectiveGasPrice": "0x95282a7cf",
      "from": "0xefbbd14082cf2fbcf5badc7ee619f0f4e36d0a5b",
      "to": "0x86ac30d927ee1641ee16d4420b5cbcb5b180b3db",
      "contractAddress": null
    },
    {
      "status": "0x1",
      "cumulativeGasUsed": "0x234c3",
      "logs": [
        {
          "address": "0x377979cd68e1740ef41905664c5abe93ec0fdb0d",
          "topics": [
            "0xfbbd6e9cc51f124b05f08f20e9aef57fb26fc9a927be06212c59506610581335",
            "0x0000000000000000000000009a0a455babac0143e7bf7001e9a22be0d919b643",
            "0x000000000000000000000000efbbd14082cf2fbcf5badc7ee619f0f4e36d0a5b"
          ],
          "data": "0x00000000000000000000000000000000000000000000000000000000000001f40000000000000000000000000000000000000000000000000000000000000002",
          "blockHash": "0xea1909cd946966e4c2219dac28e0d56703367c8bfdde24d83a51259712771389",
          "blockNumber": "0xdfc243",
          "transactionHash": "0xc6305d6dbebb545257e31bd7b030f044801cfed69cbb8dba94f1ff9bb813937b",
          "transactionIndex": "0x2",
          "logIndex": "0x8",
          "removed": false
        },
        {
          "address": "0x0000000000000000000000000000000000001010",
          "topics": [
            "0x4dfe1bbbcf077ddc3e01291eea2d5c70c2b422b415d95645b9adcfd678cb1d63",
            "0x0000000000000000000000000000000000000000000000000000000000001010",
            "0x000000000000000000000000efbbd14082cf2fbcf5badc7ee619f0f4e36d0a5b",
            "0x0000000000000000000000006dc2dd54f24979ec26212794c71afefed722280c"
          ],
          "data": "0x00000000000000000000000000000000000000000000000000076fe621c9a9400000000000000000000000000000000000000000000000004e8c1fb03d287c9800000000000000000000000000000000000000000000041ba0d7bac95b3349990000000000000000000000000000000000000000000000004e84afca1b5ed35800000000000000000000000000000000000000000000041ba0df2aaf7cfcf2d9",
          "blockHash": "0xea1909cd946966e4c2219dac28e0d56703367c8bfdde24d83a51259712771389",
          "blockNumber": "0xdfc243",
          "transactionHash": "0xc6305d6dbebb545257e31bd7b030f044801cfed69cbb8dba94f1ff9bb813937b",
          "transactionIndex": "0x2",
          "logIndex": "0x9",
          "removed": false
        }
      ],
      "logsBloom": "0x00000000000000000000800000000000000000000000000000000000000000000000000000000000000000000000000000008000000000000000000000000000008000000000000000000000000000c00000000000000000000100080000000000004100000000400000000000000000000000000000000080000000004000020800000000000000000000000040000000000000000000000000000000000000200000000000000000000000000000000000400000000000000000000000004000000000000000000001000000000000000010000000010000100000000000000000000000000000000000000000000000000000000000000008000000100000",
      "type": "0x2",
      "transactionHash": "0xc6305d6dbebb545257e31bd7b030f044801cfed69cbb8dba94f1ff9bb813937b",
      "transactionIndex": "0x2",
      "blockHash": "0xea1909cd946966e4c2219dac28e0d56703367c8bfdde24d83a51259712771389",
      "blockNumber": "0xdfc243",
      "gasUsed": "0xcc3b",
      "effectiveGasPrice": "0x95282a7cf",
      "from": "0xefbbd14082cf2fbcf5badc7ee619f0f4e36d0a5b",
      "to": "0x377979cd68e1740ef41905664c5abe93ec0fdb0d",
      "contractAddress": null
    },
    {
      "status": "0x1",
      "cumulativeGasUsed": "0x30123",
      "logs": [
        {
          "address": "0x377979cd68e1740ef41905664c5abe93ec0fdb0d",
          "topics": [
            "0xfbbd6e9cc51f124b05f08f20e9aef57fb26fc9a927be06212c59506610581335",
            "0x0000000000000000000000009a0a455babac0143e7bf7001e9a22be0d919b643",
            "0x000000000000000000000000efbbd14082cf2fbcf5badc7ee619f0f4e36d0a5b"
          ],
          "data": "0x0000000000000000000000000000000000000000000000056bc75e2d631000000000000000000000000000000000000000000000000000000000000000000001",
          "blockHash": "0xea1909cd946966e4c2219dac28e0d56703367c8bfdde24d83a51259712771389",
          "blockNumber": "0xdfc243",
          "transactionHash": "0xd0984738bf1bfcccf33cad352cb146272ee16ceb0214d09e367c7f1e80e18489",
          "transactionIndex": "0x3",
          "logIndex": "0xa",
          "removed": false
        },
        {
          "address": "0x0000000000000000000000000000000000001010",
          "topics": [
            "0x4dfe1bbbcf077ddc3e01291eea2d5c70c2b422b415d95645b9adcfd678cb1d63",
            "0x0000000000000000000000000000000000000000000000000000000000001010",
            "0x000000000000000000000000efbbd14082cf2fbcf5badc7ee619f0f4e36d0a5b",
            "0x0000000000000000000000006dc2dd54f24979ec26212794c71afefed722280c"
          ],
          "data": "0x0000000000000000000000000000000000000000000000000007713f0eabe8000000000000000000000000000000000000000000000000004e84afca1b52dbe300000000000000000000000000000000000000000000041ba0df2aaf7cfcf2d90000000000000000000000000000000000000000000000004e7d3e8b0ca6f3e300000000000000000000000000000000000000000000041ba0e69bee8ba8dad9",
          "blockHash": "0xea1909cd946966e4c2219dac28e0d56703367c8bfdde24d83a51259712771389",
          "blockNumber": "0xdfc243",
          "transactionHash": "0xd0984738bf1bfcccf33cad352cb146272ee16ceb0214d09e367c7f1e80e18489",
          "transactionIndex": "0x3",
          "logIndex": "0xb",
          "removed": false
        }
      ],
      "logsBloom": "0x00000000000000000000800000000000000000000000000000000000000000000000000000000000000000000000000000008000000000000000000000000000008000000000000000000000000000c00000000000000000000100080000000000004100000000400000000000000000000000000000000080000000004000020800000000000000000000000040000000000000000000000000000000000000200000000000000000000000000000000000400000000000000000000000004000000000000000000001000000000000000010000000010000100000000000000000000000000000000000000000000000000000000000000008000000100000",
      "type": "0x2",
      "transactionHash": "0xd0984738bf1bfcccf33cad352cb146272ee16ceb0214d09e367c7f1e80e18489",
      "transactionIndex": "0x3",
      "blockHash": "0xea1909cd946966e4c2219dac28e0d56703367c8bfdde24d83a51259712771389",
      "blockNumber": "0xdfc243",
      "gasUsed": "0xcc60",
      "effectiveGasPrice": "0x95282a7cf",
      "from": "0xefbbd14082cf2fbcf5badc7ee619f0f4e36d0a5b",
      "to": "0x377979cd68e1740ef41905664c5abe93ec0fdb0d",
      "contractAddress": null
    }
  ],
  "libraries": [],
  "pending": [],
  "returns": {},
  "timestamp": 1732123368,
  "chain": 80002,
  "commit": "acf7e0f"
}