{
  "transactions": [
    {
      "hash": "0xe0c9738bfeccd2bfc70dfeaac522376c7639796435e109a4e7ed18b15ac7ffe6",
      "transactionType": "CALL",
      "contractName": null,
      "contractAddress": "0x8120a8e0688be6b2c0bb469f871e5e7023ca85eb",
      "function": "grantRole(uint64,address,uint32)",
      "arguments": [
        "1",
        "0xEFBBD14082cF2FbCf5Badc7ee619F0f4e36D0A5B",
        "0"
      ],
      "transaction": {
        "from": "0xefbbd14082cf2fbcf5badc7ee619f0f4e36d0a5b",
        "to": "0x8120a8e0688be6b2c0bb469f871e5e7023ca85eb",
        "gas": "0xedf2",
        "value": "0x0",
        "input": "0x25c471a00000000000000000000000000000000000000000000000000000000000000001000000000000000000000000efbbd14082cf2fbcf5badc7ee619f0f4e36d0a5b0000000000000000000000000000000000000000000000000000000000000000",
        "nonce": "0x96f",
        "chainId": "0x13882"
      },
      "additionalContracts": [],
      "isFixedGasLimit": false
    },
    {
      "hash": "0xba2f54f5fb85029b7667492a52cf5f305b2d22108890de2bfa39ed99863ddf95",
      "transactionType": "CALL",
      "contractName": null,
      "contractAddress": "0x8120a8e0688be6b2c0bb469f871e5e7023ca85eb",
      "function": "setTargetFunctionRole(address,bytes4[],uint64)",
      "arguments": [
        "0x4580859e64385e3e82ee64da2Bc06Ef84Bde851a",
        "[0x8cc0de1d]",
        "1"
      ],
      "transaction": {
        "from": "0xefbbd14082cf2fbcf5badc7ee619f0f4e36d0a5b",
        "to": "0x8120a8e0688be6b2c0bb469f871e5e7023ca85eb",
        "gas": "0xc971",
        "value": "0x0",
        "input": "0x08d6122d0000000000000000000000004580859e64385e3e82ee64da2bc06ef84bde851a0000000000000000000000000000000000000000000000000000000000000060000000000000000000000000000000000000000000000000000000000000000100000000000000000000000000000000000000000000000000000000000000018cc0de1d00000000000000000000000000000000000000000000000000000000",
        "nonce": "0x970",
        "chainId": "0x13882"
      },
      "additionalContracts": [],
      "isFixedGasLimit": false
    },
    {
      "hash": "0xdba2591adb63522601c322e22fa2b0c73c585b2f0072fc3c09f2c4072d3d9c50",
      "transactionType": "CALL",
      "contractName": null,
      "contractAddress": "0x8120a8e0688be6b2c0bb469f871e5e7023ca85eb",
      "function": "setTargetFunctionRole(address,bytes4[],uint64)",
      "arguments": [
        "0xD32CA33b1FBD97523536Ed3519A191Df242AFCFd",
        "[0x06af20da]",
        "1"
      ],
      "transaction": {
        "from": "0xefbbd14082cf2fbcf5badc7ee619f0f4e36d0a5b",
        "to": "0x8120a8e0688be6b2c0bb469f871e5e7023ca85eb",
        "gas": "0xc971",
        "value": "0x0",
        "input": "0x08d6122d000000000000000000000000d32ca33b1fbd97523536ed3519a191df242afcfd00000000000000000000000000000000000000000000000000000000000000600000000000000000000000000000000000000000000000000000000000000001000000000000000000000000000000000000000000000000000000000000000106af20da00000000000000000000000000000000000000000000000000000000",
        "nonce": "0x971",
        "chainId": "0x13882"
      },
      "additionalContracts": [],
      "isFixedGasLimit": false
    },
    {
      "hash": "0xc9a7821a2335e0d7ef34de5324f6b48a3c701ccc982b2f88efd9d4acca8c1823",
      "transactionType": "CALL",
      "contractName": null,
      "contractAddress": "0x8120a8e0688be6b2c0bb469f871e5e7023ca85eb",
      "function": "setTargetFunctionRole(address,bytes4[],uint64)",
      "arguments": [
        "0x00ABb22eB950684e4314287e94f024B0A9420d40",
        "[0x20c5429b, 0xb8adaa11, 0xb759f954]",
        "1"
      ],
      "transaction": {
        "from": "0xefbbd14082cf2fbcf5badc7ee619f0f4e36d0a5b",
        "to": "0x8120a8e0688be6b2c0bb469f871e5e7023ca85eb",
        "gas": "0xf8ec",
        "value": "0x0",
        "input": "0x08d6122d00000000000000000000000000abb22eb950684e4314287e94f024b0a9420d4000000000000000000000000000000000000000000000000000000000000000600000000000000000000000000000000000000000000000000000000000000001000000000000000000000000000000000000000000000000000000000000000320c5429b00000000000000000000000000000000000000000000000000000000b8adaa1100000000000000000000000000000000000000000000000000000000b759f95400000000000000000000000000000000000000000000000000000000",
        "nonce": "0x972",
        "chainId": "0x13882"
      },
      "additionalContracts": [],
      "isFixedGasLimit": false
    },
    {
      "hash": "0xe8ef9b4bb11cdd512e3a87c941d1d88455b1586be0ce37e60c27acf7721fe6a0",
      "transactionType": "CALL",
      "contractName": null,
      "contractAddress": "0x8120a8e0688be6b2c0bb469f871e5e7023ca85eb",
      "function": "setTargetFunctionRole(address,bytes4[],uint64)",
      "arguments": [
        "0xA2746F0D272bb0F5273f53B4a0F476afe8873C32",
        "[0xf6eea098, 0x74a8f103, 0xdaea85c5]",
        "1"
      ],
      "transaction": {
        "from": "0xefbbd14082cf2fbcf5badc7ee619f0f4e36d0a5b",
        "to": "0x8120a8e0688be6b2c0bb469f871e5e7023ca85eb",
        "gas": "0xf8fd",
        "value": "0x0",
        "input": "0x08d6122d000000000000000000000000a2746f0d272bb0f5273f53b4a0f476afe8873c32000000000000000000000000000000000000000000000000000000000000006000000000000000000000000000000000000000000000000000000000000000010000000000000000000000000000000000000000000000000000000000000003f6eea0980000000000000000000000000000000000000000000000000000000074a8f10300000000000000000000000000000000000000000000000000000000daea85c500000000000000000000000000000000000000000000000000000000",
        "nonce": "0x973",
        "chainId": "0x13882"
      },
      "additionalContracts": [],
      "isFixedGasLimit": false
    },
    {
      "hash": "0xd59cea73211a227c4bc93d2ffbb9bf8b0600e7be8317a01135c563c36f66c7a2",
      "transactionType": "CALL",
      "contractName": null,
      "contractAddress": "0x8120a8e0688be6b2c0bb469f871e5e7023ca85eb",
      "function": "grantRole(uint64,address,uint32)",
      "arguments": [
        "2",
        "0xEFBBD14082cF2FbCf5Badc7ee619F0f4e36D0A5B",
        "0"
      ],
      "transaction": {
        "from": "0xefbbd14082cf2fbcf5badc7ee619f0f4e36d0a5b",
        "to": "0x8120a8e0688be6b2c0bb469f871e5e7023ca85eb",
        "gas": "0xedf2",
        "value": "0x0",
        "input": "0x25c471a00000000000000000000000000000000000000000000000000000000000000002000000000000000000000000efbbd14082cf2fbcf5badc7ee619f0f4e36d0a5b0000000000000000000000000000000000000000000000000000000000000000",
        "nonce": "0x974",
        "chainId": "0x13882"
      },
      "additionalContracts": [],
      "isFixedGasLimit": false
    },
    {
      "hash": "0xf0e3b97cfc0c9023d16859c27eb571bd01e138a308910dbccb8d4d4aa18f803a",
      "transactionType": "CALL",
      "contractName": null,
      "contractAddress": "0x8120a8e0688be6b2c0bb469f871e5e7023ca85eb",
      "function": "setTargetFunctionRole(address,bytes4[],uint64)",
      "arguments": [
        "0x8dB5ae2ae14e189c7d0e8f9c67643170e5508874",
        "[0xdaea85c5, 0xab0da5a9]",
        "2"
      ],
      "transaction": {
        "from": "0xefbbd14082cf2fbcf5badc7ee619f0f4e36d0a5b",
        "to": "0x8120a8e0688be6b2c0bb469f871e5e7023ca85eb",
        "gas": "0xe137",
        "value": "0x0",
        "input": "0x08d6122d0000000000000000000000008db5ae2ae14e189c7d0e8f9c67643170e5508874000000000000000000000000000000000000000000000000000000000000006000000000000000000000000000000000000000000000000000000000000000020000000000000000000000000000000000000000000000000000000000000002daea85c500000000000000000000000000000000000000000000000000000000ab0da5a900000000000000000000000000000000000000000000000000000000",
        "nonce": "0x975",
        "chainId": "0x13882"
      },
      "additionalContracts": [],
      "isFixedGasLimit": false
    },
    {
      "hash": "0x02a5cc27e1d69c2d5e9b5e151ac460385fbcda16e1fe62bc9a7513c6dd6d6bd1",
      "transactionType": "CALL",
      "contractName": null,
      "contractAddress": "0x8120a8e0688be6b2c0bb469f871e5e7023ca85eb",
      "function": "grantRole(uint64,address,uint32)",
      "arguments": [
        "4",
        "0x5945C1417ad688EF90Cf3e61263b404B96A0C20b",
        "0"
      ],
      "transaction": {
        "from": "0xefbbd14082cf2fbcf5badc7ee619f0f4e36d0a5b",
        "to": "0x8120a8e0688be6b2c0bb469f871e5e7023ca85eb",
        "gas": "0xedf2",
        "value": "0x0",
        "input": "0x25c471a000000000000000000000000000000000000000000000000000000000000000040000000000000000000000005945c1417ad688ef90cf3e61263b404b96a0c20b0000000000000000000000000000000000000000000000000000000000000000",
        "nonce": "0x976",
        "chainId": "0x13882"
      },
      "additionalContracts": [],
      "isFixedGasLimit": false
    },
    {
      "hash": "0x7e96a03727e6dfa06a096ff3f5fb6c721bd99755067376c414055e591b0e5851",
      "transactionType": "CALL",
      "contractName": null,
      "contractAddress": "0x8120a8e0688be6b2c0bb469f871e5e7023ca85eb",
      "function": "grantRole(uint64,address,uint32)",
      "arguments": [
        "4",
        "0x31B351E4C217f838190825586cAA8494Ee1CA635",
        "0"
      ],
      "transaction": {
        "from": "0xefbbd14082cf2fbcf5badc7ee619f0f4e36d0a5b",
        "to": "0x8120a8e0688be6b2c0bb469f871e5e7023ca85eb",
        "gas": "0xedf2",
        "value": "0x0",
        "input": "0x25c471a0000000000000000000000000000000000000000000000000000000000000000400000000000000000000000031b351e4c217f838190825586caa8494ee1ca6350000000000000000000000000000000000000000000000000000000000000000",
        "nonce": "0x977",
        "chainId": "0x13882"
      },
      "additionalContracts": [],
      "isFixedGasLimit": false
    },
    {
      "hash": "0xf8b044532ba65ce4ccc275000ac3ab1aaf0090bd2f6f71ac879ab920d65b2807",
      "transactionType": "CALL",
      "contractName": null,
      "contractAddress": "0x8120a8e0688be6b2c0bb469f871e5e7023ca85eb",
      "function": "grantRole(uint64,address,uint32)",
      "arguments": [
        "4",
        "0xA2746F0D272bb0F5273f53B4a0F476afe8873C32",
        "0"
      ],
      "transaction": {
        "from": "0xefbbd14082cf2fbcf5badc7ee619f0f4e36d0a5b",
        "to": "0x8120a8e0688be6b2c0bb469f871e5e7023ca85eb",
        "gas": "0xedf2",
        "value": "0x0",
        "input": "0x25c471a00000000000000000000000000000000000000000000000000000000000000004000000000000000000000000a2746f0d272bb0f5273f53b4a0f476afe8873c320000000000000000000000000000000000000000000000000000000000000000",
        "nonce": "0x978",
        "chainId": "0x13882"
      },
      "additionalContracts": [],
      "isFixedGasLimit": false
    },
    {
      "hash": "0x8c593a517f6875c609080ac2ac27f774f8fbe0edccc615387e8b07b1d765ae85",
      "transactionType": "CALL",
      "contractName": null,
      "contractAddress": "0x8120a8e0688be6b2c0bb469f871e5e7023ca85eb",
      "function": "setTargetFunctionRole(address,bytes4[],uint64)",
      "arguments": [
        "0x83266Ca8147572839BB23A204db52Bd26a1FCeaa",
        "[0x4bbc170a, 0x15f41501, 0x9e96a260]",
        "4"
      ],
      "transaction": {
        "from": "0xefbbd14082cf2fbcf5badc7ee619f0f4e36d0a5b",
        "to": "0x8120a8e0688be6b2c0bb469f871e5e7023ca85eb",
        "gas": "0xf8fd",
        "value": "0x0",
        "input": "0x08d6122d00000000000000000000000083266ca8147572839bb23a204db52bd26a1fceaa0000000000000000000000000000000000000000000000000000000000000060000000000000000000000000000000000000000000000000000000000000000400000000000000000000000000000000000000000000000000000000000000034bbc170a0000000000000000000000000000000000000000000000000000000015f41501000000000000000000000000000000000000000000000000000000009e96a26000000000000000000000000000000000000000000000000000000000",
        "nonce": "0x979",
        "chainId": "0x13882"
      },
      "additionalContracts": [],
      "isFixedGasLimit": false
    },
    {
      "hash": "0x388b1816cfcf9e3879dd04f594813071a6fac4856fa5c0353197ab9772a3aeff",
      "transactionType": "CALL",
      "contractName": null,
      "contractAddress": "0x4580859e64385e3e82ee64da2bc06ef84bde851a",
      "function": "setFees(uint8,address,uint256,address)",
      "arguments": [
        "3",
        "0xf06E1998119CAEdf8E084194AA5FEa89eA9389C3",
        "500",
        "0x3c7DeB6FeAEb7a82BDe580Fb73d8d69c401b219e"
      ],
      "transaction": {
        "from": "0xefbbd14082cf2fbcf5badc7ee619f0f4e36d0a5b",
        "to": "0x4580859e64385e3e82ee64da2bc06ef84bde851a",
        "gas": "0x13ae7",
        "value": "0x0",
        "input": "0x8cc0de1d0000000000000000000000000000000000000000000000000000000000000003000000000000000000000000f06e1998119caedf8e084194aa5fea89ea9389c300000000000000000000000000000000000000000000000000000000000001f40000000000000000000000003c7deb6feaeb7a82bde580fb73d8d69c401b219e",
        "nonce": "0x97a",
        "chainId": "0x13882"
      },
      "additionalContracts": [],
      "isFixedGasLimit": false
    },
    {
      "hash": "0x541f5a68caf759d8860e027fdd7c6d5adda4f4f10da632d114eb37519c332fbc",
      "transactionType": "CALL",
      "contractName": null,
      "contractAddress": "0x4580859e64385e3e82ee64da2bc06ef84bde851a",
      "function": "setFees(uint8,address,uint256,address)",
      "arguments": [
        "1",
        "0xA2746F0D272bb0F5273f53B4a0F476afe8873C32",
        "100000000000000000000",
        "0x3c7DeB6FeAEb7a82BDe580Fb73d8d69c401b219e"
      ],
      "transaction": {
        "from": "0xefbbd14082cf2fbcf5badc7ee619f0f4e36d0a5b",
        "to": "0x4580859e64385e3e82ee64da2bc06ef84bde851a",
        "gas": "0x1299b",
        "value": "0x0",
        "input": "0x8cc0de1d0000000000000000000000000000000000000000000000000000000000000001000000000000000000000000a2746f0d272bb0f5273f53b4a0f476afe8873c320000000000000000000000000000000000000000000000056bc75e2d631000000000000000000000000000003c7deb6feaeb7a82bde580fb73d8d69c401b219e",
        "nonce": "0x97b",
        "chainId": "0x13882"
      },
      "additionalContracts": [],
      "isFixedGasLimit": false
    }
  ],
  "receipts": [
    {
      "status": "0x1",
      "cumulativeGasUsed": "0xa2b3",
      "logs": [
        {
          "address": "0x8120a8e0688be6b2c0bb469f871e5e7023ca85eb",
          "topics": [
            "0xf98448b987f1428e0e230e1f3c6e2ce15b5693eaf31827fbd0b1ec4b424ae7cf",
            "0x0000000000000000000000000000000000000000000000000000000000000001",
            "0x000000000000000000000000efbbd14082cf2fbcf5badc7ee619f0f4e36d0a5b"
          ],
          "data": "0x000000000000000000000000000000000000000000000000000000000000000000000000000000000000000000000000000000000000000000000000677ca8910000000000000000000000000000000000000000000000000000000000000000",
          "blockHash": "0xb37ed455d70eb773042052f15004996b93bd5172888d7534091337872c2e604d",
          "blockNumber": "0xfc9649",
          "transactionHash": "0xe0c9738bfeccd2bfc70dfeaac522376c7639796435e109a4e7ed18b15ac7ffe6",
          "transactionIndex": "0x0",
          "logIndex": "0x0",
          "removed": false
        },
        {
          "address": "0x0000000000000000000000000000000000001010",
          "topics": [
            "0x4dfe1bbbcf077ddc3e01291eea2d5c70c2b422b415d95645b9adcfd678cb1d63",
            "0x0000000000000000000000000000000000000000000000000000000000001010",
            "0x000000000000000000000000efbbd14082cf2fbcf5badc7ee619f0f4e36d0a5b",
            "0x0000000000000000000000004631753190f2f5a15a7ba172bbac102b7d95fa22"
          ],
          "data": "0x0000000000000000000000000000000000000000000000000004cf24f26a49680000000000000000000000000000000000000000000000014244dae984ad629b0000000000000000000000000000000000000000000003f5e39994028c04d8cf00000000000000000000000000000000000000000000000142400bc4924319330000000000000000000000000000000000000000000003f5e39e63277e6f2237",
          "blockHash": "0xb37ed455d70eb773042052f15004996b93bd5172888d7534091337872c2e604d",
          "blockNumber": "0xfc9649",
          "transactionHash": "0xe0c9738bfeccd2bfc70dfeaac522376c7639796435e109a4e7ed18b15ac7ffe6",
          "transactionIndex": "0x0",
          "logIndex": "0x1",
          "removed": false
        }
      ],
      "logsBloom": "0x00000000000000000000000000000000000000002000000000000000000000000000000000000000000000000000000000008000000000000000000040040000008000000000000000000000000000800000000000040100000100000000000000000000000000100000000000000000000000000000000080000000000000000800000000000000000000000800000008000000000000000000000000000000200000000000000000002000000000000000400000000008008000000000004000000000000000000001000000000000000000000000000000100000000040000000000000000000000000000000000000000000000000000000000000100000",
      "type": "0x2",
      "transactionHash": "0xe0c9738bfeccd2bfc70dfeaac522376c7639796435e109a4e7ed18b15ac7ffe6",
      "transactionIndex": "0x0",
      "blockHash": "0xb37ed455d70eb773042052f15004996b93bd5172888d7534091337872c2e604d",
      "blockNumber": "0xfc9649",
      "gasUsed": "0xa2b3",
      "effectiveGasPrice": "0x79126a507",
      "from": "0xefbbd14082cf2fbcf5badc7ee619f0f4e36d0a5b",
      "to": "0x8120a8e0688be6b2c0bb469f871e5e7023ca85eb",
      "contractAddress": null
    },
    {
      "status": "0x1",
      "cumulativeGasUsed": "0x91d8",
      "logs": [
        {
          "address": "0x8120a8e0688be6b2c0bb469f871e5e7023ca85eb",
          "topics": [
            "0x9ea6790c7dadfd01c9f8b9762b3682607af2c7e79e05a9f9fdf5580dde949151",
            "0x0000000000000000000000004580859e64385e3e82ee64da2bc06ef84bde851a",
            "0x0000000000000000000000000000000000000000000000000000000000000001"
          ],
          "data": "0x8cc0de1d00000000000000000000000000000000000000000000000000000000",
          "blockHash": "0x986819a9896edc8f481fb2ab4705edb1c84029c1fa6d02f7c94d311e899d6bd1",
          "blockNumber": "0xfc964a",
          "transactionHash": "0xba2f54f5fb85029b7667492a52cf5f305b2d22108890de2bfa39ed99863ddf95",
          "transactionIndex": "0x0",
          "logIndex": "0x0",
          "removed": false
        },
        {
          "address": "0x0000000000000000000000000000000000001010",
          "topics": [
            "0x4dfe1bbbcf077ddc3e01291eea2d5c70c2b422b415d95645b9adcfd678cb1d63",
            "0x0000000000000000000000000000000000000000000000000000000000001010",
            "0x000000000000000000000000efbbd14082cf2fbcf5badc7ee619f0f4e36d0a5b",
            "0x0000000000000000000000004631753190f2f5a15a7ba172bbac102b7d95fa22"
          ],
          "data": "0x00000000000000000000000000000000000000000000000000044f995c0ba94000000000000000000000000000000000000000000000000142400bc4923990b60000000000000000000000000000000000000000000003f5e3b0f2c138c8d237000000000000000000000000000000000000000000000001423bbc2b362de7760000000000000000000000000000000000000000000003f5e3b5425a94d47b77",
          "blockHash": "0x986819a9896edc8f481fb2ab4705edb1c84029c1fa6d02f7c94d311e899d6bd1",
          "blockNumber": "0xfc964a",
          "transactionHash": "0xba2f54f5fb85029b7667492a52cf5f305b2d22108890de2bfa39ed99863ddf95",
          "transactionIndex": "0x0",
          "logIndex": "0x1",
          "removed": false
        }
      ],
      "logsBloom": "0x00000004000080000000000000000000000000002000000000000000000000000000000000000000000000000000000000008000000000000000000040040000008000000000000000000000000000800000000000040100000100000000000000000000000000100000040000000000000000000000000080000000000000000800000000000000000000000800000000000000000000000000000000000000200000000000000000000000000000000000400000000000008000000000004000000000000002000001000000200000000000000000000000100000000040000100000000000000000000000000000000000000000000000000000000100000",
      "type": "0x2",
      "transactionHash": "0xba2f54f5fb85029b7667492a52cf5f305b2d22108890de2bfa39ed99863ddf95",
      "transactionIndex": "0x0",
      "blockHash": "0x986819a9896edc8f481fb2ab4705edb1c84029c1fa6d02f7c94d311e899d6bd1",
      "blockNumber": "0xfc964a",
      "gasUsed": "0x91d8",
      "effectiveGasPrice": "0x79126a507",
      "from": "0xefbbd14082cf2fbcf5badc7ee619f0f4e36d0a5b",
      "to": "0x8120a8e0688be6b2c0bb469f871e5e7023ca85eb",
      "contractAddress": null
    },
    {
      "status": "0x1",
      "cumulativeGasUsed": "0x123b0",
      "logs": [
        {
          "address": "0x8120a8e0688be6b2c0bb469f871e5e7023ca85eb",
          "topics": [
            "0x9ea6790c7dadfd01c9f8b9762b3682607af2c7e79e05a9f9fdf5580dde949151",
            "0x000000000000000000000000d32ca33b1fbd97523536ed3519a191df242afcfd",
            "0x0000000000000000000000000000000000000000000000000000000000000001"
          ],
          "data": "0x06af20da00000000000000000000000000000000000000000000000000000000",
          "blockHash": "0x986819a9896edc8f481fb2ab4705edb1c84029c1fa6d02f7c94d311e899d6bd1",
          "blockNumber": "0xfc964a",
          "transactionHash": "0xdba2591adb63522601c322e22fa2b0c73c585b2f0072fc3c09f2c4072d3d9c50",
          "transactionIndex": "0x1",
          "logIndex": "0x2",
          "removed": false
        },
        {
          "address": "0x0000000000000000000000000000000000001010",
          "topics": [
            "0x4dfe1bbbcf077ddc3e01291eea2d5c70c2b422b415d95645b9adcfd678cb1d63",
            "0x0000000000000000000000000000000000000000000000000000000000001010",
            "0x000000000000000000000000efbbd14082cf2fbcf5badc7ee619f0f4e36d0a5b",
            "0x0000000000000000000000004631753190f2f5a15a7ba172bbac102b7d95fa22"
          ],
          "data": "0x00000000000000000000000000000000000000000000000000044f995c0ba940000000000000000000000000000000000000000000000001423bbc2b36255bce0000000000000000000000000000000000000000000003f5e3b5425a94d47b7700000000000000000000000000000000000000000000000142376c91da19b28e0000000000000000000000000000000000000000000003f5e3b991f3f0e024b7",
          "blockHash": "0x986819a9896edc8f481fb2ab4705edb1c84029c1fa6d02f7c94d311e899d6bd1",
          "blockNumber": "0xfc964a",
          "transactionHash": "0xdba2591adb63522601c322e22fa2b0c73c585b2f0072fc3c09f2c4072d3d9c50",
          "transactionIndex": "0x1",
          "logIndex": "0x3",
          "removed": false
        }
      ],
      "logsBloom": "0x00000004000080000000000000000000000000002000000000000000000000000000000000000000000000000000000000008000000000000000000040040000008000000000000000800000000000800000000000040100100100000000000000000000000000100000000000000000000000000000000080000000000000000800000000000000000000000800000000000000000000000000000000000000200000000000000000000000000000000000400000000000008000000000004000000000000000000001000000200000000400000000000000100000000040000000000000000000000000000000000000000000000000000000000000100000",
      "type": "0x2",
      "transactionHash": "0xdba2591adb63522601c322e22fa2b0c73c585b2f0072fc3c09f2c4072d3d9c50",
      "transactionIndex": "0x1",
      "blockHash": "0x986819a9896edc8f481fb2ab4705edb1c84029c1fa6d02f7c94d311e899d6bd1",
      "blockNumber": "0xfc964a",
      "gasUsed": "0x91d8",
      "effectiveGasPrice": "0x79126a507",
      "from": "0xefbbd14082cf2fbcf5badc7ee619f0f4e36d0a5b",
      "to": "0x8120a8e0688be6b2c0bb469f871e5e7023ca85eb",
      "contractAddress": null
    },
    {
      "status": "0x1",
      "cumulativeGasUsed": "0x1d7e8",
      "logs": [
        {
          "address": "0x8120a8e0688be6b2c0bb469f871e5e7023ca85eb",
          "topics": [
            "0x9ea6790c7dadfd01c9f8b9762b3682607af2c7e79e05a9f9fdf5580dde949151",
            "0x00000000000000000000000000abb22eb950684e4314287e94f024b0a9420d40",
            "0x0000000000000000000000000000000000000000000000000000000000000001"
          ],
          "data": "0x20c5429b00000000000000000000000000000000000000000000000000000000",
          "blockHash": "0x986819a9896edc8f481fb2ab4705edb1c84029c1fa6d02f7c94d311e899d6bd1",
          "blockNumber": "0xfc964a",
          "transactionHash": "0xc9a7821a2335e0d7ef34de5324f6b48a3c701ccc982b2f88efd9d4acca8c1823",
          "transactionIndex": "0x2",
          "logIndex": "0x4",
          "removed": false
        },
        {
          "address": "0x8120a8e0688be6b2c0bb469f871e5e7023ca85eb",
          "topics": [
            "0x9ea6790c7dadfd01c9f8b9762b3682607af2c7e79e05a9f9fdf5580dde949151",
            "0x00000000000000000000000000abb22eb950684e4314287e94f024b0a9420d40",
            "0x0000000000000000000000000000000000000000000000000000000000000001"
          ],
          "data": "0xb8adaa1100000000000000000000000000000000000000000000000000000000",
          "blockHash": "0x986819a9896edc8f481fb2ab4705edb1c84029c1fa6d02f7c94d311e899d6bd1",
          "blockNumber": "0xfc964a",
          "transactionHash": "0xc9a7821a2335e0d7ef34de5324f6b48a3c701ccc982b2f88efd9d4acca8c1823",
          "transactionIndex": "0x2",
          "logIndex": "0x5",
          "removed": false
        },
        {
          "address": "0x8120a8e0688be6b2c0bb469f871e5e7023ca85eb",
          "topics": [
            "0x9ea6790c7dadfd01c9f8b9762b3682607af2c7e79e05a9f9fdf5580dde949151",
            "0x00000000000000000000000000abb22eb950684e4314287e94f024b0a9420d40",
            "0x0000000000000000000000000000000000000000000000000000000000000001"
          ],
          "data": "0xb759f95400000000000000000000000000000000000000000000000000000000",
          "blockHash": "0x986819a9896edc8f481fb2ab4705edb1c84029c1fa6d02f7c94d311e899d6bd1",
          "blockNumber": "0xfc964a",
          "transactionHash": "0xc9a7821a2335e0d7ef34de5324f6b48a3c701ccc982b2f88efd9d4acca8c1823",
          "transactionIndex": "0x2",
          "logIndex": "0x6",
          "removed": false
        },
        {
          "address": "0x0000000000000000000000000000000000001010",
          "topics": [
            "0x4dfe1bbbcf077ddc3e01291eea2d5c70c2b422b415d95645b9adcfd678cb1d63",
            "0x0000000000000000000000000000000000000000000000000000000000001010",
            "0x000000000000000000000000efbbd14082cf2fbcf5badc7ee619f0f4e36d0a5b",
            "0x0000000000000000000000004631753190f2f5a15a7ba172bbac102b7d95fa22"
          ],
          "data": "0x000000000000000000000000000000000000000000000000000553b6ec72764000000000000000000000000000000000000000000000000142376c91da1126e60000000000000000000000000000000000000000000003f5e3b991f3f0e024b7000000000000000000000000000000000000000000000001423218daed9eb0a60000000000000000000000000000000000000000000003f5e3bee5aadd529af7",
          "blockHash": "0x986819a9896edc8f481fb2ab4705edb1c84029c1fa6d02f7c94d311e899d6bd1",
          "blockNumber": "0xfc964a",
          "transactionHash": "0xc9a7821a2335e0d7ef34de5324f6b48a3c701ccc982b2f88efd9d4acca8c1823",
          "transactionIndex": "0x2",
          "logIndex": "0x7",
          "removed": false
        }
      ],
      "logsBloom": "0x00000004000080000000000000000000000000002000000000000000000000000000000000000000000000000000000000008000000000000000000040040000008000000000000000000000000000800000000000040100000100000000000000000000000000100000000000000000000000000000000080000000000000000800000000000000000000000800000000000000000000000000000000000000200000000000000004000000000000000000400000000000008000000000004000000000000000000001000000200000000000000000000000100000000040000000000000000000000000000000000100000000000000400000000000100000",
      "type": "0x2",
      "transactionHash": "0xc9a7821a2335e0d7ef34de5324f6b48a3c701ccc982b2f88efd9d4acca8c1823",
      "transactionIndex": "0x2",
      "blockHash": "0x986819a9896edc8f481fb2ab4705edb1c84029c1fa6d02f7c94d311e899d6bd1",
      "blockNumber": "0xfc964a",
      "gasUsed": "0xb438",
      "effectiveGasPrice": "0x79126a507",
      "from": "0xefbbd14082cf2fbcf5badc7ee619f0f4e36d0a5b",
      "to": "0x8120a8e0688be6b2c0bb469f871e5e7023ca85eb",
      "contractAddress": null
    },
    {
      "status": "0x1",
      "cumulativeGasUsed": "0x28c2c",
      "logs": [
        {
          "address": "0x8120a8e0688be6b2c0bb469f871e5e7023ca85eb",
          "topics": [
            "0x9ea6790c7dadfd01c9f8b9762b3682607af2c7e79e05a9f9fdf5580dde949151",
            "0x000000000000000000000000a2746f0d272bb0f5273f53b4a0f476afe8873c32",
            "0x0000000000000000000000000000000000000000000000000000000000000001"
          ],
          "data": "0xf6eea09800000000000000000000000000000000000000000000000000000000",
          "blockHash": "0x986819a9896edc8f481fb2ab4705edb1c84029c1fa6d02f7c94d311e899d6bd1",
          "blockNumber": "0xfc964a",
          "transactionHash": "0xe8ef9b4bb11cdd512e3a87c941d1d88455b1586be0ce37e60c27acf7721fe6a0",
          "transactionIndex": "0x3",
          "logIndex": "0x8",
          "removed": false
        },
        {
          "address": "0x8120a8e0688be6b2c0bb469f871e5e7023ca85eb",
          "topics": [
            "0x9ea6790c7dadfd01c9f8b9762b3682607af2c7e79e05a9f9fdf5580dde949151",
            "0x000000000000000000000000a2746f0d272bb0f5273f53b4a0f476afe8873c32",
            "0x0000000000000000000000000000000000000000000000000000000000000001"
          ],
          "data": "0x74a8f10300000000000000000000000000000000000000000000000000000000",
          "blockHash": "0x986819a9896edc8f481fb2ab4705edb1c84029c1fa6d02f7c94d311e899d6bd1",
          "blockNumber": "0xfc964a",
          "transactionHash": "0xe8ef9b4bb11cdd512e3a87c941d1d88455b1586be0ce37e60c27acf7721fe6a0",
          "transactionIndex": "0x3",
          "logIndex": "0x9",
          "removed": false
        },
        {
          "address": "0x8120a8e0688be6b2c0bb469f871e5e7023ca85eb",
          "topics": [
            "0x9ea6790c7dadfd01c9f8b9762b3682607af2c7e79e05a9f9fdf5580dde949151",
            "0x000000000000000000000000a2746f0d272bb0f5273f53b4a0f476afe8873c32",
            "0x0000000000000000000000000000000000000000000000000000000000000001"
          ],
          "data": "0xdaea85c500000000000000000000000000000000000000000000000000000000",
          "blockHash": "0x986819a9896edc8f481fb2ab4705edb1c84029c1fa6d02f7c94d311e899d6bd1",
          "blockNumber": "0xfc964a",
          "transactionHash": "0xe8ef9b4bb11cdd512e3a87c941d1d88455b1586be0ce37e60c27acf7721fe6a0",
          "transactionIndex": "0x3",
          "logIndex": "0xa",
          "removed": false
        },
        {
          "address": "0x0000000000000000000000000000000000001010",
          "topics": [
            "0x4dfe1bbbcf077ddc3e01291eea2d5c70c2b422b415d95645b9adcfd678cb1d63",
            "0x0000000000000000000000000000000000000000000000000000000000001010",
            "0x000000000000000000000000efbbd14082cf2fbcf5badc7ee619f0f4e36d0a5b",
            "0x0000000000000000000000004631753190f2f5a15a7ba172bbac102b7d95fa22"
          ],
          "data": "0x00000000000000000000000000000000000000000000000000055411ba4231e0000000000000000000000000000000000000000000000001423218daed94215e0000000000000000000000000000000000000000000003f5e3bee5aadd529af7000000000000000000000000000000000000000000000001422cc4c93351ef7e0000000000000000000000000000000000000000000003f5e3c439bc9794ccd7",
          "blockHash": "0x986819a9896edc8f481fb2ab4705edb1c84029c1fa6d02f7c94d311e899d6bd1",
          "blockNumber": "0xfc964a",
          "transactionHash": "0xe8ef9b4bb11cdd512e3a87c941d1d88455b1586be0ce37e60c27acf7721fe6a0",
          "transactionIndex": "0x3",
          "logIndex": "0xb",
          "removed": false
        }
      ],
      "logsBloom": "0x00000004000080000000000000000000000000002000000000000000000000000000000000000000000000000001000000008000000000000000000040040000008000000000000000000000000000800000000000040100000100000000000000000000000000100000000000000000000000000000000080000000000000000800000000000000000000000800000000000000000000000000000000000000200000000000000000000000000000000000400000000000008000000000004000000000000000000001000400200000000000000000000000100000000040000000000000000000000040000000000000000000000000000000000000100000",
      "type": "0x2",
      "transactionHash": "0xe8ef9b4bb11cdd512e3a87c941d1d88455b1586be0ce37e60c27acf7721fe6a0",
      "transactionIndex": "0x3",
      "blockHash": "0x986819a9896edc8f481fb2ab4705edb1c84029c1fa6d02f7c94d311e899d6bd1",
      "blockNumber": "0xfc964a",
      "gasUsed": "0xb444",
      "effectiveGasPrice": "0x79126a507",
      "from": "0xefbbd14082cf2fbcf5badc7ee619f0f4e36d0a5b",
      "to": "0x8120a8e0688be6b2c0bb469f871e5e7023ca85eb",
      "contractAddress": null
    },
    {
      "status": "0x1",
      "cumulativeGasUsed": "0x32edf",
      "logs": [
        {
          "address": "0x8120a8e0688be6b2c0bb469f871e5e7023ca85eb",
          "topics": [
            "0xf98448b987f1428e0e230e1f3c6e2ce15b5693eaf31827fbd0b1ec4b424ae7cf",
            "0x0000000000000000000000000000000000000000000000000000000000000002",
            "0x000000000000000000000000efbbd14082cf2fbcf5badc7ee619f0f4e36d0a5b"
          ],
          "data": "0x000000000000000000000000000000000000000000000000000000000000000000000000000000000000000000000000000000000000000000000000677ca8930000000000000000000000000000000000000000000000000000000000000000",
          "blockHash": "0x986819a9896edc8f481fb2ab4705edb1c84029c1fa6d02f7c94d311e899d6bd1",
          "blockNumber": "0xfc964a",
          "transactionHash": "0xd59cea73211a227c4bc93d2ffbb9bf8b0600e7be8317a01135c563c36f66c7a2",
          "transactionIndex": "0x4",
          "logIndex": "0xc",
          "removed": false
        },
        {
          "address": "0x0000000000000000000000000000000000001010",
          "topics": [
            "0x4dfe1bbbcf077ddc3e01291eea2d5c70c2b422b415d95645b9adcfd678cb1d63",
            "0x0000000000000000000000000000000000000000000000000000000000001010",
            "0x000000000000000000000000efbbd14082cf2fbcf5badc7ee619f0f4e36d0a5b",
            "0x0000000000000000000000004631753190f2f5a15a7ba172bbac102b7d95fa22"
          ],
          "data": "0x0000000000000000000000000000000000000000000000000004cf24f26a4968000000000000000000000000000000000000000000000001422cc4c933475f820000000000000000000000000000000000000000000003f5e3c439bc9794ccd70000000000000000000000000000000000000000000000014227f5a440dd161a0000000000000000000000000000000000000000000003f5e3c908e189ff163f",
          "blockHash": "0x986819a9896edc8f481fb2ab4705edb1c84029c1fa6d02f7c94d311e899d6bd1",
          "blockNumber": "0xfc964a",
          "transactionHash": "0xd59cea73211a227c4bc93d2ffbb9bf8b0600e7be8317a01135c563c36f66c7a2",
          "transactionIndex": "0x4",
          "logIndex": "0xd",
          "removed": false
        }
      ],
      "logsBloom": "0x04000000000000000000000000000000000000002000000000000000000000000000000000000000000000000000000000008000000000000000000040000000008000000000000000000000000000800000000000000100000100000000000000000000000000100000000000000000000000000000000080000000000000000800000000000000000000000800000008000000000000000000000000000000200000000000000000002100000000000000400000000008008000000000004000000000000000000001000000000000000000000000000000100000000000000000000000000000000000000000000000000000008000000000000000100000",
      "type": "0x2",
      "transactionHash": "0xd59cea73211a227c4bc93d2ffbb9bf8b0600e7be8317a01135c563c36f66c7a2",
      "transactionIndex": "0x4",
      "blockHash": "0x986819a9896edc8f481fb2ab4705edb1c84029c1fa6d02f7c94d311e899d6bd1",
      "blockNumber": "0xfc964a",
      "gasUsed": "0xa2b3",
      "effectiveGasPrice": "0x79126a507",
      "from": "0xefbbd14082cf2fbcf5badc7ee619f0f4e36d0a5b",
      "to": "0x8120a8e0688be6b2c0bb469f871e5e7023ca85eb",
      "contractAddress": null
    },
    {
      "status": "0x1",
      "cumulativeGasUsed": "0x3d1ed",
      "logs": [
        {
          "address": "0x8120a8e0688be6b2c0bb469f871e5e7023ca85eb",
          "topics": [
            "0x9ea6790c7dadfd01c9f8b9762b3682607af2c7e79e05a9f9fdf5580dde949151",
            "0x0000000000000000000000008db5ae2ae14e189c7d0e8f9c67643170e5508874",
            "0x0000000000000000000000000000000000000000000000000000000000000002"
          ],
          "data": "0xdaea85c500000000000000000000000000000000000000000000000000000000",
          "blockHash": "0x986819a9896edc8f481fb2ab4705edb1c84029c1fa6d02f7c94d311e899d6bd1",
          "blockNumber": "0xfc964a",
          "transactionHash": "0xf0e3b97cfc0c9023d16859c27eb571bd01e138a308910dbccb8d4d4aa18f803a",
          "transactionIndex": "0x5",
          "logIndex": "0xe",
          "removed": false
        },
        {
          "address": "0x8120a8e0688be6b2c0bb469f871e5e7023ca85eb",
          "topics": [
            "0x9ea6790c7dadfd01c9f8b9762b3682607af2c7e79e05a9f9fdf5580dde949151",
            "0x0000000000000000000000008db5ae2ae14e189c7d0e8f9c67643170e5508874",
            "0x0000000000000000000000000000000000000000000000000000000000000002"
          ],
          "data": "0xab0da5a900000000000000000000000000000000000000000000000000000000",
          "blockHash": "0x986819a9896edc8f481fb2ab4705edb1c84029c1fa6d02f7c94d311e899d6bd1",
          "blockNumber": "0xfc964a",
          "transactionHash": "0xf0e3b97cfc0c9023d16859c27eb571bd01e138a308910dbccb8d4d4aa18f803a",
          "transactionIndex": "0x5",
          "logIndex": "0xf",
          "removed": false
        },
        {
          "address": "0x0000000000000000000000000000000000001010",
          "topics": [
            "0x4dfe1bbbcf077ddc3e01291eea2d5c70c2b422b415d95645b9adcfd678cb1d63",
            "0x0000000000000000000000000000000000000000000000000000000000001010",
            "0x000000000000000000000000efbbd14082cf2fbcf5badc7ee619f0f4e36d0a5b",
            "0x0000000000000000000000004631753190f2f5a15a7ba172bbac102b7d95fa22"
          ],
          "data": "0x0000000000000000000000000000000000000000000000000004d1d58b26ed900000000000000000000000000000000000000000000000014227f5a440d38d9d0000000000000000000000000000000000000000000003f5e3c908e189ff163f000000000000000000000000000000000000000000000001422323ceb5aca00d0000000000000000000000000000000000000000000003f5e3cddab7152603cf",
          "blockHash": "0x986819a9896edc8f481fb2ab4705edb1c84029c1fa6d02f7c94d311e899d6bd1",
          "blockNumber": "0xfc964a",
          "transactionHash": "0xf0e3b97cfc0c9023d16859c27eb571bd01e138a308910dbccb8d4d4aa18f803a",
          "transactionIndex": "0x5",
          "logIndex": "0x10",
          "removed": false
        }
      ],
      "logsBloom": "0x04000004000080000000000000000000000000002000000000000000000000002000000000000000000000000000000000008000000000000000000040000000008000000000000000000000000000800000000000004100000100000000000000000000000000100000000000000000000000000000000080000000000000000800000000000000000000000800000000000000000000000000000000020000200000000000000000000100000000000000400000000000008000000000004000000000000000000001000000200000000000000000000000100000000000000000000000000000000000000000000000000000008000000000000000100000",
      "type": "0x2",
      "transactionHash": "0xf0e3b97cfc0c9023d16859c27eb571bd01e138a308910dbccb8d4d4aa18f803a",
      "transactionIndex": "0x5",
      "blockHash": "0x986819a9896edc8f481fb2ab4705edb1c84029c1fa6d02f7c94d311e899d6bd1",
      "blockNumber": "0xfc964a",
      "gasUsed": "0xa30e",
      "effectiveGasPrice": "0x79126a507",
      "from": "0xefbbd14082cf2fbcf5badc7ee619f0f4e36d0a5b",
      "to": "0x8120a8e0688be6b2c0bb469f871e5e7023ca85eb",
      "contractAddress": null
    },
    {
      "status": "0x1",
      "cumulativeGasUsed": "0x474a0",
      "logs": [
        {
          "address": "0x8120a8e0688be6b2c0bb469f871e5e7023ca85eb",
          "topics": [
            "0xf98448b987f1428e0e230e1f3c6e2ce15b5693eaf31827fbd0b1ec4b424ae7cf",
            "0x0000000000000000000000000000000000000000000000000000000000000004",
            "0x0000000000000000000000005945c1417ad688ef90cf3e61263b404b96a0c20b"
          ],
          "data": "0x000000000000000000000000000000000000000000000000000000000000000000000000000000000000000000000000000000000000000000000000677ca8930000000000000000000000000000000000000000000000000000000000000000",
          "blockHash": "0x986819a9896edc8f481fb2ab4705edb1c84029c1fa6d02f7c94d311e899d6bd1",
          "blockNumber": "0xfc964a",
          "transactionHash": "0x02a5cc27e1d69c2d5e9b5e151ac460385fbcda16e1fe62bc9a7513c6dd6d6bd1",
          "transactionIndex": "0x6",
          "logIndex": "0x11",
          "removed": false
        },
        {
          "address": "0x0000000000000000000000000000000000001010",
          "topics": [
            "0x4dfe1bbbcf077ddc3e01291eea2d5c70c2b422b415d95645b9adcfd678cb1d63",
            "0x0000000000000000000000000000000000000000000000000000000000001010",
            "0x000000000000000000000000efbbd14082cf2fbcf5badc7ee619f0f4e36d0a5b",
            "0x0000000000000000000000004631753190f2f5a15a7ba172bbac102b7d95fa22"
          ],
          "data": "0x0000000000000000000000000000000000000000000000000004cf24f26a4968000000000000000000000000000000000000000000000001422323ceb5a3123b0000000000000000000000000000000000000000000003f5e3cddab7152603cf000000000000000000000000000000000000000000000001421e54a9c338c8d30000000000000000000000000000000000000000000003f5e3d2a9dc07904d37",
          "blockHash": "0x986819a9896edc8f481fb2ab4705edb1c84029c1fa6d02f7c94d311e899d6bd1",
          "blockNumber": "0xfc964a",
          "transactionHash": "0x02a5cc27e1d69c2d5e9b5e151ac460385fbcda16e1fe62bc9a7513c6dd6d6bd1",
          "transactionIndex": "0x6",
          "logIndex": "0x12",
          "removed": false
        }
      ],
      "logsBloom": "0x0000000000000000000000000000000000000000200000000000000000000000000000000000000000000000000000000000800000000000000000004000000000800200000000000000000000000080000000000000010000010000000000000800000000000010000000000000000000000000000000008000000000000000080000000000000000000000084000000800000000000000000000000000000020000000000000000000200000000000000040000000000840a000000000004000000000000000000001000000000000000000008000000000100000000000000000000000000000000000000000000000000000000000000000000000100000",
      "type": "0x2",
      "transactionHash": "0x02a5cc27e1d69c2d5e9b5e151ac460385fbcda16e1fe62bc9a7513c6dd6d6bd1",
      "transactionIndex": "0x6",
      "blockHash": "0x986819a9896edc8f481fb2ab4705edb1c84029c1fa6d02f7c94d311e899d6bd1",
      "blockNumber": "0xfc964a",
      "gasUsed": "0xa2b3",
      "effectiveGasPrice": "0x79126a507",
      "from": "0xefbbd14082cf2fbcf5badc7ee619f0f4e36d0a5b",
      "to": "0x8120a8e0688be6b2c0bb469f871e5e7023ca85eb",
      "contractAddress": null
    },
    {
      "status": "0x1",
      "cumulativeGasUsed": "0x51753",
      "logs": [
        {
          "address": "0x8120a8e0688be6b2c0bb469f871e5e7023ca85eb",
          "topics": [
            "0xf98448b987f1428e0e230e1f3c6e2ce15b5693eaf31827fbd0b1ec4b424ae7cf",
            "0x0000000000000000000000000000000000000000000000000000000000000004",
            "0x00000000000000000000000031b351e4c217f838190825586caa8494ee1ca635"
          ],
          "data": "0x000000000000000000000000000000000000000000000000000000000000000000000000000000000000000000000000000000000000000000000000677ca8930000000000000000000000000000000000000000000000000000000000000000",
          "blockHash": "0x986819a9896edc8f481fb2ab4705edb1c84029c1fa6d02f7c94d311e899d6bd1",
          "blockNumber": "0xfc964a",
          "transactionHash": "0x7e96a03727e6dfa06a096ff3f5fb6c721bd99755067376c414055e591b0e5851",
          "transactionIndex": "0x7",
          "logIndex": "0x13",
          "removed": false
        },
        {
          "address": "0x0000000000000000000000000000000000001010",
          "topics": [
            "0x4dfe1bbbcf077ddc3e01291eea2d5c70c2b422b415d95645b9adcfd678cb1d63",
            "0x0000000000000000000000000000000000000000000000000000000000001010",
            "0x000000000000000000000000efbbd14082cf2fbcf5badc7ee619f0f4e36d0a5b",
            "0x0000000000000000000000004631753190f2f5a15a7ba172bbac102b7d95fa22"
          ],
          "data": "0x0000000000000000000000000000000000000000000000000004cf24f26a4968000000000000000000000000000000000000000000000001421e54a9c32f40560000000000000000000000000000000000000000000003f5e3d2a9dc07904d3700000000000000000000000000000000000000000000000142198584d0c4f6ee0000000000000000000000000000000000000000000003f5e3d77900f9fa969f",
          "blockHash": "0x986819a9896edc8f481fb2ab4705edb1c84029c1fa6d02f7c94d311e899d6bd1",
          "blockNumber": "0xfc964a",
          "transactionHash": "0x7e96a03727e6dfa06a096ff3f5fb6c721bd99755067376c414055e591b0e5851",
          "transactionIndex": "0x7",
          "logIndex": "0x14",
          "removed": false
        }
      ],
      "logsBloom": "0x0000000000000000000000000000000000000000200000000000000000000000000000000000000000000000000000000000800000000000000000004000000000800000000000000000000000000080000000000000010000010000000000000800000000000010000000000000000000000000000000008000000000800000080000000000000000000000080000000800000000000000000000000000000020000000000000000000200000000000000040000000000800a000000000004002000000000000000001000000000000000000008000000000100010000000000000000000000000000000000000000000000000000000000000000000100000",
      "type": "0x2",
      "transactionHash": "0x7e96a03727e6dfa06a096ff3f5fb6c721bd99755067376c414055e591b0e5851",
      "transactionIndex": "0x7",
      "blockHash": "0x986819a9896edc8f481fb2ab4705edb1c84029c1fa6d02f7c94d311e899d6bd1",
      "blockNumber": "0xfc964a",
      "gasUsed": "0xa2b3",
      "effectiveGasPrice": "0x79126a507",
      "from": "0xefbbd14082cf2fbcf5badc7ee619f0f4e36d0a5b",
      "to": "0x8120a8e0688be6b2c0bb469f871e5e7023ca85eb",
      "contractAddress": null
    },
    {
      "status": "0x1",
      "cumulativeGasUsed": "0x5ba06",
      "logs": [
        {
          "address": "0x8120a8e0688be6b2c0bb469f871e5e7023ca85eb",
          "topics": [
            "0xf98448b987f1428e0e230e1f3c6e2ce15b5693eaf31827fbd0b1ec4b424ae7cf",
            "0x0000000000000000000000000000000000000000000000000000000000000004",
            "0x000000000000000000000000a2746f0d272bb0f5273f53b4a0f476afe8873c32"
          ],
          "data": "0x000000000000000000000000000000000000000000000000000000000000000000000000000000000000000000000000000000000000000000000000677ca8930000000000000000000000000000000000000000000000000000000000000000",
          "blockHash": "0x986819a9896edc8f481fb2ab4705edb1c84029c1fa6d02f7c94d311e899d6bd1",
          "blockNumber": "0xfc964a",
          "transactionHash": "0xf8b044532ba65ce4ccc275000ac3ab1aaf0090bd2f6f71ac879ab920d65b2807",
          "transactionIndex": "0x8",
          "logIndex": "0x15",
          "removed": false
        },
        {
          "address": "0x0000000000000000000000000000000000001010",
          "topics": [
            "0x4dfe1bbbcf077ddc3e01291eea2d5c70c2b422b415d95645b9adcfd678cb1d63",
            "0x0000000000000000000000000000000000000000000000000000000000001010",
            "0x000000000000000000000000efbbd14082cf2fbcf5badc7ee619f0f4e36d0a5b",
            "0x0000000000000000000000004631753190f2f5a15a7ba172bbac102b7d95fa22"
          ],
          "data": "0x0000000000000000000000000000000000000000000000000004cf24f26a496800000000000000000000000000000000000000000000000142198584d0bb6e710000000000000000000000000000000000000000000003f5e3d77900f9fa969f0000000000000000000000000000000000000000000000014214b65fde5125090000000000000000000000000000000000000000000003f5e3dc4825ec64e007",
          "blockHash": "0x986819a9896edc8f481fb2ab4705edb1c84029c1fa6d02f7c94d311e899d6bd1",
          "blockNumber": "0xfc964a",
          "transactionHash": "0xf8b044532ba65ce4ccc275000ac3ab1aaf0090bd2f6f71ac879ab920d65b2807",
          "transactionIndex": "0x8",
          "logIndex": "0x16",
          "removed": false
        }
      ],
      "logsBloom": "0x0000000000000000000000000000000000000000200000000000000000000000000000000000000000000000000100000000800000000000000000004000000000800000000000000000000000000080000000000000010000010000000000000800000000000010000000000000000000000000000000008000000000000000080000000000000000000000080000000800000000000000000000000000000020000000000000000000200000000000000040000000000800a000000000004000000000000000000001000400000000000000008000000000100000000000000000000000000000000040000000000000000000000000000000000000100000",
      "type": "0x2",
      "transactionHash": "0xf8b044532ba65ce4ccc275000ac3ab1aaf0090bd2f6f71ac879ab920d65b2807",
      "transactionIndex": "0x8",
      "blockHash": "0x986819a9896edc8f481fb2ab4705edb1c84029c1fa6d02f7c94d311e899d6bd1",
      "blockNumber": "0xfc964a",
      "gasUsed": "0xa2b3",
      "effectiveGasPrice": "0x79126a507",
      "from": "0xefbbd14082cf2fbcf5badc7ee619f0f4e36d0a5b",
      "to": "0x8120a8e0688be6b2c0bb469f871e5e7023ca85eb",
      "contractAddress": null
    },
    {
      "status": "0x1",
      "cumulativeGasUsed": "0x66e4a",
      "logs": [
        {
          "address": "0x8120a8e0688be6b2c0bb469f871e5e7023ca85eb",
          "topics": [
            "0x9ea6790c7dadfd01c9f8b9762b3682607af2c7e79e05a9f9fdf5580dde949151",
            "0x00000000000000000000000083266ca8147572839bb23a204db52bd26a1fceaa",
            "0x0000000000000000000000000000000000000000000000000000000000000004"
          ],
          "data": "0x4bbc170a00000000000000000000000000000000000000000000000000000000",
          "blockHash": "0x986819a9896edc8f481fb2ab4705edb1c84029c1fa6d02f7c94d311e899d6bd1",
          "blockNumber": "0xfc964a",
          "transactionHash": "0x8c593a517f6875c609080ac2ac27f774f8fbe0edccc615387e8b07b1d765ae85",
          "transactionIndex": "0x9",
          "logIndex": "0x17",
          "removed": false
        },
        {
          "address": "0x8120a8e0688be6b2c0bb469f871e5e7023ca85eb",
          "topics": [
            "0x9ea6790c7dadfd01c9f8b9762b3682607af2c7e79e05a9f9fdf5580dde949151",
            "0x00000000000000000000000083266ca8147572839bb23a204db52bd26a1fceaa",
            "0x0000000000000000000000000000000000000000000000000000000000000004"
          ],
          "data": "0x15f4150100000000000000000000000000000000000000000000000000000000",
          "blockHash": "0x986819a9896edc8f481fb2ab4705edb1c84029c1fa6d02f7c94d311e899d6bd1",
          "blockNumber": "0xfc964a",
          "transactionHash": "0x8c593a517f6875c609080ac2ac27f774f8fbe0edccc615387e8b07b1d765ae85",
          "transactionIndex": "0x9",
          "logIndex": "0x18",
          "removed": false
        },
        {
          "address": "0x8120a8e0688be6b2c0bb469f871e5e7023ca85eb",
          "topics": [
            "0x9ea6790c7dadfd01c9f8b9762b3682607af2c7e79e05a9f9fdf5580dde949151",
            "0x00000000000000000000000083266ca8147572839bb23a204db52bd26a1fceaa",
            "0x0000000000000000000000000000000000000000000000000000000000000004"
          ],
          "data": "0x9e96a26000000000000000000000000000000000000000000000000000000000",
          "blockHash": "0x986819a9896edc8f481fb2ab4705edb1c84029c1fa6d02f7c94d311e899d6bd1",
          "blockNumber": "0xfc964a",
          "transactionHash": "0x8c593a517f6875c609080ac2ac27f774f8fbe0edccc615387e8b07b1d765ae85",
          "transactionIndex": "0x9",
          "logIndex": "0x19",
          "removed": false
        },
        {
          "address": "0x0000000000000000000000000000000000001010",
          "topics": [
            "0x4dfe1bbbcf077ddc3e01291eea2d5c70c2b422b415d95645b9adcfd678cb1d63",
            "0x0000000000000000000000000000000000000000000000000000000000001010",
            "0x000000000000000000000000efbbd14082cf2fbcf5badc7ee619f0f4e36d0a5b",
            "0x0000000000000000000000004631753190f2f5a15a7ba172bbac102b7d95fa22"
          ],
          "data": "0x00000000000000000000000000000000000000000000000000055411ba4231e00000000000000000000000000000000000000000000000014214b65fde479c8c0000000000000000000000000000000000000000000003f5e3dc4825ec64e007000000000000000000000000000000000000000000000001420f624e24056aac0000000000000000000000000000000000000000000003f5e3e19c37a6a711e7",
          "blockHash": "0x986819a9896edc8f481fb2ab4705edb1c84029c1fa6d02f7c94d311e899d6bd1",
          "blockNumber": "0xfc964a",
          "transactionHash": "0x8c593a517f6875c609080ac2ac27f774f8fbe0edccc615387e8b07b1d765ae85",
          "transactionIndex": "0x9",
          "logIndex": "0x1a",
          "removed": false
        }
      ],
      "logsBloom": "0x0000000400008000000000000000000000000000200000000000000000000000000000000000000000000000000000000000800000000000000000004000000000800000000000000000000000000080000000000000010000010000000000000800000000000010000000000000000000000000000000008000000000000000080000000000000000000000080000000000000000000040000000000000000020000000000000000000000000000000000040000000000000a000000000004000000000000000000001000000200001000000008000000000100000000000000000008000000000000000000000000000000000000000000000000000100000",
      "type": "0x2",
      "transactionHash": "0x8c593a517f6875c609080ac2ac27f774f8fbe0edccc615387e8b07b1d765ae85",
      "transactionIndex": "0x9",
      "blockHash": "0x986819a9896edc8f481fb2ab4705edb1c84029c1fa6d02f7c94d311e899d6bd1",
      "blockNumber": "0xfc964a",
      "gasUsed": "0xb444",
      "effectiveGasPrice": "0x79126a507",
      "from": "0xefbbd14082cf2fbcf5badc7ee619f0f4e36d0a5b",
      "to": "0x8120a8e0688be6b2c0bb469f871e5e7023ca85eb",
      "contractAddress": null
    },
    {
      "status": "0x1",
      "cumulativeGasUsed": "0x7459c",
      "logs": [
        {
          "address": "0x4580859e64385e3e82ee64da2bc06ef84bde851a",
          "topics": [
            "0x9621c1829ce5206009d367ce68b7c4fe6b4bbd70dbe22c21e5bd2a51a716c51c",
            "0x000000000000000000000000f06e1998119caedf8e084194aa5fea89ea9389c3",
            "0x0000000000000000000000003c7deb6feaeb7a82bde580fb73d8d69c401b219e"
          ],
          "data": "0x000000000000000000000000000000000000000000000000000000000000000300000000000000000000000000000000000000000000000000000000000001f4",
          "blockHash": "0x986819a9896edc8f481fb2ab4705edb1c84029c1fa6d02f7c94d311e899d6bd1",
          "blockNumber": "0xfc964a",
          "transactionHash": "0x388b1816cfcf9e3879dd04f594813071a6fac4856fa5c0353197ab9772a3aeff",
          "transactionIndex": "0xa",
          "logIndex": "0x1b",
          "removed": false
        },
        {
          "address": "0x0000000000000000000000000000000000001010",
          "topics": [
            "0x4dfe1bbbcf077ddc3e01291eea2d5c70c2b422b415d95645b9adcfd678cb1d63",
            "0x0000000000000000000000000000000000000000000000000000000000001010",
            "0x000000000000000000000000efbbd14082cf2fbcf5badc7ee619f0f4e36d0a5b",
            "0x0000000000000000000000004631753190f2f5a15a7ba172bbac102b7d95fa22"
          ],
          "data": "0x00000000000000000000000000000000000000000000000000065d53f2ed1f70000000000000000000000000000000000000000000000001420f624e23fadab00000000000000000000000000000000000000000000003f5e3e19c37a6a711e7000000000000000000000000000000000000000000000001420904fa310dbb400000000000000000000000000000000000000000000003f5e3e7f98b99943157",
          "blockHash": "0x986819a9896edc8f481fb2ab4705edb1c84029c1fa6d02f7c94d311e899d6bd1",
          "blockNumber": "0xfc964a",
          "transactionHash": "0x388b1816cfcf9e3879dd04f594813071a6fac4856fa5c0353197ab9772a3aeff",
          "transactionIndex": "0xa",
          "logIndex": "0x1c",
          "removed": false
        }
      ],
      "logsBloom": "0x0000004000000000000000000000000000000000200180000080000000000000000000000000000000000000000200000000800000000000080000044000000000800000000000000000000000000080000000000000002000010000000000000000100000000010000000000000000000000000000000008000000000000000080000000000000000000000000000000000000000000000000000000000000020000000000000000000000000000000000040000000000000000000000000400000000000a000000001080000000000000000000000000000100000000000000000000000000000000000000000000000000000000000000000000000100000",
      "type": "0x2",
      "transactionHash": "0x388b1816cfcf9e3879dd04f594813071a6fac4856fa5c0353197ab9772a3aeff",
      "transactionIndex": "0xa",
      "blockHash": "0x986819a9896edc8f481fb2ab4705edb1c84029c1fa6d02f7c94d311e899d6bd1",
      "blockNumber": "0xfc964a",
      "gasUsed": "0xd752",
      "effectiveGasPrice": "0x79126a507",
      "from": "0xefbbd14082cf2fbcf5badc7ee619f0f4e36d0a5b",
      "to": "0x4580859e64385e3e82ee64da2bc06ef84bde851a",
      "contractAddress": null
    },
    {
      "status": "0x1",
      "cumulativeGasUsed": "0x81d13",
      "logs": [
        {
          "address": "0x4580859e64385e3e82ee64da2bc06ef84bde851a",
          "topics": [
            "0x9621c1829ce5206009d367ce68b7c4fe6b4bbd70dbe22c21e5bd2a51a716c51c",
            "0x000000000000000000000000a2746f0d272bb0f5273f53b4a0f476afe8873c32",
            "0x0000000000000000000000003c7deb6feaeb7a82bde580fb73d8d69c401b219e"
          ],
          "data": "0x00000000000000000000000000000000000000000000000000000000000000010000000000000000000000000000000000000000000000056bc75e2d63100000",
          "blockHash": "0x986819a9896edc8f481fb2ab4705edb1c84029c1fa6d02f7c94d311e899d6bd1",
          "blockNumber": "0xfc964a",
          "transactionHash": "0x541f5a68caf759d8860e027fdd7c6d5adda4f4f10da632d114eb37519c332fbc",
          "transactionIndex": "0xb",
          "logIndex": "0x1d",
          "removed": false
        },
        {
          "address": "0x0000000000000000000000000000000000001010",
          "topics": [
            "0x4dfe1bbbcf077ddc3e01291eea2d5c70c2b422b415d95645b9adcfd678cb1d63",
            "0x0000000000000000000000000000000000000000000000000000000000001010",
            "0x000000000000000000000000efbbd14082cf2fbcf5badc7ee619f0f4e36d0a5b",
            "0x0000000000000000000000004631753190f2f5a15a7ba172bbac102b7d95fa22"
          ],
          "data": "0x00000000000000000000000000000000000000000000000000065e6bed82f748000000000000000000000000000000000000000000000001420904fa31011d720000000000000000000000000000000000000000000003f5e3e7f98b999431570000000000000000000000000000000000000000000000014202a68e437e262a0000000000000000000000000000000000000000000003f5e3ee57f78717289f",
          "blockHash": "0x986819a9896edc8f481fb2ab4705edb1c84029c1fa6d02f7c94d311e899d6bd1",
          "blockNumber": "0xfc964a",
          "transactionHash": "0x541f5a68caf759d8860e027fdd7c6d5adda4f4f10da632d114eb37519c332fbc",
          "transactionIndex": "0xb",
          "logIndex": "0x1e",
          "removed": false
        }
      ],
      "logsBloom": "0x0000000000000000000000000000000000000000200080000080000000000000000000000000000000000000000300000000800000000000080000044000000000800000000000000000000000000080000000000000002000010000000000000000100000000010000000000000000000000000000000008000000000000000080000000000000000000000000000000000000000000000000000000000000020000000000000000000000000000000000040000000000000000000000000400000000000a000000001000400000000000000000000000000100000000000000000000000000000000040000000000000000000000000000000000000100000",
      "type": "0x2",
      "transactionHash": "0x541f5a68caf759d8860e027fdd7c6d5adda4f4f10da632d114eb37519c332fbc",
      "transactionIndex": "0xb",
      "blockHash": "0x986819a9896edc8f481fb2ab4705edb1c84029c1fa6d02f7c94d311e899d6bd1",
      "blockNumber": "0xfc964a",
      "gasUsed": "0xd777",
      "effectiveGasPrice": "0x79126a507",
      "from": "0xefbbd14082cf2fbcf5badc7ee619f0f4e36d0a5b",
      "to": "0x4580859e64385e3e82ee64da2bc06ef84bde851a",
      "contractAddress": null
    }
  ],
  "libraries": [],
  "pending": [],
  "returns": {},
  "timestamp": 1736222868,
  "chain": 80002,
  "commit": "0798d1a"
}