{
  "transactions": [
    {
      "hash": "0x45429dfc93967e0cfb961f720c86414a32cc20745c94474f3295836cd644866a",
      "transactionType": "CALL",
      "contractName": null,
      "contractAddress": "0x0ea49df2376393719f67e039923ef75e1767e9ee",
      "function": "grantRole(uint64,address,uint32)",
      "arguments": [
        "1",
        "0xEFBBD14082cF2FbCf5Badc7ee619F0f4e36D0A5B",
        "0"
      ],
      "transaction": {
        "from": "0xefbbd14082cf2fbcf5badc7ee619f0f4e36d0a5b",
        "to": "0x0ea49df2376393719f67e039923ef75e1767e9ee",
        "gas": "0x13bcf",
        "value": "0x0",
        "input": "0x25c471a00000000000000000000000000000000000000000000000000000000000000001000000000000000000000000efbbd14082cf2fbcf5badc7ee619f0f4e36d0a5b0000000000000000000000000000000000000000000000000000000000000000",
        "nonce": "0x296",
        "chainId": "0x13882"
      },
      "additionalContracts": [],
      "isFixedGasLimit": false
    },
    {
      "hash": "0x283589af1ba1c8e73ecce7b7d707420980de1a7c68b437384c18b06af28c7384",
      "transactionType": "CALL",
      "contractName": null,
      "contractAddress": "0xc29a74692c9b2e60fa088164d5f3ee933c3b2236",
      "function": "setFees(uint8,uint256,address)",
      "arguments": [
        "2",
        "500",
        "0xdC2E7C4444730980CEB8982CfC8A1c4902fa36bE"
      ],
      "transaction": {
        "from": "0xefbbd14082cf2fbcf5badc7ee619f0f4e36d0a5b",
        "to": "0xc29a74692c9b2e60fa088164d5f3ee933c3b2236",
        "gas": "0x30cce",
        "value": "0x0",
        "input": "0xecf441b7000000000000000000000000000000000000000000000000000000000000000200000000000000000000000000000000000000000000000000000000000001f4000000000000000000000000dc2e7c4444730980ceb8982cfc8a1c4902fa36be",
        "nonce": "0x297",
        "chainId": "0x13882"
      },
      "additionalContracts": [],
      "isFixedGasLimit": false
    },
    {
      "hash": "0xe6d90b183ae0be57fcb0bae5539104717fdd465de54dc9df4719c01f379c0589",
      "transactionType": "CALL",
      "contractName": null,
      "contractAddress": "0xc29a74692c9b2e60fa088164d5f3ee933c3b2236",
      "function": "setFees(uint8,uint256,address)",
      "arguments": [
        "1",
        "100000000000000000000",
        "0xdC2E7C4444730980CEB8982CfC8A1c4902fa36bE"
      ],
      "transaction": {
        "from": "0xefbbd14082cf2fbcf5badc7ee619f0f4e36d0a5b",
        "to": "0xc29a74692c9b2e60fa088164d5f3ee933c3b2236",
        "gas": "0x2e1a0",
        "value": "0x0",
        "input": "0xecf441b700000000000000000000000000000000000000000000000000000000000000010000000000000000000000000000000000000000000000056bc75e2d63100000000000000000000000000000dc2e7c4444730980ceb8982cfc8a1c4902fa36be",
        "nonce": "0x298",
        "chainId": "0x13882"
      },
      "additionalContracts": [],
      "isFixedGasLimit": false
    }
  ],
  "receipts": [
    {
      "status": "0x1",
      "cumulativeGasUsed": "0x136ac",
      "logs": [
        {
          "address": "0x0ea49df2376393719f67e039923ef75e1767e9ee",
          "topics": [
            "0xf98448b987f1428e0e230e1f3c6e2ce15b5693eaf31827fbd0b1ec4b424ae7cf",
            "0x0000000000000000000000000000000000000000000000000000000000000001",
            "0x000000000000000000000000efbbd14082cf2fbcf5badc7ee619f0f4e36d0a5b"
          ],
          "data": "0x0000000000000000000000000000000000000000000000000000000000000000000000000000000000000000000000000000000000000000000000006733811c0000000000000000000000000000000000000000000000000000000000000001",
          "blockHash": "0x30e81c5f403fd73c5ae5d59a6115bcfc3346a9b19be86b9771e4c2aecc132a9c",
          "blockNumber": "0xdad81f",
          "transactionHash": "0x45429dfc93967e0cfb961f720c86414a32cc20745c94474f3295836cd644866a",
          "transactionIndex": "0x1",
          "logIndex": "0x2",
          "removed": false
        },
        {
          "address": "0x0000000000000000000000000000000000001010",
          "topics": [
            "0x4dfe1bbbcf077ddc3e01291eea2d5c70c2b422b415d95645b9adcfd678cb1d63",
            "0x0000000000000000000000000000000000000000000000000000000000001010",
            "0x000000000000000000000000efbbd14082cf2fbcf5badc7ee619f0f4e36d0a5b",
            "0x0000000000000000000000006ab3d36c46ecfb9b9c0bd51cb1c3da5a2c81cea6"
          ],
          "data": "0x0000000000000000000000000000000000000000000000000008cdf359bd24000000000000000000000000000000000000000000000000002f8da1be729c11e10000000000000000000000000000000000000000000003711ce6b6c37911421b0000000000000000000000000000000000000000000000002f84d3cb18deede10000000000000000000000000000000000000000000003711cef84b6d2ce661b",
          "blockHash": "0x30e81c5f403fd73c5ae5d59a6115bcfc3346a9b19be86b9771e4c2aecc132a9c",
          "blockNumber": "0xdad81f",
          "transactionHash": "0x45429dfc93967e0cfb961f720c86414a32cc20745c94474f3295836cd644866a",
          "transactionIndex": "0x1",
          "logIndex": "0x3",
          "removed": false
        }
      ],
      "logsBloom": "0x00000000080000000000000000000000000000000000000000000000000000000000000000100000000000000000000000008000000000000000000000040000008000080000000000000000000000800000000000040000000100000000000000000000000000000000000000000000000000000000000080000000000000000800000000000000000000000000000008000000000000000000000000000000200002000000000000002000000000000000400000000008000000000000004000000000040000000001000000000000000000010000000000100000000040000000000000000000000000000000000000000000000000000000000000100000",
      "type": "0x2",
      "transactionHash": "0x45429dfc93967e0cfb961f720c86414a32cc20745c94474f3295836cd644866a",
      "transactionIndex": "0x1",
      "blockHash": "0x30e81c5f403fd73c5ae5d59a6115bcfc3346a9b19be86b9771e4c2aecc132a9c",
      "blockNumber": "0xdad81f",
      "gasUsed": "0xe4a4",
      "effectiveGasPrice": "0x9dba9210f",
      "from": "0xefbbd14082cf2fbcf5badc7ee619f0f4e36d0a5b",
      "to": "0x0ea49df2376393719f67e039923ef75e1767e9ee",
      "contractAddress": null
    },
    {
      "status": "0x1",
      "cumulativeGasUsed": "0x215e3",
      "logs": [
        {
          "address": "0xc29a74692c9b2e60fa088164d5f3ee933c3b2236",
          "topics": [
            "0xfbbd6e9cc51f124b05f08f20e9aef57fb26fc9a927be06212c59506610581335",
            "0x000000000000000000000000dc2e7c4444730980ceb8982cfc8a1c4902fa36be",
            "0x000000000000000000000000efbbd14082cf2fbcf5badc7ee619f0f4e36d0a5b"
          ],
          "data": "0x00000000000000000000000000000000000000000000000000000000000001f40000000000000000000000000000000000000000000000000000000000000002",
          "blockHash": "0x66365496fbcbccbbfd3bc31fe66a963ce7f523a14d86a05a22bb68bf68511eaa",
          "blockNumber": "0xdad820",
          "transactionHash": "0x283589af1ba1c8e73ecce7b7d707420980de1a7c68b437384c18b06af28c7384",
          "transactionIndex": "0x0",
          "logIndex": "0x0",
          "removed": false
        },
        {
          "address": "0x0000000000000000000000000000000000001010",
          "topics": [
            "0x4dfe1bbbcf077ddc3e01291eea2d5c70c2b422b415d95645b9adcfd678cb1d63",
            "0x0000000000000000000000000000000000000000000000000000000000001010",
            "0x000000000000000000000000efbbd14082cf2fbcf5badc7ee619f0f4e36d0a5b",
            "0x000000000000000000000000915a2284d28bd93de7d6f31173b981204bb666e6"
          ],
          "data": "0x00000000000000000000000000000000000000000000000000148f14e8ad43000000000000000000000000000000000000000000000000002f84d3cb18d188450000000000000000000000000000000000000000000004db993f69b24e0579270000000000000000000000000000000000000000000000002f7044b6302445450000000000000000000000000000000000000000000004db9953f8c736b2bc27",
          "blockHash": "0x66365496fbcbccbbfd3bc31fe66a963ce7f523a14d86a05a22bb68bf68511eaa",
          "blockNumber": "0xdad820",
          "transactionHash": "0x283589af1ba1c8e73ecce7b7d707420980de1a7c68b437384c18b06af28c7384",
          "transactionIndex": "0x0",
          "logIndex": "0x1",
          "removed": false
        }
      ],
      "logsBloom": "0x00000000000000000010800000000000000000000000000000000000000010000000000000000000000000000000000000008000000000000000000200020000008000000000000000000000000000800000000000000000000100000000000000000000000000400000000000000000000000000000000080000000004000000a00000000000000000000000000000000000000100000000000000000000000200000000000000000000000000000000000400000000000000000000000004000000000000000000001000000000000000002000000000000100000000000000000000000008000000000000000000000000000400000000000000000100000",
      "type": "0x2",
      "transactionHash": "0x283589af1ba1c8e73ecce7b7d707420980de1a7c68b437384c18b06af28c7384",
      "transactionIndex": "0x0",
      "blockHash": "0x66365496fbcbccbbfd3bc31fe66a963ce7f523a14d86a05a22bb68bf68511eaa",
      "blockNumber": "0xdad820",
      "gasUsed": "0x215e3",
      "effectiveGasPrice": "0x9dba9210f",
      "from": "0xefbbd14082cf2fbcf5badc7ee619f0f4e36d0a5b",
      "to": "0xc29a74692c9b2e60fa088164d5f3ee933c3b2236",
      "contractAddress": null
    },
    {
      "status": "0x1",
      "cumulativeGasUsed": "0x42beb",
      "logs": [
        {
          "address": "0xc29a74692c9b2e60fa088164d5f3ee933c3b2236",
          "topics": [
            "0xfbbd6e9cc51f124b05f08f20e9aef57fb26fc9a927be06212c59506610581335",
            "0x000000000000000000000000dc2e7c4444730980ceb8982cfc8a1c4902fa36be",
            "0x000000000000000000000000efbbd14082cf2fbcf5badc7ee619f0f4e36d0a5b"
          ],
          "data": "0x0000000000000000000000000000000000000000000000056bc75e2d631000000000000000000000000000000000000000000000000000000000000000000001",
          "blockHash": "0x66365496fbcbccbbfd3bc31fe66a963ce7f523a14d86a05a22bb68bf68511eaa",
          "blockNumber": "0xdad820",
          "transactionHash": "0xe6d90b183ae0be57fcb0bae5539104717fdd465de54dc9df4719c01f379c0589",
          "transactionIndex": "0x1",
          "logIndex": "0x2",
          "removed": false
        },
        {
          "address": "0x0000000000000000000000000000000000001010",
          "topics": [
            "0x4dfe1bbbcf077ddc3e01291eea2d5c70c2b422b415d95645b9adcfd678cb1d63",
            "0x0000000000000000000000000000000000000000000000000000000000001010",
            "0x000000000000000000000000efbbd14082cf2fbcf5badc7ee619f0f4e36d0a5b",
            "0x000000000000000000000000915a2284d28bd93de7d6f31173b981204bb666e6"
          ],
          "data": "0x00000000000000000000000000000000000000000000000000149081a81f08000000000000000000000000000000000000000000000000002f7044b63004fcf80000000000000000000000000000000000000000000004db9953f8c736b2bc270000000000000000000000000000000000000000000000002f5bb43487e5f4f80000000000000000000000000000000000000000000004db99688948ded1c427",
          "blockHash": "0x66365496fbcbccbbfd3bc31fe66a963ce7f523a14d86a05a22bb68bf68511eaa",
          "blockNumber": "0xdad820",
          "transactionHash": "0xe6d90b183ae0be57fcb0bae5539104717fdd465de54dc9df4719c01f379c0589",
          "transactionIndex": "0x1",
          "logIndex": "0x3",
          "removed": false
        }
      ],
      "logsBloom": "0x00000000000000000010800000000000000000000000000000000000000010000000000000000000000000000000000000008000000000000000000200020000008000000000000000000000000000800000000000000000000100000000000000000000000000400000000000000000000000000000000080000000004000000a00000000000000000000000000000000000000100000000000000000000000200000000000000000000000000000000000400000000000000000000000004000000000000000000001000000000000000002000000000000100000000000000000000000008000000000000000000000000000400000000000000000100000",
      "type": "0x2",
      "transactionHash": "0xe6d90b183ae0be57fcb0bae5539104717fdd465de54dc9df4719c01f379c0589",
      "transactionIndex": "0x1",
      "blockHash": "0x66365496fbcbccbbfd3bc31fe66a963ce7f523a14d86a05a22bb68bf68511eaa",
      "blockNumber": "0xdad820",
      "gasUsed": "0x21608",
      "effectiveGasPrice": "0x9dba9210f",
      "from": "0xefbbd14082cf2fbcf5badc7ee619f0f4e36d0a5b",
      "to": "0xc29a74692c9b2e60fa088164d5f3ee933c3b2236",
      "contractAddress": null
    }
  ],
  "libraries": [],
  "pending": [],
  "returns": {},
  "timestamp": 1731428641,
  "chain": 80002,
  "commit": "c77f59e"
}