{
  "transactions": [
    {
      "hash": "0x5309207b69f2c551a4d19cedb6d561a793572fd6de48c7d7e9162b5b770e76cd",
      "transactionType": "CALL",
      "contractName": null,
      "contractAddress": "0xea56e327808caba4a87d407117fa44ded1796bea",
      "function": "grantRole(uint64,address,uint32)",
      "arguments": [
        "1",
        "0xEFBBD14082cF2FbCf5Badc7ee619F0f4e36D0A5B",
        "0"
      ],
      "transaction": {
        "from": "0xefbbd14082cf2fbcf5badc7ee619f0f4e36d0a5b",
        "to": "0xea56e327808caba4a87d407117fa44ded1796bea",
        "gas": "0x13bcf",
        "value": "0x0",
        "input": "0x25c471a00000000000000000000000000000000000000000000000000000000000000001000000000000000000000000efbbd14082cf2fbcf5badc7ee619f0f4e36d0a5b0000000000000000000000000000000000000000000000000000000000000000",
        "nonce": "0x53a",
        "chainId": "0x13882"
      },
      "additionalContracts": [],
      "isFixedGasLimit": false
    },
    {
      "hash": "0x8c0ff3880ec5360934cadd06e60927fc5c127003676c6b0f0d27abbbcbdf5d90",
      "transactionType": "CALL",
      "contractName": null,
      "contractAddress": "0xea56e327808caba4a87d407117fa44ded1796bea",
      "function": "setTargetFunctionRole(address,bytes4[],uint64)",
      "arguments": [
        "0xe760D7E19d952c44A46E92523dCF1B17D84DE198",
        "[0xecf441b7]",
        "1"
      ],
      "transaction": {
        "from": "0xefbbd14082cf2fbcf5badc7ee619f0f4e36d0a5b",
        "to": "0xea56e327808caba4a87d407117fa44ded1796bea",
        "gas": "0x134d0",
        "value": "0x0",
        "input": "0x08d6122d000000000000000000000000e760d7e19d952c44a46e92523dcf1b17d84de198000000000000000000000000000000000000000000000000000000000000006000000000000000000000000000000000000000000000000000000000000000010000000000000000000000000000000000000000000000000000000000000001ecf441b700000000000000000000000000000000000000000000000000000000",
        "nonce": "0x53b",
        "chainId": "0x13882"
      },
      "additionalContracts": [],
      "isFixedGasLimit": false
    },
    {
      "hash": "0x90a3eed0d809b2487437d4dd3590bba716902a82be2f575bc4849f35a524fcc3",
      "transactionType": "CALL",
      "contractName": null,
      "contractAddress": "0xea56e327808caba4a87d407117fa44ded1796bea",
      "function": "setTargetFunctionRole(address,bytes4[],uint64)",
      "arguments": [
        "0x38bb39c84E80B2B4E1920164979b4504391B2dD0",
        "[0x06af20da]",
        "1"
      ],
      "transaction": {
        "from": "0xefbbd14082cf2fbcf5badc7ee619f0f4e36d0a5b",
        "to": "0xea56e327808caba4a87d407117fa44ded1796bea",
        "gas": "0x134d0",
        "value": "0x0",
        "input": "0x08d6122d00000000000000000000000038bb39c84e80b2b4e1920164979b4504391b2dd000000000000000000000000000000000000000000000000000000000000000600000000000000000000000000000000000000000000000000000000000000001000000000000000000000000000000000000000000000000000000000000000106af20da00000000000000000000000000000000000000000000000000000000",
        "nonce": "0x53c",
        "chainId": "0x13882"
      },
      "additionalContracts": [],
      "isFixedGasLimit": false
    },
    {
      "hash": "0x841db1ea101f101b74e9e03d73ef12357dbc35d44f096f14f6bbef4d85bab745",
      "transactionType": "CALL",
      "contractName": null,
      "contractAddress": "0xea56e327808caba4a87d407117fa44ded1796bea",
      "function": "setTargetFunctionRole(address,bytes4[],uint64)",
      "arguments": [
        "0xA67026aB5C15e7B34f186Ce121310A38cBBF601C",
        "[0xdaea85c5, 0xab0da5a9]",
        "1"
      ],
      "transaction": {
        "from": "0xefbbd14082cf2fbcf5badc7ee619f0f4e36d0a5b",
        "to": "0xea56e327808caba4a87d407117fa44ded1796bea",
        "gas": "0x1b7f5",
        "value": "0x0",
        "input": "0x08d6122d000000000000000000000000a67026ab5c15e7b34f186ce121310a38cbbf601c000000000000000000000000000000000000000000000000000000000000006000000000000000000000000000000000000000000000000000000000000000010000000000000000000000000000000000000000000000000000000000000002daea85c500000000000000000000000000000000000000000000000000000000ab0da5a900000000000000000000000000000000000000000000000000000000",
        "nonce": "0x53d",
        "chainId": "0x13882"
      },
      "additionalContracts": [],
      "isFixedGasLimit": false
    },
    {
      "hash": "0x9e2776488368ea8b240484f08329532663318a8a94dab1d830cff2b324347bbb",
      "transactionType": "CALL",
      "contractName": null,
      "contractAddress": "0xea56e327808caba4a87d407117fa44ded1796bea",
      "function": "setTargetFunctionRole(address,bytes4[],uint64)",
      "arguments": [
        "0xdAc72655bA5281115F55f25aa64dc01b375f4dBe",
        "[0x20c5429b, 0xb8adaa11, 0xb759f954]",
        "1"
      ],
      "transaction": {
        "from": "0xefbbd14082cf2fbcf5badc7ee619f0f4e36d0a5b",
        "to": "0xea56e327808caba4a87d407117fa44ded1796bea",
        "gas": "0x23b19",
        "value": "0x0",
        "input": "0x08d6122d000000000000000000000000dac72655ba5281115f55f25aa64dc01b375f4dbe00000000000000000000000000000000000000000000000000000000000000600000000000000000000000000000000000000000000000000000000000000001000000000000000000000000000000000000000000000000000000000000000320c5429b00000000000000000000000000000000000000000000000000000000b8adaa1100000000000000000000000000000000000000000000000000000000b759f95400000000000000000000000000000000000000000000000000000000",
        "nonce": "0x53e",
        "chainId": "0x13882"
      },
      "additionalContracts": [],
      "isFixedGasLimit": false
    },
    {
      "hash": "0xb229f4869a7358560be849e3ace758124b5200bc1bd2e61faf5fa4a6923d7e57",
      "transactionType": "CALL",
      "contractName": null,
      "contractAddress": "0xea56e327808caba4a87d407117fa44ded1796bea",
      "function": "setTargetFunctionRole(address,bytes4[],uint64)",
      "arguments": [
        "0x58Ea7A743Acec6061bF8318922d72003611044EE",
        "[0xf6eea098, 0x74a8f103, 0xdaea85c5]",
        "1"
      ],
      "transaction": {
        "from": "0xefbbd14082cf2fbcf5badc7ee619f0f4e36d0a5b",
        "to": "0xea56e327808caba4a87d407117fa44ded1796bea",
        "gas": "0x23b19",
        "value": "0x0",
        "input": "0x08d6122d00000000000000000000000058ea7a743acec6061bf8318922d72003611044ee000000000000000000000000000000000000000000000000000000000000006000000000000000000000000000000000000000000000000000000000000000010000000000000000000000000000000000000000000000000000000000000003f6eea0980000000000000000000000000000000000000000000000000000000074a8f10300000000000000000000000000000000000000000000000000000000daea85c500000000000000000000000000000000000000000000000000000000",
        "nonce": "0x53f",
        "chainId": "0x13882"
      },
      "additionalContracts": [],
      "isFixedGasLimit": false
    },
    {
      "hash": "0xc3d26a0f3ce65b771a68f542e736f9cdde3f4c52b8fa9eff84c2cf38b9fee543",
      "transactionType": "CALL",
      "contractName": null,
      "contractAddress": "0xe760d7e19d952c44a46e92523dcf1b17d84de198",
      "function": "setFees(uint8,uint256,address)",
      "arguments": [
        "2",
        "500",
        "0x379F6d7fA5480A98bf89f417a6335747E0A51A35"
      ],
      "transaction": {
        "from": "0xefbbd14082cf2fbcf5badc7ee619f0f4e36d0a5b",
        "to": "0xe760d7e19d952c44a46e92523dcf1b17d84de198",
        "gas": "0x30cce",
        "value": "0x0",
        "input": "0xecf441b7000000000000000000000000000000000000000000000000000000000000000200000000000000000000000000000000000000000000000000000000000001f4000000000000000000000000379f6d7fa5480a98bf89f417a6335747e0a51a35",
        "nonce": "0x540",
        "chainId": "0x13882"
      },
      "additionalContracts": [],
      "isFixedGasLimit": false
    },
    {
      "hash": "0x77929e307aef94057c4502c09eaa1327f073f50847c2c8b565737b740b46b0a6",
      "transactionType": "CALL",
      "contractName": null,
      "contractAddress": "0xe760d7e19d952c44a46e92523dcf1b17d84de198",
      "function": "setFees(uint8,uint256,address)",
      "arguments": [
        "1",
        "100000000000000000000",
        "0x379F6d7fA5480A98bf89f417a6335747E0A51A35"
      ],
      "transaction": {
        "from": "0xefbbd14082cf2fbcf5badc7ee619f0f4e36d0a5b",
        "to": "0xe760d7e19d952c44a46e92523dcf1b17d84de198",
        "gas": "0x2e1a0",
        "value": "0x0",
        "input": "0xecf441b700000000000000000000000000000000000000000000000000000000000000010000000000000000000000000000000000000000000000056bc75e2d63100000000000000000000000000000379f6d7fa5480a98bf89f417a6335747e0a51a35",
        "nonce": "0x541",
        "chainId": "0x13882"
      },
      "additionalContracts": [],
      "isFixedGasLimit": false
    }
  ],
  "receipts": [
    {
      "status": "0x1",
      "cumulativeGasUsed": "0xe4a4",
      "logs": [
        {
          "address": "0xea56e327808caba4a87d407117fa44ded1796bea",
          "topics": [
            "0xf98448b987f1428e0e230e1f3c6e2ce15b5693eaf31827fbd0b1ec4b424ae7cf",
            "0x0000000000000000000000000000000000000000000000000000000000000001",
            "0x000000000000000000000000efbbd14082cf2fbcf5badc7ee619f0f4e36d0a5b"
          ],
          "data": "0x00000000000000000000000000000000000000000000000000000000000000000000000000000000000000000000000000000000000000000000000067364e060000000000000000000000000000000000000000000000000000000000000001",
          "blockHash": "0xf2b5d3656881a57854b343273f28842782bd0f4b17b0fe6dabd94ebc04883e10",
          "blockNumber": "0xdc2546",
          "transactionHash": "0x5309207b69f2c551a4d19cedb6d561a793572fd6de48c7d7e9162b5b770e76cd",
          "transactionIndex": "0x0",
          "logIndex": "0x0",
          "removed": false
        },
        {
          "address": "0x0000000000000000000000000000000000001010",
          "topics": [
            "0x4dfe1bbbcf077ddc3e01291eea2d5c70c2b422b415d95645b9adcfd678cb1d63",
            "0x0000000000000000000000000000000000000000000000000000000000001010",
            "0x000000000000000000000000efbbd14082cf2fbcf5badc7ee619f0f4e36d0a5b",
            "0x0000000000000000000000004631753190f2f5a15a7ba172bbac102b7d95fa22"
          ],
          "data": "0x00000000000000000000000000000000000000000000000000085161baaada6400000000000000000000000000000000000000000000000035f4c4f290c61dd60000000000000000000000000000000000000000000002f3c2e042e2642b35cd00000000000000000000000000000000000000000000000035ec7390d61b43720000000000000000000000000000000000000000000002f3c2e894441ed61031",
          "blockHash": "0xf2b5d3656881a57854b343273f28842782bd0f4b17b0fe6dabd94ebc04883e10",
          "blockNumber": "0xdc2546",
          "transactionHash": "0x5309207b69f2c551a4d19cedb6d561a793572fd6de48c7d7e9162b5b770e76cd",
          "transactionIndex": "0x0",
          "logIndex": "0x1",
          "removed": false
        }
      ],
      "logsBloom": "0x00000000000000000000000000000000000000002000000000000000000000000000000000000000000000000800000000008000000000000000000040040000008000000000000000000000000000800000000000040000000100000000000000000000000000100000000000000000000000000000000080000000000000000800000000000000000000000000000008000000000000000000000000000000200000000000000000002000000000000000400000000008000000000000004000800000000000000001000000000000000000000000000000100000000040000000000001000000000000000000000000000000000000000000000000100000",
      "type": "0x2",
      "transactionHash": "0x5309207b69f2c551a4d19cedb6d561a793572fd6de48c7d7e9162b5b770e76cd",
      "transactionIndex": "0x0",
      "blockHash": "0xf2b5d3656881a57854b343273f28842782bd0f4b17b0fe6dabd94ebc04883e10",
      "blockNumber": "0xdc2546",
      "gasUsed": "0xe4a4",
      "effectiveGasPrice": "0x9502f9000",
      "from": "0xefbbd14082cf2fbcf5badc7ee619f0f4e36d0a5b",
      "to": "0xea56e327808caba4a87d407117fa44ded1796bea",
      "contractAddress": null
    },
    {
      "status": "0x1",
      "cumulativeGasUsed": "0x30fbe",
      "logs": [
        {
          "address": "0xea56e327808caba4a87d407117fa44ded1796bea",
          "topics": [
            "0x9ea6790c7dadfd01c9f8b9762b3682607af2c7e79e05a9f9fdf5580dde949151",
            "0x000000000000000000000000e760d7e19d952c44a46e92523dcf1b17d84de198",
            "0x0000000000000000000000000000000000000000000000000000000000000001"
          ],
          "data": "0xecf441b700000000000000000000000000000000000000000000000000000000",
          "blockHash": "0xf669c45b78f4369b0c991a915183b4d9eaafbc94c0ad7371cd2b15fefe6483b4",
          "blockNumber": "0xdc2548",
          "transactionHash": "0x8c0ff3880ec5360934cadd06e60927fc5c127003676c6b0f0d27abbbcbdf5d90",
          "transactionIndex": "0x1",
          "logIndex": "0x6",
          "removed": false
        },
        {
          "address": "0x0000000000000000000000000000000000001010",
          "topics": [
            "0x4dfe1bbbcf077ddc3e01291eea2d5c70c2b422b415d95645b9adcfd678cb1d63",
            "0x0000000000000000000000000000000000000000000000000000000000001010",
            "0x000000000000000000000000efbbd14082cf2fbcf5badc7ee619f0f4e36d0a5b",
            "0x0000000000000000000000004631753190f2f5a15a7ba172bbac102b7d95fa22"
          ],
          "data": "0x0000000000000000000000000000000000000000000000000008223bc9e2265400000000000000000000000000000000000000000000000035ec7390d60dddd60000000000000000000000000000000000000000000002f3c336ed191c46406700000000000000000000000000000000000000000000000035e451550c2bb7820000000000000000000000000000000000000000000002f3c33f0f54e62866bb",
          "blockHash": "0xf669c45b78f4369b0c991a915183b4d9eaafbc94c0ad7371cd2b15fefe6483b4",
          "blockNumber": "0xdc2548",
          "transactionHash": "0x8c0ff3880ec5360934cadd06e60927fc5c127003676c6b0f0d27abbbcbdf5d90",
          "transactionIndex": "0x1",
          "logIndex": "0x7",
          "removed": false
        }
      ],
      "logsBloom": "0x00000004100080000000000000000000000000002000000000000000000000000000000000000000000000000800000000008000000000000000000040040000008000000000000000000000000000800000000000040000000100000000000000000000000000100000000000000000000000000000000080000000000000000800000000000000000000000000000000000000000000000000000000000000200000000000000000000000000000000000400000000000100000000000004000800000000000000001000000200000000080000000000000100000000040000000000001000000000000000000000000000000000000000000000000100000",
      "type": "0x2",
      "transactionHash": "0x8c0ff3880ec5360934cadd06e60927fc5c127003676c6b0f0d27abbbcbdf5d90",
      "transactionIndex": "0x1",
      "blockHash": "0xf669c45b78f4369b0c991a915183b4d9eaafbc94c0ad7371cd2b15fefe6483b4",
      "blockNumber": "0xdc2548",
      "gasUsed": "0xdf94",
      "effectiveGasPrice": "0x9502f9000",
      "from": "0xefbbd14082cf2fbcf5badc7ee619f0f4e36d0a5b",
      "to": "0xea56e327808caba4a87d407117fa44ded1796bea",
      "contractAddress": null
    },
    {
      "status": "0x1",
      "cumulativeGasUsed": "0xdf94",
      "logs": [
        {
          "address": "0xea56e327808caba4a87d407117fa44ded1796bea",
          "topics": [
            "0x9ea6790c7dadfd01c9f8b9762b3682607af2c7e79e05a9f9fdf5580dde949151",
            "0x00000000000000000000000038bb39c84e80b2b4e1920164979b4504391b2dd0",
            "0x0000000000000000000000000000000000000000000000000000000000000001"
          ],
          "data": "0x06af20da00000000000000000000000000000000000000000000000000000000",
          "blockHash": "0x575ea201c44421b7d57530f32e07f13b665eff63fa2567fbf096275d74260828",
          "blockNumber": "0xdc254a",
          "transactionHash": "0x90a3eed0d809b2487437d4dd3590bba716902a82be2f575bc4849f35a524fcc3",
          "transactionIndex": "0x0",
          "logIndex": "0x0",
          "removed": false
        },
        {
          "address": "0x0000000000000000000000000000000000001010",
          "topics": [
            "0x4dfe1bbbcf077ddc3e01291eea2d5c70c2b422b415d95645b9adcfd678cb1d63",
            "0x0000000000000000000000000000000000000000000000000000000000001010",
            "0x000000000000000000000000efbbd14082cf2fbcf5badc7ee619f0f4e36d0a5b",
            "0x0000000000000000000000004631753190f2f5a15a7ba172bbac102b7d95fa22"
          ],
          "data": "0x0000000000000000000000000000000000000000000000000008223bc9e2265400000000000000000000000000000000000000000000000035e451550c1e9dd60000000000000000000000000000000000000000000002f3c3cfb0ceb847b32d00000000000000000000000000000000000000000000000035dc2f19423c77820000000000000000000000000000000000000000000002f3c3d7d30a8229d981",
          "blockHash": "0x575ea201c44421b7d57530f32e07f13b665eff63fa2567fbf096275d74260828",
          "blockNumber": "0xdc254a",
          "transactionHash": "0x90a3eed0d809b2487437d4dd3590bba716902a82be2f575bc4849f35a524fcc3",
          "transactionIndex": "0x0",
          "logIndex": "0x1",
          "removed": false
        }
      ],
      "logsBloom": "0x00000004000080000000000000000000000000002000000000000000000000000000000000000000000000000800000000008000000000000000000040040000008000000000000000000000000000800000000000040000000100000000000000000000000000100000000000000000000000000000000080000000000080000800000000000000000000000000000000000080000000000000000000000000200000000000000000000000000000000000400000000000000000000000004000800000000000000001000000200000000000000000000000100000000040000000000001000000000000000000000000000000000000000000000200100000",
      "type": "0x2",
      "transactionHash": "0x90a3eed0d809b2487437d4dd3590bba716902a82be2f575bc4849f35a524fcc3",
      "transactionIndex": "0x0",
      "blockHash": "0x575ea201c44421b7d57530f32e07f13b665eff63fa2567fbf096275d74260828",
      "blockNumber": "0xdc254a",
      "gasUsed": "0xdf94",
      "effectiveGasPrice": "0x9502f9000",
      "from": "0xefbbd14082cf2fbcf5badc7ee619f0f4e36d0a5b",
      "to": "0xea56e327808caba4a87d407117fa44ded1796bea",
      "contractAddress": null
    },
    {
      "status": "0x1",
      "cumulativeGasUsed": "0x13e86",
      "logs": [
        {
          "address": "0xea56e327808caba4a87d407117fa44ded1796bea",
          "topics": [
            "0x9ea6790c7dadfd01c9f8b9762b3682607af2c7e79e05a9f9fdf5580dde949151",
            "0x000000000000000000000000a67026ab5c15e7b34f186ce121310a38cbbf601c",
            "0x0000000000000000000000000000000000000000000000000000000000000001"
          ],
          "data": "0xdaea85c500000000000000000000000000000000000000000000000000000000",
          "blockHash": "0x55e78d3bb978d88f7c7cdd43f1d99f7af9d8802fa078939901a844693d25b1ff",
          "blockNumber": "0xdc254c",
          "transactionHash": "0x841db1ea101f101b74e9e03d73ef12357dbc35d44f096f14f6bbef4d85bab745",
          "transactionIndex": "0x0",
          "logIndex": "0x0",
          "removed": false
        },
        {
          "address": "0xea56e327808caba4a87d407117fa44ded1796bea",
          "topics": [
            "0x9ea6790c7dadfd01c9f8b9762b3682607af2c7e79e05a9f9fdf5580dde949151",
            "0x000000000000000000000000a67026ab5c15e7b34f186ce121310a38cbbf601c",
            "0x0000000000000000000000000000000000000000000000000000000000000001"
          ],
          "data": "0xab0da5a900000000000000000000000000000000000000000000000000000000",
          "blockHash": "0x55e78d3bb978d88f7c7cdd43f1d99f7af9d8802fa078939901a844693d25b1ff",
          "blockNumber": "0xdc254c",
          "transactionHash": "0x841db1ea101f101b74e9e03d73ef12357dbc35d44f096f14f6bbef4d85bab745",
          "transactionIndex": "0x0",
          "logIndex": "0x1",
          "removed": false
        },
        {
          "address": "0x0000000000000000000000000000000000001010",
          "topics": [
            "0x4dfe1bbbcf077ddc3e01291eea2d5c70c2b422b415d95645b9adcfd678cb1d63",
            "0x0000000000000000000000000000000000000000000000000000000000001010",
            "0x000000000000000000000000efbbd14082cf2fbcf5badc7ee619f0f4e36d0a5b",
            "0x0000000000000000000000004631753190f2f5a15a7ba172bbac102b7d95fa22"
          ],
          "data": "0x000000000000000000000000000000000000000000000000000b967b0db2b62600000000000000000000000000000000000000000000000035dc2f19422f5dd60000000000000000000000000000000000000000000002f3c40227e68874e2c200000000000000000000000000000000000000000000000035d0989e347ca7b00000000000000000000000000000000000000000000002f3c40dbe61962798e8",
          "blockHash": "0x55e78d3bb978d88f7c7cdd43f1d99f7af9d8802fa078939901a844693d25b1ff",
          "blockNumber": "0xdc254c",
          "transactionHash": "0x841db1ea101f101b74e9e03d73ef12357dbc35d44f096f14f6bbef4d85bab745",
          "transactionIndex": "0x0",
          "logIndex": "0x2",
          "removed": false
        }
      ],
      "logsBloom": "0x00000004000080000000000000000000000000002000000000000000000000000000000000000000000000000800000000008000000000000000000040040000008000000000000000000000000000800000000000040000000100000000000000000000000000100000000000000000000000000000000080000000000000000800000020000000000000000000000000100000000000000000000000000000200000000000000000000000000000000000400000000000000000000000004000800000000000000001000000200000000000000000000000100000010040000000000001000000000000000000000000000000000000000000000000100000",
      "type": "0x2",
      "transactionHash": "0x841db1ea101f101b74e9e03d73ef12357dbc35d44f096f14f6bbef4d85bab745",
      "transactionIndex": "0x0",
      "blockHash": "0x55e78d3bb978d88f7c7cdd43f1d99f7af9d8802fa078939901a844693d25b1ff",
      "blockNumber": "0xdc254c",
      "gasUsed": "0x13e86",
      "effectiveGasPrice": "0x9502f9000",
      "from": "0xefbbd14082cf2fbcf5badc7ee619f0f4e36d0a5b",
      "to": "0xea56e327808caba4a87d407117fa44ded1796bea",
      "contractAddress": null
    },
    {
      "status": "0x1",
      "cumulativeGasUsed": "0x19d78",
      "logs": [
        {
          "address": "0xea56e327808caba4a87d407117fa44ded1796bea",
          "topics": [
            "0x9ea6790c7dadfd01c9f8b9762b3682607af2c7e79e05a9f9fdf5580dde949151",
            "0x000000000000000000000000dac72655ba5281115f55f25aa64dc01b375f4dbe",
            "0x0000000000000000000000000000000000000000000000000000000000000001"
          ],
          "data": "0x20c5429b00000000000000000000000000000000000000000000000000000000",
          "blockHash": "0x2af502c6910765c8bbe954272fa7a59984533e9f0e86cbf673b0cd51647290de",
          "blockNumber": "0xdc254e",
          "transactionHash": "0x9e2776488368ea8b240484f08329532663318a8a94dab1d830cff2b324347bbb",
          "transactionIndex": "0x0",
          "logIndex": "0x0",
          "removed": false
        },
        {
          "address": "0xea56e327808caba4a87d407117fa44ded1796bea",
          "topics": [
            "0x9ea6790c7dadfd01c9f8b9762b3682607af2c7e79e05a9f9fdf5580dde949151",
            "0x000000000000000000000000dac72655ba5281115f55f25aa64dc01b375f4dbe",
            "0x0000000000000000000000000000000000000000000000000000000000000001"
          ],
          "data": "0xb8adaa1100000000000000000000000000000000000000000000000000000000",
          "blockHash": "0x2af502c6910765c8bbe954272fa7a59984533e9f0e86cbf673b0cd51647290de",
          "blockNumber": "0xdc254e",
          "transactionHash": "0x9e2776488368ea8b240484f08329532663318a8a94dab1d830cff2b324347bbb",
          "transactionIndex": "0x0",
          "logIndex": "0x1",
          "removed": false
        },
        {
          "address": "0xea56e327808caba4a87d407117fa44ded1796bea",
          "topics": [
            "0x9ea6790c7dadfd01c9f8b9762b3682607af2c7e79e05a9f9fdf5580dde949151",
            "0x000000000000000000000000dac72655ba5281115f55f25aa64dc01b375f4dbe",
            "0x0000000000000000000000000000000000000000000000000000000000000001"
          ],
          "data": "0xb759f95400000000000000000000000000000000000000000000000000000000",
          "blockHash": "0x2af502c6910765c8bbe954272fa7a59984533e9f0e86cbf673b0cd51647290de",
          "blockNumber": "0xdc254e",
          "transactionHash": "0x9e2776488368ea8b240484f08329532663318a8a94dab1d830cff2b324347bbb",
          "transactionIndex": "0x0",
          "logIndex": "0x2",
          "removed": false
        },
        {
          "address": "0x0000000000000000000000000000000000001010",
          "topics": [
            "0x4dfe1bbbcf077ddc3e01291eea2d5c70c2b422b415d95645b9adcfd678cb1d63",
            "0x0000000000000000000000000000000000000000000000000000000000001010",
            "0x000000000000000000000000efbbd14082cf2fbcf5badc7ee619f0f4e36d0a5b",
            "0x0000000000000000000000004631753190f2f5a15a7ba172bbac102b7d95fa22"
          ],
          "data": "0x000000000000000000000000000000000000000000000000000f0aba518345f800000000000000000000000000000000000000000000000035d0989e3469fdd60000000000000000000000000000000000000000000002f3c41801da9e52663200000000000000000000000000000000000000000000000035c18de3e2e6b7de0000000000000000000000000000000000000000000002f3c4270c94efd5ac2a",
          "blockHash": "0x2af502c6910765c8bbe954272fa7a59984533e9f0e86cbf673b0cd51647290de",
          "blockNumber": "0xdc254e",
          "transactionHash": "0x9e2776488368ea8b240484f08329532663318a8a94dab1d830cff2b324347bbb",
          "transactionIndex": "0x0",
          "logIndex": "0x3",
          "removed": false
        }
      ],
      "logsBloom": "0x00000004000080000000000000000000040000002040000000000000000000000080000000000000000000000800000000008000000000000000000040040000008000000000000000000000000000800000000000040000000100000000000000000000000000100000000000000000000000000000000080000000000000000800000000000000000000000000000000000000000000000000000000000000200000000000000000000000000000000000400000000000000000000000004000800000000000000001000000200000000000000000000000100000000040000000000001000000000000000000000000000000000000000000000000100000",
      "type": "0x2",
      "transactionHash": "0x9e2776488368ea8b240484f08329532663318a8a94dab1d830cff2b324347bbb",
      "transactionIndex": "0x0",
      "blockHash": "0x2af502c6910765c8bbe954272fa7a59984533e9f0e86cbf673b0cd51647290de",
      "blockNumber": "0xdc254e",
      "gasUsed": "0x19d78",
      "effectiveGasPrice": "0x9502f9000",
      "from": "0xefbbd14082cf2fbcf5badc7ee619f0f4e36d0a5b",
      "to": "0xea56e327808caba4a87d407117fa44ded1796bea",
      "contractAddress": null
    },
    {
      "status": "0x1",
      "cumulativeGasUsed": "0x19d78",
      "logs": [
        {
          "address": "0xea56e327808caba4a87d407117fa44ded1796bea",
          "topics": [
            "0x9ea6790c7dadfd01c9f8b9762b3682607af2c7e79e05a9f9fdf5580dde949151",
            "0x00000000000000000000000058ea7a743acec6061bf8318922d72003611044ee",
            "0x0000000000000000000000000000000000000000000000000000000000000001"
          ],
          "data": "0xf6eea09800000000000000000000000000000000000000000000000000000000",
          "blockHash": "0x62eb8bffdf04d814c33c87401920f3cc654a3cb8dd3702a1276ae1aacb7669a4",
          "blockNumber": "0xdc2550",
          "transactionHash": "0xb229f4869a7358560be849e3ace758124b5200bc1bd2e61faf5fa4a6923d7e57",
          "transactionIndex": "0x0",
          "logIndex": "0x0",
          "removed": false
        },
        {
          "address": "0xea56e327808caba4a87d407117fa44ded1796bea",
          "topics": [
            "0x9ea6790c7dadfd01c9f8b9762b3682607af2c7e79e05a9f9fdf5580dde949151",
            "0x00000000000000000000000058ea7a743acec6061bf8318922d72003611044ee",
            "0x0000000000000000000000000000000000000000000000000000000000000001"
          ],
          "data": "0x74a8f10300000000000000000000000000000000000000000000000000000000",
          "blockHash": "0x62eb8bffdf04d814c33c87401920f3cc654a3cb8dd3702a1276ae1aacb7669a4",
          "blockNumber": "0xdc2550",
          "transactionHash": "0xb229f4869a7358560be849e3ace758124b5200bc1bd2e61faf5fa4a6923d7e57",
          "transactionIndex": "0x0",
          "logIndex": "0x1",
          "removed": false
        },
        {
          "address": "0xea56e327808caba4a87d407117fa44ded1796bea",
          "topics": [
            "0x9ea6790c7dadfd01c9f8b9762b3682607af2c7e79e05a9f9fdf5580dde949151",
            "0x00000000000000000000000058ea7a743acec6061bf8318922d72003611044ee",
            "0x0000000000000000000000000000000000000000000000000000000000000001"
          ],
          "data": "0xdaea85c500000000000000000000000000000000000000000000000000000000",
          "blockHash": "0x62eb8bffdf04d814c33c87401920f3cc654a3cb8dd3702a1276ae1aacb7669a4",
          "blockNumber": "0xdc2550",
          "transactionHash": "0xb229f4869a7358560be849e3ace758124b5200bc1bd2e61faf5fa4a6923d7e57",
          "transactionIndex": "0x0",
          "logIndex": "0x2",
          "removed": false
        },
        {
          "address": "0x0000000000000000000000000000000000001010",
          "topics": [
            "0x4dfe1bbbcf077ddc3e01291eea2d5c70c2b422b415d95645b9adcfd678cb1d63",
            "0x0000000000000000000000000000000000000000000000000000000000001010",
            "0x000000000000000000000000efbbd14082cf2fbcf5badc7ee619f0f4e36d0a5b",
            "0x0000000000000000000000004ad84f7014b7b44f723f284a85b1662337971439"
          ],
          "data": "0x000000000000000000000000000000000000000000000000000f0aba518345f800000000000000000000000000000000000000000000000035c18de3e2ce7dd600000000000000000000000000000000000000000000040e57b296a216e4bd0e00000000000000000000000000000000000000000000000035b28329914b37de00000000000000000000000000000000000000000000040e57c1a15c68680306",
          "blockHash": "0x62eb8bffdf04d814c33c87401920f3cc654a3cb8dd3702a1276ae1aacb7669a4",
          "blockNumber": "0xdc2550",
          "transactionHash": "0xb229f4869a7358560be849e3ace758124b5200bc1bd2e61faf5fa4a6923d7e57",
          "transactionIndex": "0x0",
          "logIndex": "0x3",
          "removed": false
        }
      ],
      "logsBloom": "0x00000004000080000000000000000000000000000200000000000000000000000000000000000000000000000800000000008000000000000000000000440000008000000000000000000000000000800080000000040000000100001000000000000000000000000000000000000000000000000000000080000000000000000800000000000000200000000000000000000000000000000000000000000000200000000000000000000000000000000000400000000000000000000000004000800000000000000001000000200000000000000000000000100000000040000000000001000000000000000000008000000000000000000000000000100000",
      "type": "0x2",
      "transactionHash": "0xb229f4869a7358560be849e3ace758124b5200bc1bd2e61faf5fa4a6923d7e57",
      "transactionIndex": "0x0",
      "blockHash": "0x62eb8bffdf04d814c33c87401920f3cc654a3cb8dd3702a1276ae1aacb7669a4",
      "blockNumber": "0xdc2550",
      "gasUsed": "0x19d78",
      "effectiveGasPrice": "0x9502f9000",
      "from": "0xefbbd14082cf2fbcf5badc7ee619f0f4e36d0a5b",
      "to": "0xea56e327808caba4a87d407117fa44ded1796bea",
      "contractAddress": null
    },
    {
      "status": "0x1",
      "cumulativeGasUsed": "0x40be5",
      "logs": [
        {
          "address": "0xe760d7e19d952c44a46e92523dcf1b17d84de198",
          "topics": [
            "0xfbbd6e9cc51f124b05f08f20e9aef57fb26fc9a927be06212c59506610581335",
            "0x000000000000000000000000379f6d7fa5480a98bf89f417a6335747e0a51a35",
            "0x000000000000000000000000efbbd14082cf2fbcf5badc7ee619f0f4e36d0a5b"
          ],
          "data": "0x00000000000000000000000000000000000000000000000000000000000001f40000000000000000000000000000000000000000000000000000000000000002",
          "blockHash": "0xae279a5d8b196688e52f73b508af0851a088a8e69f3dbccf508e8102dbce86a7",
          "blockNumber": "0xdc2552",
          "transactionHash": "0xc3d26a0f3ce65b771a68f542e736f9cdde3f4c52b8fa9eff84c2cf38b9fee543",
          "transactionIndex": "0x1",
          "logIndex": "0x3",
          "removed": false
        },
        {
          "address": "0x0000000000000000000000000000000000001010",
          "topics": [
            "0x4dfe1bbbcf077ddc3e01291eea2d5c70c2b422b415d95645b9adcfd678cb1d63",
            "0x0000000000000000000000000000000000000000000000000000000000001010",
            "0x000000000000000000000000efbbd14082cf2fbcf5badc7ee619f0f4e36d0a5b",
            "0x0000000000000000000000004ad84f7014b7b44f723f284a85b1662337971439"
          ],
          "data": "0x00000000000000000000000000000000000000000000000000136c3520dd67b300000000000000000000000000000000000000000000000035b283299132fdd600000000000000000000000000000000000000000000040e5b5667ccaac0c5de000000000000000000000000000000000000000000000000359f16f47055962300000000000000000000000000000000000000000000040e5b69d401cb9e2d91",
          "blockHash": "0xae279a5d8b196688e52f73b508af0851a088a8e69f3dbccf508e8102dbce86a7",
          "blockNumber": "0xdc2552",
          "transactionHash": "0xc3d26a0f3ce65b771a68f542e736f9cdde3f4c52b8fa9eff84c2cf38b9fee543",
          "transactionIndex": "0x1",
          "logIndex": "0x4",
          "removed": false
        }
      ],
      "logsBloom": "0x00000000000000000000800000000000000000000000000000000000000000000008000000000000000000000000000000008000000000000000000000400000008000000000000000040000000000800000000000000000000100001000000000000000000000400000000000000000000000000000000080000000004000000804000000000000000000000000800000000000000000000000000000000000200000000000000000000000000000000000400000000000000000000000004000000000000040000001004000000000000000000000000000100000000000000000000000000000000000000000008000000000000000000000000000100000",
      "type": "0x2",
      "transactionHash": "0xc3d26a0f3ce65b771a68f542e736f9cdde3f4c52b8fa9eff84c2cf38b9fee543",
      "transactionIndex": "0x1",
      "blockHash": "0xae279a5d8b196688e52f73b508af0851a088a8e69f3dbccf508e8102dbce86a7",
      "blockNumber": "0xdc2552",
      "gasUsed": "0x215e3",
      "effectiveGasPrice": "0x9502f9000",
      "from": "0xefbbd14082cf2fbcf5badc7ee619f0f4e36d0a5b",
      "to": "0xe760d7e19d952c44a46e92523dcf1b17d84de198",
      "contractAddress": null
    },
    {
      "status": "0x1",
      "cumulativeGasUsed": "0x21608",
      "logs": [
        {
          "address": "0xe760d7e19d952c44a46e92523dcf1b17d84de198",
          "topics": [
            "0xfbbd6e9cc51f124b05f08f20e9aef57fb26fc9a927be06212c59506610581335",
            "0x000000000000000000000000379f6d7fa5480a98bf89f417a6335747e0a51a35",
            "0x000000000000000000000000efbbd14082cf2fbcf5badc7ee619f0f4e36d0a5b"
          ],
          "data": "0x0000000000000000000000000000000000000000000000056bc75e2d631000000000000000000000000000000000000000000000000000000000000000000001",
          "blockHash": "0xb27ee85cafa8ad608b4869ebf57c681e57929be9603ab77cc5f9b9d851e64bb5",
          "blockNumber": "0xdc2554",
          "transactionHash": "0x77929e307aef94057c4502c09eaa1327f073f50847c2c8b565737b740b46b0a6",
          "transactionIndex": "0x0",
          "logIndex": "0x0",
          "removed": false
        },
        {
          "address": "0x0000000000000000000000000000000000001010",
          "topics": [
            "0x4dfe1bbbcf077ddc3e01291eea2d5c70c2b422b415d95645b9adcfd678cb1d63",
            "0x0000000000000000000000000000000000000000000000000000000000001010",
            "0x000000000000000000000000efbbd14082cf2fbcf5badc7ee619f0f4e36d0a5b",
            "0x0000000000000000000000004ad84f7014b7b44f723f284a85b1662337971439"
          ],
          "data": "0x00000000000000000000000000000000000000000000000000136d8db7bd3588000000000000000000000000000000000000000000000000359f16f470364dd600000000000000000000000000000000000000000000040e5b954e5de5eaec3f000000000000000000000000000000000000000000000000358ba966b879184e00000000000000000000000000000000000000000000040e5ba8bbeb9da821c7",
          "blockHash": "0xb27ee85cafa8ad608b4869ebf57c681e57929be9603ab77cc5f9b9d851e64bb5",
          "blockNumber": "0xdc2554",
          "transactionHash": "0x77929e307aef94057c4502c09eaa1327f073f50847c2c8b565737b740b46b0a6",
          "transactionIndex": "0x0",
          "logIndex": "0x1",
          "removed": false
        }
      ],
      "logsBloom": "0x00000000000000000000800000000000000000000000000000000000000000000008000000000000000000000000000000008000000000000000000000400000008000000000000000040000000000800000000000000000000100001000000000000000000000400000000000000000000000000000000080000000004000000804000000000000000000000000800000000000000000000000000000000000200000000000000000000000000000000000400000000000000000000000004000000000000040000001004000000000000000000000000000100000000000000000000000000000000000000000008000000000000000000000000000100000",
      "type": "0x2",
      "transactionHash": "0x77929e307aef94057c4502c09eaa1327f073f50847c2c8b565737b740b46b0a6",
      "transactionIndex": "0x0",
      "blockHash": "0xb27ee85cafa8ad608b4869ebf57c681e57929be9603ab77cc5f9b9d851e64bb5",
      "blockNumber": "0xdc2554",
      "gasUsed": "0x21608",
      "effectiveGasPrice": "0x9502f9000",
      "from": "0xefbbd14082cf2fbcf5badc7ee619f0f4e36d0a5b",
      "to": "0xe760d7e19d952c44a46e92523dcf1b17d84de198",
      "contractAddress": null
    }
  ],
  "libraries": [],
  "pending": [],
  "returns": {},
  "timestamp": 1731612196,
  "chain": 80002,
  "commit": "bceebff"
}