{
  "transactions": [
    {
      "hash": "0xa2c0ac376854af9c619eda30b49cdab1a4eadc38326d04bcfe278990ef4bba26",
      "transactionType": "CALL",
      "contractName": null,
      "contractAddress": "0x8120a8e0688be6b2c0bb469f871e5e7023ca85eb",
      "function": "grantRole(uint64,address,uint32)",
      "arguments": [
        "1",
        "0xEFBBD14082cF2FbCf5Badc7ee619F0f4e36D0A5B",
        "0"
      ],
      "transaction": {
        "from": "0xefbbd14082cf2fbcf5badc7ee619f0f4e36d0a5b",
        "to": "0x8120a8e0688be6b2c0bb469f871e5e7023ca85eb",
        "gas": "0xedf2",
        "value": "0x0",
        "input": "0x25c471a00000000000000000000000000000000000000000000000000000000000000001000000000000000000000000efbbd14082cf2fbcf5badc7ee619f0f4e36d0a5b0000000000000000000000000000000000000000000000000000000000000000",
        "nonce": "0x8ae",
        "chainId": "0x13882"
      },
      "additionalContracts": [],
      "isFixedGasLimit": false
    },
    {
      "hash": "0x2a2d248a48449ff3833bf1647ea2f9799e7507e4f2e5b2794e3a9b4b21f12e98",
      "transactionType": "CALL",
      "contractName": null,
      "contractAddress": "0x8120a8e0688be6b2c0bb469f871e5e7023ca85eb",
      "function": "setTargetFunctionRole(address,bytes4[],uint64)",
      "arguments": [
        "0xB5761b35134f812699B9711E9a00069A321718Ea",
        "[0xecf441b7]",
        "1"
      ],
      "transaction": {
        "from": "0xefbbd14082cf2fbcf5badc7ee619f0f4e36d0a5b",
        "to": "0x8120a8e0688be6b2c0bb469f871e5e7023ca85eb",
        "gas": "0x134c0",
        "value": "0x0",
        "input": "0x08d6122d000000000000000000000000b5761b35134f812699b9711e9a00069a321718ea000000000000000000000000000000000000000000000000000000000000006000000000000000000000000000000000000000000000000000000000000000010000000000000000000000000000000000000000000000000000000000000001ecf441b700000000000000000000000000000000000000000000000000000000",
        "nonce": "0x8af",
        "chainId": "0x13882"
      },
      "additionalContracts": [],
      "isFixedGasLimit": false
    },
    {
      "hash": "0x4c541b31d010ee309fad48be966d11077392acfe848e47ab2092dd1ebd407a43",
      "transactionType": "CALL",
      "contractName": null,
      "contractAddress": "0x8120a8e0688be6b2c0bb469f871e5e7023ca85eb",
      "function": "setTargetFunctionRole(address,bytes4[],uint64)",
      "arguments": [
        "0xe7960339A028644D6DF3461ED71552a65D22351A",
        "[0x69328dec]",
        "1"
      ],
      "transaction": {
        "from": "0xefbbd14082cf2fbcf5badc7ee619f0f4e36d0a5b",
        "to": "0x8120a8e0688be6b2c0bb469f871e5e7023ca85eb",
        "gas": "0x134d0",
        "value": "0x0",
        "input": "0x08d6122d000000000000000000000000e7960339a028644d6df3461ed71552a65d22351a00000000000000000000000000000000000000000000000000000000000000600000000000000000000000000000000000000000000000000000000000000001000000000000000000000000000000000000000000000000000000000000000169328dec00000000000000000000000000000000000000000000000000000000",
        "nonce": "0x8b0",
        "chainId": "0x13882"
      },
      "additionalContracts": [],
      "isFixedGasLimit": false
    },
    {
      "hash": "0x28d3c7663461c4e68119bac2ffe5750a22ee81ab1b4631c081e2840e34ec278b",
      "transactionType": "CALL",
      "contractName": null,
      "contractAddress": "0x8120a8e0688be6b2c0bb469f871e5e7023ca85eb",
      "function": "setTargetFunctionRole(address,bytes4[],uint64)",
      "arguments": [
        "0x7861C58Cf33d78B933F586a97E0E0FD160Ab48b7",
        "[0x20c5429b, 0xb8adaa11, 0xb759f954]",
        "1"
      ],
      "transaction": {
        "from": "0xefbbd14082cf2fbcf5badc7ee619f0f4e36d0a5b",
        "to": "0x8120a8e0688be6b2c0bb469f871e5e7023ca85eb",
        "gas": "0x23b19",
        "value": "0x0",
        "input": "0x08d6122d0000000000000000000000007861c58cf33d78b933f586a97e0e0fd160ab48b700000000000000000000000000000000000000000000000000000000000000600000000000000000000000000000000000000000000000000000000000000001000000000000000000000000000000000000000000000000000000000000000320c5429b00000000000000000000000000000000000000000000000000000000b8adaa1100000000000000000000000000000000000000000000000000000000b759f95400000000000000000000000000000000000000000000000000000000",
        "nonce": "0x8b1",
        "chainId": "0x13882"
      },
      "additionalContracts": [],
      "isFixedGasLimit": false
    },
    {
      "hash": "0xdf64bc58e85b7c2a76b8faf46db87b6048581073fb6a668409e1e8c728e5a455",
      "transactionType": "CALL",
      "contractName": null,
      "contractAddress": "0x8120a8e0688be6b2c0bb469f871e5e7023ca85eb",
      "function": "setTargetFunctionRole(address,bytes4[],uint64)",
      "arguments": [
        "0xf6f28475a04FF6382764B0B42f71BcAA20C69379",
        "[0xf6eea098, 0x74a8f103, 0xdaea85c5]",
        "1"
      ],
      "transaction": {
        "from": "0xefbbd14082cf2fbcf5badc7ee619f0f4e36d0a5b",
        "to": "0x8120a8e0688be6b2c0bb469f871e5e7023ca85eb",
        "gas": "0xf8fd",
        "value": "0x0",
        "input": "0x08d6122d000000000000000000000000f6f28475a04ff6382764b0b42f71bcaa20c69379000000000000000000000000000000000000000000000000000000000000006000000000000000000000000000000000000000000000000000000000000000010000000000000000000000000000000000000000000000000000000000000003f6eea0980000000000000000000000000000000000000000000000000000000074a8f10300000000000000000000000000000000000000000000000000000000daea85c500000000000000000000000000000000000000000000000000000000",
        "nonce": "0x8b2",
        "chainId": "0x13882"
      },
      "additionalContracts": [],
      "isFixedGasLimit": false
    },
    {
      "hash": "0x7a5f7073d4cc69b16523986b94aa0af0a58e1e97d7834b31353319d340be6a11",
      "transactionType": "CALL",
      "contractName": null,
      "contractAddress": "0x8120a8e0688be6b2c0bb469f871e5e7023ca85eb",
      "function": "grantRole(uint64,address,uint32)",
      "arguments": [
        "2",
        "0xEFBBD14082cF2FbCf5Badc7ee619F0f4e36D0A5B",
        "0"
      ],
      "transaction": {
        "from": "0xefbbd14082cf2fbcf5badc7ee619f0f4e36d0a5b",
        "to": "0x8120a8e0688be6b2c0bb469f871e5e7023ca85eb",
        "gas": "0xedf2",
        "value": "0x0",
        "input": "0x25c471a00000000000000000000000000000000000000000000000000000000000000002000000000000000000000000efbbd14082cf2fbcf5badc7ee619f0f4e36d0a5b0000000000000000000000000000000000000000000000000000000000000000",
        "nonce": "0x8b3",
        "chainId": "0x13882"
      },
      "additionalContracts": [],
      "isFixedGasLimit": false
    },
    {
      "hash": "0x17663267e73bc5c27e7ea30f6a37132dd825c64ca112d785db4490656a5be2b8",
      "transactionType": "CALL",
      "contractName": null,
      "contractAddress": "0x8120a8e0688be6b2c0bb469f871e5e7023ca85eb",
      "function": "setTargetFunctionRole(address,bytes4[],uint64)",
      "arguments": [
        "0x3d45c4027611bf8fa09d0f86c55f17e9D54eCDf5",
        "[0xdaea85c5, 0xab0da5a9]",
        "2"
      ],
      "transaction": {
        "from": "0xefbbd14082cf2fbcf5badc7ee619f0f4e36d0a5b",
        "to": "0x8120a8e0688be6b2c0bb469f871e5e7023ca85eb",
        "gas": "0x1b7f5",
        "value": "0x0",
        "input": "0x08d6122d0000000000000000000000003d45c4027611bf8fa09d0f86c55f17e9d54ecdf5000000000000000000000000000000000000000000000000000000000000006000000000000000000000000000000000000000000000000000000000000000020000000000000000000000000000000000000000000000000000000000000002daea85c500000000000000000000000000000000000000000000000000000000ab0da5a900000000000000000000000000000000000000000000000000000000",
        "nonce": "0x8b4",
        "chainId": "0x13882"
      },
      "additionalContracts": [],
      "isFixedGasLimit": false
    },
    {
      "hash": "0x35668d7f8f25652975a7313bac7a25346b22c7bee444f924342b287b11c17851",
      "transactionType": "CALL",
      "contractName": null,
      "contractAddress": "0x8120a8e0688be6b2c0bb469f871e5e7023ca85eb",
      "function": "grantRole(uint64,address,uint32)",
      "arguments": [
        "4",
        "0xC3280FD1B6ED89B256B2A435d003531E99De41F2",
        "0"
      ],
      "transaction": {
        "from": "0xefbbd14082cf2fbcf5badc7ee619f0f4e36d0a5b",
        "to": "0x8120a8e0688be6b2c0bb469f871e5e7023ca85eb",
        "gas": "0x13bcf",
        "value": "0x0",
        "input": "0x25c471a00000000000000000000000000000000000000000000000000000000000000004000000000000000000000000c3280fd1b6ed89b256b2a435d003531e99de41f20000000000000000000000000000000000000000000000000000000000000000",
        "nonce": "0x8b5",
        "chainId": "0x13882"
      },
      "additionalContracts": [],
      "isFixedGasLimit": false
    },
    {
      "hash": "0xd7937fbf4769a1aaa76b806250b49e1dd37711191b5bb225847c0ca1b66c34a3",
      "transactionType": "CALL",
      "contractName": null,
      "contractAddress": "0x8120a8e0688be6b2c0bb469f871e5e7023ca85eb",
      "function": "grantRole(uint64,address,uint32)",
      "arguments": [
        "4",
        "0xf6b5D2EBbCfb247D675AC0ddf795383F5D49DfF1",
        "0"
      ],
      "transaction": {
        "from": "0xefbbd14082cf2fbcf5badc7ee619f0f4e36d0a5b",
        "to": "0x8120a8e0688be6b2c0bb469f871e5e7023ca85eb",
        "gas": "0x13bcf",
        "value": "0x0",
        "input": "0x25c471a00000000000000000000000000000000000000000000000000000000000000004000000000000000000000000f6b5d2ebbcfb247d675ac0ddf795383f5d49dff10000000000000000000000000000000000000000000000000000000000000000",
        "nonce": "0x8b6",
        "chainId": "0x13882"
      },
      "additionalContracts": [],
      "isFixedGasLimit": false
    },
    {
      "hash": "0xcf96a60a0ea3c1d5f7c3bc47520e4d4ceef7d53eecb611b2f8987099fbd39ddf",
      "transactionType": "CALL",
      "contractName": null,
      "contractAddress": "0x8120a8e0688be6b2c0bb469f871e5e7023ca85eb",
      "function": "grantRole(uint64,address,uint32)",
      "arguments": [
        "4",
        "0xf6f28475a04FF6382764B0B42f71BcAA20C69379",
        "0"
      ],
      "transaction": {
        "from": "0xefbbd14082cf2fbcf5badc7ee619f0f4e36d0a5b",
        "to": "0x8120a8e0688be6b2c0bb469f871e5e7023ca85eb",
        "gas": "0x13bcf",
        "value": "0x0",
        "input": "0x25c471a00000000000000000000000000000000000000000000000000000000000000004000000000000000000000000f6f28475a04ff6382764b0b42f71bcaa20c693790000000000000000000000000000000000000000000000000000000000000000",
        "nonce": "0x8b7",
        "chainId": "0x13882"
      },
      "additionalContracts": [],
      "isFixedGasLimit": false
    },
    {
      "hash": "0x6ac816365a12ff047da2724f87b09f9a06269d236a5dfa738ad215f9d8c8f1a5",
      "transactionType": "CALL",
      "contractName": null,
      "contractAddress": "0x8120a8e0688be6b2c0bb469f871e5e7023ca85eb",
      "function": "setTargetFunctionRole(address,bytes4[],uint64)",
      "arguments": [
        "0xE03C8141275d8eF95Aa9c7ad742bEf915a3C835D",
        "[0x4bbc170a, 0x15f41501, 0x9e96a260]",
        "4"
      ],
      "transaction": {
        "from": "0xefbbd14082cf2fbcf5badc7ee619f0f4e36d0a5b",
        "to": "0x8120a8e0688be6b2c0bb469f871e5e7023ca85eb",
        "gas": "0x23b19",
        "value": "0x0",
        "input": "0x08d6122d000000000000000000000000e03c8141275d8ef95aa9c7ad742bef915a3c835d0000000000000000000000000000000000000000000000000000000000000060000000000000000000000000000000000000000000000000000000000000000400000000000000000000000000000000000000000000000000000000000000034bbc170a0000000000000000000000000000000000000000000000000000000015f41501000000000000000000000000000000000000000000000000000000009e96a26000000000000000000000000000000000000000000000000000000000",
        "nonce": "0x8b8",
        "chainId": "0x13882"
      },
      "additionalContracts": [],
      "isFixedGasLimit": false
    },
    {
      "hash": "0x40197a23c1bfd400a06d2544cdc37820bc4950fe2f3c66c0217a14bb42759fc9",
      "transactionType": "CALL",
      "contractName": null,
      "contractAddress": "0xb5761b35134f812699b9711e9a00069a321718ea",
      "function": "setFees(uint8,uint256,address)",
      "arguments": [
        "2",
        "500",
        "0x3c7DeB6FeAEb7a82BDe580Fb73d8d69c401b219e"
      ],
      "transaction": {
        "from": "0xefbbd14082cf2fbcf5badc7ee619f0f4e36d0a5b",
        "to": "0xb5761b35134f812699b9711e9a00069a321718ea",
        "gas": "0x30cce",
        "value": "0x0",
        "input": "0xecf441b7000000000000000000000000000000000000000000000000000000000000000200000000000000000000000000000000000000000000000000000000000001f40000000000000000000000003c7deb6feaeb7a82bde580fb73d8d69c401b219e",
        "nonce": "0x8b9",
        "chainId": "0x13882"
      },
      "additionalContracts": [],
      "isFixedGasLimit": false
    },
    {
      "hash": "0xe77f832c8050362700fb538816000e3659ff765d875ca76e9e607ab8cb17a822",
      "transactionType": "CALL",
      "contractName": null,
      "contractAddress": "0xb5761b35134f812699b9711e9a00069a321718ea",
      "function": "setFees(uint8,uint256,address)",
      "arguments": [
        "1",
        "100000000000000000000",
        "0x3c7DeB6FeAEb7a82BDe580Fb73d8d69c401b219e"
      ],
      "transaction": {
        "from": "0xefbbd14082cf2fbcf5badc7ee619f0f4e36d0a5b",
        "to": "0xb5761b35134f812699b9711e9a00069a321718ea",
        "gas": "0x2e1a0",
        "value": "0x0",
        "input": "0xecf441b700000000000000000000000000000000000000000000000000000000000000010000000000000000000000000000000000000000000000056bc75e2d631000000000000000000000000000003c7deb6feaeb7a82bde580fb73d8d69c401b219e",
        "nonce": "0x8ba",
        "chainId": "0x13882"
      },
      "additionalContracts": [],
      "isFixedGasLimit": false
    }
  ],
  "receipts": [
    {
      "status": "0x1",
      "cumulativeGasUsed": "0x3bc21",
      "logs": [
        {
          "address": "0x8120a8e0688be6b2c0bb469f871e5e7023ca85eb",
          "topics": [
            "0xf98448b987f1428e0e230e1f3c6e2ce15b5693eaf31827fbd0b1ec4b424ae7cf",
            "0x0000000000000000000000000000000000000000000000000000000000000001",
            "0x000000000000000000000000efbbd14082cf2fbcf5badc7ee619f0f4e36d0a5b"
          ],
          "data": "0x000000000000000000000000000000000000000000000000000000000000000000000000000000000000000000000000000000000000000000000000676efe8b0000000000000000000000000000000000000000000000000000000000000000",
          "blockHash": "0x59a9c11c70715b8685d6525fcb1ac92e60f859633b00dfa00fc97b60e15edac5",
          "blockNumber": "0xf62869",
          "transactionHash": "0xa2c0ac376854af9c619eda30b49cdab1a4eadc38326d04bcfe278990ef4bba26",
          "transactionIndex": "0x1",
          "logIndex": "0x4",
          "removed": false
        },
        {
          "address": "0x0000000000000000000000000000000000001010",
          "topics": [
            "0x4dfe1bbbcf077ddc3e01291eea2d5c70c2b422b415d95645b9adcfd678cb1d63",
            "0x0000000000000000000000000000000000000000000000000000000000001010",
            "0x000000000000000000000000efbbd14082cf2fbcf5badc7ee619f0f4e36d0a5b",
            "0x000000000000000000000000915a2284d28bd93de7d6f31173b981204bb666e6"
          ],
          "data": "0x0000000000000000000000000000000000000000000000000003f649d1824f5d0000000000000000000000000000000000000000000000012cf1faac55090f9d00000000000000000000000000000000000000000000057972819b30af2063270000000000000000000000000000000000000000000000012cee04628386c0400000000000000000000000000000000000000000000005797285917a80a2b284",
          "blockHash": "0x59a9c11c70715b8685d6525fcb1ac92e60f859633b00dfa00fc97b60e15edac5",
          "blockNumber": "0xf62869",
          "transactionHash": "0xa2c0ac376854af9c619eda30b49cdab1a4eadc38326d04bcfe278990ef4bba26",
          "transactionIndex": "0x1",
          "logIndex": "0x5",
          "removed": false
        }
      ],
      "logsBloom": "0x00000000000000000010000000000000000000000000000000000000000000000000000000000000000000000000000000008000000000000000000000040000008000000000000000000000000000800000000000040100000100000000000000000000000000000000000000000000000000000000000080000000000000000800000000000000000000000800000008000000000000000000000000000000200000000000000000002000000000000000400000000008008000000000004000000000000000000001000000000000000002000000000000100000000040000000000000000000000000000000000000000000400000000000000000100000",
      "type": "0x2",
      "transactionHash": "0xa2c0ac376854af9c619eda30b49cdab1a4eadc38326d04bcfe278990ef4bba26",
      "transactionIndex": "0x1",
      "blockHash": "0x59a9c11c70715b8685d6525fcb1ac92e60f859633b00dfa00fc97b60e15edac5",
      "blockNumber": "0xf62869",
      "gasUsed": "0xa2b3",
      "effectiveGasPrice": "0x63bf00dbe",
      "from": "0xefbbd14082cf2fbcf5badc7ee619f0f4e36d0a5b",
      "to": "0x8120a8e0688be6b2c0bb469f871e5e7023ca85eb",
      "contractAddress": null
    },
    {
      "status": "0x1",
      "cumulativeGasUsed": "0x49ba9",
      "logs": [
        {
          "address": "0x8120a8e0688be6b2c0bb469f871e5e7023ca85eb",
          "topics": [
            "0x9ea6790c7dadfd01c9f8b9762b3682607af2c7e79e05a9f9fdf5580dde949151",
            "0x000000000000000000000000b5761b35134f812699b9711e9a00069a321718ea",
            "0x0000000000000000000000000000000000000000000000000000000000000001"
          ],
          "data": "0xecf441b700000000000000000000000000000000000000000000000000000000",
          "blockHash": "0x59a9c11c70715b8685d6525fcb1ac92e60f859633b00dfa00fc97b60e15edac5",
          "blockNumber": "0xf62869",
          "transactionHash": "0x2a2d248a48449ff3833bf1647ea2f9799e7507e4f2e5b2794e3a9b4b21f12e98",
          "transactionIndex": "0x2",
          "logIndex": "0x6",
          "removed": false
        },
        {
          "address": "0x0000000000000000000000000000000000001010",
          "topics": [
            "0x4dfe1bbbcf077ddc3e01291eea2d5c70c2b422b415d95645b9adcfd678cb1d63",
            "0x0000000000000000000000000000000000000000000000000000000000001010",
            "0x000000000000000000000000efbbd14082cf2fbcf5badc7ee619f0f4e36d0a5b",
            "0x000000000000000000000000915a2284d28bd93de7d6f31173b981204bb666e6"
          ],
          "data": "0x00000000000000000000000000000000000000000000000000057185f372b5f80000000000000000000000000000000000000000000000012cee0462837d37c30000000000000000000000000000000000000000000005797285917a80a2b2840000000000000000000000000000000000000000000000012ce892dc900a81cb000000000000000000000000000000000000000000000579728b03007415687c",
          "blockHash": "0x59a9c11c70715b8685d6525fcb1ac92e60f859633b00dfa00fc97b60e15edac5",
          "blockNumber": "0xf62869",
          "transactionHash": "0x2a2d248a48449ff3833bf1647ea2f9799e7507e4f2e5b2794e3a9b4b21f12e98",
          "transactionIndex": "0x2",
          "logIndex": "0x7",
          "removed": false
        }
      ],
      "logsBloom": "0x00000004000080000010000000000000000000000000000000000000000000000000000000000000000000000000000000008000000000000000000000040000008000000000000000000000000000800000000000040104000100000000000000000000000000000000000000000000000000000000000080000000000000020800000000000000000000000800000000000000000000000000000000000000200000000000000000000000000000000000400000000000008000000000004000000000000000000001000000200000000002000000000000100000000040000000000000000000000000000000008000000000400000000000000000100000",
      "type": "0x2",
      "transactionHash": "0x2a2d248a48449ff3833bf1647ea2f9799e7507e4f2e5b2794e3a9b4b21f12e98",
      "transactionIndex": "0x2",
      "blockHash": "0x59a9c11c70715b8685d6525fcb1ac92e60f859633b00dfa00fc97b60e15edac5",
      "blockNumber": "0xf62869",
      "gasUsed": "0xdf88",
      "effectiveGasPrice": "0x63bf00dbe",
      "from": "0xefbbd14082cf2fbcf5badc7ee619f0f4e36d0a5b",
      "to": "0x8120a8e0688be6b2c0bb469f871e5e7023ca85eb",
      "contractAddress": null
    },
    {
      "status": "0x1",
      "cumulativeGasUsed": "0x57b3d",
      "logs": [
        {
          "address": "0x8120a8e0688be6b2c0bb469f871e5e7023ca85eb",
          "topics": [
            "0x9ea6790c7dadfd01c9f8b9762b3682607af2c7e79e05a9f9fdf5580dde949151",
            "0x000000000000000000000000e7960339a028644d6df3461ed71552a65d22351a",
            "0x0000000000000000000000000000000000000000000000000000000000000001"
          ],
          "data": "0x69328dec00000000000000000000000000000000000000000000000000000000",
          "blockHash": "0x59a9c11c70715b8685d6525fcb1ac92e60f859633b00dfa00fc97b60e15edac5",
          "blockNumber": "0xf62869",
          "transactionHash": "0x4c541b31d010ee309fad48be966d11077392acfe848e47ab2092dd1ebd407a43",
          "transactionIndex": "0x3",
          "logIndex": "0x8",
          "removed": false
        },
        {
          "address": "0x0000000000000000000000000000000000001010",
          "topics": [
            "0x4dfe1bbbcf077ddc3e01291eea2d5c70c2b422b415d95645b9adcfd678cb1d63",
            "0x0000000000000000000000000000000000000000000000000000000000001010",
            "0x000000000000000000000000efbbd14082cf2fbcf5badc7ee619f0f4e36d0a5b",
            "0x000000000000000000000000915a2284d28bd93de7d6f31173b981204bb666e6"
          ],
          "data": "0x000000000000000000000000000000000000000000000000000571d0c2b35a2c0000000000000000000000000000000000000000000000012ce892dc8ffd68d3000000000000000000000000000000000000000000000579728b03007415687c0000000000000000000000000000000000000000000000012ce3210bcd4a0ea7000000000000000000000000000000000000000000000579729074d136c8c2a8",
          "blockHash": "0x59a9c11c70715b8685d6525fcb1ac92e60f859633b00dfa00fc97b60e15edac5",
          "blockNumber": "0xf62869",
          "transactionHash": "0x4c541b31d010ee309fad48be966d11077392acfe848e47ab2092dd1ebd407a43",
          "transactionIndex": "0x3",
          "logIndex": "0x9",
          "removed": false
        }
      ],
      "logsBloom": "0x00000004000080000010000000000000000000000000000000000000000200000000000000000000000000000000000000008000000000000000001000040000008000000000000000000000000000c00000000000040100000100000000000000000000000000000000000000000000000000000000000080000000000000000800000000000000000000000800000000000000000000000000000000000000200000000000000000000000000000000000400000000000008000000000004000000000000000000001000000200000000002000000000000100000000040000000000000000000000000000000000000000000400000000000000000100000",
      "type": "0x2",
      "transactionHash": "0x4c541b31d010ee309fad48be966d11077392acfe848e47ab2092dd1ebd407a43",
      "transactionIndex": "0x3",
      "blockHash": "0x59a9c11c70715b8685d6525fcb1ac92e60f859633b00dfa00fc97b60e15edac5",
      "blockNumber": "0xf62869",
      "gasUsed": "0xdf94",
      "effectiveGasPrice": "0x63bf00dbe",
      "from": "0xefbbd14082cf2fbcf5badc7ee619f0f4e36d0a5b",
      "to": "0x8120a8e0688be6b2c0bb469f871e5e7023ca85eb",
      "contractAddress": null
    },
    {
      "status": "0x1",
      "cumulativeGasUsed": "0x718b5",
      "logs": [
        {
          "address": "0x8120a8e0688be6b2c0bb469f871e5e7023ca85eb",
          "topics": [
            "0x9ea6790c7dadfd01c9f8b9762b3682607af2c7e79e05a9f9fdf5580dde949151",
            "0x0000000000000000000000007861c58cf33d78b933f586a97e0e0fd160ab48b7",
            "0x0000000000000000000000000000000000000000000000000000000000000001"
          ],
          "data": "0x20c5429b00000000000000000000000000000000000000000000000000000000",
          "blockHash": "0x59a9c11c70715b8685d6525fcb1ac92e60f859633b00dfa00fc97b60e15edac5",
          "blockNumber": "0xf62869",
          "transactionHash": "0x28d3c7663461c4e68119bac2ffe5750a22ee81ab1b4631c081e2840e34ec278b",
          "transactionIndex": "0x4",
          "logIndex": "0xa",
          "removed": false
        },
        {
          "address": "0x8120a8e0688be6b2c0bb469f871e5e7023ca85eb",
          "topics": [
            "0x9ea6790c7dadfd01c9f8b9762b3682607af2c7e79e05a9f9fdf5580dde949151",
            "0x0000000000000000000000007861c58cf33d78b933f586a97e0e0fd160ab48b7",
            "0x0000000000000000000000000000000000000000000000000000000000000001"
          ],
          "data": "0xb8adaa1100000000000000000000000000000000000000000000000000000000",
          "blockHash": "0x59a9c11c70715b8685d6525fcb1ac92e60f859633b00dfa00fc97b60e15edac5",
          "blockNumber": "0xf62869",
          "transactionHash": "0x28d3c7663461c4e68119bac2ffe5750a22ee81ab1b4631c081e2840e34ec278b",
          "transactionIndex": "0x4",
          "logIndex": "0xb",
          "removed": false
        },
        {
          "address": "0x8120a8e0688be6b2c0bb469f871e5e7023ca85eb",
          "topics": [
            "0x9ea6790c7dadfd01c9f8b9762b3682607af2c7e79e05a9f9fdf5580dde949151",
            "0x0000000000000000000000007861c58cf33d78b933f586a97e0e0fd160ab48b7",
            "0x0000000000000000000000000000000000000000000000000000000000000001"
          ],
          "data": "0xb759f95400000000000000000000000000000000000000000000000000000000",
          "blockHash": "0x59a9c11c70715b8685d6525fcb1ac92e60f859633b00dfa00fc97b60e15edac5",
          "blockNumber": "0xf62869",
          "transactionHash": "0x28d3c7663461c4e68119bac2ffe5750a22ee81ab1b4631c081e2840e34ec278b",
          "transactionIndex": "0x4",
          "logIndex": "0xc",
          "removed": false
        },
        {
          "address": "0x0000000000000000000000000000000000001010",
          "topics": [
            "0x4dfe1bbbcf077ddc3e01291eea2d5c70c2b422b415d95645b9adcfd678cb1d63",
            "0x0000000000000000000000000000000000000000000000000000000000001010",
            "0x000000000000000000000000efbbd14082cf2fbcf5badc7ee619f0f4e36d0a5b",
            "0x000000000000000000000000915a2284d28bd93de7d6f31173b981204bb666e6"
          ],
          "data": "0x000000000000000000000000000000000000000000000000000a119e5e99bd080000000000000000000000000000000000000000000000012ce3210bcd3cf4fb000000000000000000000000000000000000000000000579729074d136c8c2a80000000000000000000000000000000000000000000000012cd90f6d6ea337f3000000000000000000000000000000000000000000000579729a866f95627fb0",
          "blockHash": "0x59a9c11c70715b8685d6525fcb1ac92e60f859633b00dfa00fc97b60e15edac5",
          "blockNumber": "0xf62869",
          "transactionHash": "0x28d3c7663461c4e68119bac2ffe5750a22ee81ab1b4631c081e2840e34ec278b",
          "transactionIndex": "0x4",
          "logIndex": "0xd",
          "removed": false
        }
      ],
      "logsBloom": "0x00000004000080000010000000000000000000000000000000000000000000000000000000000000000000000000000000008000000000000000000000040000008000000000000000000000000000800000000000040100000100000000000000000000000000000000000000000000000000000000000080000000000000000800000400000000000000000800000000000000000000000800000000000000200000000000000000000000000000000000400000000000008000000000004000000000000000000001000000200000000002000000000000100000000040000000000000000000000010000000000000000000400000000000000000100000",
      "type": "0x2",
      "transactionHash": "0x28d3c7663461c4e68119bac2ffe5750a22ee81ab1b4631c081e2840e34ec278b",
      "transactionIndex": "0x4",
      "blockHash": "0x59a9c11c70715b8685d6525fcb1ac92e60f859633b00dfa00fc97b60e15edac5",
      "blockNumber": "0xf62869",
      "gasUsed": "0x19d78",
      "effectiveGasPrice": "0x63bf00dbe",
      "from": "0xefbbd14082cf2fbcf5badc7ee619f0f4e36d0a5b",
      "to": "0x8120a8e0688be6b2c0bb469f871e5e7023ca85eb",
      "contractAddress": null
    },
    {
      "status": "0x1",
      "cumulativeGasUsed": "0x7ccf9",
      "logs": [
        {
          "address": "0x8120a8e0688be6b2c0bb469f871e5e7023ca85eb",
          "topics": [
            "0x9ea6790c7dadfd01c9f8b9762b3682607af2c7e79e05a9f9fdf5580dde949151",
            "0x000000000000000000000000f6f28475a04ff6382764b0b42f71bcaa20c69379",
            "0x0000000000000000000000000000000000000000000000000000000000000001"
          ],
          "data": "0xf6eea09800000000000000000000000000000000000000000000000000000000",
          "blockHash": "0x59a9c11c70715b8685d6525fcb1ac92e60f859633b00dfa00fc97b60e15edac5",
          "blockNumber": "0xf62869",
          "transactionHash": "0xdf64bc58e85b7c2a76b8faf46db87b6048581073fb6a668409e1e8c728e5a455",
          "transactionIndex": "0x5",
          "logIndex": "0xe",
          "removed": false
        },
        {
          "address": "0x8120a8e0688be6b2c0bb469f871e5e7023ca85eb",
          "topics": [
            "0x9ea6790c7dadfd01c9f8b9762b3682607af2c7e79e05a9f9fdf5580dde949151",
            "0x000000000000000000000000f6f28475a04ff6382764b0b42f71bcaa20c69379",
            "0x0000000000000000000000000000000000000000000000000000000000000001"
          ],
          "data": "0x74a8f10300000000000000000000000000000000000000000000000000000000",
          "blockHash": "0x59a9c11c70715b8685d6525fcb1ac92e60f859633b00dfa00fc97b60e15edac5",
          "blockNumber": "0xf62869",
          "transactionHash": "0xdf64bc58e85b7c2a76b8faf46db87b6048581073fb6a668409e1e8c728e5a455",
          "transactionIndex": "0x5",
          "logIndex": "0xf",
          "removed": false
        },
        {
          "address": "0x8120a8e0688be6b2c0bb469f871e5e7023ca85eb",
          "topics": [
            "0x9ea6790c7dadfd01c9f8b9762b3682607af2c7e79e05a9f9fdf5580dde949151",
            "0x000000000000000000000000f6f28475a04ff6382764b0b42f71bcaa20c69379",
            "0x0000000000000000000000000000000000000000000000000000000000000001"
          ],
          "data": "0xdaea85c500000000000000000000000000000000000000000000000000000000",
          "blockHash": "0x59a9c11c70715b8685d6525fcb1ac92e60f859633b00dfa00fc97b60e15edac5",
          "blockNumber": "0xf62869",
          "transactionHash": "0xdf64bc58e85b7c2a76b8faf46db87b6048581073fb6a668409e1e8c728e5a455",
          "transactionIndex": "0x5",
          "logIndex": "0x10",
          "removed": false
        },
        {
          "address": "0x0000000000000000000000000000000000001010",
          "topics": [
            "0x4dfe1bbbcf077ddc3e01291eea2d5c70c2b422b415d95645b9adcfd678cb1d63",
            "0x0000000000000000000000000000000000000000000000000000000000001010",
            "0x000000000000000000000000efbbd14082cf2fbcf5badc7ee619f0f4e36d0a5b",
            "0x000000000000000000000000915a2284d28bd93de7d6f31173b981204bb666e6"
          ],
          "data": "0x000000000000000000000000000000000000000000000000000463ccb562ae7c0000000000000000000000000000000000000000000000012cd90f6d6e8afdeb000000000000000000000000000000000000000000000579729a866f95627fb00000000000000000000000000000000000000000000000012cd4aba0b9284f6f000000000000000000000000000000000000000000000579729eea3c4ac52e2c",
          "blockHash": "0x59a9c11c70715b8685d6525fcb1ac92e60f859633b00dfa00fc97b60e15edac5",
          "blockNumber": "0xf62869",
          "transactionHash": "0xdf64bc58e85b7c2a76b8faf46db87b6048581073fb6a668409e1e8c728e5a455",
          "transactionIndex": "0x5",
          "logIndex": "0x11",
          "removed": false
        }
      ],
      "logsBloom": "0x00000004000080000010000001080000000000000000000000000000000000000000000000000000000000000000000000008000000000000000000000040000008000000000000000000000000000800000000000040100000100000000000000000000000000000000000000000000000000000000000080000000000000000800000000000000000000000800000000000000002000000000000000000000200000000000000000000000000000000000400000000000008000000000004000000000000000000001000000200000000002000000000000100000000040000000000000000000000000000000000000000000400000000000000000100000",
      "type": "0x2",
      "transactionHash": "0xdf64bc58e85b7c2a76b8faf46db87b6048581073fb6a668409e1e8c728e5a455",
      "transactionIndex": "0x5",
      "blockHash": "0x59a9c11c70715b8685d6525fcb1ac92e60f859633b00dfa00fc97b60e15edac5",
      "blockNumber": "0xf62869",
      "gasUsed": "0xb444",
      "effectiveGasPrice": "0x63bf00dbe",
      "from": "0xefbbd14082cf2fbcf5badc7ee619f0f4e36d0a5b",
      "to": "0x8120a8e0688be6b2c0bb469f871e5e7023ca85eb",
      "contractAddress": null
    },
    {
      "status": "0x1",
      "cumulativeGasUsed": "0x86fac",
      "logs": [
        {
          "address": "0x8120a8e0688be6b2c0bb469f871e5e7023ca85eb",
          "topics": [
            "0xf98448b987f1428e0e230e1f3c6e2ce15b5693eaf31827fbd0b1ec4b424ae7cf",
            "0x0000000000000000000000000000000000000000000000000000000000000002",
            "0x000000000000000000000000efbbd14082cf2fbcf5badc7ee619f0f4e36d0a5b"
          ],
          "data": "0x000000000000000000000000000000000000000000000000000000000000000000000000000000000000000000000000000000000000000000000000676efe8b0000000000000000000000000000000000000000000000000000000000000000",
          "blockHash": "0x59a9c11c70715b8685d6525fcb1ac92e60f859633b00dfa00fc97b60e15edac5",
          "blockNumber": "0xf62869",
          "transactionHash": "0x7a5f7073d4cc69b16523986b94aa0af0a58e1e97d7834b31353319d340be6a11",
          "transactionIndex": "0x6",
          "logIndex": "0x12",
          "removed": false
        },
        {
          "address": "0x0000000000000000000000000000000000001010",
          "topics": [
            "0x4dfe1bbbcf077ddc3e01291eea2d5c70c2b422b415d95645b9adcfd678cb1d63",
            "0x0000000000000000000000000000000000000000000000000000000000001010",
            "0x000000000000000000000000efbbd14082cf2fbcf5badc7ee619f0f4e36d0a5b",
            "0x000000000000000000000000915a2284d28bd93de7d6f31173b981204bb666e6"
          ],
          "data": "0x0000000000000000000000000000000000000000000000000003f649d1824f5d0000000000000000000000000000000000000000000000012cd4aba0b91dbf73000000000000000000000000000000000000000000000579729eea3c4ac52e2c0000000000000000000000000000000000000000000000012cd0b556e79b701600000000000000000000000000000000000000000000057972a2e0861c477d89",
          "blockHash": "0x59a9c11c70715b8685d6525fcb1ac92e60f859633b00dfa00fc97b60e15edac5",
          "blockNumber": "0xf62869",
          "transactionHash": "0x7a5f7073d4cc69b16523986b94aa0af0a58e1e97d7834b31353319d340be6a11",
          "transactionIndex": "0x6",
          "logIndex": "0x13",
          "removed": false
        }
      ],
      "logsBloom": "0x04000000000000000010000000000000000000000000000000000000000000000000000000000000000000000000000000008000000000000000000000000000008000000000000000000000000000800000000000000100000100000000000000000000000000000000000000000000000000000000000080000000000000000800000000000000000000000800000008000000000000000000000000000000200000000000000000002100000000000000400000000008008000000000004000000000000000000001000000000000000002000000000000100000000000000000000000000000000000000000000000000000408000000000000000100000",
      "type": "0x2",
      "transactionHash": "0x7a5f7073d4cc69b16523986b94aa0af0a58e1e97d7834b31353319d340be6a11",
      "transactionIndex": "0x6",
      "blockHash": "0x59a9c11c70715b8685d6525fcb1ac92e60f859633b00dfa00fc97b60e15edac5",
      "blockNumber": "0xf62869",
      "gasUsed": "0xa2b3",
      "effectiveGasPrice": "0x63bf00dbe",
      "from": "0xefbbd14082cf2fbcf5badc7ee619f0f4e36d0a5b",
      "to": "0x8120a8e0688be6b2c0bb469f871e5e7023ca85eb",
      "contractAddress": null
    },
    {
      "status": "0x1",
      "cumulativeGasUsed": "0x9ae32",
      "logs": [
        {
          "address": "0x8120a8e0688be6b2c0bb469f871e5e7023ca85eb",
          "topics": [
            "0x9ea6790c7dadfd01c9f8b9762b3682607af2c7e79e05a9f9fdf5580dde949151",
            "0x0000000000000000000000003d45c4027611bf8fa09d0f86c55f17e9d54ecdf5",
            "0x0000000000000000000000000000000000000000000000000000000000000002"
          ],
          "data": "0xdaea85c500000000000000000000000000000000000000000000000000000000",
          "blockHash": "0x59a9c11c70715b8685d6525fcb1ac92e60f859633b00dfa00fc97b60e15edac5",
          "blockNumber": "0xf62869",
          "transactionHash": "0x17663267e73bc5c27e7ea30f6a37132dd825c64ca112d785db4490656a5be2b8",
          "transactionIndex": "0x7",
          "logIndex": "0x14",
          "removed": false
        },
        {
          "address": "0x8120a8e0688be6b2c0bb469f871e5e7023ca85eb",
          "topics": [
            "0x9ea6790c7dadfd01c9f8b9762b3682607af2c7e79e05a9f9fdf5580dde949151",
            "0x0000000000000000000000003d45c4027611bf8fa09d0f86c55f17e9d54ecdf5",
            "0x0000000000000000000000000000000000000000000000000000000000000002"
          ],
          "data": "0xab0da5a900000000000000000000000000000000000000000000000000000000",
          "blockHash": "0x59a9c11c70715b8685d6525fcb1ac92e60f859633b00dfa00fc97b60e15edac5",
          "blockNumber": "0xf62869",
          "transactionHash": "0x17663267e73bc5c27e7ea30f6a37132dd825c64ca112d785db4490656a5be2b8",
          "transactionIndex": "0x7",
          "logIndex": "0x15",
          "removed": false
        },
        {
          "address": "0x0000000000000000000000000000000000001010",
          "topics": [
            "0x4dfe1bbbcf077ddc3e01291eea2d5c70c2b422b415d95645b9adcfd678cb1d63",
            "0x0000000000000000000000000000000000000000000000000000000000001010",
            "0x000000000000000000000000efbbd14082cf2fbcf5badc7ee619f0f4e36d0a5b",
            "0x000000000000000000000000915a2284d28bd93de7d6f31173b981204bb666e6"
          ],
          "data": "0x0000000000000000000000000000000000000000000000000007c1b790a68b9a0000000000000000000000000000000000000000000000012cd0b556e791e79900000000000000000000000000000000000000000000057972a2e0861c477d890000000000000000000000000000000000000000000000012cc8f39f56eb5bff00000000000000000000000000000000000000000000057972aaa23dacee0923",
          "blockHash": "0x59a9c11c70715b8685d6525fcb1ac92e60f859633b00dfa00fc97b60e15edac5",
          "blockNumber": "0xf62869",
          "transactionHash": "0x17663267e73bc5c27e7ea30f6a37132dd825c64ca112d785db4490656a5be2b8",
          "transactionIndex": "0x7",
          "logIndex": "0x16",
          "removed": false
        }
      ],
      "logsBloom": "0x04000004000080000010000000000000000000000000000000000000000000000000000000000008000000000000000000008000000000000000800000000000008000000000000002000000000000800000000000000100000100000000000000000000000000000000000000000000000000000000000080000000000000000800000000000000000000000800000000000000000000000000000000000000200000000000000000000100000000000000400000000000008000000000004000000000000000000001000000200000000002000000000000100000000000000000000000000000000000000000000000000000408000000000000000100000",
      "type": "0x2",
      "transactionHash": "0x17663267e73bc5c27e7ea30f6a37132dd825c64ca112d785db4490656a5be2b8",
      "transactionIndex": "0x7",
      "blockHash": "0x59a9c11c70715b8685d6525fcb1ac92e60f859633b00dfa00fc97b60e15edac5",
      "blockNumber": "0xf62869",
      "gasUsed": "0x13e86",
      "effectiveGasPrice": "0x63bf00dbe",
      "from": "0xefbbd14082cf2fbcf5badc7ee619f0f4e36d0a5b",
      "to": "0x8120a8e0688be6b2c0bb469f871e5e7023ca85eb",
      "contractAddress": null
    },
    {
      "status": "0x1",
      "cumulativeGasUsed": "0xa92d6",
      "logs": [
        {
          "address": "0x8120a8e0688be6b2c0bb469f871e5e7023ca85eb",
          "topics": [
            "0xf98448b987f1428e0e230e1f3c6e2ce15b5693eaf31827fbd0b1ec4b424ae7cf",
            "0x0000000000000000000000000000000000000000000000000000000000000004",
            "0x000000000000000000000000c3280fd1b6ed89b256b2a435d003531e99de41f2"
          ],
          "data": "0x000000000000000000000000000000000000000000000000000000000000000000000000000000000000000000000000000000000000000000000000676efe8b0000000000000000000000000000000000000000000000000000000000000001",
          "blockHash": "0x59a9c11c70715b8685d6525fcb1ac92e60f859633b00dfa00fc97b60e15edac5",
          "blockNumber": "0xf62869",
          "transactionHash": "0x35668d7f8f25652975a7313bac7a25346b22c7bee444f924342b287b11c17851",
          "transactionIndex": "0x8",
          "logIndex": "0x17",
          "removed": false
        },
        {
          "address": "0x0000000000000000000000000000000000001010",
          "topics": [
            "0x4dfe1bbbcf077ddc3e01291eea2d5c70c2b422b415d95645b9adcfd678cb1d63",
            "0x0000000000000000000000000000000000000000000000000000000000001010",
            "0x000000000000000000000000efbbd14082cf2fbcf5badc7ee619f0f4e36d0a5b",
            "0x000000000000000000000000915a2284d28bd93de7d6f31173b981204bb666e6"
          ],
          "data": "0x0000000000000000000000000000000000000000000000000005916031f8a01c0000000000000000000000000000000000000000000000012cc8f39f56d8b22500000000000000000000000000000000000000000000057972aaa23dacee09230000000000000000000000000000000000000000000000012cc3623f24e0120900000000000000000000000000000000000000000000057972b0339ddee6a93f",
          "blockHash": "0x59a9c11c70715b8685d6525fcb1ac92e60f859633b00dfa00fc97b60e15edac5",
          "blockNumber": "0xf62869",
          "transactionHash": "0x35668d7f8f25652975a7313bac7a25346b22c7bee444f924342b287b11c17851",
          "transactionIndex": "0x8",
          "logIndex": "0x18",
          "removed": false
        }
      ],
      "logsBloom": "0x0000000000000000001000000000000000000000000000000000000000000000000000000000000000000000001000000000800000000000000000000000000000800000000000000000000000000080080000000000810000010000000000000800000000000000000000000000000000000000000000008000000000000000080000000000000000000000080000000800000000000000000000000000000020000000000000000000200000000000000040000000000800a000000000004000000000000000000001000000000000000002008000000000100000000000000000000000000000000000000000000000000000400000000000000000100000",
      "type": "0x2",
      "transactionHash": "0x35668d7f8f25652975a7313bac7a25346b22c7bee444f924342b287b11c17851",
      "transactionIndex": "0x8",
      "blockHash": "0x59a9c11c70715b8685d6525fcb1ac92e60f859633b00dfa00fc97b60e15edac5",
      "blockNumber": "0xf62869",
      "gasUsed": "0xe4a4",
      "effectiveGasPrice": "0x63bf00dbe",
      "from": "0xefbbd14082cf2fbcf5badc7ee619f0f4e36d0a5b",
      "to": "0x8120a8e0688be6b2c0bb469f871e5e7023ca85eb",
      "contractAddress": null
    },
    {
      "status": "0x1",
      "cumulativeGasUsed": "0xe4a4",
      "logs": [
        {
          "address": "0x8120a8e0688be6b2c0bb469f871e5e7023ca85eb",
          "topics": [
            "0xf98448b987f1428e0e230e1f3c6e2ce15b5693eaf31827fbd0b1ec4b424ae7cf",
            "0x0000000000000000000000000000000000000000000000000000000000000004",
            "0x000000000000000000000000f6b5d2ebbcfb247d675ac0ddf795383f5d49dff1"
          ],
          "data": "0x000000000000000000000000000000000000000000000000000000000000000000000000000000000000000000000000000000000000000000000000676efe8d0000000000000000000000000000000000000000000000000000000000000001",
          "blockHash": "0x7b7a16d2abb8d2c6c1cedefc788daa8a3aa51ba98fe488acaefd165a80d5c1d6",
          "blockNumber": "0xf6286a",
          "transactionHash": "0xd7937fbf4769a1aaa76b806250b49e1dd37711191b5bb225847c0ca1b66c34a3",
          "transactionIndex": "0x0",
          "logIndex": "0x0",
          "removed": false
        },
        {
          "address": "0x0000000000000000000000000000000000001010",
          "topics": [
            "0x4dfe1bbbcf077ddc3e01291eea2d5c70c2b422b415d95645b9adcfd678cb1d63",
            "0x0000000000000000000000000000000000000000000000000000000000001010",
            "0x000000000000000000000000efbbd14082cf2fbcf5badc7ee619f0f4e36d0a5b",
            "0x000000000000000000000000915a2284d28bd93de7d6f31173b981204bb666e6"
          ],
          "data": "0x0000000000000000000000000000000000000000000000000005916031f8a01c0000000000000000000000000000000000000000000000012cc3623f24d2ac6d00000000000000000000000000000000000000000000057972b0339ddee6a93f0000000000000000000000000000000000000000000000012cbdd0def2da0c5100000000000000000000000000000000000000000000057972b5c4fe10df495b",
          "blockHash": "0x7b7a16d2abb8d2c6c1cedefc788daa8a3aa51ba98fe488acaefd165a80d5c1d6",
          "blockNumber": "0xf6286a",
          "transactionHash": "0xd7937fbf4769a1aaa76b806250b49e1dd37711191b5bb225847c0ca1b66c34a3",
          "transactionIndex": "0x0",
          "logIndex": "0x1",
          "removed": false
        }
      ],
      "logsBloom": "0x0000000000000000001000000000000000000000000000000000000000000000000000000000000000000000200000000000800000000000000000000000000000800000000000000000000000000080000000000000010000010000000000000800000000000000000000000000000000000000000000008000000000000000080000000000000000008000080000000800000000000000000000000000000020000000000000000000200040000000000040000000000800a000000000004000000000000000000001000000000000000002008000000000100000000000000000000000000000000000000000000000000000400000000000000000100000",
      "type": "0x2",
      "transactionHash": "0xd7937fbf4769a1aaa76b806250b49e1dd37711191b5bb225847c0ca1b66c34a3",
      "transactionIndex": "0x0",
      "blockHash": "0x7b7a16d2abb8d2c6c1cedefc788daa8a3aa51ba98fe488acaefd165a80d5c1d6",
      "blockNumber": "0xf6286a",
      "gasUsed": "0xe4a4",
      "effectiveGasPrice": "0x63bf00dbe",
      "from": "0xefbbd14082cf2fbcf5badc7ee619f0f4e36d0a5b",
      "to": "0x8120a8e0688be6b2c0bb469f871e5e7023ca85eb",
      "contractAddress": null
    },
    {
      "status": "0x1",
      "cumulativeGasUsed": "0x1c948",
      "logs": [
        {
          "address": "0x8120a8e0688be6b2c0bb469f871e5e7023ca85eb",
          "topics": [
            "0xf98448b987f1428e0e230e1f3c6e2ce15b5693eaf31827fbd0b1ec4b424ae7cf",
            "0x0000000000000000000000000000000000000000000000000000000000000004",
            "0x000000000000000000000000f6f28475a04ff6382764b0b42f71bcaa20c69379"
          ],
          "data": "0x000000000000000000000000000000000000000000000000000000000000000000000000000000000000000000000000000000000000000000000000676efe8d0000000000000000000000000000000000000000000000000000000000000001",
          "blockHash": "0x7b7a16d2abb8d2c6c1cedefc788daa8a3aa51ba98fe488acaefd165a80d5c1d6",
          "blockNumber": "0xf6286a",
          "transactionHash": "0xcf96a60a0ea3c1d5f7c3bc47520e4d4ceef7d53eecb611b2f8987099fbd39ddf",
          "transactionIndex": "0x1",
          "logIndex": "0x2",
          "removed": false
        },
        {
          "address": "0x0000000000000000000000000000000000001010",
          "topics": [
            "0x4dfe1bbbcf077ddc3e01291eea2d5c70c2b422b415d95645b9adcfd678cb1d63",
            "0x0000000000000000000000000000000000000000000000000000000000001010",
            "0x000000000000000000000000efbbd14082cf2fbcf5badc7ee619f0f4e36d0a5b",
            "0x000000000000000000000000915a2284d28bd93de7d6f31173b981204bb666e6"
          ],
          "data": "0x0000000000000000000000000000000000000000000000000005916031f8a01c0000000000000000000000000000000000000000000000012cbdd0def2cca6b500000000000000000000000000000000000000000000057972b5c4fe10df495b0000000000000000000000000000000000000000000000012cb83f7ec0d4069900000000000000000000000000000000000000000000057972bb565e42d7e977",
          "blockHash": "0x7b7a16d2abb8d2c6c1cedefc788daa8a3aa51ba98fe488acaefd165a80d5c1d6",
          "blockNumber": "0xf6286a",
          "transactionHash": "0xcf96a60a0ea3c1d5f7c3bc47520e4d4ceef7d53eecb611b2f8987099fbd39ddf",
          "transactionIndex": "0x1",
          "logIndex": "0x3",
          "removed": false
        }
      ],
      "logsBloom": "0x0000000000000000001000000108000000000000000000000000000000000000000000000000000000000000000000000000800000000000000000000000000000800000000000000000000000000080000000000000010000010000000000000800000000000000000000000000000000000000000000008000000000000000080000000000000000000000080000000800000000200000000000000000000020000000000000000000200000000000000040000000000800a000000000004000000000000000000001000000000000000002008000000000100000000000000000000000000000000000000000000000000000400000000000000000100000",
      "type": "0x2",
      "transactionHash": "0xcf96a60a0ea3c1d5f7c3bc47520e4d4ceef7d53eecb611b2f8987099fbd39ddf",
      "transactionIndex": "0x1",
      "blockHash": "0x7b7a16d2abb8d2c6c1cedefc788daa8a3aa51ba98fe488acaefd165a80d5c1d6",
      "blockNumber": "0xf6286a",
      "gasUsed": "0xe4a4",
      "effectiveGasPrice": "0x63bf00dbe",
      "from": "0xefbbd14082cf2fbcf5badc7ee619f0f4e36d0a5b",
      "to": "0x8120a8e0688be6b2c0bb469f871e5e7023ca85eb",
      "contractAddress": null
    },
    {
      "status": "0x1",
      "cumulativeGasUsed": "0x366c0",
      "logs": [
        {
          "address": "0x8120a8e0688be6b2c0bb469f871e5e7023ca85eb",
          "topics": [
            "0x9ea6790c7dadfd01c9f8b9762b3682607af2c7e79e05a9f9fdf5580dde949151",
            "0x000000000000000000000000e03c8141275d8ef95aa9c7ad742bef915a3c835d",
            "0x0000000000000000000000000000000000000000000000000000000000000004"
          ],
          "data": "0x4bbc170a00000000000000000000000000000000000000000000000000000000",
          "blockHash": "0x7b7a16d2abb8d2c6c1cedefc788daa8a3aa51ba98fe488acaefd165a80d5c1d6",
          "blockNumber": "0xf6286a",
          "transactionHash": "0x6ac816365a12ff047da2724f87b09f9a06269d236a5dfa738ad215f9d8c8f1a5",
          "transactionIndex": "0x2",
          "logIndex": "0x4",
          "removed": false
        },
        {
          "address": "0x8120a8e0688be6b2c0bb469f871e5e7023ca85eb",
          "topics": [
            "0x9ea6790c7dadfd01c9f8b9762b3682607af2c7e79e05a9f9fdf5580dde949151",
            "0x000000000000000000000000e03c8141275d8ef95aa9c7ad742bef915a3c835d",
            "0x0000000000000000000000000000000000000000000000000000000000000004"
          ],
          "data": "0x15f4150100000000000000000000000000000000000000000000000000000000",
          "blockHash": "0x7b7a16d2abb8d2c6c1cedefc788daa8a3aa51ba98fe488acaefd165a80d5c1d6",
          "blockNumber": "0xf6286a",
          "transactionHash": "0x6ac816365a12ff047da2724f87b09f9a06269d236a5dfa738ad215f9d8c8f1a5",
          "transactionIndex": "0x2",
          "logIndex": "0x5",
          "removed": false
        },
        {
          "address": "0x8120a8e0688be6b2c0bb469f871e5e7023ca85eb",
          "topics": [
            "0x9ea6790c7dadfd01c9f8b9762b3682607af2c7e79e05a9f9fdf5580dde949151",
            "0x000000000000000000000000e03c8141275d8ef95aa9c7ad742bef915a3c835d",
            "0x0000000000000000000000000000000000000000000000000000000000000004"
          ],
          "data": "0x9e96a26000000000000000000000000000000000000000000000000000000000",
          "blockHash": "0x7b7a16d2abb8d2c6c1cedefc788daa8a3aa51ba98fe488acaefd165a80d5c1d6",
          "blockNumber": "0xf6286a",
          "transactionHash": "0x6ac816365a12ff047da2724f87b09f9a06269d236a5dfa738ad215f9d8c8f1a5",
          "transactionIndex": "0x2",
          "logIndex": "0x6",
          "removed": false
        },
        {
          "address": "0x0000000000000000000000000000000000001010",
          "topics": [
            "0x4dfe1bbbcf077ddc3e01291eea2d5c70c2b422b415d95645b9adcfd678cb1d63",
            "0x0000000000000000000000000000000000000000000000000000000000001010",
            "0x000000000000000000000000efbbd14082cf2fbcf5badc7ee619f0f4e36d0a5b",
            "0x000000000000000000000000915a2284d28bd93de7d6f31173b981204bb666e6"
          ],
          "data": "0x000000000000000000000000000000000000000000000000000a119e5e99bd080000000000000000000000000000000000000000000000012cb83f7ec0c6a0fd00000000000000000000000000000000000000000000057972bb565e42d7e9770000000000000000000000000000000000000000000000012cae2de0622ce3f500000000000000000000000000000000000000000000057972c567fca171a67f",
          "blockHash": "0x7b7a16d2abb8d2c6c1cedefc788daa8a3aa51ba98fe488acaefd165a80d5c1d6",
          "blockNumber": "0xf6286a",
          "transactionHash": "0x6ac816365a12ff047da2724f87b09f9a06269d236a5dfa738ad215f9d8c8f1a5",
          "transactionIndex": "0x2",
          "logIndex": "0x7",
          "removed": false
        }
      ],
      "logsBloom": "0x0000000400008000001000000000000000000000000000000000000000000000000000000000000000000000000000000000800000000000000000000000000000800000000000000000000000000080000000000000010000010000000000000820000000000400000000000000000000000000000000008000000000000000080000000000004000000000080000000000000000000000000000000000000020000000000000000000000000000000000040000000000000a000000000004000000000000000000001000000200000000002008000000000100000000000000000000000000000000000000000000000000000400000000000000000100000",
      "type": "0x2",
      "transactionHash": "0x6ac816365a12ff047da2724f87b09f9a06269d236a5dfa738ad215f9d8c8f1a5",
      "transactionIndex": "0x2",
      "blockHash": "0x7b7a16d2abb8d2c6c1cedefc788daa8a3aa51ba98fe488acaefd165a80d5c1d6",
      "blockNumber": "0xf6286a",
      "gasUsed": "0x19d78",
      "effectiveGasPrice": "0x63bf00dbe",
      "from": "0xefbbd14082cf2fbcf5badc7ee619f0f4e36d0a5b",
      "to": "0x8120a8e0688be6b2c0bb469f871e5e7023ca85eb",
      "contractAddress": null
    },
    {
      "status": "0x1",
      "cumulativeGasUsed": "0x57ca3",
      "logs": [
        {
          "address": "0xb5761b35134f812699b9711e9a00069a321718ea",
          "topics": [
            "0xfbbd6e9cc51f124b05f08f20e9aef57fb26fc9a927be06212c59506610581335",
            "0x0000000000000000000000003c7deb6feaeb7a82bde580fb73d8d69c401b219e",
            "0x000000000000000000000000efbbd14082cf2fbcf5badc7ee619f0f4e36d0a5b"
          ],
          "data": "0x00000000000000000000000000000000000000000000000000000000000001f40000000000000000000000000000000000000000000000000000000000000002",
          "blockHash": "0x7b7a16d2abb8d2c6c1cedefc788daa8a3aa51ba98fe488acaefd165a80d5c1d6",
          "blockNumber": "0xf6286a",
          "transactionHash": "0x40197a23c1bfd400a06d2544cdc37820bc4950fe2f3c66c0217a14bb42759fc9",
          "transactionIndex": "0x3",
          "logIndex": "0x8",
          "removed": false
        },
        {
          "address": "0x0000000000000000000000000000000000001010",
          "topics": [
            "0x4dfe1bbbcf077ddc3e01291eea2d5c70c2b422b415d95645b9adcfd678cb1d63",
            "0x0000000000000000000000000000000000000000000000000000000000001010",
            "0x000000000000000000000000efbbd14082cf2fbcf5badc7ee619f0f4e36d0a5b",
            "0x000000000000000000000000915a2284d28bd93de7d6f31173b981204bb666e6"
          ],
          "data": "0x000000000000000000000000000000000000000000000000000d0051f2597d2d0000000000000000000000000000000000000000000000012cae2de06214a9ed00000000000000000000000000000000000000000000057972c567fca171a67f0000000000000000000000000000000000000000000000012ca12d8e6fbb2cc000000000000000000000000000000000000000000000057972d2684e93cb23ac",
          "blockHash": "0x7b7a16d2abb8d2c6c1cedefc788daa8a3aa51ba98fe488acaefd165a80d5c1d6",
          "blockNumber": "0xf6286a",
          "transactionHash": "0x40197a23c1bfd400a06d2544cdc37820bc4950fe2f3c66c0217a14bb42759fc9",
          "transactionIndex": "0x3",
          "logIndex": "0x9",
          "removed": false
        }
      ],
      "logsBloom": "0x00000000000000000010800000000000000000000000000000800000000000000000000000000000000000000000000000008000000000000000000000000000008000000000000000000000000000800000000000000020000100000000000000001000000000400000000000000000000000000000000080000000004000000800000000000000000000000000000000000000000000000000000000000000200000000000000000000000000000000000400010000000000000000000004000000000000000000001000000000000000802000000000000100000000000000004000000000000000000000000000000000000400000000000000000100000",
      "type": "0x2",
      "transactionHash": "0x40197a23c1bfd400a06d2544cdc37820bc4950fe2f3c66c0217a14bb42759fc9",
      "transactionIndex": "0x3",
      "blockHash": "0x7b7a16d2abb8d2c6c1cedefc788daa8a3aa51ba98fe488acaefd165a80d5c1d6",
      "blockNumber": "0xf6286a",
      "gasUsed": "0x215e3",
      "effectiveGasPrice": "0x63bf00dbe",
      "from": "0xefbbd14082cf2fbcf5badc7ee619f0f4e36d0a5b",
      "to": "0xb5761b35134f812699b9711e9a00069a321718ea",
      "contractAddress": null
    },
    {
      "status": "0x1",
      "cumulativeGasUsed": "0x792ab",
      "logs": [
        {
          "address": "0xb5761b35134f812699b9711e9a00069a321718ea",
          "topics": [
            "0xfbbd6e9cc51f124b05f08f20e9aef57fb26fc9a927be06212c59506610581335",
            "0x0000000000000000000000003c7deb6feaeb7a82bde580fb73d8d69c401b219e",
            "0x000000000000000000000000efbbd14082cf2fbcf5badc7ee619f0f4e36d0a5b"
          ],
          "data": "0x0000000000000000000000000000000000000000000000056bc75e2d631000000000000000000000000000000000000000000000000000000000000000000001",
          "blockHash": "0x7b7a16d2abb8d2c6c1cedefc788daa8a3aa51ba98fe488acaefd165a80d5c1d6",
          "blockNumber": "0xf6286a",
          "transactionHash": "0xe77f832c8050362700fb538816000e3659ff765d875ca76e9e607ab8cb17a822",
          "transactionIndex": "0x4",
          "logIndex": "0xa",
          "removed": false
        },
        {
          "address": "0x0000000000000000000000000000000000001010",
          "topics": [
            "0x4dfe1bbbcf077ddc3e01291eea2d5c70c2b422b415d95645b9adcfd678cb1d63",
            "0x0000000000000000000000000000000000000000000000000000000000001010",
            "0x000000000000000000000000efbbd14082cf2fbcf5badc7ee619f0f4e36d0a5b",
            "0x000000000000000000000000915a2284d28bd93de7d6f31173b981204bb666e6"
          ],
          "data": "0x000000000000000000000000000000000000000000000000000d01389c0b77780000000000000000000000000000000000000000000000012ca12d8e6f9be47300000000000000000000000000000000000000000000057972d2684e93cb23ac0000000000000000000000000000000000000000000000012c942c55d3906cfb00000000000000000000000000000000000000000000057972df69872fd69b24",
          "blockHash": "0x7b7a16d2abb8d2c6c1cedefc788daa8a3aa51ba98fe488acaefd165a80d5c1d6",
          "blockNumber": "0xf6286a",
          "transactionHash": "0xe77f832c8050362700fb538816000e3659ff765d875ca76e9e607ab8cb17a822",
          "transactionIndex": "0x4",
          "logIndex": "0xb",
          "removed": false
        }
      ],
      "logsBloom": "0x00000000000000000010800000000000000000000000000000800000000000000000000000000000000000000000000000008000000000000000000000000000008000000000000000000000000000800000000000000020000100000000000000001000000000400000000000000000000000000000000080000000004000000800000000000000000000000000000000000000000000000000000000000000200000000000000000000000000000000000400010000000000000000000004000000000000000000001000000000000000802000000000000100000000000000004000000000000000000000000000000000000400000000000000000100000",
      "type": "0x2",
      "transactionHash": "0xe77f832c8050362700fb538816000e3659ff765d875ca76e9e607ab8cb17a822",
      "transactionIndex": "0x4",
      "blockHash": "0x7b7a16d2abb8d2c6c1cedefc788daa8a3aa51ba98fe488acaefd165a80d5c1d6",
      "blockNumber": "0xf6286a",
      "gasUsed": "0x21608",
      "effectiveGasPrice": "0x63bf00dbe",
      "from": "0xefbbd14082cf2fbcf5badc7ee619f0f4e36d0a5b",
      "to": "0xb5761b35134f812699b9711e9a00069a321718ea",
      "contractAddress": null
    }
  ],
  "libraries": [],
  "pending": [],
  "returns": {},
  "timestamp": 1735327374,
  "chain": 80002,
  "commit": "97f1e6a"
}