{
  "transactions": [
    {
      "hash": "0xbc8c8904725332469caef19939a431f09101c5e61d8ee969838993ea758ea663",
      "transactionType": "CALL",
      "contractName": null,
      "contractAddress": "0x86ac30d927ee1641ee16d4420b5cbcb5b180b3db",
      "function": "grantRole(uint64,address,uint32)",
      "arguments": [
        "1",
        "0xEFBBD14082cF2FbCf5Badc7ee619F0f4e36D0A5B",
        "0"
      ],
      "transaction": {
        "from": "0xefbbd14082cf2fbcf5badc7ee619f0f4e36d0a5b",
        "to": "0x86ac30d927ee1641ee16d4420b5cbcb5b180b3db",
        "gas": "0xedf2",
        "value": "0x0",
        "input": "0x25c471a00000000000000000000000000000000000000000000000000000000000000001000000000000000000000000efbbd14082cf2fbcf5badc7ee619f0f4e36d0a5b0000000000000000000000000000000000000000000000000000000000000000",
        "nonce": "0x65b",
        "chainId": "0x13882"
      },
      "additionalContracts": [],
      "isFixedGasLimit": false
    },
    {
      "hash": "0x2d951414a586169f906535f529ff20768bad5d83c54b2c6794c17d90cc9562a5",
      "transactionType": "CALL",
      "contractName": null,
      "contractAddress": "0x86ac30d927ee1641ee16d4420b5cbcb5b180b3db",
      "function": "setTargetFunctionRole(address,bytes4[],uint64)",
      "arguments": [
        "0x377979CD68e1740EF41905664C5abE93Ec0FdB0d",
        "[0xecf441b7]",
        "1"
      ],
      "transaction": {
        "from": "0xefbbd14082cf2fbcf5badc7ee619f0f4e36d0a5b",
        "to": "0x86ac30d927ee1641ee16d4420b5cbcb5b180b3db",
        "gas": "0xc971",
        "value": "0x0",
        "input": "0x08d6122d000000000000000000000000377979cd68e1740ef41905664c5abe93ec0fdb0d000000000000000000000000000000000000000000000000000000000000006000000000000000000000000000000000000000000000000000000000000000010000000000000000000000000000000000000000000000000000000000000001ecf441b700000000000000000000000000000000000000000000000000000000",
        "nonce": "0x65c",
        "chainId": "0x13882"
      },
      "additionalContracts": [],
      "isFixedGasLimit": false
    },
    {
      "hash": "0x836ab6a39884a3aba358ec63634b531b21fd0c00cf85c15014535a78daf7f8de",
      "transactionType": "CALL",
      "contractName": null,
      "contractAddress": "0x86ac30d927ee1641ee16d4420b5cbcb5b180b3db",
      "function": "setTargetFunctionRole(address,bytes4[],uint64)",
      "arguments": [
        "0x0108FDc1677f9CcFE88b8500Bf2Df668455B31Bf",
        "[0x06af20da]",
        "1"
      ],
      "transaction": {
        "from": "0xefbbd14082cf2fbcf5badc7ee619f0f4e36d0a5b",
        "to": "0x86ac30d927ee1641ee16d4420b5cbcb5b180b3db",
        "gas": "0xc960",
        "value": "0x0",
        "input": "0x08d6122d0000000000000000000000000108fdc1677f9ccfe88b8500bf2df668455b31bf00000000000000000000000000000000000000000000000000000000000000600000000000000000000000000000000000000000000000000000000000000001000000000000000000000000000000000000000000000000000000000000000106af20da00000000000000000000000000000000000000000000000000000000",
        "nonce": "0x65d",
        "chainId": "0x13882"
      },
      "additionalContracts": [],
      "isFixedGasLimit": false
    },
    {
      "hash": "0x498230c338e947454b9388ed5ac8722d87d84bedda986eee07d17a88fb7e9426",
      "transactionType": "CALL",
      "contractName": null,
      "contractAddress": "0x86ac30d927ee1641ee16d4420b5cbcb5b180b3db",
      "function": "setTargetFunctionRole(address,bytes4[],uint64)",
      "arguments": [
        "0xf7Cb897153B4b4C5416413aD797A03cba58261b2",
        "[0xdaea85c5, 0xab0da5a9]",
        "1"
      ],
      "transaction": {
        "from": "0xefbbd14082cf2fbcf5badc7ee619f0f4e36d0a5b",
        "to": "0x86ac30d927ee1641ee16d4420b5cbcb5b180b3db",
        "gas": "0xe137",
        "value": "0x0",
        "input": "0x08d6122d000000000000000000000000f7cb897153b4b4c5416413ad797a03cba58261b2000000000000000000000000000000000000000000000000000000000000006000000000000000000000000000000000000000000000000000000000000000010000000000000000000000000000000000000000000000000000000000000002daea85c500000000000000000000000000000000000000000000000000000000ab0da5a900000000000000000000000000000000000000000000000000000000",
        "nonce": "0x65e",
        "chainId": "0x13882"
      },
      "additionalContracts": [],
      "isFixedGasLimit": false
    },
    {
      "hash": "0x52e4109726a3509f89d16846a3ac9b320ae07170ab8a82c2d2bf7eba33a1ef23",
      "transactionType": "CALL",
      "contractName": null,
      "contractAddress": "0x86ac30d927ee1641ee16d4420b5cbcb5b180b3db",
      "function": "setTargetFunctionRole(address,bytes4[],uint64)",
      "arguments": [
        "0x890BA96CE986CF7720d8626607972198a2DfEDf9",
        "[0x20c5429b, 0xb8adaa11, 0xb759f954]",
        "1"
      ],
      "transaction": {
        "from": "0xefbbd14082cf2fbcf5badc7ee619f0f4e36d0a5b",
        "to": "0x86ac30d927ee1641ee16d4420b5cbcb5b180b3db",
        "gas": "0xf8fd",
        "value": "0x0",
        "input": "0x08d6122d000000000000000000000000890ba96ce986cf7720d8626607972198a2dfedf900000000000000000000000000000000000000000000000000000000000000600000000000000000000000000000000000000000000000000000000000000001000000000000000000000000000000000000000000000000000000000000000320c5429b00000000000000000000000000000000000000000000000000000000b8adaa1100000000000000000000000000000000000000000000000000000000b759f95400000000000000000000000000000000000000000000000000000000",
        "nonce": "0x65f",
        "chainId": "0x13882"
      },
      "additionalContracts": [],
      "isFixedGasLimit": false
    },
    {
      "hash": "0x75b3fa5c15921cf9f6285da4089d7a5dbfe7324d505f43e7739578ac48161462",
      "transactionType": "CALL",
      "contractName": null,
      "contractAddress": "0x86ac30d927ee1641ee16d4420b5cbcb5b180b3db",
      "function": "setTargetFunctionRole(address,bytes4[],uint64)",
      "arguments": [
        "0x108976Dc7dC5B52597BDfeE15908232a298Be74D",
        "[0xf6eea098, 0x74a8f103, 0xdaea85c5]",
        "1"
      ],
      "transaction": {
        "from": "0xefbbd14082cf2fbcf5badc7ee619f0f4e36d0a5b",
        "to": "0x86ac30d927ee1641ee16d4420b5cbcb5b180b3db",
        "gas": "0xf8fd",
        "value": "0x0",
        "input": "0x08d6122d000000000000000000000000108976dc7dc5b52597bdfee15908232a298be74d000000000000000000000000000000000000000000000000000000000000006000000000000000000000000000000000000000000000000000000000000000010000000000000000000000000000000000000000000000000000000000000003f6eea0980000000000000000000000000000000000000000000000000000000074a8f10300000000000000000000000000000000000000000000000000000000daea85c500000000000000000000000000000000000000000000000000000000",
        "nonce": "0x660",
        "chainId": "0x13882"
      },
      "additionalContracts": [],
      "isFixedGasLimit": false
    },
    {
      "hash": "0x64675f6ad94a6b222a5d83c3c3aa752d3264b9608deb54eefbd2fa0fd69529a3",
      "transactionType": "CALL",
      "contractName": null,
      "contractAddress": "0x377979cd68e1740ef41905664c5abe93ec0fdb0d",
      "function": "setFees(uint8,uint256,address)",
      "arguments": [
        "2",
        "500",
        "0x9A0A455BAbAC0143e7bF7001e9A22Be0d919B643"
      ],
      "transaction": {
        "from": "0xefbbd14082cf2fbcf5badc7ee619f0f4e36d0a5b",
        "to": "0x377979cd68e1740ef41905664c5abe93ec0fdb0d",
        "gas": "0x12aaf",
        "value": "0x0",
        "input": "0xecf441b7000000000000000000000000000000000000000000000000000000000000000200000000000000000000000000000000000000000000000000000000000001f40000000000000000000000009a0a455babac0143e7bf7001e9a22be0d919b643",
        "nonce": "0x661",
        "chainId": "0x13882"
      },
      "additionalContracts": [],
      "isFixedGasLimit": false
    },
    {
      "hash": "0xd3ef5a55599a3b2f503db17f44a990fa1e0cf48f80865da24113f28ed2e54a63",
      "transactionType": "CALL",
      "contractName": null,
      "contractAddress": "0x377979cd68e1740ef41905664c5abe93ec0fdb0d",
      "function": "setFees(uint8,uint256,address)",
      "arguments": [
        "1",
        "100000000000000000000",
        "0x9A0A455BAbAC0143e7bF7001e9A22Be0d919B643"
      ],
      "transaction": {
        "from": "0xefbbd14082cf2fbcf5badc7ee619f0f4e36d0a5b",
        "to": "0x377979cd68e1740ef41905664c5abe93ec0fdb0d",
        "gas": "0x11a4b",
        "value": "0x0",
        "input": "0xecf441b700000000000000000000000000000000000000000000000000000000000000010000000000000000000000000000000000000000000000056bc75e2d631000000000000000000000000000009a0a455babac0143e7bf7001e9a22be0d919b643",
        "nonce": "0x662",
        "chainId": "0x13882"
      },
      "additionalContracts": [],
      "isFixedGasLimit": false
    }
  ],
  "receipts": [
    {
      "status": "0x1",
      "cumulativeGasUsed": "0xa2b3",
      "logs": [
        {
          "address": "0x86ac30d927ee1641ee16d4420b5cbcb5b180b3db",
          "topics": [
            "0xf98448b987f1428e0e230e1f3c6e2ce15b5693eaf31827fbd0b1ec4b424ae7cf",
            "0x0000000000000000000000000000000000000000000000000000000000000001",
            "0x000000000000000000000000efbbd14082cf2fbcf5badc7ee619f0f4e36d0a5b"
          ],
          "data": "0x000000000000000000000000000000000000000000000000000000000000000000000000000000000000000000000000000000000000000000000000673e19c50000000000000000000000000000000000000000000000000000000000000000",
          "blockHash": "0x612a62636edee33d99b9f7bfa8b50fa11ae50ed98229d324b3ffb656a1a92125",
          "blockNumber": "0xdfc1bb",
          "transactionHash": "0xbc8c8904725332469caef19939a431f09101c5e61d8ee969838993ea758ea663",
          "transactionIndex": "0x0",
          "logIndex": "0x0",
          "removed": false
        },
        {
          "address": "0x0000000000000000000000000000000000001010",
          "topics": [
            "0x4dfe1bbbcf077ddc3e01291eea2d5c70c2b422b415d95645b9adcfd678cb1d63",
            "0x0000000000000000000000000000000000000000000000000000000000001010",
            "0x000000000000000000000000efbbd14082cf2fbcf5badc7ee619f0f4e36d0a5b",
            "0x00000000000000000000000004ba3ef4c023c1006019a0f9baf6e70455e41fcf"
          ],
          "data": "0x0000000000000000000000000000000000000000000000000005ecbb5f82cb4000000000000000000000000000000000000000000000000041758f545397f9eb00000000000000000000000000000000000000000000015dea344be4c5613e44000000000000000000000000000000000000000000000000416fa298f4152eab00000000000000000000000000000000000000000000015dea3a38a024e40984",
          "blockHash": "0x612a62636edee33d99b9f7bfa8b50fa11ae50ed98229d324b3ffb656a1a92125",
          "blockNumber": "0xdfc1bb",
          "transactionHash": "0xbc8c8904725332469caef19939a431f09101c5e61d8ee969838993ea758ea663",
          "transactionIndex": "0x0",
          "logIndex": "0x1",
          "removed": false
        }
      ],
      "logsBloom": "0x00000000000000000000000000000000100000000000000000000000000004000000000000000000000000000000000000008000000000000000000000040000008000000000000000000000000000800010000000040000000100000000000000000000000000000000000000000000000000000000000080000000000000000800000000004000000000000000000008000000000000000000000000000000200000000000000000002000000000000000400000000008000000002000004000000000000000000001000000000000000000000000000000100000000040000000000000000000000000000000000000000000000000000000000000100000",
      "type": "0x2",
      "transactionHash": "0xbc8c8904725332469caef19939a431f09101c5e61d8ee969838993ea758ea663",
      "transactionIndex": "0x0",
      "blockHash": "0x612a62636edee33d99b9f7bfa8b50fa11ae50ed98229d324b3ffb656a1a92125",
      "blockNumber": "0xdfc1bb",
      "gasUsed": "0xa2b3",
      "effectiveGasPrice": "0x95282a7cf",
      "from": "0xefbbd14082cf2fbcf5badc7ee619f0f4e36d0a5b",
      "to": "0x86ac30d927ee1641ee16d4420b5cbcb5b180b3db",
      "contractAddress": null
    },
    {
      "status": "0x1",
      "cumulativeGasUsed": "0x91d8",
      "logs": [
        {
          "address": "0x86ac30d927ee1641ee16d4420b5cbcb5b180b3db",
          "topics": [
            "0x9ea6790c7dadfd01c9f8b9762b3682607af2c7e79e05a9f9fdf5580dde949151",
            "0x000000000000000000000000377979cd68e1740ef41905664c5abe93ec0fdb0d",
            "0x0000000000000000000000000000000000000000000000000000000000000001"
          ],
          "data": "0xecf441b700000000000000000000000000000000000000000000000000000000",
          "blockHash": "0xb26bbbcb7f2e3a4bff9344518517796816cf5beebc197eaeed7e2955534c8956",
          "blockNumber": "0xdfc1bc",
          "transactionHash": "0x2d951414a586169f906535f529ff20768bad5d83c54b2c6794c17d90cc9562a5",
          "transactionIndex": "0x0",
          "logIndex": "0x0",
          "removed": false
        },
        {
          "address": "0x0000000000000000000000000000000000001010",
          "topics": [
            "0x4dfe1bbbcf077ddc3e01291eea2d5c70c2b422b415d95645b9adcfd678cb1d63",
            "0x0000000000000000000000000000000000000000000000000000000000001010",
            "0x000000000000000000000000efbbd14082cf2fbcf5badc7ee619f0f4e36d0a5b",
            "0x00000000000000000000000004ba3ef4c023c1006019a0f9baf6e70455e41fcf"
          ],
          "data": "0x00000000000000000000000000000000000000000000000000054f999f414a00000000000000000000000000000000000000000000000000416fa298f40ba62e00000000000000000000000000000000000000000000015dea3a38a024e40984000000000000000000000000000000000000000000000000416a52ff54ca5c2e00000000000000000000000000000000000000000000015dea3f8839c4255384",
          "blockHash": "0xb26bbbcb7f2e3a4bff9344518517796816cf5beebc197eaeed7e2955534c8956",
          "blockNumber": "0xdfc1bc",
          "transactionHash": "0x2d951414a586169f906535f529ff20768bad5d83c54b2c6794c17d90cc9562a5",
          "transactionIndex": "0x0",
          "logIndex": "0x1",
          "removed": false
        }
      ],
      "logsBloom": "0x00000004000080000000000000000000100000000000000000000000000004000000000000000000000000000000000000008000000000000000000000040000008000000000000000000000000000800010000000040000000120000000000000000000000000000000000000000000000000000000000080000000000001000800000000004000000000000020000000000000000000000000000000000000200000000000000000000000000000000000400000000000000000002000004000000000000000000001000000200000000000000000000000100000000040000000000000000000000000000000000000000000000000000000000000100000",
      "type": "0x2",
      "transactionHash": "0x2d951414a586169f906535f529ff20768bad5d83c54b2c6794c17d90cc9562a5",
      "transactionIndex": "0x0",
      "blockHash": "0xb26bbbcb7f2e3a4bff9344518517796816cf5beebc197eaeed7e2955534c8956",
      "blockNumber": "0xdfc1bc",
      "gasUsed": "0x91d8",
      "effectiveGasPrice": "0x95282a7cf",
      "from": "0xefbbd14082cf2fbcf5badc7ee619f0f4e36d0a5b",
      "to": "0x86ac30d927ee1641ee16d4420b5cbcb5b180b3db",
      "contractAddress": null
    },
    {
      "status": "0x1",
      "cumulativeGasUsed": "0x123a4",
      "logs": [
        {
          "address": "0x86ac30d927ee1641ee16d4420b5cbcb5b180b3db",
          "topics": [
            "0x9ea6790c7dadfd01c9f8b9762b3682607af2c7e79e05a9f9fdf5580dde949151",
            "0x0000000000000000000000000108fdc1677f9ccfe88b8500bf2df668455b31bf",
            "0x0000000000000000000000000000000000000000000000000000000000000001"
          ],
          "data": "0x06af20da00000000000000000000000000000000000000000000000000000000",
          "blockHash": "0xb26bbbcb7f2e3a4bff9344518517796816cf5beebc197eaeed7e2955534c8956",
          "blockNumber": "0xdfc1bc",
          "transactionHash": "0x836ab6a39884a3aba358ec63634b531b21fd0c00cf85c15014535a78daf7f8de",
          "transactionIndex": "0x1",
          "logIndex": "0x2",
          "removed": false
        },
        {
          "address": "0x0000000000000000000000000000000000001010",
          "topics": [
            "0x4dfe1bbbcf077ddc3e01291eea2d5c70c2b422b415d95645b9adcfd678cb1d63",
            "0x0000000000000000000000000000000000000000000000000000000000001010",
            "0x000000000000000000000000efbbd14082cf2fbcf5badc7ee619f0f4e36d0a5b",
            "0x00000000000000000000000004ba3ef4c023c1006019a0f9baf6e70455e41fcf"
          ],
          "data": "0x00000000000000000000000000000000000000000000000000054f29c1216d00000000000000000000000000000000000000000000000000416a52ff54c1d08600000000000000000000000000000000000000000000015dea3f8839c4255384000000000000000000000000000000000000000000000000416503d593a0638600000000000000000000000000000000000000000000015dea44d7638546c084",
          "blockHash": "0xb26bbbcb7f2e3a4bff9344518517796816cf5beebc197eaeed7e2955534c8956",
          "blockNumber": "0xdfc1bc",
          "transactionHash": "0x836ab6a39884a3aba358ec63634b531b21fd0c00cf85c15014535a78daf7f8de",
          "transactionIndex": "0x1",
          "logIndex": "0x3",
          "removed": false
        }
      ],
      "logsBloom": "0x00000004000080000000000000000000100000000000000000000000000004000000000000000000000000000000000000008000004000000000000000040000008000000000000000000000000000800010000000040000000100000000000000000000000000000000000000000000000000000000000080000000000000000800000000004000000000000000000000000000020000000000000000000000200000000000000000000000000000000000400000000000000000002000004000000000000000000001000000200000000000000000000000100000000040000000000000000000000000000000000000000000000000000000000000100000",
      "type": "0x2",
      "transactionHash": "0x836ab6a39884a3aba358ec63634b531b21fd0c00cf85c15014535a78daf7f8de",
      "transactionIndex": "0x1",
      "blockHash": "0xb26bbbcb7f2e3a4bff9344518517796816cf5beebc197eaeed7e2955534c8956",
      "blockNumber": "0xdfc1bc",
      "gasUsed": "0x91cc",
      "effectiveGasPrice": "0x95282a7cf",
      "from": "0xefbbd14082cf2fbcf5badc7ee619f0f4e36d0a5b",
      "to": "0x86ac30d927ee1641ee16d4420b5cbcb5b180b3db",
      "contractAddress": null
    },
    {
      "status": "0x1",
      "cumulativeGasUsed": "0x1c6b2",
      "logs": [
        {
          "address": "0x86ac30d927ee1641ee16d4420b5cbcb5b180b3db",
          "topics": [
            "0x9ea6790c7dadfd01c9f8b9762b3682607af2c7e79e05a9f9fdf5580dde949151",
            "0x000000000000000000000000f7cb897153b4b4c5416413ad797a03cba58261b2",
            "0x0000000000000000000000000000000000000000000000000000000000000001"
          ],
          "data": "0xdaea85c500000000000000000000000000000000000000000000000000000000",
          "blockHash": "0xb26bbbcb7f2e3a4bff9344518517796816cf5beebc197eaeed7e2955534c8956",
          "blockNumber": "0xdfc1bc",
          "transactionHash": "0x498230c338e947454b9388ed5ac8722d87d84bedda986eee07d17a88fb7e9426",
          "transactionIndex": "0x2",
          "logIndex": "0x4",
          "removed": false
        },
        {
          "address": "0x86ac30d927ee1641ee16d4420b5cbcb5b180b3db",
          "topics": [
            "0x9ea6790c7dadfd01c9f8b9762b3682607af2c7e79e05a9f9fdf5580dde949151",
            "0x000000000000000000000000f7cb897153b4b4c5416413ad797a03cba58261b2",
            "0x0000000000000000000000000000000000000000000000000000000000000001"
          ],
          "data": "0xab0da5a900000000000000000000000000000000000000000000000000000000",
          "blockHash": "0xb26bbbcb7f2e3a4bff9344518517796816cf5beebc197eaeed7e2955534c8956",
          "blockNumber": "0xdfc1bc",
          "transactionHash": "0x498230c338e947454b9388ed5ac8722d87d84bedda986eee07d17a88fb7e9426",
          "transactionIndex": "0x2",
          "logIndex": "0x5",
          "removed": false
        },
        {
          "address": "0x0000000000000000000000000000000000001010",
          "topics": [
            "0x4dfe1bbbcf077ddc3e01291eea2d5c70c2b422b415d95645b9adcfd678cb1d63",
            "0x0000000000000000000000000000000000000000000000000000000000001010",
            "0x000000000000000000000000efbbd14082cf2fbcf5badc7ee619f0f4e36d0a5b",
            "0x00000000000000000000000004ba3ef4c023c1006019a0f9baf6e70455e41fcf"
          ],
          "data": "0x0000000000000000000000000000000000000000000000000005f00bb3f46c80000000000000000000000000000000000000000000000000416503d59397d89200000000000000000000000000000000000000000000015dea44d7638546c084000000000000000000000000000000000000000000000000415f13c9dfa36c1200000000000000000000000000000000000000000000015dea4ac76f393b2d04",
          "blockHash": "0xb26bbbcb7f2e3a4bff9344518517796816cf5beebc197eaeed7e2955534c8956",
          "blockNumber": "0xdfc1bc",
          "transactionHash": "0x498230c338e947454b9388ed5ac8722d87d84bedda986eee07d17a88fb7e9426",
          "transactionIndex": "0x2",
          "logIndex": "0x6",
          "removed": false
        }
      ],
      "logsBloom": "0x00000004000080000000000000000000100000000000000000000000000004000000010000000002000000000000000000008000000000000000000000040000008000000000000000000000000000800010000000040000000100000000000000000000000000000000000000000000000000000000000080000000000000000800000000004000000000000000000000000000000000000000000000000000200000000000000000000000000000000000400000000000000000002000004000000000000000000001000000200000000000000000000000100000000040000010000000000000000000000000000000000000000000000000000000100000",
      "type": "0x2",
      "transactionHash": "0x498230c338e947454b9388ed5ac8722d87d84bedda986eee07d17a88fb7e9426",
      "transactionIndex": "0x2",
      "blockHash": "0xb26bbbcb7f2e3a4bff9344518517796816cf5beebc197eaeed7e2955534c8956",
      "blockNumber": "0xdfc1bc",
      "gasUsed": "0xa30e",
      "effectiveGasPrice": "0x95282a7cf",
      "from": "0xefbbd14082cf2fbcf5badc7ee619f0f4e36d0a5b",
      "to": "0x86ac30d927ee1641ee16d4420b5cbcb5b180b3db",
      "contractAddress": null
    },
    {
      "status": "0x1",
      "cumulativeGasUsed": "0x27af6",
      "logs": [
        {
          "address": "0x86ac30d927ee1641ee16d4420b5cbcb5b180b3db",
          "topics": [
            "0x9ea6790c7dadfd01c9f8b9762b3682607af2c7e79e05a9f9fdf5580dde949151",
            "0x000000000000000000000000890ba96ce986cf7720d8626607972198a2dfedf9",
            "0x0000000000000000000000000000000000000000000000000000000000000001"
          ],
          "data": "0x20c5429b00000000000000000000000000000000000000000000000000000000",
          "blockHash": "0xb26bbbcb7f2e3a4bff9344518517796816cf5beebc197eaeed7e2955534c8956",
          "blockNumber": "0xdfc1bc",
          "transactionHash": "0x52e4109726a3509f89d16846a3ac9b320ae07170ab8a82c2d2bf7eba33a1ef23",
          "transactionIndex": "0x3",
          "logIndex": "0x7",
          "removed": false
        },
        {
          "address": "0x86ac30d927ee1641ee16d4420b5cbcb5b180b3db",
          "topics": [
            "0x9ea6790c7dadfd01c9f8b9762b3682607af2c7e79e05a9f9fdf5580dde949151",
            "0x000000000000000000000000890ba96ce986cf7720d8626607972198a2dfedf9",
            "0x0000000000000000000000000000000000000000000000000000000000000001"
          ],
          "data": "0xb8adaa1100000000000000000000000000000000000000000000000000000000",
          "blockHash": "0xb26bbbcb7f2e3a4bff9344518517796816cf5beebc197eaeed7e2955534c8956",
          "blockNumber": "0xdfc1bc",
          "transactionHash": "0x52e4109726a3509f89d16846a3ac9b320ae07170ab8a82c2d2bf7eba33a1ef23",
          "transactionIndex": "0x3",
          "logIndex": "0x8",
          "removed": false
        },
        {
          "address": "0x86ac30d927ee1641ee16d4420b5cbcb5b180b3db",
          "topics": [
            "0x9ea6790c7dadfd01c9f8b9762b3682607af2c7e79e05a9f9fdf5580dde949151",
            "0x000000000000000000000000890ba96ce986cf7720d8626607972198a2dfedf9",
            "0x0000000000000000000000000000000000000000000000000000000000000001"
          ],
          "data": "0xb759f95400000000000000000000000000000000000000000000000000000000",
          "blockHash": "0xb26bbbcb7f2e3a4bff9344518517796816cf5beebc197eaeed7e2955534c8956",
          "blockNumber": "0xdfc1bc",
          "transactionHash": "0x52e4109726a3509f89d16846a3ac9b320ae07170ab8a82c2d2bf7eba33a1ef23",
          "transactionIndex": "0x3",
          "logIndex": "0x9",
          "removed": false
        },
        {
          "address": "0x0000000000000000000000000000000000001010",
          "topics": [
            "0x4dfe1bbbcf077ddc3e01291eea2d5c70c2b422b415d95645b9adcfd678cb1d63",
            "0x0000000000000000000000000000000000000000000000000000000000001010",
            "0x000000000000000000000000efbbd14082cf2fbcf5badc7ee619f0f4e36d0a5b",
            "0x00000000000000000000000004ba3ef4c023c1006019a0f9baf6e70455e41fcf"
          ],
          "data": "0x0000000000000000000000000000000000000000000000000006907dc8a78f00000000000000000000000000000000000000000000000000415f13c9df99de4000000000000000000000000000000000000000000000015dea4ac76f393b2d040000000000000000000000000000000000000000000000004158834c16f24f4000000000000000000000000000000000000000000000015dea5157ed01e2bc04",
          "blockHash": "0xb26bbbcb7f2e3a4bff9344518517796816cf5beebc197eaeed7e2955534c8956",
          "blockNumber": "0xdfc1bc",
          "transactionHash": "0x52e4109726a3509f89d16846a3ac9b320ae07170ab8a82c2d2bf7eba33a1ef23",
          "transactionIndex": "0x3",
          "logIndex": "0xa",
          "removed": false
        }
      ],
      "logsBloom": "0x00000004000080000000000000000000100000000000000000000000000004000000000000000000000000000000000000008000000000000000000000040000008000000000000000000000000000800010000000040000000100000000000000200000000000000000000000000000000000000000000080000000000000000800000000004000000000000000000000000000000000001000000000000000200000000000000000000000000000000000400000000000000000002000004000000000020000000001000000200000000000000000000000100000000040000000000000000000000000000000000000000000000000000000000000100000",
      "type": "0x2",
      "transactionHash": "0x52e4109726a3509f89d16846a3ac9b320ae07170ab8a82c2d2bf7eba33a1ef23",
      "transactionIndex": "0x3",
      "blockHash": "0xb26bbbcb7f2e3a4bff9344518517796816cf5beebc197eaeed7e2955534c8956",
      "blockNumber": "0xdfc1bc",
      "gasUsed": "0xb444",
      "effectiveGasPrice": "0x95282a7cf",
      "from": "0xefbbd14082cf2fbcf5badc7ee619f0f4e36d0a5b",
      "to": "0x86ac30d927ee1641ee16d4420b5cbcb5b180b3db",
      "contractAddress": null
    },
    {
      "status": "0x1",
      "cumulativeGasUsed": "0x32f3a",
      "logs": [
        {
          "address": "0x86ac30d927ee1641ee16d4420b5cbcb5b180b3db",
          "topics": [
            "0x9ea6790c7dadfd01c9f8b9762b3682607af2c7e79e05a9f9fdf5580dde949151",
            "0x000000000000000000000000108976dc7dc5b52597bdfee15908232a298be74d",
            "0x0000000000000000000000000000000000000000000000000000000000000001"
          ],
          "data": "0xf6eea09800000000000000000000000000000000000000000000000000000000",
          "blockHash": "0xb26bbbcb7f2e3a4bff9344518517796816cf5beebc197eaeed7e2955534c8956",
          "blockNumber": "0xdfc1bc",
          "transactionHash": "0x75b3fa5c15921cf9f6285da4089d7a5dbfe7324d505f43e7739578ac48161462",
          "transactionIndex": "0x4",
          "logIndex": "0xb",
          "removed": false
        },
        {
          "address": "0x86ac30d927ee1641ee16d4420b5cbcb5b180b3db",
          "topics": [
            "0x9ea6790c7dadfd01c9f8b9762b3682607af2c7e79e05a9f9fdf5580dde949151",
            "0x000000000000000000000000108976dc7dc5b52597bdfee15908232a298be74d",
            "0x0000000000000000000000000000000000000000000000000000000000000001"
          ],
          "data": "0x74a8f10300000000000000000000000000000000000000000000000000000000",
          "blockHash": "0xb26bbbcb7f2e3a4bff9344518517796816cf5beebc197eaeed7e2955534c8956",
          "blockNumber": "0xdfc1bc",
          "transactionHash": "0x75b3fa5c15921cf9f6285da4089d7a5dbfe7324d505f43e7739578ac48161462",
          "transactionIndex": "0x4",
          "logIndex": "0xc",
          "removed": false
        },
        {
          "address": "0x86ac30d927ee1641ee16d4420b5cbcb5b180b3db",
          "topics": [
            "0x9ea6790c7dadfd01c9f8b9762b3682607af2c7e79e05a9f9fdf5580dde949151",
            "0x000000000000000000000000108976dc7dc5b52597bdfee15908232a298be74d",
            "0x0000000000000000000000000000000000000000000000000000000000000001"
          ],
          "data": "0xdaea85c500000000000000000000000000000000000000000000000000000000",
          "blockHash": "0xb26bbbcb7f2e3a4bff9344518517796816cf5beebc197eaeed7e2955534c8956",
          "blockNumber": "0xdfc1bc",
          "transactionHash": "0x75b3fa5c15921cf9f6285da4089d7a5dbfe7324d505f43e7739578ac48161462",
          "transactionIndex": "0x4",
          "logIndex": "0xd",
          "removed": false
        },
        {
          "address": "0x0000000000000000000000000000000000001010",
          "topics": [
            "0x4dfe1bbbcf077ddc3e01291eea2d5c70c2b422b415d95645b9adcfd678cb1d63",
            "0x0000000000000000000000000000000000000000000000000000000000001010",
            "0x000000000000000000000000efbbd14082cf2fbcf5badc7ee619f0f4e36d0a5b",
            "0x00000000000000000000000004ba3ef4c023c1006019a0f9baf6e70455e41fcf"
          ],
          "data": "0x0000000000000000000000000000000000000000000000000006907dc8a78f000000000000000000000000000000000000000000000000004158834c16e7bf4400000000000000000000000000000000000000000000015dea5157ed01e2bc040000000000000000000000000000000000000000000000004151f2ce4e40304400000000000000000000000000000000000000000000015dea57e86aca8a4b04",
          "blockHash": "0xb26bbbcb7f2e3a4bff9344518517796816cf5beebc197eaeed7e2955534c8956",
          "blockNumber": "0xdfc1bc",
          "transactionHash": "0x75b3fa5c15921cf9f6285da4089d7a5dbfe7324d505f43e7739578ac48161462",
          "transactionIndex": "0x4",
          "logIndex": "0xe",
          "removed": false
        }
      ],
      "logsBloom": "0x00000004000080000000000000000000100000000000000000000000000004000000000000000000000000000000000000008000000000000000000000040000008000000000000000000000000000800010000000040000000100000000000000000000000000000000000000000000000000000000000080000000000000000800000000004000000000000000000000000000000000000000000000400000200000000000000000000000000000000000400000000000000000002000004020000000000000000001000000200000000000000000000000100000000040000000000000000000000000000002000000000000000000000000000000100000",
      "type": "0x2",
      "transactionHash": "0x75b3fa5c15921cf9f6285da4089d7a5dbfe7324d505f43e7739578ac48161462",
      "transactionIndex": "0x4",
      "blockHash": "0xb26bbbcb7f2e3a4bff9344518517796816cf5beebc197eaeed7e2955534c8956",
      "blockNumber": "0xdfc1bc",
      "gasUsed": "0xb444",
      "effectiveGasPrice": "0x95282a7cf",
      "from": "0xefbbd14082cf2fbcf5badc7ee619f0f4e36d0a5b",
      "to": "0x86ac30d927ee1641ee16d4420b5cbcb5b180b3db",
      "contractAddress": null
    },
    {
      "status": "0x1",
      "cumulativeGasUsed": "0x3fb75",
      "logs": [
        {
          "address": "0x377979cd68e1740ef41905664c5abe93ec0fdb0d",
          "topics": [
            "0xfbbd6e9cc51f124b05f08f20e9aef57fb26fc9a927be06212c59506610581335",
            "0x0000000000000000000000009a0a455babac0143e7bf7001e9a22be0d919b643",
            "0x000000000000000000000000efbbd14082cf2fbcf5badc7ee619f0f4e36d0a5b"
          ],
          "data": "0x00000000000000000000000000000000000000000000000000000000000001f40000000000000000000000000000000000000000000000000000000000000002",
          "blockHash": "0xb26bbbcb7f2e3a4bff9344518517796816cf5beebc197eaeed7e2955534c8956",
          "blockNumber": "0xdfc1bc",
          "transactionHash": "0x64675f6ad94a6b222a5d83c3c3aa752d3264b9608deb54eefbd2fa0fd69529a3",
          "transactionIndex": "0x5",
          "logIndex": "0xf",
          "removed": false
        },
        {
          "address": "0x0000000000000000000000000000000000001010",
          "topics": [
            "0x4dfe1bbbcf077ddc3e01291eea2d5c70c2b422b415d95645b9adcfd678cb1d63",
            "0x0000000000000000000000000000000000000000000000000000000000001010",
            "0x000000000000000000000000efbbd14082cf2fbcf5badc7ee619f0f4e36d0a5b",
            "0x00000000000000000000000004ba3ef4c023c1006019a0f9baf6e70455e41fcf"
          ],
          "data": "0x00000000000000000000000000000000000000000000000000076fe621c9a9400000000000000000000000000000000000000000000000004151f2ce4e35a04800000000000000000000000000000000000000000000015dea57e86aca8a4b04000000000000000000000000000000000000000000000000414a82e82c6bf70800000000000000000000000000000000000000000000015dea5f5850ec53f444",
          "blockHash": "0xb26bbbcb7f2e3a4bff9344518517796816cf5beebc197eaeed7e2955534c8956",
          "blockNumber": "0xdfc1bc",
          "transactionHash": "0x64675f6ad94a6b222a5d83c3c3aa752d3264b9608deb54eefbd2fa0fd69529a3",
          "transactionIndex": "0x5",
          "logIndex": "0x10",
          "removed": false
        }
      ],
      "logsBloom": "0x00000000000000000000800000000000000000000000000000000000000004000000000000000000000000000000000000008000000000000000000000000000008000000000000000000000000000c00000000000000000000100000000000000004100000000400000000000000000000000000000000080000000004000000800000000004000000000000000000000000000000000000000000000000000200000000000000000000000000000000000400000000000000000000000004000000000000000000001000000000000000010000000010000100000000000000000000000000000000000000000000000000000000000000008000000100000",
      "type": "0x2",
      "transactionHash": "0x64675f6ad94a6b222a5d83c3c3aa752d3264b9608deb54eefbd2fa0fd69529a3",
      "transactionIndex": "0x5",
      "blockHash": "0xb26bbbcb7f2e3a4bff9344518517796816cf5beebc197eaeed7e2955534c8956",
      "blockNumber": "0xdfc1bc",
      "gasUsed": "0xcc3b",
      "effectiveGasPrice": "0x95282a7cf",
      "from": "0xefbbd14082cf2fbcf5badc7ee619f0f4e36d0a5b",
      "to": "0x377979cd68e1740ef41905664c5abe93ec0fdb0d",
      "contractAddress": null
    },
    {
      "status": "0x1",
      "cumulativeGasUsed": "0x4c7d5",
      "logs": [
        {
          "address": "0x377979cd68e1740ef41905664c5abe93ec0fdb0d",
          "topics": [
            "0xfbbd6e9cc51f124b05f08f20e9aef57fb26fc9a927be06212c59506610581335",
            "0x0000000000000000000000009a0a455babac0143e7bf7001e9a22be0d919b643",
            "0x000000000000000000000000efbbd14082cf2fbcf5badc7ee619f0f4e36d0a5b"
          ],
          "data": "0x0000000000000000000000000000000000000000000000056bc75e2d631000000000000000000000000000000000000000000000000000000000000000000001",
          "blockHash": "0xb26bbbcb7f2e3a4bff9344518517796816cf5beebc197eaeed7e2955534c8956",
          "blockNumber": "0xdfc1bc",
          "transactionHash": "0xd3ef5a55599a3b2f503db17f44a990fa1e0cf48f80865da24113f28ed2e54a63",
          "transactionIndex": "0x6",
          "logIndex": "0x11",
          "removed": false
        },
        {
          "address": "0x0000000000000000000000000000000000001010",
          "topics": [
            "0x4dfe1bbbcf077ddc3e01291eea2d5c70c2b422b415d95645b9adcfd678cb1d63",
            "0x0000000000000000000000000000000000000000000000000000000000001010",
            "0x000000000000000000000000efbbd14082cf2fbcf5badc7ee619f0f4e36d0a5b",
            "0x00000000000000000000000004ba3ef4c023c1006019a0f9baf6e70455e41fcf"
          ],
          "data": "0x0000000000000000000000000000000000000000000000000007713f0eabe800000000000000000000000000000000000000000000000000414a82e82c5fff9300000000000000000000000000000000000000000000015dea5f5850ec53f444000000000000000000000000000000000000000000000000414311a91db4179300000000000000000000000000000000000000000000015dea66c98ffaffdc44",
          "blockHash": "0xb26bbbcb7f2e3a4bff9344518517796816cf5beebc197eaeed7e2955534c8956",
          "blockNumber": "0xdfc1bc",
          "transactionHash": "0xd3ef5a55599a3b2f503db17f44a990fa1e0cf48f80865da24113f28ed2e54a63",
          "transactionIndex": "0x6",
          "logIndex": "0x12",
          "removed": false
        }
      ],
      "logsBloom": "0x00000000000000000000800000000000000000000000000000000000000004000000000000000000000000000000000000008000000000000000000000000000008000000000000000000000000000c00000000000000000000100000000000000004100000000400000000000000000000000000000000080000000004000000800000000004000000000000000000000000000000000000000000000000000200000000000000000000000000000000000400000000000000000000000004000000000000000000001000000000000000010000000010000100000000000000000000000000000000000000000000000000000000000000008000000100000",
      "type": "0x2",
      "transactionHash": "0xd3ef5a55599a3b2f503db17f44a990fa1e0cf48f80865da24113f28ed2e54a63",
      "transactionIndex": "0x6",
      "blockHash": "0xb26bbbcb7f2e3a4bff9344518517796816cf5beebc197eaeed7e2955534c8956",
      "blockNumber": "0xdfc1bc",
      "gasUsed": "0xcc60",
      "effectiveGasPrice": "0x95282a7cf",
      "from": "0xefbbd14082cf2fbcf5badc7ee619f0f4e36d0a5b",
      "to": "0x377979cd68e1740ef41905664c5abe93ec0fdb0d",
      "contractAddress": null
    }
  ],
  "libraries": [],
  "pending": [],
  "returns": {},
  "timestamp": 1732123079,
  "chain": 80002,
  "commit": "acf7e0f"
}