{
  "transactions": [
    {
      "hash": "0x4fc7e59d1bba99a9b2ddec297cf1d2aa23f7c52cc2744760371c0b9b5264ddbd",
      "transactionType": "CALL",
      "contractName": null,
      "contractAddress": "0x8120a8e0688be6b2c0bb469f871e5e7023ca85eb",
      "function": "grantRole(uint64,address,uint32)",
      "arguments": [
        "1",
        "0xEFBBD14082cF2FbCf5Badc7ee619F0f4e36D0A5B",
        "0"
      ],
      "transaction": {
        "from": "0xefbbd14082cf2fbcf5badc7ee619f0f4e36d0a5b",
        "to": "0x8120a8e0688be6b2c0bb469f871e5e7023ca85eb",
        "gas": "0xedf2",
        "value": "0x0",
        "input": "0x25c471a00000000000000000000000000000000000000000000000000000000000000001000000000000000000000000efbbd14082cf2fbcf5badc7ee619f0f4e36d0a5b0000000000000000000000000000000000000000000000000000000000000000",
        "nonce": "0x996",
        "chainId": "0x13882"
      },
      "additionalContracts": [],
      "isFixedGasLimit": false
    },
    {
      "hash": "0x7ec0c1dd1f348fdefd4b7531809fcde2c9d33576defa8f426982a085d5c95461",
      "transactionType": "CALL",
      "contractName": null,
      "contractAddress": "0x8120a8e0688be6b2c0bb469f871e5e7023ca85eb",
      "function": "setTargetFunctionRole(address,bytes4[],uint64)",
      "arguments": [
        "0x4580859e64385e3e82ee64da2Bc06Ef84Bde851a",
        "[0x8cc0de1d]",
        "1"
      ],
      "transaction": {
        "from": "0xefbbd14082cf2fbcf5badc7ee619f0f4e36d0a5b",
        "to": "0x8120a8e0688be6b2c0bb469f871e5e7023ca85eb",
        "gas": "0xc971",
        "value": "0x0",
        "input": "0x08d6122d0000000000000000000000004580859e64385e3e82ee64da2bc06ef84bde851a0000000000000000000000000000000000000000000000000000000000000060000000000000000000000000000000000000000000000000000000000000000100000000000000000000000000000000000000000000000000000000000000018cc0de1d00000000000000000000000000000000000000000000000000000000",
        "nonce": "0x997",
        "chainId": "0x13882"
      },
      "additionalContracts": [],
      "isFixedGasLimit": false
    },
    {
      "hash": "0xe1d4af29639e9a5179c1b130a8706521f056f93cd36acbdc5d2754fd4d57bcde",
      "transactionType": "CALL",
      "contractName": null,
      "contractAddress": "0x8120a8e0688be6b2c0bb469f871e5e7023ca85eb",
      "function": "setTargetFunctionRole(address,bytes4[],uint64)",
      "arguments": [
        "0xD32CA33b1FBD97523536Ed3519A191Df242AFCFd",
        "[0x06af20da]",
        "1"
      ],
      "transaction": {
        "from": "0xefbbd14082cf2fbcf5badc7ee619f0f4e36d0a5b",
        "to": "0x8120a8e0688be6b2c0bb469f871e5e7023ca85eb",
        "gas": "0xc971",
        "value": "0x0",
        "input": "0x08d6122d000000000000000000000000d32ca33b1fbd97523536ed3519a191df242afcfd00000000000000000000000000000000000000000000000000000000000000600000000000000000000000000000000000000000000000000000000000000001000000000000000000000000000000000000000000000000000000000000000106af20da00000000000000000000000000000000000000000000000000000000",
        "nonce": "0x998",
        "chainId": "0x13882"
      },
      "additionalContracts": [],
      "isFixedGasLimit": false
    },
    {
      "hash": "0x1589d632ed0e74bd4a2849bd0fd11e9176b77d471be390deb2de11a458781979",
      "transactionType": "CALL",
      "contractName": null,
      "contractAddress": "0x8120a8e0688be6b2c0bb469f871e5e7023ca85eb",
      "function": "setTargetFunctionRole(address,bytes4[],uint64)",
      "arguments": [
        "0x00ABb22eB950684e4314287e94f024B0A9420d40",
        "[0x20c5429b, 0xb8adaa11, 0xb759f954]",
        "1"
      ],
      "transaction": {
        "from": "0xefbbd14082cf2fbcf5badc7ee619f0f4e36d0a5b",
        "to": "0x8120a8e0688be6b2c0bb469f871e5e7023ca85eb",
        "gas": "0xf8ec",
        "value": "0x0",
        "input": "0x08d6122d00000000000000000000000000abb22eb950684e4314287e94f024b0a9420d4000000000000000000000000000000000000000000000000000000000000000600000000000000000000000000000000000000000000000000000000000000001000000000000000000000000000000000000000000000000000000000000000320c5429b00000000000000000000000000000000000000000000000000000000b8adaa1100000000000000000000000000000000000000000000000000000000b759f95400000000000000000000000000000000000000000000000000000000",
        "nonce": "0x999",
        "chainId": "0x13882"
      },
      "additionalContracts": [],
      "isFixedGasLimit": false
    },
    {
      "hash": "0x47b776e3c63d6fd58036040aacaa3d254f1fca6e1b27685c62659c8820e77fb2",
      "transactionType": "CALL",
      "contractName": null,
      "contractAddress": "0x8120a8e0688be6b2c0bb469f871e5e7023ca85eb",
      "function": "setTargetFunctionRole(address,bytes4[],uint64)",
      "arguments": [
        "0xA2746F0D272bb0F5273f53B4a0F476afe8873C32",
        "[0xf6eea098, 0x74a8f103, 0xdaea85c5]",
        "1"
      ],
      "transaction": {
        "from": "0xefbbd14082cf2fbcf5badc7ee619f0f4e36d0a5b",
        "to": "0x8120a8e0688be6b2c0bb469f871e5e7023ca85eb",
        "gas": "0xf8fd",
        "value": "0x0",
        "input": "0x08d6122d000000000000000000000000a2746f0d272bb0f5273f53b4a0f476afe8873c32000000000000000000000000000000000000000000000000000000000000006000000000000000000000000000000000000000000000000000000000000000010000000000000000000000000000000000000000000000000000000000000003f6eea0980000000000000000000000000000000000000000000000000000000074a8f10300000000000000000000000000000000000000000000000000000000daea85c500000000000000000000000000000000000000000000000000000000",
        "nonce": "0x99a",
        "chainId": "0x13882"
      },
      "additionalContracts": [],
      "isFixedGasLimit": false
    },
    {
      "hash": "0x02368b8f6c54c3ff6f5ec8f70977c88039470ecba16e91ad4bb978e96c7d5d66",
      "transactionType": "CALL",
      "contractName": null,
      "contractAddress": "0x8120a8e0688be6b2c0bb469f871e5e7023ca85eb",
      "function": "grantRole(uint64,address,uint32)",
      "arguments": [
        "2",
        "0xEFBBD14082cF2FbCf5Badc7ee619F0f4e36D0A5B",
        "0"
      ],
      "transaction": {
        "from": "0xefbbd14082cf2fbcf5badc7ee619f0f4e36d0a5b",
        "to": "0x8120a8e0688be6b2c0bb469f871e5e7023ca85eb",
        "gas": "0xedf2",
        "value": "0x0",
        "input": "0x25c471a00000000000000000000000000000000000000000000000000000000000000002000000000000000000000000efbbd14082cf2fbcf5badc7ee619f0f4e36d0a5b0000000000000000000000000000000000000000000000000000000000000000",
        "nonce": "0x99b",
        "chainId": "0x13882"
      },
      "additionalContracts": [],
      "isFixedGasLimit": false
    },
    {
      "hash": "0x1add40e51f76380d813dd85e18a9665aab90442f4d7940b5f348a0938268e259",
      "transactionType": "CALL",
      "contractName": null,
      "contractAddress": "0x8120a8e0688be6b2c0bb469f871e5e7023ca85eb",
      "function": "setTargetFunctionRole(address,bytes4[],uint64)",
      "arguments": [
        "0x8dB5ae2ae14e189c7d0e8f9c67643170e5508874",
        "[0xdaea85c5, 0xab0da5a9]",
        "2"
      ],
      "transaction": {
        "from": "0xefbbd14082cf2fbcf5badc7ee619f0f4e36d0a5b",
        "to": "0x8120a8e0688be6b2c0bb469f871e5e7023ca85eb",
        "gas": "0xe137",
        "value": "0x0",
        "input": "0x08d6122d0000000000000000000000008db5ae2ae14e189c7d0e8f9c67643170e5508874000000000000000000000000000000000000000000000000000000000000006000000000000000000000000000000000000000000000000000000000000000020000000000000000000000000000000000000000000000000000000000000002daea85c500000000000000000000000000000000000000000000000000000000ab0da5a900000000000000000000000000000000000000000000000000000000",
        "nonce": "0x99c",
        "chainId": "0x13882"
      },
      "additionalContracts": [],
      "isFixedGasLimit": false
    },
    {
      "hash": "0xa0e8542bb375847657cbe670d6f67d87be6c024ad551133aa0ce2a18f44c8c4c",
      "transactionType": "CALL",
      "contractName": null,
      "contractAddress": "0x8120a8e0688be6b2c0bb469f871e5e7023ca85eb",
      "function": "grantRole(uint64,address,uint32)",
      "arguments": [
        "4",
        "0x5945C1417ad688EF90Cf3e61263b404B96A0C20b",
        "0"
      ],
      "transaction": {
        "from": "0xefbbd14082cf2fbcf5badc7ee619f0f4e36d0a5b",
        "to": "0x8120a8e0688be6b2c0bb469f871e5e7023ca85eb",
        "gas": "0xedf2",
        "value": "0x0",
        "input": "0x25c471a000000000000000000000000000000000000000000000000000000000000000040000000000000000000000005945c1417ad688ef90cf3e61263b404b96a0c20b0000000000000000000000000000000000000000000000000000000000000000",
        "nonce": "0x99d",
        "chainId": "0x13882"
      },
      "additionalContracts": [],
      "isFixedGasLimit": false
    },
    {
      "hash": "0x4b6296084b0710f74a252a3b12791cf545cc3193c283647b42c0cf7cd9165087",
      "transactionType": "CALL",
      "contractName": null,
      "contractAddress": "0x8120a8e0688be6b2c0bb469f871e5e7023ca85eb",
      "function": "grantRole(uint64,address,uint32)",
      "arguments": [
        "4",
        "0x31B351E4C217f838190825586cAA8494Ee1CA635",
        "0"
      ],
      "transaction": {
        "from": "0xefbbd14082cf2fbcf5badc7ee619f0f4e36d0a5b",
        "to": "0x8120a8e0688be6b2c0bb469f871e5e7023ca85eb",
        "gas": "0xedf2",
        "value": "0x0",
        "input": "0x25c471a0000000000000000000000000000000000000000000000000000000000000000400000000000000000000000031b351e4c217f838190825586caa8494ee1ca6350000000000000000000000000000000000000000000000000000000000000000",
        "nonce": "0x99e",
        "chainId": "0x13882"
      },
      "additionalContracts": [],
      "isFixedGasLimit": false
    },
    {
      "hash": "0x7464546d0c417febba3fc8e463bbd041a5c38c8ede0c8c3adb65130eb0d32f31",
      "transactionType": "CALL",
      "contractName": null,
      "contractAddress": "0x8120a8e0688be6b2c0bb469f871e5e7023ca85eb",
      "function": "grantRole(uint64,address,uint32)",
      "arguments": [
        "4",
        "0xA2746F0D272bb0F5273f53B4a0F476afe8873C32",
        "0"
      ],
      "transaction": {
        "from": "0xefbbd14082cf2fbcf5badc7ee619f0f4e36d0a5b",
        "to": "0x8120a8e0688be6b2c0bb469f871e5e7023ca85eb",
        "gas": "0xedf2",
        "value": "0x0",
        "input": "0x25c471a00000000000000000000000000000000000000000000000000000000000000004000000000000000000000000a2746f0d272bb0f5273f53b4a0f476afe8873c320000000000000000000000000000000000000000000000000000000000000000",
        "nonce": "0x99f",
        "chainId": "0x13882"
      },
      "additionalContracts": [],
      "isFixedGasLimit": false
    },
    {
      "hash": "0x80d0f78656eab331ec9b3cada3f4445cf5934be27a1d174d88fd6322f7bd609b",
      "transactionType": "CALL",
      "contractName": null,
      "contractAddress": "0x8120a8e0688be6b2c0bb469f871e5e7023ca85eb",
      "function": "setTargetFunctionRole(address,bytes4[],uint64)",
      "arguments": [
        "0x83266Ca8147572839BB23A204db52Bd26a1FCeaa",
        "[0x4bbc170a, 0x15f41501, 0x9e96a260]",
        "4"
      ],
      "transaction": {
        "from": "0xefbbd14082cf2fbcf5badc7ee619f0f4e36d0a5b",
        "to": "0x8120a8e0688be6b2c0bb469f871e5e7023ca85eb",
        "gas": "0xf8fd",
        "value": "0x0",
        "input": "0x08d6122d00000000000000000000000083266ca8147572839bb23a204db52bd26a1fceaa0000000000000000000000000000000000000000000000000000000000000060000000000000000000000000000000000000000000000000000000000000000400000000000000000000000000000000000000000000000000000000000000034bbc170a0000000000000000000000000000000000000000000000000000000015f41501000000000000000000000000000000000000000000000000000000009e96a26000000000000000000000000000000000000000000000000000000000",
        "nonce": "0x9a0",
        "chainId": "0x13882"
      },
      "additionalContracts": [],
      "isFixedGasLimit": false
    },
    {
      "hash": "0x717116c4923c4bb9bcf96140fc920c93a3a011cae053b1b906a4619b2d32d4ae",
      "transactionType": "CALL",
      "contractName": null,
      "contractAddress": "0x4580859e64385e3e82ee64da2bc06ef84bde851a",
      "function": "setFees(uint8,address,uint256,address)",
      "arguments": [
        "3",
        "0xf06E1998119CAEdf8E084194AA5FEa89eA9389C3",
        "500",
        "0x3c7DeB6FeAEb7a82BDe580Fb73d8d69c401b219e"
      ],
      "transaction": {
        "from": "0xefbbd14082cf2fbcf5badc7ee619f0f4e36d0a5b",
        "to": "0x4580859e64385e3e82ee64da2bc06ef84bde851a",
        "gas": "0x13ae7",
        "value": "0x0",
        "input": "0x8cc0de1d0000000000000000000000000000000000000000000000000000000000000003000000000000000000000000f06e1998119caedf8e084194aa5fea89ea9389c300000000000000000000000000000000000000000000000000000000000001f40000000000000000000000003c7deb6feaeb7a82bde580fb73d8d69c401b219e",
        "nonce": "0x9a1",
        "chainId": "0x13882"
      },
      "additionalContracts": [],
      "isFixedGasLimit": false
    },
    {
      "hash": "0xc1edcd0faf69adb09a816cab8e227dea88f0652b9b2c01c5e510dc99a9414260",
      "transactionType": "CALL",
      "contractName": null,
      "contractAddress": "0x4580859e64385e3e82ee64da2bc06ef84bde851a",
      "function": "setFees(uint8,address,uint256,address)",
      "arguments": [
        "1",
        "0xA2746F0D272bb0F5273f53B4a0F476afe8873C32",
        "100000000000000000000",
        "0x3c7DeB6FeAEb7a82BDe580Fb73d8d69c401b219e"
      ],
      "transaction": {
        "from": "0xefbbd14082cf2fbcf5badc7ee619f0f4e36d0a5b",
        "to": "0x4580859e64385e3e82ee64da2bc06ef84bde851a",
        "gas": "0x1299b",
        "value": "0x0",
        "input": "0x8cc0de1d0000000000000000000000000000000000000000000000000000000000000001000000000000000000000000a2746f0d272bb0f5273f53b4a0f476afe8873c320000000000000000000000000000000000000000000000056bc75e2d631000000000000000000000000000003c7deb6feaeb7a82bde580fb73d8d69c401b219e",
        "nonce": "0x9a2",
        "chainId": "0x13882"
      },
      "additionalContracts": [],
      "isFixedGasLimit": false
    }
  ],
  "receipts": [
    {
      "status": "0x1",
      "cumulativeGasUsed": "0xa2b3",
      "logs": [
        {
          "address": "0x8120a8e0688be6b2c0bb469f871e5e7023ca85eb",
          "topics": [
            "0xf98448b987f1428e0e230e1f3c6e2ce15b5693eaf31827fbd0b1ec4b424ae7cf",
            "0x0000000000000000000000000000000000000000000000000000000000000001",
            "0x000000000000000000000000efbbd14082cf2fbcf5badc7ee619f0f4e36d0a5b"
          ],
          "data": "0x000000000000000000000000000000000000000000000000000000000000000000000000000000000000000000000000000000000000000000000000677caac10000000000000000000000000000000000000000000000000000000000000000",
          "blockHash": "0xc2026b5941c35d8ba1470109cdf7482a82f579b74d8b65a05aaa0a007e2c53c8",
          "blockNumber": "0xfc9750",
          "transactionHash": "0x4fc7e59d1bba99a9b2ddec297cf1d2aa23f7c52cc2744760371c0b9b5264ddbd",
          "transactionIndex": "0x0",
          "logIndex": "0x0",
          "removed": false
        },
        {
          "address": "0x0000000000000000000000000000000000001010",
          "topics": [
            "0x4dfe1bbbcf077ddc3e01291eea2d5c70c2b422b415d95645b9adcfd678cb1d63",
            "0x0000000000000000000000000000000000000000000000000000000000001010",
            "0x000000000000000000000000efbbd14082cf2fbcf5badc7ee619f0f4e36d0a5b",
            "0x00000000000000000000000009207a6efee346cb3e4a54ac18523e3715d38b3f"
          ],
          "data": "0x00000000000000000000000000000000000000000000000000054a423ddc759b000000000000000000000000000000000000000000000001418006250ad7804700000000000000000000000000000000000000000000046207360a0b6456c98a000000000000000000000000000000000000000000000001417abbe2ccfb0aac000000000000000000000000000000000000000000000462073b544da2333f25",
          "blockHash": "0xc2026b5941c35d8ba1470109cdf7482a82f579b74d8b65a05aaa0a007e2c53c8",
          "blockNumber": "0xfc9750",
          "transactionHash": "0x4fc7e59d1bba99a9b2ddec297cf1d2aa23f7c52cc2744760371c0b9b5264ddbd",
          "transactionIndex": "0x0",
          "logIndex": "0x1",
          "removed": false
        }
      ],
      "logsBloom": "0x00000000000000000000000000000000000000000000000000000000000000000000000000000000000000000000000000008000000000000000010000040000008000000000000000000000000000800000000000040100000100000000000000000000000000000000000000000000000000000000000080000000000000000800000000000000000000000800000008004000000000000000000000000000200000000000000000002000000000000000400000000008008000000000004000000000000000000001000000000000000000000000000000100000000040000000000000000000000000010000000000000000000000000000000000100000",
      "type": "0x2",
      "transactionHash": "0x4fc7e59d1bba99a9b2ddec297cf1d2aa23f7c52cc2744760371c0b9b5264ddbd",
      "transactionIndex": "0x0",
      "blockHash": "0xc2026b5941c35d8ba1470109cdf7482a82f579b74d8b65a05aaa0a007e2c53c8",
      "blockNumber": "0xfc9750",
      "gasUsed": "0xa2b3",
      "effectiveGasPrice": "0x852ddb588",
      "from": "0xefbbd14082cf2fbcf5badc7ee619f0f4e36d0a5b",
      "to": "0x8120a8e0688be6b2c0bb469f871e5e7023ca85eb",
      "contractAddress": null
    },
    {
      "status": "0x1",
      "cumulativeGasUsed": "0x1348b",
      "logs": [
        {
          "address": "0x8120a8e0688be6b2c0bb469f871e5e7023ca85eb",
          "topics": [
            "0x9ea6790c7dadfd01c9f8b9762b3682607af2c7e79e05a9f9fdf5580dde949151",
            "0x0000000000000000000000004580859e64385e3e82ee64da2bc06ef84bde851a",
            "0x0000000000000000000000000000000000000000000000000000000000000001"
          ],
          "data": "0x8cc0de1d00000000000000000000000000000000000000000000000000000000",
          "blockHash": "0xc2026b5941c35d8ba1470109cdf7482a82f579b74d8b65a05aaa0a007e2c53c8",
          "blockNumber": "0xfc9750",
          "transactionHash": "0x7ec0c1dd1f348fdefd4b7531809fcde2c9d33576defa8f426982a085d5c95461",
          "transactionIndex": "0x1",
          "logIndex": "0x2",
          "removed": false
        },
        {
          "address": "0x0000000000000000000000000000000000001010",
          "topics": [
            "0x4dfe1bbbcf077ddc3e01291eea2d5c70c2b422b415d95645b9adcfd678cb1d63",
            "0x0000000000000000000000000000000000000000000000000000000000001010",
            "0x000000000000000000000000efbbd14082cf2fbcf5badc7ee619f0f4e36d0a5b",
            "0x00000000000000000000000009207a6efee346cb3e4a54ac18523e3715d38b3f"
          ],
          "data": "0x0000000000000000000000000000000000000000000000000004bdf57edaa718000000000000000000000000000000000000000000000001417abbe2ccf1822f000000000000000000000000000000000000000000000462073b544da2333f250000000000000000000000000000000000000000000000014175fded4e16db1700000000000000000000000000000000000000000000046207401243210de63d",
          "blockHash": "0xc2026b5941c35d8ba1470109cdf7482a82f579b74d8b65a05aaa0a007e2c53c8",
          "blockNumber": "0xfc9750",
          "transactionHash": "0x7ec0c1dd1f348fdefd4b7531809fcde2c9d33576defa8f426982a085d5c95461",
          "transactionIndex": "0x1",
          "logIndex": "0x3",
          "removed": false
        }
      ],
      "logsBloom": "0x00000004000080000000000000000000000000000000000000000000000000000000000000000000000000000000000000008000000000000000010000040000008000000000000000000000000000800000000000040100000100000000000000000000000000000000040000000000000000000000000080000000000000000800000000000000000000000800000000004000000000000000000000000000200000000000000000000000000000000000400000000000008000000000004000000000000002000001000000200000000000000000000000100000000040000100000000000000000000010000000000000000000000000000000000100000",
      "type": "0x2",
      "transactionHash": "0x7ec0c1dd1f348fdefd4b7531809fcde2c9d33576defa8f426982a085d5c95461",
      "transactionIndex": "0x1",
      "blockHash": "0xc2026b5941c35d8ba1470109cdf7482a82f579b74d8b65a05aaa0a007e2c53c8",
      "blockNumber": "0xfc9750",
      "gasUsed": "0x91d8",
      "effectiveGasPrice": "0x852ddb588",
      "from": "0xefbbd14082cf2fbcf5badc7ee619f0f4e36d0a5b",
      "to": "0x8120a8e0688be6b2c0bb469f871e5e7023ca85eb",
      "contractAddress": null
    },
    {
      "status": "0x1",
      "cumulativeGasUsed": "0x1c663",
      "logs": [
        {
          "address": "0x8120a8e0688be6b2c0bb469f871e5e7023ca85eb",
          "topics": [
            "0x9ea6790c7dadfd01c9f8b9762b3682607af2c7e79e05a9f9fdf5580dde949151",
            "0x000000000000000000000000d32ca33b1fbd97523536ed3519a191df242afcfd",
            "0x0000000000000000000000000000000000000000000000000000000000000001"
          ],
          "data": "0x06af20da00000000000000000000000000000000000000000000000000000000",
          "blockHash": "0xc2026b5941c35d8ba1470109cdf7482a82f579b74d8b65a05aaa0a007e2c53c8",
          "blockNumber": "0xfc9750",
          "transactionHash": "0xe1d4af29639e9a5179c1b130a8706521f056f93cd36acbdc5d2754fd4d57bcde",
          "transactionIndex": "0x2",
          "logIndex": "0x4",
          "removed": false
        },
        {
          "address": "0x0000000000000000000000000000000000001010",
          "topics": [
            "0x4dfe1bbbcf077ddc3e01291eea2d5c70c2b422b415d95645b9adcfd678cb1d63",
            "0x0000000000000000000000000000000000000000000000000000000000001010",
            "0x000000000000000000000000efbbd14082cf2fbcf5badc7ee619f0f4e36d0a5b",
            "0x00000000000000000000000009207a6efee346cb3e4a54ac18523e3715d38b3f"
          ],
          "data": "0x0000000000000000000000000000000000000000000000000004bdf57edaa7180000000000000000000000000000000000000000000000014175fded4e0e4f6f00000000000000000000000000000000000000000000046207401243210de63d00000000000000000000000000000000000000000000000141713ff7cf33a8570000000000000000000000000000000000000000000004620744d0389fe88d55",
          "blockHash": "0xc2026b5941c35d8ba1470109cdf7482a82f579b74d8b65a05aaa0a007e2c53c8",
          "blockNumber": "0xfc9750",
          "transactionHash": "0xe1d4af29639e9a5179c1b130a8706521f056f93cd36acbdc5d2754fd4d57bcde",
          "transactionIndex": "0x2",
          "logIndex": "0x5",
          "removed": false
        }
      ],
      "logsBloom": "0x00000004000080000000000000000000000000000000000000000000000000000000000000000000000000000000000000008000000000000000010000040000008000000000000000800000000000800000000000040100100100000000000000000000000000000000000000000000000000000000000080000000000000000800000000000000000000000800000000004000000000000000000000000000200000000000000000000000000000000000400000000000008000000000004000000000000000000001000000200000000400000000000000100000000040000000000000000000000000010000000000000000000000000000000000100000",
      "type": "0x2",
      "transactionHash": "0xe1d4af29639e9a5179c1b130a8706521f056f93cd36acbdc5d2754fd4d57bcde",
      "transactionIndex": "0x2",
      "blockHash": "0xc2026b5941c35d8ba1470109cdf7482a82f579b74d8b65a05aaa0a007e2c53c8",
      "blockNumber": "0xfc9750",
      "gasUsed": "0x91d8",
      "effectiveGasPrice": "0x852ddb588",
      "from": "0xefbbd14082cf2fbcf5badc7ee619f0f4e36d0a5b",
      "to": "0x8120a8e0688be6b2c0bb469f871e5e7023ca85eb",
      "contractAddress": null
    },
    {
      "status": "0x1",
      "cumulativeGasUsed": "0xb438",
      "logs": [
        {
          "address": "0x8120a8e0688be6b2c0bb469f871e5e7023ca85eb",
          "topics": [
            "0x9ea6790c7dadfd01c9f8b9762b3682607af2c7e79e05a9f9fdf5580dde949151",
            "0x00000000000000000000000000abb22eb950684e4314287e94f024b0a9420d40",
            "0x0000000000000000000000000000000000000000000000000000000000000001"
          ],
          "data": "0x20c5429b00000000000000000000000000000000000000000000000000000000",
          "blockHash": "0xedb245886e11c324f0c1113e3fb07903f278f6e9827e58f894f12aa988ed4b48",
          "blockNumber": "0xfc9751",
          "transactionHash": "0x1589d632ed0e74bd4a2849bd0fd11e9176b77d471be390deb2de11a458781979",
          "transactionIndex": "0x0",
          "logIndex": "0x0",
          "removed": false
        },
        {
          "address": "0x8120a8e0688be6b2c0bb469f871e5e7023ca85eb",
          "topics": [
            "0x9ea6790c7dadfd01c9f8b9762b3682607af2c7e79e05a9f9fdf5580dde949151",
            "0x00000000000000000000000000abb22eb950684e4314287e94f024b0a9420d40",
            "0x0000000000000000000000000000000000000000000000000000000000000001"
          ],
          "data": "0xb8adaa1100000000000000000000000000000000000000000000000000000000",
          "blockHash": "0xedb245886e11c324f0c1113e3fb07903f278f6e9827e58f894f12aa988ed4b48",
          "blockNumber": "0xfc9751",
          "transactionHash": "0x1589d632ed0e74bd4a2849bd0fd11e9176b77d471be390deb2de11a458781979",
          "transactionIndex": "0x0",
          "logIndex": "0x1",
          "removed": false
        },
        {
          "address": "0x8120a8e0688be6b2c0bb469f871e5e7023ca85eb",
          "topics": [
            "0x9ea6790c7dadfd01c9f8b9762b3682607af2c7e79e05a9f9fdf5580dde949151",
            "0x00000000000000000000000000abb22eb950684e4314287e94f024b0a9420d40",
            "0x0000000000000000000000000000000000000000000000000000000000000001"
          ],
          "data": "0xb759f95400000000000000000000000000000000000000000000000000000000",
          "blockHash": "0xedb245886e11c324f0c1113e3fb07903f278f6e9827e58f894f12aa988ed4b48",
          "blockNumber": "0xfc9751",
          "transactionHash": "0x1589d632ed0e74bd4a2849bd0fd11e9176b77d471be390deb2de11a458781979",
          "transactionIndex": "0x0",
          "logIndex": "0x2",
          "removed": false
        },
        {
          "address": "0x0000000000000000000000000000000000001010",
          "topics": [
            "0x4dfe1bbbcf077ddc3e01291eea2d5c70c2b422b415d95645b9adcfd678cb1d63",
            "0x0000000000000000000000000000000000000000000000000000000000001010",
            "0x000000000000000000000000efbbd14082cf2fbcf5badc7ee619f0f4e36d0a5b",
            "0x00000000000000000000000009207a6efee346cb3e4a54ac18523e3715d38b3f"
          ],
          "data": "0x0000000000000000000000000000000000000000000000000005dc160418c67800000000000000000000000000000000000000000000000141713ff7cf2b1caf0000000000000000000000000000000000000000000004620744d0389fe88d55000000000000000000000000000000000000000000000001416b63e1cb125637000000000000000000000000000000000000000000000462074aac4ea40153cd",
          "blockHash": "0xedb245886e11c324f0c1113e3fb07903f278f6e9827e58f894f12aa988ed4b48",
          "blockNumber": "0xfc9751",
          "transactionHash": "0x1589d632ed0e74bd4a2849bd0fd11e9176b77d471be390deb2de11a458781979",
          "transactionIndex": "0x0",
          "logIndex": "0x3",
          "removed": false
        }
      ],
      "logsBloom": "0x00000004000080000000000000000000000000000000000000000000000000000000000000000000000000000000000000008000000000000000010000040000008000000000000000000000000000800000000000040100000100000000000000000000000000000000000000000000000000000000000080000000000000000800000000000000000000000800000000004000000000000000000000000000200000000000000004000000000000000000400000000000008000000000004000000000000000000001000000200000000000000000000000100000000040000000000000000000000000010000000100000000000000400000000000100000",
      "type": "0x2",
      "transactionHash": "0x1589d632ed0e74bd4a2849bd0fd11e9176b77d471be390deb2de11a458781979",
      "transactionIndex": "0x0",
      "blockHash": "0xedb245886e11c324f0c1113e3fb07903f278f6e9827e58f894f12aa988ed4b48",
      "blockNumber": "0xfc9751",
      "gasUsed": "0xb438",
      "effectiveGasPrice": "0x852ddb588",
      "from": "0xefbbd14082cf2fbcf5badc7ee619f0f4e36d0a5b",
      "to": "0x8120a8e0688be6b2c0bb469f871e5e7023ca85eb",
      "contractAddress": null
    },
    {
      "status": "0x1",
      "cumulativeGasUsed": "0x1687c",
      "logs": [
        {
          "address": "0x8120a8e0688be6b2c0bb469f871e5e7023ca85eb",
          "topics": [
            "0x9ea6790c7dadfd01c9f8b9762b3682607af2c7e79e05a9f9fdf5580dde949151",
            "0x000000000000000000000000a2746f0d272bb0f5273f53b4a0f476afe8873c32",
            "0x0000000000000000000000000000000000000000000000000000000000000001"
          ],
          "data": "0xf6eea09800000000000000000000000000000000000000000000000000000000",
          "blockHash": "0xedb245886e11c324f0c1113e3fb07903f278f6e9827e58f894f12aa988ed4b48",
          "blockNumber": "0xfc9751",
          "transactionHash": "0x47b776e3c63d6fd58036040aacaa3d254f1fca6e1b27685c62659c8820e77fb2",
          "transactionIndex": "0x1",
          "logIndex": "0x4",
          "removed": false
        },
        {
          "address": "0x8120a8e0688be6b2c0bb469f871e5e7023ca85eb",
          "topics": [
            "0x9ea6790c7dadfd01c9f8b9762b3682607af2c7e79e05a9f9fdf5580dde949151",
            "0x000000000000000000000000a2746f0d272bb0f5273f53b4a0f476afe8873c32",
            "0x0000000000000000000000000000000000000000000000000000000000000001"
          ],
          "data": "0x74a8f10300000000000000000000000000000000000000000000000000000000",
          "blockHash": "0xedb245886e11c324f0c1113e3fb07903f278f6e9827e58f894f12aa988ed4b48",
          "blockNumber": "0xfc9751",
          "transactionHash": "0x47b776e3c63d6fd58036040aacaa3d254f1fca6e1b27685c62659c8820e77fb2",
          "transactionIndex": "0x1",
          "logIndex": "0x5",
          "removed": false
        },
        {
          "address": "0x8120a8e0688be6b2c0bb469f871e5e7023ca85eb",
          "topics": [
            "0x9ea6790c7dadfd01c9f8b9762b3682607af2c7e79e05a9f9fdf5580dde949151",
            "0x000000000000000000000000a2746f0d272bb0f5273f53b4a0f476afe8873c32",
            "0x0000000000000000000000000000000000000000000000000000000000000001"
          ],
          "data": "0xdaea85c500000000000000000000000000000000000000000000000000000000",
          "blockHash": "0xedb245886e11c324f0c1113e3fb07903f278f6e9827e58f894f12aa988ed4b48",
          "blockNumber": "0xfc9751",
          "transactionHash": "0x47b776e3c63d6fd58036040aacaa3d254f1fca6e1b27685c62659c8820e77fb2",
          "transactionIndex": "0x1",
          "logIndex": "0x6",
          "removed": false
        },
        {
          "address": "0x0000000000000000000000000000000000001010",
          "topics": [
            "0x4dfe1bbbcf077ddc3e01291eea2d5c70c2b422b415d95645b9adcfd678cb1d63",
            "0x0000000000000000000000000000000000000000000000000000000000001010",
            "0x000000000000000000000000efbbd14082cf2fbcf5badc7ee619f0f4e36d0a5b",
            "0x00000000000000000000000009207a6efee346cb3e4a54ac18523e3715d38b3f"
          ],
          "data": "0x0000000000000000000000000000000000000000000000000005dc79e67d4824000000000000000000000000000000000000000000000001416b63e1cb07c6ef000000000000000000000000000000000000000000000462074aac4ea40153cd00000000000000000000000000000000000000000000000141658767e48a7ecb000000000000000000000000000000000000000000000462075088c88a7e9bf1",
          "blockHash": "0xedb245886e11c324f0c1113e3fb07903f278f6e9827e58f894f12aa988ed4b48",
          "blockNumber": "0xfc9751",
          "transactionHash": "0x47b776e3c63d6fd58036040aacaa3d254f1fca6e1b27685c62659c8820e77fb2",
          "transactionIndex": "0x1",
          "logIndex": "0x7",
          "removed": false
        }
      ],
      "logsBloom": "0x00000004000080000000000000000000000000000000000000000000000000000000000000000000000000000001000000008000000000000000010000040000008000000000000000000000000000800000000000040100000100000000000000000000000000000000000000000000000000000000000080000000000000000800000000000000000000000800000000004000000000000000000000000000200000000000000000000000000000000000400000000000008000000000004000000000000000000001000400200000000000000000000000100000000040000000000000000000000040010000000000000000000000000000000000100000",
      "type": "0x2",
      "transactionHash": "0x47b776e3c63d6fd58036040aacaa3d254f1fca6e1b27685c62659c8820e77fb2",
      "transactionIndex": "0x1",
      "blockHash": "0xedb245886e11c324f0c1113e3fb07903f278f6e9827e58f894f12aa988ed4b48",
      "blockNumber": "0xfc9751",
      "gasUsed": "0xb444",
      "effectiveGasPrice": "0x852ddb588",
      "from": "0xefbbd14082cf2fbcf5badc7ee619f0f4e36d0a5b",
      "to": "0x8120a8e0688be6b2c0bb469f871e5e7023ca85eb",
      "contractAddress": null
    },
    {
      "status": "0x1",
      "cumulativeGasUsed": "0x20b2f",
      "logs": [
        {
          "address": "0x8120a8e0688be6b2c0bb469f871e5e7023ca85eb",
          "topics": [
            "0xf98448b987f1428e0e230e1f3c6e2ce15b5693eaf31827fbd0b1ec4b424ae7cf",
            "0x0000000000000000000000000000000000000000000000000000000000000002",
            "0x000000000000000000000000efbbd14082cf2fbcf5badc7ee619f0f4e36d0a5b"
          ],
          "data": "0x000000000000000000000000000000000000000000000000000000000000000000000000000000000000000000000000000000000000000000000000677caac30000000000000000000000000000000000000000000000000000000000000000",
          "blockHash": "0xedb245886e11c324f0c1113e3fb07903f278f6e9827e58f894f12aa988ed4b48",
          "blockNumber": "0xfc9751",
          "transactionHash": "0x02368b8f6c54c3ff6f5ec8f70977c88039470ecba16e91ad4bb978e96c7d5d66",
          "transactionIndex": "0x2",
          "logIndex": "0x8",
          "removed": false
        },
        {
          "address": "0x0000000000000000000000000000000000001010",
          "topics": [
            "0x4dfe1bbbcf077ddc3e01291eea2d5c70c2b422b415d95645b9adcfd678cb1d63",
            "0x0000000000000000000000000000000000000000000000000000000000001010",
            "0x000000000000000000000000efbbd14082cf2fbcf5badc7ee619f0f4e36d0a5b",
            "0x00000000000000000000000009207a6efee346cb3e4a54ac18523e3715d38b3f"
          ],
          "data": "0x00000000000000000000000000000000000000000000000000054a423ddc759b00000000000000000000000000000000000000000000000141658767e47feecf000000000000000000000000000000000000000000000462075088c88a7e9bf100000000000000000000000000000000000000000000000141603d25a6a379340000000000000000000000000000000000000000000004620755d30ac85b118c",
          "blockHash": "0xedb245886e11c324f0c1113e3fb07903f278f6e9827e58f894f12aa988ed4b48",
          "blockNumber": "0xfc9751",
          "transactionHash": "0x02368b8f6c54c3ff6f5ec8f70977c88039470ecba16e91ad4bb978e96c7d5d66",
          "transactionIndex": "0x2",
          "logIndex": "0x9",
          "removed": false
        }
      ],
      "logsBloom": "0x04000000000000000000000000000000000000000000000000000000000000000000000000000000000000000000000000008000000000000000010000000000008000000000000000000000000000800000000000000100000100000000000000000000000000000000000000000000000000000000000080000000000000000800000000000000000000000800000008004000000000000000000000000000200000000000000000002100000000000000400000000008008000000000004000000000000000000001000000000000000000000000000000100000000000000000000000000000000000010000000000000000008000000000000000100000",
      "type": "0x2",
      "transactionHash": "0x02368b8f6c54c3ff6f5ec8f70977c88039470ecba16e91ad4bb978e96c7d5d66",
      "transactionIndex": "0x2",
      "blockHash": "0xedb245886e11c324f0c1113e3fb07903f278f6e9827e58f894f12aa988ed4b48",
      "blockNumber": "0xfc9751",
      "gasUsed": "0xa2b3",
      "effectiveGasPrice": "0x852ddb588",
      "from": "0xefbbd14082cf2fbcf5badc7ee619f0f4e36d0a5b",
      "to": "0x8120a8e0688be6b2c0bb469f871e5e7023ca85eb",
      "contractAddress": null
    },
    {
      "status": "0x1",
      "cumulativeGasUsed": "0x2ae3d",
      "logs": [
        {
          "address": "0x8120a8e0688be6b2c0bb469f871e5e7023ca85eb",
          "topics": [
            "0x9ea6790c7dadfd01c9f8b9762b3682607af2c7e79e05a9f9fdf5580dde949151",
            "0x0000000000000000000000008db5ae2ae14e189c7d0e8f9c67643170e5508874",
            "0x0000000000000000000000000000000000000000000000000000000000000002"
          ],
          "data": "0xdaea85c500000000000000000000000000000000000000000000000000000000",
          "blockHash": "0xedb245886e11c324f0c1113e3fb07903f278f6e9827e58f894f12aa988ed4b48",
          "blockNumber": "0xfc9751",
          "transactionHash": "0x1add40e51f76380d813dd85e18a9665aab90442f4d7940b5f348a0938268e259",
          "transactionIndex": "0x3",
          "logIndex": "0xa",
          "removed": false
        },
        {
          "address": "0x8120a8e0688be6b2c0bb469f871e5e7023ca85eb",
          "topics": [
            "0x9ea6790c7dadfd01c9f8b9762b3682607af2c7e79e05a9f9fdf5580dde949151",
            "0x0000000000000000000000008db5ae2ae14e189c7d0e8f9c67643170e5508874",
            "0x0000000000000000000000000000000000000000000000000000000000000002"
          ],
          "data": "0xab0da5a900000000000000000000000000000000000000000000000000000000",
          "blockHash": "0xedb245886e11c324f0c1113e3fb07903f278f6e9827e58f894f12aa988ed4b48",
          "blockNumber": "0xfc9751",
          "transactionHash": "0x1add40e51f76380d813dd85e18a9665aab90442f4d7940b5f348a0938268e259",
          "transactionIndex": "0x3",
          "logIndex": "0xb",
          "removed": false
        },
        {
          "address": "0x0000000000000000000000000000000000001010",
          "topics": [
            "0x4dfe1bbbcf077ddc3e01291eea2d5c70c2b422b415d95645b9adcfd678cb1d63",
            "0x0000000000000000000000000000000000000000000000000000000000001010",
            "0x000000000000000000000000efbbd14082cf2fbcf5badc7ee619f0f4e36d0a5b",
            "0x00000000000000000000000009207a6efee346cb3e4a54ac18523e3715d38b3f"
          ],
          "data": "0x00000000000000000000000000000000000000000000000000054d37b2abf79e00000000000000000000000000000000000000000000000141603d25a699f0b70000000000000000000000000000000000000000000004620755d30ac85b118c000000000000000000000000000000000000000000000001415aefedf3edf919000000000000000000000000000000000000000000000462075b20427b07092a",
          "blockHash": "0xedb245886e11c324f0c1113e3fb07903f278f6e9827e58f894f12aa988ed4b48",
          "blockNumber": "0xfc9751",
          "transactionHash": "0x1add40e51f76380d813dd85e18a9665aab90442f4d7940b5f348a0938268e259",
          "transactionIndex": "0x3",
          "logIndex": "0xc",
          "removed": false
        }
      ],
      "logsBloom": "0x04000004000080000000000000000000000000000000000000000000000000002000000000000000000000000000000000008000000000000000010000000000008000000000000000000000000000800000000000004100000100000000000000000000000000000000000000000000000000000000000080000000000000000800000000000000000000000800000000004000000000000000000000020000200000000000000000000100000000000000400000000000008000000000004000000000000000000001000000200000000000000000000000100000000000000000000000000000000000010000000000000000008000000000000000100000",
      "type": "0x2",
      "transactionHash": "0x1add40e51f76380d813dd85e18a9665aab90442f4d7940b5f348a0938268e259",
      "transactionIndex": "0x3",
      "blockHash": "0xedb245886e11c324f0c1113e3fb07903f278f6e9827e58f894f12aa988ed4b48",
      "blockNumber": "0xfc9751",
      "gasUsed": "0xa30e",
      "effectiveGasPrice": "0x852ddb588",
      "from": "0xefbbd14082cf2fbcf5badc7ee619f0f4e36d0a5b",
      "to": "0x8120a8e0688be6b2c0bb469f871e5e7023ca85eb",
      "contractAddress": null
    },
    {
      "status": "0x1",
      "cumulativeGasUsed": "0x350f0",
      "logs": [
        {
          "address": "0x8120a8e0688be6b2c0bb469f871e5e7023ca85eb",
          "topics": [
            "0xf98448b987f1428e0e230e1f3c6e2ce15b5693eaf31827fbd0b1ec4b424ae7cf",
            "0x0000000000000000000000000000000000000000000000000000000000000004",
            "0x0000000000000000000000005945c1417ad688ef90cf3e61263b404b96a0c20b"
          ],
          "data": "0x000000000000000000000000000000000000000000000000000000000000000000000000000000000000000000000000000000000000000000000000677caac30000000000000000000000000000000000000000000000000000000000000000",
          "blockHash": "0xedb245886e11c324f0c1113e3fb07903f278f6e9827e58f894f12aa988ed4b48",
          "blockNumber": "0xfc9751",
          "transactionHash": "0xa0e8542bb375847657cbe670d6f67d87be6c024ad551133aa0ce2a18f44c8c4c",
          "transactionIndex": "0x4",
          "logIndex": "0xd",
          "removed": false
        },
        {
          "address": "0x0000000000000000000000000000000000001010",
          "topics": [
            "0x4dfe1bbbcf077ddc3e01291eea2d5c70c2b422b415d95645b9adcfd678cb1d63",
            "0x0000000000000000000000000000000000000000000000000000000000001010",
            "0x000000000000000000000000efbbd14082cf2fbcf5badc7ee619f0f4e36d0a5b",
            "0x00000000000000000000000009207a6efee346cb3e4a54ac18523e3715d38b3f"
          ],
          "data": "0x00000000000000000000000000000000000000000000000000054a423ddc759b000000000000000000000000000000000000000000000001415aefedf3e46b47000000000000000000000000000000000000000000000462075b20427b07092a0000000000000000000000000000000000000000000000014155a5abb607f5ac00000000000000000000000000000000000000000000046207606a84b8e37ec5",
          "blockHash": "0xedb245886e11c324f0c1113e3fb07903f278f6e9827e58f894f12aa988ed4b48",
          "blockNumber": "0xfc9751",
          "transactionHash": "0xa0e8542bb375847657cbe670d6f67d87be6c024ad551133aa0ce2a18f44c8c4c",
          "transactionIndex": "0x4",
          "logIndex": "0xe",
          "removed": false
        }
      ],
      "logsBloom": "0x0000000000000000000000000000000000000000000000000000000000000000000000000000000000000000000000000000800000000000000001000000000000800200000000000000000000000080000000000000010000010000000000000800000000000000000000000000000000000000000000008000000000000000080000000000000000000000084000000800400000000000000000000000000020000000000000000000200000000000000040000000000840a000000000004000000000000000000001000000000000000000008000000000100000000000000000000000000000000000010000000000000000000000000000000000100000",
      "type": "0x2",
      "transactionHash": "0xa0e8542bb375847657cbe670d6f67d87be6c024ad551133aa0ce2a18f44c8c4c",
      "transactionIndex": "0x4",
      "blockHash": "0xedb245886e11c324f0c1113e3fb07903f278f6e9827e58f894f12aa988ed4b48",
      "blockNumber": "0xfc9751",
      "gasUsed": "0xa2b3",
      "effectiveGasPrice": "0x852ddb588",
      "from": "0xefbbd14082cf2fbcf5badc7ee619f0f4e36d0a5b",
      "to": "0x8120a8e0688be6b2c0bb469f871e5e7023ca85eb",
      "contractAddress": null
    },
    {
      "status": "0x1",
      "cumulativeGasUsed": "0x3f3a3",
      "logs": [
        {
          "address": "0x8120a8e0688be6b2c0bb469f871e5e7023ca85eb",
          "topics": [
            "0xf98448b987f1428e0e230e1f3c6e2ce15b5693eaf31827fbd0b1ec4b424ae7cf",
            "0x0000000000000000000000000000000000000000000000000000000000000004",
            "0x00000000000000000000000031b351e4c217f838190825586caa8494ee1ca635"
          ],
          "data": "0x000000000000000000000000000000000000000000000000000000000000000000000000000000000000000000000000000000000000000000000000677caac30000000000000000000000000000000000000000000000000000000000000000",
          "blockHash": "0xedb245886e11c324f0c1113e3fb07903f278f6e9827e58f894f12aa988ed4b48",
          "blockNumber": "0xfc9751",
          "transactionHash": "0x4b6296084b0710f74a252a3b12791cf545cc3193c283647b42c0cf7cd9165087",
          "transactionIndex": "0x5",
          "logIndex": "0xf",
          "removed": false
        },
        {
          "address": "0x0000000000000000000000000000000000001010",
          "topics": [
            "0x4dfe1bbbcf077ddc3e01291eea2d5c70c2b422b415d95645b9adcfd678cb1d63",
            "0x0000000000000000000000000000000000000000000000000000000000001010",
            "0x000000000000000000000000efbbd14082cf2fbcf5badc7ee619f0f4e36d0a5b",
            "0x00000000000000000000000009207a6efee346cb3e4a54ac18523e3715d38b3f"
          ],
          "data": "0x00000000000000000000000000000000000000000000000000054a423ddc759b0000000000000000000000000000000000000000000000014155a5abb5fe6d2f00000000000000000000000000000000000000000000046207606a84b8e37ec500000000000000000000000000000000000000000000000141505b697821f7940000000000000000000000000000000000000000000004620765b4c6f6bff460",
          "blockHash": "0xedb245886e11c324f0c1113e3fb07903f278f6e9827e58f894f12aa988ed4b48",
          "blockNumber": "0xfc9751",
          "transactionHash": "0x4b6296084b0710f74a252a3b12791cf545cc3193c283647b42c0cf7cd9165087",
          "transactionIndex": "0x5",
          "logIndex": "0x10",
          "removed": false
        }
      ],
      "logsBloom": "0x0000000000000000000000000000000000000000000000000000000000000000000000000000000000000000000000000000800000000000000001000000000000800000000000000000000000000080000000000000010000010000000000000800000000000000000000000000000000000000000000008000000000800000080000000000000000000000080000000800400000000000000000000000000020000000000000000000200000000000000040000000000800a000000000004002000000000000000001000000000000000000008000000000100010000000000000000000000000000000010000000000000000000000000000000000100000",
      "type": "0x2",
      "transactionHash": "0x4b6296084b0710f74a252a3b12791cf545cc3193c283647b42c0cf7cd9165087",
      "transactionIndex": "0x5",
      "blockHash": "0xedb245886e11c324f0c1113e3fb07903f278f6e9827e58f894f12aa988ed4b48",
      "blockNumber": "0xfc9751",
      "gasUsed": "0xa2b3",
      "effectiveGasPrice": "0x852ddb588",
      "from": "0xefbbd14082cf2fbcf5badc7ee619f0f4e36d0a5b",
      "to": "0x8120a8e0688be6b2c0bb469f871e5e7023ca85eb",
      "contractAddress": null
    },
    {
      "status": "0x1",
      "cumulativeGasUsed": "0x49656",
      "logs": [
        {
          "address": "0x8120a8e0688be6b2c0bb469f871e5e7023ca85eb",
          "topics": [
            "0xf98448b987f1428e0e230e1f3c6e2ce15b5693eaf31827fbd0b1ec4b424ae7cf",
            "0x0000000000000000000000000000000000000000000000000000000000000004",
            "0x000000000000000000000000a2746f0d272bb0f5273f53b4a0f476afe8873c32"
          ],
          "data": "0x000000000000000000000000000000000000000000000000000000000000000000000000000000000000000000000000000000000000000000000000677caac30000000000000000000000000000000000000000000000000000000000000000",
          "blockHash": "0xedb245886e11c324f0c1113e3fb07903f278f6e9827e58f894f12aa988ed4b48",
          "blockNumber": "0xfc9751",
          "transactionHash": "0x7464546d0c417febba3fc8e463bbd041a5c38c8ede0c8c3adb65130eb0d32f31",
          "transactionIndex": "0x6",
          "logIndex": "0x11",
          "removed": false
        },
        {
          "address": "0x0000000000000000000000000000000000001010",
          "topics": [
            "0x4dfe1bbbcf077ddc3e01291eea2d5c70c2b422b415d95645b9adcfd678cb1d63",
            "0x0000000000000000000000000000000000000000000000000000000000001010",
            "0x000000000000000000000000efbbd14082cf2fbcf5badc7ee619f0f4e36d0a5b",
            "0x00000000000000000000000009207a6efee346cb3e4a54ac18523e3715d38b3f"
          ],
          "data": "0x00000000000000000000000000000000000000000000000000054a423ddc759b00000000000000000000000000000000000000000000000141505b6978186f170000000000000000000000000000000000000000000004620765b4c6f6bff460000000000000000000000000000000000000000000000001414b11273a3bf97c000000000000000000000000000000000000000000000462076aff09349c69fb",
          "blockHash": "0xedb245886e11c324f0c1113e3fb07903f278f6e9827e58f894f12aa988ed4b48",
          "blockNumber": "0xfc9751",
          "transactionHash": "0x7464546d0c417febba3fc8e463bbd041a5c38c8ede0c8c3adb65130eb0d32f31",
          "transactionIndex": "0x6",
          "logIndex": "0x12",
          "removed": false
        }
      ],
      "logsBloom": "0x0000000000000000000000000000000000000000000000000000000000000000000000000000000000000000000100000000800000000000000001000000000000800000000000000000000000000080000000000000010000010000000000000800000000000000000000000000000000000000000000008000000000000000080000000000000000000000080000000800400000000000000000000000000020000000000000000000200000000000000040000000000800a000000000004000000000000000000001000400000000000000008000000000100000000000000000000000000000000040010000000000000000000000000000000000100000",
      "type": "0x2",
      "transactionHash": "0x7464546d0c417febba3fc8e463bbd041a5c38c8ede0c8c3adb65130eb0d32f31",
      "transactionIndex": "0x6",
      "blockHash": "0xedb245886e11c324f0c1113e3fb07903f278f6e9827e58f894f12aa988ed4b48",
      "blockNumber": "0xfc9751",
      "gasUsed": "0xa2b3",
      "effectiveGasPrice": "0x852ddb588",
      "from": "0xefbbd14082cf2fbcf5badc7ee619f0f4e36d0a5b",
      "to": "0x8120a8e0688be6b2c0bb469f871e5e7023ca85eb",
      "contractAddress": null
    },
    {
      "status": "0x1",
      "cumulativeGasUsed": "0x54a9a",
      "logs": [
        {
          "address": "0x8120a8e0688be6b2c0bb469f871e5e7023ca85eb",
          "topics": [
            "0x9ea6790c7dadfd01c9f8b9762b3682607af2c7e79e05a9f9fdf5580dde949151",
            "0x00000000000000000000000083266ca8147572839bb23a204db52bd26a1fceaa",
            "0x0000000000000000000000000000000000000000000000000000000000000004"
          ],
          "data": "0x4bbc170a00000000000000000000000000000000000000000000000000000000",
          "blockHash": "0xedb245886e11c324f0c1113e3fb07903f278f6e9827e58f894f12aa988ed4b48",
          "blockNumber": "0xfc9751",
          "transactionHash": "0x80d0f78656eab331ec9b3cada3f4445cf5934be27a1d174d88fd6322f7bd609b",
          "transactionIndex": "0x7",
          "logIndex": "0x13",
          "removed": false
        },
        {
          "address": "0x8120a8e0688be6b2c0bb469f871e5e7023ca85eb",
          "topics": [
            "0x9ea6790c7dadfd01c9f8b9762b3682607af2c7e79e05a9f9fdf5580dde949151",
            "0x00000000000000000000000083266ca8147572839bb23a204db52bd26a1fceaa",
            "0x0000000000000000000000000000000000000000000000000000000000000004"
          ],
          "data": "0x15f4150100000000000000000000000000000000000000000000000000000000",
          "blockHash": "0xedb245886e11c324f0c1113e3fb07903f278f6e9827e58f894f12aa988ed4b48",
          "blockNumber": "0xfc9751",
          "transactionHash": "0x80d0f78656eab331ec9b3cada3f4445cf5934be27a1d174d88fd6322f7bd609b",
          "transactionIndex": "0x7",
          "logIndex": "0x14",
          "removed": false
        },
        {
          "address": "0x8120a8e0688be6b2c0bb469f871e5e7023ca85eb",
          "topics": [
            "0x9ea6790c7dadfd01c9f8b9762b3682607af2c7e79e05a9f9fdf5580dde949151",
            "0x00000000000000000000000083266ca8147572839bb23a204db52bd26a1fceaa",
            "0x0000000000000000000000000000000000000000000000000000000000000004"
          ],
          "data": "0x9e96a26000000000000000000000000000000000000000000000000000000000",
          "blockHash": "0xedb245886e11c324f0c1113e3fb07903f278f6e9827e58f894f12aa988ed4b48",
          "blockNumber": "0xfc9751",
          "transactionHash": "0x80d0f78656eab331ec9b3cada3f4445cf5934be27a1d174d88fd6322f7bd609b",
          "transactionIndex": "0x7",
          "logIndex": "0x15",
          "removed": false
        },
        {
          "address": "0x0000000000000000000000000000000000001010",
          "topics": [
            "0x4dfe1bbbcf077ddc3e01291eea2d5c70c2b422b415d95645b9adcfd678cb1d63",
            "0x0000000000000000000000000000000000000000000000000000000000001010",
            "0x000000000000000000000000efbbd14082cf2fbcf5badc7ee619f0f4e36d0a5b",
            "0x00000000000000000000000009207a6efee346cb3e4a54ac18523e3715d38b3f"
          ],
          "data": "0x0000000000000000000000000000000000000000000000000005dc79e67d4824000000000000000000000000000000000000000000000001414b11273a3270ff000000000000000000000000000000000000000000000462076aff09349c69fb000000000000000000000000000000000000000000000001414534ad53b528db0000000000000000000000000000000000000000000004620770db831b19b21f",
          "blockHash": "0xedb245886e11c324f0c1113e3fb07903f278f6e9827e58f894f12aa988ed4b48",
          "blockNumber": "0xfc9751",
          "transactionHash": "0x80d0f78656eab331ec9b3cada3f4445cf5934be27a1d174d88fd6322f7bd609b",
          "transactionIndex": "0x7",
          "logIndex": "0x16",
          "removed": false
        }
      ],
      "logsBloom": "0x0000000400008000000000000000000000000000000000000000000000000000000000000000000000000000000000000000800000000000000001000000000000800000000000000000000000000080000000000000010000010000000000000800000000000000000000000000000000000000000000008000000000000000080000000000000000000000080000000000400000000040000000000000000020000000000000000000000000000000000040000000000000a000000000004000000000000000000001000000200001000000008000000000100000000000000000008000000000000000010000000000000000000000000000000000100000",
      "type": "0x2",
      "transactionHash": "0x80d0f78656eab331ec9b3cada3f4445cf5934be27a1d174d88fd6322f7bd609b",
      "transactionIndex": "0x7",
      "blockHash": "0xedb245886e11c324f0c1113e3fb07903f278f6e9827e58f894f12aa988ed4b48",
      "blockNumber": "0xfc9751",
      "gasUsed": "0xb444",
      "effectiveGasPrice": "0x852ddb588",
      "from": "0xefbbd14082cf2fbcf5badc7ee619f0f4e36d0a5b",
      "to": "0x8120a8e0688be6b2c0bb469f871e5e7023ca85eb",
      "contractAddress": null
    },
    {
      "status": "0x1",
      "cumulativeGasUsed": "0x621ec",
      "logs": [
        {
          "address": "0x4580859e64385e3e82ee64da2bc06ef84bde851a",
          "topics": [
            "0x9621c1829ce5206009d367ce68b7c4fe6b4bbd70dbe22c21e5bd2a51a716c51c",
            "0x000000000000000000000000f06e1998119caedf8e084194aa5fea89ea9389c3",
            "0x0000000000000000000000003c7deb6feaeb7a82bde580fb73d8d69c401b219e"
          ],
          "data": "0x000000000000000000000000000000000000000000000000000000000000000300000000000000000000000000000000000000000000000000000000000001f4",
          "blockHash": "0xedb245886e11c324f0c1113e3fb07903f278f6e9827e58f894f12aa988ed4b48",
          "blockNumber": "0xfc9751",
          "transactionHash": "0x717116c4923c4bb9bcf96140fc920c93a3a011cae053b1b906a4619b2d32d4ae",
          "transactionIndex": "0x8",
          "logIndex": "0x17",
          "removed": false
        },
        {
          "address": "0x0000000000000000000000000000000000001010",
          "topics": [
            "0x4dfe1bbbcf077ddc3e01291eea2d5c70c2b422b415d95645b9adcfd678cb1d63",
            "0x0000000000000000000000000000000000000000000000000000000000001010",
            "0x000000000000000000000000efbbd14082cf2fbcf5badc7ee619f0f4e36d0a5b",
            "0x00000000000000000000000009207a6efee346cb3e4a54ac18523e3715d38b3f"
          ],
          "data": "0x00000000000000000000000000000000000000000000000000070042be6cbfc2000000000000000000000000000000000000000000000001414534ad53aa98df0000000000000000000000000000000000000000000004620770db831b19b21f000000000000000000000000000000000000000000000001413e346a953dd91d0000000000000000000000000000000000000000000004620777dbc5d98671e1",
          "blockHash": "0xedb245886e11c324f0c1113e3fb07903f278f6e9827e58f894f12aa988ed4b48",
          "blockNumber": "0xfc9751",
          "transactionHash": "0x717116c4923c4bb9bcf96140fc920c93a3a011cae053b1b906a4619b2d32d4ae",
          "transactionIndex": "0x8",
          "logIndex": "0x18",
          "removed": false
        }
      ],
      "logsBloom": "0x0000004000000000000000000000000000000000000180000080000000000000000000000000000000000000000200000000800000000000080001040000000000800000000000000000000000000080000000000000002000010000000000000000100000000000000000000000000000000000000000008000000000000000080000000000000000000000000000000000400000000000000000000000000020000000000000000000000000000000000040000000000000000000000000400000000000a000000001080000000000000000000000000000100000000000000000000000000000000000010000000000000000000000000000000000100000",
      "type": "0x2",
      "transactionHash": "0x717116c4923c4bb9bcf96140fc920c93a3a011cae053b1b906a4619b2d32d4ae",
      "transactionIndex": "0x8",
      "blockHash": "0xedb245886e11c324f0c1113e3fb07903f278f6e9827e58f894f12aa988ed4b48",
      "blockNumber": "0xfc9751",
      "gasUsed": "0xd752",
      "effectiveGasPrice": "0x852ddb588",
      "from": "0xefbbd14082cf2fbcf5badc7ee619f0f4e36d0a5b",
      "to": "0x4580859e64385e3e82ee64da2bc06ef84bde851a",
      "contractAddress": null
    },
    {
      "status": "0x1",
      "cumulativeGasUsed": "0x6f963",
      "logs": [
        {
          "address": "0x4580859e64385e3e82ee64da2bc06ef84bde851a",
          "topics": [
            "0x9621c1829ce5206009d367ce68b7c4fe6b4bbd70dbe22c21e5bd2a51a716c51c",
            "0x000000000000000000000000a2746f0d272bb0f5273f53b4a0f476afe8873c32",
            "0x0000000000000000000000003c7deb6feaeb7a82bde580fb73d8d69c401b219e"
          ],
          "data": "0x00000000000000000000000000000000000000000000000000000000000000010000000000000000000000000000000000000000000000056bc75e2d63100000",
          "blockHash": "0xedb245886e11c324f0c1113e3fb07903f278f6e9827e58f894f12aa988ed4b48",
          "blockNumber": "0xfc9751",
          "transactionHash": "0xc1edcd0faf69adb09a816cab8e227dea88f0652b9b2c01c5e510dc99a9414260",
          "transactionIndex": "0x9",
          "logIndex": "0x19",
          "removed": false
        },
        {
          "address": "0x0000000000000000000000000000000000001010",
          "topics": [
            "0x4dfe1bbbcf077ddc3e01291eea2d5c70c2b422b415d95645b9adcfd678cb1d63",
            "0x0000000000000000000000000000000000000000000000000000000000001010",
            "0x000000000000000000000000efbbd14082cf2fbcf5badc7ee619f0f4e36d0a5b",
            "0x00000000000000000000000009207a6efee346cb3e4a54ac18523e3715d38b3f"
          ],
          "data": "0x00000000000000000000000000000000000000000000000000070176b877fa3f000000000000000000000000000000000000000000000001413e346a95313b4f0000000000000000000000000000000000000000000004620777dbc5d98671e1000000000000000000000000000000000000000000000001413732f3dcb94110000000000000000000000000000000000000000000000462077edd3c91fe6c20",
          "blockHash": "0xedb245886e11c324f0c1113e3fb07903f278f6e9827e58f894f12aa988ed4b48",
          "blockNumber": "0xfc9751",
          "transactionHash": "0xc1edcd0faf69adb09a816cab8e227dea88f0652b9b2c01c5e510dc99a9414260",
          "transactionIndex": "0x9",
          "logIndex": "0x1a",
          "removed": false
        }
      ],
      "logsBloom": "0x0000000000000000000000000000000000000000000080000080000000000000000000000000000000000000000300000000800000000000080001040000000000800000000000000000000000000080000000000000002000010000000000000000100000000000000000000000000000000000000000008000000000000000080000000000000000000000000000000000400000000000000000000000000020000000000000000000000000000000000040000000000000000000000000400000000000a000000001000400000000000000000000000000100000000000000000000000000000000040010000000000000000000000000000000000100000",
      "type": "0x2",
      "transactionHash": "0xc1edcd0faf69adb09a816cab8e227dea88f0652b9b2c01c5e510dc99a9414260",
      "transactionIndex": "0x9",
      "blockHash": "0xedb245886e11c324f0c1113e3fb07903f278f6e9827e58f894f12aa988ed4b48",
      "blockNumber": "0xfc9751",
      "gasUsed": "0xd777",
      "effectiveGasPrice": "0x852ddb588",
      "from": "0xefbbd14082cf2fbcf5badc7ee619f0f4e36d0a5b",
      "to": "0x4580859e64385e3e82ee64da2bc06ef84bde851a",
      "contractAddress": null
    }
  ],
  "libraries": [],
  "pending": [],
  "returns": {},
  "timestamp": 1736223428,
  "chain": 80002,
  "commit": "0798d1a"
}