{
  "transactions": [
    {
      "hash": "0xd09cc6239878d6873884e1c47aa9cd8e163da2fdc37cef591f8b8964316af08f",
      "transactionType": "CALL",
      "contractName": null,
      "contractAddress": "0x8e4185b360c7862949d367816b1307ef3dd2f755",
      "function": "grantRole(uint64,address,uint32)",
      "arguments": [
        "1",
        "0xEFBBD14082cF2FbCf5Badc7ee619F0f4e36D0A5B",
        "0"
      ],
      "transaction": {
        "from": "0xefbbd14082cf2fbcf5badc7ee619f0f4e36d0a5b",
        "to": "0x8e4185b360c7862949d367816b1307ef3dd2f755",
        "gas": "0x13bcf",
        "value": "0x0",
        "input": "0x25c471a00000000000000000000000000000000000000000000000000000000000000001000000000000000000000000efbbd14082cf2fbcf5badc7ee619f0f4e36d0a5b0000000000000000000000000000000000000000000000000000000000000000",
        "nonce": "0x595",
        "chainId": "0x13882"
      },
      "additionalContracts": [],
      "isFixedGasLimit": false
    },
    {
      "hash": "0x96adc12259f7bfe9f330797e5fce52c0cca1bc12a7d8ebf984cb9e4192986e56",
      "transactionType": "CALL",
      "contractName": null,
      "contractAddress": "0x8e4185b360c7862949d367816b1307ef3dd2f755",
      "function": "setTargetFunctionRole(address,bytes4[],uint64)",
      "arguments": [
        "0x3c959F933D9617aD7C219098709907eCB77A3E62",
        "[0xecf441b7]",
        "1"
      ],
      "transaction": {
        "from": "0xefbbd14082cf2fbcf5badc7ee619f0f4e36d0a5b",
        "to": "0x8e4185b360c7862949d367816b1307ef3dd2f755",
        "gas": "0x134d0",
        "value": "0x0",
        "input": "0x08d6122d0000000000000000000000003c959f933d9617ad7c219098709907ecb77a3e62000000000000000000000000000000000000000000000000000000000000006000000000000000000000000000000000000000000000000000000000000000010000000000000000000000000000000000000000000000000000000000000001ecf441b700000000000000000000000000000000000000000000000000000000",
        "nonce": "0x596",
        "chainId": "0x13882"
      },
      "additionalContracts": [],
      "isFixedGasLimit": false
    },
    {
      "hash": "0x4c8cc06e325dbf0d6a8fe3996cf4288b6bc5312cdfb6ad28d394bf04719ba168",
      "transactionType": "CALL",
      "contractName": null,
      "contractAddress": "0x8e4185b360c7862949d367816b1307ef3dd2f755",
      "function": "setTargetFunctionRole(address,bytes4[],uint64)",
      "arguments": [
        "0x15EE2E8BA2e582a67469c00E58153ee61D269a48",
        "[0x06af20da]",
        "1"
      ],
      "transaction": {
        "from": "0xefbbd14082cf2fbcf5badc7ee619f0f4e36d0a5b",
        "to": "0x8e4185b360c7862949d367816b1307ef3dd2f755",
        "gas": "0x134d0",
        "value": "0x0",
        "input": "0x08d6122d00000000000000000000000015ee2e8ba2e582a67469c00e58153ee61d269a4800000000000000000000000000000000000000000000000000000000000000600000000000000000000000000000000000000000000000000000000000000001000000000000000000000000000000000000000000000000000000000000000106af20da00000000000000000000000000000000000000000000000000000000",
        "nonce": "0x597",
        "chainId": "0x13882"
      },
      "additionalContracts": [],
      "isFixedGasLimit": false
    },
    {
      "hash": "0x41cef35c6f94a39248e807a339c858409b4c8a61f60c3075c6a600665d72859c",
      "transactionType": "CALL",
      "contractName": null,
      "contractAddress": "0x8e4185b360c7862949d367816b1307ef3dd2f755",
      "function": "setTargetFunctionRole(address,bytes4[],uint64)",
      "arguments": [
        "0xF69149bE7287cf972E36927bcB9bFd04bCd9BEE4",
        "[0xdaea85c5, 0xab0da5a9]",
        "1"
      ],
      "transaction": {
        "from": "0xefbbd14082cf2fbcf5badc7ee619f0f4e36d0a5b",
        "to": "0x8e4185b360c7862949d367816b1307ef3dd2f755",
        "gas": "0x1b7f5",
        "value": "0x0",
        "input": "0x08d6122d000000000000000000000000f69149be7287cf972e36927bcb9bfd04bcd9bee4000000000000000000000000000000000000000000000000000000000000006000000000000000000000000000000000000000000000000000000000000000010000000000000000000000000000000000000000000000000000000000000002daea85c500000000000000000000000000000000000000000000000000000000ab0da5a900000000000000000000000000000000000000000000000000000000",
        "nonce": "0x598",
        "chainId": "0x13882"
      },
      "additionalContracts": [],
      "isFixedGasLimit": false
    },
    {
      "hash": "0x6acaedb33544311d65b27f3d6187c542afd4450f29a525a6a33b832696680967",
      "transactionType": "CALL",
      "contractName": null,
      "contractAddress": "0x8e4185b360c7862949d367816b1307ef3dd2f755",
      "function": "setTargetFunctionRole(address,bytes4[],uint64)",
      "arguments": [
        "0x07d1ba78dd15De47A8277544A76f84f6F3635CDa",
        "[0x20c5429b, 0xb8adaa11, 0xb759f954]",
        "1"
      ],
      "transaction": {
        "from": "0xefbbd14082cf2fbcf5badc7ee619f0f4e36d0a5b",
        "to": "0x8e4185b360c7862949d367816b1307ef3dd2f755",
        "gas": "0x23b19",
        "value": "0x0",
        "input": "0x08d6122d00000000000000000000000007d1ba78dd15de47a8277544a76f84f6f3635cda00000000000000000000000000000000000000000000000000000000000000600000000000000000000000000000000000000000000000000000000000000001000000000000000000000000000000000000000000000000000000000000000320c5429b00000000000000000000000000000000000000000000000000000000b8adaa1100000000000000000000000000000000000000000000000000000000b759f95400000000000000000000000000000000000000000000000000000000",
        "nonce": "0x599",
        "chainId": "0x13882"
      },
      "additionalContracts": [],
      "isFixedGasLimit": false
    },
    {
      "hash": "0x1ec651566a72a0582f09f1b8ee94b120da9f2e3e0134db122f7a24d400a7ad97",
      "transactionType": "CALL",
      "contractName": null,
      "contractAddress": "0x8e4185b360c7862949d367816b1307ef3dd2f755",
      "function": "setTargetFunctionRole(address,bytes4[],uint64)",
      "arguments": [
        "0xa84CAD70235E55632CA7292f67EF0Ce1A45C39b9",
        "[0xf6eea098, 0x74a8f103, 0xdaea85c5]",
        "1"
      ],
      "transaction": {
        "from": "0xefbbd14082cf2fbcf5badc7ee619f0f4e36d0a5b",
        "to": "0x8e4185b360c7862949d367816b1307ef3dd2f755",
        "gas": "0x23b19",
        "value": "0x0",
        "input": "0x08d6122d000000000000000000000000a84cad70235e55632ca7292f67ef0ce1a45c39b9000000000000000000000000000000000000000000000000000000000000006000000000000000000000000000000000000000000000000000000000000000010000000000000000000000000000000000000000000000000000000000000003f6eea0980000000000000000000000000000000000000000000000000000000074a8f10300000000000000000000000000000000000000000000000000000000daea85c500000000000000000000000000000000000000000000000000000000",
        "nonce": "0x59a",
        "chainId": "0x13882"
      },
      "additionalContracts": [],
      "isFixedGasLimit": false
    },
    {
      "hash": "0xd1c8002f2f39104ce3a1c09b612f03e8e82840d17e7e630a16b518d3ba007e7f",
      "transactionType": "CALL",
      "contractName": null,
      "contractAddress": "0x3c959f933d9617ad7c219098709907ecb77a3e62",
      "function": "setFees(uint8,uint256,address)",
      "arguments": [
        "2",
        "500",
        "0xbd4f590D228BB3A745Ec5feb049DDf6EdA82EB20"
      ],
      "transaction": {
        "from": "0xefbbd14082cf2fbcf5badc7ee619f0f4e36d0a5b",
        "to": "0x3c959f933d9617ad7c219098709907ecb77a3e62",
        "gas": "0x30cce",
        "value": "0x0",
        "input": "0xecf441b7000000000000000000000000000000000000000000000000000000000000000200000000000000000000000000000000000000000000000000000000000001f4000000000000000000000000bd4f590d228bb3a745ec5feb049ddf6eda82eb20",
        "nonce": "0x59b",
        "chainId": "0x13882"
      },
      "additionalContracts": [],
      "isFixedGasLimit": false
    },
    {
      "hash": "0xc0dbd4a0cfee2fc0217dad126663f20cb011a1f74d963358c6f7d129619fde51",
      "transactionType": "CALL",
      "contractName": null,
      "contractAddress": "0x3c959f933d9617ad7c219098709907ecb77a3e62",
      "function": "setFees(uint8,uint256,address)",
      "arguments": [
        "1",
        "100000000000000000000",
        "0xbd4f590D228BB3A745Ec5feb049DDf6EdA82EB20"
      ],
      "transaction": {
        "from": "0xefbbd14082cf2fbcf5badc7ee619f0f4e36d0a5b",
        "to": "0x3c959f933d9617ad7c219098709907ecb77a3e62",
        "gas": "0x2e1a0",
        "value": "0x0",
        "input": "0xecf441b700000000000000000000000000000000000000000000000000000000000000010000000000000000000000000000000000000000000000056bc75e2d63100000000000000000000000000000bd4f590d228bb3a745ec5feb049ddf6eda82eb20",
        "nonce": "0x59c",
        "chainId": "0x13882"
      },
      "additionalContracts": [],
      "isFixedGasLimit": false
    }
  ],
  "receipts": [
    {
      "status": "0x1",
      "cumulativeGasUsed": "0xe4a4",
      "logs": [
        {
          "address": "0x8e4185b360c7862949d367816b1307ef3dd2f755",
          "topics": [
            "0xf98448b987f1428e0e230e1f3c6e2ce15b5693eaf31827fbd0b1ec4b424ae7cf",
            "0x0000000000000000000000000000000000000000000000000000000000000001",
            "0x000000000000000000000000efbbd14082cf2fbcf5badc7ee619f0f4e36d0a5b"
          ],
          "data": "0x00000000000000000000000000000000000000000000000000000000000000000000000000000000000000000000000000000000000000000000000067367aca0000000000000000000000000000000000000000000000000000000000000001",
          "blockHash": "0x99abb3d74cd8d2862b52de0be03354e6a88fd1ce750195727e0b67d62c75651b",
          "blockNumber": "0xdc3a57",
          "transactionHash": "0xd09cc6239878d6873884e1c47aa9cd8e163da2fdc37cef591f8b8964316af08f",
          "transactionIndex": "0x0",
          "logIndex": "0x0",
          "removed": false
        },
        {
          "address": "0x0000000000000000000000000000000000001010",
          "topics": [
            "0x4dfe1bbbcf077ddc3e01291eea2d5c70c2b422b415d95645b9adcfd678cb1d63",
            "0x0000000000000000000000000000000000000000000000000000000000001010",
            "0x000000000000000000000000efbbd14082cf2fbcf5badc7ee619f0f4e36d0a5b",
            "0x0000000000000000000000004ca9ff871c7aa1e7b64e1eae110835f68d6a0bd4"
          ],
          "data": "0x00000000000000000000000000000000000000000000000000085161baaada64000000000000000000000000000000000000000000000000327de240febef9e6000000000000000000000000000000000000000000000030705d9c458bbc9ec4000000000000000000000000000000000000000000000000327590df44141f820000000000000000000000000000000000000000000000307065eda746677928",
          "blockHash": "0x99abb3d74cd8d2862b52de0be03354e6a88fd1ce750195727e0b67d62c75651b",
          "blockNumber": "0xdc3a57",
          "transactionHash": "0xd09cc6239878d6873884e1c47aa9cd8e163da2fdc37cef591f8b8964316af08f",
          "transactionIndex": "0x0",
          "logIndex": "0x1",
          "removed": false
        }
      ],
      "logsBloom": "0x00000000000000000000000000000000000000000000000000000000000000000000000000000000000000000000000020008000000000000000000000040000008000000000000000000000000000800000000000040020000100000000000000000000000000000000000000000000000000000000000080000000000000000800000000000000000000000000000008008000000000000000000000000000200000000000040000002001000000000000400000000008000000000000004000000000000000000201000000000000000000000000000000100000000040000000000000000000000000000000000000000000000000000000000000100000",
      "type": "0x2",
      "transactionHash": "0xd09cc6239878d6873884e1c47aa9cd8e163da2fdc37cef591f8b8964316af08f",
      "transactionIndex": "0x0",
      "blockHash": "0x99abb3d74cd8d2862b52de0be03354e6a88fd1ce750195727e0b67d62c75651b",
      "blockNumber": "0xdc3a57",
      "gasUsed": "0xe4a4",
      "effectiveGasPrice": "0x9502f9000",
      "from": "0xefbbd14082cf2fbcf5badc7ee619f0f4e36d0a5b",
      "to": "0x8e4185b360c7862949d367816b1307ef3dd2f755",
      "contractAddress": null
    },
    {
      "status": "0x1",
      "cumulativeGasUsed": "0x2d596",
      "logs": [
        {
          "address": "0x8e4185b360c7862949d367816b1307ef3dd2f755",
          "topics": [
            "0x9ea6790c7dadfd01c9f8b9762b3682607af2c7e79e05a9f9fdf5580dde949151",
            "0x0000000000000000000000003c959f933d9617ad7c219098709907ecb77a3e62",
            "0x0000000000000000000000000000000000000000000000000000000000000001"
          ],
          "data": "0xecf441b700000000000000000000000000000000000000000000000000000000",
          "blockHash": "0xaac45d6d7a4f5e0d620cf4ab7a3052f71a323faf04fac27df6581c0da2fee2f1",
          "blockNumber": "0xdc3a59",
          "transactionHash": "0x96adc12259f7bfe9f330797e5fce52c0cca1bc12a7d8ebf984cb9e4192986e56",
          "transactionIndex": "0x1",
          "logIndex": "0x3",
          "removed": false
        },
        {
          "address": "0x0000000000000000000000000000000000001010",
          "topics": [
            "0x4dfe1bbbcf077ddc3e01291eea2d5c70c2b422b415d95645b9adcfd678cb1d63",
            "0x0000000000000000000000000000000000000000000000000000000000001010",
            "0x000000000000000000000000efbbd14082cf2fbcf5badc7ee619f0f4e36d0a5b",
            "0x0000000000000000000000004ca9ff871c7aa1e7b64e1eae110835f68d6a0bd4"
          ],
          "data": "0x0000000000000000000000000000000000000000000000000008223bc9e22654000000000000000000000000000000000000000000000000327590df4406b9e600000000000000000000000000000000000000000000003070970e5d4b29f8f2000000000000000000000000000000000000000000000000326d6ea37a249392000000000000000000000000000000000000000000000030709f3099150c1f46",
          "blockHash": "0xaac45d6d7a4f5e0d620cf4ab7a3052f71a323faf04fac27df6581c0da2fee2f1",
          "blockNumber": "0xdc3a59",
          "transactionHash": "0x96adc12259f7bfe9f330797e5fce52c0cca1bc12a7d8ebf984cb9e4192986e56",
          "transactionIndex": "0x1",
          "logIndex": "0x4",
          "removed": false
        }
      ],
      "logsBloom": "0x00000004000080000000000000000000000000000000000000000000000000000000000000000000000000000000000020008000000000000000000000040000008000000000000000000000000000800000000000040020000100000000000000000000000000000000000000000000000000000000000080000000000000000800000000000000000000000000000000008000000000000000004000000000208000000000040000000011000000000000400000000000000000000000004000000000000000000201000000200000000000000000000000100000000040000000000000000000000000000000000000000000000000000000000000100000",
      "type": "0x2",
      "transactionHash": "0x96adc12259f7bfe9f330797e5fce52c0cca1bc12a7d8ebf984cb9e4192986e56",
      "transactionIndex": "0x1",
      "blockHash": "0xaac45d6d7a4f5e0d620cf4ab7a3052f71a323faf04fac27df6581c0da2fee2f1",
      "blockNumber": "0xdc3a59",
      "gasUsed": "0xdf94",
      "effectiveGasPrice": "0x9502f9000",
      "from": "0xefbbd14082cf2fbcf5badc7ee619f0f4e36d0a5b",
      "to": "0x8e4185b360c7862949d367816b1307ef3dd2f755",
      "contractAddress": null
    },
    {
      "status": "0x1",
      "cumulativeGasUsed": "0x2d596",
      "logs": [
        {
          "address": "0x8e4185b360c7862949d367816b1307ef3dd2f755",
          "topics": [
            "0x9ea6790c7dadfd01c9f8b9762b3682607af2c7e79e05a9f9fdf5580dde949151",
            "0x00000000000000000000000015ee2e8ba2e582a67469c00e58153ee61d269a48",
            "0x0000000000000000000000000000000000000000000000000000000000000001"
          ],
          "data": "0x06af20da00000000000000000000000000000000000000000000000000000000",
          "blockHash": "0xf665852fd7480255bab9682e639f30a4fc46b5221ad6271e743a3eebd4374834",
          "blockNumber": "0xdc3a5b",
          "transactionHash": "0x4c8cc06e325dbf0d6a8fe3996cf4288b6bc5312cdfb6ad28d394bf04719ba168",
          "transactionIndex": "0x1",
          "logIndex": "0x3",
          "removed": false
        },
        {
          "address": "0x0000000000000000000000000000000000001010",
          "topics": [
            "0x4dfe1bbbcf077ddc3e01291eea2d5c70c2b422b415d95645b9adcfd678cb1d63",
            "0x0000000000000000000000000000000000000000000000000000000000001010",
            "0x000000000000000000000000efbbd14082cf2fbcf5badc7ee619f0f4e36d0a5b",
            "0x0000000000000000000000004ca9ff871c7aa1e7b64e1eae110835f68d6a0bd4"
          ],
          "data": "0x0000000000000000000000000000000000000000000000000008223bc9e22654000000000000000000000000000000000000000000000000326d6ea37a1779e600000000000000000000000000000000000000000000003070e72d5c98018dac00000000000000000000000000000000000000000000000032654c67b035539200000000000000000000000000000000000000000000003070ef4f9861e3b400",
          "blockHash": "0xf665852fd7480255bab9682e639f30a4fc46b5221ad6271e743a3eebd4374834",
          "blockNumber": "0xdc3a5b",
          "transactionHash": "0x4c8cc06e325dbf0d6a8fe3996cf4288b6bc5312cdfb6ad28d394bf04719ba168",
          "transactionIndex": "0x1",
          "logIndex": "0x4",
          "removed": false
        }
      ],
      "logsBloom": "0x80000004000080000000000000000000000000000000000000000000000000000000000000000000000000000000000021008000000000000000000000040000008000000000000000000000000000800000000000040020000100000000000000000000000000000000000000000000000000000000000080000000000000000800000000000000000000000000000000008000000000000000000000000000200000000000040000000001000000000000400000000000000000000000004000000000000000000201000000200000000000000000000000100000000040000010000000000000000000000000000000000000000000000000000000100000",
      "type": "0x2",
      "transactionHash": "0x4c8cc06e325dbf0d6a8fe3996cf4288b6bc5312cdfb6ad28d394bf04719ba168",
      "transactionIndex": "0x1",
      "blockHash": "0xf665852fd7480255bab9682e639f30a4fc46b5221ad6271e743a3eebd4374834",
      "blockNumber": "0xdc3a5b",
      "gasUsed": "0xdf94",
      "effectiveGasPrice": "0x9502f9000",
      "from": "0xefbbd14082cf2fbcf5badc7ee619f0f4e36d0a5b",
      "to": "0x8e4185b360c7862949d367816b1307ef3dd2f755",
      "contractAddress": null
    },
    {
      "status": "0x1",
      "cumulativeGasUsed": "0x2e6b4",
      "logs": [
        {
          "address": "0x8e4185b360c7862949d367816b1307ef3dd2f755",
          "topics": [
            "0x9ea6790c7dadfd01c9f8b9762b3682607af2c7e79e05a9f9fdf5580dde949151",
            "0x000000000000000000000000f69149be7287cf972e36927bcb9bfd04bcd9bee4",
            "0x0000000000000000000000000000000000000000000000000000000000000001"
          ],
          "data": "0xdaea85c500000000000000000000000000000000000000000000000000000000",
          "blockHash": "0xb66739d16aff0d383a5e4e188796195d16ec9cf5190d8c4794740be71fe399cc",
          "blockNumber": "0xdc3a5d",
          "transactionHash": "0x41cef35c6f94a39248e807a339c858409b4c8a61f60c3075c6a600665d72859c",
          "transactionIndex": "0x1",
          "logIndex": "0x3",
          "removed": false
        },
        {
          "address": "0x8e4185b360c7862949d367816b1307ef3dd2f755",
          "topics": [
            "0x9ea6790c7dadfd01c9f8b9762b3682607af2c7e79e05a9f9fdf5580dde949151",
            "0x000000000000000000000000f69149be7287cf972e36927bcb9bfd04bcd9bee4",
            "0x0000000000000000000000000000000000000000000000000000000000000001"
          ],
          "data": "0xab0da5a900000000000000000000000000000000000000000000000000000000",
          "blockHash": "0xb66739d16aff0d383a5e4e188796195d16ec9cf5190d8c4794740be71fe399cc",
          "blockNumber": "0xdc3a5d",
          "transactionHash": "0x41cef35c6f94a39248e807a339c858409b4c8a61f60c3075c6a600665d72859c",
          "transactionIndex": "0x1",
          "logIndex": "0x4",
          "removed": false
        },
        {
          "address": "0x0000000000000000000000000000000000001010",
          "topics": [
            "0x4dfe1bbbcf077ddc3e01291eea2d5c70c2b422b415d95645b9adcfd678cb1d63",
            "0x0000000000000000000000000000000000000000000000000000000000001010",
            "0x000000000000000000000000efbbd14082cf2fbcf5badc7ee619f0f4e36d0a5b",
            "0x0000000000000000000000004ca9ff871c7aa1e7b64e1eae110835f68d6a0bd4"
          ],
          "data": "0x000000000000000000000000000000000000000000000000000b967b0db2b62600000000000000000000000000000000000000000000000032654c67b02839e6000000000000000000000000000000000000000000000030711d9be9733242820000000000000000000000000000000000000000000000003259b5eca27583c00000000000000000000000000000000000000000000000307129326480e4f8a8",
          "blockHash": "0xb66739d16aff0d383a5e4e188796195d16ec9cf5190d8c4794740be71fe399cc",
          "blockNumber": "0xdc3a5d",
          "transactionHash": "0x41cef35c6f94a39248e807a339c858409b4c8a61f60c3075c6a600665d72859c",
          "transactionIndex": "0x1",
          "logIndex": "0x5",
          "removed": false
        }
      ],
      "logsBloom": "0x00000004000080000000000000000000000000000000000000000400000000000000000000000000000000000000000020008000000000000000000000040000008000000000000000000000000000800000000000040020000100000000000000000000000000000000000000000000000000000000000080400000000000000800000000000000000000000000000000008000000000000000000000000000200000000000040000000001000000000000400000000000000010000000004000000000000000000201000000200000000000000000000000100000000040000000000000000000000000000000000000000000000000000000000000100000",
      "type": "0x2",
      "transactionHash": "0x41cef35c6f94a39248e807a339c858409b4c8a61f60c3075c6a600665d72859c",
      "transactionIndex": "0x1",
      "blockHash": "0xb66739d16aff0d383a5e4e188796195d16ec9cf5190d8c4794740be71fe399cc",
      "blockNumber": "0xdc3a5d",
      "gasUsed": "0x13e86",
      "effectiveGasPrice": "0x9502f9000",
      "from": "0xefbbd14082cf2fbcf5badc7ee619f0f4e36d0a5b",
      "to": "0x8e4185b360c7862949d367816b1307ef3dd2f755",
      "contractAddress": null
    },
    {
      "status": "0x1",
      "cumulativeGasUsed": "0x3459a",
      "logs": [
        {
          "address": "0x8e4185b360c7862949d367816b1307ef3dd2f755",
          "topics": [
            "0x9ea6790c7dadfd01c9f8b9762b3682607af2c7e79e05a9f9fdf5580dde949151",
            "0x00000000000000000000000007d1ba78dd15de47a8277544a76f84f6f3635cda",
            "0x0000000000000000000000000000000000000000000000000000000000000001"
          ],
          "data": "0x20c5429b00000000000000000000000000000000000000000000000000000000",
          "blockHash": "0x6d038e3bbcd108481e3c931cd489cf09981ff0e61fa62164a21659eef2944586",
          "blockNumber": "0xdc3a5f",
          "transactionHash": "0x6acaedb33544311d65b27f3d6187c542afd4450f29a525a6a33b832696680967",
          "transactionIndex": "0x1",
          "logIndex": "0x3",
          "removed": false
        },
        {
          "address": "0x8e4185b360c7862949d367816b1307ef3dd2f755",
          "topics": [
            "0x9ea6790c7dadfd01c9f8b9762b3682607af2c7e79e05a9f9fdf5580dde949151",
            "0x00000000000000000000000007d1ba78dd15de47a8277544a76f84f6f3635cda",
            "0x0000000000000000000000000000000000000000000000000000000000000001"
          ],
          "data": "0xb8adaa1100000000000000000000000000000000000000000000000000000000",
          "blockHash": "0x6d038e3bbcd108481e3c931cd489cf09981ff0e61fa62164a21659eef2944586",
          "blockNumber": "0xdc3a5f",
          "transactionHash": "0x6acaedb33544311d65b27f3d6187c542afd4450f29a525a6a33b832696680967",
          "transactionIndex": "0x1",
          "logIndex": "0x4",
          "removed": false
        },
        {
          "address": "0x8e4185b360c7862949d367816b1307ef3dd2f755",
          "topics": [
            "0x9ea6790c7dadfd01c9f8b9762b3682607af2c7e79e05a9f9fdf5580dde949151",
            "0x00000000000000000000000007d1ba78dd15de47a8277544a76f84f6f3635cda",
            "0x0000000000000000000000000000000000000000000000000000000000000001"
          ],
          "data": "0xb759f95400000000000000000000000000000000000000000000000000000000",
          "blockHash": "0x6d038e3bbcd108481e3c931cd489cf09981ff0e61fa62164a21659eef2944586",
          "blockNumber": "0xdc3a5f",
          "transactionHash": "0x6acaedb33544311d65b27f3d6187c542afd4450f29a525a6a33b832696680967",
          "transactionIndex": "0x1",
          "logIndex": "0x5",
          "removed": false
        },
        {
          "address": "0x0000000000000000000000000000000000001010",
          "topics": [
            "0x4dfe1bbbcf077ddc3e01291eea2d5c70c2b422b415d95645b9adcfd678cb1d63",
            "0x0000000000000000000000000000000000000000000000000000000000001010",
            "0x000000000000000000000000efbbd14082cf2fbcf5badc7ee619f0f4e36d0a5b",
            "0x0000000000000000000000004ca9ff871c7aa1e7b64e1eae110835f68d6a0bd4"
          ],
          "data": "0x000000000000000000000000000000000000000000000000000f0aba518345f80000000000000000000000000000000000000000000000003259b5eca262d9e600000000000000000000000000000000000000000000003071577dd60dbe0892000000000000000000000000000000000000000000000000324aab3250df93ee000000000000000000000000000000000000000000000030716688905f414e8a",
          "blockHash": "0x6d038e3bbcd108481e3c931cd489cf09981ff0e61fa62164a21659eef2944586",
          "blockNumber": "0xdc3a5f",
          "transactionHash": "0x6acaedb33544311d65b27f3d6187c542afd4450f29a525a6a33b832696680967",
          "transactionIndex": "0x1",
          "logIndex": "0x6",
          "removed": false
        }
      ],
      "logsBloom": "0x00000004000080000000000000000000000000800000000000000000000000000000000000000000000000000000000020008000000000000000000000040000008000000000000000000000000000800000000000040020000100000000000000000000000000000000000000000000000000000000000080000000000000000800000000000000000000000000000000008000000000000000000000000000200000000000040000000001000000000000400000000000000000000000004000000000000000000201000000300000000000000000000000100000001040000000000000000000000000000000000000000000000000000000000000100000",
      "type": "0x2",
      "transactionHash": "0x6acaedb33544311d65b27f3d6187c542afd4450f29a525a6a33b832696680967",
      "transactionIndex": "0x1",
      "blockHash": "0x6d038e3bbcd108481e3c931cd489cf09981ff0e61fa62164a21659eef2944586",
      "blockNumber": "0xdc3a5f",
      "gasUsed": "0x19d78",
      "effectiveGasPrice": "0x9502f9000",
      "from": "0xefbbd14082cf2fbcf5badc7ee619f0f4e36d0a5b",
      "to": "0x8e4185b360c7862949d367816b1307ef3dd2f755",
      "contractAddress": null
    },
    {
      "status": "0x1",
      "cumulativeGasUsed": "0x3d89d",
      "logs": [
        {
          "address": "0x8e4185b360c7862949d367816b1307ef3dd2f755",
          "topics": [
            "0x9ea6790c7dadfd01c9f8b9762b3682607af2c7e79e05a9f9fdf5580dde949151",
            "0x000000000000000000000000a84cad70235e55632ca7292f67ef0ce1a45c39b9",
            "0x0000000000000000000000000000000000000000000000000000000000000001"
          ],
          "data": "0xf6eea09800000000000000000000000000000000000000000000000000000000",
          "blockHash": "0x6d1e7f5fd16065b779221f3c72e2e402e0689b16ed8a33b8a39247efd2b8723c",
          "blockNumber": "0xdc3a61",
          "transactionHash": "0x1ec651566a72a0582f09f1b8ee94b120da9f2e3e0134db122f7a24d400a7ad97",
          "transactionIndex": "0x1",
          "logIndex": "0x1",
          "removed": false
        },
        {
          "address": "0x8e4185b360c7862949d367816b1307ef3dd2f755",
          "topics": [
            "0x9ea6790c7dadfd01c9f8b9762b3682607af2c7e79e05a9f9fdf5580dde949151",
            "0x000000000000000000000000a84cad70235e55632ca7292f67ef0ce1a45c39b9",
            "0x0000000000000000000000000000000000000000000000000000000000000001"
          ],
          "data": "0x74a8f10300000000000000000000000000000000000000000000000000000000",
          "blockHash": "0x6d1e7f5fd16065b779221f3c72e2e402e0689b16ed8a33b8a39247efd2b8723c",
          "blockNumber": "0xdc3a61",
          "transactionHash": "0x1ec651566a72a0582f09f1b8ee94b120da9f2e3e0134db122f7a24d400a7ad97",
          "transactionIndex": "0x1",
          "logIndex": "0x2",
          "removed": false
        },
        {
          "address": "0x8e4185b360c7862949d367816b1307ef3dd2f755",
          "topics": [
            "0x9ea6790c7dadfd01c9f8b9762b3682607af2c7e79e05a9f9fdf5580dde949151",
            "0x000000000000000000000000a84cad70235e55632ca7292f67ef0ce1a45c39b9",
            "0x0000000000000000000000000000000000000000000000000000000000000001"
          ],
          "data": "0xdaea85c500000000000000000000000000000000000000000000000000000000",
          "blockHash": "0x6d1e7f5fd16065b779221f3c72e2e402e0689b16ed8a33b8a39247efd2b8723c",
          "blockNumber": "0xdc3a61",
          "transactionHash": "0x1ec651566a72a0582f09f1b8ee94b120da9f2e3e0134db122f7a24d400a7ad97",
          "transactionIndex": "0x1",
          "logIndex": "0x3",
          "removed": false
        },
        {
          "address": "0x0000000000000000000000000000000000001010",
          "topics": [
            "0x4dfe1bbbcf077ddc3e01291eea2d5c70c2b422b415d95645b9adcfd678cb1d63",
            "0x0000000000000000000000000000000000000000000000000000000000001010",
            "0x000000000000000000000000efbbd14082cf2fbcf5badc7ee619f0f4e36d0a5b",
            "0x0000000000000000000000004ad84f7014b7b44f723f284a85b1662337971439"
          ],
          "data": "0x000000000000000000000000000000000000000000000000000f0aba518345f8000000000000000000000000000000000000000000000000324aab3250c759e600000000000000000000000000000000000000000000040f1bc862bffaec2dfa000000000000000000000000000000000000000000000000323ba077ff4413ee00000000000000000000000000000000000000000000040f1bd76d7a4c6f73f2",
          "blockHash": "0x6d1e7f5fd16065b779221f3c72e2e402e0689b16ed8a33b8a39247efd2b8723c",
          "blockNumber": "0xdc3a61",
          "transactionHash": "0x1ec651566a72a0582f09f1b8ee94b120da9f2e3e0134db122f7a24d400a7ad97",
          "transactionIndex": "0x1",
          "logIndex": "0x4",
          "removed": false
        }
      ],
      "logsBloom": "0x00000004000080200000000000000000000000000000000000200000000000000000000000000000000000000000000000008000000000000000000000440000008000000000000000000000000000800000000000040020000100001000000000000000000000000000000000000000000000000000000080000000000000000800000000000000000000000000000000000000000000000000000000000000200000000000000000000001000000000000400000000000000000000000004000000000000000000201000000200000000000000000000000100000000040000008000000000000000000000000008000000000000000000000000000100000",
      "type": "0x2",
      "transactionHash": "0x1ec651566a72a0582f09f1b8ee94b120da9f2e3e0134db122f7a24d400a7ad97",
      "transactionIndex": "0x1",
      "blockHash": "0x6d1e7f5fd16065b779221f3c72e2e402e0689b16ed8a33b8a39247efd2b8723c",
      "blockNumber": "0xdc3a61",
      "gasUsed": "0x19d78",
      "effectiveGasPrice": "0x9502f9000",
      "from": "0xefbbd14082cf2fbcf5badc7ee619f0f4e36d0a5b",
      "to": "0x8e4185b360c7862949d367816b1307ef3dd2f755",
      "contractAddress": null
    },
    {
      "status": "0x1",
      "cumulativeGasUsed": "0x267eb",
      "logs": [
        {
          "address": "0x3c959f933d9617ad7c219098709907ecb77a3e62",
          "topics": [
            "0xfbbd6e9cc51f124b05f08f20e9aef57fb26fc9a927be06212c59506610581335",
            "0x000000000000000000000000bd4f590d228bb3a745ec5feb049ddf6eda82eb20",
            "0x000000000000000000000000efbbd14082cf2fbcf5badc7ee619f0f4e36d0a5b"
          ],
          "data": "0x00000000000000000000000000000000000000000000000000000000000001f40000000000000000000000000000000000000000000000000000000000000002",
          "blockHash": "0x61afc37b907e0a8427a184f52160f2daa30d55d87f1e7942354d7d94f6f22e58",
          "blockNumber": "0xdc3a63",
          "transactionHash": "0xd1c8002f2f39104ce3a1c09b612f03e8e82840d17e7e630a16b518d3ba007e7f",
          "transactionIndex": "0x1",
          "logIndex": "0x2",
          "removed": false
        },
        {
          "address": "0x0000000000000000000000000000000000001010",
          "topics": [
            "0x4dfe1bbbcf077ddc3e01291eea2d5c70c2b422b415d95645b9adcfd678cb1d63",
            "0x0000000000000000000000000000000000000000000000000000000000001010",
            "0x000000000000000000000000efbbd14082cf2fbcf5badc7ee619f0f4e36d0a5b",
            "0x0000000000000000000000004ad84f7014b7b44f723f284a85b1662337971439"
          ],
          "data": "0x00000000000000000000000000000000000000000000000000136c3520dd67b3000000000000000000000000000000000000000000000000323ba077ff2bd9e600000000000000000000000000000000000000000000040f1be84512e3abc97a00000000000000000000000000000000000000000000000032283442de4e723300000000000000000000000000000000000000000000040f1bfbb1480489312d",
          "blockHash": "0x61afc37b907e0a8427a184f52160f2daa30d55d87f1e7942354d7d94f6f22e58",
          "blockNumber": "0xdc3a63",
          "transactionHash": "0xd1c8002f2f39104ce3a1c09b612f03e8e82840d17e7e630a16b518d3ba007e7f",
          "transactionIndex": "0x1",
          "logIndex": "0x3",
          "removed": false
        }
      ],
      "logsBloom": "0x00000000000000000080800000000000000000004000000000000000000000000000000000000000000000000000000000008000000400000000000000400000008000000000000000000000000000800000000000000020000100001000000000000000000000400000000000000000000000000000000080000000004000000800000000000000000000000000000000000000000000000000000000000000200000000000000000000000000000000000400000000000000000000000004000000000000000000001000000000000000000000000002000100000000000000000000000000000000000000000008000000000000000000000004000100000",
      "type": "0x2",
      "transactionHash": "0xd1c8002f2f39104ce3a1c09b612f03e8e82840d17e7e630a16b518d3ba007e7f",
      "transactionIndex": "0x1",
      "blockHash": "0x61afc37b907e0a8427a184f52160f2daa30d55d87f1e7942354d7d94f6f22e58",
      "blockNumber": "0xdc3a63",
      "gasUsed": "0x215e3",
      "effectiveGasPrice": "0x9502f9000",
      "from": "0xefbbd14082cf2fbcf5badc7ee619f0f4e36d0a5b",
      "to": "0x3c959f933d9617ad7c219098709907ecb77a3e62",
      "contractAddress": null
    },
    {
      "status": "0x1",
      "cumulativeGasUsed": "0x21608",
      "logs": [
        {
          "address": "0x3c959f933d9617ad7c219098709907ecb77a3e62",
          "topics": [
            "0xfbbd6e9cc51f124b05f08f20e9aef57fb26fc9a927be06212c59506610581335",
            "0x000000000000000000000000bd4f590d228bb3a745ec5feb049ddf6eda82eb20",
            "0x000000000000000000000000efbbd14082cf2fbcf5badc7ee619f0f4e36d0a5b"
          ],
          "data": "0x0000000000000000000000000000000000000000000000056bc75e2d631000000000000000000000000000000000000000000000000000000000000000000001",
          "blockHash": "0x50756ffad231304762f665924d072c77b3fd195ecf0c83ebff53c53ac44938e2",
          "blockNumber": "0xdc3a66",
          "transactionHash": "0xc0dbd4a0cfee2fc0217dad126663f20cb011a1f74d963358c6f7d129619fde51",
          "transactionIndex": "0x0",
          "logIndex": "0x0",
          "removed": false
        },
        {
          "address": "0x0000000000000000000000000000000000001010",
          "topics": [
            "0x4dfe1bbbcf077ddc3e01291eea2d5c70c2b422b415d95645b9adcfd678cb1d63",
            "0x0000000000000000000000000000000000000000000000000000000000001010",
            "0x000000000000000000000000efbbd14082cf2fbcf5badc7ee619f0f4e36d0a5b",
            "0x0000000000000000000000004ad84f7014b7b44f723f284a85b1662337971439"
          ],
          "data": "0x00000000000000000000000000000000000000000000000000136d8db7bd358800000000000000000000000000000000000000000000000032283442de2f29e600000000000000000000000000000000000000000000040f1bfbb1480489312d0000000000000000000000000000000000000000000000003214c6b52671f45e00000000000000000000000000000000000000000000040f1c0f1ed5bc4666b5",
          "blockHash": "0x50756ffad231304762f665924d072c77b3fd195ecf0c83ebff53c53ac44938e2",
          "blockNumber": "0xdc3a66",
          "transactionHash": "0xc0dbd4a0cfee2fc0217dad126663f20cb011a1f74d963358c6f7d129619fde51",
          "transactionIndex": "0x0",
          "logIndex": "0x1",
          "removed": false
        }
      ],
      "logsBloom": "0x00000000000000000080800000000000000000004000000000000000000000000000000000000000000000000000000000008000000400000000000000400000008000000000000000000000000000800000000000000020000100001000000000000000000000400000000000000000000000000000000080000000004000000800000000000000000000000000000000000000000000000000000000000000200000000000000000000000000000000000400000000000000000000000004000000000000000000001000000000000000000000000002000100000000000000000000000000000000000000000008000000000000000000000004000100000",
      "type": "0x2",
      "transactionHash": "0xc0dbd4a0cfee2fc0217dad126663f20cb011a1f74d963358c6f7d129619fde51",
      "transactionIndex": "0x0",
      "blockHash": "0x50756ffad231304762f665924d072c77b3fd195ecf0c83ebff53c53ac44938e2",
      "blockNumber": "0xdc3a66",
      "gasUsed": "0x21608",
      "effectiveGasPrice": "0x9502f9000",
      "from": "0xefbbd14082cf2fbcf5badc7ee619f0f4e36d0a5b",
      "to": "0x3c959f933d9617ad7c219098709907ecb77a3e62",
      "contractAddress": null
    }
  ],
  "libraries": [],
  "pending": [],
  "returns": {},
  "timestamp": 1731623658,
  "chain": 80002,
  "commit": "bceebff"
}