{
  "transactions": [
    {
      "hash": "0x855d7328112b6241846a30c6e0bcea61de0eea71ee9dcae81987a0e8b55fdb57",
      "transactionType": "CALL",
      "contractName": null,
      "contractAddress": "0x86ac30d927ee1641ee16d4420b5cbcb5b180b3db",
      "function": "grantRole(uint64,address,uint32)",
      "arguments": [
        "1",
        "0xEFBBD14082cF2FbCf5Badc7ee619F0f4e36D0A5B",
        "0"
      ],
      "transaction": {
        "from": "0xefbbd14082cf2fbcf5badc7ee619f0f4e36d0a5b",
        "to": "0x86ac30d927ee1641ee16d4420b5cbcb5b180b3db",
        "gas": "0x13bcf",
        "value": "0x0",
        "input": "0x25c471a00000000000000000000000000000000000000000000000000000000000000001000000000000000000000000efbbd14082cf2fbcf5badc7ee619f0f4e36d0a5b0000000000000000000000000000000000000000000000000000000000000000",
        "nonce": "0x653",
        "chainId": "0x13882"
      },
      "additionalContracts": [],
      "isFixedGasLimit": false
    },
    {
      "hash": "0x8983e23acabb886cea61fdc9811a74b2cdce4767df4cbde6de5bc5e99468fe4f",
      "transactionType": "CALL",
      "contractName": null,
      "contractAddress": "0x86ac30d927ee1641ee16d4420b5cbcb5b180b3db",
      "function": "setTargetFunctionRole(address,bytes4[],uint64)",
      "arguments": [
        "0x377979CD68e1740EF41905664C5abE93Ec0FdB0d",
        "[0xecf441b7]",
        "1"
      ],
      "transaction": {
        "from": "0xefbbd14082cf2fbcf5badc7ee619f0f4e36d0a5b",
        "to": "0x86ac30d927ee1641ee16d4420b5cbcb5b180b3db",
        "gas": "0x134d0",
        "value": "0x0",
        "input": "0x08d6122d000000000000000000000000377979cd68e1740ef41905664c5abe93ec0fdb0d000000000000000000000000000000000000000000000000000000000000006000000000000000000000000000000000000000000000000000000000000000010000000000000000000000000000000000000000000000000000000000000001ecf441b700000000000000000000000000000000000000000000000000000000",
        "nonce": "0x654",
        "chainId": "0x13882"
      },
      "additionalContracts": [],
      "isFixedGasLimit": false
    },
    {
      "hash": "0x05737ee94589336385049c6a9c5b7f42f2dee527d29be3e010c3833374b9cd1d",
      "transactionType": "CALL",
      "contractName": null,
      "contractAddress": "0x86ac30d927ee1641ee16d4420b5cbcb5b180b3db",
      "function": "setTargetFunctionRole(address,bytes4[],uint64)",
      "arguments": [
        "0x0108FDc1677f9CcFE88b8500Bf2Df668455B31Bf",
        "[0x06af20da]",
        "1"
      ],
      "transaction": {
        "from": "0xefbbd14082cf2fbcf5badc7ee619f0f4e36d0a5b",
        "to": "0x86ac30d927ee1641ee16d4420b5cbcb5b180b3db",
        "gas": "0x134c0",
        "value": "0x0",
        "input": "0x08d6122d0000000000000000000000000108fdc1677f9ccfe88b8500bf2df668455b31bf00000000000000000000000000000000000000000000000000000000000000600000000000000000000000000000000000000000000000000000000000000001000000000000000000000000000000000000000000000000000000000000000106af20da00000000000000000000000000000000000000000000000000000000",
        "nonce": "0x655",
        "chainId": "0x13882"
      },
      "additionalContracts": [],
      "isFixedGasLimit": false
    },
    {
      "hash": "0x19c6dea65651a5290d622110c84884b453ea866182755567f5f8a027f8be18c7",
      "transactionType": "CALL",
      "contractName": null,
      "contractAddress": "0x86ac30d927ee1641ee16d4420b5cbcb5b180b3db",
      "function": "setTargetFunctionRole(address,bytes4[],uint64)",
      "arguments": [
        "0xf7Cb897153B4b4C5416413aD797A03cba58261b2",
        "[0xdaea85c5, 0xab0da5a9]",
        "1"
      ],
      "transaction": {
        "from": "0xefbbd14082cf2fbcf5badc7ee619f0f4e36d0a5b",
        "to": "0x86ac30d927ee1641ee16d4420b5cbcb5b180b3db",
        "gas": "0x1b7f5",
        "value": "0x0",
        "input": "0x08d6122d000000000000000000000000f7cb897153b4b4c5416413ad797a03cba58261b2000000000000000000000000000000000000000000000000000000000000006000000000000000000000000000000000000000000000000000000000000000010000000000000000000000000000000000000000000000000000000000000002daea85c500000000000000000000000000000000000000000000000000000000ab0da5a900000000000000000000000000000000000000000000000000000000",
        "nonce": "0x656",
        "chainId": "0x13882"
      },
      "additionalContracts": [],
      "isFixedGasLimit": false
    },
    {
      "hash": "0x3c486e7e105eb0f38f5078b7f839f82120f5f0f53c142b53f1b07f2640d9e646",
      "transactionType": "CALL",
      "contractName": null,
      "contractAddress": "0x86ac30d927ee1641ee16d4420b5cbcb5b180b3db",
      "function": "setTargetFunctionRole(address,bytes4[],uint64)",
      "arguments": [
        "0x890BA96CE986CF7720d8626607972198a2DfEDf9",
        "[0x20c5429b, 0xb8adaa11, 0xb759f954]",
        "1"
      ],
      "transaction": {
        "from": "0xefbbd14082cf2fbcf5badc7ee619f0f4e36d0a5b",
        "to": "0x86ac30d927ee1641ee16d4420b5cbcb5b180b3db",
        "gas": "0x23b19",
        "value": "0x0",
        "input": "0x08d6122d000000000000000000000000890ba96ce986cf7720d8626607972198a2dfedf900000000000000000000000000000000000000000000000000000000000000600000000000000000000000000000000000000000000000000000000000000001000000000000000000000000000000000000000000000000000000000000000320c5429b00000000000000000000000000000000000000000000000000000000b8adaa1100000000000000000000000000000000000000000000000000000000b759f95400000000000000000000000000000000000000000000000000000000",
        "nonce": "0x657",
        "chainId": "0x13882"
      },
      "additionalContracts": [],
      "isFixedGasLimit": false
    },
    {
      "hash": "0x2078a79c83d10cf03bfe0d0b3968e45613eba4ef8e610c045fe2a8f22f999ae4",
      "transactionType": "CALL",
      "contractName": null,
      "contractAddress": "0x86ac30d927ee1641ee16d4420b5cbcb5b180b3db",
      "function": "setTargetFunctionRole(address,bytes4[],uint64)",
      "arguments": [
        "0x108976Dc7dC5B52597BDfeE15908232a298Be74D",
        "[0xf6eea098, 0x74a8f103, 0xdaea85c5]",
        "1"
      ],
      "transaction": {
        "from": "0xefbbd14082cf2fbcf5badc7ee619f0f4e36d0a5b",
        "to": "0x86ac30d927ee1641ee16d4420b5cbcb5b180b3db",
        "gas": "0x23b19",
        "value": "0x0",
        "input": "0x08d6122d000000000000000000000000108976dc7dc5b52597bdfee15908232a298be74d000000000000000000000000000000000000000000000000000000000000006000000000000000000000000000000000000000000000000000000000000000010000000000000000000000000000000000000000000000000000000000000003f6eea0980000000000000000000000000000000000000000000000000000000074a8f10300000000000000000000000000000000000000000000000000000000daea85c500000000000000000000000000000000000000000000000000000000",
        "nonce": "0x658",
        "chainId": "0x13882"
      },
      "additionalContracts": [],
      "isFixedGasLimit": false
    },
    {
      "hash": "0x64eb155f1e3b1e5ba81ddf7d4e7a77bf21510a0fd95a2e21a17141da0a116f75",
      "transactionType": "CALL",
      "contractName": null,
      "contractAddress": "0x377979cd68e1740ef41905664c5abe93ec0fdb0d",
      "function": "setFees(uint8,uint256,address)",
      "arguments": [
        "2",
        "500",
        "0x9A0A455BAbAC0143e7bF7001e9A22Be0d919B643"
      ],
      "transaction": {
        "from": "0xefbbd14082cf2fbcf5badc7ee619f0f4e36d0a5b",
        "to": "0x377979cd68e1740ef41905664c5abe93ec0fdb0d",
        "gas": "0x30cce",
        "value": "0x0",
        "input": "0xecf441b7000000000000000000000000000000000000000000000000000000000000000200000000000000000000000000000000000000000000000000000000000001f40000000000000000000000009a0a455babac0143e7bf7001e9a22be0d919b643",
        "nonce": "0x659",
        "chainId": "0x13882"
      },
      "additionalContracts": [],
      "isFixedGasLimit": false
    },
    {
      "hash": "0x271d80ceb5184dfaf3dc1bad5963323a171a9a459275071826c8c618d8a0b1dd",
      "transactionType": "CALL",
      "contractName": null,
      "contractAddress": "0x377979cd68e1740ef41905664c5abe93ec0fdb0d",
      "function": "setFees(uint8,uint256,address)",
      "arguments": [
        "1",
        "100000000000000000000",
        "0x9A0A455BAbAC0143e7bF7001e9A22Be0d919B643"
      ],
      "transaction": {
        "from": "0xefbbd14082cf2fbcf5badc7ee619f0f4e36d0a5b",
        "to": "0x377979cd68e1740ef41905664c5abe93ec0fdb0d",
        "gas": "0x2e1a0",
        "value": "0x0",
        "input": "0xecf441b700000000000000000000000000000000000000000000000000000000000000010000000000000000000000000000000000000000000000056bc75e2d631000000000000000000000000000009a0a455babac0143e7bf7001e9a22be0d919b643",
        "nonce": "0x65a",
        "chainId": "0x13882"
      },
      "additionalContracts": [],
      "isFixedGasLimit": false
    }
  ],
  "receipts": [
    {
      "status": "0x1",
      "cumulativeGasUsed": "0xe4a4",
      "logs": [
        {
          "address": "0x86ac30d927ee1641ee16d4420b5cbcb5b180b3db",
          "topics": [
            "0xf98448b987f1428e0e230e1f3c6e2ce15b5693eaf31827fbd0b1ec4b424ae7cf",
            "0x0000000000000000000000000000000000000000000000000000000000000001",
            "0x000000000000000000000000efbbd14082cf2fbcf5badc7ee619f0f4e36d0a5b"
          ],
          "data": "0x000000000000000000000000000000000000000000000000000000000000000000000000000000000000000000000000000000000000000000000000673e195f0000000000000000000000000000000000000000000000000000000000000001",
          "blockHash": "0x6fbfe4dcd54018dd419bdd2fcffb352bcbad88664ea6521d13dfab7e711e1db4",
          "blockNumber": "0xdfc18b",
          "transactionHash": "0x855d7328112b6241846a30c6e0bcea61de0eea71ee9dcae81987a0e8b55fdb57",
          "transactionIndex": "0x0",
          "logIndex": "0x0",
          "removed": false
        },
        {
          "address": "0x0000000000000000000000000000000000001010",
          "topics": [
            "0x4dfe1bbbcf077ddc3e01291eea2d5c70c2b422b415d95645b9adcfd678cb1d63",
            "0x0000000000000000000000000000000000000000000000000000000000001010",
            "0x000000000000000000000000efbbd14082cf2fbcf5badc7ee619f0f4e36d0a5b",
            "0x0000000000000000000000006ab3d36c46ecfb9b9c0bd51cb1c3da5a2c81cea6"
          ],
          "data": "0x00000000000000000000000000000000000000000000000000085375391a770000000000000000000000000000000000000000000000000033fe0df8c6caa29a0000000000000000000000000000000000000000000003b241cd44dd7429047200000000000000000000000000000000000000000000000033f5ba838db02b9a0000000000000000000000000000000000000000000003b241d59852ad437b72",
          "blockHash": "0x6fbfe4dcd54018dd419bdd2fcffb352bcbad88664ea6521d13dfab7e711e1db4",
          "blockNumber": "0xdfc18b",
          "transactionHash": "0x855d7328112b6241846a30c6e0bcea61de0eea71ee9dcae81987a0e8b55fdb57",
          "transactionIndex": "0x0",
          "logIndex": "0x1",
          "removed": false
        }
      ],
      "logsBloom": "0x00000000080000000000000000000000100000000000000000000000000000000000000000000000000000000000000000008000000000000000000000040000008000080000000000000000000000800010000000040000000100000000000000000000000000000000000000000000000000000000000080000000000000000800000000000000000000000000000008000000000000000000000000000000200000000000000000002000000000000000400000000008000000002000004000000000000000000001000000000000000000010000000000100000000040000000000000000000000000000000000000000000000000000000000000100000",
      "type": "0x2",
      "transactionHash": "0x855d7328112b6241846a30c6e0bcea61de0eea71ee9dcae81987a0e8b55fdb57",
      "transactionIndex": "0x0",
      "blockHash": "0x6fbfe4dcd54018dd419bdd2fcffb352bcbad88664ea6521d13dfab7e711e1db4",
      "blockNumber": "0xdfc18b",
      "gasUsed": "0xe4a4",
      "effectiveGasPrice": "0x95282a7cf",
      "from": "0xefbbd14082cf2fbcf5badc7ee619f0f4e36d0a5b",
      "to": "0x86ac30d927ee1641ee16d4420b5cbcb5b180b3db",
      "contractAddress": null
    },
    {
      "status": "0x1",
      "cumulativeGasUsed": "0xdf94",
      "logs": [
        {
          "address": "0x86ac30d927ee1641ee16d4420b5cbcb5b180b3db",
          "topics": [
            "0x9ea6790c7dadfd01c9f8b9762b3682607af2c7e79e05a9f9fdf5580dde949151",
            "0x000000000000000000000000377979cd68e1740ef41905664c5abe93ec0fdb0d",
            "0x0000000000000000000000000000000000000000000000000000000000000001"
          ],
          "data": "0xecf441b700000000000000000000000000000000000000000000000000000000",
          "blockHash": "0xbcb7fba6a150eadcef803ef1394cd5ba7c6189d1b43137cfcd7b7bee6782de45",
          "blockNumber": "0xdfc18c",
          "transactionHash": "0x8983e23acabb886cea61fdc9811a74b2cdce4767df4cbde6de5bc5e99468fe4f",
          "transactionIndex": "0x0",
          "logIndex": "0x0",
          "removed": false
        },
        {
          "address": "0x0000000000000000000000000000000000001010",
          "topics": [
            "0x4dfe1bbbcf077ddc3e01291eea2d5c70c2b422b415d95645b9adcfd678cb1d63",
            "0x0000000000000000000000000000000000000000000000000000000000001010",
            "0x000000000000000000000000efbbd14082cf2fbcf5badc7ee619f0f4e36d0a5b",
            "0x0000000000000000000000006ab3d36c46ecfb9b9c0bd51cb1c3da5a2c81cea6"
          ],
          "data": "0x0000000000000000000000000000000000000000000000000008244383a93b0000000000000000000000000000000000000000000000000033f5ba838da2c5fe0000000000000000000000000000000000000000000003b241d59852ad437b7200000000000000000000000000000000000000000000000033ed964009f98afe0000000000000000000000000000000000000000000003b241ddbc9630ecb672",
          "blockHash": "0xbcb7fba6a150eadcef803ef1394cd5ba7c6189d1b43137cfcd7b7bee6782de45",
          "blockNumber": "0xdfc18c",
          "transactionHash": "0x8983e23acabb886cea61fdc9811a74b2cdce4767df4cbde6de5bc5e99468fe4f",
          "transactionIndex": "0x0",
          "logIndex": "0x1",
          "removed": false
        }
      ],
      "logsBloom": "0x00000004080080000000000000000000100000000000000000000000000000000000000000000000000000000000000000008000000000000000000000040000008000080000000000000000000000800010000000040000000120000000000000000000000000000000000000000000000000000000000080000000000001000800000000000000000000000020000000000000000000000000000000000000200000000000000000000000000000000000400000000000000000002000004000000000000000000001000000200000000000010000000000100000000040000000000000000000000000000000000000000000000000000000000000100000",
      "type": "0x2",
      "transactionHash": "0x8983e23acabb886cea61fdc9811a74b2cdce4767df4cbde6de5bc5e99468fe4f",
      "transactionIndex": "0x0",
      "blockHash": "0xbcb7fba6a150eadcef803ef1394cd5ba7c6189d1b43137cfcd7b7bee6782de45",
      "blockNumber": "0xdfc18c",
      "gasUsed": "0xdf94",
      "effectiveGasPrice": "0x95282a7cf",
      "from": "0xefbbd14082cf2fbcf5badc7ee619f0f4e36d0a5b",
      "to": "0x86ac30d927ee1641ee16d4420b5cbcb5b180b3db",
      "contractAddress": null
    },
    {
      "status": "0x1",
      "cumulativeGasUsed": "0x1bf1c",
      "logs": [
        {
          "address": "0x86ac30d927ee1641ee16d4420b5cbcb5b180b3db",
          "topics": [
            "0x9ea6790c7dadfd01c9f8b9762b3682607af2c7e79e05a9f9fdf5580dde949151",
            "0x0000000000000000000000000108fdc1677f9ccfe88b8500bf2df668455b31bf",
            "0x0000000000000000000000000000000000000000000000000000000000000001"
          ],
          "data": "0x06af20da00000000000000000000000000000000000000000000000000000000",
          "blockHash": "0xbcb7fba6a150eadcef803ef1394cd5ba7c6189d1b43137cfcd7b7bee6782de45",
          "blockNumber": "0xdfc18c",
          "transactionHash": "0x05737ee94589336385049c6a9c5b7f42f2dee527d29be3e010c3833374b9cd1d",
          "transactionIndex": "0x1",
          "logIndex": "0x2",
          "removed": false
        },
        {
          "address": "0x0000000000000000000000000000000000001010",
          "topics": [
            "0x4dfe1bbbcf077ddc3e01291eea2d5c70c2b422b415d95645b9adcfd678cb1d63",
            "0x0000000000000000000000000000000000000000000000000000000000001010",
            "0x000000000000000000000000efbbd14082cf2fbcf5badc7ee619f0f4e36d0a5b",
            "0x0000000000000000000000006ab3d36c46ecfb9b9c0bd51cb1c3da5a2c81cea6"
          ],
          "data": "0x000000000000000000000000000000000000000000000000000823d3a5895e0000000000000000000000000000000000000000000000000033ed964009ec71520000000000000000000000000000000000000000000003b241ddbc9630ecb67200000000000000000000000000000000000000000000000033e5726c646313520000000000000000000000000000000000000000000003b241e5e069d6761472",
          "blockHash": "0xbcb7fba6a150eadcef803ef1394cd5ba7c6189d1b43137cfcd7b7bee6782de45",
          "blockNumber": "0xdfc18c",
          "transactionHash": "0x05737ee94589336385049c6a9c5b7f42f2dee527d29be3e010c3833374b9cd1d",
          "transactionIndex": "0x1",
          "logIndex": "0x3",
          "removed": false
        }
      ],
      "logsBloom": "0x00000004080080000000000000000000100000000000000000000000000000000000000000000000000000000000000000008000004000000000000000040000008000080000000000000000000000800010000000040000000100000000000000000000000000000000000000000000000000000000000080000000000000000800000000000000000000000000000000000000020000000000000000000000200000000000000000000000000000000000400000000000000000002000004000000000000000000001000000200000000000010000000000100000000040000000000000000000000000000000000000000000000000000000000000100000",
      "type": "0x2",
      "transactionHash": "0x05737ee94589336385049c6a9c5b7f42f2dee527d29be3e010c3833374b9cd1d",
      "transactionIndex": "0x1",
      "blockHash": "0xbcb7fba6a150eadcef803ef1394cd5ba7c6189d1b43137cfcd7b7bee6782de45",
      "blockNumber": "0xdfc18c",
      "gasUsed": "0xdf88",
      "effectiveGasPrice": "0x95282a7cf",
      "from": "0xefbbd14082cf2fbcf5badc7ee619f0f4e36d0a5b",
      "to": "0x86ac30d927ee1641ee16d4420b5cbcb5b180b3db",
      "contractAddress": null
    },
    {
      "status": "0x1",
      "cumulativeGasUsed": "0x13e86",
      "logs": [
        {
          "address": "0x86ac30d927ee1641ee16d4420b5cbcb5b180b3db",
          "topics": [
            "0x9ea6790c7dadfd01c9f8b9762b3682607af2c7e79e05a9f9fdf5580dde949151",
            "0x000000000000000000000000f7cb897153b4b4c5416413ad797a03cba58261b2",
            "0x0000000000000000000000000000000000000000000000000000000000000001"
          ],
          "data": "0xdaea85c500000000000000000000000000000000000000000000000000000000",
          "blockHash": "0x4a75d8edbdd20132b4e0a6cf3388716e74a7023d763280f6b54dd608e1234995",
          "blockNumber": "0xdfc18d",
          "transactionHash": "0x19c6dea65651a5290d622110c84884b453ea866182755567f5f8a027f8be18c7",
          "transactionIndex": "0x0",
          "logIndex": "0x0",
          "removed": false
        },
        {
          "address": "0x86ac30d927ee1641ee16d4420b5cbcb5b180b3db",
          "topics": [
            "0x9ea6790c7dadfd01c9f8b9762b3682607af2c7e79e05a9f9fdf5580dde949151",
            "0x000000000000000000000000f7cb897153b4b4c5416413ad797a03cba58261b2",
            "0x0000000000000000000000000000000000000000000000000000000000000001"
          ],
          "data": "0xab0da5a900000000000000000000000000000000000000000000000000000000",
          "blockHash": "0x4a75d8edbdd20132b4e0a6cf3388716e74a7023d763280f6b54dd608e1234995",
          "blockNumber": "0xdfc18d",
          "transactionHash": "0x19c6dea65651a5290d622110c84884b453ea866182755567f5f8a027f8be18c7",
          "transactionIndex": "0x0",
          "logIndex": "0x1",
          "removed": false
        },
        {
          "address": "0x0000000000000000000000000000000000001010",
          "topics": [
            "0x4dfe1bbbcf077ddc3e01291eea2d5c70c2b422b415d95645b9adcfd678cb1d63",
            "0x0000000000000000000000000000000000000000000000000000000000001010",
            "0x000000000000000000000000efbbd14082cf2fbcf5badc7ee619f0f4e36d0a5b",
            "0x0000000000000000000000006ab3d36c46ecfb9b9c0bd51cb1c3da5a2c81cea6"
          ],
          "data": "0x000000000000000000000000000000000000000000000000000b995f7cc44e8000000000000000000000000000000000000000000000000033e5726c6455fa5a0000000000000000000000000000000000000000000003b241e5e069d676147200000000000000000000000000000000000000000000000033d9d90ce791abda0000000000000000000000000000000000000000000003b241f179c9533a62f2",
          "blockHash": "0x4a75d8edbdd20132b4e0a6cf3388716e74a7023d763280f6b54dd608e1234995",
          "blockNumber": "0xdfc18d",
          "transactionHash": "0x19c6dea65651a5290d622110c84884b453ea866182755567f5f8a027f8be18c7",
          "transactionIndex": "0x0",
          "logIndex": "0x2",
          "removed": false
        }
      ],
      "logsBloom": "0x00000004080080000000000000000000100000000000000000000000000000000000010000000002000000000000000000008000000000000000000000040000008000080000000000000000000000800010000000040000000100000000000000000000000000000000000000000000000000000000000080000000000000000800000000000000000000000000000000000000000000000000000000000000200000000000000000000000000000000000400000000000000000002000004000000000000000000001000000200000000000010000000000100000000040000010000000000000000000000000000000000000000000000000000000100000",
      "type": "0x2",
      "transactionHash": "0x19c6dea65651a5290d622110c84884b453ea866182755567f5f8a027f8be18c7",
      "transactionIndex": "0x0",
      "blockHash": "0x4a75d8edbdd20132b4e0a6cf3388716e74a7023d763280f6b54dd608e1234995",
      "blockNumber": "0xdfc18d",
      "gasUsed": "0x13e86",
      "effectiveGasPrice": "0x95282a7cf",
      "from": "0xefbbd14082cf2fbcf5badc7ee619f0f4e36d0a5b",
      "to": "0x86ac30d927ee1641ee16d4420b5cbcb5b180b3db",
      "contractAddress": null
    },
    {
      "status": "0x1",
      "cumulativeGasUsed": "0x2dbfe",
      "logs": [
        {
          "address": "0x86ac30d927ee1641ee16d4420b5cbcb5b180b3db",
          "topics": [
            "0x9ea6790c7dadfd01c9f8b9762b3682607af2c7e79e05a9f9fdf5580dde949151",
            "0x000000000000000000000000890ba96ce986cf7720d8626607972198a2dfedf9",
            "0x0000000000000000000000000000000000000000000000000000000000000001"
          ],
          "data": "0x20c5429b00000000000000000000000000000000000000000000000000000000",
          "blockHash": "0x4a75d8edbdd20132b4e0a6cf3388716e74a7023d763280f6b54dd608e1234995",
          "blockNumber": "0xdfc18d",
          "transactionHash": "0x3c486e7e105eb0f38f5078b7f839f82120f5f0f53c142b53f1b07f2640d9e646",
          "transactionIndex": "0x1",
          "logIndex": "0x3",
          "removed": false
        },
        {
          "address": "0x86ac30d927ee1641ee16d4420b5cbcb5b180b3db",
          "topics": [
            "0x9ea6790c7dadfd01c9f8b9762b3682607af2c7e79e05a9f9fdf5580dde949151",
            "0x000000000000000000000000890ba96ce986cf7720d8626607972198a2dfedf9",
            "0x0000000000000000000000000000000000000000000000000000000000000001"
          ],
          "data": "0xb8adaa1100000000000000000000000000000000000000000000000000000000",
          "blockHash": "0x4a75d8edbdd20132b4e0a6cf3388716e74a7023d763280f6b54dd608e1234995",
          "blockNumber": "0xdfc18d",
          "transactionHash": "0x3c486e7e105eb0f38f5078b7f839f82120f5f0f53c142b53f1b07f2640d9e646",
          "transactionIndex": "0x1",
          "logIndex": "0x4",
          "removed": false
        },
        {
          "address": "0x86ac30d927ee1641ee16d4420b5cbcb5b180b3db",
          "topics": [
            "0x9ea6790c7dadfd01c9f8b9762b3682607af2c7e79e05a9f9fdf5580dde949151",
            "0x000000000000000000000000890ba96ce986cf7720d8626607972198a2dfedf9",
            "0x0000000000000000000000000000000000000000000000000000000000000001"
          ],
          "data": "0xb759f95400000000000000000000000000000000000000000000000000000000",
          "blockHash": "0x4a75d8edbdd20132b4e0a6cf3388716e74a7023d763280f6b54dd608e1234995",
          "blockNumber": "0xdfc18d",
          "transactionHash": "0x3c486e7e105eb0f38f5078b7f839f82120f5f0f53c142b53f1b07f2640d9e646",
          "transactionIndex": "0x1",
          "logIndex": "0x5",
          "removed": false
        },
        {
          "address": "0x0000000000000000000000000000000000001010",
          "topics": [
            "0x4dfe1bbbcf077ddc3e01291eea2d5c70c2b422b415d95645b9adcfd678cb1d63",
            "0x0000000000000000000000000000000000000000000000000000000000001010",
            "0x000000000000000000000000efbbd14082cf2fbcf5badc7ee619f0f4e36d0a5b",
            "0x0000000000000000000000006ab3d36c46ecfb9b9c0bd51cb1c3da5a2c81cea6"
          ],
          "data": "0x000000000000000000000000000000000000000000000000000f0e7b75df620000000000000000000000000000000000000000000000000033d9d90ce77f02000000000000000000000000000000000000000000000003b241f179c9533a62f200000000000000000000000000000000000000000000000033caca91719fa0000000000000000000000000000000000000000000000003b242008844c919c4f2",
          "blockHash": "0x4a75d8edbdd20132b4e0a6cf3388716e74a7023d763280f6b54dd608e1234995",
          "blockNumber": "0xdfc18d",
          "transactionHash": "0x3c486e7e105eb0f38f5078b7f839f82120f5f0f53c142b53f1b07f2640d9e646",
          "transactionIndex": "0x1",
          "logIndex": "0x6",
          "removed": false
        }
      ],
      "logsBloom": "0x00000004080080000000000000000000100000000000000000000000000000000000000000000000000000000000000000008000000000000000000000040000008000080000000000000000000000800010000000040000000100000000000000200000000000000000000000000000000000000000000080000000000000000800000000000000000000000000000000000000000000001000000000000000200000000000000000000000000000000000400000000000000000002000004000000000020000000001000000200000000000010000000000100000000040000000000000000000000000000000000000000000000000000000000000100000",
      "type": "0x2",
      "transactionHash": "0x3c486e7e105eb0f38f5078b7f839f82120f5f0f53c142b53f1b07f2640d9e646",
      "transactionIndex": "0x1",
      "blockHash": "0x4a75d8edbdd20132b4e0a6cf3388716e74a7023d763280f6b54dd608e1234995",
      "blockNumber": "0xdfc18d",
      "gasUsed": "0x19d78",
      "effectiveGasPrice": "0x95282a7cf",
      "from": "0xefbbd14082cf2fbcf5badc7ee619f0f4e36d0a5b",
      "to": "0x86ac30d927ee1641ee16d4420b5cbcb5b180b3db",
      "contractAddress": null
    },
    {
      "status": "0x1",
      "cumulativeGasUsed": "0x47976",
      "logs": [
        {
          "address": "0x86ac30d927ee1641ee16d4420b5cbcb5b180b3db",
          "topics": [
            "0x9ea6790c7dadfd01c9f8b9762b3682607af2c7e79e05a9f9fdf5580dde949151",
            "0x000000000000000000000000108976dc7dc5b52597bdfee15908232a298be74d",
            "0x0000000000000000000000000000000000000000000000000000000000000001"
          ],
          "data": "0xf6eea09800000000000000000000000000000000000000000000000000000000",
          "blockHash": "0x4a75d8edbdd20132b4e0a6cf3388716e74a7023d763280f6b54dd608e1234995",
          "blockNumber": "0xdfc18d",
          "transactionHash": "0x2078a79c83d10cf03bfe0d0b3968e45613eba4ef8e610c045fe2a8f22f999ae4",
          "transactionIndex": "0x2",
          "logIndex": "0x7",
          "removed": false
        },
        {
          "address": "0x86ac30d927ee1641ee16d4420b5cbcb5b180b3db",
          "topics": [
            "0x9ea6790c7dadfd01c9f8b9762b3682607af2c7e79e05a9f9fdf5580dde949151",
            "0x000000000000000000000000108976dc7dc5b52597bdfee15908232a298be74d",
            "0x0000000000000000000000000000000000000000000000000000000000000001"
          ],
          "data": "0x74a8f10300000000000000000000000000000000000000000000000000000000",
          "blockHash": "0x4a75d8edbdd20132b4e0a6cf3388716e74a7023d763280f6b54dd608e1234995",
          "blockNumber": "0xdfc18d",
          "transactionHash": "0x2078a79c83d10cf03bfe0d0b3968e45613eba4ef8e610c045fe2a8f22f999ae4",
          "transactionIndex": "0x2",
          "logIndex": "0x8",
          "removed": false
        },
        {
          "address": "0x86ac30d927ee1641ee16d4420b5cbcb5b180b3db",
          "topics": [
            "0x9ea6790c7dadfd01c9f8b9762b3682607af2c7e79e05a9f9fdf5580dde949151",
            "0x000000000000000000000000108976dc7dc5b52597bdfee15908232a298be74d",
            "0x0000000000000000000000000000000000000000000000000000000000000001"
          ],
          "data": "0xdaea85c500000000000000000000000000000000000000000000000000000000",
          "blockHash": "0x4a75d8edbdd20132b4e0a6cf3388716e74a7023d763280f6b54dd608e1234995",
          "blockNumber": "0xdfc18d",
          "transactionHash": "0x2078a79c83d10cf03bfe0d0b3968e45613eba4ef8e610c045fe2a8f22f999ae4",
          "transactionIndex": "0x2",
          "logIndex": "0x9",
          "removed": false
        },
        {
          "address": "0x0000000000000000000000000000000000001010",
          "topics": [
            "0x4dfe1bbbcf077ddc3e01291eea2d5c70c2b422b415d95645b9adcfd678cb1d63",
            "0x0000000000000000000000000000000000000000000000000000000000001010",
            "0x000000000000000000000000efbbd14082cf2fbcf5badc7ee619f0f4e36d0a5b",
            "0x0000000000000000000000006ab3d36c46ecfb9b9c0bd51cb1c3da5a2c81cea6"
          ],
          "data": "0x000000000000000000000000000000000000000000000000000f0e7b75df620000000000000000000000000000000000000000000000000033caca91718765f80000000000000000000000000000000000000000000003b242008844c919c4f200000000000000000000000000000000000000000000000033bbbc15fba803f80000000000000000000000000000000000000000000003b2420f96c03ef926f2",
          "blockHash": "0x4a75d8edbdd20132b4e0a6cf3388716e74a7023d763280f6b54dd608e1234995",
          "blockNumber": "0xdfc18d",
          "transactionHash": "0x2078a79c83d10cf03bfe0d0b3968e45613eba4ef8e610c045fe2a8f22f999ae4",
          "transactionIndex": "0x2",
          "logIndex": "0xa",
          "removed": false
        }
      ],
      "logsBloom": "0x00000004080080000000000000000000100000000000000000000000000000000000000000000000000000000000000000008000000000000000000000040000008000080000000000000000000000800010000000040000000100000000000000000000000000000000000000000000000000000000000080000000000000000800000000000000000000000000000000000000000000000000000000400000200000000000000000000000000000000000400000000000000000002000004020000000000000000001000000200000000000010000000000100000000040000000000000000000000000000002000000000000000000000000000000100000",
      "type": "0x2",
      "transactionHash": "0x2078a79c83d10cf03bfe0d0b3968e45613eba4ef8e610c045fe2a8f22f999ae4",
      "transactionIndex": "0x2",
      "blockHash": "0x4a75d8edbdd20132b4e0a6cf3388716e74a7023d763280f6b54dd608e1234995",
      "blockNumber": "0xdfc18d",
      "gasUsed": "0x19d78",
      "effectiveGasPrice": "0x95282a7cf",
      "from": "0xefbbd14082cf2fbcf5badc7ee619f0f4e36d0a5b",
      "to": "0x86ac30d927ee1641ee16d4420b5cbcb5b180b3db",
      "contractAddress": null
    },
    {
      "status": "0x1",
      "cumulativeGasUsed": "0x68f59",
      "logs": [
        {
          "address": "0x377979cd68e1740ef41905664c5abe93ec0fdb0d",
          "topics": [
            "0xfbbd6e9cc51f124b05f08f20e9aef57fb26fc9a927be06212c59506610581335",
            "0x0000000000000000000000009a0a455babac0143e7bf7001e9a22be0d919b643",
            "0x000000000000000000000000efbbd14082cf2fbcf5badc7ee619f0f4e36d0a5b"
          ],
          "data": "0x00000000000000000000000000000000000000000000000000000000000001f40000000000000000000000000000000000000000000000000000000000000002",
          "blockHash": "0x4a75d8edbdd20132b4e0a6cf3388716e74a7023d763280f6b54dd608e1234995",
          "blockNumber": "0xdfc18d",
          "transactionHash": "0x64eb155f1e3b1e5ba81ddf7d4e7a77bf21510a0fd95a2e21a17141da0a116f75",
          "transactionIndex": "0x3",
          "logIndex": "0xb",
          "removed": false
        },
        {
          "address": "0x0000000000000000000000000000000000001010",
          "topics": [
            "0x4dfe1bbbcf077ddc3e01291eea2d5c70c2b422b415d95645b9adcfd678cb1d63",
            "0x0000000000000000000000000000000000000000000000000000000000001010",
            "0x000000000000000000000000efbbd14082cf2fbcf5badc7ee619f0f4e36d0a5b",
            "0x0000000000000000000000006ab3d36c46ecfb9b9c0bd51cb1c3da5a2c81cea6"
          ],
          "data": "0x0000000000000000000000000000000000000000000000000013710e311d7f4000000000000000000000000000000000000000000000000033bbbc15fb8fc9f00000000000000000000000000000000000000000000003b2420f96c03ef926f200000000000000000000000000000000000000000000000033a84b07ca724ab00000000000000000000000000000000000000000000003b2422307ce7016a632",
          "blockHash": "0x4a75d8edbdd20132b4e0a6cf3388716e74a7023d763280f6b54dd608e1234995",
          "blockNumber": "0xdfc18d",
          "transactionHash": "0x64eb155f1e3b1e5ba81ddf7d4e7a77bf21510a0fd95a2e21a17141da0a116f75",
          "transactionIndex": "0x3",
          "logIndex": "0xc",
          "removed": false
        }
      ],
      "logsBloom": "0x00000000080000000000800000000000000000000000000000000000000000000000000000000000000000000000000000008000000000000000000000000000008000080000000000000000000000c00000000000000000000100000000000000004100000000400000000000000000000000000000000080000000004000000800000000000000000000000000000000000000000000000000000000000000200000000000000000000000000000000000400000000000000000000000004000000000000000000001000000000000000010010000010000100000000000000000000000000000000000000000000000000000000000000008000000100000",
      "type": "0x2",
      "transactionHash": "0x64eb155f1e3b1e5ba81ddf7d4e7a77bf21510a0fd95a2e21a17141da0a116f75",
      "transactionIndex": "0x3",
      "blockHash": "0x4a75d8edbdd20132b4e0a6cf3388716e74a7023d763280f6b54dd608e1234995",
      "blockNumber": "0xdfc18d",
      "gasUsed": "0x215e3",
      "effectiveGasPrice": "0x95282a7cf",
      "from": "0xefbbd14082cf2fbcf5badc7ee619f0f4e36d0a5b",
      "to": "0x377979cd68e1740ef41905664c5abe93ec0fdb0d",
      "contractAddress": null
    },
    {
      "status": "0x1",
      "cumulativeGasUsed": "0x8a561",
      "logs": [
        {
          "address": "0x377979cd68e1740ef41905664c5abe93ec0fdb0d",
          "topics": [
            "0xfbbd6e9cc51f124b05f08f20e9aef57fb26fc9a927be06212c59506610581335",
            "0x0000000000000000000000009a0a455babac0143e7bf7001e9a22be0d919b643",
            "0x000000000000000000000000efbbd14082cf2fbcf5badc7ee619f0f4e36d0a5b"
          ],
          "data": "0x0000000000000000000000000000000000000000000000056bc75e2d631000000000000000000000000000000000000000000000000000000000000000000001",
          "blockHash": "0x4a75d8edbdd20132b4e0a6cf3388716e74a7023d763280f6b54dd608e1234995",
          "blockNumber": "0xdfc18d",
          "transactionHash": "0x271d80ceb5184dfaf3dc1bad5963323a171a9a459275071826c8c618d8a0b1dd",
          "transactionIndex": "0x4",
          "logIndex": "0xd",
          "removed": false
        },
        {
          "address": "0x0000000000000000000000000000000000001010",
          "topics": [
            "0x4dfe1bbbcf077ddc3e01291eea2d5c70c2b422b415d95645b9adcfd678cb1d63",
            "0x0000000000000000000000000000000000000000000000000000000000001010",
            "0x000000000000000000000000efbbd14082cf2fbcf5badc7ee619f0f4e36d0a5b",
            "0x0000000000000000000000006ab3d36c46ecfb9b9c0bd51cb1c3da5a2c81cea6"
          ],
          "data": "0x000000000000000000000000000000000000000000000000001372671dffbe0000000000000000000000000000000000000000000000000033a84b07ca5302630000000000000000000000000000000000000000000003b2422307ce7016a6320000000000000000000000000000000000000000000000003394d8a0ac5344630000000000000000000000000000000000000000000003b242367a358e166432",
          "blockHash": "0x4a75d8edbdd20132b4e0a6cf3388716e74a7023d763280f6b54dd608e1234995",
          "blockNumber": "0xdfc18d",
          "transactionHash": "0x271d80ceb5184dfaf3dc1bad5963323a171a9a459275071826c8c618d8a0b1dd",
          "transactionIndex": "0x4",
          "logIndex": "0xe",
          "removed": false
        }
      ],
      "logsBloom": "0x00000000080000000000800000000000000000000000000000000000000000000000000000000000000000000000000000008000000000000000000000000000008000080000000000000000000000c00000000000000000000100000000000000004100000000400000000000000000000000000000000080000000004000000800000000000000000000000000000000000000000000000000000000000000200000000000000000000000000000000000400000000000000000000000004000000000000000000001000000000000000010010000010000100000000000000000000000000000000000000000000000000000000000000008000000100000",
      "type": "0x2",
      "transactionHash": "0x271d80ceb5184dfaf3dc1bad5963323a171a9a459275071826c8c618d8a0b1dd",
      "transactionIndex": "0x4",
      "blockHash": "0x4a75d8edbdd20132b4e0a6cf3388716e74a7023d763280f6b54dd608e1234995",
      "blockNumber": "0xdfc18d",
      "gasUsed": "0x21608",
      "effectiveGasPrice": "0x95282a7cf",
      "from": "0xefbbd14082cf2fbcf5badc7ee619f0f4e36d0a5b",
      "to": "0x377979cd68e1740ef41905664c5abe93ec0fdb0d",
      "contractAddress": null
    }
  ],
  "libraries": [],
  "pending": [],
  "returns": {},
  "timestamp": 1732122980,
  "chain": 80002,
  "commit": "acf7e0f"
}