{
  "transactions": [
    {
      "hash": "0xe756952916760de12aaf26459f0a90ef3ed193f804bb362c79afeade7aa833a2",
      "transactionType": "CALL",
      "contractName": null,
      "contractAddress": "0x8120a8e0688be6b2c0bb469f871e5e7023ca85eb",
      "function": "grantRole(uint64,address,uint32)",
      "arguments": [
        "1",
        "0xEFBBD14082cF2FbCf5Badc7ee619F0f4e36D0A5B",
        "0"
      ],
      "transaction": {
        "from": "0xefbbd14082cf2fbcf5badc7ee619f0f4e36d0a5b",
        "to": "0x8120a8e0688be6b2c0bb469f871e5e7023ca85eb",
        "gas": "0xedf2",
        "value": "0x0",
        "input": "0x25c471a00000000000000000000000000000000000000000000000000000000000000001000000000000000000000000efbbd14082cf2fbcf5badc7ee619f0f4e36d0a5b0000000000000000000000000000000000000000000000000000000000000000",
        "nonce": "0xa28",
        "chainId": "0x13882"
      },
      "additionalContracts": [],
      "isFixedGasLimit": false
    },
    {
      "hash": "0xc63bdf8fd4e3acec5ce5961243a3af6907d749c9ef8b87d2f51d5791cbbcb9df",
      "transactionType": "CALL",
      "contractName": null,
      "contractAddress": "0x8120a8e0688be6b2c0bb469f871e5e7023ca85eb",
      "function": "setTargetFunctionRole(address,bytes4[],uint64)",
      "arguments": [
        "0xbaE832Ee0bd9c212212F7F0190cc3B8cA8586eD3",
        "[0x8cc0de1d]",
        "1"
      ],
      "transaction": {
        "from": "0xefbbd14082cf2fbcf5badc7ee619f0f4e36d0a5b",
        "to": "0x8120a8e0688be6b2c0bb469f871e5e7023ca85eb",
        "gas": "0x134d0",
        "value": "0x0",
        "input": "0x08d6122d000000000000000000000000bae832ee0bd9c212212f7f0190cc3b8ca8586ed30000000000000000000000000000000000000000000000000000000000000060000000000000000000000000000000000000000000000000000000000000000100000000000000000000000000000000000000000000000000000000000000018cc0de1d00000000000000000000000000000000000000000000000000000000",
        "nonce": "0xa29",
        "chainId": "0x13882"
      },
      "additionalContracts": [],
      "isFixedGasLimit": false
    },
    {
      "hash": "0x935dce5fb34b329746af19fe364583d8b580ff798a80847447e1818af6ff6526",
      "transactionType": "CALL",
      "contractName": null,
      "contractAddress": "0x8120a8e0688be6b2c0bb469f871e5e7023ca85eb",
      "function": "setTargetFunctionRole(address,bytes4[],uint64)",
      "arguments": [
        "0x2bEF3819DB8181E8d86eb1B2Fb3e5999B2Ebb8d1",
        "[0x06af20da]",
        "1"
      ],
      "transaction": {
        "from": "0xefbbd14082cf2fbcf5badc7ee619f0f4e36d0a5b",
        "to": "0x8120a8e0688be6b2c0bb469f871e5e7023ca85eb",
        "gas": "0x134d0",
        "value": "0x0",
        "input": "0x08d6122d0000000000000000000000002bef3819db8181e8d86eb1b2fb3e5999b2ebb8d100000000000000000000000000000000000000000000000000000000000000600000000000000000000000000000000000000000000000000000000000000001000000000000000000000000000000000000000000000000000000000000000106af20da00000000000000000000000000000000000000000000000000000000",
        "nonce": "0xa2a",
        "chainId": "0x13882"
      },
      "additionalContracts": [],
      "isFixedGasLimit": false
    },
    {
      "hash": "0x16915bc83aa32dc8f2313b2bca9564b969d9af39e1b05e172179adbf92980d7a",
      "transactionType": "CALL",
      "contractName": null,
      "contractAddress": "0x8120a8e0688be6b2c0bb469f871e5e7023ca85eb",
      "function": "setTargetFunctionRole(address,bytes4[],uint64)",
      "arguments": [
        "0x4eDF864DC5e7ef1a15b472954E994F4f95E4d1Ab",
        "[0x20c5429b, 0xb8adaa11, 0xb759f954]",
        "1"
      ],
      "transaction": {
        "from": "0xefbbd14082cf2fbcf5badc7ee619f0f4e36d0a5b",
        "to": "0x8120a8e0688be6b2c0bb469f871e5e7023ca85eb",
        "gas": "0x23b19",
        "value": "0x0",
        "input": "0x08d6122d0000000000000000000000004edf864dc5e7ef1a15b472954e994f4f95e4d1ab00000000000000000000000000000000000000000000000000000000000000600000000000000000000000000000000000000000000000000000000000000001000000000000000000000000000000000000000000000000000000000000000320c5429b00000000000000000000000000000000000000000000000000000000b8adaa1100000000000000000000000000000000000000000000000000000000b759f95400000000000000000000000000000000000000000000000000000000",
        "nonce": "0xa2b",
        "chainId": "0x13882"
      },
      "additionalContracts": [],
      "isFixedGasLimit": false
    },
    {
      "hash": "0x1845f4166e0f48421371c519d6329fd8426f473bb43a01611a23592ebf5c2c37",
      "transactionType": "CALL",
      "contractName": null,
      "contractAddress": "0x8120a8e0688be6b2c0bb469f871e5e7023ca85eb",
      "function": "setTargetFunctionRole(address,bytes4[],uint64)",
      "arguments": [
        "0x31f32d9066257805cCcCBfE46CfC2455fDDd902c",
        "[0xf6eea098, 0x74a8f103, 0xdaea85c5]",
        "1"
      ],
      "transaction": {
        "from": "0xefbbd14082cf2fbcf5badc7ee619f0f4e36d0a5b",
        "to": "0x8120a8e0688be6b2c0bb469f871e5e7023ca85eb",
        "gas": "0x23b19",
        "value": "0x0",
        "input": "0x08d6122d00000000000000000000000031f32d9066257805ccccbfe46cfc2455fddd902c000000000000000000000000000000000000000000000000000000000000006000000000000000000000000000000000000000000000000000000000000000010000000000000000000000000000000000000000000000000000000000000003f6eea0980000000000000000000000000000000000000000000000000000000074a8f10300000000000000000000000000000000000000000000000000000000daea85c500000000000000000000000000000000000000000000000000000000",
        "nonce": "0xa2c",
        "chainId": "0x13882"
      },
      "additionalContracts": [],
      "isFixedGasLimit": false
    },
    {
      "hash": "0x5778337e45ff50e46c1c6a3df5774c82f9180ad5908ddf7d1bef20c4591a48e6",
      "transactionType": "CALL",
      "contractName": null,
      "contractAddress": "0x8120a8e0688be6b2c0bb469f871e5e7023ca85eb",
      "function": "grantRole(uint64,address,uint32)",
      "arguments": [
        "2",
        "0xEFBBD14082cF2FbCf5Badc7ee619F0f4e36D0A5B",
        "0"
      ],
      "transaction": {
        "from": "0xefbbd14082cf2fbcf5badc7ee619f0f4e36d0a5b",
        "to": "0x8120a8e0688be6b2c0bb469f871e5e7023ca85eb",
        "gas": "0xedf2",
        "value": "0x0",
        "input": "0x25c471a00000000000000000000000000000000000000000000000000000000000000002000000000000000000000000efbbd14082cf2fbcf5badc7ee619f0f4e36d0a5b0000000000000000000000000000000000000000000000000000000000000000",
        "nonce": "0xa2d",
        "chainId": "0x13882"
      },
      "additionalContracts": [],
      "isFixedGasLimit": false
    },
    {
      "hash": "0xa59a059413dec0088b92bc85fe1da34bde67baa315207fa151fd5b8d7f10774c",
      "transactionType": "CALL",
      "contractName": null,
      "contractAddress": "0x8120a8e0688be6b2c0bb469f871e5e7023ca85eb",
      "function": "setTargetFunctionRole(address,bytes4[],uint64)",
      "arguments": [
        "0xe9Ff2342903C5C3975CDAe572A937626cBf3D9ed",
        "[0xdaea85c5, 0xab0da5a9]",
        "2"
      ],
      "transaction": {
        "from": "0xefbbd14082cf2fbcf5badc7ee619f0f4e36d0a5b",
        "to": "0x8120a8e0688be6b2c0bb469f871e5e7023ca85eb",
        "gas": "0x1b7f5",
        "value": "0x0",
        "input": "0x08d6122d000000000000000000000000e9ff2342903c5c3975cdae572a937626cbf3d9ed000000000000000000000000000000000000000000000000000000000000006000000000000000000000000000000000000000000000000000000000000000020000000000000000000000000000000000000000000000000000000000000002daea85c500000000000000000000000000000000000000000000000000000000ab0da5a900000000000000000000000000000000000000000000000000000000",
        "nonce": "0xa2e",
        "chainId": "0x13882"
      },
      "additionalContracts": [],
      "isFixedGasLimit": false
    },
    {
      "hash": "0x0231a78a636b88384f23b0b7f89281f2d0deaa6a76bd559847589d1bbc6252d6",
      "transactionType": "CALL",
      "contractName": null,
      "contractAddress": "0x8120a8e0688be6b2c0bb469f871e5e7023ca85eb",
      "function": "grantRole(uint64,address,uint32)",
      "arguments": [
        "4",
        "0x7281685b064D6ffbf77dF3e5442f65462E945b0E",
        "0"
      ],
      "transaction": {
        "from": "0xefbbd14082cf2fbcf5badc7ee619f0f4e36d0a5b",
        "to": "0x8120a8e0688be6b2c0bb469f871e5e7023ca85eb",
        "gas": "0x13bcf",
        "value": "0x0",
        "input": "0x25c471a000000000000000000000000000000000000000000000000000000000000000040000000000000000000000007281685b064d6ffbf77df3e5442f65462e945b0e0000000000000000000000000000000000000000000000000000000000000000",
        "nonce": "0xa2f",
        "chainId": "0x13882"
      },
      "additionalContracts": [],
      "isFixedGasLimit": false
    },
    {
      "hash": "0x0fd0b7ce14c71d109aa82fb625c190fb5709a383f31ff75b53c718ef8cc7c42c",
      "transactionType": "CALL",
      "contractName": null,
      "contractAddress": "0x8120a8e0688be6b2c0bb469f871e5e7023ca85eb",
      "function": "grantRole(uint64,address,uint32)",
      "arguments": [
        "4",
        "0x20ee3aD9ED569832b451cF796190349a9D6d673e",
        "0"
      ],
      "transaction": {
        "from": "0xefbbd14082cf2fbcf5badc7ee619f0f4e36d0a5b",
        "to": "0x8120a8e0688be6b2c0bb469f871e5e7023ca85eb",
        "gas": "0x13bcf",
        "value": "0x0",
        "input": "0x25c471a0000000000000000000000000000000000000000000000000000000000000000400000000000000000000000020ee3ad9ed569832b451cf796190349a9d6d673e0000000000000000000000000000000000000000000000000000000000000000",
        "nonce": "0xa30",
        "chainId": "0x13882"
      },
      "additionalContracts": [],
      "isFixedGasLimit": false
    },
    {
      "hash": "0x83dbb1e807d58c14b8e1012eb30696675407c8d663ec36495869c47e8f11cc09",
      "transactionType": "CALL",
      "contractName": null,
      "contractAddress": "0x8120a8e0688be6b2c0bb469f871e5e7023ca85eb",
      "function": "grantRole(uint64,address,uint32)",
      "arguments": [
        "4",
        "0x31f32d9066257805cCcCBfE46CfC2455fDDd902c",
        "0"
      ],
      "transaction": {
        "from": "0xefbbd14082cf2fbcf5badc7ee619f0f4e36d0a5b",
        "to": "0x8120a8e0688be6b2c0bb469f871e5e7023ca85eb",
        "gas": "0x13bcf",
        "value": "0x0",
        "input": "0x25c471a0000000000000000000000000000000000000000000000000000000000000000400000000000000000000000031f32d9066257805ccccbfe46cfc2455fddd902c0000000000000000000000000000000000000000000000000000000000000000",
        "nonce": "0xa31",
        "chainId": "0x13882"
      },
      "additionalContracts": [],
      "isFixedGasLimit": false
    },
    {
      "hash": "0x9773c46432f65c45d22d6c4311f59817b07f19df14b8c943ba7b3aaa5c4561c7",
      "transactionType": "CALL",
      "contractName": null,
      "contractAddress": "0x8120a8e0688be6b2c0bb469f871e5e7023ca85eb",
      "function": "setTargetFunctionRole(address,bytes4[],uint64)",
      "arguments": [
        "0x5855f2c385D526e93802123d5CB54465c4E3871C",
        "[0x4bbc170a, 0x15f41501, 0x9e96a260]",
        "4"
      ],
      "transaction": {
        "from": "0xefbbd14082cf2fbcf5badc7ee619f0f4e36d0a5b",
        "to": "0x8120a8e0688be6b2c0bb469f871e5e7023ca85eb",
        "gas": "0x23b19",
        "value": "0x0",
        "input": "0x08d6122d0000000000000000000000005855f2c385d526e93802123d5cb54465c4e3871c0000000000000000000000000000000000000000000000000000000000000060000000000000000000000000000000000000000000000000000000000000000400000000000000000000000000000000000000000000000000000000000000034bbc170a0000000000000000000000000000000000000000000000000000000015f41501000000000000000000000000000000000000000000000000000000009e96a26000000000000000000000000000000000000000000000000000000000",
        "nonce": "0xa32",
        "chainId": "0x13882"
      },
      "additionalContracts": [],
      "isFixedGasLimit": false
    },
    {
      "hash": "0xb2fc27a50c4b7394f19450ff9c562b06aa34942ebafd6fe9e8c04baacd498da3",
      "transactionType": "CALL",
      "contractName": null,
      "contractAddress": "0xbae832ee0bd9c212212f7f0190cc3b8ca8586ed3",
      "function": "setFees(uint8,address,uint256,address)",
      "arguments": [
        "3",
        "0xAC21c4a4AB26c295856365541dab1b4c8873D109",
        "500",
        "0x3c7DeB6FeAEb7a82BDe580Fb73d8d69c401b219e"
      ],
      "transaction": {
        "from": "0xefbbd14082cf2fbcf5badc7ee619f0f4e36d0a5b",
        "to": "0xbae832ee0bd9c212212f7f0190cc3b8ca8586ed3",
        "gas": "0x35c1e",
        "value": "0x0",
        "input": "0x8cc0de1d0000000000000000000000000000000000000000000000000000000000000003000000000000000000000000ac21c4a4ab26c295856365541dab1b4c8873d10900000000000000000000000000000000000000000000000000000000000001f40000000000000000000000003c7deb6feaeb7a82bde580fb73d8d69c401b219e",
        "nonce": "0xa33",
        "chainId": "0x13882"
      },
      "additionalContracts": [],
      "isFixedGasLimit": false
    },
    {
      "hash": "0xf6438e9d683014659c2982a7d0b5d33af07de0a558ab09cfdb2b623bb56e1973",
      "transactionType": "CALL",
      "contractName": null,
      "contractAddress": "0xbae832ee0bd9c212212f7f0190cc3b8ca8586ed3",
      "function": "setFees(uint8,address,uint256,address)",
      "arguments": [
        "1",
        "0x31f32d9066257805cCcCBfE46CfC2455fDDd902c",
        "100000000000000000000",
        "0x3c7DeB6FeAEb7a82BDe580Fb73d8d69c401b219e"
      ],
      "transaction": {
        "from": "0xefbbd14082cf2fbcf5badc7ee619f0f4e36d0a5b",
        "to": "0xbae832ee0bd9c212212f7f0190cc3b8ca8586ed3",
        "gas": "0x38eec",
        "value": "0x0",
        "input": "0x8cc0de1d000000000000000000000000000000000000000000000000000000000000000100000000000000000000000031f32d9066257805ccccbfe46cfc2455fddd902c0000000000000000000000000000000000000000000000056bc75e2d631000000000000000000000000000003c7deb6feaeb7a82bde580fb73d8d69c401b219e",
        "nonce": "0xa34",
        "chainId": "0x13882"
      },
      "additionalContracts": [],
      "isFixedGasLimit": false
    }
  ],
  "receipts": [
    {
      "status": "0x1",
      "cumulativeGasUsed": "0xf4bb",
      "logs": [
        {
          "address": "0x8120a8e0688be6b2c0bb469f871e5e7023ca85eb",
          "topics": [
            "0xf98448b987f1428e0e230e1f3c6e2ce15b5693eaf31827fbd0b1ec4b424ae7cf",
            "0x0000000000000000000000000000000000000000000000000000000000000001",
            "0x000000000000000000000000efbbd14082cf2fbcf5badc7ee619f0f4e36d0a5b"
          ],
          "data": "0x000000000000000000000000000000000000000000000000000000000000000000000000000000000000000000000000000000000000000000000000677fe1690000000000000000000000000000000000000000000000000000000000000000",
          "blockHash": "0x7d678472a513be6dfbeb0404bae2ad0d98cf1aa46d7ccd2ed11e0d75d2090e82",
          "blockNumber": "0xfe14a0",
          "transactionHash": "0xe756952916760de12aaf26459f0a90ef3ed193f804bb362c79afeade7aa833a2",
          "transactionIndex": "0x1",
          "logIndex": "0x2",
          "removed": false
        },
        {
          "address": "0x0000000000000000000000000000000000001010",
          "topics": [
            "0x4dfe1bbbcf077ddc3e01291eea2d5c70c2b422b415d95645b9adcfd678cb1d63",
            "0x0000000000000000000000000000000000000000000000000000000000001010",
            "0x000000000000000000000000efbbd14082cf2fbcf5badc7ee619f0f4e36d0a5b",
            "0x000000000000000000000000915a2284d28bd93de7d6f31173b981204bb666e6"
          ],
          "data": "0x00000000000000000000000000000000000000000000000000098ef9be500792000000000000000000000000000000000000000000000001192ab46136f89699000000000000000000000000000000000000000000000591bb1cbe59ee3187eb0000000000000000000000000000000000000000000000011921256778a88f07000000000000000000000000000000000000000000000591bb264d53ac818f7d",
          "blockHash": "0x7d678472a513be6dfbeb0404bae2ad0d98cf1aa46d7ccd2ed11e0d75d2090e82",
          "blockNumber": "0xfe14a0",
          "transactionHash": "0xe756952916760de12aaf26459f0a90ef3ed193f804bb362c79afeade7aa833a2",
          "transactionIndex": "0x1",
          "logIndex": "0x3",
          "removed": false
        }
      ],
      "logsBloom": "0x00000000000000000010000000000000000000000000000000000000000000000000000000000000000000000000000000008000000000000000000000040000008000000000000000000000000000800000000000040100000100000000000000000000000000000000000000000000000000000000000080000000000000000800000000000000000000000800000008000000000000000000000000000000200000000000000000002000000000000000400000000008008000000000004000000000000000000001000000000000000002000000000000100000000040000000000000000000000000000000000000000000400000000000000000100000",
      "type": "0x2",
      "transactionHash": "0xe756952916760de12aaf26459f0a90ef3ed193f804bb362c79afeade7aa833a2",
      "transactionIndex": "0x1",
      "blockHash": "0x7d678472a513be6dfbeb0404bae2ad0d98cf1aa46d7ccd2ed11e0d75d2090e82",
      "blockNumber": "0xfe14a0",
      "gasUsed": "0xa2b3",
      "effectiveGasPrice": "0xf0a351b35",
      "from": "0xefbbd14082cf2fbcf5badc7ee619f0f4e36d0a5b",
      "to": "0x8120a8e0688be6b2c0bb469f871e5e7023ca85eb",
      "contractAddress": null
    },
    {
      "status": "0x1",
      "cumulativeGasUsed": "0xdf94",
      "logs": [
        {
          "address": "0x8120a8e0688be6b2c0bb469f871e5e7023ca85eb",
          "topics": [
            "0x9ea6790c7dadfd01c9f8b9762b3682607af2c7e79e05a9f9fdf5580dde949151",
            "0x000000000000000000000000bae832ee0bd9c212212f7f0190cc3b8ca8586ed3",
            "0x0000000000000000000000000000000000000000000000000000000000000001"
          ],
          "data": "0x8cc0de1d00000000000000000000000000000000000000000000000000000000",
          "blockHash": "0x57e49b6adf1c81a10b6a0868d40349d0b34df16b93904a3b003f2d7271fcfdac",
          "blockNumber": "0xfe14a1",
          "transactionHash": "0xc63bdf8fd4e3acec5ce5961243a3af6907d749c9ef8b87d2f51d5791cbbcb9df",
          "transactionIndex": "0x0",
          "logIndex": "0x0",
          "removed": false
        },
        {
          "address": "0x0000000000000000000000000000000000001010",
          "topics": [
            "0x4dfe1bbbcf077ddc3e01291eea2d5c70c2b422b415d95645b9adcfd678cb1d63",
            "0x0000000000000000000000000000000000000000000000000000000000001010",
            "0x000000000000000000000000efbbd14082cf2fbcf5badc7ee619f0f4e36d0a5b",
            "0x000000000000000000000000915a2284d28bd93de7d6f31173b981204bb666e6"
          ],
          "data": "0x000000000000000000000000000000000000000000000000000d22962959cbf800000000000000000000000000000000000000000000000119212567789f068a000000000000000000000000000000000000000000000591bb3405d170bea97d000000000000000000000000000000000000000000000001191402d14f453a92000000000000000000000000000000000000000000000591bb4128679a187575",
          "blockHash": "0x57e49b6adf1c81a10b6a0868d40349d0b34df16b93904a3b003f2d7271fcfdac",
          "blockNumber": "0xfe14a1",
          "transactionHash": "0xc63bdf8fd4e3acec5ce5961243a3af6907d749c9ef8b87d2f51d5791cbbcb9df",
          "transactionIndex": "0x0",
          "logIndex": "0x1",
          "removed": false
        }
      ],
      "logsBloom": "0x00000004000080000010000000000000000000000000000000000000000000000000000000000000000000000000000000008000000001000000000000040000008000000000000000000000000000800000000000040100000100000000000000000000000000000000000000000000000000000000000080000000000000000800000000000000000000000800000000000000000000000000000000000000200000000000000000000000000000000000400000000000008000000000004000000000000000000001000000200000000002000000000000100000000040000100000000000000000000000000000000080000400000000000000000100000",
      "type": "0x2",
      "transactionHash": "0xc63bdf8fd4e3acec5ce5961243a3af6907d749c9ef8b87d2f51d5791cbbcb9df",
      "transactionIndex": "0x0",
      "blockHash": "0x57e49b6adf1c81a10b6a0868d40349d0b34df16b93904a3b003f2d7271fcfdac",
      "blockNumber": "0xfe14a1",
      "gasUsed": "0xdf94",
      "effectiveGasPrice": "0xf0a351b35",
      "from": "0xefbbd14082cf2fbcf5badc7ee619f0f4e36d0a5b",
      "to": "0x8120a8e0688be6b2c0bb469f871e5e7023ca85eb",
      "contractAddress": null
    },
    {
      "status": "0x1",
      "cumulativeGasUsed": "0x1bf28",
      "logs": [
        {
          "address": "0x8120a8e0688be6b2c0bb469f871e5e7023ca85eb",
          "topics": [
            "0x9ea6790c7dadfd01c9f8b9762b3682607af2c7e79e05a9f9fdf5580dde949151",
            "0x0000000000000000000000002bef3819db8181e8d86eb1b2fb3e5999b2ebb8d1",
            "0x0000000000000000000000000000000000000000000000000000000000000001"
          ],
          "data": "0x06af20da00000000000000000000000000000000000000000000000000000000",
          "blockHash": "0x57e49b6adf1c81a10b6a0868d40349d0b34df16b93904a3b003f2d7271fcfdac",
          "blockNumber": "0xfe14a1",
          "transactionHash": "0x935dce5fb34b329746af19fe364583d8b580ff798a80847447e1818af6ff6526",
          "transactionIndex": "0x1",
          "logIndex": "0x2",
          "removed": false
        },
        {
          "address": "0x0000000000000000000000000000000000001010",
          "topics": [
            "0x4dfe1bbbcf077ddc3e01291eea2d5c70c2b422b415d95645b9adcfd678cb1d63",
            "0x0000000000000000000000000000000000000000000000000000000000001010",
            "0x000000000000000000000000efbbd14082cf2fbcf5badc7ee619f0f4e36d0a5b",
            "0x000000000000000000000000915a2284d28bd93de7d6f31173b981204bb666e6"
          ],
          "data": "0x000000000000000000000000000000000000000000000000000d22962959cbf8000000000000000000000000000000000000000000000001191402d14f3820e6000000000000000000000000000000000000000000000591bb4128679a1875750000000000000000000000000000000000000000000000011906e03b25de54ee000000000000000000000000000000000000000000000591bb4e4afdc372416d",
          "blockHash": "0x57e49b6adf1c81a10b6a0868d40349d0b34df16b93904a3b003f2d7271fcfdac",
          "blockNumber": "0xfe14a1",
          "transactionHash": "0x935dce5fb34b329746af19fe364583d8b580ff798a80847447e1818af6ff6526",
          "transactionIndex": "0x1",
          "logIndex": "0x3",
          "removed": false
        }
      ],
      "logsBloom": "0x00000004004080000010000000000000000000000000000000100000002000000000000000000000000000000000000000008000000000000000000000040000008000000000000000000000000000800000000000040100000100000000000000000000000000000000000000000000000000000000000080000000000000000800000000000000000000000800000000000000000000000000000000000000200000000000000000000000000000000000400000000000008000000000004000000000000000000001000000200000000002000000000000100000000040000000000000000000000000000000000000000000400000000000000000100000",
      "type": "0x2",
      "transactionHash": "0x935dce5fb34b329746af19fe364583d8b580ff798a80847447e1818af6ff6526",
      "transactionIndex": "0x1",
      "blockHash": "0x57e49b6adf1c81a10b6a0868d40349d0b34df16b93904a3b003f2d7271fcfdac",
      "blockNumber": "0xfe14a1",
      "gasUsed": "0xdf94",
      "effectiveGasPrice": "0xf0a351b35",
      "from": "0xefbbd14082cf2fbcf5badc7ee619f0f4e36d0a5b",
      "to": "0x8120a8e0688be6b2c0bb469f871e5e7023ca85eb",
      "contractAddress": null
    },
    {
      "status": "0x1",
      "cumulativeGasUsed": "0x35ca0",
      "logs": [
        {
          "address": "0x8120a8e0688be6b2c0bb469f871e5e7023ca85eb",
          "topics": [
            "0x9ea6790c7dadfd01c9f8b9762b3682607af2c7e79e05a9f9fdf5580dde949151",
            "0x0000000000000000000000004edf864dc5e7ef1a15b472954e994f4f95e4d1ab",
            "0x0000000000000000000000000000000000000000000000000000000000000001"
          ],
          "data": "0x20c5429b00000000000000000000000000000000000000000000000000000000",
          "blockHash": "0x57e49b6adf1c81a10b6a0868d40349d0b34df16b93904a3b003f2d7271fcfdac",
          "blockNumber": "0xfe14a1",
          "transactionHash": "0x16915bc83aa32dc8f2313b2bca9564b969d9af39e1b05e172179adbf92980d7a",
          "transactionIndex": "0x2",
          "logIndex": "0x4",
          "removed": false
        },
        {
          "address": "0x8120a8e0688be6b2c0bb469f871e5e7023ca85eb",
          "topics": [
            "0x9ea6790c7dadfd01c9f8b9762b3682607af2c7e79e05a9f9fdf5580dde949151",
            "0x0000000000000000000000004edf864dc5e7ef1a15b472954e994f4f95e4d1ab",
            "0x0000000000000000000000000000000000000000000000000000000000000001"
          ],
          "data": "0xb8adaa1100000000000000000000000000000000000000000000000000000000",
          "blockHash": "0x57e49b6adf1c81a10b6a0868d40349d0b34df16b93904a3b003f2d7271fcfdac",
          "blockNumber": "0xfe14a1",
          "transactionHash": "0x16915bc83aa32dc8f2313b2bca9564b969d9af39e1b05e172179adbf92980d7a",
          "transactionIndex": "0x2",
          "logIndex": "0x5",
          "removed": false
        },
        {
          "address": "0x8120a8e0688be6b2c0bb469f871e5e7023ca85eb",
          "topics": [
            "0x9ea6790c7dadfd01c9f8b9762b3682607af2c7e79e05a9f9fdf5580dde949151",
            "0x0000000000000000000000004edf864dc5e7ef1a15b472954e994f4f95e4d1ab",
            "0x0000000000000000000000000000000000000000000000000000000000000001"
          ],
          "data": "0xb759f95400000000000000000000000000000000000000000000000000000000",
          "blockHash": "0x57e49b6adf1c81a10b6a0868d40349d0b34df16b93904a3b003f2d7271fcfdac",
          "blockNumber": "0xfe14a1",
          "transactionHash": "0x16915bc83aa32dc8f2313b2bca9564b969d9af39e1b05e172179adbf92980d7a",
          "transactionIndex": "0x2",
          "logIndex": "0x6",
          "removed": false
        },
        {
          "address": "0x0000000000000000000000000000000000001010",
          "topics": [
            "0x4dfe1bbbcf077ddc3e01291eea2d5c70c2b422b415d95645b9adcfd678cb1d63",
            "0x0000000000000000000000000000000000000000000000000000000000001010",
            "0x000000000000000000000000efbbd14082cf2fbcf5badc7ee619f0f4e36d0a5b",
            "0x000000000000000000000000915a2284d28bd93de7d6f31173b981204bb666e6"
          ],
          "data": "0x00000000000000000000000000000000000000000000000000184a8475b107d00000000000000000000000000000000000000000000000011906e03b25d13b42000000000000000000000000000000000000000000000591bb4e4afdc372416d00000000000000000000000000000000000000000000000118ee95b6b0203372000000000000000000000000000000000000000000000591bb6695823923493d",
          "blockHash": "0x57e49b6adf1c81a10b6a0868d40349d0b34df16b93904a3b003f2d7271fcfdac",
          "blockNumber": "0xfe14a1",
          "transactionHash": "0x16915bc83aa32dc8f2313b2bca9564b969d9af39e1b05e172179adbf92980d7a",
          "transactionIndex": "0x2",
          "logIndex": "0x7",
          "removed": false
        }
      ],
      "logsBloom": "0x00000004000080000010000000000000000000000000000000000000000000000000000000000000000000000000000000008000000000000000000000040000008000000000000000000000000000800000000000040100000100000000000000000000000000000000000000000000000000000000000080000000000000000800000000000000000000000800000000000000000000000008000000000000200000000000000000000000000000000000400000000000008000000000004000000000000000000001000000200000000002000000000000100000000040000000000000000000000000000000000000000000408000000000000000100004",
      "type": "0x2",
      "transactionHash": "0x16915bc83aa32dc8f2313b2bca9564b969d9af39e1b05e172179adbf92980d7a",
      "transactionIndex": "0x2",
      "blockHash": "0x57e49b6adf1c81a10b6a0868d40349d0b34df16b93904a3b003f2d7271fcfdac",
      "blockNumber": "0xfe14a1",
      "gasUsed": "0x19d78",
      "effectiveGasPrice": "0xf0a351b35",
      "from": "0xefbbd14082cf2fbcf5badc7ee619f0f4e36d0a5b",
      "to": "0x8120a8e0688be6b2c0bb469f871e5e7023ca85eb",
      "contractAddress": null
    },
    {
      "status": "0x1",
      "cumulativeGasUsed": "0x4fa18",
      "logs": [
        {
          "address": "0x8120a8e0688be6b2c0bb469f871e5e7023ca85eb",
          "topics": [
            "0x9ea6790c7dadfd01c9f8b9762b3682607af2c7e79e05a9f9fdf5580dde949151",
            "0x00000000000000000000000031f32d9066257805ccccbfe46cfc2455fddd902c",
            "0x0000000000000000000000000000000000000000000000000000000000000001"
          ],
          "data": "0xf6eea09800000000000000000000000000000000000000000000000000000000",
          "blockHash": "0x57e49b6adf1c81a10b6a0868d40349d0b34df16b93904a3b003f2d7271fcfdac",
          "blockNumber": "0xfe14a1",
          "transactionHash": "0x1845f4166e0f48421371c519d6329fd8426f473bb43a01611a23592ebf5c2c37",
          "transactionIndex": "0x3",
          "logIndex": "0x8",
          "removed": false
        },
        {
          "address": "0x8120a8e0688be6b2c0bb469f871e5e7023ca85eb",
          "topics": [
            "0x9ea6790c7dadfd01c9f8b9762b3682607af2c7e79e05a9f9fdf5580dde949151",
            "0x00000000000000000000000031f32d9066257805ccccbfe46cfc2455fddd902c",
            "0x0000000000000000000000000000000000000000000000000000000000000001"
          ],
          "data": "0x74a8f10300000000000000000000000000000000000000000000000000000000",
          "blockHash": "0x57e49b6adf1c81a10b6a0868d40349d0b34df16b93904a3b003f2d7271fcfdac",
          "blockNumber": "0xfe14a1",
          "transactionHash": "0x1845f4166e0f48421371c519d6329fd8426f473bb43a01611a23592ebf5c2c37",
          "transactionIndex": "0x3",
          "logIndex": "0x9",
          "removed": false
        },
        {
          "address": "0x8120a8e0688be6b2c0bb469f871e5e7023ca85eb",
          "topics": [
            "0x9ea6790c7dadfd01c9f8b9762b3682607af2c7e79e05a9f9fdf5580dde949151",
            "0x00000000000000000000000031f32d9066257805ccccbfe46cfc2455fddd902c",
            "0x0000000000000000000000000000000000000000000000000000000000000001"
          ],
          "data": "0xdaea85c500000000000000000000000000000000000000000000000000000000",
          "blockHash": "0x57e49b6adf1c81a10b6a0868d40349d0b34df16b93904a3b003f2d7271fcfdac",
          "blockNumber": "0xfe14a1",
          "transactionHash": "0x1845f4166e0f48421371c519d6329fd8426f473bb43a01611a23592ebf5c2c37",
          "transactionIndex": "0x3",
          "logIndex": "0xa",
          "removed": false
        },
        {
          "address": "0x0000000000000000000000000000000000001010",
          "topics": [
            "0x4dfe1bbbcf077ddc3e01291eea2d5c70c2b422b415d95645b9adcfd678cb1d63",
            "0x0000000000000000000000000000000000000000000000000000000000001010",
            "0x000000000000000000000000efbbd14082cf2fbcf5badc7ee619f0f4e36d0a5b",
            "0x000000000000000000000000915a2284d28bd93de7d6f31173b981204bb666e6"
          ],
          "data": "0x00000000000000000000000000000000000000000000000000184a8475b107d000000000000000000000000000000000000000000000000118ee95b6b007f96a000000000000000000000000000000000000000000000591bb6695823923493d00000000000000000000000000000000000000000000000118d64b323a56f19a000000000000000000000000000000000000000000000591bb7ee006aed4510d",
          "blockHash": "0x57e49b6adf1c81a10b6a0868d40349d0b34df16b93904a3b003f2d7271fcfdac",
          "blockNumber": "0xfe14a1",
          "transactionHash": "0x1845f4166e0f48421371c519d6329fd8426f473bb43a01611a23592ebf5c2c37",
          "transactionIndex": "0x3",
          "logIndex": "0xb",
          "removed": false
        }
      ],
      "logsBloom": "0x00000004000080000010000000000000000000000000000000000000000000000200000000000000000000000000000000008000000000000000000000040000008000000000000000000000000000800000000000040100000100000000000000000000000000000000000000000000000000000000000080000000000000000800000000000000200000000800000000000000000000000000000000000000200000000000000000000000000000000000400000000000008000000000004000000000000000000001000000200000000002000000000000100000000040000000000000000000000000002000000000000000400000000000000000100000",
      "type": "0x2",
      "transactionHash": "0x1845f4166e0f48421371c519d6329fd8426f473bb43a01611a23592ebf5c2c37",
      "transactionIndex": "0x3",
      "blockHash": "0x57e49b6adf1c81a10b6a0868d40349d0b34df16b93904a3b003f2d7271fcfdac",
      "blockNumber": "0xfe14a1",
      "gasUsed": "0x19d78",
      "effectiveGasPrice": "0xf0a351b35",
      "from": "0xefbbd14082cf2fbcf5badc7ee619f0f4e36d0a5b",
      "to": "0x8120a8e0688be6b2c0bb469f871e5e7023ca85eb",
      "contractAddress": null
    },
    {
      "status": "0x1",
      "cumulativeGasUsed": "0x59ccb",
      "logs": [
        {
          "address": "0x8120a8e0688be6b2c0bb469f871e5e7023ca85eb",
          "topics": [
            "0xf98448b987f1428e0e230e1f3c6e2ce15b5693eaf31827fbd0b1ec4b424ae7cf",
            "0x0000000000000000000000000000000000000000000000000000000000000002",
            "0x000000000000000000000000efbbd14082cf2fbcf5badc7ee619f0f4e36d0a5b"
          ],
          "data": "0x000000000000000000000000000000000000000000000000000000000000000000000000000000000000000000000000000000000000000000000000677fe16b0000000000000000000000000000000000000000000000000000000000000000",
          "blockHash": "0x57e49b6adf1c81a10b6a0868d40349d0b34df16b93904a3b003f2d7271fcfdac",
          "blockNumber": "0xfe14a1",
          "transactionHash": "0x5778337e45ff50e46c1c6a3df5774c82f9180ad5908ddf7d1bef20c4591a48e6",
          "transactionIndex": "0x4",
          "logIndex": "0xc",
          "removed": false
        },
        {
          "address": "0x0000000000000000000000000000000000001010",
          "topics": [
            "0x4dfe1bbbcf077ddc3e01291eea2d5c70c2b422b415d95645b9adcfd678cb1d63",
            "0x0000000000000000000000000000000000000000000000000000000000001010",
            "0x000000000000000000000000efbbd14082cf2fbcf5badc7ee619f0f4e36d0a5b",
            "0x000000000000000000000000915a2284d28bd93de7d6f31173b981204bb666e6"
          ],
          "data": "0x00000000000000000000000000000000000000000000000000098ef9be50079200000000000000000000000000000000000000000000000118d64b323a3eb792000000000000000000000000000000000000000000000591bb7ee006aed4510d00000000000000000000000000000000000000000000000118ccbc387beeb000000000000000000000000000000000000000000000000591bb886f006d24589f",
          "blockHash": "0x57e49b6adf1c81a10b6a0868d40349d0b34df16b93904a3b003f2d7271fcfdac",
          "blockNumber": "0xfe14a1",
          "transactionHash": "0x5778337e45ff50e46c1c6a3df5774c82f9180ad5908ddf7d1bef20c4591a48e6",
          "transactionIndex": "0x4",
          "logIndex": "0xd",
          "removed": false
        }
      ],
      "logsBloom": "0x04000000000000000010000000000000000000000000000000000000000000000000000000000000000000000000000000008000000000000000000000000000008000000000000000000000000000800000000000000100000100000000000000000000000000000000000000000000000000000000000080000000000000000800000000000000000000000800000008000000000000000000000000000000200000000000000000002100000000000000400000000008008000000000004000000000000000000001000000000000000002000000000000100000000000000000000000000000000000000000000000000000408000000000000000100000",
      "type": "0x2",
      "transactionHash": "0x5778337e45ff50e46c1c6a3df5774c82f9180ad5908ddf7d1bef20c4591a48e6",
      "transactionIndex": "0x4",
      "blockHash": "0x57e49b6adf1c81a10b6a0868d40349d0b34df16b93904a3b003f2d7271fcfdac",
      "blockNumber": "0xfe14a1",
      "gasUsed": "0xa2b3",
      "effectiveGasPrice": "0xf0a351b35",
      "from": "0xefbbd14082cf2fbcf5badc7ee619f0f4e36d0a5b",
      "to": "0x8120a8e0688be6b2c0bb469f871e5e7023ca85eb",
      "contractAddress": null
    },
    {
      "status": "0x1",
      "cumulativeGasUsed": "0x6db51",
      "logs": [
        {
          "address": "0x8120a8e0688be6b2c0bb469f871e5e7023ca85eb",
          "topics": [
            "0x9ea6790c7dadfd01c9f8b9762b3682607af2c7e79e05a9f9fdf5580dde949151",
            "0x000000000000000000000000e9ff2342903c5c3975cdae572a937626cbf3d9ed",
            "0x0000000000000000000000000000000000000000000000000000000000000002"
          ],
          "data": "0xdaea85c500000000000000000000000000000000000000000000000000000000",
          "blockHash": "0x57e49b6adf1c81a10b6a0868d40349d0b34df16b93904a3b003f2d7271fcfdac",
          "blockNumber": "0xfe14a1",
          "transactionHash": "0xa59a059413dec0088b92bc85fe1da34bde67baa315207fa151fd5b8d7f10774c",
          "transactionIndex": "0x5",
          "logIndex": "0xe",
          "removed": false
        },
        {
          "address": "0x8120a8e0688be6b2c0bb469f871e5e7023ca85eb",
          "topics": [
            "0x9ea6790c7dadfd01c9f8b9762b3682607af2c7e79e05a9f9fdf5580dde949151",
            "0x000000000000000000000000e9ff2342903c5c3975cdae572a937626cbf3d9ed",
            "0x0000000000000000000000000000000000000000000000000000000000000002"
          ],
          "data": "0xab0da5a900000000000000000000000000000000000000000000000000000000",
          "blockHash": "0x57e49b6adf1c81a10b6a0868d40349d0b34df16b93904a3b003f2d7271fcfdac",
          "blockNumber": "0xfe14a1",
          "transactionHash": "0xa59a059413dec0088b92bc85fe1da34bde67baa315207fa151fd5b8d7f10774c",
          "transactionIndex": "0x5",
          "logIndex": "0xf",
          "removed": false
        },
        {
          "address": "0x0000000000000000000000000000000000001010",
          "topics": [
            "0x4dfe1bbbcf077ddc3e01291eea2d5c70c2b422b415d95645b9adcfd678cb1d63",
            "0x0000000000000000000000000000000000000000000000000000000000001010",
            "0x000000000000000000000000efbbd14082cf2fbcf5badc7ee619f0f4e36d0a5b",
            "0x000000000000000000000000915a2284d28bd93de7d6f31173b981204bb666e6"
          ],
          "data": "0x0000000000000000000000000000000000000000000000000012b68d4f8569e400000000000000000000000000000000000000000000000118ccbc387be52783000000000000000000000000000000000000000000000591bb886f006d24589f00000000000000000000000000000000000000000000000118ba05ab2c5fbd9f000000000000000000000000000000000000000000000591bb9b258dbca9c283",
          "blockHash": "0x57e49b6adf1c81a10b6a0868d40349d0b34df16b93904a3b003f2d7271fcfdac",
          "blockNumber": "0xfe14a1",
          "transactionHash": "0xa59a059413dec0088b92bc85fe1da34bde67baa315207fa151fd5b8d7f10774c",
          "transactionIndex": "0x5",
          "logIndex": "0x10",
          "removed": false
        }
      ],
      "logsBloom": "0x04000004000080000010000000000000000000000000000000000000000000000000000000000000000000000000000000008000000000000000000000000000008000000000000000000000000000800000000000200100000100000000000000000000000000000000000000000000000000000000000080000000000000000800000000000000000000000800000000000000000000000000000000000000200000000000000000000100000000000000600000000000008000000000004000000008000000000001000000200000000002000000000000100000000000000000000000000000000000000000000000000000408000000000000000100000",
      "type": "0x2",
      "transactionHash": "0xa59a059413dec0088b92bc85fe1da34bde67baa315207fa151fd5b8d7f10774c",
      "transactionIndex": "0x5",
      "blockHash": "0x57e49b6adf1c81a10b6a0868d40349d0b34df16b93904a3b003f2d7271fcfdac",
      "blockNumber": "0xfe14a1",
      "gasUsed": "0x13e86",
      "effectiveGasPrice": "0xf0a351b35",
      "from": "0xefbbd14082cf2fbcf5badc7ee619f0f4e36d0a5b",
      "to": "0x8120a8e0688be6b2c0bb469f871e5e7023ca85eb",
      "contractAddress": null
    },
    {
      "status": "0x1",
      "cumulativeGasUsed": "0x7bff5",
      "logs": [
        {
          "address": "0x8120a8e0688be6b2c0bb469f871e5e7023ca85eb",
          "topics": [
            "0xf98448b987f1428e0e230e1f3c6e2ce15b5693eaf31827fbd0b1ec4b424ae7cf",
            "0x0000000000000000000000000000000000000000000000000000000000000004",
            "0x0000000000000000000000007281685b064d6ffbf77df3e5442f65462e945b0e"
          ],
          "data": "0x000000000000000000000000000000000000000000000000000000000000000000000000000000000000000000000000000000000000000000000000677fe16b0000000000000000000000000000000000000000000000000000000000000001",
          "blockHash": "0x57e49b6adf1c81a10b6a0868d40349d0b34df16b93904a3b003f2d7271fcfdac",
          "blockNumber": "0xfe14a1",
          "transactionHash": "0x0231a78a636b88384f23b0b7f89281f2d0deaa6a76bd559847589d1bbc6252d6",
          "transactionIndex": "0x6",
          "logIndex": "0x11",
          "removed": false
        },
        {
          "address": "0x0000000000000000000000000000000000001010",
          "topics": [
            "0x4dfe1bbbcf077ddc3e01291eea2d5c70c2b422b415d95645b9adcfd678cb1d63",
            "0x0000000000000000000000000000000000000000000000000000000000001010",
            "0x000000000000000000000000efbbd14082cf2fbcf5badc7ee619f0f4e36d0a5b",
            "0x000000000000000000000000915a2284d28bd93de7d6f31173b981204bb666e6"
          ],
          "data": "0x000000000000000000000000000000000000000000000000000d6eb9d6333c5800000000000000000000000000000000000000000000000118ba05ab2c4d13c5000000000000000000000000000000000000000000000591bb9b258dbca9c28300000000000000000000000000000000000000000000000118ac96f15619d76d000000000000000000000000000000000000000000000591bba8944792dcfedb",
          "blockHash": "0x57e49b6adf1c81a10b6a0868d40349d0b34df16b93904a3b003f2d7271fcfdac",
          "blockNumber": "0xfe14a1",
          "transactionHash": "0x0231a78a636b88384f23b0b7f89281f2d0deaa6a76bd559847589d1bbc6252d6",
          "transactionIndex": "0x6",
          "logIndex": "0x12",
          "removed": false
        }
      ],
      "logsBloom": "0x0000000000000000001000000000000000000000000000000000000000080000000000000000000000000000000000000000800000000000000000000000000000800000000000000000000000000080000000000000010000010000000000000800000000000000000000000000000000000000000000008000000000000000080000000000000000000000080000000800000000000000080000000000000020000000000000000000200000000000000040000000000800a000000000004000000000000000000001000000000000000002008000000100100000000000000000000000000000000000000000000000000000400000000000000000100000",
      "type": "0x2",
      "transactionHash": "0x0231a78a636b88384f23b0b7f89281f2d0deaa6a76bd559847589d1bbc6252d6",
      "transactionIndex": "0x6",
      "blockHash": "0x57e49b6adf1c81a10b6a0868d40349d0b34df16b93904a3b003f2d7271fcfdac",
      "blockNumber": "0xfe14a1",
      "gasUsed": "0xe4a4",
      "effectiveGasPrice": "0xf0a351b35",
      "from": "0xefbbd14082cf2fbcf5badc7ee619f0f4e36d0a5b",
      "to": "0x8120a8e0688be6b2c0bb469f871e5e7023ca85eb",
      "contractAddress": null
    },
    {
      "status": "0x1",
      "cumulativeGasUsed": "0x8a499",
      "logs": [
        {
          "address": "0x8120a8e0688be6b2c0bb469f871e5e7023ca85eb",
          "topics": [
            "0xf98448b987f1428e0e230e1f3c6e2ce15b5693eaf31827fbd0b1ec4b424ae7cf",
            "0x0000000000000000000000000000000000000000000000000000000000000004",
            "0x00000000000000000000000020ee3ad9ed569832b451cf796190349a9d6d673e"
          ],
          "data": "0x000000000000000000000000000000000000000000000000000000000000000000000000000000000000000000000000000000000000000000000000677fe16b0000000000000000000000000000000000000000000000000000000000000001",
          "blockHash": "0x57e49b6adf1c81a10b6a0868d40349d0b34df16b93904a3b003f2d7271fcfdac",
          "blockNumber": "0xfe14a1",
          "transactionHash": "0x0fd0b7ce14c71d109aa82fb625c190fb5709a383f31ff75b53c718ef8cc7c42c",
          "transactionIndex": "0x7",
          "logIndex": "0x13",
          "removed": false
        },
        {
          "address": "0x0000000000000000000000000000000000001010",
          "topics": [
            "0x4dfe1bbbcf077ddc3e01291eea2d5c70c2b422b415d95645b9adcfd678cb1d63",
            "0x0000000000000000000000000000000000000000000000000000000000001010",
            "0x000000000000000000000000efbbd14082cf2fbcf5badc7ee619f0f4e36d0a5b",
            "0x000000000000000000000000915a2284d28bd93de7d6f31173b981204bb666e6"
          ],
          "data": "0x000000000000000000000000000000000000000000000000000d6eb9d6333c5800000000000000000000000000000000000000000000000118ac96f1560c71d1000000000000000000000000000000000000000000000591bba8944792dcfedb000000000000000000000000000000000000000000000001189f28377fd93579000000000000000000000000000000000000000000000591bbb6030169103b33",
          "blockHash": "0x57e49b6adf1c81a10b6a0868d40349d0b34df16b93904a3b003f2d7271fcfdac",
          "blockNumber": "0xfe14a1",
          "transactionHash": "0x0fd0b7ce14c71d109aa82fb625c190fb5709a383f31ff75b53c718ef8cc7c42c",
          "transactionIndex": "0x7",
          "logIndex": "0x14",
          "removed": false
        }
      ],
      "logsBloom": "0x0000000000000000001000000000000000000000010000000000000000000000000000000000000000000000000000000000800000000000000000000000000000800000000000000000000000000080000000000000010000010000000000000800800000000000000008000000000000000000000000008000000000000000080000000000000000000000080000000800000000000000000000000000000020000000000000000000200000000000000040000000000800a000000000004000000000000000000001000000000000000002008000000000100000000000000000000000000000000000000000000000000000400000000000000000100000",
      "type": "0x2",
      "transactionHash": "0x0fd0b7ce14c71d109aa82fb625c190fb5709a383f31ff75b53c718ef8cc7c42c",
      "transactionIndex": "0x7",
      "blockHash": "0x57e49b6adf1c81a10b6a0868d40349d0b34df16b93904a3b003f2d7271fcfdac",
      "blockNumber": "0xfe14a1",
      "gasUsed": "0xe4a4",
      "effectiveGasPrice": "0xf0a351b35",
      "from": "0xefbbd14082cf2fbcf5badc7ee619f0f4e36d0a5b",
      "to": "0x8120a8e0688be6b2c0bb469f871e5e7023ca85eb",
      "contractAddress": null
    },
    {
      "status": "0x1",
      "cumulativeGasUsed": "0x9893d",
      "logs": [
        {
          "address": "0x8120a8e0688be6b2c0bb469f871e5e7023ca85eb",
          "topics": [
            "0xf98448b987f1428e0e230e1f3c6e2ce15b5693eaf31827fbd0b1ec4b424ae7cf",
            "0x0000000000000000000000000000000000000000000000000000000000000004",
            "0x00000000000000000000000031f32d9066257805ccccbfe46cfc2455fddd902c"
          ],
          "data": "0x000000000000000000000000000000000000000000000000000000000000000000000000000000000000000000000000000000000000000000000000677fe16b0000000000000000000000000000000000000000000000000000000000000001",
          "blockHash": "0x57e49b6adf1c81a10b6a0868d40349d0b34df16b93904a3b003f2d7271fcfdac",
          "blockNumber": "0xfe14a1",
          "transactionHash": "0x83dbb1e807d58c14b8e1012eb30696675407c8d663ec36495869c47e8f11cc09",
          "transactionIndex": "0x8",
          "logIndex": "0x15",
          "removed": false
        },
        {
          "address": "0x0000000000000000000000000000000000001010",
          "topics": [
            "0x4dfe1bbbcf077ddc3e01291eea2d5c70c2b422b415d95645b9adcfd678cb1d63",
            "0x0000000000000000000000000000000000000000000000000000000000001010",
            "0x000000000000000000000000efbbd14082cf2fbcf5badc7ee619f0f4e36d0a5b",
            "0x000000000000000000000000915a2284d28bd93de7d6f31173b981204bb666e6"
          ],
          "data": "0x000000000000000000000000000000000000000000000000000d6eb9d6333c58000000000000000000000000000000000000000000000001189f28377fcbcfdd000000000000000000000000000000000000000000000591bbb6030169103b330000000000000000000000000000000000000000000000011891b97da9989385000000000000000000000000000000000000000000000591bbc371bb3f43778b",
          "blockHash": "0x57e49b6adf1c81a10b6a0868d40349d0b34df16b93904a3b003f2d7271fcfdac",
          "blockNumber": "0xfe14a1",
          "transactionHash": "0x83dbb1e807d58c14b8e1012eb30696675407c8d663ec36495869c47e8f11cc09",
          "transactionIndex": "0x8",
          "logIndex": "0x16",
          "removed": false
        }
      ],
      "logsBloom": "0x0000000000000000001000000000000000000000000000000000000000000000020000000000000000000000000000000000800000000000000000000000000000800000000000000000000000000080000000000000010000010000000000000800000000000000000000000000000000000000000000008000000000000000080000000000000020000000080000000800000000000000000000000000000020000000000000000000200000000000000040000000000800a000000000004000000000000000000001000000000000000002008000000000100000000000000000000000000000000000002000000000000000400000000000000000100000",
      "type": "0x2",
      "transactionHash": "0x83dbb1e807d58c14b8e1012eb30696675407c8d663ec36495869c47e8f11cc09",
      "transactionIndex": "0x8",
      "blockHash": "0x57e49b6adf1c81a10b6a0868d40349d0b34df16b93904a3b003f2d7271fcfdac",
      "blockNumber": "0xfe14a1",
      "gasUsed": "0xe4a4",
      "effectiveGasPrice": "0xf0a351b35",
      "from": "0xefbbd14082cf2fbcf5badc7ee619f0f4e36d0a5b",
      "to": "0x8120a8e0688be6b2c0bb469f871e5e7023ca85eb",
      "contractAddress": null
    },
    {
      "status": "0x1",
      "cumulativeGasUsed": "0xb26b5",
      "logs": [
        {
          "address": "0x8120a8e0688be6b2c0bb469f871e5e7023ca85eb",
          "topics": [
            "0x9ea6790c7dadfd01c9f8b9762b3682607af2c7e79e05a9f9fdf5580dde949151",
            "0x0000000000000000000000005855f2c385d526e93802123d5cb54465c4e3871c",
            "0x0000000000000000000000000000000000000000000000000000000000000004"
          ],
          "data": "0x4bbc170a00000000000000000000000000000000000000000000000000000000",
          "blockHash": "0x57e49b6adf1c81a10b6a0868d40349d0b34df16b93904a3b003f2d7271fcfdac",
          "blockNumber": "0xfe14a1",
          "transactionHash": "0x9773c46432f65c45d22d6c4311f59817b07f19df14b8c943ba7b3aaa5c4561c7",
          "transactionIndex": "0x9",
          "logIndex": "0x17",
          "removed": false
        },
        {
          "address": "0x8120a8e0688be6b2c0bb469f871e5e7023ca85eb",
          "topics": [
            "0x9ea6790c7dadfd01c9f8b9762b3682607af2c7e79e05a9f9fdf5580dde949151",
            "0x0000000000000000000000005855f2c385d526e93802123d5cb54465c4e3871c",
            "0x0000000000000000000000000000000000000000000000000000000000000004"
          ],
          "data": "0x15f4150100000000000000000000000000000000000000000000000000000000",
          "blockHash": "0x57e49b6adf1c81a10b6a0868d40349d0b34df16b93904a3b003f2d7271fcfdac",
          "blockNumber": "0xfe14a1",
          "transactionHash": "0x9773c46432f65c45d22d6c4311f59817b07f19df14b8c943ba7b3aaa5c4561c7",
          "transactionIndex": "0x9",
          "logIndex": "0x18",
          "removed": false
        },
        {
          "address": "0x8120a8e0688be6b2c0bb469f871e5e7023ca85eb",
          "topics": [
            "0x9ea6790c7dadfd01c9f8b9762b3682607af2c7e79e05a9f9fdf5580dde949151",
            "0x0000000000000000000000005855f2c385d526e93802123d5cb54465c4e3871c",
            "0x0000000000000000000000000000000000000000000000000000000000000004"
          ],
          "data": "0x9e96a26000000000000000000000000000000000000000000000000000000000",
          "blockHash": "0x57e49b6adf1c81a10b6a0868d40349d0b34df16b93904a3b003f2d7271fcfdac",
          "blockNumber": "0xfe14a1",
          "transactionHash": "0x9773c46432f65c45d22d6c4311f59817b07f19df14b8c943ba7b3aaa5c4561c7",
          "transactionIndex": "0x9",
          "logIndex": "0x19",
          "removed": false
        },
        {
          "address": "0x0000000000000000000000000000000000001010",
          "topics": [
            "0x4dfe1bbbcf077ddc3e01291eea2d5c70c2b422b415d95645b9adcfd678cb1d63",
            "0x0000000000000000000000000000000000000000000000000000000000001010",
            "0x000000000000000000000000efbbd14082cf2fbcf5badc7ee619f0f4e36d0a5b",
            "0x000000000000000000000000915a2284d28bd93de7d6f31173b981204bb666e6"
          ],
          "data": "0x00000000000000000000000000000000000000000000000000184a8475b107d00000000000000000000000000000000000000000000000011891b97da98b2de9000000000000000000000000000000000000000000000591bbc371bb3f43778b00000000000000000000000000000000000000000000000118796ef933da2619000000000000000000000000000000000000000000000591bbdbbc3fb4f47f5b",
          "blockHash": "0x57e49b6adf1c81a10b6a0868d40349d0b34df16b93904a3b003f2d7271fcfdac",
          "blockNumber": "0xfe14a1",
          "transactionHash": "0x9773c46432f65c45d22d6c4311f59817b07f19df14b8c943ba7b3aaa5c4561c7",
          "transactionIndex": "0x9",
          "logIndex": "0x1a",
          "removed": false
        }
      ],
      "logsBloom": "0x0000000400008000001000000000000000000000000000000000000000000000000000000000000000000000000000000000800000000000000000000000000000800000000000000000000000000080040100000200010000010000000000000800000000000000000000000000000000000000000000008000000000000000080000000000000000000000080000000000000000000000000000000000000020000000000000000000000000000000000040000000000000a000000000004000000000000000000001000000200000000002008000000000100000000000000000000000000000000000000000000000000000400000000000000000100000",
      "type": "0x2",
      "transactionHash": "0x9773c46432f65c45d22d6c4311f59817b07f19df14b8c943ba7b3aaa5c4561c7",
      "transactionIndex": "0x9",
      "blockHash": "0x57e49b6adf1c81a10b6a0868d40349d0b34df16b93904a3b003f2d7271fcfdac",
      "blockNumber": "0xfe14a1",
      "gasUsed": "0x19d78",
      "effectiveGasPrice": "0xf0a351b35",
      "from": "0xefbbd14082cf2fbcf5badc7ee619f0f4e36d0a5b",
      "to": "0x8120a8e0688be6b2c0bb469f871e5e7023ca85eb",
      "contractAddress": null
    },
    {
      "status": "0x1",
      "cumulativeGasUsed": "0xe7dfa",
      "logs": [
        {
          "address": "0xbae832ee0bd9c212212f7f0190cc3b8ca8586ed3",
          "topics": [
            "0x9621c1829ce5206009d367ce68b7c4fe6b4bbd70dbe22c21e5bd2a51a716c51c",
            "0x000000000000000000000000ac21c4a4ab26c295856365541dab1b4c8873d109",
            "0x0000000000000000000000003c7deb6feaeb7a82bde580fb73d8d69c401b219e"
          ],
          "data": "0x000000000000000000000000000000000000000000000000000000000000000300000000000000000000000000000000000000000000000000000000000001f4",
          "blockHash": "0x57e49b6adf1c81a10b6a0868d40349d0b34df16b93904a3b003f2d7271fcfdac",
          "blockNumber": "0xfe14a1",
          "transactionHash": "0xb2fc27a50c4b7394f19450ff9c562b06aa34942ebafd6fe9e8c04baacd498da3",
          "transactionIndex": "0xb",
          "logIndex": "0x1d",
          "removed": false
        },
        {
          "address": "0x0000000000000000000000000000000000001010",
          "topics": [
            "0x4dfe1bbbcf077ddc3e01291eea2d5c70c2b422b415d95645b9adcfd678cb1d63",
            "0x0000000000000000000000000000000000000000000000000000000000001010",
            "0x000000000000000000000000efbbd14082cf2fbcf5badc7ee619f0f4e36d0a5b",
            "0x000000000000000000000000915a2284d28bd93de7d6f31173b981204bb666e6"
          ],
          "data": "0x0000000000000000000000000000000000000000000000000024957e49b7a10400000000000000000000000000000000000000000000000118796ef933c1ec11000000000000000000000000000000000000000000000591bbe965e6893919950000000000000000000000000000000000000000000000011854d97aea0a4b0d000000000000000000000000000000000000000000000591bc0dfb64d2f0ba99",
          "blockHash": "0x57e49b6adf1c81a10b6a0868d40349d0b34df16b93904a3b003f2d7271fcfdac",
          "blockNumber": "0xfe14a1",
          "transactionHash": "0xb2fc27a50c4b7394f19450ff9c562b06aa34942ebafd6fe9e8c04baacd498da3",
          "transactionIndex": "0xb",
          "logIndex": "0x1e",
          "removed": false
        }
      ],
      "logsBloom": "0x00000000000000000010000000000000000000000000000000800000000000000000000000000000000000000002040000008000000000000800000400000000008000000000000000000000000000800000000000000020000100000000000000041000000000000000000000000000000800000000000080000000000000000800000000000000000000000000000000000000000000000000000000000000200000000000000000000000000000000000400000080000000020000000004000000000000000000001000000000000000002000000000000100000004000000000000000000000000000000000000000000000400000000000000000100000",
      "type": "0x2",
      "transactionHash": "0xb2fc27a50c4b7394f19450ff9c562b06aa34942ebafd6fe9e8c04baacd498da3",
      "transactionIndex": "0xb",
      "blockHash": "0x57e49b6adf1c81a10b6a0868d40349d0b34df16b93904a3b003f2d7271fcfdac",
      "blockNumber": "0xfe14a1",
      "gasUsed": "0x26eb6",
      "effectiveGasPrice": "0xf0a351b35",
      "from": "0xefbbd14082cf2fbcf5badc7ee619f0f4e36d0a5b",
      "to": "0xbae832ee0bd9c212212f7f0190cc3b8ca8586ed3",
      "contractAddress": null
    },
    {
      "status": "0x1",
      "cumulativeGasUsed": "0x10ecd5",
      "logs": [
        {
          "address": "0xbae832ee0bd9c212212f7f0190cc3b8ca8586ed3",
          "topics": [
            "0x9621c1829ce5206009d367ce68b7c4fe6b4bbd70dbe22c21e5bd2a51a716c51c",
            "0x00000000000000000000000031f32d9066257805ccccbfe46cfc2455fddd902c",
            "0x0000000000000000000000003c7deb6feaeb7a82bde580fb73d8d69c401b219e"
          ],
          "data": "0x00000000000000000000000000000000000000000000000000000000000000010000000000000000000000000000000000000000000000056bc75e2d63100000",
          "blockHash": "0x57e49b6adf1c81a10b6a0868d40349d0b34df16b93904a3b003f2d7271fcfdac",
          "blockNumber": "0xfe14a1",
          "transactionHash": "0xf6438e9d683014659c2982a7d0b5d33af07de0a558ab09cfdb2b623bb56e1973",
          "transactionIndex": "0xc",
          "logIndex": "0x1f",
          "removed": false
        },
        {
          "address": "0x0000000000000000000000000000000000001010",
          "topics": [
            "0x4dfe1bbbcf077ddc3e01291eea2d5c70c2b422b415d95645b9adcfd678cb1d63",
            "0x0000000000000000000000000000000000000000000000000000000000001010",
            "0x000000000000000000000000efbbd14082cf2fbcf5badc7ee619f0f4e36d0a5b",
            "0x000000000000000000000000915a2284d28bd93de7d6f31173b981204bb666e6"
          ],
          "data": "0x000000000000000000000000000000000000000000000000002497aac3648d820000000000000000000000000000000000000000000000011854d97ae9e5ce63000000000000000000000000000000000000000000000591bc0dfb64d2f0ba99000000000000000000000000000000000000000000000001183041d0268140e1000000000000000000000000000000000000000000000591bc32930f9655481b",
          "blockHash": "0x57e49b6adf1c81a10b6a0868d40349d0b34df16b93904a3b003f2d7271fcfdac",
          "blockNumber": "0xfe14a1",
          "transactionHash": "0xf6438e9d683014659c2982a7d0b5d33af07de0a558ab09cfdb2b623bb56e1973",
          "transactionIndex": "0xc",
          "logIndex": "0x20",
          "removed": false
        }
      ],
      "logsBloom": "0x00000000000000000010000000000000000000000000000000800000000000000200000000000000000000000002040000008000000000000800000400000000008000000000000000000000000000800000000000000020000100000000000000041000000000000000000000000000000000000000000080000000000000000800000000000000200000000000000000000000000000000000000000000000200000000000000000000000000000000000400000000000000000000000004000000000000000000001000000000000000002000000000000100000004000000000000000000000000000002000000000000000400000000000000000100000",
      "type": "0x2",
      "transactionHash": "0xf6438e9d683014659c2982a7d0b5d33af07de0a558ab09cfdb2b623bb56e1973",
      "transactionIndex": "0xc",
      "blockHash": "0x57e49b6adf1c81a10b6a0868d40349d0b34df16b93904a3b003f2d7271fcfdac",
      "blockNumber": "0xfe14a1",
      "gasUsed": "0x26edb",
      "effectiveGasPrice": "0xf0a351b35",
      "from": "0xefbbd14082cf2fbcf5badc7ee619f0f4e36d0a5b",
      "to": "0xbae832ee0bd9c212212f7f0190cc3b8ca8586ed3",
      "contractAddress": null
    }
  ],
  "libraries": [],
  "pending": [],
  "returns": {},
  "timestamp": 1736434028,
  "chain": 80002,
  "commit": "b36aadb"
}