{
  "transactions": [
    {
      "hash": "0x376c75aacff82cc7618f096676522f10a2220e14b815d29efdf9a07ea77a81ea",
      "transactionType": "CALL",
      "contractName": null,
      "contractAddress": "0x8120a8e0688be6b2c0bb469f871e5e7023ca85eb",
      "function": "grantRole(uint64,address,uint32)",
      "arguments": [
        "1",
        "0xEFBBD14082cF2FbCf5Badc7ee619F0f4e36D0A5B",
        "0"
      ],
      "transaction": {
        "from": "0xefbbd14082cf2fbcf5badc7ee619f0f4e36d0a5b",
        "to": "0x8120a8e0688be6b2c0bb469f871e5e7023ca85eb",
        "gas": "0xedf2",
        "value": "0x0",
        "input": "0x25c471a00000000000000000000000000000000000000000000000000000000000000001000000000000000000000000efbbd14082cf2fbcf5badc7ee619f0f4e36d0a5b0000000000000000000000000000000000000000000000000000000000000000",
        "nonce": "0x859",
        "chainId": "0x13882"
      },
      "additionalContracts": [],
      "isFixedGasLimit": false
    },
    {
      "hash": "0xdac7791f98d542f559700b2ff61a93cf75cb7d35d0243beef29900088e95d36c",
      "transactionType": "CALL",
      "contractName": null,
      "contractAddress": "0x8120a8e0688be6b2c0bb469f871e5e7023ca85eb",
      "function": "setTargetFunctionRole(address,bytes4[],uint64)",
      "arguments": [
        "0xf03dB02273f428E685F06fD6532c70f62c2B68F8",
        "[0xecf441b7]",
        "1"
      ],
      "transaction": {
        "from": "0xefbbd14082cf2fbcf5badc7ee619f0f4e36d0a5b",
        "to": "0x8120a8e0688be6b2c0bb469f871e5e7023ca85eb",
        "gas": "0x134d0",
        "value": "0x0",
        "input": "0x08d6122d000000000000000000000000f03db02273f428e685f06fd6532c70f62c2b68f8000000000000000000000000000000000000000000000000000000000000006000000000000000000000000000000000000000000000000000000000000000010000000000000000000000000000000000000000000000000000000000000001ecf441b700000000000000000000000000000000000000000000000000000000",
        "nonce": "0x85a",
        "chainId": "0x13882"
      },
      "additionalContracts": [],
      "isFixedGasLimit": false
    },
    {
      "hash": "0xc7338cfc6b476050d8a068f155ef13d6e44d697fa0f756fafcea6d910b7bb8aa",
      "transactionType": "CALL",
      "contractName": null,
      "contractAddress": "0x8120a8e0688be6b2c0bb469f871e5e7023ca85eb",
      "function": "setTargetFunctionRole(address,bytes4[],uint64)",
      "arguments": [
        "0x38F97A1abb29C639ac2Ba7507e271b80a35e131d",
        "[0x69328dec]",
        "1"
      ],
      "transaction": {
        "from": "0xefbbd14082cf2fbcf5badc7ee619f0f4e36d0a5b",
        "to": "0x8120a8e0688be6b2c0bb469f871e5e7023ca85eb",
        "gas": "0x134d0",
        "value": "0x0",
        "input": "0x08d6122d00000000000000000000000038f97a1abb29c639ac2ba7507e271b80a35e131d00000000000000000000000000000000000000000000000000000000000000600000000000000000000000000000000000000000000000000000000000000001000000000000000000000000000000000000000000000000000000000000000169328dec00000000000000000000000000000000000000000000000000000000",
        "nonce": "0x85b",
        "chainId": "0x13882"
      },
      "additionalContracts": [],
      "isFixedGasLimit": false
    },
    {
      "hash": "0x88b6003946b721723a95f14cc7d70a46e3511d1584bfbd18cff99ab625e9a6a1",
      "transactionType": "CALL",
      "contractName": null,
      "contractAddress": "0x8120a8e0688be6b2c0bb469f871e5e7023ca85eb",
      "function": "setTargetFunctionRole(address,bytes4[],uint64)",
      "arguments": [
        "0x95Cd61A76DB4484267D6e3E362239038b975878d",
        "[0x20c5429b, 0xb8adaa11, 0xb759f954]",
        "1"
      ],
      "transaction": {
        "from": "0xefbbd14082cf2fbcf5badc7ee619f0f4e36d0a5b",
        "to": "0x8120a8e0688be6b2c0bb469f871e5e7023ca85eb",
        "gas": "0x23b19",
        "value": "0x0",
        "input": "0x08d6122d00000000000000000000000095cd61a76db4484267d6e3e362239038b975878d00000000000000000000000000000000000000000000000000000000000000600000000000000000000000000000000000000000000000000000000000000001000000000000000000000000000000000000000000000000000000000000000320c5429b00000000000000000000000000000000000000000000000000000000b8adaa1100000000000000000000000000000000000000000000000000000000b759f95400000000000000000000000000000000000000000000000000000000",
        "nonce": "0x85c",
        "chainId": "0x13882"
      },
      "additionalContracts": [],
      "isFixedGasLimit": false
    },
    {
      "hash": "0xb69d31ffd58bda6a2b845dfd97d591b497689ab6f4fc302f2bbc71d178f73c6f",
      "transactionType": "CALL",
      "contractName": null,
      "contractAddress": "0x8120a8e0688be6b2c0bb469f871e5e7023ca85eb",
      "function": "setTargetFunctionRole(address,bytes4[],uint64)",
      "arguments": [
        "0x8c9698594F8e11f98390A882BaCf8Aa838cd5FC7",
        "[0xf6eea098, 0x74a8f103, 0xdaea85c5]",
        "1"
      ],
      "transaction": {
        "from": "0xefbbd14082cf2fbcf5badc7ee619f0f4e36d0a5b",
        "to": "0x8120a8e0688be6b2c0bb469f871e5e7023ca85eb",
        "gas": "0x23b19",
        "value": "0x0",
        "input": "0x08d6122d0000000000000000000000008c9698594f8e11f98390a882bacf8aa838cd5fc7000000000000000000000000000000000000000000000000000000000000006000000000000000000000000000000000000000000000000000000000000000010000000000000000000000000000000000000000000000000000000000000003f6eea0980000000000000000000000000000000000000000000000000000000074a8f10300000000000000000000000000000000000000000000000000000000daea85c500000000000000000000000000000000000000000000000000000000",
        "nonce": "0x85d",
        "chainId": "0x13882"
      },
      "additionalContracts": [],
      "isFixedGasLimit": false
    },
    {
      "hash": "0x83f7d393a8f76e4959ec790dec913b3d11f01d7a848c8e75c5fe2819636a1e5e",
      "transactionType": "CALL",
      "contractName": null,
      "contractAddress": "0x8120a8e0688be6b2c0bb469f871e5e7023ca85eb",
      "function": "grantRole(uint64,address,uint32)",
      "arguments": [
        "2",
        "0xEFBBD14082cF2FbCf5Badc7ee619F0f4e36D0A5B",
        "0"
      ],
      "transaction": {
        "from": "0xefbbd14082cf2fbcf5badc7ee619f0f4e36d0a5b",
        "to": "0x8120a8e0688be6b2c0bb469f871e5e7023ca85eb",
        "gas": "0xedf2",
        "value": "0x0",
        "input": "0x25c471a00000000000000000000000000000000000000000000000000000000000000002000000000000000000000000efbbd14082cf2fbcf5badc7ee619f0f4e36d0a5b0000000000000000000000000000000000000000000000000000000000000000",
        "nonce": "0x85e",
        "chainId": "0x13882"
      },
      "additionalContracts": [],
      "isFixedGasLimit": false
    },
    {
      "hash": "0x48f3586462c806616c4aeb1b3af8253c414d1420fad4e4485a545822dfd46328",
      "transactionType": "CALL",
      "contractName": null,
      "contractAddress": "0x8120a8e0688be6b2c0bb469f871e5e7023ca85eb",
      "function": "setTargetFunctionRole(address,bytes4[],uint64)",
      "arguments": [
        "0x008210B7fA136CA9d450F2Fc0F5173E651aec337",
        "[0xdaea85c5, 0xab0da5a9]",
        "2"
      ],
      "transaction": {
        "from": "0xefbbd14082cf2fbcf5badc7ee619f0f4e36d0a5b",
        "to": "0x8120a8e0688be6b2c0bb469f871e5e7023ca85eb",
        "gas": "0x1d1c5",
        "value": "0x0",
        "input": "0x08d6122d000000000000000000000000008210b7fa136ca9d450f2fc0f5173e651aec337000000000000000000000000000000000000000000000000000000000000006000000000000000000000000000000000000000000000000000000000000000020000000000000000000000000000000000000000000000000000000000000002daea85c500000000000000000000000000000000000000000000000000000000ab0da5a900000000000000000000000000000000000000000000000000000000",
        "nonce": "0x85f",
        "chainId": "0x13882"
      },
      "additionalContracts": [],
      "isFixedGasLimit": false
    },
    {
      "hash": "0x276a02a8580aa372ad75412c2fe42beba822536f84b521b51872fc4b8e4aab47",
      "transactionType": "CALL",
      "contractName": null,
      "contractAddress": "0x8120a8e0688be6b2c0bb469f871e5e7023ca85eb",
      "function": "grantRole(uint64,address,uint32)",
      "arguments": [
        "4",
        "0x1219644A10E3693a476A92825153434AAD4d134C",
        "0"
      ],
      "transaction": {
        "from": "0xefbbd14082cf2fbcf5badc7ee619f0f4e36d0a5b",
        "to": "0x8120a8e0688be6b2c0bb469f871e5e7023ca85eb",
        "gas": "0x13bcf",
        "value": "0x0",
        "input": "0x25c471a000000000000000000000000000000000000000000000000000000000000000040000000000000000000000001219644a10e3693a476a92825153434aad4d134c0000000000000000000000000000000000000000000000000000000000000000",
        "nonce": "0x860",
        "chainId": "0x13882"
      },
      "additionalContracts": [],
      "isFixedGasLimit": false
    },
    {
      "hash": "0xe4b69dd7e1d60f05cbd5eb4c7364d389f146b0b49c97b42d6ab9a5882d5687df",
      "transactionType": "CALL",
      "contractName": null,
      "contractAddress": "0x8120a8e0688be6b2c0bb469f871e5e7023ca85eb",
      "function": "grantRole(uint64,address,uint32)",
      "arguments": [
        "4",
        "0x4ea1628e9eCdEbdC35a80f3e6C7FA71Ce0e9Ec83",
        "0"
      ],
      "transaction": {
        "from": "0xefbbd14082cf2fbcf5badc7ee619f0f4e36d0a5b",
        "to": "0x8120a8e0688be6b2c0bb469f871e5e7023ca85eb",
        "gas": "0x13bcf",
        "value": "0x0",
        "input": "0x25c471a000000000000000000000000000000000000000000000000000000000000000040000000000000000000000004ea1628e9ecdebdc35a80f3e6c7fa71ce0e9ec830000000000000000000000000000000000000000000000000000000000000000",
        "nonce": "0x861",
        "chainId": "0x13882"
      },
      "additionalContracts": [],
      "isFixedGasLimit": false
    },
    {
      "hash": "0x95bcd572797ee392cc2ab022f91ef2fc9e3af18251736f2e48de2f4dc48d0fd8",
      "transactionType": "CALL",
      "contractName": null,
      "contractAddress": "0x8120a8e0688be6b2c0bb469f871e5e7023ca85eb",
      "function": "grantRole(uint64,address,uint32)",
      "arguments": [
        "4",
        "0x8c9698594F8e11f98390A882BaCf8Aa838cd5FC7",
        "0"
      ],
      "transaction": {
        "from": "0xefbbd14082cf2fbcf5badc7ee619f0f4e36d0a5b",
        "to": "0x8120a8e0688be6b2c0bb469f871e5e7023ca85eb",
        "gas": "0x13bcf",
        "value": "0x0",
        "input": "0x25c471a000000000000000000000000000000000000000000000000000000000000000040000000000000000000000008c9698594f8e11f98390a882bacf8aa838cd5fc70000000000000000000000000000000000000000000000000000000000000000",
        "nonce": "0x862",
        "chainId": "0x13882"
      },
      "additionalContracts": [],
      "isFixedGasLimit": false
    },
    {
      "hash": "0xf599b64f0ec64f423348a8e3f7ca3d69e9535710cc728778e7e2160d9d96b50a",
      "transactionType": "CALL",
      "contractName": null,
      "contractAddress": "0x8120a8e0688be6b2c0bb469f871e5e7023ca85eb",
      "function": "setTargetFunctionRole(address,bytes4[],uint64)",
      "arguments": [
        "0xD81540ef955d3f6b05F186cde6F5e85ff186014D",
        "[0x4bbc170a, 0x15f41501, 0x9e96a260]",
        "4"
      ],
      "transaction": {
        "from": "0xefbbd14082cf2fbcf5badc7ee619f0f4e36d0a5b",
        "to": "0x8120a8e0688be6b2c0bb469f871e5e7023ca85eb",
        "gas": "0x23b19",
        "value": "0x0",
        "input": "0x08d6122d000000000000000000000000d81540ef955d3f6b05f186cde6f5e85ff186014d0000000000000000000000000000000000000000000000000000000000000060000000000000000000000000000000000000000000000000000000000000000400000000000000000000000000000000000000000000000000000000000000034bbc170a0000000000000000000000000000000000000000000000000000000015f41501000000000000000000000000000000000000000000000000000000009e96a26000000000000000000000000000000000000000000000000000000000",
        "nonce": "0x863",
        "chainId": "0x13882"
      },
      "additionalContracts": [],
      "isFixedGasLimit": false
    },
    {
      "hash": "0xaf7b6efa5e2308a2cd866a682c049e1ef88abf9cb406431758d319112256b2b1",
      "transactionType": "CALL",
      "contractName": null,
      "contractAddress": "0xf03db02273f428e685f06fd6532c70f62c2b68f8",
      "function": "setFees(uint8,uint256,address)",
      "arguments": [
        "2",
        "500",
        "0x3c7DeB6FeAEb7a82BDe580Fb73d8d69c401b219e"
      ],
      "transaction": {
        "from": "0xefbbd14082cf2fbcf5badc7ee619f0f4e36d0a5b",
        "to": "0xf03db02273f428e685f06fd6532c70f62c2b68f8",
        "gas": "0x30cce",
        "value": "0x0",
        "input": "0xecf441b7000000000000000000000000000000000000000000000000000000000000000200000000000000000000000000000000000000000000000000000000000001f40000000000000000000000003c7deb6feaeb7a82bde580fb73d8d69c401b219e",
        "nonce": "0x864",
        "chainId": "0x13882"
      },
      "additionalContracts": [],
      "isFixedGasLimit": false
    },
    {
      "hash": "0x7cd4d83a7e744860521159438803f930ae16a8ea067eb87b657c92f460210942",
      "transactionType": "CALL",
      "contractName": null,
      "contractAddress": "0xf03db02273f428e685f06fd6532c70f62c2b68f8",
      "function": "setFees(uint8,uint256,address)",
      "arguments": [
        "1",
        "100000000000000000000",
        "0x3c7DeB6FeAEb7a82BDe580Fb73d8d69c401b219e"
      ],
      "transaction": {
        "from": "0xefbbd14082cf2fbcf5badc7ee619f0f4e36d0a5b",
        "to": "0xf03db02273f428e685f06fd6532c70f62c2b68f8",
        "gas": "0x2e1a0",
        "value": "0x0",
        "input": "0xecf441b700000000000000000000000000000000000000000000000000000000000000010000000000000000000000000000000000000000000000056bc75e2d631000000000000000000000000000003c7deb6feaeb7a82bde580fb73d8d69c401b219e",
        "nonce": "0x865",
        "chainId": "0x13882"
      },
      "additionalContracts": [],
      "isFixedGasLimit": false
    }
  ],
  "receipts": [
    {
      "status": "0x1",
      "cumulativeGasUsed": "0xa2b3",
      "logs": [
        {
          "address": "0x8120a8e0688be6b2c0bb469f871e5e7023ca85eb",
          "topics": [
            "0xf98448b987f1428e0e230e1f3c6e2ce15b5693eaf31827fbd0b1ec4b424ae7cf",
            "0x0000000000000000000000000000000000000000000000000000000000000001",
            "0x000000000000000000000000efbbd14082cf2fbcf5badc7ee619f0f4e36d0a5b"
          ],
          "data": "0x000000000000000000000000000000000000000000000000000000000000000000000000000000000000000000000000000000000000000000000000676dca930000000000000000000000000000000000000000000000000000000000000000",
          "blockHash": "0xbed6ca5b48257ee06288a0be22428df1566d1a54ba4017c66f0bbc9f2ddc58c3",
          "blockNumber": "0xf59781",
          "transactionHash": "0x376c75aacff82cc7618f096676522f10a2220e14b815d29efdf9a07ea77a81ea",
          "transactionIndex": "0x0",
          "logIndex": "0x0",
          "removed": false
        },
        {
          "address": "0x0000000000000000000000000000000000001010",
          "topics": [
            "0x4dfe1bbbcf077ddc3e01291eea2d5c70c2b422b415d95645b9adcfd678cb1d63",
            "0x0000000000000000000000000000000000000000000000000000000000001010",
            "0x000000000000000000000000efbbd14082cf2fbcf5badc7ee619f0f4e36d0a5b",
            "0x0000000000000000000000004631753190f2f5a15a7ba172bbac102b7d95fa22"
          ],
          "data": "0x0000000000000000000000000000000000000000000000000003b308ba901efa000000000000000000000000000000000000000000000001431226506753b28b0000000000000000000000000000000000000000000003d0b543bce918be14f2000000000000000000000000000000000000000000000001430e7347acc393910000000000000000000000000000000000000000000003d0b5476ff1d34e33ec",
          "blockHash": "0xbed6ca5b48257ee06288a0be22428df1566d1a54ba4017c66f0bbc9f2ddc58c3",
          "blockNumber": "0xf59781",
          "transactionHash": "0x376c75aacff82cc7618f096676522f10a2220e14b815d29efdf9a07ea77a81ea",
          "transactionIndex": "0x0",
          "logIndex": "0x1",
          "removed": false
        }
      ],
      "logsBloom": "0x00000000000000000000000000000000000000002000000000000000000000000000000000000000000000000000000000008000000000000000000040040000008000000000000000000000000000800000000000040100000100000000000000000000000000100000000000000000000000000000000080000000000000000800000000000000000000000800000008000000000000000000000000000000200000000000000000002000000000000000400000000008008000000000004000000000000000000001000000000000000000000000000000100000000040000000000000000000000000000000000000000000000000000000000000100000",
      "type": "0x2",
      "transactionHash": "0x376c75aacff82cc7618f096676522f10a2220e14b815d29efdf9a07ea77a81ea",
      "transactionIndex": "0x0",
      "blockHash": "0xbed6ca5b48257ee06288a0be22428df1566d1a54ba4017c66f0bbc9f2ddc58c3",
      "blockNumber": "0xf59781",
      "gasUsed": "0xa2b3",
      "effectiveGasPrice": "0x5d21dba2d",
      "from": "0xefbbd14082cf2fbcf5badc7ee619f0f4e36d0a5b",
      "to": "0x8120a8e0688be6b2c0bb469f871e5e7023ca85eb",
      "contractAddress": null
    },
    {
      "status": "0x1",
      "cumulativeGasUsed": "0x18247",
      "logs": [
        {
          "address": "0x8120a8e0688be6b2c0bb469f871e5e7023ca85eb",
          "topics": [
            "0x9ea6790c7dadfd01c9f8b9762b3682607af2c7e79e05a9f9fdf5580dde949151",
            "0x000000000000000000000000f03db02273f428e685f06fd6532c70f62c2b68f8",
            "0x0000000000000000000000000000000000000000000000000000000000000001"
          ],
          "data": "0xecf441b700000000000000000000000000000000000000000000000000000000",
          "blockHash": "0xbed6ca5b48257ee06288a0be22428df1566d1a54ba4017c66f0bbc9f2ddc58c3",
          "blockNumber": "0xf59781",
          "transactionHash": "0xdac7791f98d542f559700b2ff61a93cf75cb7d35d0243beef29900088e95d36c",
          "transactionIndex": "0x1",
          "logIndex": "0x2",
          "removed": false
        },
        {
          "address": "0x0000000000000000000000000000000000001010",
          "topics": [
            "0x4dfe1bbbcf077ddc3e01291eea2d5c70c2b422b415d95645b9adcfd678cb1d63",
            "0x0000000000000000000000000000000000000000000000000000000000001010",
            "0x000000000000000000000000efbbd14082cf2fbcf5badc7ee619f0f4e36d0a5b",
            "0x0000000000000000000000004631753190f2f5a15a7ba172bbac102b7d95fa22"
          ],
          "data": "0x000000000000000000000000000000000000000000000000000515655e4fbb58000000000000000000000000000000000000000000000001430e7347acba0b140000000000000000000000000000000000000000000003d0b5476ff1d34e33ec00000000000000000000000000000000000000000000000143095de24e6a4fbc0000000000000000000000000000000000000000000003d0b54c8557319def44",
          "blockHash": "0xbed6ca5b48257ee06288a0be22428df1566d1a54ba4017c66f0bbc9f2ddc58c3",
          "blockNumber": "0xf59781",
          "transactionHash": "0xdac7791f98d542f559700b2ff61a93cf75cb7d35d0243beef29900088e95d36c",
          "transactionIndex": "0x1",
          "logIndex": "0x3",
          "removed": false
        }
      ],
      "logsBloom": "0x00000004000080000000000000000000000000002000000000000000000000000000000000000000000000000000000000008000000000000000000040040000008000000000000000000000000000800000000000040100000100000000000000000000000000100000000000000000000000000000000080000000000000000800000000000000000000000800000000000000000000000000000000000000200000000000004000000000000000000000400000000000048000000000004000000000000000000001000000200000000000000000000000100000000040020000000000000000000000000000000000000000000000000000000000100000",
      "type": "0x2",
      "transactionHash": "0xdac7791f98d542f559700b2ff61a93cf75cb7d35d0243beef29900088e95d36c",
      "transactionIndex": "0x1",
      "blockHash": "0xbed6ca5b48257ee06288a0be22428df1566d1a54ba4017c66f0bbc9f2ddc58c3",
      "blockNumber": "0xf59781",
      "gasUsed": "0xdf94",
      "effectiveGasPrice": "0x5d21dba2d",
      "from": "0xefbbd14082cf2fbcf5badc7ee619f0f4e36d0a5b",
      "to": "0x8120a8e0688be6b2c0bb469f871e5e7023ca85eb",
      "contractAddress": null
    },
    {
      "status": "0x1",
      "cumulativeGasUsed": "0x261db",
      "logs": [
        {
          "address": "0x8120a8e0688be6b2c0bb469f871e5e7023ca85eb",
          "topics": [
            "0x9ea6790c7dadfd01c9f8b9762b3682607af2c7e79e05a9f9fdf5580dde949151",
            "0x00000000000000000000000038f97a1abb29c639ac2ba7507e271b80a35e131d",
            "0x0000000000000000000000000000000000000000000000000000000000000001"
          ],
          "data": "0x69328dec00000000000000000000000000000000000000000000000000000000",
          "blockHash": "0xbed6ca5b48257ee06288a0be22428df1566d1a54ba4017c66f0bbc9f2ddc58c3",
          "blockNumber": "0xf59781",
          "transactionHash": "0xc7338cfc6b476050d8a068f155ef13d6e44d697fa0f756fafcea6d910b7bb8aa",
          "transactionIndex": "0x2",
          "logIndex": "0x4",
          "removed": false
        },
        {
          "address": "0x0000000000000000000000000000000000001010",
          "topics": [
            "0x4dfe1bbbcf077ddc3e01291eea2d5c70c2b422b415d95645b9adcfd678cb1d63",
            "0x0000000000000000000000000000000000000000000000000000000000001010",
            "0x000000000000000000000000efbbd14082cf2fbcf5badc7ee619f0f4e36d0a5b",
            "0x0000000000000000000000004631753190f2f5a15a7ba172bbac102b7d95fa22"
          ],
          "data": "0x000000000000000000000000000000000000000000000000000515655e4fbb5800000000000000000000000000000000000000000000000143095de24e5d36100000000000000000000000000000000000000000000003d0b54c8557319def440000000000000000000000000000000000000000000000014304487cf00d7ab80000000000000000000000000000000000000000000003d0b5519abc8fedaa9c",
          "blockHash": "0xbed6ca5b48257ee06288a0be22428df1566d1a54ba4017c66f0bbc9f2ddc58c3",
          "blockNumber": "0xf59781",
          "transactionHash": "0xc7338cfc6b476050d8a068f155ef13d6e44d697fa0f756fafcea6d910b7bb8aa",
          "transactionIndex": "0x2",
          "logIndex": "0x5",
          "removed": false
        }
      ],
      "logsBloom": "0x00000004000080000000000000000000800000002000000000000000000000000000000000000000000000000000000000008000000000000000000040040000008000000000000000000000000000800000000000040100000100000000000000000000000000100000000000000000000000000000000080000000000000000800000000000000000000000800000000000000000000000000000000000000200000000000000000000000000000000000400000000000008000000000004000000000000000000081000000200000000000000000000000100000000040000000000000000000000000040000000000000000000000000000000000100000",
      "type": "0x2",
      "transactionHash": "0xc7338cfc6b476050d8a068f155ef13d6e44d697fa0f756fafcea6d910b7bb8aa",
      "transactionIndex": "0x2",
      "blockHash": "0xbed6ca5b48257ee06288a0be22428df1566d1a54ba4017c66f0bbc9f2ddc58c3",
      "blockNumber": "0xf59781",
      "gasUsed": "0xdf94",
      "effectiveGasPrice": "0x5d21dba2d",
      "from": "0xefbbd14082cf2fbcf5badc7ee619f0f4e36d0a5b",
      "to": "0x8120a8e0688be6b2c0bb469f871e5e7023ca85eb",
      "contractAddress": null
    },
    {
      "status": "0x1",
      "cumulativeGasUsed": "0x3ff53",
      "logs": [
        {
          "address": "0x8120a8e0688be6b2c0bb469f871e5e7023ca85eb",
          "topics": [
            "0x9ea6790c7dadfd01c9f8b9762b3682607af2c7e79e05a9f9fdf5580dde949151",
            "0x00000000000000000000000095cd61a76db4484267d6e3e362239038b975878d",
            "0x0000000000000000000000000000000000000000000000000000000000000001"
          ],
          "data": "0x20c5429b00000000000000000000000000000000000000000000000000000000",
          "blockHash": "0xbed6ca5b48257ee06288a0be22428df1566d1a54ba4017c66f0bbc9f2ddc58c3",
          "blockNumber": "0xf59781",
          "transactionHash": "0x88b6003946b721723a95f14cc7d70a46e3511d1584bfbd18cff99ab625e9a6a1",
          "transactionIndex": "0x3",
          "logIndex": "0x6",
          "removed": false
        },
        {
          "address": "0x8120a8e0688be6b2c0bb469f871e5e7023ca85eb",
          "topics": [
            "0x9ea6790c7dadfd01c9f8b9762b3682607af2c7e79e05a9f9fdf5580dde949151",
            "0x00000000000000000000000095cd61a76db4484267d6e3e362239038b975878d",
            "0x0000000000000000000000000000000000000000000000000000000000000001"
          ],
          "data": "0xb8adaa1100000000000000000000000000000000000000000000000000000000",
          "blockHash": "0xbed6ca5b48257ee06288a0be22428df1566d1a54ba4017c66f0bbc9f2ddc58c3",
          "blockNumber": "0xf59781",
          "transactionHash": "0x88b6003946b721723a95f14cc7d70a46e3511d1584bfbd18cff99ab625e9a6a1",
          "transactionIndex": "0x3",
          "logIndex": "0x7",
          "removed": false
        },
        {
          "address": "0x8120a8e0688be6b2c0bb469f871e5e7023ca85eb",
          "topics": [
            "0x9ea6790c7dadfd01c9f8b9762b3682607af2c7e79e05a9f9fdf5580dde949151",
            "0x00000000000000000000000095cd61a76db4484267d6e3e362239038b975878d",
            "0x0000000000000000000000000000000000000000000000000000000000000001"
          ],
          "data": "0xb759f95400000000000000000000000000000000000000000000000000000000",
          "blockHash": "0xbed6ca5b48257ee06288a0be22428df1566d1a54ba4017c66f0bbc9f2ddc58c3",
          "blockNumber": "0xf59781",
          "transactionHash": "0x88b6003946b721723a95f14cc7d70a46e3511d1584bfbd18cff99ab625e9a6a1",
          "transactionIndex": "0x3",
          "logIndex": "0x8",
          "removed": false
        },
        {
          "address": "0x0000000000000000000000000000000000001010",
          "topics": [
            "0x4dfe1bbbcf077ddc3e01291eea2d5c70c2b422b415d95645b9adcfd678cb1d63",
            "0x0000000000000000000000000000000000000000000000000000000000001010",
            "0x000000000000000000000000efbbd14082cf2fbcf5badc7ee619f0f4e36d0a5b",
            "0x0000000000000000000000004631753190f2f5a15a7ba172bbac102b7d95fa22"
          ],
          "data": "0x000000000000000000000000000000000000000000000000000966b47331a4100000000000000000000000000000000000000000000000014304487cf000610c0000000000000000000000000000000000000000000003d0b5519abc8fedaa9c00000000000000000000000000000000000000000000000142fae1c87ccebcfc0000000000000000000000000000000000000000000003d0b55b0171031f4eac",
          "blockHash": "0xbed6ca5b48257ee06288a0be22428df1566d1a54ba4017c66f0bbc9f2ddc58c3",
          "blockNumber": "0xf59781",
          "transactionHash": "0x88b6003946b721723a95f14cc7d70a46e3511d1584bfbd18cff99ab625e9a6a1",
          "transactionIndex": "0x3",
          "logIndex": "0x9",
          "removed": false
        }
      ],
      "logsBloom": "0x00000004000080000000000000000000000000002000000000000000000000000000000000000000000000000000000000008000000000000000000040040000008000000000000000000000004000800000000000040100000100000000000000000000000000100000000000000000000000000000000080000000000000000800000000000000000000000800000000000000000000000000000000000000200000000000000000000000000000000000400000000000008000000000004000000000000000000001000000200000000000000000000000100000000040000400000000000000000000000000000200000000000000000000000000100000",
      "type": "0x2",
      "transactionHash": "0x88b6003946b721723a95f14cc7d70a46e3511d1584bfbd18cff99ab625e9a6a1",
      "transactionIndex": "0x3",
      "blockHash": "0xbed6ca5b48257ee06288a0be22428df1566d1a54ba4017c66f0bbc9f2ddc58c3",
      "blockNumber": "0xf59781",
      "gasUsed": "0x19d78",
      "effectiveGasPrice": "0x5d21dba2d",
      "from": "0xefbbd14082cf2fbcf5badc7ee619f0f4e36d0a5b",
      "to": "0x8120a8e0688be6b2c0bb469f871e5e7023ca85eb",
      "contractAddress": null
    },
    {
      "status": "0x1",
      "cumulativeGasUsed": "0x59ccb",
      "logs": [
        {
          "address": "0x8120a8e0688be6b2c0bb469f871e5e7023ca85eb",
          "topics": [
            "0x9ea6790c7dadfd01c9f8b9762b3682607af2c7e79e05a9f9fdf5580dde949151",
            "0x0000000000000000000000008c9698594f8e11f98390a882bacf8aa838cd5fc7",
            "0x0000000000000000000000000000000000000000000000000000000000000001"
          ],
          "data": "0xf6eea09800000000000000000000000000000000000000000000000000000000",
          "blockHash": "0xbed6ca5b48257ee06288a0be22428df1566d1a54ba4017c66f0bbc9f2ddc58c3",
          "blockNumber": "0xf59781",
          "transactionHash": "0xb69d31ffd58bda6a2b845dfd97d591b497689ab6f4fc302f2bbc71d178f73c6f",
          "transactionIndex": "0x4",
          "logIndex": "0xa",
          "removed": false
        },
        {
          "address": "0x8120a8e0688be6b2c0bb469f871e5e7023ca85eb",
          "topics": [
            "0x9ea6790c7dadfd01c9f8b9762b3682607af2c7e79e05a9f9fdf5580dde949151",
            "0x0000000000000000000000008c9698594f8e11f98390a882bacf8aa838cd5fc7",
            "0x0000000000000000000000000000000000000000000000000000000000000001"
          ],
          "data": "0x74a8f10300000000000000000000000000000000000000000000000000000000",
          "blockHash": "0xbed6ca5b48257ee06288a0be22428df1566d1a54ba4017c66f0bbc9f2ddc58c3",
          "blockNumber": "0xf59781",
          "transactionHash": "0xb69d31ffd58bda6a2b845dfd97d591b497689ab6f4fc302f2bbc71d178f73c6f",
          "transactionIndex": "0x4",
          "logIndex": "0xb",
          "removed": false
        },
        {
          "address": "0x8120a8e0688be6b2c0bb469f871e5e7023ca85eb",
          "topics": [
            "0x9ea6790c7dadfd01c9f8b9762b3682607af2c7e79e05a9f9fdf5580dde949151",
            "0x0000000000000000000000008c9698594f8e11f98390a882bacf8aa838cd5fc7",
            "0x0000000000000000000000000000000000000000000000000000000000000001"
          ],
          "data": "0xdaea85c500000000000000000000000000000000000000000000000000000000",
          "blockHash": "0xbed6ca5b48257ee06288a0be22428df1566d1a54ba4017c66f0bbc9f2ddc58c3",
          "blockNumber": "0xf59781",
          "transactionHash": "0xb69d31ffd58bda6a2b845dfd97d591b497689ab6f4fc302f2bbc71d178f73c6f",
          "transactionIndex": "0x4",
          "logIndex": "0xc",
          "removed": false
        },
        {
          "address": "0x0000000000000000000000000000000000001010",
          "topics": [
            "0x4dfe1bbbcf077ddc3e01291eea2d5c70c2b422b415d95645b9adcfd678cb1d63",
            "0x0000000000000000000000000000000000000000000000000000000000001010",
            "0x000000000000000000000000efbbd14082cf2fbcf5badc7ee619f0f4e36d0a5b",
            "0x0000000000000000000000004631753190f2f5a15a7ba172bbac102b7d95fa22"
          ],
          "data": "0x000000000000000000000000000000000000000000000000000966b47331a41000000000000000000000000000000000000000000000000142fae1c87cb682f40000000000000000000000000000000000000000000003d0b55b0171031f4eac00000000000000000000000000000000000000000000000142f17b140984dee40000000000000000000000000000000000000000000003d0b56468257650f2bc",
          "blockHash": "0xbed6ca5b48257ee06288a0be22428df1566d1a54ba4017c66f0bbc9f2ddc58c3",
          "blockNumber": "0xf59781",
          "transactionHash": "0xb69d31ffd58bda6a2b845dfd97d591b497689ab6f4fc302f2bbc71d178f73c6f",
          "transactionIndex": "0x4",
          "logIndex": "0xd",
          "removed": false
        }
      ],
      "logsBloom": "0x00400014000080000000000000000000000000002000000000000000000000000008000000000000000000000000000000008000000000000000000040040000008000000000000000000000000000800000000000040100000100000000000000000000000000100000000000000000000000000000000080000000000000000800000000000000000000000800000000000000000000000000000000000000200000000000000000000000000000000000400000000000008000000000004000000000000000000001000000200000000000000000000000100000000040000000000000000000000000000000000000000000000000000000000000100000",
      "type": "0x2",
      "transactionHash": "0xb69d31ffd58bda6a2b845dfd97d591b497689ab6f4fc302f2bbc71d178f73c6f",
      "transactionIndex": "0x4",
      "blockHash": "0xbed6ca5b48257ee06288a0be22428df1566d1a54ba4017c66f0bbc9f2ddc58c3",
      "blockNumber": "0xf59781",
      "gasUsed": "0x19d78",
      "effectiveGasPrice": "0x5d21dba2d",
      "from": "0xefbbd14082cf2fbcf5badc7ee619f0f4e36d0a5b",
      "to": "0x8120a8e0688be6b2c0bb469f871e5e7023ca85eb",
      "contractAddress": null
    },
    {
      "status": "0x1",
      "cumulativeGasUsed": "0x63f7e",
      "logs": [
        {
          "address": "0x8120a8e0688be6b2c0bb469f871e5e7023ca85eb",
          "topics": [
            "0xf98448b987f1428e0e230e1f3c6e2ce15b5693eaf31827fbd0b1ec4b424ae7cf",
            "0x0000000000000000000000000000000000000000000000000000000000000002",
            "0x000000000000000000000000efbbd14082cf2fbcf5badc7ee619f0f4e36d0a5b"
          ],
          "data": "0x000000000000000000000000000000000000000000000000000000000000000000000000000000000000000000000000000000000000000000000000676dca930000000000000000000000000000000000000000000000000000000000000000",
          "blockHash": "0xbed6ca5b48257ee06288a0be22428df1566d1a54ba4017c66f0bbc9f2ddc58c3",
          "blockNumber": "0xf59781",
          "transactionHash": "0x83f7d393a8f76e4959ec790dec913b3d11f01d7a848c8e75c5fe2819636a1e5e",
          "transactionIndex": "0x5",
          "logIndex": "0xe",
          "removed": false
        },
        {
          "address": "0x0000000000000000000000000000000000001010",
          "topics": [
            "0x4dfe1bbbcf077ddc3e01291eea2d5c70c2b422b415d95645b9adcfd678cb1d63",
            "0x0000000000000000000000000000000000000000000000000000000000001010",
            "0x000000000000000000000000efbbd14082cf2fbcf5badc7ee619f0f4e36d0a5b",
            "0x0000000000000000000000004631753190f2f5a15a7ba172bbac102b7d95fa22"
          ],
          "data": "0x0000000000000000000000000000000000000000000000000003b308ba901efa00000000000000000000000000000000000000000000000142f17b14096ca4dc0000000000000000000000000000000000000000000003d0b56468257650f2bc00000000000000000000000000000000000000000000000142edc80b4edc85e20000000000000000000000000000000000000000000003d0b5681b2e30e111b6",
          "blockHash": "0xbed6ca5b48257ee06288a0be22428df1566d1a54ba4017c66f0bbc9f2ddc58c3",
          "blockNumber": "0xf59781",
          "transactionHash": "0x83f7d393a8f76e4959ec790dec913b3d11f01d7a848c8e75c5fe2819636a1e5e",
          "transactionIndex": "0x5",
          "logIndex": "0xf",
          "removed": false
        }
      ],
      "logsBloom": "0x04000000000000000000000000000000000000002000000000000000000000000000000000000000000000000000000000008000000000000000000040000000008000000000000000000000000000800000000000000100000100000000000000000000000000100000000000000000000000000000000080000000000000000800000000000000000000000800000008000000000000000000000000000000200000000000000000002100000000000000400000000008008000000000004000000000000000000001000000000000000000000000000000100000000000000000000000000000000000000000000000000000008000000000000000100000",
      "type": "0x2",
      "transactionHash": "0x83f7d393a8f76e4959ec790dec913b3d11f01d7a848c8e75c5fe2819636a1e5e",
      "transactionIndex": "0x5",
      "blockHash": "0xbed6ca5b48257ee06288a0be22428df1566d1a54ba4017c66f0bbc9f2ddc58c3",
      "blockNumber": "0xf59781",
      "gasUsed": "0xa2b3",
      "effectiveGasPrice": "0x5d21dba2d",
      "from": "0xefbbd14082cf2fbcf5badc7ee619f0f4e36d0a5b",
      "to": "0x8120a8e0688be6b2c0bb469f871e5e7023ca85eb",
      "contractAddress": null
    },
    {
      "status": "0x1",
      "cumulativeGasUsed": "0x77df8",
      "logs": [
        {
          "address": "0x8120a8e0688be6b2c0bb469f871e5e7023ca85eb",
          "topics": [
            "0x9ea6790c7dadfd01c9f8b9762b3682607af2c7e79e05a9f9fdf5580dde949151",
            "0x000000000000000000000000008210b7fa136ca9d450f2fc0f5173e651aec337",
            "0x0000000000000000000000000000000000000000000000000000000000000002"
          ],
          "data": "0xdaea85c500000000000000000000000000000000000000000000000000000000",
          "blockHash": "0xbed6ca5b48257ee06288a0be22428df1566d1a54ba4017c66f0bbc9f2ddc58c3",
          "blockNumber": "0xf59781",
          "transactionHash": "0x48f3586462c806616c4aeb1b3af8253c414d1420fad4e4485a545822dfd46328",
          "transactionIndex": "0x6",
          "logIndex": "0x10",
          "removed": false
        },
        {
          "address": "0x8120a8e0688be6b2c0bb469f871e5e7023ca85eb",
          "topics": [
            "0x9ea6790c7dadfd01c9f8b9762b3682607af2c7e79e05a9f9fdf5580dde949151",
            "0x000000000000000000000000008210b7fa136ca9d450f2fc0f5173e651aec337",
            "0x0000000000000000000000000000000000000000000000000000000000000002"
          ],
          "data": "0xab0da5a900000000000000000000000000000000000000000000000000000000",
          "blockHash": "0xbed6ca5b48257ee06288a0be22428df1566d1a54ba4017c66f0bbc9f2ddc58c3",
          "blockNumber": "0xf59781",
          "transactionHash": "0x48f3586462c806616c4aeb1b3af8253c414d1420fad4e4485a545822dfd46328",
          "transactionIndex": "0x6",
          "logIndex": "0x11",
          "removed": false
        },
        {
          "address": "0x0000000000000000000000000000000000001010",
          "topics": [
            "0x4dfe1bbbcf077ddc3e01291eea2d5c70c2b422b415d95645b9adcfd678cb1d63",
            "0x0000000000000000000000000000000000000000000000000000000000001010",
            "0x000000000000000000000000efbbd14082cf2fbcf5badc7ee619f0f4e36d0a5b",
            "0x0000000000000000000000004631753190f2f5a15a7ba172bbac102b7d95fa22"
          ],
          "data": "0x00000000000000000000000000000000000000000000000000073dc70f5bf64c00000000000000000000000000000000000000000000000142edc80b4ed2fd650000000000000000000000000000000000000000000003d0b5681b2e30e111b600000000000000000000000000000000000000000000000142e68a443f7707190000000000000000000000000000000000000000000003d0b56f58f5403d0802",
          "blockHash": "0xbed6ca5b48257ee06288a0be22428df1566d1a54ba4017c66f0bbc9f2ddc58c3",
          "blockNumber": "0xf59781",
          "transactionHash": "0x48f3586462c806616c4aeb1b3af8253c414d1420fad4e4485a545822dfd46328",
          "transactionIndex": "0x6",
          "logIndex": "0x12",
          "removed": false
        }
      ],
      "logsBloom": "0x04000004000080000000000000000000000000002000000000000000000000000008000000000000000000000000000000008000000000000000000040000000008000000000000000000000000000800000000000000100000100000000000000000040000000100000000000000000000000000000000080000000000000000800000000000000000000000800000000000000000000000000000000000000200000000000000000000100010000000000400000000000008000000000004000000000000000000001000000200000000000000000000000100000000000000000000000000000000000000000000000000000008000000000000000100000",
      "type": "0x2",
      "transactionHash": "0x48f3586462c806616c4aeb1b3af8253c414d1420fad4e4485a545822dfd46328",
      "transactionIndex": "0x6",
      "blockHash": "0xbed6ca5b48257ee06288a0be22428df1566d1a54ba4017c66f0bbc9f2ddc58c3",
      "blockNumber": "0xf59781",
      "gasUsed": "0x13e7a",
      "effectiveGasPrice": "0x5d21dba2d",
      "from": "0xefbbd14082cf2fbcf5badc7ee619f0f4e36d0a5b",
      "to": "0x8120a8e0688be6b2c0bb469f871e5e7023ca85eb",
      "contractAddress": null
    },
    {
      "status": "0x1",
      "cumulativeGasUsed": "0x8629c",
      "logs": [
        {
          "address": "0x8120a8e0688be6b2c0bb469f871e5e7023ca85eb",
          "topics": [
            "0xf98448b987f1428e0e230e1f3c6e2ce15b5693eaf31827fbd0b1ec4b424ae7cf",
            "0x0000000000000000000000000000000000000000000000000000000000000004",
            "0x0000000000000000000000001219644a10e3693a476a92825153434aad4d134c"
          ],
          "data": "0x000000000000000000000000000000000000000000000000000000000000000000000000000000000000000000000000000000000000000000000000676dca930000000000000000000000000000000000000000000000000000000000000001",
          "blockHash": "0xbed6ca5b48257ee06288a0be22428df1566d1a54ba4017c66f0bbc9f2ddc58c3",
          "blockNumber": "0xf59781",
          "transactionHash": "0x276a02a8580aa372ad75412c2fe42beba822536f84b521b51872fc4b8e4aab47",
          "transactionIndex": "0x7",
          "logIndex": "0x13",
          "removed": false
        },
        {
          "address": "0x0000000000000000000000000000000000001010",
          "topics": [
            "0x4dfe1bbbcf077ddc3e01291eea2d5c70c2b422b415d95645b9adcfd678cb1d63",
            "0x0000000000000000000000000000000000000000000000000000000000001010",
            "0x000000000000000000000000efbbd14082cf2fbcf5badc7ee619f0f4e36d0a5b",
            "0x0000000000000000000000004631753190f2f5a15a7ba172bbac102b7d95fa22"
          ],
          "data": "0x000000000000000000000000000000000000000000000000000532dd14cdf33800000000000000000000000000000000000000000000000142e68a443f645df30000000000000000000000000000000000000000000003d0b56f58f5403d080200000000000000000000000000000000000000000000000142e157672a966abb0000000000000000000000000000000000000000000003d0b5748bd2550afb3a",
          "blockHash": "0xbed6ca5b48257ee06288a0be22428df1566d1a54ba4017c66f0bbc9f2ddc58c3",
          "blockNumber": "0xf59781",
          "transactionHash": "0x276a02a8580aa372ad75412c2fe42beba822536f84b521b51872fc4b8e4aab47",
          "transactionIndex": "0x7",
          "logIndex": "0x14",
          "removed": false
        }
      ],
      "logsBloom": "0x0000000000000000000000000000000000000000200000000000000000000000000000000000000000000000000000000000800000000000000000004000000000800000000000000000000000000080000000000000010000010000000000000800000000000010000000000000000000000008000000008000000000000000080000000000000000000000080000000800000000000000000000000000000020000000000000000000200000000000000040020000000800a000000000004000000000000000000001000000000000000000008000000000100000000000000000000000000000000000000000000000000000000080000000000000100000",
      "type": "0x2",
      "transactionHash": "0x276a02a8580aa372ad75412c2fe42beba822536f84b521b51872fc4b8e4aab47",
      "transactionIndex": "0x7",
      "blockHash": "0xbed6ca5b48257ee06288a0be22428df1566d1a54ba4017c66f0bbc9f2ddc58c3",
      "blockNumber": "0xf59781",
      "gasUsed": "0xe4a4",
      "effectiveGasPrice": "0x5d21dba2d",
      "from": "0xefbbd14082cf2fbcf5badc7ee619f0f4e36d0a5b",
      "to": "0x8120a8e0688be6b2c0bb469f871e5e7023ca85eb",
      "contractAddress": null
    },
    {
      "status": "0x1",
      "cumulativeGasUsed": "0xe4a4",
      "logs": [
        {
          "address": "0x8120a8e0688be6b2c0bb469f871e5e7023ca85eb",
          "topics": [
            "0xf98448b987f1428e0e230e1f3c6e2ce15b5693eaf31827fbd0b1ec4b424ae7cf",
            "0x0000000000000000000000000000000000000000000000000000000000000004",
            "0x0000000000000000000000004ea1628e9ecdebdc35a80f3e6c7fa71ce0e9ec83"
          ],
          "data": "0x000000000000000000000000000000000000000000000000000000000000000000000000000000000000000000000000000000000000000000000000676dca950000000000000000000000000000000000000000000000000000000000000001",
          "blockHash": "0xd0d9dfb3a0cbfccd53521f8b8283e3ae4bd1e870f06233deae8ccd20e286122c",
          "blockNumber": "0xf59782",
          "transactionHash": "0xe4b69dd7e1d60f05cbd5eb4c7364d389f146b0b49c97b42d6ab9a5882d5687df",
          "transactionIndex": "0x0",
          "logIndex": "0x0",
          "removed": false
        },
        {
          "address": "0x0000000000000000000000000000000000001010",
          "topics": [
            "0x4dfe1bbbcf077ddc3e01291eea2d5c70c2b422b415d95645b9adcfd678cb1d63",
            "0x0000000000000000000000000000000000000000000000000000000000001010",
            "0x000000000000000000000000efbbd14082cf2fbcf5badc7ee619f0f4e36d0a5b",
            "0x0000000000000000000000004631753190f2f5a15a7ba172bbac102b7d95fa22"
          ],
          "data": "0x000000000000000000000000000000000000000000000000000532dd14cdf33800000000000000000000000000000000000000000000000142e157672a89051f0000000000000000000000000000000000000000000003d0b5748bd2550afb3a00000000000000000000000000000000000000000000000142dc248a15bb11e70000000000000000000000000000000000000000000003d0b579beaf69d8ee72",
          "blockHash": "0xd0d9dfb3a0cbfccd53521f8b8283e3ae4bd1e870f06233deae8ccd20e286122c",
          "blockNumber": "0xf59782",
          "transactionHash": "0xe4b69dd7e1d60f05cbd5eb4c7364d389f146b0b49c97b42d6ab9a5882d5687df",
          "transactionIndex": "0x0",
          "logIndex": "0x1",
          "removed": false
        }
      ],
      "logsBloom": "0x0000000000000000000000000400000000000000200000000000000000000000000000000000000000000000000000000000800000000000000000004000000000800000000000000000000000000080000000000000010000010000000000000800000000000010000000000000000000000000000000008000000000000000080000000000000000000000080000000800000000000000000000000000000020000000000000000000200000000000000040000000000800a000000000004000000000000000000001000200000000000000008000000000100000000000000000400000000000000000000000000000000000000000000000000000100000",
      "type": "0x2",
      "transactionHash": "0xe4b69dd7e1d60f05cbd5eb4c7364d389f146b0b49c97b42d6ab9a5882d5687df",
      "transactionIndex": "0x0",
      "blockHash": "0xd0d9dfb3a0cbfccd53521f8b8283e3ae4bd1e870f06233deae8ccd20e286122c",
      "blockNumber": "0xf59782",
      "gasUsed": "0xe4a4",
      "effectiveGasPrice": "0x5d21dba2d",
      "from": "0xefbbd14082cf2fbcf5badc7ee619f0f4e36d0a5b",
      "to": "0x8120a8e0688be6b2c0bb469f871e5e7023ca85eb",
      "contractAddress": null
    },
    {
      "status": "0x1",
      "cumulativeGasUsed": "0x13db8",
      "logs": [
        {
          "address": "0x8120a8e0688be6b2c0bb469f871e5e7023ca85eb",
          "topics": [
            "0xf98448b987f1428e0e230e1f3c6e2ce15b5693eaf31827fbd0b1ec4b424ae7cf",
            "0x0000000000000000000000000000000000000000000000000000000000000004",
            "0x0000000000000000000000008c9698594f8e11f98390a882bacf8aa838cd5fc7"
          ],
          "data": "0x000000000000000000000000000000000000000000000000000000000000000000000000000000000000000000000000000000000000000000000000676dca970000000000000000000000000000000000000000000000000000000000000001",
          "blockHash": "0x40ac6100e5425dcfd1671c1540a5345d854c3f31f0fd7057095c5a08cde37da5",
          "blockNumber": "0xf59783",
          "transactionHash": "0x95bcd572797ee392cc2ab022f91ef2fc9e3af18251736f2e48de2f4dc48d0fd8",
          "transactionIndex": "0x1",
          "logIndex": "0x1",
          "removed": false
        },
        {
          "address": "0x0000000000000000000000000000000000001010",
          "topics": [
            "0x4dfe1bbbcf077ddc3e01291eea2d5c70c2b422b415d95645b9adcfd678cb1d63",
            "0x0000000000000000000000000000000000000000000000000000000000001010",
            "0x000000000000000000000000efbbd14082cf2fbcf5badc7ee619f0f4e36d0a5b",
            "0x0000000000000000000000004631753190f2f5a15a7ba172bbac102b7d95fa22"
          ],
          "data": "0x000000000000000000000000000000000000000000000000000532dd14cdf33800000000000000000000000000000000000000000000000142dc248a15adac4b0000000000000000000000000000000000000000000003d0b57c2ce38369264600000000000000000000000000000000000000000000000142d6f1ad00dfb9130000000000000000000000000000000000000000000003d0b5815fc09837197e",
          "blockHash": "0x40ac6100e5425dcfd1671c1540a5345d854c3f31f0fd7057095c5a08cde37da5",
          "blockNumber": "0xf59783",
          "transactionHash": "0x95bcd572797ee392cc2ab022f91ef2fc9e3af18251736f2e48de2f4dc48d0fd8",
          "transactionIndex": "0x1",
          "logIndex": "0x2",
          "removed": false
        }
      ],
      "logsBloom": "0x0040001000000000000000000000000000000000200000000000000000000000000800000000000000000000000000000000800000000000000000004000000000800000000000000000000000000080000000000000010000010000000000000800000000000010000000000000000000000000000000008000000000000000080000000000000000000000080000000800000000000000000000000000000020000000000000000000200000000000000040000000000800a000000000004000000000000000000001000000000000000000008000000000100000000000000000000000000000000000000000000000000000000000000000000000100000",
      "type": "0x2",
      "transactionHash": "0x95bcd572797ee392cc2ab022f91ef2fc9e3af18251736f2e48de2f4dc48d0fd8",
      "transactionIndex": "0x1",
      "blockHash": "0x40ac6100e5425dcfd1671c1540a5345d854c3f31f0fd7057095c5a08cde37da5",
      "blockNumber": "0xf59783",
      "gasUsed": "0xe4a4",
      "effectiveGasPrice": "0x5d21dba2d",
      "from": "0xefbbd14082cf2fbcf5badc7ee619f0f4e36d0a5b",
      "to": "0x8120a8e0688be6b2c0bb469f871e5e7023ca85eb",
      "contractAddress": null
    },
    {
      "status": "0x1",
      "cumulativeGasUsed": "0x2db30",
      "logs": [
        {
          "address": "0x8120a8e0688be6b2c0bb469f871e5e7023ca85eb",
          "topics": [
            "0x9ea6790c7dadfd01c9f8b9762b3682607af2c7e79e05a9f9fdf5580dde949151",
            "0x000000000000000000000000d81540ef955d3f6b05f186cde6f5e85ff186014d",
            "0x0000000000000000000000000000000000000000000000000000000000000004"
          ],
          "data": "0x4bbc170a00000000000000000000000000000000000000000000000000000000",
          "blockHash": "0x40ac6100e5425dcfd1671c1540a5345d854c3f31f0fd7057095c5a08cde37da5",
          "blockNumber": "0xf59783",
          "transactionHash": "0xf599b64f0ec64f423348a8e3f7ca3d69e9535710cc728778e7e2160d9d96b50a",
          "transactionIndex": "0x2",
          "logIndex": "0x3",
          "removed": false
        },
        {
          "address": "0x8120a8e0688be6b2c0bb469f871e5e7023ca85eb",
          "topics": [
            "0x9ea6790c7dadfd01c9f8b9762b3682607af2c7e79e05a9f9fdf5580dde949151",
            "0x000000000000000000000000d81540ef955d3f6b05f186cde6f5e85ff186014d",
            "0x0000000000000000000000000000000000000000000000000000000000000004"
          ],
          "data": "0x15f4150100000000000000000000000000000000000000000000000000000000",
          "blockHash": "0x40ac6100e5425dcfd1671c1540a5345d854c3f31f0fd7057095c5a08cde37da5",
          "blockNumber": "0xf59783",
          "transactionHash": "0xf599b64f0ec64f423348a8e3f7ca3d69e9535710cc728778e7e2160d9d96b50a",
          "transactionIndex": "0x2",
          "logIndex": "0x4",
          "removed": false
        },
        {
          "address": "0x8120a8e0688be6b2c0bb469f871e5e7023ca85eb",
          "topics": [
            "0x9ea6790c7dadfd01c9f8b9762b3682607af2c7e79e05a9f9fdf5580dde949151",
            "0x000000000000000000000000d81540ef955d3f6b05f186cde6f5e85ff186014d",
            "0x0000000000000000000000000000000000000000000000000000000000000004"
          ],
          "data": "0x9e96a26000000000000000000000000000000000000000000000000000000000",
          "blockHash": "0x40ac6100e5425dcfd1671c1540a5345d854c3f31f0fd7057095c5a08cde37da5",
          "blockNumber": "0xf59783",
          "transactionHash": "0xf599b64f0ec64f423348a8e3f7ca3d69e9535710cc728778e7e2160d9d96b50a",
          "transactionIndex": "0x2",
          "logIndex": "0x5",
          "removed": false
        },
        {
          "address": "0x0000000000000000000000000000000000001010",
          "topics": [
            "0x4dfe1bbbcf077ddc3e01291eea2d5c70c2b422b415d95645b9adcfd678cb1d63",
            "0x0000000000000000000000000000000000000000000000000000000000001010",
            "0x000000000000000000000000efbbd14082cf2fbcf5badc7ee619f0f4e36d0a5b",
            "0x0000000000000000000000004631753190f2f5a15a7ba172bbac102b7d95fa22"
          ],
          "data": "0x000000000000000000000000000000000000000000000000000966b47331a41000000000000000000000000000000000000000000000000142d6f1ad00d253770000000000000000000000000000000000000000000003d0b5815fc09837197e00000000000000000000000000000000000000000000000142cd8af88da0af670000000000000000000000000000000000000000000003d0b58ac6750b68bd8e",
          "blockHash": "0x40ac6100e5425dcfd1671c1540a5345d854c3f31f0fd7057095c5a08cde37da5",
          "blockNumber": "0xf59783",
          "transactionHash": "0xf599b64f0ec64f423348a8e3f7ca3d69e9535710cc728778e7e2160d9d96b50a",
          "transactionIndex": "0x2",
          "logIndex": "0x6",
          "removed": false
        }
      ],
      "logsBloom": "0x0000000400008000000000000000000000000000200000000000000000000000000000000000000000000000000000000000800000000000000000004000000000800000000000000000000000000080000040000000010000010000000000000800000000000010000000000000000000000000000000088000000000000000080000000000000000000000080000000000000000000000000000000000000020000000000000000000000000000000000040000000000000a000000000004000000000000000000001000000200000000000008000004000100000000000000000000000000000000000000000000000000000000000000000000000100000",
      "type": "0x2",
      "transactionHash": "0xf599b64f0ec64f423348a8e3f7ca3d69e9535710cc728778e7e2160d9d96b50a",
      "transactionIndex": "0x2",
      "blockHash": "0x40ac6100e5425dcfd1671c1540a5345d854c3f31f0fd7057095c5a08cde37da5",
      "blockNumber": "0xf59783",
      "gasUsed": "0x19d78",
      "effectiveGasPrice": "0x5d21dba2d",
      "from": "0xefbbd14082cf2fbcf5badc7ee619f0f4e36d0a5b",
      "to": "0x8120a8e0688be6b2c0bb469f871e5e7023ca85eb",
      "contractAddress": null
    },
    {
      "status": "0x1",
      "cumulativeGasUsed": "0x4f113",
      "logs": [
        {
          "address": "0xf03db02273f428e685f06fd6532c70f62c2b68f8",
          "topics": [
            "0xfbbd6e9cc51f124b05f08f20e9aef57fb26fc9a927be06212c59506610581335",
            "0x0000000000000000000000003c7deb6feaeb7a82bde580fb73d8d69c401b219e",
            "0x000000000000000000000000efbbd14082cf2fbcf5badc7ee619f0f4e36d0a5b"
          ],
          "data": "0x00000000000000000000000000000000000000000000000000000000000001f40000000000000000000000000000000000000000000000000000000000000002",
          "blockHash": "0x40ac6100e5425dcfd1671c1540a5345d854c3f31f0fd7057095c5a08cde37da5",
          "blockNumber": "0xf59783",
          "transactionHash": "0xaf7b6efa5e2308a2cd866a682c049e1ef88abf9cb406431758d319112256b2b1",
          "transactionIndex": "0x3",
          "logIndex": "0x7",
          "removed": false
        },
        {
          "address": "0x0000000000000000000000000000000000001010",
          "topics": [
            "0x4dfe1bbbcf077ddc3e01291eea2d5c70c2b422b415d95645b9adcfd678cb1d63",
            "0x0000000000000000000000000000000000000000000000000000000000001010",
            "0x000000000000000000000000efbbd14082cf2fbcf5badc7ee619f0f4e36d0a5b",
            "0x0000000000000000000000004631753190f2f5a15a7ba172bbac102b7d95fa22"
          ],
          "data": "0x000000000000000000000000000000000000000000000000000c23a134dc7e9a00000000000000000000000000000000000000000000000142cd8af88d88755f0000000000000000000000000000000000000000000003d0b58ac6750b68bd8e00000000000000000000000000000000000000000000000142c1675758abf6c50000000000000000000000000000000000000000000003d0b596ea1640453c28",
          "blockHash": "0x40ac6100e5425dcfd1671c1540a5345d854c3f31f0fd7057095c5a08cde37da5",
          "blockNumber": "0xf59783",
          "transactionHash": "0xaf7b6efa5e2308a2cd866a682c049e1ef88abf9cb406431758d319112256b2b1",
          "transactionIndex": "0x3",
          "logIndex": "0x8",
          "removed": false
        }
      ],
      "logsBloom": "0x00000000000000000000800000000000000000002000000000800000000000000000000000000000000000000000000000008000000080000000000040000000008000000000000000002000000000800000000000000020000100000000000000001000000000500000000000000000000000000000000080000000004000000800000000000000000000000000000000000000000000000004000000000000200000000000000000000000000000000000400000000000000000000000004000000000000000000001000000000000000000000000000000100000000000000000000000000000000000000000000000000000000000000000000000100000",
      "type": "0x2",
      "transactionHash": "0xaf7b6efa5e2308a2cd866a682c049e1ef88abf9cb406431758d319112256b2b1",
      "transactionIndex": "0x3",
      "blockHash": "0x40ac6100e5425dcfd1671c1540a5345d854c3f31f0fd7057095c5a08cde37da5",
      "blockNumber": "0xf59783",
      "gasUsed": "0x215e3",
      "effectiveGasPrice": "0x5d21dba2d",
      "from": "0xefbbd14082cf2fbcf5badc7ee619f0f4e36d0a5b",
      "to": "0xf03db02273f428e685f06fd6532c70f62c2b68f8",
      "contractAddress": null
    },
    {
      "status": "0x1",
      "cumulativeGasUsed": "0x7071b",
      "logs": [
        {
          "address": "0xf03db02273f428e685f06fd6532c70f62c2b68f8",
          "topics": [
            "0xfbbd6e9cc51f124b05f08f20e9aef57fb26fc9a927be06212c59506610581335",
            "0x0000000000000000000000003c7deb6feaeb7a82bde580fb73d8d69c401b219e",
            "0x000000000000000000000000efbbd14082cf2fbcf5badc7ee619f0f4e36d0a5b"
          ],
          "data": "0x0000000000000000000000000000000000000000000000056bc75e2d631000000000000000000000000000000000000000000000000000000000000000000001",
          "blockHash": "0x40ac6100e5425dcfd1671c1540a5345d854c3f31f0fd7057095c5a08cde37da5",
          "blockNumber": "0xf59783",
          "transactionHash": "0x7cd4d83a7e744860521159438803f930ae16a8ea067eb87b657c92f460210942",
          "transactionIndex": "0x4",
          "logIndex": "0x9",
          "removed": false
        },
        {
          "address": "0x0000000000000000000000000000000000001010",
          "topics": [
            "0x4dfe1bbbcf077ddc3e01291eea2d5c70c2b422b415d95645b9adcfd678cb1d63",
            "0x0000000000000000000000000000000000000000000000000000000000001010",
            "0x000000000000000000000000efbbd14082cf2fbcf5badc7ee619f0f4e36d0a5b",
            "0x0000000000000000000000004631753190f2f5a15a7ba172bbac102b7d95fa22"
          ],
          "data": "0x000000000000000000000000000000000000000000000000000c2478932864f000000000000000000000000000000000000000000000000142c16757588cae780000000000000000000000000000000000000000000003d0b596ea1640453c2800000000000000000000000000000000000000000000000142b542dec56449880000000000000000000000000000000000000000000003d0b5a30e8ed36da118",
          "blockHash": "0x40ac6100e5425dcfd1671c1540a5345d854c3f31f0fd7057095c5a08cde37da5",
          "blockNumber": "0xf59783",
          "transactionHash": "0x7cd4d83a7e744860521159438803f930ae16a8ea067eb87b657c92f460210942",
          "transactionIndex": "0x4",
          "logIndex": "0xa",
          "removed": false
        }
      ],
      "logsBloom": "0x00000000000000000000800000000000000000002000000000800000000000000000000000000000000000000000000000008000000080000000000040000000008000000000000000002000000000800000000000000020000100000000000000001000000000500000000000000000000000000000000080000000004000000800000000000000000000000000000000000000000000000004000000000000200000000000000000000000000000000000400000000000000000000000004000000000000000000001000000000000000000000000000000100000000000000000000000000000000000000000000000000000000000000000000000100000",
      "type": "0x2",
      "transactionHash": "0x7cd4d83a7e744860521159438803f930ae16a8ea067eb87b657c92f460210942",
      "transactionIndex": "0x4",
      "blockHash": "0x40ac6100e5425dcfd1671c1540a5345d854c3f31f0fd7057095c5a08cde37da5",
      "blockNumber": "0xf59783",
      "gasUsed": "0x21608",
      "effectiveGasPrice": "0x5d21dba2d",
      "from": "0xefbbd14082cf2fbcf5badc7ee619f0f4e36d0a5b",
      "to": "0xf03db02273f428e685f06fd6532c70f62c2b68f8",
      "contractAddress": null
    }
  ],
  "libraries": [],
  "pending": [],
  "returns": {},
  "timestamp": 1735248536,
  "chain": 80002,
  "commit": "b0c6d76"
}