{
  "transactions": [
    {
      "hash": "0xffa2db8a646f5df2ea6d2cab91268762851320fce7b1469a59e185813f68fdce",
      "transactionType": "CALL",
      "contractName": null,
      "contractAddress": "0x8120a8e0688be6b2c0bb469f871e5e7023ca85eb",
      "function": "grantRole(uint64,address,uint32)",
      "arguments": [
        "1",
        "0xEFBBD14082cF2FbCf5Badc7ee619F0f4e36D0A5B",
        "0"
      ],
      "transaction": {
        "from": "0xefbbd14082cf2fbcf5badc7ee619f0f4e36d0a5b",
        "to": "0x8120a8e0688be6b2c0bb469f871e5e7023ca85eb",
        "gas": "0x13bcf",
        "value": "0x0",
        "input": "0x25c471a00000000000000000000000000000000000000000000000000000000000000001000000000000000000000000efbbd14082cf2fbcf5badc7ee619f0f4e36d0a5b0000000000000000000000000000000000000000000000000000000000000000",
        "nonce": "0x6bb",
        "chainId": "0x13882"
      },
      "additionalContracts": [],
      "isFixedGasLimit": false
    },
    {
      "hash": "0x87b2d661b838a457066a88db9d4cf4ab6deec392c220173ca5099a1b32066273",
      "transactionType": "CALL",
      "contractName": null,
      "contractAddress": "0x8120a8e0688be6b2c0bb469f871e5e7023ca85eb",
      "function": "setTargetFunctionRole(address,bytes4[],uint64)",
      "arguments": [
        "0xEd765953BDB414630d29Ebf2B149eb830B1937DB",
        "[0xecf441b7]",
        "1"
      ],
      "transaction": {
        "from": "0xefbbd14082cf2fbcf5badc7ee619f0f4e36d0a5b",
        "to": "0x8120a8e0688be6b2c0bb469f871e5e7023ca85eb",
        "gas": "0x134d0",
        "value": "0x0",
        "input": "0x08d6122d000000000000000000000000ed765953bdb414630d29ebf2b149eb830b1937db000000000000000000000000000000000000000000000000000000000000006000000000000000000000000000000000000000000000000000000000000000010000000000000000000000000000000000000000000000000000000000000001ecf441b700000000000000000000000000000000000000000000000000000000",
        "nonce": "0x6bc",
        "chainId": "0x13882"
      },
      "additionalContracts": [],
      "isFixedGasLimit": false
    },
    {
      "hash": "0x107aad6dd901c4f7f7b9e117526092028c71b3615fe5429c4f047e7d9806e949",
      "transactionType": "CALL",
      "contractName": null,
      "contractAddress": "0x8120a8e0688be6b2c0bb469f871e5e7023ca85eb",
      "function": "setTargetFunctionRole(address,bytes4[],uint64)",
      "arguments": [
        "0x8660B07ea28880846635f84e1483b6d1c4D467d2",
        "[0x06af20da]",
        "1"
      ],
      "transaction": {
        "from": "0xefbbd14082cf2fbcf5badc7ee619f0f4e36d0a5b",
        "to": "0x8120a8e0688be6b2c0bb469f871e5e7023ca85eb",
        "gas": "0x134d0",
        "value": "0x0",
        "input": "0x08d6122d0000000000000000000000008660b07ea28880846635f84e1483b6d1c4d467d200000000000000000000000000000000000000000000000000000000000000600000000000000000000000000000000000000000000000000000000000000001000000000000000000000000000000000000000000000000000000000000000106af20da00000000000000000000000000000000000000000000000000000000",
        "nonce": "0x6bd",
        "chainId": "0x13882"
      },
      "additionalContracts": [],
      "isFixedGasLimit": false
    },
    {
      "hash": "0xc8c004fc8f8d2540b911cb10be9b98ca55a5b60c59b59a5dc82467eaadc1a146",
      "transactionType": "CALL",
      "contractName": null,
      "contractAddress": "0x8120a8e0688be6b2c0bb469f871e5e7023ca85eb",
      "function": "setTargetFunctionRole(address,bytes4[],uint64)",
      "arguments": [
        "0x0E39D12D35A5153F9C208117A794AA231422a05C",
        "[0xdaea85c5, 0xab0da5a9]",
        "1"
      ],
      "transaction": {
        "from": "0xefbbd14082cf2fbcf5badc7ee619f0f4e36d0a5b",
        "to": "0x8120a8e0688be6b2c0bb469f871e5e7023ca85eb",
        "gas": "0x1b7f5",
        "value": "0x0",
        "input": "0x08d6122d0000000000000000000000000e39d12d35a5153f9c208117a794aa231422a05c000000000000000000000000000000000000000000000000000000000000006000000000000000000000000000000000000000000000000000000000000000010000000000000000000000000000000000000000000000000000000000000002daea85c500000000000000000000000000000000000000000000000000000000ab0da5a900000000000000000000000000000000000000000000000000000000",
        "nonce": "0x6be",
        "chainId": "0x13882"
      },
      "additionalContracts": [],
      "isFixedGasLimit": false
    },
    {
      "hash": "0x3d1f98faba44b9e19834d7e47c0a08b87e59e0d02df36fe2e18cfb374add5816",
      "transactionType": "CALL",
      "contractName": null,
      "contractAddress": "0x8120a8e0688be6b2c0bb469f871e5e7023ca85eb",
      "function": "setTargetFunctionRole(address,bytes4[],uint64)",
      "arguments": [
        "0xe7f59e414AfDf635CEd1C9a31953A2a8da1d9Ebb",
        "[0x20c5429b, 0xb8adaa11, 0xb759f954]",
        "1"
      ],
      "transaction": {
        "from": "0xefbbd14082cf2fbcf5badc7ee619f0f4e36d0a5b",
        "to": "0x8120a8e0688be6b2c0bb469f871e5e7023ca85eb",
        "gas": "0x23b19",
        "value": "0x0",
        "input": "0x08d6122d000000000000000000000000e7f59e414afdf635ced1c9a31953a2a8da1d9ebb00000000000000000000000000000000000000000000000000000000000000600000000000000000000000000000000000000000000000000000000000000001000000000000000000000000000000000000000000000000000000000000000320c5429b00000000000000000000000000000000000000000000000000000000b8adaa1100000000000000000000000000000000000000000000000000000000b759f95400000000000000000000000000000000000000000000000000000000",
        "nonce": "0x6bf",
        "chainId": "0x13882"
      },
      "additionalContracts": [],
      "isFixedGasLimit": false
    },
    {
      "hash": "0x3e60cfa3d6b8725f054a543c7e2ced7a34d9c28bf67c22212bd6a702613fb131",
      "transactionType": "CALL",
      "contractName": null,
      "contractAddress": "0x8120a8e0688be6b2c0bb469f871e5e7023ca85eb",
      "function": "setTargetFunctionRole(address,bytes4[],uint64)",
      "arguments": [
        "0xe88904222A5411898d2128995CD36d300964959d",
        "[0xf6eea098, 0x74a8f103, 0xdaea85c5]",
        "1"
      ],
      "transaction": {
        "from": "0xefbbd14082cf2fbcf5badc7ee619f0f4e36d0a5b",
        "to": "0x8120a8e0688be6b2c0bb469f871e5e7023ca85eb",
        "gas": "0x23b19",
        "value": "0x0",
        "input": "0x08d6122d000000000000000000000000e88904222a5411898d2128995cd36d300964959d000000000000000000000000000000000000000000000000000000000000006000000000000000000000000000000000000000000000000000000000000000010000000000000000000000000000000000000000000000000000000000000003f6eea0980000000000000000000000000000000000000000000000000000000074a8f10300000000000000000000000000000000000000000000000000000000daea85c500000000000000000000000000000000000000000000000000000000",
        "nonce": "0x6c0",
        "chainId": "0x13882"
      },
      "additionalContracts": [],
      "isFixedGasLimit": false
    },
    {
      "hash": "0xbee9916ab0e323010566748450c40691156dad21f85384fc51a0b42385b00f7c",
      "transactionType": "CALL",
      "contractName": null,
      "contractAddress": "0xed765953bdb414630d29ebf2b149eb830b1937db",
      "function": "setFees(uint8,uint256,address)",
      "arguments": [
        "2",
        "500",
        "0x3c7DeB6FeAEb7a82BDe580Fb73d8d69c401b219e"
      ],
      "transaction": {
        "from": "0xefbbd14082cf2fbcf5badc7ee619f0f4e36d0a5b",
        "to": "0xed765953bdb414630d29ebf2b149eb830b1937db",
        "gas": "0x30cce",
        "value": "0x0",
        "input": "0xecf441b7000000000000000000000000000000000000000000000000000000000000000200000000000000000000000000000000000000000000000000000000000001f40000000000000000000000003c7deb6feaeb7a82bde580fb73d8d69c401b219e",
        "nonce": "0x6c1",
        "chainId": "0x13882"
      },
      "additionalContracts": [],
      "isFixedGasLimit": false
    },
    {
      "hash": "0x324e5e3286a24f4d8224bb299eebdba1c53fcb7bfc93f882bb1affeb3237b8f1",
      "transactionType": "CALL",
      "contractName": null,
      "contractAddress": "0xed765953bdb414630d29ebf2b149eb830b1937db",
      "function": "setFees(uint8,uint256,address)",
      "arguments": [
        "1",
        "100000000000000000000",
        "0x3c7DeB6FeAEb7a82BDe580Fb73d8d69c401b219e"
      ],
      "transaction": {
        "from": "0xefbbd14082cf2fbcf5badc7ee619f0f4e36d0a5b",
        "to": "0xed765953bdb414630d29ebf2b149eb830b1937db",
        "gas": "0x2e1a0",
        "value": "0x0",
        "input": "0xecf441b700000000000000000000000000000000000000000000000000000000000000010000000000000000000000000000000000000000000000056bc75e2d631000000000000000000000000000003c7deb6feaeb7a82bde580fb73d8d69c401b219e",
        "nonce": "0x6c2",
        "chainId": "0x13882"
      },
      "additionalContracts": [],
      "isFixedGasLimit": false
    }
  ],
  "receipts": [
    {
      "status": "0x1",
      "cumulativeGasUsed": "0xe4a4",
      "logs": [
        {
          "address": "0x8120a8e0688be6b2c0bb469f871e5e7023ca85eb",
          "topics": [
            "0xf98448b987f1428e0e230e1f3c6e2ce15b5693eaf31827fbd0b1ec4b424ae7cf",
            "0x0000000000000000000000000000000000000000000000000000000000000001",
            "0x000000000000000000000000efbbd14082cf2fbcf5badc7ee619f0f4e36d0a5b"
          ],
          "data": "0x000000000000000000000000000000000000000000000000000000000000000000000000000000000000000000000000000000000000000000000000673e738d0000000000000000000000000000000000000000000000000000000000000001",
          "blockHash": "0xb0d9a6f12796ba881f23f4d3452d386e41510f6a9084dce00710c9d5ed6d7284",
          "blockNumber": "0xdfebfb",
          "transactionHash": "0xffa2db8a646f5df2ea6d2cab91268762851320fce7b1469a59e185813f68fdce",
          "transactionIndex": "0x0",
          "logIndex": "0x0",
          "removed": false
        },
        {
          "address": "0x0000000000000000000000000000000000001010",
          "topics": [
            "0x4dfe1bbbcf077ddc3e01291eea2d5c70c2b422b415d95645b9adcfd678cb1d63",
            "0x0000000000000000000000000000000000000000000000000000000000001010",
            "0x000000000000000000000000efbbd14082cf2fbcf5badc7ee619f0f4e36d0a5b",
            "0x0000000000000000000000006c095a53250dd250797ff915a716cca690ad8842"
          ],
          "data": "0x000000000000000000000000000000000000000000000000000532dd14b32800000000000000000000000000000000000000000000000000488074b3fa1781650000000000000000000000000000000000000000000000dcb372562a9cb393f4000000000000000000000000000000000000000000000000487b41d6e56459650000000000000000000000000000000000000000000000dcb3778907b166bbf4",
          "blockHash": "0xb0d9a6f12796ba881f23f4d3452d386e41510f6a9084dce00710c9d5ed6d7284",
          "blockNumber": "0xdfebfb",
          "transactionHash": "0xffa2db8a646f5df2ea6d2cab91268762851320fce7b1469a59e185813f68fdce",
          "transactionIndex": "0x0",
          "logIndex": "0x1",
          "removed": false
        }
      ],
      "logsBloom": "0x0000000000000000000000000000000000000000000000000000000000000000000000000000000000000000000000000000800000000000000000000004000000800000000000000000000000000080000000000004010000010000000000000000000000000000000000000000000000000000000004008000000000000000080000000000000040000000080000000800000000000000000000000000000020000000000000000000a000000000000000400000000008008000000000004000000000000000000001000000000000000000000000000000100000000040000000000000000000000000000000000000000000000000000000000000100000",
      "type": "0x2",
      "transactionHash": "0xffa2db8a646f5df2ea6d2cab91268762851320fce7b1469a59e185813f68fdce",
      "transactionIndex": "0x0",
      "blockHash": "0xb0d9a6f12796ba881f23f4d3452d386e41510f6a9084dce00710c9d5ed6d7284",
      "blockNumber": "0xdfebfb",
      "gasUsed": "0xe4a4",
      "effectiveGasPrice": "0x5d21dba0f",
      "from": "0xefbbd14082cf2fbcf5badc7ee619f0f4e36d0a5b",
      "to": "0x8120a8e0688be6b2c0bb469f871e5e7023ca85eb",
      "contractAddress": null
    },
    {
      "status": "0x1",
      "cumulativeGasUsed": "0x2e18f",
      "logs": [
        {
          "address": "0x8120a8e0688be6b2c0bb469f871e5e7023ca85eb",
          "topics": [
            "0x9ea6790c7dadfd01c9f8b9762b3682607af2c7e79e05a9f9fdf5580dde949151",
            "0x000000000000000000000000ed765953bdb414630d29ebf2b149eb830b1937db",
            "0x0000000000000000000000000000000000000000000000000000000000000001"
          ],
          "data": "0xecf441b700000000000000000000000000000000000000000000000000000000",
          "blockHash": "0xd42cba4229490f177002dd751454d46dc61e5889fdaaae623867425a2a178f0e",
          "blockNumber": "0xdfebfc",
          "transactionHash": "0x87b2d661b838a457066a88db9d4cf4ab6deec392c220173ca5099a1b32066273",
          "transactionIndex": "0x1",
          "logIndex": "0x5",
          "removed": false
        },
        {
          "address": "0x0000000000000000000000000000000000001010",
          "topics": [
            "0x4dfe1bbbcf077ddc3e01291eea2d5c70c2b422b415d95645b9adcfd678cb1d63",
            "0x0000000000000000000000000000000000000000000000000000000000001010",
            "0x000000000000000000000000efbbd14082cf2fbcf5badc7ee619f0f4e36d0a5b",
            "0x0000000000000000000000006c095a53250dd250797ff915a716cca690ad8842"
          ],
          "data": "0x000000000000000000000000000000000000000000000000000515655e358800000000000000000000000000000000000000000000000000487b41d6e556f3c90000000000000000000000000000000000000000000000dcb38920e33a08417400000000000000000000000000000000000000000000000048762c7187216bc90000000000000000000000000000000000000000000000dcb38e3648983dc974",
          "blockHash": "0xd42cba4229490f177002dd751454d46dc61e5889fdaaae623867425a2a178f0e",
          "blockNumber": "0xdfebfc",
          "transactionHash": "0x87b2d661b838a457066a88db9d4cf4ab6deec392c220173ca5099a1b32066273",
          "transactionIndex": "0x1",
          "logIndex": "0x6",
          "removed": false
        }
      ],
      "logsBloom": "0x00000004000080000000000000010000000000000000000000000000000000000000000000000000000800000000000000008000000000000000000000040000008000000000000000000000000400800000000000040100000100000000000000000000000000000000000000000000000000000000040080000000000000000800000000000000400000000800000000000000000000000000000000000000200000000000000000008000000000000000400000000000008000000000004000000000000000000001000000200000000000000000000000100000000040000000000000000000000000000000000000000000000000000000000000100000",
      "type": "0x2",
      "transactionHash": "0x87b2d661b838a457066a88db9d4cf4ab6deec392c220173ca5099a1b32066273",
      "transactionIndex": "0x1",
      "blockHash": "0xd42cba4229490f177002dd751454d46dc61e5889fdaaae623867425a2a178f0e",
      "blockNumber": "0xdfebfc",
      "gasUsed": "0xdf94",
      "effectiveGasPrice": "0x5d21dba0f",
      "from": "0xefbbd14082cf2fbcf5badc7ee619f0f4e36d0a5b",
      "to": "0x8120a8e0688be6b2c0bb469f871e5e7023ca85eb",
      "contractAddress": null
    },
    {
      "status": "0x1",
      "cumulativeGasUsed": "0x3c123",
      "logs": [
        {
          "address": "0x8120a8e0688be6b2c0bb469f871e5e7023ca85eb",
          "topics": [
            "0x9ea6790c7dadfd01c9f8b9762b3682607af2c7e79e05a9f9fdf5580dde949151",
            "0x0000000000000000000000008660b07ea28880846635f84e1483b6d1c4d467d2",
            "0x0000000000000000000000000000000000000000000000000000000000000001"
          ],
          "data": "0x06af20da00000000000000000000000000000000000000000000000000000000",
          "blockHash": "0xd42cba4229490f177002dd751454d46dc61e5889fdaaae623867425a2a178f0e",
          "blockNumber": "0xdfebfc",
          "transactionHash": "0x107aad6dd901c4f7f7b9e117526092028c71b3615fe5429c4f047e7d9806e949",
          "transactionIndex": "0x2",
          "logIndex": "0x7",
          "removed": false
        },
        {
          "address": "0x0000000000000000000000000000000000001010",
          "topics": [
            "0x4dfe1bbbcf077ddc3e01291eea2d5c70c2b422b415d95645b9adcfd678cb1d63",
            "0x0000000000000000000000000000000000000000000000000000000000001010",
            "0x000000000000000000000000efbbd14082cf2fbcf5badc7ee619f0f4e36d0a5b",
            "0x0000000000000000000000006c095a53250dd250797ff915a716cca690ad8842"
          ],
          "data": "0x000000000000000000000000000000000000000000000000000515655e35880000000000000000000000000000000000000000000000000048762c718714521d0000000000000000000000000000000000000000000000dcb38e3648983dc9740000000000000000000000000000000000000000000000004871170c28deca1d0000000000000000000000000000000000000000000000dcb3934badf6735174",
          "blockHash": "0xd42cba4229490f177002dd751454d46dc61e5889fdaaae623867425a2a178f0e",
          "blockNumber": "0xdfebfc",
          "transactionHash": "0x107aad6dd901c4f7f7b9e117526092028c71b3615fe5429c4f047e7d9806e949",
          "transactionIndex": "0x2",
          "logIndex": "0x8",
          "removed": false
        }
      ],
      "logsBloom": "0x00000004000080000000000000000000000000000000000000000000000000000000000000000000000000000000000000008000000000000000000000040000008000000000000000000020000008800000000000040100000100000000000000000000000000000000000000000000000000000000040080000000000000000800000000000000400000000800000000000000000000000000000000000000200000000000000000008000000000000000400000000000008000000000014000000000000000000001000000200000000000000000000000100000000040000000000000000000000000000000000000000000000000000000000000100000",
      "type": "0x2",
      "transactionHash": "0x107aad6dd901c4f7f7b9e117526092028c71b3615fe5429c4f047e7d9806e949",
      "transactionIndex": "0x2",
      "blockHash": "0xd42cba4229490f177002dd751454d46dc61e5889fdaaae623867425a2a178f0e",
      "blockNumber": "0xdfebfc",
      "gasUsed": "0xdf94",
      "effectiveGasPrice": "0x5d21dba0f",
      "from": "0xefbbd14082cf2fbcf5badc7ee619f0f4e36d0a5b",
      "to": "0x8120a8e0688be6b2c0bb469f871e5e7023ca85eb",
      "contractAddress": null
    },
    {
      "status": "0x1",
      "cumulativeGasUsed": "0x4ffa9",
      "logs": [
        {
          "address": "0x8120a8e0688be6b2c0bb469f871e5e7023ca85eb",
          "topics": [
            "0x9ea6790c7dadfd01c9f8b9762b3682607af2c7e79e05a9f9fdf5580dde949151",
            "0x0000000000000000000000000e39d12d35a5153f9c208117a794aa231422a05c",
            "0x0000000000000000000000000000000000000000000000000000000000000001"
          ],
          "data": "0xdaea85c500000000000000000000000000000000000000000000000000000000",
          "blockHash": "0xd42cba4229490f177002dd751454d46dc61e5889fdaaae623867425a2a178f0e",
          "blockNumber": "0xdfebfc",
          "transactionHash": "0xc8c004fc8f8d2540b911cb10be9b98ca55a5b60c59b59a5dc82467eaadc1a146",
          "transactionIndex": "0x3",
          "logIndex": "0x9",
          "removed": false
        },
        {
          "address": "0x8120a8e0688be6b2c0bb469f871e5e7023ca85eb",
          "topics": [
            "0x9ea6790c7dadfd01c9f8b9762b3682607af2c7e79e05a9f9fdf5580dde949151",
            "0x0000000000000000000000000e39d12d35a5153f9c208117a794aa231422a05c",
            "0x0000000000000000000000000000000000000000000000000000000000000001"
          ],
          "data": "0xab0da5a900000000000000000000000000000000000000000000000000000000",
          "blockHash": "0xd42cba4229490f177002dd751454d46dc61e5889fdaaae623867425a2a178f0e",
          "blockNumber": "0xdfebfc",
          "transactionHash": "0xc8c004fc8f8d2540b911cb10be9b98ca55a5b60c59b59a5dc82467eaadc1a146",
          "transactionIndex": "0x3",
          "logIndex": "0xa",
          "removed": false
        },
        {
          "address": "0x0000000000000000000000000000000000001010",
          "topics": [
            "0x4dfe1bbbcf077ddc3e01291eea2d5c70c2b422b415d95645b9adcfd678cb1d63",
            "0x0000000000000000000000000000000000000000000000000000000000001010",
            "0x000000000000000000000000efbbd14082cf2fbcf5badc7ee619f0f4e36d0a5b",
            "0x0000000000000000000000006c095a53250dd250797ff915a716cca690ad8842"
          ],
          "data": "0x00000000000000000000000000000000000000000000000000073e0ce89b5c000000000000000000000000000000000000000000000000004871170c28d1b0710000000000000000000000000000000000000000000000dcb3934badf67351740000000000000000000000000000000000000000000000004869d8ff403654710000000000000000000000000000000000000000000000dcb39a89badf0ead74",
          "blockHash": "0xd42cba4229490f177002dd751454d46dc61e5889fdaaae623867425a2a178f0e",
          "blockNumber": "0xdfebfc",
          "transactionHash": "0xc8c004fc8f8d2540b911cb10be9b98ca55a5b60c59b59a5dc82467eaadc1a146",
          "transactionIndex": "0x3",
          "logIndex": "0xb",
          "removed": false
        }
      ],
      "logsBloom": "0x00000004000080000000000000000000000000000000000000000000000000000000000008000000000000000000000000008000000000000000000020040000008000000000000000000000000000800000000000040100000100000000000000000000000000000000000000000000000000000000040080000000000000000800000000000000400000000800000000000000000000000000000000000000200000000000000000008000000000000000400000000000008000000000004000000000000000000001000000200000000000000000000000100000000040000000200000000000000000000000000000000000000000000000000000100000",
      "type": "0x2",
      "transactionHash": "0xc8c004fc8f8d2540b911cb10be9b98ca55a5b60c59b59a5dc82467eaadc1a146",
      "transactionIndex": "0x3",
      "blockHash": "0xd42cba4229490f177002dd751454d46dc61e5889fdaaae623867425a2a178f0e",
      "blockNumber": "0xdfebfc",
      "gasUsed": "0x13e86",
      "effectiveGasPrice": "0x5d21dba0f",
      "from": "0xefbbd14082cf2fbcf5badc7ee619f0f4e36d0a5b",
      "to": "0x8120a8e0688be6b2c0bb469f871e5e7023ca85eb",
      "contractAddress": null
    },
    {
      "status": "0x1",
      "cumulativeGasUsed": "0x69d21",
      "logs": [
        {
          "address": "0x8120a8e0688be6b2c0bb469f871e5e7023ca85eb",
          "topics": [
            "0x9ea6790c7dadfd01c9f8b9762b3682607af2c7e79e05a9f9fdf5580dde949151",
            "0x000000000000000000000000e7f59e414afdf635ced1c9a31953a2a8da1d9ebb",
            "0x0000000000000000000000000000000000000000000000000000000000000001"
          ],
          "data": "0x20c5429b00000000000000000000000000000000000000000000000000000000",
          "blockHash": "0xd42cba4229490f177002dd751454d46dc61e5889fdaaae623867425a2a178f0e",
          "blockNumber": "0xdfebfc",
          "transactionHash": "0x3d1f98faba44b9e19834d7e47c0a08b87e59e0d02df36fe2e18cfb374add5816",
          "transactionIndex": "0x4",
          "logIndex": "0xc",
          "removed": false
        },
        {
          "address": "0x8120a8e0688be6b2c0bb469f871e5e7023ca85eb",
          "topics": [
            "0x9ea6790c7dadfd01c9f8b9762b3682607af2c7e79e05a9f9fdf5580dde949151",
            "0x000000000000000000000000e7f59e414afdf635ced1c9a31953a2a8da1d9ebb",
            "0x0000000000000000000000000000000000000000000000000000000000000001"
          ],
          "data": "0xb8adaa1100000000000000000000000000000000000000000000000000000000",
          "blockHash": "0xd42cba4229490f177002dd751454d46dc61e5889fdaaae623867425a2a178f0e",
          "blockNumber": "0xdfebfc",
          "transactionHash": "0x3d1f98faba44b9e19834d7e47c0a08b87e59e0d02df36fe2e18cfb374add5816",
          "transactionIndex": "0x4",
          "logIndex": "0xd",
          "removed": false
        },
        {
          "address": "0x8120a8e0688be6b2c0bb469f871e5e7023ca85eb",
          "topics": [
            "0x9ea6790c7dadfd01c9f8b9762b3682607af2c7e79e05a9f9fdf5580dde949151",
            "0x000000000000000000000000e7f59e414afdf635ced1c9a31953a2a8da1d9ebb",
            "0x0000000000000000000000000000000000000000000000000000000000000001"
          ],
          "data": "0xb759f95400000000000000000000000000000000000000000000000000000000",
          "blockHash": "0xd42cba4229490f177002dd751454d46dc61e5889fdaaae623867425a2a178f0e",
          "blockNumber": "0xdfebfc",
          "transactionHash": "0x3d1f98faba44b9e19834d7e47c0a08b87e59e0d02df36fe2e18cfb374add5816",
          "transactionIndex": "0x4",
          "logIndex": "0xe",
          "removed": false
        },
        {
          "address": "0x0000000000000000000000000000000000001010",
          "topics": [
            "0x4dfe1bbbcf077ddc3e01291eea2d5c70c2b422b415d95645b9adcfd678cb1d63",
            "0x0000000000000000000000000000000000000000000000000000000000001010",
            "0x000000000000000000000000efbbd14082cf2fbcf5badc7ee619f0f4e36d0a5b",
            "0x0000000000000000000000006c095a53250dd250797ff915a716cca690ad8842"
          ],
          "data": "0x000000000000000000000000000000000000000000000000000966b4730130000000000000000000000000000000000000000000000000004869d8ff4023aa970000000000000000000000000000000000000000000000dcb39a89badf0ead740000000000000000000000000000000000000000000000004860724acd227a970000000000000000000000000000000000000000000000dcb3a3f06f520fdd74",
          "blockHash": "0xd42cba4229490f177002dd751454d46dc61e5889fdaaae623867425a2a178f0e",
          "blockNumber": "0xdfebfc",
          "transactionHash": "0x3d1f98faba44b9e19834d7e47c0a08b87e59e0d02df36fe2e18cfb374add5816",
          "transactionIndex": "0x4",
          "logIndex": "0xf",
          "removed": false
        }
      ],
      "logsBloom": "0x00000004000080000000000000000000000000000000000000000000000000000000000000000000000000000000000000008000000000000000000000040000008000000000000000000000000000800000000000040100000100000000000000000000000000000000000000000000000000000000040081000000000000000800000000000000400000000800000000000000000000000000000000004000200000000000000000008020000000000000400000000000008000000000004000000000000000000001000000200000000000000000000000100000000040000000000000000000000000000000000000000000000000000000000000100000",
      "type": "0x2",
      "transactionHash": "0x3d1f98faba44b9e19834d7e47c0a08b87e59e0d02df36fe2e18cfb374add5816",
      "transactionIndex": "0x4",
      "blockHash": "0xd42cba4229490f177002dd751454d46dc61e5889fdaaae623867425a2a178f0e",
      "blockNumber": "0xdfebfc",
      "gasUsed": "0x19d78",
      "effectiveGasPrice": "0x5d21dba0f",
      "from": "0xefbbd14082cf2fbcf5badc7ee619f0f4e36d0a5b",
      "to": "0x8120a8e0688be6b2c0bb469f871e5e7023ca85eb",
      "contractAddress": null
    },
    {
      "status": "0x1",
      "cumulativeGasUsed": "0x83a99",
      "logs": [
        {
          "address": "0x8120a8e0688be6b2c0bb469f871e5e7023ca85eb",
          "topics": [
            "0x9ea6790c7dadfd01c9f8b9762b3682607af2c7e79e05a9f9fdf5580dde949151",
            "0x000000000000000000000000e88904222a5411898d2128995cd36d300964959d",
            "0x0000000000000000000000000000000000000000000000000000000000000001"
          ],
          "data": "0xf6eea09800000000000000000000000000000000000000000000000000000000",
          "blockHash": "0xd42cba4229490f177002dd751454d46dc61e5889fdaaae623867425a2a178f0e",
          "blockNumber": "0xdfebfc",
          "transactionHash": "0x3e60cfa3d6b8725f054a543c7e2ced7a34d9c28bf67c22212bd6a702613fb131",
          "transactionIndex": "0x5",
          "logIndex": "0x10",
          "removed": false
        },
        {
          "address": "0x8120a8e0688be6b2c0bb469f871e5e7023ca85eb",
          "topics": [
            "0x9ea6790c7dadfd01c9f8b9762b3682607af2c7e79e05a9f9fdf5580dde949151",
            "0x000000000000000000000000e88904222a5411898d2128995cd36d300964959d",
            "0x0000000000000000000000000000000000000000000000000000000000000001"
          ],
          "data": "0x74a8f10300000000000000000000000000000000000000000000000000000000",
          "blockHash": "0xd42cba4229490f177002dd751454d46dc61e5889fdaaae623867425a2a178f0e",
          "blockNumber": "0xdfebfc",
          "transactionHash": "0x3e60cfa3d6b8725f054a543c7e2ced7a34d9c28bf67c22212bd6a702613fb131",
          "transactionIndex": "0x5",
          "logIndex": "0x11",
          "removed": false
        },
        {
          "address": "0x8120a8e0688be6b2c0bb469f871e5e7023ca85eb",
          "topics": [
            "0x9ea6790c7dadfd01c9f8b9762b3682607af2c7e79e05a9f9fdf5580dde949151",
            "0x000000000000000000000000e88904222a5411898d2128995cd36d300964959d",
            "0x0000000000000000000000000000000000000000000000000000000000000001"
          ],
          "data": "0xdaea85c500000000000000000000000000000000000000000000000000000000",
          "blockHash": "0xd42cba4229490f177002dd751454d46dc61e5889fdaaae623867425a2a178f0e",
          "blockNumber": "0xdfebfc",
          "transactionHash": "0x3e60cfa3d6b8725f054a543c7e2ced7a34d9c28bf67c22212bd6a702613fb131",
          "transactionIndex": "0x5",
          "logIndex": "0x12",
          "removed": false
        },
        {
          "address": "0x0000000000000000000000000000000000001010",
          "topics": [
            "0x4dfe1bbbcf077ddc3e01291eea2d5c70c2b422b415d95645b9adcfd678cb1d63",
            "0x0000000000000000000000000000000000000000000000000000000000001010",
            "0x000000000000000000000000efbbd14082cf2fbcf5badc7ee619f0f4e36d0a5b",
            "0x0000000000000000000000006c095a53250dd250797ff915a716cca690ad8842"
          ],
          "data": "0x000000000000000000000000000000000000000000000000000966b4730130000000000000000000000000000000000000000000000000004860724acd0a408f0000000000000000000000000000000000000000000000dcb3a3f06f520fdd7400000000000000000000000000000000000000000000000048570b965a09108f0000000000000000000000000000000000000000000000dcb3ad5723c5110d74",
          "blockHash": "0xd42cba4229490f177002dd751454d46dc61e5889fdaaae623867425a2a178f0e",
          "blockNumber": "0xdfebfc",
          "transactionHash": "0x3e60cfa3d6b8725f054a543c7e2ced7a34d9c28bf67c22212bd6a702613fb131",
          "transactionIndex": "0x5",
          "logIndex": "0x13",
          "removed": false
        }
      ],
      "logsBloom": "0x00008004000080000000000000000000000000000000000000000000000000000000000000000000000000000000000000008000000000000000000000040000008000000000000000000000000000800000000000040100000100000000000000000000100000000000000000000000000000000000040080000000000000000800000000000000400000000800000000000000000000000000000000000000200000000000000000008000000000000000400000000000008000000000004000000000000000000001008000200000000000000000000000100000000040000000000000000000000000000000000000000000000000000000000000100000",
      "type": "0x2",
      "transactionHash": "0x3e60cfa3d6b8725f054a543c7e2ced7a34d9c28bf67c22212bd6a702613fb131",
      "transactionIndex": "0x5",
      "blockHash": "0xd42cba4229490f177002dd751454d46dc61e5889fdaaae623867425a2a178f0e",
      "blockNumber": "0xdfebfc",
      "gasUsed": "0x19d78",
      "effectiveGasPrice": "0x5d21dba0f",
      "from": "0xefbbd14082cf2fbcf5badc7ee619f0f4e36d0a5b",
      "to": "0x8120a8e0688be6b2c0bb469f871e5e7023ca85eb",
      "contractAddress": null
    },
    {
      "status": "0x1",
      "cumulativeGasUsed": "0xa507c",
      "logs": [
        {
          "address": "0xed765953bdb414630d29ebf2b149eb830b1937db",
          "topics": [
            "0xfbbd6e9cc51f124b05f08f20e9aef57fb26fc9a927be06212c59506610581335",
            "0x0000000000000000000000003c7deb6feaeb7a82bde580fb73d8d69c401b219e",
            "0x000000000000000000000000efbbd14082cf2fbcf5badc7ee619f0f4e36d0a5b"
          ],
          "data": "0x00000000000000000000000000000000000000000000000000000000000001f40000000000000000000000000000000000000000000000000000000000000002",
          "blockHash": "0xd42cba4229490f177002dd751454d46dc61e5889fdaaae623867425a2a178f0e",
          "blockNumber": "0xdfebfc",
          "transactionHash": "0xbee9916ab0e323010566748450c40691156dad21f85384fc51a0b42385b00f7c",
          "transactionIndex": "0x6",
          "logIndex": "0x14",
          "removed": false
        },
        {
          "address": "0x0000000000000000000000000000000000001010",
          "topics": [
            "0x4dfe1bbbcf077ddc3e01291eea2d5c70c2b422b415d95645b9adcfd678cb1d63",
            "0x0000000000000000000000000000000000000000000000000000000000001010",
            "0x000000000000000000000000efbbd14082cf2fbcf5badc7ee619f0f4e36d0a5b",
            "0x0000000000000000000000006c095a53250dd250797ff915a716cca690ad8842"
          ],
          "data": "0x000000000000000000000000000000000000000000000000000c23a1349dee0000000000000000000000000000000000000000000000000048570b9659f0d6870000000000000000000000000000000000000000000000dcb3ad5723c5110d74000000000000000000000000000000000000000000000000484ae7f52552e8870000000000000000000000000000000000000000000000dcb3b97ac4f9aefb74",
          "blockHash": "0xd42cba4229490f177002dd751454d46dc61e5889fdaaae623867425a2a178f0e",
          "blockNumber": "0xdfebfc",
          "transactionHash": "0xbee9916ab0e323010566748450c40691156dad21f85384fc51a0b42385b00f7c",
          "transactionIndex": "0x6",
          "logIndex": "0x15",
          "removed": false
        }
      ],
      "logsBloom": "0x00000000000000000000800000000000000000000000000000800000000000000000000000000000000000000000000000008000000000000000000000000000008000000000000000000000000000800000000000000020000100000000000000001000000000c00000000000000000000100000000040080000000004000000800000000000000400000000000000000001000000000000000000000000000200000000000000000008000000000000000400000000000000000000000004000000000000000000001000000000000000000000000000000100000000000000000000000000000000000000000000000000000000000000000000000100000",
      "type": "0x2",
      "transactionHash": "0xbee9916ab0e323010566748450c40691156dad21f85384fc51a0b42385b00f7c",
      "transactionIndex": "0x6",
      "blockHash": "0xd42cba4229490f177002dd751454d46dc61e5889fdaaae623867425a2a178f0e",
      "blockNumber": "0xdfebfc",
      "gasUsed": "0x215e3",
      "effectiveGasPrice": "0x5d21dba0f",
      "from": "0xefbbd14082cf2fbcf5badc7ee619f0f4e36d0a5b",
      "to": "0xed765953bdb414630d29ebf2b149eb830b1937db",
      "contractAddress": null
    },
    {
      "status": "0x1",
      "cumulativeGasUsed": "0xc6684",
      "logs": [
        {
          "address": "0xed765953bdb414630d29ebf2b149eb830b1937db",
          "topics": [
            "0xfbbd6e9cc51f124b05f08f20e9aef57fb26fc9a927be06212c59506610581335",
            "0x0000000000000000000000003c7deb6feaeb7a82bde580fb73d8d69c401b219e",
            "0x000000000000000000000000efbbd14082cf2fbcf5badc7ee619f0f4e36d0a5b"
          ],
          "data": "0x0000000000000000000000000000000000000000000000056bc75e2d631000000000000000000000000000000000000000000000000000000000000000000001",
          "blockHash": "0xd42cba4229490f177002dd751454d46dc61e5889fdaaae623867425a2a178f0e",
          "blockNumber": "0xdfebfc",
          "transactionHash": "0x324e5e3286a24f4d8224bb299eebdba1c53fcb7bfc93f882bb1affeb3237b8f1",
          "transactionIndex": "0x7",
          "logIndex": "0x16",
          "removed": false
        },
        {
          "address": "0x0000000000000000000000000000000000001010",
          "topics": [
            "0x4dfe1bbbcf077ddc3e01291eea2d5c70c2b422b415d95645b9adcfd678cb1d63",
            "0x0000000000000000000000000000000000000000000000000000000000001010",
            "0x000000000000000000000000efbbd14082cf2fbcf5badc7ee619f0f4e36d0a5b",
            "0x0000000000000000000000006c095a53250dd250797ff915a716cca690ad8842"
          ],
          "data": "0x000000000000000000000000000000000000000000000000000c247892e9d000000000000000000000000000000000000000000000000000484ae7f52533a03a0000000000000000000000000000000000000000000000dcb3b97ac4f9aefb74000000000000000000000000000000000000000000000000483ec37c9249d03a0000000000000000000000000000000000000000000000dcb3c59f3d8c98cb74",
          "blockHash": "0xd42cba4229490f177002dd751454d46dc61e5889fdaaae623867425a2a178f0e",
          "blockNumber": "0xdfebfc",
          "transactionHash": "0x324e5e3286a24f4d8224bb299eebdba1c53fcb7bfc93f882bb1affeb3237b8f1",
          "transactionIndex": "0x7",
          "logIndex": "0x17",
          "removed": false
        }
      ],
      "logsBloom": "0x00000000000000000000800000000000000000000000000000800000000000000000000000000000000000000000000000008000000000000000000000000000008000000000000000000000000000800000000000000020000100000000000000001000000000c00000000000000000000100000000040080000000004000000800000000000000400000000000000000001000000000000000000000000000200000000000000000008000000000000000400000000000000000000000004000000000000000000001000000000000000000000000000000100000000000000000000000000000000000000000000000000000000000000000000000100000",
      "type": "0x2",
      "transactionHash": "0x324e5e3286a24f4d8224bb299eebdba1c53fcb7bfc93f882bb1affeb3237b8f1",
      "transactionIndex": "0x7",
      "blockHash": "0xd42cba4229490f177002dd751454d46dc61e5889fdaaae623867425a2a178f0e",
      "blockNumber": "0xdfebfc",
      "gasUsed": "0x21608",
      "effectiveGasPrice": "0x5d21dba0f",
      "from": "0xefbbd14082cf2fbcf5badc7ee619f0f4e36d0a5b",
      "to": "0xed765953bdb414630d29ebf2b149eb830b1937db",
      "contractAddress": null
    }
  ],
  "libraries": [],
  "pending": [],
  "returns": {},
  "timestamp": 1732146064,
  "chain": 80002,
  "commit": "7027805"
}