{
  "transactions": [
    {
      "hash": "0x27c17581c52f8640d9facbd468577037d7cfe9b40b1d1bbf10990555a6ee0da5",
      "transactionType": "CALL",
      "contractName": null,
      "contractAddress": "0x153dd810703687be7a516888728aaa54aba049d4",
      "function": "grantRole(uint64,address,uint32)",
      "arguments": [
        "1",
        "0xEFBBD14082cF2FbCf5Badc7ee619F0f4e36D0A5B",
        "0"
      ],
      "transaction": {
        "from": "0xefbbd14082cf2fbcf5badc7ee619f0f4e36d0a5b",
        "to": "0x153dd810703687be7a516888728aaa54aba049d4",
        "gas": "0x13bcf",
        "value": "0x0",
        "input": "0x25c471a00000000000000000000000000000000000000000000000000000000000000001000000000000000000000000efbbd14082cf2fbcf5badc7ee619f0f4e36d0a5b0000000000000000000000000000000000000000000000000000000000000000",
        "nonce": "0x5c5",
        "chainId": "0x13882"
      },
      "additionalContracts": [],
      "isFixedGasLimit": false
    },
    {
      "hash": "0xe5eed64d02e7e83bced9d0fd0bc8c637ee17cd84a8ce30a9aae8e1ba0e4c14a6",
      "transactionType": "CALL",
      "contractName": null,
      "contractAddress": "0x153dd810703687be7a516888728aaa54aba049d4",
      "function": "setTargetFunctionRole(address,bytes4[],uint64)",
      "arguments": [
        "0x9CeA2791027696BB07fE7510eAE5dC72AE3070Fc",
        "[0xecf441b7]",
        "1"
      ],
      "transaction": {
        "from": "0xefbbd14082cf2fbcf5badc7ee619f0f4e36d0a5b",
        "to": "0x153dd810703687be7a516888728aaa54aba049d4",
        "gas": "0x134d0",
        "value": "0x0",
        "input": "0x08d6122d0000000000000000000000009cea2791027696bb07fe7510eae5dc72ae3070fc000000000000000000000000000000000000000000000000000000000000006000000000000000000000000000000000000000000000000000000000000000010000000000000000000000000000000000000000000000000000000000000001ecf441b700000000000000000000000000000000000000000000000000000000",
        "nonce": "0x5c6",
        "chainId": "0x13882"
      },
      "additionalContracts": [],
      "isFixedGasLimit": false
    },
    {
      "hash": "0xd199dd48b490d0e58cab2934c94c1dd26d80c2be2d4947511b85701880c7e8a8",
      "transactionType": "CALL",
      "contractName": null,
      "contractAddress": "0x153dd810703687be7a516888728aaa54aba049d4",
      "function": "setTargetFunctionRole(address,bytes4[],uint64)",
      "arguments": [
        "0x93A3c701505A47e8B41C9e8Be21Cfe92D2247390",
        "[0x06af20da]",
        "1"
      ],
      "transaction": {
        "from": "0xefbbd14082cf2fbcf5badc7ee619f0f4e36d0a5b",
        "to": "0x153dd810703687be7a516888728aaa54aba049d4",
        "gas": "0x134d0",
        "value": "0x0",
        "input": "0x08d6122d00000000000000000000000093a3c701505a47e8b41c9e8be21cfe92d224739000000000000000000000000000000000000000000000000000000000000000600000000000000000000000000000000000000000000000000000000000000001000000000000000000000000000000000000000000000000000000000000000106af20da00000000000000000000000000000000000000000000000000000000",
        "nonce": "0x5c7",
        "chainId": "0x13882"
      },
      "additionalContracts": [],
      "isFixedGasLimit": false
    },
    {
      "hash": "0x4098a1c617243ba89202ae929d0edcd88a945ca806d8f3b3107548a75e07f3c9",
      "transactionType": "CALL",
      "contractName": null,
      "contractAddress": "0x153dd810703687be7a516888728aaa54aba049d4",
      "function": "setTargetFunctionRole(address,bytes4[],uint64)",
      "arguments": [
        "0xe39913753a1b3aC274f5E857F675fA5D7cAB8D86",
        "[0xdaea85c5, 0xab0da5a9]",
        "1"
      ],
      "transaction": {
        "from": "0xefbbd14082cf2fbcf5badc7ee619f0f4e36d0a5b",
        "to": "0x153dd810703687be7a516888728aaa54aba049d4",
        "gas": "0x1b7f5",
        "value": "0x0",
        "input": "0x08d6122d000000000000000000000000e39913753a1b3ac274f5e857f675fa5d7cab8d86000000000000000000000000000000000000000000000000000000000000006000000000000000000000000000000000000000000000000000000000000000010000000000000000000000000000000000000000000000000000000000000002daea85c500000000000000000000000000000000000000000000000000000000ab0da5a900000000000000000000000000000000000000000000000000000000",
        "nonce": "0x5c8",
        "chainId": "0x13882"
      },
      "additionalContracts": [],
      "isFixedGasLimit": false
    },
    {
      "hash": "0x34eb3a980e06a262cf1282c2b7b09f50c8da10541a7682cbbe62c9e2a949008d",
      "transactionType": "CALL",
      "contractName": null,
      "contractAddress": "0x153dd810703687be7a516888728aaa54aba049d4",
      "function": "setTargetFunctionRole(address,bytes4[],uint64)",
      "arguments": [
        "0x1C6A0442C017978cF5795A04F96c89aEf72719D0",
        "[0x20c5429b, 0xb8adaa11, 0xb759f954]",
        "1"
      ],
      "transaction": {
        "from": "0xefbbd14082cf2fbcf5badc7ee619f0f4e36d0a5b",
        "to": "0x153dd810703687be7a516888728aaa54aba049d4",
        "gas": "0x23b19",
        "value": "0x0",
        "input": "0x08d6122d0000000000000000000000001c6a0442c017978cf5795a04f96c89aef72719d000000000000000000000000000000000000000000000000000000000000000600000000000000000000000000000000000000000000000000000000000000001000000000000000000000000000000000000000000000000000000000000000320c5429b00000000000000000000000000000000000000000000000000000000b8adaa1100000000000000000000000000000000000000000000000000000000b759f95400000000000000000000000000000000000000000000000000000000",
        "nonce": "0x5c9",
        "chainId": "0x13882"
      },
      "additionalContracts": [],
      "isFixedGasLimit": false
    },
    {
      "hash": "0x116402c96fd01651cf426025261f70822b4e60f7ab63d6c2d28052800287ebc3",
      "transactionType": "CALL",
      "contractName": null,
      "contractAddress": "0x153dd810703687be7a516888728aaa54aba049d4",
      "function": "setTargetFunctionRole(address,bytes4[],uint64)",
      "arguments": [
        "0x0D3450Ce1Cd2e307aba78Aba8f09eb15E8A4FF73",
        "[0xf6eea098, 0x74a8f103, 0xdaea85c5]",
        "1"
      ],
      "transaction": {
        "from": "0xefbbd14082cf2fbcf5badc7ee619f0f4e36d0a5b",
        "to": "0x153dd810703687be7a516888728aaa54aba049d4",
        "gas": "0x23b19",
        "value": "0x0",
        "input": "0x08d6122d0000000000000000000000000d3450ce1cd2e307aba78aba8f09eb15e8a4ff73000000000000000000000000000000000000000000000000000000000000006000000000000000000000000000000000000000000000000000000000000000010000000000000000000000000000000000000000000000000000000000000003f6eea0980000000000000000000000000000000000000000000000000000000074a8f10300000000000000000000000000000000000000000000000000000000daea85c500000000000000000000000000000000000000000000000000000000",
        "nonce": "0x5ca",
        "chainId": "0x13882"
      },
      "additionalContracts": [],
      "isFixedGasLimit": false
    },
    {
      "hash": "0xb5ae356de11dea14d6213a85fa2ad13bacd72d32e2e75e732b1556dc53f6fa99",
      "transactionType": "CALL",
      "contractName": null,
      "contractAddress": "0x9cea2791027696bb07fe7510eae5dc72ae3070fc",
      "function": "setFees(uint8,uint256,address)",
      "arguments": [
        "2",
        "500",
        "0x163AAd81AA11f5bb1eb7a7c68e80b60db3432Ef2"
      ],
      "transaction": {
        "from": "0xefbbd14082cf2fbcf5badc7ee619f0f4e36d0a5b",
        "to": "0x9cea2791027696bb07fe7510eae5dc72ae3070fc",
        "gas": "0x30cce",
        "value": "0x0",
        "input": "0xecf441b7000000000000000000000000000000000000000000000000000000000000000200000000000000000000000000000000000000000000000000000000000001f4000000000000000000000000163aad81aa11f5bb1eb7a7c68e80b60db3432ef2",
        "nonce": "0x5cb",
        "chainId": "0x13882"
      },
      "additionalContracts": [],
      "isFixedGasLimit": false
    },
    {
      "hash": "0x70de0f3619021921528f212c702c93fd84e30327de7fb5c354a2079573a467f6",
      "transactionType": "CALL",
      "contractName": null,
      "contractAddress": "0x9cea2791027696bb07fe7510eae5dc72ae3070fc",
      "function": "setFees(uint8,uint256,address)",
      "arguments": [
        "1",
        "100000000000000000000",
        "0x163AAd81AA11f5bb1eb7a7c68e80b60db3432Ef2"
      ],
      "transaction": {
        "from": "0xefbbd14082cf2fbcf5badc7ee619f0f4e36d0a5b",
        "to": "0x9cea2791027696bb07fe7510eae5dc72ae3070fc",
        "gas": "0x2e1a0",
        "value": "0x0",
        "input": "0xecf441b700000000000000000000000000000000000000000000000000000000000000010000000000000000000000000000000000000000000000056bc75e2d63100000000000000000000000000000163aad81aa11f5bb1eb7a7c68e80b60db3432ef2",
        "nonce": "0x5cc",
        "chainId": "0x13882"
      },
      "additionalContracts": [],
      "isFixedGasLimit": false
    }
  ],
  "receipts": [
    {
      "status": "0x1",
      "cumulativeGasUsed": "0x5723e",
      "logs": [
        {
          "address": "0x153dd810703687be7a516888728aaa54aba049d4",
          "topics": [
            "0xf98448b987f1428e0e230e1f3c6e2ce15b5693eaf31827fbd0b1ec4b424ae7cf",
            "0x0000000000000000000000000000000000000000000000000000000000000001",
            "0x000000000000000000000000efbbd14082cf2fbcf5badc7ee619f0f4e36d0a5b"
          ],
          "data": "0x00000000000000000000000000000000000000000000000000000000000000000000000000000000000000000000000000000000000000000000000067375c440000000000000000000000000000000000000000000000000000000000000001",
          "blockHash": "0x7db3451c090b94fd7c018850dbd53cb79a78fdd01b3a47200a4c665d7ce7a424",
          "blockNumber": "0xdca470",
          "transactionHash": "0x27c17581c52f8640d9facbd468577037d7cfe9b40b1d1bbf10990555a6ee0da5",
          "transactionIndex": "0x3",
          "logIndex": "0x7",
          "removed": false
        },
        {
          "address": "0x0000000000000000000000000000000000001010",
          "topics": [
            "0x4dfe1bbbcf077ddc3e01291eea2d5c70c2b422b415d95645b9adcfd678cb1d63",
            "0x0000000000000000000000000000000000000000000000000000000000001010",
            "0x000000000000000000000000efbbd14082cf2fbcf5badc7ee619f0f4e36d0a5b",
            "0x00000000000000000000000009207a6efee346cb3e4a54ac18523e3715d38b3f"
          ],
          "data": "0x000000000000000000000000000000000000000000000000000c63c54b4980780000000000000000000000000000000000000000000000002143015e48f75e480000000000000000000000000000000000000000000003c27f18e9ddcfa9fb3000000000000000000000000000000000000000000000000021369d98fdadddd00000000000000000000000000000000000000000000003c27f254da31af37ba8",
          "blockHash": "0x7db3451c090b94fd7c018850dbd53cb79a78fdd01b3a47200a4c665d7ce7a424",
          "blockNumber": "0xdca470",
          "transactionHash": "0x27c17581c52f8640d9facbd468577037d7cfe9b40b1d1bbf10990555a6ee0da5",
          "transactionIndex": "0x3",
          "logIndex": "0x8",
          "removed": false
        }
      ],
      "logsBloom": "0x00000000000000000000000000000000000000000000000000000000000000000000000000000000000000000000000000008000000000000000010000040000008000000000000000000000020000800000000000040000000100000000000000000000000000010000000000000000000000000000000080000000000000000800000000000000000000000000000008004000000000000000000000000000200000000000400000002000000000000000400000000008000000000000004000000000000000000001000000000000000000000000000000100000000040000000000000000000000000010000000000000000000000000000000000100000",
      "type": "0x2",
      "transactionHash": "0x27c17581c52f8640d9facbd468577037d7cfe9b40b1d1bbf10990555a6ee0da5",
      "transactionIndex": "0x3",
      "blockHash": "0x7db3451c090b94fd7c018850dbd53cb79a78fdd01b3a47200a4c665d7ce7a424",
      "blockNumber": "0xdca470",
      "gasUsed": "0xe4a4",
      "effectiveGasPrice": "0xddf4edcfd",
      "from": "0xefbbd14082cf2fbcf5badc7ee619f0f4e36d0a5b",
      "to": "0x153dd810703687be7a516888728aaa54aba049d4",
      "contractAddress": null
    },
    {
      "status": "0x1",
      "cumulativeGasUsed": "0x310a5",
      "logs": [
        {
          "address": "0x153dd810703687be7a516888728aaa54aba049d4",
          "topics": [
            "0x9ea6790c7dadfd01c9f8b9762b3682607af2c7e79e05a9f9fdf5580dde949151",
            "0x0000000000000000000000009cea2791027696bb07fe7510eae5dc72ae3070fc",
            "0x0000000000000000000000000000000000000000000000000000000000000001"
          ],
          "data": "0xecf441b700000000000000000000000000000000000000000000000000000000",
          "blockHash": "0x415fd735fcd7331c89b6516294542a8c8d8194b6a9f0a28d7887b2c48615bcc7",
          "blockNumber": "0xdca472",
          "transactionHash": "0xe5eed64d02e7e83bced9d0fd0bc8c637ee17cd84a8ce30a9aae8e1ba0e4c14a6",
          "transactionIndex": "0x2",
          "logIndex": "0x5",
          "removed": false
        },
        {
          "address": "0x0000000000000000000000000000000000001010",
          "topics": [
            "0x4dfe1bbbcf077ddc3e01291eea2d5c70c2b422b415d95645b9adcfd678cb1d63",
            "0x0000000000000000000000000000000000000000000000000000000000001010",
            "0x000000000000000000000000efbbd14082cf2fbcf5badc7ee619f0f4e36d0a5b",
            "0x00000000000000000000000009207a6efee346cb3e4a54ac18523e3715d38b3f"
          ],
          "data": "0x000000000000000000000000000000000000000000000000000c1d8acc0b0b9800000000000000000000000000000000000000000000000021369d98fda078340000000000000000000000000000000000000000000003c27f99b15fb96942c2000000000000000000000000000000000000000000000000212a800e31956c9c0000000000000000000000000000000000000000000003c27fa5ceea85744e5a",
          "blockHash": "0x415fd735fcd7331c89b6516294542a8c8d8194b6a9f0a28d7887b2c48615bcc7",
          "blockNumber": "0xdca472",
          "transactionHash": "0xe5eed64d02e7e83bced9d0fd0bc8c637ee17cd84a8ce30a9aae8e1ba0e4c14a6",
          "transactionIndex": "0x2",
          "logIndex": "0x6",
          "removed": false
        }
      ],
      "logsBloom": "0x00000004000080000000000000000000000000000000000000000000000000000000000000000000000000000000000000008000000000000000010000040000008000000000000000000000020000800000000000040000000100000000000000001000000000010000000000000000000000008000000080000000000000000800000000000000000000000000000000004000000000000000000000000000200000000000400000000000000000000000400000000000000000000000004000000000000000000101000000200000000000000000000000100000000040000000000000000000000000010000000000000000000000000000000000100000",
      "type": "0x2",
      "transactionHash": "0xe5eed64d02e7e83bced9d0fd0bc8c637ee17cd84a8ce30a9aae8e1ba0e4c14a6",
      "transactionIndex": "0x2",
      "blockHash": "0x415fd735fcd7331c89b6516294542a8c8d8194b6a9f0a28d7887b2c48615bcc7",
      "blockNumber": "0xdca472",
      "gasUsed": "0xdf94",
      "effectiveGasPrice": "0xddf4edcfd",
      "from": "0xefbbd14082cf2fbcf5badc7ee619f0f4e36d0a5b",
      "to": "0x153dd810703687be7a516888728aaa54aba049d4",
      "contractAddress": null
    },
    {
      "status": "0x1",
      "cumulativeGasUsed": "0x2d596",
      "logs": [
        {
          "address": "0x153dd810703687be7a516888728aaa54aba049d4",
          "topics": [
            "0x9ea6790c7dadfd01c9f8b9762b3682607af2c7e79e05a9f9fdf5580dde949151",
            "0x00000000000000000000000093a3c701505a47e8b41c9e8be21cfe92d2247390",
            "0x0000000000000000000000000000000000000000000000000000000000000001"
          ],
          "data": "0x06af20da00000000000000000000000000000000000000000000000000000000",
          "blockHash": "0xf30adf1f52a266d280afb1c2746401c5facf5be6a409eee65cd2b454041d7aff",
          "blockNumber": "0xdca474",
          "transactionHash": "0xd199dd48b490d0e58cab2934c94c1dd26d80c2be2d4947511b85701880c7e8a8",
          "transactionIndex": "0x1",
          "logIndex": "0x3",
          "removed": false
        },
        {
          "address": "0x0000000000000000000000000000000000001010",
          "topics": [
            "0x4dfe1bbbcf077ddc3e01291eea2d5c70c2b422b415d95645b9adcfd678cb1d63",
            "0x0000000000000000000000000000000000000000000000000000000000001010",
            "0x000000000000000000000000efbbd14082cf2fbcf5badc7ee619f0f4e36d0a5b",
            "0x00000000000000000000000009207a6efee346cb3e4a54ac18523e3715d38b3f"
          ],
          "data": "0x000000000000000000000000000000000000000000000000000c1d8acc0b0b98000000000000000000000000000000000000000000000000212a800e318852f00000000000000000000000000000000000000000000003c2804945bdf9656254000000000000000000000000000000000000000000000000211e6283657d47580000000000000000000000000000000000000000000003c280556348c5706dec",
          "blockHash": "0xf30adf1f52a266d280afb1c2746401c5facf5be6a409eee65cd2b454041d7aff",
          "blockNumber": "0xdca474",
          "transactionHash": "0xd199dd48b490d0e58cab2934c94c1dd26d80c2be2d4947511b85701880c7e8a8",
          "transactionIndex": "0x1",
          "logIndex": "0x4",
          "removed": false
        }
      ],
      "logsBloom": "0x00000004000080000000000000000000000000000000000000000000000000000000000000000000000000000000000000008000000000000000010000040000008000000000000000000000020000800000000000040000000100000000000000000000000000010000000000000000000000010000000080000000000000000800000000000000080000000000000000004000000000000000000000000000200040000000400000000000000000000000400000000000000000000000004000000000000000000001000000200000000000000000000000100000000040000000000000000000000000010000000000000000000000000000000000100000",
      "type": "0x2",
      "transactionHash": "0xd199dd48b490d0e58cab2934c94c1dd26d80c2be2d4947511b85701880c7e8a8",
      "transactionIndex": "0x1",
      "blockHash": "0xf30adf1f52a266d280afb1c2746401c5facf5be6a409eee65cd2b454041d7aff",
      "blockNumber": "0xdca474",
      "gasUsed": "0xdf94",
      "effectiveGasPrice": "0xddf4edcfd",
      "from": "0xefbbd14082cf2fbcf5badc7ee619f0f4e36d0a5b",
      "to": "0x153dd810703687be7a516888728aaa54aba049d4",
      "contractAddress": null
    },
    {
      "status": "0x1",
      "cumulativeGasUsed": "0x13e86",
      "logs": [
        {
          "address": "0x153dd810703687be7a516888728aaa54aba049d4",
          "topics": [
            "0x9ea6790c7dadfd01c9f8b9762b3682607af2c7e79e05a9f9fdf5580dde949151",
            "0x000000000000000000000000e39913753a1b3ac274f5e857f675fa5d7cab8d86",
            "0x0000000000000000000000000000000000000000000000000000000000000001"
          ],
          "data": "0xdaea85c500000000000000000000000000000000000000000000000000000000",
          "blockHash": "0xdef45d31be4038d0290387a68e87d680944fda88fc9b8b8bc94d5ee465396324",
          "blockNumber": "0xdca477",
          "transactionHash": "0x4098a1c617243ba89202ae929d0edcd88a945ca806d8f3b3107548a75e07f3c9",
          "transactionIndex": "0x0",
          "logIndex": "0x0",
          "removed": false
        },
        {
          "address": "0x153dd810703687be7a516888728aaa54aba049d4",
          "topics": [
            "0x9ea6790c7dadfd01c9f8b9762b3682607af2c7e79e05a9f9fdf5580dde949151",
            "0x000000000000000000000000e39913753a1b3ac274f5e857f675fa5d7cab8d86",
            "0x0000000000000000000000000000000000000000000000000000000000000001"
          ],
          "data": "0xab0da5a900000000000000000000000000000000000000000000000000000000",
          "blockHash": "0xdef45d31be4038d0290387a68e87d680944fda88fc9b8b8bc94d5ee465396324",
          "blockNumber": "0xdca477",
          "transactionHash": "0x4098a1c617243ba89202ae929d0edcd88a945ca806d8f3b3107548a75e07f3c9",
          "transactionIndex": "0x0",
          "logIndex": "0x1",
          "removed": false
        },
        {
          "address": "0x0000000000000000000000000000000000001010",
          "topics": [
            "0x4dfe1bbbcf077ddc3e01291eea2d5c70c2b422b415d95645b9adcfd678cb1d63",
            "0x0000000000000000000000000000000000000000000000000000000000001010",
            "0x000000000000000000000000efbbd14082cf2fbcf5badc7ee619f0f4e36d0a5b",
            "0x00000000000000000000000009207a6efee346cb3e4a54ac18523e3715d38b3f"
          ],
          "data": "0x000000000000000000000000000000000000000000000000001142a6d9b74894000000000000000000000000000000000000000000000000211e628365702dac0000000000000000000000000000000000000000000003c2847a9e298360d4df000000000000000000000000000000000000000000000000210d1fdc8bb8e5180000000000000000000000000000000000000000000003c2848be0d05d181d73",
          "blockHash": "0xdef45d31be4038d0290387a68e87d680944fda88fc9b8b8bc94d5ee465396324",
          "blockNumber": "0xdca477",
          "transactionHash": "0x4098a1c617243ba89202ae929d0edcd88a945ca806d8f3b3107548a75e07f3c9",
          "transactionIndex": "0x0",
          "logIndex": "0x2",
          "removed": false
        }
      ],
      "logsBloom": "0x00000004000080000000000000000000000000000000000000000000000000000008000000000000000000000000000000008000000000000000010000040000008000000000000000000000020000820000000000040000000100000000000000000000000000010000000000000000000000000000000080000000000000000800000000000000000000000000000000004000000000000000000000000000200000000000400000000000000000000000400000000000000000000000004000000000000040000001000000200000000000000000000000100000000040000000000000000000000000010000000000000000000000000000000000100000",
      "type": "0x2",
      "transactionHash": "0x4098a1c617243ba89202ae929d0edcd88a945ca806d8f3b3107548a75e07f3c9",
      "transactionIndex": "0x0",
      "blockHash": "0xdef45d31be4038d0290387a68e87d680944fda88fc9b8b8bc94d5ee465396324",
      "blockNumber": "0xdca477",
      "gasUsed": "0x13e86",
      "effectiveGasPrice": "0xddf4edcfd",
      "from": "0xefbbd14082cf2fbcf5badc7ee619f0f4e36d0a5b",
      "to": "0x153dd810703687be7a516888728aaa54aba049d4",
      "contractAddress": null
    },
    {
      "status": "0x1",
      "cumulativeGasUsed": "0x19d78",
      "logs": [
        {
          "address": "0x153dd810703687be7a516888728aaa54aba049d4",
          "topics": [
            "0x9ea6790c7dadfd01c9f8b9762b3682607af2c7e79e05a9f9fdf5580dde949151",
            "0x0000000000000000000000001c6a0442c017978cf5795a04f96c89aef72719d0",
            "0x0000000000000000000000000000000000000000000000000000000000000001"
          ],
          "data": "0x20c5429b00000000000000000000000000000000000000000000000000000000",
          "blockHash": "0x88ba4fd4ce08d2476f05f9a769b1a669bac649e2eadad5bb2900537fb97aa57c",
          "blockNumber": "0xdca47a",
          "transactionHash": "0x34eb3a980e06a262cf1282c2b7b09f50c8da10541a7682cbbe62c9e2a949008d",
          "transactionIndex": "0x0",
          "logIndex": "0x0",
          "removed": false
        },
        {
          "address": "0x153dd810703687be7a516888728aaa54aba049d4",
          "topics": [
            "0x9ea6790c7dadfd01c9f8b9762b3682607af2c7e79e05a9f9fdf5580dde949151",
            "0x0000000000000000000000001c6a0442c017978cf5795a04f96c89aef72719d0",
            "0x0000000000000000000000000000000000000000000000000000000000000001"
          ],
          "data": "0xb8adaa1100000000000000000000000000000000000000000000000000000000",
          "blockHash": "0x88ba4fd4ce08d2476f05f9a769b1a669bac649e2eadad5bb2900537fb97aa57c",
          "blockNumber": "0xdca47a",
          "transactionHash": "0x34eb3a980e06a262cf1282c2b7b09f50c8da10541a7682cbbe62c9e2a949008d",
          "transactionIndex": "0x0",
          "logIndex": "0x1",
          "removed": false
        },
        {
          "address": "0x153dd810703687be7a516888728aaa54aba049d4",
          "topics": [
            "0x9ea6790c7dadfd01c9f8b9762b3682607af2c7e79e05a9f9fdf5580dde949151",
            "0x0000000000000000000000001c6a0442c017978cf5795a04f96c89aef72719d0",
            "0x0000000000000000000000000000000000000000000000000000000000000001"
          ],
          "data": "0xb759f95400000000000000000000000000000000000000000000000000000000",
          "blockHash": "0x88ba4fd4ce08d2476f05f9a769b1a669bac649e2eadad5bb2900537fb97aa57c",
          "blockNumber": "0xdca47a",
          "transactionHash": "0x34eb3a980e06a262cf1282c2b7b09f50c8da10541a7682cbbe62c9e2a949008d",
          "transactionIndex": "0x0",
          "logIndex": "0x2",
          "removed": false
        },
        {
          "address": "0x0000000000000000000000000000000000001010",
          "topics": [
            "0x4dfe1bbbcf077ddc3e01291eea2d5c70c2b422b415d95645b9adcfd678cb1d63",
            "0x0000000000000000000000000000000000000000000000000000000000001010",
            "0x000000000000000000000000efbbd14082cf2fbcf5badc7ee619f0f4e36d0a5b",
            "0x00000000000000000000000009207a6efee346cb3e4a54ac18523e3715d38b3f"
          ],
          "data": "0x000000000000000000000000000000000000000000000000001667c2e7638590000000000000000000000000000000000000000000000000210d1fdc8ba63b3e0000000000000000000000000000000000000000000003c2859a99ca4073004800000000000000000000000000000000000000000000000020f6b819a442b5ae0000000000000000000000000000000000000000000003c285b1018d27d685d8",
          "blockHash": "0x88ba4fd4ce08d2476f05f9a769b1a669bac649e2eadad5bb2900537fb97aa57c",
          "blockNumber": "0xdca47a",
          "transactionHash": "0x34eb3a980e06a262cf1282c2b7b09f50c8da10541a7682cbbe62c9e2a949008d",
          "transactionIndex": "0x0",
          "logIndex": "0x3",
          "removed": false
        }
      ],
      "logsBloom": "0x00000004000080000000000000000000000000000000000000000000020000000000000000000000000000000000000000008000000000000000010000040000008000000000000000000000020000800000000000040000000100000000000000000000000000010000000000000000000000000000000080000000000000000800000000000000000000000000000000004000000000000000000000000000200000000000400000000000000000000000400000000000080080000000004000000000000000000001000000200000000000000000000000100000000040000000000000000000000000010000000000000000000000000000000000100000",
      "type": "0x2",
      "transactionHash": "0x34eb3a980e06a262cf1282c2b7b09f50c8da10541a7682cbbe62c9e2a949008d",
      "transactionIndex": "0x0",
      "blockHash": "0x88ba4fd4ce08d2476f05f9a769b1a669bac649e2eadad5bb2900537fb97aa57c",
      "blockNumber": "0xdca47a",
      "gasUsed": "0x19d78",
      "effectiveGasPrice": "0xddf4edcfd",
      "from": "0xefbbd14082cf2fbcf5badc7ee619f0f4e36d0a5b",
      "to": "0x153dd810703687be7a516888728aaa54aba049d4",
      "contractAddress": null
    },
    {
      "status": "0x1",
      "cumulativeGasUsed": "0x345a6",
      "logs": [
        {
          "address": "0x153dd810703687be7a516888728aaa54aba049d4",
          "topics": [
            "0x9ea6790c7dadfd01c9f8b9762b3682607af2c7e79e05a9f9fdf5580dde949151",
            "0x0000000000000000000000000d3450ce1cd2e307aba78aba8f09eb15e8a4ff73",
            "0x0000000000000000000000000000000000000000000000000000000000000001"
          ],
          "data": "0xf6eea09800000000000000000000000000000000000000000000000000000000",
          "blockHash": "0x49951e30d1549f8d5e2f11cf485ca87221494f7f9efa03c988362f17680476df",
          "blockNumber": "0xdca47d",
          "transactionHash": "0x116402c96fd01651cf426025261f70822b4e60f7ab63d6c2d28052800287ebc3",
          "transactionIndex": "0x1",
          "logIndex": "0x3",
          "removed": false
        },
        {
          "address": "0x153dd810703687be7a516888728aaa54aba049d4",
          "topics": [
            "0x9ea6790c7dadfd01c9f8b9762b3682607af2c7e79e05a9f9fdf5580dde949151",
            "0x0000000000000000000000000d3450ce1cd2e307aba78aba8f09eb15e8a4ff73",
            "0x0000000000000000000000000000000000000000000000000000000000000001"
          ],
          "data": "0x74a8f10300000000000000000000000000000000000000000000000000000000",
          "blockHash": "0x49951e30d1549f8d5e2f11cf485ca87221494f7f9efa03c988362f17680476df",
          "blockNumber": "0xdca47d",
          "transactionHash": "0x116402c96fd01651cf426025261f70822b4e60f7ab63d6c2d28052800287ebc3",
          "transactionIndex": "0x1",
          "logIndex": "0x4",
          "removed": false
        },
        {
          "address": "0x153dd810703687be7a516888728aaa54aba049d4",
          "topics": [
            "0x9ea6790c7dadfd01c9f8b9762b3682607af2c7e79e05a9f9fdf5580dde949151",
            "0x0000000000000000000000000d3450ce1cd2e307aba78aba8f09eb15e8a4ff73",
            "0x0000000000000000000000000000000000000000000000000000000000000001"
          ],
          "data": "0xdaea85c500000000000000000000000000000000000000000000000000000000",
          "blockHash": "0x49951e30d1549f8d5e2f11cf485ca87221494f7f9efa03c988362f17680476df",
          "blockNumber": "0xdca47d",
          "transactionHash": "0x116402c96fd01651cf426025261f70822b4e60f7ab63d6c2d28052800287ebc3",
          "transactionIndex": "0x1",
          "logIndex": "0x5",
          "removed": false
        },
        {
          "address": "0x0000000000000000000000000000000000001010",
          "topics": [
            "0x4dfe1bbbcf077ddc3e01291eea2d5c70c2b422b415d95645b9adcfd678cb1d63",
            "0x0000000000000000000000000000000000000000000000000000000000001010",
            "0x000000000000000000000000efbbd14082cf2fbcf5badc7ee619f0f4e36d0a5b",
            "0x00000000000000000000000009207a6efee346cb3e4a54ac18523e3715d38b3f"
          ],
          "data": "0x000000000000000000000000000000000000000000000000001667c2e763859000000000000000000000000000000000000000000000000020f6b819a42a7ba60000000000000000000000000000000000000000000003c2863811cfea64e21f00000000000000000000000000000000000000000000000020e05056bcc6f6160000000000000000000000000000000000000000000003c2864e7992d1c867af",
          "blockHash": "0x49951e30d1549f8d5e2f11cf485ca87221494f7f9efa03c988362f17680476df",
          "blockNumber": "0xdca47d",
          "transactionHash": "0x116402c96fd01651cf426025261f70822b4e60f7ab63d6c2d28052800287ebc3",
          "transactionIndex": "0x1",
          "logIndex": "0x6",
          "removed": false
        }
      ],
      "logsBloom": "0x00000004000080000000000000000000000000000000000000000000000000000000000000000000000000000000000000008000000000000000010000040000008000000000000000000000020000800000000000040000000100000000000000000000000000010000000000000000000000000000000080000000000000000800000008000000000000000000000000004000000000000000004000000000200000000000400000000000000800000000400000000000000000000000004000000000000000000001000000200000000000000000000000100000000040000000000000000000000000010000000000000000000000000000000000100000",
      "type": "0x2",
      "transactionHash": "0x116402c96fd01651cf426025261f70822b4e60f7ab63d6c2d28052800287ebc3",
      "transactionIndex": "0x1",
      "blockHash": "0x49951e30d1549f8d5e2f11cf485ca87221494f7f9efa03c988362f17680476df",
      "blockNumber": "0xdca47d",
      "gasUsed": "0x19d78",
      "effectiveGasPrice": "0xddf4edcfd",
      "from": "0xefbbd14082cf2fbcf5badc7ee619f0f4e36d0a5b",
      "to": "0x153dd810703687be7a516888728aaa54aba049d4",
      "contractAddress": null
    },
    {
      "status": "0x1",
      "cumulativeGasUsed": "0x40bcd",
      "logs": [
        {
          "address": "0x9cea2791027696bb07fe7510eae5dc72ae3070fc",
          "topics": [
            "0xfbbd6e9cc51f124b05f08f20e9aef57fb26fc9a927be06212c59506610581335",
            "0x000000000000000000000000163aad81aa11f5bb1eb7a7c68e80b60db3432ef2",
            "0x000000000000000000000000efbbd14082cf2fbcf5badc7ee619f0f4e36d0a5b"
          ],
          "data": "0x00000000000000000000000000000000000000000000000000000000000001f40000000000000000000000000000000000000000000000000000000000000002",
          "blockHash": "0xfc69918400f257e710cd13942897f46e2f8dc9d47f4bf4692322a639da1c4503",
          "blockNumber": "0xdca480",
          "transactionHash": "0xb5ae356de11dea14d6213a85fa2ad13bacd72d32e2e75e732b1556dc53f6fa99",
          "transactionIndex": "0x1",
          "logIndex": "0x3",
          "removed": false
        },
        {
          "address": "0x0000000000000000000000000000000000001010",
          "topics": [
            "0x4dfe1bbbcf077ddc3e01291eea2d5c70c2b422b415d95645b9adcfd678cb1d63",
            "0x0000000000000000000000000000000000000000000000000000000000001010",
            "0x000000000000000000000000efbbd14082cf2fbcf5badc7ee619f0f4e36d0a5b",
            "0x0000000000000000000000004631753190f2f5a15a7ba172bbac102b7d95fa22"
          ],
          "data": "0x000000000000000000000000000000000000000000000000001cee3c34e96d0a00000000000000000000000000000000000000000000000020e05056bcaebc0e0000000000000000000000000000000000000000000002ffe023f28815ef81f600000000000000000000000000000000000000000000000020c3621a87c54f040000000000000000000000000000000000000000000002ffe040e0c44ad8ef00",
          "blockHash": "0xfc69918400f257e710cd13942897f46e2f8dc9d47f4bf4692322a639da1c4503",
          "blockNumber": "0xdca480",
          "transactionHash": "0xb5ae356de11dea14d6213a85fa2ad13bacd72d32e2e75e732b1556dc53f6fa99",
          "transactionIndex": "0x1",
          "logIndex": "0x4",
          "removed": false
        }
      ],
      "logsBloom": "0x00000000000000000000800000000000000000002000000000000000000000000000000000000000000000000000000000008000000000000000000040000000008008040000000000000000000000800000000000000000000100000800000000000000000000500000000000000000000000000000000080000000004000000800000000000000000000000000000000000000000000000000000000000000200000000000000000000000000002000000400100000000000000000000004000000000000000000001000000000000000000000000000000100000000000000000000000000000000000000000000000000000000000000000000000100000",
      "type": "0x2",
      "transactionHash": "0xb5ae356de11dea14d6213a85fa2ad13bacd72d32e2e75e732b1556dc53f6fa99",
      "transactionIndex": "0x1",
      "blockHash": "0xfc69918400f257e710cd13942897f46e2f8dc9d47f4bf4692322a639da1c4503",
      "blockNumber": "0xdca480",
      "gasUsed": "0x215e3",
      "effectiveGasPrice": "0xddf4edcfd",
      "from": "0xefbbd14082cf2fbcf5badc7ee619f0f4e36d0a5b",
      "to": "0x9cea2791027696bb07fe7510eae5dc72ae3070fc",
      "contractAddress": null
    },
    {
      "status": "0x1",
      "cumulativeGasUsed": "0x40bfe",
      "logs": [
        {
          "address": "0x9cea2791027696bb07fe7510eae5dc72ae3070fc",
          "topics": [
            "0xfbbd6e9cc51f124b05f08f20e9aef57fb26fc9a927be06212c59506610581335",
            "0x000000000000000000000000163aad81aa11f5bb1eb7a7c68e80b60db3432ef2",
            "0x000000000000000000000000efbbd14082cf2fbcf5badc7ee619f0f4e36d0a5b"
          ],
          "data": "0x0000000000000000000000000000000000000000000000056bc75e2d631000000000000000000000000000000000000000000000000000000000000000000001",
          "blockHash": "0x7f0bbf40ae8b0f4da675c261d4438ae9b33a201194b1931d912ea161fa48b72a",
          "blockNumber": "0xdca482",
          "transactionHash": "0x70de0f3619021921528f212c702c93fd84e30327de7fb5c354a2079573a467f6",
          "transactionIndex": "0x1",
          "logIndex": "0x3",
          "removed": false
        },
        {
          "address": "0x0000000000000000000000000000000000001010",
          "topics": [
            "0x4dfe1bbbcf077ddc3e01291eea2d5c70c2b422b415d95645b9adcfd678cb1d63",
            "0x0000000000000000000000000000000000000000000000000000000000001010",
            "0x000000000000000000000000efbbd14082cf2fbcf5badc7ee619f0f4e36d0a5b",
            "0x0000000000000000000000004631753190f2f5a15a7ba172bbac102b7d95fa22"
          ],
          "data": "0x000000000000000000000000000000000000000000000000001cf03d7b4f5b7000000000000000000000000000000000000000000000000020c3621a87a606b70000000000000000000000000000000000000000000002ffe41f50210668ca0c00000000000000000000000000000000000000000000000020a671dd0c56ab470000000000000000000000000000000000000000000002ffe43c405e81b8257c",
          "blockHash": "0x7f0bbf40ae8b0f4da675c261d4438ae9b33a201194b1931d912ea161fa48b72a",
          "blockNumber": "0xdca482",
          "transactionHash": "0x70de0f3619021921528f212c702c93fd84e30327de7fb5c354a2079573a467f6",
          "transactionIndex": "0x1",
          "logIndex": "0x4",
          "removed": false
        }
      ],
      "logsBloom": "0x00000000000000000000800000000000000000002000000000000000000000000000000000000000000000000000000000008000000000000000000040000000008008040000000000000000000000800000000000000000000100000800000000000000000000500000000000000000000000000000000080000000004000000800000000000000000000000000000000000000000000000000000000000000200000000000000000000000000002000000400100000000000000000000004000000000000000000001000000000000000000000000000000100000000000000000000000000000000000000000000000000000000000000000000000100000",
      "type": "0x2",
      "transactionHash": "0x70de0f3619021921528f212c702c93fd84e30327de7fb5c354a2079573a467f6",
      "transactionIndex": "0x1",
      "blockHash": "0x7f0bbf40ae8b0f4da675c261d4438ae9b33a201194b1931d912ea161fa48b72a",
      "blockNumber": "0xdca482",
      "gasUsed": "0x21608",
      "effectiveGasPrice": "0xddf4edcfd",
      "from": "0xefbbd14082cf2fbcf5badc7ee619f0f4e36d0a5b",
      "to": "0x9cea2791027696bb07fe7510eae5dc72ae3070fc",
      "contractAddress": null
    }
  ],
  "libraries": [],
  "pending": [],
  "returns": {},
  "timestamp": 1731681386,
  "chain": 80002,
  "commit": "5d3485c"
}