{
  "transactions": [
    {
      "hash": "0x63bdd052f0bc9f6246cb3b83ffa1964559c7451a8edc7fe44813e9dbc2c1ad76",
      "transactionType": "CALL",
      "contractName": null,
      "contractAddress": "0x8120a8e0688be6b2c0bb469f871e5e7023ca85eb",
      "function": "grantRole(uint64,address,uint32)",
      "arguments": [
        "1",
        "0xEFBBD14082cF2FbCf5Badc7ee619F0f4e36D0A5B",
        "0"
      ],
      "transaction": {
        "from": "0xefbbd14082cf2fbcf5badc7ee619f0f4e36d0a5b",
        "to": "0x8120a8e0688be6b2c0bb469f871e5e7023ca85eb",
        "gas": "0xedf2",
        "value": "0x0",
        "input": "0x25c471a00000000000000000000000000000000000000000000000000000000000000001000000000000000000000000efbbd14082cf2fbcf5badc7ee619f0f4e36d0a5b0000000000000000000000000000000000000000000000000000000000000000",
        "nonce": "0x8ee",
        "chainId": "0x13882"
      },
      "additionalContracts": [],
      "isFixedGasLimit": false
    },
    {
      "hash": "0x92ceff5d6eac1b974bacb4b5b4e950782f2dbdf537e0ebe1fcdcb8b37036eb19",
      "transactionType": "CALL",
      "contractName": null,
      "contractAddress": "0x8120a8e0688be6b2c0bb469f871e5e7023ca85eb",
      "function": "setTargetFunctionRole(address,bytes4[],uint64)",
      "arguments": [
        "0x21BEaFdb4bF710ABF9CcaE207C01AA533857B230",
        "[0xecf441b7]",
        "1"
      ],
      "transaction": {
        "from": "0xefbbd14082cf2fbcf5badc7ee619f0f4e36d0a5b",
        "to": "0x8120a8e0688be6b2c0bb469f871e5e7023ca85eb",
        "gas": "0x134d0",
        "value": "0x0",
        "input": "0x08d6122d00000000000000000000000021beafdb4bf710abf9ccae207c01aa533857b230000000000000000000000000000000000000000000000000000000000000006000000000000000000000000000000000000000000000000000000000000000010000000000000000000000000000000000000000000000000000000000000001ecf441b700000000000000000000000000000000000000000000000000000000",
        "nonce": "0x8ef",
        "chainId": "0x13882"
      },
      "additionalContracts": [],
      "isFixedGasLimit": false
    },
    {
      "hash": "0xa87ee8bda5be39f9263d4b7539cffdf1e5577fb3eaabf4db1b66af2c0995e4cb",
      "transactionType": "CALL",
      "contractName": null,
      "contractAddress": "0x8120a8e0688be6b2c0bb469f871e5e7023ca85eb",
      "function": "setTargetFunctionRole(address,bytes4[],uint64)",
      "arguments": [
        "0x40613E51D1779a2C75Ca4293D82e2305F987A473",
        "[0x69328dec]",
        "1"
      ],
      "transaction": {
        "from": "0xefbbd14082cf2fbcf5badc7ee619f0f4e36d0a5b",
        "to": "0x8120a8e0688be6b2c0bb469f871e5e7023ca85eb",
        "gas": "0x134d0",
        "value": "0x0",
        "input": "0x08d6122d00000000000000000000000040613e51d1779a2c75ca4293d82e2305f987a47300000000000000000000000000000000000000000000000000000000000000600000000000000000000000000000000000000000000000000000000000000001000000000000000000000000000000000000000000000000000000000000000169328dec00000000000000000000000000000000000000000000000000000000",
        "nonce": "0x8f0",
        "chainId": "0x13882"
      },
      "additionalContracts": [],
      "isFixedGasLimit": false
    },
    {
      "hash": "0x8fa24c5f9f3bdb5db478a71724646503537d4e8ec5e0da8eecfa7af37ff7c922",
      "transactionType": "CALL",
      "contractName": null,
      "contractAddress": "0x8120a8e0688be6b2c0bb469f871e5e7023ca85eb",
      "function": "setTargetFunctionRole(address,bytes4[],uint64)",
      "arguments": [
        "0x02EDB431004d85C6E661331a9fe0118aE84D119a",
        "[0x20c5429b, 0xb8adaa11, 0xb759f954]",
        "1"
      ],
      "transaction": {
        "from": "0xefbbd14082cf2fbcf5badc7ee619f0f4e36d0a5b",
        "to": "0x8120a8e0688be6b2c0bb469f871e5e7023ca85eb",
        "gas": "0x23b09",
        "value": "0x0",
        "input": "0x08d6122d00000000000000000000000002edb431004d85c6e661331a9fe0118ae84d119a00000000000000000000000000000000000000000000000000000000000000600000000000000000000000000000000000000000000000000000000000000001000000000000000000000000000000000000000000000000000000000000000320c5429b00000000000000000000000000000000000000000000000000000000b8adaa1100000000000000000000000000000000000000000000000000000000b759f95400000000000000000000000000000000000000000000000000000000",
        "nonce": "0x8f1",
        "chainId": "0x13882"
      },
      "additionalContracts": [],
      "isFixedGasLimit": false
    },
    {
      "hash": "0xfb91888da282323ebb5c1b3ec489a7028bc02215927c2c17d270f5e6c92a5ef9",
      "transactionType": "CALL",
      "contractName": null,
      "contractAddress": "0x8120a8e0688be6b2c0bb469f871e5e7023ca85eb",
      "function": "setTargetFunctionRole(address,bytes4[],uint64)",
      "arguments": [
        "0x1314059a68E81AAb9EE928c96434f99D4fA621Bf",
        "[0xf6eea098, 0x74a8f103, 0xdaea85c5]",
        "1"
      ],
      "transaction": {
        "from": "0xefbbd14082cf2fbcf5badc7ee619f0f4e36d0a5b",
        "to": "0x8120a8e0688be6b2c0bb469f871e5e7023ca85eb",
        "gas": "0x23b19",
        "value": "0x0",
        "input": "0x08d6122d0000000000000000000000001314059a68e81aab9ee928c96434f99d4fa621bf000000000000000000000000000000000000000000000000000000000000006000000000000000000000000000000000000000000000000000000000000000010000000000000000000000000000000000000000000000000000000000000003f6eea0980000000000000000000000000000000000000000000000000000000074a8f10300000000000000000000000000000000000000000000000000000000daea85c500000000000000000000000000000000000000000000000000000000",
        "nonce": "0x8f2",
        "chainId": "0x13882"
      },
      "additionalContracts": [],
      "isFixedGasLimit": false
    },
    {
      "hash": "0x4e900435ae068057684152edcac490297953c175534c6c2ef0c489e505129006",
      "transactionType": "CALL",
      "contractName": null,
      "contractAddress": "0x8120a8e0688be6b2c0bb469f871e5e7023ca85eb",
      "function": "grantRole(uint64,address,uint32)",
      "arguments": [
        "2",
        "0xEFBBD14082cF2FbCf5Badc7ee619F0f4e36D0A5B",
        "0"
      ],
      "transaction": {
        "from": "0xefbbd14082cf2fbcf5badc7ee619f0f4e36d0a5b",
        "to": "0x8120a8e0688be6b2c0bb469f871e5e7023ca85eb",
        "gas": "0xedf2",
        "value": "0x0",
        "input": "0x25c471a00000000000000000000000000000000000000000000000000000000000000002000000000000000000000000efbbd14082cf2fbcf5badc7ee619f0f4e36d0a5b0000000000000000000000000000000000000000000000000000000000000000",
        "nonce": "0x8f3",
        "chainId": "0x13882"
      },
      "additionalContracts": [],
      "isFixedGasLimit": false
    },
    {
      "hash": "0x025b4924f03d950ed9d0608ae520697c7c6d6b95189eb34ccfca9f2c186f1aca",
      "transactionType": "CALL",
      "contractName": null,
      "contractAddress": "0x8120a8e0688be6b2c0bb469f871e5e7023ca85eb",
      "function": "setTargetFunctionRole(address,bytes4[],uint64)",
      "arguments": [
        "0x62B311794F287913Df45DE640bd37fcA43Ed00B0",
        "[0xdaea85c5, 0xab0da5a9]",
        "2"
      ],
      "transaction": {
        "from": "0xefbbd14082cf2fbcf5badc7ee619f0f4e36d0a5b",
        "to": "0x8120a8e0688be6b2c0bb469f871e5e7023ca85eb",
        "gas": "0x1d1c5",
        "value": "0x0",
        "input": "0x08d6122d00000000000000000000000062b311794f287913df45de640bd37fca43ed00b0000000000000000000000000000000000000000000000000000000000000006000000000000000000000000000000000000000000000000000000000000000020000000000000000000000000000000000000000000000000000000000000002daea85c500000000000000000000000000000000000000000000000000000000ab0da5a900000000000000000000000000000000000000000000000000000000",
        "nonce": "0x8f4",
        "chainId": "0x13882"
      },
      "additionalContracts": [],
      "isFixedGasLimit": false
    },
    {
      "hash": "0x09ae3db6d624d8d329d890f1133415c108ae28880f8f551d8e12fba05247ed92",
      "transactionType": "CALL",
      "contractName": null,
      "contractAddress": "0x8120a8e0688be6b2c0bb469f871e5e7023ca85eb",
      "function": "grantRole(uint64,address,uint32)",
      "arguments": [
        "4",
        "0x1aEc26dccF4955E288420771BDb1252E427bAd1d",
        "0"
      ],
      "transaction": {
        "from": "0xefbbd14082cf2fbcf5badc7ee619f0f4e36d0a5b",
        "to": "0x8120a8e0688be6b2c0bb469f871e5e7023ca85eb",
        "gas": "0x13bcf",
        "value": "0x0",
        "input": "0x25c471a000000000000000000000000000000000000000000000000000000000000000040000000000000000000000001aec26dccf4955e288420771bdb1252e427bad1d0000000000000000000000000000000000000000000000000000000000000000",
        "nonce": "0x8f5",
        "chainId": "0x13882"
      },
      "additionalContracts": [],
      "isFixedGasLimit": false
    },
    {
      "hash": "0x19d6e391b9d8a6047d262040a1974e2f6b4698a8b3ac913a9e39b3eea0f4a05e",
      "transactionType": "CALL",
      "contractName": null,
      "contractAddress": "0x8120a8e0688be6b2c0bb469f871e5e7023ca85eb",
      "function": "grantRole(uint64,address,uint32)",
      "arguments": [
        "4",
        "0x92365FF52F6F9891D42C925834A062660e4C3b3A",
        "0"
      ],
      "transaction": {
        "from": "0xefbbd14082cf2fbcf5badc7ee619f0f4e36d0a5b",
        "to": "0x8120a8e0688be6b2c0bb469f871e5e7023ca85eb",
        "gas": "0x13bcf",
        "value": "0x0",
        "input": "0x25c471a0000000000000000000000000000000000000000000000000000000000000000400000000000000000000000092365ff52f6f9891d42c925834a062660e4c3b3a0000000000000000000000000000000000000000000000000000000000000000",
        "nonce": "0x8f6",
        "chainId": "0x13882"
      },
      "additionalContracts": [],
      "isFixedGasLimit": false
    },
    {
      "hash": "0x378bd84bcdeb08d7dbb6e9181d54b96aed75aec12e35abc19e6529bfcfd3f41f",
      "transactionType": "CALL",
      "contractName": null,
      "contractAddress": "0x8120a8e0688be6b2c0bb469f871e5e7023ca85eb",
      "function": "grantRole(uint64,address,uint32)",
      "arguments": [
        "4",
        "0x1314059a68E81AAb9EE928c96434f99D4fA621Bf",
        "0"
      ],
      "transaction": {
        "from": "0xefbbd14082cf2fbcf5badc7ee619f0f4e36d0a5b",
        "to": "0x8120a8e0688be6b2c0bb469f871e5e7023ca85eb",
        "gas": "0x13bcf",
        "value": "0x0",
        "input": "0x25c471a000000000000000000000000000000000000000000000000000000000000000040000000000000000000000001314059a68e81aab9ee928c96434f99d4fa621bf0000000000000000000000000000000000000000000000000000000000000000",
        "nonce": "0x8f7",
        "chainId": "0x13882"
      },
      "additionalContracts": [],
      "isFixedGasLimit": false
    },
    {
      "hash": "0x624b5bfa236c2e078be02bdb7daa0dcb0b5cfb32e5ae85f5a37e517b56a74557",
      "transactionType": "CALL",
      "contractName": null,
      "contractAddress": "0x8120a8e0688be6b2c0bb469f871e5e7023ca85eb",
      "function": "setTargetFunctionRole(address,bytes4[],uint64)",
      "arguments": [
        "0x3C811BC4876045228b37451EDd29326c0b709F9A",
        "[0x4bbc170a, 0x15f41501, 0x9e96a260]",
        "4"
      ],
      "transaction": {
        "from": "0xefbbd14082cf2fbcf5badc7ee619f0f4e36d0a5b",
        "to": "0x8120a8e0688be6b2c0bb469f871e5e7023ca85eb",
        "gas": "0x23b19",
        "value": "0x0",
        "input": "0x08d6122d0000000000000000000000003c811bc4876045228b37451edd29326c0b709f9a0000000000000000000000000000000000000000000000000000000000000060000000000000000000000000000000000000000000000000000000000000000400000000000000000000000000000000000000000000000000000000000000034bbc170a0000000000000000000000000000000000000000000000000000000015f41501000000000000000000000000000000000000000000000000000000009e96a26000000000000000000000000000000000000000000000000000000000",
        "nonce": "0x8f8",
        "chainId": "0x13882"
      },
      "additionalContracts": [],
      "isFixedGasLimit": false
    },
    {
      "hash": "0x4fd2e3e7959976dc6a813ee385ec386f5d313fbd079dc7b6a5cd662100c56d26",
      "transactionType": "CALL",
      "contractName": null,
      "contractAddress": "0x21beafdb4bf710abf9ccae207c01aa533857b230",
      "function": "setFees(uint8,uint256,address)",
      "arguments": [
        "2",
        "500",
        "0x3c7DeB6FeAEb7a82BDe580Fb73d8d69c401b219e"
      ],
      "transaction": {
        "from": "0xefbbd14082cf2fbcf5badc7ee619f0f4e36d0a5b",
        "to": "0x21beafdb4bf710abf9ccae207c01aa533857b230",
        "gas": "0x30cce",
        "value": "0x0",
        "input": "0xecf441b7000000000000000000000000000000000000000000000000000000000000000200000000000000000000000000000000000000000000000000000000000001f40000000000000000000000003c7deb6feaeb7a82bde580fb73d8d69c401b219e",
        "nonce": "0x8f9",
        "chainId": "0x13882"
      },
      "additionalContracts": [],
      "isFixedGasLimit": false
    },
    {
      "hash": "0xd42886a2b7c87d852186f41bfc94d12f7e45b59ec54dc78a04095f06d0be1b77",
      "transactionType": "CALL",
      "contractName": null,
      "contractAddress": "0x21beafdb4bf710abf9ccae207c01aa533857b230",
      "function": "setFees(uint8,uint256,address)",
      "arguments": [
        "1",
        "100000000000000000000",
        "0x3c7DeB6FeAEb7a82BDe580Fb73d8d69c401b219e"
      ],
      "transaction": {
        "from": "0xefbbd14082cf2fbcf5badc7ee619f0f4e36d0a5b",
        "to": "0x21beafdb4bf710abf9ccae207c01aa533857b230",
        "gas": "0x2e1a0",
        "value": "0x0",
        "input": "0xecf441b700000000000000000000000000000000000000000000000000000000000000010000000000000000000000000000000000000000000000056bc75e2d631000000000000000000000000000003c7deb6feaeb7a82bde580fb73d8d69c401b219e",
        "nonce": "0x8fa",
        "chainId": "0x13882"
      },
      "additionalContracts": [],
      "isFixedGasLimit": false
    }
  ],
  "receipts": [
    {
      "status": "0x1",
      "cumulativeGasUsed": "0xa2b3",
      "logs": [
        {
          "address": "0x8120a8e0688be6b2c0bb469f871e5e7023ca85eb",
          "topics": [
            "0xf98448b987f1428e0e230e1f3c6e2ce15b5693eaf31827fbd0b1ec4b424ae7cf",
            "0x0000000000000000000000000000000000000000000000000000000000000001",
            "0x000000000000000000000000efbbd14082cf2fbcf5badc7ee619f0f4e36d0a5b"
          ],
          "data": "0x00000000000000000000000000000000000000000000000000000000000000000000000000000000000000000000000000000000000000000000000067745e0b0000000000000000000000000000000000000000000000000000000000000000",
          "blockHash": "0x82ead407a6b0f987f6defcc655db54f2b52dda3d0c59ca5d941e7425e76b554a",
          "blockNumber": "0xf8af9f",
          "transactionHash": "0x63bdd052f0bc9f6246cb3b83ffa1964559c7451a8edc7fe44813e9dbc2c1ad76",
          "transactionIndex": "0x0",
          "logIndex": "0x0",
          "removed": false
        },
        {
          "address": "0x0000000000000000000000000000000000001010",
          "topics": [
            "0x4dfe1bbbcf077ddc3e01291eea2d5c70c2b422b415d95645b9adcfd678cb1d63",
            "0x0000000000000000000000000000000000000000000000000000000000001010",
            "0x000000000000000000000000efbbd14082cf2fbcf5badc7ee619f0f4e36d0a5b",
            "0x0000000000000000000000006ab3d36c46ecfb9b9c0bd51cb1c3da5a2c81cea6"
          ],
          "data": "0x0000000000000000000000000000000000000000000000000005b5597075d9730000000000000000000000000000000000000000000000015cda0cb5fbd508f600000000000000000000000000000000000000000000044f98010c4ebcec95510000000000000000000000000000000000000000000000015cd4575c8b5f2f8300000000000000000000000000000000000000000000044f9806c1a82d626ec4",
          "blockHash": "0x82ead407a6b0f987f6defcc655db54f2b52dda3d0c59ca5d941e7425e76b554a",
          "blockNumber": "0xf8af9f",
          "transactionHash": "0x63bdd052f0bc9f6246cb3b83ffa1964559c7451a8edc7fe44813e9dbc2c1ad76",
          "transactionIndex": "0x0",
          "logIndex": "0x1",
          "removed": false
        }
      ],
      "logsBloom": "0x00000000080000000000000000000000000000000000000000000000000000000000000000000000000000000000000000008000000000000000000000040000008000080000000000000000000000800000000000040100000100000000000000000000000000000000000000000000000000000000000080000000000000000800000000000000000000000800000008000000000000000000000000000000200000000000000000002000000000000000400000000008008000000000004000000000000000000001000000000000000000010000000000100000000040000000000000000000000000000000000000000000000000000000000000100000",
      "type": "0x2",
      "transactionHash": "0x63bdd052f0bc9f6246cb3b83ffa1964559c7451a8edc7fe44813e9dbc2c1ad76",
      "transactionIndex": "0x0",
      "blockHash": "0x82ead407a6b0f987f6defcc655db54f2b52dda3d0c59ca5d941e7425e76b554a",
      "blockNumber": "0xf8af9f",
      "gasUsed": "0xa2b3",
      "effectiveGasPrice": "0x8fb5e4e50",
      "from": "0xefbbd14082cf2fbcf5badc7ee619f0f4e36d0a5b",
      "to": "0x8120a8e0688be6b2c0bb469f871e5e7023ca85eb",
      "contractAddress": null
    },
    {
      "status": "0x1",
      "cumulativeGasUsed": "0x18247",
      "logs": [
        {
          "address": "0x8120a8e0688be6b2c0bb469f871e5e7023ca85eb",
          "topics": [
            "0x9ea6790c7dadfd01c9f8b9762b3682607af2c7e79e05a9f9fdf5580dde949151",
            "0x00000000000000000000000021beafdb4bf710abf9ccae207c01aa533857b230",
            "0x0000000000000000000000000000000000000000000000000000000000000001"
          ],
          "data": "0xecf441b700000000000000000000000000000000000000000000000000000000",
          "blockHash": "0x82ead407a6b0f987f6defcc655db54f2b52dda3d0c59ca5d941e7425e76b554a",
          "blockNumber": "0xf8af9f",
          "transactionHash": "0x92ceff5d6eac1b974bacb4b5b4e950782f2dbdf537e0ebe1fcdcb8b37036eb19",
          "transactionIndex": "0x1",
          "logIndex": "0x2",
          "removed": false
        },
        {
          "address": "0x0000000000000000000000000000000000001010",
          "topics": [
            "0x4dfe1bbbcf077ddc3e01291eea2d5c70c2b422b415d95645b9adcfd678cb1d63",
            "0x0000000000000000000000000000000000000000000000000000000000001010",
            "0x000000000000000000000000efbbd14082cf2fbcf5badc7ee619f0f4e36d0a5b",
            "0x0000000000000000000000006ab3d36c46ecfb9b9c0bd51cb1c3da5a2c81cea6"
          ],
          "data": "0x0000000000000000000000000000000000000000000000000007d82878afdc940000000000000000000000000000000000000000000000015cd4575c8b55a70600000000000000000000000000000000000000000000044f9806c1a82d626ec40000000000000000000000000000000000000000000000015ccc7f3412a5ca7200000000000000000000000000000000000000000000044f980e99d0a6124b58",
          "blockHash": "0x82ead407a6b0f987f6defcc655db54f2b52dda3d0c59ca5d941e7425e76b554a",
          "blockNumber": "0xf8af9f",
          "transactionHash": "0x92ceff5d6eac1b974bacb4b5b4e950782f2dbdf537e0ebe1fcdcb8b37036eb19",
          "transactionIndex": "0x1",
          "logIndex": "0x3",
          "removed": false
        }
      ],
      "logsBloom": "0x00000004080080000000000000000000000000000000000000000000000000000000000000000000000000000000000000008000000000000000000000040000008000080000000004000000000000800000000000040100000100000000000000000000000000000000000000000000000800000000000080000000000000000800000000000000000000001800000000000000000000000000000000000000200000000000000000000000000000000000400000000000008000000000004000000000000000000001000000200000000000010000000000100000000040000000000000000000000000000000000000000000000000000000000000100000",
      "type": "0x2",
      "transactionHash": "0x92ceff5d6eac1b974bacb4b5b4e950782f2dbdf537e0ebe1fcdcb8b37036eb19",
      "transactionIndex": "0x1",
      "blockHash": "0x82ead407a6b0f987f6defcc655db54f2b52dda3d0c59ca5d941e7425e76b554a",
      "blockNumber": "0xf8af9f",
      "gasUsed": "0xdf94",
      "effectiveGasPrice": "0x8fb5e4e50",
      "from": "0xefbbd14082cf2fbcf5badc7ee619f0f4e36d0a5b",
      "to": "0x8120a8e0688be6b2c0bb469f871e5e7023ca85eb",
      "contractAddress": null
    },
    {
      "status": "0x1",
      "cumulativeGasUsed": "0xdf94",
      "logs": [
        {
          "address": "0x8120a8e0688be6b2c0bb469f871e5e7023ca85eb",
          "topics": [
            "0x9ea6790c7dadfd01c9f8b9762b3682607af2c7e79e05a9f9fdf5580dde949151",
            "0x00000000000000000000000040613e51d1779a2c75ca4293d82e2305f987a473",
            "0x0000000000000000000000000000000000000000000000000000000000000001"
          ],
          "data": "0x69328dec00000000000000000000000000000000000000000000000000000000",
          "blockHash": "0xc86c54e4c93ebbb7dc8a0ed2d180134bf3ebd5a4fbe3bc1e17f1c9cc503544d4",
          "blockNumber": "0xf8afa0",
          "transactionHash": "0xa87ee8bda5be39f9263d4b7539cffdf1e5577fb3eaabf4db1b66af2c0995e4cb",
          "transactionIndex": "0x0",
          "logIndex": "0x0",
          "removed": false
        },
        {
          "address": "0x0000000000000000000000000000000000001010",
          "topics": [
            "0x4dfe1bbbcf077ddc3e01291eea2d5c70c2b422b415d95645b9adcfd678cb1d63",
            "0x0000000000000000000000000000000000000000000000000000000000001010",
            "0x000000000000000000000000efbbd14082cf2fbcf5badc7ee619f0f4e36d0a5b",
            "0x0000000000000000000000006c095a53250dd250797ff915a716cca690ad8842"
          ],
          "data": "0x0000000000000000000000000000000000000000000000000007d82878afdc940000000000000000000000000000000000000000000000015ccc7f341298b0c60000000000000000000000000000000000000000000000f37db7a05989db91a00000000000000000000000000000000000000000000000015cc4a70b99e8d4320000000000000000000000000000000000000000000000f37dbf7882028b6e34",
          "blockHash": "0xc86c54e4c93ebbb7dc8a0ed2d180134bf3ebd5a4fbe3bc1e17f1c9cc503544d4",
          "blockNumber": "0xf8afa0",
          "transactionHash": "0xa87ee8bda5be39f9263d4b7539cffdf1e5577fb3eaabf4db1b66af2c0995e4cb",
          "transactionIndex": "0x0",
          "logIndex": "0x1",
          "removed": false
        }
      ],
      "logsBloom": "0x00000004000080800000000000000200000000000000000000000000000000000000000000000000000000000000000000008000000000000000000000040000008000000000000000000000000000800000000000040100000100000000000000000000000000000000000000000000000000000000040080000000000000000800000000000000400000000800000000000000000000000000000000000000200000000000000000008000000000000000400000000000008000000000004000000000000000000001800000200000000000000000000000100000000040000000000000000000000000000000000000000000000000000000000000100000",
      "type": "0x2",
      "transactionHash": "0xa87ee8bda5be39f9263d4b7539cffdf1e5577fb3eaabf4db1b66af2c0995e4cb",
      "transactionIndex": "0x0",
      "blockHash": "0xc86c54e4c93ebbb7dc8a0ed2d180134bf3ebd5a4fbe3bc1e17f1c9cc503544d4",
      "blockNumber": "0xf8afa0",
      "gasUsed": "0xdf94",
      "effectiveGasPrice": "0x8fb5e4e50",
      "from": "0xefbbd14082cf2fbcf5badc7ee619f0f4e36d0a5b",
      "to": "0x8120a8e0688be6b2c0bb469f871e5e7023ca85eb",
      "contractAddress": null
    },
    {
      "status": "0x1",
      "cumulativeGasUsed": "0x27d00",
      "logs": [
        {
          "address": "0x8120a8e0688be6b2c0bb469f871e5e7023ca85eb",
          "topics": [
            "0x9ea6790c7dadfd01c9f8b9762b3682607af2c7e79e05a9f9fdf5580dde949151",
            "0x00000000000000000000000002edb431004d85c6e661331a9fe0118ae84d119a",
            "0x0000000000000000000000000000000000000000000000000000000000000001"
          ],
          "data": "0x20c5429b00000000000000000000000000000000000000000000000000000000",
          "blockHash": "0xc86c54e4c93ebbb7dc8a0ed2d180134bf3ebd5a4fbe3bc1e17f1c9cc503544d4",
          "blockNumber": "0xf8afa0",
          "transactionHash": "0x8fa24c5f9f3bdb5db478a71724646503537d4e8ec5e0da8eecfa7af37ff7c922",
          "transactionIndex": "0x1",
          "logIndex": "0x2",
          "removed": false
        },
        {
          "address": "0x8120a8e0688be6b2c0bb469f871e5e7023ca85eb",
          "topics": [
            "0x9ea6790c7dadfd01c9f8b9762b3682607af2c7e79e05a9f9fdf5580dde949151",
            "0x00000000000000000000000002edb431004d85c6e661331a9fe0118ae84d119a",
            "0x0000000000000000000000000000000000000000000000000000000000000001"
          ],
          "data": "0xb8adaa1100000000000000000000000000000000000000000000000000000000",
          "blockHash": "0xc86c54e4c93ebbb7dc8a0ed2d180134bf3ebd5a4fbe3bc1e17f1c9cc503544d4",
          "blockNumber": "0xf8afa0",
          "transactionHash": "0x8fa24c5f9f3bdb5db478a71724646503537d4e8ec5e0da8eecfa7af37ff7c922",
          "transactionIndex": "0x1",
          "logIndex": "0x3",
          "removed": false
        },
        {
          "address": "0x8120a8e0688be6b2c0bb469f871e5e7023ca85eb",
          "topics": [
            "0x9ea6790c7dadfd01c9f8b9762b3682607af2c7e79e05a9f9fdf5580dde949151",
            "0x00000000000000000000000002edb431004d85c6e661331a9fe0118ae84d119a",
            "0x0000000000000000000000000000000000000000000000000000000000000001"
          ],
          "data": "0xb759f95400000000000000000000000000000000000000000000000000000000",
          "blockHash": "0xc86c54e4c93ebbb7dc8a0ed2d180134bf3ebd5a4fbe3bc1e17f1c9cc503544d4",
          "blockNumber": "0xf8afa0",
          "transactionHash": "0x8fa24c5f9f3bdb5db478a71724646503537d4e8ec5e0da8eecfa7af37ff7c922",
          "transactionIndex": "0x1",
          "logIndex": "0x4",
          "removed": false
        },
        {
          "address": "0x0000000000000000000000000000000000001010",
          "topics": [
            "0x4dfe1bbbcf077ddc3e01291eea2d5c70c2b422b415d95645b9adcfd678cb1d63",
            "0x0000000000000000000000000000000000000000000000000000000000001010",
            "0x000000000000000000000000efbbd14082cf2fbcf5badc7ee619f0f4e36d0a5b",
            "0x0000000000000000000000006c095a53250dd250797ff915a716cca690ad8842"
          ],
          "data": "0x000000000000000000000000000000000000000000000000000e81513007e06c0000000000000000000000000000000000000000000000015cc4a70b99dbba860000000000000000000000000000000000000000000000f37dbf7882028b6e340000000000000000000000000000000000000000000000015cb625ba69d3da1a0000000000000000000000000000000000000000000000f37dcdf9d332934ea0",
          "blockHash": "0xc86c54e4c93ebbb7dc8a0ed2d180134bf3ebd5a4fbe3bc1e17f1c9cc503544d4",
          "blockNumber": "0xf8afa0",
          "transactionHash": "0x8fa24c5f9f3bdb5db478a71724646503537d4e8ec5e0da8eecfa7af37ff7c922",
          "transactionIndex": "0x1",
          "logIndex": "0x5",
          "removed": false
        }
      ],
      "logsBloom": "0x00000004000080000000000000000000000000000000000000000000000000000000000000000000000000000000000000008000000000000000000000040000008000000000000000000000000000800000000000040100000100000000000000000000000000000000000000000000000000000000040080000000000000000800000000000000400000000800000000000000000000040000000000000000200000000000000800008000000000000000400000000000008000000000004000000000000000000001000000220000000000000000000000100000000040000000000000000000000000000000000000000000000000000000000000100000",
      "type": "0x2",
      "transactionHash": "0x8fa24c5f9f3bdb5db478a71724646503537d4e8ec5e0da8eecfa7af37ff7c922",
      "transactionIndex": "0x1",
      "blockHash": "0xc86c54e4c93ebbb7dc8a0ed2d180134bf3ebd5a4fbe3bc1e17f1c9cc503544d4",
      "blockNumber": "0xf8afa0",
      "gasUsed": "0x19d6c",
      "effectiveGasPrice": "0x8fb5e4e50",
      "from": "0xefbbd14082cf2fbcf5badc7ee619f0f4e36d0a5b",
      "to": "0x8120a8e0688be6b2c0bb469f871e5e7023ca85eb",
      "contractAddress": null
    },
    {
      "status": "0x1",
      "cumulativeGasUsed": "0x41a78",
      "logs": [
        {
          "address": "0x8120a8e0688be6b2c0bb469f871e5e7023ca85eb",
          "topics": [
            "0x9ea6790c7dadfd01c9f8b9762b3682607af2c7e79e05a9f9fdf5580dde949151",
            "0x0000000000000000000000001314059a68e81aab9ee928c96434f99d4fa621bf",
            "0x0000000000000000000000000000000000000000000000000000000000000001"
          ],
          "data": "0xf6eea09800000000000000000000000000000000000000000000000000000000",
          "blockHash": "0xc86c54e4c93ebbb7dc8a0ed2d180134bf3ebd5a4fbe3bc1e17f1c9cc503544d4",
          "blockNumber": "0xf8afa0",
          "transactionHash": "0xfb91888da282323ebb5c1b3ec489a7028bc02215927c2c17d270f5e6c92a5ef9",
          "transactionIndex": "0x2",
          "logIndex": "0x6",
          "removed": false
        },
        {
          "address": "0x8120a8e0688be6b2c0bb469f871e5e7023ca85eb",
          "topics": [
            "0x9ea6790c7dadfd01c9f8b9762b3682607af2c7e79e05a9f9fdf5580dde949151",
            "0x0000000000000000000000001314059a68e81aab9ee928c96434f99d4fa621bf",
            "0x0000000000000000000000000000000000000000000000000000000000000001"
          ],
          "data": "0x74a8f10300000000000000000000000000000000000000000000000000000000",
          "blockHash": "0xc86c54e4c93ebbb7dc8a0ed2d180134bf3ebd5a4fbe3bc1e17f1c9cc503544d4",
          "blockNumber": "0xf8afa0",
          "transactionHash": "0xfb91888da282323ebb5c1b3ec489a7028bc02215927c2c17d270f5e6c92a5ef9",
          "transactionIndex": "0x2",
          "logIndex": "0x7",
          "removed": false
        },
        {
          "address": "0x8120a8e0688be6b2c0bb469f871e5e7023ca85eb",
          "topics": [
            "0x9ea6790c7dadfd01c9f8b9762b3682607af2c7e79e05a9f9fdf5580dde949151",
            "0x0000000000000000000000001314059a68e81aab9ee928c96434f99d4fa621bf",
            "0x0000000000000000000000000000000000000000000000000000000000000001"
          ],
          "data": "0xdaea85c500000000000000000000000000000000000000000000000000000000",
          "blockHash": "0xc86c54e4c93ebbb7dc8a0ed2d180134bf3ebd5a4fbe3bc1e17f1c9cc503544d4",
          "blockNumber": "0xf8afa0",
          "transactionHash": "0xfb91888da282323ebb5c1b3ec489a7028bc02215927c2c17d270f5e6c92a5ef9",
          "transactionIndex": "0x2",
          "logIndex": "0x8",
          "removed": false
        },
        {
          "address": "0x0000000000000000000000000000000000001010",
          "topics": [
            "0x4dfe1bbbcf077ddc3e01291eea2d5c70c2b422b415d95645b9adcfd678cb1d63",
            "0x0000000000000000000000000000000000000000000000000000000000001010",
            "0x000000000000000000000000efbbd14082cf2fbcf5badc7ee619f0f4e36d0a5b",
            "0x0000000000000000000000006c095a53250dd250797ff915a716cca690ad8842"
          ],
          "data": "0x000000000000000000000000000000000000000000000000000e81bcf8738b780000000000000000000000000000000000000000000000015cb625ba69bba0c60000000000000000000000000000000000000000000000f37dcdf9d332934ea00000000000000000000000000000000000000000000000015ca7a3fd7148154e0000000000000000000000000000000000000000000000f37ddc7b902b06da18",
          "blockHash": "0xc86c54e4c93ebbb7dc8a0ed2d180134bf3ebd5a4fbe3bc1e17f1c9cc503544d4",
          "blockNumber": "0xf8afa0",
          "transactionHash": "0xfb91888da282323ebb5c1b3ec489a7028bc02215927c2c17d270f5e6c92a5ef9",
          "transactionIndex": "0x2",
          "logIndex": "0x9",
          "removed": false
        }
      ],
      "logsBloom": "0x00000004000080000000008000000000000000000000000000000000000000000000000000000000000000000000000000008000000000000000000000040000008000000000000000000000000000800000000000040100000100000000000000000000000000000000000000000000000000000000040080000000000000000800000000000000400000000800000000000000000000000000000000000000200000000000000000008000000000000000400000000000008000000000004000000040000000000001000000200000000000000000200000100000000040000000000000000000000000000000000000000000000000000000000000100000",
      "type": "0x2",
      "transactionHash": "0xfb91888da282323ebb5c1b3ec489a7028bc02215927c2c17d270f5e6c92a5ef9",
      "transactionIndex": "0x2",
      "blockHash": "0xc86c54e4c93ebbb7dc8a0ed2d180134bf3ebd5a4fbe3bc1e17f1c9cc503544d4",
      "blockNumber": "0xf8afa0",
      "gasUsed": "0x19d78",
      "effectiveGasPrice": "0x8fb5e4e50",
      "from": "0xefbbd14082cf2fbcf5badc7ee619f0f4e36d0a5b",
      "to": "0x8120a8e0688be6b2c0bb469f871e5e7023ca85eb",
      "contractAddress": null
    },
    {
      "status": "0x1",
      "cumulativeGasUsed": "0x4bd2b",
      "logs": [
        {
          "address": "0x8120a8e0688be6b2c0bb469f871e5e7023ca85eb",
          "topics": [
            "0xf98448b987f1428e0e230e1f3c6e2ce15b5693eaf31827fbd0b1ec4b424ae7cf",
            "0x0000000000000000000000000000000000000000000000000000000000000002",
            "0x000000000000000000000000efbbd14082cf2fbcf5badc7ee619f0f4e36d0a5b"
          ],
          "data": "0x00000000000000000000000000000000000000000000000000000000000000000000000000000000000000000000000000000000000000000000000067745e0f0000000000000000000000000000000000000000000000000000000000000000",
          "blockHash": "0xc86c54e4c93ebbb7dc8a0ed2d180134bf3ebd5a4fbe3bc1e17f1c9cc503544d4",
          "blockNumber": "0xf8afa0",
          "transactionHash": "0x4e900435ae068057684152edcac490297953c175534c6c2ef0c489e505129006",
          "transactionIndex": "0x3",
          "logIndex": "0xa",
          "removed": false
        },
        {
          "address": "0x0000000000000000000000000000000000001010",
          "topics": [
            "0x4dfe1bbbcf077ddc3e01291eea2d5c70c2b422b415d95645b9adcfd678cb1d63",
            "0x0000000000000000000000000000000000000000000000000000000000001010",
            "0x000000000000000000000000efbbd14082cf2fbcf5badc7ee619f0f4e36d0a5b",
            "0x0000000000000000000000006c095a53250dd250797ff915a716cca690ad8842"
          ],
          "data": "0x0000000000000000000000000000000000000000000000000005b5597075d9730000000000000000000000000000000000000000000000015ca7a3fd712fdb460000000000000000000000000000000000000000000000f37ddc7b902b06da180000000000000000000000000000000000000000000000015ca1eea400ba01d30000000000000000000000000000000000000000000000f37de230e99b7cb38b",
          "blockHash": "0xc86c54e4c93ebbb7dc8a0ed2d180134bf3ebd5a4fbe3bc1e17f1c9cc503544d4",
          "blockNumber": "0xf8afa0",
          "transactionHash": "0x4e900435ae068057684152edcac490297953c175534c6c2ef0c489e505129006",
          "transactionIndex": "0x3",
          "logIndex": "0xb",
          "removed": false
        }
      ],
      "logsBloom": "0x0400000000000000000000000000000000000000000000000000000000000000000000000000000000000000000000000000800000000000000000000000000000800000000000000000000000000080000000000000010000010000000000000000000000000000000000000000000000000000000004008000000000000000080000000000000040000000080000000800000000000000000000000000000020000000000000000000a100000000000000400000000008008000000000004000000000000000000001000000000000000000000000000000100000000000000000000000000000000000000000000000000000008000000000000000100000",
      "type": "0x2",
      "transactionHash": "0x4e900435ae068057684152edcac490297953c175534c6c2ef0c489e505129006",
      "transactionIndex": "0x3",
      "blockHash": "0xc86c54e4c93ebbb7dc8a0ed2d180134bf3ebd5a4fbe3bc1e17f1c9cc503544d4",
      "blockNumber": "0xf8afa0",
      "gasUsed": "0xa2b3",
      "effectiveGasPrice": "0x8fb5e4e50",
      "from": "0xefbbd14082cf2fbcf5badc7ee619f0f4e36d0a5b",
      "to": "0x8120a8e0688be6b2c0bb469f871e5e7023ca85eb",
      "contractAddress": null
    },
    {
      "status": "0x1",
      "cumulativeGasUsed": "0x5fba5",
      "logs": [
        {
          "address": "0x8120a8e0688be6b2c0bb469f871e5e7023ca85eb",
          "topics": [
            "0x9ea6790c7dadfd01c9f8b9762b3682607af2c7e79e05a9f9fdf5580dde949151",
            "0x00000000000000000000000062b311794f287913df45de640bd37fca43ed00b0",
            "0x0000000000000000000000000000000000000000000000000000000000000002"
          ],
          "data": "0xdaea85c500000000000000000000000000000000000000000000000000000000",
          "blockHash": "0xc86c54e4c93ebbb7dc8a0ed2d180134bf3ebd5a4fbe3bc1e17f1c9cc503544d4",
          "blockNumber": "0xf8afa0",
          "transactionHash": "0x025b4924f03d950ed9d0608ae520697c7c6d6b95189eb34ccfca9f2c186f1aca",
          "transactionIndex": "0x4",
          "logIndex": "0xc",
          "removed": false
        },
        {
          "address": "0x8120a8e0688be6b2c0bb469f871e5e7023ca85eb",
          "topics": [
            "0x9ea6790c7dadfd01c9f8b9762b3682607af2c7e79e05a9f9fdf5580dde949151",
            "0x00000000000000000000000062b311794f287913df45de640bd37fca43ed00b0",
            "0x0000000000000000000000000000000000000000000000000000000000000002"
          ],
          "data": "0xab0da5a900000000000000000000000000000000000000000000000000000000",
          "blockHash": "0xc86c54e4c93ebbb7dc8a0ed2d180134bf3ebd5a4fbe3bc1e17f1c9cc503544d4",
          "blockNumber": "0xf8afa0",
          "transactionHash": "0x025b4924f03d950ed9d0608ae520697c7c6d6b95189eb34ccfca9f2c186f1aca",
          "transactionIndex": "0x4",
          "logIndex": "0xd",
          "removed": false
        },
        {
          "address": "0x0000000000000000000000000000000000001010",
          "topics": [
            "0x4dfe1bbbcf077ddc3e01291eea2d5c70c2b422b415d95645b9adcfd678cb1d63",
            "0x0000000000000000000000000000000000000000000000000000000000001010",
            "0x000000000000000000000000efbbd14082cf2fbcf5badc7ee619f0f4e36d0a5b",
            "0x0000000000000000000000006c095a53250dd250797ff915a716cca690ad8842"
          ],
          "data": "0x000000000000000000000000000000000000000000000000000b2c86f02608fa0000000000000000000000000000000000000000000000015ca1eea400b079560000000000000000000000000000000000000000000000f37de230e99b7cb38b0000000000000000000000000000000000000000000000015c96c21d108a705c0000000000000000000000000000000000000000000000f37ded5d708ba2bc85",
          "blockHash": "0xc86c54e4c93ebbb7dc8a0ed2d180134bf3ebd5a4fbe3bc1e17f1c9cc503544d4",
          "blockNumber": "0xf8afa0",
          "transactionHash": "0x025b4924f03d950ed9d0608ae520697c7c6d6b95189eb34ccfca9f2c186f1aca",
          "transactionIndex": "0x4",
          "logIndex": "0xe",
          "removed": false
        }
      ],
      "logsBloom": "0x04000004000080000000000000000000000000000000000000000400000000000000000000000000000000000000000000008000000000000800000000000000008000000000000000000000000000800000000000000100000100000000000000000000000000000000000000000000000000000000040080000000000000000800000000000000400000000800000000000000000000000000000000000000200000000000000000008100000000000000400000008000008000000000004000000000000000000001000000200000000000000000000000100000000000000000000000000000000000000000000000000000008000000000000000100000",
      "type": "0x2",
      "transactionHash": "0x025b4924f03d950ed9d0608ae520697c7c6d6b95189eb34ccfca9f2c186f1aca",
      "transactionIndex": "0x4",
      "blockHash": "0xc86c54e4c93ebbb7dc8a0ed2d180134bf3ebd5a4fbe3bc1e17f1c9cc503544d4",
      "blockNumber": "0xf8afa0",
      "gasUsed": "0x13e7a",
      "effectiveGasPrice": "0x8fb5e4e50",
      "from": "0xefbbd14082cf2fbcf5badc7ee619f0f4e36d0a5b",
      "to": "0x8120a8e0688be6b2c0bb469f871e5e7023ca85eb",
      "contractAddress": null
    },
    {
      "status": "0x1",
      "cumulativeGasUsed": "0x6e049",
      "logs": [
        {
          "address": "0x8120a8e0688be6b2c0bb469f871e5e7023ca85eb",
          "topics": [
            "0xf98448b987f1428e0e230e1f3c6e2ce15b5693eaf31827fbd0b1ec4b424ae7cf",
            "0x0000000000000000000000000000000000000000000000000000000000000004",
            "0x0000000000000000000000001aec26dccf4955e288420771bdb1252e427bad1d"
          ],
          "data": "0x00000000000000000000000000000000000000000000000000000000000000000000000000000000000000000000000000000000000000000000000067745e0f0000000000000000000000000000000000000000000000000000000000000001",
          "blockHash": "0xc86c54e4c93ebbb7dc8a0ed2d180134bf3ebd5a4fbe3bc1e17f1c9cc503544d4",
          "blockNumber": "0xf8afa0",
          "transactionHash": "0x09ae3db6d624d8d329d890f1133415c108ae28880f8f551d8e12fba05247ed92",
          "transactionIndex": "0x5",
          "logIndex": "0xf",
          "removed": false
        },
        {
          "address": "0x0000000000000000000000000000000000001010",
          "topics": [
            "0x4dfe1bbbcf077ddc3e01291eea2d5c70c2b422b415d95645b9adcfd678cb1d63",
            "0x0000000000000000000000000000000000000000000000000000000000001010",
            "0x000000000000000000000000efbbd14082cf2fbcf5badc7ee619f0f4e36d0a5b",
            "0x0000000000000000000000006c095a53250dd250797ff915a716cca690ad8842"
          ],
          "data": "0x000000000000000000000000000000000000000000000000000805a1061c05a40000000000000000000000000000000000000000000000015c96c21d1077c7360000000000000000000000000000000000000000000000f37ded5d708ba2bc850000000000000000000000000000000000000000000000015c8ebc7c0a5bc1920000000000000000000000000000000000000000000000f37df5631191bec229",
          "blockHash": "0xc86c54e4c93ebbb7dc8a0ed2d180134bf3ebd5a4fbe3bc1e17f1c9cc503544d4",
          "blockNumber": "0xf8afa0",
          "transactionHash": "0x09ae3db6d624d8d329d890f1133415c108ae28880f8f551d8e12fba05247ed92",
          "transactionIndex": "0x5",
          "logIndex": "0x10",
          "removed": false
        }
      ],
      "logsBloom": "0x0000000000000000000000000000000000000000000000000000000000000000000000000000000000000000000000000000800000000000000000000000000000800000020000000000000000000080000000000000010000010002000000000800000000000000000000000000000000000000000004008000000000000000080000000000000040040000080000000800000000000000000000000000000020000000000000000000a00000000000000040000000000800a000000000004000000000000000000001000000000000000000008000000000100000000000000000000000000000000000000000000000000000000000000000000000100000",
      "type": "0x2",
      "transactionHash": "0x09ae3db6d624d8d329d890f1133415c108ae28880f8f551d8e12fba05247ed92",
      "transactionIndex": "0x5",
      "blockHash": "0xc86c54e4c93ebbb7dc8a0ed2d180134bf3ebd5a4fbe3bc1e17f1c9cc503544d4",
      "blockNumber": "0xf8afa0",
      "gasUsed": "0xe4a4",
      "effectiveGasPrice": "0x8fb5e4e50",
      "from": "0xefbbd14082cf2fbcf5badc7ee619f0f4e36d0a5b",
      "to": "0x8120a8e0688be6b2c0bb469f871e5e7023ca85eb",
      "contractAddress": null
    },
    {
      "status": "0x1",
      "cumulativeGasUsed": "0x7c4ed",
      "logs": [
        {
          "address": "0x8120a8e0688be6b2c0bb469f871e5e7023ca85eb",
          "topics": [
            "0xf98448b987f1428e0e230e1f3c6e2ce15b5693eaf31827fbd0b1ec4b424ae7cf",
            "0x0000000000000000000000000000000000000000000000000000000000000004",
            "0x00000000000000000000000092365ff52f6f9891d42c925834a062660e4c3b3a"
          ],
          "data": "0x00000000000000000000000000000000000000000000000000000000000000000000000000000000000000000000000000000000000000000000000067745e0f0000000000000000000000000000000000000000000000000000000000000001",
          "blockHash": "0xc86c54e4c93ebbb7dc8a0ed2d180134bf3ebd5a4fbe3bc1e17f1c9cc503544d4",
          "blockNumber": "0xf8afa0",
          "transactionHash": "0x19d6e391b9d8a6047d262040a1974e2f6b4698a8b3ac913a9e39b3eea0f4a05e",
          "transactionIndex": "0x6",
          "logIndex": "0x11",
          "removed": false
        },
        {
          "address": "0x0000000000000000000000000000000000001010",
          "topics": [
            "0x4dfe1bbbcf077ddc3e01291eea2d5c70c2b422b415d95645b9adcfd678cb1d63",
            "0x0000000000000000000000000000000000000000000000000000000000001010",
            "0x000000000000000000000000efbbd14082cf2fbcf5badc7ee619f0f4e36d0a5b",
            "0x0000000000000000000000006c095a53250dd250797ff915a716cca690ad8842"
          ],
          "data": "0x000000000000000000000000000000000000000000000000000805a1061c05a40000000000000000000000000000000000000000000000015c8ebc7c0a4e5bf60000000000000000000000000000000000000000000000f37df5631191bec2290000000000000000000000000000000000000000000000015c86b6db043256520000000000000000000000000000000000000000000000f37dfd68b297dac7cd",
          "blockHash": "0xc86c54e4c93ebbb7dc8a0ed2d180134bf3ebd5a4fbe3bc1e17f1c9cc503544d4",
          "blockNumber": "0xf8afa0",
          "transactionHash": "0x19d6e391b9d8a6047d262040a1974e2f6b4698a8b3ac913a9e39b3eea0f4a05e",
          "transactionIndex": "0x6",
          "logIndex": "0x12",
          "removed": false
        }
      ],
      "logsBloom": "0x0000000000000000800000000000000000000000000000000000000000000000000000000000000000000000000000000000800000000000000000000000000000800000000000000000000000000180000000000000010000010000000000000800000000000000000000000000000000000000000004008000000000000000080000000000000040000000080000000800000000000000000000000000000020000000000000000000a00000000000000040000000000800a000000000004000000000000000000001000000000000000000008000000000100000000000000000000000000000000000000000000800000000000000000000000000100000",
      "type": "0x2",
      "transactionHash": "0x19d6e391b9d8a6047d262040a1974e2f6b4698a8b3ac913a9e39b3eea0f4a05e",
      "transactionIndex": "0x6",
      "blockHash": "0xc86c54e4c93ebbb7dc8a0ed2d180134bf3ebd5a4fbe3bc1e17f1c9cc503544d4",
      "blockNumber": "0xf8afa0",
      "gasUsed": "0xe4a4",
      "effectiveGasPrice": "0x8fb5e4e50",
      "from": "0xefbbd14082cf2fbcf5badc7ee619f0f4e36d0a5b",
      "to": "0x8120a8e0688be6b2c0bb469f871e5e7023ca85eb",
      "contractAddress": null
    },
    {
      "status": "0x1",
      "cumulativeGasUsed": "0xe4a4",
      "logs": [
        {
          "address": "0x8120a8e0688be6b2c0bb469f871e5e7023ca85eb",
          "topics": [
            "0xf98448b987f1428e0e230e1f3c6e2ce15b5693eaf31827fbd0b1ec4b424ae7cf",
            "0x0000000000000000000000000000000000000000000000000000000000000004",
            "0x0000000000000000000000001314059a68e81aab9ee928c96434f99d4fa621bf"
          ],
          "data": "0x00000000000000000000000000000000000000000000000000000000000000000000000000000000000000000000000000000000000000000000000067745e110000000000000000000000000000000000000000000000000000000000000001",
          "blockHash": "0x8c99211beaa384869888dd2922f08f4cedd152b27849ad9ac99594814d2cf439",
          "blockNumber": "0xf8afa1",
          "transactionHash": "0x378bd84bcdeb08d7dbb6e9181d54b96aed75aec12e35abc19e6529bfcfd3f41f",
          "transactionIndex": "0x0",
          "logIndex": "0x0",
          "removed": false
        },
        {
          "address": "0x0000000000000000000000000000000000001010",
          "topics": [
            "0x4dfe1bbbcf077ddc3e01291eea2d5c70c2b422b415d95645b9adcfd678cb1d63",
            "0x0000000000000000000000000000000000000000000000000000000000001010",
            "0x000000000000000000000000efbbd14082cf2fbcf5badc7ee619f0f4e36d0a5b",
            "0x0000000000000000000000006c095a53250dd250797ff915a716cca690ad8842"
          ],
          "data": "0x000000000000000000000000000000000000000000000000000805a1061c05a40000000000000000000000000000000000000000000000015c86b6db0424f0b60000000000000000000000000000000000000000000000f37dfd68b297dac7cd0000000000000000000000000000000000000000000000015c7eb139fe08eb120000000000000000000000000000000000000000000000f37e056e539df6cd71",
          "blockHash": "0x8c99211beaa384869888dd2922f08f4cedd152b27849ad9ac99594814d2cf439",
          "blockNumber": "0xf8afa1",
          "transactionHash": "0x378bd84bcdeb08d7dbb6e9181d54b96aed75aec12e35abc19e6529bfcfd3f41f",
          "transactionIndex": "0x0",
          "logIndex": "0x1",
          "removed": false
        }
      ],
      "logsBloom": "0x0000000000000000000000800000000000000000000000000000000000000000000000000000000000000000000000000000800000000000000000000000000000800000000000000000000000000080000000000000010000010000000000000800000000000000000000000000000000000000000004008000000000000000080000000000000040000000080000000800000000000000000000000000000020000000000000000000a00000000000000040000000000800a000000000004000000040000000000001000000000000000000008000200000100000000000000000000000000000000000000000000000000000000000000000000000100000",
      "type": "0x2",
      "transactionHash": "0x378bd84bcdeb08d7dbb6e9181d54b96aed75aec12e35abc19e6529bfcfd3f41f",
      "transactionIndex": "0x0",
      "blockHash": "0x8c99211beaa384869888dd2922f08f4cedd152b27849ad9ac99594814d2cf439",
      "blockNumber": "0xf8afa1",
      "gasUsed": "0xe4a4",
      "effectiveGasPrice": "0x8fb5e4e50",
      "from": "0xefbbd14082cf2fbcf5badc7ee619f0f4e36d0a5b",
      "to": "0x8120a8e0688be6b2c0bb469f871e5e7023ca85eb",
      "contractAddress": null
    },
    {
      "status": "0x1",
      "cumulativeGasUsed": "0x2821c",
      "logs": [
        {
          "address": "0x8120a8e0688be6b2c0bb469f871e5e7023ca85eb",
          "topics": [
            "0x9ea6790c7dadfd01c9f8b9762b3682607af2c7e79e05a9f9fdf5580dde949151",
            "0x0000000000000000000000003c811bc4876045228b37451edd29326c0b709f9a",
            "0x0000000000000000000000000000000000000000000000000000000000000004"
          ],
          "data": "0x4bbc170a00000000000000000000000000000000000000000000000000000000",
          "blockHash": "0x8c99211beaa384869888dd2922f08f4cedd152b27849ad9ac99594814d2cf439",
          "blockNumber": "0xf8afa1",
          "transactionHash": "0x624b5bfa236c2e078be02bdb7daa0dcb0b5cfb32e5ae85f5a37e517b56a74557",
          "transactionIndex": "0x1",
          "logIndex": "0x2",
          "removed": false
        },
        {
          "address": "0x8120a8e0688be6b2c0bb469f871e5e7023ca85eb",
          "topics": [
            "0x9ea6790c7dadfd01c9f8b9762b3682607af2c7e79e05a9f9fdf5580dde949151",
            "0x0000000000000000000000003c811bc4876045228b37451edd29326c0b709f9a",
            "0x0000000000000000000000000000000000000000000000000000000000000004"
          ],
          "data": "0x15f4150100000000000000000000000000000000000000000000000000000000",
          "blockHash": "0x8c99211beaa384869888dd2922f08f4cedd152b27849ad9ac99594814d2cf439",
          "blockNumber": "0xf8afa1",
          "transactionHash": "0x624b5bfa236c2e078be02bdb7daa0dcb0b5cfb32e5ae85f5a37e517b56a74557",
          "transactionIndex": "0x1",
          "logIndex": "0x3",
          "removed": false
        },
        {
          "address": "0x8120a8e0688be6b2c0bb469f871e5e7023ca85eb",
          "topics": [
            "0x9ea6790c7dadfd01c9f8b9762b3682607af2c7e79e05a9f9fdf5580dde949151",
            "0x0000000000000000000000003c811bc4876045228b37451edd29326c0b709f9a",
            "0x0000000000000000000000000000000000000000000000000000000000000004"
          ],
          "data": "0x9e96a26000000000000000000000000000000000000000000000000000000000",
          "blockHash": "0x8c99211beaa384869888dd2922f08f4cedd152b27849ad9ac99594814d2cf439",
          "blockNumber": "0xf8afa1",
          "transactionHash": "0x624b5bfa236c2e078be02bdb7daa0dcb0b5cfb32e5ae85f5a37e517b56a74557",
          "transactionIndex": "0x1",
          "logIndex": "0x4",
          "removed": false
        },
        {
          "address": "0x0000000000000000000000000000000000001010",
          "topics": [
            "0x4dfe1bbbcf077ddc3e01291eea2d5c70c2b422b415d95645b9adcfd678cb1d63",
            "0x0000000000000000000000000000000000000000000000000000000000001010",
            "0x000000000000000000000000efbbd14082cf2fbcf5badc7ee619f0f4e36d0a5b",
            "0x0000000000000000000000006c095a53250dd250797ff915a716cca690ad8842"
          ],
          "data": "0x000000000000000000000000000000000000000000000000000e81bcf8738b780000000000000000000000000000000000000000000000015c7eb139fdfb85760000000000000000000000000000000000000000000000f37e056e539df6cd710000000000000000000000000000000000000000000000015c702f7d0587f9fe0000000000000000000000000000000000000000000000f37e13f010966a58e9",
          "blockHash": "0x8c99211beaa384869888dd2922f08f4cedd152b27849ad9ac99594814d2cf439",
          "blockNumber": "0xf8afa1",
          "transactionHash": "0x624b5bfa236c2e078be02bdb7daa0dcb0b5cfb32e5ae85f5a37e517b56a74557",
          "transactionIndex": "0x1",
          "logIndex": "0x5",
          "removed": false
        }
      ],
      "logsBloom": "0x0000000400008000000000000000000000000000000000400000000000000000000000000000000000000000000000000000800000000000000000000000000000800000000000000000000000000080000000000000010000010000000000000800000000000000000000000000000000000000000004008000000000000000080000000000000040000000080000000000000000000000000000000000000020000000000000004000800000000000000040000000000000a000000000004000000000000000000001000000200000000000008000000000100000000000000000000000000000000000000000000000800000000000000000000000100000",
      "type": "0x2",
      "transactionHash": "0x624b5bfa236c2e078be02bdb7daa0dcb0b5cfb32e5ae85f5a37e517b56a74557",
      "transactionIndex": "0x1",
      "blockHash": "0x8c99211beaa384869888dd2922f08f4cedd152b27849ad9ac99594814d2cf439",
      "blockNumber": "0xf8afa1",
      "gasUsed": "0x19d78",
      "effectiveGasPrice": "0x8fb5e4e50",
      "from": "0xefbbd14082cf2fbcf5badc7ee619f0f4e36d0a5b",
      "to": "0x8120a8e0688be6b2c0bb469f871e5e7023ca85eb",
      "contractAddress": null
    },
    {
      "status": "0x1",
      "cumulativeGasUsed": "0x497ff",
      "logs": [
        {
          "address": "0x21beafdb4bf710abf9ccae207c01aa533857b230",
          "topics": [
            "0xfbbd6e9cc51f124b05f08f20e9aef57fb26fc9a927be06212c59506610581335",
            "0x0000000000000000000000003c7deb6feaeb7a82bde580fb73d8d69c401b219e",
            "0x000000000000000000000000efbbd14082cf2fbcf5badc7ee619f0f4e36d0a5b"
          ],
          "data": "0x00000000000000000000000000000000000000000000000000000000000001f40000000000000000000000000000000000000000000000000000000000000002",
          "blockHash": "0x8c99211beaa384869888dd2922f08f4cedd152b27849ad9ac99594814d2cf439",
          "blockNumber": "0xf8afa1",
          "transactionHash": "0x4fd2e3e7959976dc6a813ee385ec386f5d313fbd079dc7b6a5cd662100c56d26",
          "transactionIndex": "0x2",
          "logIndex": "0x6",
          "removed": false
        },
        {
          "address": "0x0000000000000000000000000000000000001010",
          "topics": [
            "0x4dfe1bbbcf077ddc3e01291eea2d5c70c2b422b415d95645b9adcfd678cb1d63",
            "0x0000000000000000000000000000000000000000000000000000000000001010",
            "0x000000000000000000000000efbbd14082cf2fbcf5badc7ee619f0f4e36d0a5b",
            "0x0000000000000000000000006c095a53250dd250797ff915a716cca690ad8842"
          ],
          "data": "0x0000000000000000000000000000000000000000000000000012bb523d8cb8a30000000000000000000000000000000000000000000000015c702f7d056fbff60000000000000000000000000000000000000000000000f37e13f010966a58e90000000000000000000000000000000000000000000000015c5d742ac7e307530000000000000000000000000000000000000000000000f37e26ab62d3f7118c",
          "blockHash": "0x8c99211beaa384869888dd2922f08f4cedd152b27849ad9ac99594814d2cf439",
          "blockNumber": "0xf8afa1",
          "transactionHash": "0x4fd2e3e7959976dc6a813ee385ec386f5d313fbd079dc7b6a5cd662100c56d26",
          "transactionIndex": "0x2",
          "logIndex": "0x7",
          "removed": false
        }
      ],
      "logsBloom": "0x00000000000000000000800000000000000000000000000000800000000000000000000000000000000000000000000000008000000000000000000000000000008000200000000000000000000000800000000000000020000100000000000000001000000000400000000000000000000000000000040080000000004000000810000000000000400000000000000000000000000000000000000000000000200000000000000000008000000000000000400000000000000000000000004000000000000000000001000000000000000000000000000000100000000000000000000000000000000000000000000000000000000001000000000000100000",
      "type": "0x2",
      "transactionHash": "0x4fd2e3e7959976dc6a813ee385ec386f5d313fbd079dc7b6a5cd662100c56d26",
      "transactionIndex": "0x2",
      "blockHash": "0x8c99211beaa384869888dd2922f08f4cedd152b27849ad9ac99594814d2cf439",
      "blockNumber": "0xf8afa1",
      "gasUsed": "0x215e3",
      "effectiveGasPrice": "0x8fb5e4e50",
      "from": "0xefbbd14082cf2fbcf5badc7ee619f0f4e36d0a5b",
      "to": "0x21beafdb4bf710abf9ccae207c01aa533857b230",
      "contractAddress": null
    },
    {
      "status": "0x1",
      "cumulativeGasUsed": "0x6ae07",
      "logs": [
        {
          "address": "0x21beafdb4bf710abf9ccae207c01aa533857b230",
          "topics": [
            "0xfbbd6e9cc51f124b05f08f20e9aef57fb26fc9a927be06212c59506610581335",
            "0x0000000000000000000000003c7deb6feaeb7a82bde580fb73d8d69c401b219e",
            "0x000000000000000000000000efbbd14082cf2fbcf5badc7ee619f0f4e36d0a5b"
          ],
          "data": "0x0000000000000000000000000000000000000000000000056bc75e2d631000000000000000000000000000000000000000000000000000000000000000000001",
          "blockHash": "0x8c99211beaa384869888dd2922f08f4cedd152b27849ad9ac99594814d2cf439",
          "blockNumber": "0xf8afa1",
          "transactionHash": "0xd42886a2b7c87d852186f41bfc94d12f7e45b59ec54dc78a04095f06d0be1b77",
          "transactionIndex": "0x3",
          "logIndex": "0x8",
          "removed": false
        },
        {
          "address": "0x0000000000000000000000000000000000001010",
          "topics": [
            "0x4dfe1bbbcf077ddc3e01291eea2d5c70c2b422b415d95645b9adcfd678cb1d63",
            "0x0000000000000000000000000000000000000000000000000000000000001010",
            "0x000000000000000000000000efbbd14082cf2fbcf5badc7ee619f0f4e36d0a5b",
            "0x0000000000000000000000006c095a53250dd250797ff915a716cca690ad8842"
          ],
          "data": "0x0000000000000000000000000000000000000000000000000012bc9e922e08080000000000000000000000000000000000000000000000015c5d742ac7c3bf060000000000000000000000000000000000000000000000f37e26ab62d3f7118c0000000000000000000000000000000000000000000000015c4ab78c3595b6fe0000000000000000000000000000000000000000000000f37e39680166251994",
          "blockHash": "0x8c99211beaa384869888dd2922f08f4cedd152b27849ad9ac99594814d2cf439",
          "blockNumber": "0xf8afa1",
          "transactionHash": "0xd42886a2b7c87d852186f41bfc94d12f7e45b59ec54dc78a04095f06d0be1b77",
          "transactionIndex": "0x3",
          "logIndex": "0x9",
          "removed": false
        }
      ],
      "logsBloom": "0x00000000000000000000800000000000000000000000000000800000000000000000000000000000000000000000000000008000000000000000000000000000008000200000000000000000000000800000000000000020000100000000000000001000000000400000000000000000000000000000040080000000004000000810000000000000400000000000000000000000000000000000000000000000200000000000000000008000000000000000400000000000000000000000004000000000000000000001000000000000000000000000000000100000000000000000000000000000000000000000000000000000000001000000000000100000",
      "type": "0x2",
      "transactionHash": "0xd42886a2b7c87d852186f41bfc94d12f7e45b59ec54dc78a04095f06d0be1b77",
      "transactionIndex": "0x3",
      "blockHash": "0x8c99211beaa384869888dd2922f08f4cedd152b27849ad9ac99594814d2cf439",
      "blockNumber": "0xf8afa1",
      "gasUsed": "0x21608",
      "effectiveGasPrice": "0x8fb5e4e50",
      "from": "0xefbbd14082cf2fbcf5badc7ee619f0f4e36d0a5b",
      "to": "0x21beafdb4bf710abf9ccae207c01aa533857b230",
      "contractAddress": null
    }
  ],
  "libraries": [],
  "pending": [],
  "returns": {},
  "timestamp": 1735679506,
  "chain": 80002,
  "commit": "0178cdc"
}