{
  "transactions": [
    {
      "hash": "0x5831d05c54643d95ae24a51165c50c6650e3411c3e8d8993c53b53f3219e8220",
      "transactionType": "CALL",
      "contractName": null,
      "contractAddress": "0x9ce8b9b6f4f1084d87f8361cb05d69dd8e837027",
      "function": "submit(address)",
      "arguments": [
        "0x6fB721475E299D4BC952e871A25D1C1417f503Cc"
      ],
      "transaction": {
        "from": "0xefbbd14082cf2fbcf5badc7ee619f0f4e36d0a5b",
        "to": "0x9ce8b9b6f4f1084d87f8361cb05d69dd8e837027",
        "gas": "0x12772",
        "value": "0x0",
        "input": "0xa1903eab0000000000000000000000006fb721475e299d4bc952e871a25d1c1417f503cc",
        "nonce": "0x7b8",
        "chainId": "0x13882"
      },
      "additionalContracts": [],
      "isFixedGasLimit": false
    },
    {
      "hash": "0x31a3780d29685c2327c4a130382bea0e80d2c6fc659392a3fe319764458cac93",
      "transactionType": "CALL",
      "contractName": null,
      "contractAddress": "0x9ce8b9b6f4f1084d87f8361cb05d69dd8e837027",
      "function": "approve(address)",
      "arguments": [
        "0x6fB721475E299D4BC952e871A25D1C1417f503Cc"
      ],
      "transaction": {
        "from": "0xefbbd14082cf2fbcf5badc7ee619f0f4e36d0a5b",
        "to": "0x9ce8b9b6f4f1084d87f8361cb05d69dd8e837027",
        "gas": "0x12fd3",
        "value": "0x0",
        "input": "0xdaea85c50000000000000000000000006fb721475e299d4bc952e871a25d1c1417f503cc",
        "nonce": "0x7b9",
        "chainId": "0x13882"
      },
      "additionalContracts": [],
      "isFixedGasLimit": false
    }
  ],
  "receipts": [
    {
      "status": "0x1",
      "cumulativeGasUsed": "0x198a1",
      "logs": [
        {
          "address": "0x9ce8b9b6f4f1084d87f8361cb05d69dd8e837027",
          "topics": [
            "0xd7c8ffb69ce4fbe7f0929df8c08a9cf027e3daf5703f862dd527537519fd5b80",
            "0x0000000000000000000000006fb721475e299d4bc952e871a25d1c1417f503cc"
          ],
          "data": "0x000000000000000000000000efbbd14082cf2fbcf5badc7ee619f0f4e36d0a5b",
          "blockHash": "0xd3eeb17e3fbc70f930c6277b89653399350bc0cef7b864afeb4c600621e5797c",
          "blockNumber": "0xf1c770",
          "transactionHash": "0x5831d05c54643d95ae24a51165c50c6650e3411c3e8d8993c53b53f3219e8220",
          "transactionIndex": "0x1",
          "logIndex": "0x2",
          "removed": false
        },
        {
          "address": "0x0000000000000000000000000000000000001010",
          "topics": [
            "0x4dfe1bbbcf077ddc3e01291eea2d5c70c2b422b415d95645b9adcfd678cb1d63",
            "0x0000000000000000000000000000000000000000000000000000000000001010",
            "0x000000000000000000000000efbbd14082cf2fbcf5badc7ee619f0f4e36d0a5b",
            "0x0000000000000000000000004631753190f2f5a15a7ba172bbac102b7d95fa22"
          ],
          "data": "0x0000000000000000000000000000000000000000000000000004dd0d82771c00000000000000000000000000000000000000000000000000e6b7847aba28c42e0000000000000000000000000000000000000000000003b08150e3a648f78efe000000000000000000000000000000000000000000000000e6b2a76d37b1a82e0000000000000000000000000000000000000000000003b08155c0b3cb6eaafe",
          "blockHash": "0xd3eeb17e3fbc70f930c6277b89653399350bc0cef7b864afeb4c600621e5797c",
          "blockNumber": "0xf1c770",
          "transactionHash": "0x5831d05c54643d95ae24a51165c50c6650e3411c3e8d8993c53b53f3219e8220",
          "transactionIndex": "0x1",
          "logIndex": "0x3",
          "removed": false
        }
      ],
      "logsBloom": "0x00000000000000000000000000000000000000002000000000000000000000000000000800000000000000000000000000008000000000000000000040000000008000004000000000000000000000800000000000000000000100000000010000000000000000100000000000000000000000020000000080000000000000010800000000000000000000000000000000000000000000000000000000000000200000000000000000000000000000000000400000000000000000000000004000000100000000000001000000000000000000000000004000100000000000000000040000000000000000000000000000000200000000000000000000100000",
      "type": "0x2",
      "transactionHash": "0x5831d05c54643d95ae24a51165c50c6650e3411c3e8d8993c53b53f3219e8220",
      "transactionIndex": "0x1",
      "blockHash": "0xd3eeb17e3fbc70f930c6277b89653399350bc0cef7b864afeb4c600621e5797c",
      "blockNumber": "0xf1c770",
      "gasUsed": "0xd5e6",
      "effectiveGasPrice": "0x5d21dba0f",
      "from": "0xefbbd14082cf2fbcf5badc7ee619f0f4e36d0a5b",
      "to": "0x9ce8b9b6f4f1084d87f8361cb05d69dd8e837027",
      "contractAddress": null
    },
    {
      "status": "0x1",
      "cumulativeGasUsed": "0x3e097",
      "logs": [
        {
          "address": "0x9ce8b9b6f4f1084d87f8361cb05d69dd8e837027",
          "topics": [
            "0x65b8e9ac9ab64091da36d1b07196f246dbab404b8fc03911717d626789b9567a",
            "0x0000000000000000000000006fb721475e299d4bc952e871a25d1c1417f503cc"
          ],
          "data": "0x000000000000000000000000efbbd14082cf2fbcf5badc7ee619f0f4e36d0a5b",
          "blockHash": "0xd3eeb17e3fbc70f930c6277b89653399350bc0cef7b864afeb4c600621e5797c",
          "blockNumber": "0xf1c770",
          "transactionHash": "0x31a3780d29685c2327c4a130382bea0e80d2c6fc659392a3fe319764458cac93",
          "transactionIndex": "0x3",
          "logIndex": "0x6",
          "removed": false
        },
        {
          "address": "0x0000000000000000000000000000000000001010",
          "topics": [
            "0x4dfe1bbbcf077ddc3e01291eea2d5c70c2b422b415d95645b9adcfd678cb1d63",
            "0x0000000000000000000000000000000000000000000000000000000000001010",
            "0x000000000000000000000000efbbd14082cf2fbcf5badc7ee619f0f4e36d0a5b",
            "0x0000000000000000000000004631753190f2f5a15a7ba172bbac102b7d95fa22"
          ],
          "data": "0x0000000000000000000000000000000000000000000000000005005d28cc7600000000000000000000000000000000000000000000000000e6b2a76d37a51fb40000000000000000000000000000000000000000000003b0815e07703dc8f0fe000000000000000000000000000000000000000000000000e6ada7100ed8a9b40000000000000000000000000000000000000000000003b0816307cd669566fe",
          "blockHash": "0xd3eeb17e3fbc70f930c6277b89653399350bc0cef7b864afeb4c600621e5797c",
          "blockNumber": "0xf1c770",
          "transactionHash": "0x31a3780d29685c2327c4a130382bea0e80d2c6fc659392a3fe319764458cac93",
          "transactionIndex": "0x3",
          "logIndex": "0x7",
          "removed": false
        }
      ],
      "logsBloom": "0x00000000000080000000000000000000000000002000000000000000000000000000000000000000000000000000000000008000000000000000000040000000008000000000000000000000000000800000000000000000000100000000010000000000000000100000000000000008000000020000000080000000000000010800000000000000000000000000000000000000000000000000000000000000200000000000000000000000000000000000400000000000000000000000004000000000000000000001000000000000000000000000004000100000000000000000040000000000000000000008000000000200000000000000000000100000",
      "type": "0x2",
      "transactionHash": "0x31a3780d29685c2327c4a130382bea0e80d2c6fc659392a3fe319764458cac93",
      "transactionIndex": "0x3",
      "blockHash": "0xd3eeb17e3fbc70f930c6277b89653399350bc0cef7b864afeb4c600621e5797c",
      "blockNumber": "0xf1c770",
      "gasUsed": "0xdbf7",
      "effectiveGasPrice": "0x5d21dba0f",
      "from": "0xefbbd14082cf2fbcf5badc7ee619f0f4e36d0a5b",
      "to": "0x9ce8b9b6f4f1084d87f8361cb05d69dd8e837027",
      "contractAddress": null
    }
  ],
  "libraries": [],
  "pending": [],
  "returns": {},
  "timestamp": 1734716202,
  "chain": 80002,
  "commit": "66cd11d"
}