{
  "transactions": [
    {
      "hash": "0x15f68c9d7f1f2d46ee8b9c24763d653f8146e23719413b33657af298ff9781d7",
      "transactionType": "CALL",
      "contractName": null,
      "contractAddress": "0x0e39d12d35a5153f9c208117a794aa231422a05c",
      "function": "submit(address)",
      "arguments": [
        "0x457ce882bf27905143bdd1448A9E869fE8A8ABFc"
      ],
      "transaction": {
        "from": "0xefbbd14082cf2fbcf5badc7ee619f0f4e36d0a5b",
        "to": "0x0e39d12d35a5153f9c208117a794aa231422a05c",
        "gas": "0x12772",
        "value": "0x0",
        "input": "0xa1903eab000000000000000000000000457ce882bf27905143bdd1448a9e869fe8a8abfc",
        "nonce": "0x6c3",
        "chainId": "0x13882"
      },
      "additionalContracts": [],
      "isFixedGasLimit": false
    },
    {
      "hash": "0xaec2faf096db440b676b1a52252995e3af59c369dca584a4d3ded06db69d28bc",
      "transactionType": "CALL",
      "contractName": null,
      "contractAddress": "0x0e39d12d35a5153f9c208117a794aa231422a05c",
      "function": "approve(address)",
      "arguments": [
        "0x457ce882bf27905143bdd1448A9E869fE8A8ABFc"
      ],
      "transaction": {
        "from": "0xefbbd14082cf2fbcf5badc7ee619f0f4e36d0a5b",
        "to": "0x0e39d12d35a5153f9c208117a794aa231422a05c",
        "gas": "0x12fd3",
        "value": "0x0",
        "input": "0xdaea85c5000000000000000000000000457ce882bf27905143bdd1448a9e869fe8a8abfc",
        "nonce": "0x6c4",
        "chainId": "0x13882"
      },
      "additionalContracts": [],
      "isFixedGasLimit": false
    }
  ],
  "receipts": [
    {
      "status": "0x1",
      "cumulativeGasUsed": "0x1dc56",
      "logs": [
        {
          "address": "0x0e39d12d35a5153f9c208117a794aa231422a05c",
          "topics": [
            "0xd7c8ffb69ce4fbe7f0929df8c08a9cf027e3daf5703f862dd527537519fd5b80",
            "0x000000000000000000000000457ce882bf27905143bdd1448a9e869fe8a8abfc"
          ],
          "data": "0x000000000000000000000000efbbd14082cf2fbcf5badc7ee619f0f4e36d0a5b",
          "blockHash": "0x7218f556b7761a98c98e17aa83f561faabec0cf0698828e9b7447b3dd6a8ad63",
          "blockNumber": "0xdfec03",
          "transactionHash": "0x15f68c9d7f1f2d46ee8b9c24763d653f8146e23719413b33657af298ff9781d7",
          "transactionIndex": "0x2",
          "logIndex": "0x4",
          "removed": false
        },
        {
          "address": "0x0000000000000000000000000000000000001010",
          "topics": [
            "0x4dfe1bbbcf077ddc3e01291eea2d5c70c2b422b415d95645b9adcfd678cb1d63",
            "0x0000000000000000000000000000000000000000000000000000000000001010",
            "0x000000000000000000000000efbbd14082cf2fbcf5badc7ee619f0f4e36d0a5b",
            "0x0000000000000000000000006dc2dd54f24979ec26212794c71afefed722280c"
          ],
          "data": "0x0000000000000000000000000000000000000000000000000004dd0d82771c00000000000000000000000000000000000000000000000000483ec37c922a85c200000000000000000000000000000000000000000000041c8c6e978a9261c4bc0000000000000000000000000000000000000000000000004839e66f0fb369c200000000000000000000000000000000000000000000041c8c73749814d8e0bc",
          "blockHash": "0x7218f556b7761a98c98e17aa83f561faabec0cf0698828e9b7447b3dd6a8ad63",
          "blockNumber": "0xdfec03",
          "transactionHash": "0x15f68c9d7f1f2d46ee8b9c24763d653f8146e23719413b33657af298ff9781d7",
          "transactionIndex": "0x2",
          "logIndex": "0x5",
          "removed": false
        }
      ],
      "logsBloom": "0x00000000000000000000000000000000000000000000000000000400000040000000000800000000000000000000000000008000000000000000000000000200008000004000000000000000000000800000000000000000000100080000000000100000000000000000000000000000000000000000000080000200000000020800000000000000000000000040000000000000000000000000000000000000200000000000000000000000000000000000400000000000000000000000004000000100000000000001000000000000000000000000000000100000000000000000000000000000000000000000000000000000000000000000000000100000",
      "type": "0x2",
      "transactionHash": "0x15f68c9d7f1f2d46ee8b9c24763d653f8146e23719413b33657af298ff9781d7",
      "transactionIndex": "0x2",
      "blockHash": "0x7218f556b7761a98c98e17aa83f561faabec0cf0698828e9b7447b3dd6a8ad63",
      "blockNumber": "0xdfec03",
      "gasUsed": "0xd5e6",
      "effectiveGasPrice": "0x5d21dba0f",
      "from": "0xefbbd14082cf2fbcf5badc7ee619f0f4e36d0a5b",
      "to": "0x0e39d12d35a5153f9c208117a794aa231422a05c",
      "contractAddress": null
    },
    {
      "status": "0x1",
      "cumulativeGasUsed": "0x33b85",
      "logs": [
        {
          "address": "0x0e39d12d35a5153f9c208117a794aa231422a05c",
          "topics": [
            "0x65b8e9ac9ab64091da36d1b07196f246dbab404b8fc03911717d626789b9567a",
            "0x000000000000000000000000457ce882bf27905143bdd1448a9e869fe8a8abfc"
          ],
          "data": "0x000000000000000000000000efbbd14082cf2fbcf5badc7ee619f0f4e36d0a5b",
          "blockHash": "0x7218f556b7761a98c98e17aa83f561faabec0cf0698828e9b7447b3dd6a8ad63",
          "blockNumber": "0xdfec03",
          "transactionHash": "0xaec2faf096db440b676b1a52252995e3af59c369dca584a4d3ded06db69d28bc",
          "transactionIndex": "0x4",
          "logIndex": "0x8",
          "removed": false
        },
        {
          "address": "0x0000000000000000000000000000000000001010",
          "topics": [
            "0x4dfe1bbbcf077ddc3e01291eea2d5c70c2b422b415d95645b9adcfd678cb1d63",
            "0x0000000000000000000000000000000000000000000000000000000000001010",
            "0x000000000000000000000000efbbd14082cf2fbcf5badc7ee619f0f4e36d0a5b",
            "0x0000000000000000000000006dc2dd54f24979ec26212794c71afefed722280c"
          ],
          "data": "0x0000000000000000000000000000000000000000000000000005005d28cc76000000000000000000000000000000000000000000000000004839e66f0fa6e14800000000000000000000000000000000000000000000041c8c767063418790bc0000000000000000000000000000000000000000000000004834e611e6da6b4800000000000000000000000000000000000000000000041c8c7b70c06a5406bc",
          "blockHash": "0x7218f556b7761a98c98e17aa83f561faabec0cf0698828e9b7447b3dd6a8ad63",
          "blockNumber": "0xdfec03",
          "transactionHash": "0xaec2faf096db440b676b1a52252995e3af59c369dca584a4d3ded06db69d28bc",
          "transactionIndex": "0x4",
          "logIndex": "0x9",
          "removed": false
        }
      ],
      "logsBloom": "0x00000000000080000000000000000000000000000000000000000400000040000000000000000000000000000000000000008000000000000000000000000200008000000000000000000000000000800000000000000000000100080000000000100000000000000000000000000008000000000000000080000200000000020800000000000000000000000040000000000000000000000000000000000000200000000000000000000000000000000000400000000000000000000000004000000000000000000001000000000000000000000000000000100000000000000000000000000000000000000008000000000000000000000000000000100000",
      "type": "0x2",
      "transactionHash": "0xaec2faf096db440b676b1a52252995e3af59c369dca584a4d3ded06db69d28bc",
      "transactionIndex": "0x4",
      "blockHash": "0x7218f556b7761a98c98e17aa83f561faabec0cf0698828e9b7447b3dd6a8ad63",
      "blockNumber": "0xdfec03",
      "gasUsed": "0xdbf7",
      "effectiveGasPrice": "0x5d21dba0f",
      "from": "0xefbbd14082cf2fbcf5badc7ee619f0f4e36d0a5b",
      "to": "0x0e39d12d35a5153f9c208117a794aa231422a05c",
      "contractAddress": null
    }
  ],
  "libraries": [],
  "pending": [],
  "returns": {},
  "timestamp": 1732146080,
  "chain": 80002,
  "commit": "7027805"
}