{
  "transactions": [
    {
      "hash": "0xc90f23f4c62224f87d90e2394773d27119d66820e45cfa3907a26f02a09f641d",
      "transactionType": "CALL",
      "contractName": null,
      "contractAddress": "0xbb0b7ce7af68b81834a6c8e5fa9d5f981c828e61",
      "function": "submit(address)",
      "arguments": [
        "0x1beb2AF7aBD05bD4aC527f4d994C2BA580e0a136"
      ],
      "transaction": {
        "from": "0xefbbd14082cf2fbcf5badc7ee619f0f4e36d0a5b",
        "to": "0xbb0b7ce7af68b81834a6c8e5fa9d5f981c828e61",
        "gas": "0x12772",
        "value": "0x0",
        "input": "0xa1903eab0000000000000000000000001beb2af7abd05bd4ac527f4d994c2ba580e0a136",
        "nonce": "0x605",
        "chainId": "0x13882"
      },
      "additionalContracts": [],
      "isFixedGasLimit": false
    },
    {
      "hash": "0xb0f3d7b8e2811bb5aa763cc97ca5c218e0f31cba0da4a15923e6e7128576d610",
      "transactionType": "CALL",
      "contractName": null,
      "contractAddress": "0xbb0b7ce7af68b81834a6c8e5fa9d5f981c828e61",
      "function": "approve(address)",
      "arguments": [
        "0x1beb2AF7aBD05bD4aC527f4d994C2BA580e0a136"
      ],
      "transaction": {
        "from": "0xefbbd14082cf2fbcf5badc7ee619f0f4e36d0a5b",
        "to": "0xbb0b7ce7af68b81834a6c8e5fa9d5f981c828e61",
        "gas": "0x12fd3",
        "value": "0x0",
        "input": "0xdaea85c50000000000000000000000001beb2af7abd05bd4ac527f4d994c2ba580e0a136",
        "nonce": "0x606",
        "chainId": "0x13882"
      },
      "additionalContracts": [],
      "isFixedGasLimit": false
    }
  ],
  "receipts": [
    {
      "status": "0x1",
      "cumulativeGasUsed": "0x5ce7c",
      "logs": [
        {
          "address": "0xbb0b7ce7af68b81834a6c8e5fa9d5f981c828e61",
          "topics": [
            "0xd7c8ffb69ce4fbe7f0929df8c08a9cf027e3daf5703f862dd527537519fd5b80",
            "0x0000000000000000000000001beb2af7abd05bd4ac527f4d994c2ba580e0a136"
          ],
          "data": "0x000000000000000000000000efbbd14082cf2fbcf5badc7ee619f0f4e36d0a5b",
          "blockHash": "0x1ddb4f9a1eea32e25bd39742029258f95bc75b6c23fdf9bc8d75758372ba842b",
          "blockNumber": "0xdcae41",
          "transactionHash": "0xc90f23f4c62224f87d90e2394773d27119d66820e45cfa3907a26f02a09f641d",
          "transactionIndex": "0x3",
          "logIndex": "0x9",
          "removed": false
        },
        {
          "address": "0x0000000000000000000000000000000000001010",
          "topics": [
            "0x4dfe1bbbcf077ddc3e01291eea2d5c70c2b422b415d95645b9adcfd678cb1d63",
            "0x0000000000000000000000000000000000000000000000000000000000001010",
            "0x000000000000000000000000efbbd14082cf2fbcf5badc7ee619f0f4e36d0a5b",
            "0x0000000000000000000000006dc2dd54f24979ec26212794c71afefed722280c"
          ],
          "data": "0x000000000000000000000000000000000000000000000000000e9728876554000000000000000000000000000000000000000000000000000a3ea33280414971000000000000000000000000000000000000000000000407d9865c55f563cac60000000000000000000000000000000000000000000000000a300c09f8dbf571000000000000000000000000000000000000000000000407d994f37e7cc91ec6",
          "blockHash": "0x1ddb4f9a1eea32e25bd39742029258f95bc75b6c23fdf9bc8d75758372ba842b",
          "blockNumber": "0xdcae41",
          "transactionHash": "0xc90f23f4c62224f87d90e2394773d27119d66820e45cfa3907a26f02a09f641d",
          "transactionIndex": "0x3",
          "logIndex": "0xa",
          "removed": false
        }
      ],
      "logsBloom": "0x00000000000000000000000000000000000000000000000000000000000000000000000800000000000000000000000000008000000000000000000000000800008000004000000000000000000000800000000000000000000100080000040000000000000000000000000000000000000000000000000080000000000000020810000000000000000000000040000000000000000000000000000000000000200000000000000000000000000004000000400000000010000000000000004000000100000000000001000000000000000000000080000000100000000000000000000000000000000000000000000000000000000000000000000000100000",
      "type": "0x2",
      "transactionHash": "0xc90f23f4c62224f87d90e2394773d27119d66820e45cfa3907a26f02a09f641d",
      "transactionIndex": "0x3",
      "blockHash": "0x1ddb4f9a1eea32e25bd39742029258f95bc75b6c23fdf9bc8d75758372ba842b",
      "blockNumber": "0xdcae41",
      "gasUsed": "0xd5e6",
      "effectiveGasPrice": "0x1176592e0f",
      "from": "0xefbbd14082cf2fbcf5badc7ee619f0f4e36d0a5b",
      "to": "0xbb0b7ce7af68b81834a6c8e5fa9d5f981c828e61",
      "contractAddress": null
    },
    {
      "status": "0x1",
      "cumulativeGasUsed": "0x6862f",
      "logs": [
        {
          "address": "0xbb0b7ce7af68b81834a6c8e5fa9d5f981c828e61",
          "topics": [
            "0x65b8e9ac9ab64091da36d1b07196f246dbab404b8fc03911717d626789b9567a",
            "0x0000000000000000000000001beb2af7abd05bd4ac527f4d994c2ba580e0a136"
          ],
          "data": "0x000000000000000000000000efbbd14082cf2fbcf5badc7ee619f0f4e36d0a5b",
          "blockHash": "0x60a77c270ea54141562b512f964ca0a61a85c3351d7e5efba8b2c3c845e8420d",
          "blockNumber": "0xdcae44",
          "transactionHash": "0xb0f3d7b8e2811bb5aa763cc97ca5c218e0f31cba0da4a15923e6e7128576d610",
          "transactionIndex": "0x4",
          "logIndex": "0xd",
          "removed": false
        },
        {
          "address": "0x0000000000000000000000000000000000001010",
          "topics": [
            "0x4dfe1bbbcf077ddc3e01291eea2d5c70c2b422b415d95645b9adcfd678cb1d63",
            "0x0000000000000000000000000000000000000000000000000000000000001010",
            "0x000000000000000000000000efbbd14082cf2fbcf5badc7ee619f0f4e36d0a5b",
            "0x0000000000000000000000006dc2dd54f24979ec26212794c71afefed722280c"
          ],
          "data": "0x000000000000000000000000000000000000000000000000000f01177a6562000000000000000000000000000000000000000000000000000a300c09f8cf6cf7000000000000000000000000000000000000000000000407da78fcd5075d4ed70000000000000000000000000000000000000000000000000a210af27e6a0af7000000000000000000000000000000000000000000000407da87fdec81c2b0d7",
          "blockHash": "0x60a77c270ea54141562b512f964ca0a61a85c3351d7e5efba8b2c3c845e8420d",
          "blockNumber": "0xdcae44",
          "transactionHash": "0xb0f3d7b8e2811bb5aa763cc97ca5c218e0f31cba0da4a15923e6e7128576d610",
          "transactionIndex": "0x4",
          "logIndex": "0xe",
          "removed": false
        }
      ],
      "logsBloom": "0x00000000000080000000000000000000000000000000000000000000000000000000000000000000000000000000000000008000000000000000000000000800008000000000000000000000000000800000000000000000000100080000040000000000000000000000000000000008000000000000000080000000000000020810000000000000000000000040000000000000000000000000000000000000200000000000000000000000000004000000400000000010000000000000004000000000000000000001000000000000000000000080000000100000000000000000000000000000000000000008000000000000000000000000000000100000",
      "type": "0x2",
      "transactionHash": "0xb0f3d7b8e2811bb5aa763cc97ca5c218e0f31cba0da4a15923e6e7128576d610",
      "transactionIndex": "0x4",
      "blockHash": "0x60a77c270ea54141562b512f964ca0a61a85c3351d7e5efba8b2c3c845e8420d",
      "blockNumber": "0xdcae44",
      "gasUsed": "0xdbf7",
      "effectiveGasPrice": "0x1176592e0f",
      "from": "0xefbbd14082cf2fbcf5badc7ee619f0f4e36d0a5b",
      "to": "0xbb0b7ce7af68b81834a6c8e5fa9d5f981c828e61",
      "contractAddress": null
    }
  ],
  "libraries": [],
  "pending": [],
  "returns": {},
  "timestamp": 1731686695,
  "chain": 80002,
  "commit": "5d3485c"
}