{
  "transactions": [
    {
      "hash": "0xa41e6a25cac98b9c4b0be342b9d7f790937be09288bae0514996b50c5dd0cd6b",
      "transactionType": "CALL",
      "contractName": null,
      "contractAddress": "0x008210b7fa136ca9d450f2fc0f5173e651aec337",
      "function": "submit(address)",
      "arguments": [
        "0xf5999aE42C4D45Fd8d54e42EabF9cD9Df6d9E702"
      ],
      "transaction": {
        "from": "0xefbbd14082cf2fbcf5badc7ee619f0f4e36d0a5b",
        "to": "0x008210b7fa136ca9d450f2fc0f5173e651aec337",
        "gas": "0x12772",
        "value": "0x0",
        "input": "0xa1903eab000000000000000000000000f5999ae42c4d45fd8d54e42eabf9cd9df6d9e702",
        "nonce": "0x866",
        "chainId": "0x13882"
      },
      "additionalContracts": [],
      "isFixedGasLimit": false
    },
    {
      "hash": "0xd185480a056450383801cb0bd0e32e0f6fa7ca940ef1b25c2dc6dd0429545dd6",
      "transactionType": "CALL",
      "contractName": null,
      "contractAddress": "0x008210b7fa136ca9d450f2fc0f5173e651aec337",
      "function": "approve(address)",
      "arguments": [
        "0xf5999aE42C4D45Fd8d54e42EabF9cD9Df6d9E702"
      ],
      "transaction": {
        "from": "0xefbbd14082cf2fbcf5badc7ee619f0f4e36d0a5b",
        "to": "0x008210b7fa136ca9d450f2fc0f5173e651aec337",
        "gas": "0x12fd3",
        "value": "0x0",
        "input": "0xdaea85c5000000000000000000000000f5999ae42c4d45fd8d54e42eabf9cd9df6d9e702",
        "nonce": "0x867",
        "chainId": "0x13882"
      },
      "additionalContracts": [],
      "isFixedGasLimit": false
    }
  ],
  "receipts": [
    {
      "status": "0x1",
      "cumulativeGasUsed": "0x2b9ba",
      "logs": [
        {
          "address": "0x008210b7fa136ca9d450f2fc0f5173e651aec337",
          "topics": [
            "0xd7c8ffb69ce4fbe7f0929df8c08a9cf027e3daf5703f862dd527537519fd5b80",
            "0x000000000000000000000000f5999ae42c4d45fd8d54e42eabf9cd9df6d9e702"
          ],
          "data": "0x000000000000000000000000efbbd14082cf2fbcf5badc7ee619f0f4e36d0a5b",
          "blockHash": "0xf00363f440db68544974ed2ad81dc9cdc2263a614b6c2d225184ad7799ab121a",
          "blockNumber": "0xf5978d",
          "transactionHash": "0xa41e6a25cac98b9c4b0be342b9d7f790937be09288bae0514996b50c5dd0cd6b",
          "transactionIndex": "0x1",
          "logIndex": "0x4",
          "removed": false
        },
        {
          "address": "0x0000000000000000000000000000000000001010",
          "topics": [
            "0x4dfe1bbbcf077ddc3e01291eea2d5c70c2b422b415d95645b9adcfd678cb1d63",
            "0x0000000000000000000000000000000000000000000000000000000000001010",
            "0x000000000000000000000000efbbd14082cf2fbcf5badc7ee619f0f4e36d0a5b",
            "0x0000000000000000000000004631753190f2f5a15a7ba172bbac102b7d95fa22"
          ],
          "data": "0x0000000000000000000000000000000000000000000000000004dd0d82902cf400000000000000000000000000000000000000000000000142b542dec544ff100000000000000000000000000000000000000000000003d0b610a3e5a133d0c400000000000000000000000000000000000000000000000142b065d142b4d21c0000000000000000000000000000000000000000000003d0b61580f323c3fdb8",
          "blockHash": "0xf00363f440db68544974ed2ad81dc9cdc2263a614b6c2d225184ad7799ab121a",
          "blockNumber": "0xf5978d",
          "transactionHash": "0xa41e6a25cac98b9c4b0be342b9d7f790937be09288bae0514996b50c5dd0cd6b",
          "transactionIndex": "0x1",
          "logIndex": "0x5",
          "removed": false
        }
      ],
      "logsBloom": "0x00000000000000000000000000000000000000002000000000000000100000000000000800000000000000000000000000008000000000000080000040000000008000004000000000000000000000800000000000000000000100000000000000000000000000100000000000000000000000000000000080000000000000000800000000000000000000000000000000000000000000000000000000000000200000000001000000000000000000000000400000000000000000000100004000000100020000000001000000000000000000000000000000100000000000000000000000000000000100000000000000000000000000000000000000100000",
      "type": "0x2",
      "transactionHash": "0xa41e6a25cac98b9c4b0be342b9d7f790937be09288bae0514996b50c5dd0cd6b",
      "transactionIndex": "0x1",
      "blockHash": "0xf00363f440db68544974ed2ad81dc9cdc2263a614b6c2d225184ad7799ab121a",
      "blockNumber": "0xf5978d",
      "gasUsed": "0xd5e6",
      "effectiveGasPrice": "0x5d21dba2d",
      "from": "0xefbbd14082cf2fbcf5badc7ee619f0f4e36d0a5b",
      "to": "0x008210b7fa136ca9d450f2fc0f5173e651aec337",
      "contractAddress": null
    },
    {
      "status": "0x1",
      "cumulativeGasUsed": "0x395b1",
      "logs": [
        {
          "address": "0x008210b7fa136ca9d450f2fc0f5173e651aec337",
          "topics": [
            "0x65b8e9ac9ab64091da36d1b07196f246dbab404b8fc03911717d626789b9567a",
            "0x000000000000000000000000f5999ae42c4d45fd8d54e42eabf9cd9df6d9e702"
          ],
          "data": "0x000000000000000000000000efbbd14082cf2fbcf5badc7ee619f0f4e36d0a5b",
          "blockHash": "0xf00363f440db68544974ed2ad81dc9cdc2263a614b6c2d225184ad7799ab121a",
          "blockNumber": "0xf5978d",
          "transactionHash": "0xd185480a056450383801cb0bd0e32e0f6fa7ca940ef1b25c2dc6dd0429545dd6",
          "transactionIndex": "0x2",
          "logIndex": "0x6",
          "removed": false
        },
        {
          "address": "0x0000000000000000000000000000000000001010",
          "topics": [
            "0x4dfe1bbbcf077ddc3e01291eea2d5c70c2b422b415d95645b9adcfd678cb1d63",
            "0x0000000000000000000000000000000000000000000000000000000000001010",
            "0x000000000000000000000000efbbd14082cf2fbcf5badc7ee619f0f4e36d0a5b",
            "0x0000000000000000000000004631753190f2f5a15a7ba172bbac102b7d95fa22"
          ],
          "data": "0x0000000000000000000000000000000000000000000000000005005d28e63cf200000000000000000000000000000000000000000000000142b065d142a849a20000000000000000000000000000000000000000000003d0b61580f323c3fdb800000000000000000000000000000000000000000000000142ab657419c20cb00000000000000000000000000000000000000000000003d0b61a81504caa3aaa",
          "blockHash": "0xf00363f440db68544974ed2ad81dc9cdc2263a614b6c2d225184ad7799ab121a",
          "blockNumber": "0xf5978d",
          "transactionHash": "0xd185480a056450383801cb0bd0e32e0f6fa7ca940ef1b25c2dc6dd0429545dd6",
          "transactionIndex": "0x2",
          "logIndex": "0x7",
          "removed": false
        }
      ],
      "logsBloom": "0x00000000000080000000000000000000000000002000000000000000100000000000000000000000000000000000000000008000000000000080000040000000008000000000000000000000000000800000000000000000000100000000000000000000000000100000000000000008000000000000000080000000000000000800000000000000000000000000000000000000000000000000000000000000200000000001000000000000000000000000400000000000000000000100004000000000020000000001000000000000000000000000000000100000000000000000000000000000000100000008000000000000000000000000000000100000",
      "type": "0x2",
      "transactionHash": "0xd185480a056450383801cb0bd0e32e0f6fa7ca940ef1b25c2dc6dd0429545dd6",
      "transactionIndex": "0x2",
      "blockHash": "0xf00363f440db68544974ed2ad81dc9cdc2263a614b6c2d225184ad7799ab121a",
      "blockNumber": "0xf5978d",
      "gasUsed": "0xdbf7",
      "effectiveGasPrice": "0x5d21dba2d",
      "from": "0xefbbd14082cf2fbcf5badc7ee619f0f4e36d0a5b",
      "to": "0x008210b7fa136ca9d450f2fc0f5173e651aec337",
      "contractAddress": null
    }
  ],
  "libraries": [],
  "pending": [],
  "returns": {},
  "timestamp": 1735248556,
  "chain": 80002,
  "commit": "b0c6d76"
}