{
  "transactions": [
    {
      "hash": "0x0960740ccdf65cf0e9d0a695942d38e8b682c5c55714bb2ef6183102ed01208d",
      "transactionType": "CALL",
      "contractName": null,
      "contractAddress": "0xa67026ab5c15e7b34f186ce121310a38cbbf601c",
      "function": "submit(address)",
      "arguments": [
        "0xe70Bd81A4fB6A75193E8C085FcCB28245245Fa66"
      ],
      "transaction": {
        "from": "0xefbbd14082cf2fbcf5badc7ee619f0f4e36d0a5b",
        "to": "0xa67026ab5c15e7b34f186ce121310a38cbbf601c",
        "gas": "0x12772",
        "value": "0x0",
        "input": "0xa1903eab000000000000000000000000e70bd81a4fb6a75193e8c085fccb28245245fa66",
        "nonce": "0x542",
        "chainId": "0x13882"
      },
      "additionalContracts": [],
      "isFixedGasLimit": false
    },
    {
      "hash": "0x4bc6a40c56d274a19975923f81acb3294c14596e6fde86cc1ed9ba241b00056e",
      "transactionType": "CALL",
      "contractName": null,
      "contractAddress": "0xa67026ab5c15e7b34f186ce121310a38cbbf601c",
      "function": "approve(address)",
      "arguments": [
        "0xe70Bd81A4fB6A75193E8C085FcCB28245245Fa66"
      ],
      "transaction": {
        "from": "0xefbbd14082cf2fbcf5badc7ee619f0f4e36d0a5b",
        "to": "0xa67026ab5c15e7b34f186ce121310a38cbbf601c",
        "gas": "0x12fd3",
        "value": "0x0",
        "input": "0xdaea85c5000000000000000000000000e70bd81a4fb6a75193e8c085fccb28245245fa66",
        "nonce": "0x543",
        "chainId": "0x13882"
      },
      "additionalContracts": [],
      "isFixedGasLimit": false
    }
  ],
  "receipts": [
    {
      "status": "0x1",
      "cumulativeGasUsed": "0x5f70b",
      "logs": [
        {
          "address": "0xa67026ab5c15e7b34f186ce121310a38cbbf601c",
          "topics": [
            "0xd7c8ffb69ce4fbe7f0929df8c08a9cf027e3daf5703f862dd527537519fd5b80",
            "0x000000000000000000000000e70bd81a4fb6a75193e8c085fccb28245245fa66"
          ],
          "data": "0x000000000000000000000000efbbd14082cf2fbcf5badc7ee619f0f4e36d0a5b",
          "blockHash": "0xfad805cab6d47af46ce51d62afe58f3b2aa736af05b70481f1dea21cb17d7512",
          "blockNumber": "0xdc255d",
          "transactionHash": "0x0960740ccdf65cf0e9d0a695942d38e8b682c5c55714bb2ef6183102ed01208d",
          "transactionIndex": "0x1",
          "logIndex": "0x3",
          "removed": false
        },
        {
          "address": "0x0000000000000000000000000000000000001010",
          "topics": [
            "0x4dfe1bbbcf077ddc3e01291eea2d5c70c2b422b415d95645b9adcfd678cb1d63",
            "0x0000000000000000000000000000000000000000000000000000000000001010",
            "0x000000000000000000000000efbbd14082cf2fbcf5badc7ee619f0f4e36d0a5b",
            "0x0000000000000000000000004ad84f7014b7b44f723f284a85b1662337971439"
          ],
          "data": "0x00000000000000000000000000000000000000000000000000063054640c5046000000000000000000000000000000000000000000000000358ba966b859cdd600000000000000000000000000000000000000000000040e5c880bdef5b12cd300000000000000000000000000000000000000000000000035857912544d7d9000000000000000000000000000000000000000000000040e5c8e3c3359bd7d19",
          "blockHash": "0xfad805cab6d47af46ce51d62afe58f3b2aa736af05b70481f1dea21cb17d7512",
          "blockNumber": "0xdc255d",
          "transactionHash": "0x0960740ccdf65cf0e9d0a695942d38e8b682c5c55714bb2ef6183102ed01208d",
          "transactionIndex": "0x1",
          "logIndex": "0x4",
          "removed": false
        }
      ],
      "logsBloom": "0x00000000000000000000000000000000000000000000000000000000000000000000100800000000000000000000000000008000000000000000000000400000008000004000000000000000000000c00000000000000000000100001000000000000000000000000000000000000000000000000000000080000000000000000800000000000000000000000000000000000000000000000000000000000000200000000000000000020000000000000000400000000000000000000000004000000100000000000001000000000000004000000000400000100000000000000000000000000000000000000000008000000000000000020000000000100000",
      "type": "0x2",
      "transactionHash": "0x0960740ccdf65cf0e9d0a695942d38e8b682c5c55714bb2ef6183102ed01208d",
      "transactionIndex": "0x1",
      "blockHash": "0xfad805cab6d47af46ce51d62afe58f3b2aa736af05b70481f1dea21cb17d7512",
      "blockNumber": "0xdc255d",
      "gasUsed": "0xd5e6",
      "effectiveGasPrice": "0x7682c3a20",
      "from": "0xefbbd14082cf2fbcf5badc7ee619f0f4e36d0a5b",
      "to": "0xa67026ab5c15e7b34f186ce121310a38cbbf601c",
      "contractAddress": null
    },
    {
      "status": "0x1",
      "cumulativeGasUsed": "0x2d1f9",
      "logs": [
        {
          "address": "0xa67026ab5c15e7b34f186ce121310a38cbbf601c",
          "topics": [
            "0x65b8e9ac9ab64091da36d1b07196f246dbab404b8fc03911717d626789b9567a",
            "0x000000000000000000000000e70bd81a4fb6a75193e8c085fccb28245245fa66"
          ],
          "data": "0x000000000000000000000000efbbd14082cf2fbcf5badc7ee619f0f4e36d0a5b",
          "blockHash": "0xe3a6314cbc0df20d7c9555809c0db71a15025bbbdf23c7e3fd5fcf472c9467fd",
          "blockNumber": "0xdc255f",
          "transactionHash": "0x4bc6a40c56d274a19975923f81acb3294c14596e6fde86cc1ed9ba241b00056e",
          "transactionIndex": "0x1",
          "logIndex": "0x3",
          "removed": false
        },
        {
          "address": "0x0000000000000000000000000000000000001010",
          "topics": [
            "0x4dfe1bbbcf077ddc3e01291eea2d5c70c2b422b415d95645b9adcfd678cb1d63",
            "0x0000000000000000000000000000000000000000000000000000000000001010",
            "0x000000000000000000000000efbbd14082cf2fbcf5badc7ee619f0f4e36d0a5b",
            "0x0000000000000000000000004ad84f7014b7b44f723f284a85b1662337971439"
          ],
          "data": "0x00000000000000000000000000000000000000000000000000065d4358589167000000000000000000000000000000000000000000000000358579125440f51600000000000000000000000000000000000000000000040e5cc505b34567df73000000000000000000000000000000000000000000000000357f1bcefbe863af00000000000000000000000000000000000000000000040e5ccb62f69dc070da",
          "blockHash": "0xe3a6314cbc0df20d7c9555809c0db71a15025bbbdf23c7e3fd5fcf472c9467fd",
          "blockNumber": "0xdc255f",
          "transactionHash": "0x4bc6a40c56d274a19975923f81acb3294c14596e6fde86cc1ed9ba241b00056e",
          "transactionIndex": "0x1",
          "logIndex": "0x4",
          "removed": false
        }
      ],
      "logsBloom": "0x00000000000080000000000000000000000000000000000000000000000000000000100000000000000000000000000000008000000000000000000000400000008000000000000000000000000000c00000000000000000000100001000000000000000000000000000000000000008000000000000000080000000000000000800000000000000000000000000000000000000000000000000000000000000200000000000000000020000000000000000400000000000000000000000004000000000000000000001000000000000004000000000400000100000000000000000000000000000000000000008008000000000000000020000000000100000",
      "type": "0x2",
      "transactionHash": "0x4bc6a40c56d274a19975923f81acb3294c14596e6fde86cc1ed9ba241b00056e",
      "transactionIndex": "0x1",
      "blockHash": "0xe3a6314cbc0df20d7c9555809c0db71a15025bbbdf23c7e3fd5fcf472c9467fd",
      "blockNumber": "0xdc255f",
      "gasUsed": "0xdbf7",
      "effectiveGasPrice": "0x7682c3a20",
      "from": "0xefbbd14082cf2fbcf5badc7ee619f0f4e36d0a5b",
      "to": "0xa67026ab5c15e7b34f186ce121310a38cbbf601c",
      "contractAddress": null
    }
  ],
  "libraries": [],
  "pending": [],
  "returns": {},
  "timestamp": 1731612219,
  "chain": 80002,
  "commit": "bceebff"
}