{
  "transactions": [
    {
      "hash": "0x9743955d5d6a1e089e05de6bc38ae8f67c26314e8dcc486d425f2c870f9affb8",
      "transactionType": "CALL",
      "contractName": null,
      "contractAddress": "0xf7cb897153b4b4c5416413ad797a03cba58261b2",
      "function": "submit(address)",
      "arguments": [
        "0x07161323852F2e6101c6321456E4478bE72Fbb2F"
      ],
      "transaction": {
        "from": "0xefbbd14082cf2fbcf5badc7ee619f0f4e36d0a5b",
        "to": "0xf7cb897153b4b4c5416413ad797a03cba58261b2",
        "gas": "0x12772",
        "value": "0x0",
        "input": "0xa1903eab00000000000000000000000007161323852f2e6101c6321456e4478be72fbb2f",
        "nonce": "0x66c",
        "chainId": "0x13882"
      },
      "additionalContracts": [],
      "isFixedGasLimit": false
    },
    {
      "hash": "0x8cc5043376a644c552eb15247b7f9c534d50a58fecb53f447159600b3b607e67",
      "transactionType": "CALL",
      "contractName": null,
      "contractAddress": "0xf7cb897153b4b4c5416413ad797a03cba58261b2",
      "function": "approve(address)",
      "arguments": [
        "0x07161323852F2e6101c6321456E4478bE72Fbb2F"
      ],
      "transaction": {
        "from": "0xefbbd14082cf2fbcf5badc7ee619f0f4e36d0a5b",
        "to": "0xf7cb897153b4b4c5416413ad797a03cba58261b2",
        "gas": "0x12fd3",
        "value": "0x0",
        "input": "0xdaea85c500000000000000000000000007161323852f2e6101c6321456e4478be72fbb2f",
        "nonce": "0x66d",
        "chainId": "0x13882"
      },
      "additionalContracts": [],
      "isFixedGasLimit": false
    }
  ],
  "receipts": [
    {
      "status": "0x1",
      "cumulativeGasUsed": "0x27e08",
      "logs": [
        {
          "address": "0xf7cb897153b4b4c5416413ad797a03cba58261b2",
          "topics": [
            "0xd7c8ffb69ce4fbe7f0929df8c08a9cf027e3daf5703f862dd527537519fd5b80",
            "0x00000000000000000000000007161323852f2e6101c6321456e4478be72fbb2f"
          ],
          "data": "0x000000000000000000000000efbbd14082cf2fbcf5badc7ee619f0f4e36d0a5b",
          "blockHash": "0xa119176f4d519328cdcf366a60190414d95ac9fdfdc4565dd6e4a18b8a0f73a5",
          "blockNumber": "0xdfc24e",
          "transactionHash": "0x9743955d5d6a1e089e05de6bc38ae8f67c26314e8dcc486d425f2c870f9affb8",
          "transactionIndex": "0x1",
          "logIndex": "0x3",
          "removed": false
        },
        {
          "address": "0x0000000000000000000000000000000000001010",
          "topics": [
            "0x4dfe1bbbcf077ddc3e01291eea2d5c70c2b422b415d95645b9adcfd678cb1d63",
            "0x0000000000000000000000000000000000000000000000000000000000001010",
            "0x000000000000000000000000efbbd14082cf2fbcf5badc7ee619f0f4e36d0a5b",
            "0x0000000000000000000000006dc2dd54f24979ec26212794c71afefed722280c"
          ],
          "data": "0x0000000000000000000000000000000000000000000000000007ca06d6f576800000000000000000000000000000000000000000000000004e7d3e8b0c9afa4300000000000000000000000000000000000000000000041ba158a07660ddd5e90000000000000000000000000000000000000000000000004e75748435a583c300000000000000000000000000000000000000000000041ba1606a7d37d34c69",
          "blockHash": "0xa119176f4d519328cdcf366a60190414d95ac9fdfdc4565dd6e4a18b8a0f73a5",
          "blockNumber": "0xdfc24e",
          "transactionHash": "0x9743955d5d6a1e089e05de6bc38ae8f67c26314e8dcc486d425f2c870f9affb8",
          "transactionIndex": "0x1",
          "logIndex": "0x4",
          "removed": false
        }
      ],
      "logsBloom": "0x00000000000000000000000000000000000000000010000000000000000000000000000800000000000000000000000000008000000000010000000000000000008000004000000000000000000000800000000000000000000100080000000000000000000000000000000000000002000000000000000080000000000000020800000000000000000000000040000000000000000000000000000000000000200000000000000000000000000000000000400000000000000000000000004000000100000000000001000001000400000000000000000000100000000000000000000000000000000000000000000400000000000000000000000000100000",
      "type": "0x2",
      "transactionHash": "0x9743955d5d6a1e089e05de6bc38ae8f67c26314e8dcc486d425f2c870f9affb8",
      "transactionIndex": "0x1",
      "blockHash": "0xa119176f4d519328cdcf366a60190414d95ac9fdfdc4565dd6e4a18b8a0f73a5",
      "blockNumber": "0xdfc24e",
      "gasUsed": "0xd5e6",
      "effectiveGasPrice": "0x95282a7cf",
      "from": "0xefbbd14082cf2fbcf5badc7ee619f0f4e36d0a5b",
      "to": "0xf7cb897153b4b4c5416413ad797a03cba58261b2",
      "contractAddress": null
    },
    {
      "status": "0x1",
      "cumulativeGasUsed": "0xdbf7",
      "logs": [
        {
          "address": "0xf7cb897153b4b4c5416413ad797a03cba58261b2",
          "topics": [
            "0x65b8e9ac9ab64091da36d1b07196f246dbab404b8fc03911717d626789b9567a",
            "0x00000000000000000000000007161323852f2e6101c6321456e4478be72fbb2f"
          ],
          "data": "0x000000000000000000000000efbbd14082cf2fbcf5badc7ee619f0f4e36d0a5b",
          "blockHash": "0x490482087dbcf2cd39e99a67abb5354cdbd66017a9c38b99b879abc036de7d2d",
          "blockNumber": "0xdfc24f",
          "transactionHash": "0x8cc5043376a644c552eb15247b7f9c534d50a58fecb53f447159600b3b607e67",
          "transactionIndex": "0x0",
          "logIndex": "0x0",
          "removed": false
        },
        {
          "address": "0x0000000000000000000000000000000000001010",
          "topics": [
            "0x4dfe1bbbcf077ddc3e01291eea2d5c70c2b422b415d95645b9adcfd678cb1d63",
            "0x0000000000000000000000000000000000000000000000000000000000001010",
            "0x000000000000000000000000efbbd14082cf2fbcf5badc7ee619f0f4e36d0a5b",
            "0x0000000000000000000000006dc2dd54f24979ec26212794c71afefed722280c"
          ],
          "data": "0x0000000000000000000000000000000000000000000000000008029461911a400000000000000000000000000000000000000000000000004e7574843598fb4900000000000000000000000000000000000000000000041ba1636ce1214e44490000000000000000000000000000000000000000000000004e6d71efd407e10900000000000000000000000000000000000000000000041ba16b6f7582df5e89",
          "blockHash": "0x490482087dbcf2cd39e99a67abb5354cdbd66017a9c38b99b879abc036de7d2d",
          "blockNumber": "0xdfc24f",
          "transactionHash": "0x8cc5043376a644c552eb15247b7f9c534d50a58fecb53f447159600b3b607e67",
          "transactionIndex": "0x0",
          "logIndex": "0x1",
          "removed": false
        }
      ],
      "logsBloom": "0x0000000000008000000000000000000000000000001000000000000000000000000000000000000000000000000000000000800000000001000000000000000000800000000000000000000000000080000000000000000000010008000000000000000000000000000000000000000a000000000000000080000000000000020800000000000000000000000040000000000000000000000000000000000000200000000000000000000000000000000000400000000000000000000000004000000000000000000001000001000400000000000000000000100000000000000000000000000000000000000008000400000000000000000000000000100000",
      "type": "0x2",
      "transactionHash": "0x8cc5043376a644c552eb15247b7f9c534d50a58fecb53f447159600b3b607e67",
      "transactionIndex": "0x0",
      "blockHash": "0x490482087dbcf2cd39e99a67abb5354cdbd66017a9c38b99b879abc036de7d2d",
      "blockNumber": "0xdfc24f",
      "gasUsed": "0xdbf7",
      "effectiveGasPrice": "0x95282a7cf",
      "from": "0xefbbd14082cf2fbcf5badc7ee619f0f4e36d0a5b",
      "to": "0xf7cb897153b4b4c5416413ad797a03cba58261b2",
      "contractAddress": null
    }
  ],
  "libraries": [],
  "pending": [],
  "returns": {},
  "timestamp": 1732123392,
  "chain": 80002,
  "commit": "acf7e0f"
}