{
  "transactions": [
    {
      "hash": "0x5e3dcd5603428df535811ca3895dfc3758283b11c7dfba1965fa22838cd5c18c",
      "transactionType": "CALL",
      "contractName": null,
      "contractAddress": "0x20b61a0908d87574bbd2c47bd32af11438c52d9d",
      "function": "submit(address)",
      "arguments": [
        "0x46BADd9bbf2f4A4beE76518Ea8f172E618d3A917"
      ],
      "transaction": {
        "from": "0xefbbd14082cf2fbcf5badc7ee619f0f4e36d0a5b",
        "to": "0x20b61a0908d87574bbd2c47bd32af11438c52d9d",
        "gas": "0x12772",
        "value": "0x0",
        "input": "0xa1903eab00000000000000000000000046badd9bbf2f4a4bee76518ea8f172e618d3a917",
        "nonce": "0x780",
        "chainId": "0x13882"
      },
      "additionalContracts": [],
      "isFixedGasLimit": false
    },
    {
      "hash": "0xf4c9dfa962ff31da15cbd15b15ed2e66d38a4d03c8eab29cf73233fad63772eb",
      "transactionType": "CALL",
      "contractName": null,
      "contractAddress": "0x20b61a0908d87574bbd2c47bd32af11438c52d9d",
      "function": "approve(address)",
      "arguments": [
        "0x46BADd9bbf2f4A4beE76518Ea8f172E618d3A917"
      ],
      "transaction": {
        "from": "0xefbbd14082cf2fbcf5badc7ee619f0f4e36d0a5b",
        "to": "0x20b61a0908d87574bbd2c47bd32af11438c52d9d",
        "gas": "0x12fd3",
        "value": "0x0",
        "input": "0xdaea85c500000000000000000000000046badd9bbf2f4a4bee76518ea8f172e618d3a917",
        "nonce": "0x781",
        "chainId": "0x13882"
      },
      "additionalContracts": [],
      "isFixedGasLimit": false
    }
  ],
  "receipts": [
    {
      "status": "0x1",
      "cumulativeGasUsed": "0x2bd67",
      "logs": [
        {
          "address": "0x20b61a0908d87574bbd2c47bd32af11438c52d9d",
          "topics": [
            "0xd7c8ffb69ce4fbe7f0929df8c08a9cf027e3daf5703f862dd527537519fd5b80",
            "0x00000000000000000000000046badd9bbf2f4a4bee76518ea8f172e618d3a917"
          ],
          "data": "0x000000000000000000000000efbbd14082cf2fbcf5badc7ee619f0f4e36d0a5b",
          "blockHash": "0x23e67973339a8dc4b8f50756059a61a76bb5e92cbc23996c3694971456db3117",
          "blockNumber": "0xf1c04a",
          "transactionHash": "0x5e3dcd5603428df535811ca3895dfc3758283b11c7dfba1965fa22838cd5c18c",
          "transactionIndex": "0x1",
          "logIndex": "0x2",
          "removed": false
        },
        {
          "address": "0x0000000000000000000000000000000000001010",
          "topics": [
            "0x4dfe1bbbcf077ddc3e01291eea2d5c70c2b422b415d95645b9adcfd678cb1d63",
            "0x0000000000000000000000000000000000000000000000000000000000001010",
            "0x000000000000000000000000efbbd14082cf2fbcf5badc7ee619f0f4e36d0a5b",
            "0x0000000000000000000000006ab3d36c46ecfb9b9c0bd51cb1c3da5a2c81cea6"
          ],
          "data": "0x0000000000000000000000000000000000000000000000000004dd0d82771c00000000000000000000000000000000000000000000000000f13926732a48407e00000000000000000000000000000000000000000000042f26264103fa66e385000000000000000000000000000000000000000000000000f1344965a7d1247e00000000000000000000000000000000000000000000042f262b1e117cddff85",
          "blockHash": "0x23e67973339a8dc4b8f50756059a61a76bb5e92cbc23996c3694971456db3117",
          "blockNumber": "0xf1c04a",
          "transactionHash": "0x5e3dcd5603428df535811ca3895dfc3758283b11c7dfba1965fa22838cd5c18c",
          "transactionIndex": "0x1",
          "logIndex": "0x3",
          "removed": false
        }
      ],
      "logsBloom": "0x00000000080000000000000000000000000000000000000000000000000000000000000800000000000000000000000000008000040000000000000000000000008000084000000000000000000000800000000000000000000100000000000000000001000000000000000000000000000000000000000080000000000000000800000000000000000000000000000000000000100000000000000000000000200000000000000000000000000000000000400000000000000000000000004000000b00000000000001000000000000000000010000000000100000000000000000000000000000000000000000000100000000000000000000000000100000",
      "type": "0x2",
      "transactionHash": "0x5e3dcd5603428df535811ca3895dfc3758283b11c7dfba1965fa22838cd5c18c",
      "transactionIndex": "0x1",
      "blockHash": "0x23e67973339a8dc4b8f50756059a61a76bb5e92cbc23996c3694971456db3117",
      "blockNumber": "0xf1c04a",
      "gasUsed": "0xd5e6",
      "effectiveGasPrice": "0x5d21dba0f",
      "from": "0xefbbd14082cf2fbcf5badc7ee619f0f4e36d0a5b",
      "to": "0x20b61a0908d87574bbd2c47bd32af11438c52d9d",
      "contractAddress": null
    },
    {
      "status": "0x1",
      "cumulativeGasUsed": "0x3995e",
      "logs": [
        {
          "address": "0x20b61a0908d87574bbd2c47bd32af11438c52d9d",
          "topics": [
            "0x65b8e9ac9ab64091da36d1b07196f246dbab404b8fc03911717d626789b9567a",
            "0x00000000000000000000000046badd9bbf2f4a4bee76518ea8f172e618d3a917"
          ],
          "data": "0x000000000000000000000000efbbd14082cf2fbcf5badc7ee619f0f4e36d0a5b",
          "blockHash": "0x23e67973339a8dc4b8f50756059a61a76bb5e92cbc23996c3694971456db3117",
          "blockNumber": "0xf1c04a",
          "transactionHash": "0xf4c9dfa962ff31da15cbd15b15ed2e66d38a4d03c8eab29cf73233fad63772eb",
          "transactionIndex": "0x2",
          "logIndex": "0x4",
          "removed": false
        },
        {
          "address": "0x0000000000000000000000000000000000001010",
          "topics": [
            "0x4dfe1bbbcf077ddc3e01291eea2d5c70c2b422b415d95645b9adcfd678cb1d63",
            "0x0000000000000000000000000000000000000000000000000000000000001010",
            "0x000000000000000000000000efbbd14082cf2fbcf5badc7ee619f0f4e36d0a5b",
            "0x0000000000000000000000006ab3d36c46ecfb9b9c0bd51cb1c3da5a2c81cea6"
          ],
          "data": "0x0000000000000000000000000000000000000000000000000005005d28cc7600000000000000000000000000000000000000000000000000f1344965a7c49c0400000000000000000000000000000000000000000000042f262b1e117cddff85000000000000000000000000000000000000000000000000f12f49087ef8260400000000000000000000000000000000000000000000042f26301e6ea5aa7585",
          "blockHash": "0x23e67973339a8dc4b8f50756059a61a76bb5e92cbc23996c3694971456db3117",
          "blockNumber": "0xf1c04a",
          "transactionHash": "0xf4c9dfa962ff31da15cbd15b15ed2e66d38a4d03c8eab29cf73233fad63772eb",
          "transactionIndex": "0x2",
          "logIndex": "0x5",
          "removed": false
        }
      ],
      "logsBloom": "0x00000000080080000000000000000000000000000000000000000000000000000000000000000000000000000000000000008000040000000000000000000000008000080000000000000000000000800000000000000000000100000000000000000001000000000000000000000008000000000000000080000000000000000800000000000000000000000000000000000000100000000000000000000000200000000000000000000000000000000000400000000000000000000000004000000a00000000000001000000000000000000010000000000100000000000000000000000000000000000000008000100000000000000000000000000100000",
      "type": "0x2",
      "transactionHash": "0xf4c9dfa962ff31da15cbd15b15ed2e66d38a4d03c8eab29cf73233fad63772eb",
      "transactionIndex": "0x2",
      "blockHash": "0x23e67973339a8dc4b8f50756059a61a76bb5e92cbc23996c3694971456db3117",
      "blockNumber": "0xf1c04a",
      "gasUsed": "0xdbf7",
      "effectiveGasPrice": "0x5d21dba0f",
      "from": "0xefbbd14082cf2fbcf5badc7ee619f0f4e36d0a5b",
      "to": "0x20b61a0908d87574bbd2c47bd32af11438c52d9d",
      "contractAddress": null
    }
  ],
  "libraries": [],
  "pending": [],
  "returns": {},
  "timestamp": 1734712311,
  "chain": 80002,
  "commit": "66cd11d"
}