{
  "transactions": [
    {
      "hash": "0x180b59d1393bbe31fac2a85aa80e0059ee78ac0f31230a710623e6348b9cd276",
      "transactionType": "CALL",
      "contractName": null,
      "contractAddress": "0xe39913753a1b3ac274f5e857f675fa5d7cab8d86",
      "function": "submit(address)",
      "arguments": [
        "0x3D02A825F6DD019f1fF7FFA0b1BaF3495706aa65"
      ],
      "transaction": {
        "from": "0xefbbd14082cf2fbcf5badc7ee619f0f4e36d0a5b",
        "to": "0xe39913753a1b3ac274f5e857f675fa5d7cab8d86",
        "gas": "0x12772",
        "value": "0x0",
        "input": "0xa1903eab0000000000000000000000003d02a825f6dd019f1ff7ffa0b1baf3495706aa65",
        "nonce": "0x5cd",
        "chainId": "0x13882"
      },
      "additionalContracts": [],
      "isFixedGasLimit": false
    },
    {
      "hash": "0x1b5d1cafaf4aa58b53ac138f3b87909703a3aa3a46b0a43d3225aeec5ccbab53",
      "transactionType": "CALL",
      "contractName": null,
      "contractAddress": "0xe39913753a1b3ac274f5e857f675fa5d7cab8d86",
      "function": "approve(address)",
      "arguments": [
        "0x3D02A825F6DD019f1fF7FFA0b1BaF3495706aa65"
      ],
      "transaction": {
        "from": "0xefbbd14082cf2fbcf5badc7ee619f0f4e36d0a5b",
        "to": "0xe39913753a1b3ac274f5e857f675fa5d7cab8d86",
        "gas": "0x12fd3",
        "value": "0x0",
        "input": "0xdaea85c50000000000000000000000003d02a825f6dd019f1ff7ffa0b1baf3495706aa65",
        "nonce": "0x5ce",
        "chainId": "0x13882"
      },
      "additionalContracts": [],
      "isFixedGasLimit": false
    }
  ],
  "receipts": [
    {
      "status": "0x1",
      "cumulativeGasUsed": "0x1878b",
      "logs": [
        {
          "address": "0xe39913753a1b3ac274f5e857f675fa5d7cab8d86",
          "topics": [
            "0xd7c8ffb69ce4fbe7f0929df8c08a9cf027e3daf5703f862dd527537519fd5b80",
            "0x0000000000000000000000003d02a825f6dd019f1ff7ffa0b1baf3495706aa65"
          ],
          "data": "0x000000000000000000000000efbbd14082cf2fbcf5badc7ee619f0f4e36d0a5b",
          "blockHash": "0xefcebb5d137b0aae8b8a1974e617b569b1c1e8c705c522d003f375c7de21917b",
          "blockNumber": "0xdca48b",
          "transactionHash": "0x180b59d1393bbe31fac2a85aa80e0059ee78ac0f31230a710623e6348b9cd276",
          "transactionIndex": "0x1",
          "logIndex": "0x2",
          "removed": false
        },
        {
          "address": "0x0000000000000000000000000000000000001010",
          "topics": [
            "0x4dfe1bbbcf077ddc3e01291eea2d5c70c2b422b415d95645b9adcfd678cb1d63",
            "0x0000000000000000000000000000000000000000000000000000000000001010",
            "0x000000000000000000000000efbbd14082cf2fbcf5badc7ee619f0f4e36d0a5b",
            "0x0000000000000000000000004631753190f2f5a15a7ba172bbac102b7d95fa22"
          ],
          "data": "0x000000000000000000000000000000000000000000000000000b97433eac83d400000000000000000000000000000000000000000000000020a671dd0c3760cf0000000000000000000000000000000000000000000002ffe88626bfd9e508ab000000000000000000000000000000000000000000000000209ada99cd8adcfb0000000000000000000000000000000000000000000002ffe891be0318918c7f",
          "blockHash": "0xefcebb5d137b0aae8b8a1974e617b569b1c1e8c705c522d003f375c7de21917b",
          "blockNumber": "0xdca48b",
          "transactionHash": "0x180b59d1393bbe31fac2a85aa80e0059ee78ac0f31230a710623e6348b9cd276",
          "transactionIndex": "0x1",
          "logIndex": "0x3",
          "removed": false
        }
      ],
      "logsBloom": "0x00000000000000000000000000000000000000002000000000000000000000000000000800000000000000000000000200008000000000000000000040000000108000004000000000000000000000800000000000000000000100000000000000000000000000100000000000000000000000000000000080000000000000000800000000000000000000000000000000000000000000000000000000000000200000000000010000000000000000000000400000000000001000000000004000000100000000000001000000000000000000000000000000100000001008000000000000000000000000000000000000000000000000000000000000100000",
      "type": "0x2",
      "transactionHash": "0x180b59d1393bbe31fac2a85aa80e0059ee78ac0f31230a710623e6348b9cd276",
      "transactionIndex": "0x1",
      "blockHash": "0xefcebb5d137b0aae8b8a1974e617b569b1c1e8c705c522d003f375c7de21917b",
      "blockNumber": "0xdca48b",
      "gasUsed": "0xd5e6",
      "effectiveGasPrice": "0xddf4edcfd",
      "from": "0xefbbd14082cf2fbcf5badc7ee619f0f4e36d0a5b",
      "to": "0xe39913753a1b3ac274f5e857f675fa5d7cab8d86",
      "contractAddress": null
    },
    {
      "status": "0x1",
      "cumulativeGasUsed": "0x1d785",
      "logs": [
        {
          "address": "0xe39913753a1b3ac274f5e857f675fa5d7cab8d86",
          "topics": [
            "0x65b8e9ac9ab64091da36d1b07196f246dbab404b8fc03911717d626789b9567a",
            "0x0000000000000000000000003d02a825f6dd019f1ff7ffa0b1baf3495706aa65"
          ],
          "data": "0x000000000000000000000000efbbd14082cf2fbcf5badc7ee619f0f4e36d0a5b",
          "blockHash": "0xa1c8fc1b87c2b68e42bc3f4284e297ffc6109a12ae2814010ffb0ceb3cb04eb1",
          "blockNumber": "0xdca48d",
          "transactionHash": "0x1b5d1cafaf4aa58b53ac138f3b87909703a3aa3a46b0a43d3225aeec5ccbab53",
          "transactionIndex": "0x1",
          "logIndex": "0x2",
          "removed": false
        },
        {
          "address": "0x0000000000000000000000000000000000001010",
          "topics": [
            "0x4dfe1bbbcf077ddc3e01291eea2d5c70c2b422b415d95645b9adcfd678cb1d63",
            "0x0000000000000000000000000000000000000000000000000000000000001010",
            "0x000000000000000000000000efbbd14082cf2fbcf5badc7ee619f0f4e36d0a5b",
            "0x0000000000000000000000004631753190f2f5a15a7ba172bbac102b7d95fa22"
          ],
          "data": "0x000000000000000000000000000000000000000000000000000beb6aec16c3a2000000000000000000000000000000000000000000000000209ada99cd7e54810000000000000000000000000000000000000000000002ffe92c8b22ba700954000000000000000000000000000000000000000000000000208eef2ee16790df0000000000000000000000000000000000000000000002ffe938768da686ccf6",
          "blockHash": "0xa1c8fc1b87c2b68e42bc3f4284e297ffc6109a12ae2814010ffb0ceb3cb04eb1",
          "blockNumber": "0xdca48d",
          "transactionHash": "0x1b5d1cafaf4aa58b53ac138f3b87909703a3aa3a46b0a43d3225aeec5ccbab53",
          "transactionIndex": "0x1",
          "logIndex": "0x3",
          "removed": false
        }
      ],
      "logsBloom": "0x00000000000080000000000000000000000000002000000000000000000000000000000000000000000000000000000200008000000000000000000040000000108000000000000000000000000000800000000000000000000100000000000000000000000000100000000000000008000000000000000080000000000000000800000000000000000000000000000000000000000000000000000000000000200000000000010000000000000000000000400000000000001000000000004000000000000000000001000000000000000000000000000000100000001008000000000000000000000000000008000000000000000000000000000000100000",
      "type": "0x2",
      "transactionHash": "0x1b5d1cafaf4aa58b53ac138f3b87909703a3aa3a46b0a43d3225aeec5ccbab53",
      "transactionIndex": "0x1",
      "blockHash": "0xa1c8fc1b87c2b68e42bc3f4284e297ffc6109a12ae2814010ffb0ceb3cb04eb1",
      "blockNumber": "0xdca48d",
      "gasUsed": "0xdbf7",
      "effectiveGasPrice": "0xddf4edcfd",
      "from": "0xefbbd14082cf2fbcf5badc7ee619f0f4e36d0a5b",
      "to": "0xe39913753a1b3ac274f5e857f675fa5d7cab8d86",
      "contractAddress": null
    }
  ],
  "libraries": [],
  "pending": [],
  "returns": {},
  "timestamp": 1731681408,
  "chain": 80002,
  "commit": "5d3485c"
}