{
  "transactions": [
    {
      "hash": "0x26bf75736b0193183b94eb9fe332eea9293a44d070ef3f6bc4f3f20ab416a006",
      "transactionType": "CALL",
      "contractName": null,
      "contractAddress": "0x7125acf7c7e3f42fa34e1d663cea79c6d8ef963c",
      "function": "submit(address)",
      "arguments": [
        "0x9B6F4b34ce359dDF79DD63608979D02849c1876A"
      ],
      "transaction": {
        "from": "0xefbbd14082cf2fbcf5badc7ee619f0f4e36d0a5b",
        "to": "0x7125acf7c7e3f42fa34e1d663cea79c6d8ef963c",
        "gas": "0x12772",
        "value": "0x0",
        "input": "0xa1903eab0000000000000000000000009b6f4b34ce359ddf79dd63608979d02849c1876a",
        "nonce": "0x511",
        "chainId": "0x13882"
      },
      "additionalContracts": [],
      "isFixedGasLimit": false
    },
    {
      "hash": "0x4afdf390266a46d8757d9d0d28eff6714aa3b6f686d16fbdb22b1f8d3298b19e",
      "transactionType": "CALL",
      "contractName": null,
      "contractAddress": "0x7125acf7c7e3f42fa34e1d663cea79c6d8ef963c",
      "function": "approve(address)",
      "arguments": [
        "0x9B6F4b34ce359dDF79DD63608979D02849c1876A"
      ],
      "transaction": {
        "from": "0xefbbd14082cf2fbcf5badc7ee619f0f4e36d0a5b",
        "to": "0x7125acf7c7e3f42fa34e1d663cea79c6d8ef963c",
        "gas": "0x12fd3",
        "value": "0x0",
        "input": "0xdaea85c50000000000000000000000009b6f4b34ce359ddf79dd63608979d02849c1876a",
        "nonce": "0x512",
        "chainId": "0x13882"
      },
      "additionalContracts": [],
      "isFixedGasLimit": false
    }
  ],
  "receipts": [
    {
      "status": "0x1",
      "cumulativeGasUsed": "0xd5e6",
      "logs": [
        {
          "address": "0x7125acf7c7e3f42fa34e1d663cea79c6d8ef963c",
          "topics": [
            "0xd7c8ffb69ce4fbe7f0929df8c08a9cf027e3daf5703f862dd527537519fd5b80",
            "0x0000000000000000000000009b6f4b34ce359ddf79dd63608979d02849c1876a"
          ],
          "data": "0x000000000000000000000000efbbd14082cf2fbcf5badc7ee619f0f4e36d0a5b",
          "blockHash": "0xd5a83e091b69a631d2c70f5fcbdf84d3cab96bd27663b3fba1ed35fb4ef473f6",
          "blockNumber": "0xdc1760",
          "transactionHash": "0x26bf75736b0193183b94eb9fe332eea9293a44d070ef3f6bc4f3f20ab416a006",
          "transactionIndex": "0x0",
          "logIndex": "0x0",
          "removed": false
        },
        {
          "address": "0x0000000000000000000000000000000000001010",
          "topics": [
            "0x4dfe1bbbcf077ddc3e01291eea2d5c70c2b422b415d95645b9adcfd678cb1d63",
            "0x0000000000000000000000000000000000000000000000000000000000001010",
            "0x000000000000000000000000efbbd14082cf2fbcf5badc7ee619f0f4e36d0a5b",
            "0x0000000000000000000000006ab3d36c46ecfb9b9c0bd51cb1c3da5a2c81cea6"
          ],
          "data": "0x0000000000000000000000000000000000000000000000000008c1185130438600000000000000000000000000000000000000000000000039e6a7123e064bfc0000000000000000000000000000000000000000000003856332dd923194943600000000000000000000000000000000000000000000000039dde5f9ecd60876000000000000000000000000000000000000000000000385633b9eaa82c4d7bc",
          "blockHash": "0xd5a83e091b69a631d2c70f5fcbdf84d3cab96bd27663b3fba1ed35fb4ef473f6",
          "blockNumber": "0xdc1760",
          "transactionHash": "0x26bf75736b0193183b94eb9fe332eea9293a44d070ef3f6bc4f3f20ab416a006",
          "transactionIndex": "0x0",
          "logIndex": "0x1",
          "removed": false
        }
      ],
      "logsBloom": "0x00000000080000000000000000000000000000000000000000000000000000000000000800000000000000000000000000008000000000000000000000000000008000084000000000000000000000800000000000000000000100000000000000000000000000000000000000000000000000000000000080000000000000000800000000000000000000000000000000000000000080000000000000000000200000000000000000000000800000000000400000000000000000000000004100000100000000000001000000000000000000010000000000100000000000000000000000000000001000000000000202000000000000000000000000100000",
      "type": "0x2",
      "transactionHash": "0x26bf75736b0193183b94eb9fe332eea9293a44d070ef3f6bc4f3f20ab416a006",
      "transactionIndex": "0x0",
      "blockHash": "0xd5a83e091b69a631d2c70f5fcbdf84d3cab96bd27663b3fba1ed35fb4ef473f6",
      "blockNumber": "0xdc1760",
      "gasUsed": "0xd5e6",
      "effectiveGasPrice": "0xa7a358200",
      "from": "0xefbbd14082cf2fbcf5badc7ee619f0f4e36d0a5b",
      "to": "0x7125acf7c7e3f42fa34e1d663cea79c6d8ef963c",
      "contractAddress": null
    },
    {
      "status": "0x1",
      "cumulativeGasUsed": "0x4a387",
      "logs": [
        {
          "address": "0x7125acf7c7e3f42fa34e1d663cea79c6d8ef963c",
          "topics": [
            "0x65b8e9ac9ab64091da36d1b07196f246dbab404b8fc03911717d626789b9567a",
            "0x0000000000000000000000009b6f4b34ce359ddf79dd63608979d02849c1876a"
          ],
          "data": "0x000000000000000000000000efbbd14082cf2fbcf5badc7ee619f0f4e36d0a5b",
          "blockHash": "0x87e65882d7f2be1fa2047c481c14e32ef221da660fd429bf1622df49499529ee",
          "blockNumber": "0xdc1762",
          "transactionHash": "0x4afdf390266a46d8757d9d0d28eff6714aa3b6f686d16fbdb22b1f8d3298b19e",
          "transactionIndex": "0x2",
          "logIndex": "0x8",
          "removed": false
        },
        {
          "address": "0x0000000000000000000000000000000000001010",
          "topics": [
            "0x4dfe1bbbcf077ddc3e01291eea2d5c70c2b422b415d95645b9adcfd678cb1d63",
            "0x0000000000000000000000000000000000000000000000000000000000001010",
            "0x000000000000000000000000efbbd14082cf2fbcf5badc7ee619f0f4e36d0a5b",
            "0x0000000000000000000000006ab3d36c46ecfb9b9c0bd51cb1c3da5a2c81cea6"
          ],
          "data": "0x000000000000000000000000000000000000000000000000000900a7afc98a8700000000000000000000000000000000000000000000000039dde5f9ecc97ffc00000000000000000000000000000000000000000000038563ed10f2a3cf21a100000000000000000000000000000000000000000000000039d4e5523cfff57500000000000000000000000000000000000000000000038563f6119a5398ac28",
          "blockHash": "0x87e65882d7f2be1fa2047c481c14e32ef221da660fd429bf1622df49499529ee",
          "blockNumber": "0xdc1762",
          "transactionHash": "0x4afdf390266a46d8757d9d0d28eff6714aa3b6f686d16fbdb22b1f8d3298b19e",
          "transactionIndex": "0x2",
          "logIndex": "0x9",
          "removed": false
        }
      ],
      "logsBloom": "0x00000000080080000000000000000000000000000000000000000000000000000000000000000000000000000000000000008000000000000000000000000000008000080000000000000000000000800000000000000000000100000000000000000000000000000000000000000008000000000000000080000000000000000800000000000000000000000000000000000000000080000000000000000000200000000000000000000000800000000000400000000000000000000000004100000000000000000001000000000000000000010000000000100000000000000000000000000000001000000008000202000000000000000000000000100000",
      "type": "0x2",
      "transactionHash": "0x4afdf390266a46d8757d9d0d28eff6714aa3b6f686d16fbdb22b1f8d3298b19e",
      "transactionIndex": "0x2",
      "blockHash": "0x87e65882d7f2be1fa2047c481c14e32ef221da660fd429bf1622df49499529ee",
      "blockNumber": "0xdc1762",
      "gasUsed": "0xdbf7",
      "effectiveGasPrice": "0xa7a358200",
      "from": "0xefbbd14082cf2fbcf5badc7ee619f0f4e36d0a5b",
      "to": "0x7125acf7c7e3f42fa34e1d663cea79c6d8ef963c",
      "contractAddress": null
    }
  ],
  "libraries": [],
  "pending": [],
  "returns": {},
  "timestamp": 1731604610,
  "chain": 80002,
  "commit": "bceebff"
}