{
  "transactions": [
    {
      "hash": "0x29377196f670002aa644ea1c9339d5b59a668ab5a000283843d1aefdf5dc2917",
      "transactionType": "CALL",
      "contractName": null,
      "contractAddress": "0x0e39d12d35a5153f9c208117a794aa231422a05c",
      "function": "submit(address)",
      "arguments": [
        "0x6BB6D7e8748475baff14733cF1040bE94e9E4E76"
      ],
      "transaction": {
        "from": "0xefbbd14082cf2fbcf5badc7ee619f0f4e36d0a5b",
        "to": "0x0e39d12d35a5153f9c208117a794aa231422a05c",
        "gas": "0x12772",
        "value": "0x0",
        "input": "0xa1903eab0000000000000000000000006bb6d7e8748475baff14733cf1040be94e9e4e76",
        "nonce": "0x6d3",
        "chainId": "0x13882"
      },
      "additionalContracts": [],
      "isFixedGasLimit": false
    },
    {
      "hash": "0xb1d7daae0ca0e5e2b37309ae941dc07a74e014a2b6f29204f6f6be39c635708b",
      "transactionType": "CALL",
      "contractName": null,
      "contractAddress": "0x0e39d12d35a5153f9c208117a794aa231422a05c",
      "function": "approve(address)",
      "arguments": [
        "0x6BB6D7e8748475baff14733cF1040bE94e9E4E76"
      ],
      "transaction": {
        "from": "0xefbbd14082cf2fbcf5badc7ee619f0f4e36d0a5b",
        "to": "0x0e39d12d35a5153f9c208117a794aa231422a05c",
        "gas": "0x12fd3",
        "value": "0x0",
        "input": "0xdaea85c50000000000000000000000006bb6d7e8748475baff14733cf1040be94e9e4e76",
        "nonce": "0x6d4",
        "chainId": "0x13882"
      },
      "additionalContracts": [],
      "isFixedGasLimit": false
    }
  ],
  "receipts": [
    {
      "status": "0x1",
      "cumulativeGasUsed": "0xd5e6",
      "logs": [
        {
          "address": "0x0e39d12d35a5153f9c208117a794aa231422a05c",
          "topics": [
            "0xd7c8ffb69ce4fbe7f0929df8c08a9cf027e3daf5703f862dd527537519fd5b80",
            "0x0000000000000000000000006bb6d7e8748475baff14733cf1040be94e9e4e76"
          ],
          "data": "0x000000000000000000000000efbbd14082cf2fbcf5badc7ee619f0f4e36d0a5b",
          "blockHash": "0xd1f7ebbcbae8788f48362ea0e10dfe732ef8af4ff797cdcb5f6fb3f5d9955a43",
          "blockNumber": "0xe5533c",
          "transactionHash": "0x29377196f670002aa644ea1c9339d5b59a668ab5a000283843d1aefdf5dc2917",
          "transactionIndex": "0x0",
          "logIndex": "0x0",
          "removed": false
        },
        {
          "address": "0x0000000000000000000000000000000000001010",
          "topics": [
            "0x4dfe1bbbcf077ddc3e01291eea2d5c70c2b422b415d95645b9adcfd678cb1d63",
            "0x0000000000000000000000000000000000000000000000000000000000001010",
            "0x000000000000000000000000efbbd14082cf2fbcf5badc7ee619f0f4e36d0a5b",
            "0x0000000000000000000000004631753190f2f5a15a7ba172bbac102b7d95fa22"
          ],
          "data": "0x0000000000000000000000000000000000000000000000000013743609cfe78600000000000000000000000000000000000000000000000051de6c71302f82be00000000000000000000000000000000000000000000033d13ded6560b703f2f00000000000000000000000000000000000000000000000051caf83b265f9b3800000000000000000000000000000000000000000000033d13f24a8c154026b5",
          "blockHash": "0xd1f7ebbcbae8788f48362ea0e10dfe732ef8af4ff797cdcb5f6fb3f5d9955a43",
          "blockNumber": "0xe5533c",
          "transactionHash": "0x29377196f670002aa644ea1c9339d5b59a668ab5a000283843d1aefdf5dc2917",
          "transactionIndex": "0x0",
          "logIndex": "0x1",
          "removed": false
        }
      ],
      "logsBloom": "0x00000000000000000000000000000000000000002000000000000000000040000000000800000000000000000000000000008000000000000000000040000200008000004000000000000000000000800000002000000000000100000000000000000000000000100000000000000000000000000000000080000000000000000800000000000000000000000000000000020000000000000000000000000000200000000000000000000000000000000000400000000000000000000000004000000100000000000001000000000000000000000000000000100000000000000000040000000000000000000000000000000000000000000000000000100000",
      "type": "0x2",
      "transactionHash": "0x29377196f670002aa644ea1c9339d5b59a668ab5a000283843d1aefdf5dc2917",
      "transactionIndex": "0x0",
      "blockHash": "0xd1f7ebbcbae8788f48362ea0e10dfe732ef8af4ff797cdcb5f6fb3f5d9955a43",
      "blockNumber": "0xe5533c",
      "gasUsed": "0xd5e6",
      "effectiveGasPrice": "0x174876e800",
      "from": "0xefbbd14082cf2fbcf5badc7ee619f0f4e36d0a5b",
      "to": "0x0e39d12d35a5153f9c208117a794aa231422a05c",
      "contractAddress": null
    },
    {
      "status": "0x1",
      "cumulativeGasUsed": "0x1b1dd",
      "logs": [
        {
          "address": "0x0e39d12d35a5153f9c208117a794aa231422a05c",
          "topics": [
            "0x65b8e9ac9ab64091da36d1b07196f246dbab404b8fc03911717d626789b9567a",
            "0x0000000000000000000000006bb6d7e8748475baff14733cf1040be94e9e4e76"
          ],
          "data": "0x000000000000000000000000efbbd14082cf2fbcf5badc7ee619f0f4e36d0a5b",
          "blockHash": "0xd1f7ebbcbae8788f48362ea0e10dfe732ef8af4ff797cdcb5f6fb3f5d9955a43",
          "blockNumber": "0xe5533c",
          "transactionHash": "0xb1d7daae0ca0e5e2b37309ae941dc07a74e014a2b6f29204f6f6be39c635708b",
          "transactionIndex": "0x1",
          "logIndex": "0x2",
          "removed": false
        },
        {
          "address": "0x0000000000000000000000000000000000001010",
          "topics": [
            "0x4dfe1bbbcf077ddc3e01291eea2d5c70c2b422b415d95645b9adcfd678cb1d63",
            "0x0000000000000000000000000000000000000000000000000000000000001010",
            "0x000000000000000000000000efbbd14082cf2fbcf5badc7ee619f0f4e36d0a5b",
            "0x0000000000000000000000004631753190f2f5a15a7ba172bbac102b7d95fa22"
          ],
          "data": "0x00000000000000000000000000000000000000000000000000140174a324f48700000000000000000000000000000000000000000000000051caf83b265312be00000000000000000000000000000000000000000000033d13f24a8c154026b500000000000000000000000000000000000000000000000051b6f6c6832e1e3700000000000000000000000000000000000000000000033d14064c00b8651b3c",
          "blockHash": "0xd1f7ebbcbae8788f48362ea0e10dfe732ef8af4ff797cdcb5f6fb3f5d9955a43",
          "blockNumber": "0xe5533c",
          "transactionHash": "0xb1d7daae0ca0e5e2b37309ae941dc07a74e014a2b6f29204f6f6be39c635708b",
          "transactionIndex": "0x1",
          "logIndex": "0x3",
          "removed": false
        }
      ],
      "logsBloom": "0x00000000000080000000000000000000000000002000000000000000000040000000000000000000000000000000000000008000000000000000000040000200008000000000000000000000000000800000002000000000000100000000000000000000000000100000000000000008000000000000000080000000000000000800000000000000000000000000000000020000000000000000000000000000200000000000000000000000000000000000400000000000000000000000004000000000000000000001000000000000000000000000000000100000000000000000040000000000000000000008000000000000000000000000000000100000",
      "type": "0x2",
      "transactionHash": "0xb1d7daae0ca0e5e2b37309ae941dc07a74e014a2b6f29204f6f6be39c635708b",
      "transactionIndex": "0x1",
      "blockHash": "0xd1f7ebbcbae8788f48362ea0e10dfe732ef8af4ff797cdcb5f6fb3f5d9955a43",
      "blockNumber": "0xe5533c",
      "gasUsed": "0xdbf7",
      "effectiveGasPrice": "0x174876e800",
      "from": "0xefbbd14082cf2fbcf5badc7ee619f0f4e36d0a5b",
      "to": "0x0e39d12d35a5153f9c208117a794aa231422a05c",
      "contractAddress": null
    }
  ],
  "libraries": [],
  "pending": [],
  "returns": {},
  "timestamp": 1732903413,
  "chain": 80002,
  "commit": "e968e74"
}