{
  "transactions": [
    {
      "hash": "0x59410a41f622c88fbfc0fd376465ce8ff5afe10f6387d677217a09d01663d0ce",
      "transactionType": "CALL",
      "contractName": null,
      "contractAddress": "0x0e39d12d35a5153f9c208117a794aa231422a05c",
      "function": "submit(address)",
      "arguments": [
        "0xF5F7c4fC87184794DafDa28e45a563AcA1E51C25"
      ],
      "transaction": {
        "from": "0xefbbd14082cf2fbcf5badc7ee619f0f4e36d0a5b",
        "to": "0x0e39d12d35a5153f9c208117a794aa231422a05c",
        "gas": "0x12772",
        "value": "0x0",
        "input": "0xa1903eab000000000000000000000000f5f7c4fc87184794dafda28e45a563aca1e51c25",
        "nonce": "0x6cd",
        "chainId": "0x13882"
      },
      "additionalContracts": [],
      "isFixedGasLimit": false
    },
    {
      "hash": "0xa0a0232ad94b1fcc8f0ba8fc9ec3e0beba75888125b1e29b54b1dcae6c9f505b",
      "transactionType": "CALL",
      "contractName": null,
      "contractAddress": "0x0e39d12d35a5153f9c208117a794aa231422a05c",
      "function": "approve(address)",
      "arguments": [
        "0xF5F7c4fC87184794DafDa28e45a563AcA1E51C25"
      ],
      "transaction": {
        "from": "0xefbbd14082cf2fbcf5badc7ee619f0f4e36d0a5b",
        "to": "0x0e39d12d35a5153f9c208117a794aa231422a05c",
        "gas": "0x12fd3",
        "value": "0x0",
        "input": "0xdaea85c5000000000000000000000000f5f7c4fc87184794dafda28e45a563aca1e51c25",
        "nonce": "0x6ce",
        "chainId": "0x13882"
      },
      "additionalContracts": [],
      "isFixedGasLimit": false
    }
  ],
  "receipts": [
    {
      "status": "0x1",
      "cumulativeGasUsed": "0x1c8a9",
      "logs": [
        {
          "address": "0x0e39d12d35a5153f9c208117a794aa231422a05c",
          "topics": [
            "0xd7c8ffb69ce4fbe7f0929df8c08a9cf027e3daf5703f862dd527537519fd5b80",
            "0x000000000000000000000000f5f7c4fc87184794dafda28e45a563aca1e51c25"
          ],
          "data": "0x000000000000000000000000efbbd14082cf2fbcf5badc7ee619f0f4e36d0a5b",
          "blockHash": "0x48ac8857b06cd51d011114cd8a8ca7d715ff7e3eda27b1eed83e02862edfd95c",
          "blockNumber": "0xe07d61",
          "transactionHash": "0x59410a41f622c88fbfc0fd376465ce8ff5afe10f6387d677217a09d01663d0ce",
          "transactionIndex": "0x1",
          "logIndex": "0x2",
          "removed": false
        },
        {
          "address": "0x0000000000000000000000000000000000001010",
          "topics": [
            "0x4dfe1bbbcf077ddc3e01291eea2d5c70c2b422b415d95645b9adcfd678cb1d63",
            "0x0000000000000000000000000000000000000000000000000000000000001010",
            "0x000000000000000000000000efbbd14082cf2fbcf5badc7ee619f0f4e36d0a5b",
            "0x0000000000000000000000006ab3d36c46ecfb9b9c0bd51cb1c3da5a2c81cea6"
          ],
          "data": "0x00000000000000000000000000000000000000000000000000063bc25d57e70000000000000000000000000000000000000000000000000054f7cf3a683953310000000000000000000000000000000000000000000003b638e17498aa68bc2600000000000000000000000000000000000000000000000054f193780ae16c310000000000000000000000000000000000000000000003b638e7b05b07c0a326",
          "blockHash": "0x48ac8857b06cd51d011114cd8a8ca7d715ff7e3eda27b1eed83e02862edfd95c",
          "blockNumber": "0xe07d61",
          "transactionHash": "0x59410a41f622c88fbfc0fd376465ce8ff5afe10f6387d677217a09d01663d0ce",
          "transactionIndex": "0x1",
          "logIndex": "0x3",
          "removed": false
        }
      ],
      "logsBloom": "0x00000000080000000000000000000000000000000000000000000000000040000000000800000000000000000000002000008000000000000000000000000200008000084000000000000000000000800000000000000000000100000000000000000000000000000000000000000000000000000000000080000000000000000800000080000000000000000000000000000000000000000000000000000000200000000000000000000000000000000000400000000000000000000000004000000100000000000001000000020000000000010000000000100000000000000000000000000000000000000000000000000000000000000000000000100000",
      "type": "0x2",
      "transactionHash": "0x59410a41f622c88fbfc0fd376465ce8ff5afe10f6387d677217a09d01663d0ce",
      "transactionIndex": "0x1",
      "blockHash": "0x48ac8857b06cd51d011114cd8a8ca7d715ff7e3eda27b1eed83e02862edfd95c",
      "blockNumber": "0xe07d61",
      "gasUsed": "0xd5e6",
      "effectiveGasPrice": "0x775da1e8f",
      "from": "0xefbbd14082cf2fbcf5badc7ee619f0f4e36d0a5b",
      "to": "0x0e39d12d35a5153f9c208117a794aa231422a05c",
      "contractAddress": null
    },
    {
      "status": "0x1",
      "cumulativeGasUsed": "0x2a4a0",
      "logs": [
        {
          "address": "0x0e39d12d35a5153f9c208117a794aa231422a05c",
          "topics": [
            "0x65b8e9ac9ab64091da36d1b07196f246dbab404b8fc03911717d626789b9567a",
            "0x000000000000000000000000f5f7c4fc87184794dafda28e45a563aca1e51c25"
          ],
          "data": "0x000000000000000000000000efbbd14082cf2fbcf5badc7ee619f0f4e36d0a5b",
          "blockHash": "0x48ac8857b06cd51d011114cd8a8ca7d715ff7e3eda27b1eed83e02862edfd95c",
          "blockNumber": "0xe07d61",
          "transactionHash": "0xa0a0232ad94b1fcc8f0ba8fc9ec3e0beba75888125b1e29b54b1dcae6c9f505b",
          "transactionIndex": "0x2",
          "logIndex": "0x4",
          "removed": false
        },
        {
          "address": "0x0000000000000000000000000000000000001010",
          "topics": [
            "0x4dfe1bbbcf077ddc3e01291eea2d5c70c2b422b415d95645b9adcfd678cb1d63",
            "0x0000000000000000000000000000000000000000000000000000000000001010",
            "0x000000000000000000000000efbbd14082cf2fbcf5badc7ee619f0f4e36d0a5b",
            "0x0000000000000000000000006ab3d36c46ecfb9b9c0bd51cb1c3da5a2c81cea6"
          ],
          "data": "0x000000000000000000000000000000000000000000000000000669044d8aed8000000000000000000000000000000000000000000000000054f193780ad4e3b70000000000000000000000000000000000000000000003b638e7b05b07c0a32600000000000000000000000000000000000000000000000054eb2a73bd49f6370000000000000000000000000000000000000000000003b638ee195f554b90a6",
          "blockHash": "0x48ac8857b06cd51d011114cd8a8ca7d715ff7e3eda27b1eed83e02862edfd95c",
          "blockNumber": "0xe07d61",
          "transactionHash": "0xa0a0232ad94b1fcc8f0ba8fc9ec3e0beba75888125b1e29b54b1dcae6c9f505b",
          "transactionIndex": "0x2",
          "logIndex": "0x5",
          "removed": false
        }
      ],
      "logsBloom": "0x00000000080080000000000000000000000000000000000000000000000040000000000000000000000000000000002000008000000000000000000000000200008000080000000000000000000000800000000000000000000100000000000000000000000000000000000000000008000000000000000080000000000000000800000080000000000000000000000000000000000000000000000000000000200000000000000000000000000000000000400000000000000000000000004000000000000000000001000000020000000000010000000000100000000000000000000000000000000000000008000000000000000000000000000000100000",
      "type": "0x2",
      "transactionHash": "0xa0a0232ad94b1fcc8f0ba8fc9ec3e0beba75888125b1e29b54b1dcae6c9f505b",
      "transactionIndex": "0x2",
      "blockHash": "0x48ac8857b06cd51d011114cd8a8ca7d715ff7e3eda27b1eed83e02862edfd95c",
      "blockNumber": "0xe07d61",
      "gasUsed": "0xdbf7",
      "effectiveGasPrice": "0x775da1e8f",
      "from": "0xefbbd14082cf2fbcf5badc7ee619f0f4e36d0a5b",
      "to": "0x0e39d12d35a5153f9c208117a794aa231422a05c",
      "contractAddress": null
    }
  ],
  "libraries": [],
  "pending": [],
  "returns": {},
  "timestamp": 1732225197,
  "chain": 80002,
  "commit": "2dbbe42"
}