{
  "transactions": [
    {
      "hash": "0x59e7fe6e59456b2d7790aa5f8a97e2e8dfb59a3f209fd91ace5beb2c1d9935a7",
      "transactionType": "CALL",
      "contractName": null,
      "contractAddress": "0xf69149be7287cf972e36927bcb9bfd04bcd9bee4",
      "function": "submit(address)",
      "arguments": [
        "0xCAFDE3Bc71b7aB469C8b165E896547d5868E9e5c"
      ],
      "transaction": {
        "from": "0xefbbd14082cf2fbcf5badc7ee619f0f4e36d0a5b",
        "to": "0xf69149be7287cf972e36927bcb9bfd04bcd9bee4",
        "gas": "0x12772",
        "value": "0x0",
        "input": "0xa1903eab000000000000000000000000cafde3bc71b7ab469c8b165e896547d5868e9e5c",
        "nonce": "0x59d",
        "chainId": "0x13882"
      },
      "additionalContracts": [],
      "isFixedGasLimit": false
    },
    {
      "hash": "0x52df5ec5c2bf2cab4168aa20517cea06b6221ec43eee0b36daad759f27fa77e0",
      "transactionType": "CALL",
      "contractName": null,
      "contractAddress": "0xf69149be7287cf972e36927bcb9bfd04bcd9bee4",
      "function": "approve(address)",
      "arguments": [
        "0xCAFDE3Bc71b7aB469C8b165E896547d5868E9e5c"
      ],
      "transaction": {
        "from": "0xefbbd14082cf2fbcf5badc7ee619f0f4e36d0a5b",
        "to": "0xf69149be7287cf972e36927bcb9bfd04bcd9bee4",
        "gas": "0x12fd3",
        "value": "0x0",
        "input": "0xdaea85c5000000000000000000000000cafde3bc71b7ab469c8b165e896547d5868e9e5c",
        "nonce": "0x59e",
        "chainId": "0x13882"
      },
      "additionalContracts": [],
      "isFixedGasLimit": false
    }
  ],
  "receipts": [
    {
      "status": "0x1",
      "cumulativeGasUsed": "0xd5e6",
      "logs": [
        {
          "address": "0xf69149be7287cf972e36927bcb9bfd04bcd9bee4",
          "topics": [
            "0xd7c8ffb69ce4fbe7f0929df8c08a9cf027e3daf5703f862dd527537519fd5b80",
            "0x000000000000000000000000cafde3bc71b7ab469c8b165e896547d5868e9e5c"
          ],
          "data": "0x000000000000000000000000efbbd14082cf2fbcf5badc7ee619f0f4e36d0a5b",
          "blockHash": "0x10105e10e6bad0b95141f30a51bda65f38171cb0f4fba8a0501141f21432201e",
          "blockNumber": "0xdc3a71",
          "transactionHash": "0x59e7fe6e59456b2d7790aa5f8a97e2e8dfb59a3f209fd91ace5beb2c1d9935a7",
          "transactionIndex": "0x0",
          "logIndex": "0x0",
          "removed": false
        },
        {
          "address": "0x0000000000000000000000000000000000001010",
          "topics": [
            "0x4dfe1bbbcf077ddc3e01291eea2d5c70c2b422b415d95645b9adcfd678cb1d63",
            "0x0000000000000000000000000000000000000000000000000000000000001010",
            "0x000000000000000000000000efbbd14082cf2fbcf5badc7ee619f0f4e36d0a5b",
            "0x0000000000000000000000004631753190f2f5a15a7ba172bbac102b7d95fa22"
          ],
          "data": "0x0000000000000000000000000000000000000000000000000007c8159d7ed7860000000000000000000000000000000000000000000000003214c6b52652a9e60000000000000000000000000000000000000000000002f44f7a7bb7ceb0787e000000000000000000000000000000000000000000000000320cfe9f88d3d2600000000000000000000000000000000000000000000002f44f8243cd6c2f5004",
          "blockHash": "0x10105e10e6bad0b95141f30a51bda65f38171cb0f4fba8a0501141f21432201e",
          "blockNumber": "0xdc3a71",
          "transactionHash": "0x59e7fe6e59456b2d7790aa5f8a97e2e8dfb59a3f209fd91ace5beb2c1d9935a7",
          "transactionIndex": "0x0",
          "logIndex": "0x1",
          "removed": false
        }
      ],
      "logsBloom": "0x00000000000000001000000000000000000000002000000000000000000000000000800800000000000000000000000000008200000000000000000040000000008000004000000000000000000010800000000000000000000100000000000000000000000000100000000000000000000000000000000080000000000000000800000000000000000000000000000000000000000000000000000000000000200000000000000000000000000000000000400000000000000000000000004000000100000000000001000000040040000000000000000000100000000000000000000000000000000000000000000000000000000000000000000000100000",
      "type": "0x2",
      "transactionHash": "0x59e7fe6e59456b2d7790aa5f8a97e2e8dfb59a3f209fd91ace5beb2c1d9935a7",
      "transactionIndex": "0x0",
      "blockHash": "0x10105e10e6bad0b95141f30a51bda65f38171cb0f4fba8a0501141f21432201e",
      "blockNumber": "0xdc3a71",
      "gasUsed": "0xd5e6",
      "effectiveGasPrice": "0x9502f9000",
      "from": "0xefbbd14082cf2fbcf5badc7ee619f0f4e36d0a5b",
      "to": "0xf69149be7287cf972e36927bcb9bfd04bcd9bee4",
      "contractAddress": null
    },
    {
      "status": "0x1",
      "cumulativeGasUsed": "0x2d1e1",
      "logs": [
        {
          "address": "0xf69149be7287cf972e36927bcb9bfd04bcd9bee4",
          "topics": [
            "0x65b8e9ac9ab64091da36d1b07196f246dbab404b8fc03911717d626789b9567a",
            "0x000000000000000000000000cafde3bc71b7ab469c8b165e896547d5868e9e5c"
          ],
          "data": "0x000000000000000000000000efbbd14082cf2fbcf5badc7ee619f0f4e36d0a5b",
          "blockHash": "0x5cd68f84856fd38d3b15b86c803c8b66c116df98a0f563955a771b8c2e94c312",
          "blockNumber": "0xdc3a73",
          "transactionHash": "0x52df5ec5c2bf2cab4168aa20517cea06b6221ec43eee0b36daad759f27fa77e0",
          "transactionIndex": "0x1",
          "logIndex": "0x3",
          "removed": false
        },
        {
          "address": "0x0000000000000000000000000000000000001010",
          "topics": [
            "0x4dfe1bbbcf077ddc3e01291eea2d5c70c2b422b415d95645b9adcfd678cb1d63",
            "0x0000000000000000000000000000000000000000000000000000000000001010",
            "0x000000000000000000000000efbbd14082cf2fbcf5badc7ee619f0f4e36d0a5b",
            "0x0000000000000000000000004631753190f2f5a15a7ba172bbac102b7d95fa22"
          ],
          "data": "0x000000000000000000000000000000000000000000000000000800950e070c87000000000000000000000000000000000000000000000000320cfe9f88c749e60000000000000000000000000000000000000000000002f44f97823789f338d60000000000000000000000000000000000000000000000003204fe0a7ac03d5f0000000000000000000000000000000000000000000002f44f9f82cc97fa455d",
          "blockHash": "0x5cd68f84856fd38d3b15b86c803c8b66c116df98a0f563955a771b8c2e94c312",
          "blockNumber": "0xdc3a73",
          "transactionHash": "0x52df5ec5c2bf2cab4168aa20517cea06b6221ec43eee0b36daad759f27fa77e0",
          "transactionIndex": "0x1",
          "logIndex": "0x4",
          "removed": false
        }
      ],
      "logsBloom": "0x00000000000080001000000000000000000000002000000000000000000000000000800000000000000000000000000000008200000000000000000040000000008000000000000000000000000010800000000000000000000100000000000000000000000000100000000000000008000000000000000080000000000000000800000000000000000000000000000000000000000000000000000000000000200000000000000000000000000000000000400000000000000000000000004000000000000000000001000000040040000000000000000000100000000000000000000000000000000000000008000000000000000000000000000000100000",
      "type": "0x2",
      "transactionHash": "0x52df5ec5c2bf2cab4168aa20517cea06b6221ec43eee0b36daad759f27fa77e0",
      "transactionIndex": "0x1",
      "blockHash": "0x5cd68f84856fd38d3b15b86c803c8b66c116df98a0f563955a771b8c2e94c312",
      "blockNumber": "0xdc3a73",
      "gasUsed": "0xdbf7",
      "effectiveGasPrice": "0x9502f9000",
      "from": "0xefbbd14082cf2fbcf5badc7ee619f0f4e36d0a5b",
      "to": "0xf69149be7287cf972e36927bcb9bfd04bcd9bee4",
      "contractAddress": null
    }
  ],
  "libraries": [],
  "pending": [],
  "returns": {},
  "timestamp": 1731623686,
  "chain": 80002,
  "commit": "bceebff"
}