{
  "transactions": [
    {
      "hash": "0x850784c98ec502dae522943b5e7654e16eb0a054f5a6a1f21027ce25f780c364",
      "transactionType": "CALL",
      "contractName": null,
      "contractAddress": "0x55ffc49611273d7c45006c6b4a6002b2daec1a66",
      "function": "grantCustody(address)",
      "arguments": [
        "0x351Fbd09c31D1372b35b0ac2F39c90CAa333D5F7"
      ],
      "transaction": {
        "from": "0xefbbd14082cf2fbcf5badc7ee619f0f4e36d0a5b",
        "to": "0x55ffc49611273d7c45006c6b4a6002b2daec1a66",
        "gas": "0x405aa",
        "value": "0x0",
        "input": "0x21cbe5d7000000000000000000000000351fbd09c31d1372b35b0ac2f39c90caa333d5f7",
        "nonce": "0x517",
        "chainId": "0x13882"
      },
      "additionalContracts": [],
      "isFixedGasLimit": false
    }
  ],
  "receipts": [
    {
      "status": "0x1",
      "cumulativeGasUsed": "0x2e976",
      "logs": [
        {
          "address": "0x55ffc49611273d7c45006c6b4a6002b2daec1a66",
          "topics": [
            "0x9cf82755a4c98d86b77277357fa922272efe9f666b0df6fc7fbf318f2e8cd22b",
            "0x000000000000000000000000351fbd09c31d1372b35b0ac2f39c90caa333d5f7",
            "0x000000000000000000000000efbbd14082cf2fbcf5badc7ee619f0f4e36d0a5b"
          ],
          "data": "0x",
          "blockHash": "0x275e0e6d152ab807883912c9de96cbfa0b5a754cccebb701d7f113fd2819b52a",
          "blockNumber": "0xdc1797",
          "transactionHash": "0x850784c98ec502dae522943b5e7654e16eb0a054f5a6a1f21027ce25f780c364",
          "transactionIndex": "0x0",
          "logIndex": "0x0",
          "removed": false
        },
        {
          "address": "0x0000000000000000000000000000000000001010",
          "topics": [
            "0x4dfe1bbbcf077ddc3e01291eea2d5c70c2b422b415d95645b9adcfd678cb1d63",
            "0x0000000000000000000000000000000000000000000000000000000000001010",
            "0x000000000000000000000000efbbd14082cf2fbcf5badc7ee619f0f4e36d0a5b",
            "0x000000000000000000000000915a2284d28bd93de7d6f31173b981204bb666e6"
          ],
          "data": "0x000000000000000000000000000000000000000000000000001e1a564917fa16000000000000000000000000000000000000000000000000399868b5c8c5b1090000000000000000000000000000000000000000000004e74a8751c9a38b2b7a000000000000000000000000000000000000000000000000397a4e5f7fadb6f30000000000000000000000000000000000000000000004e74aa56c1feca32590",
          "blockHash": "0x275e0e6d152ab807883912c9de96cbfa0b5a754cccebb701d7f113fd2819b52a",
          "blockNumber": "0xdc1797",
          "transactionHash": "0x850784c98ec502dae522943b5e7654e16eb0a054f5a6a1f21027ce25f780c364",
          "transactionIndex": "0x0",
          "logIndex": "0x1",
          "removed": false
        }
      ],
      "logsBloom": "0x00000000000000400010000000400000000000000040000000000000000000000000000000000000000000000000000000008000000000000000000000000000008000000000000000000000000000800000000000000000000100000000000000000000000000000000002800000000000000000000000080000000000000000800000000000000000000000000000000000000000000000000000000000000200000000004000000000000000000000000400000000000000000000000004000000000000000001001000000000000000002000000000000100000000000000000000000000000000002000000000000000000400000000000000004100000",
      "type": "0x2",
      "transactionHash": "0x850784c98ec502dae522943b5e7654e16eb0a054f5a6a1f21027ce25f780c364",
      "transactionIndex": "0x0",
      "blockHash": "0x275e0e6d152ab807883912c9de96cbfa0b5a754cccebb701d7f113fd2819b52a",
      "blockNumber": "0xdc1797",
      "gasUsed": "0x2e976",
      "effectiveGasPrice": "0xa56723c00",
      "from": "0xefbbd14082cf2fbcf5badc7ee619f0f4e36d0a5b",
      "to": "0x55ffc49611273d7c45006c6b4a6002b2daec1a66",
      "contractAddress": null
    }
  ],
  "libraries": [],
  "pending": [],
  "returns": {},
  "timestamp": 1731604722,
  "chain": 80002,
  "commit": "bceebff"
}