{
  "transactions": [
    {
      "hash": "0x6c9f02f0bf050609a9985a0207a31d210706009b1ce10de3ef04ec8284665cab",
      "transactionType": "CALL",
      "contractName": null,
      "contractAddress": "0x78048b87d12703787b9c0538da885c1cabaf9388",
      "function": "grantCustody(address)",
      "arguments": [
        "0xd437e2E102E1CE9A8aD24AE37a6f2A3D608868e7"
      ],
      "transaction": {
        "from": "0xefbbd14082cf2fbcf5badc7ee619f0f4e36d0a5b",
        "to": "0x78048b87d12703787b9c0538da885c1cabaf9388",
        "gas": "0x405aa",
        "value": "0x0",
        "input": "0x21cbe5d7000000000000000000000000d437e2e102e1ce9a8ad24ae37a6f2a3d608868e7",
        "nonce": "0x548",
        "chainId": "0x13882"
      },
      "additionalContracts": [],
      "isFixedGasLimit": false
    }
  ],
  "receipts": [
    {
      "status": "0x1",
      "cumulativeGasUsed": "0x491b0",
      "logs": [
        {
          "address": "0x78048b87d12703787b9c0538da885c1cabaf9388",
          "topics": [
            "0x9cf82755a4c98d86b77277357fa922272efe9f666b0df6fc7fbf318f2e8cd22b",
            "0x000000000000000000000000d437e2e102e1ce9a8ad24ae37a6f2a3d608868e7",
            "0x000000000000000000000000efbbd14082cf2fbcf5badc7ee619f0f4e36d0a5b"
          ],
          "data": "0x",
          "blockHash": "0xaf591da91aaa9a41d4e05dd777e184ebdb3368fddebb8165d4ae56211128e4b3",
          "blockNumber": "0xdc2582",
          "transactionHash": "0x6c9f02f0bf050609a9985a0207a31d210706009b1ce10de3ef04ec8284665cab",
          "transactionIndex": "0x1",
          "logIndex": "0x3",
          "removed": false
        },
        {
          "address": "0x0000000000000000000000000000000000001010",
          "topics": [
            "0x4dfe1bbbcf077ddc3e01291eea2d5c70c2b422b415d95645b9adcfd678cb1d63",
            "0x0000000000000000000000000000000000000000000000000000000000001010",
            "0x000000000000000000000000efbbd14082cf2fbcf5badc7ee619f0f4e36d0a5b",
            "0x0000000000000000000000004ad84f7014b7b44f723f284a85b1662337971439"
          ],
          "data": "0x000000000000000000000000000000000000000000000000001b1ea55fd0b216000000000000000000000000000000000000000000000000352e75a90c4c303600000000000000000000000000000000000000000000040e5d31ef035c70d9f300000000000000000000000000000000000000000000000035135703ac7b7e2000000000000000000000000000000000000000000000040e5d4d0da8bc418c09",
          "blockHash": "0xaf591da91aaa9a41d4e05dd777e184ebdb3368fddebb8165d4ae56211128e4b3",
          "blockNumber": "0xdc2582",
          "transactionHash": "0x6c9f02f0bf050609a9985a0207a31d210706009b1ce10de3ef04ec8284665cab",
          "transactionIndex": "0x1",
          "logIndex": "0x4",
          "removed": false
        }
      ],
      "logsBloom": "0x00000000000000000000000000000000000000000000000000000000000000020000000000000000000000000000000000008000000000080000000000400000008000000000000000000000000000800000000000000000000100001000000000000000000000000000000800000000000000000000000080000000000000000800000000000000000000000000000000000000000000000000000000000000200000000004000000000000004000000000400000020000000000000000004000000000000000000001000000000000000000000000000000100000000000000000000000000000000000000000008000000040000000000200000004100000",
      "type": "0x2",
      "transactionHash": "0x6c9f02f0bf050609a9985a0207a31d210706009b1ce10de3ef04ec8284665cab",
      "transactionIndex": "0x1",
      "blockHash": "0xaf591da91aaa9a41d4e05dd777e184ebdb3368fddebb8165d4ae56211128e4b3",
      "blockNumber": "0xdc2582",
      "gasUsed": "0x2e976",
      "effectiveGasPrice": "0x9502f9000",
      "from": "0xefbbd14082cf2fbcf5badc7ee619f0f4e36d0a5b",
      "to": "0x78048b87d12703787b9c0538da885c1cabaf9388",
      "contractAddress": null
    }
  ],
  "libraries": [],
  "pending": [],
  "returns": {},
  "timestamp": 1731612295,
  "chain": 80002,
  "commit": "bceebff"
}