{
  "transactions": [
    {
      "hash": "0x451fe2ba3cb61a56c169db2e1e669fc41369d542e1a7945fad7cd1705d3d1929",
      "transactionType": "CALL",
      "contractName": null,
      "contractAddress": "0x21ef7976ecd14238f2f41e45b060ff522e8a686d",
      "function": "grantCustody(address)",
      "arguments": [
        "0xC77B5AF331B8276Fc2c0Ba9e6436D4c2698E7C41"
      ],
      "transaction": {
        "from": "0xefbbd14082cf2fbcf5badc7ee619f0f4e36d0a5b",
        "to": "0x21ef7976ecd14238f2f41e45b060ff522e8a686d",
        "gas": "0x405aa",
        "value": "0x0",
        "input": "0x21cbe5d7000000000000000000000000c77b5af331b8276fc2c0ba9e6436d4c2698e7c41",
        "nonce": "0x5a3",
        "chainId": "0x13882"
      },
      "additionalContracts": [],
      "isFixedGasLimit": false
    }
  ],
  "receipts": [
    {
      "status": "0x1",
      "cumulativeGasUsed": "0x3e0a8",
      "logs": [
        {
          "address": "0x21ef7976ecd14238f2f41e45b060ff522e8a686d",
          "topics": [
            "0x9cf82755a4c98d86b77277357fa922272efe9f666b0df6fc7fbf318f2e8cd22b",
            "0x000000000000000000000000c77b5af331b8276fc2c0ba9e6436d4c2698e7c41",
            "0x000000000000000000000000efbbd14082cf2fbcf5badc7ee619f0f4e36d0a5b"
          ],
          "data": "0x",
          "blockHash": "0xc8cd7f1a3979543f6f62225c8f83d3b71b645e508fb285ee8cf96c1c6faf9606",
          "blockNumber": "0xdc3a95",
          "transactionHash": "0x451fe2ba3cb61a56c169db2e1e669fc41369d542e1a7945fad7cd1705d3d1929",
          "transactionIndex": "0x1",
          "logIndex": "0x2",
          "removed": false
        },
        {
          "address": "0x0000000000000000000000000000000000001010",
          "topics": [
            "0x4dfe1bbbcf077ddc3e01291eea2d5c70c2b422b415d95645b9adcfd678cb1d63",
            "0x0000000000000000000000000000000000000000000000000000000000001010",
            "0x000000000000000000000000efbbd14082cf2fbcf5badc7ee619f0f4e36d0a5b",
            "0x000000000000000000000000bb583a9dde59ca64aaa14807f37a4c665c0d72c7"
          ],
          "data": "0x000000000000000000000000000000000000000000000000001b1ea55fd0b21600000000000000000000000000000000000000000000000031b457e48b2409e60000000000000000000000000000000000000000000000fd26b430ffb3cafdb50000000000000000000000000000000000000000000000003199393f2b5357d00000000000000000000000000000000000000000000000fd26cf4fa5139bafcb",
          "blockHash": "0xc8cd7f1a3979543f6f62225c8f83d3b71b645e508fb285ee8cf96c1c6faf9606",
          "blockNumber": "0xdc3a95",
          "transactionHash": "0x451fe2ba3cb61a56c169db2e1e669fc41369d542e1a7945fad7cd1705d3d1929",
          "transactionIndex": "0x1",
          "logIndex": "0x3",
          "removed": false
        }
      ],
      "logsBloom": "0x00000000000000000020000000000000000000000000000000000000000000000000000000000000002000000000000000008100000000000000010000000001008000000000000000000000000000800000000000000000000100000000000000000000000000000000000800000000000000000000000080000000000000000800000000000000000000000400000000000000000000000008000000000000208000000004000000000000000000000000400000000000000000000000004000000000000000000001000000000000000000000000000000100000000000000000000000000000000000000000000000400000000000000000000004100000",
      "type": "0x2",
      "transactionHash": "0x451fe2ba3cb61a56c169db2e1e669fc41369d542e1a7945fad7cd1705d3d1929",
      "transactionIndex": "0x1",
      "blockHash": "0xc8cd7f1a3979543f6f62225c8f83d3b71b645e508fb285ee8cf96c1c6faf9606",
      "blockNumber": "0xdc3a95",
      "gasUsed": "0x2e976",
      "effectiveGasPrice": "0x9502f9000",
      "from": "0xefbbd14082cf2fbcf5badc7ee619f0f4e36d0a5b",
      "to": "0x21ef7976ecd14238f2f41e45b060ff522e8a686d",
      "contractAddress": null
    }
  ],
  "libraries": [],
  "pending": [],
  "returns": {},
  "timestamp": 1731623758,
  "chain": 80002,
  "commit": "bceebff"
}