{
  "transactions": [
    {
      "hash": "0x543882c03aa25bea67b1b27ffcdf3cc82597dfca16d45f5bccea4551b06b5d96",
      "transactionType": "CALL",
      "contractName": null,
      "contractAddress": "0x6fd6d80292b3c2c4333b837140524bc30e848724",
      "function": "grantCustody(address)",
      "arguments": [
        "0xE02e503415D200DEb9ca3f8d9b1bEbE87153E7dd"
      ],
      "transaction": {
        "from": "0xefbbd14082cf2fbcf5badc7ee619f0f4e36d0a5b",
        "to": "0x6fd6d80292b3c2c4333b837140524bc30e848724",
        "gas": "0x4422a",
        "value": "0x0",
        "input": "0x21cbe5d7000000000000000000000000e02e503415d200deb9ca3f8d9b1bebe87153e7dd",
        "nonce": "0x5d3",
        "chainId": "0x13882"
      },
      "additionalContracts": [],
      "isFixedGasLimit": false
    }
  ],
  "receipts": [
    {
      "status": "0x1",
      "cumulativeGasUsed": "0x2e96a",
      "logs": [
        {
          "address": "0x6fd6d80292b3c2c4333b837140524bc30e848724",
          "topics": [
            "0x9cf82755a4c98d86b77277357fa922272efe9f666b0df6fc7fbf318f2e8cd22b",
            "0x000000000000000000000000e02e503415d200deb9ca3f8d9b1bebe87153e7dd",
            "0x000000000000000000000000efbbd14082cf2fbcf5badc7ee619f0f4e36d0a5b"
          ],
          "data": "0x",
          "blockHash": "0xc411fb40ab53dc2f5c760719058234a42a735b69c1742d7ed8843193ba4d59fb",
          "blockNumber": "0xdca4af",
          "transactionHash": "0x543882c03aa25bea67b1b27ffcdf3cc82597dfca16d45f5bccea4551b06b5d96",
          "transactionIndex": "0x0",
          "logIndex": "0x0",
          "removed": false
        },
        {
          "address": "0x0000000000000000000000000000000000001010",
          "topics": [
            "0x4dfe1bbbcf077ddc3e01291eea2d5c70c2b422b415d95645b9adcfd678cb1d63",
            "0x0000000000000000000000000000000000000000000000000000000000001010",
            "0x000000000000000000000000efbbd14082cf2fbcf5badc7ee619f0f4e36d0a5b",
            "0x0000000000000000000000006dc2dd54f24979ec26212794c71afefed722280c"
          ],
          "data": "0x000000000000000000000000000000000000000000000000002e2f65abc473ce00000000000000000000000000000000000000000000000020557814d65f3f020000000000000000000000000000000000000000000004074c134bc1c9d934f2000000000000000000000000000000000000000000000000202748af2a9acb340000000000000000000000000000000000000000000004074c417b27759da8c0",
          "blockHash": "0xc411fb40ab53dc2f5c760719058234a42a735b69c1742d7ed8843193ba4d59fb",
          "blockNumber": "0xdca4af",
          "transactionHash": "0x543882c03aa25bea67b1b27ffcdf3cc82597dfca16d45f5bccea4551b06b5d96",
          "transactionIndex": "0x0",
          "logIndex": "0x1",
          "removed": false
        }
      ],
      "logsBloom": "0x00000000000000000000000000002000000000000000000000000000000000000000000000000000000000000000000000008000000000000000000000000000008000000000000000200000000000800000000000000000000100080020000000000000000000000040000800000000000000000000000080000000080000020800000000000000000000000040000000000000000000000200000000000000200000000004000000000000000000000000400000000000000000000000004000000000000000000001000000000000000000000000000000100000000000000000000000000000000000000000000000000000000000000000000004100000",
      "type": "0x2",
      "transactionHash": "0x543882c03aa25bea67b1b27ffcdf3cc82597dfca16d45f5bccea4551b06b5d96",
      "transactionIndex": "0x0",
      "blockHash": "0xc411fb40ab53dc2f5c760719058234a42a735b69c1742d7ed8843193ba4d59fb",
      "blockNumber": "0xdca4af",
      "gasUsed": "0x2e96a",
      "effectiveGasPrice": "0xfdc8c51ba",
      "from": "0xefbbd14082cf2fbcf5badc7ee619f0f4e36d0a5b",
      "to": "0x6fd6d80292b3c2c4333b837140524bc30e848724",
      "contractAddress": null
    }
  ],
  "libraries": [],
  "pending": [],
  "returns": {},
  "timestamp": 1731681481,
  "chain": 80002,
  "commit": "5d3485c"
}