{
  "transactions": [
    {
      "hash": "0xe5002a6de10aaf1c3ee1b09dd6687f9c28fc29ac62efe7dc7ac4015d844d7938",
      "transactionType": "CALL",
      "contractName": null,
      "contractAddress": "0x6fd6d80292b3c2c4333b837140524bc30e848724",
      "function": "grantCustody(address)",
      "arguments": [
        "0xE02e503415D200DEb9ca3f8d9b1bEbE87153E7dd"
      ],
      "transaction": {
        "from": "0xefbbd14082cf2fbcf5badc7ee619f0f4e36d0a5b",
        "to": "0x6fd6d80292b3c2c4333b837140524bc30e848724",
        "gas": "0x15694",
        "value": "0x0",
        "input": "0x21cbe5d7000000000000000000000000e02e503415d200deb9ca3f8d9b1bebe87153e7dd",
        "nonce": "0x5dd",
        "chainId": "0x13882"
      },
      "additionalContracts": [],
      "isFixedGasLimit": false
    }
  ],
  "receipts": [
    {
      "status": "0x1",
      "cumulativeGasUsed": "0xf806",
      "logs": [
        {
          "address": "0x6fd6d80292b3c2c4333b837140524bc30e848724",
          "topics": [
            "0x9cf82755a4c98d86b77277357fa922272efe9f666b0df6fc7fbf318f2e8cd22b",
            "0x000000000000000000000000e02e503415d200deb9ca3f8d9b1bebe87153e7dd",
            "0x000000000000000000000000efbbd14082cf2fbcf5badc7ee619f0f4e36d0a5b"
          ],
          "data": "0x",
          "blockHash": "0xbcc028938f3c4ba72524ce7f3bcb301ce499a5e6e90756926f765f5dc52bef51",
          "blockNumber": "0xdcacae",
          "transactionHash": "0xe5002a6de10aaf1c3ee1b09dd6687f9c28fc29ac62efe7dc7ac4015d844d7938",
          "transactionIndex": "0x0",
          "logIndex": "0x0",
          "removed": false
        },
        {
          "address": "0x0000000000000000000000000000000000001010",
          "topics": [
            "0x4dfe1bbbcf077ddc3e01291eea2d5c70c2b422b415d95645b9adcfd678cb1d63",
            "0x0000000000000000000000000000000000000000000000000000000000001010",
            "0x000000000000000000000000efbbd14082cf2fbcf5badc7ee619f0f4e36d0a5b",
            "0x000000000000000000000000915a2284d28bd93de7d6f31173b981204bb666e6"
          ],
          "data": "0x000000000000000000000000000000000000000000000000000a834ac39d377c0000000000000000000000000000000000000000000000001f927c4e2887a9600000000000000000000000000000000000000000000004f37d62b511a2b311e80000000000000000000000000000000000000000000000001f87f90364ea71e40000000000000000000000000000000000000000000004f37d6d385c66504964",
          "blockHash": "0xbcc028938f3c4ba72524ce7f3bcb301ce499a5e6e90756926f765f5dc52bef51",
          "blockNumber": "0xdcacae",
          "transactionHash": "0xe5002a6de10aaf1c3ee1b09dd6687f9c28fc29ac62efe7dc7ac4015d844d7938",
          "transactionIndex": "0x0",
          "logIndex": "0x1",
          "removed": false
        }
      ],
      "logsBloom": "0x00000000000000000010000000002000000000000000000000000000000000000000000000000000000000000000000000008000000000000000000000000000008000000000000000200000000000800000000000000000000100000020000000000000000000000040000800000000000000000000000080000000080000000800000000000000000000000000000000000000000000000200000000000000200000000004000000000000000000000000400000000000000000000000004000000000000000000001000000000000000002000000000000100000000000000000000000000000000000000000000000000000400000000000000004100000",
      "type": "0x2",
      "transactionHash": "0xe5002a6de10aaf1c3ee1b09dd6687f9c28fc29ac62efe7dc7ac4015d844d7938",
      "transactionIndex": "0x0",
      "blockHash": "0xbcc028938f3c4ba72524ce7f3bcb301ce499a5e6e90756926f765f5dc52bef51",
      "blockNumber": "0xdcacae",
      "gasUsed": "0xf806",
      "effectiveGasPrice": "0xad9d86bf9",
      "from": "0xefbbd14082cf2fbcf5badc7ee619f0f4e36d0a5b",
      "to": "0x6fd6d80292b3c2c4333b837140524bc30e848724",
      "contractAddress": null
    }
  ],
  "libraries": [],
  "pending": [],
  "returns": {},
  "timestamp": 1731685830,
  "chain": 80002,
  "commit": "5d3485c"
}