{
  "transactions": [
    {
      "hash": "0x049f9a1b12bcf2af21994f06f77304435596e658302e9d10b9181a0a95c68eee",
      "transactionType": "CALL",
      "contractName": null,
      "contractAddress": "0xd0dcc3b996945b41b33d9a4f139413f7b12dbc23",
      "function": "grantCustody(address)",
      "arguments": [
        "0x6f21E7adAF2444E174D4e8A5e1ad5C510202184a"
      ],
      "transaction": {
        "from": "0xefbbd14082cf2fbcf5badc7ee619f0f4e36d0a5b",
        "to": "0xd0dcc3b996945b41b33d9a4f139413f7b12dbc23",
        "gas": "0x405aa",
        "value": "0x0",
        "input": "0x21cbe5d70000000000000000000000006f21e7adaf2444e174d4e8a5e1ad5c510202184a",
        "nonce": "0x672",
        "chainId": "0x13882"
      },
      "additionalContracts": [],
      "isFixedGasLimit": false
    }
  ],
  "receipts": [
    {
      "status": "0x1",
      "cumulativeGasUsed": "0x2e976",
      "logs": [
        {
          "address": "0xd0dcc3b996945b41b33d9a4f139413f7b12dbc23",
          "topics": [
            "0x9cf82755a4c98d86b77277357fa922272efe9f666b0df6fc7fbf318f2e8cd22b",
            "0x0000000000000000000000006f21e7adaf2444e174d4e8a5e1ad5c510202184a",
            "0x000000000000000000000000efbbd14082cf2fbcf5badc7ee619f0f4e36d0a5b"
          ],
          "data": "0x",
          "blockHash": "0x881bd4ecbc29a7af3b4ba481786e3c5753d99efb003b04850100ae866fad2002",
          "blockNumber": "0xdfc262",
          "transactionHash": "0x049f9a1b12bcf2af21994f06f77304435596e658302e9d10b9181a0a95c68eee",
          "transactionIndex": "0x0",
          "logIndex": "0x0",
          "removed": false
        },
        {
          "address": "0x0000000000000000000000000000000000001010",
          "topics": [
            "0x4dfe1bbbcf077ddc3e01291eea2d5c70c2b422b415d95645b9adcfd678cb1d63",
            "0x0000000000000000000000000000000000000000000000000000000000001010",
            "0x000000000000000000000000efbbd14082cf2fbcf5badc7ee619f0f4e36d0a5b",
            "0x00000000000000000000000004ba3ef4c023c1006019a0f9baf6e70455e41fcf"
          ],
          "data": "0x000000000000000000000000000000000000000000000000001b256a426712800000000000000000000000000000000000000000000000004e1cb7a89c9847dd00000000000000000000000000000000000000000000015deaa66094c186ca130000000000000000000000000000000000000000000000004e01923e5a31355d00000000000000000000000000000000000000000000015deac185ff03eddc93",
          "blockHash": "0x881bd4ecbc29a7af3b4ba481786e3c5753d99efb003b04850100ae866fad2002",
          "blockNumber": "0xdfc262",
          "transactionHash": "0x049f9a1b12bcf2af21994f06f77304435596e658302e9d10b9181a0a95c68eee",
          "transactionIndex": "0x0",
          "logIndex": "0x1",
          "removed": false
        }
      ],
      "logsBloom": "0x00000000000000000000000000000000000000000000000000000000000004000000000000000000000000000000000000008000080000000000000000000000008000000000000000000000000000800000000000000000000100000000000000000000000000000000000800000000000000000000000080000100000000000800000000004000000000000000000000000000000000000000000000000000200000000004000000000000000010000000400000000000000000000000004000000000000000040001000000000000000000000000000000100000000000000000000000000000000000000000000000400000000000000000000004100000",
      "type": "0x2",
      "transactionHash": "0x049f9a1b12bcf2af21994f06f77304435596e658302e9d10b9181a0a95c68eee",
      "transactionIndex": "0x0",
      "blockHash": "0x881bd4ecbc29a7af3b4ba481786e3c5753d99efb003b04850100ae866fad2002",
      "blockNumber": "0xdfc262",
      "gasUsed": "0x2e976",
      "effectiveGasPrice": "0x95282a7cf",
      "from": "0xefbbd14082cf2fbcf5badc7ee619f0f4e36d0a5b",
      "to": "0xd0dcc3b996945b41b33d9a4f139413f7b12dbc23",
      "contractAddress": null
    }
  ],
  "libraries": [],
  "pending": [],
  "returns": {},
  "timestamp": 1732123434,
  "chain": 80002,
  "commit": "acf7e0f"
}