{
  "transactions": [
    {
      "hash": "0xbe23bc346c72caccf64107ffe62e30bf140244186de4c9fc852721eea5cf0cfb",
      "transactionType": "CALL",
      "contractName": null,
      "contractAddress": "0xa273f2d1aa5f378396b8aae4b34f169876eea41e",
      "function": "grantCustody(address)",
      "arguments": [
        "0xbBDA93a4EDFF74bace65b3A6cAc64c35ce98d1DC"
      ],
      "transaction": {
        "from": "0xefbbd14082cf2fbcf5badc7ee619f0f4e36d0a5b",
        "to": "0xa273f2d1aa5f378396b8aae4b34f169876eea41e",
        "gas": "0x44270",
        "value": "0x0",
        "input": "0x21cbe5d7000000000000000000000000bbda93a4edff74bace65b3a6cac64c35ce98d1dc",
        "nonce": "0x86d",
        "chainId": "0x13882"
      },
      "additionalContracts": [],
      "isFixedGasLimit": false
    }
  ],
  "receipts": [
    {
      "status": "0x1",
      "cumulativeGasUsed": "0x34a1d",
      "logs": [
        {
          "address": "0xa273f2d1aa5f378396b8aae4b34f169876eea41e",
          "topics": [
            "0x9cf82755a4c98d86b77277357fa922272efe9f666b0df6fc7fbf318f2e8cd22b",
            "0x000000000000000000000000bbda93a4edff74bace65b3a6cac64c35ce98d1dc",
            "0x000000000000000000000000efbbd14082cf2fbcf5badc7ee619f0f4e36d0a5b"
          ],
          "data": "0x",
          "blockHash": "0x122976ec7d5f17ded35534020d5c515592715ef88c6e762dc6b8fbf3485e56c7",
          "blockNumber": "0xf597b0",
          "transactionHash": "0xbe23bc346c72caccf64107ffe62e30bf140244186de4c9fc852721eea5cf0cfb",
          "transactionIndex": "0x1",
          "logIndex": "0x1",
          "removed": false
        },
        {
          "address": "0x0000000000000000000000000000000000001010",
          "topics": [
            "0x4dfe1bbbcf077ddc3e01291eea2d5c70c2b422b415d95645b9adcfd678cb1d63",
            "0x0000000000000000000000000000000000000000000000000000000000001010",
            "0x000000000000000000000000efbbd14082cf2fbcf5badc7ee619f0f4e36d0a5b",
            "0x0000000000000000000000004ad84f7014b7b44f723f284a85b1662337971439"
          ],
          "data": "0x0000000000000000000000000000000000000000000000000010f3f8e883440c000000000000000000000000000000000000000000000001426efc2d9ef61c150000000000000000000000000000000000000000000004a297d58a8a63a4ca33000000000000000000000000000000000000000000000001425e0834b672d8090000000000000000000000000000000000000000000004a297e67e834c280e3f",
          "blockHash": "0x122976ec7d5f17ded35534020d5c515592715ef88c6e762dc6b8fbf3485e56c7",
          "blockNumber": "0xf597b0",
          "transactionHash": "0xbe23bc346c72caccf64107ffe62e30bf140244186de4c9fc852721eea5cf0cfb",
          "transactionIndex": "0x1",
          "logIndex": "0x2",
          "removed": false
        }
      ],
      "logsBloom": "0x00000000000002000000000000000000000000000000000000000000000000000000200000000100000000080000000000008010000000000000000000400000008000000000000000000000000000800000000000000000000100001000000000000000000000000000000800000000000000000000000080000000000000000800000000000000000000000000000000000000000000000000000000000000200000000004000000000000000000000000400000000000000000000000004000000000000000000001000000000000000000000000000000100000000000000000000000000000000000010000008000000000000000000000000004100000",
      "type": "0x2",
      "transactionHash": "0xbe23bc346c72caccf64107ffe62e30bf140244186de4c9fc852721eea5cf0cfb",
      "transactionIndex": "0x1",
      "blockHash": "0x122976ec7d5f17ded35534020d5c515592715ef88c6e762dc6b8fbf3485e56c7",
      "blockNumber": "0xf597b0",
      "gasUsed": "0x2e99a",
      "effectiveGasPrice": "0x5d21dba2d",
      "from": "0xefbbd14082cf2fbcf5badc7ee619f0f4e36d0a5b",
      "to": "0xa273f2d1aa5f378396b8aae4b34f169876eea41e",
      "contractAddress": null
    }
  ],
  "libraries": [],
  "pending": [],
  "returns": {},
  "timestamp": 1735248632,
  "chain": 80002,
  "commit": "b0c6d76"
}