{
  "transactions": [
    {
      "hash": "0xf73cf09e69310617babbce75aa68d94f51ce4fe4bce78b3358c12d6c6fa5e68f",
      "transactionType": "CALL",
      "contractName": null,
      "contractAddress": "0xab307c37ef9023341d727ce8d4849694d7cd8710",
      "function": "grantCustody(address)",
      "arguments": [
        "0xe9dcA14bad5c6f0B705Ed4Df7240b4B5f0937215"
      ],
      "transaction": {
        "from": "0xefbbd14082cf2fbcf5badc7ee619f0f4e36d0a5b",
        "to": "0xab307c37ef9023341d727ce8d4849694d7cd8710",
        "gas": "0x405aa",
        "value": "0x0",
        "input": "0x21cbe5d7000000000000000000000000e9dca14bad5c6f0b705ed4df7240b4b5f0937215",
        "nonce": "0x60b",
        "chainId": "0x13882"
      },
      "additionalContracts": [],
      "isFixedGasLimit": false
    }
  ],
  "receipts": [
    {
      "status": "0x1",
      "cumulativeGasUsed": "0x4df78",
      "logs": [
        {
          "address": "0xab307c37ef9023341d727ce8d4849694d7cd8710",
          "topics": [
            "0x9cf82755a4c98d86b77277357fa922272efe9f666b0df6fc7fbf318f2e8cd22b",
            "0x000000000000000000000000e9dca14bad5c6f0b705ed4df7240b4b5f0937215",
            "0x000000000000000000000000efbbd14082cf2fbcf5badc7ee619f0f4e36d0a5b"
          ],
          "data": "0x",
          "blockHash": "0x1397402e7f9e7c3546c837cdac77595a771b87fbcfdf831d2d87cb9c345b2ae0",
          "blockNumber": "0xdcae60",
          "transactionHash": "0xf73cf09e69310617babbce75aa68d94f51ce4fe4bce78b3358c12d6c6fa5e68f",
          "transactionIndex": "0x1",
          "logIndex": "0x3",
          "removed": false
        },
        {
          "address": "0x0000000000000000000000000000000000001010",
          "topics": [
            "0x4dfe1bbbcf077ddc3e01291eea2d5c70c2b422b415d95645b9adcfd678cb1d63",
            "0x0000000000000000000000000000000000000000000000000000000000001010",
            "0x000000000000000000000000efbbd14082cf2fbcf5badc7ee619f0f4e36d0a5b",
            "0x0000000000000000000000006ab3d36c46ecfb9b9c0bd51cb1c3da5a2c81cea6"
          ],
          "data": "0x000000000000000000000000000000000000000000000000003c576328990e16000000000000000000000000000000000000000000000000096d99447c8b157e00000000000000000000000000000000000000000000039cd6c80117b8499657000000000000000000000000000000000000000000000000093141e153f2076800000000000000000000000000000000000000000000039cd704587ae0e2a46d",
          "blockHash": "0x1397402e7f9e7c3546c837cdac77595a771b87fbcfdf831d2d87cb9c345b2ae0",
          "blockNumber": "0xdcae60",
          "transactionHash": "0xf73cf09e69310617babbce75aa68d94f51ce4fe4bce78b3358c12d6c6fa5e68f",
          "transactionIndex": "0x1",
          "logIndex": "0x4",
          "removed": false
        }
      ],
      "logsBloom": "0x00000000090000000000000000080000000000000000000000000000000000000000000000000000000000000000000000008000000000000000000000000000008000080000000000000000000000800000000000000000000100000040000000000000000000000000000800000000000000002000000080000000000000000800000000000000000000000000000000000000000000000000000000000000200000000004008000000000000000000000400000000000000000000000004000000000000000000001000000000000000000010000000000100000040000000000000000000000000000000000000000000000000000000000000004100000",
      "type": "0x2",
      "transactionHash": "0xf73cf09e69310617babbce75aa68d94f51ce4fe4bce78b3358c12d6c6fa5e68f",
      "transactionIndex": "0x1",
      "blockHash": "0x1397402e7f9e7c3546c837cdac77595a771b87fbcfdf831d2d87cb9c345b2ae0",
      "blockNumber": "0xdcae60",
      "gasUsed": "0x2e976",
      "effectiveGasPrice": "0x14b8d03a00",
      "from": "0xefbbd14082cf2fbcf5badc7ee619f0f4e36d0a5b",
      "to": "0xab307c37ef9023341d727ce8d4849694d7cd8710",
      "contractAddress": null
    }
  ],
  "libraries": [],
  "pending": [],
  "returns": {},
  "timestamp": 1731686755,
  "chain": 80002,
  "commit": "5d3485c"
}