{
  "transactions": [
    {
      "hash": "0x11d0c04b0cc88fcb75770f1bd76a3f14af68234d152854809baefdd33f29c08d",
      "transactionType": "CALL",
      "contractName": null,
      "contractAddress": "0x8034a25b1023a1fcebd34c25360ddf3ef43a9bb5",
      "function": "grantCustody(address)",
      "arguments": [
        "0xFcd9C33115646EaDbC31495CB7d0C6a5D12Cd541"
      ],
      "transaction": {
        "from": "0xefbbd14082cf2fbcf5badc7ee619f0f4e36d0a5b",
        "to": "0x8034a25b1023a1fcebd34c25360ddf3ef43a9bb5",
        "gas": "0x405c8",
        "value": "0x0",
        "input": "0x21cbe5d7000000000000000000000000fcd9c33115646eadbc31495cb7d0c6a5d12cd541",
        "nonce": "0x7ce",
        "chainId": "0x13882"
      },
      "additionalContracts": [],
      "isFixedGasLimit": false
    }
  ],
  "receipts": [
    {
      "status": "0x1",
      "cumulativeGasUsed": "0x49b4b",
      "logs": [
        {
          "address": "0x8034a25b1023a1fcebd34c25360ddf3ef43a9bb5",
          "topics": [
            "0x9cf82755a4c98d86b77277357fa922272efe9f666b0df6fc7fbf318f2e8cd22b",
            "0x000000000000000000000000fcd9c33115646eadbc31495cb7d0c6a5d12cd541",
            "0x000000000000000000000000efbbd14082cf2fbcf5badc7ee619f0f4e36d0a5b"
          ],
          "data": "0x",
          "blockHash": "0x2b9f8f52cfc5002f46a4ea4eada19f239e637be0c88ddd2930d45c527d670391",
          "blockNumber": "0xf20649",
          "transactionHash": "0x11d0c04b0cc88fcb75770f1bd76a3f14af68234d152854809baefdd33f29c08d",
          "transactionIndex": "0x1",
          "logIndex": "0x2",
          "removed": false
        },
        {
          "address": "0x0000000000000000000000000000000000001010",
          "topics": [
            "0x4dfe1bbbcf077ddc3e01291eea2d5c70c2b422b415d95645b9adcfd678cb1d63",
            "0x0000000000000000000000000000000000000000000000000000000000001010",
            "0x000000000000000000000000efbbd14082cf2fbcf5badc7ee619f0f4e36d0a5b",
            "0x0000000000000000000000006ab3d36c46ecfb9b9c0bd51cb1c3da5a2c81cea6"
          ],
          "data": "0x0000000000000000000000000000000000000000000000000010f3a76a8bb800000000000000000000000000000000000000000000000000e626f0313b95fabe000000000000000000000000000000000000000000000430ad292d4c78639b4f000000000000000000000000000000000000000000000000e615fc89d10a42be000000000000000000000000000000000000000000000430ad3a20f3e2ef534f",
          "blockHash": "0x2b9f8f52cfc5002f46a4ea4eada19f239e637be0c88ddd2930d45c527d670391",
          "blockNumber": "0xf20649",
          "transactionHash": "0x11d0c04b0cc88fcb75770f1bd76a3f14af68234d152854809baefdd33f29c08d",
          "transactionIndex": "0x1",
          "logIndex": "0x3",
          "removed": false
        }
      ],
      "logsBloom": "0x00000400080000000000000000000000000000000000000000000000000000000000000000000000000000000000000000008000000000000000000000000000008000080000000000000000000000800000000000000000000100000000000000000000000000000000000800000000000000000000000080000000000000000800000000000000000000000000000000000000000000000000000000000000200000000004000000000000000000000000400020000000000000000000004000800000000000000001000000000000000000010000000000100000000000000000000000008000020000000004000000000000000000000000000004100000",
      "type": "0x2",
      "transactionHash": "0x11d0c04b0cc88fcb75770f1bd76a3f14af68234d152854809baefdd33f29c08d",
      "transactionIndex": "0x1",
      "blockHash": "0x2b9f8f52cfc5002f46a4ea4eada19f239e637be0c88ddd2930d45c527d670391",
      "blockNumber": "0xf20649",
      "gasUsed": "0x2e98c",
      "effectiveGasPrice": "0x5d21dba0f",
      "from": "0xefbbd14082cf2fbcf5badc7ee619f0f4e36d0a5b",
      "to": "0x8034a25b1023a1fcebd34c25360ddf3ef43a9bb5",
      "contractAddress": null
    }
  ],
  "libraries": [],
  "pending": [],
  "returns": {},
  "timestamp": 1734750398,
  "chain": 80002,
  "commit": "66cd11d"
}