{
  "transactions": [
    {
      "hash": "0x6a8a5f02b9ba360ddab19ba3f7a968b16292d2e750dd0995fc9058d12cf13759",
      "transactionType": "CALL",
      "contractName": null,
      "contractAddress": "0x82d9fb1f21629e749fba8f35fb3c77292ff87a89",
      "function": "grantCustody(address)",
      "arguments": [
        "0x4c3aD198e585385D500ec7CC0C8a9cB04A4B938f"
      ],
      "transaction": {
        "from": "0xefbbd14082cf2fbcf5badc7ee619f0f4e36d0a5b",
        "to": "0x82d9fb1f21629e749fba8f35fb3c77292ff87a89",
        "gas": "0x405aa",
        "value": "0x0",
        "input": "0x21cbe5d70000000000000000000000004c3ad198e585385d500ec7cc0c8a9cb04a4b938f",
        "nonce": "0x6c9",
        "chainId": "0x13882"
      },
      "additionalContracts": [],
      "isFixedGasLimit": false
    }
  ],
  "receipts": [
    {
      "status": "0x1",
      "cumulativeGasUsed": "0x2e976",
      "logs": [
        {
          "address": "0x82d9fb1f21629e749fba8f35fb3c77292ff87a89",
          "topics": [
            "0x9cf82755a4c98d86b77277357fa922272efe9f666b0df6fc7fbf318f2e8cd22b",
            "0x0000000000000000000000004c3ad198e585385d500ec7cc0c8a9cb04a4b938f",
            "0x000000000000000000000000efbbd14082cf2fbcf5badc7ee619f0f4e36d0a5b"
          ],
          "data": "0x",
          "blockHash": "0x4b5a83def31b877de0938b6a467faa7777c7a78a6dc7067ed9ffd053580dda4d",
          "blockNumber": "0xdfec1f",
          "transactionHash": "0x6a8a5f02b9ba360ddab19ba3f7a968b16292d2e750dd0995fc9058d12cf13759",
          "transactionIndex": "0x0",
          "logIndex": "0x0",
          "removed": false
        },
        {
          "address": "0x0000000000000000000000000000000000001010",
          "topics": [
            "0x4dfe1bbbcf077ddc3e01291eea2d5c70c2b422b415d95645b9adcfd678cb1d63",
            "0x0000000000000000000000000000000000000000000000000000000000001010",
            "0x000000000000000000000000efbbd14082cf2fbcf5badc7ee619f0f4e36d0a5b",
            "0x00000000000000000000000009207a6efee346cb3e4a54ac18523e3715d38b3f"
          ],
          "data": "0x0000000000000000000000000000000000000000000000000010f3275bfdbc0000000000000000000000000000000000000000000000000048027e3a309210dc0000000000000000000000000000000000000000000003d2fc8177ba0dc514bd00000000000000000000000000000000000000000000000047f18b12d49454dc0000000000000000000000000000000000000000000003d2fc926ae169c2d0bd",
          "blockHash": "0x4b5a83def31b877de0938b6a467faa7777c7a78a6dc7067ed9ffd053580dda4d",
          "blockNumber": "0xdfec1f",
          "transactionHash": "0x6a8a5f02b9ba360ddab19ba3f7a968b16292d2e750dd0995fc9058d12cf13759",
          "transactionIndex": "0x0",
          "logIndex": "0x1",
          "removed": false
        }
      ],
      "logsBloom": "0x00000000000000200000000000000000000000000000000000000000010000000000000000000000000000000000000000008000000000000000010000000000008000000000000000000000000000800000000000000000000100000000000000000000000000000000000800000000000000000000000080000000000000000800002000040000000000000000000000004000000000000000000000000010200000000004000000000000000000000000400000000000000000000000004000000000000000000001000000000000000000000000000000100000000000000000000000000000000010010000000000000000000000000000000004100000",
      "type": "0x2",
      "transactionHash": "0x6a8a5f02b9ba360ddab19ba3f7a968b16292d2e750dd0995fc9058d12cf13759",
      "transactionIndex": "0x0",
      "blockHash": "0x4b5a83def31b877de0938b6a467faa7777c7a78a6dc7067ed9ffd053580dda4d",
      "blockNumber": "0xdfec1f",
      "gasUsed": "0x2e976",
      "effectiveGasPrice": "0x5d21dba0f",
      "from": "0xefbbd14082cf2fbcf5badc7ee619f0f4e36d0a5b",
      "to": "0x82d9fb1f21629e749fba8f35fb3c77292ff87a89",
      "contractAddress": null
    }
  ],
  "libraries": [],
  "pending": [],
  "returns": {},
  "timestamp": 1732146137,
  "chain": 80002,
  "commit": "7027805"
}